{
  "contractName": "Davinci",
  "abi": [
    {
      "inputs": [],
      "stateMutability": "nonpayable",
      "type": "constructor"
    },
    {
      "anonymous": false,
      "inputs": [
        {
          "indexed": true,
          "internalType": "address",
          "name": "account",
          "type": "address"
        },
        {
          "indexed": true,
          "internalType": "address",
          "name": "operator",
          "type": "address"
        },
        {
          "indexed": false,
          "internalType": "bool",
          "name": "approved",
          "type": "bool"
        }
      ],
      "name": "ApprovalForAll",
      "type": "event"
    },
    {
      "anonymous": false,
      "inputs": [
        {
          "indexed": true,
          "internalType": "address",
          "name": "account",
          "type": "address"
        },
        {
          "indexed": true,
          "internalType": "address",
          "name": "owner",
          "type": "address"
        },
        {
          "indexed": false,
          "internalType": "uint256",
          "name": "fraction",
          "type": "uint256"
        }
      ],
      "name": "JointAccountShareCreated",
      "type": "event"
    },
    {
      "anonymous": false,
      "inputs": [
        {
          "indexed": true,
          "internalType": "uint256",
          "name": "nftId",
          "type": "uint256"
        },
        {
          "indexed": false,
          "internalType": "address",
          "name": "primaryRoyaltyAccount",
          "type": "address"
        },
        {
          "indexed": false,
          "internalType": "uint256",
          "name": "primaryRoyaltyCut",
          "type": "uint256"
        },
        {
          "indexed": false,
          "internalType": "uint256",
          "name": "primaryRoyaltyMinimum",
          "type": "uint256"
        },
        {
          "indexed": false,
          "internalType": "address",
          "name": "secondaryRoyaltyAccount",
          "type": "address"
        },
        {
          "indexed": false,
          "internalType": "uint256",
          "name": "secondaryRoyaltyCut",
          "type": "uint256"
        },
        {
          "indexed": false,
          "internalType": "uint256",
          "name": "secondaryRoyaltyMinimum",
          "type": "uint256"
        }
      ],
      "name": "RoyaltiesConfigured",
      "type": "event"
    },
    {
      "anonymous": false,
      "inputs": [
        {
          "indexed": true,
          "internalType": "uint256",
          "name": "nftId",
          "type": "uint256"
        },
        {
          "indexed": false,
          "internalType": "uint256",
          "name": "lockUntil",
          "type": "uint256"
        }
      ],
      "name": "RoyaltiesLocked",
      "type": "event"
    },
    {
      "anonymous": false,
      "inputs": [
        {
          "indexed": true,
          "internalType": "address",
          "name": "operator",
          "type": "address"
        },
        {
          "indexed": true,
          "internalType": "address",
          "name": "from",
          "type": "address"
        },
        {
          "indexed": true,
          "internalType": "address",
          "name": "to",
          "type": "address"
        },
        {
          "indexed": false,
          "internalType": "uint256[]",
          "name": "ids",
          "type": "uint256[]"
        },
        {
          "indexed": false,
          "internalType": "uint256[]",
          "name": "values",
          "type": "uint256[]"
        }
      ],
      "name": "TransferBatch",
      "type": "event"
    },
    {
      "anonymous": false,
      "inputs": [
        {
          "indexed": true,
          "internalType": "address",
          "name": "operator",
          "type": "address"
        },
        {
          "indexed": true,
          "internalType": "address",
          "name": "from",
          "type": "address"
        },
        {
          "indexed": true,
          "internalType": "address",
          "name": "to",
          "type": "address"
        },
        {
          "indexed": false,
          "internalType": "uint256",
          "name": "id",
          "type": "uint256"
        },
        {
          "indexed": false,
          "internalType": "uint256",
          "name": "value",
          "type": "uint256"
        }
      ],
      "name": "TransferSingle",
      "type": "event"
    },
    {
      "anonymous": false,
      "inputs": [
        {
          "indexed": false,
          "internalType": "string",
          "name": "value",
          "type": "string"
        },
        {
          "indexed": true,
          "internalType": "uint256",
          "name": "id",
          "type": "uint256"
        }
      ],
      "name": "URI",
      "type": "event"
    },
    {
      "inputs": [],
      "name": "BASIS_POINTS",
      "outputs": [
        {
          "internalType": "uint256",
          "name": "",
          "type": "uint256"
        }
      ],
      "stateMutability": "view",
      "type": "function",
      "constant": true
    },
    {
      "inputs": [],
      "name": "CURRENCY",
      "outputs": [
        {
          "internalType": "uint256",
          "name": "",
          "type": "uint256"
        }
      ],
      "stateMutability": "view",
      "type": "function",
      "constant": true
    },
    {
      "inputs": [],
      "name": "MAX_JOINT_ACCOUNT_SHARES",
      "outputs": [
        {
          "internalType": "uint256",
          "name": "",
          "type": "uint256"
        }
      ],
      "stateMutability": "view",
      "type": "function",
      "constant": true
    },
    {
      "inputs": [
        {
          "internalType": "address",
          "name": "account",
          "type": "address"
        },
        {
          "internalType": "uint256",
          "name": "id",
          "type": "uint256"
        }
      ],
      "name": "balanceOf",
      "outputs": [
        {
          "internalType": "uint256",
          "name": "",
          "type": "uint256"
        }
      ],
      "stateMutability": "view",
      "type": "function",
      "constant": true
    },
    {
      "inputs": [
        {
          "internalType": "address[]",
          "name": "accounts",
          "type": "address[]"
        },
        {
          "internalType": "uint256[]",
          "name": "ids",
          "type": "uint256[]"
        }
      ],
      "name": "balanceOfBatch",
      "outputs": [
        {
          "internalType": "uint256[]",
          "name": "",
          "type": "uint256[]"
        }
      ],
      "stateMutability": "view",
      "type": "function",
      "constant": true
    },
    {
      "inputs": [
        {
          "internalType": "address",
          "name": "account",
          "type": "address"
        },
        {
          "internalType": "address",
          "name": "owner",
          "type": "address"
        }
      ],
      "name": "balanceOfJAOwner",
      "outputs": [
        {
          "internalType": "uint256",
          "name": "",
          "type": "uint256"
        }
      ],
      "stateMutability": "view",
      "type": "function",
      "constant": true
    },
    {
      "inputs": [
        {
          "internalType": "address",
          "name": "seller",
          "type": "address"
        },
        {
          "internalType": "uint256",
          "name": "nftId",
          "type": "uint256"
        },
        {
          "internalType": "uint256",
          "name": "price",
          "type": "uint256"
        },
        {
          "internalType": "uint256",
          "name": "amount",
          "type": "uint256"
        }
      ],
      "name": "buyOffer",
      "outputs": [],
      "stateMutability": "nonpayable",
      "type": "function"
    },
    {
      "inputs": [
        {
          "internalType": "uint256",
          "name": "nftId",
          "type": "uint256"
        },
        {
          "internalType": "uint256",
          "name": "price",
          "type": "uint256"
        },
        {
          "internalType": "uint256",
          "name": "amount",
          "type": "uint256"
        },
        {
          "internalType": "bytes",
          "name": "sellerSignature",
          "type": "bytes"
        }
      ],
      "name": "buySignedOffer",
      "outputs": [],
      "stateMutability": "nonpayable",
      "type": "function"
    },
    {
      "inputs": [
        {
          "internalType": "uint256",
          "name": "nftId",
          "type": "uint256"
        },
        {
          "internalType": "address",
          "name": "primaryRoyaltyAccount",
          "type": "address"
        },
        {
          "internalType": "uint256",
          "name": "primaryRoyaltyCut",
          "type": "uint256"
        },
        {
          "internalType": "uint256",
          "name": "primaryRoyaltyMinimum",
          "type": "uint256"
        },
        {
          "internalType": "address",
          "name": "secondaryRoyaltyAccount",
          "type": "address"
        },
        {
          "internalType": "uint256",
          "name": "secondaryRoyaltyCut",
          "type": "uint256"
        },
        {
          "internalType": "uint256",
          "name": "secondaryRoyaltyMinimum",
          "type": "uint256"
        }
      ],
      "name": "configureRoyalties",
      "outputs": [],
      "stateMutability": "nonpayable",
      "type": "function"
    },
    {
      "inputs": [
        {
          "internalType": "address[]",
          "name": "owners",
          "type": "address[]"
        },
        {
          "internalType": "uint256[]",
          "name": "fractions",
          "type": "uint256[]"
        }
      ],
      "name": "createJointAccount",
      "outputs": [
        {
          "internalType": "address",
          "name": "",
          "type": "address"
        }
      ],
      "stateMutability": "nonpayable",
      "type": "function"
    },
    {
      "inputs": [
        {
          "internalType": "address",
          "name": "account",
          "type": "address"
        }
      ],
      "name": "distributeJointAccount",
      "outputs": [],
      "stateMutability": "nonpayable",
      "type": "function"
    },
    {
      "inputs": [
        {
          "internalType": "address",
          "name": "account",
          "type": "address"
        },
        {
          "internalType": "address",
          "name": "maybeOwner",
          "type": "address"
        }
      ],
      "name": "fractionOfJAOwner",
      "outputs": [
        {
          "internalType": "uint256",
          "name": "",
          "type": "uint256"
        }
      ],
      "stateMutability": "view",
      "type": "function",
      "constant": true
    },
    {
      "inputs": [
        {
          "internalType": "address",
          "name": "issuer",
          "type": "address"
        },
        {
          "internalType": "uint32",
          "name": "nonce",
          "type": "uint32"
        },
        {
          "internalType": "uint64",
          "name": "supply",
          "type": "uint64"
        }
      ],
      "name": "getNftId",
      "outputs": [
        {
          "internalType": "uint256",
          "name": "",
          "type": "uint256"
        }
      ],
      "stateMutability": "pure",
      "type": "function",
      "constant": true
    },
    {
      "inputs": [
        {
          "internalType": "uint256",
          "name": "nftId",
          "type": "uint256"
        }
      ],
      "name": "getRoyalties",
      "outputs": [
        {
          "internalType": "address",
          "name": "primaryRoyaltyAccount",
          "type": "address"
        },
        {
          "internalType": "uint256",
          "name": "primaryRoyaltyCut",
          "type": "uint256"
        },
        {
          "internalType": "uint256",
          "name": "primaryRoyaltyMinimum",
          "type": "uint256"
        },
        {
          "internalType": "address",
          "name": "secondaryRoyaltyAccount",
          "type": "address"
        },
        {
          "internalType": "uint256",
          "name": "secondaryRoyaltyCut",
          "type": "uint256"
        },
        {
          "internalType": "uint256",
          "name": "secondaryRoyaltyMinimum",
          "type": "uint256"
        }
      ],
      "stateMutability": "view",
      "type": "function",
      "constant": true
    },
    {
      "inputs": [
        {
          "internalType": "uint256",
          "name": "nftId",
          "type": "uint256"
        },
        {
          "internalType": "address",
          "name": "beneficiary",
          "type": "address"
        }
      ],
      "name": "getRoyaltiesForBeneficiary",
      "outputs": [
        {
          "internalType": "uint256",
          "name": "primaryCut",
          "type": "uint256"
        },
        {
          "internalType": "uint256",
          "name": "primaryMinimum",
          "type": "uint256"
        },
        {
          "internalType": "uint256",
          "name": "secondaryCut",
          "type": "uint256"
        },
        {
          "internalType": "uint256",
          "name": "secondaryMinimum",
          "type": "uint256"
        }
      ],
      "stateMutability": "view",
      "type": "function",
      "constant": true
    },
    {
      "inputs": [
        {
          "internalType": "address",
          "name": "account",
          "type": "address"
        },
        {
          "internalType": "address",
          "name": "operator",
          "type": "address"
        }
      ],
      "name": "isApprovedForAll",
      "outputs": [
        {
          "internalType": "bool",
          "name": "",
          "type": "bool"
        }
      ],
      "stateMutability": "view",
      "type": "function",
      "constant": true
    },
    {
      "inputs": [
        {
          "internalType": "address",
          "name": "",
          "type": "address"
        }
      ],
      "name": "issuanceNonces",
      "outputs": [
        {
          "internalType": "uint32",
          "name": "",
          "type": "uint32"
        }
      ],
      "stateMutability": "view",
      "type": "function",
      "constant": true
    },
    {
      "inputs": [
        {
          "internalType": "uint64",
          "name": "supply",
          "type": "uint64"
        },
        {
          "internalType": "bytes",
          "name": "data",
          "type": "bytes"
        }
      ],
      "name": "issue",
      "outputs": [
        {
          "internalType": "uint256",
          "name": "",
          "type": "uint256"
        }
      ],
      "stateMutability": "nonpayable",
      "type": "function"
    },
    {
      "inputs": [
        {
          "internalType": "address",
          "name": "",
          "type": "address"
        },
        {
          "internalType": "uint256",
          "name": "",
          "type": "uint256"
        }
      ],
      "name": "jointAccounts",
      "outputs": [
        {
          "internalType": "address",
          "name": "owner",
          "type": "address"
        },
        {
          "internalType": "uint256",
          "name": "fraction",
          "type": "uint256"
        }
      ],
      "stateMutability": "view",
      "type": "function",
      "constant": true
    },
    {
      "inputs": [
        {
          "internalType": "uint256",
          "name": "nftId",
          "type": "uint256"
        },
        {
          "internalType": "uint256",
          "name": "lockUntil",
          "type": "uint256"
        }
      ],
      "name": "lockRoyalties",
      "outputs": [],
      "stateMutability": "nonpayable",
      "type": "function"
    },
    {
      "inputs": [
        {
          "internalType": "address[]",
          "name": "owners",
          "type": "address[]"
        },
        {
          "internalType": "uint256[]",
          "name": "fractions",
          "type": "uint256[]"
        }
      ],
      "name": "makeAddressOfJointAccount",
      "outputs": [
        {
          "internalType": "address",
          "name": "",
          "type": "address"
        }
      ],
      "stateMutability": "pure",
      "type": "function",
      "constant": true
    },
    {
      "inputs": [
        {
          "internalType": "uint256",
          "name": "nftId",
          "type": "uint256"
        },
        {
          "internalType": "uint256",
          "name": "price",
          "type": "uint256"
        },
        {
          "internalType": "uint256",
          "name": "amount",
          "type": "uint256"
        }
      ],
      "name": "offerToSell",
      "outputs": [],
      "stateMutability": "nonpayable",
      "type": "function"
    },
    {
      "inputs": [
        {
          "internalType": "address",
          "name": "from",
          "type": "address"
        },
        {
          "internalType": "address",
          "name": "to",
          "type": "address"
        },
        {
          "internalType": "uint256[]",
          "name": "ids",
          "type": "uint256[]"
        },
        {
          "internalType": "uint256[]",
          "name": "amounts",
          "type": "uint256[]"
        },
        {
          "internalType": "bytes",
          "name": "data",
          "type": "bytes"
        }
      ],
      "name": "safeBatchTransferFrom",
      "outputs": [],
      "stateMutability": "nonpayable",
      "type": "function"
    },
    {
      "inputs": [
        {
          "internalType": "address",
          "name": "from",
          "type": "address"
        },
        {
          "internalType": "address",
          "name": "to",
          "type": "address"
        },
        {
          "internalType": "uint256",
          "name": "id",
          "type": "uint256"
        },
        {
          "internalType": "uint256",
          "name": "amount",
          "type": "uint256"
        },
        {
          "internalType": "bytes",
          "name": "data",
          "type": "bytes"
        }
      ],
      "name": "safeTransferFrom",
      "outputs": [],
      "stateMutability": "nonpayable",
      "type": "function"
    },
    {
      "inputs": [
        {
          "internalType": "address",
          "name": "operator",
          "type": "address"
        },
        {
          "internalType": "bool",
          "name": "approved",
          "type": "bool"
        }
      ],
      "name": "setApprovalForAll",
      "outputs": [],
      "stateMutability": "nonpayable",
      "type": "function"
    },
    {
      "inputs": [
        {
          "internalType": "bytes4",
          "name": "interfaceId",
          "type": "bytes4"
        }
      ],
      "name": "supportsInterface",
      "outputs": [
        {
          "internalType": "bool",
          "name": "",
          "type": "bool"
        }
      ],
      "stateMutability": "view",
      "type": "function",
      "constant": true
    },
    {
      "inputs": [
        {
          "internalType": "uint256",
          "name": "",
          "type": "uint256"
        }
      ],
      "name": "uri",
      "outputs": [
        {
          "internalType": "string",
          "name": "",
          "type": "string"
        }
      ],
      "stateMutability": "view",
      "type": "function",
      "constant": true
    }
  ],
  "bytecode": "0x6080604052612710600455600a6005553480156200001c57600080fd5b5060405180606001604052806022815260200162005f946022913962000048816200009760201b60201c565b50600068056bc75e2d631000009050600062000069620000b360201b60201c565b90506200008f8160008460405180602001604052806000815250620000bb60201b60201c565b50506200131a565b8060029080519060200190620000af929190620009ac565b5050565b600033905090565b600073ffffffffffffffffffffffffffffffffffffffff168473ffffffffffffffffffffffffffffffffffffffff1614156200012e576040517f08c379a0000000000000000000000000000000000000000000000000000000008152600401620001259062000cd3565b60405180910390fd5b600062000140620000b360201b60201c565b905062000179816000876200015b886200028060201b60201c565b6200016c886200028060201b60201c565b876200030160201b60201c565b8260008086815260200190815260200160002060008773ffffffffffffffffffffffffffffffffffffffff1673ffffffffffffffffffffffffffffffffffffffff1681526020019081526020016000206000828254620001da919062000d64565b925050819055508473ffffffffffffffffffffffffffffffffffffffff16600073ffffffffffffffffffffffffffffffffffffffff168273ffffffffffffffffffffffffffffffffffffffff167fc3d58168c5ae7397731d063d5bbf3d657854427343f4c083240f7aacaa2d0f6287876040516200025a92919062000cf5565b60405180910390a462000279816000878787876200037a60201b60201c565b5050505050565b60606000600167ffffffffffffffff811115620002a257620002a1620010ab565b5b604051908082528060200260200182016040528015620002d15781602001602082028036833780820191505090505b5090508281600081518110620002ec57620002eb6200107c565b5b60200260200101818152505080915050919050565b60005b835181101562000371576200035d868583815181106200032957620003286200107c565b5b602002602001015160008685815181106200034957620003486200107c565b5b60200260200101516200058460201b60201c565b80620003699062000fa1565b905062000304565b50505050505050565b620003a68473ffffffffffffffffffffffffffffffffffffffff16620006ec60201b620020c11760201c565b156200057c578373ffffffffffffffffffffffffffffffffffffffff1663f23a6e6187878686866040518663ffffffff1660e01b8152600401620003ef95949392919062000be5565b602060405180830381600087803b1580156200040a57600080fd5b505af19250505080156200043e57506040513d601f19601f820116820180604052508101906200043b919062000a73565b60015b620004f0576200044d620010da565b806308c379a01415620004b15750620004656200125e565b80620004725750620004b3565b806040517f08c379a0000000000000000000000000000000000000000000000000000000008152600401620004a8919062000c49565b60405180910390fd5b505b6040517f08c379a0000000000000000000000000000000000000000000000000000000008152600401620004e79062000c6d565b60405180910390fd5b63f23a6e6160e01b7bffffffffffffffffffffffffffffffffffffffffffffffffffffffff1916817bffffffffffffffffffffffffffffffffffffffffffffffffffffffff1916146200057a576040517f08c379a0000000000000000000000000000000000000000000000000000000008152600401620005719062000c8f565b60405180910390fd5b505b505050505050565b60008314156200059457620006e6565b600080600080620005ac8888620006ff60201b60201c565b905080156200061d5760086000888152602001908152602001600020549350600960008881526020019081526020016000205492506007600088815260200190815260200160002060009054906101000a900473ffffffffffffffffffffffffffffffffffffffff16915062000680565b600b6000888152602001908152602001600020549350600c6000888152602001908152602001600020549250600a600088815260200190815260200160002060009054906101000a900473ffffffffffffffffffffffffffffffffffffffff1691505b6000600454858862000693919062000df9565b6200069f919062000dc1565b905083811015620006ae578390505b60008682620006be919062000df9565b905060008114620006df57620006de8a856000846200075660201b60201c565b5b5050505050505b50505050565b600080823b905060008111915050919050565b60008060008062000716856200095560201b60201c565b9250925092508273ffffffffffffffffffffffffffffffffffffffff168673ffffffffffffffffffffffffffffffffffffffff1614935050505092915050565b600080600084815260200190815260200160002060008673ffffffffffffffffffffffffffffffffffffffff1673ffffffffffffffffffffffffffffffffffffffff16815260200190815260200160002054905081811015620007f0576040517f08c379a0000000000000000000000000000000000000000000000000000000008152600401620007e79062000cb1565b60405180910390fd5b8181620007fe919062000e5a565b60008085815260200190815260200160002060008773ffffffffffffffffffffffffffffffffffffffff1673ffffffffffffffffffffffffffffffffffffffff168152602001908152602001600020819055508160008085815260200190815260200160002060008673ffffffffffffffffffffffffffffffffffffffff1673ffffffffffffffffffffffffffffffffffffffff1681526020019081526020016000206000828254620008b2919062000d64565b925050819055506000620008cb620000b360201b60201c565b90508473ffffffffffffffffffffffffffffffffffffffff168673ffffffffffffffffffffffffffffffffffffffff168273ffffffffffffffffffffffffffffffffffffffff167fc3d58168c5ae7397731d063d5bbf3d657854427343f4c083240f7aacaa2d0f6287876040516200094592919062000cf5565b60405180910390a4505050505050565b600080600060607fffffffffffffffffffffffffffffffffffffffff0000000000000000000000008516901c925060406bffffffff00000000000000008516901c915067ffffffffffffffff841690509193909250565b828054620009ba9062000f35565b90600052602060002090601f016020900481019282620009de576000855562000a2a565b82601f10620009f957805160ff191683800117855562000a2a565b8280016001018555821562000a2a579182015b8281111562000a2957825182559160200191906001019062000a0c565b5b50905062000a39919062000a3d565b5090565b5b8082111562000a5857600081600090555060010162000a3e565b5090565b60008151905062000a6d8162001300565b92915050565b60006020828403121562000a8c5762000a8b620010ff565b5b600062000a9c8482850162000a5c565b91505092915050565b62000ab08162000e95565b82525050565b600062000ac38262000d2c565b62000acf818562000d42565b935062000ae181856020860162000eff565b62000aec8162001104565b840191505092915050565b600062000b048262000d37565b62000b10818562000d53565b935062000b2281856020860162000eff565b62000b2d8162001104565b840191505092915050565b600062000b4760348362000d53565b915062000b548262001122565b604082019050919050565b600062000b6e60288362000d53565b915062000b7b8262001171565b604082019050919050565b600062000b95602a8362000d53565b915062000ba282620011c0565b604082019050919050565b600062000bbc60218362000d53565b915062000bc9826200120f565b604082019050919050565b62000bdf8162000ef5565b82525050565b600060a08201905062000bfc600083018862000aa5565b62000c0b602083018762000aa5565b62000c1a604083018662000bd4565b62000c29606083018562000bd4565b818103608083015262000c3d818462000ab6565b90509695505050505050565b6000602082019050818103600083015262000c65818462000af7565b905092915050565b6000602082019050818103600083015262000c888162000b38565b9050919050565b6000602082019050818103600083015262000caa8162000b5f565b9050919050565b6000602082019050818103600083015262000ccc8162000b86565b9050919050565b6000602082019050818103600083015262000cee8162000bad565b9050919050565b600060408201905062000d0c600083018562000bd4565b62000d1b602083018462000bd4565b9392505050565b6000604051905090565b600081519050919050565b600081519050919050565b600082825260208201905092915050565b600082825260208201905092915050565b600062000d718262000ef5565b915062000d7e8362000ef5565b9250827fffffffffffffffffffffffffffffffffffffffffffffffffffffffffffffffff0382111562000db65762000db562000fef565b5b828201905092915050565b600062000dce8262000ef5565b915062000ddb8362000ef5565b92508262000dee5762000ded6200101e565b5b828204905092915050565b600062000e068262000ef5565b915062000e138362000ef5565b9250817fffffffffffffffffffffffffffffffffffffffffffffffffffffffffffffffff048311821515161562000e4f5762000e4e62000fef565b5b828202905092915050565b600062000e678262000ef5565b915062000e748362000ef5565b92508282101562000e8a5762000e8962000fef565b5b828203905092915050565b600062000ea28262000ed5565b9050919050565b60007fffffffff0000000000000000000000000000000000000000000000000000000082169050919050565b600073ffffffffffffffffffffffffffffffffffffffff82169050919050565b6000819050919050565b60005b8381101562000f1f57808201518184015260208101905062000f02565b8381111562000f2f576000848401525b50505050565b6000600282049050600182168062000f4e57607f821691505b6020821081141562000f655762000f646200104d565b5b50919050565b62000f768262001104565b810181811067ffffffffffffffff8211171562000f985762000f97620010ab565b5b80604052505050565b600062000fae8262000ef5565b91507fffffffffffffffffffffffffffffffffffffffffffffffffffffffffffffffff82141562000fe45762000fe362000fef565b5b600182019050919050565b7f4e487b7100000000000000000000000000000000000000000000000000000000600052601160045260246000fd5b7f4e487b7100000000000000000000000000000000000000000000000000000000600052601260045260246000fd5b7f4e487b7100000000000000000000000000000000000000000000000000000000600052602260045260246000fd5b7f4e487b7100000000000000000000000000000000000000000000000000000000600052603260045260246000fd5b7f4e487b7100000000000000000000000000000000000000000000000000000000600052604160045260246000fd5b600060033d1115620010fc5760046000803e620010f960005162001115565b90505b90565b600080fd5b6000601f19601f8301169050919050565b60008160e01c9050919050565b7f455243313135353a207472616e7366657220746f206e6f6e204552433131353560008201527f526563656976657220696d706c656d656e746572000000000000000000000000602082015250565b7f455243313135353a204552433131353552656365697665722072656a6563746560008201527f6420746f6b656e73000000000000000000000000000000000000000000000000602082015250565b7f455243313135353a20696e73756666696369656e742062616c616e636520666f60008201527f72207472616e7366657200000000000000000000000000000000000000000000602082015250565b7f455243313135353a206d696e7420746f20746865207a65726f2061646472657360008201527f7300000000000000000000000000000000000000000000000000000000000000602082015250565b600060443d10156200127057620012fd565b6200127a62000d22565b60043d036004823e80513d602482011167ffffffffffffffff82111715620012a4575050620012fd565b808201805167ffffffffffffffff811115620012c45750505050620012fd565b80602083010160043d038501811115620012e3575050505050620012fd565b620012f48260200185018662000f6b565b82955050505050505b90565b6200130b8162000ea9565b81146200131757600080fd5b50565b614c6a806200132a6000396000f3fe608060405234801561001057600080fd5b50600436106101a85760003560e01c80638183d99d116100f9578063bb3bafd611610097578063e985e9c511610071578063e985e9c514610556578063f242432a14610586578063f3747d2d146105a2578063f5361219146105be576101a8565b8063bb3bafd6146104d0578063e1f1c4a714610505578063e24b0a2b14610523576101a8565b8063a5e1fcd7116100d3578063a5e1fcd714610438578063acc08fa514610454578063ad09608a14610484578063ba7f4dfe146104a0576101a8565b80638183d99d146103d05780639e00bb96146103ec578063a22cb4651461041c576101a8565b806339b276f4116101665780634e1273f4116101405780634e1273f4146103245780635611cac21461035457806358556fb0146103845780636f6fa319146103b4576101a8565b806339b276f4146102a75780633c6b5709146102c35780634559a29b146102f3576101a8565b8062fdd58e146101ad57806301ffc9a7146101dd5780630e89341c1461020d5780632c8f284c1461023d5780632eb2c2d61461026d57806330b0642114610289575b600080fd5b6101c760048036038101906101c29190613113565b6105dc565b6040516101d49190613f3d565b60405180910390f35b6101f760048036038101906101f29190613285565b6106a5565b6040516102049190613c60565b60405180910390f35b610227600480360381019061022291906132df565b610787565b6040516102349190613c7b565b60405180910390f35b61025760048036038101906102529190612f2d565b61081b565b6040516102649190613f3d565b60405180910390f35b61028760048036038101906102829190612f6d565b61091b565b005b610291610cc5565b60405161029e9190613f3d565b60405180910390f35b6102c160048036038101906102bc91906133ee565b610ccb565b005b6102dd60048036038101906102d891906131ba565b610d94565b6040516102ea9190613f3d565b60405180910390f35b61030d60048036038101906103089190613113565b610dd7565b60405161031b929190613b7d565b60405180910390f35b61033e6004803603810190610339919061320d565b610e38565b60405161034b9190613c07565b60405180910390f35b61036e6004803603810190610369919061320d565b610f51565b60405161037b9190613aa0565b60405180910390f35b61039e60048036038101906103999190613504565b610f8c565b6040516103ab9190613f3d565b60405180910390f35b6103ce60048036038101906103c9919061342e565b610fa8565b005b6103ea60048036038101906103e59190613481565b611020565b005b61040660048036038101906104019190612f2d565b61105b565b6040516104139190613f3d565b60405180910390f35b610436600480360381019061043191906130d3565b6110a2565b005b610452600480360381019061044d9190612f00565b611223565b005b61046e60048036038101906104699190612f00565b611316565b60405161047b9190613fc6565b60405180910390f35b61049e6004803603810190610499919061334c565b611339565b005b6104ba60048036038101906104b5919061320d565b611642565b6040516104c79190613aa0565b60405180910390f35b6104ea60048036038101906104e591906132df565b6119ae565b6040516104fc96959493929190613ba6565b60405180910390f35b61050d611a84565b60405161051a9190613f3d565b60405180910390f35b61053d6004803603810190610538919061330c565b611a8a565b60405161054d9493929190613f81565b60405180910390f35b610570600480360381019061056b9190612f2d565b611c55565b60405161057d9190613c60565b60405180910390f35b6105a0600480360381019061059b919061303c565b611ce9565b005b6105bc60048036038101906105b79190613153565b612001565b005b6105c66120bc565b6040516105d39190613f3d565b60405180910390f35b60008073ffffffffffffffffffffffffffffffffffffffff168373ffffffffffffffffffffffffffffffffffffffff16141561064d576040517f08c379a000000000000000000000000000000000000000000000000000000000815260040161064490613cfd565b60405180910390fd5b60008083815260200190815260200160002060008473ffffffffffffffffffffffffffffffffffffffff1673ffffffffffffffffffffffffffffffffffffffff16815260200190815260200160002054905092915050565b60007fd9b67a26000000000000000000000000000000000000000000000000000000007bffffffffffffffffffffffffffffffffffffffffffffffffffffffff1916827bffffffffffffffffffffffffffffffffffffffffffffffffffffffff1916148061077057507f0e89341c000000000000000000000000000000000000000000000000000000007bffffffffffffffffffffffffffffffffffffffffffffffffffffffff1916827bffffffffffffffffffffffffffffffffffffffffffffffffffffffff1916145b80610780575061077f826120d4565b5b9050919050565b60606002805461079690614367565b80601f01602080910402602001604051908101604052809291908181526020018280546107c290614367565b801561080f5780601f106107e45761010080835404028352916020019161080f565b820191906000526020600020905b8154815290600101906020018083116107f257829003601f168201915b50505050509050919050565b600080600660008573ffffffffffffffffffffffffffffffffffffffff1673ffffffffffffffffffffffffffffffffffffffff168152602001908152602001600020905060005b818054905081101561090e576000828281548110610883576108826144a0565b5b906000526020600020906002020190508473ffffffffffffffffffffffffffffffffffffffff168160000160009054906101000a900473ffffffffffffffffffffffffffffffffffffffff1673ffffffffffffffffffffffffffffffffffffffff1614156108fa5780600101549350505050610915565b508080610906906143ca565b915050610862565b5060009150505b92915050565b815183511461095f576040517f08c379a000000000000000000000000000000000000000000000000000000000815260040161095690613edd565b60405180910390fd5b600073ffffffffffffffffffffffffffffffffffffffff168473ffffffffffffffffffffffffffffffffffffffff1614156109cf576040517f08c379a00000000000000000000000000000000000000000000000000000000081526004016109c690613d7d565b60405180910390fd5b6109d761213e565b73ffffffffffffffffffffffffffffffffffffffff168573ffffffffffffffffffffffffffffffffffffffff161480610a1d5750610a1c85610a1761213e565b611c55565b5b610a5c576040517f08c379a0000000000000000000000000000000000000000000000000000000008152600401610a5390613d9d565b60405180910390fd5b6000610a6661213e565b9050610a76818787878787612146565b60005b8451811015610c30576000858281518110610a9757610a966144a0565b5b602002602001015190506000858381518110610ab657610ab56144a0565b5b60200260200101519050600080600084815260200190815260200160002060008b73ffffffffffffffffffffffffffffffffffffffff1673ffffffffffffffffffffffffffffffffffffffff16815260200190815260200160002054905081811015610b57576040517f08c379a0000000000000000000000000000000000000000000000000000000008152600401610b4e90613e3d565b60405180910390fd5b8181610b639190614259565b60008085815260200190815260200160002060008c73ffffffffffffffffffffffffffffffffffffffff1673ffffffffffffffffffffffffffffffffffffffff168152602001908152602001600020819055508160008085815260200190815260200160002060008b73ffffffffffffffffffffffffffffffffffffffff1673ffffffffffffffffffffffffffffffffffffffff1681526020019081526020016000206000828254610c15919061413e565b9250508190555050505080610c29906143ca565b9050610a79565b508473ffffffffffffffffffffffffffffffffffffffff168673ffffffffffffffffffffffffffffffffffffffff168273ffffffffffffffffffffffffffffffffffffffff167f4a39dc06d4c0dbc64b70af90fd698a233a518aa5d07e595d983b8c0526c8f7fb8787604051610ca7929190613c29565b60405180910390a4610cbd8187878787876121ad565b505050505050565b60055481565b6000610cd561213e565b9050610ce18184612394565b610cea57600080fd5b600d6000848152602001908152602001600020548211610d3f576040517f08c379a0000000000000000000000000000000000000000000000000000000008152600401610d3690613ddd565b60405180910390fd5b81600d600085815260200190815260200160002081905550827f7bdd35d2167385bdbed0892e34b48298770ffce27fe71928c767071865f5154483604051610d879190613f3d565b60405180910390a2505050565b6000808267ffffffffffffffff1660408563ffffffff16901b60608773ffffffffffffffffffffffffffffffffffffffff16901b17179050809150509392505050565b60066020528160005260406000208181548110610df357600080fd5b9060005260206000209060020201600091509150508060000160009054906101000a900473ffffffffffffffffffffffffffffffffffffffff16908060010154905082565b60608151835114610e7e576040517f08c379a0000000000000000000000000000000000000000000000000000000008152600401610e7590613ebd565b60405180910390fd5b6000835167ffffffffffffffff811115610e9b57610e9a6144cf565b5b604051908082528060200260200182016040528015610ec95781602001602082028036833780820191505090505b50905060005b8451811015610f4657610f16858281518110610eee57610eed6144a0565b5b6020026020010151858381518110610f0957610f086144a0565b5b60200260200101516105dc565b828281518110610f2957610f286144a0565b5b60200260200101818152505080610f3f906143ca565b9050610ecf565b508091505092915050565b6000808383604051602001610f67929190613a7c565b6040516020818303038152906040528051906020012090508060601c91505092915050565b6000610fa0610f9961213e565b84846123e3565b905092915050565b6000610fb261213e565b905081600e60008373ffffffffffffffffffffffffffffffffffffffff1673ffffffffffffffffffffffffffffffffffffffff168152602001908152602001600020600086815260200190815260200160002060008581526020019081526020016000208190555050505050565b6040517f08c379a000000000000000000000000000000000000000000000000000000000815260040161105290613d1d565b60405180910390fd5b600080611068848461081b565b905060006110778560006105dc565b90506000600454838361108a91906141ff565b61109491906141ce565b905080935050505092915050565b8173ffffffffffffffffffffffffffffffffffffffff166110c161213e565b73ffffffffffffffffffffffffffffffffffffffff161415611118576040517f08c379a000000000000000000000000000000000000000000000000000000000815260040161110f90613e9d565b60405180910390fd5b806001600061112561213e565b73ffffffffffffffffffffffffffffffffffffffff1673ffffffffffffffffffffffffffffffffffffffff16815260200190815260200160002060008473ffffffffffffffffffffffffffffffffffffffff1673ffffffffffffffffffffffffffffffffffffffff16815260200190815260200160002060006101000a81548160ff0219169083151502179055508173ffffffffffffffffffffffffffffffffffffffff166111d261213e565b73ffffffffffffffffffffffffffffffffffffffff167f17307eab39ab6107e8899845ad3d59bd9653f200f220920489ca2b5937696c31836040516112179190613c60565b60405180910390a35050565b60006112308260006105dc565b90506000600660008473ffffffffffffffffffffffffffffffffffffffff1673ffffffffffffffffffffffffffffffffffffffff168152602001908152602001600020905060005b8180549050811015611310576000828281548110611299576112986144a0565b5b9060005260206000209060020201905060006004548260010154866112be91906141ff565b6112c891906141ce565b90506112fb868360000160009054906101000a900473ffffffffffffffffffffffffffffffffffffffff166000846124ea565b50508080611308906143ca565b915050611278565b50505050565b60036020528060005260406000206000915054906101000a900463ffffffff1681565b600061134361213e565b905061134f8189612394565b61138e576040517f08c379a000000000000000000000000000000000000000000000000000000000815260040161138590613e1d565b60405180910390fd5b600d6000898152602001908152602001600020544210156113e4576040517f08c379a00000000000000000000000000000000000000000000000000000000081526004016113db90613dfd565b60405180910390fd5b600073ffffffffffffffffffffffffffffffffffffffff168773ffffffffffffffffffffffffffffffffffffffff1614158061142c575060008614801561142b5750600085145b5b61146b576040517f08c379a000000000000000000000000000000000000000000000000000000000815260040161146290613dbd565b60405180910390fd5b86600760008a815260200190815260200160002060006101000a81548173ffffffffffffffffffffffffffffffffffffffff021916908373ffffffffffffffffffffffffffffffffffffffff16021790555085600860008a81526020019081526020016000208190555084600960008a815260200190815260200160002081905550600073ffffffffffffffffffffffffffffffffffffffff168473ffffffffffffffffffffffffffffffffffffffff1614158061153557506000831480156115345750600082145b5b611574576040517f08c379a000000000000000000000000000000000000000000000000000000000815260040161156b90613dbd565b60405180910390fd5b83600a60008a815260200190815260200160002060006101000a81548173ffffffffffffffffffffffffffffffffffffffff021916908373ffffffffffffffffffffffffffffffffffffffff16021790555082600b60008a81526020019081526020016000208190555081600c60008a815260200190815260200160002081905550877f3df2272e42784a2455bbbdcdf25ae0f67d41f801896514cc4cd255aa8ee75e4c88888888888860405161163096959493929190613ba6565b60405180910390a25050505050505050565b60008151835114611688576040517f08c379a000000000000000000000000000000000000000000000000000000000815260040161167f90613e7d565b60405180910390fd5b600554835111156116ce576040517f08c379a00000000000000000000000000000000000000000000000000000000081526004016116c590613e5d565b60405180910390fd5b60006116da8484610f51565b90506000600660008373ffffffffffffffffffffffffffffffffffffffff1673ffffffffffffffffffffffffffffffffffffffff16815260200190815260200160002090506000818054905014611766576040517f08c379a000000000000000000000000000000000000000000000000000000000815260040161175d90613f1d565b60405180910390fd5b6000805b865181101561195d576000878281518110611788576117876144a0565b5b6020026020010151905060008783815181106117a7576117a66144a0565b5b60200260200101519050600073ffffffffffffffffffffffffffffffffffffffff168273ffffffffffffffffffffffffffffffffffffffff16141580156117ef575060008114155b61182e576040517f08c379a000000000000000000000000000000000000000000000000000000000815260040161182590613d5d565b60405180910390fd5b8460405180604001604052808473ffffffffffffffffffffffffffffffffffffffff16815260200183815250908060018154018082558091505060019003906000526020600020906002020160009091909190915060008201518160000160006101000a81548173ffffffffffffffffffffffffffffffffffffffff021916908373ffffffffffffffffffffffffffffffffffffffff16021790555060208201518160010155505080846118e2919061413e565b93508173ffffffffffffffffffffffffffffffffffffffff168673ffffffffffffffffffffffffffffffffffffffff167e6fb9851f1fd2fbc9fa36680d17e1254999a38e5f3c76c3a1ecc126a464601b836040516119409190613f3d565b60405180910390a350508080611955906143ca565b91505061176a565b5060045481146119a2576040517f08c379a000000000000000000000000000000000000000000000000000000000815260040161199990613cdd565b60405180910390fd5b82935050505092915050565b6000806000806000806007600088815260200190815260200160002060009054906101000a900473ffffffffffffffffffffffffffffffffffffffff166008600089815260200190815260200160002054600960008a815260200190815260200160002054600a60008b815260200190815260200160002060009054906101000a900473ffffffffffffffffffffffffffffffffffffffff16600b60008c815260200190815260200160002054600c60008d81526020019081526020016000205495509550955095509550955091939550919395565b60045481565b600080600080600860008781526020019081526020016000205493506009600087815260200190815260200160002054925060006007600088815260200190815260200160002060009054906101000a900473ffffffffffffffffffffffffffffffffffffffff1690508573ffffffffffffffffffffffffffffffffffffffff168173ffffffffffffffffffffffffffffffffffffffff1614611b6d576000611b33828861081b565b90506004548187611b4491906141ff565b611b4e91906141ce565b95506004548186611b5f91906141ff565b611b6991906141ce565b9450505b600b6000888152602001908152602001600020549250600c60008881526020019081526020016000205491506000600a600089815260200190815260200160002060009054906101000a900473ffffffffffffffffffffffffffffffffffffffff1690508673ffffffffffffffffffffffffffffffffffffffff168173ffffffffffffffffffffffffffffffffffffffff1614611c4a576000611c10828961081b565b90506004548186611c2191906141ff565b611c2b91906141ce565b94506004548185611c3c91906141ff565b611c4691906141ce565b9350505b505092959194509250565b6000600160008473ffffffffffffffffffffffffffffffffffffffff1673ffffffffffffffffffffffffffffffffffffffff16815260200190815260200160002060008373ffffffffffffffffffffffffffffffffffffffff1673ffffffffffffffffffffffffffffffffffffffff16815260200190815260200160002060009054906101000a900460ff16905092915050565b600073ffffffffffffffffffffffffffffffffffffffff168473ffffffffffffffffffffffffffffffffffffffff161415611d59576040517f08c379a0000000000000000000000000000000000000000000000000000000008152600401611d5090613d7d565b60405180910390fd5b611d6161213e565b73ffffffffffffffffffffffffffffffffffffffff168573ffffffffffffffffffffffffffffffffffffffff161480611da75750611da685611da161213e565b611c55565b5b611de6576040517f08c379a0000000000000000000000000000000000000000000000000000000008152600401611ddd90613d3d565b60405180910390fd5b6000611df061213e565b9050611e10818787611e01886126d8565b611e0a886126d8565b87612146565b600080600086815260200190815260200160002060008873ffffffffffffffffffffffffffffffffffffffff1673ffffffffffffffffffffffffffffffffffffffff16815260200190815260200160002054905083811015611ea7576040517f08c379a0000000000000000000000000000000000000000000000000000000008152600401611e9e90613e3d565b60405180910390fd5b8381611eb39190614259565b60008087815260200190815260200160002060008973ffffffffffffffffffffffffffffffffffffffff1673ffffffffffffffffffffffffffffffffffffffff168152602001908152602001600020819055508360008087815260200190815260200160002060008873ffffffffffffffffffffffffffffffffffffffff1673ffffffffffffffffffffffffffffffffffffffff1681526020019081526020016000206000828254611f65919061413e565b925050819055508573ffffffffffffffffffffffffffffffffffffffff168773ffffffffffffffffffffffffffffffffffffffff168373ffffffffffffffffffffffffffffffffffffffff167fc3d58168c5ae7397731d063d5bbf3d657854427343f4c083240f7aacaa2d0f628888604051611fe2929190613f58565b60405180910390a4611ff8828888888888612752565b50505050505050565b80600e60008673ffffffffffffffffffffffffffffffffffffffff1673ffffffffffffffffffffffffffffffffffffffff1681526020019081526020016000206000858152602001908152602001600020600084815260200190815260200160002060008282546120729190614259565b92505081905550600061208361213e565b905061209d81866000858761209891906141ff565b6124ea565b6120a9858286856124ea565b6120b585858585612939565b5050505050565b600081565b600080823b905060008111915050919050565b60007f01ffc9a7000000000000000000000000000000000000000000000000000000007bffffffffffffffffffffffffffffffffffffffffffffffffffffffff1916827bffffffffffffffffffffffffffffffffffffffffffffffffffffffff1916149050919050565b600033905090565b60005b83518110156121a45761219386858381518110612169576121686144a0565b5b60200260200101516000868581518110612186576121856144a0565b5b6020026020010151612939565b8061219d906143ca565b9050612149565b50505050505050565b6121cc8473ffffffffffffffffffffffffffffffffffffffff166120c1565b1561238c578373ffffffffffffffffffffffffffffffffffffffff1663bc197c8187878686866040518663ffffffff1660e01b8152600401612212959493929190613abb565b602060405180830381600087803b15801561222c57600080fd5b505af192505050801561225d57506040513d601f19601f8201168201806040525081019061225a91906132b2565b60015b612303576122696144fe565b806308c379a014156122c6575061227e614b14565b8061228957506122c8565b806040517f08c379a00000000000000000000000000000000000000000000000000000000081526004016122bd9190613c7b565b60405180910390fd5b505b6040517f08c379a00000000000000000000000000000000000000000000000000000000081526004016122fa90613c9d565b60405180910390fd5b63bc197c8160e01b7bffffffffffffffffffffffffffffffffffffffffffffffffffffffff1916817bffffffffffffffffffffffffffffffffffffffffffffffffffffffff19161461238a576040517f08c379a000000000000000000000000000000000000000000000000000000000815260040161238190613cbd565b60405180910390fd5b505b505050505050565b6000806000806123a385612a85565b9250925092508273ffffffffffffffffffffffffffffffffffffffff168673ffffffffffffffffffffffffffffffffffffffff1614935050505092915050565b600080600360008673ffffffffffffffffffffffffffffffffffffffff1673ffffffffffffffffffffffffffffffffffffffff16815260200190815260200160002060009054906101000a900463ffffffff1690506001816124459190614194565b600360008773ffffffffffffffffffffffffffffffffffffffff1673ffffffffffffffffffffffffffffffffffffffff16815260200190815260200160002060006101000a81548163ffffffff021916908363ffffffff16021790555060006124af868387610d94565b905060008567ffffffffffffffff16116124c857600080fd5b6124de86828767ffffffffffffffff1687612adc565b80925050509392505050565b600080600084815260200190815260200160002060008673ffffffffffffffffffffffffffffffffffffffff1673ffffffffffffffffffffffffffffffffffffffff16815260200190815260200160002054905081811015612581576040517f08c379a000000000000000000000000000000000000000000000000000000000815260040161257890613e3d565b60405180910390fd5b818161258d9190614259565b60008085815260200190815260200160002060008773ffffffffffffffffffffffffffffffffffffffff1673ffffffffffffffffffffffffffffffffffffffff168152602001908152602001600020819055508160008085815260200190815260200160002060008673ffffffffffffffffffffffffffffffffffffffff1673ffffffffffffffffffffffffffffffffffffffff168152602001908152602001600020600082825461263f919061413e565b92505081905550600061265061213e565b90508473ffffffffffffffffffffffffffffffffffffffff168673ffffffffffffffffffffffffffffffffffffffff168273ffffffffffffffffffffffffffffffffffffffff167fc3d58168c5ae7397731d063d5bbf3d657854427343f4c083240f7aacaa2d0f6287876040516126c8929190613f58565b60405180910390a4505050505050565b60606000600167ffffffffffffffff8111156126f7576126f66144cf565b5b6040519080825280602002602001820160405280156127255781602001602082028036833780820191505090505b509050828160008151811061273d5761273c6144a0565b5b60200260200101818152505080915050919050565b6127718473ffffffffffffffffffffffffffffffffffffffff166120c1565b15612931578373ffffffffffffffffffffffffffffffffffffffff1663f23a6e6187878686866040518663ffffffff1660e01b81526004016127b7959493929190613b23565b602060405180830381600087803b1580156127d157600080fd5b505af192505050801561280257506040513d601f19601f820116820180604052508101906127ff91906132b2565b60015b6128a85761280e6144fe565b806308c379a0141561286b5750612823614b14565b8061282e575061286d565b806040517f08c379a00000000000000000000000000000000000000000000000000000000081526004016128629190613c7b565b60405180910390fd5b505b6040517f08c379a000000000000000000000000000000000000000000000000000000000815260040161289f90613c9d565b60405180910390fd5b63f23a6e6160e01b7bffffffffffffffffffffffffffffffffffffffffffffffffffffffff1916817bffffffffffffffffffffffffffffffffffffffffffffffffffffffff19161461292f576040517f08c379a000000000000000000000000000000000000000000000000000000000815260040161292690613cbd565b60405180910390fd5b505b505050505050565b600083141561294757612a7f565b6000806000806129578888612c72565b905080156129c65760086000888152602001908152602001600020549350600960008881526020019081526020016000205492506007600088815260200190815260200160002060009054906101000a900473ffffffffffffffffffffffffffffffffffffffff169150612a29565b600b6000888152602001908152602001600020549350600c6000888152602001908152602001600020549250600a600088815260200190815260200160002060009054906101000a900473ffffffffffffffffffffffffffffffffffffffff1691505b60006004548588612a3a91906141ff565b612a4491906141ce565b905083811015612a52578390505b60008682612a6091906141ff565b905060008114612a7857612a778a856000846124ea565b5b5050505050505b50505050565b600080600060607fffffffffffffffffffffffffffffffffffffffff0000000000000000000000008516901c925060406bffffffff00000000000000008516901c915067ffffffffffffffff841690509193909250565b600073ffffffffffffffffffffffffffffffffffffffff168473ffffffffffffffffffffffffffffffffffffffff161415612b4c576040517f08c379a0000000000000000000000000000000000000000000000000000000008152600401612b4390613efd565b60405180910390fd5b6000612b5661213e565b9050612b7781600087612b68886126d8565b612b71886126d8565b87612146565b8260008086815260200190815260200160002060008773ffffffffffffffffffffffffffffffffffffffff1673ffffffffffffffffffffffffffffffffffffffff1681526020019081526020016000206000828254612bd6919061413e565b925050819055508473ffffffffffffffffffffffffffffffffffffffff16600073ffffffffffffffffffffffffffffffffffffffff168273ffffffffffffffffffffffffffffffffffffffff167fc3d58168c5ae7397731d063d5bbf3d657854427343f4c083240f7aacaa2d0f628787604051612c54929190613f58565b60405180910390a4612c6b81600087878787612752565b5050505050565b600080600080612c8185612a85565b9250925092508273ffffffffffffffffffffffffffffffffffffffff168673ffffffffffffffffffffffffffffffffffffffff1614935050505092915050565b6000612cd4612ccf84614006565b613fe1565b90508083825260208201905082856020860282011115612cf757612cf6614525565b5b60005b85811015612d275781612d0d8882612de3565b845260208401935060208301925050600181019050612cfa565b5050509392505050565b6000612d44612d3f84614032565b613fe1565b90508083825260208201905082856020860282011115612d6757612d66614525565b5b60005b85811015612d975781612d7d8882612ec1565b845260208401935060208301925050600181019050612d6a565b5050509392505050565b6000612db4612daf8461405e565b613fe1565b905082815260208101848484011115612dd057612dcf61452a565b5b612ddb848285614325565b509392505050565b600081359050612df281614baa565b92915050565b600082601f830112612e0d57612e0c614520565b5b8135612e1d848260208601612cc1565b91505092915050565b600082601f830112612e3b57612e3a614520565b5b8135612e4b848260208601612d31565b91505092915050565b600081359050612e6381614bc1565b92915050565b600081359050612e7881614bd8565b92915050565b600081519050612e8d81614bd8565b92915050565b600082601f830112612ea857612ea7614520565b5b8135612eb8848260208601612da1565b91505092915050565b600081359050612ed081614bef565b92915050565b600081359050612ee581614c06565b92915050565b600081359050612efa81614c1d565b92915050565b600060208284031215612f1657612f15614534565b5b6000612f2484828501612de3565b91505092915050565b60008060408385031215612f4457612f43614534565b5b6000612f5285828601612de3565b9250506020612f6385828601612de3565b9150509250929050565b600080600080600060a08688031215612f8957612f88614534565b5b6000612f9788828901612de3565b9550506020612fa888828901612de3565b945050604086013567ffffffffffffffff811115612fc957612fc861452f565b5b612fd588828901612e26565b935050606086013567ffffffffffffffff811115612ff657612ff561452f565b5b61300288828901612e26565b925050608086013567ffffffffffffffff8111156130235761302261452f565b5b61302f88828901612e93565b9150509295509295909350565b600080600080600060a0868803121561305857613057614534565b5b600061306688828901612de3565b955050602061307788828901612de3565b945050604061308888828901612ec1565b935050606061309988828901612ec1565b925050608086013567ffffffffffffffff8111156130ba576130b961452f565b5b6130c688828901612e93565b9150509295509295909350565b600080604083850312156130ea576130e9614534565b5b60006130f885828601612de3565b925050602061310985828601612e54565b9150509250929050565b6000806040838503121561312a57613129614534565b5b600061313885828601612de3565b925050602061314985828601612ec1565b9150509250929050565b6000806000806080858703121561316d5761316c614534565b5b600061317b87828801612de3565b945050602061318c87828801612ec1565b935050604061319d87828801612ec1565b92505060606131ae87828801612ec1565b91505092959194509250565b6000806000606084860312156131d3576131d2614534565b5b60006131e186828701612de3565b93505060206131f286828701612ed6565b925050604061320386828701612eeb565b9150509250925092565b6000806040838503121561322457613223614534565b5b600083013567ffffffffffffffff8111156132425761324161452f565b5b61324e85828601612df8565b925050602083013567ffffffffffffffff81111561326f5761326e61452f565b5b61327b85828601612e26565b9150509250929050565b60006020828403121561329b5761329a614534565b5b60006132a984828501612e69565b91505092915050565b6000602082840312156132c8576132c7614534565b5b60006132d684828501612e7e565b91505092915050565b6000602082840312156132f5576132f4614534565b5b600061330384828501612ec1565b91505092915050565b6000806040838503121561332357613322614534565b5b600061333185828601612ec1565b925050602061334285828601612de3565b9150509250929050565b600080600080600080600060e0888a03121561336b5761336a614534565b5b60006133798a828b01612ec1565b975050602061338a8a828b01612de3565b965050604061339b8a828b01612ec1565b95505060606133ac8a828b01612ec1565b94505060806133bd8a828b01612de3565b93505060a06133ce8a828b01612ec1565b92505060c06133df8a828b01612ec1565b91505092959891949750929550565b6000806040838503121561340557613404614534565b5b600061341385828601612ec1565b925050602061342485828601612ec1565b9150509250929050565b60008060006060848603121561344757613446614534565b5b600061345586828701612ec1565b935050602061346686828701612ec1565b925050604061347786828701612ec1565b9150509250925092565b6000806000806080858703121561349b5761349a614534565b5b60006134a987828801612ec1565b94505060206134ba87828801612ec1565b93505060406134cb87828801612ec1565b925050606085013567ffffffffffffffff8111156134ec576134eb61452f565b5b6134f887828801612e93565b91505092959194509250565b6000806040838503121561351b5761351a614534565b5b600061352985828601612eeb565b925050602083013567ffffffffffffffff81111561354a5761354961452f565b5b61355685828601612e93565b9150509250929050565b600061356c83836135b7565b60208301905092915050565b60006135848383613a40565b60208301905092915050565b600061359c8383613a5e565b60208301905092915050565b6135b18161428d565b82525050565b6135c08161428d565b82525050565b60006135d1826140af565b6135db81856140f5565b93506135e68361408f565b8060005b838110156136175781516135fe8882613560565b9750613609836140db565b9250506001810190506135ea565b5085935050505092915050565b600061362f826140ba565b6136398185614100565b93506136448361409f565b8060005b8381101561367557815161365c8882613578565b9750613667836140e8565b925050600181019050613648565b5085935050505092915050565b600061368d826140ba565b6136978185614111565b93506136a28361409f565b8060005b838110156136d35781516136ba8882613590565b97506136c5836140e8565b9250506001810190506136a6565b5085935050505092915050565b6136e98161429f565b82525050565b60006136fa826140c5565b613704818561411c565b9350613714818560208601614334565b61371d81614539565b840191505092915050565b6000613733826140d0565b61373d818561412d565b935061374d818560208601614334565b61375681614539565b840191505092915050565b600061376e60348361412d565b915061377982614557565b604082019050919050565b600061379160288361412d565b915061379c826145a6565b604082019050919050565b60006137b4601e8361412d565b91506137bf826145f5565b602082019050919050565b60006137d7602b8361412d565b91506137e28261461e565b604082019050919050565b60006137fa600f8361412d565b91506138058261466d565b602082019050919050565b600061381d60298361412d565b915061382882614696565b604082019050919050565b6000613840601a8361412d565b915061384b826146e5565b602082019050919050565b600061386360258361412d565b915061386e8261470e565b604082019050919050565b600061388660328361412d565b91506138918261475d565b604082019050919050565b60006138a9602c8361412d565b91506138b4826147ac565b604082019050919050565b60006138cc60328361412d565b91506138d7826147fb565b604082019050919050565b60006138ef60298361412d565b91506138fa8261484a565b604082019050919050565b6000613912602d8361412d565b915061391d82614899565b604082019050919050565b6000613935602a8361412d565b9150613940826148e8565b604082019050919050565b6000613958600f8361412d565b915061396382614937565b602082019050919050565b600061397b60388361412d565b915061398682614960565b604082019050919050565b600061399e60298361412d565b91506139a9826149af565b604082019050919050565b60006139c160298361412d565b91506139cc826149fe565b604082019050919050565b60006139e460288361412d565b91506139ef82614a4d565b604082019050919050565b6000613a0760218361412d565b9150613a1282614a9c565b604082019050919050565b6000613a2a601a8361412d565b9150613a3582614aeb565b602082019050919050565b613a49816142f7565b82525050565b613a58816142f7565b82525050565b613a67816142f7565b82525050565b613a7681614301565b82525050565b6000613a8882856135c6565b9150613a948284613682565b91508190509392505050565b6000602082019050613ab560008301846135a8565b92915050565b600060a082019050613ad060008301886135a8565b613add60208301876135a8565b8181036040830152613aef8186613624565b90508181036060830152613b038185613624565b90508181036080830152613b1781846136ef565b90509695505050505050565b600060a082019050613b3860008301886135a8565b613b4560208301876135a8565b613b526040830186613a4f565b613b5f6060830185613a4f565b8181036080830152613b7181846136ef565b90509695505050505050565b6000604082019050613b9260008301856135a8565b613b9f6020830184613a4f565b9392505050565b600060c082019050613bbb60008301896135a8565b613bc86020830188613a4f565b613bd56040830187613a4f565b613be260608301866135a8565b613bef6080830185613a4f565b613bfc60a0830184613a4f565b979650505050505050565b60006020820190508181036000830152613c218184613624565b905092915050565b60006040820190508181036000830152613c438185613624565b90508181036020830152613c578184613624565b90509392505050565b6000602082019050613c7560008301846136e0565b92915050565b60006020820190508181036000830152613c958184613728565b905092915050565b60006020820190508181036000830152613cb681613761565b9050919050565b60006020820190508181036000830152613cd681613784565b9050919050565b60006020820190508181036000830152613cf6816137a7565b9050919050565b60006020820190508181036000830152613d16816137ca565b9050919050565b60006020820190508181036000830152613d36816137ed565b9050919050565b60006020820190508181036000830152613d5681613810565b9050919050565b60006020820190508181036000830152613d7681613833565b9050919050565b60006020820190508181036000830152613d9681613856565b9050919050565b60006020820190508181036000830152613db681613879565b9050919050565b60006020820190508181036000830152613dd68161389c565b9050919050565b60006020820190508181036000830152613df6816138bf565b9050919050565b60006020820190508181036000830152613e16816138e2565b9050919050565b60006020820190508181036000830152613e3681613905565b9050919050565b60006020820190508181036000830152613e5681613928565b9050919050565b60006020820190508181036000830152613e768161394b565b9050919050565b60006020820190508181036000830152613e968161396e565b9050919050565b60006020820190508181036000830152613eb681613991565b9050919050565b60006020820190508181036000830152613ed6816139b4565b9050919050565b60006020820190508181036000830152613ef6816139d7565b9050919050565b60006020820190508181036000830152613f16816139fa565b9050919050565b60006020820190508181036000830152613f3681613a1d565b9050919050565b6000602082019050613f526000830184613a4f565b92915050565b6000604082019050613f6d6000830185613a4f565b613f7a6020830184613a4f565b9392505050565b6000608082019050613f966000830187613a4f565b613fa36020830186613a4f565b613fb06040830185613a4f565b613fbd6060830184613a4f565b95945050505050565b6000602082019050613fdb6000830184613a6d565b92915050565b6000613feb613ffc565b9050613ff78282614399565b919050565b6000604051905090565b600067ffffffffffffffff821115614021576140206144cf565b5b602082029050602081019050919050565b600067ffffffffffffffff82111561404d5761404c6144cf565b5b602082029050602081019050919050565b600067ffffffffffffffff821115614079576140786144cf565b5b61408282614539565b9050602081019050919050565b6000819050602082019050919050565b6000819050602082019050919050565b600081519050919050565b600081519050919050565b600081519050919050565b600081519050919050565b6000602082019050919050565b6000602082019050919050565b600081905092915050565b600082825260208201905092915050565b600081905092915050565b600082825260208201905092915050565b600082825260208201905092915050565b6000614149826142f7565b9150614154836142f7565b9250827fffffffffffffffffffffffffffffffffffffffffffffffffffffffffffffffff0382111561418957614188614413565b5b828201905092915050565b600061419f82614301565b91506141aa83614301565b92508263ffffffff038211156141c3576141c2614413565b5b828201905092915050565b60006141d9826142f7565b91506141e4836142f7565b9250826141f4576141f3614442565b5b828204905092915050565b600061420a826142f7565b9150614215836142f7565b9250817fffffffffffffffffffffffffffffffffffffffffffffffffffffffffffffffff048311821515161561424e5761424d614413565b5b828202905092915050565b6000614264826142f7565b915061426f836142f7565b92508282101561428257614281614413565b5b828203905092915050565b6000614298826142d7565b9050919050565b60008115159050919050565b60007fffffffff0000000000000000000000000000000000000000000000000000000082169050919050565b600073ffffffffffffffffffffffffffffffffffffffff82169050919050565b6000819050919050565b600063ffffffff82169050919050565b600067ffffffffffffffff82169050919050565b82818337600083830152505050565b60005b83811015614352578082015181840152602081019050614337565b83811115614361576000848401525b50505050565b6000600282049050600182168061437f57607f821691505b6020821081141561439357614392614471565b5b50919050565b6143a282614539565b810181811067ffffffffffffffff821117156143c1576143c06144cf565b5b80604052505050565b60006143d5826142f7565b91507fffffffffffffffffffffffffffffffffffffffffffffffffffffffffffffffff82141561440857614407614413565b5b600182019050919050565b7f4e487b7100000000000000000000000000000000000000000000000000000000600052601160045260246000fd5b7f4e487b7100000000000000000000000000000000000000000000000000000000600052601260045260246000fd5b7f4e487b7100000000000000000000000000000000000000000000000000000000600052602260045260246000fd5b7f4e487b7100000000000000000000000000000000000000000000000000000000600052603260045260246000fd5b7f4e487b7100000000000000000000000000000000000000000000000000000000600052604160045260246000fd5b600060033d111561451d5760046000803e61451a60005161454a565b90505b90565b600080fd5b600080fd5b600080fd5b600080fd5b600080fd5b6000601f19601f8301169050919050565b60008160e01c9050919050565b7f455243313135353a207472616e7366657220746f206e6f6e204552433131353560008201527f526563656976657220696d706c656d656e746572000000000000000000000000602082015250565b7f455243313135353a204552433131353552656365697665722072656a6563746560008201527f6420746f6b656e73000000000000000000000000000000000000000000000000602082015250565b7f546f74616c206672616374696f6e73206d7573742062652031302c3030300000600082015250565b7f455243313135353a2062616c616e636520717565727920666f7220746865207a60008201527f65726f2061646472657373000000000000000000000000000000000000000000602082015250565b7f6e6f7420696d706c656d656e7465640000000000000000000000000000000000600082015250565b7f455243313135353a2063616c6c6572206973206e6f74206f776e6572206e6f7260008201527f20617070726f7665640000000000000000000000000000000000000000000000602082015250565b7f302076616c75657320617265206e6f74207065726d6974746564000000000000600082015250565b7f455243313135353a207472616e7366657220746f20746865207a65726f20616460008201527f6472657373000000000000000000000000000000000000000000000000000000602082015250565b7f455243313135353a207472616e736665722063616c6c6572206973206e6f742060008201527f6f776e6572206e6f7220617070726f7665640000000000000000000000000000602082015250565b7f546865206163636f756e74206d757374206e6f7420626520302c20756e6c657360008201527f7320666565732061726520300000000000000000000000000000000000000000602082015250565b7f526f79616c7469657320636f6e66696775726174696f6e2063616e6e6f74206260008201527f6520756e6c6f636b6564206561726c6965720000000000000000000000000000602082015250565b7f526f79616c7469657320636f6e66696775726174696f6e206973206c6f636b6560008201527f6420666f72206e6f770000000000000000000000000000000000000000000000602082015250565b7f4f6e6c792074686520697373756572206f662074686973204e46542063616e2060008201527f73657420726f79616c7469657300000000000000000000000000000000000000602082015250565b7f455243313135353a20696e73756666696369656e742062616c616e636520666f60008201527f72207472616e7366657200000000000000000000000000000000000000000000602082015250565b7f546f6f206d616e79207368617265730000000000000000000000000000000000600082015250565b7f417272617973206f66206f776e65727320616e64206672616374696f6e73206d60008201527f7573742068617665207468652073616d65206c656e6774680000000000000000602082015250565b7f455243313135353a2073657474696e6720617070726f76616c2073746174757360008201527f20666f722073656c660000000000000000000000000000000000000000000000602082015250565b7f455243313135353a206163636f756e747320616e6420696473206c656e67746860008201527f206d69736d617463680000000000000000000000000000000000000000000000602082015250565b7f455243313135353a2069647320616e6420616d6f756e7473206c656e6774682060008201527f6d69736d61746368000000000000000000000000000000000000000000000000602082015250565b7f455243313135353a206d696e7420746f20746865207a65726f2061646472657360008201527f7300000000000000000000000000000000000000000000000000000000000000602082015250565b7f546865206163636f756e7420616c726561647920657869737473000000000000600082015250565b600060443d1015614b2457614ba7565b614b2c613ffc565b60043d036004823e80513d602482011167ffffffffffffffff82111715614b54575050614ba7565b808201805167ffffffffffffffff811115614b725750505050614ba7565b80602083010160043d038501811115614b8f575050505050614ba7565b614b9e82602001850186614399565b82955050505050505b90565b614bb38161428d565b8114614bbe57600080fd5b50565b614bca8161429f565b8114614bd557600080fd5b50565b614be1816142ab565b8114614bec57600080fd5b50565b614bf8816142f7565b8114614c0357600080fd5b50565b614c0f81614301565b8114614c1a57600080fd5b50565b614c2681614311565b8114614c3157600080fd5b5056fea2646970667358221220b3d4fb84ffba9016a1d75f25aa315926ec7d0b263acf930cd0f30363370d3eb264736f6c6343000806003368747470733a2f2f636572652e6e6574776f726b2f6e66742f7b69647d2e6a736f6e",
  "immutableReferences": {},
  "source": "pragma solidity ^0.8.0;\n\nimport \"./AtomicExchange.sol\";\n\n/** Main contract, including all components.\n\n- Hold and transfer NFTs using ERC1155.\n- Support atomic exchanges of NFTs for currency.\n- Issuance of NFTs with fixed supply.\n- Joint Accounts that distribute their funds over multiple owners.\n- Capture royalties on primary and secondary transfers, configurable per NFT type.\n*/\ncontract Davinci is /* BaseNFT, Issuance, JointAccounts, TransferFees, */ AtomicExchange {\n    constructor() {\n        // 10 billion tokens with 10 decimals.\n        uint256 currencySupply = 10e9 * 1e10;\n        address bridge = _msgSender();\n        _mint(bridge, CURRENCY, currencySupply, \"\");\n    }\n}\n",
  "sourcePath": "/home/a/CERE/davinci-nft/contracts/polygon/Davinci.sol",
  "compiler": {
    "name": "solc",
    "version": "0.8.6+commit.11564f7e.Emscripten.clang"
  },
  "schemaVersion": "3.4.1",
  "updatedAt": "2021-07-03T13:02:10.554Z",
  "networkType": "ethereum",
  "devdoc": {
    "kind": "dev",
    "methods": {
      "balanceOf(address,uint256)": {
        "details": "See {IERC1155-balanceOf}. Requirements: - `account` cannot be the zero address."
      },
      "balanceOfBatch(address[],uint256[])": {
        "details": "See {IERC1155-balanceOfBatch}. Requirements: - `accounts` and `ids` must have the same length."
      },
      "isApprovedForAll(address,address)": {
        "details": "See {IERC1155-isApprovedForAll}."
      },
      "safeBatchTransferFrom(address,address,uint256[],uint256[],bytes)": {
        "details": "See {IERC1155-safeBatchTransferFrom}."
      },
      "safeTransferFrom(address,address,uint256,uint256,bytes)": {
        "details": "See {IERC1155-safeTransferFrom}."
      },
      "setApprovalForAll(address,bool)": {
        "details": "See {IERC1155-setApprovalForAll}."
      },
      "supportsInterface(bytes4)": {
        "details": "See {IERC165-supportsInterface}."
      },
      "uri(uint256)": {
        "details": "See {IERC1155MetadataURI-uri}. This implementation returns the same URI for *all* token types. It relies on the token type ID substitution mechanism https://eips.ethereum.org/EIPS/eip-1155#metadata[defined in the EIP]. Clients calling this function must replace the `\\{id\\}` substring with the actual token type ID."
      }
    },
    "version": 1
  },
  "userdoc": {
    "events": {
      "JointAccountShareCreated(address,address,uint256)": {
        "notice": "Notify that a Joint Account was created at the address `account`. One such event is emitted for each owner, including his fraction of the account in basis points (1% of 1%)."
      },
      "RoyaltiesConfigured(uint256,address,uint256,uint256,address,uint256,uint256)": {
        "notice": "Notify that royalties were configured on an NFT type."
      },
      "RoyaltiesLocked(uint256,uint256)": {
        "notice": "Notify that royalties are locked and cannot change, until the given time (in UNIX seconds), or forever (lockUntil = 0xFFFFFFFF)."
      }
    },
    "kind": "user",
    "methods": {
      "BASIS_POINTS()": {
        "notice": "The total fraction representing 100% of an account."
      },
      "balanceOfJAOwner(address,address)": {
        "notice": "Calculate the amount of tokens that an owner of a Joint Account can withdraw right now."
      },
      "buyOffer(address,uint256,uint256,uint256)": {
        "notice": "Accept an offer, paying the price per unit for an amount of NFTs. The offer must have been created beforehand by offerToSell."
      },
      "buySignedOffer(uint256,uint256,uint256,bytes)": {
        "notice": "Accept an offer, paying the price per unit for an amount of NFTs. The offer is proved using sellerSignature generated offchain. [Not implemented]"
      },
      "configureRoyalties(uint256,address,uint256,uint256,address,uint256,uint256)": {
        "notice": "Configure the amounts and beneficiaries of royalties on primary and secondary transfers of this NFT. This configuration is available to the issuer of this NFT. A transfer is primary if it comes from the issuer of this NFT (normally the first sale after issuance). Otherwise, it is a secondary transfer. A royalty is defined in two parts (both optional): a cut of the sale price of an NFT, and a minimum royalty per transfer. For simple transfers not attached to a price, or a too low price, the minimum royalty is charged. The cuts are given in basis points (1% of 1%). The minimums are given in currency amounts. The configuration can be changed at any time by default. However, the issuer may commit to it for a period of time, effectively giving up his ability to modify the royalties. See the function lockRoyalties. There can be one beneficiary account for each primary and secondary royalties. To distribute revenues amongst several parties, use a Joint Account (see function createJointAccount)."
      },
      "createJointAccount(address[],uint256[])": {
        "notice": "Create an account such that multiple owners have a claim on their respective share. The size of a share is given as a fraction in basis points (1% of 1%). The sum of share fractions must equal 10,000. Anyone can create Joint Accounts including any owners."
      },
      "distributeJointAccount(address)": {
        "notice": "Distribute all tokens available to all owners of a Joint Account. The function createJointAccount must be called beforehand. Anyone can trigger the distribution."
      },
      "fractionOfJAOwner(address,address)": {
        "notice": "Return the fraction of an account owned by the given address, in basis points (1% of 1%). If the account does not exist, or if the given address is not an owner of it, this returns 0. If the owner appears more than once in the account, this reports only the first share."
      },
      "getNftId(address,uint32,uint64)": {
        "notice": "Calculate the ID of an NFT type, identifying its issuer, its supply, and an arbitrary nonce."
      },
      "getRoyalties(uint256)": {
        "notice": "Return the current configuration of royalties for NFTs of type nftId, as set by configureRoyalties."
      },
      "getRoyaltiesForBeneficiary(uint256,address)": {
        "notice": "Return the amount of royalties earned by a beneficiary on each primary and secondary transfer of an NFT. This function supports Joint Accounts. If royalties are paid to a JA and beneficiary is an owner of the JA, the shares of the royalties for this owner are returned."
      },
      "issuanceNonces(address)": {
        "notice": "A counter of NFT types issued by each issuer. This is used to generate unique NFT IDs."
      },
      "issue(uint64,bytes)": {
        "notice": "Issue a supply of NFTs of a new type, and return its ID. No more NFT of this type can be issued again. The caller will be recorded as the issuer and it will initially own the entire supply."
      },
      "lockRoyalties(uint256,uint256)": {
        "notice": "Lock the configuration of royalties for this NFT type. Only the issuer may lock the configuration, after which he himself will no longer be able to change the configuration, for some time, or forever. Set lockUntil to a time in the future to lock the configuration until the specified time (in UNIX seconds). Set to 0xFFFFFFFF to lock forever."
      },
      "makeAddressOfJointAccount(address[],uint256[])": {
        "notice": "Generate a unique address identifying a list of owners and shares. It may be used to predict the address of a Joint Account and receive payments even before calling the function createJointAccount."
      },
      "offerToSell(uint256,uint256,uint256)": {
        "notice": "Create an offer to sell an amount of NFTs for a price per unit. To cancel, call again with an amount of 0."
      }
    },
    "notice": "Main contract, including all components. - Hold and transfer NFTs using ERC1155. - Support atomic exchanges of NFTs for currency. - Issuance of NFTs with fixed supply. - Joint Accounts that distribute their funds over multiple owners. - Capture royalties on primary and secondary transfers, configurable per NFT type.",
    "version": 1
  }
}