{
  "contractName": "Davinci",
  "abi": [
    {
      "anonymous": false,
      "inputs": [
        {
          "indexed": true,
          "internalType": "address",
          "name": "account",
          "type": "address"
        },
        {
          "indexed": true,
          "internalType": "address",
          "name": "operator",
          "type": "address"
        },
        {
          "indexed": false,
          "internalType": "bool",
          "name": "approved",
          "type": "bool"
        }
      ],
      "name": "ApprovalForAll",
      "type": "event"
    },
    {
      "anonymous": false,
      "inputs": [
        {
          "indexed": true,
          "internalType": "address",
          "name": "account",
          "type": "address"
        },
        {
          "indexed": true,
          "internalType": "address",
          "name": "owner",
          "type": "address"
        },
        {
          "indexed": false,
          "internalType": "uint256",
          "name": "fraction",
          "type": "uint256"
        }
      ],
      "name": "JointAccountShareCreated",
      "type": "event"
    },
    {
      "anonymous": false,
      "inputs": [
        {
          "indexed": true,
          "internalType": "uint256",
          "name": "nftId",
          "type": "uint256"
        },
        {
          "indexed": false,
          "internalType": "address",
          "name": "primaryRoyaltyAccount",
          "type": "address"
        },
        {
          "indexed": false,
          "internalType": "uint256",
          "name": "primaryRoyaltyCut",
          "type": "uint256"
        },
        {
          "indexed": false,
          "internalType": "uint256",
          "name": "primaryRoyaltyMinimum",
          "type": "uint256"
        },
        {
          "indexed": false,
          "internalType": "address",
          "name": "secondaryRoyaltyAccount",
          "type": "address"
        },
        {
          "indexed": false,
          "internalType": "uint256",
          "name": "secondaryRoyaltyCut",
          "type": "uint256"
        },
        {
          "indexed": false,
          "internalType": "uint256",
          "name": "secondaryRoyaltyMinimum",
          "type": "uint256"
        }
      ],
      "name": "RoyaltiesConfigured",
      "type": "event"
    },
    {
      "anonymous": false,
      "inputs": [
        {
          "indexed": true,
          "internalType": "uint256",
          "name": "nftId",
          "type": "uint256"
        },
        {
          "indexed": false,
          "internalType": "uint256",
          "name": "lockUntil",
          "type": "uint256"
        }
      ],
      "name": "RoyaltiesLocked",
      "type": "event"
    },
    {
      "anonymous": false,
      "inputs": [
        {
          "indexed": true,
          "internalType": "address",
          "name": "from",
          "type": "address"
        },
        {
          "indexed": true,
          "internalType": "address",
          "name": "to",
          "type": "address"
        },
        {
          "indexed": false,
          "internalType": "uint256",
          "name": "value",
          "type": "uint256"
        }
      ],
      "name": "Transfer",
      "type": "event"
    },
    {
      "anonymous": false,
      "inputs": [
        {
          "indexed": true,
          "internalType": "address",
          "name": "operator",
          "type": "address"
        },
        {
          "indexed": true,
          "internalType": "address",
          "name": "from",
          "type": "address"
        },
        {
          "indexed": true,
          "internalType": "address",
          "name": "to",
          "type": "address"
        },
        {
          "indexed": false,
          "internalType": "uint256[]",
          "name": "ids",
          "type": "uint256[]"
        },
        {
          "indexed": false,
          "internalType": "uint256[]",
          "name": "values",
          "type": "uint256[]"
        }
      ],
      "name": "TransferBatch",
      "type": "event"
    },
    {
      "anonymous": false,
      "inputs": [
        {
          "indexed": true,
          "internalType": "address",
          "name": "operator",
          "type": "address"
        },
        {
          "indexed": true,
          "internalType": "address",
          "name": "from",
          "type": "address"
        },
        {
          "indexed": true,
          "internalType": "address",
          "name": "to",
          "type": "address"
        },
        {
          "indexed": false,
          "internalType": "uint256",
          "name": "id",
          "type": "uint256"
        },
        {
          "indexed": false,
          "internalType": "uint256",
          "name": "value",
          "type": "uint256"
        }
      ],
      "name": "TransferSingle",
      "type": "event"
    },
    {
      "anonymous": false,
      "inputs": [
        {
          "indexed": false,
          "internalType": "string",
          "name": "value",
          "type": "string"
        },
        {
          "indexed": true,
          "internalType": "uint256",
          "name": "id",
          "type": "uint256"
        }
      ],
      "name": "URI",
      "type": "event"
    },
    {
      "inputs": [],
      "name": "BASIS_POINTS",
      "outputs": [
        {
          "internalType": "uint256",
          "name": "",
          "type": "uint256"
        }
      ],
      "stateMutability": "view",
      "type": "function",
      "constant": true
    },
    {
      "inputs": [],
      "name": "CURRENCY",
      "outputs": [
        {
          "internalType": "uint256",
          "name": "",
          "type": "uint256"
        }
      ],
      "stateMutability": "view",
      "type": "function",
      "constant": true
    },
    {
      "inputs": [],
      "name": "CURRENCY_SUPPLY",
      "outputs": [
        {
          "internalType": "uint256",
          "name": "",
          "type": "uint256"
        }
      ],
      "stateMutability": "view",
      "type": "function",
      "constant": true
    },
    {
      "inputs": [],
      "name": "MAX_JOINT_ACCOUNT_SHARES",
      "outputs": [
        {
          "internalType": "uint256",
          "name": "",
          "type": "uint256"
        }
      ],
      "stateMutability": "view",
      "type": "function",
      "constant": true
    },
    {
      "inputs": [
        {
          "internalType": "address",
          "name": "account",
          "type": "address"
        },
        {
          "internalType": "uint256",
          "name": "id",
          "type": "uint256"
        }
      ],
      "name": "balanceOf",
      "outputs": [
        {
          "internalType": "uint256",
          "name": "",
          "type": "uint256"
        }
      ],
      "stateMutability": "view",
      "type": "function",
      "constant": true
    },
    {
      "inputs": [
        {
          "internalType": "address[]",
          "name": "accounts",
          "type": "address[]"
        },
        {
          "internalType": "uint256[]",
          "name": "ids",
          "type": "uint256[]"
        }
      ],
      "name": "balanceOfBatch",
      "outputs": [
        {
          "internalType": "uint256[]",
          "name": "",
          "type": "uint256[]"
        }
      ],
      "stateMutability": "view",
      "type": "function",
      "constant": true
    },
    {
      "inputs": [
        {
          "internalType": "address",
          "name": "account",
          "type": "address"
        },
        {
          "internalType": "address",
          "name": "owner",
          "type": "address"
        }
      ],
      "name": "balanceOfJAOwner",
      "outputs": [
        {
          "internalType": "uint256",
          "name": "",
          "type": "uint256"
        }
      ],
      "stateMutability": "view",
      "type": "function",
      "constant": true
    },
    {
      "inputs": [
        {
          "internalType": "address",
          "name": "seller",
          "type": "address"
        },
        {
          "internalType": "uint256",
          "name": "nftId",
          "type": "uint256"
        },
        {
          "internalType": "uint256",
          "name": "price",
          "type": "uint256"
        },
        {
          "internalType": "uint256",
          "name": "amount",
          "type": "uint256"
        }
      ],
      "name": "buyOffer",
      "outputs": [],
      "stateMutability": "nonpayable",
      "type": "function"
    },
    {
      "inputs": [
        {
          "internalType": "uint256",
          "name": "nftId",
          "type": "uint256"
        },
        {
          "internalType": "uint256",
          "name": "price",
          "type": "uint256"
        },
        {
          "internalType": "uint256",
          "name": "amount",
          "type": "uint256"
        },
        {
          "internalType": "bytes",
          "name": "sellerSignature",
          "type": "bytes"
        }
      ],
      "name": "buySignedOffer",
      "outputs": [],
      "stateMutability": "nonpayable",
      "type": "function"
    },
    {
      "inputs": [],
      "name": "childChainManagerProxy",
      "outputs": [
        {
          "internalType": "address",
          "name": "",
          "type": "address"
        }
      ],
      "stateMutability": "view",
      "type": "function",
      "constant": true
    },
    {
      "inputs": [
        {
          "internalType": "uint256",
          "name": "nftId",
          "type": "uint256"
        },
        {
          "internalType": "address",
          "name": "primaryRoyaltyAccount",
          "type": "address"
        },
        {
          "internalType": "uint256",
          "name": "primaryRoyaltyCut",
          "type": "uint256"
        },
        {
          "internalType": "uint256",
          "name": "primaryRoyaltyMinimum",
          "type": "uint256"
        },
        {
          "internalType": "address",
          "name": "secondaryRoyaltyAccount",
          "type": "address"
        },
        {
          "internalType": "uint256",
          "name": "secondaryRoyaltyCut",
          "type": "uint256"
        },
        {
          "internalType": "uint256",
          "name": "secondaryRoyaltyMinimum",
          "type": "uint256"
        }
      ],
      "name": "configureRoyalties",
      "outputs": [],
      "stateMutability": "nonpayable",
      "type": "function"
    },
    {
      "inputs": [
        {
          "internalType": "address[]",
          "name": "owners",
          "type": "address[]"
        },
        {
          "internalType": "uint256[]",
          "name": "fractions",
          "type": "uint256[]"
        }
      ],
      "name": "createJointAccount",
      "outputs": [
        {
          "internalType": "address",
          "name": "",
          "type": "address"
        }
      ],
      "stateMutability": "nonpayable",
      "type": "function"
    },
    {
      "inputs": [],
      "name": "currencyInBridge",
      "outputs": [
        {
          "internalType": "uint256",
          "name": "",
          "type": "uint256"
        }
      ],
      "stateMutability": "view",
      "type": "function",
      "constant": true
    },
    {
      "inputs": [
        {
          "internalType": "address",
          "name": "user",
          "type": "address"
        },
        {
          "internalType": "bytes",
          "name": "depositData",
          "type": "bytes"
        }
      ],
      "name": "deposit",
      "outputs": [],
      "stateMutability": "nonpayable",
      "type": "function"
    },
    {
      "inputs": [
        {
          "internalType": "address",
          "name": "account",
          "type": "address"
        }
      ],
      "name": "distributeJointAccount",
      "outputs": [],
      "stateMutability": "nonpayable",
      "type": "function"
    },
    {
      "inputs": [
        {
          "internalType": "address",
          "name": "account",
          "type": "address"
        },
        {
          "internalType": "address",
          "name": "maybeOwner",
          "type": "address"
        }
      ],
      "name": "fractionOfJAOwner",
      "outputs": [
        {
          "internalType": "uint256",
          "name": "",
          "type": "uint256"
        }
      ],
      "stateMutability": "view",
      "type": "function",
      "constant": true
    },
    {
      "inputs": [
        {
          "internalType": "address",
          "name": "issuer",
          "type": "address"
        },
        {
          "internalType": "uint32",
          "name": "nonce",
          "type": "uint32"
        },
        {
          "internalType": "uint64",
          "name": "supply",
          "type": "uint64"
        }
      ],
      "name": "getNftId",
      "outputs": [
        {
          "internalType": "uint256",
          "name": "",
          "type": "uint256"
        }
      ],
      "stateMutability": "pure",
      "type": "function",
      "constant": true
    },
    {
      "inputs": [
        {
          "internalType": "uint256",
          "name": "nftId",
          "type": "uint256"
        }
      ],
      "name": "getRoyalties",
      "outputs": [
        {
          "internalType": "address",
          "name": "primaryRoyaltyAccount",
          "type": "address"
        },
        {
          "internalType": "uint256",
          "name": "primaryRoyaltyCut",
          "type": "uint256"
        },
        {
          "internalType": "uint256",
          "name": "primaryRoyaltyMinimum",
          "type": "uint256"
        },
        {
          "internalType": "address",
          "name": "secondaryRoyaltyAccount",
          "type": "address"
        },
        {
          "internalType": "uint256",
          "name": "secondaryRoyaltyCut",
          "type": "uint256"
        },
        {
          "internalType": "uint256",
          "name": "secondaryRoyaltyMinimum",
          "type": "uint256"
        }
      ],
      "stateMutability": "view",
      "type": "function",
      "constant": true
    },
    {
      "inputs": [
        {
          "internalType": "uint256",
          "name": "nftId",
          "type": "uint256"
        },
        {
          "internalType": "address",
          "name": "beneficiary",
          "type": "address"
        }
      ],
      "name": "getRoyaltiesForBeneficiary",
      "outputs": [
        {
          "internalType": "uint256",
          "name": "primaryCut",
          "type": "uint256"
        },
        {
          "internalType": "uint256",
          "name": "primaryMinimum",
          "type": "uint256"
        },
        {
          "internalType": "uint256",
          "name": "secondaryCut",
          "type": "uint256"
        },
        {
          "internalType": "uint256",
          "name": "secondaryMinimum",
          "type": "uint256"
        }
      ],
      "stateMutability": "view",
      "type": "function",
      "constant": true
    },
    {
      "inputs": [
        {
          "internalType": "address",
          "name": "account",
          "type": "address"
        },
        {
          "internalType": "address",
          "name": "operator",
          "type": "address"
        }
      ],
      "name": "isApprovedForAll",
      "outputs": [
        {
          "internalType": "bool",
          "name": "",
          "type": "bool"
        }
      ],
      "stateMutability": "view",
      "type": "function",
      "constant": true
    },
    {
      "inputs": [
        {
          "internalType": "address",
          "name": "",
          "type": "address"
        }
      ],
      "name": "issuanceNonces",
      "outputs": [
        {
          "internalType": "uint32",
          "name": "",
          "type": "uint32"
        }
      ],
      "stateMutability": "view",
      "type": "function",
      "constant": true
    },
    {
      "inputs": [
        {
          "internalType": "uint64",
          "name": "supply",
          "type": "uint64"
        },
        {
          "internalType": "bytes",
          "name": "data",
          "type": "bytes"
        }
      ],
      "name": "issue",
      "outputs": [
        {
          "internalType": "uint256",
          "name": "",
          "type": "uint256"
        }
      ],
      "stateMutability": "nonpayable",
      "type": "function"
    },
    {
      "inputs": [
        {
          "internalType": "address",
          "name": "",
          "type": "address"
        },
        {
          "internalType": "uint256",
          "name": "",
          "type": "uint256"
        }
      ],
      "name": "jointAccounts",
      "outputs": [
        {
          "internalType": "address",
          "name": "owner",
          "type": "address"
        },
        {
          "internalType": "uint256",
          "name": "fraction",
          "type": "uint256"
        }
      ],
      "stateMutability": "view",
      "type": "function",
      "constant": true
    },
    {
      "inputs": [
        {
          "internalType": "uint256",
          "name": "nftId",
          "type": "uint256"
        },
        {
          "internalType": "uint256",
          "name": "lockUntil",
          "type": "uint256"
        }
      ],
      "name": "lockRoyalties",
      "outputs": [],
      "stateMutability": "nonpayable",
      "type": "function"
    },
    {
      "inputs": [
        {
          "internalType": "address[]",
          "name": "owners",
          "type": "address[]"
        },
        {
          "internalType": "uint256[]",
          "name": "fractions",
          "type": "uint256[]"
        }
      ],
      "name": "makeAddressOfJointAccount",
      "outputs": [
        {
          "internalType": "address",
          "name": "",
          "type": "address"
        }
      ],
      "stateMutability": "pure",
      "type": "function",
      "constant": true
    },
    {
      "inputs": [
        {
          "internalType": "uint256",
          "name": "nftId",
          "type": "uint256"
        },
        {
          "internalType": "uint256",
          "name": "price",
          "type": "uint256"
        },
        {
          "internalType": "uint256",
          "name": "amount",
          "type": "uint256"
        }
      ],
      "name": "offerToSell",
      "outputs": [],
      "stateMutability": "nonpayable",
      "type": "function"
    },
    {
      "inputs": [
        {
          "internalType": "address",
          "name": "from",
          "type": "address"
        },
        {
          "internalType": "address",
          "name": "to",
          "type": "address"
        },
        {
          "internalType": "uint256[]",
          "name": "ids",
          "type": "uint256[]"
        },
        {
          "internalType": "uint256[]",
          "name": "amounts",
          "type": "uint256[]"
        },
        {
          "internalType": "bytes",
          "name": "data",
          "type": "bytes"
        }
      ],
      "name": "safeBatchTransferFrom",
      "outputs": [],
      "stateMutability": "nonpayable",
      "type": "function"
    },
    {
      "inputs": [
        {
          "internalType": "address",
          "name": "from",
          "type": "address"
        },
        {
          "internalType": "address",
          "name": "to",
          "type": "address"
        },
        {
          "internalType": "uint256",
          "name": "id",
          "type": "uint256"
        },
        {
          "internalType": "uint256",
          "name": "amount",
          "type": "uint256"
        },
        {
          "internalType": "bytes",
          "name": "data",
          "type": "bytes"
        }
      ],
      "name": "safeTransferFrom",
      "outputs": [],
      "stateMutability": "nonpayable",
      "type": "function"
    },
    {
      "inputs": [
        {
          "internalType": "address",
          "name": "operator",
          "type": "address"
        },
        {
          "internalType": "bool",
          "name": "approved",
          "type": "bool"
        }
      ],
      "name": "setApprovalForAll",
      "outputs": [],
      "stateMutability": "nonpayable",
      "type": "function"
    },
    {
      "inputs": [
        {
          "internalType": "bytes4",
          "name": "interfaceId",
          "type": "bytes4"
        }
      ],
      "name": "supportsInterface",
      "outputs": [
        {
          "internalType": "bool",
          "name": "",
          "type": "bool"
        }
      ],
      "stateMutability": "view",
      "type": "function",
      "constant": true
    },
    {
      "inputs": [
        {
          "internalType": "address",
          "name": "newChildChainManagerProxy",
          "type": "address"
        }
      ],
      "name": "updateChildChainManager",
      "outputs": [],
      "stateMutability": "nonpayable",
      "type": "function"
    },
    {
      "inputs": [
        {
          "internalType": "uint256",
          "name": "",
          "type": "uint256"
        }
      ],
      "name": "uri",
      "outputs": [
        {
          "internalType": "string",
          "name": "",
          "type": "string"
        }
      ],
      "stateMutability": "view",
      "type": "function",
      "constant": true
    },
    {
      "inputs": [
        {
          "internalType": "uint256",
          "name": "amount",
          "type": "uint256"
        }
      ],
      "name": "withdraw",
      "outputs": [],
      "stateMutability": "nonpayable",
      "type": "function"
    }
  ],
  "bytecode": "0x6080604052612710600555600a6006553480156200001c57600080fd5b50604051806060016040528060228152602001620055c2602291396200004881620000fc60201b60201c565b5068056bc75e2d6310000060008080815260200190815260200160002060008073ffffffffffffffffffffffffffffffffffffffff1673ffffffffffffffffffffffffffffffffffffffff16815260200190815260200160002081905550620000b66200011860201b60201c565b600360006101000a81548173ffffffffffffffffffffffffffffffffffffffff021916908373ffffffffffffffffffffffffffffffffffffffff16021790555062000235565b80600290805190602001906200011492919062000120565b5050565b600033905090565b8280546200012e90620001d0565b90600052602060002090601f0160209004810192826200015257600085556200019e565b82601f106200016d57805160ff19168380011785556200019e565b828001600101855582156200019e579182015b828111156200019d57825182559160200191906001019062000180565b5b509050620001ad9190620001b1565b5090565b5b80821115620001cc576000816000905550600101620001b2565b5090565b60006002820490506001821680620001e957607f821691505b602082108114156200020057620001ff62000206565b5b50919050565b7f4e487b7100000000000000000000000000000000000000000000000000000000600052602260045260246000fd5b61537d80620002456000396000f3fe608060405234801561001057600080fd5b50600436106101fa5760003560e01c80638183d99d1161011a578063cf2c52cb116100ad578063e24b0a2b1161007c578063e24b0a2b14610623578063e985e9c514610656578063f242432a14610686578063f3747d2d146106a2578063f5361219146106be576101fa565b8063cf2c52cb146105ad578063d9bbc588146105c9578063dae2c77d146105e7578063e1f1c4a714610605576101fa565b8063acc08fa5116100e9578063acc08fa5146104fc578063ad09608a1461052c578063ba7f4dfe14610548578063bb3bafd614610578576101fa565b80638183d99d146104785780639e00bb9614610494578063a22cb465146104c4578063a5e1fcd7146104e0576101fa565b80633c6b5709116101925780635611cac2116101615780635611cac2146103de57806358556fb01461040e57806362f629e71461043e5780636f6fa3191461045c576101fa565b80633c6b570914610331578063445a6797146103615780634559a29b1461037d5780634e1273f4146103ae576101fa565b80632e1a7d4d116101ce5780632e1a7d4d146102bf5780632eb2c2d6146102db57806330b06421146102f757806339b276f414610315576101fa565b8062fdd58e146101ff57806301ffc9a71461022f5780630e89341c1461025f5780632c8f284c1461028f575b600080fd5b61021960048036038101906102149190613645565b6106dc565b6040516102269190614538565b60405180910390f35b610249600480360381019061024491906137b7565b6107a5565b60405161025691906141fb565b60405180910390f35b61027960048036038101906102749190613811565b610887565b6040516102869190614216565b60405180910390f35b6102a960048036038101906102a491906133ff565b61091b565b6040516102b69190614538565b60405180910390f35b6102d960048036038101906102d49190613811565b610a1b565b005b6102f560048036038101906102f0919061343f565b610a9e565b005b6102ff610e48565b60405161030c9190614538565b60405180910390f35b61032f600480360381019061032a9190613920565b610e4e565b005b61034b600480360381019061034691906136ec565b610f17565b6040516103589190614538565b60405180910390f35b61037b600480360381019061037691906133d2565b610f5a565b005b61039760048036038101906103929190613645565b6110a5565b6040516103a5929190614118565b60405180910390f35b6103c860048036038101906103c3919061373f565b611106565b6040516103d591906141a2565b60405180910390f35b6103f860048036038101906103f3919061373f565b61121f565b604051610405919061403b565b60405180910390f35b61042860048036038101906104239190613a36565b61125a565b6040516104359190614538565b60405180910390f35b610446611276565b604051610453919061403b565b60405180910390f35b61047660048036038101906104719190613960565b61129c565b005b610492600480360381019061048d91906139b3565b611314565b005b6104ae60048036038101906104a991906133ff565b61134f565b6040516104bb9190614538565b60405180910390f35b6104de60048036038101906104d991906135a5565b611396565b005b6104fa60048036038101906104f591906133d2565b611517565b005b610516600480360381019061051191906133d2565b61160a565b60405161052391906145c1565b60405180910390f35b6105466004803603810190610541919061387e565b61162d565b005b610562600480360381019061055d919061373f565b611936565b60405161056f919061403b565b60405180910390f35b610592600480360381019061058d9190613811565b611ca2565b6040516105a496959493929190614141565b60405180910390f35b6105c760048036038101906105c291906135e5565b611d78565b005b6105d1611e9c565b6040516105de9190614538565b60405180910390f35b6105ef611ef3565b6040516105fc9190614538565b60405180910390f35b61060d611f00565b60405161061a9190614538565b60405180910390f35b61063d6004803603810190610638919061383e565b611f06565b60405161064d949392919061457c565b60405180910390f35b610670600480360381019061066b91906133ff565b6120d1565b60405161067d91906141fb565b60405180910390f35b6106a0600480360381019061069b919061350e565b612165565b005b6106bc60048036038101906106b79190613685565b61247d565b005b6106c6612538565b6040516106d39190614538565b60405180910390f35b60008073ffffffffffffffffffffffffffffffffffffffff168373ffffffffffffffffffffffffffffffffffffffff16141561074d576040517f08c379a0000000000000000000000000000000000000000000000000000000008152600401610744906142b8565b60405180910390fd5b60008083815260200190815260200160002060008473ffffffffffffffffffffffffffffffffffffffff1673ffffffffffffffffffffffffffffffffffffffff16815260200190815260200160002054905092915050565b60007fd9b67a26000000000000000000000000000000000000000000000000000000007bffffffffffffffffffffffffffffffffffffffffffffffffffffffff1916827bffffffffffffffffffffffffffffffffffffffffffffffffffffffff1916148061087057507f0e89341c000000000000000000000000000000000000000000000000000000007bffffffffffffffffffffffffffffffffffffffffffffffffffffffff1916827bffffffffffffffffffffffffffffffffffffffffffffffffffffffff1916145b80610880575061087f8261253d565b5b9050919050565b60606002805461089690614962565b80601f01602080910402602001604051908101604052809291908181526020018280546108c290614962565b801561090f5780601f106108e45761010080835404028352916020019161090f565b820191906000526020600020905b8154815290600101906020018083116108f257829003601f168201915b50505050509050919050565b600080600760008573ffffffffffffffffffffffffffffffffffffffff1673ffffffffffffffffffffffffffffffffffffffff168152602001908152602001600020905060005b8180549050811015610a0e57600082828154811061098357610982614a9b565b5b906000526020600020906002020190508473ffffffffffffffffffffffffffffffffffffffff168160000160009054906101000a900473ffffffffffffffffffffffffffffffffffffffff1673ffffffffffffffffffffffffffffffffffffffff1614156109fa5780600101549350505050610a15565b508080610a06906149c5565b915050610962565b5060009150505b92915050565b6000610a256125a7565b9050610a3481600080856125af565b600073ffffffffffffffffffffffffffffffffffffffff168173ffffffffffffffffffffffffffffffffffffffff167fddf252ad1be2c89b69c2b068fc378daa952ba7f163c4a11628f55a4df523b3ef84604051610a929190614538565b60405180910390a35050565b8151835114610ae2576040517f08c379a0000000000000000000000000000000000000000000000000000000008152600401610ad9906144d8565b60405180910390fd5b600073ffffffffffffffffffffffffffffffffffffffff168473ffffffffffffffffffffffffffffffffffffffff161415610b52576040517f08c379a0000000000000000000000000000000000000000000000000000000008152600401610b4990614358565b60405180910390fd5b610b5a6125a7565b73ffffffffffffffffffffffffffffffffffffffff168573ffffffffffffffffffffffffffffffffffffffff161480610ba05750610b9f85610b9a6125a7565b6120d1565b5b610bdf576040517f08c379a0000000000000000000000000000000000000000000000000000000008152600401610bd690614378565b60405180910390fd5b6000610be96125a7565b9050610bf981878787878761279d565b60005b8451811015610db3576000858281518110610c1a57610c19614a9b565b5b602002602001015190506000858381518110610c3957610c38614a9b565b5b60200260200101519050600080600084815260200190815260200160002060008b73ffffffffffffffffffffffffffffffffffffffff1673ffffffffffffffffffffffffffffffffffffffff16815260200190815260200160002054905081811015610cda576040517f08c379a0000000000000000000000000000000000000000000000000000000008152600401610cd190614418565b60405180910390fd5b8181610ce69190614854565b60008085815260200190815260200160002060008c73ffffffffffffffffffffffffffffffffffffffff1673ffffffffffffffffffffffffffffffffffffffff168152602001908152602001600020819055508160008085815260200190815260200160002060008b73ffffffffffffffffffffffffffffffffffffffff1673ffffffffffffffffffffffffffffffffffffffff1681526020019081526020016000206000828254610d989190614739565b9250508190555050505080610dac906149c5565b9050610bfc565b508473ffffffffffffffffffffffffffffffffffffffff168673ffffffffffffffffffffffffffffffffffffffff168273ffffffffffffffffffffffffffffffffffffffff167f4a39dc06d4c0dbc64b70af90fd698a233a518aa5d07e595d983b8c0526c8f7fb8787604051610e2a9291906141c4565b60405180910390a4610e40818787878787612804565b505050505050565b60065481565b6000610e586125a7565b9050610e6481846129eb565b610e6d57600080fd5b600e6000848152602001908152602001600020548211610ec2576040517f08c379a0000000000000000000000000000000000000000000000000000000008152600401610eb9906143b8565b60405180910390fd5b81600e600085815260200190815260200160002081905550827f7bdd35d2167385bdbed0892e34b48298770ffce27fe71928c767071865f5154483604051610f0a9190614538565b60405180910390a2505050565b6000808267ffffffffffffffff1660408563ffffffff16901b60608773ffffffffffffffffffffffffffffffffffffffff16901b17179050809150509392505050565b600073ffffffffffffffffffffffffffffffffffffffff168173ffffffffffffffffffffffffffffffffffffffff161415610fca576040517f08c379a0000000000000000000000000000000000000000000000000000000008152600401610fc190614298565b60405180910390fd5b600360009054906101000a900473ffffffffffffffffffffffffffffffffffffffff1673ffffffffffffffffffffffffffffffffffffffff1661100b6125a7565b73ffffffffffffffffffffffffffffffffffffffff1614611061576040517f08c379a000000000000000000000000000000000000000000000000000000000815260040161105890614438565b60405180910390fd5b80600360006101000a81548173ffffffffffffffffffffffffffffffffffffffff021916908373ffffffffffffffffffffffffffffffffffffffff16021790555050565b600760205281600052604060002081815481106110c157600080fd5b9060005260206000209060020201600091509150508060000160009054906101000a900473ffffffffffffffffffffffffffffffffffffffff16908060010154905082565b6060815183511461114c576040517f08c379a0000000000000000000000000000000000000000000000000000000008152600401611143906144b8565b60405180910390fd5b6000835167ffffffffffffffff81111561116957611168614aca565b5b6040519080825280602002602001820160405280156111975781602001602082028036833780820191505090505b50905060005b8451811015611214576111e48582815181106111bc576111bb614a9b565b5b60200260200101518583815181106111d7576111d6614a9b565b5b60200260200101516106dc565b8282815181106111f7576111f6614a9b565b5b6020026020010181815250508061120d906149c5565b905061119d565b508091505092915050565b6000808383604051602001611235929190614017565b6040516020818303038152906040528051906020012090508060601c91505092915050565b600061126e6112676125a7565b8484612a3a565b905092915050565b600360009054906101000a900473ffffffffffffffffffffffffffffffffffffffff1681565b60006112a66125a7565b905081600f60008373ffffffffffffffffffffffffffffffffffffffff1673ffffffffffffffffffffffffffffffffffffffff168152602001908152602001600020600086815260200190815260200160002060008581526020019081526020016000208190555050505050565b6040517f08c379a0000000000000000000000000000000000000000000000000000000008152600401611346906142d8565b60405180910390fd5b60008061135c848461091b565b9050600061136b8560006106dc565b90506000600554838361137e91906147fa565b61138891906147c9565b905080935050505092915050565b8173ffffffffffffffffffffffffffffffffffffffff166113b56125a7565b73ffffffffffffffffffffffffffffffffffffffff16141561140c576040517f08c379a000000000000000000000000000000000000000000000000000000000815260040161140390614498565b60405180910390fd5b80600160006114196125a7565b73ffffffffffffffffffffffffffffffffffffffff1673ffffffffffffffffffffffffffffffffffffffff16815260200190815260200160002060008473ffffffffffffffffffffffffffffffffffffffff1673ffffffffffffffffffffffffffffffffffffffff16815260200190815260200160002060006101000a81548160ff0219169083151502179055508173ffffffffffffffffffffffffffffffffffffffff166114c66125a7565b73ffffffffffffffffffffffffffffffffffffffff167f17307eab39ab6107e8899845ad3d59bd9653f200f220920489ca2b5937696c318360405161150b91906141fb565b60405180910390a35050565b60006115248260006106dc565b90506000600760008473ffffffffffffffffffffffffffffffffffffffff1673ffffffffffffffffffffffffffffffffffffffff168152602001908152602001600020905060005b818054905081101561160457600082828154811061158d5761158c614a9b565b5b9060005260206000209060020201905060006005548260010154866115b291906147fa565b6115bc91906147c9565b90506115ef868360000160009054906101000a900473ffffffffffffffffffffffffffffffffffffffff166000846125af565b505080806115fc906149c5565b91505061156c565b50505050565b60046020528060005260406000206000915054906101000a900463ffffffff1681565b60006116376125a7565b905061164381896129eb565b611682576040517f08c379a0000000000000000000000000000000000000000000000000000000008152600401611679906143f8565b60405180910390fd5b600e6000898152602001908152602001600020544210156116d8576040517f08c379a00000000000000000000000000000000000000000000000000000000081526004016116cf906143d8565b60405180910390fd5b600073ffffffffffffffffffffffffffffffffffffffff168773ffffffffffffffffffffffffffffffffffffffff16141580611720575060008614801561171f5750600085145b5b61175f576040517f08c379a000000000000000000000000000000000000000000000000000000000815260040161175690614398565b60405180910390fd5b86600860008a815260200190815260200160002060006101000a81548173ffffffffffffffffffffffffffffffffffffffff021916908373ffffffffffffffffffffffffffffffffffffffff16021790555085600960008a81526020019081526020016000208190555084600a60008a815260200190815260200160002081905550600073ffffffffffffffffffffffffffffffffffffffff168473ffffffffffffffffffffffffffffffffffffffff1614158061182957506000831480156118285750600082145b5b611868576040517f08c379a000000000000000000000000000000000000000000000000000000000815260040161185f90614398565b60405180910390fd5b83600b60008a815260200190815260200160002060006101000a81548173ffffffffffffffffffffffffffffffffffffffff021916908373ffffffffffffffffffffffffffffffffffffffff16021790555082600c60008a81526020019081526020016000208190555081600d60008a815260200190815260200160002081905550877f3df2272e42784a2455bbbdcdf25ae0f67d41f801896514cc4cd255aa8ee75e4c88888888888860405161192496959493929190614141565b60405180910390a25050505050505050565b6000815183511461197c576040517f08c379a000000000000000000000000000000000000000000000000000000000815260040161197390614478565b60405180910390fd5b600654835111156119c2576040517f08c379a00000000000000000000000000000000000000000000000000000000081526004016119b990614458565b60405180910390fd5b60006119ce848461121f565b90506000600760008373ffffffffffffffffffffffffffffffffffffffff1673ffffffffffffffffffffffffffffffffffffffff16815260200190815260200160002090506000818054905014611a5a576040517f08c379a0000000000000000000000000000000000000000000000000000000008152600401611a5190614518565b60405180910390fd5b6000805b8651811015611c51576000878281518110611a7c57611a7b614a9b565b5b602002602001015190506000878381518110611a9b57611a9a614a9b565b5b60200260200101519050600073ffffffffffffffffffffffffffffffffffffffff168273ffffffffffffffffffffffffffffffffffffffff1614158015611ae3575060008114155b611b22576040517f08c379a0000000000000000000000000000000000000000000000000000000008152600401611b1990614338565b60405180910390fd5b8460405180604001604052808473ffffffffffffffffffffffffffffffffffffffff16815260200183815250908060018154018082558091505060019003906000526020600020906002020160009091909190915060008201518160000160006101000a81548173ffffffffffffffffffffffffffffffffffffffff021916908373ffffffffffffffffffffffffffffffffffffffff1602179055506020820151816001015550508084611bd69190614739565b93508173ffffffffffffffffffffffffffffffffffffffff168673ffffffffffffffffffffffffffffffffffffffff167e6fb9851f1fd2fbc9fa36680d17e1254999a38e5f3c76c3a1ecc126a464601b83604051611c349190614538565b60405180910390a350508080611c49906149c5565b915050611a5e565b506005548114611c96576040517f08c379a0000000000000000000000000000000000000000000000000000000008152600401611c8d90614278565b60405180910390fd5b82935050505092915050565b6000806000806000806008600088815260200190815260200160002060009054906101000a900473ffffffffffffffffffffffffffffffffffffffff166009600089815260200190815260200160002054600a60008a815260200190815260200160002054600b60008b815260200190815260200160002060009054906101000a900473ffffffffffffffffffffffffffffffffffffffff16600c60008c815260200190815260200160002054600d60008d81526020019081526020016000205495509550955095509550955091939550919395565b600360009054906101000a900473ffffffffffffffffffffffffffffffffffffffff1673ffffffffffffffffffffffffffffffffffffffff16611db96125a7565b73ffffffffffffffffffffffffffffffffffffffff1614611e0f576040517f08c379a0000000000000000000000000000000000000000000000000000000008152600401611e0690614318565b60405180910390fd5b60008282810190611e209190613811565b9050611e306000856000846125af565b8373ffffffffffffffffffffffffffffffffffffffff16600073ffffffffffffffffffffffffffffffffffffffff167fddf252ad1be2c89b69c2b068fc378daa952ba7f163c4a11628f55a4df523b3ef83604051611e8e9190614538565b60405180910390a350505050565b600080600080815260200190815260200160002060008073ffffffffffffffffffffffffffffffffffffffff1673ffffffffffffffffffffffffffffffffffffffff16815260200190815260200160002054905090565b68056bc75e2d6310000081565b60055481565b60008060008060096000878152602001908152602001600020549350600a600087815260200190815260200160002054925060006008600088815260200190815260200160002060009054906101000a900473ffffffffffffffffffffffffffffffffffffffff1690508573ffffffffffffffffffffffffffffffffffffffff168173ffffffffffffffffffffffffffffffffffffffff1614611fe9576000611faf828861091b565b90506005548187611fc091906147fa565b611fca91906147c9565b95506005548186611fdb91906147fa565b611fe591906147c9565b9450505b600c6000888152602001908152602001600020549250600d60008881526020019081526020016000205491506000600b600089815260200190815260200160002060009054906101000a900473ffffffffffffffffffffffffffffffffffffffff1690508673ffffffffffffffffffffffffffffffffffffffff168173ffffffffffffffffffffffffffffffffffffffff16146120c657600061208c828961091b565b9050600554818661209d91906147fa565b6120a791906147c9565b945060055481856120b891906147fa565b6120c291906147c9565b9350505b505092959194509250565b6000600160008473ffffffffffffffffffffffffffffffffffffffff1673ffffffffffffffffffffffffffffffffffffffff16815260200190815260200160002060008373ffffffffffffffffffffffffffffffffffffffff1673ffffffffffffffffffffffffffffffffffffffff16815260200190815260200160002060009054906101000a900460ff16905092915050565b600073ffffffffffffffffffffffffffffffffffffffff168473ffffffffffffffffffffffffffffffffffffffff1614156121d5576040517f08c379a00000000000000000000000000000000000000000000000000000000081526004016121cc90614358565b60405180910390fd5b6121dd6125a7565b73ffffffffffffffffffffffffffffffffffffffff168573ffffffffffffffffffffffffffffffffffffffff16148061222357506122228561221d6125a7565b6120d1565b5b612262576040517f08c379a0000000000000000000000000000000000000000000000000000000008152600401612259906142f8565b60405180910390fd5b600061226c6125a7565b905061228c81878761227d88612b41565b61228688612b41565b8761279d565b600080600086815260200190815260200160002060008873ffffffffffffffffffffffffffffffffffffffff1673ffffffffffffffffffffffffffffffffffffffff16815260200190815260200160002054905083811015612323576040517f08c379a000000000000000000000000000000000000000000000000000000000815260040161231a90614418565b60405180910390fd5b838161232f9190614854565b60008087815260200190815260200160002060008973ffffffffffffffffffffffffffffffffffffffff1673ffffffffffffffffffffffffffffffffffffffff168152602001908152602001600020819055508360008087815260200190815260200160002060008873ffffffffffffffffffffffffffffffffffffffff1673ffffffffffffffffffffffffffffffffffffffff16815260200190815260200160002060008282546123e19190614739565b925050819055508573ffffffffffffffffffffffffffffffffffffffff168773ffffffffffffffffffffffffffffffffffffffff168373ffffffffffffffffffffffffffffffffffffffff167fc3d58168c5ae7397731d063d5bbf3d657854427343f4c083240f7aacaa2d0f62888860405161245e929190614553565b60405180910390a4612474828888888888612bbb565b50505050505050565b80600f60008673ffffffffffffffffffffffffffffffffffffffff1673ffffffffffffffffffffffffffffffffffffffff1681526020019081526020016000206000858152602001908152602001600020600084815260200190815260200160002060008282546124ee9190614854565b9250508190555060006124ff6125a7565b905061251981866000858761251491906147fa565b6125af565b612525858286856125af565b61253185858585612da2565b5050505050565b600081565b60007f01ffc9a7000000000000000000000000000000000000000000000000000000007bffffffffffffffffffffffffffffffffffffffffffffffffffffffff1916827bffffffffffffffffffffffffffffffffffffffffffffffffffffffff1916149050919050565b600033905090565b600080600084815260200190815260200160002060008673ffffffffffffffffffffffffffffffffffffffff1673ffffffffffffffffffffffffffffffffffffffff16815260200190815260200160002054905081811015612646576040517f08c379a000000000000000000000000000000000000000000000000000000000815260040161263d90614418565b60405180910390fd5b81816126529190614854565b60008085815260200190815260200160002060008773ffffffffffffffffffffffffffffffffffffffff1673ffffffffffffffffffffffffffffffffffffffff168152602001908152602001600020819055508160008085815260200190815260200160002060008673ffffffffffffffffffffffffffffffffffffffff1673ffffffffffffffffffffffffffffffffffffffff16815260200190815260200160002060008282546127049190614739565b9250508190555060006127156125a7565b90508473ffffffffffffffffffffffffffffffffffffffff168673ffffffffffffffffffffffffffffffffffffffff168273ffffffffffffffffffffffffffffffffffffffff167fc3d58168c5ae7397731d063d5bbf3d657854427343f4c083240f7aacaa2d0f62878760405161278d929190614553565b60405180910390a4505050505050565b60005b83518110156127fb576127ea868583815181106127c0576127bf614a9b565b5b602002602001015160008685815181106127dd576127dc614a9b565b5b6020026020010151612da2565b806127f4906149c5565b90506127a0565b50505050505050565b6128238473ffffffffffffffffffffffffffffffffffffffff16612eee565b156129e3578373ffffffffffffffffffffffffffffffffffffffff1663bc197c8187878686866040518663ffffffff1660e01b8152600401612869959493929190614056565b602060405180830381600087803b15801561288357600080fd5b505af19250505080156128b457506040513d601f19601f820116820180604052508101906128b191906137e4565b60015b61295a576128c0614af9565b806308c379a0141561291d57506128d5615227565b806128e0575061291f565b806040517f08c379a00000000000000000000000000000000000000000000000000000000081526004016129149190614216565b60405180910390fd5b505b6040517f08c379a000000000000000000000000000000000000000000000000000000000815260040161295190614238565b60405180910390fd5b63bc197c8160e01b7bffffffffffffffffffffffffffffffffffffffffffffffffffffffff1916817bffffffffffffffffffffffffffffffffffffffffffffffffffffffff1916146129e1576040517f08c379a00000000000000000000000000000000000000000000000000000000081526004016129d890614258565b60405180910390fd5b505b505050505050565b6000806000806129fa85612f01565b9250925092508273ffffffffffffffffffffffffffffffffffffffff168673ffffffffffffffffffffffffffffffffffffffff1614935050505092915050565b600080600460008673ffffffffffffffffffffffffffffffffffffffff1673ffffffffffffffffffffffffffffffffffffffff16815260200190815260200160002060009054906101000a900463ffffffff169050600181612a9c919061478f565b600460008773ffffffffffffffffffffffffffffffffffffffff1673ffffffffffffffffffffffffffffffffffffffff16815260200190815260200160002060006101000a81548163ffffffff021916908363ffffffff1602179055506000612b06868387610f17565b905060008567ffffffffffffffff1611612b1f57600080fd5b612b3586828767ffffffffffffffff1687612f58565b80925050509392505050565b60606000600167ffffffffffffffff811115612b6057612b5f614aca565b5b604051908082528060200260200182016040528015612b8e5781602001602082028036833780820191505090505b5090508281600081518110612ba657612ba5614a9b565b5b60200260200101818152505080915050919050565b612bda8473ffffffffffffffffffffffffffffffffffffffff16612eee565b15612d9a578373ffffffffffffffffffffffffffffffffffffffff1663f23a6e6187878686866040518663ffffffff1660e01b8152600401612c209594939291906140be565b602060405180830381600087803b158015612c3a57600080fd5b505af1925050508015612c6b57506040513d601f19601f82011682018060405250810190612c6891906137e4565b60015b612d1157612c77614af9565b806308c379a01415612cd45750612c8c615227565b80612c975750612cd6565b806040517f08c379a0000000000000000000000000000000000000000000000000000000008152600401612ccb9190614216565b60405180910390fd5b505b6040517f08c379a0000000000000000000000000000000000000000000000000000000008152600401612d0890614238565b60405180910390fd5b63f23a6e6160e01b7bffffffffffffffffffffffffffffffffffffffffffffffffffffffff1916817bffffffffffffffffffffffffffffffffffffffffffffffffffffffff191614612d98576040517f08c379a0000000000000000000000000000000000000000000000000000000008152600401612d8f90614258565b60405180910390fd5b505b505050505050565b6000831415612db057612ee8565b600080600080612dc088886130ee565b90508015612e2f5760096000888152602001908152602001600020549350600a60008881526020019081526020016000205492506008600088815260200190815260200160002060009054906101000a900473ffffffffffffffffffffffffffffffffffffffff169150612e92565b600c6000888152602001908152602001600020549350600d6000888152602001908152602001600020549250600b600088815260200190815260200160002060009054906101000a900473ffffffffffffffffffffffffffffffffffffffff1691505b60006005548588612ea391906147fa565b612ead91906147c9565b905083811015612ebb578390505b60008682612ec991906147fa565b905060008114612ee157612ee08a856000846125af565b5b5050505050505b50505050565b600080823b905060008111915050919050565b600080600060607fffffffffffffffffffffffffffffffffffffffff0000000000000000000000008516901c925060406bffffffff00000000000000008516901c915067ffffffffffffffff841690509193909250565b600073ffffffffffffffffffffffffffffffffffffffff168473ffffffffffffffffffffffffffffffffffffffff161415612fc8576040517f08c379a0000000000000000000000000000000000000000000000000000000008152600401612fbf906144f8565b60405180910390fd5b6000612fd26125a7565b9050612ff381600087612fe488612b41565b612fed88612b41565b8761279d565b8260008086815260200190815260200160002060008773ffffffffffffffffffffffffffffffffffffffff1673ffffffffffffffffffffffffffffffffffffffff16815260200190815260200160002060008282546130529190614739565b925050819055508473ffffffffffffffffffffffffffffffffffffffff16600073ffffffffffffffffffffffffffffffffffffffff168273ffffffffffffffffffffffffffffffffffffffff167fc3d58168c5ae7397731d063d5bbf3d657854427343f4c083240f7aacaa2d0f6287876040516130d0929190614553565b60405180910390a46130e781600087878787612bbb565b5050505050565b6000806000806130fd85612f01565b9250925092508273ffffffffffffffffffffffffffffffffffffffff168673ffffffffffffffffffffffffffffffffffffffff1614935050505092915050565b600061315061314b84614601565b6145dc565b9050808382526020820190508285602086028201111561317357613172614b25565b5b60005b858110156131a35781613189888261325f565b845260208401935060208301925050600181019050613176565b5050509392505050565b60006131c06131bb8461462d565b6145dc565b905080838252602082019050828560208602820111156131e3576131e2614b25565b5b60005b8581101561321357816131f98882613393565b8452602084019350602083019250506001810190506131e6565b5050509392505050565b600061323061322b84614659565b6145dc565b90508281526020810184848401111561324c5761324b614b2a565b5b613257848285614920565b509392505050565b60008135905061326e816152bd565b92915050565b600082601f83011261328957613288614b20565b5b813561329984826020860161313d565b91505092915050565b600082601f8301126132b7576132b6614b20565b5b81356132c78482602086016131ad565b91505092915050565b6000813590506132df816152d4565b92915050565b6000813590506132f4816152eb565b92915050565b600081519050613309816152eb565b92915050565b60008083601f84011261332557613324614b20565b5b8235905067ffffffffffffffff81111561334257613341614b1b565b5b60208301915083600182028301111561335e5761335d614b25565b5b9250929050565b600082601f83011261337a57613379614b20565b5b813561338a84826020860161321d565b91505092915050565b6000813590506133a281615302565b92915050565b6000813590506133b781615319565b92915050565b6000813590506133cc81615330565b92915050565b6000602082840312156133e8576133e7614b34565b5b60006133f68482850161325f565b91505092915050565b6000806040838503121561341657613415614b34565b5b60006134248582860161325f565b92505060206134358582860161325f565b9150509250929050565b600080600080600060a0868803121561345b5761345a614b34565b5b60006134698882890161325f565b955050602061347a8882890161325f565b945050604086013567ffffffffffffffff81111561349b5761349a614b2f565b5b6134a7888289016132a2565b935050606086013567ffffffffffffffff8111156134c8576134c7614b2f565b5b6134d4888289016132a2565b925050608086013567ffffffffffffffff8111156134f5576134f4614b2f565b5b61350188828901613365565b9150509295509295909350565b600080600080600060a0868803121561352a57613529614b34565b5b60006135388882890161325f565b95505060206135498882890161325f565b945050604061355a88828901613393565b935050606061356b88828901613393565b925050608086013567ffffffffffffffff81111561358c5761358b614b2f565b5b61359888828901613365565b9150509295509295909350565b600080604083850312156135bc576135bb614b34565b5b60006135ca8582860161325f565b92505060206135db858286016132d0565b9150509250929050565b6000806000604084860312156135fe576135fd614b34565b5b600061360c8682870161325f565b935050602084013567ffffffffffffffff81111561362d5761362c614b2f565b5b6136398682870161330f565b92509250509250925092565b6000806040838503121561365c5761365b614b34565b5b600061366a8582860161325f565b925050602061367b85828601613393565b9150509250929050565b6000806000806080858703121561369f5761369e614b34565b5b60006136ad8782880161325f565b94505060206136be87828801613393565b93505060406136cf87828801613393565b92505060606136e087828801613393565b91505092959194509250565b60008060006060848603121561370557613704614b34565b5b60006137138682870161325f565b9350506020613724868287016133a8565b9250506040613735868287016133bd565b9150509250925092565b6000806040838503121561375657613755614b34565b5b600083013567ffffffffffffffff81111561377457613773614b2f565b5b61378085828601613274565b925050602083013567ffffffffffffffff8111156137a1576137a0614b2f565b5b6137ad858286016132a2565b9150509250929050565b6000602082840312156137cd576137cc614b34565b5b60006137db848285016132e5565b91505092915050565b6000602082840312156137fa576137f9614b34565b5b6000613808848285016132fa565b91505092915050565b60006020828403121561382757613826614b34565b5b600061383584828501613393565b91505092915050565b6000806040838503121561385557613854614b34565b5b600061386385828601613393565b92505060206138748582860161325f565b9150509250929050565b600080600080600080600060e0888a03121561389d5761389c614b34565b5b60006138ab8a828b01613393565b97505060206138bc8a828b0161325f565b96505060406138cd8a828b01613393565b95505060606138de8a828b01613393565b94505060806138ef8a828b0161325f565b93505060a06139008a828b01613393565b92505060c06139118a828b01613393565b91505092959891949750929550565b6000806040838503121561393757613936614b34565b5b600061394585828601613393565b925050602061395685828601613393565b9150509250929050565b60008060006060848603121561397957613978614b34565b5b600061398786828701613393565b935050602061399886828701613393565b92505060406139a986828701613393565b9150509250925092565b600080600080608085870312156139cd576139cc614b34565b5b60006139db87828801613393565b94505060206139ec87828801613393565b93505060406139fd87828801613393565b925050606085013567ffffffffffffffff811115613a1e57613a1d614b2f565b5b613a2a87828801613365565b91505092959194509250565b60008060408385031215613a4d57613a4c614b34565b5b6000613a5b858286016133bd565b925050602083013567ffffffffffffffff811115613a7c57613a7b614b2f565b5b613a8885828601613365565b9150509250929050565b6000613a9e8383613ae9565b60208301905092915050565b6000613ab68383613fdb565b60208301905092915050565b6000613ace8383613ff9565b60208301905092915050565b613ae381614888565b82525050565b613af281614888565b82525050565b6000613b03826146aa565b613b0d81856146f0565b9350613b188361468a565b8060005b83811015613b49578151613b308882613a92565b9750613b3b836146d6565b925050600181019050613b1c565b5085935050505092915050565b6000613b61826146b5565b613b6b81856146fb565b9350613b768361469a565b8060005b83811015613ba7578151613b8e8882613aaa565b9750613b99836146e3565b925050600181019050613b7a565b5085935050505092915050565b6000613bbf826146b5565b613bc9818561470c565b9350613bd48361469a565b8060005b83811015613c05578151613bec8882613ac2565b9750613bf7836146e3565b925050600181019050613bd8565b5085935050505092915050565b613c1b8161489a565b82525050565b6000613c2c826146c0565b613c368185614717565b9350613c4681856020860161492f565b613c4f81614b39565b840191505092915050565b6000613c65826146cb565b613c6f8185614728565b9350613c7f81856020860161492f565b613c8881614b39565b840191505092915050565b6000613ca0603483614728565b9150613cab82614b57565b604082019050919050565b6000613cc3602883614728565b9150613cce82614ba6565b604082019050919050565b6000613ce6601e83614728565b9150613cf182614bf5565b602082019050919050565b6000613d09602283614728565b9150613d1482614c1e565b604082019050919050565b6000613d2c602b83614728565b9150613d3782614c6d565b604082019050919050565b6000613d4f600f83614728565b9150613d5a82614cbc565b602082019050919050565b6000613d72602983614728565b9150613d7d82614ce5565b604082019050919050565b6000613d95602b83614728565b9150613da082614d34565b604082019050919050565b6000613db8601a83614728565b9150613dc382614d83565b602082019050919050565b6000613ddb602583614728565b9150613de682614dac565b604082019050919050565b6000613dfe603283614728565b9150613e0982614dfb565b604082019050919050565b6000613e21602c83614728565b9150613e2c82614e4a565b604082019050919050565b6000613e44603283614728565b9150613e4f82614e99565b604082019050919050565b6000613e67602983614728565b9150613e7282614ee8565b604082019050919050565b6000613e8a602d83614728565b9150613e9582614f37565b604082019050919050565b6000613ead602a83614728565b9150613eb882614f86565b604082019050919050565b6000613ed0604483614728565b9150613edb82614fd5565b606082019050919050565b6000613ef3600f83614728565b9150613efe8261504a565b602082019050919050565b6000613f16603883614728565b9150613f2182615073565b604082019050919050565b6000613f39602983614728565b9150613f44826150c2565b604082019050919050565b6000613f5c602983614728565b9150613f6782615111565b604082019050919050565b6000613f7f602883614728565b9150613f8a82615160565b604082019050919050565b6000613fa2602183614728565b9150613fad826151af565b604082019050919050565b6000613fc5601a83614728565b9150613fd0826151fe565b602082019050919050565b613fe4816148f2565b82525050565b613ff3816148f2565b82525050565b614002816148f2565b82525050565b614011816148fc565b82525050565b60006140238285613af8565b915061402f8284613bb4565b91508190509392505050565b60006020820190506140506000830184613ada565b92915050565b600060a08201905061406b6000830188613ada565b6140786020830187613ada565b818103604083015261408a8186613b56565b9050818103606083015261409e8185613b56565b905081810360808301526140b28184613c21565b90509695505050505050565b600060a0820190506140d36000830188613ada565b6140e06020830187613ada565b6140ed6040830186613fea565b6140fa6060830185613fea565b818103608083015261410c8184613c21565b90509695505050505050565b600060408201905061412d6000830185613ada565b61413a6020830184613fea565b9392505050565b600060c0820190506141566000830189613ada565b6141636020830188613fea565b6141706040830187613fea565b61417d6060830186613ada565b61418a6080830185613fea565b61419760a0830184613fea565b979650505050505050565b600060208201905081810360008301526141bc8184613b56565b905092915050565b600060408201905081810360008301526141de8185613b56565b905081810360208301526141f28184613b56565b90509392505050565b60006020820190506142106000830184613c12565b92915050565b600060208201905081810360008301526142308184613c5a565b905092915050565b6000602082019050818103600083015261425181613c93565b9050919050565b6000602082019050818103600083015261427181613cb6565b9050919050565b6000602082019050818103600083015261429181613cd9565b9050919050565b600060208201905081810360008301526142b181613cfc565b9050919050565b600060208201905081810360008301526142d181613d1f565b9050919050565b600060208201905081810360008301526142f181613d42565b9050919050565b6000602082019050818103600083015261431181613d65565b9050919050565b6000602082019050818103600083015261433181613d88565b9050919050565b6000602082019050818103600083015261435181613dab565b9050919050565b6000602082019050818103600083015261437181613dce565b9050919050565b6000602082019050818103600083015261439181613df1565b9050919050565b600060208201905081810360008301526143b181613e14565b9050919050565b600060208201905081810360008301526143d181613e37565b9050919050565b600060208201905081810360008301526143f181613e5a565b9050919050565b6000602082019050818103600083015261441181613e7d565b9050919050565b6000602082019050818103600083015261443181613ea0565b9050919050565b6000602082019050818103600083015261445181613ec3565b9050919050565b6000602082019050818103600083015261447181613ee6565b9050919050565b6000602082019050818103600083015261449181613f09565b9050919050565b600060208201905081810360008301526144b181613f2c565b9050919050565b600060208201905081810360008301526144d181613f4f565b9050919050565b600060208201905081810360008301526144f181613f72565b9050919050565b6000602082019050818103600083015261451181613f95565b9050919050565b6000602082019050818103600083015261453181613fb8565b9050919050565b600060208201905061454d6000830184613fea565b92915050565b60006040820190506145686000830185613fea565b6145756020830184613fea565b9392505050565b60006080820190506145916000830187613fea565b61459e6020830186613fea565b6145ab6040830185613fea565b6145b86060830184613fea565b95945050505050565b60006020820190506145d66000830184614008565b92915050565b60006145e66145f7565b90506145f28282614994565b919050565b6000604051905090565b600067ffffffffffffffff82111561461c5761461b614aca565b5b602082029050602081019050919050565b600067ffffffffffffffff82111561464857614647614aca565b5b602082029050602081019050919050565b600067ffffffffffffffff82111561467457614673614aca565b5b61467d82614b39565b9050602081019050919050565b6000819050602082019050919050565b6000819050602082019050919050565b600081519050919050565b600081519050919050565b600081519050919050565b600081519050919050565b6000602082019050919050565b6000602082019050919050565b600081905092915050565b600082825260208201905092915050565b600081905092915050565b600082825260208201905092915050565b600082825260208201905092915050565b6000614744826148f2565b915061474f836148f2565b9250827fffffffffffffffffffffffffffffffffffffffffffffffffffffffffffffffff0382111561478457614783614a0e565b5b828201905092915050565b600061479a826148fc565b91506147a5836148fc565b92508263ffffffff038211156147be576147bd614a0e565b5b828201905092915050565b60006147d4826148f2565b91506147df836148f2565b9250826147ef576147ee614a3d565b5b828204905092915050565b6000614805826148f2565b9150614810836148f2565b9250817fffffffffffffffffffffffffffffffffffffffffffffffffffffffffffffffff048311821515161561484957614848614a0e565b5b828202905092915050565b600061485f826148f2565b915061486a836148f2565b92508282101561487d5761487c614a0e565b5b828203905092915050565b6000614893826148d2565b9050919050565b60008115159050919050565b60007fffffffff0000000000000000000000000000000000000000000000000000000082169050919050565b600073ffffffffffffffffffffffffffffffffffffffff82169050919050565b6000819050919050565b600063ffffffff82169050919050565b600067ffffffffffffffff82169050919050565b82818337600083830152505050565b60005b8381101561494d578082015181840152602081019050614932565b8381111561495c576000848401525b50505050565b6000600282049050600182168061497a57607f821691505b6020821081141561498e5761498d614a6c565b5b50919050565b61499d82614b39565b810181811067ffffffffffffffff821117156149bc576149bb614aca565b5b80604052505050565b60006149d0826148f2565b91507fffffffffffffffffffffffffffffffffffffffffffffffffffffffffffffffff821415614a0357614a02614a0e565b5b600182019050919050565b7f4e487b7100000000000000000000000000000000000000000000000000000000600052601160045260246000fd5b7f4e487b7100000000000000000000000000000000000000000000000000000000600052601260045260246000fd5b7f4e487b7100000000000000000000000000000000000000000000000000000000600052602260045260246000fd5b7f4e487b7100000000000000000000000000000000000000000000000000000000600052603260045260246000fd5b7f4e487b7100000000000000000000000000000000000000000000000000000000600052604160045260246000fd5b600060033d1115614b185760046000803e614b15600051614b4a565b90505b90565b600080fd5b600080fd5b600080fd5b600080fd5b600080fd5b600080fd5b6000601f19601f8301169050919050565b60008160e01c9050919050565b7f455243313135353a207472616e7366657220746f206e6f6e204552433131353560008201527f526563656976657220696d706c656d656e746572000000000000000000000000602082015250565b7f455243313135353a204552433131353552656365697665722072656a6563746560008201527f6420746f6b656e73000000000000000000000000000000000000000000000000602082015250565b7f546f74616c206672616374696f6e73206d7573742062652031302c3030300000600082015250565b7f426164204368696c64436861696e4d616e6167657250726f787920616464726560008201527f7373000000000000000000000000000000000000000000000000000000000000602082015250565b7f455243313135353a2062616c616e636520717565727920666f7220746865207a60008201527f65726f2061646472657373000000000000000000000000000000000000000000602082015250565b7f6e6f7420696d706c656d656e7465640000000000000000000000000000000000600082015250565b7f455243313135353a2063616c6c6572206973206e6f74206f776e6572206e6f7260008201527f20617070726f7665640000000000000000000000000000000000000000000000602082015250565b7f4f6e6c792074686520436861696e4d616e6167657220697320616c6c6f77656460008201527f20746f206465706f736974000000000000000000000000000000000000000000602082015250565b7f302076616c75657320617265206e6f74207065726d6974746564000000000000600082015250565b7f455243313135353a207472616e7366657220746f20746865207a65726f20616460008201527f6472657373000000000000000000000000000000000000000000000000000000602082015250565b7f455243313135353a207472616e736665722063616c6c6572206973206e6f742060008201527f6f776e6572206e6f7220617070726f7665640000000000000000000000000000602082015250565b7f546865206163636f756e74206d757374206e6f7420626520302c20756e6c657360008201527f7320666565732061726520300000000000000000000000000000000000000000602082015250565b7f526f79616c7469657320636f6e66696775726174696f6e2063616e6e6f74206260008201527f6520756e6c6f636b6564206561726c6965720000000000000000000000000000602082015250565b7f526f79616c7469657320636f6e66696775726174696f6e206973206c6f636b6560008201527f6420666f72206e6f770000000000000000000000000000000000000000000000602082015250565b7f4f6e6c792074686520697373756572206f662074686973204e46542063616e2060008201527f73657420726f79616c7469657300000000000000000000000000000000000000602082015250565b7f455243313135353a20696e73756666696369656e742062616c616e636520666f60008201527f72207472616e7366657200000000000000000000000000000000000000000000602082015250565b7f4f6e6c79207468652063757272656e7420436861696e4d616e6167657220697360008201527f20616c6c6f77656420746f206368616e67652074686520436861696e4d616e6160208201527f6765722e00000000000000000000000000000000000000000000000000000000604082015250565b7f546f6f206d616e79207368617265730000000000000000000000000000000000600082015250565b7f417272617973206f66206f776e65727320616e64206672616374696f6e73206d60008201527f7573742068617665207468652073616d65206c656e6774680000000000000000602082015250565b7f455243313135353a2073657474696e6720617070726f76616c2073746174757360008201527f20666f722073656c660000000000000000000000000000000000000000000000602082015250565b7f455243313135353a206163636f756e747320616e6420696473206c656e67746860008201527f206d69736d617463680000000000000000000000000000000000000000000000602082015250565b7f455243313135353a2069647320616e6420616d6f756e7473206c656e6774682060008201527f6d69736d61746368000000000000000000000000000000000000000000000000602082015250565b7f455243313135353a206d696e7420746f20746865207a65726f2061646472657360008201527f7300000000000000000000000000000000000000000000000000000000000000602082015250565b7f546865206163636f756e7420616c726561647920657869737473000000000000600082015250565b600060443d1015615237576152ba565b61523f6145f7565b60043d036004823e80513d602482011167ffffffffffffffff821117156152675750506152ba565b808201805167ffffffffffffffff81111561528557505050506152ba565b80602083010160043d0385018111156152a25750505050506152ba565b6152b182602001850186614994565b82955050505050505b90565b6152c681614888565b81146152d157600080fd5b50565b6152dd8161489a565b81146152e857600080fd5b50565b6152f4816148a6565b81146152ff57600080fd5b50565b61530b816148f2565b811461531657600080fd5b50565b615322816148fc565b811461532d57600080fd5b50565b6153398161490c565b811461534457600080fd5b5056fea26469706673582212208564010199ca2ac599d761efba0aeb7394d94db85b03d35dc121c1203541476464736f6c6343000806003368747470733a2f2f636572652e6e6574776f726b2f6e66742f7b69647d2e6a736f6e",
  "immutableReferences": {},
  "source": "pragma solidity ^0.8.0;\n\nimport \"./AtomicExchange.sol\";\n\n/** Main contract, including all components.\n\n- Hold and transfer NFTs using ERC1155.\n- Support atomic exchanges of NFTs for currency.\n- Issuance of NFTs with fixed supply.\n- Joint Accounts that distribute their funds over multiple owners.\n- Capture royalties on primary and secondary transfers, configurable per NFT type.\n*/\ncontract Davinci is /* BaseNFT, ChildERC20, Issuance, JointAccounts, TransferFees, */ AtomicExchange {\n\n}\n",
  "sourcePath": "/home/a/CERE/davinci-nft/contracts/polygon/Davinci.sol",
  "compiler": {
    "name": "solc",
    "version": "0.8.6+commit.11564f7e.Emscripten.clang"
  },
  "schemaVersion": "3.4.1",
  "updatedAt": "2021-07-14T01:16:15.892Z",
  "networkType": "ethereum",
  "devdoc": {
    "kind": "dev",
    "methods": {
      "balanceOf(address,uint256)": {
        "details": "See {IERC1155-balanceOf}. Requirements: - `account` cannot be the zero address."
      },
      "balanceOfBatch(address[],uint256[])": {
        "details": "See {IERC1155-balanceOfBatch}. Requirements: - `accounts` and `ids` must have the same length."
      },
      "isApprovedForAll(address,address)": {
        "details": "See {IERC1155-isApprovedForAll}."
      },
      "safeBatchTransferFrom(address,address,uint256[],uint256[],bytes)": {
        "details": "See {IERC1155-safeBatchTransferFrom}."
      },
      "safeTransferFrom(address,address,uint256,uint256,bytes)": {
        "details": "See {IERC1155-safeTransferFrom}."
      },
      "setApprovalForAll(address,bool)": {
        "details": "See {IERC1155-setApprovalForAll}."
      },
      "supportsInterface(bytes4)": {
        "details": "See {IERC165-supportsInterface}."
      },
      "uri(uint256)": {
        "details": "See {IERC1155MetadataURI-uri}. This implementation returns the same URI for *all* token types. It relies on the token type ID substitution mechanism https://eips.ethereum.org/EIPS/eip-1155#metadata[defined in the EIP]. Clients calling this function must replace the `\\{id\\}` substring with the actual token type ID."
      }
    },
    "version": 1
  },
  "userdoc": {
    "events": {
      "JointAccountShareCreated(address,address,uint256)": {
        "notice": "Notify that a Joint Account was created at the address `account`. One such event is emitted for each owner, including his fraction of the account in basis points (1% of 1%)."
      },
      "RoyaltiesConfigured(uint256,address,uint256,uint256,address,uint256,uint256)": {
        "notice": "Notify that royalties were configured on an NFT type."
      },
      "RoyaltiesLocked(uint256,uint256)": {
        "notice": "Notify that royalties are locked and cannot change, until the given time (in UNIX seconds), or forever (lockUntil = 0xFFFFFFFF)."
      },
      "Transfer(address,address,uint256)": {
        "notice": "ERC20 Transfer event for bridging this ERC1155 contract to ERC20 on Ethereum."
      }
    },
    "kind": "user",
    "methods": {
      "BASIS_POINTS()": {
        "notice": "The total fraction representing 100% of an account."
      },
      "CURRENCY()": {
        "notice": "The token ID that represents the CERE currency for all payments in this contract. "
      },
      "CURRENCY_SUPPLY()": {
        "notice": "The global supply of CERE tokens on all chains. That is 10 billion tokens, with 10 decimals."
      },
      "balanceOfJAOwner(address,address)": {
        "notice": "Calculate the amount of tokens that an owner of a Joint Account can withdraw right now."
      },
      "buyOffer(address,uint256,uint256,uint256)": {
        "notice": "Accept an offer, paying the price per unit for an amount of NFTs. The offer must have been created beforehand by offerToSell."
      },
      "buySignedOffer(uint256,uint256,uint256,bytes)": {
        "notice": "Accept an offer, paying the price per unit for an amount of NFTs. The offer is proved using sellerSignature generated offchain. [Not implemented]"
      },
      "childChainManagerProxy()": {
        "notice": "The address of the Polygon bridge contract that is allowed to deposit tokens. "
      },
      "configureRoyalties(uint256,address,uint256,uint256,address,uint256,uint256)": {
        "notice": "Configure the amounts and beneficiaries of royalties on primary and secondary transfers of this NFT. This configuration is available to the issuer of this NFT. A transfer is primary if it comes from the issuer of this NFT (normally the first sale after issuance). Otherwise, it is a secondary transfer. A royalty is defined in two parts (both optional): a cut of the sale price of an NFT, and a minimum royalty per transfer. For simple transfers not attached to a price, or a too low price, the minimum royalty is charged. The cuts are given in basis points (1% of 1%). The minimums are given in currency amounts. The configuration can be changed at any time by default. However, the issuer may commit to it for a period of time, effectively giving up his ability to modify the royalties. See the function lockRoyalties. There can be one beneficiary account for each primary and secondary royalties. To distribute revenues amongst several parties, use a Joint Account (see function createJointAccount)."
      },
      "createJointAccount(address[],uint256[])": {
        "notice": "Create an account such that multiple owners have a claim on their respective share. The size of a share is given as a fraction in basis points (1% of 1%). The sum of share fractions must equal 10,000. Anyone can create Joint Accounts including any owners."
      },
      "currencyInBridge()": {
        "notice": "Return the total amount of currency available in the bridge, which can be deposited into this contract."
      },
      "deposit(address,bytes)": {
        "notice": "Deposit currency from Ethereum into a user account in this contract. This is implemented by moving tokens from the bridge account to the user account. Two events will be emitted: ERC20 Transfer for the relayers, and ERC1155 TransferSingle like all transfers. There is an extra encoding necessary for the amount. In JavaScript, add this: `web3.eth.abi.encodeParameter('uint256', amount)`"
      },
      "distributeJointAccount(address)": {
        "notice": "Distribute all tokens available to all owners of a Joint Account. The function createJointAccount must be called beforehand. Anyone can trigger the distribution."
      },
      "fractionOfJAOwner(address,address)": {
        "notice": "Return the fraction of an account owned by the given address, in basis points (1% of 1%). If the account does not exist, or if the given address is not an owner of it, this returns 0. If the owner appears more than once in the account, this reports only the first share."
      },
      "getNftId(address,uint32,uint64)": {
        "notice": "Calculate the ID of an NFT type, identifying its issuer, its supply, and an arbitrary nonce."
      },
      "getRoyalties(uint256)": {
        "notice": "Return the current configuration of royalties for NFTs of type nftId, as set by configureRoyalties."
      },
      "getRoyaltiesForBeneficiary(uint256,address)": {
        "notice": "Return the amount of royalties earned by a beneficiary on each primary and secondary transfer of an NFT. This function supports Joint Accounts. If royalties are paid to a JA and beneficiary is an owner of the JA, the shares of the royalties for this owner are returned."
      },
      "issuanceNonces(address)": {
        "notice": "A counter of NFT types issued by each issuer. This is used to generate unique NFT IDs."
      },
      "issue(uint64,bytes)": {
        "notice": "Issue a supply of NFTs of a new type, and return its ID. No more NFT of this type can be issued again. The caller will be recorded as the issuer and it will initially own the entire supply."
      },
      "lockRoyalties(uint256,uint256)": {
        "notice": "Lock the configuration of royalties for this NFT type. Only the issuer may lock the configuration, after which he himself will no longer be able to change the configuration, for some time, or forever. Set lockUntil to a time in the future to lock the configuration until the specified time (in UNIX seconds). Set to 0xFFFFFFFF to lock forever."
      },
      "makeAddressOfJointAccount(address[],uint256[])": {
        "notice": "Generate a unique address identifying a list of owners and shares. It may be used to predict the address of a Joint Account and receive payments even before calling the function createJointAccount."
      },
      "offerToSell(uint256,uint256,uint256)": {
        "notice": "Create an offer to sell an amount of NFTs for a price per unit. To cancel, call again with an amount of 0."
      },
      "updateChildChainManager(address)": {
        "notice": "Change the ChainManager, which can deposit currency into any account. Only the current ChainManager is allowed to change the ChainManager."
      },
      "withdraw(uint256)": {
        "notice": "Withdraw currency from a user account in this contract to Ethereum. This is implemented by moving tokens from the user account to the bridge account. Two events will be emitted: ERC20 Transfer for the relayers, and ERC1155 TransferSingle like all transfers."
      }
    },
    "notice": "Main contract, including all components. - Hold and transfer NFTs using ERC1155. - Support atomic exchanges of NFTs for currency. - Issuance of NFTs with fixed supply. - Joint Accounts that distribute their funds over multiple owners. - Capture royalties on primary and secondary transfers, configurable per NFT type.",
    "version": 1
  }
}