{
  "contractName": "Davinci",
  "abi": [
    {
      "anonymous": false,
      "inputs": [
        {
          "indexed": true,
          "internalType": "address",
          "name": "account",
          "type": "address"
        },
        {
          "indexed": true,
          "internalType": "address",
          "name": "operator",
          "type": "address"
        },
        {
          "indexed": false,
          "internalType": "bool",
          "name": "approved",
          "type": "bool"
        }
      ],
      "name": "ApprovalForAll",
      "type": "event"
    },
    {
      "anonymous": false,
      "inputs": [
        {
          "indexed": true,
          "internalType": "address",
          "name": "account",
          "type": "address"
        },
        {
          "indexed": true,
          "internalType": "address",
          "name": "owner",
          "type": "address"
        },
        {
          "indexed": false,
          "internalType": "uint256",
          "name": "fraction",
          "type": "uint256"
        }
      ],
      "name": "JointAccountShareCreated",
      "type": "event"
    },
    {
      "anonymous": false,
      "inputs": [
        {
          "indexed": true,
          "internalType": "address",
          "name": "seller",
          "type": "address"
        },
        {
          "indexed": true,
          "internalType": "uint256",
          "name": "nftId",
          "type": "uint256"
        },
        {
          "indexed": false,
          "internalType": "uint256",
          "name": "price",
          "type": "uint256"
        }
      ],
      "name": "MakeOffer",
      "type": "event"
    },
    {
      "anonymous": false,
      "inputs": [
        {
          "indexed": true,
          "internalType": "bytes32",
          "name": "role",
          "type": "bytes32"
        },
        {
          "indexed": true,
          "internalType": "bytes32",
          "name": "previousAdminRole",
          "type": "bytes32"
        },
        {
          "indexed": true,
          "internalType": "bytes32",
          "name": "newAdminRole",
          "type": "bytes32"
        }
      ],
      "name": "RoleAdminChanged",
      "type": "event"
    },
    {
      "anonymous": false,
      "inputs": [
        {
          "indexed": true,
          "internalType": "bytes32",
          "name": "role",
          "type": "bytes32"
        },
        {
          "indexed": true,
          "internalType": "address",
          "name": "account",
          "type": "address"
        },
        {
          "indexed": true,
          "internalType": "address",
          "name": "sender",
          "type": "address"
        }
      ],
      "name": "RoleGranted",
      "type": "event"
    },
    {
      "anonymous": false,
      "inputs": [
        {
          "indexed": true,
          "internalType": "bytes32",
          "name": "role",
          "type": "bytes32"
        },
        {
          "indexed": true,
          "internalType": "address",
          "name": "account",
          "type": "address"
        },
        {
          "indexed": true,
          "internalType": "address",
          "name": "sender",
          "type": "address"
        }
      ],
      "name": "RoleRevoked",
      "type": "event"
    },
    {
      "anonymous": false,
      "inputs": [
        {
          "indexed": true,
          "internalType": "uint256",
          "name": "nftId",
          "type": "uint256"
        },
        {
          "indexed": false,
          "internalType": "address",
          "name": "primaryRoyaltyAccount",
          "type": "address"
        },
        {
          "indexed": false,
          "internalType": "uint256",
          "name": "primaryRoyaltyCut",
          "type": "uint256"
        },
        {
          "indexed": false,
          "internalType": "uint256",
          "name": "primaryRoyaltyMinimum",
          "type": "uint256"
        },
        {
          "indexed": false,
          "internalType": "address",
          "name": "secondaryRoyaltyAccount",
          "type": "address"
        },
        {
          "indexed": false,
          "internalType": "uint256",
          "name": "secondaryRoyaltyCut",
          "type": "uint256"
        },
        {
          "indexed": false,
          "internalType": "uint256",
          "name": "secondaryRoyaltyMinimum",
          "type": "uint256"
        }
      ],
      "name": "RoyaltiesConfigured",
      "type": "event"
    },
    {
      "anonymous": false,
      "inputs": [
        {
          "indexed": true,
          "internalType": "uint256",
          "name": "nftId",
          "type": "uint256"
        },
        {
          "indexed": false,
          "internalType": "uint256",
          "name": "lockUntil",
          "type": "uint256"
        }
      ],
      "name": "RoyaltiesLocked",
      "type": "event"
    },
    {
      "anonymous": false,
      "inputs": [
        {
          "indexed": true,
          "internalType": "address",
          "name": "buyer",
          "type": "address"
        },
        {
          "indexed": true,
          "internalType": "address",
          "name": "seller",
          "type": "address"
        },
        {
          "indexed": true,
          "internalType": "uint256",
          "name": "nftId",
          "type": "uint256"
        },
        {
          "indexed": false,
          "internalType": "uint256",
          "name": "price",
          "type": "uint256"
        },
        {
          "indexed": false,
          "internalType": "uint256",
          "name": "amount",
          "type": "uint256"
        }
      ],
      "name": "TakeOffer",
      "type": "event"
    },
    {
      "anonymous": false,
      "inputs": [
        {
          "indexed": true,
          "internalType": "address",
          "name": "from",
          "type": "address"
        },
        {
          "indexed": true,
          "internalType": "address",
          "name": "to",
          "type": "address"
        },
        {
          "indexed": false,
          "internalType": "uint256",
          "name": "value",
          "type": "uint256"
        }
      ],
      "name": "Transfer",
      "type": "event"
    },
    {
      "anonymous": false,
      "inputs": [
        {
          "indexed": true,
          "internalType": "address",
          "name": "operator",
          "type": "address"
        },
        {
          "indexed": true,
          "internalType": "address",
          "name": "from",
          "type": "address"
        },
        {
          "indexed": true,
          "internalType": "address",
          "name": "to",
          "type": "address"
        },
        {
          "indexed": false,
          "internalType": "uint256[]",
          "name": "ids",
          "type": "uint256[]"
        },
        {
          "indexed": false,
          "internalType": "uint256[]",
          "name": "values",
          "type": "uint256[]"
        }
      ],
      "name": "TransferBatch",
      "type": "event"
    },
    {
      "anonymous": false,
      "inputs": [
        {
          "indexed": true,
          "internalType": "address",
          "name": "operator",
          "type": "address"
        },
        {
          "indexed": true,
          "internalType": "address",
          "name": "from",
          "type": "address"
        },
        {
          "indexed": true,
          "internalType": "address",
          "name": "to",
          "type": "address"
        },
        {
          "indexed": false,
          "internalType": "uint256",
          "name": "id",
          "type": "uint256"
        },
        {
          "indexed": false,
          "internalType": "uint256",
          "name": "value",
          "type": "uint256"
        }
      ],
      "name": "TransferSingle",
      "type": "event"
    },
    {
      "anonymous": false,
      "inputs": [
        {
          "indexed": false,
          "internalType": "string",
          "name": "value",
          "type": "string"
        },
        {
          "indexed": true,
          "internalType": "uint256",
          "name": "id",
          "type": "uint256"
        }
      ],
      "name": "URI",
      "type": "event"
    },
    {
      "inputs": [],
      "name": "BASIS_POINTS",
      "outputs": [
        {
          "internalType": "uint256",
          "name": "",
          "type": "uint256"
        }
      ],
      "stateMutability": "view",
      "type": "function",
      "constant": true
    },
    {
      "inputs": [],
      "name": "BYPASS_SENDER",
      "outputs": [
        {
          "internalType": "bytes32",
          "name": "",
          "type": "bytes32"
        }
      ],
      "stateMutability": "view",
      "type": "function",
      "constant": true
    },
    {
      "inputs": [],
      "name": "CURRENCY",
      "outputs": [
        {
          "internalType": "uint256",
          "name": "",
          "type": "uint256"
        }
      ],
      "stateMutability": "view",
      "type": "function",
      "constant": true
    },
    {
      "inputs": [],
      "name": "CURRENCY_SUPPLY",
      "outputs": [
        {
          "internalType": "uint256",
          "name": "",
          "type": "uint256"
        }
      ],
      "stateMutability": "view",
      "type": "function",
      "constant": true
    },
    {
      "inputs": [],
      "name": "DEFAULT_ADMIN_ROLE",
      "outputs": [
        {
          "internalType": "bytes32",
          "name": "",
          "type": "bytes32"
        }
      ],
      "stateMutability": "view",
      "type": "function",
      "constant": true
    },
    {
      "inputs": [],
      "name": "MAX_JOINT_ACCOUNT_SHARES",
      "outputs": [
        {
          "internalType": "uint256",
          "name": "",
          "type": "uint256"
        }
      ],
      "stateMutability": "view",
      "type": "function",
      "constant": true
    },
    {
      "inputs": [],
      "name": "META_TX_FORWARDER",
      "outputs": [
        {
          "internalType": "bytes32",
          "name": "",
          "type": "bytes32"
        }
      ],
      "stateMutability": "view",
      "type": "function",
      "constant": true
    },
    {
      "inputs": [],
      "name": "TRANSFER_OPERATOR",
      "outputs": [
        {
          "internalType": "bytes32",
          "name": "",
          "type": "bytes32"
        }
      ],
      "stateMutability": "view",
      "type": "function",
      "constant": true
    },
    {
      "inputs": [
        {
          "internalType": "address",
          "name": "account",
          "type": "address"
        },
        {
          "internalType": "uint256",
          "name": "id",
          "type": "uint256"
        }
      ],
      "name": "balanceOf",
      "outputs": [
        {
          "internalType": "uint256",
          "name": "",
          "type": "uint256"
        }
      ],
      "stateMutability": "view",
      "type": "function",
      "constant": true
    },
    {
      "inputs": [
        {
          "internalType": "address[]",
          "name": "accounts",
          "type": "address[]"
        },
        {
          "internalType": "uint256[]",
          "name": "ids",
          "type": "uint256[]"
        }
      ],
      "name": "balanceOfBatch",
      "outputs": [
        {
          "internalType": "uint256[]",
          "name": "",
          "type": "uint256[]"
        }
      ],
      "stateMutability": "view",
      "type": "function",
      "constant": true
    },
    {
      "inputs": [
        {
          "internalType": "address",
          "name": "account",
          "type": "address"
        },
        {
          "internalType": "address",
          "name": "owner",
          "type": "address"
        }
      ],
      "name": "balanceOfJAOwner",
      "outputs": [
        {
          "internalType": "uint256",
          "name": "",
          "type": "uint256"
        }
      ],
      "stateMutability": "view",
      "type": "function",
      "constant": true
    },
    {
      "inputs": [],
      "name": "childChainManagerProxy",
      "outputs": [
        {
          "internalType": "address",
          "name": "",
          "type": "address"
        }
      ],
      "stateMutability": "view",
      "type": "function",
      "constant": true
    },
    {
      "inputs": [
        {
          "internalType": "uint256",
          "name": "nftId",
          "type": "uint256"
        },
        {
          "internalType": "address",
          "name": "primaryRoyaltyAccount",
          "type": "address"
        },
        {
          "internalType": "uint256",
          "name": "primaryRoyaltyCut",
          "type": "uint256"
        },
        {
          "internalType": "uint256",
          "name": "primaryRoyaltyMinimum",
          "type": "uint256"
        },
        {
          "internalType": "address",
          "name": "secondaryRoyaltyAccount",
          "type": "address"
        },
        {
          "internalType": "uint256",
          "name": "secondaryRoyaltyCut",
          "type": "uint256"
        },
        {
          "internalType": "uint256",
          "name": "secondaryRoyaltyMinimum",
          "type": "uint256"
        }
      ],
      "name": "configureRoyalties",
      "outputs": [],
      "stateMutability": "nonpayable",
      "type": "function"
    },
    {
      "inputs": [
        {
          "internalType": "address[]",
          "name": "owners",
          "type": "address[]"
        },
        {
          "internalType": "uint256[]",
          "name": "fractions",
          "type": "uint256[]"
        }
      ],
      "name": "createJointAccount",
      "outputs": [
        {
          "internalType": "address",
          "name": "",
          "type": "address"
        }
      ],
      "stateMutability": "nonpayable",
      "type": "function"
    },
    {
      "inputs": [],
      "name": "currencyInBridge",
      "outputs": [
        {
          "internalType": "uint256",
          "name": "",
          "type": "uint256"
        }
      ],
      "stateMutability": "view",
      "type": "function",
      "constant": true
    },
    {
      "inputs": [
        {
          "internalType": "address",
          "name": "user",
          "type": "address"
        },
        {
          "internalType": "bytes",
          "name": "depositData",
          "type": "bytes"
        }
      ],
      "name": "deposit",
      "outputs": [],
      "stateMutability": "nonpayable",
      "type": "function"
    },
    {
      "inputs": [
        {
          "internalType": "address",
          "name": "account",
          "type": "address"
        }
      ],
      "name": "distributeJointAccount",
      "outputs": [],
      "stateMutability": "nonpayable",
      "type": "function"
    },
    {
      "inputs": [
        {
          "internalType": "address",
          "name": "account",
          "type": "address"
        },
        {
          "internalType": "address",
          "name": "maybeOwner",
          "type": "address"
        }
      ],
      "name": "fractionOfJAOwner",
      "outputs": [
        {
          "internalType": "uint256",
          "name": "",
          "type": "uint256"
        }
      ],
      "stateMutability": "view",
      "type": "function",
      "constant": true
    },
    {
      "inputs": [
        {
          "internalType": "address",
          "name": "issuer",
          "type": "address"
        },
        {
          "internalType": "uint32",
          "name": "nonce",
          "type": "uint32"
        },
        {
          "internalType": "uint64",
          "name": "supply",
          "type": "uint64"
        }
      ],
      "name": "getNftId",
      "outputs": [
        {
          "internalType": "uint256",
          "name": "",
          "type": "uint256"
        }
      ],
      "stateMutability": "pure",
      "type": "function",
      "constant": true
    },
    {
      "inputs": [
        {
          "internalType": "bytes32",
          "name": "role",
          "type": "bytes32"
        }
      ],
      "name": "getRoleAdmin",
      "outputs": [
        {
          "internalType": "bytes32",
          "name": "",
          "type": "bytes32"
        }
      ],
      "stateMutability": "view",
      "type": "function",
      "constant": true
    },
    {
      "inputs": [
        {
          "internalType": "uint256",
          "name": "nftId",
          "type": "uint256"
        }
      ],
      "name": "getRoyalties",
      "outputs": [
        {
          "internalType": "address",
          "name": "primaryRoyaltyAccount",
          "type": "address"
        },
        {
          "internalType": "uint256",
          "name": "primaryRoyaltyCut",
          "type": "uint256"
        },
        {
          "internalType": "uint256",
          "name": "primaryRoyaltyMinimum",
          "type": "uint256"
        },
        {
          "internalType": "address",
          "name": "secondaryRoyaltyAccount",
          "type": "address"
        },
        {
          "internalType": "uint256",
          "name": "secondaryRoyaltyCut",
          "type": "uint256"
        },
        {
          "internalType": "uint256",
          "name": "secondaryRoyaltyMinimum",
          "type": "uint256"
        }
      ],
      "stateMutability": "view",
      "type": "function",
      "constant": true
    },
    {
      "inputs": [
        {
          "internalType": "uint256",
          "name": "nftId",
          "type": "uint256"
        },
        {
          "internalType": "address",
          "name": "beneficiary",
          "type": "address"
        }
      ],
      "name": "getRoyaltiesForBeneficiary",
      "outputs": [
        {
          "internalType": "uint256",
          "name": "primaryCut",
          "type": "uint256"
        },
        {
          "internalType": "uint256",
          "name": "primaryMinimum",
          "type": "uint256"
        },
        {
          "internalType": "uint256",
          "name": "secondaryCut",
          "type": "uint256"
        },
        {
          "internalType": "uint256",
          "name": "secondaryMinimum",
          "type": "uint256"
        }
      ],
      "stateMutability": "view",
      "type": "function",
      "constant": true
    },
    {
      "inputs": [
        {
          "internalType": "bytes32",
          "name": "role",
          "type": "bytes32"
        },
        {
          "internalType": "address",
          "name": "account",
          "type": "address"
        }
      ],
      "name": "grantRole",
      "outputs": [],
      "stateMutability": "nonpayable",
      "type": "function"
    },
    {
      "inputs": [
        {
          "internalType": "bytes32",
          "name": "role",
          "type": "bytes32"
        },
        {
          "internalType": "address",
          "name": "account",
          "type": "address"
        }
      ],
      "name": "hasRole",
      "outputs": [
        {
          "internalType": "bool",
          "name": "",
          "type": "bool"
        }
      ],
      "stateMutability": "view",
      "type": "function",
      "constant": true
    },
    {
      "inputs": [
        {
          "internalType": "address",
          "name": "account",
          "type": "address"
        },
        {
          "internalType": "address",
          "name": "operator",
          "type": "address"
        }
      ],
      "name": "isApprovedForAll",
      "outputs": [
        {
          "internalType": "bool",
          "name": "",
          "type": "bool"
        }
      ],
      "stateMutability": "view",
      "type": "function",
      "constant": true
    },
    {
      "inputs": [
        {
          "internalType": "address",
          "name": "forwarder",
          "type": "address"
        }
      ],
      "name": "isTrustedForwarder",
      "outputs": [
        {
          "internalType": "bool",
          "name": "",
          "type": "bool"
        }
      ],
      "stateMutability": "view",
      "type": "function",
      "constant": true
    },
    {
      "inputs": [
        {
          "internalType": "address",
          "name": "",
          "type": "address"
        }
      ],
      "name": "issuanceNonces",
      "outputs": [
        {
          "internalType": "uint32",
          "name": "",
          "type": "uint32"
        }
      ],
      "stateMutability": "view",
      "type": "function",
      "constant": true
    },
    {
      "inputs": [
        {
          "internalType": "uint64",
          "name": "supply",
          "type": "uint64"
        },
        {
          "internalType": "bytes",
          "name": "data",
          "type": "bytes"
        }
      ],
      "name": "issue",
      "outputs": [
        {
          "internalType": "uint256",
          "name": "",
          "type": "uint256"
        }
      ],
      "stateMutability": "nonpayable",
      "type": "function"
    },
    {
      "inputs": [
        {
          "internalType": "address",
          "name": "",
          "type": "address"
        },
        {
          "internalType": "uint256",
          "name": "",
          "type": "uint256"
        }
      ],
      "name": "jointAccounts",
      "outputs": [
        {
          "internalType": "address",
          "name": "owner",
          "type": "address"
        },
        {
          "internalType": "uint256",
          "name": "fraction",
          "type": "uint256"
        }
      ],
      "stateMutability": "view",
      "type": "function",
      "constant": true
    },
    {
      "inputs": [
        {
          "internalType": "uint256",
          "name": "nftId",
          "type": "uint256"
        },
        {
          "internalType": "uint256",
          "name": "lockUntil",
          "type": "uint256"
        }
      ],
      "name": "lockRoyalties",
      "outputs": [],
      "stateMutability": "nonpayable",
      "type": "function"
    },
    {
      "inputs": [
        {
          "internalType": "address[]",
          "name": "owners",
          "type": "address[]"
        },
        {
          "internalType": "uint256[]",
          "name": "fractions",
          "type": "uint256[]"
        }
      ],
      "name": "makeAddressOfJointAccount",
      "outputs": [
        {
          "internalType": "address",
          "name": "",
          "type": "address"
        }
      ],
      "stateMutability": "pure",
      "type": "function",
      "constant": true
    },
    {
      "inputs": [
        {
          "internalType": "uint256",
          "name": "nftId",
          "type": "uint256"
        },
        {
          "internalType": "uint256",
          "name": "price",
          "type": "uint256"
        }
      ],
      "name": "makeOffer",
      "outputs": [],
      "stateMutability": "nonpayable",
      "type": "function"
    },
    {
      "inputs": [
        {
          "internalType": "bytes32",
          "name": "role",
          "type": "bytes32"
        },
        {
          "internalType": "address",
          "name": "account",
          "type": "address"
        }
      ],
      "name": "renounceRole",
      "outputs": [],
      "stateMutability": "nonpayable",
      "type": "function"
    },
    {
      "inputs": [
        {
          "internalType": "bytes32",
          "name": "role",
          "type": "bytes32"
        },
        {
          "internalType": "address",
          "name": "account",
          "type": "address"
        }
      ],
      "name": "revokeRole",
      "outputs": [],
      "stateMutability": "nonpayable",
      "type": "function"
    },
    {
      "inputs": [
        {
          "internalType": "address",
          "name": "from",
          "type": "address"
        },
        {
          "internalType": "address",
          "name": "to",
          "type": "address"
        },
        {
          "internalType": "uint256[]",
          "name": "ids",
          "type": "uint256[]"
        },
        {
          "internalType": "uint256[]",
          "name": "amounts",
          "type": "uint256[]"
        },
        {
          "internalType": "bytes",
          "name": "data",
          "type": "bytes"
        }
      ],
      "name": "safeBatchTransferFrom",
      "outputs": [],
      "stateMutability": "nonpayable",
      "type": "function"
    },
    {
      "inputs": [
        {
          "internalType": "address",
          "name": "from",
          "type": "address"
        },
        {
          "internalType": "address",
          "name": "to",
          "type": "address"
        },
        {
          "internalType": "uint256",
          "name": "id",
          "type": "uint256"
        },
        {
          "internalType": "uint256",
          "name": "amount",
          "type": "uint256"
        },
        {
          "internalType": "bytes",
          "name": "data",
          "type": "bytes"
        }
      ],
      "name": "safeTransferFrom",
      "outputs": [],
      "stateMutability": "nonpayable",
      "type": "function"
    },
    {
      "inputs": [
        {
          "internalType": "address",
          "name": "operator",
          "type": "address"
        },
        {
          "internalType": "bool",
          "name": "approved",
          "type": "bool"
        }
      ],
      "name": "setApprovalForAll",
      "outputs": [],
      "stateMutability": "nonpayable",
      "type": "function"
    },
    {
      "inputs": [
        {
          "internalType": "bytes4",
          "name": "interfaceId",
          "type": "bytes4"
        }
      ],
      "name": "supportsInterface",
      "outputs": [
        {
          "internalType": "bool",
          "name": "",
          "type": "bool"
        }
      ],
      "stateMutability": "view",
      "type": "function",
      "constant": true
    },
    {
      "inputs": [
        {
          "internalType": "address",
          "name": "seller",
          "type": "address"
        },
        {
          "internalType": "uint256",
          "name": "nftId",
          "type": "uint256"
        },
        {
          "internalType": "uint256",
          "name": "price",
          "type": "uint256"
        },
        {
          "internalType": "uint256",
          "name": "amount",
          "type": "uint256"
        }
      ],
      "name": "takeOffer",
      "outputs": [],
      "stateMutability": "nonpayable",
      "type": "function"
    },
    {
      "inputs": [
        {
          "internalType": "address",
          "name": "newChildChainManagerProxy",
          "type": "address"
        }
      ],
      "name": "updateChildChainManager",
      "outputs": [],
      "stateMutability": "nonpayable",
      "type": "function"
    },
    {
      "inputs": [
        {
          "internalType": "uint256",
          "name": "",
          "type": "uint256"
        }
      ],
      "name": "uri",
      "outputs": [
        {
          "internalType": "string",
          "name": "",
          "type": "string"
        }
      ],
      "stateMutability": "view",
      "type": "function",
      "constant": true
    },
    {
      "inputs": [
        {
          "internalType": "uint256",
          "name": "amount",
          "type": "uint256"
        }
      ],
      "name": "withdraw",
      "outputs": [],
      "stateMutability": "nonpayable",
      "type": "function"
    }
  ],
  "bytecode": "0x6080604052612710600655600a6007553480156200001c57600080fd5b5060405180606001604052806022815260200162003953602291396200004281620000dd565b5062000059600062000053620000f6565b62000130565b600080527fad3228b676f7d3cd4284a5443f17f1962b36e491b30a40b2405849e597ba5fb560205268056bc75e2d631000007fed428e1c45e1d9561b62834e1a2d3015a0caae3bfdc16b4da059ac885b01a14555620000b7620000f6565b600480546001600160a01b0319166001600160a01b03929092169190911790556200030e565b8051620000f29060029060208401906200022b565b5050565b600062000103336200013c565b1562000116575060131936013560601c90565b6200012b6200017060201b62001de31760201c565b905090565b620000f2828262000174565b60006200016a7f3d2e894c222ba979e2dce2c7d940c0e9bb14306669e9f034eb1bb3979a2069d88362000200565b92915050565b3390565b62000180828262000200565b620000f25760008281526003602090815260408083206001600160a01b03851684529091529020805460ff19166001179055620001bc620000f6565b6001600160a01b0316816001600160a01b0316837f2f8788117e7eff1d82e926ec794901d17c78024a50270940304540a733656f0d60405160405180910390a45050565b60009182526003602090815260408084206001600160a01b0393909316845291905290205460ff1690565b8280546200023990620002d1565b90600052602060002090601f0160209004810192826200025d5760008555620002a8565b82601f106200027857805160ff1916838001178555620002a8565b82800160010185558215620002a8579182015b82811115620002a85782518255916020019190600101906200028b565b50620002b6929150620002ba565b5090565b5b80821115620002b65760008155600101620002bb565b600181811c90821680620002e657607f821691505b602082108114156200030857634e487b7160e01b600052602260045260246000fd5b50919050565b613635806200031e6000396000f3fe608060405234801561001057600080fd5b50600436106101ed5760003560e01c8062fdd58e146101f257806301ffc9a71461021857806305b7cdd31461023b5780630e89341c1461025057806324416c7214610270578063248a9ca3146102835780632c8f284c146102965780632e1a7d4d146102a95780632eb2c2d6146102bc5780632f2ff15d146102cf57806330b06421146102e257806336568abe146102eb57806339b276f4146102fe5780633c6b570914610311578063445a679714610324578063448588e3146103375780634559a29b1461034c5780634e1273f41461037e5780635611cac21461039e578063572b6c05146103c957806358556fb0146103dc57806360e3ecd0146103ef57806362f629e71461040457806391d14854146104175780639a86e8ce1461042a5780639e00bb961461043f578063a217fddf14610452578063a22cb4651461045a578063a5e1fcd71461046d578063acc08fa514610480578063ad09608a146104bb578063ba7f4dfe146104ce578063bb3bafd6146104e1578063cf2c52cb14610554578063d547741f14610567578063d9bbc5881461057a578063dae2c77d146105b7578063e1f1c4a7146105c7578063e24b0a2b146105d0578063e985e9c514610603578063f242432a14610616578063f536121914610452575b600080fd5b610205610200366004612c99565b610629565b6040519081526020015b60405180910390f35b61022b610226366004612e4a565b6106c3565b604051901515815260200161020f565b61024e610249366004612ee4565b6106dd565b005b61026361025e366004612e10565b610748565b60405161020f9190613198565b61024e61027e366004612cc2565b6107dc565b610205610291366004612e10565b610970565b6102056102a4366004612aa9565b610985565b61024e6102b7366004612e10565b610a1e565b61024e6102ca366004612adb565b610a6a565b61024e6102dd366004612e28565b610d5c565b61020560075481565b61024e6102f9366004612e28565b610d85565b61024e61030c366004612ee4565b610e13565b61020561031f366004612cfa565b610efc565b61024e610332366004612a8f565b610f2c565b6102056000805160206135c083398151915281565b61035f61035a366004612c99565b61104d565b604080516001600160a01b03909316835260208301919091520161020f565b61039161038c366004612d46565b611093565b60405161020f9190613160565b6103b16103ac366004612d46565b6111f4565b6040516001600160a01b03909116815260200161020f565b61022b6103d7366004612a8f565b61122d565b6102056103ea366004612f05565b611247565b6102056000805160206135a083398151915281565b6004546103b1906001600160a01b031681565b61022b610425366004612e28565b611262565b61020560008051602061358083398151915281565b61020561044d366004612aa9565b61128d565b610205600081565b61024e610468366004612be2565b6112d0565b61024e61047b366004612a8f565b6113d8565b6104a661048e366004612a8f565b60056020526000908152604090205463ffffffff1681565b60405163ffffffff909116815260200161020f565b61024e6104c9366004612e82565b611490565b6103b16104dc366004612d46565b6116b4565b6105426104ef366004612e10565b600090815260096020908152604080832054600a835281842054600b845282852054600c855283862054600d865284872054600e90965293909520546001600160a01b0392831696919594929093169290565b60405161020f96959493929190613126565b61024e610562366004612c1c565b6119d0565b61024e610575366004612e28565b611a9f565b600080526000805160206135e08339815191526020527fed428e1c45e1d9561b62834e1a2d3015a0caae3bfdc16b4da059ac885b01a14554610205565b61020568056bc75e2d6310000081565b61020560065481565b6105e36105de366004612e28565b611abe565b60408051948552602085019390935291830152606082015260800161020f565b61022b610611366004612aa9565b611bc8565b61024e610624366004612b80565b611c1d565b60006001600160a01b03831661069a5760405162461bcd60e51b815260206004820152602b60248201527f455243313135353a2062616c616e636520717565727920666f7220746865207a60448201526a65726f206164647265737360a81b60648201526084015b60405180910390fd5b506000818152602081815260408083206001600160a01b03861684529091529020545b92915050565b60006106ce82611de7565b806106bd57506106bd82611e37565b60006106e7611e5c565b6001600160a01b0381166000818152601060209081526040808320888452825291829020869055905185815292935085927f040259e2f9c7930380b3a5c979ad8a30ecf8d344d3bcdb149e2c454ab85fcd8f910160405180910390a3505050565b606060028054610757906133d8565b80601f0160208091040260200160405190810160405280929190818152602001828054610783906133d8565b80156107d05780601f106107a5576101008083540402835291602001916107d0565b820191906000526020600020905b8154815290600101906020018083116107b357829003601f168201915b50505050509050919050565b6001600160a01b03841660009081526010602090815260408083208684529091529020548061083c5760405162461bcd60e51b815260206004820152600c60248201526b4e6f7420666f722073616c6560a01b6044820152606401610691565b8083146108795760405162461bcd60e51b815260206004820152600b60248201526a57726f6e6720707269636560a81b6044820152606401610691565b6000610883611e5c565b90506000610891848661335f565b905061089e828883611e81565b60006108ac88888888611f73565b90508181111561090c5760405162461bcd60e51b815260206004820152602560248201527f43616e6e6f742074616b65206d6f72652066656573207468616e2074686520706044820152643934b1b29760d91b6064820152608401610691565b6109188884898861207f565b86886001600160a01b0316846001600160a01b03167fe90359125940e7c9b26005d19d4d8a2a5335ea8bef094bcd61bb8f8091cad117898960405161095e9291906132ce565b60405180910390a45050505050505050565b60009081526003602052604090206001015490565b6001600160a01b0382166000908152600860205260408120815b8154811015610a135760008282815481106109ca57634e487b7160e01b600052603260045260246000fd5b6000918252602090912060029091020180549091506001600160a01b0386811691161415610a00576001015492506106bd915050565b5080610a0b8161343f565b91505061099f565b506000949350505050565b6000610a28611e5c565b9050610a3681600084611e81565b6040518281526000906001600160a01b03831690600080516020613560833981519152906020015b60405180910390a35050565b8151835114610acc5760405162461bcd60e51b815260206004820152602860248201527f455243313135353a2069647320616e6420616d6f756e7473206c656e677468206044820152670dad2e6dac2e8c6d60c31b6064820152608401610691565b6001600160a01b038416610af25760405162461bcd60e51b8152600401610691906131f3565b610afa611e5c565b6001600160a01b0316856001600160a01b03161480610b205750610b2085610611611e5c565b610b875760405162461bcd60e51b815260206004820152603260248201527f455243313135353a207472616e736665722063616c6c6572206973206e6f74206044820152711bdddb995c881b9bdc88185c1c1c9bdd995960721b6064820152608401610691565b6000610b91611e5c565b9050610ba1818787878787612165565b60005b8451811015610cee576000858281518110610bcf57634e487b7160e01b600052603260045260246000fd5b602002602001015190506000858381518110610bfb57634e487b7160e01b600052603260045260246000fd5b602090810291909101810151600084815280835260408082206001600160a01b038e168352909352919091205490915081811015610c4b5760405162461bcd60e51b815260040161069190613284565b610c55828261337e565b60008085815260200190815260200160002060008c6001600160a01b03166001600160a01b03168152602001908152602001600020819055508160008085815260200190815260200160002060008b6001600160a01b03166001600160a01b031681526020019081526020016000206000828254610cd391906132ff565b9250508190555050505080610ce79061343f565b9050610ba4565b50846001600160a01b0316866001600160a01b0316826001600160a01b03167f4a39dc06d4c0dbc64b70af90fd698a233a518aa5d07e595d983b8c0526c8f7fb8787604051610d3e929190613173565b60405180910390a4610d548187878787876121dd565b505050505050565b610d6582610970565b610d7681610d71611e5c565b612348565b610d8083836123ac565b505050565b610d8d611e5c565b6001600160a01b0316816001600160a01b031614610e055760405162461bcd60e51b815260206004820152602f60248201527f416363657373436f6e74726f6c3a2063616e206f6e6c792072656e6f756e636560448201526e103937b632b9903337b91039b2b63360891b6064820152608401610691565b610e0f8282612433565b5050565b6000610e1d611e5c565b9050610e2981846124b8565b610e3257600080fd5b6000838152600f60205260409020548211610eaa5760405162461bcd60e51b815260206004820152603260248201527f526f79616c7469657320636f6e66696775726174696f6e2063616e6e6f74206260448201527132903ab73637b1b5b2b21032b0b93634b2b960711b6064820152608401610691565b6000838152600f6020526040908190208390555183907f7bdd35d2167385bdbed0892e34b48298770ffce27fe71928c767071865f5154490610eef9085815260200190565b60405180910390a2505050565b6001600160601b0319606084901b1663ffffffff60401b604084901b16176001600160401b038216179392505050565b6001600160a01b038116610f8d5760405162461bcd60e51b815260206004820152602260248201527f426164204368696c64436861696e4d616e6167657250726f7879206164647265604482015261737360f01b6064820152608401610691565b6004546001600160a01b0316610fa1611e5c565b6001600160a01b03161461102b5760405162461bcd60e51b8152602060048201526044602482018190527f4f6e6c79207468652063757272656e7420436861696e4d616e61676572206973908201527f20616c6c6f77656420746f206368616e67652074686520436861696e4d616e6160648201526333b2b91760e11b608482015260a401610691565b600480546001600160a01b0319166001600160a01b0392909216919091179055565b6008602052816000526040600020818154811061106957600080fd5b6000918252602090912060029091020180546001909101546001600160a01b039091169250905082565b606081518351146110f85760405162461bcd60e51b815260206004820152602960248201527f455243313135353a206163636f756e747320616e6420696473206c656e677468604482015268040dad2e6dac2e8c6d60bb1b6064820152608401610691565b600083516001600160401b0381111561112157634e487b7160e01b600052604160045260246000fd5b60405190808252806020026020018201604052801561114a578160200160208202803683370190505b50905060005b84518110156111ec576111b185828151811061117c57634e487b7160e01b600052603260045260246000fd5b60200260200101518583815181106111a457634e487b7160e01b600052603260045260246000fd5b6020026020010151610629565b8282815181106111d157634e487b7160e01b600052603260045260246000fd5b60209081029190910101526111e58161343f565b9050611150565b509392505050565b600080838360405160200161120a929190612fac565b60408051808303601f19018152919052805160209091012060601c949350505050565b60006106bd60008051602061358083398151915283611262565b600061125b611254611e5c565b84846124cb565b9392505050565b60009182526003602090815260408084206001600160a01b0393909316845291905290205460ff1690565b60008061129a8484610985565b905060006112a9856000610629565b9050600060065483836112bc919061335f565b6112c6919061333f565b9695505050505050565b816001600160a01b03166112e2611e5c565b6001600160a01b0316141561134b5760405162461bcd60e51b815260206004820152602960248201527f455243313135353a2073657474696e6720617070726f76616c20737461747573604482015268103337b91039b2b63360b91b6064820152608401610691565b8060016000611358611e5c565b6001600160a01b03908116825260208083019390935260409182016000908120918716808252919093529120805460ff19169215159290921790915561139c611e5c565b6001600160a01b03167f17307eab39ab6107e8899845ad3d59bd9653f200f220920489ca2b5937696c3183604051610a5e911515815260200190565b60006113e5826000610629565b6001600160a01b03831660009081526008602052604081209192505b815481101561148a57600082828154811061142c57634e487b7160e01b600052603260045260246000fd5b906000526020600020906002020190506000600654826001015486611451919061335f565b61145b919061333f565b82549091506114759087906001600160a01b031683611e81565b505080806114829061343f565b915050611401565b50505050565b600061149a611e5c565b90506114a681896124b8565b6115085760405162461bcd60e51b815260206004820152602d60248201527f4f6e6c792074686520697373756572206f662074686973204e46542063616e2060448201526c73657420726f79616c7469657360981b6064820152608401610691565b6000888152600f60205260409020544210156115785760405162461bcd60e51b815260206004820152602960248201527f526f79616c7469657320636f6e66696775726174696f6e206973206c6f636b656044820152686420666f72206e6f7760b81b6064820152608401610691565b6001600160a01b038716151580611596575085158015611596575084155b6115b25760405162461bcd60e51b815260040161069190613238565b600088815260096020908152604080832080546001600160a01b0319166001600160a01b038c811691909117909155600a83528184208a9055600b909252909120869055841615158061160c57508215801561160c575081155b6116285760405162461bcd60e51b815260040161069190613238565b6000888152600c6020908152604080832080546001600160a01b0319166001600160a01b038916179055600d8252808320869055600e909152908190208390555188907f3df2272e42784a2455bbbdcdf25ae0f67d41f801896514cc4cd255aa8ee75e4c906116a2908a908a908a908a908a908a90613126565b60405180910390a25050505050505050565b600081518351146117285760405162461bcd60e51b815260206004820152603860248201527f417272617973206f66206f776e65727320616e64206672616374696f6e73206d6044820152770eae6e840d0c2ecca40e8d0ca40e6c2daca40d8cadccee8d60431b6064820152608401610691565b6007548351111561176d5760405162461bcd60e51b815260206004820152600f60248201526e546f6f206d616e792073686172657360881b6044820152606401610691565b600061177984846111f4565b6001600160a01b0381166000908152600860205260409020805491925090156117e15760405162461bcd60e51b815260206004820152601a602482015279546865206163636f756e7420616c72656164792065786973747360301b6044820152606401610691565b6000805b865181101561197457600087828151811061181057634e487b7160e01b600052603260045260246000fd5b60200260200101519050600087838151811061183c57634e487b7160e01b600052603260045260246000fd5b6020026020010151905060006001600160a01b0316826001600160a01b03161415801561186857508015155b6118b15760405162461bcd60e51b815260206004820152601a6024820152790c081d985b1d595cc8185c99481b9bdd081c195c9b5a5d1d195960321b6044820152606401610691565b604080518082019091526001600160a01b0383811682526020808301848152885460018082018b5560008b8152939093209451600290910290940180546001600160a01b03191694909316939093178255915191015561191181856132ff565b9350816001600160a01b0316866001600160a01b03167e6fb9851f1fd2fbc9fa36680d17e1254999a38e5f3c76c3a1ecc126a464601b8360405161195791815260200190565b60405180910390a35050808061196c9061343f565b9150506117e5565b5060065481146119c65760405162461bcd60e51b815260206004820152601e60248201527f546f74616c206672616374696f6e73206d7573742062652031302c30303000006044820152606401610691565b5090949350505050565b6004546001600160a01b03166119e4611e5c565b6001600160a01b031614611a4e5760405162461bcd60e51b815260206004820152602b60248201527f4f6e6c792074686520436861696e4d616e6167657220697320616c6c6f77656460448201526a081d1bc819195c1bdcda5d60aa1b6064820152608401610691565b6000611a5c82840184612e10565b9050611a6a60008583611e81565b6040518181526001600160a01b038516906000906000805160206135608339815191529060200160405180910390a350505050565b611aa882610970565b611ab481610d71611e5c565b610d808383612433565b6000828152600a6020908152604080832054600b83528184205460099093529083205490929081906001600160a01b039081169086168114611b3e576000611b068288610985565b600654909150611b16828861335f565b611b20919061333f565b600654909650611b30828761335f565b611b3a919061333f565b9450505b6000878152600d6020908152604080832054600e835281842054600c90935292205491945092506001600160a01b039081169087168114611bbd576000611b858289610985565b600654909150611b95828761335f565b611b9f919061333f565b600654909550611baf828661335f565b611bb9919061333f565b9350505b505092959194509250565b6000611be26000805160206135a083398151915283611262565b15611bef575060016106bd565b6001600160a01b0380841660009081526001602090815260408083209386168352929052205460ff1661125b565b6001600160a01b038416611c435760405162461bcd60e51b8152600401610691906131f3565b611c4b611e5c565b6001600160a01b0316856001600160a01b03161480611c715750611c7185610611611e5c565b611ccf5760405162461bcd60e51b815260206004820152602960248201527f455243313135353a2063616c6c6572206973206e6f74206f776e6572206e6f7260448201526808185c1c1c9bdd995960ba1b6064820152608401610691565b6000611cd9611e5c565b9050611cf9818787611cea88612567565b611cf388612567565b87612165565b6000848152602081815260408083206001600160a01b038a16845290915290205483811015611d3a5760405162461bcd60e51b815260040161069190613284565b611d44848261337e565b6000868152602081815260408083206001600160a01b038c81168552925280832093909355881681529081208054869290611d809084906132ff565b92505081905550856001600160a01b0316876001600160a01b0316836001600160a01b03166000805160206135408339815191528888604051611dc49291906132ce565b60405180910390a4611dda8288888888886125c0565b50505050505050565b3390565b60006001600160e01b03198216636cdb3d1360e11b1480611e1857506001600160e01b031982166303a24d0760e21b145b806106bd57506301ffc9a760e01b6001600160e01b03198316146106bd565b60006001600160e01b03198216637965db0b60e01b14806106bd57506106bd82611de7565b6000611e673361122d565b15611e79575060131936013560601c90565b503390565b90565b6001600160a01b03831660009081526000805160206135e0833981519152602052604090205481811015611ec75760405162461bcd60e51b815260040161069190613284565b611ed1828261337e565b6001600160a01b0385811660009081526000805160206135e083398151915260205260408082209390935590851681529081208054849290611f149084906132ff565b9091555060009050611f24611e5c565b9050836001600160a01b0316856001600160a01b0316826001600160a01b0316600080516020613540833981519152600087604051611f649291906132ce565b60405180910390a45050505050565b600083611f8257506000612077565b611f9a6000805160206135c083398151915233611262565b15611fa757506000612077565b600080600080611fb789896124b8565b90508015611ff6576000888152600a6020908152604080832054600b835281842054600990935292205491955093506001600160a01b03169150612029565b6000888152600d6020908152604080832054600e835281842054600c90935292205491955093506001600160a01b031691505b600654600090612039868a61335f565b612043919061333f565b9050838110156120505750825b600061205c888361335f565b9050801561206f5761206f8b8583611e81565b955050505050505b949350505050565b6000828152602081815260408083206001600160a01b0388168452909152902054818110156120c05760405162461bcd60e51b815260040161069190613284565b6120ca828261337e565b6000848152602081815260408083206001600160a01b038a811685529252808320939093558616815290812080548492906121069084906132ff565b9091555060009050612116611e5c565b9050846001600160a01b0316866001600160a01b0316826001600160a01b031660008051602061354083398151915287876040516121559291906132ce565b60405180910390a4505050505050565b60005b8351811015611dda576121cc8685838151811061219557634e487b7160e01b600052603260045260246000fd5b602002602001015160008685815181106121bf57634e487b7160e01b600052603260045260246000fd5b6020026020010151611f73565b506121d68161343f565b9050612168565b6001600160a01b0384163b15610d545760405163bc197c8160e01b81526001600160a01b0385169063bc197c81906122219089908990889088908890600401613083565b602060405180830381600087803b15801561223b57600080fd5b505af192505050801561226b575060408051601f3d908101601f1916820190925261226891810190612e66565b60015b61231857612277613486565b806308c379a014156122b1575061228c61349d565b8061229757506122b3565b8060405162461bcd60e51b81526004016106919190613198565b505b60405162461bcd60e51b815260206004820152603460248201527f455243313135353a207472616e7366657220746f206e6f6e20455243313135356044820152732932b1b2b4bb32b91034b6b83632b6b2b73a32b960611b6064820152608401610691565b6001600160e01b0319811663bc197c8160e01b14611dda5760405162461bcd60e51b8152600401610691906131ab565b6123528282611262565b610e0f5761236a816001600160a01b0316601461268a565b61237583602061268a565b604051602001612386929190613014565b60408051601f198184030181529082905262461bcd60e51b825261069191600401613198565b6123b68282611262565b610e0f5760008281526003602090815260408083206001600160a01b03851684529091529020805460ff191660011790556123ef611e5c565b6001600160a01b0316816001600160a01b0316837f2f8788117e7eff1d82e926ec794901d17c78024a50270940304540a733656f0d60405160405180910390a45050565b61243d8282611262565b15610e0f5760008281526003602090815260408083206001600160a01b03851684529091529020805460ff19169055612474611e5c565b6001600160a01b0316816001600160a01b0316837ff6391f5c32d9c69d2a47ea670b442974b53935d1edc7fd64eb21e047a839171b60405160405180910390a45050565b60601c6001600160a01b03919091161490565b6001600160a01b03831660009081526005602052604081205463ffffffff166124f5816001613317565b6001600160a01b0386166000908152600560205260408120805463ffffffff191663ffffffff9390931692909217909155612531868387610efc565b90506000856001600160401b03161161254957600080fd5b61255e8682876001600160401b03168761286b565b95945050505050565b604080516001808252818301909252606091600091906020808301908036833701905050905082816000815181106125af57634e487b7160e01b600052603260045260246000fd5b602090810291909101015292915050565b6001600160a01b0384163b15610d545760405163f23a6e6160e01b81526001600160a01b0385169063f23a6e619061260490899089908890889088906004016130e1565b602060405180830381600087803b15801561261e57600080fd5b505af192505050801561264e575060408051601f3d908101601f1916820190925261264b91810190612e66565b60015b61265a57612277613486565b6001600160e01b0319811663f23a6e6160e01b14611dda5760405162461bcd60e51b8152600401610691906131ab565b6060600061269983600261335f565b6126a49060026132ff565b6001600160401b038111156126c957634e487b7160e01b600052604160045260246000fd5b6040519080825280601f01601f1916602001820160405280156126f3576020820181803683370190505b509050600360fc1b8160008151811061271c57634e487b7160e01b600052603260045260246000fd5b60200101906001600160f81b031916908160001a905350600f60fb1b8160018151811061275957634e487b7160e01b600052603260045260246000fd5b60200101906001600160f81b031916908160001a905350600061277d84600261335f565b6127889060016132ff565b90505b600181111561281c576f181899199a1a9b1b9c1cb0b131b232b360811b85600f16601081106127ca57634e487b7160e01b600052603260045260246000fd5b1a60f81b8282815181106127ee57634e487b7160e01b600052603260045260246000fd5b60200101906001600160f81b031916908160001a90535060049490941c93612815816133c1565b905061278b565b50831561125b5760405162461bcd60e51b815260206004820181905260248201527f537472696e67733a20686578206c656e67746820696e73756666696369656e746044820152606401610691565b6001600160a01b0384166128cb5760405162461bcd60e51b815260206004820152602160248201527f455243313135353a206d696e7420746f20746865207a65726f206164647265736044820152607360f81b6064820152608401610691565b60006128d5611e5c565b90506128e781600087611cea88612567565b6000848152602081815260408083206001600160a01b0389168452909152812080548592906129179084906132ff565b92505081905550846001600160a01b031660006001600160a01b0316826001600160a01b0316600080516020613540833981519152878760405161295c9291906132ce565b60405180910390a4612973816000878787876125c0565b5050505050565b80356001600160a01b038116811461299157600080fd5b919050565b600082601f8301126129a6578081fd5b813560206129b3826132dc565b6040516129c08282613413565b8381528281019150858301600585901b870184018810156129df578586fd5b855b858110156129fd578135845292840192908401906001016129e1565b5090979650505050505050565b600082601f830112612a1a578081fd5b81356001600160401b03811115612a3357612a33613470565b604051612a4a601f8301601f191660200182613413565b818152846020838601011115612a5e578283fd5b816020850160208301379081016020019190915292915050565b80356001600160401b038116811461299157600080fd5b600060208284031215612aa0578081fd5b61125b8261297a565b60008060408385031215612abb578081fd5b612ac48361297a565b9150612ad26020840161297a565b90509250929050565b600080600080600060a08688031215612af2578081fd5b612afb8661297a565b9450612b096020870161297a565b935060408601356001600160401b0380821115612b24578283fd5b612b3089838a01612996565b94506060880135915080821115612b45578283fd5b612b5189838a01612996565b93506080880135915080821115612b66578283fd5b50612b7388828901612a0a565b9150509295509295909350565b600080600080600060a08688031215612b97578081fd5b612ba08661297a565b9450612bae6020870161297a565b9350604086013592506060860135915060808601356001600160401b03811115612bd6578182fd5b612b7388828901612a0a565b60008060408385031215612bf4578182fd5b612bfd8361297a565b915060208301358015158114612c11578182fd5b809150509250929050565b600080600060408486031215612c30578283fd5b612c398461297a565b925060208401356001600160401b0380821115612c54578384fd5b818601915086601f830112612c67578384fd5b813581811115612c75578485fd5b876020828501011115612c86578485fd5b6020830194508093505050509250925092565b60008060408385031215612cab578182fd5b612cb48361297a565b946020939093013593505050565b60008060008060808587031215612cd7578182fd5b612ce08561297a565b966020860135965060408601359560600135945092505050565b600080600060608486031215612d0e578081fd5b612d178461297a565b9250602084013563ffffffff81168114612d2f578182fd5b9150612d3d60408501612a78565b90509250925092565b60008060408385031215612d58578182fd5b82356001600160401b0380821115612d6e578384fd5b818501915085601f830112612d81578384fd5b81356020612d8e826132dc565b604051612d9b8282613413565b8381528281019150858301600585901b870184018b1015612dba578889fd5b8896505b84871015612de357612dcf8161297a565b835260019690960195918301918301612dbe565b5096505086013592505080821115612df9578283fd5b50612e0685828601612996565b9150509250929050565b600060208284031215612e21578081fd5b5035919050565b60008060408385031215612e3a578182fd5b82359150612ad26020840161297a565b600060208284031215612e5b578081fd5b813561125b81613526565b600060208284031215612e77578081fd5b815161125b81613526565b600080600080600080600060e0888a031215612e9c578485fd5b87359650612eac6020890161297a565b95506040880135945060608801359350612ec86080890161297a565b925060a0880135915060c0880135905092959891949750929550565b60008060408385031215612ef6578182fd5b50508035926020909101359150565b60008060408385031215612f17578182fd5b612f2083612a78565b915060208301356001600160401b03811115612f3a578182fd5b612e0685828601612a0a565b6000815180845260208085019450808401835b83811015612f7557815187529582019590820190600101612f59565b509495945050505050565b60008151808452612f98816020860160208601613395565b601f01601f19169290920160200192915050565b825160009082906020808701845b83811015612fdf5781516001600160a01b031685529382019390820190600101612fba565b50508551818701939250845b8181101561300757845184529382019392820192600101612feb565b5091979650505050505050565b76020b1b1b2b9b9a1b7b73a3937b61d1030b1b1b7bab73a1604d1b815260008351613046816017850160208801613395565b7001034b99036b4b9b9b4b733903937b6329607d1b6017918401918201528351613077816028840160208801613395565b01602801949350505050565b6001600160a01b0386811682528516602082015260a0604082018190526000906130af90830186612f46565b82810360608401526130c18186612f46565b905082810360808401526130d58185612f80565b98975050505050505050565b6001600160a01b03868116825285166020820152604081018490526060810183905260a06080820181905260009061311b90830184612f80565b979650505050505050565b6001600160a01b0396871681526020810195909552604085019390935293166060830152608082019290925260a081019190915260c00190565b60208152600061125b6020830184612f46565b6040815260006131866040830185612f46565b828103602084015261255e8185612f46565b60208152600061125b6020830184612f80565b60208082526028908201527f455243313135353a204552433131353552656365697665722072656a656374656040820152676420746f6b656e7360c01b606082015260800190565b60208082526025908201527f455243313135353a207472616e7366657220746f20746865207a65726f206164604082015264647265737360d81b606082015260800190565b6020808252602c908201527f546865206163636f756e74206d757374206e6f7420626520302c20756e6c657360408201526b07320666565732061726520360a41b606082015260800190565b6020808252602a908201527f455243313135353a20696e73756666696369656e742062616c616e636520666f60408201526939103a3930b739b332b960b11b606082015260800190565b918252602082015260400190565b60006001600160401b038211156132f5576132f5613470565b5060051b60200190565b600082198211156133125761331261345a565b500190565b600063ffffffff8083168185168083038211156133365761333661345a565b01949350505050565b60008261335a57634e487b7160e01b81526012600452602481fd5b500490565b60008160001904831182151516156133795761337961345a565b500290565b6000828210156133905761339061345a565b500390565b60005b838110156133b0578181015183820152602001613398565b8381111561148a5750506000910152565b6000816133d0576133d061345a565b506000190190565b600181811c908216806133ec57607f821691505b6020821081141561340d57634e487b7160e01b600052602260045260246000fd5b50919050565b601f8201601f191681016001600160401b038111828210171561343857613438613470565b6040525050565b60006000198214156134535761345361345a565b5060010190565b634e487b7160e01b600052601160045260246000fd5b634e487b7160e01b600052604160045260246000fd5b600060033d1115611e7e57600481823e5160e01c90565b600060443d10156134ab5790565b6040516003193d81016004833e81513d6001600160401b0380831160248401831017156134da57505050505090565b82850191508151818111156134f25750505050505090565b843d870101602082850101111561350c5750505050505090565b61351b60208286010187613413565b509095945050505050565b6001600160e01b03198116811461353c57600080fd5b5056fec3d58168c5ae7397731d063d5bbf3d657854427343f4c083240f7aacaa2d0f62ddf252ad1be2c89b69c2b068fc378daa952ba7f163c4a11628f55a4df523b3ef3d2e894c222ba979e2dce2c7d940c0e9bb14306669e9f034eb1bb3979a2069d8626f510646502d065065e8bd550325973a611a32e6f6ddff40650005cb13636820a4be6e7127e439f48d6654377d19402cb883dd85029e600de9e17052f903d3ad3228b676f7d3cd4284a5443f17f1962b36e491b30a40b2405849e597ba5fb5a26469706673582212204e2a5f1bf58713e5633fd36a0b866769148bdb134a0ae1837cebbd5d5fbcd8de64736f6c6343000804003368747470733a2f2f636572652e6e6574776f726b2f6e66742f7b69647d2e6a736f6e",
  "immutableReferences": {},
  "source": "pragma solidity ^0.8.0;\n\nimport \"./SimpleExchange.sol\";\n\n/** Main contract, including all components.\n\n- Hold and transfer NFTs using ERC1155.\n- Support atomic exchanges of NFTs for currency.\n- Issuance of NFTs with fixed supply.\n- Joint Accounts that distribute their funds over multiple owners.\n- Capture royalties on primary and secondary transfers, configurable per NFT type.\n*/\ncontract Davinci is /*\n    ERC1155,\n    AccessControl,\n    BaseNFT,\n    Currency,\n    TransferOperator,\n    MetaTxContext,\n    PolygonChildERC20,\n    Issuance,\n    JointAccounts,\n    TransferFees,\n    */ SimpleExchange {\n\n}\n",
  "sourcePath": "/home/a/CERE/davinci-nft/contracts/polygon/Davinci.sol",
  "compiler": {
    "name": "solc",
    "version": "0.8.4+commit.c7e474f2.Emscripten.clang"
  },
  "schemaVersion": "3.4.1",
  "updatedAt": "2021-08-09T18:45:59.371Z",
  "networkType": "ethereum",
  "devdoc": {
    "kind": "dev",
    "methods": {
      "balanceOf(address,uint256)": {
        "details": "See {IERC1155-balanceOf}. Requirements: - `account` cannot be the zero address."
      },
      "balanceOfBatch(address[],uint256[])": {
        "details": "See {IERC1155-balanceOfBatch}. Requirements: - `accounts` and `ids` must have the same length."
      },
      "getRoleAdmin(bytes32)": {
        "details": "Returns the admin role that controls `role`. See {grantRole} and {revokeRole}. To change a role's admin, use {_setRoleAdmin}."
      },
      "grantRole(bytes32,address)": {
        "details": "Grants `role` to `account`. If `account` had not been already granted `role`, emits a {RoleGranted} event. Requirements: - the caller must have ``role``'s admin role."
      },
      "hasRole(bytes32,address)": {
        "details": "Returns `true` if `account` has been granted `role`."
      },
      "renounceRole(bytes32,address)": {
        "details": "Revokes `role` from the calling account. Roles are often managed via {grantRole} and {revokeRole}: this function's purpose is to provide a mechanism for accounts to lose their privileges if they are compromised (such as when a trusted device is misplaced). If the calling account had been granted `role`, emits a {RoleRevoked} event. Requirements: - the caller must be `account`."
      },
      "revokeRole(bytes32,address)": {
        "details": "Revokes `role` from `account`. If `account` had been granted `role`, emits a {RoleRevoked} event. Requirements: - the caller must have ``role``'s admin role."
      },
      "safeBatchTransferFrom(address,address,uint256[],uint256[],bytes)": {
        "details": "See {IERC1155-safeBatchTransferFrom}."
      },
      "safeTransferFrom(address,address,uint256,uint256,bytes)": {
        "details": "See {IERC1155-safeTransferFrom}."
      },
      "setApprovalForAll(address,bool)": {
        "details": "See {IERC1155-setApprovalForAll}."
      },
      "uri(uint256)": {
        "details": "See {IERC1155MetadataURI-uri}. This implementation returns the same URI for *all* token types. It relies on the token type ID substitution mechanism https://eips.ethereum.org/EIPS/eip-1155#metadata[defined in the EIP]. Clients calling this function must replace the `\\{id\\}` substring with the actual token type ID."
      }
    },
    "version": 1
  },
  "userdoc": {
    "events": {
      "JointAccountShareCreated(address,address,uint256)": {
        "notice": "Notify that a Joint Account was created at the address `account`. One such event is emitted for each owner, including his fraction of the account in basis points (1% of 1%)."
      },
      "RoyaltiesConfigured(uint256,address,uint256,uint256,address,uint256,uint256)": {
        "notice": "Notify that royalties were configured on an NFT type."
      },
      "RoyaltiesLocked(uint256,uint256)": {
        "notice": "Notify that royalties are locked and cannot change, until the given time (in UNIX seconds), or forever (lockUntil = 0xFFFFFFFF)."
      },
      "Transfer(address,address,uint256)": {
        "notice": "ERC20 Transfer event for bridging this ERC1155 contract to ERC20 on Ethereum."
      }
    },
    "kind": "user",
    "methods": {
      "BASIS_POINTS()": {
        "notice": "The total fraction representing 100% of an account."
      },
      "CURRENCY()": {
        "notice": "The token ID that represents the CERE currency for all payments in this contract. "
      },
      "CURRENCY_SUPPLY()": {
        "notice": "The global supply of CERE tokens on all chains. That is 10 billion tokens, with 10 decimals."
      },
      "balanceOfJAOwner(address,address)": {
        "notice": "Calculate the amount of tokens that an owner of a Joint Account can withdraw right now."
      },
      "childChainManagerProxy()": {
        "notice": "The address of the Polygon bridge contract that is allowed to deposit tokens. "
      },
      "configureRoyalties(uint256,address,uint256,uint256,address,uint256,uint256)": {
        "notice": "Configure the amounts and beneficiaries of royalties on primary and secondary transfers of this NFT. This configuration is available to the issuer of this NFT. A transfer is primary if it comes from the issuer of this NFT (normally the first sale after issuance). Otherwise, it is a secondary transfer. A royalty is defined in two parts (both optional): a cut of the sale price of an NFT, and a minimum royalty per transfer. For simple transfers not attached to a price, or a too low price, the minimum royalty is charged. The cuts are given in basis points (1% of 1%). The minimums are given in currency amounts. The configuration can be changed at any time by default. However, the issuer may commit to it for a period of time, effectively giving up his ability to modify the royalties. See the function lockRoyalties. There can be one beneficiary account for each primary and secondary royalties. To distribute revenues amongst several parties, use a Joint Account (see function createJointAccount)."
      },
      "createJointAccount(address[],uint256[])": {
        "notice": "Create an account such that multiple owners have a claim on their respective share. The size of a share is given as a fraction in basis points (1% of 1%). The sum of share fractions must equal 10,000. Anyone can create Joint Accounts including any owners."
      },
      "currencyInBridge()": {
        "notice": "Return the total amount of currency available in the bridge, which can be deposited into this contract."
      },
      "deposit(address,bytes)": {
        "notice": "Deposit currency from Ethereum into a user account in this contract. This is implemented by moving tokens from the bridge account to the user account. Two events will be emitted: ERC20 Transfer for the relayers, and ERC1155 TransferSingle like all transfers. There is an extra encoding necessary for the amount. In JavaScript, add this: `web3.eth.abi.encodeParameter('uint256', amount)`"
      },
      "distributeJointAccount(address)": {
        "notice": "Distribute all tokens available to all owners of a Joint Account. The function createJointAccount must be called beforehand. Anyone can trigger the distribution."
      },
      "fractionOfJAOwner(address,address)": {
        "notice": "Return the fraction of an account owned by the given address, in basis points (1% of 1%). If the account does not exist, or if the given address is not an owner of it, this returns 0. If the owner appears more than once in the account, this reports only the first share."
      },
      "getNftId(address,uint32,uint64)": {
        "notice": "Calculate the ID of an NFT type, identifying its issuer, its supply, and an arbitrary nonce."
      },
      "getRoyalties(uint256)": {
        "notice": "Return the current configuration of royalties for NFTs of type nftId, as set by configureRoyalties."
      },
      "getRoyaltiesForBeneficiary(uint256,address)": {
        "notice": "Return the amount of royalties earned by a beneficiary on each primary and secondary transfer of an NFT. This function supports Joint Accounts. If royalties are paid to a JA and beneficiary is an owner of the JA, the shares of the royalties for this owner are returned."
      },
      "isApprovedForAll(address,address)": {
        "notice": "Return true for operators with the role TRANSFER_OPERATOR. Otherwise, apply the standard approval logic of ERC1155. See {IERC1155-isApprovedForAll}."
      },
      "issuanceNonces(address)": {
        "notice": "A counter of NFT types issued by each issuer. This is used to generate unique NFT IDs."
      },
      "issue(uint64,bytes)": {
        "notice": "Issue a supply of NFTs of a new type, and return its ID. No more NFT of this type can be issued again. The caller will be recorded as the issuer and it will initially own the entire supply."
      },
      "lockRoyalties(uint256,uint256)": {
        "notice": "Lock the configuration of royalties for this NFT type. Only the issuer may lock the configuration, after which he himself will no longer be able to change the configuration, for some time, or forever. Set lockUntil to a time in the future to lock the configuration until the specified time (in UNIX seconds). Set to 0xFFFFFFFF to lock forever."
      },
      "makeAddressOfJointAccount(address[],uint256[])": {
        "notice": "Generate a unique address identifying a list of owners and shares. It may be used to predict the address of a Joint Account and receive payments even before calling the function createJointAccount."
      },
      "makeOffer(uint256,uint256)": {
        "notice": "Create an offer to sell a type of NFTs for a price per unit. All the NFTs of this type owned by the caller will be for sale. To cancel, call again with a price of 0."
      },
      "supportsInterface(bytes4)": {
        "notice": "Supports interfaces of AccessControl, ERC1155, and ERC1155 MetadataURI."
      },
      "takeOffer(address,uint256,uint256,uint256)": {
        "notice": "Accept an offer, paying the price per unit for an amount of NFTs. The offer must have been created beforehand by offerToSell."
      },
      "updateChildChainManager(address)": {
        "notice": "Change the ChainManager, which can deposit currency into any account. Only the current ChainManager is allowed to change the ChainManager."
      },
      "withdraw(uint256)": {
        "notice": "Withdraw currency from a user account in this contract to Ethereum. This is implemented by moving tokens from the user account to the bridge account. Two events will be emitted: ERC20 Transfer for the relayers, and ERC1155 TransferSingle like all transfers."
      }
    },
    "notice": "Main contract, including all components. - Hold and transfer NFTs using ERC1155. - Support atomic exchanges of NFTs for currency. - Issuance of NFTs with fixed supply. - Joint Accounts that distribute their funds over multiple owners. - Capture royalties on primary and secondary transfers, configurable per NFT type.",
    "version": 1
  }
}