{
  "contractName": "Davinci",
  "abi": [
    {
      "anonymous": false,
      "inputs": [
        {
          "indexed": true,
          "internalType": "address",
          "name": "account",
          "type": "address"
        },
        {
          "indexed": true,
          "internalType": "address",
          "name": "operator",
          "type": "address"
        },
        {
          "indexed": false,
          "internalType": "bool",
          "name": "approved",
          "type": "bool"
        }
      ],
      "name": "ApprovalForAll",
      "type": "event"
    },
    {
      "anonymous": false,
      "inputs": [
        {
          "indexed": true,
          "internalType": "address",
          "name": "account",
          "type": "address"
        },
        {
          "indexed": true,
          "internalType": "address",
          "name": "owner",
          "type": "address"
        },
        {
          "indexed": false,
          "internalType": "uint256",
          "name": "fraction",
          "type": "uint256"
        }
      ],
      "name": "JointAccountShareCreated",
      "type": "event"
    },
    {
      "anonymous": false,
      "inputs": [
        {
          "indexed": true,
          "internalType": "address",
          "name": "seller",
          "type": "address"
        },
        {
          "indexed": true,
          "internalType": "uint256",
          "name": "nftId",
          "type": "uint256"
        },
        {
          "indexed": false,
          "internalType": "uint256",
          "name": "price",
          "type": "uint256"
        },
        {
          "indexed": false,
          "internalType": "uint256",
          "name": "amount",
          "type": "uint256"
        }
      ],
      "name": "MakeOffer",
      "type": "event"
    },
    {
      "anonymous": false,
      "inputs": [
        {
          "indexed": true,
          "internalType": "bytes32",
          "name": "role",
          "type": "bytes32"
        },
        {
          "indexed": true,
          "internalType": "bytes32",
          "name": "previousAdminRole",
          "type": "bytes32"
        },
        {
          "indexed": true,
          "internalType": "bytes32",
          "name": "newAdminRole",
          "type": "bytes32"
        }
      ],
      "name": "RoleAdminChanged",
      "type": "event"
    },
    {
      "anonymous": false,
      "inputs": [
        {
          "indexed": true,
          "internalType": "bytes32",
          "name": "role",
          "type": "bytes32"
        },
        {
          "indexed": true,
          "internalType": "address",
          "name": "account",
          "type": "address"
        },
        {
          "indexed": true,
          "internalType": "address",
          "name": "sender",
          "type": "address"
        }
      ],
      "name": "RoleGranted",
      "type": "event"
    },
    {
      "anonymous": false,
      "inputs": [
        {
          "indexed": true,
          "internalType": "bytes32",
          "name": "role",
          "type": "bytes32"
        },
        {
          "indexed": true,
          "internalType": "address",
          "name": "account",
          "type": "address"
        },
        {
          "indexed": true,
          "internalType": "address",
          "name": "sender",
          "type": "address"
        }
      ],
      "name": "RoleRevoked",
      "type": "event"
    },
    {
      "anonymous": false,
      "inputs": [
        {
          "indexed": true,
          "internalType": "uint256",
          "name": "nftId",
          "type": "uint256"
        },
        {
          "indexed": false,
          "internalType": "address",
          "name": "primaryRoyaltyAccount",
          "type": "address"
        },
        {
          "indexed": false,
          "internalType": "uint256",
          "name": "primaryRoyaltyCut",
          "type": "uint256"
        },
        {
          "indexed": false,
          "internalType": "uint256",
          "name": "primaryRoyaltyMinimum",
          "type": "uint256"
        },
        {
          "indexed": false,
          "internalType": "address",
          "name": "secondaryRoyaltyAccount",
          "type": "address"
        },
        {
          "indexed": false,
          "internalType": "uint256",
          "name": "secondaryRoyaltyCut",
          "type": "uint256"
        },
        {
          "indexed": false,
          "internalType": "uint256",
          "name": "secondaryRoyaltyMinimum",
          "type": "uint256"
        }
      ],
      "name": "RoyaltiesConfigured",
      "type": "event"
    },
    {
      "anonymous": false,
      "inputs": [
        {
          "indexed": true,
          "internalType": "uint256",
          "name": "nftId",
          "type": "uint256"
        },
        {
          "indexed": false,
          "internalType": "uint256",
          "name": "lockUntil",
          "type": "uint256"
        }
      ],
      "name": "RoyaltiesLocked",
      "type": "event"
    },
    {
      "anonymous": false,
      "inputs": [
        {
          "indexed": true,
          "internalType": "address",
          "name": "buyer",
          "type": "address"
        },
        {
          "indexed": true,
          "internalType": "address",
          "name": "seller",
          "type": "address"
        },
        {
          "indexed": true,
          "internalType": "uint256",
          "name": "nftId",
          "type": "uint256"
        },
        {
          "indexed": false,
          "internalType": "uint256",
          "name": "price",
          "type": "uint256"
        },
        {
          "indexed": false,
          "internalType": "uint256",
          "name": "amount",
          "type": "uint256"
        }
      ],
      "name": "TakeOffer",
      "type": "event"
    },
    {
      "anonymous": false,
      "inputs": [
        {
          "indexed": true,
          "internalType": "address",
          "name": "from",
          "type": "address"
        },
        {
          "indexed": true,
          "internalType": "address",
          "name": "to",
          "type": "address"
        },
        {
          "indexed": false,
          "internalType": "uint256",
          "name": "value",
          "type": "uint256"
        }
      ],
      "name": "Transfer",
      "type": "event"
    },
    {
      "anonymous": false,
      "inputs": [
        {
          "indexed": true,
          "internalType": "address",
          "name": "operator",
          "type": "address"
        },
        {
          "indexed": true,
          "internalType": "address",
          "name": "from",
          "type": "address"
        },
        {
          "indexed": true,
          "internalType": "address",
          "name": "to",
          "type": "address"
        },
        {
          "indexed": false,
          "internalType": "uint256[]",
          "name": "ids",
          "type": "uint256[]"
        },
        {
          "indexed": false,
          "internalType": "uint256[]",
          "name": "values",
          "type": "uint256[]"
        }
      ],
      "name": "TransferBatch",
      "type": "event"
    },
    {
      "anonymous": false,
      "inputs": [
        {
          "indexed": true,
          "internalType": "address",
          "name": "operator",
          "type": "address"
        },
        {
          "indexed": true,
          "internalType": "address",
          "name": "from",
          "type": "address"
        },
        {
          "indexed": true,
          "internalType": "address",
          "name": "to",
          "type": "address"
        },
        {
          "indexed": false,
          "internalType": "uint256",
          "name": "id",
          "type": "uint256"
        },
        {
          "indexed": false,
          "internalType": "uint256",
          "name": "value",
          "type": "uint256"
        }
      ],
      "name": "TransferSingle",
      "type": "event"
    },
    {
      "anonymous": false,
      "inputs": [
        {
          "indexed": false,
          "internalType": "string",
          "name": "value",
          "type": "string"
        },
        {
          "indexed": true,
          "internalType": "uint256",
          "name": "id",
          "type": "uint256"
        }
      ],
      "name": "URI",
      "type": "event"
    },
    {
      "inputs": [],
      "name": "BASIS_POINTS",
      "outputs": [
        {
          "internalType": "uint256",
          "name": "",
          "type": "uint256"
        }
      ],
      "stateMutability": "view",
      "type": "function",
      "constant": true
    },
    {
      "inputs": [],
      "name": "BYPASS_SENDER",
      "outputs": [
        {
          "internalType": "bytes32",
          "name": "",
          "type": "bytes32"
        }
      ],
      "stateMutability": "view",
      "type": "function",
      "constant": true
    },
    {
      "inputs": [],
      "name": "CURRENCY",
      "outputs": [
        {
          "internalType": "uint256",
          "name": "",
          "type": "uint256"
        }
      ],
      "stateMutability": "view",
      "type": "function",
      "constant": true
    },
    {
      "inputs": [],
      "name": "CURRENCY_SUPPLY",
      "outputs": [
        {
          "internalType": "uint256",
          "name": "",
          "type": "uint256"
        }
      ],
      "stateMutability": "view",
      "type": "function",
      "constant": true
    },
    {
      "inputs": [],
      "name": "DEFAULT_ADMIN_ROLE",
      "outputs": [
        {
          "internalType": "bytes32",
          "name": "",
          "type": "bytes32"
        }
      ],
      "stateMutability": "view",
      "type": "function",
      "constant": true
    },
    {
      "inputs": [],
      "name": "MAX_JOINT_ACCOUNT_SHARES",
      "outputs": [
        {
          "internalType": "uint256",
          "name": "",
          "type": "uint256"
        }
      ],
      "stateMutability": "view",
      "type": "function",
      "constant": true
    },
    {
      "inputs": [],
      "name": "META_TX_FORWARDER",
      "outputs": [
        {
          "internalType": "bytes32",
          "name": "",
          "type": "bytes32"
        }
      ],
      "stateMutability": "view",
      "type": "function",
      "constant": true
    },
    {
      "inputs": [],
      "name": "TRANSFER_OPERATOR",
      "outputs": [
        {
          "internalType": "bytes32",
          "name": "",
          "type": "bytes32"
        }
      ],
      "stateMutability": "view",
      "type": "function",
      "constant": true
    },
    {
      "inputs": [
        {
          "internalType": "address",
          "name": "account",
          "type": "address"
        },
        {
          "internalType": "uint256",
          "name": "id",
          "type": "uint256"
        }
      ],
      "name": "balanceOf",
      "outputs": [
        {
          "internalType": "uint256",
          "name": "",
          "type": "uint256"
        }
      ],
      "stateMutability": "view",
      "type": "function",
      "constant": true
    },
    {
      "inputs": [
        {
          "internalType": "address[]",
          "name": "accounts",
          "type": "address[]"
        },
        {
          "internalType": "uint256[]",
          "name": "ids",
          "type": "uint256[]"
        }
      ],
      "name": "balanceOfBatch",
      "outputs": [
        {
          "internalType": "uint256[]",
          "name": "",
          "type": "uint256[]"
        }
      ],
      "stateMutability": "view",
      "type": "function",
      "constant": true
    },
    {
      "inputs": [
        {
          "internalType": "address",
          "name": "account",
          "type": "address"
        },
        {
          "internalType": "address",
          "name": "owner",
          "type": "address"
        }
      ],
      "name": "balanceOfJAOwner",
      "outputs": [
        {
          "internalType": "uint256",
          "name": "",
          "type": "uint256"
        }
      ],
      "stateMutability": "view",
      "type": "function",
      "constant": true
    },
    {
      "inputs": [],
      "name": "childChainManagerProxy",
      "outputs": [
        {
          "internalType": "address",
          "name": "",
          "type": "address"
        }
      ],
      "stateMutability": "view",
      "type": "function",
      "constant": true
    },
    {
      "inputs": [
        {
          "internalType": "uint256",
          "name": "nftId",
          "type": "uint256"
        },
        {
          "internalType": "address",
          "name": "primaryRoyaltyAccount",
          "type": "address"
        },
        {
          "internalType": "uint256",
          "name": "primaryRoyaltyCut",
          "type": "uint256"
        },
        {
          "internalType": "uint256",
          "name": "primaryRoyaltyMinimum",
          "type": "uint256"
        },
        {
          "internalType": "address",
          "name": "secondaryRoyaltyAccount",
          "type": "address"
        },
        {
          "internalType": "uint256",
          "name": "secondaryRoyaltyCut",
          "type": "uint256"
        },
        {
          "internalType": "uint256",
          "name": "secondaryRoyaltyMinimum",
          "type": "uint256"
        }
      ],
      "name": "configureRoyalties",
      "outputs": [],
      "stateMutability": "nonpayable",
      "type": "function"
    },
    {
      "inputs": [
        {
          "internalType": "address[]",
          "name": "owners",
          "type": "address[]"
        },
        {
          "internalType": "uint256[]",
          "name": "fractions",
          "type": "uint256[]"
        }
      ],
      "name": "createJointAccount",
      "outputs": [
        {
          "internalType": "address",
          "name": "",
          "type": "address"
        }
      ],
      "stateMutability": "nonpayable",
      "type": "function"
    },
    {
      "inputs": [],
      "name": "currencyInBridge",
      "outputs": [
        {
          "internalType": "uint256",
          "name": "",
          "type": "uint256"
        }
      ],
      "stateMutability": "view",
      "type": "function",
      "constant": true
    },
    {
      "inputs": [
        {
          "internalType": "address",
          "name": "user",
          "type": "address"
        },
        {
          "internalType": "bytes",
          "name": "depositData",
          "type": "bytes"
        }
      ],
      "name": "deposit",
      "outputs": [],
      "stateMutability": "nonpayable",
      "type": "function"
    },
    {
      "inputs": [
        {
          "internalType": "address",
          "name": "account",
          "type": "address"
        }
      ],
      "name": "distributeJointAccount",
      "outputs": [],
      "stateMutability": "nonpayable",
      "type": "function"
    },
    {
      "inputs": [
        {
          "internalType": "address",
          "name": "account",
          "type": "address"
        },
        {
          "internalType": "address",
          "name": "maybeOwner",
          "type": "address"
        }
      ],
      "name": "fractionOfJAOwner",
      "outputs": [
        {
          "internalType": "uint256",
          "name": "",
          "type": "uint256"
        }
      ],
      "stateMutability": "view",
      "type": "function",
      "constant": true
    },
    {
      "inputs": [
        {
          "internalType": "address",
          "name": "issuer",
          "type": "address"
        },
        {
          "internalType": "uint32",
          "name": "nonce",
          "type": "uint32"
        },
        {
          "internalType": "uint64",
          "name": "supply",
          "type": "uint64"
        }
      ],
      "name": "getNftId",
      "outputs": [
        {
          "internalType": "uint256",
          "name": "",
          "type": "uint256"
        }
      ],
      "stateMutability": "pure",
      "type": "function",
      "constant": true
    },
    {
      "inputs": [
        {
          "internalType": "bytes32",
          "name": "role",
          "type": "bytes32"
        }
      ],
      "name": "getRoleAdmin",
      "outputs": [
        {
          "internalType": "bytes32",
          "name": "",
          "type": "bytes32"
        }
      ],
      "stateMutability": "view",
      "type": "function",
      "constant": true
    },
    {
      "inputs": [
        {
          "internalType": "uint256",
          "name": "nftId",
          "type": "uint256"
        }
      ],
      "name": "getRoyalties",
      "outputs": [
        {
          "internalType": "address",
          "name": "primaryRoyaltyAccount",
          "type": "address"
        },
        {
          "internalType": "uint256",
          "name": "primaryRoyaltyCut",
          "type": "uint256"
        },
        {
          "internalType": "uint256",
          "name": "primaryRoyaltyMinimum",
          "type": "uint256"
        },
        {
          "internalType": "address",
          "name": "secondaryRoyaltyAccount",
          "type": "address"
        },
        {
          "internalType": "uint256",
          "name": "secondaryRoyaltyCut",
          "type": "uint256"
        },
        {
          "internalType": "uint256",
          "name": "secondaryRoyaltyMinimum",
          "type": "uint256"
        }
      ],
      "stateMutability": "view",
      "type": "function",
      "constant": true
    },
    {
      "inputs": [
        {
          "internalType": "uint256",
          "name": "nftId",
          "type": "uint256"
        },
        {
          "internalType": "address",
          "name": "beneficiary",
          "type": "address"
        }
      ],
      "name": "getRoyaltiesForBeneficiary",
      "outputs": [
        {
          "internalType": "uint256",
          "name": "primaryCut",
          "type": "uint256"
        },
        {
          "internalType": "uint256",
          "name": "primaryMinimum",
          "type": "uint256"
        },
        {
          "internalType": "uint256",
          "name": "secondaryCut",
          "type": "uint256"
        },
        {
          "internalType": "uint256",
          "name": "secondaryMinimum",
          "type": "uint256"
        }
      ],
      "stateMutability": "view",
      "type": "function",
      "constant": true
    },
    {
      "inputs": [
        {
          "internalType": "bytes32",
          "name": "role",
          "type": "bytes32"
        },
        {
          "internalType": "address",
          "name": "account",
          "type": "address"
        }
      ],
      "name": "grantRole",
      "outputs": [],
      "stateMutability": "nonpayable",
      "type": "function"
    },
    {
      "inputs": [
        {
          "internalType": "bytes32",
          "name": "role",
          "type": "bytes32"
        },
        {
          "internalType": "address",
          "name": "account",
          "type": "address"
        }
      ],
      "name": "hasRole",
      "outputs": [
        {
          "internalType": "bool",
          "name": "",
          "type": "bool"
        }
      ],
      "stateMutability": "view",
      "type": "function",
      "constant": true
    },
    {
      "inputs": [
        {
          "internalType": "address",
          "name": "account",
          "type": "address"
        },
        {
          "internalType": "address",
          "name": "operator",
          "type": "address"
        }
      ],
      "name": "isApprovedForAll",
      "outputs": [
        {
          "internalType": "bool",
          "name": "",
          "type": "bool"
        }
      ],
      "stateMutability": "view",
      "type": "function",
      "constant": true
    },
    {
      "inputs": [
        {
          "internalType": "address",
          "name": "forwarder",
          "type": "address"
        }
      ],
      "name": "isTrustedForwarder",
      "outputs": [
        {
          "internalType": "bool",
          "name": "",
          "type": "bool"
        }
      ],
      "stateMutability": "view",
      "type": "function",
      "constant": true
    },
    {
      "inputs": [
        {
          "internalType": "address",
          "name": "",
          "type": "address"
        }
      ],
      "name": "issuanceNonces",
      "outputs": [
        {
          "internalType": "uint32",
          "name": "",
          "type": "uint32"
        }
      ],
      "stateMutability": "view",
      "type": "function",
      "constant": true
    },
    {
      "inputs": [
        {
          "internalType": "uint64",
          "name": "supply",
          "type": "uint64"
        },
        {
          "internalType": "bytes",
          "name": "data",
          "type": "bytes"
        }
      ],
      "name": "issue",
      "outputs": [
        {
          "internalType": "uint256",
          "name": "",
          "type": "uint256"
        }
      ],
      "stateMutability": "nonpayable",
      "type": "function"
    },
    {
      "inputs": [
        {
          "internalType": "address",
          "name": "",
          "type": "address"
        },
        {
          "internalType": "uint256",
          "name": "",
          "type": "uint256"
        }
      ],
      "name": "jointAccounts",
      "outputs": [
        {
          "internalType": "address",
          "name": "owner",
          "type": "address"
        },
        {
          "internalType": "uint256",
          "name": "fraction",
          "type": "uint256"
        }
      ],
      "stateMutability": "view",
      "type": "function",
      "constant": true
    },
    {
      "inputs": [
        {
          "internalType": "uint256",
          "name": "nftId",
          "type": "uint256"
        },
        {
          "internalType": "uint256",
          "name": "lockUntil",
          "type": "uint256"
        }
      ],
      "name": "lockRoyalties",
      "outputs": [],
      "stateMutability": "nonpayable",
      "type": "function"
    },
    {
      "inputs": [
        {
          "internalType": "address[]",
          "name": "owners",
          "type": "address[]"
        },
        {
          "internalType": "uint256[]",
          "name": "fractions",
          "type": "uint256[]"
        }
      ],
      "name": "makeAddressOfJointAccount",
      "outputs": [
        {
          "internalType": "address",
          "name": "",
          "type": "address"
        }
      ],
      "stateMutability": "pure",
      "type": "function",
      "constant": true
    },
    {
      "inputs": [
        {
          "internalType": "uint256",
          "name": "nftId",
          "type": "uint256"
        },
        {
          "internalType": "uint256",
          "name": "price",
          "type": "uint256"
        },
        {
          "internalType": "uint256",
          "name": "amount",
          "type": "uint256"
        }
      ],
      "name": "makeOffer",
      "outputs": [],
      "stateMutability": "nonpayable",
      "type": "function"
    },
    {
      "inputs": [
        {
          "internalType": "bytes32",
          "name": "role",
          "type": "bytes32"
        },
        {
          "internalType": "address",
          "name": "account",
          "type": "address"
        }
      ],
      "name": "renounceRole",
      "outputs": [],
      "stateMutability": "nonpayable",
      "type": "function"
    },
    {
      "inputs": [
        {
          "internalType": "bytes32",
          "name": "role",
          "type": "bytes32"
        },
        {
          "internalType": "address",
          "name": "account",
          "type": "address"
        }
      ],
      "name": "revokeRole",
      "outputs": [],
      "stateMutability": "nonpayable",
      "type": "function"
    },
    {
      "inputs": [
        {
          "internalType": "address",
          "name": "from",
          "type": "address"
        },
        {
          "internalType": "address",
          "name": "to",
          "type": "address"
        },
        {
          "internalType": "uint256[]",
          "name": "ids",
          "type": "uint256[]"
        },
        {
          "internalType": "uint256[]",
          "name": "amounts",
          "type": "uint256[]"
        },
        {
          "internalType": "bytes",
          "name": "data",
          "type": "bytes"
        }
      ],
      "name": "safeBatchTransferFrom",
      "outputs": [],
      "stateMutability": "nonpayable",
      "type": "function"
    },
    {
      "inputs": [
        {
          "internalType": "address",
          "name": "from",
          "type": "address"
        },
        {
          "internalType": "address",
          "name": "to",
          "type": "address"
        },
        {
          "internalType": "uint256",
          "name": "id",
          "type": "uint256"
        },
        {
          "internalType": "uint256",
          "name": "amount",
          "type": "uint256"
        },
        {
          "internalType": "bytes",
          "name": "data",
          "type": "bytes"
        }
      ],
      "name": "safeTransferFrom",
      "outputs": [],
      "stateMutability": "nonpayable",
      "type": "function"
    },
    {
      "inputs": [
        {
          "internalType": "address",
          "name": "operator",
          "type": "address"
        },
        {
          "internalType": "bool",
          "name": "approved",
          "type": "bool"
        }
      ],
      "name": "setApprovalForAll",
      "outputs": [],
      "stateMutability": "nonpayable",
      "type": "function"
    },
    {
      "inputs": [
        {
          "internalType": "bytes4",
          "name": "interfaceId",
          "type": "bytes4"
        }
      ],
      "name": "supportsInterface",
      "outputs": [
        {
          "internalType": "bool",
          "name": "",
          "type": "bool"
        }
      ],
      "stateMutability": "view",
      "type": "function",
      "constant": true
    },
    {
      "inputs": [
        {
          "internalType": "address",
          "name": "seller",
          "type": "address"
        },
        {
          "internalType": "uint256",
          "name": "nftId",
          "type": "uint256"
        },
        {
          "internalType": "uint256",
          "name": "price",
          "type": "uint256"
        },
        {
          "internalType": "uint256",
          "name": "amount",
          "type": "uint256"
        }
      ],
      "name": "takeOffer",
      "outputs": [],
      "stateMutability": "nonpayable",
      "type": "function"
    },
    {
      "inputs": [
        {
          "internalType": "address",
          "name": "newChildChainManagerProxy",
          "type": "address"
        }
      ],
      "name": "updateChildChainManager",
      "outputs": [],
      "stateMutability": "nonpayable",
      "type": "function"
    },
    {
      "inputs": [
        {
          "internalType": "uint256",
          "name": "",
          "type": "uint256"
        }
      ],
      "name": "uri",
      "outputs": [
        {
          "internalType": "string",
          "name": "",
          "type": "string"
        }
      ],
      "stateMutability": "view",
      "type": "function",
      "constant": true
    },
    {
      "inputs": [
        {
          "internalType": "uint256",
          "name": "amount",
          "type": "uint256"
        }
      ],
      "name": "withdraw",
      "outputs": [],
      "stateMutability": "nonpayable",
      "type": "function"
    }
  ],
  "bytecode": "0x6080604052612710600655600a6007553480156200001c57600080fd5b5060405180606001604052806022815260200162003926602291396200004281620000dd565b5062000059600062000053620000f6565b62000130565b600080527fad3228b676f7d3cd4284a5443f17f1962b36e491b30a40b2405849e597ba5fb560205268056bc75e2d631000007fed428e1c45e1d9561b62834e1a2d3015a0caae3bfdc16b4da059ac885b01a14555620000b7620000f6565b600480546001600160a01b0319166001600160a01b03929092169190911790556200030e565b8051620000f29060029060208401906200022b565b5050565b600062000103336200013c565b1562000116575060131936013560601c90565b6200012b6200017060201b62001d8b1760201c565b905090565b620000f2828262000174565b60006200016a7f3d2e894c222ba979e2dce2c7d940c0e9bb14306669e9f034eb1bb3979a2069d88362000200565b92915050565b3390565b62000180828262000200565b620000f25760008281526003602090815260408083206001600160a01b03851684529091529020805460ff19166001179055620001bc620000f6565b6001600160a01b0316816001600160a01b0316837f2f8788117e7eff1d82e926ec794901d17c78024a50270940304540a733656f0d60405160405180910390a45050565b60009182526003602090815260408084206001600160a01b0393909316845291905290205460ff1690565b8280546200023990620002d1565b90600052602060002090601f0160209004810192826200025d5760008555620002a8565b82601f106200027857805160ff1916838001178555620002a8565b82800160010185558215620002a8579182015b82811115620002a85782518255916020019190600101906200028b565b50620002b6929150620002ba565b5090565b5b80821115620002b65760008155600101620002bb565b600181811c90821680620002e657607f821691505b602082108114156200030857634e487b7160e01b600052602260045260246000fd5b50919050565b613608806200031e6000396000f3fe608060405234801561001057600080fd5b50600436106101ed5760003560e01c8062fdd58e146101f257806301ffc9a7146102185780630e89341c1461023b57806324416c721461025b578063248a9ca3146102705780632c8f284c146102835780632e1a7d4d146102965780632eb2c2d6146102a95780632f2ff15d146102bc57806330b06421146102cf57806336568abe146102d857806339b276f4146102eb5780633c6b5709146102fe578063445a679714610311578063448588e3146103245780634559a29b146103395780634e1273f41461036b5780635611cac21461038b578063572b6c05146103b657806358556fb0146103c957806360e3ecd0146103dc57806362f629e7146103f157806391d14854146104045780639a86e8ce146104175780639e00bb961461042c578063a217fddf1461043f578063a22cb46514610447578063a5e1fcd71461045a578063acc08fa51461046d578063ad09608a146104a8578063ba7f4dfe146104bb578063bb3bafd6146104ce578063cf2c52cb14610541578063d547741f14610554578063d9bbc58814610567578063dae2c77d146105a4578063e1f1c4a7146105b4578063e210a72d146105bd578063e24b0a2b146105d0578063e985e9c514610603578063f242432a14610616578063f53612191461043f575b600080fd5b610205610200366004612c41565b610629565b6040519081526020015b60405180910390f35b61022b610226366004612df2565b6106c3565b604051901515815260200161020f565b61024e610249366004612db8565b6106dd565b60405161020f919061316b565b61026e610269366004612c6a565b610771565b005b61020561027e366004612db8565b6108a8565b610205610291366004612a51565b6108bd565b61026e6102a4366004612db8565b610956565b61026e6102b7366004612a83565b6109a2565b61026e6102ca366004612dd0565b610c94565b61020560075481565b61026e6102e6366004612dd0565b610cbd565b61026e6102f9366004612e8c565b610d4b565b61020561030c366004612ca2565b610e34565b61026e61031f366004612a37565b610e64565b61020560008051602061359383398151915281565b61034c610347366004612c41565b610f85565b604080516001600160a01b03909316835260208301919091520161020f565b61037e610379366004612cee565b610fcb565b60405161020f9190613133565b61039e610399366004612cee565b61112c565b6040516001600160a01b03909116815260200161020f565b61022b6103c4366004612a37565b611165565b6102056103d7366004612ed8565b61117f565b61020560008051602061357383398151915281565b60045461039e906001600160a01b031681565b61022b610412366004612dd0565b61119a565b61020560008051602061355383398151915281565b61020561043a366004612a51565b6111c5565b610205600081565b61026e610455366004612b8a565b611208565b61026e610468366004612a37565b611310565b61049361047b366004612a37565b60056020526000908152604090205463ffffffff1681565b60405163ffffffff909116815260200161020f565b61026e6104b6366004612e2a565b6113c8565b61039e6104c9366004612cee565b6115ec565b61052f6104dc366004612db8565b600090815260096020908152604080832054600a835281842054600b845282852054600c855283862054600d865284872054600e90965293909520546001600160a01b0392831696919594929093169290565b60405161020f969594939291906130f9565b61026e61054f366004612bc4565b611908565b61026e610562366004612dd0565b6119d8565b600080526000805160206135b38339815191526020527fed428e1c45e1d9561b62834e1a2d3015a0caae3bfdc16b4da059ac885b01a14554610205565b61020568056bc75e2d6310000081565b61020560065481565b61026e6105cb366004612ead565b6119f7565b6105e36105de366004612dd0565b611a66565b60408051948552602085019390935291830152606082015260800161020f565b61022b610611366004612a51565b611b70565b61026e610624366004612b28565b611bc5565b60006001600160a01b03831661069a5760405162461bcd60e51b815260206004820152602b60248201527f455243313135353a2062616c616e636520717565727920666f7220746865207a60448201526a65726f206164647265737360a81b60648201526084015b60405180910390fd5b506000818152602081815260408083206001600160a01b03861684529091529020545b92915050565b60006106ce82611d8f565b806106bd57506106bd82611ddf565b6060600280546106ec906133ab565b80601f0160208091040260200160405190810160405280929190818152602001828054610718906133ab565b80156107655780601f1061073a57610100808354040283529160200191610765565b820191906000526020600020905b81548152906001019060200180831161074857829003601f168201915b50505050509050919050565b6001600160a01b03841660009081526010602090815260408083208684528252808320858452909152812080548392906107ac908490613351565b90915550600090506107bc611e04565b905060006107ca8385613332565b90506107d7828783611e29565b60006107e587878787611f1b565b9050818111156108455760405162461bcd60e51b815260206004820152602560248201527f43616e6e6f742074616b65206d6f72652066656573207468616e2074686520706044820152643934b1b29760d91b6064820152608401610691565b61085187848887612027565b85876001600160a01b0316846001600160a01b03167fe90359125940e7c9b26005d19d4d8a2a5335ea8bef094bcd61bb8f8091cad11788886040516108979291906132a1565b60405180910390a450505050505050565b60009081526003602052604090206001015490565b6001600160a01b0382166000908152600860205260408120815b815481101561094b57600082828154811061090257634e487b7160e01b600052603260045260246000fd5b6000918252602090912060029091020180549091506001600160a01b0386811691161415610938576001015492506106bd915050565b508061094381613412565b9150506108d7565b506000949350505050565b6000610960611e04565b905061096e81600084611e29565b6040518281526000906001600160a01b03831690600080516020613533833981519152906020015b60405180910390a35050565b8151835114610a045760405162461bcd60e51b815260206004820152602860248201527f455243313135353a2069647320616e6420616d6f756e7473206c656e677468206044820152670dad2e6dac2e8c6d60c31b6064820152608401610691565b6001600160a01b038416610a2a5760405162461bcd60e51b8152600401610691906131c6565b610a32611e04565b6001600160a01b0316856001600160a01b03161480610a585750610a5885610611611e04565b610abf5760405162461bcd60e51b815260206004820152603260248201527f455243313135353a207472616e736665722063616c6c6572206973206e6f74206044820152711bdddb995c881b9bdc88185c1c1c9bdd995960721b6064820152608401610691565b6000610ac9611e04565b9050610ad981878787878761210d565b60005b8451811015610c26576000858281518110610b0757634e487b7160e01b600052603260045260246000fd5b602002602001015190506000858381518110610b3357634e487b7160e01b600052603260045260246000fd5b602090810291909101810151600084815280835260408082206001600160a01b038e168352909352919091205490915081811015610b835760405162461bcd60e51b815260040161069190613257565b610b8d8282613351565b60008085815260200190815260200160002060008c6001600160a01b03166001600160a01b03168152602001908152602001600020819055508160008085815260200190815260200160002060008b6001600160a01b03166001600160a01b031681526020019081526020016000206000828254610c0b91906132d2565b9250508190555050505080610c1f90613412565b9050610adc565b50846001600160a01b0316866001600160a01b0316826001600160a01b03167f4a39dc06d4c0dbc64b70af90fd698a233a518aa5d07e595d983b8c0526c8f7fb8787604051610c76929190613146565b60405180910390a4610c8c818787878787612185565b505050505050565b610c9d826108a8565b610cae81610ca9611e04565b6122f0565b610cb88383612354565b505050565b610cc5611e04565b6001600160a01b0316816001600160a01b031614610d3d5760405162461bcd60e51b815260206004820152602f60248201527f416363657373436f6e74726f6c3a2063616e206f6e6c792072656e6f756e636560448201526e103937b632b9903337b91039b2b63360891b6064820152608401610691565b610d4782826123db565b5050565b6000610d55611e04565b9050610d618184612460565b610d6a57600080fd5b6000838152600f60205260409020548211610de25760405162461bcd60e51b815260206004820152603260248201527f526f79616c7469657320636f6e66696775726174696f6e2063616e6e6f74206260448201527132903ab73637b1b5b2b21032b0b93634b2b960711b6064820152608401610691565b6000838152600f6020526040908190208390555183907f7bdd35d2167385bdbed0892e34b48298770ffce27fe71928c767071865f5154490610e279085815260200190565b60405180910390a2505050565b6001600160601b0319606084901b1663ffffffff60401b604084901b16176001600160401b038216179392505050565b6001600160a01b038116610ec55760405162461bcd60e51b815260206004820152602260248201527f426164204368696c64436861696e4d616e6167657250726f7879206164647265604482015261737360f01b6064820152608401610691565b6004546001600160a01b0316610ed9611e04565b6001600160a01b031614610f635760405162461bcd60e51b8152602060048201526044602482018190527f4f6e6c79207468652063757272656e7420436861696e4d616e61676572206973908201527f20616c6c6f77656420746f206368616e67652074686520436861696e4d616e6160648201526333b2b91760e11b608482015260a401610691565b600480546001600160a01b0319166001600160a01b0392909216919091179055565b60086020528160005260406000208181548110610fa157600080fd5b6000918252602090912060029091020180546001909101546001600160a01b039091169250905082565b606081518351146110305760405162461bcd60e51b815260206004820152602960248201527f455243313135353a206163636f756e747320616e6420696473206c656e677468604482015268040dad2e6dac2e8c6d60bb1b6064820152608401610691565b600083516001600160401b0381111561105957634e487b7160e01b600052604160045260246000fd5b604051908082528060200260200182016040528015611082578160200160208202803683370190505b50905060005b8451811015611124576110e98582815181106110b457634e487b7160e01b600052603260045260246000fd5b60200260200101518583815181106110dc57634e487b7160e01b600052603260045260246000fd5b6020026020010151610629565b82828151811061110957634e487b7160e01b600052603260045260246000fd5b602090810291909101015261111d81613412565b9050611088565b509392505050565b6000808383604051602001611142929190612f7f565b60408051808303601f19018152919052805160209091012060601c949350505050565b60006106bd6000805160206135538339815191528361119a565b600061119361118c611e04565b8484612473565b9392505050565b60009182526003602090815260408084206001600160a01b0393909316845291905290205460ff1690565b6000806111d284846108bd565b905060006111e1856000610629565b9050600060065483836111f49190613332565b6111fe9190613312565b9695505050505050565b816001600160a01b031661121a611e04565b6001600160a01b031614156112835760405162461bcd60e51b815260206004820152602960248201527f455243313135353a2073657474696e6720617070726f76616c20737461747573604482015268103337b91039b2b63360b91b6064820152608401610691565b8060016000611290611e04565b6001600160a01b03908116825260208083019390935260409182016000908120918716808252919093529120805460ff1916921515929092179091556112d4611e04565b6001600160a01b03167f17307eab39ab6107e8899845ad3d59bd9653f200f220920489ca2b5937696c3183604051610996911515815260200190565b600061131d826000610629565b6001600160a01b03831660009081526008602052604081209192505b81548110156113c257600082828154811061136457634e487b7160e01b600052603260045260246000fd5b9060005260206000209060020201905060006006548260010154866113899190613332565b6113939190613312565b82549091506113ad9087906001600160a01b031683611e29565b505080806113ba90613412565b915050611339565b50505050565b60006113d2611e04565b90506113de8189612460565b6114405760405162461bcd60e51b815260206004820152602d60248201527f4f6e6c792074686520697373756572206f662074686973204e46542063616e2060448201526c73657420726f79616c7469657360981b6064820152608401610691565b6000888152600f60205260409020544210156114b05760405162461bcd60e51b815260206004820152602960248201527f526f79616c7469657320636f6e66696775726174696f6e206973206c6f636b656044820152686420666f72206e6f7760b81b6064820152608401610691565b6001600160a01b0387161515806114ce5750851580156114ce575084155b6114ea5760405162461bcd60e51b81526004016106919061320b565b600088815260096020908152604080832080546001600160a01b0319166001600160a01b038c811691909117909155600a83528184208a9055600b9092529091208690558416151580611544575082158015611544575081155b6115605760405162461bcd60e51b81526004016106919061320b565b6000888152600c6020908152604080832080546001600160a01b0319166001600160a01b038916179055600d8252808320869055600e909152908190208390555188907f3df2272e42784a2455bbbdcdf25ae0f67d41f801896514cc4cd255aa8ee75e4c906115da908a908a908a908a908a908a906130f9565b60405180910390a25050505050505050565b600081518351146116605760405162461bcd60e51b815260206004820152603860248201527f417272617973206f66206f776e65727320616e64206672616374696f6e73206d6044820152770eae6e840d0c2ecca40e8d0ca40e6c2daca40d8cadccee8d60431b6064820152608401610691565b600754835111156116a55760405162461bcd60e51b815260206004820152600f60248201526e546f6f206d616e792073686172657360881b6044820152606401610691565b60006116b1848461112c565b6001600160a01b0381166000908152600860205260409020805491925090156117195760405162461bcd60e51b815260206004820152601a602482015279546865206163636f756e7420616c72656164792065786973747360301b6044820152606401610691565b6000805b86518110156118ac57600087828151811061174857634e487b7160e01b600052603260045260246000fd5b60200260200101519050600087838151811061177457634e487b7160e01b600052603260045260246000fd5b6020026020010151905060006001600160a01b0316826001600160a01b0316141580156117a057508015155b6117e95760405162461bcd60e51b815260206004820152601a6024820152790c081d985b1d595cc8185c99481b9bdd081c195c9b5a5d1d195960321b6044820152606401610691565b604080518082019091526001600160a01b0383811682526020808301848152885460018082018b5560008b8152939093209451600290910290940180546001600160a01b03191694909316939093178255915191015561184981856132d2565b9350816001600160a01b0316866001600160a01b03167e6fb9851f1fd2fbc9fa36680d17e1254999a38e5f3c76c3a1ecc126a464601b8360405161188f91815260200190565b60405180910390a3505080806118a490613412565b91505061171d565b5060065481146118fe5760405162461bcd60e51b815260206004820152601e60248201527f546f74616c206672616374696f6e73206d7573742062652031302c30303000006044820152606401610691565b5090949350505050565b6004546001600160a01b031661191c611e04565b6001600160a01b0316146119865760405162461bcd60e51b815260206004820152602b60248201527f4f6e6c792074686520436861696e4d616e6167657220697320616c6c6f77656460448201526a081d1bc819195c1bdcda5d60aa1b6064820152608401610691565b600061199482840184612db8565b90506119a260008583611e29565b6040518181526001600160a01b03851690600090600080516020613533833981519152906020015b60405180910390a350505050565b6119e1826108a8565b6119ed81610ca9611e04565b610cb883836123db565b6000611a01611e04565b6001600160a01b03811660008181526010602090815260408083208984528252808320888452909152908190208590555191925085917fad4829b01cc71f2506ee7b9f470f95858c6cde6d8b7fa1a69cb3dff444c17960906119ca90879087906132a1565b6000828152600a6020908152604080832054600b83528184205460099093529083205490929081906001600160a01b039081169086168114611ae6576000611aae82886108bd565b600654909150611abe8288613332565b611ac89190613312565b600654909650611ad88287613332565b611ae29190613312565b9450505b6000878152600d6020908152604080832054600e835281842054600c90935292205491945092506001600160a01b039081169087168114611b65576000611b2d82896108bd565b600654909150611b3d8287613332565b611b479190613312565b600654909550611b578286613332565b611b619190613312565b9350505b505092959194509250565b6000611b8a6000805160206135738339815191528361119a565b15611b97575060016106bd565b6001600160a01b0380841660009081526001602090815260408083209386168352929052205460ff16611193565b6001600160a01b038416611beb5760405162461bcd60e51b8152600401610691906131c6565b611bf3611e04565b6001600160a01b0316856001600160a01b03161480611c195750611c1985610611611e04565b611c775760405162461bcd60e51b815260206004820152602960248201527f455243313135353a2063616c6c6572206973206e6f74206f776e6572206e6f7260448201526808185c1c1c9bdd995960ba1b6064820152608401610691565b6000611c81611e04565b9050611ca1818787611c928861250f565b611c9b8861250f565b8761210d565b6000848152602081815260408083206001600160a01b038a16845290915290205483811015611ce25760405162461bcd60e51b815260040161069190613257565b611cec8482613351565b6000868152602081815260408083206001600160a01b038c81168552925280832093909355881681529081208054869290611d289084906132d2565b92505081905550856001600160a01b0316876001600160a01b0316836001600160a01b03166000805160206135138339815191528888604051611d6c9291906132a1565b60405180910390a4611d82828888888888612568565b50505050505050565b3390565b60006001600160e01b03198216636cdb3d1360e11b1480611dc057506001600160e01b031982166303a24d0760e21b145b806106bd57506301ffc9a760e01b6001600160e01b03198316146106bd565b60006001600160e01b03198216637965db0b60e01b14806106bd57506106bd82611d8f565b6000611e0f33611165565b15611e21575060131936013560601c90565b503390565b90565b6001600160a01b03831660009081526000805160206135b3833981519152602052604090205481811015611e6f5760405162461bcd60e51b815260040161069190613257565b611e798282613351565b6001600160a01b0385811660009081526000805160206135b383398151915260205260408082209390935590851681529081208054849290611ebc9084906132d2565b9091555060009050611ecc611e04565b9050836001600160a01b0316856001600160a01b0316826001600160a01b0316600080516020613513833981519152600087604051611f0c9291906132a1565b60405180910390a45050505050565b600083611f2a5750600061201f565b611f426000805160206135938339815191523361119a565b15611f4f5750600061201f565b600080600080611f5f8989612460565b90508015611f9e576000888152600a6020908152604080832054600b835281842054600990935292205491955093506001600160a01b03169150611fd1565b6000888152600d6020908152604080832054600e835281842054600c90935292205491955093506001600160a01b031691505b600654600090611fe1868a613332565b611feb9190613312565b905083811015611ff85750825b60006120048883613332565b90508015612017576120178b8583611e29565b955050505050505b949350505050565b6000828152602081815260408083206001600160a01b0388168452909152902054818110156120685760405162461bcd60e51b815260040161069190613257565b6120728282613351565b6000848152602081815260408083206001600160a01b038a811685529252808320939093558616815290812080548492906120ae9084906132d2565b90915550600090506120be611e04565b9050846001600160a01b0316866001600160a01b0316826001600160a01b031660008051602061351383398151915287876040516120fd9291906132a1565b60405180910390a4505050505050565b60005b8351811015611d82576121748685838151811061213d57634e487b7160e01b600052603260045260246000fd5b6020026020010151600086858151811061216757634e487b7160e01b600052603260045260246000fd5b6020026020010151611f1b565b5061217e81613412565b9050612110565b6001600160a01b0384163b15610c8c5760405163bc197c8160e01b81526001600160a01b0385169063bc197c81906121c99089908990889088908890600401613056565b602060405180830381600087803b1580156121e357600080fd5b505af1925050508015612213575060408051601f3d908101601f1916820190925261221091810190612e0e565b60015b6122c05761221f613459565b806308c379a014156122595750612234613470565b8061223f575061225b565b8060405162461bcd60e51b8152600401610691919061316b565b505b60405162461bcd60e51b815260206004820152603460248201527f455243313135353a207472616e7366657220746f206e6f6e20455243313135356044820152732932b1b2b4bb32b91034b6b83632b6b2b73a32b960611b6064820152608401610691565b6001600160e01b0319811663bc197c8160e01b14611d825760405162461bcd60e51b81526004016106919061317e565b6122fa828261119a565b610d4757612312816001600160a01b03166014612632565b61231d836020612632565b60405160200161232e929190612fe7565b60408051601f198184030181529082905262461bcd60e51b82526106919160040161316b565b61235e828261119a565b610d475760008281526003602090815260408083206001600160a01b03851684529091529020805460ff19166001179055612397611e04565b6001600160a01b0316816001600160a01b0316837f2f8788117e7eff1d82e926ec794901d17c78024a50270940304540a733656f0d60405160405180910390a45050565b6123e5828261119a565b15610d475760008281526003602090815260408083206001600160a01b03851684529091529020805460ff1916905561241c611e04565b6001600160a01b0316816001600160a01b0316837ff6391f5c32d9c69d2a47ea670b442974b53935d1edc7fd64eb21e047a839171b60405160405180910390a45050565b60601c6001600160a01b03919091161490565b6001600160a01b03831660009081526005602052604081205463ffffffff1661249d8160016132ea565b6001600160a01b0386166000908152600560205260408120805463ffffffff191663ffffffff93909316929092179091556124d9868387610e34565b90506000856001600160401b0316116124f157600080fd5b6125068682876001600160401b031687612813565b95945050505050565b6040805160018082528183019092526060916000919060208083019080368337019050509050828160008151811061255757634e487b7160e01b600052603260045260246000fd5b602090810291909101015292915050565b6001600160a01b0384163b15610c8c5760405163f23a6e6160e01b81526001600160a01b0385169063f23a6e61906125ac90899089908890889088906004016130b4565b602060405180830381600087803b1580156125c657600080fd5b505af19250505080156125f6575060408051601f3d908101601f191682019092526125f391810190612e0e565b60015b6126025761221f613459565b6001600160e01b0319811663f23a6e6160e01b14611d825760405162461bcd60e51b81526004016106919061317e565b60606000612641836002613332565b61264c9060026132d2565b6001600160401b0381111561267157634e487b7160e01b600052604160045260246000fd5b6040519080825280601f01601f19166020018201604052801561269b576020820181803683370190505b509050600360fc1b816000815181106126c457634e487b7160e01b600052603260045260246000fd5b60200101906001600160f81b031916908160001a905350600f60fb1b8160018151811061270157634e487b7160e01b600052603260045260246000fd5b60200101906001600160f81b031916908160001a9053506000612725846002613332565b6127309060016132d2565b90505b60018111156127c4576f181899199a1a9b1b9c1cb0b131b232b360811b85600f166010811061277257634e487b7160e01b600052603260045260246000fd5b1a60f81b82828151811061279657634e487b7160e01b600052603260045260246000fd5b60200101906001600160f81b031916908160001a90535060049490941c936127bd81613394565b9050612733565b5083156111935760405162461bcd60e51b815260206004820181905260248201527f537472696e67733a20686578206c656e67746820696e73756666696369656e746044820152606401610691565b6001600160a01b0384166128735760405162461bcd60e51b815260206004820152602160248201527f455243313135353a206d696e7420746f20746865207a65726f206164647265736044820152607360f81b6064820152608401610691565b600061287d611e04565b905061288f81600087611c928861250f565b6000848152602081815260408083206001600160a01b0389168452909152812080548592906128bf9084906132d2565b92505081905550846001600160a01b031660006001600160a01b0316826001600160a01b031660008051602061351383398151915287876040516129049291906132a1565b60405180910390a461291b81600087878787612568565b5050505050565b80356001600160a01b038116811461293957600080fd5b919050565b600082601f83011261294e578081fd5b8135602061295b826132af565b60405161296882826133e6565b8381528281019150858301600585901b87018401881015612987578586fd5b855b858110156129a557813584529284019290840190600101612989565b5090979650505050505050565b600082601f8301126129c2578081fd5b81356001600160401b038111156129db576129db613443565b6040516129f2601f8301601f1916602001826133e6565b818152846020838601011115612a06578283fd5b816020850160208301379081016020019190915292915050565b80356001600160401b038116811461293957600080fd5b600060208284031215612a48578081fd5b61119382612922565b60008060408385031215612a63578081fd5b612a6c83612922565b9150612a7a60208401612922565b90509250929050565b600080600080600060a08688031215612a9a578081fd5b612aa386612922565b9450612ab160208701612922565b935060408601356001600160401b0380821115612acc578283fd5b612ad889838a0161293e565b94506060880135915080821115612aed578283fd5b612af989838a0161293e565b93506080880135915080821115612b0e578283fd5b50612b1b888289016129b2565b9150509295509295909350565b600080600080600060a08688031215612b3f578081fd5b612b4886612922565b9450612b5660208701612922565b9350604086013592506060860135915060808601356001600160401b03811115612b7e578182fd5b612b1b888289016129b2565b60008060408385031215612b9c578182fd5b612ba583612922565b915060208301358015158114612bb9578182fd5b809150509250929050565b600080600060408486031215612bd8578283fd5b612be184612922565b925060208401356001600160401b0380821115612bfc578384fd5b818601915086601f830112612c0f578384fd5b813581811115612c1d578485fd5b876020828501011115612c2e578485fd5b6020830194508093505050509250925092565b60008060408385031215612c53578182fd5b612c5c83612922565b946020939093013593505050565b60008060008060808587031215612c7f578182fd5b612c8885612922565b966020860135965060408601359560600135945092505050565b600080600060608486031215612cb6578081fd5b612cbf84612922565b9250602084013563ffffffff81168114612cd7578182fd5b9150612ce560408501612a20565b90509250925092565b60008060408385031215612d00578182fd5b82356001600160401b0380821115612d16578384fd5b818501915085601f830112612d29578384fd5b81356020612d36826132af565b604051612d4382826133e6565b8381528281019150858301600585901b870184018b1015612d62578889fd5b8896505b84871015612d8b57612d7781612922565b835260019690960195918301918301612d66565b5096505086013592505080821115612da1578283fd5b50612dae8582860161293e565b9150509250929050565b600060208284031215612dc9578081fd5b5035919050565b60008060408385031215612de2578182fd5b82359150612a7a60208401612922565b600060208284031215612e03578081fd5b8135611193816134f9565b600060208284031215612e1f578081fd5b8151611193816134f9565b600080600080600080600060e0888a031215612e44578485fd5b87359650612e5460208901612922565b95506040880135945060608801359350612e7060808901612922565b925060a0880135915060c0880135905092959891949750929550565b60008060408385031215612e9e578182fd5b50508035926020909101359150565b600080600060608486031215612ec1578081fd5b505081359360208301359350604090920135919050565b60008060408385031215612eea578182fd5b612ef383612a20565b915060208301356001600160401b03811115612f0d578182fd5b612dae858286016129b2565b6000815180845260208085019450808401835b83811015612f4857815187529582019590820190600101612f2c565b509495945050505050565b60008151808452612f6b816020860160208601613368565b601f01601f19169290920160200192915050565b825160009082906020808701845b83811015612fb25781516001600160a01b031685529382019390820190600101612f8d565b50508551818701939250845b81811015612fda57845184529382019392820192600101612fbe565b5091979650505050505050565b76020b1b1b2b9b9a1b7b73a3937b61d1030b1b1b7bab73a1604d1b815260008351613019816017850160208801613368565b7001034b99036b4b9b9b4b733903937b6329607d1b601791840191820152835161304a816028840160208801613368565b01602801949350505050565b6001600160a01b0386811682528516602082015260a06040820181905260009061308290830186612f19565b82810360608401526130948186612f19565b905082810360808401526130a88185612f53565b98975050505050505050565b6001600160a01b03868116825285166020820152604081018490526060810183905260a0608082018190526000906130ee90830184612f53565b979650505050505050565b6001600160a01b0396871681526020810195909552604085019390935293166060830152608082019290925260a081019190915260c00190565b6020815260006111936020830184612f19565b6040815260006131596040830185612f19565b82810360208401526125068185612f19565b6020815260006111936020830184612f53565b60208082526028908201527f455243313135353a204552433131353552656365697665722072656a656374656040820152676420746f6b656e7360c01b606082015260800190565b60208082526025908201527f455243313135353a207472616e7366657220746f20746865207a65726f206164604082015264647265737360d81b606082015260800190565b6020808252602c908201527f546865206163636f756e74206d757374206e6f7420626520302c20756e6c657360408201526b07320666565732061726520360a41b606082015260800190565b6020808252602a908201527f455243313135353a20696e73756666696369656e742062616c616e636520666f60408201526939103a3930b739b332b960b11b606082015260800190565b918252602082015260400190565b60006001600160401b038211156132c8576132c8613443565b5060051b60200190565b600082198211156132e5576132e561342d565b500190565b600063ffffffff8083168185168083038211156133095761330961342d565b01949350505050565b60008261332d57634e487b7160e01b81526012600452602481fd5b500490565b600081600019048311821515161561334c5761334c61342d565b500290565b6000828210156133635761336361342d565b500390565b60005b8381101561338357818101518382015260200161336b565b838111156113c25750506000910152565b6000816133a3576133a361342d565b506000190190565b600181811c908216806133bf57607f821691505b602082108114156133e057634e487b7160e01b600052602260045260246000fd5b50919050565b601f8201601f191681016001600160401b038111828210171561340b5761340b613443565b6040525050565b60006000198214156134265761342661342d565b5060010190565b634e487b7160e01b600052601160045260246000fd5b634e487b7160e01b600052604160045260246000fd5b600060033d1115611e2657600481823e5160e01c90565b600060443d101561347e5790565b6040516003193d81016004833e81513d6001600160401b0380831160248401831017156134ad57505050505090565b82850191508151818111156134c55750505050505090565b843d87010160208285010111156134df5750505050505090565b6134ee602082860101876133e6565b509095945050505050565b6001600160e01b03198116811461350f57600080fd5b5056fec3d58168c5ae7397731d063d5bbf3d657854427343f4c083240f7aacaa2d0f62ddf252ad1be2c89b69c2b068fc378daa952ba7f163c4a11628f55a4df523b3ef3d2e894c222ba979e2dce2c7d940c0e9bb14306669e9f034eb1bb3979a2069d8626f510646502d065065e8bd550325973a611a32e6f6ddff40650005cb13636820a4be6e7127e439f48d6654377d19402cb883dd85029e600de9e17052f903d3ad3228b676f7d3cd4284a5443f17f1962b36e491b30a40b2405849e597ba5fb5a2646970667358221220e87222384779347f8885e2d55e011b447126377959f91abbd9afe5d30e6dcd8c64736f6c6343000804003368747470733a2f2f636572652e6e6574776f726b2f6e66742f7b69647d2e6a736f6e",
  "immutableReferences": {},
  "source": "pragma solidity ^0.8.0;\n\nimport \"./SimpleExchange.sol\";\n\n/** Main contract, including all components.\n\n- Hold and transfer NFTs using ERC1155.\n- Support atomic exchanges of NFTs for currency.\n- Issuance of NFTs with fixed supply.\n- Joint Accounts that distribute their funds over multiple owners.\n- Capture royalties on primary and secondary transfers, configurable per NFT type.\n*/\ncontract Davinci is /*\n    ERC1155,\n    AccessControl,\n    BaseNFT,\n    Currency,\n    TransferOperator,\n    MetaTxContext,\n    PolygonChildERC20,\n    Issuance,\n    JointAccounts,\n    TransferFees,\n    */ SimpleExchange {\n\n}\n",
  "sourcePath": "/home/a/CERE/davinci-nft/contracts/polygon/Davinci.sol",
  "compiler": {
    "name": "solc",
    "version": "0.8.4+commit.c7e474f2.Emscripten.clang"
  },
  "schemaVersion": "3.4.1",
  "updatedAt": "2021-08-09T18:15:10.852Z",
  "networkType": "ethereum",
  "devdoc": {
    "kind": "dev",
    "methods": {
      "balanceOf(address,uint256)": {
        "details": "See {IERC1155-balanceOf}. Requirements: - `account` cannot be the zero address."
      },
      "balanceOfBatch(address[],uint256[])": {
        "details": "See {IERC1155-balanceOfBatch}. Requirements: - `accounts` and `ids` must have the same length."
      },
      "getRoleAdmin(bytes32)": {
        "details": "Returns the admin role that controls `role`. See {grantRole} and {revokeRole}. To change a role's admin, use {_setRoleAdmin}."
      },
      "grantRole(bytes32,address)": {
        "details": "Grants `role` to `account`. If `account` had not been already granted `role`, emits a {RoleGranted} event. Requirements: - the caller must have ``role``'s admin role."
      },
      "hasRole(bytes32,address)": {
        "details": "Returns `true` if `account` has been granted `role`."
      },
      "renounceRole(bytes32,address)": {
        "details": "Revokes `role` from the calling account. Roles are often managed via {grantRole} and {revokeRole}: this function's purpose is to provide a mechanism for accounts to lose their privileges if they are compromised (such as when a trusted device is misplaced). If the calling account had been granted `role`, emits a {RoleRevoked} event. Requirements: - the caller must be `account`."
      },
      "revokeRole(bytes32,address)": {
        "details": "Revokes `role` from `account`. If `account` had been granted `role`, emits a {RoleRevoked} event. Requirements: - the caller must have ``role``'s admin role."
      },
      "safeBatchTransferFrom(address,address,uint256[],uint256[],bytes)": {
        "details": "See {IERC1155-safeBatchTransferFrom}."
      },
      "safeTransferFrom(address,address,uint256,uint256,bytes)": {
        "details": "See {IERC1155-safeTransferFrom}."
      },
      "setApprovalForAll(address,bool)": {
        "details": "See {IERC1155-setApprovalForAll}."
      },
      "uri(uint256)": {
        "details": "See {IERC1155MetadataURI-uri}. This implementation returns the same URI for *all* token types. It relies on the token type ID substitution mechanism https://eips.ethereum.org/EIPS/eip-1155#metadata[defined in the EIP]. Clients calling this function must replace the `\\{id\\}` substring with the actual token type ID."
      }
    },
    "version": 1
  },
  "userdoc": {
    "events": {
      "JointAccountShareCreated(address,address,uint256)": {
        "notice": "Notify that a Joint Account was created at the address `account`. One such event is emitted for each owner, including his fraction of the account in basis points (1% of 1%)."
      },
      "RoyaltiesConfigured(uint256,address,uint256,uint256,address,uint256,uint256)": {
        "notice": "Notify that royalties were configured on an NFT type."
      },
      "RoyaltiesLocked(uint256,uint256)": {
        "notice": "Notify that royalties are locked and cannot change, until the given time (in UNIX seconds), or forever (lockUntil = 0xFFFFFFFF)."
      },
      "Transfer(address,address,uint256)": {
        "notice": "ERC20 Transfer event for bridging this ERC1155 contract to ERC20 on Ethereum."
      }
    },
    "kind": "user",
    "methods": {
      "BASIS_POINTS()": {
        "notice": "The total fraction representing 100% of an account."
      },
      "CURRENCY()": {
        "notice": "The token ID that represents the CERE currency for all payments in this contract. "
      },
      "CURRENCY_SUPPLY()": {
        "notice": "The global supply of CERE tokens on all chains. That is 10 billion tokens, with 10 decimals."
      },
      "balanceOfJAOwner(address,address)": {
        "notice": "Calculate the amount of tokens that an owner of a Joint Account can withdraw right now."
      },
      "childChainManagerProxy()": {
        "notice": "The address of the Polygon bridge contract that is allowed to deposit tokens. "
      },
      "configureRoyalties(uint256,address,uint256,uint256,address,uint256,uint256)": {
        "notice": "Configure the amounts and beneficiaries of royalties on primary and secondary transfers of this NFT. This configuration is available to the issuer of this NFT. A transfer is primary if it comes from the issuer of this NFT (normally the first sale after issuance). Otherwise, it is a secondary transfer. A royalty is defined in two parts (both optional): a cut of the sale price of an NFT, and a minimum royalty per transfer. For simple transfers not attached to a price, or a too low price, the minimum royalty is charged. The cuts are given in basis points (1% of 1%). The minimums are given in currency amounts. The configuration can be changed at any time by default. However, the issuer may commit to it for a period of time, effectively giving up his ability to modify the royalties. See the function lockRoyalties. There can be one beneficiary account for each primary and secondary royalties. To distribute revenues amongst several parties, use a Joint Account (see function createJointAccount)."
      },
      "createJointAccount(address[],uint256[])": {
        "notice": "Create an account such that multiple owners have a claim on their respective share. The size of a share is given as a fraction in basis points (1% of 1%). The sum of share fractions must equal 10,000. Anyone can create Joint Accounts including any owners."
      },
      "currencyInBridge()": {
        "notice": "Return the total amount of currency available in the bridge, which can be deposited into this contract."
      },
      "deposit(address,bytes)": {
        "notice": "Deposit currency from Ethereum into a user account in this contract. This is implemented by moving tokens from the bridge account to the user account. Two events will be emitted: ERC20 Transfer for the relayers, and ERC1155 TransferSingle like all transfers. There is an extra encoding necessary for the amount. In JavaScript, add this: `web3.eth.abi.encodeParameter('uint256', amount)`"
      },
      "distributeJointAccount(address)": {
        "notice": "Distribute all tokens available to all owners of a Joint Account. The function createJointAccount must be called beforehand. Anyone can trigger the distribution."
      },
      "fractionOfJAOwner(address,address)": {
        "notice": "Return the fraction of an account owned by the given address, in basis points (1% of 1%). If the account does not exist, or if the given address is not an owner of it, this returns 0. If the owner appears more than once in the account, this reports only the first share."
      },
      "getNftId(address,uint32,uint64)": {
        "notice": "Calculate the ID of an NFT type, identifying its issuer, its supply, and an arbitrary nonce."
      },
      "getRoyalties(uint256)": {
        "notice": "Return the current configuration of royalties for NFTs of type nftId, as set by configureRoyalties."
      },
      "getRoyaltiesForBeneficiary(uint256,address)": {
        "notice": "Return the amount of royalties earned by a beneficiary on each primary and secondary transfer of an NFT. This function supports Joint Accounts. If royalties are paid to a JA and beneficiary is an owner of the JA, the shares of the royalties for this owner are returned."
      },
      "isApprovedForAll(address,address)": {
        "notice": "Return true for operators with the role TRANSFER_OPERATOR. Otherwise, apply the standard approval logic of ERC1155. See {IERC1155-isApprovedForAll}."
      },
      "issuanceNonces(address)": {
        "notice": "A counter of NFT types issued by each issuer. This is used to generate unique NFT IDs."
      },
      "issue(uint64,bytes)": {
        "notice": "Issue a supply of NFTs of a new type, and return its ID. No more NFT of this type can be issued again. The caller will be recorded as the issuer and it will initially own the entire supply."
      },
      "lockRoyalties(uint256,uint256)": {
        "notice": "Lock the configuration of royalties for this NFT type. Only the issuer may lock the configuration, after which he himself will no longer be able to change the configuration, for some time, or forever. Set lockUntil to a time in the future to lock the configuration until the specified time (in UNIX seconds). Set to 0xFFFFFFFF to lock forever."
      },
      "makeAddressOfJointAccount(address[],uint256[])": {
        "notice": "Generate a unique address identifying a list of owners and shares. It may be used to predict the address of a Joint Account and receive payments even before calling the function createJointAccount."
      },
      "makeOffer(uint256,uint256,uint256)": {
        "notice": "Create an offer to sell an amount of NFTs for a price per unit. To cancel, call again with an amount of 0."
      },
      "supportsInterface(bytes4)": {
        "notice": "Supports interfaces of AccessControl, ERC1155, and ERC1155 MetadataURI."
      },
      "takeOffer(address,uint256,uint256,uint256)": {
        "notice": "Accept an offer, paying the price per unit for an amount of NFTs. The offer must have been created beforehand by offerToSell."
      },
      "updateChildChainManager(address)": {
        "notice": "Change the ChainManager, which can deposit currency into any account. Only the current ChainManager is allowed to change the ChainManager."
      },
      "withdraw(uint256)": {
        "notice": "Withdraw currency from a user account in this contract to Ethereum. This is implemented by moving tokens from the user account to the bridge account. Two events will be emitted: ERC20 Transfer for the relayers, and ERC1155 TransferSingle like all transfers."
      }
    },
    "notice": "Main contract, including all components. - Hold and transfer NFTs using ERC1155. - Support atomic exchanges of NFTs for currency. - Issuance of NFTs with fixed supply. - Joint Accounts that distribute their funds over multiple owners. - Capture royalties on primary and secondary transfers, configurable per NFT type.",
    "version": 1
  }
}