{
  "contractName": "Davinci",
  "abi": [
    {
      "anonymous": false,
      "inputs": [
        {
          "indexed": true,
          "internalType": "address",
          "name": "account",
          "type": "address"
        },
        {
          "indexed": true,
          "internalType": "address",
          "name": "operator",
          "type": "address"
        },
        {
          "indexed": false,
          "internalType": "bool",
          "name": "approved",
          "type": "bool"
        }
      ],
      "name": "ApprovalForAll",
      "type": "event"
    },
    {
      "anonymous": false,
      "inputs": [
        {
          "indexed": true,
          "internalType": "address",
          "name": "account",
          "type": "address"
        },
        {
          "indexed": true,
          "internalType": "address",
          "name": "owner",
          "type": "address"
        },
        {
          "indexed": false,
          "internalType": "uint256",
          "name": "fraction",
          "type": "uint256"
        }
      ],
      "name": "JointAccountShareCreated",
      "type": "event"
    },
    {
      "anonymous": false,
      "inputs": [
        {
          "indexed": true,
          "internalType": "uint256",
          "name": "nftId",
          "type": "uint256"
        },
        {
          "indexed": false,
          "internalType": "address",
          "name": "primaryRoyaltyAccount",
          "type": "address"
        },
        {
          "indexed": false,
          "internalType": "uint256",
          "name": "primaryRoyaltyCut",
          "type": "uint256"
        },
        {
          "indexed": false,
          "internalType": "uint256",
          "name": "primaryRoyaltyMinimum",
          "type": "uint256"
        },
        {
          "indexed": false,
          "internalType": "address",
          "name": "secondaryRoyaltyAccount",
          "type": "address"
        },
        {
          "indexed": false,
          "internalType": "uint256",
          "name": "secondaryRoyaltyCut",
          "type": "uint256"
        },
        {
          "indexed": false,
          "internalType": "uint256",
          "name": "secondaryRoyaltyMinimum",
          "type": "uint256"
        }
      ],
      "name": "RoyaltiesConfigured",
      "type": "event"
    },
    {
      "anonymous": false,
      "inputs": [
        {
          "indexed": true,
          "internalType": "uint256",
          "name": "nftId",
          "type": "uint256"
        },
        {
          "indexed": false,
          "internalType": "uint256",
          "name": "lockUntil",
          "type": "uint256"
        }
      ],
      "name": "RoyaltiesLocked",
      "type": "event"
    },
    {
      "anonymous": false,
      "inputs": [
        {
          "indexed": true,
          "internalType": "address",
          "name": "from",
          "type": "address"
        },
        {
          "indexed": true,
          "internalType": "address",
          "name": "to",
          "type": "address"
        },
        {
          "indexed": false,
          "internalType": "uint256",
          "name": "value",
          "type": "uint256"
        }
      ],
      "name": "Transfer",
      "type": "event"
    },
    {
      "anonymous": false,
      "inputs": [
        {
          "indexed": true,
          "internalType": "address",
          "name": "operator",
          "type": "address"
        },
        {
          "indexed": true,
          "internalType": "address",
          "name": "from",
          "type": "address"
        },
        {
          "indexed": true,
          "internalType": "address",
          "name": "to",
          "type": "address"
        },
        {
          "indexed": false,
          "internalType": "uint256[]",
          "name": "ids",
          "type": "uint256[]"
        },
        {
          "indexed": false,
          "internalType": "uint256[]",
          "name": "values",
          "type": "uint256[]"
        }
      ],
      "name": "TransferBatch",
      "type": "event"
    },
    {
      "anonymous": false,
      "inputs": [
        {
          "indexed": true,
          "internalType": "address",
          "name": "operator",
          "type": "address"
        },
        {
          "indexed": true,
          "internalType": "address",
          "name": "from",
          "type": "address"
        },
        {
          "indexed": true,
          "internalType": "address",
          "name": "to",
          "type": "address"
        },
        {
          "indexed": false,
          "internalType": "uint256",
          "name": "id",
          "type": "uint256"
        },
        {
          "indexed": false,
          "internalType": "uint256",
          "name": "value",
          "type": "uint256"
        }
      ],
      "name": "TransferSingle",
      "type": "event"
    },
    {
      "anonymous": false,
      "inputs": [
        {
          "indexed": false,
          "internalType": "string",
          "name": "value",
          "type": "string"
        },
        {
          "indexed": true,
          "internalType": "uint256",
          "name": "id",
          "type": "uint256"
        }
      ],
      "name": "URI",
      "type": "event"
    },
    {
      "inputs": [],
      "name": "BASIS_POINTS",
      "outputs": [
        {
          "internalType": "uint256",
          "name": "",
          "type": "uint256"
        }
      ],
      "stateMutability": "view",
      "type": "function"
    },
    {
      "inputs": [],
      "name": "CURRENCY",
      "outputs": [
        {
          "internalType": "uint256",
          "name": "",
          "type": "uint256"
        }
      ],
      "stateMutability": "view",
      "type": "function"
    },
    {
      "inputs": [],
      "name": "CURRENCY_SUPPLY",
      "outputs": [
        {
          "internalType": "uint256",
          "name": "",
          "type": "uint256"
        }
      ],
      "stateMutability": "view",
      "type": "function"
    },
    {
      "inputs": [],
      "name": "MAX_JOINT_ACCOUNT_SHARES",
      "outputs": [
        {
          "internalType": "uint256",
          "name": "",
          "type": "uint256"
        }
      ],
      "stateMutability": "view",
      "type": "function"
    },
    {
      "inputs": [
        {
          "internalType": "address",
          "name": "account",
          "type": "address"
        },
        {
          "internalType": "uint256",
          "name": "id",
          "type": "uint256"
        }
      ],
      "name": "balanceOf",
      "outputs": [
        {
          "internalType": "uint256",
          "name": "",
          "type": "uint256"
        }
      ],
      "stateMutability": "view",
      "type": "function"
    },
    {
      "inputs": [
        {
          "internalType": "address[]",
          "name": "accounts",
          "type": "address[]"
        },
        {
          "internalType": "uint256[]",
          "name": "ids",
          "type": "uint256[]"
        }
      ],
      "name": "balanceOfBatch",
      "outputs": [
        {
          "internalType": "uint256[]",
          "name": "",
          "type": "uint256[]"
        }
      ],
      "stateMutability": "view",
      "type": "function"
    },
    {
      "inputs": [
        {
          "internalType": "address",
          "name": "account",
          "type": "address"
        },
        {
          "internalType": "address",
          "name": "owner",
          "type": "address"
        }
      ],
      "name": "balanceOfJAOwner",
      "outputs": [
        {
          "internalType": "uint256",
          "name": "",
          "type": "uint256"
        }
      ],
      "stateMutability": "view",
      "type": "function"
    },
    {
      "inputs": [
        {
          "internalType": "address",
          "name": "seller",
          "type": "address"
        },
        {
          "internalType": "uint256",
          "name": "nftId",
          "type": "uint256"
        },
        {
          "internalType": "uint256",
          "name": "price",
          "type": "uint256"
        },
        {
          "internalType": "uint256",
          "name": "amount",
          "type": "uint256"
        }
      ],
      "name": "buyOffer",
      "outputs": [],
      "stateMutability": "nonpayable",
      "type": "function"
    },
    {
      "inputs": [
        {
          "internalType": "uint256",
          "name": "nftId",
          "type": "uint256"
        },
        {
          "internalType": "uint256",
          "name": "price",
          "type": "uint256"
        },
        {
          "internalType": "uint256",
          "name": "amount",
          "type": "uint256"
        },
        {
          "internalType": "bytes",
          "name": "sellerSignature",
          "type": "bytes"
        }
      ],
      "name": "buySignedOffer",
      "outputs": [],
      "stateMutability": "nonpayable",
      "type": "function"
    },
    {
      "inputs": [],
      "name": "childChainManagerProxy",
      "outputs": [
        {
          "internalType": "address",
          "name": "",
          "type": "address"
        }
      ],
      "stateMutability": "view",
      "type": "function"
    },
    {
      "inputs": [
        {
          "internalType": "uint256",
          "name": "nftId",
          "type": "uint256"
        },
        {
          "internalType": "address",
          "name": "primaryRoyaltyAccount",
          "type": "address"
        },
        {
          "internalType": "uint256",
          "name": "primaryRoyaltyCut",
          "type": "uint256"
        },
        {
          "internalType": "uint256",
          "name": "primaryRoyaltyMinimum",
          "type": "uint256"
        },
        {
          "internalType": "address",
          "name": "secondaryRoyaltyAccount",
          "type": "address"
        },
        {
          "internalType": "uint256",
          "name": "secondaryRoyaltyCut",
          "type": "uint256"
        },
        {
          "internalType": "uint256",
          "name": "secondaryRoyaltyMinimum",
          "type": "uint256"
        }
      ],
      "name": "configureRoyalties",
      "outputs": [],
      "stateMutability": "nonpayable",
      "type": "function"
    },
    {
      "inputs": [
        {
          "internalType": "address[]",
          "name": "owners",
          "type": "address[]"
        },
        {
          "internalType": "uint256[]",
          "name": "fractions",
          "type": "uint256[]"
        }
      ],
      "name": "createJointAccount",
      "outputs": [
        {
          "internalType": "address",
          "name": "",
          "type": "address"
        }
      ],
      "stateMutability": "nonpayable",
      "type": "function"
    },
    {
      "inputs": [],
      "name": "currencyInBridge",
      "outputs": [
        {
          "internalType": "uint256",
          "name": "",
          "type": "uint256"
        }
      ],
      "stateMutability": "view",
      "type": "function"
    },
    {
      "inputs": [
        {
          "internalType": "address",
          "name": "user",
          "type": "address"
        },
        {
          "internalType": "bytes",
          "name": "depositData",
          "type": "bytes"
        }
      ],
      "name": "deposit",
      "outputs": [],
      "stateMutability": "nonpayable",
      "type": "function"
    },
    {
      "inputs": [
        {
          "internalType": "address",
          "name": "account",
          "type": "address"
        }
      ],
      "name": "distributeJointAccount",
      "outputs": [],
      "stateMutability": "nonpayable",
      "type": "function"
    },
    {
      "inputs": [
        {
          "internalType": "address",
          "name": "account",
          "type": "address"
        },
        {
          "internalType": "address",
          "name": "maybeOwner",
          "type": "address"
        }
      ],
      "name": "fractionOfJAOwner",
      "outputs": [
        {
          "internalType": "uint256",
          "name": "",
          "type": "uint256"
        }
      ],
      "stateMutability": "view",
      "type": "function"
    },
    {
      "inputs": [
        {
          "internalType": "address",
          "name": "issuer",
          "type": "address"
        },
        {
          "internalType": "uint32",
          "name": "nonce",
          "type": "uint32"
        },
        {
          "internalType": "uint64",
          "name": "supply",
          "type": "uint64"
        }
      ],
      "name": "getNftId",
      "outputs": [
        {
          "internalType": "uint256",
          "name": "",
          "type": "uint256"
        }
      ],
      "stateMutability": "pure",
      "type": "function"
    },
    {
      "inputs": [
        {
          "internalType": "uint256",
          "name": "nftId",
          "type": "uint256"
        }
      ],
      "name": "getRoyalties",
      "outputs": [
        {
          "internalType": "address",
          "name": "primaryRoyaltyAccount",
          "type": "address"
        },
        {
          "internalType": "uint256",
          "name": "primaryRoyaltyCut",
          "type": "uint256"
        },
        {
          "internalType": "uint256",
          "name": "primaryRoyaltyMinimum",
          "type": "uint256"
        },
        {
          "internalType": "address",
          "name": "secondaryRoyaltyAccount",
          "type": "address"
        },
        {
          "internalType": "uint256",
          "name": "secondaryRoyaltyCut",
          "type": "uint256"
        },
        {
          "internalType": "uint256",
          "name": "secondaryRoyaltyMinimum",
          "type": "uint256"
        }
      ],
      "stateMutability": "view",
      "type": "function"
    },
    {
      "inputs": [
        {
          "internalType": "uint256",
          "name": "nftId",
          "type": "uint256"
        },
        {
          "internalType": "address",
          "name": "beneficiary",
          "type": "address"
        }
      ],
      "name": "getRoyaltiesForBeneficiary",
      "outputs": [
        {
          "internalType": "uint256",
          "name": "primaryCut",
          "type": "uint256"
        },
        {
          "internalType": "uint256",
          "name": "primaryMinimum",
          "type": "uint256"
        },
        {
          "internalType": "uint256",
          "name": "secondaryCut",
          "type": "uint256"
        },
        {
          "internalType": "uint256",
          "name": "secondaryMinimum",
          "type": "uint256"
        }
      ],
      "stateMutability": "view",
      "type": "function"
    },
    {
      "inputs": [
        {
          "internalType": "address",
          "name": "account",
          "type": "address"
        },
        {
          "internalType": "address",
          "name": "operator",
          "type": "address"
        }
      ],
      "name": "isApprovedForAll",
      "outputs": [
        {
          "internalType": "bool",
          "name": "",
          "type": "bool"
        }
      ],
      "stateMutability": "view",
      "type": "function"
    },
    {
      "inputs": [
        {
          "internalType": "address",
          "name": "",
          "type": "address"
        }
      ],
      "name": "issuanceNonces",
      "outputs": [
        {
          "internalType": "uint32",
          "name": "",
          "type": "uint32"
        }
      ],
      "stateMutability": "view",
      "type": "function"
    },
    {
      "inputs": [
        {
          "internalType": "uint64",
          "name": "supply",
          "type": "uint64"
        },
        {
          "internalType": "bytes",
          "name": "data",
          "type": "bytes"
        }
      ],
      "name": "issue",
      "outputs": [
        {
          "internalType": "uint256",
          "name": "",
          "type": "uint256"
        }
      ],
      "stateMutability": "nonpayable",
      "type": "function"
    },
    {
      "inputs": [
        {
          "internalType": "address",
          "name": "",
          "type": "address"
        },
        {
          "internalType": "uint256",
          "name": "",
          "type": "uint256"
        }
      ],
      "name": "jointAccounts",
      "outputs": [
        {
          "internalType": "address",
          "name": "owner",
          "type": "address"
        },
        {
          "internalType": "uint256",
          "name": "fraction",
          "type": "uint256"
        }
      ],
      "stateMutability": "view",
      "type": "function"
    },
    {
      "inputs": [
        {
          "internalType": "uint256",
          "name": "nftId",
          "type": "uint256"
        },
        {
          "internalType": "uint256",
          "name": "lockUntil",
          "type": "uint256"
        }
      ],
      "name": "lockRoyalties",
      "outputs": [],
      "stateMutability": "nonpayable",
      "type": "function"
    },
    {
      "inputs": [
        {
          "internalType": "address[]",
          "name": "owners",
          "type": "address[]"
        },
        {
          "internalType": "uint256[]",
          "name": "fractions",
          "type": "uint256[]"
        }
      ],
      "name": "makeAddressOfJointAccount",
      "outputs": [
        {
          "internalType": "address",
          "name": "",
          "type": "address"
        }
      ],
      "stateMutability": "pure",
      "type": "function"
    },
    {
      "inputs": [
        {
          "internalType": "uint256",
          "name": "nftId",
          "type": "uint256"
        },
        {
          "internalType": "uint256",
          "name": "price",
          "type": "uint256"
        },
        {
          "internalType": "uint256",
          "name": "amount",
          "type": "uint256"
        }
      ],
      "name": "offerToSell",
      "outputs": [],
      "stateMutability": "nonpayable",
      "type": "function"
    },
    {
      "inputs": [
        {
          "internalType": "address",
          "name": "from",
          "type": "address"
        },
        {
          "internalType": "address",
          "name": "to",
          "type": "address"
        },
        {
          "internalType": "uint256[]",
          "name": "ids",
          "type": "uint256[]"
        },
        {
          "internalType": "uint256[]",
          "name": "amounts",
          "type": "uint256[]"
        },
        {
          "internalType": "bytes",
          "name": "data",
          "type": "bytes"
        }
      ],
      "name": "safeBatchTransferFrom",
      "outputs": [],
      "stateMutability": "nonpayable",
      "type": "function"
    },
    {
      "inputs": [
        {
          "internalType": "address",
          "name": "from",
          "type": "address"
        },
        {
          "internalType": "address",
          "name": "to",
          "type": "address"
        },
        {
          "internalType": "uint256",
          "name": "id",
          "type": "uint256"
        },
        {
          "internalType": "uint256",
          "name": "amount",
          "type": "uint256"
        },
        {
          "internalType": "bytes",
          "name": "data",
          "type": "bytes"
        }
      ],
      "name": "safeTransferFrom",
      "outputs": [],
      "stateMutability": "nonpayable",
      "type": "function"
    },
    {
      "inputs": [
        {
          "internalType": "address",
          "name": "operator",
          "type": "address"
        },
        {
          "internalType": "bool",
          "name": "approved",
          "type": "bool"
        }
      ],
      "name": "setApprovalForAll",
      "outputs": [],
      "stateMutability": "nonpayable",
      "type": "function"
    },
    {
      "inputs": [
        {
          "internalType": "bytes4",
          "name": "interfaceId",
          "type": "bytes4"
        }
      ],
      "name": "supportsInterface",
      "outputs": [
        {
          "internalType": "bool",
          "name": "",
          "type": "bool"
        }
      ],
      "stateMutability": "view",
      "type": "function"
    },
    {
      "inputs": [
        {
          "internalType": "address",
          "name": "newChildChainManagerProxy",
          "type": "address"
        }
      ],
      "name": "updateChildChainManager",
      "outputs": [],
      "stateMutability": "nonpayable",
      "type": "function"
    },
    {
      "inputs": [
        {
          "internalType": "uint256",
          "name": "",
          "type": "uint256"
        }
      ],
      "name": "uri",
      "outputs": [
        {
          "internalType": "string",
          "name": "",
          "type": "string"
        }
      ],
      "stateMutability": "view",
      "type": "function"
    },
    {
      "inputs": [
        {
          "internalType": "uint256",
          "name": "amount",
          "type": "uint256"
        }
      ],
      "name": "withdraw",
      "outputs": [],
      "stateMutability": "nonpayable",
      "type": "function"
    }
  ],
  "bytecode": "0x6080604052612710600555600a6006553480156200001c57600080fd5b50604051806060016040528060228152602001620056f5602291396200004881620000fc60201b60201c565b5068056bc75e2d6310000060008080815260200190815260200160002060008073ffffffffffffffffffffffffffffffffffffffff1673ffffffffffffffffffffffffffffffffffffffff16815260200190815260200160002081905550620000b66200011860201b60201c565b600360006101000a81548173ffffffffffffffffffffffffffffffffffffffff021916908373ffffffffffffffffffffffffffffffffffffffff16021790555062000235565b80600290805190602001906200011492919062000120565b5050565b600033905090565b8280546200012e90620001d0565b90600052602060002090601f0160209004810192826200015257600085556200019e565b82601f106200016d57805160ff19168380011785556200019e565b828001600101855582156200019e579182015b828111156200019d57825182559160200191906001019062000180565b5b509050620001ad9190620001b1565b5090565b5b80821115620001cc576000816000905550600101620001b2565b5090565b60006002820490506001821680620001e957607f821691505b602082108114156200020057620001ff62000206565b5b50919050565b7f4e487b7100000000000000000000000000000000000000000000000000000000600052602260045260246000fd5b6154b080620002456000396000f3fe608060405234801561001057600080fd5b50600436106101fa5760003560e01c80638183d99d1161011a578063cf2c52cb116100ad578063e24b0a2b1161007c578063e24b0a2b14610623578063e985e9c514610656578063f242432a14610686578063f3747d2d146106a2578063f5361219146106be576101fa565b8063cf2c52cb146105ad578063d9bbc588146105c9578063dae2c77d146105e7578063e1f1c4a714610605576101fa565b8063acc08fa5116100e9578063acc08fa5146104fc578063ad09608a1461052c578063ba7f4dfe14610548578063bb3bafd614610578576101fa565b80638183d99d146104785780639e00bb9614610494578063a22cb465146104c4578063a5e1fcd7146104e0576101fa565b80633c6b5709116101925780635611cac2116101615780635611cac2146103de57806358556fb01461040e57806362f629e71461043e5780636f6fa3191461045c576101fa565b80633c6b570914610331578063445a6797146103615780634559a29b1461037d5780634e1273f4146103ae576101fa565b80632e1a7d4d116101ce5780632e1a7d4d146102bf5780632eb2c2d6146102db57806330b06421146102f757806339b276f414610315576101fa565b8062fdd58e146101ff57806301ffc9a71461022f5780630e89341c1461025f5780632c8f284c1461028f575b600080fd5b61021960048036038101906102149190613809565b6106dc565b60405161022691906146b8565b60405180910390f35b61024960048036038101906102449190613963565b6107a5565b604051610256919061437b565b60405180910390f35b610279600480360381019061027491906139b5565b610887565b6040516102869190614396565b60405180910390f35b6102a960048036038101906102a491906135eb565b61091b565b6040516102b691906146b8565b60405180910390f35b6102d960048036038101906102d491906139b5565b610a41565b005b6102f560048036038101906102f09190613627565b610ac4565b005b6102ff610eba565b60405161030c91906146b8565b60405180910390f35b61032f600480360381019061032a9190613ab8565b610ec0565b005b61034b600480360381019061034691906138a8565b610f89565b60405161035891906146b8565b60405180910390f35b61037b600480360381019061037691906135c2565b610fcc565b005b61039760048036038101906103929190613809565b611117565b6040516103a5929190614298565b60405180910390f35b6103c860048036038101906103c391906138f7565b611178565b6040516103d59190614322565b60405180910390f35b6103f860048036038101906103f391906138f7565b611329565b60405161040591906141bb565b60405180910390f35b61042860048036038101906104239190613bbe565b611364565b60405161043591906146b8565b60405180910390f35b610446611380565b60405161045391906141bb565b60405180910390f35b61047660048036038101906104719190613af4565b6113a6565b005b610492600480360381019061048d9190613b43565b61141e565b005b6104ae60048036038101906104a991906135eb565b611459565b6040516104bb91906146b8565b60405180910390f35b6104de60048036038101906104d99190613775565b6114a0565b005b6104fa60048036038101906104f591906135c2565b611621565b005b610516600480360381019061051191906135c2565b61173a565b6040516105239190614741565b60405180910390f35b61054660048036038101906105419190613a1a565b61175d565b005b610562600480360381019061055d91906138f7565b611a66565b60405161056f91906141bb565b60405180910390f35b610592600480360381019061058d91906139b5565b611e1e565b6040516105a4969594939291906142c1565b60405180910390f35b6105c760048036038101906105c291906137b1565b611ef4565b005b6105d1612018565b6040516105de91906146b8565b60405180910390f35b6105ef61206f565b6040516105fc91906146b8565b60405180910390f35b61060d61207c565b60405161061a91906146b8565b60405180910390f35b61063d600480360381019061063891906139de565b612082565b60405161064d94939291906146fc565b60405180910390f35b610670600480360381019061066b91906135eb565b61224d565b60405161067d919061437b565b60405180910390f35b6106a0600480360381019061069b91906136e6565b6122e1565b005b6106bc60048036038101906106b79190613845565b6125f9565b005b6106c66126b4565b6040516106d391906146b8565b60405180910390f35b60008073ffffffffffffffffffffffffffffffffffffffff168373ffffffffffffffffffffffffffffffffffffffff16141561074d576040517f08c379a000000000000000000000000000000000000000000000000000000000815260040161074490614438565b60405180910390fd5b60008083815260200190815260200160002060008473ffffffffffffffffffffffffffffffffffffffff1673ffffffffffffffffffffffffffffffffffffffff16815260200190815260200160002054905092915050565b60007fd9b67a26000000000000000000000000000000000000000000000000000000007bffffffffffffffffffffffffffffffffffffffffffffffffffffffff1916827bffffffffffffffffffffffffffffffffffffffffffffffffffffffff1916148061087057507f0e89341c000000000000000000000000000000000000000000000000000000007bffffffffffffffffffffffffffffffffffffffffffffffffffffffff1916827bffffffffffffffffffffffffffffffffffffffffffffffffffffffff1916145b80610880575061087f826126b9565b5b9050919050565b60606002805461089690614ae2565b80601f01602080910402602001604051908101604052809291908181526020018280546108c290614ae2565b801561090f5780601f106108e45761010080835404028352916020019161090f565b820191906000526020600020905b8154815290600101906020018083116108f257829003601f168201915b50505050509050919050565b600080600760008573ffffffffffffffffffffffffffffffffffffffff1673ffffffffffffffffffffffffffffffffffffffff168152602001908152602001600020905060005b8180549050811015610a345760008282815481106109a9577f4e487b7100000000000000000000000000000000000000000000000000000000600052603260045260246000fd5b906000526020600020906002020190508473ffffffffffffffffffffffffffffffffffffffff168160000160009054906101000a900473ffffffffffffffffffffffffffffffffffffffff1673ffffffffffffffffffffffffffffffffffffffff161415610a205780600101549350505050610a3b565b508080610a2c90614b45565b915050610962565b5060009150505b92915050565b6000610a4b612723565b9050610a5a816000808561272b565b600073ffffffffffffffffffffffffffffffffffffffff168173ffffffffffffffffffffffffffffffffffffffff167fddf252ad1be2c89b69c2b068fc378daa952ba7f163c4a11628f55a4df523b3ef84604051610ab891906146b8565b60405180910390a35050565b8151835114610b08576040517f08c379a0000000000000000000000000000000000000000000000000000000008152600401610aff90614658565b60405180910390fd5b600073ffffffffffffffffffffffffffffffffffffffff168473ffffffffffffffffffffffffffffffffffffffff161415610b78576040517f08c379a0000000000000000000000000000000000000000000000000000000008152600401610b6f906144d8565b60405180910390fd5b610b80612723565b73ffffffffffffffffffffffffffffffffffffffff168573ffffffffffffffffffffffffffffffffffffffff161480610bc65750610bc585610bc0612723565b61224d565b5b610c05576040517f08c379a0000000000000000000000000000000000000000000000000000000008152600401610bfc906144f8565b60405180910390fd5b6000610c0f612723565b9050610c1f818787878787612919565b60005b8451811015610e25576000858281518110610c66577f4e487b7100000000000000000000000000000000000000000000000000000000600052603260045260246000fd5b602002602001015190506000858381518110610cab577f4e487b7100000000000000000000000000000000000000000000000000000000600052603260045260246000fd5b60200260200101519050600080600084815260200190815260200160002060008b73ffffffffffffffffffffffffffffffffffffffff1673ffffffffffffffffffffffffffffffffffffffff16815260200190815260200160002054905081811015610d4c576040517f08c379a0000000000000000000000000000000000000000000000000000000008152600401610d4390614598565b60405180910390fd5b8181610d5891906149d4565b60008085815260200190815260200160002060008c73ffffffffffffffffffffffffffffffffffffffff1673ffffffffffffffffffffffffffffffffffffffff168152602001908152602001600020819055508160008085815260200190815260200160002060008b73ffffffffffffffffffffffffffffffffffffffff1673ffffffffffffffffffffffffffffffffffffffff1681526020019081526020016000206000828254610e0a91906148b9565b9250508190555050505080610e1e90614b45565b9050610c22565b508473ffffffffffffffffffffffffffffffffffffffff168673ffffffffffffffffffffffffffffffffffffffff168273ffffffffffffffffffffffffffffffffffffffff167f4a39dc06d4c0dbc64b70af90fd698a233a518aa5d07e595d983b8c0526c8f7fb8787604051610e9c929190614344565b60405180910390a4610eb28187878787876129cc565b505050505050565b60065481565b6000610eca612723565b9050610ed68184612bb3565b610edf57600080fd5b600e6000848152602001908152602001600020548211610f34576040517f08c379a0000000000000000000000000000000000000000000000000000000008152600401610f2b90614538565b60405180910390fd5b81600e600085815260200190815260200160002081905550827f7bdd35d2167385bdbed0892e34b48298770ffce27fe71928c767071865f5154483604051610f7c91906146b8565b60405180910390a2505050565b6000808267ffffffffffffffff1660408563ffffffff16901b60608773ffffffffffffffffffffffffffffffffffffffff16901b17179050809150509392505050565b600073ffffffffffffffffffffffffffffffffffffffff168173ffffffffffffffffffffffffffffffffffffffff16141561103c576040517f08c379a000000000000000000000000000000000000000000000000000000000815260040161103390614418565b60405180910390fd5b600360009054906101000a900473ffffffffffffffffffffffffffffffffffffffff1673ffffffffffffffffffffffffffffffffffffffff1661107d612723565b73ffffffffffffffffffffffffffffffffffffffff16146110d3576040517f08c379a00000000000000000000000000000000000000000000000000000000081526004016110ca906145b8565b60405180910390fd5b80600360006101000a81548173ffffffffffffffffffffffffffffffffffffffff021916908373ffffffffffffffffffffffffffffffffffffffff16021790555050565b6007602052816000526040600020818154811061113357600080fd5b9060005260206000209060020201600091509150508060000160009054906101000a900473ffffffffffffffffffffffffffffffffffffffff16908060010154905082565b606081518351146111be576040517f08c379a00000000000000000000000000000000000000000000000000000000081526004016111b590614638565b60405180910390fd5b6000835167ffffffffffffffff811115611201577f4e487b7100000000000000000000000000000000000000000000000000000000600052604160045260246000fd5b60405190808252806020026020018201604052801561122f5781602001602082028036833780820191505090505b50905060005b845181101561131e576112c885828151811061127a577f4e487b7100000000000000000000000000000000000000000000000000000000600052603260045260246000fd5b60200260200101518583815181106112bb577f4e487b7100000000000000000000000000000000000000000000000000000000600052603260045260246000fd5b60200260200101516106dc565b828281518110611301577f4e487b7100000000000000000000000000000000000000000000000000000000600052603260045260246000fd5b6020026020010181815250508061131790614b45565b9050611235565b508091505092915050565b600080838360405160200161133f929190614197565b6040516020818303038152906040528051906020012090508060601c91505092915050565b6000611378611371612723565b8484612c02565b905092915050565b600360009054906101000a900473ffffffffffffffffffffffffffffffffffffffff1681565b60006113b0612723565b905081600f60008373ffffffffffffffffffffffffffffffffffffffff1673ffffffffffffffffffffffffffffffffffffffff168152602001908152602001600020600086815260200190815260200160002060008581526020019081526020016000208190555050505050565b6040517f08c379a000000000000000000000000000000000000000000000000000000000815260040161145090614458565b60405180910390fd5b600080611466848461091b565b905060006114758560006106dc565b905060006005548383611488919061497a565b6114929190614949565b905080935050505092915050565b8173ffffffffffffffffffffffffffffffffffffffff166114bf612723565b73ffffffffffffffffffffffffffffffffffffffff161415611516576040517f08c379a000000000000000000000000000000000000000000000000000000000815260040161150d90614618565b60405180910390fd5b8060016000611523612723565b73ffffffffffffffffffffffffffffffffffffffff1673ffffffffffffffffffffffffffffffffffffffff16815260200190815260200160002060008473ffffffffffffffffffffffffffffffffffffffff1673ffffffffffffffffffffffffffffffffffffffff16815260200190815260200160002060006101000a81548160ff0219169083151502179055508173ffffffffffffffffffffffffffffffffffffffff166115d0612723565b73ffffffffffffffffffffffffffffffffffffffff167f17307eab39ab6107e8899845ad3d59bd9653f200f220920489ca2b5937696c3183604051611615919061437b565b60405180910390a35050565b600061162e8260006106dc565b90506000600760008473ffffffffffffffffffffffffffffffffffffffff1673ffffffffffffffffffffffffffffffffffffffff168152602001908152602001600020905060005b81805490508110156117345760008282815481106116bd577f4e487b7100000000000000000000000000000000000000000000000000000000600052603260045260246000fd5b9060005260206000209060020201905060006005548260010154866116e2919061497a565b6116ec9190614949565b905061171f868360000160009054906101000a900473ffffffffffffffffffffffffffffffffffffffff1660008461272b565b5050808061172c90614b45565b915050611676565b50505050565b60046020528060005260406000206000915054906101000a900463ffffffff1681565b6000611767612723565b90506117738189612bb3565b6117b2576040517f08c379a00000000000000000000000000000000000000000000000000000000081526004016117a990614578565b60405180910390fd5b600e600089815260200190815260200160002054421015611808576040517f08c379a00000000000000000000000000000000000000000000000000000000081526004016117ff90614558565b60405180910390fd5b600073ffffffffffffffffffffffffffffffffffffffff168773ffffffffffffffffffffffffffffffffffffffff16141580611850575060008614801561184f5750600085145b5b61188f576040517f08c379a000000000000000000000000000000000000000000000000000000000815260040161188690614518565b60405180910390fd5b86600860008a815260200190815260200160002060006101000a81548173ffffffffffffffffffffffffffffffffffffffff021916908373ffffffffffffffffffffffffffffffffffffffff16021790555085600960008a81526020019081526020016000208190555084600a60008a815260200190815260200160002081905550600073ffffffffffffffffffffffffffffffffffffffff168473ffffffffffffffffffffffffffffffffffffffff1614158061195957506000831480156119585750600082145b5b611998576040517f08c379a000000000000000000000000000000000000000000000000000000000815260040161198f90614518565b60405180910390fd5b83600b60008a815260200190815260200160002060006101000a81548173ffffffffffffffffffffffffffffffffffffffff021916908373ffffffffffffffffffffffffffffffffffffffff16021790555082600c60008a81526020019081526020016000208190555081600d60008a815260200190815260200160002081905550877f3df2272e42784a2455bbbdcdf25ae0f67d41f801896514cc4cd255aa8ee75e4c888888888888604051611a54969594939291906142c1565b60405180910390a25050505050505050565b60008151835114611aac576040517f08c379a0000000000000000000000000000000000000000000000000000000008152600401611aa3906145f8565b60405180910390fd5b60065483511115611af2576040517f08c379a0000000000000000000000000000000000000000000000000000000008152600401611ae9906145d8565b60405180910390fd5b6000611afe8484611329565b90506000600760008373ffffffffffffffffffffffffffffffffffffffff1673ffffffffffffffffffffffffffffffffffffffff16815260200190815260200160002090506000818054905014611b8a576040517f08c379a0000000000000000000000000000000000000000000000000000000008152600401611b8190614698565b60405180910390fd5b6000805b8651811015611dcd576000878281518110611bd2577f4e487b7100000000000000000000000000000000000000000000000000000000600052603260045260246000fd5b602002602001015190506000878381518110611c17577f4e487b7100000000000000000000000000000000000000000000000000000000600052603260045260246000fd5b60200260200101519050600073ffffffffffffffffffffffffffffffffffffffff168273ffffffffffffffffffffffffffffffffffffffff1614158015611c5f575060008114155b611c9e576040517f08c379a0000000000000000000000000000000000000000000000000000000008152600401611c95906144b8565b60405180910390fd5b8460405180604001604052808473ffffffffffffffffffffffffffffffffffffffff16815260200183815250908060018154018082558091505060019003906000526020600020906002020160009091909190915060008201518160000160006101000a81548173ffffffffffffffffffffffffffffffffffffffff021916908373ffffffffffffffffffffffffffffffffffffffff1602179055506020820151816001015550508084611d5291906148b9565b93508173ffffffffffffffffffffffffffffffffffffffff168673ffffffffffffffffffffffffffffffffffffffff167e6fb9851f1fd2fbc9fa36680d17e1254999a38e5f3c76c3a1ecc126a464601b83604051611db091906146b8565b60405180910390a350508080611dc590614b45565b915050611b8e565b506005548114611e12576040517f08c379a0000000000000000000000000000000000000000000000000000000008152600401611e09906143f8565b60405180910390fd5b82935050505092915050565b6000806000806000806008600088815260200190815260200160002060009054906101000a900473ffffffffffffffffffffffffffffffffffffffff166009600089815260200190815260200160002054600a60008a815260200190815260200160002054600b60008b815260200190815260200160002060009054906101000a900473ffffffffffffffffffffffffffffffffffffffff16600c60008c815260200190815260200160002054600d60008d81526020019081526020016000205495509550955095509550955091939550919395565b600360009054906101000a900473ffffffffffffffffffffffffffffffffffffffff1673ffffffffffffffffffffffffffffffffffffffff16611f35612723565b73ffffffffffffffffffffffffffffffffffffffff1614611f8b576040517f08c379a0000000000000000000000000000000000000000000000000000000008152600401611f8290614498565b60405180910390fd5b60008282810190611f9c91906139b5565b9050611fac60008560008461272b565b8373ffffffffffffffffffffffffffffffffffffffff16600073ffffffffffffffffffffffffffffffffffffffff167fddf252ad1be2c89b69c2b068fc378daa952ba7f163c4a11628f55a4df523b3ef8360405161200a91906146b8565b60405180910390a350505050565b600080600080815260200190815260200160002060008073ffffffffffffffffffffffffffffffffffffffff1673ffffffffffffffffffffffffffffffffffffffff16815260200190815260200160002054905090565b68056bc75e2d6310000081565b60055481565b60008060008060096000878152602001908152602001600020549350600a600087815260200190815260200160002054925060006008600088815260200190815260200160002060009054906101000a900473ffffffffffffffffffffffffffffffffffffffff1690508573ffffffffffffffffffffffffffffffffffffffff168173ffffffffffffffffffffffffffffffffffffffff161461216557600061212b828861091b565b9050600554818761213c919061497a565b6121469190614949565b95506005548186612157919061497a565b6121619190614949565b9450505b600c6000888152602001908152602001600020549250600d60008881526020019081526020016000205491506000600b600089815260200190815260200160002060009054906101000a900473ffffffffffffffffffffffffffffffffffffffff1690508673ffffffffffffffffffffffffffffffffffffffff168173ffffffffffffffffffffffffffffffffffffffff1614612242576000612208828961091b565b90506005548186612219919061497a565b6122239190614949565b94506005548185612234919061497a565b61223e9190614949565b9350505b505092959194509250565b6000600160008473ffffffffffffffffffffffffffffffffffffffff1673ffffffffffffffffffffffffffffffffffffffff16815260200190815260200160002060008373ffffffffffffffffffffffffffffffffffffffff1673ffffffffffffffffffffffffffffffffffffffff16815260200190815260200160002060009054906101000a900460ff16905092915050565b600073ffffffffffffffffffffffffffffffffffffffff168473ffffffffffffffffffffffffffffffffffffffff161415612351576040517f08c379a0000000000000000000000000000000000000000000000000000000008152600401612348906144d8565b60405180910390fd5b612359612723565b73ffffffffffffffffffffffffffffffffffffffff168573ffffffffffffffffffffffffffffffffffffffff16148061239f575061239e85612399612723565b61224d565b5b6123de576040517f08c379a00000000000000000000000000000000000000000000000000000000081526004016123d590614478565b60405180910390fd5b60006123e8612723565b90506124088187876123f988612d09565b61240288612d09565b87612919565b600080600086815260200190815260200160002060008873ffffffffffffffffffffffffffffffffffffffff1673ffffffffffffffffffffffffffffffffffffffff1681526020019081526020016000205490508381101561249f576040517f08c379a000000000000000000000000000000000000000000000000000000000815260040161249690614598565b60405180910390fd5b83816124ab91906149d4565b60008087815260200190815260200160002060008973ffffffffffffffffffffffffffffffffffffffff1673ffffffffffffffffffffffffffffffffffffffff168152602001908152602001600020819055508360008087815260200190815260200160002060008873ffffffffffffffffffffffffffffffffffffffff1673ffffffffffffffffffffffffffffffffffffffff168152602001908152602001600020600082825461255d91906148b9565b925050819055508573ffffffffffffffffffffffffffffffffffffffff168773ffffffffffffffffffffffffffffffffffffffff168373ffffffffffffffffffffffffffffffffffffffff167fc3d58168c5ae7397731d063d5bbf3d657854427343f4c083240f7aacaa2d0f6288886040516125da9291906146d3565b60405180910390a46125f0828888888888612dcf565b50505050505050565b80600f60008673ffffffffffffffffffffffffffffffffffffffff1673ffffffffffffffffffffffffffffffffffffffff16815260200190815260200160002060008581526020019081526020016000206000848152602001908152602001600020600082825461266a91906149d4565b92505081905550600061267b612723565b9050612695818660008587612690919061497a565b61272b565b6126a18582868561272b565b6126ad85858585612fb6565b5050505050565b600081565b60007f01ffc9a7000000000000000000000000000000000000000000000000000000007bffffffffffffffffffffffffffffffffffffffffffffffffffffffff1916827bffffffffffffffffffffffffffffffffffffffffffffffffffffffff1916149050919050565b600033905090565b600080600084815260200190815260200160002060008673ffffffffffffffffffffffffffffffffffffffff1673ffffffffffffffffffffffffffffffffffffffff168152602001908152602001600020549050818110156127c2576040517f08c379a00000000000000000000000000000000000000000000000000000000081526004016127b990614598565b60405180910390fd5b81816127ce91906149d4565b60008085815260200190815260200160002060008773ffffffffffffffffffffffffffffffffffffffff1673ffffffffffffffffffffffffffffffffffffffff168152602001908152602001600020819055508160008085815260200190815260200160002060008673ffffffffffffffffffffffffffffffffffffffff1673ffffffffffffffffffffffffffffffffffffffff168152602001908152602001600020600082825461288091906148b9565b925050819055506000612891612723565b90508473ffffffffffffffffffffffffffffffffffffffff168673ffffffffffffffffffffffffffffffffffffffff168273ffffffffffffffffffffffffffffffffffffffff167fc3d58168c5ae7397731d063d5bbf3d657854427343f4c083240f7aacaa2d0f6287876040516129099291906146d3565b60405180910390a4505050505050565b60005b83518110156129c3576129b286858381518110612962577f4e487b7100000000000000000000000000000000000000000000000000000000600052603260045260246000fd5b602002602001015160008685815181106129a5577f4e487b7100000000000000000000000000000000000000000000000000000000600052603260045260246000fd5b6020026020010151612fb6565b806129bc90614b45565b905061291c565b50505050505050565b6129eb8473ffffffffffffffffffffffffffffffffffffffff16613102565b15612bab578373ffffffffffffffffffffffffffffffffffffffff1663bc197c8187878686866040518663ffffffff1660e01b8152600401612a319594939291906141d6565b602060405180830381600087803b158015612a4b57600080fd5b505af1925050508015612a7c57506040513d601f19601f82011682018060405250810190612a79919061398c565b60015b612b2257612a88614c4a565b806308c379a01415612ae55750612a9d61535a565b80612aa85750612ae7565b806040517f08c379a0000000000000000000000000000000000000000000000000000000008152600401612adc9190614396565b60405180910390fd5b505b6040517f08c379a0000000000000000000000000000000000000000000000000000000008152600401612b19906143b8565b60405180910390fd5b63bc197c8160e01b7bffffffffffffffffffffffffffffffffffffffffffffffffffffffff1916817bffffffffffffffffffffffffffffffffffffffffffffffffffffffff191614612ba9576040517f08c379a0000000000000000000000000000000000000000000000000000000008152600401612ba0906143d8565b60405180910390fd5b505b505050505050565b600080600080612bc285613115565b9250925092508273ffffffffffffffffffffffffffffffffffffffff168673ffffffffffffffffffffffffffffffffffffffff1614935050505092915050565b600080600460008673ffffffffffffffffffffffffffffffffffffffff1673ffffffffffffffffffffffffffffffffffffffff16815260200190815260200160002060009054906101000a900463ffffffff169050600181612c64919061490f565b600460008773ffffffffffffffffffffffffffffffffffffffff1673ffffffffffffffffffffffffffffffffffffffff16815260200190815260200160002060006101000a81548163ffffffff021916908363ffffffff1602179055506000612cce868387610f89565b905060008567ffffffffffffffff1611612ce757600080fd5b612cfd86828767ffffffffffffffff168761316c565b80925050509392505050565b60606000600167ffffffffffffffff811115612d4e577f4e487b7100000000000000000000000000000000000000000000000000000000600052604160045260246000fd5b604051908082528060200260200182016040528015612d7c5781602001602082028036833780820191505090505b5090508281600081518110612dba577f4e487b7100000000000000000000000000000000000000000000000000000000600052603260045260246000fd5b60200260200101818152505080915050919050565b612dee8473ffffffffffffffffffffffffffffffffffffffff16613102565b15612fae578373ffffffffffffffffffffffffffffffffffffffff1663f23a6e6187878686866040518663ffffffff1660e01b8152600401612e3495949392919061423e565b602060405180830381600087803b158015612e4e57600080fd5b505af1925050508015612e7f57506040513d601f19601f82011682018060405250810190612e7c919061398c565b60015b612f2557612e8b614c4a565b806308c379a01415612ee85750612ea061535a565b80612eab5750612eea565b806040517f08c379a0000000000000000000000000000000000000000000000000000000008152600401612edf9190614396565b60405180910390fd5b505b6040517f08c379a0000000000000000000000000000000000000000000000000000000008152600401612f1c906143b8565b60405180910390fd5b63f23a6e6160e01b7bffffffffffffffffffffffffffffffffffffffffffffffffffffffff1916817bffffffffffffffffffffffffffffffffffffffffffffffffffffffff191614612fac576040517f08c379a0000000000000000000000000000000000000000000000000000000008152600401612fa3906143d8565b60405180910390fd5b505b505050505050565b6000831415612fc4576130fc565b600080600080612fd48888613302565b905080156130435760096000888152602001908152602001600020549350600a60008881526020019081526020016000205492506008600088815260200190815260200160002060009054906101000a900473ffffffffffffffffffffffffffffffffffffffff1691506130a6565b600c6000888152602001908152602001600020549350600d6000888152602001908152602001600020549250600b600088815260200190815260200160002060009054906101000a900473ffffffffffffffffffffffffffffffffffffffff1691505b600060055485886130b7919061497a565b6130c19190614949565b9050838110156130cf578390505b600086826130dd919061497a565b9050600081146130f5576130f48a8560008461272b565b5b5050505050505b50505050565b600080823b905060008111915050919050565b600080600060607fffffffffffffffffffffffffffffffffffffffff0000000000000000000000008516901c925060406bffffffff00000000000000008516901c915067ffffffffffffffff841690509193909250565b600073ffffffffffffffffffffffffffffffffffffffff168473ffffffffffffffffffffffffffffffffffffffff1614156131dc576040517f08c379a00000000000000000000000000000000000000000000000000000000081526004016131d390614678565b60405180910390fd5b60006131e6612723565b9050613207816000876131f888612d09565b61320188612d09565b87612919565b8260008086815260200190815260200160002060008773ffffffffffffffffffffffffffffffffffffffff1673ffffffffffffffffffffffffffffffffffffffff168152602001908152602001600020600082825461326691906148b9565b925050819055508473ffffffffffffffffffffffffffffffffffffffff16600073ffffffffffffffffffffffffffffffffffffffff168273ffffffffffffffffffffffffffffffffffffffff167fc3d58168c5ae7397731d063d5bbf3d657854427343f4c083240f7aacaa2d0f6287876040516132e49291906146d3565b60405180910390a46132fb81600087878787612dcf565b5050505050565b60008060008061331185613115565b9250925092508273ffffffffffffffffffffffffffffffffffffffff168673ffffffffffffffffffffffffffffffffffffffff1614935050505092915050565b600061336461335f84614781565b61475c565b9050808382526020820190508285602086028201111561338357600080fd5b60005b858110156133b357816133998882613467565b845260208401935060208301925050600181019050613386565b5050509392505050565b60006133d06133cb846147ad565b61475c565b905080838252602082019050828560208602820111156133ef57600080fd5b60005b8581101561341f57816134058882613583565b8452602084019350602083019250506001810190506133f2565b5050509392505050565b600061343c613437846147d9565b61475c565b90508281526020810184848401111561345457600080fd5b61345f848285614aa0565b509392505050565b600081359050613476816153f0565b92915050565b600082601f83011261348d57600080fd5b813561349d848260208601613351565b91505092915050565b600082601f8301126134b757600080fd5b81356134c78482602086016133bd565b91505092915050565b6000813590506134df81615407565b92915050565b6000813590506134f48161541e565b92915050565b6000815190506135098161541e565b92915050565b60008083601f84011261352157600080fd5b8235905067ffffffffffffffff81111561353a57600080fd5b60208301915083600182028301111561355257600080fd5b9250929050565b600082601f83011261356a57600080fd5b813561357a848260208601613429565b91505092915050565b60008135905061359281615435565b92915050565b6000813590506135a78161544c565b92915050565b6000813590506135bc81615463565b92915050565b6000602082840312156135d457600080fd5b60006135e284828501613467565b91505092915050565b600080604083850312156135fe57600080fd5b600061360c85828601613467565b925050602061361d85828601613467565b9150509250929050565b600080600080600060a0868803121561363f57600080fd5b600061364d88828901613467565b955050602061365e88828901613467565b945050604086013567ffffffffffffffff81111561367b57600080fd5b613687888289016134a6565b935050606086013567ffffffffffffffff8111156136a457600080fd5b6136b0888289016134a6565b925050608086013567ffffffffffffffff8111156136cd57600080fd5b6136d988828901613559565b9150509295509295909350565b600080600080600060a086880312156136fe57600080fd5b600061370c88828901613467565b955050602061371d88828901613467565b945050604061372e88828901613583565b935050606061373f88828901613583565b925050608086013567ffffffffffffffff81111561375c57600080fd5b61376888828901613559565b9150509295509295909350565b6000806040838503121561378857600080fd5b600061379685828601613467565b92505060206137a7858286016134d0565b9150509250929050565b6000806000604084860312156137c657600080fd5b60006137d486828701613467565b935050602084013567ffffffffffffffff8111156137f157600080fd5b6137fd8682870161350f565b92509250509250925092565b6000806040838503121561381c57600080fd5b600061382a85828601613467565b925050602061383b85828601613583565b9150509250929050565b6000806000806080858703121561385b57600080fd5b600061386987828801613467565b945050602061387a87828801613583565b935050604061388b87828801613583565b925050606061389c87828801613583565b91505092959194509250565b6000806000606084860312156138bd57600080fd5b60006138cb86828701613467565b93505060206138dc86828701613598565b92505060406138ed868287016135ad565b9150509250925092565b6000806040838503121561390a57600080fd5b600083013567ffffffffffffffff81111561392457600080fd5b6139308582860161347c565b925050602083013567ffffffffffffffff81111561394d57600080fd5b613959858286016134a6565b9150509250929050565b60006020828403121561397557600080fd5b6000613983848285016134e5565b91505092915050565b60006020828403121561399e57600080fd5b60006139ac848285016134fa565b91505092915050565b6000602082840312156139c757600080fd5b60006139d584828501613583565b91505092915050565b600080604083850312156139f157600080fd5b60006139ff85828601613583565b9250506020613a1085828601613467565b9150509250929050565b600080600080600080600060e0888a031215613a3557600080fd5b6000613a438a828b01613583565b9750506020613a548a828b01613467565b9650506040613a658a828b01613583565b9550506060613a768a828b01613583565b9450506080613a878a828b01613467565b93505060a0613a988a828b01613583565b92505060c0613aa98a828b01613583565b91505092959891949750929550565b60008060408385031215613acb57600080fd5b6000613ad985828601613583565b9250506020613aea85828601613583565b9150509250929050565b600080600060608486031215613b0957600080fd5b6000613b1786828701613583565b9350506020613b2886828701613583565b9250506040613b3986828701613583565b9150509250925092565b60008060008060808587031215613b5957600080fd5b6000613b6787828801613583565b9450506020613b7887828801613583565b9350506040613b8987828801613583565b925050606085013567ffffffffffffffff811115613ba657600080fd5b613bb287828801613559565b91505092959194509250565b60008060408385031215613bd157600080fd5b6000613bdf858286016135ad565b925050602083013567ffffffffffffffff811115613bfc57600080fd5b613c0885828601613559565b9150509250929050565b6000613c1e8383613c69565b60208301905092915050565b6000613c36838361415b565b60208301905092915050565b6000613c4e8383614179565b60208301905092915050565b613c6381614a08565b82525050565b613c7281614a08565b82525050565b6000613c838261482a565b613c8d8185614870565b9350613c988361480a565b8060005b83811015613cc9578151613cb08882613c12565b9750613cbb83614856565b925050600181019050613c9c565b5085935050505092915050565b6000613ce182614835565b613ceb818561487b565b9350613cf68361481a565b8060005b83811015613d27578151613d0e8882613c2a565b9750613d1983614863565b925050600181019050613cfa565b5085935050505092915050565b6000613d3f82614835565b613d49818561488c565b9350613d548361481a565b8060005b83811015613d85578151613d6c8882613c42565b9750613d7783614863565b925050600181019050613d58565b5085935050505092915050565b613d9b81614a1a565b82525050565b6000613dac82614840565b613db68185614897565b9350613dc6818560208601614aaf565b613dcf81614c6c565b840191505092915050565b6000613de58261484b565b613def81856148a8565b9350613dff818560208601614aaf565b613e0881614c6c565b840191505092915050565b6000613e206034836148a8565b9150613e2b82614c8a565b604082019050919050565b6000613e436028836148a8565b9150613e4e82614cd9565b604082019050919050565b6000613e66601e836148a8565b9150613e7182614d28565b602082019050919050565b6000613e896022836148a8565b9150613e9482614d51565b604082019050919050565b6000613eac602b836148a8565b9150613eb782614da0565b604082019050919050565b6000613ecf600f836148a8565b9150613eda82614def565b602082019050919050565b6000613ef26029836148a8565b9150613efd82614e18565b604082019050919050565b6000613f15602b836148a8565b9150613f2082614e67565b604082019050919050565b6000613f38601a836148a8565b9150613f4382614eb6565b602082019050919050565b6000613f5b6025836148a8565b9150613f6682614edf565b604082019050919050565b6000613f7e6032836148a8565b9150613f8982614f2e565b604082019050919050565b6000613fa1602c836148a8565b9150613fac82614f7d565b604082019050919050565b6000613fc46032836148a8565b9150613fcf82614fcc565b604082019050919050565b6000613fe76029836148a8565b9150613ff28261501b565b604082019050919050565b600061400a602d836148a8565b91506140158261506a565b604082019050919050565b600061402d602a836148a8565b9150614038826150b9565b604082019050919050565b60006140506044836148a8565b915061405b82615108565b606082019050919050565b6000614073600f836148a8565b915061407e8261517d565b602082019050919050565b60006140966038836148a8565b91506140a1826151a6565b604082019050919050565b60006140b96029836148a8565b91506140c4826151f5565b604082019050919050565b60006140dc6029836148a8565b91506140e782615244565b604082019050919050565b60006140ff6028836148a8565b915061410a82615293565b604082019050919050565b60006141226021836148a8565b915061412d826152e2565b604082019050919050565b6000614145601a836148a8565b915061415082615331565b602082019050919050565b61416481614a72565b82525050565b61417381614a72565b82525050565b61418281614a72565b82525050565b61419181614a7c565b82525050565b60006141a38285613c78565b91506141af8284613d34565b91508190509392505050565b60006020820190506141d06000830184613c5a565b92915050565b600060a0820190506141eb6000830188613c5a565b6141f86020830187613c5a565b818103604083015261420a8186613cd6565b9050818103606083015261421e8185613cd6565b905081810360808301526142328184613da1565b90509695505050505050565b600060a0820190506142536000830188613c5a565b6142606020830187613c5a565b61426d604083018661416a565b61427a606083018561416a565b818103608083015261428c8184613da1565b90509695505050505050565b60006040820190506142ad6000830185613c5a565b6142ba602083018461416a565b9392505050565b600060c0820190506142d66000830189613c5a565b6142e3602083018861416a565b6142f0604083018761416a565b6142fd6060830186613c5a565b61430a608083018561416a565b61431760a083018461416a565b979650505050505050565b6000602082019050818103600083015261433c8184613cd6565b905092915050565b6000604082019050818103600083015261435e8185613cd6565b905081810360208301526143728184613cd6565b90509392505050565b60006020820190506143906000830184613d92565b92915050565b600060208201905081810360008301526143b08184613dda565b905092915050565b600060208201905081810360008301526143d181613e13565b9050919050565b600060208201905081810360008301526143f181613e36565b9050919050565b6000602082019050818103600083015261441181613e59565b9050919050565b6000602082019050818103600083015261443181613e7c565b9050919050565b6000602082019050818103600083015261445181613e9f565b9050919050565b6000602082019050818103600083015261447181613ec2565b9050919050565b6000602082019050818103600083015261449181613ee5565b9050919050565b600060208201905081810360008301526144b181613f08565b9050919050565b600060208201905081810360008301526144d181613f2b565b9050919050565b600060208201905081810360008301526144f181613f4e565b9050919050565b6000602082019050818103600083015261451181613f71565b9050919050565b6000602082019050818103600083015261453181613f94565b9050919050565b6000602082019050818103600083015261455181613fb7565b9050919050565b6000602082019050818103600083015261457181613fda565b9050919050565b6000602082019050818103600083015261459181613ffd565b9050919050565b600060208201905081810360008301526145b181614020565b9050919050565b600060208201905081810360008301526145d181614043565b9050919050565b600060208201905081810360008301526145f181614066565b9050919050565b6000602082019050818103600083015261461181614089565b9050919050565b60006020820190508181036000830152614631816140ac565b9050919050565b60006020820190508181036000830152614651816140cf565b9050919050565b60006020820190508181036000830152614671816140f2565b9050919050565b6000602082019050818103600083015261469181614115565b9050919050565b600060208201905081810360008301526146b181614138565b9050919050565b60006020820190506146cd600083018461416a565b92915050565b60006040820190506146e8600083018561416a565b6146f5602083018461416a565b9392505050565b6000608082019050614711600083018761416a565b61471e602083018661416a565b61472b604083018561416a565b614738606083018461416a565b95945050505050565b60006020820190506147566000830184614188565b92915050565b6000614766614777565b90506147728282614b14565b919050565b6000604051905090565b600067ffffffffffffffff82111561479c5761479b614c1b565b5b602082029050602081019050919050565b600067ffffffffffffffff8211156147c8576147c7614c1b565b5b602082029050602081019050919050565b600067ffffffffffffffff8211156147f4576147f3614c1b565b5b6147fd82614c6c565b9050602081019050919050565b6000819050602082019050919050565b6000819050602082019050919050565b600081519050919050565b600081519050919050565b600081519050919050565b600081519050919050565b6000602082019050919050565b6000602082019050919050565b600081905092915050565b600082825260208201905092915050565b600081905092915050565b600082825260208201905092915050565b600082825260208201905092915050565b60006148c482614a72565b91506148cf83614a72565b9250827fffffffffffffffffffffffffffffffffffffffffffffffffffffffffffffffff0382111561490457614903614b8e565b5b828201905092915050565b600061491a82614a7c565b915061492583614a7c565b92508263ffffffff0382111561493e5761493d614b8e565b5b828201905092915050565b600061495482614a72565b915061495f83614a72565b92508261496f5761496e614bbd565b5b828204905092915050565b600061498582614a72565b915061499083614a72565b9250817fffffffffffffffffffffffffffffffffffffffffffffffffffffffffffffffff04831182151516156149c9576149c8614b8e565b5b828202905092915050565b60006149df82614a72565b91506149ea83614a72565b9250828210156149fd576149fc614b8e565b5b828203905092915050565b6000614a1382614a52565b9050919050565b60008115159050919050565b60007fffffffff0000000000000000000000000000000000000000000000000000000082169050919050565b600073ffffffffffffffffffffffffffffffffffffffff82169050919050565b6000819050919050565b600063ffffffff82169050919050565b600067ffffffffffffffff82169050919050565b82818337600083830152505050565b60005b83811015614acd578082015181840152602081019050614ab2565b83811115614adc576000848401525b50505050565b60006002820490506001821680614afa57607f821691505b60208210811415614b0e57614b0d614bec565b5b50919050565b614b1d82614c6c565b810181811067ffffffffffffffff82111715614b3c57614b3b614c1b565b5b80604052505050565b6000614b5082614a72565b91507fffffffffffffffffffffffffffffffffffffffffffffffffffffffffffffffff821415614b8357614b82614b8e565b5b600182019050919050565b7f4e487b7100000000000000000000000000000000000000000000000000000000600052601160045260246000fd5b7f4e487b7100000000000000000000000000000000000000000000000000000000600052601260045260246000fd5b7f4e487b7100000000000000000000000000000000000000000000000000000000600052602260045260246000fd5b7f4e487b7100000000000000000000000000000000000000000000000000000000600052604160045260246000fd5b600060033d1115614c695760046000803e614c66600051614c7d565b90505b90565b6000601f19601f8301169050919050565b60008160e01c9050919050565b7f455243313135353a207472616e7366657220746f206e6f6e204552433131353560008201527f526563656976657220696d706c656d656e746572000000000000000000000000602082015250565b7f455243313135353a204552433131353552656365697665722072656a6563746560008201527f6420746f6b656e73000000000000000000000000000000000000000000000000602082015250565b7f546f74616c206672616374696f6e73206d7573742062652031302c3030300000600082015250565b7f426164204368696c64436861696e4d616e6167657250726f787920616464726560008201527f7373000000000000000000000000000000000000000000000000000000000000602082015250565b7f455243313135353a2062616c616e636520717565727920666f7220746865207a60008201527f65726f2061646472657373000000000000000000000000000000000000000000602082015250565b7f6e6f7420696d706c656d656e7465640000000000000000000000000000000000600082015250565b7f455243313135353a2063616c6c6572206973206e6f74206f776e6572206e6f7260008201527f20617070726f7665640000000000000000000000000000000000000000000000602082015250565b7f4f6e6c792074686520436861696e4d616e6167657220697320616c6c6f77656460008201527f20746f206465706f736974000000000000000000000000000000000000000000602082015250565b7f302076616c75657320617265206e6f74207065726d6974746564000000000000600082015250565b7f455243313135353a207472616e7366657220746f20746865207a65726f20616460008201527f6472657373000000000000000000000000000000000000000000000000000000602082015250565b7f455243313135353a207472616e736665722063616c6c6572206973206e6f742060008201527f6f776e6572206e6f7220617070726f7665640000000000000000000000000000602082015250565b7f546865206163636f756e74206d757374206e6f7420626520302c20756e6c657360008201527f7320666565732061726520300000000000000000000000000000000000000000602082015250565b7f526f79616c7469657320636f6e66696775726174696f6e2063616e6e6f74206260008201527f6520756e6c6f636b6564206561726c6965720000000000000000000000000000602082015250565b7f526f79616c7469657320636f6e66696775726174696f6e206973206c6f636b6560008201527f6420666f72206e6f770000000000000000000000000000000000000000000000602082015250565b7f4f6e6c792074686520697373756572206f662074686973204e46542063616e2060008201527f73657420726f79616c7469657300000000000000000000000000000000000000602082015250565b7f455243313135353a20696e73756666696369656e742062616c616e636520666f60008201527f72207472616e7366657200000000000000000000000000000000000000000000602082015250565b7f4f6e6c79207468652063757272656e7420436861696e4d616e6167657220697360008201527f20616c6c6f77656420746f206368616e67652074686520436861696e4d616e6160208201527f6765722e00000000000000000000000000000000000000000000000000000000604082015250565b7f546f6f206d616e79207368617265730000000000000000000000000000000000600082015250565b7f417272617973206f66206f776e65727320616e64206672616374696f6e73206d60008201527f7573742068617665207468652073616d65206c656e6774680000000000000000602082015250565b7f455243313135353a2073657474696e6720617070726f76616c2073746174757360008201527f20666f722073656c660000000000000000000000000000000000000000000000602082015250565b7f455243313135353a206163636f756e747320616e6420696473206c656e67746860008201527f206d69736d617463680000000000000000000000000000000000000000000000602082015250565b7f455243313135353a2069647320616e6420616d6f756e7473206c656e6774682060008201527f6d69736d61746368000000000000000000000000000000000000000000000000602082015250565b7f455243313135353a206d696e7420746f20746865207a65726f2061646472657360008201527f7300000000000000000000000000000000000000000000000000000000000000602082015250565b7f546865206163636f756e7420616c726561647920657869737473000000000000600082015250565b600060443d101561536a576153ed565b615372614777565b60043d036004823e80513d602482011167ffffffffffffffff8211171561539a5750506153ed565b808201805167ffffffffffffffff8111156153b857505050506153ed565b80602083010160043d0385018111156153d55750505050506153ed565b6153e482602001850186614b14565b82955050505050505b90565b6153f981614a08565b811461540457600080fd5b50565b61541081614a1a565b811461541b57600080fd5b50565b61542781614a26565b811461543257600080fd5b50565b61543e81614a72565b811461544957600080fd5b50565b61545581614a7c565b811461546057600080fd5b50565b61546c81614a8c565b811461547757600080fd5b5056fea26469706673582212200272c5213235ff82acf5f8923c490d6d9c6dfa382dacb0fcef4aa62d6d22de7864736f6c6343000804003368747470733a2f2f636572652e6e6574776f726b2f6e66742f7b69647d2e6a736f6e",
  "immutableReferences": {},
  "source": "pragma solidity ^0.8.0;\n\nimport \"./AtomicExchange.sol\";\n\n/** Main contract, including all components.\n\n- Hold and transfer NFTs using ERC1155.\n- Support atomic exchanges of NFTs for currency.\n- Issuance of NFTs with fixed supply.\n- Joint Accounts that distribute their funds over multiple owners.\n- Capture royalties on primary and secondary transfers, configurable per NFT type.\n*/\ncontract Davinci is /* BaseNFT, ChildERC20, Issuance, JointAccounts, TransferFees, */ AtomicExchange {\n\n}\n",
  "sourcePath": "/home/a/CERE/davinci-nft/contracts/polygon/Davinci.sol",
  "compiler": {
    "name": "solc",
    "version": "0.8.4+commit.c7e474f2.Emscripten.clang"
  },
  "schemaVersion": "3.4.1",
  "updatedAt": "2021-07-14T08:39:22.502Z",
  "devdoc": {
    "kind": "dev",
    "methods": {
      "balanceOf(address,uint256)": {
        "details": "See {IERC1155-balanceOf}. Requirements: - `account` cannot be the zero address."
      },
      "balanceOfBatch(address[],uint256[])": {
        "details": "See {IERC1155-balanceOfBatch}. Requirements: - `accounts` and `ids` must have the same length."
      },
      "isApprovedForAll(address,address)": {
        "details": "See {IERC1155-isApprovedForAll}."
      },
      "safeBatchTransferFrom(address,address,uint256[],uint256[],bytes)": {
        "details": "See {IERC1155-safeBatchTransferFrom}."
      },
      "safeTransferFrom(address,address,uint256,uint256,bytes)": {
        "details": "See {IERC1155-safeTransferFrom}."
      },
      "setApprovalForAll(address,bool)": {
        "details": "See {IERC1155-setApprovalForAll}."
      },
      "supportsInterface(bytes4)": {
        "details": "See {IERC165-supportsInterface}."
      },
      "uri(uint256)": {
        "details": "See {IERC1155MetadataURI-uri}. This implementation returns the same URI for *all* token types. It relies on the token type ID substitution mechanism https://eips.ethereum.org/EIPS/eip-1155#metadata[defined in the EIP]. Clients calling this function must replace the `\\{id\\}` substring with the actual token type ID."
      }
    },
    "version": 1
  },
  "userdoc": {
    "events": {
      "JointAccountShareCreated(address,address,uint256)": {
        "notice": "Notify that a Joint Account was created at the address `account`. One such event is emitted for each owner, including his fraction of the account in basis points (1% of 1%)."
      },
      "RoyaltiesConfigured(uint256,address,uint256,uint256,address,uint256,uint256)": {
        "notice": "Notify that royalties were configured on an NFT type."
      },
      "RoyaltiesLocked(uint256,uint256)": {
        "notice": "Notify that royalties are locked and cannot change, until the given time (in UNIX seconds), or forever (lockUntil = 0xFFFFFFFF)."
      },
      "Transfer(address,address,uint256)": {
        "notice": "ERC20 Transfer event for bridging this ERC1155 contract to ERC20 on Ethereum."
      }
    },
    "kind": "user",
    "methods": {
      "BASIS_POINTS()": {
        "notice": "The total fraction representing 100% of an account."
      },
      "CURRENCY()": {
        "notice": "The token ID that represents the CERE currency for all payments in this contract. "
      },
      "CURRENCY_SUPPLY()": {
        "notice": "The global supply of CERE tokens on all chains. That is 10 billion tokens, with 10 decimals."
      },
      "balanceOfJAOwner(address,address)": {
        "notice": "Calculate the amount of tokens that an owner of a Joint Account can withdraw right now."
      },
      "buyOffer(address,uint256,uint256,uint256)": {
        "notice": "Accept an offer, paying the price per unit for an amount of NFTs. The offer must have been created beforehand by offerToSell."
      },
      "buySignedOffer(uint256,uint256,uint256,bytes)": {
        "notice": "Accept an offer, paying the price per unit for an amount of NFTs. The offer is proved using sellerSignature generated offchain. [Not implemented]"
      },
      "childChainManagerProxy()": {
        "notice": "The address of the Polygon bridge contract that is allowed to deposit tokens. "
      },
      "configureRoyalties(uint256,address,uint256,uint256,address,uint256,uint256)": {
        "notice": "Configure the amounts and beneficiaries of royalties on primary and secondary transfers of this NFT. This configuration is available to the issuer of this NFT. A transfer is primary if it comes from the issuer of this NFT (normally the first sale after issuance). Otherwise, it is a secondary transfer. A royalty is defined in two parts (both optional): a cut of the sale price of an NFT, and a minimum royalty per transfer. For simple transfers not attached to a price, or a too low price, the minimum royalty is charged. The cuts are given in basis points (1% of 1%). The minimums are given in currency amounts. The configuration can be changed at any time by default. However, the issuer may commit to it for a period of time, effectively giving up his ability to modify the royalties. See the function lockRoyalties. There can be one beneficiary account for each primary and secondary royalties. To distribute revenues amongst several parties, use a Joint Account (see function createJointAccount)."
      },
      "createJointAccount(address[],uint256[])": {
        "notice": "Create an account such that multiple owners have a claim on their respective share. The size of a share is given as a fraction in basis points (1% of 1%). The sum of share fractions must equal 10,000. Anyone can create Joint Accounts including any owners."
      },
      "currencyInBridge()": {
        "notice": "Return the total amount of currency available in the bridge, which can be deposited into this contract."
      },
      "deposit(address,bytes)": {
        "notice": "Deposit currency from Ethereum into a user account in this contract. This is implemented by moving tokens from the bridge account to the user account. Two events will be emitted: ERC20 Transfer for the relayers, and ERC1155 TransferSingle like all transfers. There is an extra encoding necessary for the amount. In JavaScript, add this: `web3.eth.abi.encodeParameter('uint256', amount)`"
      },
      "distributeJointAccount(address)": {
        "notice": "Distribute all tokens available to all owners of a Joint Account. The function createJointAccount must be called beforehand. Anyone can trigger the distribution."
      },
      "fractionOfJAOwner(address,address)": {
        "notice": "Return the fraction of an account owned by the given address, in basis points (1% of 1%). If the account does not exist, or if the given address is not an owner of it, this returns 0. If the owner appears more than once in the account, this reports only the first share."
      },
      "getNftId(address,uint32,uint64)": {
        "notice": "Calculate the ID of an NFT type, identifying its issuer, its supply, and an arbitrary nonce."
      },
      "getRoyalties(uint256)": {
        "notice": "Return the current configuration of royalties for NFTs of type nftId, as set by configureRoyalties."
      },
      "getRoyaltiesForBeneficiary(uint256,address)": {
        "notice": "Return the amount of royalties earned by a beneficiary on each primary and secondary transfer of an NFT. This function supports Joint Accounts. If royalties are paid to a JA and beneficiary is an owner of the JA, the shares of the royalties for this owner are returned."
      },
      "issuanceNonces(address)": {
        "notice": "A counter of NFT types issued by each issuer. This is used to generate unique NFT IDs."
      },
      "issue(uint64,bytes)": {
        "notice": "Issue a supply of NFTs of a new type, and return its ID. No more NFT of this type can be issued again. The caller will be recorded as the issuer and it will initially own the entire supply."
      },
      "lockRoyalties(uint256,uint256)": {
        "notice": "Lock the configuration of royalties for this NFT type. Only the issuer may lock the configuration, after which he himself will no longer be able to change the configuration, for some time, or forever. Set lockUntil to a time in the future to lock the configuration until the specified time (in UNIX seconds). Set to 0xFFFFFFFF to lock forever."
      },
      "makeAddressOfJointAccount(address[],uint256[])": {
        "notice": "Generate a unique address identifying a list of owners and shares. It may be used to predict the address of a Joint Account and receive payments even before calling the function createJointAccount."
      },
      "offerToSell(uint256,uint256,uint256)": {
        "notice": "Create an offer to sell an amount of NFTs for a price per unit. To cancel, call again with an amount of 0."
      },
      "updateChildChainManager(address)": {
        "notice": "Change the ChainManager, which can deposit currency into any account. Only the current ChainManager is allowed to change the ChainManager."
      },
      "withdraw(uint256)": {
        "notice": "Withdraw currency from a user account in this contract to Ethereum. This is implemented by moving tokens from the user account to the bridge account. Two events will be emitted: ERC20 Transfer for the relayers, and ERC1155 TransferSingle like all transfers."
      }
    },
    "notice": "Main contract, including all components. - Hold and transfer NFTs using ERC1155. - Support atomic exchanges of NFTs for currency. - Issuance of NFTs with fixed supply. - Joint Accounts that distribute their funds over multiple owners. - Capture royalties on primary and secondary transfers, configurable per NFT type.",
    "version": 1
  }
}