{
  "contractName": "Davinci",
  "abi": [
    {
      "inputs": [],
      "stateMutability": "nonpayable",
      "type": "constructor"
    },
    {
      "anonymous": false,
      "inputs": [
        {
          "indexed": true,
          "internalType": "address",
          "name": "account",
          "type": "address"
        },
        {
          "indexed": true,
          "internalType": "address",
          "name": "operator",
          "type": "address"
        },
        {
          "indexed": false,
          "internalType": "bool",
          "name": "approved",
          "type": "bool"
        }
      ],
      "name": "ApprovalForAll",
      "type": "event"
    },
    {
      "anonymous": false,
      "inputs": [
        {
          "indexed": true,
          "internalType": "address",
          "name": "account",
          "type": "address"
        },
        {
          "indexed": true,
          "internalType": "address",
          "name": "owner",
          "type": "address"
        },
        {
          "indexed": false,
          "internalType": "uint256",
          "name": "fraction",
          "type": "uint256"
        }
      ],
      "name": "JointAccountShareCreated",
      "type": "event"
    },
    {
      "anonymous": false,
      "inputs": [
        {
          "indexed": true,
          "internalType": "uint256",
          "name": "nftId",
          "type": "uint256"
        },
        {
          "indexed": false,
          "internalType": "address",
          "name": "primaryRoyaltyAccount",
          "type": "address"
        },
        {
          "indexed": false,
          "internalType": "uint256",
          "name": "primaryRoyaltyCut",
          "type": "uint256"
        },
        {
          "indexed": false,
          "internalType": "uint256",
          "name": "primaryRoyaltyMinimum",
          "type": "uint256"
        },
        {
          "indexed": false,
          "internalType": "address",
          "name": "secondaryRoyaltyAccount",
          "type": "address"
        },
        {
          "indexed": false,
          "internalType": "uint256",
          "name": "secondaryRoyaltyCut",
          "type": "uint256"
        },
        {
          "indexed": false,
          "internalType": "uint256",
          "name": "secondaryRoyaltyMinimum",
          "type": "uint256"
        }
      ],
      "name": "RoyaltiesConfigured",
      "type": "event"
    },
    {
      "anonymous": false,
      "inputs": [
        {
          "indexed": true,
          "internalType": "address",
          "name": "operator",
          "type": "address"
        },
        {
          "indexed": true,
          "internalType": "address",
          "name": "from",
          "type": "address"
        },
        {
          "indexed": true,
          "internalType": "address",
          "name": "to",
          "type": "address"
        },
        {
          "indexed": false,
          "internalType": "uint256[]",
          "name": "ids",
          "type": "uint256[]"
        },
        {
          "indexed": false,
          "internalType": "uint256[]",
          "name": "values",
          "type": "uint256[]"
        }
      ],
      "name": "TransferBatch",
      "type": "event"
    },
    {
      "anonymous": false,
      "inputs": [
        {
          "indexed": true,
          "internalType": "address",
          "name": "operator",
          "type": "address"
        },
        {
          "indexed": true,
          "internalType": "address",
          "name": "from",
          "type": "address"
        },
        {
          "indexed": true,
          "internalType": "address",
          "name": "to",
          "type": "address"
        },
        {
          "indexed": false,
          "internalType": "uint256",
          "name": "id",
          "type": "uint256"
        },
        {
          "indexed": false,
          "internalType": "uint256",
          "name": "value",
          "type": "uint256"
        }
      ],
      "name": "TransferSingle",
      "type": "event"
    },
    {
      "anonymous": false,
      "inputs": [
        {
          "indexed": false,
          "internalType": "string",
          "name": "value",
          "type": "string"
        },
        {
          "indexed": true,
          "internalType": "uint256",
          "name": "id",
          "type": "uint256"
        }
      ],
      "name": "URI",
      "type": "event"
    },
    {
      "inputs": [],
      "name": "BASIS_POINTS",
      "outputs": [
        {
          "internalType": "uint256",
          "name": "",
          "type": "uint256"
        }
      ],
      "stateMutability": "view",
      "type": "function",
      "constant": true
    },
    {
      "inputs": [],
      "name": "CURRENCY",
      "outputs": [
        {
          "internalType": "uint256",
          "name": "",
          "type": "uint256"
        }
      ],
      "stateMutability": "view",
      "type": "function",
      "constant": true
    },
    {
      "inputs": [],
      "name": "MAX_JOINT_ACCOUNT_SHARES",
      "outputs": [
        {
          "internalType": "uint256",
          "name": "",
          "type": "uint256"
        }
      ],
      "stateMutability": "view",
      "type": "function",
      "constant": true
    },
    {
      "inputs": [
        {
          "internalType": "address",
          "name": "account",
          "type": "address"
        },
        {
          "internalType": "uint256",
          "name": "id",
          "type": "uint256"
        }
      ],
      "name": "balanceOf",
      "outputs": [
        {
          "internalType": "uint256",
          "name": "",
          "type": "uint256"
        }
      ],
      "stateMutability": "view",
      "type": "function",
      "constant": true
    },
    {
      "inputs": [
        {
          "internalType": "address[]",
          "name": "accounts",
          "type": "address[]"
        },
        {
          "internalType": "uint256[]",
          "name": "ids",
          "type": "uint256[]"
        }
      ],
      "name": "balanceOfBatch",
      "outputs": [
        {
          "internalType": "uint256[]",
          "name": "",
          "type": "uint256[]"
        }
      ],
      "stateMutability": "view",
      "type": "function",
      "constant": true
    },
    {
      "inputs": [
        {
          "internalType": "address",
          "name": "account",
          "type": "address"
        },
        {
          "internalType": "address",
          "name": "owner",
          "type": "address"
        }
      ],
      "name": "balanceOfJAOwner",
      "outputs": [
        {
          "internalType": "uint256",
          "name": "",
          "type": "uint256"
        }
      ],
      "stateMutability": "view",
      "type": "function",
      "constant": true
    },
    {
      "inputs": [
        {
          "internalType": "address",
          "name": "seller",
          "type": "address"
        },
        {
          "internalType": "uint256",
          "name": "nftId",
          "type": "uint256"
        },
        {
          "internalType": "uint256",
          "name": "price",
          "type": "uint256"
        },
        {
          "internalType": "uint256",
          "name": "amount",
          "type": "uint256"
        }
      ],
      "name": "buyOffer",
      "outputs": [],
      "stateMutability": "nonpayable",
      "type": "function"
    },
    {
      "inputs": [
        {
          "internalType": "uint256",
          "name": "nftId",
          "type": "uint256"
        },
        {
          "internalType": "uint256",
          "name": "price",
          "type": "uint256"
        },
        {
          "internalType": "uint256",
          "name": "amount",
          "type": "uint256"
        },
        {
          "internalType": "bytes",
          "name": "sellerSignature",
          "type": "bytes"
        }
      ],
      "name": "buySignedOffer",
      "outputs": [],
      "stateMutability": "nonpayable",
      "type": "function"
    },
    {
      "inputs": [
        {
          "internalType": "uint256",
          "name": "nftId",
          "type": "uint256"
        },
        {
          "internalType": "address",
          "name": "primaryRoyaltyAccount",
          "type": "address"
        },
        {
          "internalType": "uint256",
          "name": "primaryRoyaltyCut",
          "type": "uint256"
        },
        {
          "internalType": "uint256",
          "name": "primaryRoyaltyMinimum",
          "type": "uint256"
        },
        {
          "internalType": "address",
          "name": "secondaryRoyaltyAccount",
          "type": "address"
        },
        {
          "internalType": "uint256",
          "name": "secondaryRoyaltyCut",
          "type": "uint256"
        },
        {
          "internalType": "uint256",
          "name": "secondaryRoyaltyMinimum",
          "type": "uint256"
        }
      ],
      "name": "configureRoyalties",
      "outputs": [],
      "stateMutability": "nonpayable",
      "type": "function"
    },
    {
      "inputs": [
        {
          "internalType": "address[]",
          "name": "owners",
          "type": "address[]"
        },
        {
          "internalType": "uint256[]",
          "name": "fractions",
          "type": "uint256[]"
        }
      ],
      "name": "createJointAccount",
      "outputs": [
        {
          "internalType": "address",
          "name": "",
          "type": "address"
        }
      ],
      "stateMutability": "nonpayable",
      "type": "function"
    },
    {
      "inputs": [
        {
          "internalType": "address",
          "name": "account",
          "type": "address"
        }
      ],
      "name": "distributeJointAccount",
      "outputs": [],
      "stateMutability": "nonpayable",
      "type": "function"
    },
    {
      "inputs": [
        {
          "internalType": "address",
          "name": "account",
          "type": "address"
        },
        {
          "internalType": "address",
          "name": "maybeOwner",
          "type": "address"
        }
      ],
      "name": "fractionOfJAOwner",
      "outputs": [
        {
          "internalType": "uint256",
          "name": "",
          "type": "uint256"
        }
      ],
      "stateMutability": "view",
      "type": "function",
      "constant": true
    },
    {
      "inputs": [
        {
          "internalType": "address",
          "name": "issuer",
          "type": "address"
        },
        {
          "internalType": "uint32",
          "name": "nonce",
          "type": "uint32"
        },
        {
          "internalType": "uint64",
          "name": "supply",
          "type": "uint64"
        }
      ],
      "name": "getNftId",
      "outputs": [
        {
          "internalType": "uint256",
          "name": "",
          "type": "uint256"
        }
      ],
      "stateMutability": "pure",
      "type": "function",
      "constant": true
    },
    {
      "inputs": [
        {
          "internalType": "uint256",
          "name": "nftId",
          "type": "uint256"
        }
      ],
      "name": "getRoyalties",
      "outputs": [
        {
          "internalType": "address",
          "name": "primaryRoyaltyAccount",
          "type": "address"
        },
        {
          "internalType": "uint256",
          "name": "primaryRoyaltyCut",
          "type": "uint256"
        },
        {
          "internalType": "uint256",
          "name": "primaryRoyaltyMinimum",
          "type": "uint256"
        },
        {
          "internalType": "address",
          "name": "secondaryRoyaltyAccount",
          "type": "address"
        },
        {
          "internalType": "uint256",
          "name": "secondaryRoyaltyCut",
          "type": "uint256"
        },
        {
          "internalType": "uint256",
          "name": "secondaryRoyaltyMinimum",
          "type": "uint256"
        }
      ],
      "stateMutability": "view",
      "type": "function",
      "constant": true
    },
    {
      "inputs": [
        {
          "internalType": "uint256",
          "name": "nftId",
          "type": "uint256"
        },
        {
          "internalType": "address",
          "name": "beneficiary",
          "type": "address"
        }
      ],
      "name": "getRoyaltiesForBeneficiary",
      "outputs": [
        {
          "internalType": "uint256",
          "name": "primaryCut",
          "type": "uint256"
        },
        {
          "internalType": "uint256",
          "name": "primaryMinimum",
          "type": "uint256"
        },
        {
          "internalType": "uint256",
          "name": "secondaryCut",
          "type": "uint256"
        },
        {
          "internalType": "uint256",
          "name": "secondaryMinimum",
          "type": "uint256"
        }
      ],
      "stateMutability": "view",
      "type": "function",
      "constant": true
    },
    {
      "inputs": [
        {
          "internalType": "address",
          "name": "account",
          "type": "address"
        },
        {
          "internalType": "address",
          "name": "operator",
          "type": "address"
        }
      ],
      "name": "isApprovedForAll",
      "outputs": [
        {
          "internalType": "bool",
          "name": "",
          "type": "bool"
        }
      ],
      "stateMutability": "view",
      "type": "function",
      "constant": true
    },
    {
      "inputs": [
        {
          "internalType": "address",
          "name": "",
          "type": "address"
        }
      ],
      "name": "issuanceNonces",
      "outputs": [
        {
          "internalType": "uint32",
          "name": "",
          "type": "uint32"
        }
      ],
      "stateMutability": "view",
      "type": "function",
      "constant": true
    },
    {
      "inputs": [
        {
          "internalType": "uint64",
          "name": "supply",
          "type": "uint64"
        },
        {
          "internalType": "bytes",
          "name": "data",
          "type": "bytes"
        }
      ],
      "name": "issue",
      "outputs": [
        {
          "internalType": "uint256",
          "name": "",
          "type": "uint256"
        }
      ],
      "stateMutability": "nonpayable",
      "type": "function"
    },
    {
      "inputs": [
        {
          "internalType": "address",
          "name": "",
          "type": "address"
        },
        {
          "internalType": "uint256",
          "name": "",
          "type": "uint256"
        }
      ],
      "name": "jointAccounts",
      "outputs": [
        {
          "internalType": "address",
          "name": "owner",
          "type": "address"
        },
        {
          "internalType": "uint256",
          "name": "fraction",
          "type": "uint256"
        }
      ],
      "stateMutability": "view",
      "type": "function",
      "constant": true
    },
    {
      "inputs": [
        {
          "internalType": "address[]",
          "name": "owners",
          "type": "address[]"
        },
        {
          "internalType": "uint256[]",
          "name": "fractions",
          "type": "uint256[]"
        }
      ],
      "name": "makeAddressOfJointAccount",
      "outputs": [
        {
          "internalType": "address",
          "name": "",
          "type": "address"
        }
      ],
      "stateMutability": "pure",
      "type": "function",
      "constant": true
    },
    {
      "inputs": [
        {
          "internalType": "uint256",
          "name": "nftId",
          "type": "uint256"
        },
        {
          "internalType": "uint256",
          "name": "price",
          "type": "uint256"
        },
        {
          "internalType": "uint256",
          "name": "amount",
          "type": "uint256"
        }
      ],
      "name": "offerToSell",
      "outputs": [],
      "stateMutability": "nonpayable",
      "type": "function"
    },
    {
      "inputs": [
        {
          "internalType": "address",
          "name": "from",
          "type": "address"
        },
        {
          "internalType": "address",
          "name": "to",
          "type": "address"
        },
        {
          "internalType": "uint256[]",
          "name": "ids",
          "type": "uint256[]"
        },
        {
          "internalType": "uint256[]",
          "name": "amounts",
          "type": "uint256[]"
        },
        {
          "internalType": "bytes",
          "name": "data",
          "type": "bytes"
        }
      ],
      "name": "safeBatchTransferFrom",
      "outputs": [],
      "stateMutability": "nonpayable",
      "type": "function"
    },
    {
      "inputs": [
        {
          "internalType": "address",
          "name": "from",
          "type": "address"
        },
        {
          "internalType": "address",
          "name": "to",
          "type": "address"
        },
        {
          "internalType": "uint256",
          "name": "id",
          "type": "uint256"
        },
        {
          "internalType": "uint256",
          "name": "amount",
          "type": "uint256"
        },
        {
          "internalType": "bytes",
          "name": "data",
          "type": "bytes"
        }
      ],
      "name": "safeTransferFrom",
      "outputs": [],
      "stateMutability": "nonpayable",
      "type": "function"
    },
    {
      "inputs": [
        {
          "internalType": "address",
          "name": "operator",
          "type": "address"
        },
        {
          "internalType": "bool",
          "name": "approved",
          "type": "bool"
        }
      ],
      "name": "setApprovalForAll",
      "outputs": [],
      "stateMutability": "nonpayable",
      "type": "function"
    },
    {
      "inputs": [
        {
          "internalType": "bytes4",
          "name": "interfaceId",
          "type": "bytes4"
        }
      ],
      "name": "supportsInterface",
      "outputs": [
        {
          "internalType": "bool",
          "name": "",
          "type": "bool"
        }
      ],
      "stateMutability": "view",
      "type": "function",
      "constant": true
    },
    {
      "inputs": [
        {
          "internalType": "uint256",
          "name": "",
          "type": "uint256"
        }
      ],
      "name": "uri",
      "outputs": [
        {
          "internalType": "string",
          "name": "",
          "type": "string"
        }
      ],
      "stateMutability": "view",
      "type": "function",
      "constant": true
    }
  ],
  "bytecode": "0x6080604052612710600455600a6005553480156200001c57600080fd5b5060405180606001604052806022815260200162005c646022913962000048816200009760201b60201c565b50600068056bc75e2d631000009050600062000069620000b360201b60201c565b90506200008f8160008460405180602001604052806000815250620000bb60201b60201c565b50506200131a565b8060029080519060200190620000af929190620009ac565b5050565b600033905090565b600073ffffffffffffffffffffffffffffffffffffffff168473ffffffffffffffffffffffffffffffffffffffff1614156200012e576040517f08c379a0000000000000000000000000000000000000000000000000000000008152600401620001259062000cd3565b60405180910390fd5b600062000140620000b360201b60201c565b905062000179816000876200015b886200028060201b60201c565b6200016c886200028060201b60201c565b876200030160201b60201c565b8260008086815260200190815260200160002060008773ffffffffffffffffffffffffffffffffffffffff1673ffffffffffffffffffffffffffffffffffffffff1681526020019081526020016000206000828254620001da919062000d64565b925050819055508473ffffffffffffffffffffffffffffffffffffffff16600073ffffffffffffffffffffffffffffffffffffffff168273ffffffffffffffffffffffffffffffffffffffff167fc3d58168c5ae7397731d063d5bbf3d657854427343f4c083240f7aacaa2d0f6287876040516200025a92919062000cf5565b60405180910390a462000279816000878787876200037a60201b60201c565b5050505050565b60606000600167ffffffffffffffff811115620002a257620002a1620010ab565b5b604051908082528060200260200182016040528015620002d15781602001602082028036833780820191505090505b5090508281600081518110620002ec57620002eb6200107c565b5b60200260200101818152505080915050919050565b60005b835181101562000371576200035d868583815181106200032957620003286200107c565b5b602002602001015160008685815181106200034957620003486200107c565b5b60200260200101516200058460201b60201c565b80620003699062000fa1565b905062000304565b50505050505050565b620003a68473ffffffffffffffffffffffffffffffffffffffff16620006ec60201b62001f4d1760201c565b156200057c578373ffffffffffffffffffffffffffffffffffffffff1663f23a6e6187878686866040518663ffffffff1660e01b8152600401620003ef95949392919062000be5565b602060405180830381600087803b1580156200040a57600080fd5b505af19250505080156200043e57506040513d601f19601f820116820180604052508101906200043b919062000a73565b60015b620004f0576200044d620010da565b806308c379a01415620004b15750620004656200125e565b80620004725750620004b3565b806040517f08c379a0000000000000000000000000000000000000000000000000000000008152600401620004a8919062000c49565b60405180910390fd5b505b6040517f08c379a0000000000000000000000000000000000000000000000000000000008152600401620004e79062000c6d565b60405180910390fd5b63f23a6e6160e01b7bffffffffffffffffffffffffffffffffffffffffffffffffffffffff1916817bffffffffffffffffffffffffffffffffffffffffffffffffffffffff1916146200057a576040517f08c379a0000000000000000000000000000000000000000000000000000000008152600401620005719062000c8f565b60405180910390fd5b505b505050505050565b60008314156200059457620006e6565b600080600080620005ac8888620006ff60201b60201c565b905080156200061d5760086000888152602001908152602001600020549350600960008881526020019081526020016000205492506007600088815260200190815260200160002060009054906101000a900473ffffffffffffffffffffffffffffffffffffffff16915062000680565b600b6000888152602001908152602001600020549350600c6000888152602001908152602001600020549250600a600088815260200190815260200160002060009054906101000a900473ffffffffffffffffffffffffffffffffffffffff1691505b6000600454858862000693919062000df9565b6200069f919062000dc1565b905083811015620006ae578390505b60008682620006be919062000df9565b905060008114620006df57620006de8a856000846200075660201b60201c565b5b5050505050505b50505050565b600080823b905060008111915050919050565b60008060008062000716856200095560201b60201c565b9250925092508273ffffffffffffffffffffffffffffffffffffffff168673ffffffffffffffffffffffffffffffffffffffff1614935050505092915050565b600080600084815260200190815260200160002060008673ffffffffffffffffffffffffffffffffffffffff1673ffffffffffffffffffffffffffffffffffffffff16815260200190815260200160002054905081811015620007f0576040517f08c379a0000000000000000000000000000000000000000000000000000000008152600401620007e79062000cb1565b60405180910390fd5b8181620007fe919062000e5a565b60008085815260200190815260200160002060008773ffffffffffffffffffffffffffffffffffffffff1673ffffffffffffffffffffffffffffffffffffffff168152602001908152602001600020819055508160008085815260200190815260200160002060008673ffffffffffffffffffffffffffffffffffffffff1673ffffffffffffffffffffffffffffffffffffffff1681526020019081526020016000206000828254620008b2919062000d64565b925050819055506000620008cb620000b360201b60201c565b90508473ffffffffffffffffffffffffffffffffffffffff168673ffffffffffffffffffffffffffffffffffffffff168273ffffffffffffffffffffffffffffffffffffffff167fc3d58168c5ae7397731d063d5bbf3d657854427343f4c083240f7aacaa2d0f6287876040516200094592919062000cf5565b60405180910390a4505050505050565b600080600060607fffffffffffffffffffffffffffffffffffffffff0000000000000000000000008516901c925060406bffffffff00000000000000008516901c915067ffffffffffffffff841690509193909250565b828054620009ba9062000f35565b90600052602060002090601f016020900481019282620009de576000855562000a2a565b82601f10620009f957805160ff191683800117855562000a2a565b8280016001018555821562000a2a579182015b8281111562000a2957825182559160200191906001019062000a0c565b5b50905062000a39919062000a3d565b5090565b5b8082111562000a5857600081600090555060010162000a3e565b5090565b60008151905062000a6d8162001300565b92915050565b60006020828403121562000a8c5762000a8b620010ff565b5b600062000a9c8482850162000a5c565b91505092915050565b62000ab08162000e95565b82525050565b600062000ac38262000d2c565b62000acf818562000d42565b935062000ae181856020860162000eff565b62000aec8162001104565b840191505092915050565b600062000b048262000d37565b62000b10818562000d53565b935062000b2281856020860162000eff565b62000b2d8162001104565b840191505092915050565b600062000b4760348362000d53565b915062000b548262001122565b604082019050919050565b600062000b6e60288362000d53565b915062000b7b8262001171565b604082019050919050565b600062000b95602a8362000d53565b915062000ba282620011c0565b604082019050919050565b600062000bbc60218362000d53565b915062000bc9826200120f565b604082019050919050565b62000bdf8162000ef5565b82525050565b600060a08201905062000bfc600083018862000aa5565b62000c0b602083018762000aa5565b62000c1a604083018662000bd4565b62000c29606083018562000bd4565b818103608083015262000c3d818462000ab6565b90509695505050505050565b6000602082019050818103600083015262000c65818462000af7565b905092915050565b6000602082019050818103600083015262000c888162000b38565b9050919050565b6000602082019050818103600083015262000caa8162000b5f565b9050919050565b6000602082019050818103600083015262000ccc8162000b86565b9050919050565b6000602082019050818103600083015262000cee8162000bad565b9050919050565b600060408201905062000d0c600083018562000bd4565b62000d1b602083018462000bd4565b9392505050565b6000604051905090565b600081519050919050565b600081519050919050565b600082825260208201905092915050565b600082825260208201905092915050565b600062000d718262000ef5565b915062000d7e8362000ef5565b9250827fffffffffffffffffffffffffffffffffffffffffffffffffffffffffffffffff0382111562000db65762000db562000fef565b5b828201905092915050565b600062000dce8262000ef5565b915062000ddb8362000ef5565b92508262000dee5762000ded6200101e565b5b828204905092915050565b600062000e068262000ef5565b915062000e138362000ef5565b9250817fffffffffffffffffffffffffffffffffffffffffffffffffffffffffffffffff048311821515161562000e4f5762000e4e62000fef565b5b828202905092915050565b600062000e678262000ef5565b915062000e748362000ef5565b92508282101562000e8a5762000e8962000fef565b5b828203905092915050565b600062000ea28262000ed5565b9050919050565b60007fffffffff0000000000000000000000000000000000000000000000000000000082169050919050565b600073ffffffffffffffffffffffffffffffffffffffff82169050919050565b6000819050919050565b60005b8381101562000f1f57808201518184015260208101905062000f02565b8381111562000f2f576000848401525b50505050565b6000600282049050600182168062000f4e57607f821691505b6020821081141562000f655762000f646200104d565b5b50919050565b62000f768262001104565b810181811067ffffffffffffffff8211171562000f985762000f97620010ab565b5b80604052505050565b600062000fae8262000ef5565b91507fffffffffffffffffffffffffffffffffffffffffffffffffffffffffffffffff82141562000fe45762000fe362000fef565b5b600182019050919050565b7f4e487b7100000000000000000000000000000000000000000000000000000000600052601160045260246000fd5b7f4e487b7100000000000000000000000000000000000000000000000000000000600052601260045260246000fd5b7f4e487b7100000000000000000000000000000000000000000000000000000000600052602260045260246000fd5b7f4e487b7100000000000000000000000000000000000000000000000000000000600052603260045260246000fd5b7f4e487b7100000000000000000000000000000000000000000000000000000000600052604160045260246000fd5b600060033d1115620010fc5760046000803e620010f960005162001115565b90505b90565b600080fd5b6000601f19601f8301169050919050565b60008160e01c9050919050565b7f455243313135353a207472616e7366657220746f206e6f6e204552433131353560008201527f526563656976657220696d706c656d656e746572000000000000000000000000602082015250565b7f455243313135353a204552433131353552656365697665722072656a6563746560008201527f6420746f6b656e73000000000000000000000000000000000000000000000000602082015250565b7f455243313135353a20696e73756666696369656e742062616c616e636520666f60008201527f72207472616e7366657200000000000000000000000000000000000000000000602082015250565b7f455243313135353a206d696e7420746f20746865207a65726f2061646472657360008201527f7300000000000000000000000000000000000000000000000000000000000000602082015250565b600060443d10156200127057620012fd565b6200127a62000d22565b60043d036004823e80513d602482011167ffffffffffffffff82111715620012a4575050620012fd565b808201805167ffffffffffffffff811115620012c45750505050620012fd565b80602083010160043d038501811115620012e3575050505050620012fd565b620012f48260200185018662000f6b565b82955050505050505b90565b6200130b8162000ea9565b81146200131757600080fd5b50565b61493a806200132a6000396000f3fe608060405234801561001057600080fd5b506004361061018d5760003560e01c80639e00bb96116100de578063bb3bafd611610097578063e985e9c511610071578063e985e9c51461051f578063f242432a1461054f578063f3747d2d1461056b578063f5361219146105875761018d565b8063bb3bafd614610499578063e1f1c4a7146104ce578063e24b0a2b146104ec5761018d565b80639e00bb96146103b5578063a22cb465146103e5578063a5e1fcd714610401578063acc08fa51461041d578063ad09608a1461044d578063ba7f4dfe146104695761018d565b80633c6b57091161014b5780635611cac2116101255780635611cac21461031d57806358556fb01461034d5780636f6fa3191461037d5780638183d99d146103995761018d565b80633c6b57091461028c5780634559a29b146102bc5780634e1273f4146102ed5761018d565b8062fdd58e1461019257806301ffc9a7146101c25780630e89341c146101f25780632c8f284c146102225780632eb2c2d61461025257806330b064211461026e575b600080fd5b6101ac60048036038101906101a79190612fd9565b6105a5565b6040516101b99190613cfa565b60405180910390f35b6101dc60048036038101906101d7919061314b565b61066e565b6040516101e99190613a7d565b60405180910390f35b61020c600480360381019061020791906131a5565b610750565b6040516102199190613a98565b60405180910390f35b61023c60048036038101906102379190612df3565b6107e4565b6040516102499190613cfa565b60405180910390f35b61026c60048036038101906102679190612e33565b6108e4565b005b610276610c8e565b6040516102839190613cfa565b60405180910390f35b6102a660048036038101906102a19190613080565b610c94565b6040516102b39190613cfa565b60405180910390f35b6102d660048036038101906102d19190612fd9565b610cef565b6040516102e492919061399a565b60405180910390f35b610307600480360381019061030291906130d3565b610d50565b6040516103149190613a24565b60405180910390f35b610337600480360381019061033291906130d3565b610e69565b60405161034491906138bd565b60405180910390f35b6103676004803603810190610362919061338a565b610ea4565b6040516103749190613cfa565b60405180910390f35b610397600480360381019061039291906132b4565b610ec0565b005b6103b360048036038101906103ae9190613307565b610f38565b005b6103cf60048036038101906103ca9190612df3565b610f73565b6040516103dc9190613cfa565b60405180910390f35b6103ff60048036038101906103fa9190612f99565b610fba565b005b61041b60048036038101906104169190612dc6565b61113b565b005b61043760048036038101906104329190612dc6565b61122e565b6040516104449190613d83565b60405180910390f35b61046760048036038101906104629190613212565b611251565b005b610483600480360381019061047e91906130d3565b6114ce565b60405161049091906138bd565b60405180910390f35b6104b360048036038101906104ae91906131a5565b61183a565b6040516104c5969594939291906139c3565b60405180910390f35b6104d6611910565b6040516104e39190613cfa565b60405180910390f35b610506600480360381019061050191906131d2565b611916565b6040516105169493929190613d3e565b60405180910390f35b61053960048036038101906105349190612df3565b611ae1565b6040516105469190613a7d565b60405180910390f35b61056960048036038101906105649190612f02565b611b75565b005b61058560048036038101906105809190613019565b611e8d565b005b61058f611f48565b60405161059c9190613cfa565b60405180910390f35b60008073ffffffffffffffffffffffffffffffffffffffff168373ffffffffffffffffffffffffffffffffffffffff161415610616576040517f08c379a000000000000000000000000000000000000000000000000000000000815260040161060d90613b1a565b60405180910390fd5b60008083815260200190815260200160002060008473ffffffffffffffffffffffffffffffffffffffff1673ffffffffffffffffffffffffffffffffffffffff16815260200190815260200160002054905092915050565b60007fd9b67a26000000000000000000000000000000000000000000000000000000007bffffffffffffffffffffffffffffffffffffffffffffffffffffffff1916827bffffffffffffffffffffffffffffffffffffffffffffffffffffffff1916148061073957507f0e89341c000000000000000000000000000000000000000000000000000000007bffffffffffffffffffffffffffffffffffffffffffffffffffffffff1916827bffffffffffffffffffffffffffffffffffffffffffffffffffffffff1916145b80610749575061074882611f60565b5b9050919050565b60606002805461075f90614124565b80601f016020809104026020016040519081016040528092919081815260200182805461078b90614124565b80156107d85780601f106107ad576101008083540402835291602001916107d8565b820191906000526020600020905b8154815290600101906020018083116107bb57829003601f168201915b50505050509050919050565b600080600660008573ffffffffffffffffffffffffffffffffffffffff1673ffffffffffffffffffffffffffffffffffffffff168152602001908152602001600020905060005b81805490508110156108d757600082828154811061084c5761084b61425d565b5b906000526020600020906002020190508473ffffffffffffffffffffffffffffffffffffffff168160000160009054906101000a900473ffffffffffffffffffffffffffffffffffffffff1673ffffffffffffffffffffffffffffffffffffffff1614156108c357806001015493505050506108de565b5080806108cf90614187565b91505061082b565b5060009150505b92915050565b8151835114610928576040517f08c379a000000000000000000000000000000000000000000000000000000000815260040161091f90613c9a565b60405180910390fd5b600073ffffffffffffffffffffffffffffffffffffffff168473ffffffffffffffffffffffffffffffffffffffff161415610998576040517f08c379a000000000000000000000000000000000000000000000000000000000815260040161098f90613b9a565b60405180910390fd5b6109a0611fca565b73ffffffffffffffffffffffffffffffffffffffff168573ffffffffffffffffffffffffffffffffffffffff1614806109e657506109e5856109e0611fca565b611ae1565b5b610a25576040517f08c379a0000000000000000000000000000000000000000000000000000000008152600401610a1c90613bba565b60405180910390fd5b6000610a2f611fca565b9050610a3f818787878787611fd2565b60005b8451811015610bf9576000858281518110610a6057610a5f61425d565b5b602002602001015190506000858381518110610a7f57610a7e61425d565b5b60200260200101519050600080600084815260200190815260200160002060008b73ffffffffffffffffffffffffffffffffffffffff1673ffffffffffffffffffffffffffffffffffffffff16815260200190815260200160002054905081811015610b20576040517f08c379a0000000000000000000000000000000000000000000000000000000008152600401610b1790613bfa565b60405180910390fd5b8181610b2c9190614016565b60008085815260200190815260200160002060008c73ffffffffffffffffffffffffffffffffffffffff1673ffffffffffffffffffffffffffffffffffffffff168152602001908152602001600020819055508160008085815260200190815260200160002060008b73ffffffffffffffffffffffffffffffffffffffff1673ffffffffffffffffffffffffffffffffffffffff1681526020019081526020016000206000828254610bde9190613efb565b9250508190555050505080610bf290614187565b9050610a42565b508473ffffffffffffffffffffffffffffffffffffffff168673ffffffffffffffffffffffffffffffffffffffff168273ffffffffffffffffffffffffffffffffffffffff167f4a39dc06d4c0dbc64b70af90fd698a233a518aa5d07e595d983b8c0526c8f7fb8787604051610c70929190613a46565b60405180910390a4610c86818787878787612039565b505050505050565b60055481565b6000808267ffffffffffffffff1660408563ffffffff16901b63ffffffff1660608773ffffffffffffffffffffffffffffffffffffffff16901b610cd89190613efb565b610ce29190613efb565b9050809150509392505050565b60066020528160005260406000208181548110610d0b57600080fd5b9060005260206000209060020201600091509150508060000160009054906101000a900473ffffffffffffffffffffffffffffffffffffffff16908060010154905082565b60608151835114610d96576040517f08c379a0000000000000000000000000000000000000000000000000000000008152600401610d8d90613c7a565b60405180910390fd5b6000835167ffffffffffffffff811115610db357610db261428c565b5b604051908082528060200260200182016040528015610de15781602001602082028036833780820191505090505b50905060005b8451811015610e5e57610e2e858281518110610e0657610e0561425d565b5b6020026020010151858381518110610e2157610e2061425d565b5b60200260200101516105a5565b828281518110610e4157610e4061425d565b5b60200260200101818152505080610e5790614187565b9050610de7565b508091505092915050565b6000808383604051602001610e7f929190613899565b6040516020818303038152906040528051906020012090508060601c91505092915050565b6000610eb8610eb1611fca565b8484612220565b905092915050565b6000610eca611fca565b905081600d60008373ffffffffffffffffffffffffffffffffffffffff1673ffffffffffffffffffffffffffffffffffffffff168152602001908152602001600020600086815260200190815260200160002060008581526020019081526020016000208190555050505050565b6040517f08c379a0000000000000000000000000000000000000000000000000000000008152600401610f6a90613b3a565b60405180910390fd5b600080610f8084846107e4565b90506000610f8f8560006105a5565b905060006004548383610fa29190613fbc565b610fac9190613f8b565b905080935050505092915050565b8173ffffffffffffffffffffffffffffffffffffffff16610fd9611fca565b73ffffffffffffffffffffffffffffffffffffffff161415611030576040517f08c379a000000000000000000000000000000000000000000000000000000000815260040161102790613c5a565b60405180910390fd5b806001600061103d611fca565b73ffffffffffffffffffffffffffffffffffffffff1673ffffffffffffffffffffffffffffffffffffffff16815260200190815260200160002060008473ffffffffffffffffffffffffffffffffffffffff1673ffffffffffffffffffffffffffffffffffffffff16815260200190815260200160002060006101000a81548160ff0219169083151502179055508173ffffffffffffffffffffffffffffffffffffffff166110ea611fca565b73ffffffffffffffffffffffffffffffffffffffff167f17307eab39ab6107e8899845ad3d59bd9653f200f220920489ca2b5937696c318360405161112f9190613a7d565b60405180910390a35050565b60006111488260006105a5565b90506000600660008473ffffffffffffffffffffffffffffffffffffffff1673ffffffffffffffffffffffffffffffffffffffff168152602001908152602001600020905060005b81805490508110156112285760008282815481106111b1576111b061425d565b5b9060005260206000209060020201905060006004548260010154866111d69190613fbc565b6111e09190613f8b565b9050611213868360000160009054906101000a900473ffffffffffffffffffffffffffffffffffffffff16600084612327565b5050808061122090614187565b915050611190565b50505050565b60036020528060005260406000206000915054906101000a900463ffffffff1681565b600061125b611fca565b90506112678189612515565b61127057600080fd5b600073ffffffffffffffffffffffffffffffffffffffff168773ffffffffffffffffffffffffffffffffffffffff161415806112b857506000861480156112b75750600085145b5b6112f7576040517f08c379a00000000000000000000000000000000000000000000000000000000081526004016112ee90613bda565b60405180910390fd5b86600760008a815260200190815260200160002060006101000a81548173ffffffffffffffffffffffffffffffffffffffff021916908373ffffffffffffffffffffffffffffffffffffffff16021790555085600860008a81526020019081526020016000208190555084600960008a815260200190815260200160002081905550600073ffffffffffffffffffffffffffffffffffffffff168473ffffffffffffffffffffffffffffffffffffffff161415806113c157506000831480156113c05750600082145b5b611400576040517f08c379a00000000000000000000000000000000000000000000000000000000081526004016113f790613bda565b60405180910390fd5b83600a60008a815260200190815260200160002060006101000a81548173ffffffffffffffffffffffffffffffffffffffff021916908373ffffffffffffffffffffffffffffffffffffffff16021790555082600b60008a81526020019081526020016000208190555081600c60008a815260200190815260200160002081905550877f3df2272e42784a2455bbbdcdf25ae0f67d41f801896514cc4cd255aa8ee75e4c8888888888886040516114bc969594939291906139c3565b60405180910390a25050505050505050565b60008151835114611514576040517f08c379a000000000000000000000000000000000000000000000000000000000815260040161150b90613c3a565b60405180910390fd5b6005548351111561155a576040517f08c379a000000000000000000000000000000000000000000000000000000000815260040161155190613c1a565b60405180910390fd5b60006115668484610e69565b90506000600660008373ffffffffffffffffffffffffffffffffffffffff1673ffffffffffffffffffffffffffffffffffffffff168152602001908152602001600020905060008180549050146115f2576040517f08c379a00000000000000000000000000000000000000000000000000000000081526004016115e990613cda565b60405180910390fd5b6000805b86518110156117e95760008782815181106116145761161361425d565b5b6020026020010151905060008783815181106116335761163261425d565b5b60200260200101519050600073ffffffffffffffffffffffffffffffffffffffff168273ffffffffffffffffffffffffffffffffffffffff161415801561167b575060008114155b6116ba576040517f08c379a00000000000000000000000000000000000000000000000000000000081526004016116b190613b7a565b60405180910390fd5b8460405180604001604052808473ffffffffffffffffffffffffffffffffffffffff16815260200183815250908060018154018082558091505060019003906000526020600020906002020160009091909190915060008201518160000160006101000a81548173ffffffffffffffffffffffffffffffffffffffff021916908373ffffffffffffffffffffffffffffffffffffffff160217905550602082015181600101555050808461176e9190613efb565b93508173ffffffffffffffffffffffffffffffffffffffff168673ffffffffffffffffffffffffffffffffffffffff167e6fb9851f1fd2fbc9fa36680d17e1254999a38e5f3c76c3a1ecc126a464601b836040516117cc9190613cfa565b60405180910390a3505080806117e190614187565b9150506115f6565b50600454811461182e576040517f08c379a000000000000000000000000000000000000000000000000000000000815260040161182590613afa565b60405180910390fd5b82935050505092915050565b6000806000806000806007600088815260200190815260200160002060009054906101000a900473ffffffffffffffffffffffffffffffffffffffff166008600089815260200190815260200160002054600960008a815260200190815260200160002054600a60008b815260200190815260200160002060009054906101000a900473ffffffffffffffffffffffffffffffffffffffff16600b60008c815260200190815260200160002054600c60008d81526020019081526020016000205495509550955095509550955091939550919395565b60045481565b600080600080600860008781526020019081526020016000205493506009600087815260200190815260200160002054925060006007600088815260200190815260200160002060009054906101000a900473ffffffffffffffffffffffffffffffffffffffff1690508573ffffffffffffffffffffffffffffffffffffffff168173ffffffffffffffffffffffffffffffffffffffff16146119f95760006119bf82886107e4565b905060045481876119d09190613fbc565b6119da9190613f8b565b955060045481866119eb9190613fbc565b6119f59190613f8b565b9450505b600b6000888152602001908152602001600020549250600c60008881526020019081526020016000205491506000600a600089815260200190815260200160002060009054906101000a900473ffffffffffffffffffffffffffffffffffffffff1690508673ffffffffffffffffffffffffffffffffffffffff168173ffffffffffffffffffffffffffffffffffffffff1614611ad6576000611a9c82896107e4565b90506004548186611aad9190613fbc565b611ab79190613f8b565b94506004548185611ac89190613fbc565b611ad29190613f8b565b9350505b505092959194509250565b6000600160008473ffffffffffffffffffffffffffffffffffffffff1673ffffffffffffffffffffffffffffffffffffffff16815260200190815260200160002060008373ffffffffffffffffffffffffffffffffffffffff1673ffffffffffffffffffffffffffffffffffffffff16815260200190815260200160002060009054906101000a900460ff16905092915050565b600073ffffffffffffffffffffffffffffffffffffffff168473ffffffffffffffffffffffffffffffffffffffff161415611be5576040517f08c379a0000000000000000000000000000000000000000000000000000000008152600401611bdc90613b9a565b60405180910390fd5b611bed611fca565b73ffffffffffffffffffffffffffffffffffffffff168573ffffffffffffffffffffffffffffffffffffffff161480611c335750611c3285611c2d611fca565b611ae1565b5b611c72576040517f08c379a0000000000000000000000000000000000000000000000000000000008152600401611c6990613b5a565b60405180910390fd5b6000611c7c611fca565b9050611c9c818787611c8d8861259e565b611c968861259e565b87611fd2565b600080600086815260200190815260200160002060008873ffffffffffffffffffffffffffffffffffffffff1673ffffffffffffffffffffffffffffffffffffffff16815260200190815260200160002054905083811015611d33576040517f08c379a0000000000000000000000000000000000000000000000000000000008152600401611d2a90613bfa565b60405180910390fd5b8381611d3f9190614016565b60008087815260200190815260200160002060008973ffffffffffffffffffffffffffffffffffffffff1673ffffffffffffffffffffffffffffffffffffffff168152602001908152602001600020819055508360008087815260200190815260200160002060008873ffffffffffffffffffffffffffffffffffffffff1673ffffffffffffffffffffffffffffffffffffffff1681526020019081526020016000206000828254611df19190613efb565b925050819055508573ffffffffffffffffffffffffffffffffffffffff168773ffffffffffffffffffffffffffffffffffffffff168373ffffffffffffffffffffffffffffffffffffffff167fc3d58168c5ae7397731d063d5bbf3d657854427343f4c083240f7aacaa2d0f628888604051611e6e929190613d15565b60405180910390a4611e84828888888888612618565b50505050505050565b80600d60008673ffffffffffffffffffffffffffffffffffffffff1673ffffffffffffffffffffffffffffffffffffffff168152602001908152602001600020600085815260200190815260200160002060008481526020019081526020016000206000828254611efe9190614016565b925050819055506000611f0f611fca565b9050611f29818660008587611f249190613fbc565b612327565b611f3585828685612327565b611f41858585856127ff565b5050505050565b600081565b600080823b905060008111915050919050565b60007f01ffc9a7000000000000000000000000000000000000000000000000000000007bffffffffffffffffffffffffffffffffffffffffffffffffffffffff1916827bffffffffffffffffffffffffffffffffffffffffffffffffffffffff1916149050919050565b600033905090565b60005b83518110156120305761201f86858381518110611ff557611ff461425d565b5b602002602001015160008685815181106120125761201161425d565b5b60200260200101516127ff565b8061202990614187565b9050611fd5565b50505050505050565b6120588473ffffffffffffffffffffffffffffffffffffffff16611f4d565b15612218578373ffffffffffffffffffffffffffffffffffffffff1663bc197c8187878686866040518663ffffffff1660e01b815260040161209e9594939291906138d8565b602060405180830381600087803b1580156120b857600080fd5b505af19250505080156120e957506040513d601f19601f820116820180604052508101906120e69190613178565b60015b61218f576120f56142bb565b806308c379a01415612152575061210a6147e4565b806121155750612154565b806040517f08c379a00000000000000000000000000000000000000000000000000000000081526004016121499190613a98565b60405180910390fd5b505b6040517f08c379a000000000000000000000000000000000000000000000000000000000815260040161218690613aba565b60405180910390fd5b63bc197c8160e01b7bffffffffffffffffffffffffffffffffffffffffffffffffffffffff1916817bffffffffffffffffffffffffffffffffffffffffffffffffffffffff191614612216576040517f08c379a000000000000000000000000000000000000000000000000000000000815260040161220d90613ada565b60405180910390fd5b505b505050505050565b600080600360008673ffffffffffffffffffffffffffffffffffffffff1673ffffffffffffffffffffffffffffffffffffffff16815260200190815260200160002060009054906101000a900463ffffffff1690506001816122829190613f51565b600360008773ffffffffffffffffffffffffffffffffffffffff1673ffffffffffffffffffffffffffffffffffffffff16815260200190815260200160002060006101000a81548163ffffffff021916908363ffffffff16021790555060006122ec868387610c94565b905060008567ffffffffffffffff161161230557600080fd5b61231b86828767ffffffffffffffff168761294b565b80925050509392505050565b600080600084815260200190815260200160002060008673ffffffffffffffffffffffffffffffffffffffff1673ffffffffffffffffffffffffffffffffffffffff168152602001908152602001600020549050818110156123be576040517f08c379a00000000000000000000000000000000000000000000000000000000081526004016123b590613bfa565b60405180910390fd5b81816123ca9190614016565b60008085815260200190815260200160002060008773ffffffffffffffffffffffffffffffffffffffff1673ffffffffffffffffffffffffffffffffffffffff168152602001908152602001600020819055508160008085815260200190815260200160002060008673ffffffffffffffffffffffffffffffffffffffff1673ffffffffffffffffffffffffffffffffffffffff168152602001908152602001600020600082825461247c9190613efb565b92505081905550600061248d611fca565b90508473ffffffffffffffffffffffffffffffffffffffff168673ffffffffffffffffffffffffffffffffffffffff168273ffffffffffffffffffffffffffffffffffffffff167fc3d58168c5ae7397731d063d5bbf3d657854427343f4c083240f7aacaa2d0f628787604051612505929190613d15565b60405180910390a4505050505050565b60008060008061252485612ae1565b925092509250600061253684876105a5565b905060008473ffffffffffffffffffffffffffffffffffffffff168873ffffffffffffffffffffffffffffffffffffffff1614905060008367ffffffffffffffff168367ffffffffffffffff161490508180156125905750805b965050505050505092915050565b60606000600167ffffffffffffffff8111156125bd576125bc61428c565b5b6040519080825280602002602001820160405280156125eb5781602001602082028036833780820191505090505b50905082816000815181106126035761260261425d565b5b60200260200101818152505080915050919050565b6126378473ffffffffffffffffffffffffffffffffffffffff16611f4d565b156127f7578373ffffffffffffffffffffffffffffffffffffffff1663f23a6e6187878686866040518663ffffffff1660e01b815260040161267d959493929190613940565b602060405180830381600087803b15801561269757600080fd5b505af19250505080156126c857506040513d601f19601f820116820180604052508101906126c59190613178565b60015b61276e576126d46142bb565b806308c379a0141561273157506126e96147e4565b806126f45750612733565b806040517f08c379a00000000000000000000000000000000000000000000000000000000081526004016127289190613a98565b60405180910390fd5b505b6040517f08c379a000000000000000000000000000000000000000000000000000000000815260040161276590613aba565b60405180910390fd5b63f23a6e6160e01b7bffffffffffffffffffffffffffffffffffffffffffffffffffffffff1916817bffffffffffffffffffffffffffffffffffffffffffffffffffffffff1916146127f5576040517f08c379a00000000000000000000000000000000000000000000000000000000081526004016127ec90613ada565b60405180910390fd5b505b505050505050565b600083141561280d57612945565b60008060008061281d8888612b38565b9050801561288c5760086000888152602001908152602001600020549350600960008881526020019081526020016000205492506007600088815260200190815260200160002060009054906101000a900473ffffffffffffffffffffffffffffffffffffffff1691506128ef565b600b6000888152602001908152602001600020549350600c6000888152602001908152602001600020549250600a600088815260200190815260200160002060009054906101000a900473ffffffffffffffffffffffffffffffffffffffff1691505b600060045485886129009190613fbc565b61290a9190613f8b565b905083811015612918578390505b600086826129269190613fbc565b90506000811461293e5761293d8a85600084612327565b5b5050505050505b50505050565b600073ffffffffffffffffffffffffffffffffffffffff168473ffffffffffffffffffffffffffffffffffffffff1614156129bb576040517f08c379a00000000000000000000000000000000000000000000000000000000081526004016129b290613cba565b60405180910390fd5b60006129c5611fca565b90506129e6816000876129d78861259e565b6129e08861259e565b87611fd2565b8260008086815260200190815260200160002060008773ffffffffffffffffffffffffffffffffffffffff1673ffffffffffffffffffffffffffffffffffffffff1681526020019081526020016000206000828254612a459190613efb565b925050819055508473ffffffffffffffffffffffffffffffffffffffff16600073ffffffffffffffffffffffffffffffffffffffff168273ffffffffffffffffffffffffffffffffffffffff167fc3d58168c5ae7397731d063d5bbf3d657854427343f4c083240f7aacaa2d0f628787604051612ac3929190613d15565b60405180910390a4612ada81600087878787612618565b5050505050565b600080600060607fffffffffffffffffffffffffffffffffffffffff0000000000000000000000008516901c925060406bffffffff00000000000000008516901c915067ffffffffffffffff841690509193909250565b600080600080612b4785612ae1565b9250925092508273ffffffffffffffffffffffffffffffffffffffff168673ffffffffffffffffffffffffffffffffffffffff1614935050505092915050565b6000612b9a612b9584613dc3565b613d9e565b90508083825260208201905082856020860282011115612bbd57612bbc6142e2565b5b60005b85811015612bed5781612bd38882612ca9565b845260208401935060208301925050600181019050612bc0565b5050509392505050565b6000612c0a612c0584613def565b613d9e565b90508083825260208201905082856020860282011115612c2d57612c2c6142e2565b5b60005b85811015612c5d5781612c438882612d87565b845260208401935060208301925050600181019050612c30565b5050509392505050565b6000612c7a612c7584613e1b565b613d9e565b905082815260208101848484011115612c9657612c956142e7565b5b612ca18482856140e2565b509392505050565b600081359050612cb88161487a565b92915050565b600082601f830112612cd357612cd26142dd565b5b8135612ce3848260208601612b87565b91505092915050565b600082601f830112612d0157612d006142dd565b5b8135612d11848260208601612bf7565b91505092915050565b600081359050612d2981614891565b92915050565b600081359050612d3e816148a8565b92915050565b600081519050612d53816148a8565b92915050565b600082601f830112612d6e57612d6d6142dd565b5b8135612d7e848260208601612c67565b91505092915050565b600081359050612d96816148bf565b92915050565b600081359050612dab816148d6565b92915050565b600081359050612dc0816148ed565b92915050565b600060208284031215612ddc57612ddb6142f1565b5b6000612dea84828501612ca9565b91505092915050565b60008060408385031215612e0a57612e096142f1565b5b6000612e1885828601612ca9565b9250506020612e2985828601612ca9565b9150509250929050565b600080600080600060a08688031215612e4f57612e4e6142f1565b5b6000612e5d88828901612ca9565b9550506020612e6e88828901612ca9565b945050604086013567ffffffffffffffff811115612e8f57612e8e6142ec565b5b612e9b88828901612cec565b935050606086013567ffffffffffffffff811115612ebc57612ebb6142ec565b5b612ec888828901612cec565b925050608086013567ffffffffffffffff811115612ee957612ee86142ec565b5b612ef588828901612d59565b9150509295509295909350565b600080600080600060a08688031215612f1e57612f1d6142f1565b5b6000612f2c88828901612ca9565b9550506020612f3d88828901612ca9565b9450506040612f4e88828901612d87565b9350506060612f5f88828901612d87565b925050608086013567ffffffffffffffff811115612f8057612f7f6142ec565b5b612f8c88828901612d59565b9150509295509295909350565b60008060408385031215612fb057612faf6142f1565b5b6000612fbe85828601612ca9565b9250506020612fcf85828601612d1a565b9150509250929050565b60008060408385031215612ff057612fef6142f1565b5b6000612ffe85828601612ca9565b925050602061300f85828601612d87565b9150509250929050565b60008060008060808587031215613033576130326142f1565b5b600061304187828801612ca9565b945050602061305287828801612d87565b935050604061306387828801612d87565b925050606061307487828801612d87565b91505092959194509250565b600080600060608486031215613099576130986142f1565b5b60006130a786828701612ca9565b93505060206130b886828701612d9c565b92505060406130c986828701612db1565b9150509250925092565b600080604083850312156130ea576130e96142f1565b5b600083013567ffffffffffffffff811115613108576131076142ec565b5b61311485828601612cbe565b925050602083013567ffffffffffffffff811115613135576131346142ec565b5b61314185828601612cec565b9150509250929050565b600060208284031215613161576131606142f1565b5b600061316f84828501612d2f565b91505092915050565b60006020828403121561318e5761318d6142f1565b5b600061319c84828501612d44565b91505092915050565b6000602082840312156131bb576131ba6142f1565b5b60006131c984828501612d87565b91505092915050565b600080604083850312156131e9576131e86142f1565b5b60006131f785828601612d87565b925050602061320885828601612ca9565b9150509250929050565b600080600080600080600060e0888a031215613231576132306142f1565b5b600061323f8a828b01612d87565b97505060206132508a828b01612ca9565b96505060406132618a828b01612d87565b95505060606132728a828b01612d87565b94505060806132838a828b01612ca9565b93505060a06132948a828b01612d87565b92505060c06132a58a828b01612d87565b91505092959891949750929550565b6000806000606084860312156132cd576132cc6142f1565b5b60006132db86828701612d87565b93505060206132ec86828701612d87565b92505060406132fd86828701612d87565b9150509250925092565b60008060008060808587031215613321576133206142f1565b5b600061332f87828801612d87565b945050602061334087828801612d87565b935050604061335187828801612d87565b925050606085013567ffffffffffffffff811115613372576133716142ec565b5b61337e87828801612d59565b91505092959194509250565b600080604083850312156133a1576133a06142f1565b5b60006133af85828601612db1565b925050602083013567ffffffffffffffff8111156133d0576133cf6142ec565b5b6133dc85828601612d59565b9150509250929050565b60006133f2838361343d565b60208301905092915050565b600061340a838361385d565b60208301905092915050565b6000613422838361387b565b60208301905092915050565b6134378161404a565b82525050565b6134468161404a565b82525050565b600061345782613e6c565b6134618185613eb2565b935061346c83613e4c565b8060005b8381101561349d57815161348488826133e6565b975061348f83613e98565b925050600181019050613470565b5085935050505092915050565b60006134b582613e77565b6134bf8185613ebd565b93506134ca83613e5c565b8060005b838110156134fb5781516134e288826133fe565b97506134ed83613ea5565b9250506001810190506134ce565b5085935050505092915050565b600061351382613e77565b61351d8185613ece565b935061352883613e5c565b8060005b838110156135595781516135408882613416565b975061354b83613ea5565b92505060018101905061352c565b5085935050505092915050565b61356f8161405c565b82525050565b600061358082613e82565b61358a8185613ed9565b935061359a8185602086016140f1565b6135a3816142f6565b840191505092915050565b60006135b982613e8d565b6135c38185613eea565b93506135d38185602086016140f1565b6135dc816142f6565b840191505092915050565b60006135f4603483613eea565b91506135ff82614314565b604082019050919050565b6000613617602883613eea565b915061362282614363565b604082019050919050565b600061363a601e83613eea565b9150613645826143b2565b602082019050919050565b600061365d602b83613eea565b9150613668826143db565b604082019050919050565b6000613680600f83613eea565b915061368b8261442a565b602082019050919050565b60006136a3602983613eea565b91506136ae82614453565b604082019050919050565b60006136c6601a83613eea565b91506136d1826144a2565b602082019050919050565b60006136e9602583613eea565b91506136f4826144cb565b604082019050919050565b600061370c603283613eea565b91506137178261451a565b604082019050919050565b600061372f602c83613eea565b915061373a82614569565b604082019050919050565b6000613752602a83613eea565b915061375d826145b8565b604082019050919050565b6000613775600f83613eea565b915061378082614607565b602082019050919050565b6000613798603883613eea565b91506137a382614630565b604082019050919050565b60006137bb602983613eea565b91506137c68261467f565b604082019050919050565b60006137de602983613eea565b91506137e9826146ce565b604082019050919050565b6000613801602883613eea565b915061380c8261471d565b604082019050919050565b6000613824602183613eea565b915061382f8261476c565b604082019050919050565b6000613847601a83613eea565b9150613852826147bb565b602082019050919050565b613866816140b4565b82525050565b613875816140b4565b82525050565b613884816140b4565b82525050565b613893816140be565b82525050565b60006138a5828561344c565b91506138b18284613508565b91508190509392505050565b60006020820190506138d2600083018461342e565b92915050565b600060a0820190506138ed600083018861342e565b6138fa602083018761342e565b818103604083015261390c81866134aa565b9050818103606083015261392081856134aa565b905081810360808301526139348184613575565b90509695505050505050565b600060a082019050613955600083018861342e565b613962602083018761342e565b61396f604083018661386c565b61397c606083018561386c565b818103608083015261398e8184613575565b90509695505050505050565b60006040820190506139af600083018561342e565b6139bc602083018461386c565b9392505050565b600060c0820190506139d8600083018961342e565b6139e5602083018861386c565b6139f2604083018761386c565b6139ff606083018661342e565b613a0c608083018561386c565b613a1960a083018461386c565b979650505050505050565b60006020820190508181036000830152613a3e81846134aa565b905092915050565b60006040820190508181036000830152613a6081856134aa565b90508181036020830152613a7481846134aa565b90509392505050565b6000602082019050613a926000830184613566565b92915050565b60006020820190508181036000830152613ab281846135ae565b905092915050565b60006020820190508181036000830152613ad3816135e7565b9050919050565b60006020820190508181036000830152613af38161360a565b9050919050565b60006020820190508181036000830152613b138161362d565b9050919050565b60006020820190508181036000830152613b3381613650565b9050919050565b60006020820190508181036000830152613b5381613673565b9050919050565b60006020820190508181036000830152613b7381613696565b9050919050565b60006020820190508181036000830152613b93816136b9565b9050919050565b60006020820190508181036000830152613bb3816136dc565b9050919050565b60006020820190508181036000830152613bd3816136ff565b9050919050565b60006020820190508181036000830152613bf381613722565b9050919050565b60006020820190508181036000830152613c1381613745565b9050919050565b60006020820190508181036000830152613c3381613768565b9050919050565b60006020820190508181036000830152613c538161378b565b9050919050565b60006020820190508181036000830152613c73816137ae565b9050919050565b60006020820190508181036000830152613c93816137d1565b9050919050565b60006020820190508181036000830152613cb3816137f4565b9050919050565b60006020820190508181036000830152613cd381613817565b9050919050565b60006020820190508181036000830152613cf38161383a565b9050919050565b6000602082019050613d0f600083018461386c565b92915050565b6000604082019050613d2a600083018561386c565b613d37602083018461386c565b9392505050565b6000608082019050613d53600083018761386c565b613d60602083018661386c565b613d6d604083018561386c565b613d7a606083018461386c565b95945050505050565b6000602082019050613d98600083018461388a565b92915050565b6000613da8613db9565b9050613db48282614156565b919050565b6000604051905090565b600067ffffffffffffffff821115613dde57613ddd61428c565b5b602082029050602081019050919050565b600067ffffffffffffffff821115613e0a57613e0961428c565b5b602082029050602081019050919050565b600067ffffffffffffffff821115613e3657613e3561428c565b5b613e3f826142f6565b9050602081019050919050565b6000819050602082019050919050565b6000819050602082019050919050565b600081519050919050565b600081519050919050565b600081519050919050565b600081519050919050565b6000602082019050919050565b6000602082019050919050565b600081905092915050565b600082825260208201905092915050565b600081905092915050565b600082825260208201905092915050565b600082825260208201905092915050565b6000613f06826140b4565b9150613f11836140b4565b9250827fffffffffffffffffffffffffffffffffffffffffffffffffffffffffffffffff03821115613f4657613f456141d0565b5b828201905092915050565b6000613f5c826140be565b9150613f67836140be565b92508263ffffffff03821115613f8057613f7f6141d0565b5b828201905092915050565b6000613f96826140b4565b9150613fa1836140b4565b925082613fb157613fb06141ff565b5b828204905092915050565b6000613fc7826140b4565b9150613fd2836140b4565b9250817fffffffffffffffffffffffffffffffffffffffffffffffffffffffffffffffff048311821515161561400b5761400a6141d0565b5b828202905092915050565b6000614021826140b4565b915061402c836140b4565b92508282101561403f5761403e6141d0565b5b828203905092915050565b600061405582614094565b9050919050565b60008115159050919050565b60007fffffffff0000000000000000000000000000000000000000000000000000000082169050919050565b600073ffffffffffffffffffffffffffffffffffffffff82169050919050565b6000819050919050565b600063ffffffff82169050919050565b600067ffffffffffffffff82169050919050565b82818337600083830152505050565b60005b8381101561410f5780820151818401526020810190506140f4565b8381111561411e576000848401525b50505050565b6000600282049050600182168061413c57607f821691505b602082108114156141505761414f61422e565b5b50919050565b61415f826142f6565b810181811067ffffffffffffffff8211171561417e5761417d61428c565b5b80604052505050565b6000614192826140b4565b91507fffffffffffffffffffffffffffffffffffffffffffffffffffffffffffffffff8214156141c5576141c46141d0565b5b600182019050919050565b7f4e487b7100000000000000000000000000000000000000000000000000000000600052601160045260246000fd5b7f4e487b7100000000000000000000000000000000000000000000000000000000600052601260045260246000fd5b7f4e487b7100000000000000000000000000000000000000000000000000000000600052602260045260246000fd5b7f4e487b7100000000000000000000000000000000000000000000000000000000600052603260045260246000fd5b7f4e487b7100000000000000000000000000000000000000000000000000000000600052604160045260246000fd5b600060033d11156142da5760046000803e6142d7600051614307565b90505b90565b600080fd5b600080fd5b600080fd5b600080fd5b600080fd5b6000601f19601f8301169050919050565b60008160e01c9050919050565b7f455243313135353a207472616e7366657220746f206e6f6e204552433131353560008201527f526563656976657220696d706c656d656e746572000000000000000000000000602082015250565b7f455243313135353a204552433131353552656365697665722072656a6563746560008201527f6420746f6b656e73000000000000000000000000000000000000000000000000602082015250565b7f546f74616c206672616374696f6e73206d7573742062652031302c3030300000600082015250565b7f455243313135353a2062616c616e636520717565727920666f7220746865207a60008201527f65726f2061646472657373000000000000000000000000000000000000000000602082015250565b7f6e6f7420696d706c656d656e7465640000000000000000000000000000000000600082015250565b7f455243313135353a2063616c6c6572206973206e6f74206f776e6572206e6f7260008201527f20617070726f7665640000000000000000000000000000000000000000000000602082015250565b7f302076616c75657320617265206e6f74207065726d6974746564000000000000600082015250565b7f455243313135353a207472616e7366657220746f20746865207a65726f20616460008201527f6472657373000000000000000000000000000000000000000000000000000000602082015250565b7f455243313135353a207472616e736665722063616c6c6572206973206e6f742060008201527f6f776e6572206e6f7220617070726f7665640000000000000000000000000000602082015250565b7f546865206163636f756e74206d757374206e6f7420626520302c20756e6c657360008201527f7320666565732061726520300000000000000000000000000000000000000000602082015250565b7f455243313135353a20696e73756666696369656e742062616c616e636520666f60008201527f72207472616e7366657200000000000000000000000000000000000000000000602082015250565b7f546f6f206d616e79207368617265730000000000000000000000000000000000600082015250565b7f417272617973206f66206f776e65727320616e64206672616374696f6e73206d60008201527f7573742068617665207468652073616d65206c656e6774680000000000000000602082015250565b7f455243313135353a2073657474696e6720617070726f76616c2073746174757360008201527f20666f722073656c660000000000000000000000000000000000000000000000602082015250565b7f455243313135353a206163636f756e747320616e6420696473206c656e67746860008201527f206d69736d617463680000000000000000000000000000000000000000000000602082015250565b7f455243313135353a2069647320616e6420616d6f756e7473206c656e6774682060008201527f6d69736d61746368000000000000000000000000000000000000000000000000602082015250565b7f455243313135353a206d696e7420746f20746865207a65726f2061646472657360008201527f7300000000000000000000000000000000000000000000000000000000000000602082015250565b7f546865206163636f756e7420616c726561647920657869737473000000000000600082015250565b600060443d10156147f457614877565b6147fc613db9565b60043d036004823e80513d602482011167ffffffffffffffff82111715614824575050614877565b808201805167ffffffffffffffff8111156148425750505050614877565b80602083010160043d03850181111561485f575050505050614877565b61486e82602001850186614156565b82955050505050505b90565b6148838161404a565b811461488e57600080fd5b50565b61489a8161405c565b81146148a557600080fd5b50565b6148b181614068565b81146148bc57600080fd5b50565b6148c8816140b4565b81146148d357600080fd5b50565b6148df816140be565b81146148ea57600080fd5b50565b6148f6816140ce565b811461490157600080fd5b5056fea26469706673582212209faf5835be7924926d9a44f29bd4f012b4809f56591cd0928b4d966e683c75c364736f6c6343000806003368747470733a2f2f636572652e6e6574776f726b2f6e66742f7b69647d2e6a736f6e",
  "immutableReferences": {},
  "source": "pragma solidity ^0.8.0;\n\nimport \"./AtomicExchange.sol\";\n\n/** Main contract, including all components.\n\n- Hold and transfer NFTs using ERC1155.\n- Support atomic exchanges of NFTs for currency.\n- Issuance of NFTs with fixed supply.\n- Joint Accounts that distribute their funds over multiple owners.\n- Capture royalties on primary and secondary transfers, configurable per NFT type.\n*/\ncontract Davinci is /* BaseNFT, Issuance, JointAccounts, TransferFees, */ AtomicExchange {\n    constructor() {\n        // 10 billion tokens with 10 decimals.\n        uint256 currencySupply = 10e9 * 1e10;\n        address bridge = _msgSender();\n        _mint(bridge, CURRENCY, currencySupply, \"\");\n    }\n}\n",
  "sourcePath": "/home/a/CERE/davinci-nft/contracts/polygon/Davinci.sol",
  "compiler": {
    "name": "solc",
    "version": "0.8.6+commit.11564f7e.Emscripten.clang"
  },
  "schemaVersion": "3.4.1",
  "updatedAt": "2021-07-01T09:12:19.978Z",
  "networkType": "ethereum",
  "devdoc": {
    "kind": "dev",
    "methods": {
      "balanceOf(address,uint256)": {
        "details": "See {IERC1155-balanceOf}. Requirements: - `account` cannot be the zero address."
      },
      "balanceOfBatch(address[],uint256[])": {
        "details": "See {IERC1155-balanceOfBatch}. Requirements: - `accounts` and `ids` must have the same length."
      },
      "isApprovedForAll(address,address)": {
        "details": "See {IERC1155-isApprovedForAll}."
      },
      "safeBatchTransferFrom(address,address,uint256[],uint256[],bytes)": {
        "details": "See {IERC1155-safeBatchTransferFrom}."
      },
      "safeTransferFrom(address,address,uint256,uint256,bytes)": {
        "details": "See {IERC1155-safeTransferFrom}."
      },
      "setApprovalForAll(address,bool)": {
        "details": "See {IERC1155-setApprovalForAll}."
      },
      "supportsInterface(bytes4)": {
        "details": "See {IERC165-supportsInterface}."
      },
      "uri(uint256)": {
        "details": "See {IERC1155MetadataURI-uri}. This implementation returns the same URI for *all* token types. It relies on the token type ID substitution mechanism https://eips.ethereum.org/EIPS/eip-1155#metadata[defined in the EIP]. Clients calling this function must replace the `\\{id\\}` substring with the actual token type ID."
      }
    },
    "version": 1
  },
  "userdoc": {
    "kind": "user",
    "methods": {
      "BASIS_POINTS()": {
        "notice": "The total fraction representing 100% of an account."
      },
      "balanceOfJAOwner(address,address)": {
        "notice": "Calculate the amount of tokens that an owner of a Joint Account can withdraw right now."
      },
      "buyOffer(address,uint256,uint256,uint256)": {
        "notice": "Accept an offer, paying the price per unit for an amount of NFTs. The offer must have been created beforehand by offerToSell."
      },
      "buySignedOffer(uint256,uint256,uint256,bytes)": {
        "notice": "Accept an offer, paying the price per unit for an amount of NFTs. The offer is proved using sellerSignature generated offchain. [Not implemented]"
      },
      "configureRoyalties(uint256,address,uint256,uint256,address,uint256,uint256)": {
        "notice": "Configure the amounts and beneficiaries of royalties on primary and secondary transfers of this NFT. This setting is available to the issuer while he holds all NFTs of this type (normally right after issuance). A transfer is primary if it comes from the issuer of this NFT (normally the first sale after issuance). Otherwise, it is a secondary transfer. A royalty is defined in two parts (both optional): a cut of the sale price of an NFT, and a minimum royalty per transfer. For simple transfers not attached to a price, or a too low price, the minimum royalty is charged. The cuts are given in basis points (1% of 1%). The minimums are given in currency amounts. There can be one beneficiary account for each primary and secondary royalties. To distribute revenues amongst several parties, use a Joint Account (see function createJointAccount)."
      },
      "createJointAccount(address[],uint256[])": {
        "notice": "Create an account such that multiple owners have a claim on their respective share. The size of a share is given as a fraction in basis points (1% of 1%). The sum of share fractions must equal 10,000. Anyone can create Joint Accounts including any owners."
      },
      "distributeJointAccount(address)": {
        "notice": "Distribute all tokens available to all owners of a Joint Account. The function createJointAccount must be called beforehand. Anyone can trigger the distribution."
      },
      "fractionOfJAOwner(address,address)": {
        "notice": "Return the fraction of an account owned by the given address, in basis points (1% of 1%). If the account does not exist, or if the given address is not an owner of it, this returns 0. If the owner appears more than once in the account, this reports only the first share."
      },
      "getNftId(address,uint32,uint64)": {
        "notice": "Calculate the ID of an NFT type, identifying its issuer, its supply, and an arbitrary nonce."
      },
      "getRoyalties(uint256)": {
        "notice": "Return the current configuration of royalties for NFTs of type nftId, as set by configureRoyalties."
      },
      "getRoyaltiesForBeneficiary(uint256,address)": {
        "notice": "Return the amount of royalties earned by a beneficiary on each primary and secondary transfer of an NFT. This function supports Joint Accounts. If royalties are paid to a JA and beneficiary is an owner of the JA, the shares of the royalties for this owner are returned."
      },
      "issuanceNonces(address)": {
        "notice": "A counter of NFT types issued by each issuer. This is used to generate unique NFT IDs."
      },
      "issue(uint64,bytes)": {
        "notice": "Issue a supply of NFTs of a new type, and return its ID. No more NFT of this type can be issued again. The caller will be recorded as the issuer and it will initially own the entire supply."
      },
      "makeAddressOfJointAccount(address[],uint256[])": {
        "notice": "Generate a unique address identifying a list of owners and shares. It may be used to predict the address of a Joint Account and receive payments even before calling the function createJointAccount."
      },
      "offerToSell(uint256,uint256,uint256)": {
        "notice": "Create an offer to sell an amount of NFTs for a price per unit. To cancel, call again with an amount of 0."
      }
    },
    "notice": "Main contract, including all components. - Hold and transfer NFTs using ERC1155. - Support atomic exchanges of NFTs for currency. - Issuance of NFTs with fixed supply. - Joint Accounts that distribute their funds over multiple owners. - Capture royalties on primary and secondary transfers, configurable per NFT type.",
    "version": 1
  }
}