{
  "contractName": "FiatGateway",
  "abi": [
    {
      "inputs": [
        {
          "internalType": "contract Davinci",
          "name": "_davinci",
          "type": "address"
        }
      ],
      "stateMutability": "nonpayable",
      "type": "constructor"
    },
    {
      "anonymous": false,
      "inputs": [
        {
          "indexed": true,
          "internalType": "bytes32",
          "name": "role",
          "type": "bytes32"
        },
        {
          "indexed": true,
          "internalType": "bytes32",
          "name": "previousAdminRole",
          "type": "bytes32"
        },
        {
          "indexed": true,
          "internalType": "bytes32",
          "name": "newAdminRole",
          "type": "bytes32"
        }
      ],
      "name": "RoleAdminChanged",
      "type": "event"
    },
    {
      "anonymous": false,
      "inputs": [
        {
          "indexed": true,
          "internalType": "bytes32",
          "name": "role",
          "type": "bytes32"
        },
        {
          "indexed": true,
          "internalType": "address",
          "name": "account",
          "type": "address"
        },
        {
          "indexed": true,
          "internalType": "address",
          "name": "sender",
          "type": "address"
        }
      ],
      "name": "RoleGranted",
      "type": "event"
    },
    {
      "anonymous": false,
      "inputs": [
        {
          "indexed": true,
          "internalType": "bytes32",
          "name": "role",
          "type": "bytes32"
        },
        {
          "indexed": true,
          "internalType": "address",
          "name": "account",
          "type": "address"
        },
        {
          "indexed": true,
          "internalType": "address",
          "name": "sender",
          "type": "address"
        }
      ],
      "name": "RoleRevoked",
      "type": "event"
    },
    {
      "inputs": [],
      "name": "CURRENCY",
      "outputs": [
        {
          "internalType": "uint256",
          "name": "",
          "type": "uint256"
        }
      ],
      "stateMutability": "view",
      "type": "function",
      "constant": true
    },
    {
      "inputs": [],
      "name": "DEFAULT_ADMIN_ROLE",
      "outputs": [
        {
          "internalType": "bytes32",
          "name": "",
          "type": "bytes32"
        }
      ],
      "stateMutability": "view",
      "type": "function",
      "constant": true
    },
    {
      "inputs": [],
      "name": "EXCHANGE_RATE_ORACLE",
      "outputs": [
        {
          "internalType": "bytes32",
          "name": "",
          "type": "bytes32"
        }
      ],
      "stateMutability": "view",
      "type": "function",
      "constant": true
    },
    {
      "inputs": [],
      "name": "PAYMENT_SERVICE",
      "outputs": [
        {
          "internalType": "bytes32",
          "name": "",
          "type": "bytes32"
        }
      ],
      "stateMutability": "view",
      "type": "function",
      "constant": true
    },
    {
      "inputs": [
        {
          "internalType": "bytes32",
          "name": "role",
          "type": "bytes32"
        }
      ],
      "name": "getRoleAdmin",
      "outputs": [
        {
          "internalType": "bytes32",
          "name": "",
          "type": "bytes32"
        }
      ],
      "stateMutability": "view",
      "type": "function",
      "constant": true
    },
    {
      "inputs": [
        {
          "internalType": "bytes32",
          "name": "role",
          "type": "bytes32"
        },
        {
          "internalType": "address",
          "name": "account",
          "type": "address"
        }
      ],
      "name": "grantRole",
      "outputs": [],
      "stateMutability": "nonpayable",
      "type": "function"
    },
    {
      "inputs": [
        {
          "internalType": "bytes32",
          "name": "role",
          "type": "bytes32"
        },
        {
          "internalType": "address",
          "name": "account",
          "type": "address"
        }
      ],
      "name": "hasRole",
      "outputs": [
        {
          "internalType": "bool",
          "name": "",
          "type": "bool"
        }
      ],
      "stateMutability": "view",
      "type": "function",
      "constant": true
    },
    {
      "inputs": [
        {
          "internalType": "bytes32",
          "name": "role",
          "type": "bytes32"
        },
        {
          "internalType": "address",
          "name": "account",
          "type": "address"
        }
      ],
      "name": "renounceRole",
      "outputs": [],
      "stateMutability": "nonpayable",
      "type": "function"
    },
    {
      "inputs": [
        {
          "internalType": "bytes32",
          "name": "role",
          "type": "bytes32"
        },
        {
          "internalType": "address",
          "name": "account",
          "type": "address"
        }
      ],
      "name": "revokeRole",
      "outputs": [],
      "stateMutability": "nonpayable",
      "type": "function"
    },
    {
      "inputs": [
        {
          "internalType": "bytes4",
          "name": "interfaceId",
          "type": "bytes4"
        }
      ],
      "name": "supportsInterface",
      "outputs": [
        {
          "internalType": "bool",
          "name": "",
          "type": "bool"
        }
      ],
      "stateMutability": "view",
      "type": "function",
      "constant": true
    },
    {
      "inputs": [
        {
          "internalType": "uint256",
          "name": "_cerePerPenny",
          "type": "uint256"
        }
      ],
      "name": "setExchangeRate",
      "outputs": [],
      "stateMutability": "nonpayable",
      "type": "function"
    },
    {
      "inputs": [],
      "name": "withdrawCere",
      "outputs": [],
      "stateMutability": "nonpayable",
      "type": "function"
    },
    {
      "inputs": [
        {
          "internalType": "uint256",
          "name": "paidPennies",
          "type": "uint256"
        },
        {
          "internalType": "address",
          "name": "buyer",
          "type": "address"
        },
        {
          "internalType": "address",
          "name": "seller",
          "type": "address"
        },
        {
          "internalType": "uint256",
          "name": "nftId",
          "type": "uint256"
        },
        {
          "internalType": "uint256",
          "name": "nftPrice",
          "type": "uint256"
        },
        {
          "internalType": "uint256",
          "name": "nonce",
          "type": "uint256"
        }
      ],
      "name": "buyFromUsd",
      "outputs": [],
      "stateMutability": "nonpayable",
      "type": "function"
    }
  ],
  "bytecode": "0x608060405234801561001057600080fd5b50604051610cd9380380610cd983398101604081905261002f9161010d565b600180546001600160a01b0319166001600160a01b03831617905561005b60006100563390565b610061565b5061013b565b61006b828261006f565b5050565b6000828152602081815260408083206001600160a01b038516845290915290205460ff1661006b576000828152602081815260408083206001600160a01b03851684529091529020805460ff191660011790556100c93390565b6001600160a01b0316816001600160a01b0316837f2f8788117e7eff1d82e926ec794901d17c78024a50270940304540a733656f0d60405160405180910390a45050565b60006020828403121561011e578081fd5b81516001600160a01b0381168114610134578182fd5b9392505050565b610b8f8061014a6000396000f3fe608060405234801561001057600080fd5b50600436106100af5760003560e01c806301ffc9a7146100b4578063248a9ca3146100dc5780632f2ff15d146100fd5780633263ba671461011257806336568abe146101275780635439002f1461013a57806391d148541461014d578063a1097d0b14610160578063a217fddf14610168578063c87113e214610170578063d547741f14610185578063db068e0e14610198578063f536121914610168575b600080fd5b6100c76100c2366004610914565b6101ab565b60405190151581526020015b60405180910390f35b6100ef6100ea3660046108d1565b6101e2565b6040519081526020016100d3565b61011061010b3660046108e9565b6101f7565b005b6100ef600080516020610b3a83398151915281565b6101106101353660046108e9565b610219565b610110610148366004610954565b61029c565b6100c761015b3660046108e9565b610416565b61011061043f565b6100ef600081565b6100ef600080516020610b1a83398151915281565b6101106101933660046108e9565b610544565b6101106101a63660046108d1565b610561565b60006001600160e01b03198216637965db0b60e01b14806101dc57506301ffc9a760e01b6001600160e01b03198316145b92915050565b60009081526020819052604090206001015490565b610200826101e2565b61020a8133610580565b61021483836105e4565b505050565b6001600160a01b038116331461028e5760405162461bcd60e51b815260206004820152602f60248201527f416363657373436f6e74726f6c3a2063616e206f6e6c792072656e6f756e636560448201526e103937b632b9903337b91039b2b63360891b60648201526084015b60405180910390fd5b6102988282610668565b5050565b600080516020610b3a8339815191526102b58133610580565b6002546103045760405162461bcd60e51b815260206004820181905260248201527f45786368616e67652072617465206d75737420626520636f6e666967757265646044820152606401610285565b86600360008282546103169190610a85565b909155505060025460009061032b9089610a9d565b600154604051637921219560e11b81529192506001600160a01b03169063f242432a906103639030908b906000908790600401610a1a565b600060405180830381600087803b15801561037d57600080fd5b505af1158015610391573d6000803e3d6000fd5b505060018054604051631220b63960e11b81526001600160a01b038b81166004830152602482018b9052604482018a905260648201849052929450911691506324416c7290608401600060405180830381600087803b1580156103f357600080fd5b505af1158015610407573d6000803e3d6000fd5b50505050505050505050505050565b6000918252602082815260408084206001600160a01b0393909316845291905290205460ff1690565b600061044b8133610580565b600033600154604051627eeac760e11b81526001600160a01b0380841660048301526000602483018190529394509091169062fdd58e9060440160206040518083038186803b15801561049d57600080fd5b505afa1580156104b1573d6000803e3d6000fd5b505050506040513d601f19601f820116820180604052508101906104d5919061093c565b600154604051637921219560e11b81529192506001600160a01b03169063f242432a9061050d90309086906000908790600401610a1a565b600060405180830381600087803b15801561052757600080fd5b505af115801561053b573d6000803e3d6000fd5b50505050505050565b61054d826101e2565b6105578133610580565b6102148383610668565b600080516020610b1a83398151915261057a8133610580565b50600255565b61058a8282610416565b610298576105a2816001600160a01b031660146106cd565b6105ad8360206106cd565b6040516020016105be9291906109ab565b60408051601f198184030181529082905262461bcd60e51b825261028591600401610a52565b6105ee8282610416565b610298576000828152602081815260408083206001600160a01b03851684529091529020805460ff191660011790556106243390565b6001600160a01b0316816001600160a01b0316837f2f8788117e7eff1d82e926ec794901d17c78024a50270940304540a733656f0d60405160405180910390a45050565b6106728282610416565b15610298576000828152602081815260408083206001600160a01b0385168085529252808320805460ff1916905551339285917ff6391f5c32d9c69d2a47ea670b442974b53935d1edc7fd64eb21e047a839171b9190a45050565b606060006106dc836002610a9d565b6106e7906002610a85565b6001600160401b0381111561070c57634e487b7160e01b600052604160045260246000fd5b6040519080825280601f01601f191660200182016040528015610736576020820181803683370190505b509050600360fc1b8160008151811061075f57634e487b7160e01b600052603260045260246000fd5b60200101906001600160f81b031916908160001a905350600f60fb1b8160018151811061079c57634e487b7160e01b600052603260045260246000fd5b60200101906001600160f81b031916908160001a90535060006107c0846002610a9d565b6107cb906001610a85565b90505b600181111561085f576f181899199a1a9b1b9c1cb0b131b232b360811b85600f166010811061080d57634e487b7160e01b600052603260045260246000fd5b1a60f81b82828151811061083157634e487b7160e01b600052603260045260246000fd5b60200101906001600160f81b031916908160001a90535060049490941c9361085881610aec565b90506107ce565b5083156108ae5760405162461bcd60e51b815260206004820181905260248201527f537472696e67733a20686578206c656e67746820696e73756666696369656e746044820152606401610285565b9392505050565b80356001600160a01b03811681146108cc57600080fd5b919050565b6000602082840312156108e2578081fd5b5035919050565b600080604083850312156108fb578081fd5b8235915061090b602084016108b5565b90509250929050565b600060208284031215610925578081fd5b81356001600160e01b0319811681146108ae578182fd5b60006020828403121561094d578081fd5b5051919050565b60008060008060008060c0878903121561096c578182fd5b8635955061097c602088016108b5565b945061098a604088016108b5565b9350606087013592506080870135915060a087013590509295509295509295565b76020b1b1b2b9b9a1b7b73a3937b61d1030b1b1b7bab73a1604d1b8152600083516109dd816017850160208801610abc565b7001034b99036b4b9b9b4b733903937b6329607d1b6017918401918201528351610a0e816028840160208801610abc565b01602801949350505050565b6001600160a01b0394851681529290931660208301526040820152606081019190915260a06080820181905260009082015260c00190565b6020815260008251806020840152610a71816040850160208701610abc565b601f01601f19169190910160400192915050565b60008219821115610a9857610a98610b03565b500190565b6000816000190483118215151615610ab757610ab7610b03565b500290565b60005b83811015610ad7578181015183820152602001610abf565b83811115610ae6576000848401525b50505050565b600081610afb57610afb610b03565b506000190190565b634e487b7160e01b600052601160045260246000fdfef9dcb70efa80ab2e15e6301babe010c481ee550c5335953c9ba3f97789fcb53979fb255b78648c966adc3c680f08ecaf12e124b92265f0bd145ccad7605f092fa264697066735822122036ae14f67ef717ac1a2e8d5340fa89ace3fbd717e3f6a85985e6cf1c4e316f1564736f6c63430008040033",
  "immutableReferences": {},
  "source": "pragma solidity ^0.8.0;\n\nimport \"./access/AccessControl.sol\";\nimport \"./Davinci.sol\";\n\n/** The FiatGateway contract allows buying NFTs from an external fiat payment.\n  *\n  * This contract connects to the Davinci contract.\n  * It must hold a balance of CERE recognized by Davinci.\n  *\n  * This contract uses the SimpleExchange API to buy NFTs.\n */\ncontract FiatGateway is AccessControl {\n\n    bytes32 public constant EXCHANGE_RATE_ORACLE = keccak256(\"EXCHANGE_RATE_ORACLE\");\n    bytes32 public constant PAYMENT_SERVICE = keccak256(\"PAYMENT_SERVICE\");\n\n    /** The token ID that represents the CERE currency for all payments in this contract. */\n    uint256 public constant CURRENCY = 0;\n\n    Davinci davinci;\n    uint cerePerPenny;\n    uint totalPennies;\n\n    constructor(Davinci _davinci) {\n        davinci = _davinci;\n\n        _setupRole(DEFAULT_ADMIN_ROLE, _msgSender());\n    }\n\n    /** Set the exchange rate between fiat (USD) and Davinci currency (CERE).\n      *\n      * The rate is given as number of CERE (with 10 decimals) per USD cent (1 penny).\n      *\n      * Only the rate service with the EXCHANGE_RATE_ORACLE role can change the rate.\n     */\n    function setExchangeRate(uint _cerePerPenny)\n    public onlyRole(EXCHANGE_RATE_ORACLE) {\n\n        cerePerPenny = _cerePerPenny;\n    }\n\n    /** Withdraw all CERE from this contract.\n      *\n      * Only accounts with DEFAULT_ADMIN_ROLE can withdraw.\n     */\n    function withdrawCere()\n    public onlyRole(DEFAULT_ADMIN_ROLE) {\n\n        address admin = _msgSender();\n\n        uint amount = davinci.balanceOf(admin, CURRENCY);\n\n        davinci.safeTransferFrom(\n            address(this),\n            admin,\n            CURRENCY,\n            amount,\n            \"\");\n    }\n\n    /** Execute a buy of an NFT based on a fiat payment.\n      *\n      * Only the gateway with PAYMENT_SERVICE role can report successful payments.\n      *\n      * The amount of fiat is recorded, and exchanged for an amount of Davinci currency.\n      *\n      * The currency is used to buy an NFT in the same transaction. The NFT must be available for sale from the seller in SimpleExchange.\n     */\n    function buyFromUsd(\n        uint paidPennies,\n        address buyer,\n        address seller,\n        uint nftId,\n        uint nftPrice,\n        uint nonce)\n    public onlyRole(PAYMENT_SERVICE) {\n        require(cerePerPenny != 0, \"Exchange rate must be configured\");\n\n        totalPennies += paidPennies;\n\n        uint cere = paidPennies * cerePerPenny;\n\n        davinci.safeTransferFrom(\n            address(this),\n            buyer,\n            CURRENCY,\n            cere,\n            \"\");\n\n        uint amount = 1;\n        davinci.takeOffer(seller, nftId, nftPrice, amount);\n    }\n\n    /** Guarantee that a version of Solidity with safe math is used.\n     */\n    function _mathIsSafe() internal pure {\n    unchecked {} // Use a keyword from Solidity 0.8.0.\n    }\n}",
  "sourcePath": "/home/a/CERE/davinci-nft/contracts/polygon/FiatGateway.sol",
  "compiler": {
    "name": "solc",
    "version": "0.8.4+commit.c7e474f2.Emscripten.clang"
  },
  "schemaVersion": "3.4.1",
  "updatedAt": "2021-08-11T00:56:48.992Z",
  "networkType": "ethereum",
  "devdoc": {
    "kind": "dev",
    "methods": {
      "getRoleAdmin(bytes32)": {
        "details": "Returns the admin role that controls `role`. See {grantRole} and {revokeRole}. To change a role's admin, use {_setRoleAdmin}."
      },
      "grantRole(bytes32,address)": {
        "details": "Grants `role` to `account`. If `account` had not been already granted `role`, emits a {RoleGranted} event. Requirements: - the caller must have ``role``'s admin role."
      },
      "hasRole(bytes32,address)": {
        "details": "Returns `true` if `account` has been granted `role`."
      },
      "renounceRole(bytes32,address)": {
        "details": "Revokes `role` from the calling account. Roles are often managed via {grantRole} and {revokeRole}: this function's purpose is to provide a mechanism for accounts to lose their privileges if they are compromised (such as when a trusted device is misplaced). If the calling account had been granted `role`, emits a {RoleRevoked} event. Requirements: - the caller must be `account`."
      },
      "revokeRole(bytes32,address)": {
        "details": "Revokes `role` from `account`. If `account` had been granted `role`, emits a {RoleRevoked} event. Requirements: - the caller must have ``role``'s admin role."
      },
      "supportsInterface(bytes4)": {
        "details": "See {IERC165-supportsInterface}."
      }
    },
    "version": 1
  },
  "userdoc": {
    "kind": "user",
    "methods": {
      "CURRENCY()": {
        "notice": "The token ID that represents the CERE currency for all payments in this contract. "
      },
      "buyFromUsd(uint256,address,address,uint256,uint256,uint256)": {
        "notice": "Execute a buy of an NFT based on a fiat payment. Only the gateway with PAYMENT_SERVICE role can report successful payments. The amount of fiat is recorded, and exchanged for an amount of Davinci currency. The currency is used to buy an NFT in the same transaction. The NFT must be available for sale from the seller in SimpleExchange."
      },
      "setExchangeRate(uint256)": {
        "notice": "Set the exchange rate between fiat (USD) and Davinci currency (CERE). The rate is given as number of CERE (with 10 decimals) per USD cent (1 penny). Only the rate service with the EXCHANGE_RATE_ORACLE role can change the rate."
      },
      "withdrawCere()": {
        "notice": "Withdraw all CERE from this contract. Only accounts with DEFAULT_ADMIN_ROLE can withdraw."
      }
    },
    "notice": "The FiatGateway contract allows buying NFTs from an external fiat payment. This contract connects to the Davinci contract. It must hold a balance of CERE recognized by Davinci. This contract uses the SimpleExchange API to buy NFTs.",
    "version": 1
  }
}