{
  "contractName": "Auction",
  "abi": [
    {
      "anonymous": false,
      "inputs": [
        {
          "indexed": false,
          "internalType": "address",
          "name": "previousAdmin",
          "type": "address"
        },
        {
          "indexed": false,
          "internalType": "address",
          "name": "newAdmin",
          "type": "address"
        }
      ],
      "name": "AdminChanged",
      "type": "event"
    },
    {
      "anonymous": false,
      "inputs": [
        {
          "indexed": true,
          "internalType": "address",
          "name": "beacon",
          "type": "address"
        }
      ],
      "name": "BeaconUpgraded",
      "type": "event"
    },
    {
      "anonymous": false,
      "inputs": [
        {
          "indexed": true,
          "internalType": "address",
          "name": "seller",
          "type": "address"
        },
        {
          "indexed": true,
          "internalType": "uint256",
          "name": "nftId",
          "type": "uint256"
        },
        {
          "indexed": false,
          "internalType": "uint256",
          "name": "price",
          "type": "uint256"
        },
        {
          "indexed": false,
          "internalType": "uint256",
          "name": "closeTimeSec",
          "type": "uint256"
        },
        {
          "indexed": false,
          "internalType": "address",
          "name": "buyer",
          "type": "address"
        }
      ],
      "name": "BidOnAuction",
      "type": "event"
    },
    {
      "anonymous": false,
      "inputs": [
        {
          "indexed": true,
          "internalType": "bytes32",
          "name": "role",
          "type": "bytes32"
        },
        {
          "indexed": true,
          "internalType": "bytes32",
          "name": "previousAdminRole",
          "type": "bytes32"
        },
        {
          "indexed": true,
          "internalType": "bytes32",
          "name": "newAdminRole",
          "type": "bytes32"
        }
      ],
      "name": "RoleAdminChanged",
      "type": "event"
    },
    {
      "anonymous": false,
      "inputs": [
        {
          "indexed": true,
          "internalType": "bytes32",
          "name": "role",
          "type": "bytes32"
        },
        {
          "indexed": true,
          "internalType": "address",
          "name": "account",
          "type": "address"
        },
        {
          "indexed": true,
          "internalType": "address",
          "name": "sender",
          "type": "address"
        }
      ],
      "name": "RoleGranted",
      "type": "event"
    },
    {
      "anonymous": false,
      "inputs": [
        {
          "indexed": true,
          "internalType": "bytes32",
          "name": "role",
          "type": "bytes32"
        },
        {
          "indexed": true,
          "internalType": "address",
          "name": "account",
          "type": "address"
        },
        {
          "indexed": true,
          "internalType": "address",
          "name": "sender",
          "type": "address"
        }
      ],
      "name": "RoleRevoked",
      "type": "event"
    },
    {
      "anonymous": false,
      "inputs": [
        {
          "indexed": true,
          "internalType": "address",
          "name": "seller",
          "type": "address"
        },
        {
          "indexed": true,
          "internalType": "uint256",
          "name": "nftId",
          "type": "uint256"
        },
        {
          "indexed": false,
          "internalType": "uint256",
          "name": "price",
          "type": "uint256"
        },
        {
          "indexed": false,
          "internalType": "address",
          "name": "buyer",
          "type": "address"
        }
      ],
      "name": "SettleAuction",
      "type": "event"
    },
    {
      "anonymous": false,
      "inputs": [
        {
          "indexed": true,
          "internalType": "address",
          "name": "seller",
          "type": "address"
        },
        {
          "indexed": true,
          "internalType": "uint256",
          "name": "nftId",
          "type": "uint256"
        },
        {
          "indexed": false,
          "internalType": "uint256",
          "name": "price",
          "type": "uint256"
        },
        {
          "indexed": false,
          "internalType": "uint256",
          "name": "closeTimeSec",
          "type": "uint256"
        },
        {
          "indexed": false,
          "internalType": "bool",
          "name": "secured",
          "type": "bool"
        }
      ],
      "name": "StartAuction",
      "type": "event"
    },
    {
      "anonymous": false,
      "inputs": [
        {
          "indexed": true,
          "internalType": "address",
          "name": "implementation",
          "type": "address"
        }
      ],
      "name": "Upgraded",
      "type": "event"
    },
    {
      "inputs": [],
      "name": "BUY_AUTHORIZATION_TYPEHASH",
      "outputs": [
        {
          "internalType": "bytes32",
          "name": "",
          "type": "bytes32"
        }
      ],
      "stateMutability": "view",
      "type": "function"
    },
    {
      "inputs": [],
      "name": "BUY_AUTHORIZER_ROLE",
      "outputs": [
        {
          "internalType": "bytes32",
          "name": "",
          "type": "bytes32"
        }
      ],
      "stateMutability": "view",
      "type": "function"
    },
    {
      "inputs": [],
      "name": "CURRENCY",
      "outputs": [
        {
          "internalType": "uint256",
          "name": "",
          "type": "uint256"
        }
      ],
      "stateMutability": "view",
      "type": "function"
    },
    {
      "inputs": [],
      "name": "DEFAULT_ADMIN_ROLE",
      "outputs": [
        {
          "internalType": "bytes32",
          "name": "",
          "type": "bytes32"
        }
      ],
      "stateMutability": "view",
      "type": "function"
    },
    {
      "inputs": [],
      "name": "META_TX_FORWARDER",
      "outputs": [
        {
          "internalType": "bytes32",
          "name": "",
          "type": "bytes32"
        }
      ],
      "stateMutability": "view",
      "type": "function"
    },
    {
      "inputs": [
        {
          "internalType": "address",
          "name": "",
          "type": "address"
        },
        {
          "internalType": "uint256",
          "name": "",
          "type": "uint256"
        }
      ],
      "name": "bidCollateral",
      "outputs": [
        {
          "internalType": "uint256",
          "name": "",
          "type": "uint256"
        }
      ],
      "stateMutability": "view",
      "type": "function"
    },
    {
      "inputs": [],
      "name": "freeport",
      "outputs": [
        {
          "internalType": "contract Freeport",
          "name": "",
          "type": "address"
        }
      ],
      "stateMutability": "view",
      "type": "function"
    },
    {
      "inputs": [
        {
          "internalType": "uint32",
          "name": "innerNftId",
          "type": "uint32"
        }
      ],
      "name": "getGlobalNftId",
      "outputs": [
        {
          "internalType": "uint256",
          "name": "",
          "type": "uint256"
        }
      ],
      "stateMutability": "view",
      "type": "function"
    },
    {
      "inputs": [
        {
          "internalType": "bytes32",
          "name": "role",
          "type": "bytes32"
        }
      ],
      "name": "getRoleAdmin",
      "outputs": [
        {
          "internalType": "bytes32",
          "name": "",
          "type": "bytes32"
        }
      ],
      "stateMutability": "view",
      "type": "function"
    },
    {
      "inputs": [
        {
          "internalType": "bytes32",
          "name": "role",
          "type": "bytes32"
        },
        {
          "internalType": "address",
          "name": "account",
          "type": "address"
        }
      ],
      "name": "grantRole",
      "outputs": [],
      "stateMutability": "nonpayable",
      "type": "function"
    },
    {
      "inputs": [
        {
          "internalType": "bytes32",
          "name": "role",
          "type": "bytes32"
        },
        {
          "internalType": "address",
          "name": "account",
          "type": "address"
        }
      ],
      "name": "hasRole",
      "outputs": [
        {
          "internalType": "bool",
          "name": "",
          "type": "bool"
        }
      ],
      "stateMutability": "view",
      "type": "function"
    },
    {
      "inputs": [
        {
          "internalType": "address",
          "name": "forwarder",
          "type": "address"
        }
      ],
      "name": "isTrustedForwarder",
      "outputs": [
        {
          "internalType": "bool",
          "name": "",
          "type": "bool"
        }
      ],
      "stateMutability": "view",
      "type": "function"
    },
    {
      "inputs": [
        {
          "internalType": "address",
          "name": "",
          "type": "address"
        },
        {
          "internalType": "address",
          "name": "",
          "type": "address"
        },
        {
          "internalType": "uint256[]",
          "name": "",
          "type": "uint256[]"
        },
        {
          "internalType": "uint256[]",
          "name": "",
          "type": "uint256[]"
        },
        {
          "internalType": "bytes",
          "name": "",
          "type": "bytes"
        }
      ],
      "name": "onERC1155BatchReceived",
      "outputs": [
        {
          "internalType": "bytes4",
          "name": "",
          "type": "bytes4"
        }
      ],
      "stateMutability": "nonpayable",
      "type": "function"
    },
    {
      "inputs": [
        {
          "internalType": "address",
          "name": "",
          "type": "address"
        },
        {
          "internalType": "address",
          "name": "",
          "type": "address"
        },
        {
          "internalType": "uint256",
          "name": "",
          "type": "uint256"
        },
        {
          "internalType": "uint256",
          "name": "",
          "type": "uint256"
        },
        {
          "internalType": "bytes",
          "name": "",
          "type": "bytes"
        }
      ],
      "name": "onERC1155Received",
      "outputs": [
        {
          "internalType": "bytes4",
          "name": "",
          "type": "bytes4"
        }
      ],
      "stateMutability": "nonpayable",
      "type": "function"
    },
    {
      "inputs": [
        {
          "internalType": "bytes32",
          "name": "role",
          "type": "bytes32"
        },
        {
          "internalType": "address",
          "name": "account",
          "type": "address"
        }
      ],
      "name": "renounceRole",
      "outputs": [],
      "stateMutability": "nonpayable",
      "type": "function"
    },
    {
      "inputs": [
        {
          "internalType": "bytes32",
          "name": "role",
          "type": "bytes32"
        },
        {
          "internalType": "address",
          "name": "account",
          "type": "address"
        }
      ],
      "name": "revokeRole",
      "outputs": [],
      "stateMutability": "nonpayable",
      "type": "function"
    },
    {
      "inputs": [
        {
          "internalType": "address",
          "name": "",
          "type": "address"
        },
        {
          "internalType": "uint256",
          "name": "",
          "type": "uint256"
        }
      ],
      "name": "sellerNftBids",
      "outputs": [
        {
          "internalType": "address",
          "name": "buyer",
          "type": "address"
        },
        {
          "internalType": "uint256",
          "name": "price",
          "type": "uint256"
        },
        {
          "internalType": "uint256",
          "name": "closeTimeSec",
          "type": "uint256"
        },
        {
          "internalType": "bool",
          "name": "secured",
          "type": "bool"
        }
      ],
      "stateMutability": "view",
      "type": "function"
    },
    {
      "inputs": [
        {
          "internalType": "address",
          "name": "newImplementation",
          "type": "address"
        }
      ],
      "name": "upgradeTo",
      "outputs": [],
      "stateMutability": "nonpayable",
      "type": "function"
    },
    {
      "inputs": [
        {
          "internalType": "address",
          "name": "newImplementation",
          "type": "address"
        },
        {
          "internalType": "bytes",
          "name": "data",
          "type": "bytes"
        }
      ],
      "name": "upgradeToAndCall",
      "outputs": [],
      "stateMutability": "payable",
      "type": "function"
    },
    {
      "inputs": [
        {
          "internalType": "bytes4",
          "name": "interfaceId",
          "type": "bytes4"
        }
      ],
      "name": "supportsInterface",
      "outputs": [
        {
          "internalType": "bool",
          "name": "",
          "type": "bool"
        }
      ],
      "stateMutability": "view",
      "type": "function"
    },
    {
      "inputs": [
        {
          "internalType": "contract Freeport",
          "name": "_freeport",
          "type": "address"
        }
      ],
      "name": "initialize",
      "outputs": [],
      "stateMutability": "nonpayable",
      "type": "function"
    },
    {
      "inputs": [
        {
          "internalType": "contract Freeport",
          "name": "_freeport",
          "type": "address"
        }
      ],
      "name": "initialize_update",
      "outputs": [],
      "stateMutability": "nonpayable",
      "type": "function"
    },
    {
      "inputs": [],
      "name": "initialize_v2_0_0",
      "outputs": [],
      "stateMutability": "nonpayable",
      "type": "function"
    },
    {
      "inputs": [
        {
          "internalType": "uint256",
          "name": "nftId",
          "type": "uint256"
        },
        {
          "internalType": "uint256",
          "name": "minPrice",
          "type": "uint256"
        },
        {
          "internalType": "uint256",
          "name": "closeTimeSec",
          "type": "uint256"
        }
      ],
      "name": "startAuction",
      "outputs": [],
      "stateMutability": "nonpayable",
      "type": "function"
    },
    {
      "inputs": [
        {
          "internalType": "uint256",
          "name": "nftId",
          "type": "uint256"
        },
        {
          "internalType": "uint256",
          "name": "minPrice",
          "type": "uint256"
        },
        {
          "internalType": "uint256",
          "name": "closeTimeSec",
          "type": "uint256"
        },
        {
          "internalType": "bool",
          "name": "secured",
          "type": "bool"
        }
      ],
      "name": "startSecuredAuction",
      "outputs": [],
      "stateMutability": "nonpayable",
      "type": "function"
    },
    {
      "inputs": [
        {
          "internalType": "address",
          "name": "seller",
          "type": "address"
        },
        {
          "internalType": "uint256",
          "name": "nftId",
          "type": "uint256"
        },
        {
          "internalType": "uint256",
          "name": "price",
          "type": "uint256"
        }
      ],
      "name": "bidOnAuction",
      "outputs": [],
      "stateMutability": "nonpayable",
      "type": "function"
    },
    {
      "inputs": [
        {
          "internalType": "address",
          "name": "seller",
          "type": "address"
        },
        {
          "internalType": "uint256",
          "name": "nftId",
          "type": "uint256"
        },
        {
          "internalType": "uint256",
          "name": "price",
          "type": "uint256"
        },
        {
          "internalType": "bytes",
          "name": "signature",
          "type": "bytes"
        }
      ],
      "name": "bidOnSecuredAuction",
      "outputs": [],
      "stateMutability": "nonpayable",
      "type": "function"
    },
    {
      "inputs": [
        {
          "internalType": "address",
          "name": "seller",
          "type": "address"
        },
        {
          "internalType": "uint256",
          "name": "nftId",
          "type": "uint256"
        }
      ],
      "name": "settleAuction",
      "outputs": [],
      "stateMutability": "nonpayable",
      "type": "function"
    }
  ],
  "bytecode": "0x608060405234801561001057600080fd5b506127c7806100206000396000f3fe6080604052600436106101475760003560e01c806301ffc9a71461014c5780631fdbbd1814610181578063248a9ca3146101b1578063288809c7146101d1578063297f4eb6146102005780632f2ff15d1461028757806336568abe146102a95780633659cfe6146102c95780633d6f291f146102e95780634195b151146102fe5780634f1ef2861461031e5780635138b08c14610331578063572b6c05146103515780635bb581041461037157806391d14854146103aa57806391e078bb146103ca5780639470ad85146103ea5780639a86e8ce146104185780639d31ef511461043a578063a217fddf1461045a578063bc197c811461046f578063c4d66de8146104b4578063d547741f146104d4578063e0445742146104f4578063e603a87014610514578063ea46d76c14610536578063f23a6e6114610556578063f53612191461045a575b600080fd5b34801561015857600080fd5b5061016c61016736600461236d565b610582565b60405190151581526020015b60405180910390f35b34801561018d57600080fd5b506101a360008051602061275283398151915281565b604051908152602001610178565b3480156101bd57600080fd5b506101a36101cc366004612326565b6105a2565b3480156101dd57600080fd5b506101a36101ec366004612434565b60401b63ffffffff60401b163060601b1790565b34801561020c57600080fd5b5061025b61021b36600461224b565b61016060209081526000928352604080842090915290825290208054600182015460028301546003909301546001600160a01b0390921692909160ff1684565b604080516001600160a01b03909516855260208501939093529183015215156060820152608001610178565b34801561029357600080fd5b506102a76102a236600461233e565b6105b7565b005b3480156102b557600080fd5b506102a76102c436600461233e565b6105e0565b3480156102d557600080fd5b506102a76102e43660046120d3565b610673565b3480156102f557600080fd5b506102a761069a565b34801561030a57600080fd5b506102a76103193660046122aa565b61083f565b6102a761032c3660046121fe565b610ab3565b34801561033d57600080fd5b506102a761034c36600461224b565b610ac8565b34801561035d57600080fd5b5061016c61036c3660046120d3565b610d2e565b34801561037d57600080fd5b506101a361038c36600461224b565b61016160209081526000928352604080842090915290825290205481565b3480156103b657600080fd5b5061016c6103c536600461233e565b610d44565b3480156103d657600080fd5b506102a76103e53660046123c9565b610d6f565b3480156103f657600080fd5b5061015f5461040b906001600160a01b031681565b60405161017891906124e3565b34801561042457600080fd5b506101a360008051602061273283398151915281565b34801561044657600080fd5b506102a76104553660046123f4565b610d78565b34801561046657600080fd5b506101a3600081565b34801561047b57600080fd5b5061049b61048a3660046120ef565b63bc197c8160e01b95945050505050565b6040516001600160e01b03199091168152602001610178565b3480156104c057600080fd5b506102a76104cf3660046120d3565b61104f565b3480156104e057600080fd5b506102a76104ef36600461233e565b6110e7565b34801561050057600080fd5b506102a761050f3660046120d3565b611106565b34801561052057600080fd5b506101a360008051602061277283398151915281565b34801561054257600080fd5b506102a7610551366004612276565b611138565b34801561056257600080fd5b5061049b610571366004612198565b63f23a6e6160e01b95945050505050565b600061058d82611153565b8061059c575061059c82611188565b92915050565b600090815260c9602052604090206001015490565b6105c0826105a2565b6105d1816105cc6111ad565b6111cf565b6105db8383611233565b505050565b6105e86111ad565b6001600160a01b0316816001600160a01b0316146106655760405162461bcd60e51b815260206004820152602f60248201527f416363657373436f6e74726f6c3a2063616e206f6e6c792072656e6f756e636560448201526e103937b632b9903337b91039b2b63360891b60648201526084015b60405180910390fd5b61066f82826112ba565b5050565b61067c8161133f565b61069781604051806020016040528060008152506000611383565b50565b61015f5460408051632e5604bd60e21b815290516000926001600160a01b03169163b95812f4916004808301926020929190829003018186803b1580156106e057600080fd5b505afa1580156106f4573d6000803e3d6000fd5b505050506040513d601f19601f820116820180604052508101906107189190612395565b61015f54604051636eb1769f60e11b81523060048201526001600160a01b039182166024820152919250600091829184169063dd62ed3e9060440160206040518083038186803b15801561076b57600080fd5b505afa15801561077f573d6000803e3d6000fd5b505050506040513d601f19601f820116820180604052508101906107a391906123b1565b11905080156107b0575050565b61015f5460405163095ea7b360e01b8152600019916001600160a01b038086169263095ea7b3926107e79216908590600401612520565b602060405180830381600087803b15801561080157600080fd5b505af1158015610815573d6000803e3d6000fd5b505050506040513d601f19601f82011682018060405250810190610839919061230a565b50505050565b60006108496111ad565b6001600160a01b038616600090815261016060209081526040808320888452909152902060038101549192509060ff16156108f357600061088b8387866114ff565b90506108a560008051602061277283398151915282610d44565b6108f15760405162461bcd60e51b815260206004820152601e60248201527f41757468726f697a657220646f65736e27742068617665206120726f6c650000604482015260640161065c565b505b806002015442106109415760405162461bcd60e51b81526020600482015260186024820152773a34329030bab1ba34b7b71036bab9ba1031329037b832b760411b604482015260640161065c565b61094d426102586125ea565b816002015410156109745761025881600201600082825461096e91906125ea565b90915550505b60018101546000606461098883606e612622565b6109929190612602565b9050808610156109ff5760405162461bcd60e51b815260206004820152603260248201527f61206e657720626964206d757374206265203130252067726561746572207468604482015271185b881d1a194818dd5c9c995b9d08189a5960721b606482015260840161065c565b82546001600160a01b03168015610a1a57610a1a8184611572565b83546001600160a01b0319166001600160a01b03861617845560018401879055610a448588611678565b87896001600160a01b03167f39e9b26db60de3ca88f045fdd8954028f1bbd0c6e2ff124121cb5a03da37019189876002015489604051610aa09392919092835260208301919091526001600160a01b0316604082015260600190565b60405180910390a3505050505050505050565b610abc8261133f565b61066f82826001611383565b6001600160a01b03821660009081526101606020908152604080832084845290915290206002810154610b365760405162461bcd60e51b81526020600482015260166024820152751d1a1948185d58dd1a5bdb881b5d5cdd08195e1a5cdd60521b604482015260640161065c565b80546001820180546001600160a01b031983168455600091829055600284019190915560038301805460ff191690556001600160a01b03909116908115610c3d57610b818582611572565b6000806000610b8f8761173c565b925092509250826001600160a01b031663fe99049a30878a60016040518563ffffffff1660e01b8152600401610bc894939291906124f7565b600060405180830381600087803b158015610be257600080fd5b505af1158015610bf6573d6000803e3d6000fd5b505050506001600160a01b0388166000908152610161602090815260408083208a84529091528120805460019290610c2f908490612641565b90915550610cdf9350505050565b6000806000610c4b8761173c565b925092509250826001600160a01b031663fe99049a308a8a60016040518563ffffffff1660e01b8152600401610c8494939291906124f7565b600060405180830381600087803b158015610c9e57600080fd5b505af1158015610cb2573d6000803e3d6000fd5b5050506001600160a01b0389166000908152610161602090815260408083208b8452909152812055505050505b604080518281526001600160a01b0384811660208301528692908816917ffe2c1531a975fce0584787c5e2643df8c1fe92f870c9dbadb24e366e31e79f44910160405180910390a35050505050565b600061059c600080516020612732833981519152835b600091825260c9602090815260408084206001600160a01b0393909316845291905290205460ff1690565b6105db83838360005b6000610d826111ad565b6001600160a01b038116600090815261016060209081526040808320898452909152902090915085610df05760405162461bcd60e51b815260206004820152601760248201527663616e6e6f742061756374696f6e2063757272656e637960481b604482015260640161065c565b600281015415610e3f5760405162461bcd60e51b815260206004820152601a6024820152791d1a1948185d58dd1a5bdb881b5d5cdd081b9bdd08195e1a5cdd60321b604482015260640161065c565b834210610e9a5760405162461bcd60e51b8152602060048201526024808201527f74686520636c6f73652074696d65206d75737420626520696e207468652066756044820152637475726560e01b606482015260840161065c565b6000606e610ea9876064612622565b610eb39190612602565b905060008111610f175760405162461bcd60e51b815260206004820152602960248201527f746865207374617274696e67207072696365206d75737420626520677265617460448201526806572207468616e20360bc1b606482015260840161065c565b81546001600160a01b0319168255600182018190556002820185905560038201805460ff191685151517905560008080610f508a61173c565b925092509250826001600160a01b031663fe99049a87308d60016040518563ffffffff1660e01b8152600401610f8994939291906124f7565b600060405180830381600087803b158015610fa357600080fd5b505af1158015610fb7573d6000803e3d6000fd5b505050506001600160a01b0386166000908152610161602090815260408083208d84529091528120805460019290610ff09084906125ea565b909155505060408051858152602081018a90528815158183015290518b916001600160a01b038916917f52b1a4e32f79b6e635261169c03176e663329edb41cec81b88c97cc7fbe8448a9181900360600190a350505050505050505050565b600054610100900460ff1680611068575060005460ff16155b6110845760405162461bcd60e51b815260040161065c9061256c565b600054610100900460ff161580156110a6576000805461ffff19166101011790555b6110ae61175a565b6110b6611764565b61015f80546001600160a01b0319166001600160a01b038416179055801561066f576000805461ff00191690555050565b6110f0826105a2565b6110fc816105cc6111ad565b6105db83836112ba565b6000611114816105cc6111ad565b5061015f80546001600160a01b0319166001600160a01b0392909216919091179055565b6105db8383836040518060200160405280600081525061083f565b60006001600160e01b03198216637965db0b60e01b148061059c57506301ffc9a760e01b6001600160e01b031983161461059c565b60006001600160e01b03198216630271189760e51b148061059c575061059c82611153565b60006111b833610d2e565b156111ca575060131936013560601c90565b503390565b6111d98282610d44565b61066f576111f1816001600160a01b031660146117e7565b6111fc8360206117e7565b60405160200161120d929190612474565b60408051601f198184030181529082905262461bcd60e51b825261065c91600401612539565b61123d8282610d44565b61066f57600082815260c9602090815260408083206001600160a01b03851684529091529020805460ff191660011790556112766111ad565b6001600160a01b0316816001600160a01b0316837f2f8788117e7eff1d82e926ec794901d17c78024a50270940304540a733656f0d60405160405180910390a45050565b6112c48282610d44565b1561066f57600082815260c9602090815260408083206001600160a01b03851684529091529020805460ff191690556112fb6111ad565b6001600160a01b0316816001600160a01b0316837ff6391f5c32d9c69d2a47ea670b442974b53935d1edc7fd64eb21e047a839171b60405160405180910390a45050565b61134a600033610d44565b6106975760405162461bcd60e51b815260206004820152600a60248201526927b7363c9020b236b4b760b11b604482015260640161065c565b600061138d6119c8565b9050611398846119e4565b6000835111806113a55750815b156113b6576113b48484611a77565b505b7f4910fdfa16fed3260ed0e7147f7cc6da11a60208b5b9406d12a635614ffd9143805460ff166114f857805460ff191660011781556040516114319086906114029085906024016124e3565b60408051601f198184030181529190526020810180516001600160e01b0316631b2ce7f360e11b179052611a77565b50805460ff191681556114426119c8565b6001600160a01b0316826001600160a01b0316146114ba5760405162461bcd60e51b815260206004820152602f60248201527f45524331393637557067726164653a207570677261646520627265616b73206660448201526e75727468657220757067726164657360881b606482015260840161065c565b6114c3856119e4565b6040516001600160a01b038616907fbc7cd75a20ee27fd9adebab32041f755214dbc6bffa90cc0225b39da2e5c2d3b90600090a25b5050505050565b600080611567836115616000805160206127528339815191528888604051602001611546939291909283526001600160a01b03919091166020830152604082015260600190565b60405160208183030381529060405280519060200120611b62565b90611c7a565b9150505b9392505050565b61015f60009054906101000a90046001600160a01b03166001600160a01b031663b95812f46040518163ffffffff1660e01b815260040160206040518083038186803b1580156115c157600080fd5b505afa1580156115d5573d6000803e3d6000fd5b505050506040513d601f19601f820116820180604052508101906115f99190612395565b6001600160a01b031663a9059cbb83836040518363ffffffff1660e01b8152600401611626929190612520565b602060405180830381600087803b15801561164057600080fd5b505af1158015611654573d6000803e3d6000fd5b505050506040513d601f19601f820116820180604052508101906105db919061230a565b61015f60009054906101000a90046001600160a01b03166001600160a01b031663b95812f46040518163ffffffff1660e01b815260040160206040518083038186803b1580156116c757600080fd5b505afa1580156116db573d6000803e3d6000fd5b505050506040513d601f19601f820116820180604052508101906116ff9190612395565b6040516323b872dd60e01b81526001600160a01b0384811660048301523060248301526044820184905291909116906323b872dd90606401611626565b606081901c91604082901c63ffffffff16916001600160401b031690565b611762611d30565b565b600054610100900460ff168061177d575060005460ff16155b6117995760405162461bcd60e51b815260040161065c9061256c565b600054610100900460ff161580156117bb576000805461ffff19166101011790555b6117c3611d4b565b6117cb611d4b565b6117d3611d4b565b8015610697576000805461ff001916905550565b606060006117f6836002612622565b6118019060026125ea565b6001600160401b0381111561182657634e487b7160e01b600052604160045260246000fd5b6040519080825280601f01601f191660200182016040528015611850576020820181803683370190505b509050600360fc1b8160008151811061187957634e487b7160e01b600052603260045260246000fd5b60200101906001600160f81b031916908160001a905350600f60fb1b816001815181106118b657634e487b7160e01b600052603260045260246000fd5b60200101906001600160f81b031916908160001a90535060006118da846002612622565b6118e59060016125ea565b90505b6001811115611979576f181899199a1a9b1b9c1cb0b131b232b360811b85600f166010811061192757634e487b7160e01b600052603260045260246000fd5b1a60f81b82828151811061194b57634e487b7160e01b600052603260045260246000fd5b60200101906001600160f81b031916908160001a90535060049490941c9361197281612684565b90506118e8565b50831561156b5760405162461bcd60e51b815260206004820181905260248201527f537472696e67733a20686578206c656e67746820696e73756666696369656e74604482015260640161065c565b6000805160206126eb833981519152546001600160a01b031690565b803b611a485760405162461bcd60e51b815260206004820152602d60248201527f455243313936373a206e657720696d706c656d656e746174696f6e206973206e60448201526c1bdd08184818dbdb9d1c9858dd609a1b606482015260840161065c565b6000805160206126eb83398151915280546001600160a01b0319166001600160a01b0392909216919091179055565b6060823b611ad65760405162461bcd60e51b815260206004820152602660248201527f416464726573733a2064656c65676174652063616c6c20746f206e6f6e2d636f6044820152651b9d1c9858dd60d21b606482015260840161065c565b600080846001600160a01b031684604051611af19190612458565b600060405180830381855af49150503d8060008114611b2c576040519150601f19603f3d011682016040523d82523d6000602084013e611b31565b606091505b5091509150611b59828260405180606001604052806027815260200161270b60279139611db5565b95945050505050565b600061059c611c396040805180820182526008815267119c99595c1bdc9d60c21b6020918201528151808301835260018152601960f91b9082015281517f8b73c3c69bb8fe3d512ecc4cf759cc79239f7b179b0ffacaa9a75d522b39400f818301527f4e5928caf52e21560c27aa893581ed4571c9179f303e48c86dbfd58f0edc4e98818401527fad7c5bef027816a800da1736444fb58a807ef4c9603b7848673f7e3a68eb14a560608201524660808201523060a0808301919091528351808303909101815260c0909101909252815191012090565b8360405161190160f01b6020820152602281018390526042810182905260009060620160405160208183030381529060405280519060200120905092915050565b600080600080845160411415611ca45750505060208201516040830151606084015160001a611d1a565b845160401415611cd25750505060408201516020830151906001600160ff1b0381169060ff1c601b01611d1a565b60405162461bcd60e51b815260206004820152601f60248201527f45434453413a20696e76616c6964207369676e6174757265206c656e67746800604482015260640161065c565b611d2686828585611dee565b9695505050505050565b611d38611f7f565b611d40611764565b611762600033611fdd565b600054610100900460ff1680611d64575060005460ff16155b611d805760405162461bcd60e51b815260040161065c9061256c565b600054610100900460ff161580156117d3576000805461ffff19166101011790558015610697576000805461ff001916905550565b60608315611dc457508161156b565b825115611dd45782518084602001fd5b8160405162461bcd60e51b815260040161065c9190612539565b60006fa2a8918ca85bafe22016d0b997e4df60600160ff1b03821115611e615760405162461bcd60e51b815260206004820152602260248201527f45434453413a20696e76616c6964207369676e6174757265202773272076616c604482015261756560f01b606482015260840161065c565b8360ff16601b1480611e7657508360ff16601c145b611ecd5760405162461bcd60e51b815260206004820152602260248201527f45434453413a20696e76616c6964207369676e6174757265202776272076616c604482015261756560f01b606482015260840161065c565b6040805160008082526020820180845288905260ff871692820192909252606081018590526080810184905260019060a0016020604051602081039080840390855afa158015611f21573d6000803e3d6000fd5b5050604051601f1901519150506001600160a01b038116611b595760405162461bcd60e51b815260206004820152601860248201527745434453413a20696e76616c6964207369676e617475726560401b604482015260640161065c565b600054610100900460ff1680611f98575060005460ff16155b611fb45760405162461bcd60e51b815260040161065c9061256c565b600054610100900460ff161580156117c3576000805461ffff19166101011790556117cb611d4b565b61066f8282611233565b600082601f830112611ff7578081fd5b813560206001600160401b03821115612012576120126126b1565b8160051b6120218282016125ba565b83815282810190868401838801850189101561203b578687fd5b8693505b8584101561205d57803583526001939093019291840191840161203f565b50979650505050505050565b600082601f830112612079578081fd5b81356001600160401b03811115612092576120926126b1565b6120a5601f8201601f19166020016125ba565b8181528460208386010111156120b9578283fd5b816020850160208301379081016020019190915292915050565b6000602082840312156120e4578081fd5b813561156b816126c7565b600080600080600060a08688031215612106578081fd5b8535612111816126c7565b94506020860135612121816126c7565b935060408601356001600160401b038082111561213c578283fd5b61214889838a01611fe7565b9450606088013591508082111561215d578283fd5b61216989838a01611fe7565b9350608088013591508082111561217e578283fd5b5061218b88828901612069565b9150509295509295909350565b600080600080600060a086880312156121af578081fd5b85356121ba816126c7565b945060208601356121ca816126c7565b9350604086013592506060860135915060808601356001600160401b038111156121f2578182fd5b61218b88828901612069565b60008060408385031215612210578182fd5b823561221b816126c7565b915060208301356001600160401b03811115612235578182fd5b61224185828601612069565b9150509250929050565b6000806040838503121561225d578182fd5b8235612268816126c7565b946020939093013593505050565b60008060006060848603121561228a578283fd5b8335612295816126c7565b95602085013595506040909401359392505050565b600080600080608085870312156122bf578384fd5b84356122ca816126c7565b9350602085013592506040850135915060608501356001600160401b038111156122f2578182fd5b6122fe87828801612069565b91505092959194509250565b60006020828403121561231b578081fd5b815161156b816126dc565b600060208284031215612337578081fd5b5035919050565b60008060408385031215612350578182fd5b823591506020830135612362816126c7565b809150509250929050565b60006020828403121561237e578081fd5b81356001600160e01b03198116811461156b578182fd5b6000602082840312156123a6578081fd5b815161156b816126c7565b6000602082840312156123c2578081fd5b5051919050565b6000806000606084860312156123dd578081fd5b505081359360208301359350604090920135919050565b60008060008060808587031215612409578182fd5b8435935060208501359250604085013591506060850135612429816126dc565b939692955090935050565b600060208284031215612445578081fd5b813563ffffffff8116811461156b578182fd5b6000825161246a818460208701612658565b9190910192915050565b76020b1b1b2b9b9a1b7b73a3937b61d1030b1b1b7bab73a1604d1b8152600083516124a6816017850160208801612658565b7001034b99036b4b9b9b4b733903937b6329607d1b60179184019182015283516124d7816028840160208801612658565b01602801949350505050565b6001600160a01b0391909116815260200190565b6001600160a01b0394851681529290931660208301526040820152606081019190915260800190565b6001600160a01b03929092168252602082015260400190565b6020815260008251806020840152612558816040850160208701612658565b601f01601f19169190910160400192915050565b6020808252602e908201527f496e697469616c697a61626c653a20636f6e747261637420697320616c72656160408201526d191e481a5b9a5d1a585b1a5e995960921b606082015260800190565b604051601f8201601f191681016001600160401b03811182821017156125e2576125e26126b1565b604052919050565b600082198211156125fd576125fd61269b565b500190565b60008261261d57634e487b7160e01b81526012600452602481fd5b500490565b600081600019048311821515161561263c5761263c61269b565b500290565b6000828210156126535761265361269b565b500390565b60005b8381101561267357818101518382015260200161265b565b838111156108395750506000910152565b6000816126935761269361269b565b506000190190565b634e487b7160e01b600052601160045260246000fd5b634e487b7160e01b600052604160045260246000fd5b6001600160a01b038116811461069757600080fd5b801515811461069757600080fdfe360894a13ba1a3210667c828492db98dca3e2076cc3735a920a3ca505d382bbc416464726573733a206c6f772d6c6576656c2064656c65676174652063616c6c206661696c65643d2e894c222ba979e2dce2c7d940c0e9bb14306669e9f034eb1bb3979a2069d8ec3a2fb36466c720eb5eece72c8492a46185c1db6b7f1d09b827c3c8424f3fb3ab6d842310ede8efb59f5a0e3e5baae24ab3d2229acf8511623722ce39ab3bdea26469706673582212203c09fc19f07a9ff64ba66cad5ec599934e4abfa2fffe3b28ec1068991f6b235264736f6c63430008040033",
  "immutableReferences": {},
  "source": "pragma solidity ^0.8.0;\n\nimport \"@openzeppelin/contracts-upgradeable/token/ERC1155/utils/ERC1155HolderUpgradeable.sol\";\nimport \"@openzeppelin/contracts-upgradeable/proxy/utils/Initializable.sol\";\nimport \"./freeportParts/MetaTxContext.sol\";\nimport \"./freeportParts/SignatureVerifier.sol\";\nimport \"./freeportParts/HasGlobalNftId.sol\";\nimport \"./Freeport.sol\";\nimport \"./Collection.sol\";\n\n/**\nAn auction is characterized by a sequence of transactions and their corresponding events:\n\n- `StartAuction`: A seller offers to sell one NFT to the highest bidder, with a minimum price, and a closing time.\n\n- Any number of `BidOnAuction`: A potential buyer accepts the minimum price or a price at least 10% higher\nthan that of the previous bidder.\nThe closing time may be extended.\nA deposit is taken from the new bidder. The deposit of the previous bidder is returned, if any.\nBidding is no longer possible after the closing time.\n\n- `SettleAuction`: The sale is completed between the seller and the highest bidder, or cancelled if there was no bidder.\nSome royalties may be taken from the sale price, as configured by the NFT creator (see `TransferFees.sol`).\nThe settlement is only possible after the closing time.\n\nWhile an auction is active, it is identified by the tuple `(seller address, NFT ID)`.\nHowever, after the auction is settled, a new auction with the *same tuple* may start.\n\nThis contract is not meant to be used from another contract; if it is,\nit will not call onERC1155Received hooks for security reasons.\n\nThis contract must have the TRANSFER_OPERATOR role in the Collection contract.\n */\ncontract Auction is /* AccessControl, */ MetaTxContext, ERC1155HolderUpgradeable, SignatureVerifier, HasGlobalNftId {\n\n    /** Supports interfaces of AccessControl and ERC1155Receiver.\n     */\n    function supportsInterface(bytes4 interfaceId)\n    public view virtual override(AccessControlUpgradeable, ERC1155ReceiverUpgradeable) returns (bool) {\n        return AccessControlUpgradeable.supportsInterface(interfaceId)\n        || ERC1155ReceiverUpgradeable.supportsInterface(interfaceId);\n    }\n\n    Freeport public freeport;\n\n    /** Initialize this contract and its dependencies.\n     */\n    function initialize(Freeport _freeport) public initializer {\n        __MetaTxContext_init();\n        __ERC1155Holder_init();\n        freeport = _freeport;\n    }\n\n    function initialize_update(Freeport _freeport) external onlyRole(DEFAULT_ADMIN_ROLE) {\n        freeport = _freeport;\n    }\n\n    /** Initialize this contract after version 2.0.0.\n     *\n     * Allow deposit of USDC into Freeport.\n     */\n    function initialize_v2_0_0() public {\n        IERC20 erc20 = freeport.currencyContract();\n\n        bool init = erc20.allowance(address(this), address(freeport)) > 0;\n        if (init) return;\n\n        uint256 maxInt = 0xffffffffffffffffffffffffffffffffffffffffffffffffffffffffffffffff;\n        erc20.approve(address(freeport), maxInt);\n    }\n\n    /** The token ID that represents the CERE currency for all payments in this contract. */\n    uint256 public constant CURRENCY = 0;\n\n    struct Bid {\n        address buyer; // 0 means no buyer yet.\n        uint256 price; // The highest bid price. The initial value is set by the seller.\n        uint256 closeTimeSec; // Bidding is open until the close time. After this time, the settlement becomes possible. A non-zero value also means that the auction exists.\n        bool secured;\n    }\n\n    /** Seller => NFT ID => Bid.\n     */\n    mapping(address => mapping(uint256 => Bid)) public sellerNftBids;\n\n    /** Tracking amount of collateral NFTs.\n     */\n    mapping(address => mapping(uint256 => uint256)) public bidCollateral;\n\n    /**\n     * Note: `price` is the minimum price minus 10%, because a bid must be 10% higher, resulting in the requested minimum price.\n     */\n    event StartAuction(\n        address indexed seller,\n        uint256 indexed nftId,\n        uint256 price,\n        uint256 closeTimeSec,\n        bool secured);\n\n    /**\n     * Note: `price`, `closeTimeSec`, and `buyer` may have changed for the auction `(seller, nftId)`.\n     */\n    event BidOnAuction(\n        address indexed seller,\n        uint256 indexed nftId,\n        uint256 price,\n        uint256 closeTimeSec,\n        address buyer);\n\n    /**\n     * Note: `buyer == 0` means no buyer, and the NFT went back to the seller.\n     */\n    event SettleAuction(\n        address indexed seller,\n        uint256 indexed nftId,\n        uint256 price,\n        address buyer);\n\n    function startAuction(uint256 nftId, uint256 minPrice, uint closeTimeSec)\n    public {\n        startSecuredAuction(nftId, minPrice, closeTimeSec, false);\n    }\n\n    /**\n     */\n    function startSecuredAuction(uint256 nftId, uint256 minPrice, uint closeTimeSec, bool secured)\n    public {\n        address seller = _msgSender();\n        Bid storage bid = sellerNftBids[seller][nftId];\n\n        // Cannot put the currency on auction.\n        require(nftId != CURRENCY, \"cannot auction currency\");\n\n        // Check that the auction does not exist.\n        require(bid.closeTimeSec == 0, \"the auction must not exist\");\n\n        // Check that the close time is non-zero and in the future.\n        require(block.timestamp < closeTimeSec, \"the close time must be in the future\");\n\n        // Deduct the minimum increment to work with the logic of minPrice in the function bid().\n        uint256 price = minPrice * 100 / 110;\n        require(price > 0, \"the starting price must be greater than 0\");\n\n        // TODO: Check that minPrice is greater than the fixed royalty, if any.\n\n        // Create the auction.\n        bid.buyer = address(0);\n        bid.price = price;\n        bid.closeTimeSec = closeTimeSec;\n        bid.secured = secured;\n\n        // Take the NFT from the seller.\n        // Use the TRANSFER_OPERATOR role.\n        (address issuer, uint32 innerId, uint64 supply) = _parseNftId(nftId);\n        Collection(issuer).transferFrom(seller, address(this), nftId, 1);\n        // Tracking amount of collateral NFTs\n        bidCollateral[seller][nftId] += 1;\n\n        emit StartAuction(seller, nftId, price, closeTimeSec, secured);\n    }\n\n    function bidOnAuction(address seller, uint256 nftId, uint256 price) public {\n        bidOnSecuredAuction(seller, nftId, price, \"\");\n    }\n\n    /**\n     */\n    function bidOnSecuredAuction(address seller, uint256 nftId, uint256 price, bytes memory signature)\n    public {\n        address buyer = _msgSender();\n        Bid storage bid = sellerNftBids[seller][nftId];\n\n        if (bid.secured) {\n            address verifier = recoverAddressFromSignature(buyer, nftId, signature);\n            require(hasRole(BUY_AUTHORIZER_ROLE, verifier), \"Authroizer doesn't have a role\");\n        }\n\n        // Check that the auction exists and is open.\n        require(block.timestamp < bid.closeTimeSec, \"the auction must be open\");\n\n        // Push back the end of the auction if it is too close.\n        if (bid.closeTimeSec < block.timestamp + 10 * 60) {\n            bid.closeTimeSec += 10 * 60;\n        }\n\n        // Check that the new bid is sufficiently large.\n        uint256 previousDeposit = bid.price;\n        uint minPrice = previousDeposit * 110 / 100;\n        require(price >= minPrice, \"a new bid must be 10% greater than the current bid\");\n\n        // Refund the previous buyer.\n        address previousBuyer = bid.buyer;\n        if (previousBuyer != address(0)) {\n            _returnDeposit(previousBuyer, previousDeposit);\n        }\n\n        // Take the new deposit from the new buyer.\n        bid.buyer = buyer;\n        bid.price = price;\n        _takeDeposit(buyer, price);\n\n        emit BidOnAuction(seller, nftId, price, bid.closeTimeSec, buyer);\n    }\n\n    function settleAuction(address seller, uint256 nftId)\n    public {\n        Bid storage bid = sellerNftBids[seller][nftId];\n\n        // Check that the auction exists.\n        require(bid.closeTimeSec != 0, \"the auction must exist\");\n\n        address buyer = bid.buyer;\n        uint256 price = bid.price;\n\n        // Reset the storage. Make the auction not exist anymore.\n        bid.buyer = address(0);\n        bid.price = 0;\n        bid.closeTimeSec = 0;\n        bid.secured = false;\n\n        if (buyer != address(0)) {\n            // In case there was a buyer,\n            // transfer the payment to the seller.\n            _finalizePayment(seller, price);\n\n            // Transfer the NFT to the buyer.\n            (address issuer, uint32 innerId, uint64 supply) = _parseNftId(nftId);\n            Collection(issuer).transferFrom(address(this), buyer, nftId, 1);\n            // Tracking amount of collateral NFTs\n            bidCollateral[seller][nftId] -= 1;\n\n            // Collect royalty.\n            // TODO: capture fee from the payment instead of in Freeport.\n            //try freeport.captureFee(seller, nftId, price, 1) {\n            //} catch {}\n        } else {\n            // Otherwise, there was no buyer,\n            // give back the NFT to the seller.\n            (address issuer, uint32 innerId, uint64 supply) = _parseNftId(nftId);\n            Collection(issuer).transferFrom(address(this), seller, nftId, 1);\n\n            // Tracking amount of collateral NFTs\n            bidCollateral[seller][nftId] = 0;\n        }\n\n        emit SettleAuction(seller, nftId, price, buyer);\n    }\n\n    /** Take USDC as deposit.\n     */\n    function _takeDeposit(\n        address from,\n        uint amount\n    ) internal {\n        freeport.currencyContract().transferFrom(from, address(this), amount);\n    }\n\n    /** Return the USDC deposit.\n     */\n    function _returnDeposit(\n        address to,\n        uint amount\n    ) internal {\n        freeport.currencyContract().transfer(to, amount);\n    }\n\n    /** Pay USDC from the deposit in this contract to the seller.\n     *\n     * This does NOT supports joint accounts and royalties (captureFee).\n     */\n    function _finalizePayment(\n        address to,\n        uint amount\n    ) internal {\n        freeport.currencyContract().transfer(to, amount);\n    }\n}\n",
  "sourcePath": "/Users/neanvo/WorkFlow/cere/Freeport-Smart-Contracts/contracts/Auction.sol",
  "compiler": {
    "name": "solc",
    "version": "0.8.4+commit.c7e474f2.Emscripten.clang"
  },
  "schemaVersion": "3.4.8",
  "updatedAt": "2022-09-01T12:16:26.689Z",
  "devdoc": {
    "kind": "dev",
    "methods": {
      "getRoleAdmin(bytes32)": {
        "details": "Returns the admin role that controls `role`. See {grantRole} and {revokeRole}. To change a role's admin, use {_setRoleAdmin}."
      },
      "grantRole(bytes32,address)": {
        "details": "Grants `role` to `account`. If `account` had not been already granted `role`, emits a {RoleGranted} event. Requirements: - the caller must have ``role``'s admin role."
      },
      "hasRole(bytes32,address)": {
        "details": "Returns `true` if `account` has been granted `role`."
      },
      "renounceRole(bytes32,address)": {
        "details": "Revokes `role` from the calling account. Roles are often managed via {grantRole} and {revokeRole}: this function's purpose is to provide a mechanism for accounts to lose their privileges if they are compromised (such as when a trusted device is misplaced). If the calling account had been granted `role`, emits a {RoleRevoked} event. Requirements: - the caller must be `account`."
      },
      "revokeRole(bytes32,address)": {
        "details": "Revokes `role` from `account`. If `account` had been granted `role`, emits a {RoleRevoked} event. Requirements: - the caller must have ``role``'s admin role."
      }
    },
    "version": 1
  },
  "userdoc": {
    "events": {
      "BidOnAuction(address,uint256,uint256,uint256,address)": {
        "notice": "Note: `price`, `closeTimeSec`, and `buyer` may have changed for the auction `(seller, nftId)`."
      },
      "SettleAuction(address,uint256,uint256,address)": {
        "notice": "Note: `buyer == 0` means no buyer, and the NFT went back to the seller."
      },
      "StartAuction(address,uint256,uint256,uint256,bool)": {
        "notice": "Note: `price` is the minimum price minus 10%, because a bid must be 10% higher, resulting in the requested minimum price."
      }
    },
    "kind": "user",
    "methods": {
      "CURRENCY()": {
        "notice": "The token ID that represents the CERE currency for all payments in this contract. "
      },
      "bidCollateral(address,uint256)": {
        "notice": "Tracking amount of collateral NFTs."
      },
      "getGlobalNftId(uint32)": {
        "notice": "Calculate the global ID of an NFT type, identifying its inner nft id."
      },
      "initialize(address)": {
        "notice": "Initialize this contract and its dependencies."
      },
      "initialize_v2_0_0()": {
        "notice": "Initialize this contract after version 2.0.0. Allow deposit of USDC into Freeport."
      },
      "sellerNftBids(address,uint256)": {
        "notice": "Seller => NFT ID => Bid."
      },
      "supportsInterface(bytes4)": {
        "notice": "Supports interfaces of AccessControl and ERC1155Receiver."
      }
    },
    "notice": "An auction is characterized by a sequence of transactions and their corresponding events: - `StartAuction`: A seller offers to sell one NFT to the highest bidder, with a minimum price, and a closing time. - Any number of `BidOnAuction`: A potential buyer accepts the minimum price or a price at least 10% higher than that of the previous bidder. The closing time may be extended. A deposit is taken from the new bidder. The deposit of the previous bidder is returned, if any. Bidding is no longer possible after the closing time. - `SettleAuction`: The sale is completed between the seller and the highest bidder, or cancelled if there was no bidder. Some royalties may be taken from the sale price, as configured by the NFT creator (see `TransferFees.sol`). The settlement is only possible after the closing time. While an auction is active, it is identified by the tuple `(seller address, NFT ID)`. However, after the auction is settled, a new auction with the *same tuple* may start. This contract is not meant to be used from another contract; if it is, it will not call onERC1155Received hooks for security reasons. This contract must have the TRANSFER_OPERATOR role in the Collection contract.",
    "version": 1
  }
}