{
  "contractName": "Collection",
  "abi": [
    {
      "anonymous": false,
      "inputs": [
        {
          "indexed": false,
          "internalType": "address",
          "name": "previousAdmin",
          "type": "address"
        },
        {
          "indexed": false,
          "internalType": "address",
          "name": "newAdmin",
          "type": "address"
        }
      ],
      "name": "AdminChanged",
      "type": "event"
    },
    {
      "anonymous": false,
      "inputs": [
        {
          "indexed": true,
          "internalType": "address",
          "name": "account",
          "type": "address"
        },
        {
          "indexed": true,
          "internalType": "address",
          "name": "operator",
          "type": "address"
        },
        {
          "indexed": false,
          "internalType": "bool",
          "name": "approved",
          "type": "bool"
        }
      ],
      "name": "ApprovalForAll",
      "type": "event"
    },
    {
      "anonymous": false,
      "inputs": [
        {
          "indexed": true,
          "internalType": "address",
          "name": "beacon",
          "type": "address"
        }
      ],
      "name": "BeaconUpgraded",
      "type": "event"
    },
    {
      "anonymous": false,
      "inputs": [
        {
          "indexed": true,
          "internalType": "bytes32",
          "name": "role",
          "type": "bytes32"
        },
        {
          "indexed": true,
          "internalType": "bytes32",
          "name": "previousAdminRole",
          "type": "bytes32"
        },
        {
          "indexed": true,
          "internalType": "bytes32",
          "name": "newAdminRole",
          "type": "bytes32"
        }
      ],
      "name": "RoleAdminChanged",
      "type": "event"
    },
    {
      "anonymous": false,
      "inputs": [
        {
          "indexed": true,
          "internalType": "bytes32",
          "name": "role",
          "type": "bytes32"
        },
        {
          "indexed": true,
          "internalType": "address",
          "name": "account",
          "type": "address"
        },
        {
          "indexed": true,
          "internalType": "address",
          "name": "sender",
          "type": "address"
        }
      ],
      "name": "RoleGranted",
      "type": "event"
    },
    {
      "anonymous": false,
      "inputs": [
        {
          "indexed": true,
          "internalType": "bytes32",
          "name": "role",
          "type": "bytes32"
        },
        {
          "indexed": true,
          "internalType": "address",
          "name": "account",
          "type": "address"
        },
        {
          "indexed": true,
          "internalType": "address",
          "name": "sender",
          "type": "address"
        }
      ],
      "name": "RoleRevoked",
      "type": "event"
    },
    {
      "anonymous": false,
      "inputs": [
        {
          "indexed": true,
          "internalType": "address",
          "name": "operator",
          "type": "address"
        },
        {
          "indexed": true,
          "internalType": "address",
          "name": "from",
          "type": "address"
        },
        {
          "indexed": true,
          "internalType": "address",
          "name": "to",
          "type": "address"
        },
        {
          "indexed": false,
          "internalType": "uint256[]",
          "name": "ids",
          "type": "uint256[]"
        },
        {
          "indexed": false,
          "internalType": "uint256[]",
          "name": "values",
          "type": "uint256[]"
        }
      ],
      "name": "TransferBatch",
      "type": "event"
    },
    {
      "anonymous": false,
      "inputs": [
        {
          "indexed": true,
          "internalType": "address",
          "name": "operator",
          "type": "address"
        },
        {
          "indexed": true,
          "internalType": "address",
          "name": "from",
          "type": "address"
        },
        {
          "indexed": true,
          "internalType": "address",
          "name": "to",
          "type": "address"
        },
        {
          "indexed": false,
          "internalType": "uint256",
          "name": "id",
          "type": "uint256"
        },
        {
          "indexed": false,
          "internalType": "uint256",
          "name": "value",
          "type": "uint256"
        }
      ],
      "name": "TransferSingle",
      "type": "event"
    },
    {
      "anonymous": false,
      "inputs": [
        {
          "indexed": false,
          "internalType": "string",
          "name": "value",
          "type": "string"
        },
        {
          "indexed": true,
          "internalType": "uint256",
          "name": "id",
          "type": "uint256"
        }
      ],
      "name": "URI",
      "type": "event"
    },
    {
      "anonymous": false,
      "inputs": [
        {
          "indexed": true,
          "internalType": "address",
          "name": "implementation",
          "type": "address"
        }
      ],
      "name": "Upgraded",
      "type": "event"
    },
    {
      "inputs": [],
      "name": "COLLECTION_MANAGER_ROLE",
      "outputs": [
        {
          "internalType": "bytes32",
          "name": "",
          "type": "bytes32"
        }
      ],
      "stateMutability": "view",
      "type": "function"
    },
    {
      "inputs": [],
      "name": "DEFAULT_ADMIN_ROLE",
      "outputs": [
        {
          "internalType": "bytes32",
          "name": "",
          "type": "bytes32"
        }
      ],
      "stateMutability": "view",
      "type": "function"
    },
    {
      "inputs": [],
      "name": "META_TX_FORWARDER",
      "outputs": [
        {
          "internalType": "bytes32",
          "name": "",
          "type": "bytes32"
        }
      ],
      "stateMutability": "view",
      "type": "function"
    },
    {
      "inputs": [],
      "name": "TRANSFER_OPERATOR",
      "outputs": [
        {
          "internalType": "bytes32",
          "name": "",
          "type": "bytes32"
        }
      ],
      "stateMutability": "view",
      "type": "function"
    },
    {
      "inputs": [
        {
          "internalType": "uint256",
          "name": "nftId",
          "type": "uint256"
        },
        {
          "internalType": "bytes",
          "name": "attachment",
          "type": "bytes"
        }
      ],
      "name": "anonymAttachToNFT",
      "outputs": [],
      "stateMutability": "nonpayable",
      "type": "function"
    },
    {
      "inputs": [
        {
          "internalType": "address",
          "name": "account",
          "type": "address"
        },
        {
          "internalType": "uint256",
          "name": "id",
          "type": "uint256"
        }
      ],
      "name": "balanceOf",
      "outputs": [
        {
          "internalType": "uint256",
          "name": "",
          "type": "uint256"
        }
      ],
      "stateMutability": "view",
      "type": "function"
    },
    {
      "inputs": [
        {
          "internalType": "address[]",
          "name": "accounts",
          "type": "address[]"
        },
        {
          "internalType": "uint256[]",
          "name": "ids",
          "type": "uint256[]"
        }
      ],
      "name": "balanceOfBatch",
      "outputs": [
        {
          "internalType": "uint256[]",
          "name": "",
          "type": "uint256[]"
        }
      ],
      "stateMutability": "view",
      "type": "function"
    },
    {
      "inputs": [],
      "name": "contractURI",
      "outputs": [
        {
          "internalType": "string",
          "name": "",
          "type": "string"
        }
      ],
      "stateMutability": "view",
      "type": "function"
    },
    {
      "inputs": [],
      "name": "freeport",
      "outputs": [
        {
          "internalType": "contract Freeport",
          "name": "",
          "type": "address"
        }
      ],
      "stateMutability": "view",
      "type": "function"
    },
    {
      "inputs": [
        {
          "internalType": "uint32",
          "name": "innerNftId",
          "type": "uint32"
        }
      ],
      "name": "getGlobalNftId",
      "outputs": [
        {
          "internalType": "uint256",
          "name": "",
          "type": "uint256"
        }
      ],
      "stateMutability": "view",
      "type": "function"
    },
    {
      "inputs": [
        {
          "internalType": "bytes32",
          "name": "role",
          "type": "bytes32"
        }
      ],
      "name": "getRoleAdmin",
      "outputs": [
        {
          "internalType": "bytes32",
          "name": "",
          "type": "bytes32"
        }
      ],
      "stateMutability": "view",
      "type": "function"
    },
    {
      "inputs": [],
      "name": "getRoyalties",
      "outputs": [
        {
          "internalType": "address",
          "name": "primaryRoyaltyAccount",
          "type": "address"
        },
        {
          "internalType": "uint256",
          "name": "primaryRoyaltyCut",
          "type": "uint256"
        },
        {
          "internalType": "uint256",
          "name": "primaryRoyaltyMinimum",
          "type": "uint256"
        },
        {
          "internalType": "address",
          "name": "secondaryRoyaltyAccount",
          "type": "address"
        },
        {
          "internalType": "uint256",
          "name": "secondaryRoyaltyCut",
          "type": "uint256"
        },
        {
          "internalType": "uint256",
          "name": "secondaryRoyaltyMinimum",
          "type": "uint256"
        }
      ],
      "stateMutability": "view",
      "type": "function"
    },
    {
      "inputs": [
        {
          "internalType": "address",
          "name": "beneficiary",
          "type": "address"
        }
      ],
      "name": "getRoyaltiesForBeneficiary",
      "outputs": [
        {
          "internalType": "uint256",
          "name": "primaryCut",
          "type": "uint256"
        },
        {
          "internalType": "uint256",
          "name": "primaryMinimum",
          "type": "uint256"
        },
        {
          "internalType": "uint256",
          "name": "secondaryCut",
          "type": "uint256"
        },
        {
          "internalType": "uint256",
          "name": "secondaryMinimum",
          "type": "uint256"
        }
      ],
      "stateMutability": "view",
      "type": "function"
    },
    {
      "inputs": [
        {
          "internalType": "bytes32",
          "name": "role",
          "type": "bytes32"
        },
        {
          "internalType": "address",
          "name": "account",
          "type": "address"
        }
      ],
      "name": "grantRole",
      "outputs": [],
      "stateMutability": "nonpayable",
      "type": "function"
    },
    {
      "inputs": [
        {
          "internalType": "bytes32",
          "name": "role",
          "type": "bytes32"
        },
        {
          "internalType": "address",
          "name": "account",
          "type": "address"
        }
      ],
      "name": "hasRole",
      "outputs": [
        {
          "internalType": "bool",
          "name": "",
          "type": "bool"
        }
      ],
      "stateMutability": "view",
      "type": "function"
    },
    {
      "inputs": [],
      "name": "idCounter",
      "outputs": [
        {
          "internalType": "uint32",
          "name": "",
          "type": "uint32"
        }
      ],
      "stateMutability": "view",
      "type": "function"
    },
    {
      "inputs": [
        {
          "internalType": "address",
          "name": "forwarder",
          "type": "address"
        }
      ],
      "name": "isTrustedForwarder",
      "outputs": [
        {
          "internalType": "bool",
          "name": "",
          "type": "bool"
        }
      ],
      "stateMutability": "view",
      "type": "function"
    },
    {
      "inputs": [
        {
          "internalType": "uint64",
          "name": "supply",
          "type": "uint64"
        },
        {
          "internalType": "bytes",
          "name": "data",
          "type": "bytes"
        }
      ],
      "name": "issue",
      "outputs": [
        {
          "internalType": "uint256",
          "name": "",
          "type": "uint256"
        }
      ],
      "stateMutability": "nonpayable",
      "type": "function"
    },
    {
      "inputs": [
        {
          "internalType": "address",
          "name": "minter",
          "type": "address"
        },
        {
          "internalType": "uint64",
          "name": "supply",
          "type": "uint64"
        },
        {
          "internalType": "bytes",
          "name": "data",
          "type": "bytes"
        }
      ],
      "name": "issueOnBehalfOf",
      "outputs": [
        {
          "internalType": "uint256",
          "name": "",
          "type": "uint256"
        }
      ],
      "stateMutability": "nonpayable",
      "type": "function"
    },
    {
      "inputs": [
        {
          "internalType": "uint256",
          "name": "nftId",
          "type": "uint256"
        },
        {
          "internalType": "bytes",
          "name": "attachment",
          "type": "bytes"
        }
      ],
      "name": "minterAttachToNFT",
      "outputs": [],
      "stateMutability": "nonpayable",
      "type": "function"
    },
    {
      "inputs": [],
      "name": "name",
      "outputs": [
        {
          "internalType": "string",
          "name": "",
          "type": "string"
        }
      ],
      "stateMutability": "view",
      "type": "function"
    },
    {
      "inputs": [],
      "name": "nftAttachment",
      "outputs": [
        {
          "internalType": "contract NFTAttachment",
          "name": "",
          "type": "address"
        }
      ],
      "stateMutability": "view",
      "type": "function"
    },
    {
      "inputs": [
        {
          "internalType": "bytes32",
          "name": "role",
          "type": "bytes32"
        },
        {
          "internalType": "address",
          "name": "account",
          "type": "address"
        }
      ],
      "name": "renounceRole",
      "outputs": [],
      "stateMutability": "nonpayable",
      "type": "function"
    },
    {
      "inputs": [
        {
          "internalType": "bytes32",
          "name": "role",
          "type": "bytes32"
        },
        {
          "internalType": "address",
          "name": "account",
          "type": "address"
        }
      ],
      "name": "revokeRole",
      "outputs": [],
      "stateMutability": "nonpayable",
      "type": "function"
    },
    {
      "inputs": [
        {
          "internalType": "address",
          "name": "from",
          "type": "address"
        },
        {
          "internalType": "address",
          "name": "to",
          "type": "address"
        },
        {
          "internalType": "uint256[]",
          "name": "ids",
          "type": "uint256[]"
        },
        {
          "internalType": "uint256[]",
          "name": "amounts",
          "type": "uint256[]"
        },
        {
          "internalType": "bytes",
          "name": "data",
          "type": "bytes"
        }
      ],
      "name": "safeBatchTransferFrom",
      "outputs": [],
      "stateMutability": "nonpayable",
      "type": "function"
    },
    {
      "inputs": [
        {
          "internalType": "address",
          "name": "from",
          "type": "address"
        },
        {
          "internalType": "address",
          "name": "to",
          "type": "address"
        },
        {
          "internalType": "uint256",
          "name": "id",
          "type": "uint256"
        },
        {
          "internalType": "uint256",
          "name": "amount",
          "type": "uint256"
        },
        {
          "internalType": "bytes",
          "name": "data",
          "type": "bytes"
        }
      ],
      "name": "safeTransferFrom",
      "outputs": [],
      "stateMutability": "nonpayable",
      "type": "function"
    },
    {
      "inputs": [
        {
          "internalType": "address",
          "name": "operator",
          "type": "address"
        },
        {
          "internalType": "bool",
          "name": "approved",
          "type": "bool"
        }
      ],
      "name": "setApprovalForAll",
      "outputs": [],
      "stateMutability": "nonpayable",
      "type": "function"
    },
    {
      "inputs": [
        {
          "internalType": "string",
          "name": "newuri",
          "type": "string"
        }
      ],
      "name": "setURI",
      "outputs": [],
      "stateMutability": "nonpayable",
      "type": "function"
    },
    {
      "inputs": [
        {
          "internalType": "address",
          "name": "primaryRoyaltyAccount",
          "type": "address"
        },
        {
          "internalType": "uint256",
          "name": "primaryRoyaltyCut",
          "type": "uint256"
        },
        {
          "internalType": "uint256",
          "name": "primaryRoyaltyMinimum",
          "type": "uint256"
        },
        {
          "internalType": "address",
          "name": "secondaryRoyaltyAccount",
          "type": "address"
        },
        {
          "internalType": "uint256",
          "name": "secondaryRoyaltyCut",
          "type": "uint256"
        },
        {
          "internalType": "uint256",
          "name": "secondaryRoyaltyMinimum",
          "type": "uint256"
        }
      ],
      "name": "setupRoyaltyConfiguration",
      "outputs": [],
      "stateMutability": "nonpayable",
      "type": "function"
    },
    {
      "inputs": [
        {
          "internalType": "address",
          "name": "from",
          "type": "address"
        },
        {
          "internalType": "address",
          "name": "to",
          "type": "address"
        },
        {
          "internalType": "uint256",
          "name": "id",
          "type": "uint256"
        },
        {
          "internalType": "uint256",
          "name": "amount",
          "type": "uint256"
        }
      ],
      "name": "transferFrom",
      "outputs": [],
      "stateMutability": "nonpayable",
      "type": "function"
    },
    {
      "inputs": [
        {
          "internalType": "address",
          "name": "newImplementation",
          "type": "address"
        }
      ],
      "name": "upgradeTo",
      "outputs": [],
      "stateMutability": "nonpayable",
      "type": "function"
    },
    {
      "inputs": [
        {
          "internalType": "address",
          "name": "newImplementation",
          "type": "address"
        },
        {
          "internalType": "bytes",
          "name": "data",
          "type": "bytes"
        }
      ],
      "name": "upgradeToAndCall",
      "outputs": [],
      "stateMutability": "payable",
      "type": "function"
    },
    {
      "inputs": [
        {
          "internalType": "address",
          "name": "admin",
          "type": "address"
        },
        {
          "internalType": "address",
          "name": "manager",
          "type": "address"
        },
        {
          "internalType": "string",
          "name": "_name",
          "type": "string"
        },
        {
          "internalType": "string",
          "name": "_uri",
          "type": "string"
        },
        {
          "internalType": "string",
          "name": "__contractURI",
          "type": "string"
        },
        {
          "internalType": "contract Freeport",
          "name": "_freeport",
          "type": "address"
        },
        {
          "internalType": "contract NFTAttachment",
          "name": "_nftAttachment",
          "type": "address"
        },
        {
          "internalType": "contract Marketplace",
          "name": "_marketplace",
          "type": "address"
        },
        {
          "internalType": "contract Auction",
          "name": "_auction",
          "type": "address"
        },
        {
          "internalType": "address",
          "name": "txForwarder",
          "type": "address"
        },
        {
          "internalType": "contract CollectionFactory",
          "name": "_collectionFactory",
          "type": "address"
        }
      ],
      "name": "initialize",
      "outputs": [],
      "stateMutability": "nonpayable",
      "type": "function"
    },
    {
      "inputs": [
        {
          "internalType": "bytes4",
          "name": "interfaceId",
          "type": "bytes4"
        }
      ],
      "name": "supportsInterface",
      "outputs": [
        {
          "internalType": "bool",
          "name": "",
          "type": "bool"
        }
      ],
      "stateMutability": "view",
      "type": "function"
    },
    {
      "inputs": [
        {
          "internalType": "address",
          "name": "account",
          "type": "address"
        },
        {
          "internalType": "address",
          "name": "operator",
          "type": "address"
        }
      ],
      "name": "isApprovedForAll",
      "outputs": [
        {
          "internalType": "bool",
          "name": "",
          "type": "bool"
        }
      ],
      "stateMutability": "view",
      "type": "function"
    },
    {
      "inputs": [
        {
          "internalType": "address",
          "name": "account",
          "type": "address"
        },
        {
          "internalType": "uint256",
          "name": "nftId",
          "type": "uint256"
        }
      ],
      "name": "balanceOfGlobalNftId",
      "outputs": [
        {
          "internalType": "uint256",
          "name": "",
          "type": "uint256"
        }
      ],
      "stateMutability": "view",
      "type": "function"
    },
    {
      "inputs": [
        {
          "internalType": "uint256",
          "name": "nftId",
          "type": "uint256"
        }
      ],
      "name": "uri",
      "outputs": [
        {
          "internalType": "string",
          "name": "",
          "type": "string"
        }
      ],
      "stateMutability": "view",
      "type": "function"
    }
  ],
  "bytecode": "0x608060405234801561001057600080fd5b50613d09806100206000396000f3fe6080604052600436106101a95760003560e01c8062fdd58e146101ae57806301ffc9a7146101e157806302fe53051461021157806306fdde03146102335780630bf8c12d146102555780630e89341c1461027557806311ec5868146102955780632210023d146102c2578063248a9ca3146102e4578063288809c7146103045780632eb2c2d6146103245780632f2ff15d1461034457806333df048e1461036457806336568abe146103b75780633659cfe6146103d75780634e1273f4146103f75780634f1ef28614610424578063572b6c051461043757806358556fb01461045757806360e3ecd01461047757806391d14854146104995780639470ad85146104b95780639a86e8ce146104d9578063a217fddf146104fb578063a22cb46514610510578063aea0ffc314610530578063b85f8ca914610550578063c8274abe14610570578063d263421b146105b0578063d547741f146105d0578063e8a3d485146105f0578063e985e9c514610605578063eae6bf7f14610625578063eb08ab2814610645578063f242432a14610678578063f9715b8f14610698578063fe99049a146106b8575b600080fd5b3480156101ba57600080fd5b506101ce6101c936600461318b565b6106d8565b6040519081526020015b60405180910390f35b3480156101ed57600080fd5b506102016101fc3660046133cb565b610774565b60405190151581526020016101d8565b34801561021d57600080fd5b5061023161022c366004613403565b6107ea565b005b34801561023f57600080fd5b5061024861083c565b6040516101d89190613774565b34801561026157600080fd5b50610231610270366004612f52565b6108ca565b34801561028157600080fd5b5061024861029036600461338f565b610a40565b3480156102a157600080fd5b506003546102b5906001600160a01b031681565b6040516101d8919061363f565b3480156102ce57600080fd5b506101ce600080516020613c4183398151915281565b3480156102f057600080fd5b506101ce6102ff36600461338f565b610a7b565b34801561031057600080fd5b506101ce61031f3660046134e0565b610a90565b34801561033057600080fd5b5061023161033f366004612ea9565b610aa4565b34801561035057600080fd5b5061023161035f3660046133a7565b610d98565b34801561037057600080fd5b50610379610dc1565b604080516001600160a01b039788168152602081019690965285019390935293166060830152608082019290925260a081019190915260c0016101d8565b3480156103c357600080fd5b506102316103d23660046133a7565b610e6a565b3480156103e357600080fd5b506102316103f2366004612e55565b610ef8565b34801561040357600080fd5b506104176104123660046132cd565b610f1c565b6040516101d8919061373c565b61023161043236600461313e565b61107d565b34801561044357600080fd5b50610201610452366004612e55565b611092565b34801561046357600080fd5b506101ce610472366004613504565b6110ac565b34801561048357600080fd5b506101ce600080516020613c8183398151915281565b3480156104a557600080fd5b506102016104b43660046133a7565b6110e3565b3480156104c557600080fd5b506002546102b5906001600160a01b031681565b3480156104e557600080fd5b506101ce600080516020613c6183398151915281565b34801561050757600080fd5b506101ce600081565b34801561051c57600080fd5b5061023161052b36600461310d565b61110e565b34801561053c57600080fd5b5061023161054b3660046131b6565b611222565b34801561055c57600080fd5b5061023161056b366004613435565b61130f565b34801561057c57600080fd5b5061059061058b366004612e55565b61138c565b6040805194855260208501939093529183015260608201526080016101d8565b3480156105bc57600080fd5b506101ce6105cb36600461318b565b61143d565b3480156105dc57600080fd5b506102316105eb3660046133a7565b61146d565b3480156105fc57600080fd5b5061024861148c565b34801561061157600080fd5b50610201610620366004612e71565b61151e565b34801561063157600080fd5b506101ce610640366004613270565b611531565b34801561065157600080fd5b50610130546106639063ffffffff1681565b60405163ffffffff90911681526020016101d8565b34801561068457600080fd5b506102316106933660046130a7565b611562565b3480156106a457600080fd5b506102316106b3366004613435565b6116ec565b3480156106c457600080fd5b506102316106d3366004613062565b61174e565b60006001600160a01b0383166107495760405162461bcd60e51b815260206004820152602b60248201527f455243313135353a2062616c616e636520717565727920666f7220746865207a60448201526a65726f206164647265737360a81b60648201526084015b60405180910390fd5b50600081815260cc602090815260408083206001600160a01b03861684529091529020545b92915050565b60006001600160e01b03198216631669832d60e31b14806107a557506001600160e01b0319821663444ce65960e11b145b806107c057506001600160e01b03198216631fb313c760e31b145b806107db57506001600160e01b0319821663da8def7360e01b145b8061076e575061076e826117d0565b6107f760006104b46117ea565b6108305760405162461bcd60e51b815260206004820152600a60248201526937b7363c9030b236b4b760b11b6044820152606401610740565b610839816117f9565b50565b6000805461084990613a12565b80601f016020809104026020016040519081016040528092919081815260200182805461087590613a12565b80156108c25780601f10610897576101008083540402835291602001916108c2565b820191906000526020600020905b8154815290600101906020018083116108a557829003601f168201915b505050505081565b600354600160a81b900460ff16806108ec5750600354600160a01b900460ff16155b6109085760405162461bcd60e51b81526004016107409061385d565b600354600160a81b900460ff16158015610932576003805461ffff60a01b191661010160a01b1790555b61093c8a8961180c565b61094587611833565b61094e866118ce565b610956611956565b61095e6119fd565b610966611a86565b88511561097657610976896117f9565b6101308054600160201b600160c01b031916600160201b6001600160a01b038516021790556109b3600080516020613c8183398151915286611ab1565b6109cb600080516020613c8183398151915285611ab1565b6109d660008d611ab1565b6109ee600080516020613c418339815191528c611ab1565b610a06600080516020613c418339815191528d611ab1565b610a1e600080516020613c6183398151915284611ab1565b8015610a32576003805460ff60a81b191690555b505050505050505050505050565b6060610a4b82611abb565b610a5483611b4f565b604051602001610a659291906135a1565b6040516020818303038152906040529050919050565b600090815260fe602052604090206001015490565b60401b63ffffffff60401b163060601b1790565b8151835114610b065760405162461bcd60e51b815260206004820152602860248201527f455243313135353a2069647320616e6420616d6f756e7473206c656e677468206044820152670dad2e6dac2e8c6d60c31b6064820152608401610740565b6001600160a01b038416610b2c5760405162461bcd60e51b815260040161074090613818565b610b346117ea565b6001600160a01b0316856001600160a01b03161480610b5a5750610b5a856106206117ea565b610bc15760405162461bcd60e51b815260206004820152603260248201527f455243313135353a207472616e736665722063616c6c6572206973206e6f74206044820152711bdddb995c881b9bdc88185c1c1c9bdd995960721b6064820152608401610740565b6000610bcb6117ea565b905060005b8451811015610d1d576000858281518110610bfb57634e487b7160e01b600052603260045260246000fd5b602002602001015190506000858381518110610c2757634e487b7160e01b600052603260045260246000fd5b602090810291909101810151600084815260cc835260408082206001600160a01b038e168352909352919091205490915081811015610c785760405162461bcd60e51b8152600401610740906138ab565b610c8282826139b8565b60cc600085815260200190815260200160002060008c6001600160a01b03166001600160a01b03168152602001908152602001600020819055508160cc600085815260200190815260200160002060008b6001600160a01b03166001600160a01b031681526020019081526020016000206000828254610d02919061394e565b9250508190555050505080610d1690613a79565b9050610bd0565b50846001600160a01b0316866001600160a01b0316826001600160a01b03167f4a39dc06d4c0dbc64b70af90fd698a233a518aa5d07e595d983b8c0526c8f7fb8787604051610d6d92919061374f565b60405180910390a4610d828187878787611c68565b610d90818787878787611ce0565b505050505050565b610da182610a7b565b610db281610dad6117ea565b611e4b565b610dbc8383611eaf565b505050565b600254600090819081908190819081906001600160a01b031663bb3bafd6610de96001610a90565b6040518263ffffffff1660e01b8152600401610e0791815260200190565b60c06040518083038186803b158015610e1f57600080fd5b505afa158015610e33573d6000803e3d6000fd5b505050506040513d601f19601f82011682018060405250810190610e579190613211565b949b939a50919850965094509092509050565b610e726117ea565b6001600160a01b0316816001600160a01b031614610eea5760405162461bcd60e51b815260206004820152602f60248201527f416363657373436f6e74726f6c3a2063616e206f6e6c792072656e6f756e636560448201526e103937b632b9903337b91039b2b63360891b6064820152608401610740565b610ef48282611f36565b5050565b610f0181611fbb565b61083981604051806020016040528060008152506000611fff565b60608151835114610f815760405162461bcd60e51b815260206004820152602960248201527f455243313135353a206163636f756e747320616e6420696473206c656e677468604482015268040dad2e6dac2e8c6d60bb1b6064820152608401610740565b600083516001600160401b03811115610faa57634e487b7160e01b600052604160045260246000fd5b604051908082528060200260200182016040528015610fd3578160200160208202803683370190505b50905060005b84518110156110755761103a85828151811061100557634e487b7160e01b600052603260045260246000fd5b602002602001015185838151811061102d57634e487b7160e01b600052603260045260246000fd5b60200260200101516106d8565b82828151811061105a57634e487b7160e01b600052603260045260246000fd5b602090810291909101015261106e81613a79565b9050610fd9565b509392505050565b61108682611fbb565b610ef482826001611fff565b600061076e600080516020613c61833981519152836110e3565b6000600080516020613c418339815191526110c981610dad6117ea565b6110db6110d46117ea565b858561217a565b949350505050565b600091825260fe602090815260408084206001600160a01b0393909316845291905290205460ff1690565b816001600160a01b03166111206117ea565b6001600160a01b031614156111895760405162461bcd60e51b815260206004820152602960248201527f455243313135353a2073657474696e6720617070726f76616c20737461747573604482015268103337b91039b2b63360b91b6064820152608401610740565b8060cd60006111966117ea565b6001600160a01b03908116825260208083019390935260409182016000908120918716808252919093529120805460ff1916921515929092179091556111da6117ea565b6001600160a01b03167f17307eab39ab6107e8899845ad3d59bd9653f200f220920489ca2b5937696c3183604051611216911515815260200190565b60405180910390a35050565b600080516020613c4183398151915261123d81610dad6117ea565b60015b6101305463ffffffff90811690821611611305576002546001600160a01b031663ad09608a61126e83610a90565b6040516001600160e01b031960e084901b16815260048101919091526001600160a01b03808c166024830152604482018b9052606482018a90528816608482015260a4810187905260c4810186905260e401600060405180830381600087803b1580156112da57600080fd5b505af11580156112ee573d6000803e3d6000fd5b5050505080806112fd90613a94565b915050611240565b5050505050505050565b600080516020613c4183398151915261132a81610dad6117ea565b60035460405163b85f8ca960e01b81526001600160a01b039091169063b85f8ca99061135e908790879087906004016138f5565b600060405180830381600087803b15801561137857600080fd5b505af1158015611305573d6000803e3d6000fd5b6002546000908190819081906001600160a01b031663e24b0a2b6113b06001610a90565b6040516001600160e01b031960e084901b16815260048101919091526001600160a01b038816602482015260440160806040518083038186803b1580156113f657600080fd5b505afa15801561140a573d6000803e3d6000fd5b505050506040513d601f19601f8201168201806040525081019061142e91906134ab565b93509350935093509193509193565b6000606082901c604083901c63ffffffff166001600160401b03841661146386836106d8565b9695505050505050565b61147682610a7b565b61148281610dad6117ea565b610dbc8383611f36565b60606001805461149b90613a12565b80601f01602080910402602001604051908101604052809291908181526020018280546114c790613a12565b80156115145780601f106114e957610100808354040283529160200191611514565b820191906000526020600020905b8154815290600101906020018083116114f757829003601f168201915b5050505050905090565b600061152a8383612208565b9392505050565b6000600080516020613c4183398151915261154e81610dad6117ea565b61155985858561217a565b95945050505050565b6001600160a01b0384166115885760405162461bcd60e51b815260040161074090613818565b6115906117ea565b6001600160a01b0316856001600160a01b031614806115b657506115b6856106206117ea565b6115d25760405162461bcd60e51b8152600401610740906137cf565b60006115dc6117ea565b90506115fd8187876115ed8861225d565b6115f68861225d565b5050505050565b600084815260cc602090815260408083206001600160a01b038a168452909152902054838110156116405760405162461bcd60e51b8152600401610740906138ab565b61164a84826139b8565b600086815260cc602090815260408083206001600160a01b038c8116855292528083209390935588168152908120805486929061168890849061394e565b909155505060408051868152602081018690526001600160a01b03808916928a82169291861691600080516020613bda833981519152910160405180910390a46116d582888888886122b6565b6116e382888888888861230f565b50505050505050565b60035460405163f9715b8f60e01b81526001600160a01b039091169063f9715b8f90611720908690869086906004016138f5565b600060405180830381600087803b15801561173a57600080fd5b505af11580156116e3573d6000803e3d6000fd5b6001600160a01b0383166117745760405162461bcd60e51b815260040161074090613818565b61177c6117ea565b6001600160a01b0316846001600160a01b031614806117a257506117a2846106206117ea565b6117be5760405162461bcd60e51b8152600401610740906137cf565b6117ca848484846123d9565b50505050565b60006117db826124d1565b8061076e575061076e82612521565b60006117f4612546565b905090565b8051610ef49060ce906020840190612cb3565b815161181f906000906020850190612cb3565b508051610dbc906001906020840190612cb3565b600354600160a81b900460ff16806118555750600354600160a01b900460ff16155b6118715760405162461bcd60e51b81526004016107409061385d565b600354600160a81b900460ff1615801561189b576003805461ffff60a01b191661010160a01b1790555b600280546001600160a01b0319166001600160a01b0384161790555b8015610ef4576003805460ff60a81b191690555050565b600354600160a81b900460ff16806118f05750600354600160a01b900460ff16155b61190c5760405162461bcd60e51b81526004016107409061385d565b600354600160a81b900460ff16158015611936576003805461ffff60a01b191661010160a01b1790555b600380546001600160a01b0319166001600160a01b0384161790556118b7565b600354600160a81b900460ff16806119785750600354600160a01b900460ff16155b6119945760405162461bcd60e51b81526004016107409061385d565b600354600160a81b900460ff161580156119be576003805461ffff60a01b191661010160a01b1790555b6119df604051806060016040528060338152602001613ca160339139612550565b6119e76125d1565b8015610839576003805460ff60a81b1916905550565b600354600160a81b900460ff1680611a1f5750600354600160a01b900460ff16155b611a3b5760405162461bcd60e51b81526004016107409061385d565b600354600160a81b900460ff16158015611a65576003805461ffff60a01b191661010160a01b1790555b6119e7604051806060016040528060338152602001613ca160339139612550565b611aa7604051806060016040528060338152602001613ca160339139612550565b611aaf6125d9565b565b610ef48282611eaf565b606060ce8054611aca90613a12565b80601f0160208091040260200160405190810160405280929190818152602001828054611af690613a12565b8015611b435780601f10611b1857610100808354040283529160200191611b43565b820191906000526020600020905b815481529060010190602001808311611b2657829003601f168201915b50505050509050919050565b606081611b735750506040805180820190915260018152600360fc1b602082015290565b8160005b8115611b9d5780611b8781613a79565b9150611b969050600a83613985565b9150611b77565b6000816001600160401b03811115611bc557634e487b7160e01b600052604160045260246000fd5b6040519080825280601f01601f191660200182016040528015611bef576020820181803683370190505b5090505b84156110db57611c046001836139b8565b9150611c11600a86613ab8565b611c1c90603061394e565b60f81b818381518110611c3f57634e487b7160e01b600052603260045260246000fd5b60200101906001600160f81b031916908160001a905350611c61600a86613985565b9450611bf3565b6101305460405163e7eef32560e01b8152600160201b9091046001600160a01b03169063e7eef32590611ca79088908890889088908890600401613653565b600060405180830381600087803b158015611cc157600080fd5b505af1158015611cd5573d6000803e3d6000fd5b505050505050505050565b6001600160a01b0384163b15610d905760405163bc197c8160e01b81526001600160a01b0385169063bc197c8190611d2490899089908890889088906004016136a5565b602060405180830381600087803b158015611d3e57600080fd5b505af1925050508015611d6e575060408051601f3d908101601f19168201909252611d6b918101906133e7565b60015b611e1b57611d7a613b0e565b806308c379a01415611db45750611d8f613b25565b80611d9a5750611db6565b8060405162461bcd60e51b81526004016107409190613774565b505b60405162461bcd60e51b815260206004820152603460248201527f455243313135353a207472616e7366657220746f206e6f6e20455243313135356044820152732932b1b2b4bb32b91034b6b83632b6b2b73a32b960611b6064820152608401610740565b6001600160e01b0319811663bc197c8160e01b146116e35760405162461bcd60e51b815260040161074090613787565b611e5582826110e3565b610ef457611e6d816001600160a01b031660146125e1565b611e788360206125e1565b604051602001611e899291906135d0565b60408051601f198184030181529082905262461bcd60e51b825261074091600401613774565b611eb982826110e3565b610ef457600082815260fe602090815260408083206001600160a01b03851684529091529020805460ff19166001179055611ef26117ea565b6001600160a01b0316816001600160a01b0316837f2f8788117e7eff1d82e926ec794901d17c78024a50270940304540a733656f0d60405160405180910390a45050565b611f4082826110e3565b15610ef457600082815260fe602090815260408083206001600160a01b03851684529091529020805460ff19169055611f776117ea565b6001600160a01b0316816001600160a01b0316837ff6391f5c32d9c69d2a47ea670b442974b53935d1edc7fd64eb21e047a839171b60405160405180910390a45050565b611fc66000336110e3565b6108395760405162461bcd60e51b815260206004820152600a60248201526927b7363c9020b236b4b760b11b6044820152606401610740565b60006120096127c2565b9050612014846127de565b6000835111806120215750815b15612032576120308484612871565b505b7f4910fdfa16fed3260ed0e7147f7cc6da11a60208b5b9406d12a635614ffd9143805460ff166115f657805460ff191660011781556040516120ad90869061207e90859060240161363f565b60408051601f198184030181529190526020810180516001600160e01b0316631b2ce7f360e11b179052612871565b50805460ff191681556120be6127c2565b6001600160a01b0316826001600160a01b0316146121365760405162461bcd60e51b815260206004820152602f60248201527f45524331393637557067726164653a207570677261646520627265616b73206660448201526e75727468657220757067726164657360881b6064820152608401610740565b61213f856127de565b6040516001600160a01b038616907fbc7cd75a20ee27fd9adebab32041f755214dbc6bffa90cc0225b39da2e5c2d3b90600090a25050505050565b6101305460009081906121949063ffffffff166001613966565b905060006121a182610a90565b90506000856001600160401b0316116121b957600080fd5b6121ce8682876001600160401b031687612953565b610130546121e39063ffffffff166001613966565b610130805463ffffffff191663ffffffff929092169190911790559150509392505050565b6000612222600080516020613c81833981519152836110e3565b1561222f5750600161076e565b6001600160a01b03808416600090815260cd602090815260408083209386168352929052205460ff1661152a565b604080516001808252818301909252606091600091906020808301908036833701905050905082816000815181106122a557634e487b7160e01b600052603260045260246000fd5b602090810291909101015292915050565b610130546040516313e8ab5160e11b81526001600160a01b038781166004830152868116602483015285811660448301526064820185905260848201849052600160201b909204909116906327d156a29060a401611ca7565b6001600160a01b0384163b15610d905760405163f23a6e6160e01b81526001600160a01b0385169063f23a6e619061235390899089908890889088906004016136f7565b602060405180830381600087803b15801561236d57600080fd5b505af192505050801561239d575060408051601f3d908101601f1916820190925261239a918101906133e7565b60015b6123a957611d7a613b0e565b6001600160e01b0319811663f23a6e6160e01b146116e35760405162461bcd60e51b815260040161074090613787565b600082815260cc602090815260408083206001600160a01b03881684529091529020548181101561241c5760405162461bcd60e51b8152600401610740906138ab565b61242682826139b8565b600084815260cc602090815260408083206001600160a01b038a8116855292528083209390935586168152908120805484929061246490849061394e565b90915550600090506124746117ea565b9050846001600160a01b0316866001600160a01b0316826001600160a01b0316600080516020613bda83398151915287876040516124bc929190918252602082015260400190565b60405180910390a4610d9081878787876122b6565b60006001600160e01b03198216636cdb3d1360e11b148061250257506001600160e01b031982166303a24d0760e21b145b8061076e57506301ffc9a760e01b6001600160e01b031983161461076e565b60006001600160e01b03198216637965db0b60e01b148061076e575061076e826124d1565b60006117f4612a5d565b600354600160a81b900460ff16806125725750600354600160a01b900460ff16155b61258e5760405162461bcd60e51b81526004016107409061385d565b600354600160a81b900460ff161580156125b8576003805461ffff60a01b191661010160a01b1790555b6125c0612a82565b6125c8612a82565b6118b782612aff565b611aaf612b70565b611aaf612bf0565b606060006125f0836002613999565b6125fb90600261394e565b6001600160401b0381111561262057634e487b7160e01b600052604160045260246000fd5b6040519080825280601f01601f19166020018201604052801561264a576020820181803683370190505b509050600360fc1b8160008151811061267357634e487b7160e01b600052603260045260246000fd5b60200101906001600160f81b031916908160001a905350600f60fb1b816001815181106126b057634e487b7160e01b600052603260045260246000fd5b60200101906001600160f81b031916908160001a90535060006126d4846002613999565b6126df90600161394e565b90505b6001811115612773576f181899199a1a9b1b9c1cb0b131b232b360811b85600f166010811061272157634e487b7160e01b600052603260045260246000fd5b1a60f81b82828151811061274557634e487b7160e01b600052603260045260246000fd5b60200101906001600160f81b031916908160001a90535060049490941c9361276c816139fb565b90506126e2565b50831561152a5760405162461bcd60e51b815260206004820181905260248201527f537472696e67733a20686578206c656e67746820696e73756666696369656e746044820152606401610740565b600080516020613bfa833981519152546001600160a01b031690565b803b6128425760405162461bcd60e51b815260206004820152602d60248201527f455243313936373a206e657720696d706c656d656e746174696f6e206973206e60448201526c1bdd08184818dbdb9d1c9858dd609a1b6064820152608401610740565b600080516020613bfa83398151915280546001600160a01b0319166001600160a01b0392909216919091179055565b6060823b6128d05760405162461bcd60e51b815260206004820152602660248201527f416464726573733a2064656c65676174652063616c6c20746f206e6f6e2d636f6044820152651b9d1c9858dd60d21b6064820152608401610740565b600080846001600160a01b0316846040516128eb9190613585565b600060405180830381855af49150503d8060008114612926576040519150601f19603f3d011682016040523d82523d6000602084013e61292b565b606091505b50915091506115598282604051806060016040528060278152602001613c1a60279139612c0b565b6001600160a01b0384166129b35760405162461bcd60e51b815260206004820152602160248201527f455243313135353a206d696e7420746f20746865207a65726f206164647265736044820152607360f81b6064820152608401610740565b60006129bd6117ea565b90506129cf816000876115ed8861225d565b600084815260cc602090815260408083206001600160a01b038916845290915281208054859290612a0190849061394e565b909155505060408051858152602081018590526001600160a01b038088169260009291851691600080516020613bda833981519152910160405180910390a4612a4e8160008787876122b6565b6115f68160008787878761230f565b6000612a6833611092565b15612a7a575060131936013560601c90565b503390565b90565b600354600160a81b900460ff1680612aa45750600354600160a01b900460ff16155b612ac05760405162461bcd60e51b81526004016107409061385d565b600354600160a81b900460ff161580156119e7576003805461ffff60a01b191661010160a01b1790558015610839576003805460ff60a81b1916905550565b600354600160a81b900460ff1680612b215750600354600160a01b900460ff16155b612b3d5760405162461bcd60e51b81526004016107409061385d565b600354600160a81b900460ff16158015612b67576003805461ffff60a01b191661010160a01b1790555b6118b7826117f9565b600354600160a81b900460ff1680612b925750600354600160a01b900460ff16155b612bae5760405162461bcd60e51b81526004016107409061385d565b600354600160a81b900460ff16158015612bd8576003805461ffff60a01b191661010160a01b1790555b612be0612a82565b612be8612a82565b6119e7612a82565b612bf8612c44565b612c00612b70565b611aaf600033611ab1565b60608315612c1a57508161152a565b825115612c2a5782518084602001fd5b8160405162461bcd60e51b81526004016107409190613774565b600354600160a81b900460ff1680612c665750600354600160a01b900460ff16155b612c825760405162461bcd60e51b81526004016107409061385d565b600354600160a81b900460ff16158015612be0576003805461ffff60a01b191661010160a01b179055612be8612a82565b828054612cbf90613a12565b90600052602060002090601f016020900481019282612ce15760008555612d27565b82601f10612cfa57805160ff1916838001178555612d27565b82800160010185558215612d27579182015b82811115612d27578251825591602001919060010190612d0c565b50612d33929150612d37565b5090565b5b80821115612d335760008155600101612d38565b8035612d5781613bae565b919050565b600082601f830112612d6c578081fd5b81356020612d798261392b565b604051612d868282613a4d565b8381528281019150858301600585901b87018401881015612da5578586fd5b855b85811015612dc357813584529284019290840190600101612da7565b5090979650505050505050565b600082601f830112612de0578081fd5b81356001600160401b03811115612df957612df9613af8565b604051612e10601f8301601f191660200182613a4d565b818152846020838601011115612e24578283fd5b816020850160208301379081016020019190915292915050565b80356001600160401b0381168114612d5757600080fd5b600060208284031215612e66578081fd5b813561152a81613bae565b60008060408385031215612e83578081fd5b8235612e8e81613bae565b91506020830135612e9e81613bae565b809150509250929050565b600080600080600060a08688031215612ec0578081fd5b8535612ecb81613bae565b94506020860135612edb81613bae565b935060408601356001600160401b0380821115612ef6578283fd5b612f0289838a01612d5c565b94506060880135915080821115612f17578283fd5b612f2389838a01612d5c565b93506080880135915080821115612f38578283fd5b50612f4588828901612dd0565b9150509295509295909350565b60008060008060008060008060008060006101608c8e031215612f73578889fd5b612f7c8c612d4c565b9a50612f8a60208d01612d4c565b99506001600160401b0360408d0135811015612fa457898afd5b612fb48e60408f01358f01612dd0565b99508060608e01351115612fc6578687fd5b612fd68e60608f01358f01612dd0565b98508060808e01351115612fe8578687fd5b50612ff98d60808e01358e01612dd0565b965061300760a08d01612d4c565b955061301560c08d01612d4c565b945061302360e08d01612d4c565b93506130326101008d01612d4c565b92506130416101208d01612d4c565b91506130506101408d01612d4c565b90509295989b509295989b9093969950565b60008060008060808587031215613077578182fd5b843561308281613bae565b9350602085013561309281613bae565b93969395505050506040820135916060013590565b600080600080600060a086880312156130be578283fd5b85356130c981613bae565b945060208601356130d981613bae565b9350604086013592506060860135915060808601356001600160401b03811115613101578182fd5b612f4588828901612dd0565b6000806040838503121561311f578182fd5b823561312a81613bae565b915060208301358015158114612e9e578182fd5b60008060408385031215613150578182fd5b823561315b81613bae565b915060208301356001600160401b03811115613175578182fd5b61318185828601612dd0565b9150509250929050565b6000806040838503121561319d578182fd5b82356131a881613bae565b946020939093013593505050565b60008060008060008060c087890312156131ce578384fd5b86356131d981613bae565b9550602087013594506040870135935060608701356131f781613bae565b9598949750929560808101359460a0909101359350915050565b60008060008060008060c08789031215613229578384fd5b865161323481613bae565b809650506020870151945060408701519350606087015161325481613bae565b809350506080870151915060a087015190509295509295509295565b600080600060608486031215613284578081fd5b833561328f81613bae565b925061329d60208501612e3e565b915060408401356001600160401b038111156132b7578182fd5b6132c386828701612dd0565b9150509250925092565b600080604083850312156132df578182fd5b82356001600160401b03808211156132f5578384fd5b818501915085601f830112613308578384fd5b813560206133158261392b565b6040516133228282613a4d565b8381528281019150858301600585901b870184018b1015613341578889fd5b8896505b8487101561336c57803561335881613bae565b835260019690960195918301918301613345565b5096505086013592505080821115613382578283fd5b5061318185828601612d5c565b6000602082840312156133a0578081fd5b5035919050565b600080604083850312156133b9578182fd5b823591506020830135612e9e81613bae565b6000602082840312156133dc578081fd5b813561152a81613bc3565b6000602082840312156133f8578081fd5b815161152a81613bc3565b600060208284031215613414578081fd5b81356001600160401b03811115613429578182fd5b6110db84828501612dd0565b600080600060408486031215613449578081fd5b8335925060208401356001600160401b0380821115613466578283fd5b818601915086601f830112613479578283fd5b813581811115613487578384fd5b876020828501011115613498578384fd5b6020830194508093505050509250925092565b600080600080608085870312156134c0578182fd5b505082516020840151604085015160609095015191969095509092509050565b6000602082840312156134f1578081fd5b813563ffffffff8116811461152a578182fd5b60008060408385031215613516578182fd5b61315b83612e3e565b6000815180845260208085019450808401835b8381101561354e57815187529582019590820190600101613532565b509495945050505050565b600081518084526135718160208601602086016139cf565b601f01601f19169290920160200192915050565b600082516135978184602087016139cf565b9190910192915050565b600083516135b38184602088016139cf565b8351908301906135c78183602088016139cf565b01949350505050565b76020b1b1b2b9b9a1b7b73a3937b61d1030b1b1b7bab73a1604d1b8152600083516136028160178501602088016139cf565b7001034b99036b4b9b9b4b733903937b6329607d1b60179184019182015283516136338160288401602088016139cf565b01602801949350505050565b6001600160a01b0391909116815260200190565b6001600160a01b03868116825285811660208301528416604082015260a0606082018190526000906136879083018561351f565b8281036080840152613699818561351f565b98975050505050505050565b6001600160a01b0386811682528516602082015260a0604082018190526000906136d19083018661351f565b82810360608401526136e3818661351f565b905082810360808401526136998185613559565b6001600160a01b03868116825285166020820152604081018490526060810183905260a06080820181905260009061373190830184613559565b979650505050505050565b60208152600061152a602083018461351f565b604081526000613762604083018561351f565b8281036020840152611559818561351f565b60208152600061152a6020830184613559565b60208082526028908201527f455243313135353a204552433131353552656365697665722072656a656374656040820152676420746f6b656e7360c01b606082015260800190565b60208082526029908201527f455243313135353a2063616c6c6572206973206e6f74206f776e6572206e6f7260408201526808185c1c1c9bdd995960ba1b606082015260800190565b60208082526025908201527f455243313135353a207472616e7366657220746f20746865207a65726f206164604082015264647265737360d81b606082015260800190565b6020808252602e908201527f496e697469616c697a61626c653a20636f6e747261637420697320616c72656160408201526d191e481a5b9a5d1a585b1a5e995960921b606082015260800190565b6020808252602a908201527f455243313135353a20696e73756666696369656e742062616c616e636520666f60408201526939103a3930b739b332b960b11b606082015260800190565b83815260406020820152816040820152818360608301376000818301606090810191909152601f909201601f1916010192915050565b60006001600160401b0382111561394457613944613af8565b5060051b60200190565b6000821982111561396157613961613acc565b500190565b600063ffffffff8083168185168083038211156135c7576135c7613acc565b60008261399457613994613ae2565b500490565b60008160001904831182151516156139b3576139b3613acc565b500290565b6000828210156139ca576139ca613acc565b500390565b60005b838110156139ea5781810151838201526020016139d2565b838111156117ca5750506000910152565b600081613a0a57613a0a613acc565b506000190190565b600181811c90821680613a2657607f821691505b60208210811415613a4757634e487b7160e01b600052602260045260246000fd5b50919050565b601f8201601f191681016001600160401b0381118282101715613a7257613a72613af8565b6040525050565b6000600019821415613a8d57613a8d613acc565b5060010190565b600063ffffffff80831681811415613aae57613aae613acc565b6001019392505050565b600082613ac757613ac7613ae2565b500690565b634e487b7160e01b600052601160045260246000fd5b634e487b7160e01b600052601260045260246000fd5b634e487b7160e01b600052604160045260246000fd5b600060033d1115612a7f57600481823e5160e01c90565b600060443d1015613b335790565b6040516003193d81016004833e81513d6001600160401b038083116024840183101715613b6257505050505090565b8285019150815181811115613b7a5750505050505090565b843d8701016020828501011115613b945750505050505090565b613ba360208286010187613a4d565b509095945050505050565b6001600160a01b038116811461083957600080fd5b6001600160e01b03198116811461083957600080fdfec3d58168c5ae7397731d063d5bbf3d657854427343f4c083240f7aacaa2d0f62360894a13ba1a3210667c828492db98dca3e2076cc3735a920a3ca505d382bbc416464726573733a206c6f772d6c6576656c2064656c65676174652063616c6c206661696c6564592c958fd52390f51665f668ae132c07938e885cabed2dc56aba7c2b264880953d2e894c222ba979e2dce2c7d940c0e9bb14306669e9f034eb1bb3979a2069d8626f510646502d065065e8bd550325973a611a32e6f6ddff40650005cb13636868747470733a2f2f6170692e66726565706f72742e636572652e6e6574776f726b2f657263313135352f7b69647d2e6a736f6ea2646970667358221220ea8e04fa7664fe5f9dc6f8ac81aededa6e984edad350d35460948e2d40a3007664736f6c63430008040033",
  "immutableReferences": {},
  "source": "pragma solidity ^0.8.0;\n\nimport \"@openzeppelin/contracts/utils/Strings.sol\";\nimport \"./freeportParts/collections/CollectionRoyalties.sol\";\nimport \"./freeportParts/collections/CollectionIssuance.sol\";\nimport \"./freeportParts/collections/CollectionNFTAttachment.sol\";\nimport \"./freeportParts/OpenSeaCollection.sol\";\nimport \"./freeportParts/BaseTransferOperator.sol\";\nimport \"./freeportParts/BaseNFT.sol\";\nimport \"./Marketplace.sol\";\nimport \"./CollectionFactory.sol\";\nimport \"./Auction.sol\";\n\n\n/** This this contract describes the collection of NFTs associated with a particular user.\n *\n */\ncontract Collection is OpenSeaCollection, CollectionRoyalties, CollectionIssuance, CollectionNFTAttachment, BaseTransferOperator, BaseNFT {\n\n    using Strings for uint256;\n\n    function initialize(address admin, address manager, string memory _name, string memory _uri, string memory __contractURI, Freeport _freeport, NFTAttachment _nftAttachment, Marketplace _marketplace, Auction _auction, address txForwarder, CollectionFactory _collectionFactory) public initializer {\n        __OpenSeaCollection_init(_name, __contractURI);\n        __CollectionRoyalties_init(_freeport);\n        __CollectionNFTAttachment_init(_nftAttachment);\n        __CollectionIssuance_init();\n        __BaseTransferOperator_init();\n        __BaseNFT_init();\n        if (bytes(_uri).length != 0) _setURI(_uri);\n        collectionFactory = _collectionFactory;\n\n        _setupRole(TRANSFER_OPERATOR, address(_marketplace));\n        _setupRole(TRANSFER_OPERATOR, address(_auction));\n\n        _setupRole(DEFAULT_ADMIN_ROLE, admin);\n        _setupRole(COLLECTION_MANAGER_ROLE, manager);\n        _setupRole(COLLECTION_MANAGER_ROLE, admin);\n        _setupRole(META_TX_FORWARDER, txForwarder);\n    }\n\n    /** Native Collection factory.\n     */\n    CollectionFactory collectionFactory;\n\n    /**\n     * @dev See {IERC165-supportsInterface}.\n     */\n    function supportsInterface(bytes4 interfaceId) public view virtual override(CollectionIssuance, BaseTransferOperator, BaseNFT, AccessControlUpgradeable) returns (bool) {\n        return interfaceId == type(CollectionIssuance).interfaceId\n        || interfaceId == type(BaseTransferOperator).interfaceId\n        || interfaceId == type(BaseNFT).interfaceId\n        || interfaceId == type(AccessControlUpgradeable).interfaceId\n        || super.supportsInterface(interfaceId);\n    }\n\n    // Enable the implementation of meta transactions (ERC2771).\n    function _msgSender() internal view virtual override(BaseNFT, ContextUpgradeable) returns (address sender) {\n        return super._msgSender();\n    }\n\n    // Enable the implementation of meta transactions (ERC2771).\n    function _msgData() internal view virtual override(BaseNFT, ContextUpgradeable) returns (bytes calldata) {\n        return super._msgData();\n    }\n\n    function isApprovedForAll(address account, address operator)\n    public view virtual override(BaseTransferOperator, ERC1155Upgradeable) returns (bool) {\n        return super.isApprovedForAll(account, operator);\n    }\n\n    /**\n     * @dev Wrapper around {IERC1155-balanceOf}.\n     *\n     * Convenient way of getting NFT balance.\n     */\n    function balanceOfGlobalNftId(address account, uint256 nftId) public view returns (uint256) {\n        (address issuer, uint32 innerId, uint64 supply) = _parseNftId(nftId);\n        return ERC1155Upgradeable.balanceOf(account, innerId);\n    }\n\n    /** @dev URI override for OpenSea traits compatibility. */\n    function uri(uint256 nftId) override public view returns (string memory) {\n        return string(abi.encodePacked(ERC1155Upgradeable.uri(nftId), Strings.toString(nftId)));\n    }\n\n    // Hooks\n\n    function _onTransferSingle(\n        address operator,\n        address from,\n        address to,\n        uint256 id,\n        uint256 amount\n    ) override internal {\n        collectionFactory.transferSingleHook(operator, from, to, id, amount);\n    }\n\n    function _onTransferBatch(\n        address operator,\n        address from,\n        address to,\n        uint256[] memory ids,\n        uint256[] memory amounts\n    ) override internal {\n        collectionFactory.transferBatchHook(operator, from, to, ids, amounts);\n    }\n}\n",
  "sourcePath": "/Users/evgenysvirsky/GitHub/Cerebellum-Network/Freeport-Smart-Contracts/contracts/Collection.sol",
  "compiler": {
    "name": "solc",
    "version": "0.8.4+commit.c7e474f2.Emscripten.clang"
  },
  "schemaVersion": "3.4.9",
  "updatedAt": "2022-09-20T14:07:47.866Z",
  "devdoc": {
    "kind": "dev",
    "methods": {
      "balanceOf(address,uint256)": {
        "details": "See {IERC1155-balanceOf}. Requirements: - `account` cannot be the zero address."
      },
      "balanceOfBatch(address[],uint256[])": {
        "details": "See {IERC1155-balanceOfBatch}. Requirements: - `accounts` and `ids` must have the same length."
      },
      "balanceOfGlobalNftId(address,uint256)": {
        "details": "Wrapper around {IERC1155-balanceOf}. Convenient way of getting NFT balance."
      },
      "getRoleAdmin(bytes32)": {
        "details": "Returns the admin role that controls `role`. See {grantRole} and {revokeRole}. To change a role's admin, use {_setRoleAdmin}."
      },
      "grantRole(bytes32,address)": {
        "details": "Grants `role` to `account`. If `account` had not been already granted `role`, emits a {RoleGranted} event. Requirements: - the caller must have ``role``'s admin role."
      },
      "hasRole(bytes32,address)": {
        "details": "Returns `true` if `account` has been granted `role`."
      },
      "renounceRole(bytes32,address)": {
        "details": "Revokes `role` from the calling account. Roles are often managed via {grantRole} and {revokeRole}: this function's purpose is to provide a mechanism for accounts to lose their privileges if they are compromised (such as when a trusted device is misplaced). If the calling account had been granted `role`, emits a {RoleRevoked} event. Requirements: - the caller must be `account`."
      },
      "revokeRole(bytes32,address)": {
        "details": "Revokes `role` from `account`. If `account` had been granted `role`, emits a {RoleRevoked} event. Requirements: - the caller must have ``role``'s admin role."
      },
      "safeBatchTransferFrom(address,address,uint256[],uint256[],bytes)": {
        "details": "See {IERC1155-safeBatchTransferFrom}."
      },
      "safeTransferFrom(address,address,uint256,uint256,bytes)": {
        "details": "See {IERC1155-safeTransferFrom}."
      },
      "setApprovalForAll(address,bool)": {
        "details": "See {IERC1155-setApprovalForAll}."
      },
      "supportsInterface(bytes4)": {
        "details": "See {IERC165-supportsInterface}."
      },
      "uri(uint256)": {
        "details": "URI override for OpenSea traits compatibility. "
      }
    },
    "version": 1
  },
  "userdoc": {
    "kind": "user",
    "methods": {
      "COLLECTION_MANAGER_ROLE()": {
        "notice": "Collection manager role.  Used for configuring the amounts and beneficiaries of royalties on primary and secondary transfers of this NFT."
      },
      "anonymAttachToNFT(uint256,bytes)": {
        "notice": "Attach data `attachment` to the collection NFT with specific inner NFT id."
      },
      "getGlobalNftId(uint32)": {
        "notice": "Calculate the global ID of an NFT type, identifying its inner nft id."
      },
      "getRoyalties()": {
        "notice": "Return the current configuration of royalties for all NFTs of the collection."
      },
      "getRoyaltiesForBeneficiary(address)": {
        "notice": "Return the amount of royalties earned by a beneficiary on each primary and secondary transfer of an NFT. This function supports Joint Accounts. If royalties are paid to a JA and beneficiary is an owner of the JA, the shares of the royalties for this owner are returned."
      },
      "idCounter()": {
        "notice": "A counter of NFT types. This is used to generate unique NFT IDs."
      },
      "issue(uint64,bytes)": {
        "notice": "Issue a supply of NFTs of a new type, and return its ID. No more NFT of this type can be issued again. The caller will be recorded as the issuer and it will initially own the entire supply."
      },
      "issueOnBehalfOf(address,uint64,bytes)": {
        "notice": "Issue a supply of NFTs of a new type on behalf of minter, and return its ID. No more NFT of this type can be issued again. The caller will be recorded as the issuer and it will initially own the entire supply. Only for collection manager role."
      },
      "minterAttachToNFT(uint256,bytes)": {
        "notice": "Attach data `attachment` to the collection NFT with specific inner NFT id, as the minter of this NFT type. This only works for NFT IDs in the Freeport format."
      },
      "setupRoyaltyConfiguration(address,uint256,uint256,address,uint256,uint256)": {
        "notice": "Configure the amounts and beneficiaries of royalties on primary and secondary transfers of this NFT.  Delegating to Freeport implementation."
      },
      "transferFrom(address,address,uint256,uint256)": {
        "notice": "transferFrom performs a simple transfer, without calling the hooks  (no _beforeTokenTransfer and no onERC1155Received)."
      }
    },
    "notice": "This this contract describes the collection of NFTs associated with a particular user.",
    "version": 1
  }
}