{
  "contractName": "CollectionFactory",
  "abi": [
    {
      "anonymous": false,
      "inputs": [
        {
          "indexed": false,
          "internalType": "address",
          "name": "previousAdmin",
          "type": "address"
        },
        {
          "indexed": false,
          "internalType": "address",
          "name": "newAdmin",
          "type": "address"
        }
      ],
      "name": "AdminChanged",
      "type": "event"
    },
    {
      "anonymous": false,
      "inputs": [
        {
          "indexed": true,
          "internalType": "address",
          "name": "beacon",
          "type": "address"
        }
      ],
      "name": "BeaconUpgraded",
      "type": "event"
    },
    {
      "anonymous": false,
      "inputs": [
        {
          "indexed": false,
          "internalType": "string",
          "name": "name",
          "type": "string"
        },
        {
          "indexed": true,
          "internalType": "address",
          "name": "addr",
          "type": "address"
        }
      ],
      "name": "CollectionCreated",
      "type": "event"
    },
    {
      "anonymous": false,
      "inputs": [
        {
          "indexed": false,
          "internalType": "address",
          "name": "_operator",
          "type": "address"
        },
        {
          "indexed": false,
          "internalType": "address",
          "name": "_collection",
          "type": "address"
        },
        {
          "indexed": false,
          "internalType": "address",
          "name": "_holder",
          "type": "address"
        },
        {
          "indexed": false,
          "internalType": "uint256",
          "name": "_id",
          "type": "uint256"
        },
        {
          "indexed": false,
          "internalType": "uint64",
          "name": "_amount",
          "type": "uint64"
        }
      ],
      "name": "MintOnBehalf",
      "type": "event"
    },
    {
      "anonymous": false,
      "inputs": [
        {
          "indexed": true,
          "internalType": "bytes32",
          "name": "role",
          "type": "bytes32"
        },
        {
          "indexed": true,
          "internalType": "bytes32",
          "name": "previousAdminRole",
          "type": "bytes32"
        },
        {
          "indexed": true,
          "internalType": "bytes32",
          "name": "newAdminRole",
          "type": "bytes32"
        }
      ],
      "name": "RoleAdminChanged",
      "type": "event"
    },
    {
      "anonymous": false,
      "inputs": [
        {
          "indexed": true,
          "internalType": "bytes32",
          "name": "role",
          "type": "bytes32"
        },
        {
          "indexed": true,
          "internalType": "address",
          "name": "account",
          "type": "address"
        },
        {
          "indexed": true,
          "internalType": "address",
          "name": "sender",
          "type": "address"
        }
      ],
      "name": "RoleGranted",
      "type": "event"
    },
    {
      "anonymous": false,
      "inputs": [
        {
          "indexed": true,
          "internalType": "bytes32",
          "name": "role",
          "type": "bytes32"
        },
        {
          "indexed": true,
          "internalType": "address",
          "name": "account",
          "type": "address"
        },
        {
          "indexed": true,
          "internalType": "address",
          "name": "sender",
          "type": "address"
        }
      ],
      "name": "RoleRevoked",
      "type": "event"
    },
    {
      "anonymous": false,
      "inputs": [
        {
          "indexed": true,
          "internalType": "address",
          "name": "implementation",
          "type": "address"
        }
      ],
      "name": "Upgraded",
      "type": "event"
    },
    {
      "inputs": [],
      "name": "COLLECTION_CREATOR_ROLE",
      "outputs": [
        {
          "internalType": "bytes32",
          "name": "",
          "type": "bytes32"
        }
      ],
      "stateMutability": "view",
      "type": "function"
    },
    {
      "inputs": [],
      "name": "COLLECTION_MANAGER_ROLE",
      "outputs": [
        {
          "internalType": "bytes32",
          "name": "",
          "type": "bytes32"
        }
      ],
      "stateMutability": "view",
      "type": "function"
    },
    {
      "inputs": [],
      "name": "DEFAULT_ADMIN_ROLE",
      "outputs": [
        {
          "internalType": "bytes32",
          "name": "",
          "type": "bytes32"
        }
      ],
      "stateMutability": "view",
      "type": "function"
    },
    {
      "inputs": [],
      "name": "META_TX_FORWARDER",
      "outputs": [
        {
          "internalType": "bytes32",
          "name": "",
          "type": "bytes32"
        }
      ],
      "stateMutability": "view",
      "type": "function"
    },
    {
      "inputs": [],
      "name": "auction",
      "outputs": [
        {
          "internalType": "contract Auction",
          "name": "",
          "type": "address"
        }
      ],
      "stateMutability": "view",
      "type": "function"
    },
    {
      "inputs": [],
      "name": "freeport",
      "outputs": [
        {
          "internalType": "contract Freeport",
          "name": "",
          "type": "address"
        }
      ],
      "stateMutability": "view",
      "type": "function"
    },
    {
      "inputs": [
        {
          "internalType": "uint32",
          "name": "innerNftId",
          "type": "uint32"
        }
      ],
      "name": "getGlobalNftId",
      "outputs": [
        {
          "internalType": "uint256",
          "name": "",
          "type": "uint256"
        }
      ],
      "stateMutability": "view",
      "type": "function"
    },
    {
      "inputs": [
        {
          "internalType": "bytes32",
          "name": "role",
          "type": "bytes32"
        }
      ],
      "name": "getRoleAdmin",
      "outputs": [
        {
          "internalType": "bytes32",
          "name": "",
          "type": "bytes32"
        }
      ],
      "stateMutability": "view",
      "type": "function"
    },
    {
      "inputs": [
        {
          "internalType": "bytes32",
          "name": "role",
          "type": "bytes32"
        },
        {
          "internalType": "address",
          "name": "account",
          "type": "address"
        }
      ],
      "name": "grantRole",
      "outputs": [],
      "stateMutability": "nonpayable",
      "type": "function"
    },
    {
      "inputs": [
        {
          "internalType": "bytes32",
          "name": "role",
          "type": "bytes32"
        },
        {
          "internalType": "address",
          "name": "account",
          "type": "address"
        }
      ],
      "name": "hasRole",
      "outputs": [
        {
          "internalType": "bool",
          "name": "",
          "type": "bool"
        }
      ],
      "stateMutability": "view",
      "type": "function"
    },
    {
      "inputs": [
        {
          "internalType": "address",
          "name": "forwarder",
          "type": "address"
        }
      ],
      "name": "isTrustedForwarder",
      "outputs": [
        {
          "internalType": "bool",
          "name": "",
          "type": "bool"
        }
      ],
      "stateMutability": "view",
      "type": "function"
    },
    {
      "inputs": [],
      "name": "marketplace",
      "outputs": [
        {
          "internalType": "contract Marketplace",
          "name": "",
          "type": "address"
        }
      ],
      "stateMutability": "view",
      "type": "function"
    },
    {
      "inputs": [],
      "name": "nftAttachment",
      "outputs": [
        {
          "internalType": "contract NFTAttachment",
          "name": "",
          "type": "address"
        }
      ],
      "stateMutability": "view",
      "type": "function"
    },
    {
      "inputs": [
        {
          "internalType": "bytes32",
          "name": "role",
          "type": "bytes32"
        },
        {
          "internalType": "address",
          "name": "account",
          "type": "address"
        }
      ],
      "name": "renounceRole",
      "outputs": [],
      "stateMutability": "nonpayable",
      "type": "function"
    },
    {
      "inputs": [
        {
          "internalType": "bytes32",
          "name": "role",
          "type": "bytes32"
        },
        {
          "internalType": "address",
          "name": "account",
          "type": "address"
        }
      ],
      "name": "revokeRole",
      "outputs": [],
      "stateMutability": "nonpayable",
      "type": "function"
    },
    {
      "inputs": [
        {
          "internalType": "bytes4",
          "name": "interfaceId",
          "type": "bytes4"
        }
      ],
      "name": "supportsInterface",
      "outputs": [
        {
          "internalType": "bool",
          "name": "",
          "type": "bool"
        }
      ],
      "stateMutability": "view",
      "type": "function"
    },
    {
      "inputs": [
        {
          "internalType": "address",
          "name": "newImplementation",
          "type": "address"
        }
      ],
      "name": "upgradeTo",
      "outputs": [],
      "stateMutability": "nonpayable",
      "type": "function"
    },
    {
      "inputs": [
        {
          "internalType": "address",
          "name": "newImplementation",
          "type": "address"
        },
        {
          "internalType": "bytes",
          "name": "data",
          "type": "bytes"
        }
      ],
      "name": "upgradeToAndCall",
      "outputs": [],
      "stateMutability": "payable",
      "type": "function"
    },
    {
      "inputs": [
        {
          "internalType": "contract Freeport",
          "name": "_freeport",
          "type": "address"
        },
        {
          "internalType": "contract NFTAttachment",
          "name": "_nftAttachment",
          "type": "address"
        },
        {
          "internalType": "contract Marketplace",
          "name": "_marketplace",
          "type": "address"
        },
        {
          "internalType": "contract Auction",
          "name": "_auction",
          "type": "address"
        }
      ],
      "name": "initialize",
      "outputs": [],
      "stateMutability": "nonpayable",
      "type": "function"
    },
    {
      "inputs": [
        {
          "internalType": "contract Freeport",
          "name": "_freeport",
          "type": "address"
        },
        {
          "internalType": "contract NFTAttachment",
          "name": "_nftAttachment",
          "type": "address"
        },
        {
          "internalType": "contract Marketplace",
          "name": "_marketplace",
          "type": "address"
        },
        {
          "internalType": "contract Auction",
          "name": "_auction",
          "type": "address"
        }
      ],
      "name": "initialize_update",
      "outputs": [],
      "stateMutability": "nonpayable",
      "type": "function"
    },
    {
      "inputs": [
        {
          "internalType": "address",
          "name": "collectionManager",
          "type": "address"
        },
        {
          "internalType": "string",
          "name": "name",
          "type": "string"
        },
        {
          "internalType": "string",
          "name": "uriTpl",
          "type": "string"
        },
        {
          "internalType": "string",
          "name": "contractURI",
          "type": "string"
        }
      ],
      "name": "createCollection",
      "outputs": [
        {
          "internalType": "address",
          "name": "",
          "type": "address"
        }
      ],
      "stateMutability": "nonpayable",
      "type": "function"
    },
    {
      "inputs": [
        {
          "internalType": "address",
          "name": "collection",
          "type": "address"
        },
        {
          "internalType": "address",
          "name": "holder",
          "type": "address"
        },
        {
          "internalType": "uint64",
          "name": "supply",
          "type": "uint64"
        },
        {
          "internalType": "bytes",
          "name": "data",
          "type": "bytes"
        }
      ],
      "name": "mintOnBehalf",
      "outputs": [],
      "stateMutability": "nonpayable",
      "type": "function"
    },
    {
      "inputs": [
        {
          "internalType": "uint256",
          "name": "id",
          "type": "uint256"
        }
      ],
      "name": "parseNftId",
      "outputs": [
        {
          "internalType": "address",
          "name": "collection",
          "type": "address"
        },
        {
          "internalType": "uint32",
          "name": "innerId",
          "type": "uint32"
        },
        {
          "internalType": "uint64",
          "name": "supply",
          "type": "uint64"
        }
      ],
      "stateMutability": "pure",
      "type": "function"
    }
  ],
  "bytecode": "0x608060405234801561001057600080fd5b506155e4806100206000396000f3fe6080604052600436106101105760003560e01c806301ffc9a71461011557806311ec58681461014a5780632210023d14610177578063248a9ca3146101a7578063288809c7146101c75780632f2ff15d146101f657806336568abe146102185780633659cfe6146102385780633df17453146102585780634f1ef28614610278578063572b6c051461028b5780635958de6a146102ab5780636a4e7e73146103175780637d9f6db51461033757806391d14854146103585780639470ad85146103785780639a86e8ce14610398578063a217fddf146103ba578063abc8c7af146103cf578063bd77c0c6146103f0578063caff99ce14610410578063d547741f14610444578063f8c8765e14610464575b600080fd5b34801561012157600080fd5b50610135610130366004611649565b610484565b60405190151581526020015b60405180910390f35b34801561015657600080fd5b5060fd5461016a906001600160a01b031681565b60405161014191906117bf565b34801561018357600080fd5b5061019960008051602061556f83398151915281565b604051908152602001610141565b3480156101b357600080fd5b506101996101c2366004611602565b6104bb565b3480156101d357600080fd5b506101996101e23660046116e4565b60401b63ffffffff60401b163060601b1790565b34801561020257600080fd5b5061021661021136600461161a565b6104d0565b005b34801561022457600080fd5b5061021661023336600461161a565b6104f9565b34801561024457600080fd5b50610216610253366004611482565b61058c565b34801561026457600080fd5b5061016a610273366004611565565b6105b3565b610216610286366004611518565b6107f9565b34801561029757600080fd5b506101356102a6366004611482565b61080e565b3480156102b757600080fd5b506102e46102c6366004611602565b606081901c91604082901c63ffffffff16916001600160401b031690565b604080516001600160a01b03909416845263ffffffff90921660208401526001600160401b031690820152606001610141565b34801561032357600080fd5b5061021661033236600461149e565b610828565b34801561034357600080fd5b506101025461016a906001600160a01b031681565b34801561036457600080fd5b5061013561037336600461161a565b610a01565b34801561038457600080fd5b5060fc5461016a906001600160a01b031681565b3480156103a457600080fd5b5061019960008051602061558f83398151915281565b3480156103c657600080fd5b50610199600081565b3480156103db57600080fd5b506101015461016a906001600160a01b031681565b3480156103fc57600080fd5b5061021661040b366004611671565b610a2c565b34801561041c57600080fd5b506101997fe926d122b799dcbe5c2eccdf60ae0aefbb1a4bc75a7848bb07befecf8c775f5c81565b34801561045057600080fd5b5061021661045f36600461161a565b610a8d565b34801561047057600080fd5b5061021661047f366004611671565b610aac565b60006001600160e01b03198216637965db0b60e01b14806104b557506301ffc9a760e01b6001600160e01b03198316145b92915050565b600090815260c9602052604090206001015490565b6104d9826104bb565b6104ea816104e5610b70565b610b92565b6104f48383610bf6565b505050565b610501610b70565b6001600160a01b0316816001600160a01b03161461057e5760405162461bcd60e51b815260206004820152602f60248201527f416363657373436f6e74726f6c3a2063616e206f6e6c792072656e6f756e636560448201526e103937b632b9903337b91039b2b63360891b60648201526084015b60405180910390fd5b6105888282610c7d565b5050565b61059581610d02565b6105b081604051806020016040528060008152506000610d46565b50565b60006001600160a01b03851661060b5760405162461bcd60e51b815260206004820152601f60248201527f7a65726f206164647265737320636f6c6c656374696f6e206d616e61676572006044820152606401610575565b60006001600160a01b031660fb856040516106269190611734565b908152604051908190036020019020546001600160a01b03161461068c5760405162461bcd60e51b815260206004820152601e60248201527f636f6c6c656374696f6e206e616d6520616c72656164792065786973747300006044820152606401610575565b600060405161069a906113ef565b604051809103906000f0801580156106b6573d6000803e3d6000fd5b5060fc5460fd546101015461010254604051637a7ff41160e11b81529495506001600160a01b038087169563f4ffe8229561070a9530958f958f958f958f95821694821693821692909116906004016117d3565b600060405180830381600087803b15801561072457600080fd5b505af1158015610738573d6000803e3d6000fd5b505060ff8054600090815260fe6020526040902080546001600160a01b0319166001600160a01b03861617905554839250610775915060016118ea565b60ff55604051829060fb9061078b908990611734565b90815260405190819003602001812080546001600160a01b039384166001600160a01b0319909116179055908316907f2660dd916ec25bcad9a3dd62c721e438ec0e975817265c1e03c2639b24ac7007906107e7908990611889565b60405180910390a25095945050505050565b61080282610d02565b61058882826001610d46565b60006104b560008051602061558f83398151915283610a01565b6000610832610b70565b604051632474521560e21b815260008051602061556f83398151915260048201526001600160a01b038083166024830152919250908616906391d148549060440160206040518083038186803b15801561088b57600080fd5b505afa15801561089f573d6000803e3d6000fd5b505050506040513d601f19601f820116820180604052508101906108c391906115e2565b61090f5760405162461bcd60e51b815260206004820181905260248201527f73656e646572206973206e6f7420636f6c6c656374696f6e206d616e616765726044820152606401610575565b60405163eae6bf7f60e01b81526000906001600160a01b0387169063eae6bf7f9061094290889088908890600401611856565b602060405180830381600087803b15801561095c57600080fd5b505af1158015610970573d6000803e3d6000fd5b505050506040513d601f19601f8201168201806040525081019061099491906116cc565b604080516001600160a01b0385811682528981166020830152881681830152606081018390526001600160401b038716608082015290519192507fc374fe64f912505e324ebcdfddeec8e13cacc40cfd16e03bfdb9efdedef9e221919081900360a00190a1505050505050565b600091825260c9602090815260408084206001600160a01b0393909316845291905290205460ff1690565b6000610a3a816104e5610b70565b5060fc80546001600160a01b039586166001600160a01b03199182161790915560fd8054948616948216949094179093556101018054928516928416929092179091556101028054919093169116179055565b610a96826104bb565b610aa2816104e5610b70565b6104f48383610c7d565b600054610100900460ff1680610ac5575060005460ff16155b610ae15760405162461bcd60e51b81526004016105759061189c565b600054610100900460ff16158015610b03576000805461ffff19166101011790555b610b0b610ec1565b60fc80546001600160a01b038088166001600160a01b03199283161790925560fd805487841690831617905561010180548684169083161790556101028054928516929091169190911790558015610b69576000805461ff00191690555b5050505050565b6000610b7b3361080e565b15610b8d575060131936013560601c90565b503390565b610b9c8282610a01565b61058857610bb4816001600160a01b03166014610ecb565b610bbf836020610ecb565b604051602001610bd0929190611750565b60408051601f198184030181529082905262461bcd60e51b825261057591600401611889565b610c008282610a01565b61058857600082815260c9602090815260408083206001600160a01b03851684529091529020805460ff19166001179055610c39610b70565b6001600160a01b0316816001600160a01b0316837f2f8788117e7eff1d82e926ec794901d17c78024a50270940304540a733656f0d60405160405180910390a45050565b610c878282610a01565b1561058857600082815260c9602090815260408083206001600160a01b03851684529091529020805460ff19169055610cbe610b70565b6001600160a01b0316816001600160a01b0316837ff6391f5c32d9c69d2a47ea670b442974b53935d1edc7fd64eb21e047a839171b60405160405180910390a45050565b610d0d600033610a01565b6105b05760405162461bcd60e51b815260206004820152600a60248201526927b7363c9020b236b4b760b11b6044820152606401610575565b6000610d506110b3565b9050610d5b846110cf565b600083511180610d685750815b15610d7957610d778484611162565b505b7f4910fdfa16fed3260ed0e7147f7cc6da11a60208b5b9406d12a635614ffd9143805460ff16610b6957805460ff19166001178155604051610df4908690610dc59085906024016117bf565b60408051601f198184030181529190526020810180516001600160e01b0316631b2ce7f360e11b179052611162565b50805460ff19168155610e056110b3565b6001600160a01b0316826001600160a01b031614610e7d5760405162461bcd60e51b815260206004820152602f60248201527f45524331393637557067726164653a207570677261646520627265616b73206660448201526e75727468657220757067726164657360881b6064820152608401610575565b610e86856110cf565b6040516001600160a01b038616907fbc7cd75a20ee27fd9adebab32041f755214dbc6bffa90cc0225b39da2e5c2d3b90600090a25050505050565b610ec961124d565b565b60606000610eda836002611902565b610ee59060026118ea565b6001600160401b03811115610f0a57634e487b7160e01b600052604160045260246000fd5b6040519080825280601f01601f191660200182016040528015610f34576020820181803683370190505b509050600360fc1b81600081518110610f5d57634e487b7160e01b600052603260045260246000fd5b60200101906001600160f81b031916908160001a905350600f60fb1b81600181518110610f9a57634e487b7160e01b600052603260045260246000fd5b60200101906001600160f81b031916908160001a9053506000610fbe846002611902565b610fc99060016118ea565b90505b600181111561105d576f181899199a1a9b1b9c1cb0b131b232b360811b85600f166010811061100b57634e487b7160e01b600052603260045260246000fd5b1a60f81b82828151811061102f57634e487b7160e01b600052603260045260246000fd5b60200101906001600160f81b031916908160001a90535060049490941c9361105681611951565b9050610fcc565b5083156110ac5760405162461bcd60e51b815260206004820181905260248201527f537472696e67733a20686578206c656e67746820696e73756666696369656e746044820152606401610575565b9392505050565b600080516020615528833981519152546001600160a01b031690565b803b6111335760405162461bcd60e51b815260206004820152602d60248201527f455243313936373a206e657720696d706c656d656e746174696f6e206973206e60448201526c1bdd08184818dbdb9d1c9858dd609a1b6064820152608401610575565b60008051602061552883398151915280546001600160a01b0319166001600160a01b0392909216919091179055565b6060823b6111c15760405162461bcd60e51b815260206004820152602660248201527f416464726573733a2064656c65676174652063616c6c20746f206e6f6e2d636f6044820152651b9d1c9858dd60d21b6064820152608401610575565b600080846001600160a01b0316846040516111dc9190611734565b600060405180830381855af49150503d8060008114611217576040519150601f19603f3d011682016040523d82523d6000602084013e61121c565b606091505b5091509150611244828260405180606001604052806027815260200161554860279139611268565b95945050505050565b6112556112a1565b61125d61131c565b610ec960003361137b565b606083156112775750816110ac565b8251156112875782518084602001fd5b8160405162461bcd60e51b81526004016105759190611889565b600054610100900460ff16806112ba575060005460ff16155b6112d65760405162461bcd60e51b81526004016105759061189c565b600054610100900460ff161580156112f8576000805461ffff19166101011790555b611300611385565b611308611385565b80156105b0576000805461ff001916905550565b600054610100900460ff1680611335575060005460ff16155b6113515760405162461bcd60e51b81526004016105759061189c565b600054610100900460ff16158015611373576000805461ffff19166101011790555b6112f8611385565b6105888282610bf6565b600054610100900460ff168061139e575060005460ff16155b6113ba5760405162461bcd60e51b81526004016105759061189c565b600054610100900460ff16158015611308576000805461ffff191661010117905580156105b0576000805461ff001916905550565b613b7e806119aa83390190565b600082601f83011261140c578081fd5b81356001600160401b03808211156114265761142661197e565b604051601f8301601f19908116603f0116810190828211818310171561144e5761144e61197e565b81604052838152866020858801011115611466578485fd5b8360208701602083013792830160200193909352509392505050565b600060208284031215611493578081fd5b81356110ac81611994565b600080600080608085870312156114b3578283fd5b84356114be81611994565b935060208501356114ce81611994565b925060408501356001600160401b0380821682146114ea578384fd5b909250606086013590808211156114ff578283fd5b5061150c878288016113fc565b91505092959194509250565b6000806040838503121561152a578182fd5b823561153581611994565b915060208301356001600160401b0381111561154f578182fd5b61155b858286016113fc565b9150509250929050565b6000806000806080858703121561157a578384fd5b843561158581611994565b935060208501356001600160401b03808211156115a0578485fd5b6115ac888389016113fc565b945060408701359150808211156115c1578384fd5b6115cd888389016113fc565b935060608701359150808211156114ff578283fd5b6000602082840312156115f3578081fd5b815180151581146110ac578182fd5b600060208284031215611613578081fd5b5035919050565b6000806040838503121561162c578182fd5b82359150602083013561163e81611994565b809150509250929050565b60006020828403121561165a578081fd5b81356001600160e01b0319811681146110ac578182fd5b60008060008060808587031215611686578384fd5b843561169181611994565b935060208501356116a181611994565b925060408501356116b181611994565b915060608501356116c181611994565b939692955090935050565b6000602082840312156116dd578081fd5b5051919050565b6000602082840312156116f5578081fd5b813563ffffffff811681146110ac578182fd5b60008151808452611720816020860160208601611921565b601f01601f19169290920160200192915050565b60008251611746818460208701611921565b9190910192915050565b76020b1b1b2b9b9a1b7b73a3937b61d1030b1b1b7bab73a1604d1b815260008351611782816017850160208801611921565b7001034b99036b4b9b9b4b733903937b6329607d1b60179184019182015283516117b3816028840160208801611921565b01602801949350505050565b6001600160a01b0391909116815260200190565b6001600160a01b038a811682528981166020830152610120604083018190526000916118018483018c611708565b91508382036060850152611815828b611708565b91508382036080850152611829828a611708565b97811660a085015295861660c0840152505091831660e08301529091166101009091015295945050505050565b6001600160a01b03841681526001600160401b038316602082015260606040820181905260009061124490830184611708565b6020815260006110ac6020830184611708565b6020808252602e908201527f496e697469616c697a61626c653a20636f6e747261637420697320616c72656160408201526d191e481a5b9a5d1a585b1a5e995960921b606082015260800190565b600082198211156118fd576118fd611968565b500190565b600081600019048311821515161561191c5761191c611968565b500290565b60005b8381101561193c578181015183820152602001611924565b8381111561194b576000848401525b50505050565b60008161196057611960611968565b506000190190565b634e487b7160e01b600052601160045260246000fd5b634e487b7160e01b600052604160045260246000fd5b6001600160a01b03811681146105b057600080fdfe608060405234801561001057600080fd5b50613b5e806100206000396000f3fe6080604052600436106101a95760003560e01c8062fdd58e146101ae57806301ffc9a7146101e157806302fe53051461021157806306fdde03146102335780630e89341c1461025557806311ec5868146102755780632210023d146102a2578063248a9ca3146102c4578063288809c7146102e45780632eb2c2d6146103045780632f2ff15d1461032457806333df048e1461034457806336568abe146103975780633659cfe6146103b75780634e1273f4146103d75780634f1ef28614610404578063572b6c051461041757806358556fb01461043757806360e3ecd01461045757806391d14854146104795780639470ad85146104995780639a86e8ce146104b9578063a217fddf146104db578063a22cb465146104f0578063aea0ffc314610510578063b85f8ca914610530578063c8274abe14610550578063d263421b14610590578063d547741f146105b0578063e8a3d485146105d0578063e985e9c5146105e5578063eae6bf7f14610605578063eb08ab2814610625578063f242432a14610658578063f4ffe82214610678578063f9715b8f14610698578063fe99049a146106b8575b600080fd5b3480156101ba57600080fd5b506101ce6101c9366004613026565b6106d8565b6040519081526020015b60405180910390f35b3480156101ed57600080fd5b506102016101fc366004613266565b610774565b60405190151581526020016101d8565b34801561021d57600080fd5b5061023161022c36600461329e565b6107ea565b005b34801561023f57600080fd5b5061024861083c565b6040516101d891906135c9565b34801561026157600080fd5b5061024861027036600461322a565b6108ca565b34801561028157600080fd5b50600354610295906001600160a01b031681565b6040516101d891906134da565b3480156102ae57600080fd5b506101ce600080516020613a9683398151915281565b3480156102d057600080fd5b506101ce6102df36600461322a565b610905565b3480156102f057600080fd5b506101ce6102ff36600461337b565b61091a565b34801561031057600080fd5b5061023161031f366004612d6c565b61092e565b34801561033057600080fd5b5061023161033f366004613242565b610c15565b34801561035057600080fd5b50610359610c3e565b604080516001600160a01b039788168152602081019690965285019390935293166060830152608082019290925260a081019190915260c0016101d8565b3480156103a357600080fd5b506102316103b2366004613242565b610ce7565b3480156103c357600080fd5b506102316103d2366004612d18565b610d75565b3480156103e357600080fd5b506103f76103f2366004613168565b610d99565b6040516101d89190613591565b610231610412366004612fd9565b610efa565b34801561042357600080fd5b50610201610432366004612d18565b610f0f565b34801561044357600080fd5b506101ce61045236600461339f565b610f29565b34801561046357600080fd5b506101ce600080516020613ad683398151915281565b34801561048557600080fd5b50610201610494366004613242565b610f60565b3480156104a557600080fd5b50600254610295906001600160a01b031681565b3480156104c557600080fd5b506101ce600080516020613ab683398151915281565b3480156104e757600080fd5b506101ce600081565b3480156104fc57600080fd5b5061023161050b366004612fa8565b610f8b565b34801561051c57600080fd5b5061023161052b366004613051565b61109f565b34801561053c57600080fd5b5061023161054b3660046132d0565b61118c565b34801561055c57600080fd5b5061057061056b366004612d18565b611209565b6040805194855260208501939093529183015260608201526080016101d8565b34801561059c57600080fd5b506101ce6105ab366004613026565b6112ba565b3480156105bc57600080fd5b506102316105cb366004613242565b6112ea565b3480156105dc57600080fd5b50610248611309565b3480156105f157600080fd5b50610201610600366004612d34565b61139b565b34801561061157600080fd5b506101ce61062036600461310b565b6113ae565b34801561063157600080fd5b50610130546106439063ffffffff1681565b60405163ffffffff90911681526020016101d8565b34801561066457600080fd5b50610231610673366004612f42565b6113df565b34801561068457600080fd5b50610231610693366004612e15565b61155c565b3480156106a457600080fd5b506102316106b33660046132d0565b611693565b3480156106c457600080fd5b506102316106d3366004612efd565b6116f5565b60006001600160a01b0383166107495760405162461bcd60e51b815260206004820152602b60248201527f455243313135353a2062616c616e636520717565727920666f7220746865207a60448201526a65726f206164647265737360a81b60648201526084015b60405180910390fd5b50600081815260cc602090815260408083206001600160a01b03861684529091529020545b92915050565b60006001600160e01b03198216631669832d60e31b14806107a557506001600160e01b0319821663444ce65960e11b145b806107c057506001600160e01b03198216631fb313c760e31b145b806107db57506001600160e01b0319821663da8def7360e01b145b8061076e575061076e82611777565b6107f76000610494611791565b6108305760405162461bcd60e51b815260206004820152600a60248201526937b7363c9030b236b4b760b11b6044820152606401610740565b610839816117a0565b50565b6000805461084990613867565b80601f016020809104026020016040519081016040528092919081815260200182805461087590613867565b80156108c25780601f10610897576101008083540402835291602001916108c2565b820191906000526020600020905b8154815290600101906020018083116108a557829003601f168201915b505050505081565b60606108d5826117b3565b6108de83611847565b6040516020016108ef92919061343c565b6040516020818303038152906040529050919050565b600090815260fe602052604090206001015490565b60401b63ffffffff60401b163060601b1790565b81518351146109905760405162461bcd60e51b815260206004820152602860248201527f455243313135353a2069647320616e6420616d6f756e7473206c656e677468206044820152670dad2e6dac2e8c6d60c31b6064820152608401610740565b6001600160a01b0384166109b65760405162461bcd60e51b81526004016107409061366d565b6109be611791565b6001600160a01b0316856001600160a01b031614806109e457506109e485610600611791565b610a4b5760405162461bcd60e51b815260206004820152603260248201527f455243313135353a207472616e736665722063616c6c6572206973206e6f74206044820152711bdddb995c881b9bdc88185c1c1c9bdd995960721b6064820152608401610740565b6000610a55611791565b905060005b8451811015610ba7576000858281518110610a8557634e487b7160e01b600052603260045260246000fd5b602002602001015190506000858381518110610ab157634e487b7160e01b600052603260045260246000fd5b602090810291909101810151600084815260cc835260408082206001600160a01b038e168352909352919091205490915081811015610b025760405162461bcd60e51b815260040161074090613700565b610b0c828261380d565b60cc600085815260200190815260200160002060008c6001600160a01b03166001600160a01b03168152602001908152602001600020819055508160cc600085815260200190815260200160002060008b6001600160a01b03166001600160a01b031681526020019081526020016000206000828254610b8c91906137a3565b9250508190555050505080610ba0906138ce565b9050610a5a565b50846001600160a01b0316866001600160a01b0316826001600160a01b03167f4a39dc06d4c0dbc64b70af90fd698a233a518aa5d07e595d983b8c0526c8f7fb8787604051610bf79291906135a4565b60405180910390a4610c0d818787878787611960565b505050505050565b610c1e82610905565b610c2f81610c2a611791565b611acb565b610c398383611b2f565b505050565b600254600090819081908190819081906001600160a01b031663bb3bafd6610c66600161091a565b6040518263ffffffff1660e01b8152600401610c8491815260200190565b60c06040518083038186803b158015610c9c57600080fd5b505afa158015610cb0573d6000803e3d6000fd5b505050506040513d601f19601f82011682018060405250810190610cd491906130ac565b949b939a50919850965094509092509050565b610cef611791565b6001600160a01b0316816001600160a01b031614610d675760405162461bcd60e51b815260206004820152602f60248201527f416363657373436f6e74726f6c3a2063616e206f6e6c792072656e6f756e636560448201526e103937b632b9903337b91039b2b63360891b6064820152608401610740565b610d718282611bb6565b5050565b610d7e81611c3b565b61083981604051806020016040528060008152506000611c7f565b60608151835114610dfe5760405162461bcd60e51b815260206004820152602960248201527f455243313135353a206163636f756e747320616e6420696473206c656e677468604482015268040dad2e6dac2e8c6d60bb1b6064820152608401610740565b600083516001600160401b03811115610e2757634e487b7160e01b600052604160045260246000fd5b604051908082528060200260200182016040528015610e50578160200160208202803683370190505b50905060005b8451811015610ef257610eb7858281518110610e8257634e487b7160e01b600052603260045260246000fd5b6020026020010151858381518110610eaa57634e487b7160e01b600052603260045260246000fd5b60200260200101516106d8565b828281518110610ed757634e487b7160e01b600052603260045260246000fd5b6020908102919091010152610eeb816138ce565b9050610e56565b509392505050565b610f0382611c3b565b610d7182826001611c7f565b600061076e600080516020613ab683398151915283610f60565b6000600080516020613a96833981519152610f4681610c2a611791565b610f58610f51611791565b8585611dfa565b949350505050565b600091825260fe602090815260408084206001600160a01b0393909316845291905290205460ff1690565b816001600160a01b0316610f9d611791565b6001600160a01b031614156110065760405162461bcd60e51b815260206004820152602960248201527f455243313135353a2073657474696e6720617070726f76616c20737461747573604482015268103337b91039b2b63360b91b6064820152608401610740565b8060cd6000611013611791565b6001600160a01b03908116825260208083019390935260409182016000908120918716808252919093529120805460ff191692151592909217909155611057611791565b6001600160a01b03167f17307eab39ab6107e8899845ad3d59bd9653f200f220920489ca2b5937696c3183604051611093911515815260200190565b60405180910390a35050565b600080516020613a968339815191526110ba81610c2a611791565b60015b6101305463ffffffff90811690821611611182576002546001600160a01b031663ad09608a6110eb8361091a565b6040516001600160e01b031960e084901b16815260048101919091526001600160a01b03808c166024830152604482018b9052606482018a90528816608482015260a4810187905260c4810186905260e401600060405180830381600087803b15801561115757600080fd5b505af115801561116b573d6000803e3d6000fd5b50505050808061117a906138e9565b9150506110bd565b5050505050505050565b600080516020613a968339815191526111a781610c2a611791565b60035460405163b85f8ca960e01b81526001600160a01b039091169063b85f8ca9906111db9087908790879060040161374a565b600060405180830381600087803b1580156111f557600080fd5b505af1158015611182573d6000803e3d6000fd5b6002546000908190819081906001600160a01b031663e24b0a2b61122d600161091a565b6040516001600160e01b031960e084901b16815260048101919091526001600160a01b038816602482015260440160806040518083038186803b15801561127357600080fd5b505afa158015611287573d6000803e3d6000fd5b505050506040513d601f19601f820116820180604052508101906112ab9190613346565b93509350935093509193509193565b6000606082901c604083901c63ffffffff166001600160401b0384166112e086836106d8565b9695505050505050565b6112f382610905565b6112ff81610c2a611791565b610c398383611bb6565b60606001805461131890613867565b80601f016020809104026020016040519081016040528092919081815260200182805461134490613867565b80156113915780601f1061136657610100808354040283529160200191611391565b820191906000526020600020905b81548152906001019060200180831161137457829003601f168201915b5050505050905090565b60006113a78383611e88565b9392505050565b6000600080516020613a968339815191526113cb81610c2a611791565b6113d6858585611dfa565b95945050505050565b6001600160a01b0384166114055760405162461bcd60e51b81526004016107409061366d565b61140d611791565b6001600160a01b0316856001600160a01b03161480611433575061143385610600611791565b61144f5760405162461bcd60e51b815260040161074090613624565b6000611459611791565b905061147a81878761146a88611edd565b61147388611edd565b5050505050565b600084815260cc602090815260408083206001600160a01b038a168452909152902054838110156114bd5760405162461bcd60e51b815260040161074090613700565b6114c7848261380d565b600086815260cc602090815260408083206001600160a01b038c811685529252808320939093558816815290812080548692906115059084906137a3565b909155505060408051868152602081018690526001600160a01b03808916928a82169291861691600080516020613a2f833981519152910160405180910390a4611553828888888888611f36565b50505050505050565b600354600160a81b900460ff168061157e5750600354600160a01b900460ff16155b61159a5760405162461bcd60e51b8152600401610740906136b2565b600354600160a81b900460ff161580156115c4576003805461ffff60a01b191661010160a01b1790555b6115ce8887612000565b6115d785612027565b6115e0846120c2565b6115e861214a565b6115f06121f1565b6115f861227a565b86511561160857611608876117a0565b611620600080516020613ad6833981519152846122a5565b611638600080516020613ad6833981519152836122a5565b61164360008b6122a5565b61165b600080516020613a968339815191528a6122a5565b611673600080516020613a968339815191528b6122a5565b8015611687576003805460ff60a81b191690555b50505050505050505050565b60035460405163f9715b8f60e01b81526001600160a01b039091169063f9715b8f906116c79086908690869060040161374a565b600060405180830381600087803b1580156116e157600080fd5b505af1158015611553573d6000803e3d6000fd5b6001600160a01b03831661171b5760405162461bcd60e51b81526004016107409061366d565b611723611791565b6001600160a01b0316846001600160a01b03161480611749575061174984610600611791565b6117655760405162461bcd60e51b815260040161074090613624565b611771848484846122af565b50505050565b6000611782826123a2565b8061076e575061076e826123f2565b600061179b612417565b905090565b8051610d719060ce906020840190612b76565b606060ce80546117c290613867565b80601f01602080910402602001604051908101604052809291908181526020018280546117ee90613867565b801561183b5780601f106118105761010080835404028352916020019161183b565b820191906000526020600020905b81548152906001019060200180831161181e57829003601f168201915b50505050509050919050565b60608161186b5750506040805180820190915260018152600360fc1b602082015290565b8160005b8115611895578061187f816138ce565b915061188e9050600a836137da565b915061186f565b6000816001600160401b038111156118bd57634e487b7160e01b600052604160045260246000fd5b6040519080825280601f01601f1916602001820160405280156118e7576020820181803683370190505b5090505b8415610f58576118fc60018361380d565b9150611909600a8661390d565b6119149060306137a3565b60f81b81838151811061193757634e487b7160e01b600052603260045260246000fd5b60200101906001600160f81b031916908160001a905350611959600a866137da565b94506118eb565b6001600160a01b0384163b15610c0d5760405163bc197c8160e01b81526001600160a01b0385169063bc197c81906119a490899089908890889088906004016134ee565b602060405180830381600087803b1580156119be57600080fd5b505af19250505080156119ee575060408051601f3d908101601f191682019092526119eb91810190613282565b60015b611a9b576119fa613963565b806308c379a01415611a345750611a0f61397a565b80611a1a5750611a36565b8060405162461bcd60e51b815260040161074091906135c9565b505b60405162461bcd60e51b815260206004820152603460248201527f455243313135353a207472616e7366657220746f206e6f6e20455243313135356044820152732932b1b2b4bb32b91034b6b83632b6b2b73a32b960611b6064820152608401610740565b6001600160e01b0319811663bc197c8160e01b146115535760405162461bcd60e51b8152600401610740906135dc565b611ad58282610f60565b610d7157611aed816001600160a01b03166014612421565b611af8836020612421565b604051602001611b0992919061346b565b60408051601f198184030181529082905262461bcd60e51b8252610740916004016135c9565b611b398282610f60565b610d7157600082815260fe602090815260408083206001600160a01b03851684529091529020805460ff19166001179055611b72611791565b6001600160a01b0316816001600160a01b0316837f2f8788117e7eff1d82e926ec794901d17c78024a50270940304540a733656f0d60405160405180910390a45050565b611bc08282610f60565b15610d7157600082815260fe602090815260408083206001600160a01b03851684529091529020805460ff19169055611bf7611791565b6001600160a01b0316816001600160a01b0316837ff6391f5c32d9c69d2a47ea670b442974b53935d1edc7fd64eb21e047a839171b60405160405180910390a45050565b611c46600033610f60565b6108395760405162461bcd60e51b815260206004820152600a60248201526927b7363c9020b236b4b760b11b6044820152606401610740565b6000611c89612602565b9050611c948461261e565b600083511180611ca15750815b15611cb257611cb084846126b1565b505b7f4910fdfa16fed3260ed0e7147f7cc6da11a60208b5b9406d12a635614ffd9143805460ff1661147357805460ff19166001178155604051611d2d908690611cfe9085906024016134da565b60408051601f198184030181529190526020810180516001600160e01b0316631b2ce7f360e11b1790526126b1565b50805460ff19168155611d3e612602565b6001600160a01b0316826001600160a01b031614611db65760405162461bcd60e51b815260206004820152602f60248201527f45524331393637557067726164653a207570677261646520627265616b73206660448201526e75727468657220757067726164657360881b6064820152608401610740565b611dbf8561261e565b6040516001600160a01b038616907fbc7cd75a20ee27fd9adebab32041f755214dbc6bffa90cc0225b39da2e5c2d3b90600090a25050505050565b610130546000908190611e149063ffffffff1660016137bb565b90506000611e218261091a565b90506000856001600160401b031611611e3957600080fd5b611e4e8682876001600160401b031687612793565b61013054611e639063ffffffff1660016137bb565b610130805463ffffffff191663ffffffff929092169190911790559150509392505050565b6000611ea2600080516020613ad683398151915283610f60565b15611eaf5750600161076e565b6001600160a01b03808416600090815260cd602090815260408083209386168352929052205460ff166113a7565b60408051600180825281830190925260609160009190602080830190803683370190505090508281600081518110611f2557634e487b7160e01b600052603260045260246000fd5b602090810291909101015292915050565b6001600160a01b0384163b15610c0d5760405163f23a6e6160e01b81526001600160a01b0385169063f23a6e6190611f7a908990899088908890889060040161354c565b602060405180830381600087803b158015611f9457600080fd5b505af1925050508015611fc4575060408051601f3d908101601f19168201909252611fc191810190613282565b60015b611fd0576119fa613963565b6001600160e01b0319811663f23a6e6160e01b146115535760405162461bcd60e51b8152600401610740906135dc565b8151612013906000906020850190612b76565b508051610c39906001906020840190612b76565b600354600160a81b900460ff16806120495750600354600160a01b900460ff16155b6120655760405162461bcd60e51b8152600401610740906136b2565b600354600160a81b900460ff1615801561208f576003805461ffff60a01b191661010160a01b1790555b600280546001600160a01b0319166001600160a01b0384161790555b8015610d71576003805460ff60a81b191690555050565b600354600160a81b900460ff16806120e45750600354600160a01b900460ff16155b6121005760405162461bcd60e51b8152600401610740906136b2565b600354600160a81b900460ff1615801561212a576003805461ffff60a01b191661010160a01b1790555b600380546001600160a01b0319166001600160a01b0384161790556120ab565b600354600160a81b900460ff168061216c5750600354600160a01b900460ff16155b6121885760405162461bcd60e51b8152600401610740906136b2565b600354600160a81b900460ff161580156121b2576003805461ffff60a01b191661010160a01b1790555b6121d3604051806060016040528060338152602001613af66033913961288f565b6121db612910565b8015610839576003805460ff60a81b1916905550565b600354600160a81b900460ff16806122135750600354600160a01b900460ff16155b61222f5760405162461bcd60e51b8152600401610740906136b2565b600354600160a81b900460ff16158015612259576003805461ffff60a01b191661010160a01b1790555b6121db604051806060016040528060338152602001613af66033913961288f565b61229b604051806060016040528060338152602001613af66033913961288f565b6122a3612918565b565b610d718282611b2f565b600082815260cc602090815260408083206001600160a01b0388168452909152902054818110156122f25760405162461bcd60e51b815260040161074090613700565b6122fc828261380d565b600084815260cc602090815260408083206001600160a01b038a8116855292528083209390935586168152908120805484929061233a9084906137a3565b909155506000905061234a611791565b9050846001600160a01b0316866001600160a01b0316826001600160a01b0316600080516020613a2f8339815191528787604051612392929190918252602082015260400190565b60405180910390a4505050505050565b60006001600160e01b03198216636cdb3d1360e11b14806123d357506001600160e01b031982166303a24d0760e21b145b8061076e57506301ffc9a760e01b6001600160e01b031983161461076e565b60006001600160e01b03198216637965db0b60e01b148061076e575061076e826123a2565b600061179b612920565b606060006124308360026137ee565b61243b9060026137a3565b6001600160401b0381111561246057634e487b7160e01b600052604160045260246000fd5b6040519080825280601f01601f19166020018201604052801561248a576020820181803683370190505b509050600360fc1b816000815181106124b357634e487b7160e01b600052603260045260246000fd5b60200101906001600160f81b031916908160001a905350600f60fb1b816001815181106124f057634e487b7160e01b600052603260045260246000fd5b60200101906001600160f81b031916908160001a90535060006125148460026137ee565b61251f9060016137a3565b90505b60018111156125b3576f181899199a1a9b1b9c1cb0b131b232b360811b85600f166010811061256157634e487b7160e01b600052603260045260246000fd5b1a60f81b82828151811061258557634e487b7160e01b600052603260045260246000fd5b60200101906001600160f81b031916908160001a90535060049490941c936125ac81613850565b9050612522565b5083156113a75760405162461bcd60e51b815260206004820181905260248201527f537472696e67733a20686578206c656e67746820696e73756666696369656e746044820152606401610740565b600080516020613a4f833981519152546001600160a01b031690565b803b6126825760405162461bcd60e51b815260206004820152602d60248201527f455243313936373a206e657720696d706c656d656e746174696f6e206973206e60448201526c1bdd08184818dbdb9d1c9858dd609a1b6064820152608401610740565b600080516020613a4f83398151915280546001600160a01b0319166001600160a01b0392909216919091179055565b6060823b6127105760405162461bcd60e51b815260206004820152602660248201527f416464726573733a2064656c65676174652063616c6c20746f206e6f6e2d636f6044820152651b9d1c9858dd60d21b6064820152608401610740565b600080846001600160a01b03168460405161272b9190613420565b600060405180830381855af49150503d8060008114612766576040519150601f19603f3d011682016040523d82523d6000602084013e61276b565b606091505b50915091506113d68282604051806060016040528060278152602001613a6f60279139612945565b6001600160a01b0384166127f35760405162461bcd60e51b815260206004820152602160248201527f455243313135353a206d696e7420746f20746865207a65726f206164647265736044820152607360f81b6064820152608401610740565b60006127fd611791565b905061280f8160008761146a88611edd565b600084815260cc602090815260408083206001600160a01b0389168452909152812080548592906128419084906137a3565b909155505060408051858152602081018590526001600160a01b038088169260009291851691600080516020613a2f833981519152910160405180910390a461147381600087878787611f36565b600354600160a81b900460ff16806128b15750600354600160a01b900460ff16155b6128cd5760405162461bcd60e51b8152600401610740906136b2565b600354600160a81b900460ff161580156128f7576003805461ffff60a01b191661010160a01b1790555b6128ff61297e565b61290761297e565b6120ab826129fb565b6122a3612a6c565b6122a3612aec565b600061292b33610f0f565b1561293d575060131936013560601c90565b503390565b90565b606083156129545750816113a7565b8251156129645782518084602001fd5b8160405162461bcd60e51b815260040161074091906135c9565b600354600160a81b900460ff16806129a05750600354600160a01b900460ff16155b6129bc5760405162461bcd60e51b8152600401610740906136b2565b600354600160a81b900460ff161580156121db576003805461ffff60a01b191661010160a01b1790558015610839576003805460ff60a81b1916905550565b600354600160a81b900460ff1680612a1d5750600354600160a01b900460ff16155b612a395760405162461bcd60e51b8152600401610740906136b2565b600354600160a81b900460ff16158015612a63576003805461ffff60a01b191661010160a01b1790555b6120ab826117a0565b600354600160a81b900460ff1680612a8e5750600354600160a01b900460ff16155b612aaa5760405162461bcd60e51b8152600401610740906136b2565b600354600160a81b900460ff16158015612ad4576003805461ffff60a01b191661010160a01b1790555b612adc61297e565b612ae461297e565b6121db61297e565b612af4612b07565b612afc612a6c565b6122a36000336122a5565b600354600160a81b900460ff1680612b295750600354600160a01b900460ff16155b612b455760405162461bcd60e51b8152600401610740906136b2565b600354600160a81b900460ff16158015612adc576003805461ffff60a01b191661010160a01b179055612ae461297e565b828054612b8290613867565b90600052602060002090601f016020900481019282612ba45760008555612bea565b82601f10612bbd57805160ff1916838001178555612bea565b82800160010185558215612bea579182015b82811115612bea578251825591602001919060010190612bcf565b50612bf6929150612bfa565b5090565b5b80821115612bf65760008155600101612bfb565b8035612c1a81613a03565b919050565b600082601f830112612c2f578081fd5b81356020612c3c82613780565b604051612c4982826138a2565b8381528281019150858301600585901b87018401881015612c68578586fd5b855b85811015612c8657813584529284019290840190600101612c6a565b5090979650505050505050565b600082601f830112612ca3578081fd5b81356001600160401b03811115612cbc57612cbc61394d565b604051612cd3601f8301601f1916602001826138a2565b818152846020838601011115612ce7578283fd5b816020850160208301379081016020019190915292915050565b80356001600160401b0381168114612c1a57600080fd5b600060208284031215612d29578081fd5b81356113a781613a03565b60008060408385031215612d46578081fd5b8235612d5181613a03565b91506020830135612d6181613a03565b809150509250929050565b600080600080600060a08688031215612d83578081fd5b8535612d8e81613a03565b94506020860135612d9e81613a03565b935060408601356001600160401b0380821115612db9578283fd5b612dc589838a01612c1f565b94506060880135915080821115612dda578283fd5b612de689838a01612c1f565b93506080880135915080821115612dfb578283fd5b50612e0888828901612c93565b9150509295509295909350565b60008060008060008060008060006101208a8c031215612e33578384fd5b612e3c8a612c0f565b9850612e4a60208b01612c0f565b975060408a01356001600160401b0380821115612e65578586fd5b612e718d838e01612c93565b985060608c0135915080821115612e86578586fd5b612e928d838e01612c93565b975060808c0135915080821115612ea7578586fd5b50612eb48c828d01612c93565b955050612ec360a08b01612c0f565b9350612ed160c08b01612c0f565b9250612edf60e08b01612c0f565b9150612eee6101008b01612c0f565b90509295985092959850929598565b60008060008060808587031215612f12578182fd5b8435612f1d81613a03565b93506020850135612f2d81613a03565b93969395505050506040820135916060013590565b600080600080600060a08688031215612f59578283fd5b8535612f6481613a03565b94506020860135612f7481613a03565b9350604086013592506060860135915060808601356001600160401b03811115612f9c578182fd5b612e0888828901612c93565b60008060408385031215612fba578182fd5b8235612fc581613a03565b915060208301358015158114612d61578182fd5b60008060408385031215612feb578182fd5b8235612ff681613a03565b915060208301356001600160401b03811115613010578182fd5b61301c85828601612c93565b9150509250929050565b60008060408385031215613038578182fd5b823561304381613a03565b946020939093013593505050565b60008060008060008060c08789031215613069578384fd5b863561307481613a03565b95506020870135945060408701359350606087013561309281613a03565b9598949750929560808101359460a0909101359350915050565b60008060008060008060c087890312156130c4578384fd5b86516130cf81613a03565b80965050602087015194506040870151935060608701516130ef81613a03565b809350506080870151915060a087015190509295509295509295565b60008060006060848603121561311f578081fd5b833561312a81613a03565b925061313860208501612d01565b915060408401356001600160401b03811115613152578182fd5b61315e86828701612c93565b9150509250925092565b6000806040838503121561317a578182fd5b82356001600160401b0380821115613190578384fd5b818501915085601f8301126131a3578384fd5b813560206131b082613780565b6040516131bd82826138a2565b8381528281019150858301600585901b870184018b10156131dc578889fd5b8896505b848710156132075780356131f381613a03565b8352600196909601959183019183016131e0565b509650508601359250508082111561321d578283fd5b5061301c85828601612c1f565b60006020828403121561323b578081fd5b5035919050565b60008060408385031215613254578182fd5b823591506020830135612d6181613a03565b600060208284031215613277578081fd5b81356113a781613a18565b600060208284031215613293578081fd5b81516113a781613a18565b6000602082840312156132af578081fd5b81356001600160401b038111156132c4578182fd5b610f5884828501612c93565b6000806000604084860312156132e4578081fd5b8335925060208401356001600160401b0380821115613301578283fd5b818601915086601f830112613314578283fd5b813581811115613322578384fd5b876020828501011115613333578384fd5b6020830194508093505050509250925092565b6000806000806080858703121561335b578182fd5b505082516020840151604085015160609095015191969095509092509050565b60006020828403121561338c578081fd5b813563ffffffff811681146113a7578182fd5b600080604083850312156133b1578182fd5b612ff683612d01565b6000815180845260208085019450808401835b838110156133e9578151875295820195908201906001016133cd565b509495945050505050565b6000815180845261340c816020860160208601613824565b601f01601f19169290920160200192915050565b60008251613432818460208701613824565b9190910192915050565b6000835161344e818460208801613824565b835190830190613462818360208801613824565b01949350505050565b76020b1b1b2b9b9a1b7b73a3937b61d1030b1b1b7bab73a1604d1b81526000835161349d816017850160208801613824565b7001034b99036b4b9b9b4b733903937b6329607d1b60179184019182015283516134ce816028840160208801613824565b01602801949350505050565b6001600160a01b0391909116815260200190565b6001600160a01b0386811682528516602082015260a06040820181905260009061351a908301866133ba565b828103606084015261352c81866133ba565b9050828103608084015261354081856133f4565b98975050505050505050565b6001600160a01b03868116825285166020820152604081018490526060810183905260a060808201819052600090613586908301846133f4565b979650505050505050565b6020815260006113a760208301846133ba565b6040815260006135b760408301856133ba565b82810360208401526113d681856133ba565b6020815260006113a760208301846133f4565b60208082526028908201527f455243313135353a204552433131353552656365697665722072656a656374656040820152676420746f6b656e7360c01b606082015260800190565b60208082526029908201527f455243313135353a2063616c6c6572206973206e6f74206f776e6572206e6f7260408201526808185c1c1c9bdd995960ba1b606082015260800190565b60208082526025908201527f455243313135353a207472616e7366657220746f20746865207a65726f206164604082015264647265737360d81b606082015260800190565b6020808252602e908201527f496e697469616c697a61626c653a20636f6e747261637420697320616c72656160408201526d191e481a5b9a5d1a585b1a5e995960921b606082015260800190565b6020808252602a908201527f455243313135353a20696e73756666696369656e742062616c616e636520666f60408201526939103a3930b739b332b960b11b606082015260800190565b83815260406020820152816040820152818360608301376000818301606090810191909152601f909201601f1916010192915050565b60006001600160401b038211156137995761379961394d565b5060051b60200190565b600082198211156137b6576137b6613921565b500190565b600063ffffffff80831681851680830382111561346257613462613921565b6000826137e9576137e9613937565b500490565b600081600019048311821515161561380857613808613921565b500290565b60008282101561381f5761381f613921565b500390565b60005b8381101561383f578181015183820152602001613827565b838111156117715750506000910152565b60008161385f5761385f613921565b506000190190565b600181811c9082168061387b57607f821691505b6020821081141561389c57634e487b7160e01b600052602260045260246000fd5b50919050565b601f8201601f191681016001600160401b03811182821017156138c7576138c761394d565b6040525050565b60006000198214156138e2576138e2613921565b5060010190565b600063ffffffff8083168181141561390357613903613921565b6001019392505050565b60008261391c5761391c613937565b500690565b634e487b7160e01b600052601160045260246000fd5b634e487b7160e01b600052601260045260246000fd5b634e487b7160e01b600052604160045260246000fd5b600060033d111561294257600481823e5160e01c90565b600060443d10156139885790565b6040516003193d81016004833e81513d6001600160401b0380831160248401831017156139b757505050505090565b82850191508151818111156139cf5750505050505090565b843d87010160208285010111156139e95750505050505090565b6139f8602082860101876138a2565b509095945050505050565b6001600160a01b038116811461083957600080fd5b6001600160e01b03198116811461083957600080fdfec3d58168c5ae7397731d063d5bbf3d657854427343f4c083240f7aacaa2d0f62360894a13ba1a3210667c828492db98dca3e2076cc3735a920a3ca505d382bbc416464726573733a206c6f772d6c6576656c2064656c65676174652063616c6c206661696c6564592c958fd52390f51665f668ae132c07938e885cabed2dc56aba7c2b264880953d2e894c222ba979e2dce2c7d940c0e9bb14306669e9f034eb1bb3979a2069d8626f510646502d065065e8bd550325973a611a32e6f6ddff40650005cb13636868747470733a2f2f6170692e66726565706f72742e636572652e6e6574776f726b2f657263313135352f7b69647d2e6a736f6ea2646970667358221220fabdb8fbe12c4fb277e39e64bed92d59d4359f8819b14b18e1b92b747189fbb664736f6c63430008040033360894a13ba1a3210667c828492db98dca3e2076cc3735a920a3ca505d382bbc416464726573733a206c6f772d6c6576656c2064656c65676174652063616c6c206661696c6564592c958fd52390f51665f668ae132c07938e885cabed2dc56aba7c2b264880953d2e894c222ba979e2dce2c7d940c0e9bb14306669e9f034eb1bb3979a2069d8a264697066735822122039b0e2a794f8e65bdd4f1d1cfbf8472f09e2ea68aac1c25cd43c8b4aebdbd37a64736f6c63430008040033",
  "immutableReferences": {},
  "source": "pragma solidity ^0.8.0;\n\nimport \"./freeportParts/MetaTxContext.sol\";\nimport \"./freeportParts/HasGlobalNftId.sol\";\nimport \"./Collection.sol\";\nimport \"./Marketplace.sol\";\nimport \"./Auction.sol\";\n\n/** This is a contract for creating standalone contracts (collections) for users.\n *\n */\ncontract CollectionFactory is MetaTxContext, HasGlobalNftId {\n    function initialize(Freeport _freeport, NFTAttachment _nftAttachment, Marketplace _marketplace, Auction _auction) public initializer {\n        __MetaTxContext_init();\n\n        freeport = _freeport;\n        nftAttachment = _nftAttachment;\n        marketplace = _marketplace;\n        auction = _auction;\n    }\n\n    function initialize_update(Freeport _freeport, NFTAttachment _nftAttachment, Marketplace _marketplace, Auction _auction) external onlyRole(DEFAULT_ADMIN_ROLE) {\n        freeport = _freeport;\n        nftAttachment = _nftAttachment;\n        marketplace = _marketplace;\n        auction = _auction;\n    }\n\n    // Standalone user collections mapped to its names.\n    mapping(string => address) nameToCollection;\n\n    // The address of Freeport contract.\n    Freeport public freeport;\n    // The address of NFTAttachment contract.\n    NFTAttachment public nftAttachment;\n\n    // Collection id to address.\n    mapping(uint256 => address) private addressProxies;\n    uint256 private collectionCounter;\n\n    /** Collection creator role.\n     *  Used for configuring the amounts and beneficiaries of royalties on primary and secondary transfers of this NFT.\n     */\n    bytes32 public constant COLLECTION_CREATOR_ROLE = keccak256(\"COLLECTION_CREATOR_ROLE\");\n\n    /** Allowance mapping for mint on behalf for each Collection.\n     */\n    mapping(address => mapping(address => bool)) mintAllowance;\n\n    /** Allowance mapping for mint on behalf for each Collection.\n     */\n    bytes32 public constant COLLECTION_MANAGER_ROLE = keccak256(\"COLLECTION_MANAGER_ROLE\");\n\n    // The address of Marketplace contract.\n    Marketplace public marketplace;\n    // The address of Auction contract.\n    Auction public auction;\n\n    /** An event emitted when new collection is created.\n     *\n     * Contains unique name of collection and its address.\n     */\n    event CollectionCreated(string name, address indexed addr);\n\n    /** An event emitted when NFT is minted on behalf of factory.\n     */\n    event MintOnBehalf(address _operator, address _collection, address _holder, uint256 _id, uint64 _amount);\n\n    /** Deploying a new user collection.\n     *\n     *  Emits a {CollectionCreated} event.\n     */\n    function createCollection(address collectionManager, string memory name, string memory uriTpl, string memory contractURI) external returns (address) {\n        //        require(hasRole(COLLECTION_CREATOR_ROLE, _msgSender()), \"only collection creator\");\n        require(collectionManager != address(0), \"zero address collection manager\");\n        require(nameToCollection[name] == address(0), \"collection name already exists\");\n\n        Collection collection = new Collection();\n        collection.initialize(address(this), collectionManager, name, uriTpl, contractURI, freeport, nftAttachment, marketplace, auction);\n\n        address collAddr = address(collection);\n\n        addressProxies[collectionCounter] = address(collection);\n        collectionCounter = collectionCounter + 1;\n\n        nameToCollection[name] = address(collection);\n\n        emit CollectionCreated(name, address(collection));\n        return address(collection);\n    }\n\n    function mintOnBehalf(address collection, address holder, uint64 supply, bytes memory data) external {\n        address operator = _msgSender();\n        require(Collection(collection).hasRole(COLLECTION_MANAGER_ROLE, operator), \"sender is not collection manager\");\n        uint256 nftID = Collection(collection).issueOnBehalfOf(holder, supply, data);\n\n        emit MintOnBehalf(operator, collection, holder, nftID, supply);\n    }\n\n    function parseNftId(uint256 id) pure external\n    returns (address collection, uint32 innerId, uint64 supply) {\n        return _parseNftId(id);\n    }\n}\n",
  "sourcePath": "/Users/neanvo/WorkFlow/cere/Freeport-Smart-Contracts/contracts/CollectionFactory.sol",
  "compiler": {
    "name": "solc",
    "version": "0.8.4+commit.c7e474f2.Emscripten.clang"
  },
  "schemaVersion": "3.4.8",
  "updatedAt": "2022-09-01T12:16:26.722Z",
  "devdoc": {
    "kind": "dev",
    "methods": {
      "getRoleAdmin(bytes32)": {
        "details": "Returns the admin role that controls `role`. See {grantRole} and {revokeRole}. To change a role's admin, use {_setRoleAdmin}."
      },
      "grantRole(bytes32,address)": {
        "details": "Grants `role` to `account`. If `account` had not been already granted `role`, emits a {RoleGranted} event. Requirements: - the caller must have ``role``'s admin role."
      },
      "hasRole(bytes32,address)": {
        "details": "Returns `true` if `account` has been granted `role`."
      },
      "renounceRole(bytes32,address)": {
        "details": "Revokes `role` from the calling account. Roles are often managed via {grantRole} and {revokeRole}: this function's purpose is to provide a mechanism for accounts to lose their privileges if they are compromised (such as when a trusted device is misplaced). If the calling account had been granted `role`, emits a {RoleRevoked} event. Requirements: - the caller must be `account`."
      },
      "revokeRole(bytes32,address)": {
        "details": "Revokes `role` from `account`. If `account` had been granted `role`, emits a {RoleRevoked} event. Requirements: - the caller must have ``role``'s admin role."
      },
      "supportsInterface(bytes4)": {
        "details": "See {IERC165-supportsInterface}."
      }
    },
    "version": 1
  },
  "userdoc": {
    "events": {
      "CollectionCreated(string,address)": {
        "notice": "An event emitted when new collection is created. Contains unique name of collection and its address."
      },
      "MintOnBehalf(address,address,address,uint256,uint64)": {
        "notice": "An event emitted when NFT is minted on behalf of factory."
      }
    },
    "kind": "user",
    "methods": {
      "COLLECTION_CREATOR_ROLE()": {
        "notice": "Collection creator role.  Used for configuring the amounts and beneficiaries of royalties on primary and secondary transfers of this NFT."
      },
      "COLLECTION_MANAGER_ROLE()": {
        "notice": "Allowance mapping for mint on behalf for each Collection."
      },
      "createCollection(address,string,string,string)": {
        "notice": "Deploying a new user collection.  Emits a {CollectionCreated} event."
      },
      "getGlobalNftId(uint32)": {
        "notice": "Calculate the global ID of an NFT type, identifying its inner nft id."
      }
    },
    "notice": "This is a contract for creating standalone contracts (collections) for users.",
    "version": 1
  }
}