{
  "contractName": "Collection",
  "abi": [
    {
      "anonymous": false,
      "inputs": [
        {
          "indexed": false,
          "internalType": "address",
          "name": "previousAdmin",
          "type": "address"
        },
        {
          "indexed": false,
          "internalType": "address",
          "name": "newAdmin",
          "type": "address"
        }
      ],
      "name": "AdminChanged",
      "type": "event"
    },
    {
      "anonymous": false,
      "inputs": [
        {
          "indexed": true,
          "internalType": "address",
          "name": "account",
          "type": "address"
        },
        {
          "indexed": true,
          "internalType": "address",
          "name": "operator",
          "type": "address"
        },
        {
          "indexed": false,
          "internalType": "bool",
          "name": "approved",
          "type": "bool"
        }
      ],
      "name": "ApprovalForAll",
      "type": "event"
    },
    {
      "anonymous": false,
      "inputs": [
        {
          "indexed": true,
          "internalType": "address",
          "name": "beacon",
          "type": "address"
        }
      ],
      "name": "BeaconUpgraded",
      "type": "event"
    },
    {
      "anonymous": false,
      "inputs": [
        {
          "indexed": true,
          "internalType": "bytes32",
          "name": "role",
          "type": "bytes32"
        },
        {
          "indexed": true,
          "internalType": "bytes32",
          "name": "previousAdminRole",
          "type": "bytes32"
        },
        {
          "indexed": true,
          "internalType": "bytes32",
          "name": "newAdminRole",
          "type": "bytes32"
        }
      ],
      "name": "RoleAdminChanged",
      "type": "event"
    },
    {
      "anonymous": false,
      "inputs": [
        {
          "indexed": true,
          "internalType": "bytes32",
          "name": "role",
          "type": "bytes32"
        },
        {
          "indexed": true,
          "internalType": "address",
          "name": "account",
          "type": "address"
        },
        {
          "indexed": true,
          "internalType": "address",
          "name": "sender",
          "type": "address"
        }
      ],
      "name": "RoleGranted",
      "type": "event"
    },
    {
      "anonymous": false,
      "inputs": [
        {
          "indexed": true,
          "internalType": "bytes32",
          "name": "role",
          "type": "bytes32"
        },
        {
          "indexed": true,
          "internalType": "address",
          "name": "account",
          "type": "address"
        },
        {
          "indexed": true,
          "internalType": "address",
          "name": "sender",
          "type": "address"
        }
      ],
      "name": "RoleRevoked",
      "type": "event"
    },
    {
      "anonymous": false,
      "inputs": [
        {
          "indexed": true,
          "internalType": "address",
          "name": "operator",
          "type": "address"
        },
        {
          "indexed": true,
          "internalType": "address",
          "name": "from",
          "type": "address"
        },
        {
          "indexed": true,
          "internalType": "address",
          "name": "to",
          "type": "address"
        },
        {
          "indexed": false,
          "internalType": "uint256[]",
          "name": "ids",
          "type": "uint256[]"
        },
        {
          "indexed": false,
          "internalType": "uint256[]",
          "name": "values",
          "type": "uint256[]"
        }
      ],
      "name": "TransferBatch",
      "type": "event"
    },
    {
      "anonymous": false,
      "inputs": [
        {
          "indexed": true,
          "internalType": "address",
          "name": "operator",
          "type": "address"
        },
        {
          "indexed": true,
          "internalType": "address",
          "name": "from",
          "type": "address"
        },
        {
          "indexed": true,
          "internalType": "address",
          "name": "to",
          "type": "address"
        },
        {
          "indexed": false,
          "internalType": "uint256",
          "name": "id",
          "type": "uint256"
        },
        {
          "indexed": false,
          "internalType": "uint256",
          "name": "value",
          "type": "uint256"
        }
      ],
      "name": "TransferSingle",
      "type": "event"
    },
    {
      "anonymous": false,
      "inputs": [
        {
          "indexed": false,
          "internalType": "string",
          "name": "value",
          "type": "string"
        },
        {
          "indexed": true,
          "internalType": "uint256",
          "name": "id",
          "type": "uint256"
        }
      ],
      "name": "URI",
      "type": "event"
    },
    {
      "anonymous": false,
      "inputs": [
        {
          "indexed": true,
          "internalType": "address",
          "name": "implementation",
          "type": "address"
        }
      ],
      "name": "Upgraded",
      "type": "event"
    },
    {
      "inputs": [],
      "name": "COLLECTION_MANAGER_ROLE",
      "outputs": [
        {
          "internalType": "bytes32",
          "name": "",
          "type": "bytes32"
        }
      ],
      "stateMutability": "view",
      "type": "function"
    },
    {
      "inputs": [],
      "name": "DEFAULT_ADMIN_ROLE",
      "outputs": [
        {
          "internalType": "bytes32",
          "name": "",
          "type": "bytes32"
        }
      ],
      "stateMutability": "view",
      "type": "function"
    },
    {
      "inputs": [],
      "name": "META_TX_FORWARDER",
      "outputs": [
        {
          "internalType": "bytes32",
          "name": "",
          "type": "bytes32"
        }
      ],
      "stateMutability": "view",
      "type": "function"
    },
    {
      "inputs": [],
      "name": "TRANSFER_OPERATOR",
      "outputs": [
        {
          "internalType": "bytes32",
          "name": "",
          "type": "bytes32"
        }
      ],
      "stateMutability": "view",
      "type": "function"
    },
    {
      "inputs": [
        {
          "internalType": "uint256",
          "name": "nftId",
          "type": "uint256"
        },
        {
          "internalType": "bytes",
          "name": "attachment",
          "type": "bytes"
        }
      ],
      "name": "anonymAttachToNFT",
      "outputs": [],
      "stateMutability": "nonpayable",
      "type": "function"
    },
    {
      "inputs": [
        {
          "internalType": "address",
          "name": "account",
          "type": "address"
        },
        {
          "internalType": "uint256",
          "name": "id",
          "type": "uint256"
        }
      ],
      "name": "balanceOf",
      "outputs": [
        {
          "internalType": "uint256",
          "name": "",
          "type": "uint256"
        }
      ],
      "stateMutability": "view",
      "type": "function"
    },
    {
      "inputs": [
        {
          "internalType": "address[]",
          "name": "accounts",
          "type": "address[]"
        },
        {
          "internalType": "uint256[]",
          "name": "ids",
          "type": "uint256[]"
        }
      ],
      "name": "balanceOfBatch",
      "outputs": [
        {
          "internalType": "uint256[]",
          "name": "",
          "type": "uint256[]"
        }
      ],
      "stateMutability": "view",
      "type": "function"
    },
    {
      "inputs": [],
      "name": "contractURI",
      "outputs": [
        {
          "internalType": "string",
          "name": "",
          "type": "string"
        }
      ],
      "stateMutability": "view",
      "type": "function"
    },
    {
      "inputs": [],
      "name": "freeport",
      "outputs": [
        {
          "internalType": "contract Freeport",
          "name": "",
          "type": "address"
        }
      ],
      "stateMutability": "view",
      "type": "function"
    },
    {
      "inputs": [
        {
          "internalType": "uint32",
          "name": "innerNftId",
          "type": "uint32"
        }
      ],
      "name": "getGlobalNftId",
      "outputs": [
        {
          "internalType": "uint256",
          "name": "",
          "type": "uint256"
        }
      ],
      "stateMutability": "view",
      "type": "function"
    },
    {
      "inputs": [
        {
          "internalType": "bytes32",
          "name": "role",
          "type": "bytes32"
        }
      ],
      "name": "getRoleAdmin",
      "outputs": [
        {
          "internalType": "bytes32",
          "name": "",
          "type": "bytes32"
        }
      ],
      "stateMutability": "view",
      "type": "function"
    },
    {
      "inputs": [],
      "name": "getRoyalties",
      "outputs": [
        {
          "internalType": "address",
          "name": "primaryRoyaltyAccount",
          "type": "address"
        },
        {
          "internalType": "uint256",
          "name": "primaryRoyaltyCut",
          "type": "uint256"
        },
        {
          "internalType": "uint256",
          "name": "primaryRoyaltyMinimum",
          "type": "uint256"
        },
        {
          "internalType": "address",
          "name": "secondaryRoyaltyAccount",
          "type": "address"
        },
        {
          "internalType": "uint256",
          "name": "secondaryRoyaltyCut",
          "type": "uint256"
        },
        {
          "internalType": "uint256",
          "name": "secondaryRoyaltyMinimum",
          "type": "uint256"
        }
      ],
      "stateMutability": "view",
      "type": "function"
    },
    {
      "inputs": [
        {
          "internalType": "address",
          "name": "beneficiary",
          "type": "address"
        }
      ],
      "name": "getRoyaltiesForBeneficiary",
      "outputs": [
        {
          "internalType": "uint256",
          "name": "primaryCut",
          "type": "uint256"
        },
        {
          "internalType": "uint256",
          "name": "primaryMinimum",
          "type": "uint256"
        },
        {
          "internalType": "uint256",
          "name": "secondaryCut",
          "type": "uint256"
        },
        {
          "internalType": "uint256",
          "name": "secondaryMinimum",
          "type": "uint256"
        }
      ],
      "stateMutability": "view",
      "type": "function"
    },
    {
      "inputs": [
        {
          "internalType": "bytes32",
          "name": "role",
          "type": "bytes32"
        },
        {
          "internalType": "address",
          "name": "account",
          "type": "address"
        }
      ],
      "name": "grantRole",
      "outputs": [],
      "stateMutability": "nonpayable",
      "type": "function"
    },
    {
      "inputs": [
        {
          "internalType": "bytes32",
          "name": "role",
          "type": "bytes32"
        },
        {
          "internalType": "address",
          "name": "account",
          "type": "address"
        }
      ],
      "name": "hasRole",
      "outputs": [
        {
          "internalType": "bool",
          "name": "",
          "type": "bool"
        }
      ],
      "stateMutability": "view",
      "type": "function"
    },
    {
      "inputs": [],
      "name": "idCounter",
      "outputs": [
        {
          "internalType": "uint32",
          "name": "",
          "type": "uint32"
        }
      ],
      "stateMutability": "view",
      "type": "function"
    },
    {
      "inputs": [
        {
          "internalType": "address",
          "name": "forwarder",
          "type": "address"
        }
      ],
      "name": "isTrustedForwarder",
      "outputs": [
        {
          "internalType": "bool",
          "name": "",
          "type": "bool"
        }
      ],
      "stateMutability": "view",
      "type": "function"
    },
    {
      "inputs": [
        {
          "internalType": "uint64",
          "name": "supply",
          "type": "uint64"
        },
        {
          "internalType": "bytes",
          "name": "data",
          "type": "bytes"
        }
      ],
      "name": "issue",
      "outputs": [
        {
          "internalType": "uint256",
          "name": "",
          "type": "uint256"
        }
      ],
      "stateMutability": "nonpayable",
      "type": "function"
    },
    {
      "inputs": [
        {
          "internalType": "address",
          "name": "minter",
          "type": "address"
        },
        {
          "internalType": "uint64",
          "name": "supply",
          "type": "uint64"
        },
        {
          "internalType": "bytes",
          "name": "data",
          "type": "bytes"
        }
      ],
      "name": "issueOnBehalfOf",
      "outputs": [
        {
          "internalType": "uint256",
          "name": "",
          "type": "uint256"
        }
      ],
      "stateMutability": "nonpayable",
      "type": "function"
    },
    {
      "inputs": [
        {
          "internalType": "uint256",
          "name": "nftId",
          "type": "uint256"
        },
        {
          "internalType": "bytes",
          "name": "attachment",
          "type": "bytes"
        }
      ],
      "name": "minterAttachToNFT",
      "outputs": [],
      "stateMutability": "nonpayable",
      "type": "function"
    },
    {
      "inputs": [],
      "name": "name",
      "outputs": [
        {
          "internalType": "string",
          "name": "",
          "type": "string"
        }
      ],
      "stateMutability": "view",
      "type": "function"
    },
    {
      "inputs": [],
      "name": "nftAttachment",
      "outputs": [
        {
          "internalType": "contract NFTAttachment",
          "name": "",
          "type": "address"
        }
      ],
      "stateMutability": "view",
      "type": "function"
    },
    {
      "inputs": [
        {
          "internalType": "bytes32",
          "name": "role",
          "type": "bytes32"
        },
        {
          "internalType": "address",
          "name": "account",
          "type": "address"
        }
      ],
      "name": "renounceRole",
      "outputs": [],
      "stateMutability": "nonpayable",
      "type": "function"
    },
    {
      "inputs": [
        {
          "internalType": "bytes32",
          "name": "role",
          "type": "bytes32"
        },
        {
          "internalType": "address",
          "name": "account",
          "type": "address"
        }
      ],
      "name": "revokeRole",
      "outputs": [],
      "stateMutability": "nonpayable",
      "type": "function"
    },
    {
      "inputs": [
        {
          "internalType": "address",
          "name": "from",
          "type": "address"
        },
        {
          "internalType": "address",
          "name": "to",
          "type": "address"
        },
        {
          "internalType": "uint256[]",
          "name": "ids",
          "type": "uint256[]"
        },
        {
          "internalType": "uint256[]",
          "name": "amounts",
          "type": "uint256[]"
        },
        {
          "internalType": "bytes",
          "name": "data",
          "type": "bytes"
        }
      ],
      "name": "safeBatchTransferFrom",
      "outputs": [],
      "stateMutability": "nonpayable",
      "type": "function"
    },
    {
      "inputs": [
        {
          "internalType": "address",
          "name": "from",
          "type": "address"
        },
        {
          "internalType": "address",
          "name": "to",
          "type": "address"
        },
        {
          "internalType": "uint256",
          "name": "id",
          "type": "uint256"
        },
        {
          "internalType": "uint256",
          "name": "amount",
          "type": "uint256"
        },
        {
          "internalType": "bytes",
          "name": "data",
          "type": "bytes"
        }
      ],
      "name": "safeTransferFrom",
      "outputs": [],
      "stateMutability": "nonpayable",
      "type": "function"
    },
    {
      "inputs": [
        {
          "internalType": "address",
          "name": "operator",
          "type": "address"
        },
        {
          "internalType": "bool",
          "name": "approved",
          "type": "bool"
        }
      ],
      "name": "setApprovalForAll",
      "outputs": [],
      "stateMutability": "nonpayable",
      "type": "function"
    },
    {
      "inputs": [
        {
          "internalType": "string",
          "name": "newuri",
          "type": "string"
        }
      ],
      "name": "setURI",
      "outputs": [],
      "stateMutability": "nonpayable",
      "type": "function"
    },
    {
      "inputs": [
        {
          "internalType": "address",
          "name": "primaryRoyaltyAccount",
          "type": "address"
        },
        {
          "internalType": "uint256",
          "name": "primaryRoyaltyCut",
          "type": "uint256"
        },
        {
          "internalType": "uint256",
          "name": "primaryRoyaltyMinimum",
          "type": "uint256"
        },
        {
          "internalType": "address",
          "name": "secondaryRoyaltyAccount",
          "type": "address"
        },
        {
          "internalType": "uint256",
          "name": "secondaryRoyaltyCut",
          "type": "uint256"
        },
        {
          "internalType": "uint256",
          "name": "secondaryRoyaltyMinimum",
          "type": "uint256"
        }
      ],
      "name": "setupRoyaltyConfiguration",
      "outputs": [],
      "stateMutability": "nonpayable",
      "type": "function"
    },
    {
      "inputs": [
        {
          "internalType": "address",
          "name": "from",
          "type": "address"
        },
        {
          "internalType": "address",
          "name": "to",
          "type": "address"
        },
        {
          "internalType": "uint256",
          "name": "id",
          "type": "uint256"
        },
        {
          "internalType": "uint256",
          "name": "amount",
          "type": "uint256"
        }
      ],
      "name": "transferFrom",
      "outputs": [],
      "stateMutability": "nonpayable",
      "type": "function"
    },
    {
      "inputs": [
        {
          "internalType": "address",
          "name": "newImplementation",
          "type": "address"
        }
      ],
      "name": "upgradeTo",
      "outputs": [],
      "stateMutability": "nonpayable",
      "type": "function"
    },
    {
      "inputs": [
        {
          "internalType": "address",
          "name": "newImplementation",
          "type": "address"
        },
        {
          "internalType": "bytes",
          "name": "data",
          "type": "bytes"
        }
      ],
      "name": "upgradeToAndCall",
      "outputs": [],
      "stateMutability": "payable",
      "type": "function"
    },
    {
      "inputs": [
        {
          "internalType": "uint256",
          "name": "",
          "type": "uint256"
        }
      ],
      "name": "uri",
      "outputs": [
        {
          "internalType": "string",
          "name": "",
          "type": "string"
        }
      ],
      "stateMutability": "view",
      "type": "function"
    },
    {
      "inputs": [
        {
          "internalType": "address",
          "name": "admin",
          "type": "address"
        },
        {
          "internalType": "address",
          "name": "manager",
          "type": "address"
        },
        {
          "internalType": "string",
          "name": "_name",
          "type": "string"
        },
        {
          "internalType": "string",
          "name": "_uri",
          "type": "string"
        },
        {
          "internalType": "string",
          "name": "__contractURI",
          "type": "string"
        },
        {
          "internalType": "contract Freeport",
          "name": "_freeport",
          "type": "address"
        },
        {
          "internalType": "contract NFTAttachment",
          "name": "_nftAttachment",
          "type": "address"
        }
      ],
      "name": "initialize",
      "outputs": [],
      "stateMutability": "nonpayable",
      "type": "function"
    },
    {
      "inputs": [
        {
          "internalType": "bytes4",
          "name": "interfaceId",
          "type": "bytes4"
        }
      ],
      "name": "supportsInterface",
      "outputs": [
        {
          "internalType": "bool",
          "name": "",
          "type": "bool"
        }
      ],
      "stateMutability": "view",
      "type": "function"
    },
    {
      "inputs": [
        {
          "internalType": "address",
          "name": "account",
          "type": "address"
        },
        {
          "internalType": "address",
          "name": "operator",
          "type": "address"
        }
      ],
      "name": "isApprovedForAll",
      "outputs": [
        {
          "internalType": "bool",
          "name": "",
          "type": "bool"
        }
      ],
      "stateMutability": "view",
      "type": "function"
    }
  ],
  "bytecode": "0x608060405234801561001057600080fd5b506138d8806100206000396000f3fe60806040526004361061019e5760003560e01c8062fdd58e146101a357806301ffc9a7146101d657806302fe53051461020657806306fdde03146102285780630e89341c1461024a57806311ec58681461026a5780632210023d14610297578063248a9ca3146102b9578063288809c7146102d95780632eb2c2d6146102f95780632f2ff15d1461031957806333df048e1461033957806336568abe1461038c5780633659cfe6146103ac5780634e1273f4146103cc5780634f1ef286146103f9578063572b6c051461040c57806358556fb01461042c57806360e3ecd01461044c5780638e86b6281461046e57806391d148541461048e5780639470ad85146104ae5780639a86e8ce146104ce578063a217fddf146104f0578063a22cb46514610505578063aea0ffc314610525578063b85f8ca914610545578063c8274abe14610565578063d547741f146105a5578063e8a3d485146105c5578063e985e9c5146105da578063eae6bf7f146105fa578063eb08ab281461061a578063f242432a1461064d578063f9715b8f1461066d578063fe99049a1461068d575b600080fd5b3480156101af57600080fd5b506101c36101be366004612e04565b6106ad565b6040519081526020015b60405180910390f35b3480156101e257600080fd5b506101f66101f1366004613044565b610749565b60405190151581526020016101cd565b34801561021257600080fd5b5061022661022136600461307c565b6107bf565b005b34801561023457600080fd5b5061023d610811565b6040516101cd9190613378565b34801561025657600080fd5b5061023d610265366004613008565b61089f565b34801561027657600080fd5b5060035461028a906001600160a01b031681565b6040516101cd9190613289565b3480156102a357600080fd5b506101c360008051602061381083398151915281565b3480156102c557600080fd5b506101c36102d4366004613008565b610933565b3480156102e557600080fd5b506101c36102f4366004613159565b610948565b34801561030557600080fd5b50610226610314366004612b68565b61095c565b34801561032557600080fd5b50610226610334366004613020565b610c43565b34801561034557600080fd5b5061034e610c6c565b604080516001600160a01b039788168152602081019690965285019390935293166060830152608082019290925260a081019190915260c0016101cd565b34801561039857600080fd5b506102266103a7366004613020565b610d15565b3480156103b857600080fd5b506102266103c7366004612b14565b610da3565b3480156103d857600080fd5b506103ec6103e7366004612f46565b610dc7565b6040516101cd9190613340565b610226610407366004612db7565b610f28565b34801561041857600080fd5b506101f6610427366004612b14565b610f3d565b34801561043857600080fd5b506101c361044736600461317d565b610f57565b34801561045857600080fd5b506101c360008051602061385083398151915281565b34801561047a57600080fd5b50610226610489366004612c11565b610f8e565b34801561049a57600080fd5b506101f66104a9366004613020565b61107a565b3480156104ba57600080fd5b5060025461028a906001600160a01b031681565b3480156104da57600080fd5b506101c360008051602061383083398151915281565b3480156104fc57600080fd5b506101c3600081565b34801561051157600080fd5b50610226610520366004612d86565b6110a5565b34801561053157600080fd5b50610226610540366004612e2f565b6111b9565b34801561055157600080fd5b506102266105603660046130ae565b61129c565b34801561057157600080fd5b50610585610580366004612b14565b611319565b6040805194855260208501939093529183015260608201526080016101cd565b3480156105b157600080fd5b506102266105c0366004613020565b6113ca565b3480156105d157600080fd5b5061023d6113e9565b3480156105e657600080fd5b506101f66105f5366004612b30565b61147b565b34801561060657600080fd5b506101c3610615366004612ee9565b61148e565b34801561062657600080fd5b50610130546106389063ffffffff1681565b60405163ffffffff90911681526020016101cd565b34801561065957600080fd5b50610226610668366004612d20565b6114bf565b34801561067957600080fd5b506102266106883660046130ae565b61163c565b34801561069957600080fd5b506102266106a8366004612cdb565b61169e565b60006001600160a01b03831661071e5760405162461bcd60e51b815260206004820152602b60248201527f455243313135353a2062616c616e636520717565727920666f7220746865207a60448201526a65726f206164647265737360a81b60648201526084015b60405180910390fd5b50600081815260cc602090815260408083206001600160a01b03861684529091529020545b92915050565b60006001600160e01b03198216631669832d60e31b148061077a57506001600160e01b0319821663444ce65960e11b145b8061079557506001600160e01b03198216631fb313c760e31b145b806107b057506001600160e01b0319821663da8def7360e01b145b80610743575061074382611720565b6107cc60006104a961173a565b6108055760405162461bcd60e51b815260206004820152600a60248201526937b7363c9030b236b4b760b11b6044820152606401610715565b61080e81611749565b50565b6000805461081e9061360b565b80601f016020809104026020016040519081016040528092919081815260200182805461084a9061360b565b80156108975780601f1061086c57610100808354040283529160200191610897565b820191906000526020600020905b81548152906001019060200180831161087a57829003601f168201915b505050505081565b606060ce80546108ae9061360b565b80601f01602080910402602001604051908101604052809291908181526020018280546108da9061360b565b80156109275780601f106108fc57610100808354040283529160200191610927565b820191906000526020600020905b81548152906001019060200180831161090a57829003601f168201915b50505050509050919050565b600090815260fe602052604090206001015490565b60401b63ffffffff60401b163060601b1790565b81518351146109be5760405162461bcd60e51b815260206004820152602860248201527f455243313135353a2069647320616e6420616d6f756e7473206c656e677468206044820152670dad2e6dac2e8c6d60c31b6064820152608401610715565b6001600160a01b0384166109e45760405162461bcd60e51b81526004016107159061341c565b6109ec61173a565b6001600160a01b0316856001600160a01b03161480610a125750610a12856105f561173a565b610a795760405162461bcd60e51b815260206004820152603260248201527f455243313135353a207472616e736665722063616c6c6572206973206e6f74206044820152711bdddb995c881b9bdc88185c1c1c9bdd995960721b6064820152608401610715565b6000610a8361173a565b905060005b8451811015610bd5576000858281518110610ab357634e487b7160e01b600052603260045260246000fd5b602002602001015190506000858381518110610adf57634e487b7160e01b600052603260045260246000fd5b602090810291909101810151600084815260cc835260408082206001600160a01b038e168352909352919091205490915081811015610b305760405162461bcd60e51b8152600401610715906134af565b610b3a82826135b1565b60cc600085815260200190815260200160002060008c6001600160a01b03166001600160a01b03168152602001908152602001600020819055508160cc600085815260200190815260200160002060008b6001600160a01b03166001600160a01b031681526020019081526020016000206000828254610bba9190613552565b9250508190555050505080610bce90613672565b9050610a88565b50846001600160a01b0316866001600160a01b0316826001600160a01b03167f4a39dc06d4c0dbc64b70af90fd698a233a518aa5d07e595d983b8c0526c8f7fb8787604051610c25929190613353565b60405180910390a4610c3b81878787878761175c565b505050505050565b610c4c82610933565b610c5d81610c5861173a565b6118c7565b610c67838361192b565b505050565b600254600090819081908190819081906001600160a01b031663bb3bafd6610c946001610948565b6040518263ffffffff1660e01b8152600401610cb291815260200190565b60c06040518083038186803b158015610cca57600080fd5b505afa158015610cde573d6000803e3d6000fd5b505050506040513d601f19601f82011682018060405250810190610d029190612e8a565b949b939a50919850965094509092509050565b610d1d61173a565b6001600160a01b0316816001600160a01b031614610d955760405162461bcd60e51b815260206004820152602f60248201527f416363657373436f6e74726f6c3a2063616e206f6e6c792072656e6f756e636560448201526e103937b632b9903337b91039b2b63360891b6064820152608401610715565b610d9f82826119b2565b5050565b610dac81611a37565b61080e81604051806020016040528060008152506000611a7b565b60608151835114610e2c5760405162461bcd60e51b815260206004820152602960248201527f455243313135353a206163636f756e747320616e6420696473206c656e677468604482015268040dad2e6dac2e8c6d60bb1b6064820152608401610715565b600083516001600160401b03811115610e5557634e487b7160e01b600052604160045260246000fd5b604051908082528060200260200182016040528015610e7e578160200160208202803683370190505b50905060005b8451811015610f2057610ee5858281518110610eb057634e487b7160e01b600052603260045260246000fd5b6020026020010151858381518110610ed857634e487b7160e01b600052603260045260246000fd5b60200260200101516106ad565b828281518110610f0557634e487b7160e01b600052603260045260246000fd5b6020908102919091010152610f1981613672565b9050610e84565b509392505050565b610f3182611a37565b610d9f82826001611a7b565b60006107436000805160206138308339815191528361107a565b6000600080516020613810833981519152610f7481610c5861173a565b610f86610f7f61173a565b8585611bf6565b949350505050565b600354600160a81b900460ff1680610fb05750600354600160a01b900460ff16155b610fcc5760405162461bcd60e51b815260040161071590613461565b600354600160a81b900460ff16158015610ff6576003805461ffff60a01b191661010160a01b1790555b6110008685611c84565b61100983611cab565b61101282611d46565b61101a611dce565b611022611e75565b61102a611efe565b84516110395761103985611749565b611044600089611f29565b61105c60008051602061381083398151915288611f29565b8015611070576003805460ff60a81b191690555b5050505050505050565b600091825260fe602090815260408084206001600160a01b0393909316845291905290205460ff1690565b816001600160a01b03166110b761173a565b6001600160a01b031614156111205760405162461bcd60e51b815260206004820152602960248201527f455243313135353a2073657474696e6720617070726f76616c20737461747573604482015268103337b91039b2b63360b91b6064820152608401610715565b8060cd600061112d61173a565b6001600160a01b03908116825260208083019390935260409182016000908120918716808252919093529120805460ff19169215159290921790915561117161173a565b6001600160a01b03167f17307eab39ab6107e8899845ad3d59bd9653f200f220920489ca2b5937696c31836040516111ad911515815260200190565b60405180910390a35050565b6000805160206138108339815191526111d481610c5861173a565b60015b6101305463ffffffff90811690821611611070576002546001600160a01b031663ad09608a61120583610948565b6040516001600160e01b031960e084901b16815260048101919091526001600160a01b03808c166024830152604482018b9052606482018a90528816608482015260a4810187905260c4810186905260e401600060405180830381600087803b15801561127157600080fd5b505af1158015611285573d6000803e3d6000fd5b5050505080806112949061368d565b9150506111d7565b6000805160206138108339815191526112b781610c5861173a565b60035460405163b85f8ca960e01b81526001600160a01b039091169063b85f8ca9906112eb908790879087906004016134f9565b600060405180830381600087803b15801561130557600080fd5b505af1158015611070573d6000803e3d6000fd5b6002546000908190819081906001600160a01b031663e24b0a2b61133d6001610948565b6040516001600160e01b031960e084901b16815260048101919091526001600160a01b038816602482015260440160806040518083038186803b15801561138357600080fd5b505afa158015611397573d6000803e3d6000fd5b505050506040513d601f19601f820116820180604052508101906113bb9190613124565b93509350935093509193509193565b6113d382610933565b6113df81610c5861173a565b610c6783836119b2565b6060600180546113f89061360b565b80601f01602080910402602001604051908101604052809291908181526020018280546114249061360b565b80156114715780601f1061144657610100808354040283529160200191611471565b820191906000526020600020905b81548152906001019060200180831161145457829003601f168201915b5050505050905090565b60006114878383611f33565b9392505050565b60006000805160206138108339815191526114ab81610c5861173a565b6114b6858585611bf6565b95945050505050565b6001600160a01b0384166114e55760405162461bcd60e51b81526004016107159061341c565b6114ed61173a565b6001600160a01b0316856001600160a01b031614806115135750611513856105f561173a565b61152f5760405162461bcd60e51b8152600401610715906133d3565b600061153961173a565b905061155a81878761154a88611f88565b61155388611f88565b5050505050565b600084815260cc602090815260408083206001600160a01b038a1684529091529020548381101561159d5760405162461bcd60e51b8152600401610715906134af565b6115a784826135b1565b600086815260cc602090815260408083206001600160a01b038c811685529252808320939093558816815290812080548692906115e5908490613552565b909155505060408051868152602081018690526001600160a01b03808916928a821692918616916000805160206137a9833981519152910160405180910390a4611633828888888888611fe1565b50505050505050565b60035460405163f9715b8f60e01b81526001600160a01b039091169063f9715b8f90611670908690869086906004016134f9565b600060405180830381600087803b15801561168a57600080fd5b505af1158015611633573d6000803e3d6000fd5b6001600160a01b0383166116c45760405162461bcd60e51b81526004016107159061341c565b6116cc61173a565b6001600160a01b0316846001600160a01b031614806116f257506116f2846105f561173a565b61170e5760405162461bcd60e51b8152600401610715906133d3565b61171a848484846120ab565b50505050565b600061172b8261219e565b806107435750610743826121ee565b6000611744612213565b905090565b8051610d9f9060ce906020840190612972565b6001600160a01b0384163b15610c3b5760405163bc197c8160e01b81526001600160a01b0385169063bc197c81906117a0908990899088908890889060040161329d565b602060405180830381600087803b1580156117ba57600080fd5b505af19250505080156117ea575060408051601f3d908101601f191682019092526117e791810190613060565b60015b611897576117f66136dd565b806308c379a01415611830575061180b6136f4565b806118165750611832565b8060405162461bcd60e51b81526004016107159190613378565b505b60405162461bcd60e51b815260206004820152603460248201527f455243313135353a207472616e7366657220746f206e6f6e20455243313135356044820152732932b1b2b4bb32b91034b6b83632b6b2b73a32b960611b6064820152608401610715565b6001600160e01b0319811663bc197c8160e01b146116335760405162461bcd60e51b81526004016107159061338b565b6118d1828261107a565b610d9f576118e9816001600160a01b0316601461221d565b6118f483602061221d565b60405160200161190592919061321a565b60408051601f198184030181529082905262461bcd60e51b825261071591600401613378565b611935828261107a565b610d9f57600082815260fe602090815260408083206001600160a01b03851684529091529020805460ff1916600117905561196e61173a565b6001600160a01b0316816001600160a01b0316837f2f8788117e7eff1d82e926ec794901d17c78024a50270940304540a733656f0d60405160405180910390a45050565b6119bc828261107a565b15610d9f57600082815260fe602090815260408083206001600160a01b03851684529091529020805460ff191690556119f361173a565b6001600160a01b0316816001600160a01b0316837ff6391f5c32d9c69d2a47ea670b442974b53935d1edc7fd64eb21e047a839171b60405160405180910390a45050565b611a4260003361107a565b61080e5760405162461bcd60e51b815260206004820152600a60248201526927b7363c9020b236b4b760b11b6044820152606401610715565b6000611a856123fe565b9050611a908461241a565b600083511180611a9d5750815b15611aae57611aac84846124ad565b505b7f4910fdfa16fed3260ed0e7147f7cc6da11a60208b5b9406d12a635614ffd9143805460ff1661155357805460ff19166001178155604051611b29908690611afa908590602401613289565b60408051601f198184030181529190526020810180516001600160e01b0316631b2ce7f360e11b1790526124ad565b50805460ff19168155611b3a6123fe565b6001600160a01b0316826001600160a01b031614611bb25760405162461bcd60e51b815260206004820152602f60248201527f45524331393637557067726164653a207570677261646520627265616b73206660448201526e75727468657220757067726164657360881b6064820152608401610715565b611bbb8561241a565b6040516001600160a01b038616907fbc7cd75a20ee27fd9adebab32041f755214dbc6bffa90cc0225b39da2e5c2d3b90600090a25050505050565b610130546000908190611c109063ffffffff16600161356a565b90506000611c1d82610948565b90506000856001600160401b031611611c3557600080fd5b611c4a8682876001600160401b03168761258f565b61013054611c5f9063ffffffff16600161356a565b610130805463ffffffff191663ffffffff929092169190911790559150509392505050565b8151611c97906000906020850190612972565b508051610c67906001906020840190612972565b600354600160a81b900460ff1680611ccd5750600354600160a01b900460ff16155b611ce95760405162461bcd60e51b815260040161071590613461565b600354600160a81b900460ff16158015611d13576003805461ffff60a01b191661010160a01b1790555b600280546001600160a01b0319166001600160a01b0384161790555b8015610d9f576003805460ff60a81b191690555050565b600354600160a81b900460ff1680611d685750600354600160a01b900460ff16155b611d845760405162461bcd60e51b815260040161071590613461565b600354600160a81b900460ff16158015611dae576003805461ffff60a01b191661010160a01b1790555b600380546001600160a01b0319166001600160a01b038416179055611d2f565b600354600160a81b900460ff1680611df05750600354600160a01b900460ff16155b611e0c5760405162461bcd60e51b815260040161071590613461565b600354600160a81b900460ff16158015611e36576003805461ffff60a01b191661010160a01b1790555b611e576040518060600160405280603381526020016138706033913961268b565b611e5f61270c565b801561080e576003805460ff60a81b1916905550565b600354600160a81b900460ff1680611e975750600354600160a01b900460ff16155b611eb35760405162461bcd60e51b815260040161071590613461565b600354600160a81b900460ff16158015611edd576003805461ffff60a01b191661010160a01b1790555b611e5f6040518060600160405280603381526020016138706033913961268b565b611f1f6040518060600160405280603381526020016138706033913961268b565b611f27612714565b565b610d9f828261192b565b6000611f4d6000805160206138508339815191528361107a565b15611f5a57506001610743565b6001600160a01b03808416600090815260cd602090815260408083209386168352929052205460ff16611487565b60408051600180825281830190925260609160009190602080830190803683370190505090508281600081518110611fd057634e487b7160e01b600052603260045260246000fd5b602090810291909101015292915050565b6001600160a01b0384163b15610c3b5760405163f23a6e6160e01b81526001600160a01b0385169063f23a6e619061202590899089908890889088906004016132fb565b602060405180830381600087803b15801561203f57600080fd5b505af192505050801561206f575060408051601f3d908101601f1916820190925261206c91810190613060565b60015b61207b576117f66136dd565b6001600160e01b0319811663f23a6e6160e01b146116335760405162461bcd60e51b81526004016107159061338b565b600082815260cc602090815260408083206001600160a01b0388168452909152902054818110156120ee5760405162461bcd60e51b8152600401610715906134af565b6120f882826135b1565b600084815260cc602090815260408083206001600160a01b038a81168552925280832093909355861681529081208054849290612136908490613552565b909155506000905061214661173a565b9050846001600160a01b0316866001600160a01b0316826001600160a01b03166000805160206137a9833981519152878760405161218e929190918252602082015260400190565b60405180910390a4505050505050565b60006001600160e01b03198216636cdb3d1360e11b14806121cf57506001600160e01b031982166303a24d0760e21b145b8061074357506301ffc9a760e01b6001600160e01b0319831614610743565b60006001600160e01b03198216637965db0b60e01b148061074357506107438261219e565b600061174461271c565b6060600061222c836002613592565b612237906002613552565b6001600160401b0381111561225c57634e487b7160e01b600052604160045260246000fd5b6040519080825280601f01601f191660200182016040528015612286576020820181803683370190505b509050600360fc1b816000815181106122af57634e487b7160e01b600052603260045260246000fd5b60200101906001600160f81b031916908160001a905350600f60fb1b816001815181106122ec57634e487b7160e01b600052603260045260246000fd5b60200101906001600160f81b031916908160001a9053506000612310846002613592565b61231b906001613552565b90505b60018111156123af576f181899199a1a9b1b9c1cb0b131b232b360811b85600f166010811061235d57634e487b7160e01b600052603260045260246000fd5b1a60f81b82828151811061238157634e487b7160e01b600052603260045260246000fd5b60200101906001600160f81b031916908160001a90535060049490941c936123a8816135f4565b905061231e565b5083156114875760405162461bcd60e51b815260206004820181905260248201527f537472696e67733a20686578206c656e67746820696e73756666696369656e746044820152606401610715565b6000805160206137c9833981519152546001600160a01b031690565b803b61247e5760405162461bcd60e51b815260206004820152602d60248201527f455243313936373a206e657720696d706c656d656e746174696f6e206973206e60448201526c1bdd08184818dbdb9d1c9858dd609a1b6064820152608401610715565b6000805160206137c983398151915280546001600160a01b0319166001600160a01b0392909216919091179055565b6060823b61250c5760405162461bcd60e51b815260206004820152602660248201527f416464726573733a2064656c65676174652063616c6c20746f206e6f6e2d636f6044820152651b9d1c9858dd60d21b6064820152608401610715565b600080846001600160a01b03168460405161252791906131fe565b600060405180830381855af49150503d8060008114612562576040519150601f19603f3d011682016040523d82523d6000602084013e612567565b606091505b50915091506114b682826040518060600160405280602781526020016137e960279139612741565b6001600160a01b0384166125ef5760405162461bcd60e51b815260206004820152602160248201527f455243313135353a206d696e7420746f20746865207a65726f206164647265736044820152607360f81b6064820152608401610715565b60006125f961173a565b905061260b8160008761154a88611f88565b600084815260cc602090815260408083206001600160a01b03891684529091528120805485929061263d908490613552565b909155505060408051858152602081018590526001600160a01b0380881692600092918516916000805160206137a9833981519152910160405180910390a461155381600087878787611fe1565b600354600160a81b900460ff16806126ad5750600354600160a01b900460ff16155b6126c95760405162461bcd60e51b815260040161071590613461565b600354600160a81b900460ff161580156126f3576003805461ffff60a01b191661010160a01b1790555b6126fb61277a565b61270361277a565b611d2f826127f7565b611f27612868565b611f276128e8565b600061272733610f3d565b15612739575060131936013560601c90565b503390565b90565b60608315612750575081611487565b8251156127605782518084602001fd5b8160405162461bcd60e51b81526004016107159190613378565b600354600160a81b900460ff168061279c5750600354600160a01b900460ff16155b6127b85760405162461bcd60e51b815260040161071590613461565b600354600160a81b900460ff16158015611e5f576003805461ffff60a01b191661010160a01b179055801561080e576003805460ff60a81b1916905550565b600354600160a81b900460ff16806128195750600354600160a01b900460ff16155b6128355760405162461bcd60e51b815260040161071590613461565b600354600160a81b900460ff1615801561285f576003805461ffff60a01b191661010160a01b1790555b611d2f82611749565b600354600160a81b900460ff168061288a5750600354600160a01b900460ff16155b6128a65760405162461bcd60e51b815260040161071590613461565b600354600160a81b900460ff161580156128d0576003805461ffff60a01b191661010160a01b1790555b6128d861277a565b6128e061277a565b611e5f61277a565b6128f0612903565b6128f8612868565b611f27600033611f29565b600354600160a81b900460ff16806129255750600354600160a01b900460ff16155b6129415760405162461bcd60e51b815260040161071590613461565b600354600160a81b900460ff161580156128d8576003805461ffff60a01b191661010160a01b1790556128e061277a565b82805461297e9061360b565b90600052602060002090601f0160209004810192826129a057600085556129e6565b82601f106129b957805160ff19168380011785556129e6565b828001600101855582156129e6579182015b828111156129e65782518255916020019190600101906129cb565b506129f29291506129f6565b5090565b5b808211156129f257600081556001016129f7565b8035612a168161377d565b919050565b600082601f830112612a2b578081fd5b81356020612a388261352f565b604051612a458282613646565b8381528281019150858301600585901b87018401881015612a64578586fd5b855b85811015612a8257813584529284019290840190600101612a66565b5090979650505050505050565b600082601f830112612a9f578081fd5b81356001600160401b03811115612ab857612ab86136c7565b604051612acf601f8301601f191660200182613646565b818152846020838601011115612ae3578283fd5b816020850160208301379081016020019190915292915050565b80356001600160401b0381168114612a1657600080fd5b600060208284031215612b25578081fd5b81356114878161377d565b60008060408385031215612b42578081fd5b8235612b4d8161377d565b91506020830135612b5d8161377d565b809150509250929050565b600080600080600060a08688031215612b7f578081fd5b8535612b8a8161377d565b94506020860135612b9a8161377d565b935060408601356001600160401b0380821115612bb5578283fd5b612bc189838a01612a1b565b94506060880135915080821115612bd6578283fd5b612be289838a01612a1b565b93506080880135915080821115612bf7578283fd5b50612c0488828901612a8f565b9150509295509295909350565b600080600080600080600060e0888a031215612c2b578182fd5b8735612c368161377d565b96506020880135612c468161377d565b955060408801356001600160401b0380821115612c61578384fd5b612c6d8b838c01612a8f565b965060608a0135915080821115612c82578384fd5b612c8e8b838c01612a8f565b955060808a0135915080821115612ca3578384fd5b50612cb08a828b01612a8f565b935050612cbf60a08901612a0b565b9150612ccd60c08901612a0b565b905092959891949750929550565b60008060008060808587031215612cf0578182fd5b8435612cfb8161377d565b93506020850135612d0b8161377d565b93969395505050506040820135916060013590565b600080600080600060a08688031215612d37578283fd5b8535612d428161377d565b94506020860135612d528161377d565b9350604086013592506060860135915060808601356001600160401b03811115612d7a578182fd5b612c0488828901612a8f565b60008060408385031215612d98578182fd5b8235612da38161377d565b915060208301358015158114612b5d578182fd5b60008060408385031215612dc9578182fd5b8235612dd48161377d565b915060208301356001600160401b03811115612dee578182fd5b612dfa85828601612a8f565b9150509250929050565b60008060408385031215612e16578182fd5b8235612e218161377d565b946020939093013593505050565b60008060008060008060c08789031215612e47578384fd5b8635612e528161377d565b955060208701359450604087013593506060870135612e708161377d565b9598949750929560808101359460a0909101359350915050565b60008060008060008060c08789031215612ea2578384fd5b8651612ead8161377d565b8096505060208701519450604087015193506060870151612ecd8161377d565b809350506080870151915060a087015190509295509295509295565b600080600060608486031215612efd578081fd5b8335612f088161377d565b9250612f1660208501612afd565b915060408401356001600160401b03811115612f30578182fd5b612f3c86828701612a8f565b9150509250925092565b60008060408385031215612f58578182fd5b82356001600160401b0380821115612f6e578384fd5b818501915085601f830112612f81578384fd5b81356020612f8e8261352f565b604051612f9b8282613646565b8381528281019150858301600585901b870184018b1015612fba578889fd5b8896505b84871015612fe5578035612fd18161377d565b835260019690960195918301918301612fbe565b5096505086013592505080821115612ffb578283fd5b50612dfa85828601612a1b565b600060208284031215613019578081fd5b5035919050565b60008060408385031215613032578182fd5b823591506020830135612b5d8161377d565b600060208284031215613055578081fd5b813561148781613792565b600060208284031215613071578081fd5b815161148781613792565b60006020828403121561308d578081fd5b81356001600160401b038111156130a2578182fd5b610f8684828501612a8f565b6000806000604084860312156130c2578081fd5b8335925060208401356001600160401b03808211156130df578283fd5b818601915086601f8301126130f2578283fd5b813581811115613100578384fd5b876020828501011115613111578384fd5b6020830194508093505050509250925092565b60008060008060808587031215613139578182fd5b505082516020840151604085015160609095015191969095509092509050565b60006020828403121561316a578081fd5b813563ffffffff81168114611487578182fd5b6000806040838503121561318f578182fd5b612dd483612afd565b6000815180845260208085019450808401835b838110156131c7578151875295820195908201906001016131ab565b509495945050505050565b600081518084526131ea8160208601602086016135c8565b601f01601f19169290920160200192915050565b600082516132108184602087016135c8565b9190910192915050565b76020b1b1b2b9b9a1b7b73a3937b61d1030b1b1b7bab73a1604d1b81526000835161324c8160178501602088016135c8565b7001034b99036b4b9b9b4b733903937b6329607d1b601791840191820152835161327d8160288401602088016135c8565b01602801949350505050565b6001600160a01b0391909116815260200190565b6001600160a01b0386811682528516602082015260a0604082018190526000906132c990830186613198565b82810360608401526132db8186613198565b905082810360808401526132ef81856131d2565b98975050505050505050565b6001600160a01b03868116825285166020820152604081018490526060810183905260a060808201819052600090613335908301846131d2565b979650505050505050565b6020815260006114876020830184613198565b6040815260006133666040830185613198565b82810360208401526114b68185613198565b60208152600061148760208301846131d2565b60208082526028908201527f455243313135353a204552433131353552656365697665722072656a656374656040820152676420746f6b656e7360c01b606082015260800190565b60208082526029908201527f455243313135353a2063616c6c6572206973206e6f74206f776e6572206e6f7260408201526808185c1c1c9bdd995960ba1b606082015260800190565b60208082526025908201527f455243313135353a207472616e7366657220746f20746865207a65726f206164604082015264647265737360d81b606082015260800190565b6020808252602e908201527f496e697469616c697a61626c653a20636f6e747261637420697320616c72656160408201526d191e481a5b9a5d1a585b1a5e995960921b606082015260800190565b6020808252602a908201527f455243313135353a20696e73756666696369656e742062616c616e636520666f60408201526939103a3930b739b332b960b11b606082015260800190565b83815260406020820152816040820152818360608301376000818301606090810191909152601f909201601f1916010192915050565b60006001600160401b03821115613548576135486136c7565b5060051b60200190565b60008219821115613565576135656136b1565b500190565b600063ffffffff808316818516808303821115613589576135896136b1565b01949350505050565b60008160001904831182151516156135ac576135ac6136b1565b500290565b6000828210156135c3576135c36136b1565b500390565b60005b838110156135e35781810151838201526020016135cb565b8381111561171a5750506000910152565b600081613603576136036136b1565b506000190190565b600181811c9082168061361f57607f821691505b6020821081141561364057634e487b7160e01b600052602260045260246000fd5b50919050565b601f8201601f191681016001600160401b038111828210171561366b5761366b6136c7565b6040525050565b6000600019821415613686576136866136b1565b5060010190565b600063ffffffff808316818114156136a7576136a76136b1565b6001019392505050565b634e487b7160e01b600052601160045260246000fd5b634e487b7160e01b600052604160045260246000fd5b600060033d111561273e57600481823e5160e01c90565b600060443d10156137025790565b6040516003193d81016004833e81513d6001600160401b03808311602484018310171561373157505050505090565b82850191508151818111156137495750505050505090565b843d87010160208285010111156137635750505050505090565b61377260208286010187613646565b509095945050505050565b6001600160a01b038116811461080e57600080fd5b6001600160e01b03198116811461080e57600080fdfec3d58168c5ae7397731d063d5bbf3d657854427343f4c083240f7aacaa2d0f62360894a13ba1a3210667c828492db98dca3e2076cc3735a920a3ca505d382bbc416464726573733a206c6f772d6c6576656c2064656c65676174652063616c6c206661696c6564592c958fd52390f51665f668ae132c07938e885cabed2dc56aba7c2b264880953d2e894c222ba979e2dce2c7d940c0e9bb14306669e9f034eb1bb3979a2069d8626f510646502d065065e8bd550325973a611a32e6f6ddff40650005cb13636868747470733a2f2f6170692e66726565706f72742e636572652e6e6574776f726b2f657263313135352f7b69647d2e6a736f6ea2646970667358221220a61ff74bc618e0af53b2225855cd92090de669dae2a9c701e1bb045316439dbc64736f6c63430008040033",
  "immutableReferences": {},
  "source": "pragma solidity ^0.8.0;\n\nimport \"./freeportParts/collections/CollectionRoyalties.sol\";\nimport \"./freeportParts/collections/CollectionIssuance.sol\";\nimport \"./freeportParts/collections/CollectionNFTAttachment.sol\";\nimport \"./freeportParts/OpenSeaCollection.sol\";\nimport \"./freeportParts/BaseTransferOperator.sol\";\n\n\n/** This this contract describes the collection of NFTs associated with a particular user.\n *\n */\ncontract Collection is OpenSeaCollection, CollectionRoyalties, CollectionIssuance, CollectionNFTAttachment, BaseTransferOperator, BaseNFT {\n    function initialize(address admin, address manager, string memory _name, string memory _uri, string memory __contractURI, Freeport _freeport, NFTAttachment _nftAttachment) public initializer {\n        __OpenSeaCollection_init(_name, __contractURI);\n        __CollectionRoyalties_init(_freeport);\n        __CollectionNFTAttachment_init(_nftAttachment);\n        __CollectionIssuance_init();\n        __BaseTransferOperator_init();\n        __BaseNFT_init();\n        if (bytes(_uri).length == 0) _setURI(_uri);\n\n        _setupRole(DEFAULT_ADMIN_ROLE, admin);\n        _setupRole(COLLECTION_MANAGER_ROLE, manager);\n    }\n\n    /**\n     * @dev See {IERC165-supportsInterface}.\n     */\n    function supportsInterface(bytes4 interfaceId) public view virtual override(CollectionIssuance, BaseTransferOperator, BaseNFT, AccessControlUpgradeable) returns (bool) {\n        return interfaceId == type(CollectionIssuance).interfaceId\n        || interfaceId == type(BaseTransferOperator).interfaceId\n        || interfaceId == type(BaseNFT).interfaceId\n        || interfaceId == type(AccessControlUpgradeable).interfaceId\n        || super.supportsInterface(interfaceId);\n    }\n\n    // Enable the implementation of meta transactions (ERC2771).\n    function _msgSender() internal view virtual override(BaseNFT, ContextUpgradeable) returns (address sender) {\n        return super._msgSender();\n    }\n\n    // Enable the implementation of meta transactions (ERC2771).\n    function _msgData() internal view virtual override(BaseNFT, ContextUpgradeable) returns (bytes calldata) {\n        return super._msgData();\n    }\n\n    function isApprovedForAll(address account, address operator)\n    public view virtual override(BaseTransferOperator, ERC1155Upgradeable) returns (bool) {\n        return super.isApprovedForAll(account, operator);\n    }\n}\n",
  "sourcePath": "/Users/neanvo/WorkFlow/cere/Freeport-Smart-Contracts/contracts/Collection.sol",
  "compiler": {
    "name": "solc",
    "version": "0.8.4+commit.c7e474f2.Emscripten.clang"
  },
  "schemaVersion": "3.4.8",
  "updatedAt": "2022-07-15T15:24:50.584Z",
  "devdoc": {
    "kind": "dev",
    "methods": {
      "balanceOf(address,uint256)": {
        "details": "See {IERC1155-balanceOf}. Requirements: - `account` cannot be the zero address."
      },
      "balanceOfBatch(address[],uint256[])": {
        "details": "See {IERC1155-balanceOfBatch}. Requirements: - `accounts` and `ids` must have the same length."
      },
      "getRoleAdmin(bytes32)": {
        "details": "Returns the admin role that controls `role`. See {grantRole} and {revokeRole}. To change a role's admin, use {_setRoleAdmin}."
      },
      "grantRole(bytes32,address)": {
        "details": "Grants `role` to `account`. If `account` had not been already granted `role`, emits a {RoleGranted} event. Requirements: - the caller must have ``role``'s admin role."
      },
      "hasRole(bytes32,address)": {
        "details": "Returns `true` if `account` has been granted `role`."
      },
      "renounceRole(bytes32,address)": {
        "details": "Revokes `role` from the calling account. Roles are often managed via {grantRole} and {revokeRole}: this function's purpose is to provide a mechanism for accounts to lose their privileges if they are compromised (such as when a trusted device is misplaced). If the calling account had been granted `role`, emits a {RoleRevoked} event. Requirements: - the caller must be `account`."
      },
      "revokeRole(bytes32,address)": {
        "details": "Revokes `role` from `account`. If `account` had been granted `role`, emits a {RoleRevoked} event. Requirements: - the caller must have ``role``'s admin role."
      },
      "safeBatchTransferFrom(address,address,uint256[],uint256[],bytes)": {
        "details": "See {IERC1155-safeBatchTransferFrom}."
      },
      "safeTransferFrom(address,address,uint256,uint256,bytes)": {
        "details": "See {IERC1155-safeTransferFrom}."
      },
      "setApprovalForAll(address,bool)": {
        "details": "See {IERC1155-setApprovalForAll}."
      },
      "supportsInterface(bytes4)": {
        "details": "See {IERC165-supportsInterface}."
      },
      "uri(uint256)": {
        "details": "See {IERC1155MetadataURI-uri}. This implementation returns the same URI for *all* token types. It relies on the token type ID substitution mechanism https://eips.ethereum.org/EIPS/eip-1155#metadata[defined in the EIP]. Clients calling this function must replace the `\\{id\\}` substring with the actual token type ID."
      }
    },
    "version": 1
  },
  "userdoc": {
    "kind": "user",
    "methods": {
      "COLLECTION_MANAGER_ROLE()": {
        "notice": "Collection manager role.  Used for configuring the amounts and beneficiaries of royalties on primary and secondary transfers of this NFT."
      },
      "anonymAttachToNFT(uint256,bytes)": {
        "notice": "Attach data `attachment` to the collection NFT with specific inner NFT id."
      },
      "getGlobalNftId(uint32)": {
        "notice": "Calculate the global ID of an NFT type, identifying its inner nft id."
      },
      "getRoyalties()": {
        "notice": "Return the current configuration of royalties for all NFTs of the collection."
      },
      "getRoyaltiesForBeneficiary(address)": {
        "notice": "Return the amount of royalties earned by a beneficiary on each primary and secondary transfer of an NFT. This function supports Joint Accounts. If royalties are paid to a JA and beneficiary is an owner of the JA, the shares of the royalties for this owner are returned."
      },
      "idCounter()": {
        "notice": "A counter of NFT types. This is used to generate unique NFT IDs."
      },
      "issue(uint64,bytes)": {
        "notice": "Issue a supply of NFTs of a new type, and return its ID. No more NFT of this type can be issued again. The caller will be recorded as the issuer and it will initially own the entire supply."
      },
      "issueOnBehalfOf(address,uint64,bytes)": {
        "notice": "Issue a supply of NFTs of a new type on behalf of minter, and return its ID. No more NFT of this type can be issued again. The caller will be recorded as the issuer and it will initially own the entire supply. Only for collection manager role."
      },
      "minterAttachToNFT(uint256,bytes)": {
        "notice": "Attach data `attachment` to the collection NFT with specific inner NFT id, as the minter of this NFT type. This only works for NFT IDs in the Freeport format."
      },
      "setupRoyaltyConfiguration(address,uint256,uint256,address,uint256,uint256)": {
        "notice": "Configure the amounts and beneficiaries of royalties on primary and secondary transfers of this NFT.  Delegating to Freeport implementation."
      },
      "transferFrom(address,address,uint256,uint256)": {
        "notice": "transferFrom performs a simple transfer, without calling the hooks  (no _beforeTokenTransfer and no onERC1155Received)."
      }
    },
    "notice": "This this contract describes the collection of NFTs associated with a particular user.",
    "version": 1
  }
}