{
  "contractName": "CollectionFactory",
  "abi": [
    {
      "anonymous": false,
      "inputs": [
        {
          "indexed": false,
          "internalType": "address",
          "name": "previousAdmin",
          "type": "address"
        },
        {
          "indexed": false,
          "internalType": "address",
          "name": "newAdmin",
          "type": "address"
        }
      ],
      "name": "AdminChanged",
      "type": "event"
    },
    {
      "anonymous": false,
      "inputs": [
        {
          "indexed": true,
          "internalType": "address",
          "name": "beacon",
          "type": "address"
        }
      ],
      "name": "BeaconUpgraded",
      "type": "event"
    },
    {
      "anonymous": false,
      "inputs": [
        {
          "indexed": false,
          "internalType": "string",
          "name": "name",
          "type": "string"
        },
        {
          "indexed": true,
          "internalType": "address",
          "name": "addr",
          "type": "address"
        }
      ],
      "name": "CollectionCreated",
      "type": "event"
    },
    {
      "anonymous": false,
      "inputs": [
        {
          "indexed": false,
          "internalType": "address",
          "name": "_operator",
          "type": "address"
        },
        {
          "indexed": false,
          "internalType": "address",
          "name": "_collection",
          "type": "address"
        },
        {
          "indexed": false,
          "internalType": "address",
          "name": "_holder",
          "type": "address"
        },
        {
          "indexed": false,
          "internalType": "uint256",
          "name": "_id",
          "type": "uint256"
        },
        {
          "indexed": false,
          "internalType": "uint64",
          "name": "_amount",
          "type": "uint64"
        }
      ],
      "name": "MintOnBehalf",
      "type": "event"
    },
    {
      "anonymous": false,
      "inputs": [
        {
          "indexed": true,
          "internalType": "bytes32",
          "name": "role",
          "type": "bytes32"
        },
        {
          "indexed": true,
          "internalType": "bytes32",
          "name": "previousAdminRole",
          "type": "bytes32"
        },
        {
          "indexed": true,
          "internalType": "bytes32",
          "name": "newAdminRole",
          "type": "bytes32"
        }
      ],
      "name": "RoleAdminChanged",
      "type": "event"
    },
    {
      "anonymous": false,
      "inputs": [
        {
          "indexed": true,
          "internalType": "bytes32",
          "name": "role",
          "type": "bytes32"
        },
        {
          "indexed": true,
          "internalType": "address",
          "name": "account",
          "type": "address"
        },
        {
          "indexed": true,
          "internalType": "address",
          "name": "sender",
          "type": "address"
        }
      ],
      "name": "RoleGranted",
      "type": "event"
    },
    {
      "anonymous": false,
      "inputs": [
        {
          "indexed": true,
          "internalType": "bytes32",
          "name": "role",
          "type": "bytes32"
        },
        {
          "indexed": true,
          "internalType": "address",
          "name": "account",
          "type": "address"
        },
        {
          "indexed": true,
          "internalType": "address",
          "name": "sender",
          "type": "address"
        }
      ],
      "name": "RoleRevoked",
      "type": "event"
    },
    {
      "anonymous": false,
      "inputs": [
        {
          "indexed": true,
          "internalType": "address",
          "name": "implementation",
          "type": "address"
        }
      ],
      "name": "Upgraded",
      "type": "event"
    },
    {
      "inputs": [],
      "name": "COLLECTION_CREATOR_ROLE",
      "outputs": [
        {
          "internalType": "bytes32",
          "name": "",
          "type": "bytes32"
        }
      ],
      "stateMutability": "view",
      "type": "function"
    },
    {
      "inputs": [],
      "name": "COLLECTION_MANAGER_ROLE",
      "outputs": [
        {
          "internalType": "bytes32",
          "name": "",
          "type": "bytes32"
        }
      ],
      "stateMutability": "view",
      "type": "function"
    },
    {
      "inputs": [],
      "name": "DEFAULT_ADMIN_ROLE",
      "outputs": [
        {
          "internalType": "bytes32",
          "name": "",
          "type": "bytes32"
        }
      ],
      "stateMutability": "view",
      "type": "function"
    },
    {
      "inputs": [],
      "name": "META_TX_FORWARDER",
      "outputs": [
        {
          "internalType": "bytes32",
          "name": "",
          "type": "bytes32"
        }
      ],
      "stateMutability": "view",
      "type": "function"
    },
    {
      "inputs": [],
      "name": "auction",
      "outputs": [
        {
          "internalType": "contract Auction",
          "name": "",
          "type": "address"
        }
      ],
      "stateMutability": "view",
      "type": "function"
    },
    {
      "inputs": [],
      "name": "freeport",
      "outputs": [
        {
          "internalType": "contract Freeport",
          "name": "",
          "type": "address"
        }
      ],
      "stateMutability": "view",
      "type": "function"
    },
    {
      "inputs": [
        {
          "internalType": "bytes32",
          "name": "role",
          "type": "bytes32"
        }
      ],
      "name": "getRoleAdmin",
      "outputs": [
        {
          "internalType": "bytes32",
          "name": "",
          "type": "bytes32"
        }
      ],
      "stateMutability": "view",
      "type": "function"
    },
    {
      "inputs": [
        {
          "internalType": "bytes32",
          "name": "role",
          "type": "bytes32"
        },
        {
          "internalType": "address",
          "name": "account",
          "type": "address"
        }
      ],
      "name": "grantRole",
      "outputs": [],
      "stateMutability": "nonpayable",
      "type": "function"
    },
    {
      "inputs": [
        {
          "internalType": "bytes32",
          "name": "role",
          "type": "bytes32"
        },
        {
          "internalType": "address",
          "name": "account",
          "type": "address"
        }
      ],
      "name": "hasRole",
      "outputs": [
        {
          "internalType": "bool",
          "name": "",
          "type": "bool"
        }
      ],
      "stateMutability": "view",
      "type": "function"
    },
    {
      "inputs": [
        {
          "internalType": "address",
          "name": "forwarder",
          "type": "address"
        }
      ],
      "name": "isTrustedForwarder",
      "outputs": [
        {
          "internalType": "bool",
          "name": "",
          "type": "bool"
        }
      ],
      "stateMutability": "view",
      "type": "function"
    },
    {
      "inputs": [],
      "name": "marketplace",
      "outputs": [
        {
          "internalType": "contract Marketplace",
          "name": "",
          "type": "address"
        }
      ],
      "stateMutability": "view",
      "type": "function"
    },
    {
      "inputs": [],
      "name": "nftAttachment",
      "outputs": [
        {
          "internalType": "contract NFTAttachment",
          "name": "",
          "type": "address"
        }
      ],
      "stateMutability": "view",
      "type": "function"
    },
    {
      "inputs": [
        {
          "internalType": "bytes32",
          "name": "role",
          "type": "bytes32"
        },
        {
          "internalType": "address",
          "name": "account",
          "type": "address"
        }
      ],
      "name": "renounceRole",
      "outputs": [],
      "stateMutability": "nonpayable",
      "type": "function"
    },
    {
      "inputs": [
        {
          "internalType": "bytes32",
          "name": "role",
          "type": "bytes32"
        },
        {
          "internalType": "address",
          "name": "account",
          "type": "address"
        }
      ],
      "name": "revokeRole",
      "outputs": [],
      "stateMutability": "nonpayable",
      "type": "function"
    },
    {
      "inputs": [
        {
          "internalType": "bytes4",
          "name": "interfaceId",
          "type": "bytes4"
        }
      ],
      "name": "supportsInterface",
      "outputs": [
        {
          "internalType": "bool",
          "name": "",
          "type": "bool"
        }
      ],
      "stateMutability": "view",
      "type": "function"
    },
    {
      "inputs": [
        {
          "internalType": "address",
          "name": "newImplementation",
          "type": "address"
        }
      ],
      "name": "upgradeTo",
      "outputs": [],
      "stateMutability": "nonpayable",
      "type": "function"
    },
    {
      "inputs": [
        {
          "internalType": "address",
          "name": "newImplementation",
          "type": "address"
        },
        {
          "internalType": "bytes",
          "name": "data",
          "type": "bytes"
        }
      ],
      "name": "upgradeToAndCall",
      "outputs": [],
      "stateMutability": "payable",
      "type": "function"
    },
    {
      "inputs": [
        {
          "internalType": "contract Freeport",
          "name": "_freeport",
          "type": "address"
        },
        {
          "internalType": "contract NFTAttachment",
          "name": "_nftAttachment",
          "type": "address"
        },
        {
          "internalType": "contract Marketplace",
          "name": "_marketplace",
          "type": "address"
        },
        {
          "internalType": "contract Auction",
          "name": "_auction",
          "type": "address"
        }
      ],
      "name": "initialize",
      "outputs": [],
      "stateMutability": "nonpayable",
      "type": "function"
    },
    {
      "inputs": [
        {
          "internalType": "address",
          "name": "collectionManager",
          "type": "address"
        },
        {
          "internalType": "string",
          "name": "name",
          "type": "string"
        },
        {
          "internalType": "string",
          "name": "uriTpl",
          "type": "string"
        },
        {
          "internalType": "string",
          "name": "contractURI",
          "type": "string"
        }
      ],
      "name": "createCollection",
      "outputs": [
        {
          "internalType": "address",
          "name": "",
          "type": "address"
        }
      ],
      "stateMutability": "nonpayable",
      "type": "function"
    },
    {
      "inputs": [
        {
          "internalType": "address",
          "name": "collection",
          "type": "address"
        },
        {
          "internalType": "address",
          "name": "holder",
          "type": "address"
        },
        {
          "internalType": "uint64",
          "name": "supply",
          "type": "uint64"
        },
        {
          "internalType": "bytes",
          "name": "data",
          "type": "bytes"
        }
      ],
      "name": "mintOnBehalf",
      "outputs": [],
      "stateMutability": "nonpayable",
      "type": "function"
    }
  ],
  "bytecode": "0x608060405234801561001057600080fd5b50615425806100206000396000f3fe6080604052600436106100ef5760003560e01c806301ffc9a7146100f457806311ec5868146101295780632210023d14610156578063248a9ca3146101865780632f2ff15d146101a657806336568abe146101c85780633659cfe6146101e85780633df17453146102085780634f1ef28614610228578063572b6c051461023b5780636a4e7e731461025b5780637d9f6db51461027b57806391d148541461029b5780639470ad85146102bb5780639a86e8ce146102db578063a217fddf146102fd578063abc8c7af14610312578063caff99ce14610332578063d547741f14610366578063f8c8765e14610386575b600080fd5b34801561010057600080fd5b5061011461010f366004611509565b6103a6565b60405190151581526020015b60405180910390f35b34801561013557600080fd5b5060fd54610149906001600160a01b031681565b604051610120919061165b565b34801561016257600080fd5b506101786000805160206153b083398151915281565b604051908152602001610120565b34801561019257600080fd5b506101786101a13660046114c2565b6103dd565b3480156101b257600080fd5b506101c66101c13660046114da565b6103f2565b005b3480156101d457600080fd5b506101c66101e33660046114da565b61041b565b3480156101f457600080fd5b506101c6610203366004611342565b6104ae565b34801561021457600080fd5b50610149610223366004611425565b6104d5565b6101c66102363660046113d8565b61071c565b34801561024757600080fd5b50610114610256366004611342565b610731565b34801561026757600080fd5b506101c661027636600461135e565b61074b565b34801561028757600080fd5b5060ff54610149906001600160a01b031681565b3480156102a757600080fd5b506101146102b63660046114da565b610924565b3480156102c757600080fd5b5060fc54610149906001600160a01b031681565b3480156102e757600080fd5b506101786000805160206153d083398151915281565b34801561030957600080fd5b50610178600081565b34801561031e57600080fd5b5060fe54610149906001600160a01b031681565b34801561033e57600080fd5b506101787fe926d122b799dcbe5c2eccdf60ae0aefbb1a4bc75a7848bb07befecf8c775f5c81565b34801561037257600080fd5b506101c66103813660046114da565b61094f565b34801561039257600080fd5b506101c66103a1366004611531565b61096e565b60006001600160e01b03198216637965db0b60e01b14806103d757506301ffc9a760e01b6001600160e01b03198316145b92915050565b600090815260c9602052604090206001015490565b6103fb826103dd565b61040c81610407610a30565b610a52565b6104168383610ab6565b505050565b610423610a30565b6001600160a01b0316816001600160a01b0316146104a05760405162461bcd60e51b815260206004820152602f60248201527f416363657373436f6e74726f6c3a2063616e206f6e6c792072656e6f756e636560448201526e103937b632b9903337b91039b2b63360891b60648201526084015b60405180910390fd5b6104aa8282610b3d565b5050565b6104b781610bc2565b6104d281604051806020016040528060008152506000610c06565b50565b60006001600160a01b03851661052d5760405162461bcd60e51b815260206004820152601f60248201527f7a65726f206164647265737320636f6c6c656374696f6e206d616e61676572006044820152606401610497565b60006001600160a01b031660fb8560405161054891906115d0565b908152604051908190036020019020546001600160a01b0316146105ae5760405162461bcd60e51b815260206004820152601e60248201527f636f6c6c656374696f6e206e616d6520616c72656164792065786973747300006044820152606401610497565b60006040516105bc906112af565b604051809103906000f0801580156105d8573d6000803e3d6000fd5b5060fc5460fd5460fe5460ff54604051637a7ff41160e11b81529495506001600160a01b038087169563f4ffe8229561062a9530958f958f958f958f958216948216938216929091169060040161166f565b600060405180830381600087803b15801561064457600080fd5b505af1158015610658573d6000803e3d6000fd5b5050610101805460009081526101006020526040902080546001600160a01b0319166001600160a01b0386161790555483925061069791506001611786565b61010155604051829060fb906106ae9089906115d0565b90815260405190819003602001812080546001600160a01b039384166001600160a01b0319909116179055908316907f2660dd916ec25bcad9a3dd62c721e438ec0e975817265c1e03c2639b24ac70079061070a908990611725565b60405180910390a25095945050505050565b61072582610bc2565b6104aa82826001610c06565b60006103d76000805160206153d083398151915283610924565b6000610755610a30565b604051632474521560e21b81526000805160206153b083398151915260048201526001600160a01b038083166024830152919250908616906391d148549060440160206040518083038186803b1580156107ae57600080fd5b505afa1580156107c2573d6000803e3d6000fd5b505050506040513d601f19601f820116820180604052508101906107e691906114a2565b6108325760405162461bcd60e51b815260206004820181905260248201527f73656e646572206973206e6f7420636f6c6c656374696f6e206d616e616765726044820152606401610497565b60405163eae6bf7f60e01b81526000906001600160a01b0387169063eae6bf7f90610865908890889088906004016116f2565b602060405180830381600087803b15801561087f57600080fd5b505af1158015610893573d6000803e3d6000fd5b505050506040513d601f19601f820116820180604052508101906108b7919061158c565b604080516001600160a01b0385811682528981166020830152881681830152606081018390526001600160401b038716608082015290519192507fc374fe64f912505e324ebcdfddeec8e13cacc40cfd16e03bfdb9efdedef9e221919081900360a00190a1505050505050565b600091825260c9602090815260408084206001600160a01b0393909316845291905290205460ff1690565b610958826103dd565b61096481610407610a30565b6104168383610b3d565b600054610100900460ff1680610987575060005460ff16155b6109a35760405162461bcd60e51b815260040161049790611738565b600054610100900460ff161580156109c5576000805461ffff19166101011790555b6109cd610d81565b60fc80546001600160a01b038088166001600160a01b03199283161790925560fd805487841690831617905560fe805486841690831617905560ff8054928516929091169190911790558015610a29576000805461ff00191690555b5050505050565b6000610a3b33610731565b15610a4d575060131936013560601c90565b503390565b610a5c8282610924565b6104aa57610a74816001600160a01b03166014610d8b565b610a7f836020610d8b565b604051602001610a909291906115ec565b60408051601f198184030181529082905262461bcd60e51b825261049791600401611725565b610ac08282610924565b6104aa57600082815260c9602090815260408083206001600160a01b03851684529091529020805460ff19166001179055610af9610a30565b6001600160a01b0316816001600160a01b0316837f2f8788117e7eff1d82e926ec794901d17c78024a50270940304540a733656f0d60405160405180910390a45050565b610b478282610924565b156104aa57600082815260c9602090815260408083206001600160a01b03851684529091529020805460ff19169055610b7e610a30565b6001600160a01b0316816001600160a01b0316837ff6391f5c32d9c69d2a47ea670b442974b53935d1edc7fd64eb21e047a839171b60405160405180910390a45050565b610bcd600033610924565b6104d25760405162461bcd60e51b815260206004820152600a60248201526927b7363c9020b236b4b760b11b6044820152606401610497565b6000610c10610f73565b9050610c1b84610f8f565b600083511180610c285750815b15610c3957610c378484611022565b505b7f4910fdfa16fed3260ed0e7147f7cc6da11a60208b5b9406d12a635614ffd9143805460ff16610a2957805460ff19166001178155604051610cb4908690610c8590859060240161165b565b60408051601f198184030181529190526020810180516001600160e01b0316631b2ce7f360e11b179052611022565b50805460ff19168155610cc5610f73565b6001600160a01b0316826001600160a01b031614610d3d5760405162461bcd60e51b815260206004820152602f60248201527f45524331393637557067726164653a207570677261646520627265616b73206660448201526e75727468657220757067726164657360881b6064820152608401610497565b610d4685610f8f565b6040516001600160a01b038616907fbc7cd75a20ee27fd9adebab32041f755214dbc6bffa90cc0225b39da2e5c2d3b90600090a25050505050565b610d8961110d565b565b60606000610d9a83600261179e565b610da5906002611786565b6001600160401b03811115610dca57634e487b7160e01b600052604160045260246000fd5b6040519080825280601f01601f191660200182016040528015610df4576020820181803683370190505b509050600360fc1b81600081518110610e1d57634e487b7160e01b600052603260045260246000fd5b60200101906001600160f81b031916908160001a905350600f60fb1b81600181518110610e5a57634e487b7160e01b600052603260045260246000fd5b60200101906001600160f81b031916908160001a9053506000610e7e84600261179e565b610e89906001611786565b90505b6001811115610f1d576f181899199a1a9b1b9c1cb0b131b232b360811b85600f1660108110610ecb57634e487b7160e01b600052603260045260246000fd5b1a60f81b828281518110610eef57634e487b7160e01b600052603260045260246000fd5b60200101906001600160f81b031916908160001a90535060049490941c93610f16816117ed565b9050610e8c565b508315610f6c5760405162461bcd60e51b815260206004820181905260248201527f537472696e67733a20686578206c656e67746820696e73756666696369656e746044820152606401610497565b9392505050565b600080516020615369833981519152546001600160a01b031690565b803b610ff35760405162461bcd60e51b815260206004820152602d60248201527f455243313936373a206e657720696d706c656d656e746174696f6e206973206e60448201526c1bdd08184818dbdb9d1c9858dd609a1b6064820152608401610497565b60008051602061536983398151915280546001600160a01b0319166001600160a01b0392909216919091179055565b6060823b6110815760405162461bcd60e51b815260206004820152602660248201527f416464726573733a2064656c65676174652063616c6c20746f206e6f6e2d636f6044820152651b9d1c9858dd60d21b6064820152608401610497565b600080846001600160a01b03168460405161109c91906115d0565b600060405180830381855af49150503d80600081146110d7576040519150601f19603f3d011682016040523d82523d6000602084013e6110dc565b606091505b5091509150611104828260405180606001604052806027815260200161538960279139611128565b95945050505050565b611115611161565b61111d6111dc565b610d8960003361123b565b60608315611137575081610f6c565b8251156111475782518084602001fd5b8160405162461bcd60e51b81526004016104979190611725565b600054610100900460ff168061117a575060005460ff16155b6111965760405162461bcd60e51b815260040161049790611738565b600054610100900460ff161580156111b8576000805461ffff19166101011790555b6111c0611245565b6111c8611245565b80156104d2576000805461ff001916905550565b600054610100900460ff16806111f5575060005460ff16155b6112115760405162461bcd60e51b815260040161049790611738565b600054610100900460ff16158015611233576000805461ffff19166101011790555b6111b8611245565b6104aa8282610ab6565b600054610100900460ff168061125e575060005460ff16155b61127a5760405162461bcd60e51b815260040161049790611738565b600054610100900460ff161580156111c8576000805461ffff191661010117905580156104d2576000805461ff001916905550565b613b238061184683390190565b600082601f8301126112cc578081fd5b81356001600160401b03808211156112e6576112e661181a565b604051601f8301601f19908116603f0116810190828211818310171561130e5761130e61181a565b81604052838152866020858801011115611326578485fd5b8360208701602083013792830160200193909352509392505050565b600060208284031215611353578081fd5b8135610f6c81611830565b60008060008060808587031215611373578283fd5b843561137e81611830565b9350602085013561138e81611830565b925060408501356001600160401b0380821682146113aa578384fd5b909250606086013590808211156113bf578283fd5b506113cc878288016112bc565b91505092959194509250565b600080604083850312156113ea578182fd5b82356113f581611830565b915060208301356001600160401b0381111561140f578182fd5b61141b858286016112bc565b9150509250929050565b6000806000806080858703121561143a578384fd5b843561144581611830565b935060208501356001600160401b0380821115611460578485fd5b61146c888389016112bc565b94506040870135915080821115611481578384fd5b61148d888389016112bc565b935060608701359150808211156113bf578283fd5b6000602082840312156114b3578081fd5b81518015158114610f6c578182fd5b6000602082840312156114d3578081fd5b5035919050565b600080604083850312156114ec578182fd5b8235915060208301356114fe81611830565b809150509250929050565b60006020828403121561151a578081fd5b81356001600160e01b031981168114610f6c578182fd5b60008060008060808587031215611546578384fd5b843561155181611830565b9350602085013561156181611830565b9250604085013561157181611830565b9150606085013561158181611830565b939692955090935050565b60006020828403121561159d578081fd5b5051919050565b600081518084526115bc8160208601602086016117bd565b601f01601f19169290920160200192915050565b600082516115e28184602087016117bd565b9190910192915050565b76020b1b1b2b9b9a1b7b73a3937b61d1030b1b1b7bab73a1604d1b81526000835161161e8160178501602088016117bd565b7001034b99036b4b9b9b4b733903937b6329607d1b601791840191820152835161164f8160288401602088016117bd565b01602801949350505050565b6001600160a01b0391909116815260200190565b6001600160a01b038a8116825289811660208301526101206040830181905260009161169d8483018c6115a4565b915083820360608501526116b1828b6115a4565b915083820360808501526116c5828a6115a4565b97811660a085015295861660c0840152505091831660e08301529091166101009091015295945050505050565b6001600160a01b03841681526001600160401b0383166020820152606060408201819052600090611104908301846115a4565b602081526000610f6c60208301846115a4565b6020808252602e908201527f496e697469616c697a61626c653a20636f6e747261637420697320616c72656160408201526d191e481a5b9a5d1a585b1a5e995960921b606082015260800190565b6000821982111561179957611799611804565b500190565b60008160001904831182151516156117b8576117b8611804565b500290565b60005b838110156117d85781810151838201526020016117c0565b838111156117e7576000848401525b50505050565b6000816117fc576117fc611804565b506000190190565b634e487b7160e01b600052601160045260246000fd5b634e487b7160e01b600052604160045260246000fd5b6001600160a01b03811681146104d257600080fdfe608060405234801561001057600080fd5b50613b03806100206000396000f3fe60806040526004361061019e5760003560e01c8062fdd58e146101a357806301ffc9a7146101d657806302fe53051461020657806306fdde03146102285780630e89341c1461024a57806311ec58681461026a5780632210023d14610297578063248a9ca3146102b9578063288809c7146102d95780632eb2c2d6146102f95780632f2ff15d1461031957806333df048e1461033957806336568abe1461038c5780633659cfe6146103ac5780634e1273f4146103cc5780634f1ef286146103f9578063572b6c051461040c57806358556fb01461042c57806360e3ecd01461044c57806391d148541461046e5780639470ad851461048e5780639a86e8ce146104ae578063a217fddf146104d0578063a22cb465146104e5578063aea0ffc314610505578063b85f8ca914610525578063c8274abe14610545578063d547741f14610585578063e8a3d485146105a5578063e985e9c5146105ba578063eae6bf7f146105da578063eb08ab28146105fa578063f242432a1461062d578063f4ffe8221461064d578063f9715b8f1461066d578063fe99049a1461068d575b600080fd5b3480156101af57600080fd5b506101c36101be366004612fcb565b6106ad565b6040519081526020015b60405180910390f35b3480156101e257600080fd5b506101f66101f136600461320b565b610749565b60405190151581526020016101cd565b34801561021257600080fd5b50610226610221366004613243565b6107bf565b005b34801561023457600080fd5b5061023d610811565b6040516101cd919061356e565b34801561025657600080fd5b5061023d6102653660046131cf565b61089f565b34801561027657600080fd5b5060035461028a906001600160a01b031681565b6040516101cd919061347f565b3480156102a357600080fd5b506101c3600080516020613a3b83398151915281565b3480156102c557600080fd5b506101c36102d43660046131cf565b6108da565b3480156102e557600080fd5b506101c36102f4366004613320565b6108ef565b34801561030557600080fd5b50610226610314366004612d11565b610903565b34801561032557600080fd5b506102266103343660046131e7565b610bea565b34801561034557600080fd5b5061034e610c13565b604080516001600160a01b039788168152602081019690965285019390935293166060830152608082019290925260a081019190915260c0016101cd565b34801561039857600080fd5b506102266103a73660046131e7565b610cbc565b3480156103b857600080fd5b506102266103c7366004612cbd565b610d4a565b3480156103d857600080fd5b506103ec6103e736600461310d565b610d6e565b6040516101cd9190613536565b610226610407366004612f7e565b610ecf565b34801561041857600080fd5b506101f6610427366004612cbd565b610ee4565b34801561043857600080fd5b506101c3610447366004613344565b610efe565b34801561045857600080fd5b506101c3600080516020613a7b83398151915281565b34801561047a57600080fd5b506101f66104893660046131e7565b610f35565b34801561049a57600080fd5b5060025461028a906001600160a01b031681565b3480156104ba57600080fd5b506101c3600080516020613a5b83398151915281565b3480156104dc57600080fd5b506101c3600081565b3480156104f157600080fd5b50610226610500366004612f4d565b610f60565b34801561051157600080fd5b50610226610520366004612ff6565b611074565b34801561053157600080fd5b50610226610540366004613275565b611161565b34801561055157600080fd5b50610565610560366004612cbd565b6111de565b6040805194855260208501939093529183015260608201526080016101cd565b34801561059157600080fd5b506102266105a03660046131e7565b61128f565b3480156105b157600080fd5b5061023d6112ae565b3480156105c657600080fd5b506101f66105d5366004612cd9565b611340565b3480156105e657600080fd5b506101c36105f53660046130b0565b611353565b34801561060657600080fd5b50610130546106189063ffffffff1681565b60405163ffffffff90911681526020016101cd565b34801561063957600080fd5b50610226610648366004612ee7565b611384565b34801561065957600080fd5b50610226610668366004612dba565b611501565b34801561067957600080fd5b50610226610688366004613275565b611638565b34801561069957600080fd5b506102266106a8366004612ea2565b61169a565b60006001600160a01b03831661071e5760405162461bcd60e51b815260206004820152602b60248201527f455243313135353a2062616c616e636520717565727920666f7220746865207a60448201526a65726f206164647265737360a81b60648201526084015b60405180910390fd5b50600081815260cc602090815260408083206001600160a01b03861684529091529020545b92915050565b60006001600160e01b03198216631669832d60e31b148061077a57506001600160e01b0319821663444ce65960e11b145b8061079557506001600160e01b03198216631fb313c760e31b145b806107b057506001600160e01b0319821663da8def7360e01b145b8061074357506107438261171c565b6107cc6000610489611736565b6108055760405162461bcd60e51b815260206004820152600a60248201526937b7363c9030b236b4b760b11b6044820152606401610715565b61080e81611745565b50565b6000805461081e9061380c565b80601f016020809104026020016040519081016040528092919081815260200182805461084a9061380c565b80156108975780601f1061086c57610100808354040283529160200191610897565b820191906000526020600020905b81548152906001019060200180831161087a57829003601f168201915b505050505081565b60606108aa82611758565b6108b3836117ec565b6040516020016108c49291906133e1565b6040516020818303038152906040529050919050565b600090815260fe602052604090206001015490565b60401b63ffffffff60401b163060601b1790565b81518351146109655760405162461bcd60e51b815260206004820152602860248201527f455243313135353a2069647320616e6420616d6f756e7473206c656e677468206044820152670dad2e6dac2e8c6d60c31b6064820152608401610715565b6001600160a01b03841661098b5760405162461bcd60e51b815260040161071590613612565b610993611736565b6001600160a01b0316856001600160a01b031614806109b957506109b9856105d5611736565b610a205760405162461bcd60e51b815260206004820152603260248201527f455243313135353a207472616e736665722063616c6c6572206973206e6f74206044820152711bdddb995c881b9bdc88185c1c1c9bdd995960721b6064820152608401610715565b6000610a2a611736565b905060005b8451811015610b7c576000858281518110610a5a57634e487b7160e01b600052603260045260246000fd5b602002602001015190506000858381518110610a8657634e487b7160e01b600052603260045260246000fd5b602090810291909101810151600084815260cc835260408082206001600160a01b038e168352909352919091205490915081811015610ad75760405162461bcd60e51b8152600401610715906136a5565b610ae182826137b2565b60cc600085815260200190815260200160002060008c6001600160a01b03166001600160a01b03168152602001908152602001600020819055508160cc600085815260200190815260200160002060008b6001600160a01b03166001600160a01b031681526020019081526020016000206000828254610b619190613748565b9250508190555050505080610b7590613873565b9050610a2f565b50846001600160a01b0316866001600160a01b0316826001600160a01b03167f4a39dc06d4c0dbc64b70af90fd698a233a518aa5d07e595d983b8c0526c8f7fb8787604051610bcc929190613549565b60405180910390a4610be2818787878787611905565b505050505050565b610bf3826108da565b610c0481610bff611736565b611a70565b610c0e8383611ad4565b505050565b600254600090819081908190819081906001600160a01b031663bb3bafd6610c3b60016108ef565b6040518263ffffffff1660e01b8152600401610c5991815260200190565b60c06040518083038186803b158015610c7157600080fd5b505afa158015610c85573d6000803e3d6000fd5b505050506040513d601f19601f82011682018060405250810190610ca99190613051565b949b939a50919850965094509092509050565b610cc4611736565b6001600160a01b0316816001600160a01b031614610d3c5760405162461bcd60e51b815260206004820152602f60248201527f416363657373436f6e74726f6c3a2063616e206f6e6c792072656e6f756e636560448201526e103937b632b9903337b91039b2b63360891b6064820152608401610715565b610d468282611b5b565b5050565b610d5381611be0565b61080e81604051806020016040528060008152506000611c24565b60608151835114610dd35760405162461bcd60e51b815260206004820152602960248201527f455243313135353a206163636f756e747320616e6420696473206c656e677468604482015268040dad2e6dac2e8c6d60bb1b6064820152608401610715565b600083516001600160401b03811115610dfc57634e487b7160e01b600052604160045260246000fd5b604051908082528060200260200182016040528015610e25578160200160208202803683370190505b50905060005b8451811015610ec757610e8c858281518110610e5757634e487b7160e01b600052603260045260246000fd5b6020026020010151858381518110610e7f57634e487b7160e01b600052603260045260246000fd5b60200260200101516106ad565b828281518110610eac57634e487b7160e01b600052603260045260246000fd5b6020908102919091010152610ec081613873565b9050610e2b565b509392505050565b610ed882611be0565b610d4682826001611c24565b6000610743600080516020613a5b83398151915283610f35565b6000600080516020613a3b833981519152610f1b81610bff611736565b610f2d610f26611736565b8585611d9f565b949350505050565b600091825260fe602090815260408084206001600160a01b0393909316845291905290205460ff1690565b816001600160a01b0316610f72611736565b6001600160a01b03161415610fdb5760405162461bcd60e51b815260206004820152602960248201527f455243313135353a2073657474696e6720617070726f76616c20737461747573604482015268103337b91039b2b63360b91b6064820152608401610715565b8060cd6000610fe8611736565b6001600160a01b03908116825260208083019390935260409182016000908120918716808252919093529120805460ff19169215159290921790915561102c611736565b6001600160a01b03167f17307eab39ab6107e8899845ad3d59bd9653f200f220920489ca2b5937696c3183604051611068911515815260200190565b60405180910390a35050565b600080516020613a3b83398151915261108f81610bff611736565b60015b6101305463ffffffff90811690821611611157576002546001600160a01b031663ad09608a6110c0836108ef565b6040516001600160e01b031960e084901b16815260048101919091526001600160a01b03808c166024830152604482018b9052606482018a90528816608482015260a4810187905260c4810186905260e401600060405180830381600087803b15801561112c57600080fd5b505af1158015611140573d6000803e3d6000fd5b50505050808061114f9061388e565b915050611092565b5050505050505050565b600080516020613a3b83398151915261117c81610bff611736565b60035460405163b85f8ca960e01b81526001600160a01b039091169063b85f8ca9906111b0908790879087906004016136ef565b600060405180830381600087803b1580156111ca57600080fd5b505af1158015611157573d6000803e3d6000fd5b6002546000908190819081906001600160a01b031663e24b0a2b61120260016108ef565b6040516001600160e01b031960e084901b16815260048101919091526001600160a01b038816602482015260440160806040518083038186803b15801561124857600080fd5b505afa15801561125c573d6000803e3d6000fd5b505050506040513d601f19601f8201168201806040525081019061128091906132eb565b93509350935093509193509193565b611298826108da565b6112a481610bff611736565b610c0e8383611b5b565b6060600180546112bd9061380c565b80601f01602080910402602001604051908101604052809291908181526020018280546112e99061380c565b80156113365780601f1061130b57610100808354040283529160200191611336565b820191906000526020600020905b81548152906001019060200180831161131957829003601f168201915b5050505050905090565b600061134c8383611e2d565b9392505050565b6000600080516020613a3b83398151915261137081610bff611736565b61137b858585611d9f565b95945050505050565b6001600160a01b0384166113aa5760405162461bcd60e51b815260040161071590613612565b6113b2611736565b6001600160a01b0316856001600160a01b031614806113d857506113d8856105d5611736565b6113f45760405162461bcd60e51b8152600401610715906135c9565b60006113fe611736565b905061141f81878761140f88611e82565b61141888611e82565b5050505050565b600084815260cc602090815260408083206001600160a01b038a168452909152902054838110156114625760405162461bcd60e51b8152600401610715906136a5565b61146c84826137b2565b600086815260cc602090815260408083206001600160a01b038c811685529252808320939093558816815290812080548692906114aa908490613748565b909155505060408051868152602081018690526001600160a01b03808916928a821692918616916000805160206139d4833981519152910160405180910390a46114f8828888888888611edb565b50505050505050565b600354600160a81b900460ff16806115235750600354600160a01b900460ff16155b61153f5760405162461bcd60e51b815260040161071590613657565b600354600160a81b900460ff16158015611569576003805461ffff60a01b191661010160a01b1790555b6115738887611fa5565b61157c85611fcc565b61158584612067565b61158d6120ef565b611595612196565b61159d61221f565b8651156115ad576115ad87611745565b6115c5600080516020613a7b8339815191528461224a565b6115dd600080516020613a7b8339815191528361224a565b6115e860008b61224a565b611600600080516020613a3b8339815191528a61224a565b611618600080516020613a3b8339815191528b61224a565b801561162c576003805460ff60a81b191690555b50505050505050505050565b60035460405163f9715b8f60e01b81526001600160a01b039091169063f9715b8f9061166c908690869086906004016136ef565b600060405180830381600087803b15801561168657600080fd5b505af11580156114f8573d6000803e3d6000fd5b6001600160a01b0383166116c05760405162461bcd60e51b815260040161071590613612565b6116c8611736565b6001600160a01b0316846001600160a01b031614806116ee57506116ee846105d5611736565b61170a5760405162461bcd60e51b8152600401610715906135c9565b61171684848484612254565b50505050565b600061172782612347565b80610743575061074382612397565b60006117406123bc565b905090565b8051610d469060ce906020840190612b1b565b606060ce80546117679061380c565b80601f01602080910402602001604051908101604052809291908181526020018280546117939061380c565b80156117e05780601f106117b5576101008083540402835291602001916117e0565b820191906000526020600020905b8154815290600101906020018083116117c357829003601f168201915b50505050509050919050565b6060816118105750506040805180820190915260018152600360fc1b602082015290565b8160005b811561183a578061182481613873565b91506118339050600a8361377f565b9150611814565b6000816001600160401b0381111561186257634e487b7160e01b600052604160045260246000fd5b6040519080825280601f01601f19166020018201604052801561188c576020820181803683370190505b5090505b8415610f2d576118a16001836137b2565b91506118ae600a866138b2565b6118b9906030613748565b60f81b8183815181106118dc57634e487b7160e01b600052603260045260246000fd5b60200101906001600160f81b031916908160001a9053506118fe600a8661377f565b9450611890565b6001600160a01b0384163b15610be25760405163bc197c8160e01b81526001600160a01b0385169063bc197c81906119499089908990889088908890600401613493565b602060405180830381600087803b15801561196357600080fd5b505af1925050508015611993575060408051601f3d908101601f1916820190925261199091810190613227565b60015b611a405761199f613908565b806308c379a014156119d957506119b461391f565b806119bf57506119db565b8060405162461bcd60e51b8152600401610715919061356e565b505b60405162461bcd60e51b815260206004820152603460248201527f455243313135353a207472616e7366657220746f206e6f6e20455243313135356044820152732932b1b2b4bb32b91034b6b83632b6b2b73a32b960611b6064820152608401610715565b6001600160e01b0319811663bc197c8160e01b146114f85760405162461bcd60e51b815260040161071590613581565b611a7a8282610f35565b610d4657611a92816001600160a01b031660146123c6565b611a9d8360206123c6565b604051602001611aae929190613410565b60408051601f198184030181529082905262461bcd60e51b82526107159160040161356e565b611ade8282610f35565b610d4657600082815260fe602090815260408083206001600160a01b03851684529091529020805460ff19166001179055611b17611736565b6001600160a01b0316816001600160a01b0316837f2f8788117e7eff1d82e926ec794901d17c78024a50270940304540a733656f0d60405160405180910390a45050565b611b658282610f35565b15610d4657600082815260fe602090815260408083206001600160a01b03851684529091529020805460ff19169055611b9c611736565b6001600160a01b0316816001600160a01b0316837ff6391f5c32d9c69d2a47ea670b442974b53935d1edc7fd64eb21e047a839171b60405160405180910390a45050565b611beb600033610f35565b61080e5760405162461bcd60e51b815260206004820152600a60248201526927b7363c9020b236b4b760b11b6044820152606401610715565b6000611c2e6125a7565b9050611c39846125c3565b600083511180611c465750815b15611c5757611c558484612656565b505b7f4910fdfa16fed3260ed0e7147f7cc6da11a60208b5b9406d12a635614ffd9143805460ff1661141857805460ff19166001178155604051611cd2908690611ca390859060240161347f565b60408051601f198184030181529190526020810180516001600160e01b0316631b2ce7f360e11b179052612656565b50805460ff19168155611ce36125a7565b6001600160a01b0316826001600160a01b031614611d5b5760405162461bcd60e51b815260206004820152602f60248201527f45524331393637557067726164653a207570677261646520627265616b73206660448201526e75727468657220757067726164657360881b6064820152608401610715565b611d64856125c3565b6040516001600160a01b038616907fbc7cd75a20ee27fd9adebab32041f755214dbc6bffa90cc0225b39da2e5c2d3b90600090a25050505050565b610130546000908190611db99063ffffffff166001613760565b90506000611dc6826108ef565b90506000856001600160401b031611611dde57600080fd5b611df38682876001600160401b031687612738565b61013054611e089063ffffffff166001613760565b610130805463ffffffff191663ffffffff929092169190911790559150509392505050565b6000611e47600080516020613a7b83398151915283610f35565b15611e5457506001610743565b6001600160a01b03808416600090815260cd602090815260408083209386168352929052205460ff1661134c565b60408051600180825281830190925260609160009190602080830190803683370190505090508281600081518110611eca57634e487b7160e01b600052603260045260246000fd5b602090810291909101015292915050565b6001600160a01b0384163b15610be25760405163f23a6e6160e01b81526001600160a01b0385169063f23a6e6190611f1f90899089908890889088906004016134f1565b602060405180830381600087803b158015611f3957600080fd5b505af1925050508015611f69575060408051601f3d908101601f19168201909252611f6691810190613227565b60015b611f755761199f613908565b6001600160e01b0319811663f23a6e6160e01b146114f85760405162461bcd60e51b815260040161071590613581565b8151611fb8906000906020850190612b1b565b508051610c0e906001906020840190612b1b565b600354600160a81b900460ff1680611fee5750600354600160a01b900460ff16155b61200a5760405162461bcd60e51b815260040161071590613657565b600354600160a81b900460ff16158015612034576003805461ffff60a01b191661010160a01b1790555b600280546001600160a01b0319166001600160a01b0384161790555b8015610d46576003805460ff60a81b191690555050565b600354600160a81b900460ff16806120895750600354600160a01b900460ff16155b6120a55760405162461bcd60e51b815260040161071590613657565b600354600160a81b900460ff161580156120cf576003805461ffff60a01b191661010160a01b1790555b600380546001600160a01b0319166001600160a01b038416179055612050565b600354600160a81b900460ff16806121115750600354600160a01b900460ff16155b61212d5760405162461bcd60e51b815260040161071590613657565b600354600160a81b900460ff16158015612157576003805461ffff60a01b191661010160a01b1790555b612178604051806060016040528060338152602001613a9b60339139612834565b6121806128b5565b801561080e576003805460ff60a81b1916905550565b600354600160a81b900460ff16806121b85750600354600160a01b900460ff16155b6121d45760405162461bcd60e51b815260040161071590613657565b600354600160a81b900460ff161580156121fe576003805461ffff60a01b191661010160a01b1790555b612180604051806060016040528060338152602001613a9b60339139612834565b612240604051806060016040528060338152602001613a9b60339139612834565b6122486128bd565b565b610d468282611ad4565b600082815260cc602090815260408083206001600160a01b0388168452909152902054818110156122975760405162461bcd60e51b8152600401610715906136a5565b6122a182826137b2565b600084815260cc602090815260408083206001600160a01b038a811685529252808320939093558616815290812080548492906122df908490613748565b90915550600090506122ef611736565b9050846001600160a01b0316866001600160a01b0316826001600160a01b03166000805160206139d48339815191528787604051612337929190918252602082015260400190565b60405180910390a4505050505050565b60006001600160e01b03198216636cdb3d1360e11b148061237857506001600160e01b031982166303a24d0760e21b145b8061074357506301ffc9a760e01b6001600160e01b0319831614610743565b60006001600160e01b03198216637965db0b60e01b1480610743575061074382612347565b60006117406128c5565b606060006123d5836002613793565b6123e0906002613748565b6001600160401b0381111561240557634e487b7160e01b600052604160045260246000fd5b6040519080825280601f01601f19166020018201604052801561242f576020820181803683370190505b509050600360fc1b8160008151811061245857634e487b7160e01b600052603260045260246000fd5b60200101906001600160f81b031916908160001a905350600f60fb1b8160018151811061249557634e487b7160e01b600052603260045260246000fd5b60200101906001600160f81b031916908160001a90535060006124b9846002613793565b6124c4906001613748565b90505b6001811115612558576f181899199a1a9b1b9c1cb0b131b232b360811b85600f166010811061250657634e487b7160e01b600052603260045260246000fd5b1a60f81b82828151811061252a57634e487b7160e01b600052603260045260246000fd5b60200101906001600160f81b031916908160001a90535060049490941c93612551816137f5565b90506124c7565b50831561134c5760405162461bcd60e51b815260206004820181905260248201527f537472696e67733a20686578206c656e67746820696e73756666696369656e746044820152606401610715565b6000805160206139f4833981519152546001600160a01b031690565b803b6126275760405162461bcd60e51b815260206004820152602d60248201527f455243313936373a206e657720696d706c656d656e746174696f6e206973206e60448201526c1bdd08184818dbdb9d1c9858dd609a1b6064820152608401610715565b6000805160206139f483398151915280546001600160a01b0319166001600160a01b0392909216919091179055565b6060823b6126b55760405162461bcd60e51b815260206004820152602660248201527f416464726573733a2064656c65676174652063616c6c20746f206e6f6e2d636f6044820152651b9d1c9858dd60d21b6064820152608401610715565b600080846001600160a01b0316846040516126d091906133c5565b600060405180830381855af49150503d806000811461270b576040519150601f19603f3d011682016040523d82523d6000602084013e612710565b606091505b509150915061137b8282604051806060016040528060278152602001613a14602791396128ea565b6001600160a01b0384166127985760405162461bcd60e51b815260206004820152602160248201527f455243313135353a206d696e7420746f20746865207a65726f206164647265736044820152607360f81b6064820152608401610715565b60006127a2611736565b90506127b48160008761140f88611e82565b600084815260cc602090815260408083206001600160a01b0389168452909152812080548592906127e6908490613748565b909155505060408051858152602081018590526001600160a01b0380881692600092918516916000805160206139d4833981519152910160405180910390a461141881600087878787611edb565b600354600160a81b900460ff16806128565750600354600160a01b900460ff16155b6128725760405162461bcd60e51b815260040161071590613657565b600354600160a81b900460ff1615801561289c576003805461ffff60a01b191661010160a01b1790555b6128a4612923565b6128ac612923565b612050826129a0565b612248612a11565b612248612a91565b60006128d033610ee4565b156128e2575060131936013560601c90565b503390565b90565b606083156128f957508161134c565b8251156129095782518084602001fd5b8160405162461bcd60e51b8152600401610715919061356e565b600354600160a81b900460ff16806129455750600354600160a01b900460ff16155b6129615760405162461bcd60e51b815260040161071590613657565b600354600160a81b900460ff16158015612180576003805461ffff60a01b191661010160a01b179055801561080e576003805460ff60a81b1916905550565b600354600160a81b900460ff16806129c25750600354600160a01b900460ff16155b6129de5760405162461bcd60e51b815260040161071590613657565b600354600160a81b900460ff16158015612a08576003805461ffff60a01b191661010160a01b1790555b61205082611745565b600354600160a81b900460ff1680612a335750600354600160a01b900460ff16155b612a4f5760405162461bcd60e51b815260040161071590613657565b600354600160a81b900460ff16158015612a79576003805461ffff60a01b191661010160a01b1790555b612a81612923565b612a89612923565b612180612923565b612a99612aac565b612aa1612a11565b61224860003361224a565b600354600160a81b900460ff1680612ace5750600354600160a01b900460ff16155b612aea5760405162461bcd60e51b815260040161071590613657565b600354600160a81b900460ff16158015612a81576003805461ffff60a01b191661010160a01b179055612a89612923565b828054612b279061380c565b90600052602060002090601f016020900481019282612b495760008555612b8f565b82601f10612b6257805160ff1916838001178555612b8f565b82800160010185558215612b8f579182015b82811115612b8f578251825591602001919060010190612b74565b50612b9b929150612b9f565b5090565b5b80821115612b9b5760008155600101612ba0565b8035612bbf816139a8565b919050565b600082601f830112612bd4578081fd5b81356020612be182613725565b604051612bee8282613847565b8381528281019150858301600585901b87018401881015612c0d578586fd5b855b85811015612c2b57813584529284019290840190600101612c0f565b5090979650505050505050565b600082601f830112612c48578081fd5b81356001600160401b03811115612c6157612c616138f2565b604051612c78601f8301601f191660200182613847565b818152846020838601011115612c8c578283fd5b816020850160208301379081016020019190915292915050565b80356001600160401b0381168114612bbf57600080fd5b600060208284031215612cce578081fd5b813561134c816139a8565b60008060408385031215612ceb578081fd5b8235612cf6816139a8565b91506020830135612d06816139a8565b809150509250929050565b600080600080600060a08688031215612d28578081fd5b8535612d33816139a8565b94506020860135612d43816139a8565b935060408601356001600160401b0380821115612d5e578283fd5b612d6a89838a01612bc4565b94506060880135915080821115612d7f578283fd5b612d8b89838a01612bc4565b93506080880135915080821115612da0578283fd5b50612dad88828901612c38565b9150509295509295909350565b60008060008060008060008060006101208a8c031215612dd8578384fd5b612de18a612bb4565b9850612def60208b01612bb4565b975060408a01356001600160401b0380821115612e0a578586fd5b612e168d838e01612c38565b985060608c0135915080821115612e2b578586fd5b612e378d838e01612c38565b975060808c0135915080821115612e4c578586fd5b50612e598c828d01612c38565b955050612e6860a08b01612bb4565b9350612e7660c08b01612bb4565b9250612e8460e08b01612bb4565b9150612e936101008b01612bb4565b90509295985092959850929598565b60008060008060808587031215612eb7578182fd5b8435612ec2816139a8565b93506020850135612ed2816139a8565b93969395505050506040820135916060013590565b600080600080600060a08688031215612efe578283fd5b8535612f09816139a8565b94506020860135612f19816139a8565b9350604086013592506060860135915060808601356001600160401b03811115612f41578182fd5b612dad88828901612c38565b60008060408385031215612f5f578182fd5b8235612f6a816139a8565b915060208301358015158114612d06578182fd5b60008060408385031215612f90578182fd5b8235612f9b816139a8565b915060208301356001600160401b03811115612fb5578182fd5b612fc185828601612c38565b9150509250929050565b60008060408385031215612fdd578182fd5b8235612fe8816139a8565b946020939093013593505050565b60008060008060008060c0878903121561300e578384fd5b8635613019816139a8565b955060208701359450604087013593506060870135613037816139a8565b9598949750929560808101359460a0909101359350915050565b60008060008060008060c08789031215613069578384fd5b8651613074816139a8565b8096505060208701519450604087015193506060870151613094816139a8565b809350506080870151915060a087015190509295509295509295565b6000806000606084860312156130c4578081fd5b83356130cf816139a8565b92506130dd60208501612ca6565b915060408401356001600160401b038111156130f7578182fd5b61310386828701612c38565b9150509250925092565b6000806040838503121561311f578182fd5b82356001600160401b0380821115613135578384fd5b818501915085601f830112613148578384fd5b8135602061315582613725565b6040516131628282613847565b8381528281019150858301600585901b870184018b1015613181578889fd5b8896505b848710156131ac578035613198816139a8565b835260019690960195918301918301613185565b50965050860135925050808211156131c2578283fd5b50612fc185828601612bc4565b6000602082840312156131e0578081fd5b5035919050565b600080604083850312156131f9578182fd5b823591506020830135612d06816139a8565b60006020828403121561321c578081fd5b813561134c816139bd565b600060208284031215613238578081fd5b815161134c816139bd565b600060208284031215613254578081fd5b81356001600160401b03811115613269578182fd5b610f2d84828501612c38565b600080600060408486031215613289578081fd5b8335925060208401356001600160401b03808211156132a6578283fd5b818601915086601f8301126132b9578283fd5b8135818111156132c7578384fd5b8760208285010111156132d8578384fd5b6020830194508093505050509250925092565b60008060008060808587031215613300578182fd5b505082516020840151604085015160609095015191969095509092509050565b600060208284031215613331578081fd5b813563ffffffff8116811461134c578182fd5b60008060408385031215613356578182fd5b612f9b83612ca6565b6000815180845260208085019450808401835b8381101561338e57815187529582019590820190600101613372565b509495945050505050565b600081518084526133b18160208601602086016137c9565b601f01601f19169290920160200192915050565b600082516133d78184602087016137c9565b9190910192915050565b600083516133f38184602088016137c9565b8351908301906134078183602088016137c9565b01949350505050565b76020b1b1b2b9b9a1b7b73a3937b61d1030b1b1b7bab73a1604d1b8152600083516134428160178501602088016137c9565b7001034b99036b4b9b9b4b733903937b6329607d1b60179184019182015283516134738160288401602088016137c9565b01602801949350505050565b6001600160a01b0391909116815260200190565b6001600160a01b0386811682528516602082015260a0604082018190526000906134bf9083018661335f565b82810360608401526134d1818661335f565b905082810360808401526134e58185613399565b98975050505050505050565b6001600160a01b03868116825285166020820152604081018490526060810183905260a06080820181905260009061352b90830184613399565b979650505050505050565b60208152600061134c602083018461335f565b60408152600061355c604083018561335f565b828103602084015261137b818561335f565b60208152600061134c6020830184613399565b60208082526028908201527f455243313135353a204552433131353552656365697665722072656a656374656040820152676420746f6b656e7360c01b606082015260800190565b60208082526029908201527f455243313135353a2063616c6c6572206973206e6f74206f776e6572206e6f7260408201526808185c1c1c9bdd995960ba1b606082015260800190565b60208082526025908201527f455243313135353a207472616e7366657220746f20746865207a65726f206164604082015264647265737360d81b606082015260800190565b6020808252602e908201527f496e697469616c697a61626c653a20636f6e747261637420697320616c72656160408201526d191e481a5b9a5d1a585b1a5e995960921b606082015260800190565b6020808252602a908201527f455243313135353a20696e73756666696369656e742062616c616e636520666f60408201526939103a3930b739b332b960b11b606082015260800190565b83815260406020820152816040820152818360608301376000818301606090810191909152601f909201601f1916010192915050565b60006001600160401b0382111561373e5761373e6138f2565b5060051b60200190565b6000821982111561375b5761375b6138c6565b500190565b600063ffffffff808316818516808303821115613407576134076138c6565b60008261378e5761378e6138dc565b500490565b60008160001904831182151516156137ad576137ad6138c6565b500290565b6000828210156137c4576137c46138c6565b500390565b60005b838110156137e45781810151838201526020016137cc565b838111156117165750506000910152565b600081613804576138046138c6565b506000190190565b600181811c9082168061382057607f821691505b6020821081141561384157634e487b7160e01b600052602260045260246000fd5b50919050565b601f8201601f191681016001600160401b038111828210171561386c5761386c6138f2565b6040525050565b6000600019821415613887576138876138c6565b5060010190565b600063ffffffff808316818114156138a8576138a86138c6565b6001019392505050565b6000826138c1576138c16138dc565b500690565b634e487b7160e01b600052601160045260246000fd5b634e487b7160e01b600052601260045260246000fd5b634e487b7160e01b600052604160045260246000fd5b600060033d11156128e757600481823e5160e01c90565b600060443d101561392d5790565b6040516003193d81016004833e81513d6001600160401b03808311602484018310171561395c57505050505090565b82850191508151818111156139745750505050505090565b843d870101602082850101111561398e5750505050505090565b61399d60208286010187613847565b509095945050505050565b6001600160a01b038116811461080e57600080fd5b6001600160e01b03198116811461080e57600080fdfec3d58168c5ae7397731d063d5bbf3d657854427343f4c083240f7aacaa2d0f62360894a13ba1a3210667c828492db98dca3e2076cc3735a920a3ca505d382bbc416464726573733a206c6f772d6c6576656c2064656c65676174652063616c6c206661696c6564592c958fd52390f51665f668ae132c07938e885cabed2dc56aba7c2b264880953d2e894c222ba979e2dce2c7d940c0e9bb14306669e9f034eb1bb3979a2069d8626f510646502d065065e8bd550325973a611a32e6f6ddff40650005cb13636868747470733a2f2f6170692e66726565706f72742e636572652e6e6574776f726b2f657263313135352f7b69647d2e6a736f6ea2646970667358221220a88f44d01bb4ec16c4d0b7e44f4e1f9aa96ed1ddd7ff1bcbcb418394d774dceb64736f6c63430008040033360894a13ba1a3210667c828492db98dca3e2076cc3735a920a3ca505d382bbc416464726573733a206c6f772d6c6576656c2064656c65676174652063616c6c206661696c6564592c958fd52390f51665f668ae132c07938e885cabed2dc56aba7c2b264880953d2e894c222ba979e2dce2c7d940c0e9bb14306669e9f034eb1bb3979a2069d8a26469706673582212207702e4043fb4ac701877ae882785cef3a8b4287ab831be0bbcde163dfd6fdd6264736f6c63430008040033",
  "immutableReferences": {},
  "source": "pragma solidity ^0.8.0;\n\nimport \"./freeportParts/MetaTxContext.sol\";\nimport \"./Collection.sol\";\nimport \"./Marketplace.sol\";\nimport \"./Auction.sol\";\n\n/** This is a contract for creating standalone contracts (collections) for users.\n *\n */\ncontract CollectionFactory is MetaTxContext  {\n    function initialize(Freeport _freeport, NFTAttachment _nftAttachment, Marketplace _marketplace, Auction _auction) public initializer {\n        __MetaTxContext_init();\n\n        freeport = _freeport;\n        nftAttachment = _nftAttachment;\n        marketplace = _marketplace;\n        auction = _auction;\n    }\n\n    // Standalone user collections mapped to its names.\n    mapping(string => address) nameToCollection;\n\n    // The address of Freeport contract.\n    Freeport public freeport;\n    // The address of NFTAttachment contract.\n    NFTAttachment public nftAttachment;\n    // The address of Marketplace contract.\n    Marketplace public marketplace;\n    // The address of Auction contract.\n    Auction public auction;\n\n    // Collection id to address.\n    mapping(uint256 => address) private addressProxies;\n    uint256 private collectionCounter;\n\n    /** Collection creator role.\n     *  Used for configuring the amounts and beneficiaries of royalties on primary and secondary transfers of this NFT.\n     */\n    bytes32 public constant COLLECTION_CREATOR_ROLE = keccak256(\"COLLECTION_CREATOR_ROLE\");\n\n    /** Allowance mapping for mint on behalf for each Collection.\n     */\n    mapping (address => mapping(address => bool)) mintAllowance;\n\n    /** Allowance mapping for mint on behalf for each Collection.\n     */\n    bytes32 public constant COLLECTION_MANAGER_ROLE = keccak256(\"COLLECTION_MANAGER_ROLE\");\n\n    /** An event emitted when new collection is created.\n     *\n     * Contains unique name of collection and its address.\n     */\n    event CollectionCreated(string name, address indexed addr);\n\n    /** An event emitted when NFT is minted on behalf of factory.\n     */\n    event MintOnBehalf(address _operator, address _collection, address _holder, uint256 _id, uint64 _amount);\n\n    /** Deploying a new user collection.\n     *\n     *  Emits a {CollectionCreated} event.\n     */\n    function createCollection(address collectionManager, string memory name, string memory uriTpl, string memory contractURI) external returns (address) {\n//        require(hasRole(COLLECTION_CREATOR_ROLE, _msgSender()), \"only collection creator\");\n        require(collectionManager != address(0), \"zero address collection manager\");\n        require(nameToCollection[name] == address(0), \"collection name already exists\");\n\n        Collection collection = new Collection();\n        collection.initialize(address(this), collectionManager, name, uriTpl, contractURI, freeport, nftAttachment, marketplace, auction);\n\n        address collAddr = address(collection);\n\n        addressProxies[collectionCounter] = address(collection);\n        collectionCounter = collectionCounter + 1;\n\n        nameToCollection[name] = address(collection);\n\n        emit CollectionCreated(name, address(collection));\n        return address(collection);\n    }\n\n    function mintOnBehalf(address collection, address holder, uint64 supply, bytes memory data) external {\n        address operator = _msgSender();\n        require(Collection(collection).hasRole(COLLECTION_MANAGER_ROLE, operator), \"sender is not collection manager\");\n        uint256 nftID = Collection(collection).issueOnBehalfOf(holder, supply, data);\n\n        emit MintOnBehalf(operator, collection, holder, nftID, supply);\n    }\n}\n",
  "sourcePath": "/Users/neanvo/WorkFlow/cere/Freeport-Smart-Contracts/contracts/CollectionFactory.sol",
  "compiler": {
    "name": "solc",
    "version": "0.8.4+commit.c7e474f2.Emscripten.clang"
  },
  "schemaVersion": "3.4.4",
  "updatedAt": "2022-08-12T08:27:30.840Z",
  "devdoc": {
    "kind": "dev",
    "methods": {
      "getRoleAdmin(bytes32)": {
        "details": "Returns the admin role that controls `role`. See {grantRole} and {revokeRole}. To change a role's admin, use {_setRoleAdmin}."
      },
      "grantRole(bytes32,address)": {
        "details": "Grants `role` to `account`. If `account` had not been already granted `role`, emits a {RoleGranted} event. Requirements: - the caller must have ``role``'s admin role."
      },
      "hasRole(bytes32,address)": {
        "details": "Returns `true` if `account` has been granted `role`."
      },
      "renounceRole(bytes32,address)": {
        "details": "Revokes `role` from the calling account. Roles are often managed via {grantRole} and {revokeRole}: this function's purpose is to provide a mechanism for accounts to lose their privileges if they are compromised (such as when a trusted device is misplaced). If the calling account had been granted `role`, emits a {RoleRevoked} event. Requirements: - the caller must be `account`."
      },
      "revokeRole(bytes32,address)": {
        "details": "Revokes `role` from `account`. If `account` had been granted `role`, emits a {RoleRevoked} event. Requirements: - the caller must have ``role``'s admin role."
      },
      "supportsInterface(bytes4)": {
        "details": "See {IERC165-supportsInterface}."
      }
    },
    "version": 1
  },
  "userdoc": {
    "events": {
      "CollectionCreated(string,address)": {
        "notice": "An event emitted when new collection is created. Contains unique name of collection and its address."
      },
      "MintOnBehalf(address,address,address,uint256,uint64)": {
        "notice": "An event emitted when NFT is minted on behalf of factory."
      }
    },
    "kind": "user",
    "methods": {
      "COLLECTION_CREATOR_ROLE()": {
        "notice": "Collection creator role.  Used for configuring the amounts and beneficiaries of royalties on primary and secondary transfers of this NFT."
      },
      "COLLECTION_MANAGER_ROLE()": {
        "notice": "Allowance mapping for mint on behalf for each Collection."
      },
      "createCollection(address,string,string,string)": {
        "notice": "Deploying a new user collection.  Emits a {CollectionCreated} event."
      }
    },
    "notice": "This is a contract for creating standalone contracts (collections) for users.",
    "version": 1
  }
}