{
  "contractName": "Collection",
  "abi": [
    {
      "anonymous": false,
      "inputs": [
        {
          "indexed": false,
          "internalType": "address",
          "name": "previousAdmin",
          "type": "address"
        },
        {
          "indexed": false,
          "internalType": "address",
          "name": "newAdmin",
          "type": "address"
        }
      ],
      "name": "AdminChanged",
      "type": "event"
    },
    {
      "anonymous": false,
      "inputs": [
        {
          "indexed": true,
          "internalType": "address",
          "name": "account",
          "type": "address"
        },
        {
          "indexed": true,
          "internalType": "address",
          "name": "operator",
          "type": "address"
        },
        {
          "indexed": false,
          "internalType": "bool",
          "name": "approved",
          "type": "bool"
        }
      ],
      "name": "ApprovalForAll",
      "type": "event"
    },
    {
      "anonymous": false,
      "inputs": [
        {
          "indexed": true,
          "internalType": "address",
          "name": "beacon",
          "type": "address"
        }
      ],
      "name": "BeaconUpgraded",
      "type": "event"
    },
    {
      "anonymous": false,
      "inputs": [
        {
          "indexed": true,
          "internalType": "bytes32",
          "name": "role",
          "type": "bytes32"
        },
        {
          "indexed": true,
          "internalType": "bytes32",
          "name": "previousAdminRole",
          "type": "bytes32"
        },
        {
          "indexed": true,
          "internalType": "bytes32",
          "name": "newAdminRole",
          "type": "bytes32"
        }
      ],
      "name": "RoleAdminChanged",
      "type": "event"
    },
    {
      "anonymous": false,
      "inputs": [
        {
          "indexed": true,
          "internalType": "bytes32",
          "name": "role",
          "type": "bytes32"
        },
        {
          "indexed": true,
          "internalType": "address",
          "name": "account",
          "type": "address"
        },
        {
          "indexed": true,
          "internalType": "address",
          "name": "sender",
          "type": "address"
        }
      ],
      "name": "RoleGranted",
      "type": "event"
    },
    {
      "anonymous": false,
      "inputs": [
        {
          "indexed": true,
          "internalType": "bytes32",
          "name": "role",
          "type": "bytes32"
        },
        {
          "indexed": true,
          "internalType": "address",
          "name": "account",
          "type": "address"
        },
        {
          "indexed": true,
          "internalType": "address",
          "name": "sender",
          "type": "address"
        }
      ],
      "name": "RoleRevoked",
      "type": "event"
    },
    {
      "anonymous": false,
      "inputs": [
        {
          "indexed": true,
          "internalType": "address",
          "name": "operator",
          "type": "address"
        },
        {
          "indexed": true,
          "internalType": "address",
          "name": "from",
          "type": "address"
        },
        {
          "indexed": true,
          "internalType": "address",
          "name": "to",
          "type": "address"
        },
        {
          "indexed": false,
          "internalType": "uint256[]",
          "name": "ids",
          "type": "uint256[]"
        },
        {
          "indexed": false,
          "internalType": "uint256[]",
          "name": "values",
          "type": "uint256[]"
        }
      ],
      "name": "TransferBatch",
      "type": "event"
    },
    {
      "anonymous": false,
      "inputs": [
        {
          "indexed": true,
          "internalType": "address",
          "name": "operator",
          "type": "address"
        },
        {
          "indexed": true,
          "internalType": "address",
          "name": "from",
          "type": "address"
        },
        {
          "indexed": true,
          "internalType": "address",
          "name": "to",
          "type": "address"
        },
        {
          "indexed": false,
          "internalType": "uint256",
          "name": "id",
          "type": "uint256"
        },
        {
          "indexed": false,
          "internalType": "uint256",
          "name": "value",
          "type": "uint256"
        }
      ],
      "name": "TransferSingle",
      "type": "event"
    },
    {
      "anonymous": false,
      "inputs": [
        {
          "indexed": false,
          "internalType": "string",
          "name": "value",
          "type": "string"
        },
        {
          "indexed": true,
          "internalType": "uint256",
          "name": "id",
          "type": "uint256"
        }
      ],
      "name": "URI",
      "type": "event"
    },
    {
      "anonymous": false,
      "inputs": [
        {
          "indexed": true,
          "internalType": "address",
          "name": "implementation",
          "type": "address"
        }
      ],
      "name": "Upgraded",
      "type": "event"
    },
    {
      "inputs": [],
      "name": "COLLECTION_MANAGER_ROLE",
      "outputs": [
        {
          "internalType": "bytes32",
          "name": "",
          "type": "bytes32"
        }
      ],
      "stateMutability": "view",
      "type": "function"
    },
    {
      "inputs": [],
      "name": "DEFAULT_ADMIN_ROLE",
      "outputs": [
        {
          "internalType": "bytes32",
          "name": "",
          "type": "bytes32"
        }
      ],
      "stateMutability": "view",
      "type": "function"
    },
    {
      "inputs": [],
      "name": "META_TX_FORWARDER",
      "outputs": [
        {
          "internalType": "bytes32",
          "name": "",
          "type": "bytes32"
        }
      ],
      "stateMutability": "view",
      "type": "function"
    },
    {
      "inputs": [
        {
          "internalType": "address",
          "name": "account",
          "type": "address"
        },
        {
          "internalType": "uint256",
          "name": "id",
          "type": "uint256"
        }
      ],
      "name": "balanceOf",
      "outputs": [
        {
          "internalType": "uint256",
          "name": "",
          "type": "uint256"
        }
      ],
      "stateMutability": "view",
      "type": "function"
    },
    {
      "inputs": [
        {
          "internalType": "address[]",
          "name": "accounts",
          "type": "address[]"
        },
        {
          "internalType": "uint256[]",
          "name": "ids",
          "type": "uint256[]"
        }
      ],
      "name": "balanceOfBatch",
      "outputs": [
        {
          "internalType": "uint256[]",
          "name": "",
          "type": "uint256[]"
        }
      ],
      "stateMutability": "view",
      "type": "function"
    },
    {
      "inputs": [],
      "name": "freeport",
      "outputs": [
        {
          "internalType": "contract Freeport",
          "name": "",
          "type": "address"
        }
      ],
      "stateMutability": "view",
      "type": "function"
    },
    {
      "inputs": [
        {
          "internalType": "bytes32",
          "name": "role",
          "type": "bytes32"
        }
      ],
      "name": "getRoleAdmin",
      "outputs": [
        {
          "internalType": "bytes32",
          "name": "",
          "type": "bytes32"
        }
      ],
      "stateMutability": "view",
      "type": "function"
    },
    {
      "inputs": [
        {
          "internalType": "bytes32",
          "name": "role",
          "type": "bytes32"
        },
        {
          "internalType": "address",
          "name": "account",
          "type": "address"
        }
      ],
      "name": "grantRole",
      "outputs": [],
      "stateMutability": "nonpayable",
      "type": "function"
    },
    {
      "inputs": [
        {
          "internalType": "bytes32",
          "name": "role",
          "type": "bytes32"
        },
        {
          "internalType": "address",
          "name": "account",
          "type": "address"
        }
      ],
      "name": "hasRole",
      "outputs": [
        {
          "internalType": "bool",
          "name": "",
          "type": "bool"
        }
      ],
      "stateMutability": "view",
      "type": "function"
    },
    {
      "inputs": [],
      "name": "idCounter",
      "outputs": [
        {
          "internalType": "uint32",
          "name": "",
          "type": "uint32"
        }
      ],
      "stateMutability": "view",
      "type": "function"
    },
    {
      "inputs": [
        {
          "internalType": "address",
          "name": "account",
          "type": "address"
        },
        {
          "internalType": "address",
          "name": "operator",
          "type": "address"
        }
      ],
      "name": "isApprovedForAll",
      "outputs": [
        {
          "internalType": "bool",
          "name": "",
          "type": "bool"
        }
      ],
      "stateMutability": "view",
      "type": "function"
    },
    {
      "inputs": [
        {
          "internalType": "address",
          "name": "forwarder",
          "type": "address"
        }
      ],
      "name": "isTrustedForwarder",
      "outputs": [
        {
          "internalType": "bool",
          "name": "",
          "type": "bool"
        }
      ],
      "stateMutability": "view",
      "type": "function"
    },
    {
      "inputs": [],
      "name": "name",
      "outputs": [
        {
          "internalType": "string",
          "name": "",
          "type": "string"
        }
      ],
      "stateMutability": "view",
      "type": "function"
    },
    {
      "inputs": [],
      "name": "nftAttachment",
      "outputs": [
        {
          "internalType": "contract NFTAttachment",
          "name": "",
          "type": "address"
        }
      ],
      "stateMutability": "view",
      "type": "function"
    },
    {
      "inputs": [
        {
          "internalType": "bytes32",
          "name": "role",
          "type": "bytes32"
        },
        {
          "internalType": "address",
          "name": "account",
          "type": "address"
        }
      ],
      "name": "renounceRole",
      "outputs": [],
      "stateMutability": "nonpayable",
      "type": "function"
    },
    {
      "inputs": [
        {
          "internalType": "bytes32",
          "name": "role",
          "type": "bytes32"
        },
        {
          "internalType": "address",
          "name": "account",
          "type": "address"
        }
      ],
      "name": "revokeRole",
      "outputs": [],
      "stateMutability": "nonpayable",
      "type": "function"
    },
    {
      "inputs": [
        {
          "internalType": "address",
          "name": "from",
          "type": "address"
        },
        {
          "internalType": "address",
          "name": "to",
          "type": "address"
        },
        {
          "internalType": "uint256[]",
          "name": "ids",
          "type": "uint256[]"
        },
        {
          "internalType": "uint256[]",
          "name": "amounts",
          "type": "uint256[]"
        },
        {
          "internalType": "bytes",
          "name": "data",
          "type": "bytes"
        }
      ],
      "name": "safeBatchTransferFrom",
      "outputs": [],
      "stateMutability": "nonpayable",
      "type": "function"
    },
    {
      "inputs": [
        {
          "internalType": "address",
          "name": "from",
          "type": "address"
        },
        {
          "internalType": "address",
          "name": "to",
          "type": "address"
        },
        {
          "internalType": "uint256",
          "name": "id",
          "type": "uint256"
        },
        {
          "internalType": "uint256",
          "name": "amount",
          "type": "uint256"
        },
        {
          "internalType": "bytes",
          "name": "data",
          "type": "bytes"
        }
      ],
      "name": "safeTransferFrom",
      "outputs": [],
      "stateMutability": "nonpayable",
      "type": "function"
    },
    {
      "inputs": [
        {
          "internalType": "address",
          "name": "operator",
          "type": "address"
        },
        {
          "internalType": "bool",
          "name": "approved",
          "type": "bool"
        }
      ],
      "name": "setApprovalForAll",
      "outputs": [],
      "stateMutability": "nonpayable",
      "type": "function"
    },
    {
      "inputs": [
        {
          "internalType": "string",
          "name": "newuri",
          "type": "string"
        }
      ],
      "name": "setURI",
      "outputs": [],
      "stateMutability": "nonpayable",
      "type": "function"
    },
    {
      "inputs": [
        {
          "internalType": "bytes4",
          "name": "interfaceId",
          "type": "bytes4"
        }
      ],
      "name": "supportsInterface",
      "outputs": [
        {
          "internalType": "bool",
          "name": "",
          "type": "bool"
        }
      ],
      "stateMutability": "view",
      "type": "function"
    },
    {
      "inputs": [
        {
          "internalType": "address",
          "name": "from",
          "type": "address"
        },
        {
          "internalType": "address",
          "name": "to",
          "type": "address"
        },
        {
          "internalType": "uint256",
          "name": "id",
          "type": "uint256"
        },
        {
          "internalType": "uint256",
          "name": "amount",
          "type": "uint256"
        }
      ],
      "name": "transferFrom",
      "outputs": [],
      "stateMutability": "nonpayable",
      "type": "function"
    },
    {
      "inputs": [
        {
          "internalType": "address",
          "name": "newImplementation",
          "type": "address"
        }
      ],
      "name": "upgradeTo",
      "outputs": [],
      "stateMutability": "nonpayable",
      "type": "function"
    },
    {
      "inputs": [
        {
          "internalType": "address",
          "name": "newImplementation",
          "type": "address"
        },
        {
          "internalType": "bytes",
          "name": "data",
          "type": "bytes"
        }
      ],
      "name": "upgradeToAndCall",
      "outputs": [],
      "stateMutability": "payable",
      "type": "function"
    },
    {
      "inputs": [
        {
          "internalType": "uint256",
          "name": "",
          "type": "uint256"
        }
      ],
      "name": "uri",
      "outputs": [
        {
          "internalType": "string",
          "name": "",
          "type": "string"
        }
      ],
      "stateMutability": "view",
      "type": "function"
    },
    {
      "inputs": [
        {
          "internalType": "address",
          "name": "admin",
          "type": "address"
        },
        {
          "internalType": "address",
          "name": "minter",
          "type": "address"
        },
        {
          "internalType": "string",
          "name": "_name",
          "type": "string"
        },
        {
          "internalType": "string",
          "name": "_uri",
          "type": "string"
        },
        {
          "internalType": "string",
          "name": "__contractURI",
          "type": "string"
        },
        {
          "internalType": "contract Freeport",
          "name": "_freeport",
          "type": "address"
        },
        {
          "internalType": "contract NFTAttachment",
          "name": "_nftAttachment",
          "type": "address"
        }
      ],
      "name": "initialize",
      "outputs": [],
      "stateMutability": "nonpayable",
      "type": "function"
    },
    {
      "inputs": [],
      "name": "contractURI",
      "outputs": [
        {
          "internalType": "string",
          "name": "",
          "type": "string"
        }
      ],
      "stateMutability": "view",
      "type": "function"
    },
    {
      "inputs": [
        {
          "internalType": "uint64",
          "name": "supply",
          "type": "uint64"
        },
        {
          "internalType": "bytes",
          "name": "data",
          "type": "bytes"
        }
      ],
      "name": "issueNft",
      "outputs": [
        {
          "internalType": "uint256",
          "name": "",
          "type": "uint256"
        }
      ],
      "stateMutability": "nonpayable",
      "type": "function"
    },
    {
      "inputs": [
        {
          "internalType": "address",
          "name": "primaryRoyaltyAccount",
          "type": "address"
        },
        {
          "internalType": "uint256",
          "name": "primaryRoyaltyCut",
          "type": "uint256"
        },
        {
          "internalType": "uint256",
          "name": "primaryRoyaltyMinimum",
          "type": "uint256"
        },
        {
          "internalType": "address",
          "name": "secondaryRoyaltyAccount",
          "type": "address"
        },
        {
          "internalType": "uint256",
          "name": "secondaryRoyaltyCut",
          "type": "uint256"
        },
        {
          "internalType": "uint256",
          "name": "secondaryRoyaltyMinimum",
          "type": "uint256"
        }
      ],
      "name": "setupRoyaltyConfiguration",
      "outputs": [],
      "stateMutability": "nonpayable",
      "type": "function"
    },
    {
      "inputs": [],
      "name": "getRoyalties",
      "outputs": [
        {
          "internalType": "address",
          "name": "primaryRoyaltyAccount",
          "type": "address"
        },
        {
          "internalType": "uint256",
          "name": "primaryRoyaltyCut",
          "type": "uint256"
        },
        {
          "internalType": "uint256",
          "name": "primaryRoyaltyMinimum",
          "type": "uint256"
        },
        {
          "internalType": "address",
          "name": "secondaryRoyaltyAccount",
          "type": "address"
        },
        {
          "internalType": "uint256",
          "name": "secondaryRoyaltyCut",
          "type": "uint256"
        },
        {
          "internalType": "uint256",
          "name": "secondaryRoyaltyMinimum",
          "type": "uint256"
        }
      ],
      "stateMutability": "view",
      "type": "function"
    },
    {
      "inputs": [
        {
          "internalType": "address",
          "name": "beneficiary",
          "type": "address"
        }
      ],
      "name": "getRoyaltiesForBeneficiary",
      "outputs": [
        {
          "internalType": "uint256",
          "name": "primaryCut",
          "type": "uint256"
        },
        {
          "internalType": "uint256",
          "name": "primaryMinimum",
          "type": "uint256"
        },
        {
          "internalType": "uint256",
          "name": "secondaryCut",
          "type": "uint256"
        },
        {
          "internalType": "uint256",
          "name": "secondaryMinimum",
          "type": "uint256"
        }
      ],
      "stateMutability": "view",
      "type": "function"
    },
    {
      "inputs": [
        {
          "internalType": "uint32",
          "name": "innerNftId",
          "type": "uint32"
        },
        {
          "internalType": "bytes",
          "name": "attachment",
          "type": "bytes"
        }
      ],
      "name": "minterAttachToNFT",
      "outputs": [],
      "stateMutability": "nonpayable",
      "type": "function"
    },
    {
      "inputs": [
        {
          "internalType": "uint32",
          "name": "innerNftId",
          "type": "uint32"
        },
        {
          "internalType": "bytes",
          "name": "attachment",
          "type": "bytes"
        }
      ],
      "name": "anonymAttachToNFT",
      "outputs": [],
      "stateMutability": "nonpayable",
      "type": "function"
    },
    {
      "inputs": [
        {
          "internalType": "uint32",
          "name": "innerNftId",
          "type": "uint32"
        }
      ],
      "name": "getGlobalNftId",
      "outputs": [
        {
          "internalType": "uint256",
          "name": "",
          "type": "uint256"
        }
      ],
      "stateMutability": "view",
      "type": "function"
    }
  ],
  "bytecode": "0x608060405234801561001057600080fd5b50613494806100206000396000f3fe6080604052600436106101885760003560e01c8062fdd58e1461018d57806301ffc9a7146101c057806302fe5305146101f057806306fdde03146102125780630e89341c1461023457806311ec58681461025457806321101e1e146102825780632210023d146102a2578063248a9ca3146102c4578063288809c7146102e45780632eb2c2d6146103045780632f2ff15d1461032457806333df048e1461034457806336568abe146103975780633659cfe6146103b75780634e1273f4146103d75780634f1ef28614610404578063572b6c05146104175780638e86b6281461043757806391d14854146104575780639470ad85146104775780639a86e8ce14610498578063a217fddf146104ba578063a22cb465146104cf578063aea0ffc3146104ef578063c8274abe1461050f578063d547741f1461054f578063e8a3d4851461056f578063e985e9c514610584578063eb08ab28146105cd578063f242432a14610607578063f4e2efd014610627578063f9d5727b14610647578063fe99049a14610667575b600080fd5b34801561019957600080fd5b506101ad6101a8366004612a15565b610687565b6040519081526020015b60405180910390f35b3480156101cc57600080fd5b506101e06101db366004612bf8565b610720565b60405190151581526020016101b7565b3480156101fc57600080fd5b5061021061020b366004612c30565b610740565b005b34801561021e57600080fd5b50610227610792565b6040516101b79190612f61565b34801561024057600080fd5b5061022761024f366004612bbc565b610821565b34801561026057600080fd5b5061013054610275906001600160a01b031681565b6040516101b79190612e72565b34801561028e57600080fd5b5061021061029d366004612cb9565b6108b5565b3480156102ae57600080fd5b506101ad60008051602061341f83398151915281565b3480156102d057600080fd5b506101ad6102df366004612bbc565b610927565b3480156102f057600080fd5b506101ad6102ff366004612c9f565b61093c565b34801561031057600080fd5b5061021061031f366004612779565b610950565b34801561033057600080fd5b5061021061033f366004612bd4565b610c37565b34801561035057600080fd5b50610359610c60565b604080516001600160a01b039788168152602081019690965285019390935293166060830152608082019290925260a081019190915260c0016101b7565b3480156103a357600080fd5b506102106103b2366004612bd4565b610d0a565b3480156103c357600080fd5b506102106103d2366004612725565b610d98565b3480156103e357600080fd5b506103f76103f2366004612afa565b610dbc565b6040516101b79190612f29565b6102106104123660046129c8565b610f1d565b34801561042357600080fd5b506101e0610432366004612725565b610f32565b34801561044357600080fd5b50610210610452366004612822565b610f4c565b34801561046357600080fd5b506101e0610472366004612bd4565b611047565b34801561048357600080fd5b5061012f54610275906001600160a01b031681565b3480156104a457600080fd5b506101ad60008051602061343f83398151915281565b3480156104c657600080fd5b506101ad600081565b3480156104db57600080fd5b506102106104ea366004612997565b611072565b3480156104fb57600080fd5b5061021061050a366004612a40565b611186565b34801561051b57600080fd5b5061052f61052a366004612725565b61128c565b6040805194855260208501939093529183015260608201526080016101b7565b34801561055b57600080fd5b5061021061056a366004612bd4565b61133e565b34801561057b57600080fd5b5061022761135d565b34801561059057600080fd5b506101e061059f366004612741565b6001600160a01b03918216600090815260ca6020908152604080832093909416825291909152205460ff1690565b3480156105d957600080fd5b50610130546105f290600160a01b900463ffffffff1681565b60405163ffffffff90911681526020016101b7565b34801561061357600080fd5b50610210610622366004612931565b6113f0565b34801561063357600080fd5b506101ad610642366004612d36565b611564565b34801561065357600080fd5b50610210610662366004612cb9565b6115b8565b34801561067357600080fd5b506102106106823660046128ec565b611609565b60006001600160a01b0383166106f85760405162461bcd60e51b815260206004820152602b60248201527f455243313135353a2062616c616e636520717565727920666f7220746865207a60448201526a65726f206164647265737360a81b60648201526084015b60405180910390fd5b50600090815260c9602090815260408083206001600160a01b03949094168352929052205490565b600061072b8261168b565b8061073a575061073a826116db565b92915050565b61074d6000610472611700565b6107865760405162461bcd60e51b815260206004820152600a60248201526937b7363c9030b236b4b760b11b60448201526064016106ef565b61078f8161170f565b50565b61012d80546107a09061321a565b80601f01602080910402602001604051908101604052809291908181526020018280546107cc9061321a565b80156108195780601f106107ee57610100808354040283529160200191610819565b820191906000526020600020905b8154815290600101906020018083116107fc57829003601f168201915b505050505081565b606060cb80546108309061321a565b80601f016020809104026020016040519081016040528092919081815260200182805461085c9061321a565b80156108a95780601f1061087e576101008083540402835291602001916108a9565b820191906000526020600020905b81548152906001019060200180831161088c57829003601f168201915b50505050509050919050565b610130546001600160a01b031663f9715b8f6108d08561093c565b84846040518463ffffffff1660e01b81526004016108f093929190613108565b600060405180830381600087803b15801561090a57600080fd5b505af115801561091e573d6000803e3d6000fd5b50505050505050565b600090815260fb602052604090206001015490565b60401b63ffffffff60401b163060601b1790565b81518351146109b25760405162461bcd60e51b815260206004820152602860248201527f455243313135353a2069647320616e6420616d6f756e7473206c656e677468206044820152670dad2e6dac2e8c6d60c31b60648201526084016106ef565b6001600160a01b0384166109d85760405162461bcd60e51b81526004016106ef9061302b565b6109e0611700565b6001600160a01b0316856001600160a01b03161480610a065750610a068561059f611700565b610a6d5760405162461bcd60e51b815260206004820152603260248201527f455243313135353a207472616e736665722063616c6c6572206973206e6f74206044820152711bdddb995c881b9bdc88185c1c1c9bdd995960721b60648201526084016106ef565b6000610a77611700565b905060005b8451811015610bc9576000858281518110610aa757634e487b7160e01b600052603260045260246000fd5b602002602001015190506000858381518110610ad357634e487b7160e01b600052603260045260246000fd5b602090810291909101810151600084815260c9835260408082206001600160a01b038e168352909352919091205490915081811015610b245760405162461bcd60e51b81526004016106ef906130be565b610b2e82826131c0565b60c9600085815260200190815260200160002060008c6001600160a01b03166001600160a01b03168152602001908152602001600020819055508160c9600085815260200190815260200160002060008b6001600160a01b03166001600160a01b031681526020019081526020016000206000828254610bae9190613161565b9250508190555050505080610bc290613281565b9050610a7c565b50846001600160a01b0316866001600160a01b0316826001600160a01b03167f4a39dc06d4c0dbc64b70af90fd698a233a518aa5d07e595d983b8c0526c8f7fb8787604051610c19929190612f3c565b60405180910390a4610c2f818787878787611722565b505050505050565b610c4082610927565b610c5181610c4c611700565b61188d565b610c5b83836118f1565b505050565b61012f54600090819081908190819081906001600160a01b031663bb3bafd6610c89600161093c565b6040518263ffffffff1660e01b8152600401610ca791815260200190565b60c06040518083038186803b158015610cbf57600080fd5b505afa158015610cd3573d6000803e3d6000fd5b505050506040513d601f19601f82011682018060405250810190610cf79190612a9b565b949b939a50919850965094509092509050565b610d12611700565b6001600160a01b0316816001600160a01b031614610d8a5760405162461bcd60e51b815260206004820152602f60248201527f416363657373436f6e74726f6c3a2063616e206f6e6c792072656e6f756e636560448201526e103937b632b9903337b91039b2b63360891b60648201526084016106ef565b610d948282611978565b5050565b610da1816119fd565b61078f81604051806020016040528060008152506000611a41565b60608151835114610e215760405162461bcd60e51b815260206004820152602960248201527f455243313135353a206163636f756e747320616e6420696473206c656e677468604482015268040dad2e6dac2e8c6d60bb1b60648201526084016106ef565b600083516001600160401b03811115610e4a57634e487b7160e01b600052604160045260246000fd5b604051908082528060200260200182016040528015610e73578160200160208202803683370190505b50905060005b8451811015610f1557610eda858281518110610ea557634e487b7160e01b600052603260045260246000fd5b6020026020010151858381518110610ecd57634e487b7160e01b600052603260045260246000fd5b6020026020010151610687565b828281518110610efa57634e487b7160e01b600052603260045260246000fd5b6020908102919091010152610f0e81613281565b9050610e79565b509392505050565b610f26826119fd565b610d9482826001611a41565b600061073a60008051602061343f83398151915283611047565b600054610100900460ff1680610f65575060005460ff16155b610f815760405162461bcd60e51b81526004016106ef90613070565b600054610100900460ff16158015610fa3576000805461ffff19166101011790555b610fac85611bbc565b610fb7600089611bcd565b610fcf60008051602061341f83398151915288611bcd565b8551610fe39061012d906020890190612586565b508351610ff89061012e906020870190612586565b5061012f80546001600160a01b038086166001600160a01b031992831617909255610130805492851692909116919091179055801561103d576000805461ff00191690555b5050505050505050565b600091825260fb602090815260408084206001600160a01b0393909316845291905290205460ff1690565b816001600160a01b0316611084611700565b6001600160a01b031614156110ed5760405162461bcd60e51b815260206004820152602960248201527f455243313135353a2073657474696e6720617070726f76616c20737461747573604482015268103337b91039b2b63360b91b60648201526084016106ef565b8060ca60006110fa611700565b6001600160a01b03908116825260208083019390935260409182016000908120918716808252919093529120805460ff19169215159290921790915561113e611700565b6001600160a01b03167f17307eab39ab6107e8899845ad3d59bd9653f200f220920489ca2b5937696c318360405161117a911515815260200190565b60405180910390a35050565b6111a060008051602061341f833981519152610472611700565b6111bc5760405162461bcd60e51b81526004016106ef90613005565b60015b6101305463ffffffff600160a01b90910481169082161161091e5761012f546001600160a01b031663ad09608a6111f58361093c565b6040516001600160e01b031960e084901b16815260048101919091526001600160a01b03808b166024830152604482018a9052606482018990528716608482015260a4810186905260c4810185905260e401600060405180830381600087803b15801561126157600080fd5b505af1158015611275573d6000803e3d6000fd5b5050505080806112849061329c565b9150506111bf565b61012f546000908190819081906001600160a01b031663e24b0a2b6112b1600161093c565b6040516001600160e01b031960e084901b16815260048101919091526001600160a01b038816602482015260440160806040518083038186803b1580156112f757600080fd5b505afa15801561130b573d6000803e3d6000fd5b505050506040513d601f19601f8201168201806040525081019061132f9190612c6a565b93509350935093509193509193565b61134782610927565b61135381610c4c611700565b610c5b8383611978565b606061012e805461136d9061321a565b80601f01602080910402602001604051908101604052809291908181526020018280546113999061321a565b80156113e65780601f106113bb576101008083540402835291602001916113e6565b820191906000526020600020905b8154815290600101906020018083116113c957829003601f168201915b5050505050905090565b6001600160a01b0384166114165760405162461bcd60e51b81526004016106ef9061302b565b61141e611700565b6001600160a01b0316856001600160a01b0316148061144457506114448561059f611700565b6114605760405162461bcd60e51b81526004016106ef90612fbc565b600061146a611700565b905061148b81878761147b88611bd7565b61148488611bd7565b5050505050565b600084815260c9602090815260408083206001600160a01b038a168452909152902054838110156114ce5760405162461bcd60e51b81526004016106ef906130be565b6114d884826131c0565b600086815260c9602090815260408083206001600160a01b038c81168552925280832093909355881681529081208054869290611516908490613161565b909155505060408051868152602081018690526001600160a01b03808916928a821692918616916000805160206133b8833981519152910160405180910390a461091e828888888888611c30565b600061158060008051602061341f833981519152610472611700565b61159c5760405162461bcd60e51b81526004016106ef90613005565b6115b16102ff6115aa611700565b8585611cfa565b9392505050565b6115d260008051602061341f833981519152610472611700565b6115ee5760405162461bcd60e51b81526004016106ef90613005565b610130546001600160a01b031663b85f8ca96108d08561093c565b6001600160a01b03831661162f5760405162461bcd60e51b81526004016106ef9061302b565b611637611700565b6001600160a01b0316846001600160a01b0316148061165d575061165d8461059f611700565b6116795760405162461bcd60e51b81526004016106ef90612fbc565b61168584848484611d83565b50505050565b60006001600160e01b03198216636cdb3d1360e11b14806116bc57506001600160e01b031982166303a24d0760e21b145b8061073a57506301ffc9a760e01b6001600160e01b031983161461073a565b60006001600160e01b03198216637965db0b60e01b148061073a575061073a8261168b565b600061170a611e76565b905090565b8051610d949060cb906020840190612586565b6001600160a01b0384163b15610c2f5760405163bc197c8160e01b81526001600160a01b0385169063bc197c81906117669089908990889088908890600401612e86565b602060405180830381600087803b15801561178057600080fd5b505af19250505080156117b0575060408051601f3d908101601f191682019092526117ad91810190612c14565b60015b61185d576117bc6132ec565b806308c379a014156117f657506117d1613303565b806117dc57506117f8565b8060405162461bcd60e51b81526004016106ef9190612f61565b505b60405162461bcd60e51b815260206004820152603460248201527f455243313135353a207472616e7366657220746f206e6f6e20455243313135356044820152732932b1b2b4bb32b91034b6b83632b6b2b73a32b960611b60648201526084016106ef565b6001600160e01b0319811663bc197c8160e01b1461091e5760405162461bcd60e51b81526004016106ef90612f74565b6118978282611047565b610d94576118af816001600160a01b03166014611e9b565b6118ba836020611e9b565b6040516020016118cb929190612e03565b60408051601f198184030181529082905262461bcd60e51b82526106ef91600401612f61565b6118fb8282611047565b610d9457600082815260fb602090815260408083206001600160a01b03851684529091529020805460ff19166001179055611934611700565b6001600160a01b0316816001600160a01b0316837f2f8788117e7eff1d82e926ec794901d17c78024a50270940304540a733656f0d60405160405180910390a45050565b6119828282611047565b15610d9457600082815260fb602090815260408083206001600160a01b03851684529091529020805460ff191690556119b9611700565b6001600160a01b0316816001600160a01b0316837ff6391f5c32d9c69d2a47ea670b442974b53935d1edc7fd64eb21e047a839171b60405160405180910390a45050565b611a08600033611047565b61078f5760405162461bcd60e51b815260206004820152600a60248201526927b7363c9020b236b4b760b11b60448201526064016106ef565b6000611a4b61207c565b9050611a5684612098565b600083511180611a635750815b15611a7457611a72848461212b565b505b7f4910fdfa16fed3260ed0e7147f7cc6da11a60208b5b9406d12a635614ffd9143805460ff1661148457805460ff19166001178155604051611aef908690611ac0908590602401612e72565b60408051601f198184030181529190526020810180516001600160e01b0316631b2ce7f360e11b17905261212b565b50805460ff19168155611b0061207c565b6001600160a01b0316826001600160a01b031614611b785760405162461bcd60e51b815260206004820152602f60248201527f45524331393637557067726164653a207570677261646520627265616b73206660448201526e75727468657220757067726164657360881b60648201526084016106ef565b611b8185612098565b6040516001600160a01b038616907fbc7cd75a20ee27fd9adebab32041f755214dbc6bffa90cc0225b39da2e5c2d3b90600090a25050505050565b611bc581612216565b61078f61229b565b610d9482826118f1565b60408051600180825281830190925260609160009190602080830190803683370190505090508281600081518110611c1f57634e487b7160e01b600052603260045260246000fd5b602090810291909101015292915050565b6001600160a01b0384163b15610c2f5760405163f23a6e6160e01b81526001600160a01b0385169063f23a6e6190611c749089908990889088908890600401612ee4565b602060405180830381600087803b158015611c8e57600080fd5b505af1925050508015611cbe575060408051601f3d908101601f19168201909252611cbb91810190612c14565b60015b611cca576117bc6132ec565b6001600160e01b0319811663f23a6e6160e01b1461091e5760405162461bcd60e51b81526004016106ef90612f74565b61013054600090611d35908590611d1f90600160a01b900463ffffffff166001613179565b63ffffffff16856001600160401b0316856122a5565b61013054611d5190600160a01b900463ffffffff166001613179565b610130805463ffffffff60a01b1916600160a01b63ffffffff9384168102919091179182905590041690509392505050565b600082815260c9602090815260408083206001600160a01b038816845290915290205481811015611dc65760405162461bcd60e51b81526004016106ef906130be565b611dd082826131c0565b600084815260c9602090815260408083206001600160a01b038a81168552925280832093909355861681529081208054849290611e0e908490613161565b9091555060009050611e1e611700565b9050846001600160a01b0316866001600160a01b0316826001600160a01b03166000805160206133b88339815191528787604051611e66929190918252602082015260400190565b60405180910390a4505050505050565b6000611e8133610f32565b15611e93575060131936013560601c90565b503390565b90565b60606000611eaa8360026131a1565b611eb5906002613161565b6001600160401b03811115611eda57634e487b7160e01b600052604160045260246000fd5b6040519080825280601f01601f191660200182016040528015611f04576020820181803683370190505b509050600360fc1b81600081518110611f2d57634e487b7160e01b600052603260045260246000fd5b60200101906001600160f81b031916908160001a905350600f60fb1b81600181518110611f6a57634e487b7160e01b600052603260045260246000fd5b60200101906001600160f81b031916908160001a9053506000611f8e8460026131a1565b611f99906001613161565b90505b600181111561202d576f181899199a1a9b1b9c1cb0b131b232b360811b85600f1660108110611fdb57634e487b7160e01b600052603260045260246000fd5b1a60f81b828281518110611fff57634e487b7160e01b600052603260045260246000fd5b60200101906001600160f81b031916908160001a90535060049490941c9361202681613203565b9050611f9c565b5083156115b15760405162461bcd60e51b815260206004820181905260248201527f537472696e67733a20686578206c656e67746820696e73756666696369656e7460448201526064016106ef565b6000805160206133d8833981519152546001600160a01b031690565b803b6120fc5760405162461bcd60e51b815260206004820152602d60248201527f455243313936373a206e657720696d706c656d656e746174696f6e206973206e60448201526c1bdd08184818dbdb9d1c9858dd609a1b60648201526084016106ef565b6000805160206133d883398151915280546001600160a01b0319166001600160a01b0392909216919091179055565b6060823b61218a5760405162461bcd60e51b815260206004820152602660248201527f416464726573733a2064656c65676174652063616c6c20746f206e6f6e2d636f6044820152651b9d1c9858dd60d21b60648201526084016106ef565b600080846001600160a01b0316846040516121a59190612de7565b600060405180830381855af49150503d80600081146121e0576040519150601f19603f3d011682016040523d82523d6000602084013e6121e5565b606091505b509150915061220d82826040518060600160405280602781526020016133f8602791396123a1565b95945050505050565b600054610100900460ff168061222f575060005460ff16155b61224b5760405162461bcd60e51b81526004016106ef90613070565b600054610100900460ff1615801561226d576000805461ffff19166101011790555b6122756123da565b61227d6123da565b61228682612445565b8015610d94576000805461ff00191690555050565b6122a36124a5565b565b6001600160a01b0384166123055760405162461bcd60e51b815260206004820152602160248201527f455243313135353a206d696e7420746f20746865207a65726f206164647265736044820152607360f81b60648201526084016106ef565b600061230f611700565b90506123218160008761147b88611bd7565b600084815260c9602090815260408083206001600160a01b038916845290915281208054859290612353908490613161565b909155505060408051858152602081018590526001600160a01b0380881692600092918516916000805160206133b8833981519152910160405180910390a461148481600087878787611c30565b606083156123b05750816115b1565b8251156123c05782518084602001fd5b8160405162461bcd60e51b81526004016106ef9190612f61565b600054610100900460ff16806123f3575060005460ff16155b61240f5760405162461bcd60e51b81526004016106ef90613070565b600054610100900460ff16158015612431576000805461ffff19166101011790555b801561078f576000805461ff001916905550565b600054610100900460ff168061245e575060005460ff16155b61247a5760405162461bcd60e51b81526004016106ef90613070565b600054610100900460ff1615801561249c576000805461ffff19166101011790555b6122868261170f565b6124ad6124c0565b6124b5612527565b6122a3600033611bcd565b600054610100900460ff16806124d9575060005460ff16155b6124f55760405162461bcd60e51b81526004016106ef90613070565b600054610100900460ff16158015612517576000805461ffff19166101011790555b61251f6123da565b6124316123da565b600054610100900460ff1680612540575060005460ff16155b61255c5760405162461bcd60e51b81526004016106ef90613070565b600054610100900460ff1615801561257e576000805461ffff19166101011790555b6125176123da565b8280546125929061321a565b90600052602060002090601f0160209004810192826125b457600085556125fa565b82601f106125cd57805160ff19168380011785556125fa565b828001600101855582156125fa579182015b828111156125fa5782518255916020019190600101906125df565b5061260692915061260a565b5090565b5b80821115612606576000815560010161260b565b803561262a8161338c565b919050565b600082601f83011261263f578081fd5b8135602061264c8261313e565b6040516126598282613255565b8381528281019150858301600585901b87018401881015612678578586fd5b855b858110156126965781358452928401929084019060010161267a565b5090979650505050505050565b600082601f8301126126b3578081fd5b81356001600160401b038111156126cc576126cc6132d6565b6040516126e3601f8301601f191660200182613255565b8181528460208386010111156126f7578283fd5b816020850160208301379081016020019190915292915050565b803563ffffffff8116811461262a57600080fd5b600060208284031215612736578081fd5b81356115b18161338c565b60008060408385031215612753578081fd5b823561275e8161338c565b9150602083013561276e8161338c565b809150509250929050565b600080600080600060a08688031215612790578081fd5b853561279b8161338c565b945060208601356127ab8161338c565b935060408601356001600160401b03808211156127c6578283fd5b6127d289838a0161262f565b945060608801359150808211156127e7578283fd5b6127f389838a0161262f565b93506080880135915080821115612808578283fd5b50612815888289016126a3565b9150509295509295909350565b600080600080600080600060e0888a03121561283c578182fd5b87356128478161338c565b965060208801356128578161338c565b955060408801356001600160401b0380821115612872578384fd5b61287e8b838c016126a3565b965060608a0135915080821115612893578384fd5b61289f8b838c016126a3565b955060808a01359150808211156128b4578384fd5b506128c18a828b016126a3565b9350506128d060a0890161261f565b91506128de60c0890161261f565b905092959891949750929550565b60008060008060808587031215612901578182fd5b843561290c8161338c565b9350602085013561291c8161338c565b93969395505050506040820135916060013590565b600080600080600060a08688031215612948578283fd5b85356129538161338c565b945060208601356129638161338c565b9350604086013592506060860135915060808601356001600160401b0381111561298b578182fd5b612815888289016126a3565b600080604083850312156129a9578182fd5b82356129b48161338c565b91506020830135801515811461276e578182fd5b600080604083850312156129da578182fd5b82356129e58161338c565b915060208301356001600160401b038111156129ff578182fd5b612a0b858286016126a3565b9150509250929050565b60008060408385031215612a27578182fd5b8235612a328161338c565b946020939093013593505050565b60008060008060008060c08789031215612a58578384fd5b8635612a638161338c565b955060208701359450604087013593506060870135612a818161338c565b9598949750929560808101359460a0909101359350915050565b60008060008060008060c08789031215612ab3578384fd5b8651612abe8161338c565b8096505060208701519450604087015193506060870151612ade8161338c565b809350506080870151915060a087015190509295509295509295565b60008060408385031215612b0c578182fd5b82356001600160401b0380821115612b22578384fd5b818501915085601f830112612b35578384fd5b81356020612b428261313e565b604051612b4f8282613255565b8381528281019150858301600585901b870184018b1015612b6e578889fd5b8896505b84871015612b99578035612b858161338c565b835260019690960195918301918301612b72565b5096505086013592505080821115612baf578283fd5b50612a0b8582860161262f565b600060208284031215612bcd578081fd5b5035919050565b60008060408385031215612be6578182fd5b82359150602083013561276e8161338c565b600060208284031215612c09578081fd5b81356115b1816133a1565b600060208284031215612c25578081fd5b81516115b1816133a1565b600060208284031215612c41578081fd5b81356001600160401b03811115612c56578182fd5b612c62848285016126a3565b949350505050565b60008060008060808587031215612c7f578182fd5b505082516020840151604085015160609095015191969095509092509050565b600060208284031215612cb0578081fd5b6115b182612711565b600080600060408486031215612ccd578081fd5b612cd684612711565b925060208401356001600160401b0380821115612cf1578283fd5b818601915086601f830112612d04578283fd5b813581811115612d12578384fd5b876020828501011115612d23578384fd5b6020830194508093505050509250925092565b60008060408385031215612d48578182fd5b82356001600160401b038082168214612d5f578384fd5b90925060208401359080821115612d74578283fd5b50612a0b858286016126a3565b6000815180845260208085019450808401835b83811015612db057815187529582019590820190600101612d94565b509495945050505050565b60008151808452612dd38160208601602086016131d7565b601f01601f19169290920160200192915050565b60008251612df98184602087016131d7565b9190910192915050565b76020b1b1b2b9b9a1b7b73a3937b61d1030b1b1b7bab73a1604d1b815260008351612e358160178501602088016131d7565b7001034b99036b4b9b9b4b733903937b6329607d1b6017918401918201528351612e668160288401602088016131d7565b01602801949350505050565b6001600160a01b0391909116815260200190565b6001600160a01b0386811682528516602082015260a060408201819052600090612eb290830186612d81565b8281036060840152612ec48186612d81565b90508281036080840152612ed88185612dbb565b98975050505050505050565b6001600160a01b03868116825285166020820152604081018490526060810183905260a060808201819052600090612f1e90830184612dbb565b979650505050505050565b6020815260006115b16020830184612d81565b604081526000612f4f6040830185612d81565b828103602084015261220d8185612d81565b6020815260006115b16020830184612dbb565b60208082526028908201527f455243313135353a204552433131353552656365697665722072656a656374656040820152676420746f6b656e7360c01b606082015260800190565b60208082526029908201527f455243313135353a2063616c6c6572206973206e6f74206f776e6572206e6f7260408201526808185c1c1c9bdd995960ba1b606082015260800190565b6020808252600c908201526b37b7363c9036b0b730b3b2b960a11b604082015260600190565b60208082526025908201527f455243313135353a207472616e7366657220746f20746865207a65726f206164604082015264647265737360d81b606082015260800190565b6020808252602e908201527f496e697469616c697a61626c653a20636f6e747261637420697320616c72656160408201526d191e481a5b9a5d1a585b1a5e995960921b606082015260800190565b6020808252602a908201527f455243313135353a20696e73756666696369656e742062616c616e636520666f60408201526939103a3930b739b332b960b11b606082015260800190565b83815260406020820152816040820152818360608301376000818301606090810191909152601f909201601f1916010192915050565b60006001600160401b03821115613157576131576132d6565b5060051b60200190565b60008219821115613174576131746132c0565b500190565b600063ffffffff808316818516808303821115613198576131986132c0565b01949350505050565b60008160001904831182151516156131bb576131bb6132c0565b500290565b6000828210156131d2576131d26132c0565b500390565b60005b838110156131f25781810151838201526020016131da565b838111156116855750506000910152565b600081613212576132126132c0565b506000190190565b600181811c9082168061322e57607f821691505b6020821081141561324f57634e487b7160e01b600052602260045260246000fd5b50919050565b601f8201601f191681016001600160401b038111828210171561327a5761327a6132d6565b6040525050565b6000600019821415613295576132956132c0565b5060010190565b600063ffffffff808316818114156132b6576132b66132c0565b6001019392505050565b634e487b7160e01b600052601160045260246000fd5b634e487b7160e01b600052604160045260246000fd5b600060033d1115611e9857600481823e5160e01c90565b600060443d10156133115790565b6040516003193d81016004833e81513d6001600160401b03808311602484018310171561334057505050505090565b82850191508151818111156133585750505050505090565b843d87010160208285010111156133725750505050505090565b61338160208286010187613255565b509095945050505050565b6001600160a01b038116811461078f57600080fd5b6001600160e01b03198116811461078f57600080fdfec3d58168c5ae7397731d063d5bbf3d657854427343f4c083240f7aacaa2d0f62360894a13ba1a3210667c828492db98dca3e2076cc3735a920a3ca505d382bbc416464726573733a206c6f772d6c6576656c2064656c65676174652063616c6c206661696c6564592c958fd52390f51665f668ae132c07938e885cabed2dc56aba7c2b264880953d2e894c222ba979e2dce2c7d940c0e9bb14306669e9f034eb1bb3979a2069d8a264697066735822122045cd82c9d44d496d44e5c723f4a94b3ee7154ae668aa695a2321783eda533d0664736f6c63430008040033",
  "immutableReferences": {},
  "source": "pragma solidity ^0.8.0;\n\nimport \"./freeportParts/BaseNFT.sol\";\nimport \"./Freeport.sol\";\nimport \"./NFTAttachment.sol\";\n\n/** This this contract describes the collection of NFTs associated with a particular user.\n *\n */\ncontract Collection is BaseNFT {\n    function initialize(address admin, address minter, string memory _name, string memory _uri, string memory __contractURI, Freeport _freeport, NFTAttachment _nftAttachment) public initializer {\n        __BaseNFT_init(_uri);\n        _setupRole(DEFAULT_ADMIN_ROLE, admin);\n        _setupRole(COLLECTION_MANAGER_ROLE, minter);\n\n        name = _name;\n        _contractURI = __contractURI;\n        freeport = Freeport(_freeport);\n        nftAttachment = NFTAttachment(_nftAttachment);\n    }\n\n    // Name of the collection for open sea.\n    string public name;\n    // Contract metadata URI of the collection.\n    string private _contractURI;\n    /** Collection manager role.\n     *  Used for configuring the amounts and beneficiaries of royalties on primary and secondary transfers of this NFT.\n     */\n    bytes32 public constant COLLECTION_MANAGER_ROLE = keccak256(\"COLLECTION_MANAGER_ROLE\");\n    // The address of Freeport contract.\n    Freeport public freeport;\n    // The address of NFTAttachment contract.\n    NFTAttachment public nftAttachment;\n    /** A counter of NFT types issued.\n     * This is used to generate unique NFT IDs.\n     */\n    uint32 public idCounter;\n\n    function contractURI() public view returns (string memory) {\n        return _contractURI;\n    }\n\n    /// Issuer interface\n    /** Issue NFT of a new type, and return its ID.\n     *\n     * No more NFT of this type can be issued again.\n     *\n     * The caller will be recorded as the issuer and it will initially own the NFT.\n     */\n    function issueNft(uint64 supply, bytes memory data)\n    public returns (uint256) {\n        require(hasRole(COLLECTION_MANAGER_ROLE, _msgSender()), \"only manager\");\n        return getGlobalNftId(_issueAs(_msgSender(), supply, data));\n    }\n\n    /** Internal implementation of the function issue.\n     */\n    function _issueAs(address issuer, uint64 supply, bytes memory data)\n    internal returns (uint32) {\n        _mint(issuer, idCounter + 1, supply, data);\n\n        idCounter = idCounter + 1;\n        return idCounter;\n    }\n    /// Issuer interface\n\n    /// Royalty management interface\n    /** Configure the amounts and beneficiaries of royalties on primary and secondary transfers of this NFT.\n     *  Delegating to Freeport implementation.\n     */\n    function setupRoyaltyConfiguration(\n        address primaryRoyaltyAccount,\n        uint256 primaryRoyaltyCut,\n        uint256 primaryRoyaltyMinimum,\n        address secondaryRoyaltyAccount,\n        uint256 secondaryRoyaltyCut,\n        uint256 secondaryRoyaltyMinimum)\n    public {\n        require(hasRole(COLLECTION_MANAGER_ROLE, _msgSender()), \"only manager\");\n\n        for (uint32 i = 1; i <= idCounter; i++) {\n            freeport.configureRoyalties(\n                getGlobalNftId(i),\n                primaryRoyaltyAccount,\n                primaryRoyaltyCut,\n                primaryRoyaltyMinimum,\n                secondaryRoyaltyAccount,\n                secondaryRoyaltyCut,\n                secondaryRoyaltyMinimum\n            );\n        }\n    }\n\n    /** Return the current configuration of royalties for all NFTs of the collection.\n     */\n    function getRoyalties()\n    public view returns (\n        address primaryRoyaltyAccount,\n        uint256 primaryRoyaltyCut,\n        uint256 primaryRoyaltyMinimum,\n        address secondaryRoyaltyAccount,\n        uint256 secondaryRoyaltyCut,\n        uint256 secondaryRoyaltyMinimum\n    ) {\n        return freeport.getRoyalties(getGlobalNftId(1)); // we are checking only the first minted NFT because we do not have interface for collection to set up royalties of specific NFTs.\n    }\n\n    /** Return the amount of royalties earned by a beneficiary on each primary and secondary transfer of an NFT.\n     *\n     * This function supports Joint Accounts. If royalties are paid to a JA and beneficiary is an owner of the JA,\n     * the shares of the royalties for this owner are returned.\n     */\n    function getRoyaltiesForBeneficiary(address beneficiary)\n    public view returns (uint256 primaryCut, uint256 primaryMinimum, uint256 secondaryCut, uint256 secondaryMinimum) {\n        return freeport.getRoyaltiesForBeneficiary(getGlobalNftId(1), beneficiary);\n    }\n    /// Royalty management interface\n\n    /// NFT attachment interface\n    /** Attach data `attachment` to the collection NFT with specific inner NFT id, as the minter of this NFT type.\n     *\n     * This only works for NFT IDs in the Freeport format.\n     */\n    function minterAttachToNFT(uint32 innerNftId, bytes calldata attachment)\n    public {\n        require(hasRole(COLLECTION_MANAGER_ROLE, _msgSender()), \"only manager\");\n        nftAttachment.minterAttachToNFT(getGlobalNftId(innerNftId), attachment);\n    }\n\n    /** Attach data `attachment` to the collection NFT with specific inner NFT id.\n     */\n    function anonymAttachToNFT(uint32 innerNftId, bytes calldata attachment)\n    public {\n        nftAttachment.anonymAttachToNFT(getGlobalNftId(innerNftId), attachment);\n    }\n    /// NFT attachment interface\n\n    /// NFT ID utilities\n    /** Calculate the global ID of an NFT type, identifying its inner nft id.\n     */\n    function getGlobalNftId(uint32 innerNftId)\n    public view returns (uint256) {\n        // issuer || innerNftId || supply (always equals to 0): 160 + 32 + 64 = 256 bits\n        uint256 id = (uint256(uint160(address(this))) << (32 + 64))\n        | (uint256(innerNftId) << 64)\n        | uint256(0);\n        return id;\n    }\n    /// NFT ID utilities\n}\n",
  "sourcePath": "/Users/neanvo/WorkFlow/cere/Freeport-Smart-Contracts/contracts/Collection.sol",
  "compiler": {
    "name": "solc",
    "version": "0.8.4+commit.c7e474f2.Emscripten.clang"
  },
  "schemaVersion": "3.4.4",
  "updatedAt": "2022-07-08T04:02:05.453Z",
  "devdoc": {
    "kind": "dev",
    "methods": {
      "balanceOf(address,uint256)": {
        "details": "See {IERC1155-balanceOf}. Requirements: - `account` cannot be the zero address."
      },
      "balanceOfBatch(address[],uint256[])": {
        "details": "See {IERC1155-balanceOfBatch}. Requirements: - `accounts` and `ids` must have the same length."
      },
      "getRoleAdmin(bytes32)": {
        "details": "Returns the admin role that controls `role`. See {grantRole} and {revokeRole}. To change a role's admin, use {_setRoleAdmin}."
      },
      "grantRole(bytes32,address)": {
        "details": "Grants `role` to `account`. If `account` had not been already granted `role`, emits a {RoleGranted} event. Requirements: - the caller must have ``role``'s admin role."
      },
      "hasRole(bytes32,address)": {
        "details": "Returns `true` if `account` has been granted `role`."
      },
      "isApprovedForAll(address,address)": {
        "details": "See {IERC1155-isApprovedForAll}."
      },
      "renounceRole(bytes32,address)": {
        "details": "Revokes `role` from the calling account. Roles are often managed via {grantRole} and {revokeRole}: this function's purpose is to provide a mechanism for accounts to lose their privileges if they are compromised (such as when a trusted device is misplaced). If the calling account had been granted `role`, emits a {RoleRevoked} event. Requirements: - the caller must be `account`."
      },
      "revokeRole(bytes32,address)": {
        "details": "Revokes `role` from `account`. If `account` had been granted `role`, emits a {RoleRevoked} event. Requirements: - the caller must have ``role``'s admin role."
      },
      "safeBatchTransferFrom(address,address,uint256[],uint256[],bytes)": {
        "details": "See {IERC1155-safeBatchTransferFrom}."
      },
      "safeTransferFrom(address,address,uint256,uint256,bytes)": {
        "details": "See {IERC1155-safeTransferFrom}."
      },
      "setApprovalForAll(address,bool)": {
        "details": "See {IERC1155-setApprovalForAll}."
      },
      "uri(uint256)": {
        "details": "See {IERC1155MetadataURI-uri}. This implementation returns the same URI for *all* token types. It relies on the token type ID substitution mechanism https://eips.ethereum.org/EIPS/eip-1155#metadata[defined in the EIP]. Clients calling this function must replace the `\\{id\\}` substring with the actual token type ID."
      }
    },
    "version": 1
  },
  "userdoc": {
    "kind": "user",
    "methods": {
      "COLLECTION_MANAGER_ROLE()": {
        "notice": "Collection manager role.  Used for configuring the amounts and beneficiaries of royalties on primary and secondary transfers of this NFT."
      },
      "anonymAttachToNFT(uint32,bytes)": {
        "notice": "Attach data `attachment` to the collection NFT with specific inner NFT id."
      },
      "getGlobalNftId(uint32)": {
        "notice": "Calculate the global ID of an NFT type, identifying its inner nft id."
      },
      "getRoyalties()": {
        "notice": "Return the current configuration of royalties for all NFTs of the collection."
      },
      "getRoyaltiesForBeneficiary(address)": {
        "notice": "Return the amount of royalties earned by a beneficiary on each primary and secondary transfer of an NFT. This function supports Joint Accounts. If royalties are paid to a JA and beneficiary is an owner of the JA, the shares of the royalties for this owner are returned."
      },
      "idCounter()": {
        "notice": "A counter of NFT types issued. This is used to generate unique NFT IDs."
      },
      "issueNft(uint64,bytes)": {
        "notice": "Issue NFT of a new type, and return its ID. No more NFT of this type can be issued again. The caller will be recorded as the issuer and it will initially own the NFT."
      },
      "minterAttachToNFT(uint32,bytes)": {
        "notice": "Attach data `attachment` to the collection NFT with specific inner NFT id, as the minter of this NFT type. This only works for NFT IDs in the Freeport format."
      },
      "setupRoyaltyConfiguration(address,uint256,uint256,address,uint256,uint256)": {
        "notice": "Configure the amounts and beneficiaries of royalties on primary and secondary transfers of this NFT.  Delegating to Freeport implementation."
      },
      "supportsInterface(bytes4)": {
        "notice": "Supports interfaces of AccessControl, ERC1155, and ERC1155 MetadataURI."
      },
      "transferFrom(address,address,uint256,uint256)": {
        "notice": "transferFrom performs a simple transfer, without calling the hooks  (no _beforeTokenTransfer and no onERC1155Received)."
      }
    },
    "notice": "This this contract describes the collection of NFTs associated with a particular user.",
    "version": 1
  }
}