{
  "contractName": "CollectionFactory",
  "abi": [
    {
      "anonymous": false,
      "inputs": [
        {
          "indexed": false,
          "internalType": "address",
          "name": "previousAdmin",
          "type": "address"
        },
        {
          "indexed": false,
          "internalType": "address",
          "name": "newAdmin",
          "type": "address"
        }
      ],
      "name": "AdminChanged",
      "type": "event"
    },
    {
      "anonymous": false,
      "inputs": [
        {
          "indexed": true,
          "internalType": "address",
          "name": "beacon",
          "type": "address"
        }
      ],
      "name": "BeaconUpgraded",
      "type": "event"
    },
    {
      "anonymous": false,
      "inputs": [
        {
          "indexed": false,
          "internalType": "string",
          "name": "name",
          "type": "string"
        },
        {
          "indexed": true,
          "internalType": "address",
          "name": "addr",
          "type": "address"
        }
      ],
      "name": "CollectionCreated",
      "type": "event"
    },
    {
      "anonymous": false,
      "inputs": [
        {
          "indexed": false,
          "internalType": "address",
          "name": "_operator",
          "type": "address"
        },
        {
          "indexed": false,
          "internalType": "address",
          "name": "_collection",
          "type": "address"
        },
        {
          "indexed": false,
          "internalType": "address",
          "name": "_holder",
          "type": "address"
        },
        {
          "indexed": false,
          "internalType": "uint256",
          "name": "_id",
          "type": "uint256"
        },
        {
          "indexed": false,
          "internalType": "uint64",
          "name": "_amount",
          "type": "uint64"
        }
      ],
      "name": "MintOnBehalf",
      "type": "event"
    },
    {
      "anonymous": false,
      "inputs": [
        {
          "indexed": true,
          "internalType": "bytes32",
          "name": "role",
          "type": "bytes32"
        },
        {
          "indexed": true,
          "internalType": "bytes32",
          "name": "previousAdminRole",
          "type": "bytes32"
        },
        {
          "indexed": true,
          "internalType": "bytes32",
          "name": "newAdminRole",
          "type": "bytes32"
        }
      ],
      "name": "RoleAdminChanged",
      "type": "event"
    },
    {
      "anonymous": false,
      "inputs": [
        {
          "indexed": true,
          "internalType": "bytes32",
          "name": "role",
          "type": "bytes32"
        },
        {
          "indexed": true,
          "internalType": "address",
          "name": "account",
          "type": "address"
        },
        {
          "indexed": true,
          "internalType": "address",
          "name": "sender",
          "type": "address"
        }
      ],
      "name": "RoleGranted",
      "type": "event"
    },
    {
      "anonymous": false,
      "inputs": [
        {
          "indexed": true,
          "internalType": "bytes32",
          "name": "role",
          "type": "bytes32"
        },
        {
          "indexed": true,
          "internalType": "address",
          "name": "account",
          "type": "address"
        },
        {
          "indexed": true,
          "internalType": "address",
          "name": "sender",
          "type": "address"
        }
      ],
      "name": "RoleRevoked",
      "type": "event"
    },
    {
      "anonymous": false,
      "inputs": [
        {
          "indexed": true,
          "internalType": "address",
          "name": "implementation",
          "type": "address"
        }
      ],
      "name": "Upgraded",
      "type": "event"
    },
    {
      "inputs": [],
      "name": "COLLECTION_CREATOR_ROLE",
      "outputs": [
        {
          "internalType": "bytes32",
          "name": "",
          "type": "bytes32"
        }
      ],
      "stateMutability": "view",
      "type": "function",
      "constant": true
    },
    {
      "inputs": [],
      "name": "COLLECTION_MANAGER_ROLE",
      "outputs": [
        {
          "internalType": "bytes32",
          "name": "",
          "type": "bytes32"
        }
      ],
      "stateMutability": "view",
      "type": "function",
      "constant": true
    },
    {
      "inputs": [],
      "name": "DEFAULT_ADMIN_ROLE",
      "outputs": [
        {
          "internalType": "bytes32",
          "name": "",
          "type": "bytes32"
        }
      ],
      "stateMutability": "view",
      "type": "function",
      "constant": true
    },
    {
      "inputs": [],
      "name": "META_TX_FORWARDER",
      "outputs": [
        {
          "internalType": "bytes32",
          "name": "",
          "type": "bytes32"
        }
      ],
      "stateMutability": "view",
      "type": "function",
      "constant": true
    },
    {
      "inputs": [],
      "name": "freeport",
      "outputs": [
        {
          "internalType": "contract Freeport",
          "name": "",
          "type": "address"
        }
      ],
      "stateMutability": "view",
      "type": "function",
      "constant": true
    },
    {
      "inputs": [
        {
          "internalType": "bytes32",
          "name": "role",
          "type": "bytes32"
        }
      ],
      "name": "getRoleAdmin",
      "outputs": [
        {
          "internalType": "bytes32",
          "name": "",
          "type": "bytes32"
        }
      ],
      "stateMutability": "view",
      "type": "function",
      "constant": true
    },
    {
      "inputs": [
        {
          "internalType": "bytes32",
          "name": "role",
          "type": "bytes32"
        },
        {
          "internalType": "address",
          "name": "account",
          "type": "address"
        }
      ],
      "name": "grantRole",
      "outputs": [],
      "stateMutability": "nonpayable",
      "type": "function"
    },
    {
      "inputs": [
        {
          "internalType": "bytes32",
          "name": "role",
          "type": "bytes32"
        },
        {
          "internalType": "address",
          "name": "account",
          "type": "address"
        }
      ],
      "name": "hasRole",
      "outputs": [
        {
          "internalType": "bool",
          "name": "",
          "type": "bool"
        }
      ],
      "stateMutability": "view",
      "type": "function",
      "constant": true
    },
    {
      "inputs": [
        {
          "internalType": "address",
          "name": "forwarder",
          "type": "address"
        }
      ],
      "name": "isTrustedForwarder",
      "outputs": [
        {
          "internalType": "bool",
          "name": "",
          "type": "bool"
        }
      ],
      "stateMutability": "view",
      "type": "function",
      "constant": true
    },
    {
      "inputs": [],
      "name": "nftAttachment",
      "outputs": [
        {
          "internalType": "contract NFTAttachment",
          "name": "",
          "type": "address"
        }
      ],
      "stateMutability": "view",
      "type": "function",
      "constant": true
    },
    {
      "inputs": [
        {
          "internalType": "bytes32",
          "name": "role",
          "type": "bytes32"
        },
        {
          "internalType": "address",
          "name": "account",
          "type": "address"
        }
      ],
      "name": "renounceRole",
      "outputs": [],
      "stateMutability": "nonpayable",
      "type": "function"
    },
    {
      "inputs": [
        {
          "internalType": "bytes32",
          "name": "role",
          "type": "bytes32"
        },
        {
          "internalType": "address",
          "name": "account",
          "type": "address"
        }
      ],
      "name": "revokeRole",
      "outputs": [],
      "stateMutability": "nonpayable",
      "type": "function"
    },
    {
      "inputs": [
        {
          "internalType": "bytes4",
          "name": "interfaceId",
          "type": "bytes4"
        }
      ],
      "name": "supportsInterface",
      "outputs": [
        {
          "internalType": "bool",
          "name": "",
          "type": "bool"
        }
      ],
      "stateMutability": "view",
      "type": "function",
      "constant": true
    },
    {
      "inputs": [
        {
          "internalType": "address",
          "name": "newImplementation",
          "type": "address"
        }
      ],
      "name": "upgradeTo",
      "outputs": [],
      "stateMutability": "nonpayable",
      "type": "function"
    },
    {
      "inputs": [
        {
          "internalType": "address",
          "name": "newImplementation",
          "type": "address"
        },
        {
          "internalType": "bytes",
          "name": "data",
          "type": "bytes"
        }
      ],
      "name": "upgradeToAndCall",
      "outputs": [],
      "stateMutability": "payable",
      "type": "function",
      "payable": true
    },
    {
      "inputs": [
        {
          "internalType": "contract Freeport",
          "name": "_freeport",
          "type": "address"
        },
        {
          "internalType": "contract NFTAttachment",
          "name": "_nftAttachment",
          "type": "address"
        }
      ],
      "name": "initialize",
      "outputs": [],
      "stateMutability": "nonpayable",
      "type": "function"
    },
    {
      "inputs": [
        {
          "internalType": "address",
          "name": "collectionManager",
          "type": "address"
        },
        {
          "internalType": "string",
          "name": "name",
          "type": "string"
        },
        {
          "internalType": "string",
          "name": "uriTpl",
          "type": "string"
        },
        {
          "internalType": "string",
          "name": "contractURI",
          "type": "string"
        }
      ],
      "name": "createCollection",
      "outputs": [
        {
          "internalType": "address",
          "name": "",
          "type": "address"
        }
      ],
      "stateMutability": "nonpayable",
      "type": "function"
    },
    {
      "inputs": [
        {
          "internalType": "address",
          "name": "collection",
          "type": "address"
        },
        {
          "internalType": "address",
          "name": "holder",
          "type": "address"
        },
        {
          "internalType": "uint64",
          "name": "supply",
          "type": "uint64"
        },
        {
          "internalType": "bytes",
          "name": "data",
          "type": "bytes"
        }
      ],
      "name": "mintOnBehalf",
      "outputs": [],
      "stateMutability": "nonpayable",
      "type": "function"
    }
  ],
  "bytecode": "0x608060405234801561001057600080fd5b50615306806100206000396000f3fe6080604052600436106100d95760003560e01c806301ffc9a7146100de57806311ec5868146101135780632210023d14610140578063248a9ca3146101705780632f2ff15d1461019057806336568abe146101b25780633659cfe6146101d25780633df17453146101f2578063485cc955146102125780634f1ef28614610232578063572b6c05146102455780636a4e7e731461026557806391d14854146102855780639470ad85146102a55780639a86e8ce146102c5578063a217fddf146102e7578063caff99ce146102fc578063d547741f14610330575b600080fd5b3480156100ea57600080fd5b506100fe6100f9366004611488565b610350565b60405190151581526020015b60405180910390f35b34801561011f57600080fd5b5060fd54610133906001600160a01b031681565b60405161010a91906115ac565b34801561014c57600080fd5b5061016260008051602061529183398151915281565b60405190815260200161010a565b34801561017c57600080fd5b5061016261018b366004611441565b610387565b34801561019c57600080fd5b506101b06101ab366004611459565b61039c565b005b3480156101be57600080fd5b506101b06101cd366004611459565b6103c5565b3480156101de57600080fd5b506101b06101ed3660046112c1565b610458565b3480156101fe57600080fd5b5061013361020d3660046113a4565b61047f565b34801561021e57600080fd5b506101b061022d3660046114b0565b6106b7565b6101b0610240366004611357565b61075c565b34801561025157600080fd5b506100fe6102603660046112c1565b610771565b34801561027157600080fd5b506101b06102803660046112dd565b61078b565b34801561029157600080fd5b506100fe6102a0366004611459565b610964565b3480156102b157600080fd5b5060fc54610133906001600160a01b031681565b3480156102d157600080fd5b506101626000805160206152b183398151915281565b3480156102f357600080fd5b50610162600081565b34801561030857600080fd5b506101627fe926d122b799dcbe5c2eccdf60ae0aefbb1a4bc75a7848bb07befecf8c775f5c81565b34801561033c57600080fd5b506101b061034b366004611459565b61098f565b60006001600160e01b03198216637965db0b60e01b148061038157506301ffc9a760e01b6001600160e01b03198316145b92915050565b600090815260c9602052604090206001015490565b6103a582610387565b6103b6816103b16109ae565b6109d0565b6103c08383610a34565b505050565b6103cd6109ae565b6001600160a01b0316816001600160a01b03161461044a5760405162461bcd60e51b815260206004820152602f60248201527f416363657373436f6e74726f6c3a2063616e206f6e6c792072656e6f756e636560448201526e103937b632b9903337b91039b2b63360891b60648201526084015b60405180910390fd5b6104548282610abb565b5050565b61046181610b40565b61047c81604051806020016040528060008152506000610b84565b50565b60006001600160a01b0385166104d75760405162461bcd60e51b815260206004820152601f60248201527f7a65726f206164647265737320636f6c6c656374696f6e206d616e61676572006044820152606401610441565b60006001600160a01b031660fb856040516104f29190611521565b908152604051908190036020019020546001600160a01b0316146105585760405162461bcd60e51b815260206004820152601e60248201527f636f6c6c656374696f6e206e616d6520616c72656164792065786973747300006044820152606401610441565b60006040516105669061122e565b604051809103906000f080158015610582573d6000803e3d6000fd5b5060fc5460fd546040516311d0d6c560e31b81529293506001600160a01b0380851693638e86b628936105c89330938d938d938d938d93918216929116906004016115c0565b600060405180830381600087803b1580156105e257600080fd5b505af11580156105f6573d6000803e3d6000fd5b505060ff8054600090815260fe6020526040902080546001600160a01b0319166001600160a01b03861617905554839250610633915060016116c1565b60ff55604051829060fb90610649908990611521565b90815260405190819003602001812080546001600160a01b039384166001600160a01b0319909116179055908316907f2660dd916ec25bcad9a3dd62c721e438ec0e975817265c1e03c2639b24ac7007906106a5908990611660565b60405180910390a25095945050505050565b600054610100900460ff16806106d0575060005460ff16155b6106ec5760405162461bcd60e51b815260040161044190611673565b600054610100900460ff1615801561070e576000805461ffff19166101011790555b610716610d00565b60fc80546001600160a01b038086166001600160a01b03199283161790925560fd80549285169290911691909117905580156103c0576000805461ff0019169055505050565b61076582610b40565b61045482826001610b84565b60006103816000805160206152b183398151915283610964565b60006107956109ae565b604051632474521560e21b815260008051602061529183398151915260048201526001600160a01b038083166024830152919250908616906391d148549060440160206040518083038186803b1580156107ee57600080fd5b505afa158015610802573d6000803e3d6000fd5b505050506040513d601f19601f820116820180604052508101906108269190611421565b6108725760405162461bcd60e51b815260206004820181905260248201527f73656e646572206973206e6f7420636f6c6c656374696f6e206d616e616765726044820152606401610441565b60405163eae6bf7f60e01b81526000906001600160a01b0387169063eae6bf7f906108a59088908890889060040161162d565b602060405180830381600087803b1580156108bf57600080fd5b505af11580156108d3573d6000803e3d6000fd5b505050506040513d601f19601f820116820180604052508101906108f791906114dd565b604080516001600160a01b0385811682528981166020830152881681830152606081018390526001600160401b038716608082015290519192507fc374fe64f912505e324ebcdfddeec8e13cacc40cfd16e03bfdb9efdedef9e221919081900360a00190a1505050505050565b600091825260c9602090815260408084206001600160a01b0393909316845291905290205460ff1690565b61099882610387565b6109a4816103b16109ae565b6103c08383610abb565b60006109b933610771565b156109cb575060131936013560601c90565b503390565b6109da8282610964565b610454576109f2816001600160a01b03166014610d0a565b6109fd836020610d0a565b604051602001610a0e92919061153d565b60408051601f198184030181529082905262461bcd60e51b825261044191600401611660565b610a3e8282610964565b61045457600082815260c9602090815260408083206001600160a01b03851684529091529020805460ff19166001179055610a776109ae565b6001600160a01b0316816001600160a01b0316837f2f8788117e7eff1d82e926ec794901d17c78024a50270940304540a733656f0d60405160405180910390a45050565b610ac58282610964565b1561045457600082815260c9602090815260408083206001600160a01b03851684529091529020805460ff19169055610afc6109ae565b6001600160a01b0316816001600160a01b0316837ff6391f5c32d9c69d2a47ea670b442974b53935d1edc7fd64eb21e047a839171b60405160405180910390a45050565b610b4b600033610964565b61047c5760405162461bcd60e51b815260206004820152600a60248201526927b7363c9020b236b4b760b11b6044820152606401610441565b6000610b8e610ef2565b9050610b9984610f0e565b600083511180610ba65750815b15610bb757610bb58484610fa1565b505b7f4910fdfa16fed3260ed0e7147f7cc6da11a60208b5b9406d12a635614ffd9143805460ff16610cf957805460ff19166001178155604051610c32908690610c039085906024016115ac565b60408051601f198184030181529190526020810180516001600160e01b0316631b2ce7f360e11b179052610fa1565b50805460ff19168155610c43610ef2565b6001600160a01b0316826001600160a01b031614610cbb5760405162461bcd60e51b815260206004820152602f60248201527f45524331393637557067726164653a207570677261646520627265616b73206660448201526e75727468657220757067726164657360881b6064820152608401610441565b610cc485610f0e565b6040516001600160a01b038616907fbc7cd75a20ee27fd9adebab32041f755214dbc6bffa90cc0225b39da2e5c2d3b90600090a25b5050505050565b610d0861108c565b565b60606000610d198360026116d9565b610d249060026116c1565b6001600160401b03811115610d4957634e487b7160e01b600052604160045260246000fd5b6040519080825280601f01601f191660200182016040528015610d73576020820181803683370190505b509050600360fc1b81600081518110610d9c57634e487b7160e01b600052603260045260246000fd5b60200101906001600160f81b031916908160001a905350600f60fb1b81600181518110610dd957634e487b7160e01b600052603260045260246000fd5b60200101906001600160f81b031916908160001a9053506000610dfd8460026116d9565b610e089060016116c1565b90505b6001811115610e9c576f181899199a1a9b1b9c1cb0b131b232b360811b85600f1660108110610e4a57634e487b7160e01b600052603260045260246000fd5b1a60f81b828281518110610e6e57634e487b7160e01b600052603260045260246000fd5b60200101906001600160f81b031916908160001a90535060049490941c93610e9581611728565b9050610e0b565b508315610eeb5760405162461bcd60e51b815260206004820181905260248201527f537472696e67733a20686578206c656e67746820696e73756666696369656e746044820152606401610441565b9392505050565b60008051602061524a833981519152546001600160a01b031690565b803b610f725760405162461bcd60e51b815260206004820152602d60248201527f455243313936373a206e657720696d706c656d656e746174696f6e206973206e60448201526c1bdd08184818dbdb9d1c9858dd609a1b6064820152608401610441565b60008051602061524a83398151915280546001600160a01b0319166001600160a01b0392909216919091179055565b6060823b6110005760405162461bcd60e51b815260206004820152602660248201527f416464726573733a2064656c65676174652063616c6c20746f206e6f6e2d636f6044820152651b9d1c9858dd60d21b6064820152608401610441565b600080846001600160a01b03168460405161101b9190611521565b600060405180830381855af49150503d8060008114611056576040519150601f19603f3d011682016040523d82523d6000602084013e61105b565b606091505b5091509150611083828260405180606001604052806027815260200161526a602791396110a7565b95945050505050565b6110946110e0565b61109c61115b565b610d086000336111ba565b606083156110b6575081610eeb565b8251156110c65782518084602001fd5b8160405162461bcd60e51b81526004016104419190611660565b600054610100900460ff16806110f9575060005460ff16155b6111155760405162461bcd60e51b815260040161044190611673565b600054610100900460ff16158015611137576000805461ffff19166101011790555b61113f6111c4565b6111476111c4565b801561047c576000805461ff001916905550565b600054610100900460ff1680611174575060005460ff16155b6111905760405162461bcd60e51b815260040161044190611673565b600054610100900460ff161580156111b2576000805461ffff19166101011790555b6111376111c4565b6104548282610a34565b600054610100900460ff16806111dd575060005460ff16155b6111f95760405162461bcd60e51b815260040161044190611673565b600054610100900460ff16158015611147576000805461ffff1916610101179055801561047c576000805461ff001916905550565b613ac98061178183390190565b600082601f83011261124b578081fd5b81356001600160401b038082111561126557611265611755565b604051601f8301601f19908116603f0116810190828211818310171561128d5761128d611755565b816040528381528660208588010111156112a5578485fd5b8360208701602083013792830160200193909352509392505050565b6000602082840312156112d2578081fd5b8135610eeb8161176b565b600080600080608085870312156112f2578283fd5b84356112fd8161176b565b9350602085013561130d8161176b565b925060408501356001600160401b038082168214611329578384fd5b9092506060860135908082111561133e578283fd5b5061134b8782880161123b565b91505092959194509250565b60008060408385031215611369578182fd5b82356113748161176b565b915060208301356001600160401b0381111561138e578182fd5b61139a8582860161123b565b9150509250929050565b600080600080608085870312156113b9578384fd5b84356113c48161176b565b935060208501356001600160401b03808211156113df578485fd5b6113eb8883890161123b565b94506040870135915080821115611400578384fd5b61140c8883890161123b565b9350606087013591508082111561133e578283fd5b600060208284031215611432578081fd5b81518015158114610eeb578182fd5b600060208284031215611452578081fd5b5035919050565b6000806040838503121561146b578182fd5b82359150602083013561147d8161176b565b809150509250929050565b600060208284031215611499578081fd5b81356001600160e01b031981168114610eeb578182fd5b600080604083850312156114c2578182fd5b82356114cd8161176b565b9150602083013561147d8161176b565b6000602082840312156114ee578081fd5b5051919050565b6000815180845261150d8160208601602086016116f8565b601f01601f19169290920160200192915050565b600082516115338184602087016116f8565b9190910192915050565b76020b1b1b2b9b9a1b7b73a3937b61d1030b1b1b7bab73a1604d1b81526000835161156f8160178501602088016116f8565b7001034b99036b4b9b9b4b733903937b6329607d1b60179184019182015283516115a08160288401602088016116f8565b01602801949350505050565b6001600160a01b0391909116815260200190565b600060018060a01b03808a168352808916602084015260e060408401526115ea60e08401896114f5565b83810360608501526115fc81896114f5565b9050838103608085015261161081886114f5565b95821660a0850152509290921660c0909101525095945050505050565b6001600160a01b03841681526001600160401b0383166020820152606060408201819052600090611083908301846114f5565b602081526000610eeb60208301846114f5565b6020808252602e908201527f496e697469616c697a61626c653a20636f6e747261637420697320616c72656160408201526d191e481a5b9a5d1a585b1a5e995960921b606082015260800190565b600082198211156116d4576116d461173f565b500190565b60008160001904831182151516156116f3576116f361173f565b500290565b60005b838110156117135781810151838201526020016116fb565b83811115611722576000848401525b50505050565b6000816117375761173761173f565b506000190190565b634e487b7160e01b600052601160045260246000fd5b634e487b7160e01b600052604160045260246000fd5b6001600160a01b038116811461047c57600080fdfe608060405234801561001057600080fd5b50613aa9806100206000396000f3fe60806040526004361061019e5760003560e01c8062fdd58e146101a357806301ffc9a7146101d657806302fe53051461020657806306fdde03146102285780630e89341c1461024a57806311ec58681461026a5780632210023d14610297578063248a9ca3146102b9578063288809c7146102d95780632eb2c2d6146102f95780632f2ff15d1461031957806333df048e1461033957806336568abe1461038c5780633659cfe6146103ac5780634e1273f4146103cc5780634f1ef286146103f9578063572b6c051461040c57806358556fb01461042c57806360e3ecd01461044c5780638e86b6281461046e57806391d148541461048e5780639470ad85146104ae5780639a86e8ce146104ce578063a217fddf146104f0578063a22cb46514610505578063aea0ffc314610525578063b85f8ca914610545578063c8274abe14610565578063d547741f146105a5578063e8a3d485146105c5578063e985e9c5146105da578063eae6bf7f146105fa578063eb08ab281461061a578063f242432a1461064d578063f9715b8f1461066d578063fe99049a1461068d575b600080fd5b3480156101af57600080fd5b506101c36101be366004612f71565b6106ad565b6040519081526020015b60405180910390f35b3480156101e257600080fd5b506101f66101f13660046131b1565b610749565b60405190151581526020016101cd565b34801561021257600080fd5b506102266102213660046131e9565b6107bf565b005b34801561023457600080fd5b5061023d610811565b6040516101cd9190613514565b34801561025657600080fd5b5061023d610265366004613175565b61089f565b34801561027657600080fd5b5060035461028a906001600160a01b031681565b6040516101cd9190613425565b3480156102a357600080fd5b506101c36000805160206139e183398151915281565b3480156102c557600080fd5b506101c36102d4366004613175565b6108da565b3480156102e557600080fd5b506101c36102f43660046132c6565b6108ef565b34801561030557600080fd5b50610226610314366004612cd5565b610903565b34801561032557600080fd5b5061022661033436600461318d565b610bea565b34801561034557600080fd5b5061034e610c13565b604080516001600160a01b039788168152602081019690965285019390935293166060830152608082019290925260a081019190915260c0016101cd565b34801561039857600080fd5b506102266103a736600461318d565b610cbc565b3480156103b857600080fd5b506102266103c7366004612c81565b610d4a565b3480156103d857600080fd5b506103ec6103e73660046130b3565b610d6e565b6040516101cd91906134dc565b610226610407366004612f24565b610ecf565b34801561041857600080fd5b506101f6610427366004612c81565b610ee4565b34801561043857600080fd5b506101c36104473660046132ea565b610efe565b34801561045857600080fd5b506101c3600080516020613a2183398151915281565b34801561047a57600080fd5b50610226610489366004612d7e565b610f35565b34801561049a57600080fd5b506101f66104a936600461318d565b61103a565b3480156104ba57600080fd5b5060025461028a906001600160a01b031681565b3480156104da57600080fd5b506101c3600080516020613a0183398151915281565b3480156104fc57600080fd5b506101c3600081565b34801561051157600080fd5b50610226610520366004612ef3565b611065565b34801561053157600080fd5b50610226610540366004612f9c565b611179565b34801561055157600080fd5b5061022661056036600461321b565b61125c565b34801561057157600080fd5b50610585610580366004612c81565b6112d9565b6040805194855260208501939093529183015260608201526080016101cd565b3480156105b157600080fd5b506102266105c036600461318d565b61138a565b3480156105d157600080fd5b5061023d6113a9565b3480156105e657600080fd5b506101f66105f5366004612c9d565b61143b565b34801561060657600080fd5b506101c3610615366004613056565b61144e565b34801561062657600080fd5b50610130546106389063ffffffff1681565b60405163ffffffff90911681526020016101cd565b34801561065957600080fd5b50610226610668366004612e8d565b61147f565b34801561067957600080fd5b5061022661068836600461321b565b6115fc565b34801561069957600080fd5b506102266106a8366004612e48565b61165e565b60006001600160a01b03831661071e5760405162461bcd60e51b815260206004820152602b60248201527f455243313135353a2062616c616e636520717565727920666f7220746865207a60448201526a65726f206164647265737360a81b60648201526084015b60405180910390fd5b50600081815260cc602090815260408083206001600160a01b03861684529091529020545b92915050565b60006001600160e01b03198216631669832d60e31b148061077a57506001600160e01b0319821663444ce65960e11b145b8061079557506001600160e01b03198216631fb313c760e31b145b806107b057506001600160e01b0319821663da8def7360e01b145b806107435750610743826116e0565b6107cc60006104a96116fa565b6108055760405162461bcd60e51b815260206004820152600a60248201526937b7363c9030b236b4b760b11b6044820152606401610715565b61080e81611709565b50565b6000805461081e906137b2565b80601f016020809104026020016040519081016040528092919081815260200182805461084a906137b2565b80156108975780601f1061086c57610100808354040283529160200191610897565b820191906000526020600020905b81548152906001019060200180831161087a57829003601f168201915b505050505081565b60606108aa8261171c565b6108b3836117b0565b6040516020016108c4929190613387565b6040516020818303038152906040529050919050565b600090815260fe602052604090206001015490565b60401b63ffffffff60401b163060601b1790565b81518351146109655760405162461bcd60e51b815260206004820152602860248201527f455243313135353a2069647320616e6420616d6f756e7473206c656e677468206044820152670dad2e6dac2e8c6d60c31b6064820152608401610715565b6001600160a01b03841661098b5760405162461bcd60e51b8152600401610715906135b8565b6109936116fa565b6001600160a01b0316856001600160a01b031614806109b957506109b9856105f56116fa565b610a205760405162461bcd60e51b815260206004820152603260248201527f455243313135353a207472616e736665722063616c6c6572206973206e6f74206044820152711bdddb995c881b9bdc88185c1c1c9bdd995960721b6064820152608401610715565b6000610a2a6116fa565b905060005b8451811015610b7c576000858281518110610a5a57634e487b7160e01b600052603260045260246000fd5b602002602001015190506000858381518110610a8657634e487b7160e01b600052603260045260246000fd5b602090810291909101810151600084815260cc835260408082206001600160a01b038e168352909352919091205490915081811015610ad75760405162461bcd60e51b81526004016107159061364b565b610ae18282613758565b60cc600085815260200190815260200160002060008c6001600160a01b03166001600160a01b03168152602001908152602001600020819055508160cc600085815260200190815260200160002060008b6001600160a01b03166001600160a01b031681526020019081526020016000206000828254610b6191906136ee565b9250508190555050505080610b7590613819565b9050610a2f565b50846001600160a01b0316866001600160a01b0316826001600160a01b03167f4a39dc06d4c0dbc64b70af90fd698a233a518aa5d07e595d983b8c0526c8f7fb8787604051610bcc9291906134ef565b60405180910390a4610be28187878787876118c9565b505050505050565b610bf3826108da565b610c0481610bff6116fa565b611a34565b610c0e8383611a98565b505050565b600254600090819081908190819081906001600160a01b031663bb3bafd6610c3b60016108ef565b6040518263ffffffff1660e01b8152600401610c5991815260200190565b60c06040518083038186803b158015610c7157600080fd5b505afa158015610c85573d6000803e3d6000fd5b505050506040513d601f19601f82011682018060405250810190610ca99190612ff7565b949b939a50919850965094509092509050565b610cc46116fa565b6001600160a01b0316816001600160a01b031614610d3c5760405162461bcd60e51b815260206004820152602f60248201527f416363657373436f6e74726f6c3a2063616e206f6e6c792072656e6f756e636560448201526e103937b632b9903337b91039b2b63360891b6064820152608401610715565b610d468282611b1f565b5050565b610d5381611ba4565b61080e81604051806020016040528060008152506000611be8565b60608151835114610dd35760405162461bcd60e51b815260206004820152602960248201527f455243313135353a206163636f756e747320616e6420696473206c656e677468604482015268040dad2e6dac2e8c6d60bb1b6064820152608401610715565b600083516001600160401b03811115610dfc57634e487b7160e01b600052604160045260246000fd5b604051908082528060200260200182016040528015610e25578160200160208202803683370190505b50905060005b8451811015610ec757610e8c858281518110610e5757634e487b7160e01b600052603260045260246000fd5b6020026020010151858381518110610e7f57634e487b7160e01b600052603260045260246000fd5b60200260200101516106ad565b828281518110610eac57634e487b7160e01b600052603260045260246000fd5b6020908102919091010152610ec081613819565b9050610e2b565b509392505050565b610ed882611ba4565b610d4682826001611be8565b6000610743600080516020613a018339815191528361103a565b60006000805160206139e1833981519152610f1b81610bff6116fa565b610f2d610f266116fa565b8585611d63565b949350505050565b600354600160a81b900460ff1680610f575750600354600160a01b900460ff16155b610f735760405162461bcd60e51b8152600401610715906135fd565b600354600160a81b900460ff16158015610f9d576003805461ffff60a01b191661010160a01b1790555b610fa78685611df1565b610fb083611e18565b610fb982611eb3565b610fc1611f3b565b610fc9611fe2565b610fd161206b565b845115610fe157610fe185611709565b610fec600089612096565b6110046000805160206139e183398151915288612096565b61101c6000805160206139e183398151915289612096565b8015611030576003805460ff60a81b191690555b5050505050505050565b600091825260fe602090815260408084206001600160a01b0393909316845291905290205460ff1690565b816001600160a01b03166110776116fa565b6001600160a01b031614156110e05760405162461bcd60e51b815260206004820152602960248201527f455243313135353a2073657474696e6720617070726f76616c20737461747573604482015268103337b91039b2b63360b91b6064820152608401610715565b8060cd60006110ed6116fa565b6001600160a01b03908116825260208083019390935260409182016000908120918716808252919093529120805460ff1916921515929092179091556111316116fa565b6001600160a01b03167f17307eab39ab6107e8899845ad3d59bd9653f200f220920489ca2b5937696c318360405161116d911515815260200190565b60405180910390a35050565b6000805160206139e183398151915261119481610bff6116fa565b60015b6101305463ffffffff90811690821611611030576002546001600160a01b031663ad09608a6111c5836108ef565b6040516001600160e01b031960e084901b16815260048101919091526001600160a01b03808c166024830152604482018b9052606482018a90528816608482015260a4810187905260c4810186905260e401600060405180830381600087803b15801561123157600080fd5b505af1158015611245573d6000803e3d6000fd5b50505050808061125490613834565b915050611197565b6000805160206139e183398151915261127781610bff6116fa565b60035460405163b85f8ca960e01b81526001600160a01b039091169063b85f8ca9906112ab90879087908790600401613695565b600060405180830381600087803b1580156112c557600080fd5b505af1158015611030573d6000803e3d6000fd5b6002546000908190819081906001600160a01b031663e24b0a2b6112fd60016108ef565b6040516001600160e01b031960e084901b16815260048101919091526001600160a01b038816602482015260440160806040518083038186803b15801561134357600080fd5b505afa158015611357573d6000803e3d6000fd5b505050506040513d601f19601f8201168201806040525081019061137b9190613291565b93509350935093509193509193565b611393826108da565b61139f81610bff6116fa565b610c0e8383611b1f565b6060600180546113b8906137b2565b80601f01602080910402602001604051908101604052809291908181526020018280546113e4906137b2565b80156114315780601f1061140657610100808354040283529160200191611431565b820191906000526020600020905b81548152906001019060200180831161141457829003601f168201915b5050505050905090565b600061144783836120a0565b9392505050565b60006000805160206139e183398151915261146b81610bff6116fa565b611476858585611d63565b95945050505050565b6001600160a01b0384166114a55760405162461bcd60e51b8152600401610715906135b8565b6114ad6116fa565b6001600160a01b0316856001600160a01b031614806114d357506114d3856105f56116fa565b6114ef5760405162461bcd60e51b81526004016107159061356f565b60006114f96116fa565b905061151a81878761150a886120f5565b611513886120f5565b5050505050565b600084815260cc602090815260408083206001600160a01b038a1684529091529020548381101561155d5760405162461bcd60e51b81526004016107159061364b565b6115678482613758565b600086815260cc602090815260408083206001600160a01b038c811685529252808320939093558816815290812080548692906115a59084906136ee565b909155505060408051868152602081018690526001600160a01b03808916928a8216929186169160008051602061397a833981519152910160405180910390a46115f382888888888861214e565b50505050505050565b60035460405163f9715b8f60e01b81526001600160a01b039091169063f9715b8f9061163090869086908690600401613695565b600060405180830381600087803b15801561164a57600080fd5b505af11580156115f3573d6000803e3d6000fd5b6001600160a01b0383166116845760405162461bcd60e51b8152600401610715906135b8565b61168c6116fa565b6001600160a01b0316846001600160a01b031614806116b257506116b2846105f56116fa565b6116ce5760405162461bcd60e51b81526004016107159061356f565b6116da84848484612218565b50505050565b60006116eb8261230b565b8061074357506107438261235b565b6000611704612380565b905090565b8051610d469060ce906020840190612adf565b606060ce805461172b906137b2565b80601f0160208091040260200160405190810160405280929190818152602001828054611757906137b2565b80156117a45780601f10611779576101008083540402835291602001916117a4565b820191906000526020600020905b81548152906001019060200180831161178757829003601f168201915b50505050509050919050565b6060816117d45750506040805180820190915260018152600360fc1b602082015290565b8160005b81156117fe57806117e881613819565b91506117f79050600a83613725565b91506117d8565b6000816001600160401b0381111561182657634e487b7160e01b600052604160045260246000fd5b6040519080825280601f01601f191660200182016040528015611850576020820181803683370190505b5090505b8415610f2d57611865600183613758565b9150611872600a86613858565b61187d9060306136ee565b60f81b8183815181106118a057634e487b7160e01b600052603260045260246000fd5b60200101906001600160f81b031916908160001a9053506118c2600a86613725565b9450611854565b6001600160a01b0384163b15610be25760405163bc197c8160e01b81526001600160a01b0385169063bc197c819061190d9089908990889088908890600401613439565b602060405180830381600087803b15801561192757600080fd5b505af1925050508015611957575060408051601f3d908101601f19168201909252611954918101906131cd565b60015b611a04576119636138ae565b806308c379a0141561199d57506119786138c5565b80611983575061199f565b8060405162461bcd60e51b81526004016107159190613514565b505b60405162461bcd60e51b815260206004820152603460248201527f455243313135353a207472616e7366657220746f206e6f6e20455243313135356044820152732932b1b2b4bb32b91034b6b83632b6b2b73a32b960611b6064820152608401610715565b6001600160e01b0319811663bc197c8160e01b146115f35760405162461bcd60e51b815260040161071590613527565b611a3e828261103a565b610d4657611a56816001600160a01b0316601461238a565b611a6183602061238a565b604051602001611a729291906133b6565b60408051601f198184030181529082905262461bcd60e51b825261071591600401613514565b611aa2828261103a565b610d4657600082815260fe602090815260408083206001600160a01b03851684529091529020805460ff19166001179055611adb6116fa565b6001600160a01b0316816001600160a01b0316837f2f8788117e7eff1d82e926ec794901d17c78024a50270940304540a733656f0d60405160405180910390a45050565b611b29828261103a565b15610d4657600082815260fe602090815260408083206001600160a01b03851684529091529020805460ff19169055611b606116fa565b6001600160a01b0316816001600160a01b0316837ff6391f5c32d9c69d2a47ea670b442974b53935d1edc7fd64eb21e047a839171b60405160405180910390a45050565b611baf60003361103a565b61080e5760405162461bcd60e51b815260206004820152600a60248201526927b7363c9020b236b4b760b11b6044820152606401610715565b6000611bf261256b565b9050611bfd84612587565b600083511180611c0a5750815b15611c1b57611c19848461261a565b505b7f4910fdfa16fed3260ed0e7147f7cc6da11a60208b5b9406d12a635614ffd9143805460ff1661151357805460ff19166001178155604051611c96908690611c67908590602401613425565b60408051601f198184030181529190526020810180516001600160e01b0316631b2ce7f360e11b17905261261a565b50805460ff19168155611ca761256b565b6001600160a01b0316826001600160a01b031614611d1f5760405162461bcd60e51b815260206004820152602f60248201527f45524331393637557067726164653a207570677261646520627265616b73206660448201526e75727468657220757067726164657360881b6064820152608401610715565b611d2885612587565b6040516001600160a01b038616907fbc7cd75a20ee27fd9adebab32041f755214dbc6bffa90cc0225b39da2e5c2d3b90600090a25050505050565b610130546000908190611d7d9063ffffffff166001613706565b90506000611d8a826108ef565b90506000856001600160401b031611611da257600080fd5b611db78682876001600160401b0316876126fc565b61013054611dcc9063ffffffff166001613706565b610130805463ffffffff191663ffffffff929092169190911790559150509392505050565b8151611e04906000906020850190612adf565b508051610c0e906001906020840190612adf565b600354600160a81b900460ff1680611e3a5750600354600160a01b900460ff16155b611e565760405162461bcd60e51b8152600401610715906135fd565b600354600160a81b900460ff16158015611e80576003805461ffff60a01b191661010160a01b1790555b600280546001600160a01b0319166001600160a01b0384161790555b8015610d46576003805460ff60a81b191690555050565b600354600160a81b900460ff1680611ed55750600354600160a01b900460ff16155b611ef15760405162461bcd60e51b8152600401610715906135fd565b600354600160a81b900460ff16158015611f1b576003805461ffff60a01b191661010160a01b1790555b600380546001600160a01b0319166001600160a01b038416179055611e9c565b600354600160a81b900460ff1680611f5d5750600354600160a01b900460ff16155b611f795760405162461bcd60e51b8152600401610715906135fd565b600354600160a81b900460ff16158015611fa3576003805461ffff60a01b191661010160a01b1790555b611fc4604051806060016040528060338152602001613a41603391396127f8565b611fcc612879565b801561080e576003805460ff60a81b1916905550565b600354600160a81b900460ff16806120045750600354600160a01b900460ff16155b6120205760405162461bcd60e51b8152600401610715906135fd565b600354600160a81b900460ff1615801561204a576003805461ffff60a01b191661010160a01b1790555b611fcc604051806060016040528060338152602001613a41603391396127f8565b61208c604051806060016040528060338152602001613a41603391396127f8565b612094612881565b565b610d468282611a98565b60006120ba600080516020613a218339815191528361103a565b156120c757506001610743565b6001600160a01b03808416600090815260cd602090815260408083209386168352929052205460ff16611447565b6040805160018082528183019092526060916000919060208083019080368337019050509050828160008151811061213d57634e487b7160e01b600052603260045260246000fd5b602090810291909101015292915050565b6001600160a01b0384163b15610be25760405163f23a6e6160e01b81526001600160a01b0385169063f23a6e61906121929089908990889088908890600401613497565b602060405180830381600087803b1580156121ac57600080fd5b505af19250505080156121dc575060408051601f3d908101601f191682019092526121d9918101906131cd565b60015b6121e8576119636138ae565b6001600160e01b0319811663f23a6e6160e01b146115f35760405162461bcd60e51b815260040161071590613527565b600082815260cc602090815260408083206001600160a01b03881684529091529020548181101561225b5760405162461bcd60e51b81526004016107159061364b565b6122658282613758565b600084815260cc602090815260408083206001600160a01b038a811685529252808320939093558616815290812080548492906122a39084906136ee565b90915550600090506122b36116fa565b9050846001600160a01b0316866001600160a01b0316826001600160a01b031660008051602061397a83398151915287876040516122fb929190918252602082015260400190565b60405180910390a4505050505050565b60006001600160e01b03198216636cdb3d1360e11b148061233c57506001600160e01b031982166303a24d0760e21b145b8061074357506301ffc9a760e01b6001600160e01b0319831614610743565b60006001600160e01b03198216637965db0b60e01b148061074357506107438261230b565b6000611704612889565b60606000612399836002613739565b6123a49060026136ee565b6001600160401b038111156123c957634e487b7160e01b600052604160045260246000fd5b6040519080825280601f01601f1916602001820160405280156123f3576020820181803683370190505b509050600360fc1b8160008151811061241c57634e487b7160e01b600052603260045260246000fd5b60200101906001600160f81b031916908160001a905350600f60fb1b8160018151811061245957634e487b7160e01b600052603260045260246000fd5b60200101906001600160f81b031916908160001a905350600061247d846002613739565b6124889060016136ee565b90505b600181111561251c576f181899199a1a9b1b9c1cb0b131b232b360811b85600f16601081106124ca57634e487b7160e01b600052603260045260246000fd5b1a60f81b8282815181106124ee57634e487b7160e01b600052603260045260246000fd5b60200101906001600160f81b031916908160001a90535060049490941c936125158161379b565b905061248b565b5083156114475760405162461bcd60e51b815260206004820181905260248201527f537472696e67733a20686578206c656e67746820696e73756666696369656e746044820152606401610715565b60008051602061399a833981519152546001600160a01b031690565b803b6125eb5760405162461bcd60e51b815260206004820152602d60248201527f455243313936373a206e657720696d706c656d656e746174696f6e206973206e60448201526c1bdd08184818dbdb9d1c9858dd609a1b6064820152608401610715565b60008051602061399a83398151915280546001600160a01b0319166001600160a01b0392909216919091179055565b6060823b6126795760405162461bcd60e51b815260206004820152602660248201527f416464726573733a2064656c65676174652063616c6c20746f206e6f6e2d636f6044820152651b9d1c9858dd60d21b6064820152608401610715565b600080846001600160a01b031684604051612694919061336b565b600060405180830381855af49150503d80600081146126cf576040519150601f19603f3d011682016040523d82523d6000602084013e6126d4565b606091505b509150915061147682826040518060600160405280602781526020016139ba602791396128ae565b6001600160a01b03841661275c5760405162461bcd60e51b815260206004820152602160248201527f455243313135353a206d696e7420746f20746865207a65726f206164647265736044820152607360f81b6064820152608401610715565b60006127666116fa565b90506127788160008761150a886120f5565b600084815260cc602090815260408083206001600160a01b0389168452909152812080548592906127aa9084906136ee565b909155505060408051858152602081018590526001600160a01b03808816926000929185169160008051602061397a833981519152910160405180910390a46115138160008787878761214e565b600354600160a81b900460ff168061281a5750600354600160a01b900460ff16155b6128365760405162461bcd60e51b8152600401610715906135fd565b600354600160a81b900460ff16158015612860576003805461ffff60a01b191661010160a01b1790555b6128686128e7565b6128706128e7565b611e9c82612964565b6120946129d5565b612094612a55565b600061289433610ee4565b156128a6575060131936013560601c90565b503390565b90565b606083156128bd575081611447565b8251156128cd5782518084602001fd5b8160405162461bcd60e51b81526004016107159190613514565b600354600160a81b900460ff16806129095750600354600160a01b900460ff16155b6129255760405162461bcd60e51b8152600401610715906135fd565b600354600160a81b900460ff16158015611fcc576003805461ffff60a01b191661010160a01b179055801561080e576003805460ff60a81b1916905550565b600354600160a81b900460ff16806129865750600354600160a01b900460ff16155b6129a25760405162461bcd60e51b8152600401610715906135fd565b600354600160a81b900460ff161580156129cc576003805461ffff60a01b191661010160a01b1790555b611e9c82611709565b600354600160a81b900460ff16806129f75750600354600160a01b900460ff16155b612a135760405162461bcd60e51b8152600401610715906135fd565b600354600160a81b900460ff16158015612a3d576003805461ffff60a01b191661010160a01b1790555b612a456128e7565b612a4d6128e7565b611fcc6128e7565b612a5d612a70565b612a656129d5565b612094600033612096565b600354600160a81b900460ff1680612a925750600354600160a01b900460ff16155b612aae5760405162461bcd60e51b8152600401610715906135fd565b600354600160a81b900460ff16158015612a45576003805461ffff60a01b191661010160a01b179055612a4d6128e7565b828054612aeb906137b2565b90600052602060002090601f016020900481019282612b0d5760008555612b53565b82601f10612b2657805160ff1916838001178555612b53565b82800160010185558215612b53579182015b82811115612b53578251825591602001919060010190612b38565b50612b5f929150612b63565b5090565b5b80821115612b5f5760008155600101612b64565b8035612b838161394e565b919050565b600082601f830112612b98578081fd5b81356020612ba5826136cb565b604051612bb282826137ed565b8381528281019150858301600585901b87018401881015612bd1578586fd5b855b85811015612bef57813584529284019290840190600101612bd3565b5090979650505050505050565b600082601f830112612c0c578081fd5b81356001600160401b03811115612c2557612c25613898565b604051612c3c601f8301601f1916602001826137ed565b818152846020838601011115612c50578283fd5b816020850160208301379081016020019190915292915050565b80356001600160401b0381168114612b8357600080fd5b600060208284031215612c92578081fd5b81356114478161394e565b60008060408385031215612caf578081fd5b8235612cba8161394e565b91506020830135612cca8161394e565b809150509250929050565b600080600080600060a08688031215612cec578081fd5b8535612cf78161394e565b94506020860135612d078161394e565b935060408601356001600160401b0380821115612d22578283fd5b612d2e89838a01612b88565b94506060880135915080821115612d43578283fd5b612d4f89838a01612b88565b93506080880135915080821115612d64578283fd5b50612d7188828901612bfc565b9150509295509295909350565b600080600080600080600060e0888a031215612d98578182fd5b8735612da38161394e565b96506020880135612db38161394e565b955060408801356001600160401b0380821115612dce578384fd5b612dda8b838c01612bfc565b965060608a0135915080821115612def578384fd5b612dfb8b838c01612bfc565b955060808a0135915080821115612e10578384fd5b50612e1d8a828b01612bfc565b935050612e2c60a08901612b78565b9150612e3a60c08901612b78565b905092959891949750929550565b60008060008060808587031215612e5d578182fd5b8435612e688161394e565b93506020850135612e788161394e565b93969395505050506040820135916060013590565b600080600080600060a08688031215612ea4578283fd5b8535612eaf8161394e565b94506020860135612ebf8161394e565b9350604086013592506060860135915060808601356001600160401b03811115612ee7578182fd5b612d7188828901612bfc565b60008060408385031215612f05578182fd5b8235612f108161394e565b915060208301358015158114612cca578182fd5b60008060408385031215612f36578182fd5b8235612f418161394e565b915060208301356001600160401b03811115612f5b578182fd5b612f6785828601612bfc565b9150509250929050565b60008060408385031215612f83578182fd5b8235612f8e8161394e565b946020939093013593505050565b60008060008060008060c08789031215612fb4578384fd5b8635612fbf8161394e565b955060208701359450604087013593506060870135612fdd8161394e565b9598949750929560808101359460a0909101359350915050565b60008060008060008060c0878903121561300f578384fd5b865161301a8161394e565b809650506020870151945060408701519350606087015161303a8161394e565b809350506080870151915060a087015190509295509295509295565b60008060006060848603121561306a578081fd5b83356130758161394e565b925061308360208501612c6a565b915060408401356001600160401b0381111561309d578182fd5b6130a986828701612bfc565b9150509250925092565b600080604083850312156130c5578182fd5b82356001600160401b03808211156130db578384fd5b818501915085601f8301126130ee578384fd5b813560206130fb826136cb565b60405161310882826137ed565b8381528281019150858301600585901b870184018b1015613127578889fd5b8896505b8487101561315257803561313e8161394e565b83526001969096019591830191830161312b565b5096505086013592505080821115613168578283fd5b50612f6785828601612b88565b600060208284031215613186578081fd5b5035919050565b6000806040838503121561319f578182fd5b823591506020830135612cca8161394e565b6000602082840312156131c2578081fd5b813561144781613963565b6000602082840312156131de578081fd5b815161144781613963565b6000602082840312156131fa578081fd5b81356001600160401b0381111561320f578182fd5b610f2d84828501612bfc565b60008060006040848603121561322f578081fd5b8335925060208401356001600160401b038082111561324c578283fd5b818601915086601f83011261325f578283fd5b81358181111561326d578384fd5b87602082850101111561327e578384fd5b6020830194508093505050509250925092565b600080600080608085870312156132a6578182fd5b505082516020840151604085015160609095015191969095509092509050565b6000602082840312156132d7578081fd5b813563ffffffff81168114611447578182fd5b600080604083850312156132fc578182fd5b612f4183612c6a565b6000815180845260208085019450808401835b8381101561333457815187529582019590820190600101613318565b509495945050505050565b6000815180845261335781602086016020860161376f565b601f01601f19169290920160200192915050565b6000825161337d81846020870161376f565b9190910192915050565b6000835161339981846020880161376f565b8351908301906133ad81836020880161376f565b01949350505050565b76020b1b1b2b9b9a1b7b73a3937b61d1030b1b1b7bab73a1604d1b8152600083516133e881601785016020880161376f565b7001034b99036b4b9b9b4b733903937b6329607d1b601791840191820152835161341981602884016020880161376f565b01602801949350505050565b6001600160a01b0391909116815260200190565b6001600160a01b0386811682528516602082015260a06040820181905260009061346590830186613305565b82810360608401526134778186613305565b9050828103608084015261348b818561333f565b98975050505050505050565b6001600160a01b03868116825285166020820152604081018490526060810183905260a0608082018190526000906134d19083018461333f565b979650505050505050565b6020815260006114476020830184613305565b6040815260006135026040830185613305565b82810360208401526114768185613305565b602081526000611447602083018461333f565b60208082526028908201527f455243313135353a204552433131353552656365697665722072656a656374656040820152676420746f6b656e7360c01b606082015260800190565b60208082526029908201527f455243313135353a2063616c6c6572206973206e6f74206f776e6572206e6f7260408201526808185c1c1c9bdd995960ba1b606082015260800190565b60208082526025908201527f455243313135353a207472616e7366657220746f20746865207a65726f206164604082015264647265737360d81b606082015260800190565b6020808252602e908201527f496e697469616c697a61626c653a20636f6e747261637420697320616c72656160408201526d191e481a5b9a5d1a585b1a5e995960921b606082015260800190565b6020808252602a908201527f455243313135353a20696e73756666696369656e742062616c616e636520666f60408201526939103a3930b739b332b960b11b606082015260800190565b83815260406020820152816040820152818360608301376000818301606090810191909152601f909201601f1916010192915050565b60006001600160401b038211156136e4576136e4613898565b5060051b60200190565b600082198211156137015761370161386c565b500190565b600063ffffffff8083168185168083038211156133ad576133ad61386c565b60008261373457613734613882565b500490565b60008160001904831182151516156137535761375361386c565b500290565b60008282101561376a5761376a61386c565b500390565b60005b8381101561378a578181015183820152602001613772565b838111156116da5750506000910152565b6000816137aa576137aa61386c565b506000190190565b600181811c908216806137c657607f821691505b602082108114156137e757634e487b7160e01b600052602260045260246000fd5b50919050565b601f8201601f191681016001600160401b038111828210171561381257613812613898565b6040525050565b600060001982141561382d5761382d61386c565b5060010190565b600063ffffffff8083168181141561384e5761384e61386c565b6001019392505050565b60008261386757613867613882565b500690565b634e487b7160e01b600052601160045260246000fd5b634e487b7160e01b600052601260045260246000fd5b634e487b7160e01b600052604160045260246000fd5b600060033d11156128ab57600481823e5160e01c90565b600060443d10156138d35790565b6040516003193d81016004833e81513d6001600160401b03808311602484018310171561390257505050505090565b828501915081518181111561391a5750505050505090565b843d87010160208285010111156139345750505050505090565b613943602082860101876137ed565b509095945050505050565b6001600160a01b038116811461080e57600080fd5b6001600160e01b03198116811461080e57600080fdfec3d58168c5ae7397731d063d5bbf3d657854427343f4c083240f7aacaa2d0f62360894a13ba1a3210667c828492db98dca3e2076cc3735a920a3ca505d382bbc416464726573733a206c6f772d6c6576656c2064656c65676174652063616c6c206661696c6564592c958fd52390f51665f668ae132c07938e885cabed2dc56aba7c2b264880953d2e894c222ba979e2dce2c7d940c0e9bb14306669e9f034eb1bb3979a2069d8626f510646502d065065e8bd550325973a611a32e6f6ddff40650005cb13636868747470733a2f2f6170692e66726565706f72742e636572652e6e6574776f726b2f657263313135352f7b69647d2e6a736f6ea2646970667358221220ea21c4c5a0f53a74175d168b5aa203261bbf8407aa98e2ac42663dad95b5972664736f6c63430008040033360894a13ba1a3210667c828492db98dca3e2076cc3735a920a3ca505d382bbc416464726573733a206c6f772d6c6576656c2064656c65676174652063616c6c206661696c6564592c958fd52390f51665f668ae132c07938e885cabed2dc56aba7c2b264880953d2e894c222ba979e2dce2c7d940c0e9bb14306669e9f034eb1bb3979a2069d8a2646970667358221220ab79c5a581c9981cc2a6bd6b2e35c6f8283a38a324c2d5bdf657ea23b304f12164736f6c63430008040033",
  "immutableReferences": {},
  "source": "pragma solidity ^0.8.0;\n\nimport \"./freeportParts/MetaTxContext.sol\";\nimport \"./Collection.sol\";\n\n/** This is a contract for creating standalone contracts (collections) for users.\n *\n */\ncontract CollectionFactory is MetaTxContext  {\n    function initialize(Freeport _freeport, NFTAttachment _nftAttachment) public initializer {\n        __MetaTxContext_init();\n\n        freeport = _freeport;\n        nftAttachment = _nftAttachment;\n    }\n\n    // Standalone user collections mapped to its names.\n    mapping(string => address) nameToCollection;\n\n    // The address of Freeport contract.\n    Freeport public freeport;\n    // The address of NFTAttachment contract.\n    NFTAttachment public nftAttachment;\n\n    // Collection id to address.\n    mapping(uint256 => address) private addressProxies;\n    uint256 private collectionCounter;\n\n    /** Collection creator role.\n     *  Used for configuring the amounts and beneficiaries of royalties on primary and secondary transfers of this NFT.\n     */\n    bytes32 public constant COLLECTION_CREATOR_ROLE = keccak256(\"COLLECTION_CREATOR_ROLE\");\n\n    /** Allowance mapping for mint on behalf for each Collection.\n     */\n    mapping (address => mapping(address => bool)) mintAllowance;\n\n    /** Allowance mapping for mint on behalf for each Collection.\n     */\n    bytes32 public constant COLLECTION_MANAGER_ROLE = keccak256(\"COLLECTION_MANAGER_ROLE\");\n\n    /** An event emitted when new collection is created.\n     *\n     * Contains unique name of collection and its address.\n     */\n    event CollectionCreated(string name, address indexed addr);\n\n    /** An event emitted when NFT is minted on behalf of factory.\n     */\n    event MintOnBehalf(address _operator, address _collection, address _holder, uint256 _id, uint64 _amount);\n\n    /** Deploying a new user collection.\n     *\n     *  Emits a {CollectionCreated} event.\n     */\n    function createCollection(address collectionManager, string memory name, string memory uriTpl, string memory contractURI) external returns (address) {\n//        require(hasRole(COLLECTION_CREATOR_ROLE, _msgSender()), \"only collection creator\");\n        require(collectionManager != address(0), \"zero address collection manager\");\n        require(nameToCollection[name] == address(0), \"collection name already exists\");\n\n        Collection collection = new Collection();\n        collection.initialize(address(this), collectionManager, name, uriTpl, contractURI, freeport, nftAttachment);\n\n        address collAddr = address(collection);\n\n        addressProxies[collectionCounter] = address(collection);\n        collectionCounter = collectionCounter + 1;\n\n        nameToCollection[name] = address(collection);\n\n        emit CollectionCreated(name, address(collection));\n        return address(collection);\n    }\n\n    function mintOnBehalf(address collection, address holder, uint64 supply, bytes memory data) external {\n        address operator = _msgSender();\n        require(Collection(collection).hasRole(COLLECTION_MANAGER_ROLE, operator), \"sender is not collection manager\");\n        uint256 nftID = Collection(collection).issueOnBehalfOf(holder, supply, data);\n\n        emit MintOnBehalf(operator, collection, holder, nftID, supply);\n    }\n}\n",
  "sourcePath": "/Users/neanvo/WorkFlow/cere/Freeport-Smart-Contracts/contracts/CollectionFactory.sol",
  "compiler": {
    "name": "solc",
    "version": "0.8.4+commit.c7e474f2.Emscripten.clang"
  },
  "schemaVersion": "3.4.4",
  "updatedAt": "2022-08-12T07:09:29.552Z",
  "networkType": "ethereum",
  "devdoc": {
    "kind": "dev",
    "methods": {
      "getRoleAdmin(bytes32)": {
        "details": "Returns the admin role that controls `role`. See {grantRole} and {revokeRole}. To change a role's admin, use {_setRoleAdmin}."
      },
      "grantRole(bytes32,address)": {
        "details": "Grants `role` to `account`. If `account` had not been already granted `role`, emits a {RoleGranted} event. Requirements: - the caller must have ``role``'s admin role."
      },
      "hasRole(bytes32,address)": {
        "details": "Returns `true` if `account` has been granted `role`."
      },
      "renounceRole(bytes32,address)": {
        "details": "Revokes `role` from the calling account. Roles are often managed via {grantRole} and {revokeRole}: this function's purpose is to provide a mechanism for accounts to lose their privileges if they are compromised (such as when a trusted device is misplaced). If the calling account had been granted `role`, emits a {RoleRevoked} event. Requirements: - the caller must be `account`."
      },
      "revokeRole(bytes32,address)": {
        "details": "Revokes `role` from `account`. If `account` had been granted `role`, emits a {RoleRevoked} event. Requirements: - the caller must have ``role``'s admin role."
      },
      "supportsInterface(bytes4)": {
        "details": "See {IERC165-supportsInterface}."
      }
    },
    "version": 1
  },
  "userdoc": {
    "events": {
      "CollectionCreated(string,address)": {
        "notice": "An event emitted when new collection is created. Contains unique name of collection and its address."
      },
      "MintOnBehalf(address,address,address,uint256,uint64)": {
        "notice": "An event emitted when NFT is minted on behalf of factory."
      }
    },
    "kind": "user",
    "methods": {
      "COLLECTION_CREATOR_ROLE()": {
        "notice": "Collection creator role.  Used for configuring the amounts and beneficiaries of royalties on primary and secondary transfers of this NFT."
      },
      "COLLECTION_MANAGER_ROLE()": {
        "notice": "Allowance mapping for mint on behalf for each Collection."
      },
      "createCollection(address,string,string,string)": {
        "notice": "Deploying a new user collection.  Emits a {CollectionCreated} event."
      }
    },
    "notice": "This is a contract for creating standalone contracts (collections) for users.",
    "version": 1
  }
}