{
  "contractName": "Collection",
  "abi": [
    {
      "anonymous": false,
      "inputs": [
        {
          "indexed": false,
          "internalType": "address",
          "name": "previousAdmin",
          "type": "address"
        },
        {
          "indexed": false,
          "internalType": "address",
          "name": "newAdmin",
          "type": "address"
        }
      ],
      "name": "AdminChanged",
      "type": "event"
    },
    {
      "anonymous": false,
      "inputs": [
        {
          "indexed": true,
          "internalType": "address",
          "name": "account",
          "type": "address"
        },
        {
          "indexed": true,
          "internalType": "address",
          "name": "operator",
          "type": "address"
        },
        {
          "indexed": false,
          "internalType": "bool",
          "name": "approved",
          "type": "bool"
        }
      ],
      "name": "ApprovalForAll",
      "type": "event"
    },
    {
      "anonymous": false,
      "inputs": [
        {
          "indexed": true,
          "internalType": "address",
          "name": "beacon",
          "type": "address"
        }
      ],
      "name": "BeaconUpgraded",
      "type": "event"
    },
    {
      "anonymous": false,
      "inputs": [
        {
          "indexed": true,
          "internalType": "bytes32",
          "name": "role",
          "type": "bytes32"
        },
        {
          "indexed": true,
          "internalType": "bytes32",
          "name": "previousAdminRole",
          "type": "bytes32"
        },
        {
          "indexed": true,
          "internalType": "bytes32",
          "name": "newAdminRole",
          "type": "bytes32"
        }
      ],
      "name": "RoleAdminChanged",
      "type": "event"
    },
    {
      "anonymous": false,
      "inputs": [
        {
          "indexed": true,
          "internalType": "bytes32",
          "name": "role",
          "type": "bytes32"
        },
        {
          "indexed": true,
          "internalType": "address",
          "name": "account",
          "type": "address"
        },
        {
          "indexed": true,
          "internalType": "address",
          "name": "sender",
          "type": "address"
        }
      ],
      "name": "RoleGranted",
      "type": "event"
    },
    {
      "anonymous": false,
      "inputs": [
        {
          "indexed": true,
          "internalType": "bytes32",
          "name": "role",
          "type": "bytes32"
        },
        {
          "indexed": true,
          "internalType": "address",
          "name": "account",
          "type": "address"
        },
        {
          "indexed": true,
          "internalType": "address",
          "name": "sender",
          "type": "address"
        }
      ],
      "name": "RoleRevoked",
      "type": "event"
    },
    {
      "anonymous": false,
      "inputs": [
        {
          "indexed": true,
          "internalType": "address",
          "name": "operator",
          "type": "address"
        },
        {
          "indexed": true,
          "internalType": "address",
          "name": "from",
          "type": "address"
        },
        {
          "indexed": true,
          "internalType": "address",
          "name": "to",
          "type": "address"
        },
        {
          "indexed": false,
          "internalType": "uint256[]",
          "name": "ids",
          "type": "uint256[]"
        },
        {
          "indexed": false,
          "internalType": "uint256[]",
          "name": "values",
          "type": "uint256[]"
        }
      ],
      "name": "TransferBatch",
      "type": "event"
    },
    {
      "anonymous": false,
      "inputs": [
        {
          "indexed": true,
          "internalType": "address",
          "name": "operator",
          "type": "address"
        },
        {
          "indexed": true,
          "internalType": "address",
          "name": "from",
          "type": "address"
        },
        {
          "indexed": true,
          "internalType": "address",
          "name": "to",
          "type": "address"
        },
        {
          "indexed": false,
          "internalType": "uint256",
          "name": "id",
          "type": "uint256"
        },
        {
          "indexed": false,
          "internalType": "uint256",
          "name": "value",
          "type": "uint256"
        }
      ],
      "name": "TransferSingle",
      "type": "event"
    },
    {
      "anonymous": false,
      "inputs": [
        {
          "indexed": false,
          "internalType": "string",
          "name": "value",
          "type": "string"
        },
        {
          "indexed": true,
          "internalType": "uint256",
          "name": "id",
          "type": "uint256"
        }
      ],
      "name": "URI",
      "type": "event"
    },
    {
      "anonymous": false,
      "inputs": [
        {
          "indexed": true,
          "internalType": "address",
          "name": "implementation",
          "type": "address"
        }
      ],
      "name": "Upgraded",
      "type": "event"
    },
    {
      "inputs": [],
      "name": "COLLECTION_MANAGER_ROLE",
      "outputs": [
        {
          "internalType": "bytes32",
          "name": "",
          "type": "bytes32"
        }
      ],
      "stateMutability": "view",
      "type": "function"
    },
    {
      "inputs": [],
      "name": "DEFAULT_ADMIN_ROLE",
      "outputs": [
        {
          "internalType": "bytes32",
          "name": "",
          "type": "bytes32"
        }
      ],
      "stateMutability": "view",
      "type": "function"
    },
    {
      "inputs": [],
      "name": "META_TX_FORWARDER",
      "outputs": [
        {
          "internalType": "bytes32",
          "name": "",
          "type": "bytes32"
        }
      ],
      "stateMutability": "view",
      "type": "function"
    },
    {
      "inputs": [
        {
          "internalType": "address",
          "name": "account",
          "type": "address"
        },
        {
          "internalType": "uint256",
          "name": "id",
          "type": "uint256"
        }
      ],
      "name": "balanceOf",
      "outputs": [
        {
          "internalType": "uint256",
          "name": "",
          "type": "uint256"
        }
      ],
      "stateMutability": "view",
      "type": "function"
    },
    {
      "inputs": [
        {
          "internalType": "address[]",
          "name": "accounts",
          "type": "address[]"
        },
        {
          "internalType": "uint256[]",
          "name": "ids",
          "type": "uint256[]"
        }
      ],
      "name": "balanceOfBatch",
      "outputs": [
        {
          "internalType": "uint256[]",
          "name": "",
          "type": "uint256[]"
        }
      ],
      "stateMutability": "view",
      "type": "function"
    },
    {
      "inputs": [],
      "name": "freeport",
      "outputs": [
        {
          "internalType": "contract Freeport",
          "name": "",
          "type": "address"
        }
      ],
      "stateMutability": "view",
      "type": "function"
    },
    {
      "inputs": [
        {
          "internalType": "bytes32",
          "name": "role",
          "type": "bytes32"
        }
      ],
      "name": "getRoleAdmin",
      "outputs": [
        {
          "internalType": "bytes32",
          "name": "",
          "type": "bytes32"
        }
      ],
      "stateMutability": "view",
      "type": "function"
    },
    {
      "inputs": [
        {
          "internalType": "bytes32",
          "name": "role",
          "type": "bytes32"
        },
        {
          "internalType": "address",
          "name": "account",
          "type": "address"
        }
      ],
      "name": "grantRole",
      "outputs": [],
      "stateMutability": "nonpayable",
      "type": "function"
    },
    {
      "inputs": [
        {
          "internalType": "bytes32",
          "name": "role",
          "type": "bytes32"
        },
        {
          "internalType": "address",
          "name": "account",
          "type": "address"
        }
      ],
      "name": "hasRole",
      "outputs": [
        {
          "internalType": "bool",
          "name": "",
          "type": "bool"
        }
      ],
      "stateMutability": "view",
      "type": "function"
    },
    {
      "inputs": [],
      "name": "idCounter",
      "outputs": [
        {
          "internalType": "uint32",
          "name": "",
          "type": "uint32"
        }
      ],
      "stateMutability": "view",
      "type": "function"
    },
    {
      "inputs": [
        {
          "internalType": "address",
          "name": "account",
          "type": "address"
        },
        {
          "internalType": "address",
          "name": "operator",
          "type": "address"
        }
      ],
      "name": "isApprovedForAll",
      "outputs": [
        {
          "internalType": "bool",
          "name": "",
          "type": "bool"
        }
      ],
      "stateMutability": "view",
      "type": "function"
    },
    {
      "inputs": [
        {
          "internalType": "address",
          "name": "forwarder",
          "type": "address"
        }
      ],
      "name": "isTrustedForwarder",
      "outputs": [
        {
          "internalType": "bool",
          "name": "",
          "type": "bool"
        }
      ],
      "stateMutability": "view",
      "type": "function"
    },
    {
      "inputs": [],
      "name": "name",
      "outputs": [
        {
          "internalType": "string",
          "name": "",
          "type": "string"
        }
      ],
      "stateMutability": "view",
      "type": "function"
    },
    {
      "inputs": [],
      "name": "nftAttachment",
      "outputs": [
        {
          "internalType": "contract NFTAttachment",
          "name": "",
          "type": "address"
        }
      ],
      "stateMutability": "view",
      "type": "function"
    },
    {
      "inputs": [
        {
          "internalType": "bytes32",
          "name": "role",
          "type": "bytes32"
        },
        {
          "internalType": "address",
          "name": "account",
          "type": "address"
        }
      ],
      "name": "renounceRole",
      "outputs": [],
      "stateMutability": "nonpayable",
      "type": "function"
    },
    {
      "inputs": [
        {
          "internalType": "bytes32",
          "name": "role",
          "type": "bytes32"
        },
        {
          "internalType": "address",
          "name": "account",
          "type": "address"
        }
      ],
      "name": "revokeRole",
      "outputs": [],
      "stateMutability": "nonpayable",
      "type": "function"
    },
    {
      "inputs": [
        {
          "internalType": "address",
          "name": "from",
          "type": "address"
        },
        {
          "internalType": "address",
          "name": "to",
          "type": "address"
        },
        {
          "internalType": "uint256[]",
          "name": "ids",
          "type": "uint256[]"
        },
        {
          "internalType": "uint256[]",
          "name": "amounts",
          "type": "uint256[]"
        },
        {
          "internalType": "bytes",
          "name": "data",
          "type": "bytes"
        }
      ],
      "name": "safeBatchTransferFrom",
      "outputs": [],
      "stateMutability": "nonpayable",
      "type": "function"
    },
    {
      "inputs": [
        {
          "internalType": "address",
          "name": "from",
          "type": "address"
        },
        {
          "internalType": "address",
          "name": "to",
          "type": "address"
        },
        {
          "internalType": "uint256",
          "name": "id",
          "type": "uint256"
        },
        {
          "internalType": "uint256",
          "name": "amount",
          "type": "uint256"
        },
        {
          "internalType": "bytes",
          "name": "data",
          "type": "bytes"
        }
      ],
      "name": "safeTransferFrom",
      "outputs": [],
      "stateMutability": "nonpayable",
      "type": "function"
    },
    {
      "inputs": [
        {
          "internalType": "address",
          "name": "operator",
          "type": "address"
        },
        {
          "internalType": "bool",
          "name": "approved",
          "type": "bool"
        }
      ],
      "name": "setApprovalForAll",
      "outputs": [],
      "stateMutability": "nonpayable",
      "type": "function"
    },
    {
      "inputs": [
        {
          "internalType": "string",
          "name": "newuri",
          "type": "string"
        }
      ],
      "name": "setURI",
      "outputs": [],
      "stateMutability": "nonpayable",
      "type": "function"
    },
    {
      "inputs": [
        {
          "internalType": "bytes4",
          "name": "interfaceId",
          "type": "bytes4"
        }
      ],
      "name": "supportsInterface",
      "outputs": [
        {
          "internalType": "bool",
          "name": "",
          "type": "bool"
        }
      ],
      "stateMutability": "view",
      "type": "function"
    },
    {
      "inputs": [
        {
          "internalType": "address",
          "name": "from",
          "type": "address"
        },
        {
          "internalType": "address",
          "name": "to",
          "type": "address"
        },
        {
          "internalType": "uint256",
          "name": "id",
          "type": "uint256"
        },
        {
          "internalType": "uint256",
          "name": "amount",
          "type": "uint256"
        }
      ],
      "name": "transferFrom",
      "outputs": [],
      "stateMutability": "nonpayable",
      "type": "function"
    },
    {
      "inputs": [
        {
          "internalType": "address",
          "name": "newImplementation",
          "type": "address"
        }
      ],
      "name": "upgradeTo",
      "outputs": [],
      "stateMutability": "nonpayable",
      "type": "function"
    },
    {
      "inputs": [
        {
          "internalType": "address",
          "name": "newImplementation",
          "type": "address"
        },
        {
          "internalType": "bytes",
          "name": "data",
          "type": "bytes"
        }
      ],
      "name": "upgradeToAndCall",
      "outputs": [],
      "stateMutability": "payable",
      "type": "function"
    },
    {
      "inputs": [
        {
          "internalType": "uint256",
          "name": "",
          "type": "uint256"
        }
      ],
      "name": "uri",
      "outputs": [
        {
          "internalType": "string",
          "name": "",
          "type": "string"
        }
      ],
      "stateMutability": "view",
      "type": "function"
    },
    {
      "inputs": [
        {
          "internalType": "address",
          "name": "admin",
          "type": "address"
        },
        {
          "internalType": "address",
          "name": "minter",
          "type": "address"
        },
        {
          "internalType": "string",
          "name": "_name",
          "type": "string"
        },
        {
          "internalType": "contract Freeport",
          "name": "_freeport",
          "type": "address"
        },
        {
          "internalType": "contract NFTAttachment",
          "name": "_nftAttachment",
          "type": "address"
        }
      ],
      "name": "initialize",
      "outputs": [],
      "stateMutability": "nonpayable",
      "type": "function"
    },
    {
      "inputs": [
        {
          "internalType": "uint64",
          "name": "supply",
          "type": "uint64"
        },
        {
          "internalType": "bytes",
          "name": "data",
          "type": "bytes"
        }
      ],
      "name": "issueNft",
      "outputs": [
        {
          "internalType": "uint256",
          "name": "",
          "type": "uint256"
        }
      ],
      "stateMutability": "nonpayable",
      "type": "function"
    },
    {
      "inputs": [
        {
          "internalType": "address",
          "name": "primaryRoyaltyAccount",
          "type": "address"
        },
        {
          "internalType": "uint256",
          "name": "primaryRoyaltyCut",
          "type": "uint256"
        },
        {
          "internalType": "uint256",
          "name": "primaryRoyaltyMinimum",
          "type": "uint256"
        },
        {
          "internalType": "address",
          "name": "secondaryRoyaltyAccount",
          "type": "address"
        },
        {
          "internalType": "uint256",
          "name": "secondaryRoyaltyCut",
          "type": "uint256"
        },
        {
          "internalType": "uint256",
          "name": "secondaryRoyaltyMinimum",
          "type": "uint256"
        }
      ],
      "name": "setupRoyaltyConfiguration",
      "outputs": [],
      "stateMutability": "nonpayable",
      "type": "function"
    },
    {
      "inputs": [],
      "name": "getRoyalties",
      "outputs": [
        {
          "internalType": "address",
          "name": "primaryRoyaltyAccount",
          "type": "address"
        },
        {
          "internalType": "uint256",
          "name": "primaryRoyaltyCut",
          "type": "uint256"
        },
        {
          "internalType": "uint256",
          "name": "primaryRoyaltyMinimum",
          "type": "uint256"
        },
        {
          "internalType": "address",
          "name": "secondaryRoyaltyAccount",
          "type": "address"
        },
        {
          "internalType": "uint256",
          "name": "secondaryRoyaltyCut",
          "type": "uint256"
        },
        {
          "internalType": "uint256",
          "name": "secondaryRoyaltyMinimum",
          "type": "uint256"
        }
      ],
      "stateMutability": "view",
      "type": "function"
    },
    {
      "inputs": [
        {
          "internalType": "address",
          "name": "beneficiary",
          "type": "address"
        }
      ],
      "name": "getRoyaltiesForBeneficiary",
      "outputs": [
        {
          "internalType": "uint256",
          "name": "primaryCut",
          "type": "uint256"
        },
        {
          "internalType": "uint256",
          "name": "primaryMinimum",
          "type": "uint256"
        },
        {
          "internalType": "uint256",
          "name": "secondaryCut",
          "type": "uint256"
        },
        {
          "internalType": "uint256",
          "name": "secondaryMinimum",
          "type": "uint256"
        }
      ],
      "stateMutability": "view",
      "type": "function"
    },
    {
      "inputs": [
        {
          "internalType": "uint32",
          "name": "innerNftId",
          "type": "uint32"
        },
        {
          "internalType": "bytes",
          "name": "attachment",
          "type": "bytes"
        }
      ],
      "name": "minterAttachToNFT",
      "outputs": [],
      "stateMutability": "nonpayable",
      "type": "function"
    },
    {
      "inputs": [
        {
          "internalType": "uint32",
          "name": "innerNftId",
          "type": "uint32"
        },
        {
          "internalType": "bytes",
          "name": "attachment",
          "type": "bytes"
        }
      ],
      "name": "ownerAttachToNFT",
      "outputs": [],
      "stateMutability": "nonpayable",
      "type": "function"
    },
    {
      "inputs": [
        {
          "internalType": "uint32",
          "name": "innerNftId",
          "type": "uint32"
        },
        {
          "internalType": "bytes",
          "name": "attachment",
          "type": "bytes"
        }
      ],
      "name": "anonymAttachToNFT",
      "outputs": [],
      "stateMutability": "nonpayable",
      "type": "function"
    },
    {
      "inputs": [
        {
          "internalType": "uint32",
          "name": "innerNftId",
          "type": "uint32"
        }
      ],
      "name": "getGlobalNftId",
      "outputs": [
        {
          "internalType": "uint256",
          "name": "",
          "type": "uint256"
        }
      ],
      "stateMutability": "view",
      "type": "function"
    }
  ],
  "bytecode": "0x608060405234801561001057600080fd5b50613ad4806100206000396000f3fe6080604052600436106102185760003560e01c806354ea53571161011d578063aea0ffc3116100b0578063eb08ab281161007f578063f4e2efd011610064578063f4e2efd014610776578063f9d5727b14610796578063fe99049a146107b657600080fd5b8063eb08ab281461071c578063f242432a1461075657600080fd5b8063aea0ffc314610653578063c8274abe14610673578063d547741f146106b3578063e985e9c5146106d357600080fd5b80639a86e8ce116100ec5780639a86e8ce146105ca578063a217fddf146105fe578063a22cb46514610613578063ac4a0fb61461063357600080fd5b806354ea5357146104e8578063572b6c051461050857806391d14854146105635780639470ad85146105a957600080fd5b8063248a9ca3116101b057806333df048e1161017f5780633659cfe6116101645780633659cfe6146104885780634e1273f4146104a85780634f1ef286146104d557600080fd5b806333df048e1461041557806336568abe1461046857600080fd5b8063248a9ca314610371578063288809c7146103a15780632eb2c2d6146103d55780632f2ff15d146103f557600080fd5b80630e89341c116101ec5780630e89341c146102c457806311ec5868146102e457806321101e1e1461031d5780632210023d1461033d57600080fd5b8062fdd58e1461021d57806301ffc9a71461025057806302fe53051461028057806306fdde03146102a2575b600080fd5b34801561022957600080fd5b5061023d610238366004613233565b6107d6565b6040519081526020015b60405180910390f35b34801561025c57600080fd5b5061027061026b366004613417565b610881565b6040519015158152602001610247565b34801561028c57600080fd5b506102a061029b36600461344f565b6108a1565b005b3480156102ae57600080fd5b506102b7610906565b604051610247919061377f565b3480156102d057600080fd5b506102b76102df3660046133db565b610995565b3480156102f057600080fd5b5061012f54610305906001600160a01b031681565b6040516001600160a01b039091168152602001610247565b34801561032957600080fd5b506102a06103383660046134d9565b610a29565b34801561034957600080fd5b5061023d7f592c958fd52390f51665f668ae132c07938e885cabed2dc56aba7c2b2648809581565b34801561037d57600080fd5b5061023d61038c3660046133db565b600090815260fb602052604090206001015490565b3480156103ad57600080fd5b5061023d6103bc3660046134bf565b60401b6bffffffff0000000000000000163060601b1790565b3480156103e157600080fd5b506102a06103f0366004612fd6565b610aab565b34801561040157600080fd5b506102a06104103660046133f3565b610e33565b34801561042157600080fd5b5061042a610e65565b604080516001600160a01b039788168152602081019690965285019390935293166060830152608082019290925260a081019190915260c001610247565b34801561047457600080fd5b506102a06104833660046133f3565b610f28565b34801561049457600080fd5b506102a06104a3366004612f82565b610fc4565b3480156104b457600080fd5b506104c86104c3366004613318565b610fe8565b6040516102479190613747565b6102a06104e33660046131e5565b61115e565b3480156104f457600080fd5b506102a06105033660046134d9565b611173565b34801561051457600080fd5b50610270610523366004612f82565b6001600160a01b03811660009081527f62c5b74fa86321b158cf52b86e58c6f8df25915113bba84ae36e7afe261046ae602052604081205460ff1661089b565b34801561056f57600080fd5b5061027061057e3660046133f3565b600091825260fb602090815260408084206001600160a01b0393909316845291905290205460ff1690565b3480156105b557600080fd5b5061012e54610305906001600160a01b031681565b3480156105d657600080fd5b5061023d7f3d2e894c222ba979e2dce2c7d940c0e9bb14306669e9f034eb1bb3979a2069d881565b34801561060a57600080fd5b5061023d600081565b34801561061f57600080fd5b506102a061062e3660046131b4565b6111a2565b34801561063f57600080fd5b506102a061064e366004613080565b6112ca565b34801561065f57600080fd5b506102a061066e36600461325e565b611412565b34801561067f57600080fd5b5061069361068e366004612f82565b611558565b604080519485526020850193909352918301526060820152608001610247565b3480156106bf57600080fd5b506102a06106ce3660046133f3565b61160f565b3480156106df57600080fd5b506102706106ee366004612f9e565b6001600160a01b03918216600090815260ca6020908152604080832093909416825291909152205460ff1690565b34801561072857600080fd5b5061012f5461074190600160a01b900463ffffffff1681565b60405163ffffffff9091168152602001610247565b34801561076257600080fd5b506102a061077136600461314d565b611637565b34801561078257600080fd5b5061023d610791366004613557565b611880565b3480156107a257600080fd5b506102a06107b13660046134d9565b611905565b3480156107c257600080fd5b506102a06107d1366004613108565b611934565b60006001600160a01b0383166108595760405162461bcd60e51b815260206004820152602b60248201527f455243313135353a2062616c616e636520717565727920666f7220746865207a60448201527f65726f206164647265737300000000000000000000000000000000000000000060648201526084015b60405180910390fd5b50600090815260c9602090815260408083206001600160a01b03949094168352929052205490565b600061088c82611a36565b8061089b575061089b82611ad1565b92915050565b6108ae600061057e611b0f565b6108fa5760405162461bcd60e51b815260206004820152600a60248201527f6f6e6c792061646d696e000000000000000000000000000000000000000000006044820152606401610850565b61090381611b1e565b50565b61012d8054610914906138a5565b80601f0160208091040260200160405190810160405280929190818152602001828054610940906138a5565b801561098d5780601f106109625761010080835404028352916020019161098d565b820191906000526020600020905b81548152906001019060200180831161097057829003601f168201915b505050505081565b606060cb80546109a4906138a5565b80601f01602080910402602001604051908101604052809291908181526020018280546109d0906138a5565b8015610a1d5780601f106109f257610100808354040283529160200191610a1d565b820191906000526020600020905b815481529060010190602001808311610a0057829003601f168201915b50505050509050919050565b61012f546001600160a01b031663f9715b8f604085901b6bffffffff0000000000000000163060601b175b84846040518463ffffffff1660e01b8152600401610a7493929190613792565b600060405180830381600087803b158015610a8e57600080fd5b505af1158015610aa2573d6000803e3d6000fd5b50505050505050565b8151835114610b225760405162461bcd60e51b815260206004820152602860248201527f455243313135353a2069647320616e6420616d6f756e7473206c656e6774682060448201527f6d69736d617463680000000000000000000000000000000000000000000000006064820152608401610850565b6001600160a01b038416610b865760405162461bcd60e51b815260206004820152602560248201527f455243313135353a207472616e7366657220746f20746865207a65726f206164604482015264647265737360d81b6064820152608401610850565b610b8e611b0f565b6001600160a01b0316856001600160a01b03161480610bb45750610bb4856106ee611b0f565b610c265760405162461bcd60e51b815260206004820152603260248201527f455243313135353a207472616e736665722063616c6c6572206973206e6f742060448201527f6f776e6572206e6f7220617070726f76656400000000000000000000000000006064820152608401610850565b6000610c30611b0f565b905060005b8451811015610dc5576000858281518110610c6057634e487b7160e01b600052603260045260246000fd5b602002602001015190506000858381518110610c8c57634e487b7160e01b600052603260045260246000fd5b602090810291909101810151600084815260c9835260408082206001600160a01b038e168352909352919091205490915081811015610d205760405162461bcd60e51b815260206004820152602a60248201527f455243313135353a20696e73756666696369656e742062616c616e636520666f60448201526939103a3930b739b332b960b11b6064820152608401610850565b610d2a828261384b565b60c9600085815260200190815260200160002060008c6001600160a01b03166001600160a01b03168152602001908152602001600020819055508160c9600085815260200190815260200160002060008b6001600160a01b03166001600160a01b031681526020019081526020016000206000828254610daa91906137ec565b9250508190555050505080610dbe9061390d565b9050610c35565b50846001600160a01b0316866001600160a01b0316826001600160a01b03167f4a39dc06d4c0dbc64b70af90fd698a233a518aa5d07e595d983b8c0526c8f7fb8787604051610e1592919061375a565b60405180910390a4610e2b818787878787611b31565b505050505050565b600082815260fb6020526040902060010154610e5681610e51611b0f565b611ce6565b610e608383611d66565b505050565b61012e546040517fbb3bafd60000000000000000000000000000000000000000000000000000000081523060601b68010000000000000000176004820152600091829182918291829182916001600160a01b039091169063bb3bafd69060240160c06040518083038186803b158015610edd57600080fd5b505afa158015610ef1573d6000803e3d6000fd5b505050506040513d601f19601f82011682018060405250810190610f1591906132b9565b949b939a50919850965094509092509050565b610f30611b0f565b6001600160a01b0316816001600160a01b031614610fb65760405162461bcd60e51b815260206004820152602f60248201527f416363657373436f6e74726f6c3a2063616e206f6e6c792072656e6f756e636560448201527f20726f6c657320666f722073656c6600000000000000000000000000000000006064820152608401610850565b610fc08282611e09565b5050565b610fcd81611eaa565b61090381604051806020016040528060008152506000611f28565b606081518351146110615760405162461bcd60e51b815260206004820152602960248201527f455243313135353a206163636f756e747320616e6420696473206c656e67746860448201527f206d69736d6174636800000000000000000000000000000000000000000000006064820152608401610850565b6000835167ffffffffffffffff81111561108b57634e487b7160e01b600052604160045260246000fd5b6040519080825280602002602001820160405280156110b4578160200160208202803683370190505b50905060005b84518110156111565761111b8582815181106110e657634e487b7160e01b600052603260045260246000fd5b602002602001015185838151811061110e57634e487b7160e01b600052603260045260246000fd5b60200260200101516107d6565b82828151811061113b57634e487b7160e01b600052603260045260246000fd5b602090810291909101015261114f8161390d565b90506110ba565b509392505050565b61116782611eaa565b610fc082826001611f28565b61012f546001600160a01b031663c0ba9f55604085901b6bffffffff0000000000000000163060601b17610a54565b816001600160a01b03166111b4611b0f565b6001600160a01b031614156112315760405162461bcd60e51b815260206004820152602960248201527f455243313135353a2073657474696e6720617070726f76616c2073746174757360448201527f20666f722073656c6600000000000000000000000000000000000000000000006064820152608401610850565b8060ca600061123e611b0f565b6001600160a01b03908116825260208083019390935260409182016000908120918716808252919093529120805460ff191692151592909217909155611282611b0f565b6001600160a01b03167f17307eab39ab6107e8899845ad3d59bd9653f200f220920489ca2b5937696c31836040516112be911515815260200190565b60405180910390a35050565b600054610100900460ff16806112e3575060005460ff16155b6113465760405162461bcd60e51b815260206004820152602e60248201527f496e697469616c697a61626c653a20636f6e747261637420697320616c72656160448201526d191e481a5b9a5d1a585b1a5e995960921b6064820152608401610850565b600054610100900460ff16158015611368576000805461ffff19166101011790555b611370612120565b61137b60008761214b565b6113a57f592c958fd52390f51665f668ae132c07938e885cabed2dc56aba7c2b264880958661214b565b83516113b99061012d906020870190612ded565b5061012e80546001600160a01b0380861673ffffffffffffffffffffffffffffffffffffffff199283161790925561012f8054928516929091169190911790558015610e2b576000805461ff0019169055505050505050565b61143e7f592c958fd52390f51665f668ae132c07938e885cabed2dc56aba7c2b2648809561057e611b0f565b6114795760405162461bcd60e51b815260206004820152600c60248201526b37b7363c9036b0b730b3b2b960a11b6044820152606401610850565b60015b61012f5463ffffffff600160a01b909104811690821611610aa25761012e546001600160a01b031663ad09608a604083901b6bffffffff0000000000000000163060601b176040516001600160e01b031960e084901b16815260048101919091526001600160a01b03808b166024830152604482018a9052606482018990528716608482015260a4810186905260c4810185905260e401600060405180830381600087803b15801561152d57600080fd5b505af1158015611541573d6000803e3d6000fd5b50505050808061155090613928565b91505061147c565b61012e546000908190819081906001600160a01b031663e24b0a2b680100000000000000003060601b176040516001600160e01b031960e084901b16815260048101919091526001600160a01b038816602482015260440160806040518083038186803b1580156115c857600080fd5b505afa1580156115dc573d6000803e3d6000fd5b505050506040513d601f19601f82011682018060405250810190611600919061348a565b93509350935093509193509193565b600082815260fb602052604090206001015461162d81610e51611b0f565b610e608383611e09565b6001600160a01b03841661169b5760405162461bcd60e51b815260206004820152602560248201527f455243313135353a207472616e7366657220746f20746865207a65726f206164604482015264647265737360d81b6064820152608401610850565b6116a3611b0f565b6001600160a01b0316856001600160a01b031614806116c957506116c9856106ee611b0f565b6117275760405162461bcd60e51b815260206004820152602960248201527f455243313135353a2063616c6c6572206973206e6f74206f776e6572206e6f7260448201526808185c1c1c9bdd995960ba1b6064820152608401610850565b6000611731611b0f565b905061175281878761174288612155565b61174b88612155565b5050505050565b600084815260c9602090815260408083206001600160a01b038a168452909152902054838110156117d85760405162461bcd60e51b815260206004820152602a60248201527f455243313135353a20696e73756666696369656e742062616c616e636520666f60448201526939103a3930b739b332b960b11b6064820152608401610850565b6117e2848261384b565b600086815260c9602090815260408083206001600160a01b038c811685529252808320939093558816815290812080548692906118209084906137ec565b909155505060408051868152602081018690526001600160a01b03808916928a821692918616917fc3d58168c5ae7397731d063d5bbf3d657854427343f4c083240f7aacaa2d0f62910160405180910390a4610aa28288888888886121ae565b60006118ae7f592c958fd52390f51665f668ae132c07938e885cabed2dc56aba7c2b2648809561057e611b0f565b6118e95760405162461bcd60e51b815260206004820152600c60248201526b37b7363c9036b0b730b3b2b960a11b6044820152606401610850565b6118fe6103bc6118f7611b0f565b85856122b9565b9392505050565b61012f546001600160a01b031663b85f8ca9604085901b6bffffffff0000000000000000163060601b17610a54565b6001600160a01b0383166119985760405162461bcd60e51b815260206004820152602560248201527f455243313135353a207472616e7366657220746f20746865207a65726f206164604482015264647265737360d81b6064820152608401610850565b6119a0611b0f565b6001600160a01b0316846001600160a01b031614806119c657506119c6846106ee611b0f565b611a245760405162461bcd60e51b815260206004820152602960248201527f455243313135353a2063616c6c6572206973206e6f74206f776e6572206e6f7260448201526808185c1c1c9bdd995960ba1b6064820152608401610850565b611a308484848461235b565b50505050565b60006001600160e01b031982167fd9b67a26000000000000000000000000000000000000000000000000000000001480611a9957506001600160e01b031982167f0e89341c00000000000000000000000000000000000000000000000000000000145b8061089b57507f01ffc9a7000000000000000000000000000000000000000000000000000000006001600160e01b031983161461089b565b60006001600160e01b031982167f7965db0b00000000000000000000000000000000000000000000000000000000148061089b575061089b82611a36565b6000611b196124a3565b905090565b8051610fc09060cb906020840190612ded565b6001600160a01b0384163b15610e2b5760405163bc197c8160e01b81526001600160a01b0385169063bc197c8190611b7590899089908890889088906004016136a6565b602060405180830381600087803b158015611b8f57600080fd5b505af1925050508015611bbf575060408051601f3d908101601f19168201909252611bbc91810190613433565b60015b611c7557611bcb613978565b806308c379a01415611c055750611be061398f565b80611beb5750611c07565b8060405162461bcd60e51b8152600401610850919061377f565b505b60405162461bcd60e51b815260206004820152603460248201527f455243313135353a207472616e7366657220746f206e6f6e204552433131353560448201527f526563656976657220696d706c656d656e7465720000000000000000000000006064820152608401610850565b6001600160e01b0319811663bc197c8160e01b14610aa25760405162461bcd60e51b815260206004820152602860248201527f455243313135353a204552433131353552656365697665722072656a656374656044820152676420746f6b656e7360c01b6064820152608401610850565b600082815260fb602090815260408083206001600160a01b038516845290915290205460ff16610fc057611d24816001600160a01b03166014612503565b611d2f836020612503565b604051602001611d40929190613625565b60408051601f198184030181529082905262461bcd60e51b82526108509160040161377f565b600082815260fb602090815260408083206001600160a01b038516845290915290205460ff16610fc057600082815260fb602090815260408083206001600160a01b03851684529091529020805460ff19166001179055611dc5611b0f565b6001600160a01b0316816001600160a01b0316837f2f8788117e7eff1d82e926ec794901d17c78024a50270940304540a733656f0d60405160405180910390a45050565b600082815260fb602090815260408083206001600160a01b038516845290915290205460ff1615610fc057600082815260fb602090815260408083206001600160a01b03851684529091529020805460ff19169055611e66611b0f565b6001600160a01b0316816001600160a01b0316837ff6391f5c32d9c69d2a47ea670b442974b53935d1edc7fd64eb21e047a839171b60405160405180910390a45050565b3360009081527fc88390e7e62175be0932452175b6a7222b6b094ab0ef984a5153c620345d8975602052604090205460ff166109035760405162461bcd60e51b815260206004820152600a60248201527f4f6e6c792041646d696e000000000000000000000000000000000000000000006044820152606401610850565b6000611f5b7f360894a13ba1a3210667c828492db98dca3e2076cc3735a920a3ca505d382bbc546001600160a01b031690565b9050611f668461272a565b600083511180611f735750815b15611f8457611f8284846127ec565b505b7f4910fdfa16fed3260ed0e7147f7cc6da11a60208b5b9406d12a635614ffd9143805460ff1661174b57805460ff191660011781556040516001600160a01b038316602482015261203190869060440160408051601f198184030181529190526020810180517bffffffffffffffffffffffffffffffffffffffffffffffffffffffff167f3659cfe6000000000000000000000000000000000000000000000000000000001790526127ec565b50805460ff191681557f360894a13ba1a3210667c828492db98dca3e2076cc3735a920a3ca505d382bbc546001600160a01b038381169116146120dc5760405162461bcd60e51b815260206004820152602f60248201527f45524331393637557067726164653a207570677261646520627265616b73206660448201527f75727468657220757067726164657300000000000000000000000000000000006064820152608401610850565b6120e58561272a565b6040516001600160a01b038616907fbc7cd75a20ee27fd9adebab32041f755214dbc6bffa90cc0225b39da2e5c2d3b90600090a25050505050565b612141604051806060016040528060338152602001613a6c603391396128ee565b6121496129ba565b565b610fc08282611d66565b6040805160018082528183019092526060916000919060208083019080368337019050509050828160008151811061219d57634e487b7160e01b600052603260045260246000fd5b602090810291909101015292915050565b6001600160a01b0384163b15610e2b5760405163f23a6e6160e01b81526001600160a01b0385169063f23a6e61906121f29089908990889088908890600401613704565b602060405180830381600087803b15801561220c57600080fd5b505af192505050801561223c575060408051601f3d908101601f1916820190925261223991810190613433565b60015b61224857611bcb613978565b6001600160e01b0319811663f23a6e6160e01b14610aa25760405162461bcd60e51b815260206004820152602860248201527f455243313135353a204552433131353552656365697665722072656a656374656044820152676420746f6b656e7360c01b6064820152608401610850565b61012f546000906122f59085906122de90600160a01b900463ffffffff166001613804565b63ffffffff168567ffffffffffffffff16856129c2565b61012f5461231190600160a01b900463ffffffff166001613804565b61012f80547fffffffffffffffff00000000ffffffffffffffffffffffffffffffffffffffff16600160a01b63ffffffff9384168102919091179182905590041690509392505050565b600082815260c9602090815260408083206001600160a01b0388168452909152902054818110156123e15760405162461bcd60e51b815260206004820152602a60248201527f455243313135353a20696e73756666696369656e742062616c616e636520666f60448201526939103a3930b739b332b960b11b6064820152608401610850565b6123eb828261384b565b600084815260c9602090815260408083206001600160a01b038a811685529252808320939093558616815290812080548492906124299084906137ec565b9091555060009050612439611b0f565b9050846001600160a01b0316866001600160a01b0316826001600160a01b03167fc3d58168c5ae7397731d063d5bbf3d657854427343f4c083240f7aacaa2d0f628787604051612493929190918252602082015260400190565b60405180910390a4505050505050565b60006124e9336001600160a01b03811660009081527f62c5b74fa86321b158cf52b86e58c6f8df25915113bba84ae36e7afe261046ae602052604081205460ff1661089b565b156124fb575060131936013560601c90565b503390565b90565b6060600061251283600261382c565b61251d9060026137ec565b67ffffffffffffffff81111561254357634e487b7160e01b600052604160045260246000fd5b6040519080825280601f01601f19166020018201604052801561256d576020820181803683370190505b5090507f3000000000000000000000000000000000000000000000000000000000000000816000815181106125b257634e487b7160e01b600052603260045260246000fd5b60200101906001600160f81b031916908160001a9053507f78000000000000000000000000000000000000000000000000000000000000008160018151811061260b57634e487b7160e01b600052603260045260246000fd5b60200101906001600160f81b031916908160001a905350600061262f84600261382c565b61263a9060016137ec565b90505b60018111156126db577f303132333435363738396162636465660000000000000000000000000000000085600f166010811061268957634e487b7160e01b600052603260045260246000fd5b1a60f81b8282815181106126ad57634e487b7160e01b600052603260045260246000fd5b60200101906001600160f81b031916908160001a90535060049490941c936126d48161388e565b905061263d565b5083156118fe5760405162461bcd60e51b815260206004820181905260248201527f537472696e67733a20686578206c656e67746820696e73756666696369656e746044820152606401610850565b803b61279e5760405162461bcd60e51b815260206004820152602d60248201527f455243313936373a206e657720696d706c656d656e746174696f6e206973206e60448201527f6f74206120636f6e7472616374000000000000000000000000000000000000006064820152608401610850565b7f360894a13ba1a3210667c828492db98dca3e2076cc3735a920a3ca505d382bbc805473ffffffffffffffffffffffffffffffffffffffff19166001600160a01b0392909216919091179055565b6060823b6128625760405162461bcd60e51b815260206004820152602660248201527f416464726573733a2064656c65676174652063616c6c20746f206e6f6e2d636f60448201527f6e747261637400000000000000000000000000000000000000000000000000006064820152608401610850565b600080846001600160a01b03168460405161287d9190613609565b600060405180830381855af49150503d80600081146128b8576040519150601f19603f3d011682016040523d82523d6000602084013e6128bd565b606091505b50915091506128e58282604051806060016040528060278152602001613a4560279139612aec565b95945050505050565b600054610100900460ff1680612907575060005460ff16155b61296a5760405162461bcd60e51b815260206004820152602e60248201527f496e697469616c697a61626c653a20636f6e747261637420697320616c72656160448201526d191e481a5b9a5d1a585b1a5e995960921b6064820152608401610850565b600054610100900460ff1615801561298c576000805461ffff19166101011790555b612994612b25565b61299c612b25565b6129a582612bd7565b8015610fc0576000805461ff00191690555050565b612149612c7e565b6001600160a01b038416612a3e5760405162461bcd60e51b815260206004820152602160248201527f455243313135353a206d696e7420746f20746865207a65726f2061646472657360448201527f73000000000000000000000000000000000000000000000000000000000000006064820152608401610850565b6000612a48611b0f565b9050612a5a8160008761174288612155565b600084815260c9602090815260408083206001600160a01b038916845290915281208054859290612a8c9084906137ec565b909155505060408051858152602081018590526001600160a01b0380881692600092918516917fc3d58168c5ae7397731d063d5bbf3d657854427343f4c083240f7aacaa2d0f62910160405180910390a461174b816000878787876121ae565b60608315612afb5750816118fe565b825115612b0b5782518084602001fd5b8160405162461bcd60e51b8152600401610850919061377f565b600054610100900460ff1680612b3e575060005460ff16155b612ba15760405162461bcd60e51b815260206004820152602e60248201527f496e697469616c697a61626c653a20636f6e747261637420697320616c72656160448201526d191e481a5b9a5d1a585b1a5e995960921b6064820152608401610850565b600054610100900460ff16158015612bc3576000805461ffff19166101011790555b8015610903576000805461ff001916905550565b600054610100900460ff1680612bf0575060005460ff16155b612c535760405162461bcd60e51b815260206004820152602e60248201527f496e697469616c697a61626c653a20636f6e747261637420697320616c72656160448201526d191e481a5b9a5d1a585b1a5e995960921b6064820152608401610850565b600054610100900460ff16158015612c75576000805461ffff19166101011790555b6129a582611b1e565b612c86612c99565b612c8e612d47565b61214960003361214b565b600054610100900460ff1680612cb2575060005460ff16155b612d155760405162461bcd60e51b815260206004820152602e60248201527f496e697469616c697a61626c653a20636f6e747261637420697320616c72656160448201526d191e481a5b9a5d1a585b1a5e995960921b6064820152608401610850565b600054610100900460ff16158015612d37576000805461ffff19166101011790555b612d3f612b25565b612bc3612b25565b600054610100900460ff1680612d60575060005460ff16155b612dc35760405162461bcd60e51b815260206004820152602e60248201527f496e697469616c697a61626c653a20636f6e747261637420697320616c72656160448201526d191e481a5b9a5d1a585b1a5e995960921b6064820152608401610850565b600054610100900460ff16158015612de5576000805461ffff19166101011790555b612d37612b25565b828054612df9906138a5565b90600052602060002090601f016020900481019282612e1b5760008555612e61565b82601f10612e3457805160ff1916838001178555612e61565b82800160010185558215612e61579182015b82811115612e61578251825591602001919060010190612e46565b50612e6d929150612e71565b5090565b5b80821115612e6d5760008155600101612e72565b600082601f830112612e96578081fd5b81356020612ea3826137c8565b604051612eb082826138e0565b8381528281019150858301600585901b87018401881015612ecf578586fd5b855b85811015612eed57813584529284019290840190600101612ed1565b5090979650505050505050565b600082601f830112612f0a578081fd5b813567ffffffffffffffff811115612f2457612f24613962565b604051612f3b601f8301601f1916602001826138e0565b818152846020838601011115612f4f578283fd5b816020850160208301379081016020019190915292915050565b803563ffffffff81168114612f7d57600080fd5b919050565b600060208284031215612f93578081fd5b81356118fe81613a19565b60008060408385031215612fb0578081fd5b8235612fbb81613a19565b91506020830135612fcb81613a19565b809150509250929050565b600080600080600060a08688031215612fed578081fd5b8535612ff881613a19565b9450602086013561300881613a19565b9350604086013567ffffffffffffffff80821115613024578283fd5b61303089838a01612e86565b94506060880135915080821115613045578283fd5b61305189838a01612e86565b93506080880135915080821115613066578283fd5b5061307388828901612efa565b9150509295509295909350565b600080600080600060a08688031215613097578081fd5b85356130a281613a19565b945060208601356130b281613a19565b9350604086013567ffffffffffffffff8111156130cd578182fd5b6130d988828901612efa565b93505060608601356130ea81613a19565b915060808601356130fa81613a19565b809150509295509295909350565b6000806000806080858703121561311d578182fd5b843561312881613a19565b9350602085013561313881613a19565b93969395505050506040820135916060013590565b600080600080600060a08688031215613164578283fd5b853561316f81613a19565b9450602086013561317f81613a19565b93506040860135925060608601359150608086013567ffffffffffffffff8111156131a8578182fd5b61307388828901612efa565b600080604083850312156131c6578182fd5b82356131d181613a19565b915060208301358015158114612fcb578182fd5b600080604083850312156131f7578182fd5b823561320281613a19565b9150602083013567ffffffffffffffff81111561321d578182fd5b61322985828601612efa565b9150509250929050565b60008060408385031215613245578182fd5b823561325081613a19565b946020939093013593505050565b60008060008060008060c08789031215613276578384fd5b863561328181613a19565b95506020870135945060408701359350606087013561329f81613a19565b9598949750929560808101359460a0909101359350915050565b60008060008060008060c087890312156132d1578384fd5b86516132dc81613a19565b80965050602087015194506040870151935060608701516132fc81613a19565b809350506080870151915060a087015190509295509295509295565b6000806040838503121561332a578182fd5b823567ffffffffffffffff80821115613341578384fd5b818501915085601f830112613354578384fd5b81356020613361826137c8565b60405161336e82826138e0565b8381528281019150858301600585901b870184018b101561338d578889fd5b8896505b848710156133b85780356133a481613a19565b835260019690960195918301918301613391565b50965050860135925050808211156133ce578283fd5b5061322985828601612e86565b6000602082840312156133ec578081fd5b5035919050565b60008060408385031215613405578182fd5b823591506020830135612fcb81613a19565b600060208284031215613428578081fd5b81356118fe81613a2e565b600060208284031215613444578081fd5b81516118fe81613a2e565b600060208284031215613460578081fd5b813567ffffffffffffffff811115613476578182fd5b61348284828501612efa565b949350505050565b6000806000806080858703121561349f578182fd5b505082516020840151604085015160609095015191969095509092509050565b6000602082840312156134d0578081fd5b6118fe82612f69565b6000806000604084860312156134ed578081fd5b6134f684612f69565b9250602084013567ffffffffffffffff80821115613512578283fd5b818601915086601f830112613525578283fd5b813581811115613533578384fd5b876020828501011115613544578384fd5b6020830194508093505050509250925092565b60008060408385031215613569578182fd5b823567ffffffffffffffff8082168214613581578384fd5b90925060208401359080821115613596578283fd5b5061322985828601612efa565b6000815180845260208085019450808401835b838110156135d2578151875295820195908201906001016135b6565b509495945050505050565b600081518084526135f5816020860160208601613862565b601f01601f19169290920160200192915050565b6000825161361b818460208701613862565b9190910192915050565b7f416363657373436f6e74726f6c3a206163636f756e742000000000000000000081526000835161365d816017850160208801613862565b7f206973206d697373696e6720726f6c6520000000000000000000000000000000601791840191820152835161369a816028840160208801613862565b01602801949350505050565b60006001600160a01b03808816835280871660208401525060a060408301526136d260a08301866135a3565b82810360608401526136e481866135a3565b905082810360808401526136f881856135dd565b98975050505050505050565b60006001600160a01b03808816835280871660208401525084604083015283606083015260a0608083015261373c60a08301846135dd565b979650505050505050565b6020815260006118fe60208301846135a3565b60408152600061376d60408301856135a3565b82810360208401526128e581856135a3565b6020815260006118fe60208301846135dd565b83815260406020820152816040820152818360608301376000818301606090810191909152601f909201601f1916010192915050565b600067ffffffffffffffff8211156137e2576137e2613962565b5060051b60200190565b600082198211156137ff576137ff61394c565b500190565b600063ffffffff8083168185168083038211156138235761382361394c565b01949350505050565b60008160001904831182151516156138465761384661394c565b500290565b60008282101561385d5761385d61394c565b500390565b60005b8381101561387d578181015183820152602001613865565b83811115611a305750506000910152565b60008161389d5761389d61394c565b506000190190565b600181811c908216806138b957607f821691505b602082108114156138da57634e487b7160e01b600052602260045260246000fd5b50919050565b601f8201601f1916810167ffffffffffffffff8111828210171561390657613906613962565b6040525050565b60006000198214156139215761392161394c565b5060010190565b600063ffffffff808316818114156139425761394261394c565b6001019392505050565b634e487b7160e01b600052601160045260246000fd5b634e487b7160e01b600052604160045260246000fd5b600060033d111561250057600481823e5160e01c90565b600060443d101561399d5790565b6040516003193d81016004833e81513d67ffffffffffffffff81602484011181841117156139cd57505050505090565b82850191508151818111156139e55750505050505090565b843d87010160208285010111156139ff5750505050505090565b613a0e602082860101876138e0565b509095945050505050565b6001600160a01b038116811461090357600080fd5b6001600160e01b03198116811461090357600080fdfe416464726573733a206c6f772d6c6576656c2064656c65676174652063616c6c206661696c656468747470733a2f2f6170692e66726565706f72742e636572652e6e6574776f726b2f657263313135352f7b69647d2e6a736f6ea26469706673582212202a8b40fb30e66a7dda805eeb1e0f6b48385f718bc954a8d2315fb176c6d3826764736f6c63430008040033",
  "immutableReferences": {},
  "source": "pragma solidity ^0.8.0;\n\nimport \"./freeportParts/BaseNFT.sol\";\nimport \"./Freeport.sol\";\nimport \"./NFTAttachment.sol\";\n\n/** This this contract describes the collection of NFTs associated with a particular user.\n *\n */\ncontract Collection is BaseNFT {\n    function initialize(address admin, address minter, string memory _name, Freeport _freeport, NFTAttachment _nftAttachment) public initializer {\n        __BaseNFT_init();\n        _setupRole(DEFAULT_ADMIN_ROLE, admin);\n        _setupRole(COLLECTION_MANAGER_ROLE, minter);\n\n        name = _name;\n        freeport = Freeport(_freeport);\n        nftAttachment = NFTAttachment(_nftAttachment);\n    }\n\n    // Name of the collection for open sea.\n    string public name;\n    /** Collection manager role.\n     *  Used for configuring the amounts and beneficiaries of royalties on primary and secondary transfers of this NFT.\n     */\n    bytes32 public constant COLLECTION_MANAGER_ROLE = keccak256(\"COLLECTION_MANAGER_ROLE\");\n    // The address of Freeport contract.\n    Freeport public freeport;\n    // The address of NFTAttachment contract.\n    NFTAttachment public nftAttachment;\n    /** A counter of NFT types issued.\n     * This is used to generate unique NFT IDs.\n     */\n    uint32 public idCounter;\n\n    /// Issuer interface\n    /** Issue NFT of a new type, and return its ID.\n     *\n     * No more NFT of this type can be issued again.\n     *\n     * The caller will be recorded as the issuer and it will initially own the NFT.\n     */\n    function issueNft(uint64 supply, bytes memory data)\n    public returns (uint256) {\n        require(hasRole(COLLECTION_MANAGER_ROLE, _msgSender()), \"only manager\");\n        return getGlobalNftId(_issueAs(_msgSender(), supply, data));\n    }\n\n    /** Internal implementation of the function issue.\n     */\n    function _issueAs(address issuer, uint64 supply, bytes memory data)\n    internal returns (uint32) {\n        _mint(issuer, idCounter + 1, supply, data);\n\n        idCounter = idCounter + 1;\n        return idCounter;\n    }\n    /// Issuer interface\n\n    /// Royalty management interface\n    /** Configure the amounts and beneficiaries of royalties on primary and secondary transfers of this NFT.\n     *  Delegating to Freeport implementation.\n     */\n    function setupRoyaltyConfiguration(\n        address primaryRoyaltyAccount,\n        uint256 primaryRoyaltyCut,\n        uint256 primaryRoyaltyMinimum,\n        address secondaryRoyaltyAccount,\n        uint256 secondaryRoyaltyCut,\n        uint256 secondaryRoyaltyMinimum)\n    public {\n        require(hasRole(COLLECTION_MANAGER_ROLE, _msgSender()), \"only manager\");\n\n        for (uint32 i = 1; i <= idCounter; i++) {\n            freeport.configureRoyalties(\n                getGlobalNftId(i),\n                primaryRoyaltyAccount,\n                primaryRoyaltyCut,\n                primaryRoyaltyMinimum,\n                secondaryRoyaltyAccount,\n                secondaryRoyaltyCut,\n                secondaryRoyaltyMinimum\n            );\n        }\n    }\n\n    /** Return the current configuration of royalties for all NFTs of the collection.\n     */\n    function getRoyalties()\n    public view returns (\n        address primaryRoyaltyAccount,\n        uint256 primaryRoyaltyCut,\n        uint256 primaryRoyaltyMinimum,\n        address secondaryRoyaltyAccount,\n        uint256 secondaryRoyaltyCut,\n        uint256 secondaryRoyaltyMinimum\n    ) {\n        return freeport.getRoyalties(getGlobalNftId(1)); // we are checking only the first minted NFT because we do not have interface for collection to set up royalties of specific NFTs.\n    }\n\n    /** Return the amount of royalties earned by a beneficiary on each primary and secondary transfer of an NFT.\n     *\n     * This function supports Joint Accounts. If royalties are paid to a JA and beneficiary is an owner of the JA,\n     * the shares of the royalties for this owner are returned.\n     */\n    function getRoyaltiesForBeneficiary(address beneficiary)\n    public view returns (uint256 primaryCut, uint256 primaryMinimum, uint256 secondaryCut, uint256 secondaryMinimum) {\n        return freeport.getRoyaltiesForBeneficiary(getGlobalNftId(1), beneficiary);\n    }\n    /// Royalty management interface\n\n    /// NFT attachment interface\n    /** Attach data `attachment` to the collection NFT with specific inner NFT id, as the minter of this NFT type.\n     *\n     * This only works for NFT IDs in the Freeport format.\n     */\n    function minterAttachToNFT(uint32 innerNftId, bytes calldata attachment)\n    public {\n        nftAttachment.minterAttachToNFT(getGlobalNftId(innerNftId), attachment);\n    }\n\n    /** Attach data `attachment` to the collection NFT with specific inner NFT id, as a current owner of an NFT of this type.\n     *\n     * This works for NFTs in the ERC-1155 or Freeport standards.\n     */\n    function ownerAttachToNFT(uint32 innerNftId, bytes calldata attachment)\n    public {\n        nftAttachment.ownerAttachToNFT(getGlobalNftId(innerNftId), attachment);\n    }\n\n    /** Attach data `attachment` to the collection NFT with specific inner NFT id.\n     */\n    function anonymAttachToNFT(uint32 innerNftId, bytes calldata attachment)\n    public {\n        nftAttachment.anonymAttachToNFT(getGlobalNftId(innerNftId), attachment);\n    }\n    /// NFT attachment interface\n\n    /// NFT ID utilities\n    /** Calculate the global ID of an NFT type, identifying its inner nft id.\n     */\n    function getGlobalNftId(uint32 innerNftId)\n    public view returns (uint256) {\n        // issuer || innerNftId || supply (always equals to 0): 160 + 32 + 64 = 256 bits\n        uint256 id = (uint256(uint160(address(this))) << (32 + 64))\n        | (uint256(innerNftId) << 64)\n        | uint256(0);\n        return id;\n    }\n    /// NFT ID utilities\n}\n",
  "sourcePath": "/Users/neanvo/WorkFlow/cere/Freeport-Smart-Contracts/contracts/Collection.sol",
  "compiler": {
    "name": "solc",
    "version": "0.8.4+commit.c7e474f2.Emscripten.clang"
  },
  "schemaVersion": "3.4.4",
  "updatedAt": "2022-06-23T12:58:30.655Z",
  "devdoc": {
    "kind": "dev",
    "methods": {
      "balanceOf(address,uint256)": {
        "details": "See {IERC1155-balanceOf}. Requirements: - `account` cannot be the zero address."
      },
      "balanceOfBatch(address[],uint256[])": {
        "details": "See {IERC1155-balanceOfBatch}. Requirements: - `accounts` and `ids` must have the same length."
      },
      "getRoleAdmin(bytes32)": {
        "details": "Returns the admin role that controls `role`. See {grantRole} and {revokeRole}. To change a role's admin, use {_setRoleAdmin}."
      },
      "grantRole(bytes32,address)": {
        "details": "Grants `role` to `account`. If `account` had not been already granted `role`, emits a {RoleGranted} event. Requirements: - the caller must have ``role``'s admin role."
      },
      "hasRole(bytes32,address)": {
        "details": "Returns `true` if `account` has been granted `role`."
      },
      "isApprovedForAll(address,address)": {
        "details": "See {IERC1155-isApprovedForAll}."
      },
      "renounceRole(bytes32,address)": {
        "details": "Revokes `role` from the calling account. Roles are often managed via {grantRole} and {revokeRole}: this function's purpose is to provide a mechanism for accounts to lose their privileges if they are compromised (such as when a trusted device is misplaced). If the calling account had been granted `role`, emits a {RoleRevoked} event. Requirements: - the caller must be `account`."
      },
      "revokeRole(bytes32,address)": {
        "details": "Revokes `role` from `account`. If `account` had been granted `role`, emits a {RoleRevoked} event. Requirements: - the caller must have ``role``'s admin role."
      },
      "safeBatchTransferFrom(address,address,uint256[],uint256[],bytes)": {
        "details": "See {IERC1155-safeBatchTransferFrom}."
      },
      "safeTransferFrom(address,address,uint256,uint256,bytes)": {
        "details": "See {IERC1155-safeTransferFrom}."
      },
      "setApprovalForAll(address,bool)": {
        "details": "See {IERC1155-setApprovalForAll}."
      },
      "uri(uint256)": {
        "details": "See {IERC1155MetadataURI-uri}. This implementation returns the same URI for *all* token types. It relies on the token type ID substitution mechanism https://eips.ethereum.org/EIPS/eip-1155#metadata[defined in the EIP]. Clients calling this function must replace the `\\{id\\}` substring with the actual token type ID."
      }
    },
    "version": 1
  },
  "userdoc": {
    "kind": "user",
    "methods": {
      "COLLECTION_MANAGER_ROLE()": {
        "notice": "Collection manager role.  Used for configuring the amounts and beneficiaries of royalties on primary and secondary transfers of this NFT."
      },
      "anonymAttachToNFT(uint32,bytes)": {
        "notice": "Attach data `attachment` to the collection NFT with specific inner NFT id."
      },
      "getGlobalNftId(uint32)": {
        "notice": "Calculate the global ID of an NFT type, identifying its inner nft id."
      },
      "getRoyalties()": {
        "notice": "Return the current configuration of royalties for all NFTs of the collection."
      },
      "getRoyaltiesForBeneficiary(address)": {
        "notice": "Return the amount of royalties earned by a beneficiary on each primary and secondary transfer of an NFT. This function supports Joint Accounts. If royalties are paid to a JA and beneficiary is an owner of the JA, the shares of the royalties for this owner are returned."
      },
      "idCounter()": {
        "notice": "A counter of NFT types issued. This is used to generate unique NFT IDs."
      },
      "issueNft(uint64,bytes)": {
        "notice": "Issue NFT of a new type, and return its ID. No more NFT of this type can be issued again. The caller will be recorded as the issuer and it will initially own the NFT."
      },
      "minterAttachToNFT(uint32,bytes)": {
        "notice": "Attach data `attachment` to the collection NFT with specific inner NFT id, as the minter of this NFT type. This only works for NFT IDs in the Freeport format."
      },
      "ownerAttachToNFT(uint32,bytes)": {
        "notice": "Attach data `attachment` to the collection NFT with specific inner NFT id, as a current owner of an NFT of this type. This works for NFTs in the ERC-1155 or Freeport standards."
      },
      "setupRoyaltyConfiguration(address,uint256,uint256,address,uint256,uint256)": {
        "notice": "Configure the amounts and beneficiaries of royalties on primary and secondary transfers of this NFT.  Delegating to Freeport implementation."
      },
      "supportsInterface(bytes4)": {
        "notice": "Supports interfaces of AccessControl, ERC1155, and ERC1155 MetadataURI."
      },
      "transferFrom(address,address,uint256,uint256)": {
        "notice": "transferFrom performs a simple transfer, without calling the hooks  (no _beforeTokenTransfer and no onERC1155Received)."
      }
    },
    "notice": "This this contract describes the collection of NFTs associated with a particular user.",
    "version": 1
  }
}