{
  "contractName": "CollectionFactory",
  "abi": [
    {
      "anonymous": false,
      "inputs": [
        {
          "indexed": false,
          "internalType": "address",
          "name": "previousAdmin",
          "type": "address"
        },
        {
          "indexed": false,
          "internalType": "address",
          "name": "newAdmin",
          "type": "address"
        }
      ],
      "name": "AdminChanged",
      "type": "event"
    },
    {
      "anonymous": false,
      "inputs": [
        {
          "indexed": true,
          "internalType": "address",
          "name": "beacon",
          "type": "address"
        }
      ],
      "name": "BeaconUpgraded",
      "type": "event"
    },
    {
      "anonymous": false,
      "inputs": [
        {
          "indexed": false,
          "internalType": "string",
          "name": "name",
          "type": "string"
        },
        {
          "indexed": true,
          "internalType": "address",
          "name": "addr",
          "type": "address"
        }
      ],
      "name": "CollectionCreated",
      "type": "event"
    },
    {
      "anonymous": false,
      "inputs": [
        {
          "indexed": true,
          "internalType": "bytes32",
          "name": "role",
          "type": "bytes32"
        },
        {
          "indexed": true,
          "internalType": "bytes32",
          "name": "previousAdminRole",
          "type": "bytes32"
        },
        {
          "indexed": true,
          "internalType": "bytes32",
          "name": "newAdminRole",
          "type": "bytes32"
        }
      ],
      "name": "RoleAdminChanged",
      "type": "event"
    },
    {
      "anonymous": false,
      "inputs": [
        {
          "indexed": true,
          "internalType": "bytes32",
          "name": "role",
          "type": "bytes32"
        },
        {
          "indexed": true,
          "internalType": "address",
          "name": "account",
          "type": "address"
        },
        {
          "indexed": true,
          "internalType": "address",
          "name": "sender",
          "type": "address"
        }
      ],
      "name": "RoleGranted",
      "type": "event"
    },
    {
      "anonymous": false,
      "inputs": [
        {
          "indexed": true,
          "internalType": "bytes32",
          "name": "role",
          "type": "bytes32"
        },
        {
          "indexed": true,
          "internalType": "address",
          "name": "account",
          "type": "address"
        },
        {
          "indexed": true,
          "internalType": "address",
          "name": "sender",
          "type": "address"
        }
      ],
      "name": "RoleRevoked",
      "type": "event"
    },
    {
      "anonymous": false,
      "inputs": [
        {
          "indexed": true,
          "internalType": "address",
          "name": "implementation",
          "type": "address"
        }
      ],
      "name": "Upgraded",
      "type": "event"
    },
    {
      "inputs": [],
      "name": "COLLECTION_CREATOR_ROLE",
      "outputs": [
        {
          "internalType": "bytes32",
          "name": "",
          "type": "bytes32"
        }
      ],
      "stateMutability": "view",
      "type": "function",
      "constant": true
    },
    {
      "inputs": [],
      "name": "DEFAULT_ADMIN_ROLE",
      "outputs": [
        {
          "internalType": "bytes32",
          "name": "",
          "type": "bytes32"
        }
      ],
      "stateMutability": "view",
      "type": "function",
      "constant": true
    },
    {
      "inputs": [],
      "name": "META_TX_FORWARDER",
      "outputs": [
        {
          "internalType": "bytes32",
          "name": "",
          "type": "bytes32"
        }
      ],
      "stateMutability": "view",
      "type": "function",
      "constant": true
    },
    {
      "inputs": [],
      "name": "freeport",
      "outputs": [
        {
          "internalType": "contract Freeport",
          "name": "",
          "type": "address"
        }
      ],
      "stateMutability": "view",
      "type": "function",
      "constant": true
    },
    {
      "inputs": [
        {
          "internalType": "bytes32",
          "name": "role",
          "type": "bytes32"
        }
      ],
      "name": "getRoleAdmin",
      "outputs": [
        {
          "internalType": "bytes32",
          "name": "",
          "type": "bytes32"
        }
      ],
      "stateMutability": "view",
      "type": "function",
      "constant": true
    },
    {
      "inputs": [
        {
          "internalType": "bytes32",
          "name": "role",
          "type": "bytes32"
        },
        {
          "internalType": "address",
          "name": "account",
          "type": "address"
        }
      ],
      "name": "grantRole",
      "outputs": [],
      "stateMutability": "nonpayable",
      "type": "function"
    },
    {
      "inputs": [
        {
          "internalType": "bytes32",
          "name": "role",
          "type": "bytes32"
        },
        {
          "internalType": "address",
          "name": "account",
          "type": "address"
        }
      ],
      "name": "hasRole",
      "outputs": [
        {
          "internalType": "bool",
          "name": "",
          "type": "bool"
        }
      ],
      "stateMutability": "view",
      "type": "function",
      "constant": true
    },
    {
      "inputs": [
        {
          "internalType": "address",
          "name": "forwarder",
          "type": "address"
        }
      ],
      "name": "isTrustedForwarder",
      "outputs": [
        {
          "internalType": "bool",
          "name": "",
          "type": "bool"
        }
      ],
      "stateMutability": "view",
      "type": "function",
      "constant": true
    },
    {
      "inputs": [],
      "name": "nftAttachment",
      "outputs": [
        {
          "internalType": "contract NFTAttachment",
          "name": "",
          "type": "address"
        }
      ],
      "stateMutability": "view",
      "type": "function",
      "constant": true
    },
    {
      "inputs": [
        {
          "internalType": "bytes32",
          "name": "role",
          "type": "bytes32"
        },
        {
          "internalType": "address",
          "name": "account",
          "type": "address"
        }
      ],
      "name": "renounceRole",
      "outputs": [],
      "stateMutability": "nonpayable",
      "type": "function"
    },
    {
      "inputs": [
        {
          "internalType": "bytes32",
          "name": "role",
          "type": "bytes32"
        },
        {
          "internalType": "address",
          "name": "account",
          "type": "address"
        }
      ],
      "name": "revokeRole",
      "outputs": [],
      "stateMutability": "nonpayable",
      "type": "function"
    },
    {
      "inputs": [
        {
          "internalType": "bytes4",
          "name": "interfaceId",
          "type": "bytes4"
        }
      ],
      "name": "supportsInterface",
      "outputs": [
        {
          "internalType": "bool",
          "name": "",
          "type": "bool"
        }
      ],
      "stateMutability": "view",
      "type": "function",
      "constant": true
    },
    {
      "inputs": [
        {
          "internalType": "address",
          "name": "newImplementation",
          "type": "address"
        }
      ],
      "name": "upgradeTo",
      "outputs": [],
      "stateMutability": "nonpayable",
      "type": "function"
    },
    {
      "inputs": [
        {
          "internalType": "address",
          "name": "newImplementation",
          "type": "address"
        },
        {
          "internalType": "bytes",
          "name": "data",
          "type": "bytes"
        }
      ],
      "name": "upgradeToAndCall",
      "outputs": [],
      "stateMutability": "payable",
      "type": "function",
      "payable": true
    },
    {
      "inputs": [
        {
          "internalType": "contract Freeport",
          "name": "_freeport",
          "type": "address"
        },
        {
          "internalType": "contract NFTAttachment",
          "name": "_nftAttachment",
          "type": "address"
        }
      ],
      "name": "initialize",
      "outputs": [],
      "stateMutability": "nonpayable",
      "type": "function"
    },
    {
      "inputs": [
        {
          "internalType": "address",
          "name": "creator",
          "type": "address"
        },
        {
          "internalType": "string",
          "name": "name",
          "type": "string"
        },
        {
          "internalType": "string",
          "name": "uriTpl",
          "type": "string"
        },
        {
          "internalType": "string",
          "name": "contractURI",
          "type": "string"
        }
      ],
      "name": "createCollection",
      "outputs": [
        {
          "internalType": "address",
          "name": "",
          "type": "address"
        }
      ],
      "stateMutability": "nonpayable",
      "type": "function"
    }
  ],
  "bytecode": "0x608060405234801561001057600080fd5b50614ab0806100206000396000f3fe6080604052600436106100c35760003560e01c806301ffc9a7146100c857806311ec5868146100fd578063248a9ca31461012a5780632f2ff15d1461015857806336568abe1461017a5780633659cfe61461019a5780633df17453146101ba578063485cc955146101da5780634f1ef286146101fa578063572b6c051461020d57806391d148541461022d5780639470ad851461024d5780639a86e8ce1461026d578063a217fddf1461028f578063caff99ce146102a4578063d547741f146102c6575b600080fd5b3480156100d457600080fd5b506100e86100e3366004611236565b6102e6565b60405190151581526020015b60405180910390f35b34801561010957600080fd5b5060fd5461011d906001600160a01b031681565b6040516100f49190611342565b34801561013657600080fd5b5061014a6101453660046111ef565b61031d565b6040519081526020016100f4565b34801561016457600080fd5b50610178610173366004611207565b610332565b005b34801561018657600080fd5b50610178610195366004611207565b61035b565b3480156101a657600080fd5b506101786101b53660046110dd565b6103ee565b3480156101c657600080fd5b5061011d6101d5366004611159565b610415565b3480156101e657600080fd5b506101786101f536600461125e565b6106a2565b6101786102083660046110f9565b610747565b34801561021957600080fd5b506100e86102283660046110dd565b61075c565b34801561023957600080fd5b506100e8610248366004611207565b610772565b34801561025957600080fd5b5060fc5461011d906001600160a01b031681565b34801561027957600080fd5b5061014a600080516020614a5b83398151915281565b34801561029b57600080fd5b5061014a600081565b3480156102b057600080fd5b5061014a6000805160206149f483398151915281565b3480156102d257600080fd5b506101786102e1366004611207565b61079d565b60006001600160e01b03198216637965db0b60e01b148061031757506301ffc9a760e01b6001600160e01b03198316145b92915050565b600090815260c9602052604090206001015490565b61033b8261031d565b61034c816103476107bc565b6107de565b6103568383610842565b505050565b6103636107bc565b6001600160a01b0316816001600160a01b0316146103e05760405162461bcd60e51b815260206004820152602f60248201527f416363657373436f6e74726f6c3a2063616e206f6e6c792072656e6f756e636560448201526e103937b632b9903337b91039b2b63360891b60648201526084015b60405180910390fd5b6103ea82826108c9565b5050565b6103f78161094e565b61041281604051806020016040528060008152506000610992565b50565b60006104316000805160206149f48339815191526102486107bc565b6104775760405162461bcd60e51b815260206004820152601760248201527637b7363c9031b7b63632b1ba34b7b71031b932b0ba37b960491b60448201526064016103d7565b6001600160a01b0385166104c45760405162461bcd60e51b81526020600482015260146024820152733d32b9379030b2323932b9b99031b932b0ba37b960611b60448201526064016103d7565b60006001600160a01b031660fb856040516104df91906112b7565b908152604051908190036020019020546001600160a01b0316146105455760405162461bcd60e51b815260206004820152601e60248201527f636f6c6c656374696f6e206e616d6520616c726561647920657869737473000060448201526064016103d7565b60006040516105539061103c565b604051809103906000f08015801561056f573d6000803e3d6000fd5b5060fc5460fd546040516311d0d6c560e31b81529293506001600160a01b0380851693638e86b628936105b59330938d938d938d938d9391821692911690600401611356565b600060405180830381600087803b1580156105cf57600080fd5b505af11580156105e3573d6000803e3d6000fd5b505060ff8054600090815260fe6020526040902080546001600160a01b0319166001600160a01b0386161790555461061f925090506001611424565b60ff55604051819060fb906106359088906112b7565b90815260405190819003602001812080546001600160a01b039384166001600160a01b0319909116179055908216907f2660dd916ec25bcad9a3dd62c721e438ec0e975817265c1e03c2639b24ac7007906106919088906113c3565b60405180910390a295945050505050565b600054610100900460ff16806106bb575060005460ff16155b6106d75760405162461bcd60e51b81526004016103d7906113d6565b600054610100900460ff161580156106f9576000805461ffff19166101011790555b610701610b0e565b60fc80546001600160a01b038086166001600160a01b03199283161790925560fd8054928516929091169190911790558015610356576000805461ff0019169055505050565b6107508261094e565b6103ea82826001610992565b6000610317600080516020614a5b833981519152835b600091825260c9602090815260408084206001600160a01b0393909316845291905290205460ff1690565b6107a68261031d565b6107b2816103476107bc565b61035683836108c9565b60006107c73361075c565b156107d9575060131936013560601c90565b503390565b6107e88282610772565b6103ea57610800816001600160a01b03166014610b18565b61080b836020610b18565b60405160200161081c9291906112d3565b60408051601f198184030181529082905262461bcd60e51b82526103d7916004016113c3565b61084c8282610772565b6103ea57600082815260c9602090815260408083206001600160a01b03851684529091529020805460ff191660011790556108856107bc565b6001600160a01b0316816001600160a01b0316837f2f8788117e7eff1d82e926ec794901d17c78024a50270940304540a733656f0d60405160405180910390a45050565b6108d38282610772565b156103ea57600082815260c9602090815260408083206001600160a01b03851684529091529020805460ff1916905561090a6107bc565b6001600160a01b0316816001600160a01b0316837ff6391f5c32d9c69d2a47ea670b442974b53935d1edc7fd64eb21e047a839171b60405160405180910390a45050565b610959600033610772565b6104125760405162461bcd60e51b815260206004820152600a60248201526927b7363c9020b236b4b760b11b60448201526064016103d7565b600061099c610d00565b90506109a784610d1c565b6000835111806109b45750815b156109c5576109c38484610daf565b505b7f4910fdfa16fed3260ed0e7147f7cc6da11a60208b5b9406d12a635614ffd9143805460ff16610b0757805460ff19166001178155604051610a40908690610a11908590602401611342565b60408051601f198184030181529190526020810180516001600160e01b0316631b2ce7f360e11b179052610daf565b50805460ff19168155610a51610d00565b6001600160a01b0316826001600160a01b031614610ac95760405162461bcd60e51b815260206004820152602f60248201527f45524331393637557067726164653a207570677261646520627265616b73206660448201526e75727468657220757067726164657360881b60648201526084016103d7565b610ad285610d1c565b6040516001600160a01b038616907fbc7cd75a20ee27fd9adebab32041f755214dbc6bffa90cc0225b39da2e5c2d3b90600090a25b5050505050565b610b16610e9a565b565b60606000610b2783600261143c565b610b32906002611424565b6001600160401b03811115610b5757634e487b7160e01b600052604160045260246000fd5b6040519080825280601f01601f191660200182016040528015610b81576020820181803683370190505b509050600360fc1b81600081518110610baa57634e487b7160e01b600052603260045260246000fd5b60200101906001600160f81b031916908160001a905350600f60fb1b81600181518110610be757634e487b7160e01b600052603260045260246000fd5b60200101906001600160f81b031916908160001a9053506000610c0b84600261143c565b610c16906001611424565b90505b6001811115610caa576f181899199a1a9b1b9c1cb0b131b232b360811b85600f1660108110610c5857634e487b7160e01b600052603260045260246000fd5b1a60f81b828281518110610c7c57634e487b7160e01b600052603260045260246000fd5b60200101906001600160f81b031916908160001a90535060049490941c93610ca38161148b565b9050610c19565b508315610cf95760405162461bcd60e51b815260206004820181905260248201527f537472696e67733a20686578206c656e67746820696e73756666696369656e7460448201526064016103d7565b9392505050565b600080516020614a14833981519152546001600160a01b031690565b803b610d805760405162461bcd60e51b815260206004820152602d60248201527f455243313936373a206e657720696d706c656d656e746174696f6e206973206e60448201526c1bdd08184818dbdb9d1c9858dd609a1b60648201526084016103d7565b600080516020614a1483398151915280546001600160a01b0319166001600160a01b0392909216919091179055565b6060823b610e0e5760405162461bcd60e51b815260206004820152602660248201527f416464726573733a2064656c65676174652063616c6c20746f206e6f6e2d636f6044820152651b9d1c9858dd60d21b60648201526084016103d7565b600080846001600160a01b031684604051610e2991906112b7565b600060405180830381855af49150503d8060008114610e64576040519150601f19603f3d011682016040523d82523d6000602084013e610e69565b606091505b5091509150610e918282604051806060016040528060278152602001614a3460279139610eb5565b95945050505050565b610ea2610eee565b610eaa610f69565b610b16600033610fc8565b60608315610ec4575081610cf9565b825115610ed45782518084602001fd5b8160405162461bcd60e51b81526004016103d791906113c3565b600054610100900460ff1680610f07575060005460ff16155b610f235760405162461bcd60e51b81526004016103d7906113d6565b600054610100900460ff16158015610f45576000805461ffff19166101011790555b610f4d610fd2565b610f55610fd2565b8015610412576000805461ff001916905550565b600054610100900460ff1680610f82575060005460ff16155b610f9e5760405162461bcd60e51b81526004016103d7906113d6565b600054610100900460ff16158015610fc0576000805461ffff19166101011790555b610f45610fd2565b6103ea8282610842565b600054610100900460ff1680610feb575060005460ff16155b6110075760405162461bcd60e51b81526004016103d7906113d6565b600054610100900460ff16158015610f55576000805461ffff19166101011790558015610412576000805461ff001916905550565b613510806114e483390190565b60006001600160401b0380841115611063576110636114b8565b604051601f8501601f19908116603f0116810190828211818310171561108b5761108b6114b8565b816040528093508581528686860111156110a457600080fd5b858560208301376000602087830101525050509392505050565b600082601f8301126110ce578081fd5b610cf983833560208501611049565b6000602082840312156110ee578081fd5b8135610cf9816114ce565b6000806040838503121561110b578081fd5b8235611116816114ce565b915060208301356001600160401b03811115611130578182fd5b8301601f81018513611140578182fd5b61114f85823560208401611049565b9150509250929050565b6000806000806080858703121561116e578182fd5b8435611179816114ce565b935060208501356001600160401b0380821115611194578384fd5b6111a0888389016110be565b945060408701359150808211156111b5578384fd5b6111c1888389016110be565b935060608701359150808211156111d6578283fd5b506111e3878288016110be565b91505092959194509250565b600060208284031215611200578081fd5b5035919050565b60008060408385031215611219578182fd5b82359150602083013561122b816114ce565b809150509250929050565b600060208284031215611247578081fd5b81356001600160e01b031981168114610cf9578182fd5b60008060408385031215611270578182fd5b823561127b816114ce565b9150602083013561122b816114ce565b600081518084526112a381602086016020860161145b565b601f01601f19169290920160200192915050565b600082516112c981846020870161145b565b9190910192915050565b76020b1b1b2b9b9a1b7b73a3937b61d1030b1b1b7bab73a1604d1b81526000835161130581601785016020880161145b565b7001034b99036b4b9b9b4b733903937b6329607d1b601791840191820152835161133681602884016020880161145b565b01602801949350505050565b6001600160a01b0391909116815260200190565b600060018060a01b03808a168352808916602084015260e0604084015261138060e084018961128b565b8381036060850152611392818961128b565b905083810360808501526113a6818861128b565b95821660a0850152509290921660c0909101525095945050505050565b602081526000610cf9602083018461128b565b6020808252602e908201527f496e697469616c697a61626c653a20636f6e747261637420697320616c72656160408201526d191e481a5b9a5d1a585b1a5e995960921b606082015260800190565b60008219821115611437576114376114a2565b500190565b6000816000190483118215151615611456576114566114a2565b500290565b60005b8381101561147657818101518382015260200161145e565b83811115611485576000848401525b50505050565b60008161149a5761149a6114a2565b506000190190565b634e487b7160e01b600052601160045260246000fd5b634e487b7160e01b600052604160045260246000fd5b6001600160a01b038116811461041257600080fdfe608060405234801561001057600080fd5b506134f0806100206000396000f3fe6080604052600436106101885760003560e01c8062fdd58e1461018d57806301ffc9a7146101c057806302fe5305146101f057806306fdde03146102125780630e89341c1461023457806311ec5868146102545780632210023d14610282578063248a9ca3146102a4578063288809c7146102c45780632eb2c2d6146102e45780632f2ff15d1461030457806333df048e1461032457806336568abe146103775780633659cfe6146103975780634e1273f4146103b75780634f1ef286146103e4578063572b6c05146103f75780638e86b6281461041757806391d14854146104375780639470ad85146104575780639a86e8ce14610478578063a217fddf1461049a578063a22cb465146104af578063aea0ffc3146104cf578063b85f8ca9146104ef578063c8274abe1461050f578063d547741f1461054f578063e8a3d4851461056f578063e985e9c514610584578063eb08ab28146105cd578063f242432a14610607578063f4e2efd014610627578063f9715b8f14610647578063fe99049a14610667575b600080fd5b34801561019957600080fd5b506101ad6101a8366004612a3b565b610687565b6040519081526020015b60405180910390f35b3480156101cc57600080fd5b506101e06101db366004612c1e565b610720565b60405190151581526020016101b7565b3480156101fc57600080fd5b5061021061020b366004612c56565b610740565b005b34801561021e57600080fd5b50610227610792565b6040516101b79190612f8a565b34801561024057600080fd5b5061022761024f366004612be2565b610821565b34801561026057600080fd5b5061013054610275906001600160a01b031681565b6040516101b79190612e9b565b34801561028e57600080fd5b506101ad60008051602061344883398151915281565b3480156102b057600080fd5b506101ad6102bf366004612be2565b6108b5565b3480156102d057600080fd5b506101ad6102df366004612d3b565b6108ca565b3480156102f057600080fd5b506102106102ff36600461279f565b6108de565b34801561031057600080fd5b5061021061031f366004612bfa565b610bc5565b34801561033057600080fd5b50610339610bee565b604080516001600160a01b039788168152602081019690965285019390935293166060830152608082019290925260a081019190915260c0016101b7565b34801561038357600080fd5b50610210610392366004612bfa565b610c98565b3480156103a357600080fd5b506102106103b236600461274b565b610d26565b3480156103c357600080fd5b506103d76103d2366004612b20565b610d4a565b6040516101b79190612f52565b6102106103f23660046129ee565b610eab565b34801561040357600080fd5b506101e061041236600461274b565b610ec0565b34801561042357600080fd5b50610210610432366004612848565b610eda565b34801561044357600080fd5b506101e0610452366004612bfa565b610fe3565b34801561046357600080fd5b5061012f54610275906001600160a01b031681565b34801561048457600080fd5b506101ad60008051602061346883398151915281565b3480156104a657600080fd5b506101ad600081565b3480156104bb57600080fd5b506102106104ca3660046129bd565b61100e565b3480156104db57600080fd5b506102106104ea366004612a66565b611122565b3480156104fb57600080fd5b5061021061050a366004612c90565b611231565b34801561051b57600080fd5b5061052f61052a36600461274b565b6112ca565b6040805194855260208501939093529183015260608201526080016101b7565b34801561055b57600080fd5b5061021061056a366004612bfa565b61137c565b34801561057b57600080fd5b5061022761139b565b34801561059057600080fd5b506101e061059f366004612767565b6001600160a01b03918216600090815260ca6020908152604080832093909416825291909152205460ff1690565b3480156105d957600080fd5b50610130546105f290600160a01b900463ffffffff1681565b60405163ffffffff90911681526020016101b7565b34801561061357600080fd5b50610210610622366004612957565b61142e565b34801561063357600080fd5b506101ad610642366004612d5f565b6115a2565b34801561065357600080fd5b50610210610662366004612c90565b6115f6565b34801561067357600080fd5b50610210610682366004612912565b61162b565b60006001600160a01b0383166106f85760405162461bcd60e51b815260206004820152602b60248201527f455243313135353a2062616c616e636520717565727920666f7220746865207a60448201526a65726f206164647265737360a81b60648201526084015b60405180910390fd5b50600090815260c9602090815260408083206001600160a01b03949094168352929052205490565b600061072b826116ad565b8061073a575061073a826116fd565b92915050565b61074d6000610452611722565b6107865760405162461bcd60e51b815260206004820152600a60248201526937b7363c9030b236b4b760b11b60448201526064016106ef565b61078f81611731565b50565b61012d80546107a090613243565b80601f01602080910402602001604051908101604052809291908181526020018280546107cc90613243565b80156108195780601f106107ee57610100808354040283529160200191610819565b820191906000526020600020905b8154815290600101906020018083116107fc57829003601f168201915b505050505081565b606060cb805461083090613243565b80601f016020809104026020016040519081016040528092919081815260200182805461085c90613243565b80156108a95780601f1061087e576101008083540402835291602001916108a9565b820191906000526020600020905b81548152906001019060200180831161088c57829003601f168201915b50505050509050919050565b600090815260fb602052604090206001015490565b60401b63ffffffff60401b163060601b1790565b81518351146109405760405162461bcd60e51b815260206004820152602860248201527f455243313135353a2069647320616e6420616d6f756e7473206c656e677468206044820152670dad2e6dac2e8c6d60c31b60648201526084016106ef565b6001600160a01b0384166109665760405162461bcd60e51b81526004016106ef90613054565b61096e611722565b6001600160a01b0316856001600160a01b0316148061099457506109948561059f611722565b6109fb5760405162461bcd60e51b815260206004820152603260248201527f455243313135353a207472616e736665722063616c6c6572206973206e6f74206044820152711bdddb995c881b9bdc88185c1c1c9bdd995960721b60648201526084016106ef565b6000610a05611722565b905060005b8451811015610b57576000858281518110610a3557634e487b7160e01b600052603260045260246000fd5b602002602001015190506000858381518110610a6157634e487b7160e01b600052603260045260246000fd5b602090810291909101810151600084815260c9835260408082206001600160a01b038e168352909352919091205490915081811015610ab25760405162461bcd60e51b81526004016106ef906130e7565b610abc82826131e9565b60c9600085815260200190815260200160002060008c6001600160a01b03166001600160a01b03168152602001908152602001600020819055508160c9600085815260200190815260200160002060008b6001600160a01b03166001600160a01b031681526020019081526020016000206000828254610b3c919061318a565b9250508190555050505080610b50906132aa565b9050610a0a565b50846001600160a01b0316866001600160a01b0316826001600160a01b03167f4a39dc06d4c0dbc64b70af90fd698a233a518aa5d07e595d983b8c0526c8f7fb8787604051610ba7929190612f65565b60405180910390a4610bbd818787878787611744565b505050505050565b610bce826108b5565b610bdf81610bda611722565b6118af565b610be98383611913565b505050565b61012f54600090819081908190819081906001600160a01b031663bb3bafd6610c1760016108ca565b6040518263ffffffff1660e01b8152600401610c3591815260200190565b60c06040518083038186803b158015610c4d57600080fd5b505afa158015610c61573d6000803e3d6000fd5b505050506040513d601f19601f82011682018060405250810190610c859190612ac1565b949b939a50919850965094509092509050565b610ca0611722565b6001600160a01b0316816001600160a01b031614610d185760405162461bcd60e51b815260206004820152602f60248201527f416363657373436f6e74726f6c3a2063616e206f6e6c792072656e6f756e636560448201526e103937b632b9903337b91039b2b63360891b60648201526084016106ef565b610d22828261199a565b5050565b610d2f81611a1f565b61078f81604051806020016040528060008152506000611a63565b60608151835114610daf5760405162461bcd60e51b815260206004820152602960248201527f455243313135353a206163636f756e747320616e6420696473206c656e677468604482015268040dad2e6dac2e8c6d60bb1b60648201526084016106ef565b600083516001600160401b03811115610dd857634e487b7160e01b600052604160045260246000fd5b604051908082528060200260200182016040528015610e01578160200160208202803683370190505b50905060005b8451811015610ea357610e68858281518110610e3357634e487b7160e01b600052603260045260246000fd5b6020026020010151858381518110610e5b57634e487b7160e01b600052603260045260246000fd5b6020026020010151610687565b828281518110610e8857634e487b7160e01b600052603260045260246000fd5b6020908102919091010152610e9c816132aa565b9050610e07565b509392505050565b610eb482611a1f565b610d2282826001611a63565b600061073a60008051602061346883398151915283610fe3565b600054610100900460ff1680610ef3575060005460ff16155b610f0f5760405162461bcd60e51b81526004016106ef90613099565b600054610100900460ff16158015610f31576000805461ffff19166101011790555b610f39611bde565b8451610f4857610f4885611731565b610f53600089611c09565b610f6b60008051602061344883398151915288611c09565b8551610f7f9061012d9060208901906125c0565b508351610f949061012e9060208701906125c0565b5061012f80546001600160a01b038086166001600160a01b0319928316179092556101308054928516929091169190911790558015610fd9576000805461ff00191690555b5050505050505050565b600091825260fb602090815260408084206001600160a01b0393909316845291905290205460ff1690565b816001600160a01b0316611020611722565b6001600160a01b031614156110895760405162461bcd60e51b815260206004820152602960248201527f455243313135353a2073657474696e6720617070726f76616c20737461747573604482015268103337b91039b2b63360b91b60648201526084016106ef565b8060ca6000611096611722565b6001600160a01b03908116825260208083019390935260409182016000908120918716808252919093529120805460ff1916921515929092179091556110da611722565b6001600160a01b03167f17307eab39ab6107e8899845ad3d59bd9653f200f220920489ca2b5937696c3183604051611116911515815260200190565b60405180910390a35050565b61113c600080516020613448833981519152610452611722565b6111585760405162461bcd60e51b81526004016106ef9061302e565b60015b6101305463ffffffff600160a01b9091048116908216116112285761012f546001600160a01b031663ad09608a611191836108ca565b6040516001600160e01b031960e084901b16815260048101919091526001600160a01b03808b166024830152604482018a9052606482018990528716608482015260a4810186905260c4810185905260e401600060405180830381600087803b1580156111fd57600080fd5b505af1158015611211573d6000803e3d6000fd5b505050508080611220906132c5565b91505061115b565b50505050505050565b61124b600080516020613448833981519152610452611722565b6112675760405162461bcd60e51b81526004016106ef9061302e565b6101305460405163b85f8ca960e01b81526001600160a01b039091169063b85f8ca99061129c90869086908690600401613131565b600060405180830381600087803b1580156112b657600080fd5b505af1158015611228573d6000803e3d6000fd5b61012f546000908190819081906001600160a01b031663e24b0a2b6112ef60016108ca565b6040516001600160e01b031960e084901b16815260048101919091526001600160a01b038816602482015260440160806040518083038186803b15801561133557600080fd5b505afa158015611349573d6000803e3d6000fd5b505050506040513d601f19601f8201168201806040525081019061136d9190612d06565b93509350935093509193509193565b611385826108b5565b61139181610bda611722565b610be9838361199a565b606061012e80546113ab90613243565b80601f01602080910402602001604051908101604052809291908181526020018280546113d790613243565b80156114245780601f106113f957610100808354040283529160200191611424565b820191906000526020600020905b81548152906001019060200180831161140757829003601f168201915b5050505050905090565b6001600160a01b0384166114545760405162461bcd60e51b81526004016106ef90613054565b61145c611722565b6001600160a01b0316856001600160a01b0316148061148257506114828561059f611722565b61149e5760405162461bcd60e51b81526004016106ef90612fe5565b60006114a8611722565b90506114c98187876114b988611c13565b6114c288611c13565b5050505050565b600084815260c9602090815260408083206001600160a01b038a1684529091529020548381101561150c5760405162461bcd60e51b81526004016106ef906130e7565b61151684826131e9565b600086815260c9602090815260408083206001600160a01b038c8116855292528083209390935588168152908120805486929061155490849061318a565b909155505060408051868152602081018690526001600160a01b03808916928a821692918616916000805160206133e1833981519152910160405180910390a4611228828888888888611c6c565b60006115be600080516020613448833981519152610452611722565b6115da5760405162461bcd60e51b81526004016106ef9061302e565b6115ef6102df6115e8611722565b8585611d36565b9392505050565b6101305460405163f9715b8f60e01b81526001600160a01b039091169063f9715b8f9061129c90869086908690600401613131565b6001600160a01b0383166116515760405162461bcd60e51b81526004016106ef90613054565b611659611722565b6001600160a01b0316846001600160a01b0316148061167f575061167f8461059f611722565b61169b5760405162461bcd60e51b81526004016106ef90612fe5565b6116a784848484611dbf565b50505050565b60006001600160e01b03198216636cdb3d1360e11b14806116de57506001600160e01b031982166303a24d0760e21b145b8061073a57506301ffc9a760e01b6001600160e01b031983161461073a565b60006001600160e01b03198216637965db0b60e01b148061073a575061073a826116ad565b600061172c611eb2565b905090565b8051610d229060cb9060208401906125c0565b6001600160a01b0384163b15610bbd5760405163bc197c8160e01b81526001600160a01b0385169063bc197c81906117889089908990889088908890600401612eaf565b602060405180830381600087803b1580156117a257600080fd5b505af19250505080156117d2575060408051601f3d908101601f191682019092526117cf91810190612c3a565b60015b61187f576117de613315565b806308c379a0141561181857506117f361332c565b806117fe575061181a565b8060405162461bcd60e51b81526004016106ef9190612f8a565b505b60405162461bcd60e51b815260206004820152603460248201527f455243313135353a207472616e7366657220746f206e6f6e20455243313135356044820152732932b1b2b4bb32b91034b6b83632b6b2b73a32b960611b60648201526084016106ef565b6001600160e01b0319811663bc197c8160e01b146112285760405162461bcd60e51b81526004016106ef90612f9d565b6118b98282610fe3565b610d22576118d1816001600160a01b03166014611ed7565b6118dc836020611ed7565b6040516020016118ed929190612e2c565b60408051601f198184030181529082905262461bcd60e51b82526106ef91600401612f8a565b61191d8282610fe3565b610d2257600082815260fb602090815260408083206001600160a01b03851684529091529020805460ff19166001179055611956611722565b6001600160a01b0316816001600160a01b0316837f2f8788117e7eff1d82e926ec794901d17c78024a50270940304540a733656f0d60405160405180910390a45050565b6119a48282610fe3565b15610d2257600082815260fb602090815260408083206001600160a01b03851684529091529020805460ff191690556119db611722565b6001600160a01b0316816001600160a01b0316837ff6391f5c32d9c69d2a47ea670b442974b53935d1edc7fd64eb21e047a839171b60405160405180910390a45050565b611a2a600033610fe3565b61078f5760405162461bcd60e51b815260206004820152600a60248201526927b7363c9020b236b4b760b11b60448201526064016106ef565b6000611a6d6120b8565b9050611a78846120d4565b600083511180611a855750815b15611a9657611a948484612167565b505b7f4910fdfa16fed3260ed0e7147f7cc6da11a60208b5b9406d12a635614ffd9143805460ff166114c257805460ff19166001178155604051611b11908690611ae2908590602401612e9b565b60408051601f198184030181529190526020810180516001600160e01b0316631b2ce7f360e11b179052612167565b50805460ff19168155611b226120b8565b6001600160a01b0316826001600160a01b031614611b9a5760405162461bcd60e51b815260206004820152602f60248201527f45524331393637557067726164653a207570677261646520627265616b73206660448201526e75727468657220757067726164657360881b60648201526084016106ef565b611ba3856120d4565b6040516001600160a01b038616907fbc7cd75a20ee27fd9adebab32041f755214dbc6bffa90cc0225b39da2e5c2d3b90600090a25050505050565b611bff60405180606001604052806033815260200161348860339139612252565b611c076122d7565b565b610d228282611913565b60408051600180825281830190925260609160009190602080830190803683370190505090508281600081518110611c5b57634e487b7160e01b600052603260045260246000fd5b602090810291909101015292915050565b6001600160a01b0384163b15610bbd5760405163f23a6e6160e01b81526001600160a01b0385169063f23a6e6190611cb09089908990889088908890600401612f0d565b602060405180830381600087803b158015611cca57600080fd5b505af1925050508015611cfa575060408051601f3d908101601f19168201909252611cf791810190612c3a565b60015b611d06576117de613315565b6001600160e01b0319811663f23a6e6160e01b146112285760405162461bcd60e51b81526004016106ef90612f9d565b61013054600090611d71908590611d5b90600160a01b900463ffffffff1660016131a2565b63ffffffff16856001600160401b0316856122df565b61013054611d8d90600160a01b900463ffffffff1660016131a2565b610130805463ffffffff60a01b1916600160a01b63ffffffff9384168102919091179182905590041690509392505050565b600082815260c9602090815260408083206001600160a01b038816845290915290205481811015611e025760405162461bcd60e51b81526004016106ef906130e7565b611e0c82826131e9565b600084815260c9602090815260408083206001600160a01b038a81168552925280832093909355861681529081208054849290611e4a90849061318a565b9091555060009050611e5a611722565b9050846001600160a01b0316866001600160a01b0316826001600160a01b03166000805160206133e18339815191528787604051611ea2929190918252602082015260400190565b60405180910390a4505050505050565b6000611ebd33610ec0565b15611ecf575060131936013560601c90565b503390565b90565b60606000611ee68360026131ca565b611ef190600261318a565b6001600160401b03811115611f1657634e487b7160e01b600052604160045260246000fd5b6040519080825280601f01601f191660200182016040528015611f40576020820181803683370190505b509050600360fc1b81600081518110611f6957634e487b7160e01b600052603260045260246000fd5b60200101906001600160f81b031916908160001a905350600f60fb1b81600181518110611fa657634e487b7160e01b600052603260045260246000fd5b60200101906001600160f81b031916908160001a9053506000611fca8460026131ca565b611fd590600161318a565b90505b6001811115612069576f181899199a1a9b1b9c1cb0b131b232b360811b85600f166010811061201757634e487b7160e01b600052603260045260246000fd5b1a60f81b82828151811061203b57634e487b7160e01b600052603260045260246000fd5b60200101906001600160f81b031916908160001a90535060049490941c936120628161322c565b9050611fd8565b5083156115ef5760405162461bcd60e51b815260206004820181905260248201527f537472696e67733a20686578206c656e67746820696e73756666696369656e7460448201526064016106ef565b600080516020613401833981519152546001600160a01b031690565b803b6121385760405162461bcd60e51b815260206004820152602d60248201527f455243313936373a206e657720696d706c656d656e746174696f6e206973206e60448201526c1bdd08184818dbdb9d1c9858dd609a1b60648201526084016106ef565b60008051602061340183398151915280546001600160a01b0319166001600160a01b0392909216919091179055565b6060823b6121c65760405162461bcd60e51b815260206004820152602660248201527f416464726573733a2064656c65676174652063616c6c20746f206e6f6e2d636f6044820152651b9d1c9858dd60d21b60648201526084016106ef565b600080846001600160a01b0316846040516121e19190612e10565b600060405180830381855af49150503d806000811461221c576040519150601f19603f3d011682016040523d82523d6000602084013e612221565b606091505b50915091506122498282604051806060016040528060278152602001613421602791396123db565b95945050505050565b600054610100900460ff168061226b575060005460ff16155b6122875760405162461bcd60e51b81526004016106ef90613099565b600054610100900460ff161580156122a9576000805461ffff19166101011790555b6122b1612414565b6122b9612414565b6122c28261247f565b8015610d22576000805461ff00191690555050565b611c076124df565b6001600160a01b03841661233f5760405162461bcd60e51b815260206004820152602160248201527f455243313135353a206d696e7420746f20746865207a65726f206164647265736044820152607360f81b60648201526084016106ef565b6000612349611722565b905061235b816000876114b988611c13565b600084815260c9602090815260408083206001600160a01b03891684529091528120805485929061238d90849061318a565b909155505060408051858152602081018590526001600160a01b0380881692600092918516916000805160206133e1833981519152910160405180910390a46114c281600087878787611c6c565b606083156123ea5750816115ef565b8251156123fa5782518084602001fd5b8160405162461bcd60e51b81526004016106ef9190612f8a565b600054610100900460ff168061242d575060005460ff16155b6124495760405162461bcd60e51b81526004016106ef90613099565b600054610100900460ff1615801561246b576000805461ffff19166101011790555b801561078f576000805461ff001916905550565b600054610100900460ff1680612498575060005460ff16155b6124b45760405162461bcd60e51b81526004016106ef90613099565b600054610100900460ff161580156124d6576000805461ffff19166101011790555b6122c282611731565b6124e76124fa565b6124ef612561565b611c07600033611c09565b600054610100900460ff1680612513575060005460ff16155b61252f5760405162461bcd60e51b81526004016106ef90613099565b600054610100900460ff16158015612551576000805461ffff19166101011790555b612559612414565b61246b612414565b600054610100900460ff168061257a575060005460ff16155b6125965760405162461bcd60e51b81526004016106ef90613099565b600054610100900460ff161580156125b8576000805461ffff19166101011790555b612551612414565b8280546125cc90613243565b90600052602060002090601f0160209004810192826125ee5760008555612634565b82601f1061260757805160ff1916838001178555612634565b82800160010185558215612634579182015b82811115612634578251825591602001919060010190612619565b50612640929150612644565b5090565b5b808211156126405760008155600101612645565b8035612664816133b5565b919050565b600082601f830112612679578081fd5b8135602061268682613167565b604051612693828261327e565b8381528281019150858301600585901b870184018810156126b2578586fd5b855b858110156126d0578135845292840192908401906001016126b4565b5090979650505050505050565b600082601f8301126126ed578081fd5b81356001600160401b03811115612706576127066132ff565b60405161271d601f8301601f19166020018261327e565b818152846020838601011115612731578283fd5b816020850160208301379081016020019190915292915050565b60006020828403121561275c578081fd5b81356115ef816133b5565b60008060408385031215612779578081fd5b8235612784816133b5565b91506020830135612794816133b5565b809150509250929050565b600080600080600060a086880312156127b6578081fd5b85356127c1816133b5565b945060208601356127d1816133b5565b935060408601356001600160401b03808211156127ec578283fd5b6127f889838a01612669565b9450606088013591508082111561280d578283fd5b61281989838a01612669565b9350608088013591508082111561282e578283fd5b5061283b888289016126dd565b9150509295509295909350565b600080600080600080600060e0888a031215612862578182fd5b873561286d816133b5565b9650602088013561287d816133b5565b955060408801356001600160401b0380821115612898578384fd5b6128a48b838c016126dd565b965060608a01359150808211156128b9578384fd5b6128c58b838c016126dd565b955060808a01359150808211156128da578384fd5b506128e78a828b016126dd565b9350506128f660a08901612659565b915061290460c08901612659565b905092959891949750929550565b60008060008060808587031215612927578182fd5b8435612932816133b5565b93506020850135612942816133b5565b93969395505050506040820135916060013590565b600080600080600060a0868803121561296e578283fd5b8535612979816133b5565b94506020860135612989816133b5565b9350604086013592506060860135915060808601356001600160401b038111156129b1578182fd5b61283b888289016126dd565b600080604083850312156129cf578182fd5b82356129da816133b5565b915060208301358015158114612794578182fd5b60008060408385031215612a00578182fd5b8235612a0b816133b5565b915060208301356001600160401b03811115612a25578182fd5b612a31858286016126dd565b9150509250929050565b60008060408385031215612a4d578182fd5b8235612a58816133b5565b946020939093013593505050565b60008060008060008060c08789031215612a7e578384fd5b8635612a89816133b5565b955060208701359450604087013593506060870135612aa7816133b5565b9598949750929560808101359460a0909101359350915050565b60008060008060008060c08789031215612ad9578384fd5b8651612ae4816133b5565b8096505060208701519450604087015193506060870151612b04816133b5565b809350506080870151915060a087015190509295509295509295565b60008060408385031215612b32578182fd5b82356001600160401b0380821115612b48578384fd5b818501915085601f830112612b5b578384fd5b81356020612b6882613167565b604051612b75828261327e565b8381528281019150858301600585901b870184018b1015612b94578889fd5b8896505b84871015612bbf578035612bab816133b5565b835260019690960195918301918301612b98565b5096505086013592505080821115612bd5578283fd5b50612a3185828601612669565b600060208284031215612bf3578081fd5b5035919050565b60008060408385031215612c0c578182fd5b823591506020830135612794816133b5565b600060208284031215612c2f578081fd5b81356115ef816133ca565b600060208284031215612c4b578081fd5b81516115ef816133ca565b600060208284031215612c67578081fd5b81356001600160401b03811115612c7c578182fd5b612c88848285016126dd565b949350505050565b600080600060408486031215612ca4578081fd5b8335925060208401356001600160401b0380821115612cc1578283fd5b818601915086601f830112612cd4578283fd5b813581811115612ce2578384fd5b876020828501011115612cf3578384fd5b6020830194508093505050509250925092565b60008060008060808587031215612d1b578182fd5b505082516020840151604085015160609095015191969095509092509050565b600060208284031215612d4c578081fd5b813563ffffffff811681146115ef578182fd5b60008060408385031215612d71578182fd5b82356001600160401b038082168214612d88578384fd5b90925060208401359080821115612d9d578283fd5b50612a31858286016126dd565b6000815180845260208085019450808401835b83811015612dd957815187529582019590820190600101612dbd565b509495945050505050565b60008151808452612dfc816020860160208601613200565b601f01601f19169290920160200192915050565b60008251612e22818460208701613200565b9190910192915050565b76020b1b1b2b9b9a1b7b73a3937b61d1030b1b1b7bab73a1604d1b815260008351612e5e816017850160208801613200565b7001034b99036b4b9b9b4b733903937b6329607d1b6017918401918201528351612e8f816028840160208801613200565b01602801949350505050565b6001600160a01b0391909116815260200190565b6001600160a01b0386811682528516602082015260a060408201819052600090612edb90830186612daa565b8281036060840152612eed8186612daa565b90508281036080840152612f018185612de4565b98975050505050505050565b6001600160a01b03868116825285166020820152604081018490526060810183905260a060808201819052600090612f4790830184612de4565b979650505050505050565b6020815260006115ef6020830184612daa565b604081526000612f786040830185612daa565b82810360208401526122498185612daa565b6020815260006115ef6020830184612de4565b60208082526028908201527f455243313135353a204552433131353552656365697665722072656a656374656040820152676420746f6b656e7360c01b606082015260800190565b60208082526029908201527f455243313135353a2063616c6c6572206973206e6f74206f776e6572206e6f7260408201526808185c1c1c9bdd995960ba1b606082015260800190565b6020808252600c908201526b37b7363c9036b0b730b3b2b960a11b604082015260600190565b60208082526025908201527f455243313135353a207472616e7366657220746f20746865207a65726f206164604082015264647265737360d81b606082015260800190565b6020808252602e908201527f496e697469616c697a61626c653a20636f6e747261637420697320616c72656160408201526d191e481a5b9a5d1a585b1a5e995960921b606082015260800190565b6020808252602a908201527f455243313135353a20696e73756666696369656e742062616c616e636520666f60408201526939103a3930b739b332b960b11b606082015260800190565b83815260406020820152816040820152818360608301376000818301606090810191909152601f909201601f1916010192915050565b60006001600160401b03821115613180576131806132ff565b5060051b60200190565b6000821982111561319d5761319d6132e9565b500190565b600063ffffffff8083168185168083038211156131c1576131c16132e9565b01949350505050565b60008160001904831182151516156131e4576131e46132e9565b500290565b6000828210156131fb576131fb6132e9565b500390565b60005b8381101561321b578181015183820152602001613203565b838111156116a75750506000910152565b60008161323b5761323b6132e9565b506000190190565b600181811c9082168061325757607f821691505b6020821081141561327857634e487b7160e01b600052602260045260246000fd5b50919050565b601f8201601f191681016001600160401b03811182821017156132a3576132a36132ff565b6040525050565b60006000198214156132be576132be6132e9565b5060010190565b600063ffffffff808316818114156132df576132df6132e9565b6001019392505050565b634e487b7160e01b600052601160045260246000fd5b634e487b7160e01b600052604160045260246000fd5b600060033d1115611ed457600481823e5160e01c90565b600060443d101561333a5790565b6040516003193d81016004833e81513d6001600160401b03808311602484018310171561336957505050505090565b82850191508151818111156133815750505050505090565b843d870101602082850101111561339b5750505050505090565b6133aa6020828601018761327e565b509095945050505050565b6001600160a01b038116811461078f57600080fd5b6001600160e01b03198116811461078f57600080fdfec3d58168c5ae7397731d063d5bbf3d657854427343f4c083240f7aacaa2d0f62360894a13ba1a3210667c828492db98dca3e2076cc3735a920a3ca505d382bbc416464726573733a206c6f772d6c6576656c2064656c65676174652063616c6c206661696c6564592c958fd52390f51665f668ae132c07938e885cabed2dc56aba7c2b264880953d2e894c222ba979e2dce2c7d940c0e9bb14306669e9f034eb1bb3979a2069d868747470733a2f2f6170692e66726565706f72742e636572652e6e6574776f726b2f657263313135352f7b69647d2e6a736f6ea2646970667358221220983ed12c399b0d52fbd5c55ca168437c518a43db6d09d5445cbcca3f7474e1a164736f6c63430008040033e926d122b799dcbe5c2eccdf60ae0aefbb1a4bc75a7848bb07befecf8c775f5c360894a13ba1a3210667c828492db98dca3e2076cc3735a920a3ca505d382bbc416464726573733a206c6f772d6c6576656c2064656c65676174652063616c6c206661696c65643d2e894c222ba979e2dce2c7d940c0e9bb14306669e9f034eb1bb3979a2069d8a2646970667358221220332c074fde109c9b09b617ad850f1cec9bb509eb0a143ca3114f15fe79090e5d64736f6c63430008040033",
  "immutableReferences": {},
  "source": "pragma solidity ^0.8.0;\n\nimport \"./freeportParts/MetaTxContext.sol\";\nimport \"./Collection.sol\";\n\n/** This is a contract for creating standalone contracts (collections) for users.\n *\n */\ncontract CollectionFactory is MetaTxContext  {\n    function initialize(Freeport _freeport, NFTAttachment _nftAttachment) public initializer {\n        __MetaTxContext_init();\n\n        freeport = _freeport;\n        nftAttachment = _nftAttachment;\n    }\n\n    // Standalone user collections mapped to its names.\n    mapping(string => address) nameToCollection;\n\n    // The address of Freeport contract.\n    Freeport public freeport;\n    // The address of NFTAttachment contract.\n    NFTAttachment public nftAttachment;\n\n    // Collection id to address.\n    mapping(uint256 => address) private addressProxies;\n    uint256 private collectionCounter;\n\n    /** Collection creator role.\n     *  Used for configuring the amounts and beneficiaries of royalties on primary and secondary transfers of this NFT.\n     */\n    bytes32 public constant COLLECTION_CREATOR_ROLE = keccak256(\"COLLECTION_CREATOR_ROLE\");\n\n    /** An event emitted when new collection is created.\n     *\n     * Contains unique name of collection and its address.\n     */\n    event CollectionCreated(string name, address indexed addr);\n\n    /** Deploying a new user collection.\n     *\n     *  Emits a {CollectionCreated} event.\n     */\n    function createCollection(address creator, string memory name, string memory uriTpl, string memory contractURI) public returns (address) {\n        require(hasRole(COLLECTION_CREATOR_ROLE, _msgSender()), \"only collection creator\");\n        require(creator != address(0), \"zero address creator\");\n        require(nameToCollection[name] == address(0), \"collection name already exists\");\n\n        Collection collection = new Collection();\n        collection.initialize(address(this), creator, name, uriTpl, contractURI, freeport, nftAttachment);\n\n        addressProxies[collectionCounter] = address(collection);\n        collectionCounter = collectionCounter + 1;\n\n        nameToCollection[name] = address(collection);\n\n        emit CollectionCreated(name, address(collection));\n        return address(collection);\n    }\n}\n",
  "sourcePath": "/Users/neanvo/WorkFlow/cere/Freeport-Smart-Contracts/contracts/CollectionFactory.sol",
  "compiler": {
    "name": "solc",
    "version": "0.8.4+commit.c7e474f2.Emscripten.clang"
  },
  "schemaVersion": "3.4.4",
  "updatedAt": "2022-07-11T17:10:32.529Z",
  "networkType": "ethereum",
  "devdoc": {
    "kind": "dev",
    "methods": {
      "getRoleAdmin(bytes32)": {
        "details": "Returns the admin role that controls `role`. See {grantRole} and {revokeRole}. To change a role's admin, use {_setRoleAdmin}."
      },
      "grantRole(bytes32,address)": {
        "details": "Grants `role` to `account`. If `account` had not been already granted `role`, emits a {RoleGranted} event. Requirements: - the caller must have ``role``'s admin role."
      },
      "hasRole(bytes32,address)": {
        "details": "Returns `true` if `account` has been granted `role`."
      },
      "renounceRole(bytes32,address)": {
        "details": "Revokes `role` from the calling account. Roles are often managed via {grantRole} and {revokeRole}: this function's purpose is to provide a mechanism for accounts to lose their privileges if they are compromised (such as when a trusted device is misplaced). If the calling account had been granted `role`, emits a {RoleRevoked} event. Requirements: - the caller must be `account`."
      },
      "revokeRole(bytes32,address)": {
        "details": "Revokes `role` from `account`. If `account` had been granted `role`, emits a {RoleRevoked} event. Requirements: - the caller must have ``role``'s admin role."
      },
      "supportsInterface(bytes4)": {
        "details": "See {IERC165-supportsInterface}."
      }
    },
    "version": 1
  },
  "userdoc": {
    "events": {
      "CollectionCreated(string,address)": {
        "notice": "An event emitted when new collection is created. Contains unique name of collection and its address."
      }
    },
    "kind": "user",
    "methods": {
      "COLLECTION_CREATOR_ROLE()": {
        "notice": "Collection creator role.  Used for configuring the amounts and beneficiaries of royalties on primary and secondary transfers of this NFT."
      },
      "createCollection(address,string,string,string)": {
        "notice": "Deploying a new user collection.  Emits a {CollectionCreated} event."
      }
    },
    "notice": "This is a contract for creating standalone contracts (collections) for users.",
    "version": 1
  }
}