{
  "contractName": "ERC20Adapter",
  "abi": [
    {
      "inputs": [
        {
          "internalType": "address",
          "name": "contractAddress",
          "type": "address"
        }
      ],
      "stateMutability": "nonpayable",
      "type": "constructor"
    },
    {
      "anonymous": false,
      "inputs": [
        {
          "indexed": true,
          "internalType": "address",
          "name": "account",
          "type": "address"
        },
        {
          "indexed": true,
          "internalType": "address",
          "name": "operator",
          "type": "address"
        },
        {
          "indexed": false,
          "internalType": "bool",
          "name": "approved",
          "type": "bool"
        }
      ],
      "name": "ApprovalForAll",
      "type": "event"
    },
    {
      "anonymous": false,
      "inputs": [
        {
          "indexed": true,
          "internalType": "bytes32",
          "name": "role",
          "type": "bytes32"
        },
        {
          "indexed": true,
          "internalType": "bytes32",
          "name": "previousAdminRole",
          "type": "bytes32"
        },
        {
          "indexed": true,
          "internalType": "bytes32",
          "name": "newAdminRole",
          "type": "bytes32"
        }
      ],
      "name": "RoleAdminChanged",
      "type": "event"
    },
    {
      "anonymous": false,
      "inputs": [
        {
          "indexed": true,
          "internalType": "bytes32",
          "name": "role",
          "type": "bytes32"
        },
        {
          "indexed": true,
          "internalType": "address",
          "name": "account",
          "type": "address"
        },
        {
          "indexed": true,
          "internalType": "address",
          "name": "sender",
          "type": "address"
        }
      ],
      "name": "RoleGranted",
      "type": "event"
    },
    {
      "anonymous": false,
      "inputs": [
        {
          "indexed": true,
          "internalType": "bytes32",
          "name": "role",
          "type": "bytes32"
        },
        {
          "indexed": true,
          "internalType": "address",
          "name": "account",
          "type": "address"
        },
        {
          "indexed": true,
          "internalType": "address",
          "name": "sender",
          "type": "address"
        }
      ],
      "name": "RoleRevoked",
      "type": "event"
    },
    {
      "anonymous": false,
      "inputs": [
        {
          "indexed": true,
          "internalType": "address",
          "name": "from",
          "type": "address"
        },
        {
          "indexed": true,
          "internalType": "address",
          "name": "to",
          "type": "address"
        },
        {
          "indexed": false,
          "internalType": "uint256",
          "name": "value",
          "type": "uint256"
        }
      ],
      "name": "Transfer",
      "type": "event"
    },
    {
      "anonymous": false,
      "inputs": [
        {
          "indexed": true,
          "internalType": "address",
          "name": "operator",
          "type": "address"
        },
        {
          "indexed": true,
          "internalType": "address",
          "name": "from",
          "type": "address"
        },
        {
          "indexed": true,
          "internalType": "address",
          "name": "to",
          "type": "address"
        },
        {
          "indexed": false,
          "internalType": "uint256[]",
          "name": "ids",
          "type": "uint256[]"
        },
        {
          "indexed": false,
          "internalType": "uint256[]",
          "name": "values",
          "type": "uint256[]"
        }
      ],
      "name": "TransferBatch",
      "type": "event"
    },
    {
      "anonymous": false,
      "inputs": [
        {
          "indexed": true,
          "internalType": "address",
          "name": "operator",
          "type": "address"
        },
        {
          "indexed": true,
          "internalType": "address",
          "name": "from",
          "type": "address"
        },
        {
          "indexed": true,
          "internalType": "address",
          "name": "to",
          "type": "address"
        },
        {
          "indexed": false,
          "internalType": "uint256",
          "name": "id",
          "type": "uint256"
        },
        {
          "indexed": false,
          "internalType": "uint256",
          "name": "value",
          "type": "uint256"
        }
      ],
      "name": "TransferSingle",
      "type": "event"
    },
    {
      "anonymous": false,
      "inputs": [
        {
          "indexed": false,
          "internalType": "string",
          "name": "value",
          "type": "string"
        },
        {
          "indexed": true,
          "internalType": "uint256",
          "name": "id",
          "type": "uint256"
        }
      ],
      "name": "URI",
      "type": "event"
    },
    {
      "inputs": [],
      "name": "CURRENCY",
      "outputs": [
        {
          "internalType": "uint256",
          "name": "",
          "type": "uint256"
        }
      ],
      "stateMutability": "view",
      "type": "function",
      "constant": true
    },
    {
      "inputs": [],
      "name": "CURRENCY_SUPPLY",
      "outputs": [
        {
          "internalType": "uint256",
          "name": "",
          "type": "uint256"
        }
      ],
      "stateMutability": "view",
      "type": "function",
      "constant": true
    },
    {
      "inputs": [],
      "name": "DEFAULT_ADMIN_ROLE",
      "outputs": [
        {
          "internalType": "bytes32",
          "name": "",
          "type": "bytes32"
        }
      ],
      "stateMutability": "view",
      "type": "function",
      "constant": true
    },
    {
      "inputs": [],
      "name": "META_TX_FORWARDER",
      "outputs": [
        {
          "internalType": "bytes32",
          "name": "",
          "type": "bytes32"
        }
      ],
      "stateMutability": "view",
      "type": "function",
      "constant": true
    },
    {
      "inputs": [],
      "name": "TRANSFER_OPERATOR",
      "outputs": [
        {
          "internalType": "bytes32",
          "name": "",
          "type": "bytes32"
        }
      ],
      "stateMutability": "view",
      "type": "function",
      "constant": true
    },
    {
      "inputs": [
        {
          "internalType": "address",
          "name": "account",
          "type": "address"
        },
        {
          "internalType": "uint256",
          "name": "id",
          "type": "uint256"
        }
      ],
      "name": "balanceOf",
      "outputs": [
        {
          "internalType": "uint256",
          "name": "",
          "type": "uint256"
        }
      ],
      "stateMutability": "view",
      "type": "function",
      "constant": true
    },
    {
      "inputs": [
        {
          "internalType": "address[]",
          "name": "accounts",
          "type": "address[]"
        },
        {
          "internalType": "uint256[]",
          "name": "ids",
          "type": "uint256[]"
        }
      ],
      "name": "balanceOfBatch",
      "outputs": [
        {
          "internalType": "uint256[]",
          "name": "",
          "type": "uint256[]"
        }
      ],
      "stateMutability": "view",
      "type": "function",
      "constant": true
    },
    {
      "inputs": [
        {
          "internalType": "bytes32",
          "name": "role",
          "type": "bytes32"
        }
      ],
      "name": "getRoleAdmin",
      "outputs": [
        {
          "internalType": "bytes32",
          "name": "",
          "type": "bytes32"
        }
      ],
      "stateMutability": "view",
      "type": "function",
      "constant": true
    },
    {
      "inputs": [
        {
          "internalType": "bytes32",
          "name": "role",
          "type": "bytes32"
        },
        {
          "internalType": "address",
          "name": "account",
          "type": "address"
        }
      ],
      "name": "grantRole",
      "outputs": [],
      "stateMutability": "nonpayable",
      "type": "function"
    },
    {
      "inputs": [
        {
          "internalType": "bytes32",
          "name": "role",
          "type": "bytes32"
        },
        {
          "internalType": "address",
          "name": "account",
          "type": "address"
        }
      ],
      "name": "hasRole",
      "outputs": [
        {
          "internalType": "bool",
          "name": "",
          "type": "bool"
        }
      ],
      "stateMutability": "view",
      "type": "function",
      "constant": true
    },
    {
      "inputs": [
        {
          "internalType": "address",
          "name": "account",
          "type": "address"
        },
        {
          "internalType": "address",
          "name": "operator",
          "type": "address"
        }
      ],
      "name": "isApprovedForAll",
      "outputs": [
        {
          "internalType": "bool",
          "name": "",
          "type": "bool"
        }
      ],
      "stateMutability": "view",
      "type": "function",
      "constant": true
    },
    {
      "inputs": [
        {
          "internalType": "address",
          "name": "forwarder",
          "type": "address"
        }
      ],
      "name": "isTrustedForwarder",
      "outputs": [
        {
          "internalType": "bool",
          "name": "",
          "type": "bool"
        }
      ],
      "stateMutability": "view",
      "type": "function",
      "constant": true
    },
    {
      "inputs": [
        {
          "internalType": "bytes32",
          "name": "role",
          "type": "bytes32"
        },
        {
          "internalType": "address",
          "name": "account",
          "type": "address"
        }
      ],
      "name": "renounceRole",
      "outputs": [],
      "stateMutability": "nonpayable",
      "type": "function"
    },
    {
      "inputs": [
        {
          "internalType": "bytes32",
          "name": "role",
          "type": "bytes32"
        },
        {
          "internalType": "address",
          "name": "account",
          "type": "address"
        }
      ],
      "name": "revokeRole",
      "outputs": [],
      "stateMutability": "nonpayable",
      "type": "function"
    },
    {
      "inputs": [
        {
          "internalType": "address",
          "name": "from",
          "type": "address"
        },
        {
          "internalType": "address",
          "name": "to",
          "type": "address"
        },
        {
          "internalType": "uint256[]",
          "name": "ids",
          "type": "uint256[]"
        },
        {
          "internalType": "uint256[]",
          "name": "amounts",
          "type": "uint256[]"
        },
        {
          "internalType": "bytes",
          "name": "data",
          "type": "bytes"
        }
      ],
      "name": "safeBatchTransferFrom",
      "outputs": [],
      "stateMutability": "nonpayable",
      "type": "function"
    },
    {
      "inputs": [
        {
          "internalType": "address",
          "name": "from",
          "type": "address"
        },
        {
          "internalType": "address",
          "name": "to",
          "type": "address"
        },
        {
          "internalType": "uint256",
          "name": "id",
          "type": "uint256"
        },
        {
          "internalType": "uint256",
          "name": "amount",
          "type": "uint256"
        },
        {
          "internalType": "bytes",
          "name": "data",
          "type": "bytes"
        }
      ],
      "name": "safeTransferFrom",
      "outputs": [],
      "stateMutability": "nonpayable",
      "type": "function"
    },
    {
      "inputs": [
        {
          "internalType": "address",
          "name": "operator",
          "type": "address"
        },
        {
          "internalType": "bool",
          "name": "approved",
          "type": "bool"
        }
      ],
      "name": "setApprovalForAll",
      "outputs": [],
      "stateMutability": "nonpayable",
      "type": "function"
    },
    {
      "inputs": [
        {
          "internalType": "bytes4",
          "name": "interfaceId",
          "type": "bytes4"
        }
      ],
      "name": "supportsInterface",
      "outputs": [
        {
          "internalType": "bool",
          "name": "",
          "type": "bool"
        }
      ],
      "stateMutability": "view",
      "type": "function",
      "constant": true
    },
    {
      "inputs": [],
      "name": "tokenContract",
      "outputs": [
        {
          "internalType": "contract IERC20",
          "name": "",
          "type": "address"
        }
      ],
      "stateMutability": "view",
      "type": "function",
      "constant": true
    },
    {
      "inputs": [
        {
          "internalType": "uint256",
          "name": "",
          "type": "uint256"
        }
      ],
      "name": "uri",
      "outputs": [
        {
          "internalType": "string",
          "name": "",
          "type": "string"
        }
      ],
      "stateMutability": "view",
      "type": "function",
      "constant": true
    },
    {
      "inputs": [
        {
          "internalType": "uint256",
          "name": "amount",
          "type": "uint256"
        }
      ],
      "name": "depositERC20",
      "outputs": [],
      "stateMutability": "nonpayable",
      "type": "function"
    },
    {
      "inputs": [
        {
          "internalType": "uint256",
          "name": "amount",
          "type": "uint256"
        }
      ],
      "name": "withdrawERC20",
      "outputs": [],
      "stateMutability": "nonpayable",
      "type": "function"
    }
  ],
  "bytecode": "0x60a06040523480156200001157600080fd5b506040516200250538038062002505833981016040819052620000349162000291565b604051806060016040528060228152602001620024e360229139620000598162000086565b506200007060006200006a6200009f565b620000bb565b60601b6001600160601b031916608052620002fe565b80516200009b906002906020840190620001eb565b5050565b6000620000b6620000c760201b62000f1b1760201c565b905090565b6200009b8282620000fc565b6000620000d43362000188565b15620000e7575060131936013560601c90565b620000b6620001bc60201b62000f451760201c565b620001088282620001c0565b6200009b5760008281526003602090815260408083206001600160a01b03851684529091529020805460ff19166001179055620001446200009f565b6001600160a01b0316816001600160a01b0316837f2f8788117e7eff1d82e926ec794901d17c78024a50270940304540a733656f0d60405160405180910390a45050565b6000620001b67f3d2e894c222ba979e2dce2c7d940c0e9bb14306669e9f034eb1bb3979a2069d883620001c0565b92915050565b3390565b60009182526003602090815260408084206001600160a01b0393909316845291905290205460ff1690565b828054620001f990620002c1565b90600052602060002090601f0160209004810192826200021d576000855562000268565b82601f106200023857805160ff191683800117855562000268565b8280016001018555821562000268579182015b82811115620002685782518255916020019190600101906200024b565b50620002769291506200027a565b5090565b5b808211156200027657600081556001016200027b565b600060208284031215620002a3578081fd5b81516001600160a01b0381168114620002ba578182fd5b9392505050565b600181811c90821680620002d657607f821691505b60208210811415620002f857634e487b7160e01b600052602260045260246000fd5b50919050565b60805160601c6121aa62000339600039600081816101f201528181610aed01528181610b8a01528181610c380152610cc101526121aa6000f3fe608060405234801561001057600080fd5b50600436106101115760003560e01c8062fdd58e1461011657806301ffc9a71461013c5780630e89341c1461015f578063248a9ca31461017f5780632eb2c2d6146101925780632f2ff15d146101a757806336568abe146101ba5780634e1273f4146101cd57806355a373d6146101ed578063572b6c051461022c57806360e3ecd01461023f57806391d14854146102545780639a86e8ce14610267578063a217fddf1461027c578063a22cb46514610284578063b79092fd14610297578063d547741f146102aa578063d78276c6146102bd578063dae2c77d146102d0578063e985e9c5146102e0578063f242432a146102f3578063f53612191461027c575b600080fd5b610129610124366004611aa3565b610306565b6040519081526020015b60405180910390f35b61014f61014a366004611bec565b6103a0565b6040519015158152602001610133565b61017261016d366004611bb2565b6103ba565b6040516101339190611ddd565b61012961018d366004611bb2565b61044e565b6101a56101a0366004611966565b610463565b005b6101a56101b5366004611bca565b610747565b6101a56101c8366004611bca565b610770565b6101e06101db366004611acc565b6107fe565b6040516101339190611d9c565b6102147f000000000000000000000000000000000000000000000000000000000000000081565b6040516001600160a01b039091168152602001610133565b61014f61023a36600461191a565b61095f565b61012960008051602061215583398151915281565b61014f610262366004611bca565b610975565b61012960008051602061213583398151915281565b610129600081565b6101a5610292366004611a6d565b6109a0565b6101a56102a5366004611bb2565b610ab4565b6101a56102b8366004611bca565b610bdb565b6101a56102cb366004611bb2565b610bfa565b61012968056bc75e2d6310000081565b61014f6102ee366004611934565b610d08565b6101a5610301366004611a0b565b610d60565b60006001600160a01b0383166103775760405162461bcd60e51b815260206004820152602b60248201527f455243313135353a2062616c616e636520717565727920666f7220746865207a60448201526a65726f206164647265737360a81b60648201526084015b60405180910390fd5b506000818152602081815260408083206001600160a01b03861684529091529020545b92915050565b60006103ab82610f49565b8061039a575061039a82610f99565b6060600280546103c990611f7f565b80601f01602080910402602001604051908101604052809291908181526020018280546103f590611f7f565b80156104425780601f1061041757610100808354040283529160200191610442565b820191906000526020600020905b81548152906001019060200180831161042557829003601f168201915b50505050509050919050565b60009081526003602052604090206001015490565b81518351146104c55760405162461bcd60e51b815260206004820152602860248201527f455243313135353a2069647320616e6420616d6f756e7473206c656e677468206044820152670dad2e6dac2e8c6d60c31b606482015260840161036e565b6001600160a01b0384166104eb5760405162461bcd60e51b815260040161036e90611e38565b6104f3610fbe565b6001600160a01b0316856001600160a01b031614806105195750610519856102ee610fbe565b6105805760405162461bcd60e51b815260206004820152603260248201527f455243313135353a207472616e736665722063616c6c6572206973206e6f74206044820152711bdddb995c881b9bdc88185c1c1c9bdd995960721b606482015260840161036e565b600061058a610fbe565b905060005b84518110156106d95760008582815181106105ba57634e487b7160e01b600052603260045260246000fd5b6020026020010151905060008583815181106105e657634e487b7160e01b600052603260045260246000fd5b602090810291909101810151600084815280835260408082206001600160a01b038e1683529093529190912054909150818110156106365760405162461bcd60e51b815260040161036e90611e7d565b6106408282611f21565b60008085815260200190815260200160002060008c6001600160a01b03166001600160a01b03168152602001908152602001600020819055508160008085815260200190815260200160002060008b6001600160a01b03166001600160a01b0316815260200190815260200160002060008282546106be9190611eea565b92505081905550505050806106d290611fe6565b905061058f565b50846001600160a01b0316866001600160a01b0316826001600160a01b03167f4a39dc06d4c0dbc64b70af90fd698a233a518aa5d07e595d983b8c0526c8f7fb8787604051610729929190611daf565b60405180910390a461073f818787878787610fc8565b505050505050565b6107508261044e565b6107618161075c610fbe565b611133565b61076b8383611197565b505050565b610778610fbe565b6001600160a01b0316816001600160a01b0316146107f05760405162461bcd60e51b815260206004820152602f60248201527f416363657373436f6e74726f6c3a2063616e206f6e6c792072656e6f756e636560448201526e103937b632b9903337b91039b2b63360891b606482015260840161036e565b6107fa828261121e565b5050565b606081518351146108635760405162461bcd60e51b815260206004820152602960248201527f455243313135353a206163636f756e747320616e6420696473206c656e677468604482015268040dad2e6dac2e8c6d60bb1b606482015260840161036e565b600083516001600160401b0381111561088c57634e487b7160e01b600052604160045260246000fd5b6040519080825280602002602001820160405280156108b5578160200160208202803683370190505b50905060005b84518110156109575761091c8582815181106108e757634e487b7160e01b600052603260045260246000fd5b602002602001015185838151811061090f57634e487b7160e01b600052603260045260246000fd5b6020026020010151610306565b82828151811061093c57634e487b7160e01b600052603260045260246000fd5b602090810291909101015261095081611fe6565b90506108bb565b509392505050565b600061039a600080516020612135833981519152835b60009182526003602090815260408084206001600160a01b0393909316845291905290205460ff1690565b816001600160a01b03166109b2610fbe565b6001600160a01b03161415610a1b5760405162461bcd60e51b815260206004820152602960248201527f455243313135353a2073657474696e6720617070726f76616c20737461747573604482015268103337b91039b2b63360b91b606482015260840161036e565b8060016000610a28610fbe565b6001600160a01b03908116825260208083019390935260409182016000908120918716808252919093529120805460ff191692151592909217909155610a6c610fbe565b6001600160a01b03167f17307eab39ab6107e8899845ad3d59bd9653f200f220920489ca2b5937696c3183604051610aa8911515815260200190565b60405180910390a35050565b6000610abe610fbe565b6040516323b872dd60e01b81526001600160a01b038083166004830152306024830152604482018590529192507f0000000000000000000000000000000000000000000000000000000000000000909116906323b872dd90606401602060405180830381600087803b158015610b3357600080fd5b505af1158015610b47573d6000803e3d6000fd5b505050506040513d601f19601f82011682018060405250810190610b6b9190611b96565b50610b8881600084604051806020016040528060008152506112a3565b7f00000000000000000000000000000000000000000000000000000000000000006001600160a01b0316816001600160a01b031660008051602061211583398151915284604051610aa891815260200190565b610be48261044e565b610bf08161075c610fbe565b61076b838361121e565b6000610c04610fbe565b9050610c128160008461139d565b60405163a9059cbb60e01b81526001600160a01b038281166004830152602482018490527f0000000000000000000000000000000000000000000000000000000000000000169063a9059cbb90604401602060405180830381600087803b158015610c7c57600080fd5b505af1158015610c90573d6000803e3d6000fd5b505050506040513d601f19601f82011682018060405250810190610cb49190611b96565b50806001600160a01b03167f00000000000000000000000000000000000000000000000000000000000000006001600160a01b031660008051602061211583398151915284604051610aa891815260200190565b6000610d2260008051602061215583398151915283610975565b15610d2f5750600161039a565b6001600160a01b0380841660009081526001602090815260408083209386168352929052205460ff165b9392505050565b6001600160a01b038416610d865760405162461bcd60e51b815260040161036e90611e38565b610d8e610fbe565b6001600160a01b0316856001600160a01b03161480610db45750610db4856102ee610fbe565b610e125760405162461bcd60e51b815260206004820152602960248201527f455243313135353a2063616c6c6572206973206e6f74206f776e6572206e6f7260448201526808185c1c1c9bdd995960ba1b606482015260840161036e565b6000610e1c610fbe565b9050610e3d818787610e2d88611518565b610e3688611518565b5050505050565b6000848152602081815260408083206001600160a01b038a16845290915290205483811015610e7e5760405162461bcd60e51b815260040161036e90611e7d565b610e888482611f21565b6000868152602081815260408083206001600160a01b038c81168552925280832093909355881681529081208054869290610ec4908490611eea565b909155505060408051868152602081018690526001600160a01b03808916928a821692918616916000805160206120f5833981519152910160405180910390a4610f12828888888888611571565b50505050505050565b6000610f263361095f565b15610f38575060131936013560601c90565b503390565b905090565b90565b3390565b60006001600160e01b03198216636cdb3d1360e11b1480610f7a57506001600160e01b031982166303a24d0760e21b145b8061039a57506301ffc9a760e01b6001600160e01b031983161461039a565b60006001600160e01b03198216637965db0b60e01b148061039a575061039a82610f49565b6000610f3d610f1b565b6001600160a01b0384163b1561073f5760405163bc197c8160e01b81526001600160a01b0385169063bc197c819061100c9089908990889088908890600401611cf9565b602060405180830381600087803b15801561102657600080fd5b505af1925050508015611056575060408051601f3d908101601f1916820190925261105391810190611c08565b60015b6111035761106261202d565b806308c379a0141561109c5750611077612044565b80611082575061109e565b8060405162461bcd60e51b815260040161036e9190611ddd565b505b60405162461bcd60e51b815260206004820152603460248201527f455243313135353a207472616e7366657220746f206e6f6e20455243313135356044820152732932b1b2b4bb32b91034b6b83632b6b2b73a32b960611b606482015260840161036e565b6001600160e01b0319811663bc197c8160e01b14610f125760405162461bcd60e51b815260040161036e90611df0565b61113d8282610975565b6107fa57611155816001600160a01b0316601461163b565b61116083602061163b565b604051602001611171929190611c8a565b60408051601f198184030181529082905262461bcd60e51b825261036e91600401611ddd565b6111a18282610975565b6107fa5760008281526003602090815260408083206001600160a01b03851684529091529020805460ff191660011790556111da610fbe565b6001600160a01b0316816001600160a01b0316837f2f8788117e7eff1d82e926ec794901d17c78024a50270940304540a733656f0d60405160405180910390a45050565b6112288282610975565b156107fa5760008281526003602090815260408083206001600160a01b03851684529091529020805460ff1916905561125f610fbe565b6001600160a01b0316816001600160a01b0316837ff6391f5c32d9c69d2a47ea670b442974b53935d1edc7fd64eb21e047a839171b60405160405180910390a45050565b6001600160a01b0384166113035760405162461bcd60e51b815260206004820152602160248201527f455243313135353a206d696e7420746f20746865207a65726f206164647265736044820152607360f81b606482015260840161036e565b600061130d610fbe565b905061131f81600087610e2d88611518565b6000848152602081815260408083206001600160a01b03891684529091528120805485929061134f908490611eea565b909155505060408051858152602081018590526001600160a01b0380881692600092918516916000805160206120f5833981519152910160405180910390a4610e3681600087878787611571565b6001600160a01b0383166113ff5760405162461bcd60e51b815260206004820152602360248201527f455243313135353a206275726e2066726f6d20746865207a65726f206164647260448201526265737360e81b606482015260840161036e565b6000611409610fbe565b905061143a8185600061141b87611518565b61142487611518565b5050604080516020810190915260009052505050565b6000838152602081815260408083206001600160a01b0388168452909152902054828110156114b75760405162461bcd60e51b8152602060048201526024808201527f455243313135353a206275726e20616d6f756e7420657863656564732062616c604482015263616e636560e01b606482015260840161036e565b6114c18382611f21565b6000858152602081815260408083206001600160a01b038a811680865291845282852095909555815189815292830188905292938616916000805160206120f5833981519152910160405180910390a45050505050565b6040805160018082528183019092526060916000919060208083019080368337019050509050828160008151811061156057634e487b7160e01b600052603260045260246000fd5b602090810291909101015292915050565b6001600160a01b0384163b1561073f5760405163f23a6e6160e01b81526001600160a01b0385169063f23a6e61906115b59089908990889088908890600401611d57565b602060405180830381600087803b1580156115cf57600080fd5b505af19250505080156115ff575060408051601f3d908101601f191682019092526115fc91810190611c08565b60015b61160b5761106261202d565b6001600160e01b0319811663f23a6e6160e01b14610f125760405162461bcd60e51b815260040161036e90611df0565b6060600061164a836002611f02565b611655906002611eea565b6001600160401b0381111561167a57634e487b7160e01b600052604160045260246000fd5b6040519080825280601f01601f1916602001820160405280156116a4576020820181803683370190505b509050600360fc1b816000815181106116cd57634e487b7160e01b600052603260045260246000fd5b60200101906001600160f81b031916908160001a905350600f60fb1b8160018151811061170a57634e487b7160e01b600052603260045260246000fd5b60200101906001600160f81b031916908160001a905350600061172e846002611f02565b611739906001611eea565b90505b60018111156117cd576f181899199a1a9b1b9c1cb0b131b232b360811b85600f166010811061177b57634e487b7160e01b600052603260045260246000fd5b1a60f81b82828151811061179f57634e487b7160e01b600052603260045260246000fd5b60200101906001600160f81b031916908160001a90535060049490941c936117c681611f68565b905061173c565b508315610d595760405162461bcd60e51b815260206004820181905260248201527f537472696e67733a20686578206c656e67746820696e73756666696369656e74604482015260640161036e565b80356001600160a01b038116811461183357600080fd5b919050565b600082601f830112611848578081fd5b8135602061185582611ec7565b6040516118628282611fba565b8381528281019150858301600585901b87018401881015611881578586fd5b855b8581101561189f57813584529284019290840190600101611883565b5090979650505050505050565b600082601f8301126118bc578081fd5b81356001600160401b038111156118d5576118d5612017565b6040516118ec601f8301601f191660200182611fba565b818152846020838601011115611900578283fd5b816020850160208301379081016020019190915292915050565b60006020828403121561192b578081fd5b610d598261181c565b60008060408385031215611946578081fd5b61194f8361181c565b915061195d6020840161181c565b90509250929050565b600080600080600060a0868803121561197d578081fd5b6119868661181c565b94506119946020870161181c565b935060408601356001600160401b03808211156119af578283fd5b6119bb89838a01611838565b945060608801359150808211156119d0578283fd5b6119dc89838a01611838565b935060808801359150808211156119f1578283fd5b506119fe888289016118ac565b9150509295509295909350565b600080600080600060a08688031215611a22578081fd5b611a2b8661181c565b9450611a396020870161181c565b9350604086013592506060860135915060808601356001600160401b03811115611a61578182fd5b6119fe888289016118ac565b60008060408385031215611a7f578182fd5b611a888361181c565b91506020830135611a98816120cd565b809150509250929050565b60008060408385031215611ab5578182fd5b611abe8361181c565b946020939093013593505050565b60008060408385031215611ade578182fd5b82356001600160401b0380821115611af4578384fd5b818501915085601f830112611b07578384fd5b81356020611b1482611ec7565b604051611b218282611fba565b8381528281019150858301600585901b870184018b1015611b40578889fd5b8896505b84871015611b6957611b558161181c565b835260019690960195918301918301611b44565b5096505086013592505080821115611b7f578283fd5b50611b8c85828601611838565b9150509250929050565b600060208284031215611ba7578081fd5b8151610d59816120cd565b600060208284031215611bc3578081fd5b5035919050565b60008060408385031215611bdc578182fd5b8235915061195d6020840161181c565b600060208284031215611bfd578081fd5b8135610d59816120de565b600060208284031215611c19578081fd5b8151610d59816120de565b6000815180845260208085019450808401835b83811015611c5357815187529582019590820190600101611c37565b509495945050505050565b60008151808452611c76816020860160208601611f38565b601f01601f19169290920160200192915050565b76020b1b1b2b9b9a1b7b73a3937b61d1030b1b1b7bab73a1604d1b815260008351611cbc816017850160208801611f38565b7001034b99036b4b9b9b4b733903937b6329607d1b6017918401918201528351611ced816028840160208801611f38565b01602801949350505050565b6001600160a01b0386811682528516602082015260a060408201819052600090611d2590830186611c24565b8281036060840152611d378186611c24565b90508281036080840152611d4b8185611c5e565b98975050505050505050565b6001600160a01b03868116825285166020820152604081018490526060810183905260a060808201819052600090611d9190830184611c5e565b979650505050505050565b602081526000610d596020830184611c24565b604081526000611dc26040830185611c24565b8281036020840152611dd48185611c24565b95945050505050565b602081526000610d596020830184611c5e565b60208082526028908201527f455243313135353a204552433131353552656365697665722072656a656374656040820152676420746f6b656e7360c01b606082015260800190565b60208082526025908201527f455243313135353a207472616e7366657220746f20746865207a65726f206164604082015264647265737360d81b606082015260800190565b6020808252602a908201527f455243313135353a20696e73756666696369656e742062616c616e636520666f60408201526939103a3930b739b332b960b11b606082015260800190565b60006001600160401b03821115611ee057611ee0612017565b5060051b60200190565b60008219821115611efd57611efd612001565b500190565b6000816000190483118215151615611f1c57611f1c612001565b500290565b600082821015611f3357611f33612001565b500390565b60005b83811015611f53578181015183820152602001611f3b565b83811115611f62576000848401525b50505050565b600081611f7757611f77612001565b506000190190565b600181811c90821680611f9357607f821691505b60208210811415611fb457634e487b7160e01b600052602260045260246000fd5b50919050565b601f8201601f191681016001600160401b0381118282101715611fdf57611fdf612017565b6040525050565b6000600019821415611ffa57611ffa612001565b5060010190565b634e487b7160e01b600052601160045260246000fd5b634e487b7160e01b600052604160045260246000fd5b600060033d1115610f4257600481823e5160e01c90565b600060443d10156120525790565b6040516003193d81016004833e81513d6001600160401b03808311602484018310171561208157505050505090565b82850191508151818111156120995750505050505090565b843d87010160208285010111156120b35750505050505090565b6120c260208286010187611fba565b509095945050505050565b80151581146120db57600080fd5b50565b6001600160e01b0319811681146120db57600080fdfec3d58168c5ae7397731d063d5bbf3d657854427343f4c083240f7aacaa2d0f62ddf252ad1be2c89b69c2b068fc378daa952ba7f163c4a11628f55a4df523b3ef3d2e894c222ba979e2dce2c7d940c0e9bb14306669e9f034eb1bb3979a2069d8626f510646502d065065e8bd550325973a611a32e6f6ddff40650005cb136368a264697066735822122074ea517438944ec4d8de9fc221912137a57878975cd6a1386885b43e82f4829a64736f6c6343000804003368747470733a2f2f636572652e6e6574776f726b2f6e66742f7b69647d2e6a736f6e",
  "immutableReferences": {
    "668": [
      {
        "length": 32,
        "start": 498
      },
      {
        "length": 32,
        "start": 2797
      },
      {
        "length": 32,
        "start": 2954
      },
      {
        "length": 32,
        "start": 3128
      },
      {
        "length": 32,
        "start": 3265
      }
    ]
  },
  "source": "pragma solidity ^0.8.0;\n\nimport \"./TransferOperator.sol\";\nimport \"@openzeppelin/contracts/token/ERC20/IERC20.sol\";\n\n/**\n  Contract that enables user to make deposits in ERC-20 based tokens to system. \n  Deposit is converted into internal currency token. \n  Underneath Freeport contract track for user balance, execute deposit and withdrawls.  \n */\ncontract ERC20Adapter is TransferOperator {\n    /** \n      Event is emmited on ERC-20 token tranfer.\n     */\n    event Transfer(address indexed from, address indexed to, uint256 value);\n\n    /** \n      The address of ERC-20 token's contract \n     */\n    IERC20 public immutable tokenContract;\n\n    /**\n      Sets token's contract address. \n      This token is used to deposit and withdraw on chain adapter's contract is deployed.\n     */\n    constructor(address contractAddress) {\n        tokenContract = IERC20(contractAddress);\n    }\n\n    /** \n      Deposit currency from ERC20 into the internal currency. \n      This requires payer to approve deposit.\n     */\n    function depositERC20(uint256 amount) external {\n        address user = _msgSender();\n        tokenContract.transferFrom(user, address(this), amount);\n        _mint(user, CURRENCY, amount, \"\");\n        emit Transfer(user, address(tokenContract), amount);\n    }\n\n    /** \n      Withdraw currency from internal to ERC20\n     */\n    function withdrawERC20(uint256 amount) external {\n        address user = _msgSender();\n        _burn(user, CURRENCY, amount);\n        tokenContract.transfer(user, amount);\n        emit Transfer(address(tokenContract), user, amount);\n    }\n}\n",
  "sourcePath": "/home/nadtech/Visual Studio/Freeport-Smart-Contracts/contracts/freeportParts/ERC20Adapter.sol",
  "compiler": {
    "name": "solc",
    "version": "0.8.4+commit.c7e474f2.Emscripten.clang"
  },
  "schemaVersion": "3.4.3",
  "updatedAt": "2021-12-30T16:27:03.360Z",
  "networkType": "ethereum",
  "devdoc": {
    "kind": "dev",
    "methods": {
      "balanceOf(address,uint256)": {
        "details": "See {IERC1155-balanceOf}. Requirements: - `account` cannot be the zero address."
      },
      "balanceOfBatch(address[],uint256[])": {
        "details": "See {IERC1155-balanceOfBatch}. Requirements: - `accounts` and `ids` must have the same length."
      },
      "getRoleAdmin(bytes32)": {
        "details": "Returns the admin role that controls `role`. See {grantRole} and {revokeRole}. To change a role's admin, use {_setRoleAdmin}."
      },
      "grantRole(bytes32,address)": {
        "details": "Grants `role` to `account`. If `account` had not been already granted `role`, emits a {RoleGranted} event. Requirements: - the caller must have ``role``'s admin role."
      },
      "hasRole(bytes32,address)": {
        "details": "Returns `true` if `account` has been granted `role`."
      },
      "renounceRole(bytes32,address)": {
        "details": "Revokes `role` from the calling account. Roles are often managed via {grantRole} and {revokeRole}: this function's purpose is to provide a mechanism for accounts to lose their privileges if they are compromised (such as when a trusted device is misplaced). If the calling account had been granted `role`, emits a {RoleRevoked} event. Requirements: - the caller must be `account`."
      },
      "revokeRole(bytes32,address)": {
        "details": "Revokes `role` from `account`. If `account` had been granted `role`, emits a {RoleRevoked} event. Requirements: - the caller must have ``role``'s admin role."
      },
      "safeBatchTransferFrom(address,address,uint256[],uint256[],bytes)": {
        "details": "See {IERC1155-safeBatchTransferFrom}."
      },
      "safeTransferFrom(address,address,uint256,uint256,bytes)": {
        "details": "See {IERC1155-safeTransferFrom}."
      },
      "setApprovalForAll(address,bool)": {
        "details": "See {IERC1155-setApprovalForAll}."
      },
      "uri(uint256)": {
        "details": "See {IERC1155MetadataURI-uri}. This implementation returns the same URI for *all* token types. It relies on the token type ID substitution mechanism https://eips.ethereum.org/EIPS/eip-1155#metadata[defined in the EIP]. Clients calling this function must replace the `\\{id\\}` substring with the actual token type ID."
      }
    },
    "version": 1
  },
  "userdoc": {
    "events": {
      "Transfer(address,address,uint256)": {
        "notice": "Event is emmited on ERC-20 token tranfer."
      }
    },
    "kind": "user",
    "methods": {
      "CURRENCY()": {
        "notice": "The token ID that represents the CERE currency for all payments in this contract. "
      },
      "CURRENCY_SUPPLY()": {
        "notice": "The global supply of CERE tokens on all chains. That is 10 billion tokens, with 10 decimals."
      },
      "constructor": {
        "notice": "Sets token's contract address.  This token is used to deposit and withdraw on chain adapter's contract is deployed."
      },
      "depositERC20(uint256)": {
        "notice": "Deposit currency from ERC20 into the internal currency.  This requires payer to approve deposit."
      },
      "isApprovedForAll(address,address)": {
        "notice": "Return true for operators with the role TRANSFER_OPERATOR. Otherwise, apply the standard approval logic of ERC1155. See {IERC1155-isApprovedForAll}."
      },
      "supportsInterface(bytes4)": {
        "notice": "Supports interfaces of AccessControl, ERC1155, and ERC1155 MetadataURI."
      },
      "tokenContract()": {
        "notice": "The address of ERC-20 token's contract "
      },
      "withdrawERC20(uint256)": {
        "notice": "Withdraw currency from internal to ERC20"
      }
    },
    "notice": "Contract that enables user to make deposits in ERC-20 based tokens to system.  Deposit is converted into internal currency token.  Underneath Freeport contract track for user balance, execute deposit and withdrawls.  ",
    "version": 1
  }
}