{
  "contractName": "FiatGateway",
  "abi": [
    {
      "inputs": [
        {
          "internalType": "contract Davinci",
          "name": "_davinci",
          "type": "address"
        }
      ],
      "stateMutability": "nonpayable",
      "type": "constructor"
    },
    {
      "anonymous": false,
      "inputs": [
        {
          "indexed": true,
          "internalType": "bytes32",
          "name": "role",
          "type": "bytes32"
        },
        {
          "indexed": true,
          "internalType": "bytes32",
          "name": "previousAdminRole",
          "type": "bytes32"
        },
        {
          "indexed": true,
          "internalType": "bytes32",
          "name": "newAdminRole",
          "type": "bytes32"
        }
      ],
      "name": "RoleAdminChanged",
      "type": "event"
    },
    {
      "anonymous": false,
      "inputs": [
        {
          "indexed": true,
          "internalType": "bytes32",
          "name": "role",
          "type": "bytes32"
        },
        {
          "indexed": true,
          "internalType": "address",
          "name": "account",
          "type": "address"
        },
        {
          "indexed": true,
          "internalType": "address",
          "name": "sender",
          "type": "address"
        }
      ],
      "name": "RoleGranted",
      "type": "event"
    },
    {
      "anonymous": false,
      "inputs": [
        {
          "indexed": true,
          "internalType": "bytes32",
          "name": "role",
          "type": "bytes32"
        },
        {
          "indexed": true,
          "internalType": "address",
          "name": "account",
          "type": "address"
        },
        {
          "indexed": true,
          "internalType": "address",
          "name": "sender",
          "type": "address"
        }
      ],
      "name": "RoleRevoked",
      "type": "event"
    },
    {
      "inputs": [],
      "name": "CURRENCY",
      "outputs": [
        {
          "internalType": "uint256",
          "name": "",
          "type": "uint256"
        }
      ],
      "stateMutability": "view",
      "type": "function",
      "constant": true
    },
    {
      "inputs": [],
      "name": "DEFAULT_ADMIN_ROLE",
      "outputs": [
        {
          "internalType": "bytes32",
          "name": "",
          "type": "bytes32"
        }
      ],
      "stateMutability": "view",
      "type": "function",
      "constant": true
    },
    {
      "inputs": [],
      "name": "EXCHANGE_RATE_ORACLE",
      "outputs": [
        {
          "internalType": "bytes32",
          "name": "",
          "type": "bytes32"
        }
      ],
      "stateMutability": "view",
      "type": "function",
      "constant": true
    },
    {
      "inputs": [],
      "name": "PAYMENT_SERVICE",
      "outputs": [
        {
          "internalType": "bytes32",
          "name": "",
          "type": "bytes32"
        }
      ],
      "stateMutability": "view",
      "type": "function",
      "constant": true
    },
    {
      "inputs": [],
      "name": "cerePerPenny",
      "outputs": [
        {
          "internalType": "uint256",
          "name": "",
          "type": "uint256"
        }
      ],
      "stateMutability": "view",
      "type": "function",
      "constant": true
    },
    {
      "inputs": [],
      "name": "davinci",
      "outputs": [
        {
          "internalType": "contract Davinci",
          "name": "",
          "type": "address"
        }
      ],
      "stateMutability": "view",
      "type": "function",
      "constant": true
    },
    {
      "inputs": [
        {
          "internalType": "bytes32",
          "name": "role",
          "type": "bytes32"
        }
      ],
      "name": "getRoleAdmin",
      "outputs": [
        {
          "internalType": "bytes32",
          "name": "",
          "type": "bytes32"
        }
      ],
      "stateMutability": "view",
      "type": "function",
      "constant": true
    },
    {
      "inputs": [
        {
          "internalType": "bytes32",
          "name": "role",
          "type": "bytes32"
        },
        {
          "internalType": "address",
          "name": "account",
          "type": "address"
        }
      ],
      "name": "grantRole",
      "outputs": [],
      "stateMutability": "nonpayable",
      "type": "function"
    },
    {
      "inputs": [
        {
          "internalType": "bytes32",
          "name": "role",
          "type": "bytes32"
        },
        {
          "internalType": "address",
          "name": "account",
          "type": "address"
        }
      ],
      "name": "hasRole",
      "outputs": [
        {
          "internalType": "bool",
          "name": "",
          "type": "bool"
        }
      ],
      "stateMutability": "view",
      "type": "function",
      "constant": true
    },
    {
      "inputs": [
        {
          "internalType": "bytes32",
          "name": "role",
          "type": "bytes32"
        },
        {
          "internalType": "address",
          "name": "account",
          "type": "address"
        }
      ],
      "name": "renounceRole",
      "outputs": [],
      "stateMutability": "nonpayable",
      "type": "function"
    },
    {
      "inputs": [
        {
          "internalType": "bytes32",
          "name": "role",
          "type": "bytes32"
        },
        {
          "internalType": "address",
          "name": "account",
          "type": "address"
        }
      ],
      "name": "revokeRole",
      "outputs": [],
      "stateMutability": "nonpayable",
      "type": "function"
    },
    {
      "inputs": [
        {
          "internalType": "bytes4",
          "name": "interfaceId",
          "type": "bytes4"
        }
      ],
      "name": "supportsInterface",
      "outputs": [
        {
          "internalType": "bool",
          "name": "",
          "type": "bool"
        }
      ],
      "stateMutability": "view",
      "type": "function",
      "constant": true
    },
    {
      "inputs": [],
      "name": "totalCereSent",
      "outputs": [
        {
          "internalType": "uint256",
          "name": "",
          "type": "uint256"
        }
      ],
      "stateMutability": "view",
      "type": "function",
      "constant": true
    },
    {
      "inputs": [],
      "name": "totalPenniesReceived",
      "outputs": [
        {
          "internalType": "uint256",
          "name": "",
          "type": "uint256"
        }
      ],
      "stateMutability": "view",
      "type": "function",
      "constant": true
    },
    {
      "inputs": [
        {
          "internalType": "uint256",
          "name": "_cerePerPenny",
          "type": "uint256"
        }
      ],
      "name": "setExchangeRate",
      "outputs": [],
      "stateMutability": "nonpayable",
      "type": "function"
    },
    {
      "inputs": [],
      "name": "withdraw",
      "outputs": [
        {
          "internalType": "uint256",
          "name": "",
          "type": "uint256"
        }
      ],
      "stateMutability": "nonpayable",
      "type": "function"
    },
    {
      "inputs": [
        {
          "internalType": "uint256",
          "name": "penniesReceived",
          "type": "uint256"
        },
        {
          "internalType": "address",
          "name": "buyer",
          "type": "address"
        },
        {
          "internalType": "uint256",
          "name": "nonce",
          "type": "uint256"
        }
      ],
      "name": "buyCereFromUsd",
      "outputs": [
        {
          "internalType": "uint256",
          "name": "",
          "type": "uint256"
        }
      ],
      "stateMutability": "nonpayable",
      "type": "function"
    },
    {
      "inputs": [
        {
          "internalType": "uint256",
          "name": "penniesReceived",
          "type": "uint256"
        },
        {
          "internalType": "address",
          "name": "buyer",
          "type": "address"
        },
        {
          "internalType": "address",
          "name": "seller",
          "type": "address"
        },
        {
          "internalType": "uint256",
          "name": "nftId",
          "type": "uint256"
        },
        {
          "internalType": "uint256",
          "name": "nftPrice",
          "type": "uint256"
        },
        {
          "internalType": "uint256",
          "name": "nonce",
          "type": "uint256"
        }
      ],
      "name": "buyNftFromUsd",
      "outputs": [],
      "stateMutability": "nonpayable",
      "type": "function"
    }
  ],
  "bytecode": "0x608060405234801561001057600080fd5b50604051610def380380610def83398101604081905261002f9161010d565b600180546001600160a01b0319166001600160a01b03831617905561005b60006100563390565b610061565b5061013b565b61006b828261006f565b5050565b6000828152602081815260408083206001600160a01b038516845290915290205460ff1661006b576000828152602081815260408083206001600160a01b03851684529091529020805460ff191660011790556100c93390565b6001600160a01b0316816001600160a01b0316837f2f8788117e7eff1d82e926ec794901d17c78024a50270940304540a733656f0d60405160405180910390a45050565b60006020828403121561011e578081fd5b81516001600160a01b0381168114610134578182fd5b9392505050565b610ca58061014a6000396000f3fe608060405234801561001057600080fd5b50600436106100e65760003560e01c806301ffc9a7146100eb5780630ec57d5114610113578063248a9ca31461013e5780632f2ff15d1461015f5780633263ba671461017457806336568abe146101895780633ccfd60b1461019c57806391d14854146101a4578063a217fddf146101b7578063a87a9322146101bf578063b880cd75146101d2578063c4f7f9c5146101db578063c87113e2146101ee578063d547741f14610203578063db068e0e14610216578063e65372e114610229578063f37c137f14610232578063f5361219146101b7575b600080fd5b6100fe6100f93660046109f6565b61023b565b60405190151581526020015b60405180910390f35b600154610126906001600160a01b031681565b6040516001600160a01b03909116815260200161010a565b61015161014c3660046109b3565b610272565b60405190815260200161010a565b61017261016d3660046109cb565b610287565b005b610151600080516020610c5083398151915281565b6101726101973660046109cb565b6102a9565b61015161032c565b6100fe6101b23660046109cb565b610433565b610151600081565b6101726101cd366004610a36565b61045c565b61015160025481565b6101516101e9366004610a8d565b610508565b610151600080516020610c3083398151915281565b6101726102113660046109cb565b610626565b6101726102243660046109b3565b610643565b61015160035481565b61015160045481565b60006001600160e01b03198216637965db0b60e01b148061026c57506301ffc9a760e01b6001600160e01b03198316145b92915050565b60009081526020819052604090206001015490565b61029082610272565b61029a8133610662565b6102a483836106c6565b505050565b6001600160a01b038116331461031e5760405162461bcd60e51b815260206004820152602f60248201527f416363657373436f6e74726f6c3a2063616e206f6e6c792072656e6f756e636560448201526e103937b632b9903337b91039b2b63360891b60648201526084015b60405180910390fd5b610328828261074a565b5050565b6000806103398133610662565b600033600154604051627eeac760e11b81523060048201526000602482018190529293506001600160a01b039091169062fdd58e9060440160206040518083038186803b15801561038957600080fd5b505afa15801561039d573d6000803e3d6000fd5b505050506040513d601f19601f820116820180604052508101906103c19190610a1e565b600154604051637921219560e11b81529192506001600160a01b03169063f242432a906103f990309086906000908790600401610b30565b600060405180830381600087803b15801561041357600080fd5b505af1158015610427573d6000803e3d6000fd5b50929550505050505090565b6000918252602082815260408084206001600160a01b0393909316845291905290205460ff1690565b600080516020610c508339815191526104758133610662565b610480878784610508565b5060018054604051634880d24760e01b81526001600160a01b038981166004830152888116602483015260448201889052606482018790526084820184905290911690634880d2479060a401600060405180830381600087803b1580156104e657600080fd5b505af11580156104fa573d6000803e3d6000fd5b505050505050505050505050565b6000600080516020610c508339815191526105238133610662565b6002546105725760405162461bcd60e51b815260206004820181905260248201527f45786368616e67652072617465206d75737420626520636f6e666967757265646044820152606401610315565b6000600254866105829190610bb3565b600154604051637921219560e11b81529192506001600160a01b03169063f242432a906105ba90309089906000908790600401610b30565b600060405180830381600087803b1580156105d457600080fd5b505af11580156105e8573d6000803e3d6000fd5b5050505085600360008282546105fe9190610b9b565b9250508190555080600460008282546106179190610b9b565b90915550909695505050505050565b61062f82610272565b6106398133610662565b6102a4838361074a565b600080516020610c3083398151915261065c8133610662565b50600255565b61066c8282610433565b61032857610684816001600160a01b031660146107af565b61068f8360206107af565b6040516020016106a0929190610ac1565b60408051601f198184030181529082905262461bcd60e51b825261031591600401610b68565b6106d08282610433565b610328576000828152602081815260408083206001600160a01b03851684529091529020805460ff191660011790556107063390565b6001600160a01b0316816001600160a01b0316837f2f8788117e7eff1d82e926ec794901d17c78024a50270940304540a733656f0d60405160405180910390a45050565b6107548282610433565b15610328576000828152602081815260408083206001600160a01b0385168085529252808320805460ff1916905551339285917ff6391f5c32d9c69d2a47ea670b442974b53935d1edc7fd64eb21e047a839171b9190a45050565b606060006107be836002610bb3565b6107c9906002610b9b565b6001600160401b038111156107ee57634e487b7160e01b600052604160045260246000fd5b6040519080825280601f01601f191660200182016040528015610818576020820181803683370190505b509050600360fc1b8160008151811061084157634e487b7160e01b600052603260045260246000fd5b60200101906001600160f81b031916908160001a905350600f60fb1b8160018151811061087e57634e487b7160e01b600052603260045260246000fd5b60200101906001600160f81b031916908160001a90535060006108a2846002610bb3565b6108ad906001610b9b565b90505b6001811115610941576f181899199a1a9b1b9c1cb0b131b232b360811b85600f16601081106108ef57634e487b7160e01b600052603260045260246000fd5b1a60f81b82828151811061091357634e487b7160e01b600052603260045260246000fd5b60200101906001600160f81b031916908160001a90535060049490941c9361093a81610c02565b90506108b0565b5083156109905760405162461bcd60e51b815260206004820181905260248201527f537472696e67733a20686578206c656e67746820696e73756666696369656e746044820152606401610315565b9392505050565b80356001600160a01b03811681146109ae57600080fd5b919050565b6000602082840312156109c4578081fd5b5035919050565b600080604083850312156109dd578081fd5b823591506109ed60208401610997565b90509250929050565b600060208284031215610a07578081fd5b81356001600160e01b031981168114610990578182fd5b600060208284031215610a2f578081fd5b5051919050565b60008060008060008060c08789031215610a4e578182fd5b86359550610a5e60208801610997565b9450610a6c60408801610997565b9350606087013592506080870135915060a087013590509295509295509295565b600080600060608486031215610aa1578283fd5b83359250610ab160208501610997565b9150604084013590509250925092565b76020b1b1b2b9b9a1b7b73a3937b61d1030b1b1b7bab73a1604d1b815260008351610af3816017850160208801610bd2565b7001034b99036b4b9b9b4b733903937b6329607d1b6017918401918201528351610b24816028840160208801610bd2565b01602801949350505050565b6001600160a01b0394851681529290931660208301526040820152606081019190915260a06080820181905260009082015260c00190565b6020815260008251806020840152610b87816040850160208701610bd2565b601f01601f19169190910160400192915050565b60008219821115610bae57610bae610c19565b500190565b6000816000190483118215151615610bcd57610bcd610c19565b500290565b60005b83811015610bed578181015183820152602001610bd5565b83811115610bfc576000848401525b50505050565b600081610c1157610c11610c19565b506000190190565b634e487b7160e01b600052601160045260246000fdfef9dcb70efa80ab2e15e6301babe010c481ee550c5335953c9ba3f97789fcb53979fb255b78648c966adc3c680f08ecaf12e124b92265f0bd145ccad7605f092fa26469706673582212209b6157ecb6fe6057f6b7b3c846339b044136b6306e071342213d0ed159365d2d64736f6c63430008040033",
  "immutableReferences": {},
  "source": "pragma solidity ^0.8.0;\n\nimport \"./access/AccessControl.sol\";\nimport \"./Davinci.sol\";\n\n/** The FiatGateway contract allows buying NFTs from an external fiat payment.\n  *\n  * This contract connects to the Davinci contract.\n  * It must hold a balance of CERE recognized by Davinci.\n  *\n  * This contract uses the SimpleExchange API to buy NFTs.\n */\ncontract FiatGateway is AccessControl {\n\n    bytes32 public constant EXCHANGE_RATE_ORACLE = keccak256(\"EXCHANGE_RATE_ORACLE\");\n    bytes32 public constant PAYMENT_SERVICE = keccak256(\"PAYMENT_SERVICE\");\n\n    /** The token ID that represents the CERE currency for all payments in this contract. */\n    uint256 public constant CURRENCY = 0;\n\n    Davinci public davinci;\n    uint public cerePerPenny;\n\n    /** How many USD cents were received so far, according to the payment service.\n     */\n    uint public totalPenniesReceived;\n\n    /** How many CERE tokens were sold so far.\n     */\n    uint public totalCereSent;\n\n    constructor(Davinci _davinci) {\n        davinci = _davinci;\n\n        _setupRole(DEFAULT_ADMIN_ROLE, _msgSender());\n    }\n\n    /** Set the exchange rate between fiat (USD) and Davinci currency (CERE).\n      *\n      * The rate is given as number of CERE (with 10 decimals) per USD cent (1 penny).\n      *\n      * Only the rate service with the EXCHANGE_RATE_ORACLE role can change the rate.\n     */\n    function setExchangeRate(uint _cerePerPenny)\n    public onlyRole(EXCHANGE_RATE_ORACLE) {\n\n        cerePerPenny = _cerePerPenny;\n    }\n\n    /** Withdraw all CERE from this contract.\n      *\n      * Only accounts with DEFAULT_ADMIN_ROLE can withdraw.\n     */\n    function withdraw()\n    public onlyRole(DEFAULT_ADMIN_ROLE)\n    returns (uint) {\n\n        address admin = _msgSender();\n\n        uint amount = davinci.balanceOf(address(this), CURRENCY);\n\n        davinci.safeTransferFrom(\n            address(this),\n            admin,\n            CURRENCY,\n            amount,\n            \"\");\n\n        return amount;\n    }\n\n    /** Obtain CERE based on a fiat payment.\n      *\n      * The amount of fiat is recorded, and exchanged for an amount of CERE.\n      *\n      * Only the gateway with PAYMENT_SERVICE role can report successful payments.\n     */\n    function buyCereFromUsd(\n        uint penniesReceived,\n        address buyer,\n        uint nonce)\n    public onlyRole(PAYMENT_SERVICE)\n    returns (uint) {\n        require(cerePerPenny != 0, \"Exchange rate must be configured\");\n\n        uint cereToSend = penniesReceived * cerePerPenny;\n\n        davinci.safeTransferFrom(\n            address(this),\n            buyer,\n            CURRENCY,\n            cereToSend,\n            \"\");\n\n        totalPenniesReceived += penniesReceived;\n        totalCereSent += cereToSend;\n\n        return cereToSend;\n    }\n\n    /** Obtain CERE and buy an NFT based on a fiat payment.\n      *\n      * CERE tokens are obtained in the same way as buyCereFromUsd.\n      *\n      * Then, the tokens are used to buy an NFT in the same transaction. The NFT must be available for sale from the seller in SimpleExchange.\n      *\n      * Only the gateway with PAYMENT_SERVICE role can report successful payments.\n     */\n    function buyNftFromUsd(\n        uint penniesReceived,\n        address buyer,\n        address seller,\n        uint nftId,\n        uint nftPrice,\n        uint nonce)\n    public onlyRole(PAYMENT_SERVICE) {\n\n        buyCereFromUsd(penniesReceived, buyer, nonce);\n\n        uint amount = 1;\n        davinci.takeOffer(buyer, seller, nftId, nftPrice, amount);\n    }\n\n    /** Guarantee that a version of Solidity with safe math is used.\n     */\n    function _mathIsSafe() internal pure {\n    unchecked {} // Use a keyword from Solidity 0.8.0.\n    }\n}",
  "sourcePath": "/home/a/CERE/davinci-nft/contracts/FiatGateway.sol",
  "compiler": {
    "name": "solc",
    "version": "0.8.4+commit.c7e474f2.Emscripten.clang"
  },
  "schemaVersion": "3.4.1",
  "updatedAt": "2021-08-11T07:16:57.375Z",
  "networkType": "ethereum",
  "devdoc": {
    "kind": "dev",
    "methods": {
      "getRoleAdmin(bytes32)": {
        "details": "Returns the admin role that controls `role`. See {grantRole} and {revokeRole}. To change a role's admin, use {_setRoleAdmin}."
      },
      "grantRole(bytes32,address)": {
        "details": "Grants `role` to `account`. If `account` had not been already granted `role`, emits a {RoleGranted} event. Requirements: - the caller must have ``role``'s admin role."
      },
      "hasRole(bytes32,address)": {
        "details": "Returns `true` if `account` has been granted `role`."
      },
      "renounceRole(bytes32,address)": {
        "details": "Revokes `role` from the calling account. Roles are often managed via {grantRole} and {revokeRole}: this function's purpose is to provide a mechanism for accounts to lose their privileges if they are compromised (such as when a trusted device is misplaced). If the calling account had been granted `role`, emits a {RoleRevoked} event. Requirements: - the caller must be `account`."
      },
      "revokeRole(bytes32,address)": {
        "details": "Revokes `role` from `account`. If `account` had been granted `role`, emits a {RoleRevoked} event. Requirements: - the caller must have ``role``'s admin role."
      },
      "supportsInterface(bytes4)": {
        "details": "See {IERC165-supportsInterface}."
      }
    },
    "version": 1
  },
  "userdoc": {
    "kind": "user",
    "methods": {
      "CURRENCY()": {
        "notice": "The token ID that represents the CERE currency for all payments in this contract. "
      },
      "buyCereFromUsd(uint256,address,uint256)": {
        "notice": "Obtain CERE based on a fiat payment. The amount of fiat is recorded, and exchanged for an amount of CERE. Only the gateway with PAYMENT_SERVICE role can report successful payments."
      },
      "buyNftFromUsd(uint256,address,address,uint256,uint256,uint256)": {
        "notice": "Obtain CERE and buy an NFT based on a fiat payment. CERE tokens are obtained in the same way as buyCereFromUsd. Then, the tokens are used to buy an NFT in the same transaction. The NFT must be available for sale from the seller in SimpleExchange. Only the gateway with PAYMENT_SERVICE role can report successful payments."
      },
      "setExchangeRate(uint256)": {
        "notice": "Set the exchange rate between fiat (USD) and Davinci currency (CERE). The rate is given as number of CERE (with 10 decimals) per USD cent (1 penny). Only the rate service with the EXCHANGE_RATE_ORACLE role can change the rate."
      },
      "totalCereSent()": {
        "notice": "How many CERE tokens were sold so far."
      },
      "totalPenniesReceived()": {
        "notice": "How many USD cents were received so far, according to the payment service."
      },
      "withdraw()": {
        "notice": "Withdraw all CERE from this contract. Only accounts with DEFAULT_ADMIN_ROLE can withdraw."
      }
    },
    "notice": "The FiatGateway contract allows buying NFTs from an external fiat payment. This contract connects to the Davinci contract. It must hold a balance of CERE recognized by Davinci. This contract uses the SimpleExchange API to buy NFTs.",
    "version": 1
  }
}