{
  "contractName": "FiatGateway",
  "abi": [
    {
      "inputs": [
        {
          "internalType": "contract Davinci",
          "name": "_davinci",
          "type": "address"
        }
      ],
      "stateMutability": "nonpayable",
      "type": "constructor"
    },
    {
      "anonymous": false,
      "inputs": [
        {
          "indexed": true,
          "internalType": "bytes32",
          "name": "role",
          "type": "bytes32"
        },
        {
          "indexed": true,
          "internalType": "bytes32",
          "name": "previousAdminRole",
          "type": "bytes32"
        },
        {
          "indexed": true,
          "internalType": "bytes32",
          "name": "newAdminRole",
          "type": "bytes32"
        }
      ],
      "name": "RoleAdminChanged",
      "type": "event"
    },
    {
      "anonymous": false,
      "inputs": [
        {
          "indexed": true,
          "internalType": "bytes32",
          "name": "role",
          "type": "bytes32"
        },
        {
          "indexed": true,
          "internalType": "address",
          "name": "account",
          "type": "address"
        },
        {
          "indexed": true,
          "internalType": "address",
          "name": "sender",
          "type": "address"
        }
      ],
      "name": "RoleGranted",
      "type": "event"
    },
    {
      "anonymous": false,
      "inputs": [
        {
          "indexed": true,
          "internalType": "bytes32",
          "name": "role",
          "type": "bytes32"
        },
        {
          "indexed": true,
          "internalType": "address",
          "name": "account",
          "type": "address"
        },
        {
          "indexed": true,
          "internalType": "address",
          "name": "sender",
          "type": "address"
        }
      ],
      "name": "RoleRevoked",
      "type": "event"
    },
    {
      "anonymous": false,
      "inputs": [
        {
          "indexed": false,
          "internalType": "uint256",
          "name": "cereUnitsPerPenny",
          "type": "uint256"
        }
      ],
      "name": "SetExchangeRate",
      "type": "event"
    },
    {
      "inputs": [],
      "name": "CURRENCY",
      "outputs": [
        {
          "internalType": "uint256",
          "name": "",
          "type": "uint256"
        }
      ],
      "stateMutability": "view",
      "type": "function",
      "constant": true
    },
    {
      "inputs": [],
      "name": "DEFAULT_ADMIN_ROLE",
      "outputs": [
        {
          "internalType": "bytes32",
          "name": "",
          "type": "bytes32"
        }
      ],
      "stateMutability": "view",
      "type": "function",
      "constant": true
    },
    {
      "inputs": [],
      "name": "EXCHANGE_RATE_ORACLE",
      "outputs": [
        {
          "internalType": "bytes32",
          "name": "",
          "type": "bytes32"
        }
      ],
      "stateMutability": "view",
      "type": "function",
      "constant": true
    },
    {
      "inputs": [],
      "name": "PAYMENT_SERVICE",
      "outputs": [
        {
          "internalType": "bytes32",
          "name": "",
          "type": "bytes32"
        }
      ],
      "stateMutability": "view",
      "type": "function",
      "constant": true
    },
    {
      "inputs": [],
      "name": "davinci",
      "outputs": [
        {
          "internalType": "contract Davinci",
          "name": "",
          "type": "address"
        }
      ],
      "stateMutability": "view",
      "type": "function",
      "constant": true
    },
    {
      "inputs": [
        {
          "internalType": "bytes32",
          "name": "role",
          "type": "bytes32"
        }
      ],
      "name": "getRoleAdmin",
      "outputs": [
        {
          "internalType": "bytes32",
          "name": "",
          "type": "bytes32"
        }
      ],
      "stateMutability": "view",
      "type": "function",
      "constant": true
    },
    {
      "inputs": [
        {
          "internalType": "bytes32",
          "name": "role",
          "type": "bytes32"
        },
        {
          "internalType": "address",
          "name": "account",
          "type": "address"
        }
      ],
      "name": "grantRole",
      "outputs": [],
      "stateMutability": "nonpayable",
      "type": "function"
    },
    {
      "inputs": [
        {
          "internalType": "bytes32",
          "name": "role",
          "type": "bytes32"
        },
        {
          "internalType": "address",
          "name": "account",
          "type": "address"
        }
      ],
      "name": "hasRole",
      "outputs": [
        {
          "internalType": "bool",
          "name": "",
          "type": "bool"
        }
      ],
      "stateMutability": "view",
      "type": "function",
      "constant": true
    },
    {
      "inputs": [
        {
          "internalType": "bytes32",
          "name": "role",
          "type": "bytes32"
        },
        {
          "internalType": "address",
          "name": "account",
          "type": "address"
        }
      ],
      "name": "renounceRole",
      "outputs": [],
      "stateMutability": "nonpayable",
      "type": "function"
    },
    {
      "inputs": [
        {
          "internalType": "bytes32",
          "name": "role",
          "type": "bytes32"
        },
        {
          "internalType": "address",
          "name": "account",
          "type": "address"
        }
      ],
      "name": "revokeRole",
      "outputs": [],
      "stateMutability": "nonpayable",
      "type": "function"
    },
    {
      "inputs": [
        {
          "internalType": "bytes4",
          "name": "interfaceId",
          "type": "bytes4"
        }
      ],
      "name": "supportsInterface",
      "outputs": [
        {
          "internalType": "bool",
          "name": "",
          "type": "bool"
        }
      ],
      "stateMutability": "view",
      "type": "function",
      "constant": true
    },
    {
      "inputs": [],
      "name": "totalCereUnitsSent",
      "outputs": [
        {
          "internalType": "uint256",
          "name": "",
          "type": "uint256"
        }
      ],
      "stateMutability": "view",
      "type": "function",
      "constant": true
    },
    {
      "inputs": [],
      "name": "totalPenniesReceived",
      "outputs": [
        {
          "internalType": "uint256",
          "name": "",
          "type": "uint256"
        }
      ],
      "stateMutability": "view",
      "type": "function",
      "constant": true
    },
    {
      "inputs": [
        {
          "internalType": "uint256",
          "name": "_cereUnitsPerPenny",
          "type": "uint256"
        }
      ],
      "name": "setExchangeRate",
      "outputs": [],
      "stateMutability": "nonpayable",
      "type": "function"
    },
    {
      "inputs": [],
      "name": "getExchangeRate",
      "outputs": [
        {
          "internalType": "uint256",
          "name": "",
          "type": "uint256"
        }
      ],
      "stateMutability": "view",
      "type": "function",
      "constant": true
    },
    {
      "inputs": [],
      "name": "withdraw",
      "outputs": [
        {
          "internalType": "uint256",
          "name": "",
          "type": "uint256"
        }
      ],
      "stateMutability": "nonpayable",
      "type": "function"
    },
    {
      "inputs": [
        {
          "internalType": "uint256",
          "name": "penniesReceived",
          "type": "uint256"
        },
        {
          "internalType": "address",
          "name": "buyer",
          "type": "address"
        },
        {
          "internalType": "uint256",
          "name": "nonce",
          "type": "uint256"
        }
      ],
      "name": "buyCereFromUsd",
      "outputs": [
        {
          "internalType": "uint256",
          "name": "",
          "type": "uint256"
        }
      ],
      "stateMutability": "nonpayable",
      "type": "function"
    },
    {
      "inputs": [
        {
          "internalType": "uint256",
          "name": "penniesReceived",
          "type": "uint256"
        },
        {
          "internalType": "address",
          "name": "buyer",
          "type": "address"
        },
        {
          "internalType": "address",
          "name": "seller",
          "type": "address"
        },
        {
          "internalType": "uint256",
          "name": "nftId",
          "type": "uint256"
        },
        {
          "internalType": "uint256",
          "name": "nftPrice",
          "type": "uint256"
        },
        {
          "internalType": "uint256",
          "name": "nonce",
          "type": "uint256"
        }
      ],
      "name": "buyNftFromUsd",
      "outputs": [],
      "stateMutability": "nonpayable",
      "type": "function"
    }
  ],
  "bytecode": "0x608060405234801561001057600080fd5b50604051610e87380380610e8783398101604081905261002f9161010d565b600180546001600160a01b0319166001600160a01b03831617905561005b60006100563390565b610061565b5061013b565b61006b828261006f565b5050565b6000828152602081815260408083206001600160a01b038516845290915290205460ff1661006b576000828152602081815260408083206001600160a01b03851684529091529020805460ff191660011790556100c93390565b6001600160a01b0316816001600160a01b0316837f2f8788117e7eff1d82e926ec794901d17c78024a50270940304540a733656f0d60405160405180910390a45050565b60006020828403121561011e578081fd5b81516001600160a01b0381168114610134578182fd5b9392505050565b610d3d8061014a6000396000f3fe608060405234801561001057600080fd5b50600436106100e65760003560e01c806301ffc9a7146100eb5780630ec57d5114610113578063248a9ca31461013e5780632f2ff15d1461015f5780633263ba671461017457806336568abe146101895780633ccfd60b1461019c57806391d14854146101a45780639c750286146101b7578063a217fddf146101c0578063a87a9322146101c8578063c4f7f9c5146101db578063c87113e2146101ee578063d547741f14610203578063db068e0e14610216578063e65372e114610229578063e6aa216c14610232578063f5361219146101c0575b600080fd5b6100fe6100f9366004610a8e565b61023a565b60405190151581526020015b60405180910390f35b600154610126906001600160a01b031681565b6040516001600160a01b03909116815260200161010a565b61015161014c366004610a4b565b610271565b60405190815260200161010a565b61017261016d366004610a63565b610286565b005b610151600080516020610ce883398151915281565b610172610197366004610a63565b6102a8565b61015161032b565b6100fe6101b2366004610a63565b610432565b61015160045481565b610151600081565b6101726101d6366004610ace565b61045b565b6101516101e9366004610b25565b61056a565b610151600080516020610cc883398151915281565b610172610211366004610a63565b610688565b610172610224366004610a4b565b6106a5565b61015160035481565b600254610151565b60006001600160e01b03198216637965db0b60e01b148061026b57506301ffc9a760e01b6001600160e01b03198316145b92915050565b60009081526020819052604090206001015490565b61028f82610271565b61029981336106fa565b6102a3838361075e565b505050565b6001600160a01b038116331461031d5760405162461bcd60e51b815260206004820152602f60248201527f416363657373436f6e74726f6c3a2063616e206f6e6c792072656e6f756e636560448201526e103937b632b9903337b91039b2b63360891b60648201526084015b60405180910390fd5b61032782826107e2565b5050565b60008061033881336106fa565b600033600154604051627eeac760e11b81523060048201526000602482018190529293506001600160a01b039091169062fdd58e9060440160206040518083038186803b15801561038857600080fd5b505afa15801561039c573d6000803e3d6000fd5b505050506040513d601f19601f820116820180604052508101906103c09190610ab6565b600154604051637921219560e11b81529192506001600160a01b03169063f242432a906103f890309086906000908790600401610bc8565b600060405180830381600087803b15801561041257600080fd5b505af1158015610426573d6000803e3d6000fd5b50929550505050505090565b6000918252602082815260408084206001600160a01b0393909316845291905290205460ff1690565b600080516020610ce883398151915261047481336106fa565b600061048188888561056a565b9050838110156104e25760405162461bcd60e51b815260206004820152602660248201527f4e6f7420656e6f756768204365726520746f20636f76657220746865204e465460448201526520707269636560d01b6064820152608401610314565b60018054604051634880d24760e01b81526001600160a01b038a81166004830152898116602483015260448201899052606482018890526084820184905290911690634880d2479060a401600060405180830381600087803b15801561054757600080fd5b505af115801561055b573d6000803e3d6000fd5b50505050505050505050505050565b6000600080516020610ce883398151915261058581336106fa565b6002546105d45760405162461bcd60e51b815260206004820181905260248201527f45786368616e67652072617465206d75737420626520636f6e666967757265646044820152606401610314565b6000600254866105e49190610c4b565b600154604051637921219560e11b81529192506001600160a01b03169063f242432a9061061c90309089906000908790600401610bc8565b600060405180830381600087803b15801561063657600080fd5b505af115801561064a573d6000803e3d6000fd5b5050505085600360008282546106609190610c33565b9250508190555080600460008282546106799190610c33565b90915550909695505050505050565b61069182610271565b61069b81336106fa565b6102a383836107e2565b600080516020610cc88339815191526106be81336106fa565b60028290556040518281527f1d5de90e7c5b244ac5797698b15fe80a92524d933dafd79e001daf844555fb1c9060200160405180910390a15050565b6107048282610432565b6103275761071c816001600160a01b03166014610847565b610727836020610847565b604051602001610738929190610b59565b60408051601f198184030181529082905262461bcd60e51b825261031491600401610c00565b6107688282610432565b610327576000828152602081815260408083206001600160a01b03851684529091529020805460ff1916600117905561079e3390565b6001600160a01b0316816001600160a01b0316837f2f8788117e7eff1d82e926ec794901d17c78024a50270940304540a733656f0d60405160405180910390a45050565b6107ec8282610432565b15610327576000828152602081815260408083206001600160a01b0385168085529252808320805460ff1916905551339285917ff6391f5c32d9c69d2a47ea670b442974b53935d1edc7fd64eb21e047a839171b9190a45050565b60606000610856836002610c4b565b610861906002610c33565b6001600160401b0381111561088657634e487b7160e01b600052604160045260246000fd5b6040519080825280601f01601f1916602001820160405280156108b0576020820181803683370190505b509050600360fc1b816000815181106108d957634e487b7160e01b600052603260045260246000fd5b60200101906001600160f81b031916908160001a905350600f60fb1b8160018151811061091657634e487b7160e01b600052603260045260246000fd5b60200101906001600160f81b031916908160001a905350600061093a846002610c4b565b610945906001610c33565b90505b60018111156109d9576f181899199a1a9b1b9c1cb0b131b232b360811b85600f166010811061098757634e487b7160e01b600052603260045260246000fd5b1a60f81b8282815181106109ab57634e487b7160e01b600052603260045260246000fd5b60200101906001600160f81b031916908160001a90535060049490941c936109d281610c9a565b9050610948565b508315610a285760405162461bcd60e51b815260206004820181905260248201527f537472696e67733a20686578206c656e67746820696e73756666696369656e746044820152606401610314565b9392505050565b80356001600160a01b0381168114610a4657600080fd5b919050565b600060208284031215610a5c578081fd5b5035919050565b60008060408385031215610a75578081fd5b82359150610a8560208401610a2f565b90509250929050565b600060208284031215610a9f578081fd5b81356001600160e01b031981168114610a28578182fd5b600060208284031215610ac7578081fd5b5051919050565b60008060008060008060c08789031215610ae6578182fd5b86359550610af660208801610a2f565b9450610b0460408801610a2f565b9350606087013592506080870135915060a087013590509295509295509295565b600080600060608486031215610b39578283fd5b83359250610b4960208501610a2f565b9150604084013590509250925092565b76020b1b1b2b9b9a1b7b73a3937b61d1030b1b1b7bab73a1604d1b815260008351610b8b816017850160208801610c6a565b7001034b99036b4b9b9b4b733903937b6329607d1b6017918401918201528351610bbc816028840160208801610c6a565b01602801949350505050565b6001600160a01b0394851681529290931660208301526040820152606081019190915260a06080820181905260009082015260c00190565b6020815260008251806020840152610c1f816040850160208701610c6a565b601f01601f19169190910160400192915050565b60008219821115610c4657610c46610cb1565b500190565b6000816000190483118215151615610c6557610c65610cb1565b500290565b60005b83811015610c85578181015183820152602001610c6d565b83811115610c94576000848401525b50505050565b600081610ca957610ca9610cb1565b506000190190565b634e487b7160e01b600052601160045260246000fdfef9dcb70efa80ab2e15e6301babe010c481ee550c5335953c9ba3f97789fcb53979fb255b78648c966adc3c680f08ecaf12e124b92265f0bd145ccad7605f092fa2646970667358221220f58c9146b2c8ff08c14081d5c96fbe4a92408b020cb4aa9974d084a4dc81236a64736f6c63430008040033",
  "immutableReferences": {},
  "source": "pragma solidity ^0.8.0;\n\nimport \"./access/AccessControl.sol\";\nimport \"./Davinci.sol\";\n\n/** The FiatGateway contract allows buying NFTs from an external fiat payment.\n  *\n  * This contract connects to the Davinci contract.\n  * It must hold a balance of CERE recognized by Davinci.\n  *\n  * This contract uses the SimpleExchange API to buy NFTs.\n  *\n  * This contract is operational only when the exchange rate is set to a non-zero value.\n */\ncontract FiatGateway is AccessControl {\n\n    bytes32 public constant EXCHANGE_RATE_ORACLE = keccak256(\"EXCHANGE_RATE_ORACLE\");\n    bytes32 public constant PAYMENT_SERVICE = keccak256(\"PAYMENT_SERVICE\");\n\n    /** The token ID that represents the CERE currency for all payments in this contract. */\n    uint256 public constant CURRENCY = 0;\n\n    Davinci public davinci;\n    uint cereUnitsPerPenny;\n\n    /** How many USD cents were received so far, according to the payment service.\n     */\n    uint public totalPenniesReceived;\n\n    /** How many CERE Units were sold so far.\n     */\n    uint public totalCereUnitsSent;\n\n    /** An event emitted when the exchange rate was set to a new value.\n     *\n     * The rate is given as CERE Units (with 10 decimals) per USD cent (1 penny).\n     */\n    event SetExchangeRate(\n        uint256 cereUnitsPerPenny);\n\n    constructor(Davinci _davinci) {\n        davinci = _davinci;\n\n        _setupRole(DEFAULT_ADMIN_ROLE, _msgSender());\n    }\n\n    /** Set the exchange rate between fiat (USD) and Davinci currency (CERE).\n      *\n      * The rate is given as number of CERE Units (with 10 decimals) per USD cent (1 penny).\n      *\n      * Only the rate service with the EXCHANGE_RATE_ORACLE role can change the rate.\n     */\n    function setExchangeRate(uint _cereUnitsPerPenny)\n    public onlyRole(EXCHANGE_RATE_ORACLE) {\n\n        cereUnitsPerPenny = _cereUnitsPerPenny;\n\n        emit SetExchangeRate(_cereUnitsPerPenny);\n    }\n\n    /** Get the current exchange rate in CERE Units (with 10 decimals) per USD cent (1 penny).\n     */\n    function getExchangeRate()\n    public view returns (uint) {\n        return cereUnitsPerPenny;\n    }\n\n    /** Withdraw all CERE from this contract.\n      *\n      * Only accounts with DEFAULT_ADMIN_ROLE can withdraw.\n     */\n    function withdraw()\n    public onlyRole(DEFAULT_ADMIN_ROLE)\n    returns (uint) {\n\n        address admin = _msgSender();\n\n        uint amount = davinci.balanceOf(address(this), CURRENCY);\n\n        davinci.safeTransferFrom(\n            address(this),\n            admin,\n            CURRENCY,\n            amount,\n            \"\");\n\n        return amount;\n    }\n\n    /** Obtain CERE based on a fiat payment.\n      *\n      * The amount of fiat is recorded, and exchanged for an amount of CERE.\n      *\n      * Only the gateway with PAYMENT_SERVICE role can report successful payments.\n     */\n    function buyCereFromUsd(\n        uint penniesReceived,\n        address buyer,\n        uint nonce)\n    public onlyRole(PAYMENT_SERVICE)\n    returns (uint) {\n        require(cereUnitsPerPenny != 0, \"Exchange rate must be configured\");\n\n        uint cereToSend = penniesReceived * cereUnitsPerPenny;\n\n        davinci.safeTransferFrom(\n            address(this),\n            buyer,\n            CURRENCY,\n            cereToSend,\n            \"\");\n\n        totalPenniesReceived += penniesReceived;\n        totalCereUnitsSent += cereToSend;\n\n        return cereToSend;\n    }\n\n    /** Obtain CERE and buy an NFT based on a fiat payment.\n      *\n      * CERE tokens are obtained in the same way as buyCereFromUsd.\n      *\n      * Then, the tokens are used to buy an NFT in the same transaction. The NFT must be available for sale from the seller in SimpleExchange.\n      *\n      * Only the gateway with PAYMENT_SERVICE role can report successful payments.\n     */\n    function buyNftFromUsd(\n        uint penniesReceived,\n        address buyer,\n        address seller,\n        uint nftId,\n        uint nftPrice,\n        uint nonce)\n    public onlyRole(PAYMENT_SERVICE) {\n\n        uint boughtCere = buyCereFromUsd(penniesReceived, buyer, nonce);\n\n        require(boughtCere >= nftPrice, \"Not enough Cere to cover the NFT price\");\n\n        uint amount = 1;\n        davinci.takeOffer(buyer, seller, nftId, nftPrice, amount);\n    }\n\n    /** Guarantee that a version of Solidity with safe math is used.\n     */\n    function _mathIsSafe() internal pure {\n    unchecked {} // Use a keyword from Solidity 0.8.0.\n    }\n}",
  "sourcePath": "/home/a/CERE/davinci-nft/contracts/FiatGateway.sol",
  "compiler": {
    "name": "solc",
    "version": "0.8.4+commit.c7e474f2.Emscripten.clang"
  },
  "schemaVersion": "3.4.1",
  "updatedAt": "2021-09-13T17:06:10.044Z",
  "networkType": "ethereum",
  "devdoc": {
    "kind": "dev",
    "methods": {
      "getRoleAdmin(bytes32)": {
        "details": "Returns the admin role that controls `role`. See {grantRole} and {revokeRole}. To change a role's admin, use {_setRoleAdmin}."
      },
      "grantRole(bytes32,address)": {
        "details": "Grants `role` to `account`. If `account` had not been already granted `role`, emits a {RoleGranted} event. Requirements: - the caller must have ``role``'s admin role."
      },
      "hasRole(bytes32,address)": {
        "details": "Returns `true` if `account` has been granted `role`."
      },
      "renounceRole(bytes32,address)": {
        "details": "Revokes `role` from the calling account. Roles are often managed via {grantRole} and {revokeRole}: this function's purpose is to provide a mechanism for accounts to lose their privileges if they are compromised (such as when a trusted device is misplaced). If the calling account had been granted `role`, emits a {RoleRevoked} event. Requirements: - the caller must be `account`."
      },
      "revokeRole(bytes32,address)": {
        "details": "Revokes `role` from `account`. If `account` had been granted `role`, emits a {RoleRevoked} event. Requirements: - the caller must have ``role``'s admin role."
      },
      "supportsInterface(bytes4)": {
        "details": "See {IERC165-supportsInterface}."
      }
    },
    "version": 1
  },
  "userdoc": {
    "events": {
      "SetExchangeRate(uint256)": {
        "notice": "An event emitted when the exchange rate was set to a new value. The rate is given as CERE Units (with 10 decimals) per USD cent (1 penny)."
      }
    },
    "kind": "user",
    "methods": {
      "CURRENCY()": {
        "notice": "The token ID that represents the CERE currency for all payments in this contract. "
      },
      "buyCereFromUsd(uint256,address,uint256)": {
        "notice": "Obtain CERE based on a fiat payment. The amount of fiat is recorded, and exchanged for an amount of CERE. Only the gateway with PAYMENT_SERVICE role can report successful payments."
      },
      "buyNftFromUsd(uint256,address,address,uint256,uint256,uint256)": {
        "notice": "Obtain CERE and buy an NFT based on a fiat payment. CERE tokens are obtained in the same way as buyCereFromUsd. Then, the tokens are used to buy an NFT in the same transaction. The NFT must be available for sale from the seller in SimpleExchange. Only the gateway with PAYMENT_SERVICE role can report successful payments."
      },
      "getExchangeRate()": {
        "notice": "Get the current exchange rate in CERE Units (with 10 decimals) per USD cent (1 penny)."
      },
      "setExchangeRate(uint256)": {
        "notice": "Set the exchange rate between fiat (USD) and Davinci currency (CERE). The rate is given as number of CERE Units (with 10 decimals) per USD cent (1 penny). Only the rate service with the EXCHANGE_RATE_ORACLE role can change the rate."
      },
      "totalCereUnitsSent()": {
        "notice": "How many CERE Units were sold so far."
      },
      "totalPenniesReceived()": {
        "notice": "How many USD cents were received so far, according to the payment service."
      },
      "withdraw()": {
        "notice": "Withdraw all CERE from this contract. Only accounts with DEFAULT_ADMIN_ROLE can withdraw."
      }
    },
    "notice": "The FiatGateway contract allows buying NFTs from an external fiat payment. This contract connects to the Davinci contract. It must hold a balance of CERE recognized by Davinci. This contract uses the SimpleExchange API to buy NFTs. This contract is operational only when the exchange rate is set to a non-zero value.",
    "version": 1
  }
}