{
  "contractName": "FiatGateway",
  "abi": [
    {
      "anonymous": false,
      "inputs": [
        {
          "indexed": false,
          "internalType": "address",
          "name": "previousAdmin",
          "type": "address"
        },
        {
          "indexed": false,
          "internalType": "address",
          "name": "newAdmin",
          "type": "address"
        }
      ],
      "name": "AdminChanged",
      "type": "event"
    },
    {
      "anonymous": false,
      "inputs": [
        {
          "indexed": true,
          "internalType": "address",
          "name": "beacon",
          "type": "address"
        }
      ],
      "name": "BeaconUpgraded",
      "type": "event"
    },
    {
      "anonymous": false,
      "inputs": [
        {
          "indexed": true,
          "internalType": "bytes32",
          "name": "role",
          "type": "bytes32"
        },
        {
          "indexed": true,
          "internalType": "bytes32",
          "name": "previousAdminRole",
          "type": "bytes32"
        },
        {
          "indexed": true,
          "internalType": "bytes32",
          "name": "newAdminRole",
          "type": "bytes32"
        }
      ],
      "name": "RoleAdminChanged",
      "type": "event"
    },
    {
      "anonymous": false,
      "inputs": [
        {
          "indexed": true,
          "internalType": "bytes32",
          "name": "role",
          "type": "bytes32"
        },
        {
          "indexed": true,
          "internalType": "address",
          "name": "account",
          "type": "address"
        },
        {
          "indexed": true,
          "internalType": "address",
          "name": "sender",
          "type": "address"
        }
      ],
      "name": "RoleGranted",
      "type": "event"
    },
    {
      "anonymous": false,
      "inputs": [
        {
          "indexed": true,
          "internalType": "bytes32",
          "name": "role",
          "type": "bytes32"
        },
        {
          "indexed": true,
          "internalType": "address",
          "name": "account",
          "type": "address"
        },
        {
          "indexed": true,
          "internalType": "address",
          "name": "sender",
          "type": "address"
        }
      ],
      "name": "RoleRevoked",
      "type": "event"
    },
    {
      "anonymous": false,
      "inputs": [
        {
          "indexed": false,
          "internalType": "uint256",
          "name": "cereUnitsPerPenny",
          "type": "uint256"
        }
      ],
      "name": "SetExchangeRate",
      "type": "event"
    },
    {
      "anonymous": false,
      "inputs": [
        {
          "indexed": true,
          "internalType": "address",
          "name": "implementation",
          "type": "address"
        }
      ],
      "name": "Upgraded",
      "type": "event"
    },
    {
      "inputs": [],
      "name": "CURRENCY",
      "outputs": [
        {
          "internalType": "uint256",
          "name": "",
          "type": "uint256"
        }
      ],
      "stateMutability": "view",
      "type": "function"
    },
    {
      "inputs": [],
      "name": "DEFAULT_ADMIN_ROLE",
      "outputs": [
        {
          "internalType": "bytes32",
          "name": "",
          "type": "bytes32"
        }
      ],
      "stateMutability": "view",
      "type": "function"
    },
    {
      "inputs": [],
      "name": "EXCHANGE_RATE_ORACLE",
      "outputs": [
        {
          "internalType": "bytes32",
          "name": "",
          "type": "bytes32"
        }
      ],
      "stateMutability": "view",
      "type": "function"
    },
    {
      "inputs": [],
      "name": "PAYMENT_SERVICE",
      "outputs": [
        {
          "internalType": "bytes32",
          "name": "",
          "type": "bytes32"
        }
      ],
      "stateMutability": "view",
      "type": "function"
    },
    {
      "inputs": [],
      "name": "freeport",
      "outputs": [
        {
          "internalType": "contract Freeport",
          "name": "",
          "type": "address"
        }
      ],
      "stateMutability": "view",
      "type": "function"
    },
    {
      "inputs": [
        {
          "internalType": "bytes32",
          "name": "role",
          "type": "bytes32"
        }
      ],
      "name": "getRoleAdmin",
      "outputs": [
        {
          "internalType": "bytes32",
          "name": "",
          "type": "bytes32"
        }
      ],
      "stateMutability": "view",
      "type": "function"
    },
    {
      "inputs": [
        {
          "internalType": "bytes32",
          "name": "role",
          "type": "bytes32"
        },
        {
          "internalType": "address",
          "name": "account",
          "type": "address"
        }
      ],
      "name": "grantRole",
      "outputs": [],
      "stateMutability": "nonpayable",
      "type": "function"
    },
    {
      "inputs": [
        {
          "internalType": "bytes32",
          "name": "role",
          "type": "bytes32"
        },
        {
          "internalType": "address",
          "name": "account",
          "type": "address"
        }
      ],
      "name": "hasRole",
      "outputs": [
        {
          "internalType": "bool",
          "name": "",
          "type": "bool"
        }
      ],
      "stateMutability": "view",
      "type": "function"
    },
    {
      "inputs": [
        {
          "internalType": "address",
          "name": "",
          "type": "address"
        },
        {
          "internalType": "address",
          "name": "",
          "type": "address"
        },
        {
          "internalType": "uint256[]",
          "name": "",
          "type": "uint256[]"
        },
        {
          "internalType": "uint256[]",
          "name": "",
          "type": "uint256[]"
        },
        {
          "internalType": "bytes",
          "name": "",
          "type": "bytes"
        }
      ],
      "name": "onERC1155BatchReceived",
      "outputs": [
        {
          "internalType": "bytes4",
          "name": "",
          "type": "bytes4"
        }
      ],
      "stateMutability": "nonpayable",
      "type": "function"
    },
    {
      "inputs": [
        {
          "internalType": "address",
          "name": "",
          "type": "address"
        },
        {
          "internalType": "address",
          "name": "",
          "type": "address"
        },
        {
          "internalType": "uint256",
          "name": "",
          "type": "uint256"
        },
        {
          "internalType": "uint256",
          "name": "",
          "type": "uint256"
        },
        {
          "internalType": "bytes",
          "name": "",
          "type": "bytes"
        }
      ],
      "name": "onERC1155Received",
      "outputs": [
        {
          "internalType": "bytes4",
          "name": "",
          "type": "bytes4"
        }
      ],
      "stateMutability": "nonpayable",
      "type": "function"
    },
    {
      "inputs": [
        {
          "internalType": "bytes32",
          "name": "role",
          "type": "bytes32"
        },
        {
          "internalType": "address",
          "name": "account",
          "type": "address"
        }
      ],
      "name": "renounceRole",
      "outputs": [],
      "stateMutability": "nonpayable",
      "type": "function"
    },
    {
      "inputs": [
        {
          "internalType": "bytes32",
          "name": "role",
          "type": "bytes32"
        },
        {
          "internalType": "address",
          "name": "account",
          "type": "address"
        }
      ],
      "name": "revokeRole",
      "outputs": [],
      "stateMutability": "nonpayable",
      "type": "function"
    },
    {
      "inputs": [],
      "name": "sale",
      "outputs": [
        {
          "internalType": "contract Sale",
          "name": "",
          "type": "address"
        }
      ],
      "stateMutability": "view",
      "type": "function"
    },
    {
      "inputs": [],
      "name": "totalCereUnitsSent",
      "outputs": [
        {
          "internalType": "uint256",
          "name": "",
          "type": "uint256"
        }
      ],
      "stateMutability": "view",
      "type": "function"
    },
    {
      "inputs": [],
      "name": "totalPenniesReceived",
      "outputs": [
        {
          "internalType": "uint256",
          "name": "",
          "type": "uint256"
        }
      ],
      "stateMutability": "view",
      "type": "function"
    },
    {
      "inputs": [
        {
          "internalType": "address",
          "name": "newImplementation",
          "type": "address"
        }
      ],
      "name": "upgradeTo",
      "outputs": [],
      "stateMutability": "nonpayable",
      "type": "function"
    },
    {
      "inputs": [
        {
          "internalType": "address",
          "name": "newImplementation",
          "type": "address"
        },
        {
          "internalType": "bytes",
          "name": "data",
          "type": "bytes"
        }
      ],
      "name": "upgradeToAndCall",
      "outputs": [],
      "stateMutability": "payable",
      "type": "function"
    },
    {
      "inputs": [
        {
          "internalType": "bytes4",
          "name": "interfaceId",
          "type": "bytes4"
        }
      ],
      "name": "supportsInterface",
      "outputs": [
        {
          "internalType": "bool",
          "name": "",
          "type": "bool"
        }
      ],
      "stateMutability": "view",
      "type": "function"
    },
    {
      "inputs": [
        {
          "internalType": "contract Freeport",
          "name": "_freeport",
          "type": "address"
        },
        {
          "internalType": "contract Sale",
          "name": "_sale",
          "type": "address"
        }
      ],
      "name": "initialize",
      "outputs": [],
      "stateMutability": "nonpayable",
      "type": "function"
    },
    {
      "inputs": [],
      "name": "initialize_v2_0_0",
      "outputs": [],
      "stateMutability": "nonpayable",
      "type": "function"
    },
    {
      "inputs": [
        {
          "internalType": "uint256",
          "name": "_cereUnitsPerPenny",
          "type": "uint256"
        }
      ],
      "name": "setExchangeRate",
      "outputs": [],
      "stateMutability": "nonpayable",
      "type": "function"
    },
    {
      "inputs": [],
      "name": "getExchangeRate",
      "outputs": [
        {
          "internalType": "uint256",
          "name": "",
          "type": "uint256"
        }
      ],
      "stateMutability": "view",
      "type": "function"
    },
    {
      "inputs": [],
      "name": "withdrawCurrency",
      "outputs": [
        {
          "internalType": "uint256",
          "name": "",
          "type": "uint256"
        }
      ],
      "stateMutability": "nonpayable",
      "type": "function"
    },
    {
      "inputs": [
        {
          "internalType": "uint256",
          "name": "penniesReceived",
          "type": "uint256"
        },
        {
          "internalType": "address",
          "name": "buyer",
          "type": "address"
        },
        {
          "internalType": "uint256",
          "name": "nonce",
          "type": "uint256"
        }
      ],
      "name": "buyCereFromUsd",
      "outputs": [
        {
          "internalType": "uint256",
          "name": "",
          "type": "uint256"
        }
      ],
      "stateMutability": "nonpayable",
      "type": "function"
    },
    {
      "inputs": [
        {
          "internalType": "uint256",
          "name": "penniesReceived",
          "type": "uint256"
        },
        {
          "internalType": "address",
          "name": "buyer",
          "type": "address"
        },
        {
          "internalType": "address",
          "name": "seller",
          "type": "address"
        },
        {
          "internalType": "uint256",
          "name": "nftId",
          "type": "uint256"
        },
        {
          "internalType": "uint256",
          "name": "expectedPriceOrZero",
          "type": "uint256"
        },
        {
          "internalType": "uint256",
          "name": "nonce",
          "type": "uint256"
        }
      ],
      "name": "buyNftFromUsd",
      "outputs": [],
      "stateMutability": "nonpayable",
      "type": "function"
    }
  ],
  "bytecode": "0x608060405234801561001057600080fd5b506119e0806100206000396000f3fe6080604052600436106101265760003560e01c806301ffc9a71461012b578063248a9ca3146101605780632f2ff15d1461018e5780633263ba67146101b057806336568abe146101d25780633659cfe6146101f25780633d6f291f14610212578063485cc955146102275780634f1ef2861461024757806365b99f631461025a5780636ad1fe021461026f57806391d148541461029d5780639470ad85146102bd5780639c750286146102de578063a217fddf146102f5578063a87a93221461030a578063bc197c811461032a578063c4f7f9c51461036f578063c87113e21461038f578063d547741f146103b1578063db068e0e146103d1578063e65372e1146103f1578063e6aa216c14610408578063f23a6e611461041e578063f5361219146102f5575b600080fd5b34801561013757600080fd5b5061014b6101463660046112ed565b61044a565b60405190151581526020015b60405180910390f35b34801561016c57600080fd5b5061018061017b366004611317565b61046a565b604051908152602001610157565b34801561019a57600080fd5b506101ae6101a9366004611345565b61047f565b005b3480156101bc57600080fd5b5061018060008051602061196483398151915281565b3480156101de57600080fd5b506101ae6101ed366004611345565b6104a1565b3480156101fe57600080fd5b506101ae61020d366004611375565b610524565b34801561021e57600080fd5b506101ae61054b565b34801561023357600080fd5b506101ae610242366004611392565b6106c3565b6101ae610255366004611475565b610772565b34801561026657600080fd5b50610180610787565b34801561027b57600080fd5b5061016054610290906001600160a01b031681565b60405161015791906114c4565b3480156102a957600080fd5b5061014b6102b8366004611345565b610897565b3480156102c957600080fd5b5061015f54610290906001600160a01b031681565b3480156102ea57600080fd5b506101806101635481565b34801561030157600080fd5b50610180600081565b34801561031657600080fd5b506101ae6103253660046114d8565b6108c2565b34801561033657600080fd5b506103566103453660046115b3565b63bc197c8160e01b95945050505050565b6040516001600160e01b03199091168152602001610157565b34801561037b57600080fd5b5061018061038a366004611660565b6109d6565b34801561039b57600080fd5b5061018060008051602061192483398151915281565b3480156103bd57600080fd5b506101ae6103cc366004611345565b610a28565b3480156103dd57600080fd5b506101ae6103ec366004611317565b610a45565b3480156103fd57600080fd5b506101806101625481565b34801561041457600080fd5b5061016154610180565b34801561042a57600080fd5b50610356610439366004611698565b63f23a6e6160e01b95945050505050565b600061045582610a9b565b80610464575061046482610ad0565b92915050565b600090815260c9602052604090206001015490565b6104888261046a565b6104928133610af5565b61049c8383610b59565b505050565b6001600160a01b03811633146105165760405162461bcd60e51b815260206004820152602f60248201527f416363657373436f6e74726f6c3a2063616e206f6e6c792072656e6f756e636560448201526e103937b632b9903337b91039b2b63360891b60648201526084015b60405180910390fd5b6105208282610bdf565b5050565b61052d81610c46565b61054881604051806020016040528060008152506000610c8a565b50565b61015f5460408051632e5604bd60e21b815290516000926001600160a01b03169163b95812f49160048083019260209291908290030181865afa158015610596573d6000803e3d6000fd5b505050506040513d601f19601f820116820180604052508101906105ba9190611700565b61015f54604051636eb1769f60e11b81523060048201526001600160a01b039182166024820152919250600091829184169063dd62ed3e90604401602060405180830381865afa158015610612573d6000803e3d6000fd5b505050506040513d601f19601f82011682018060405250810190610636919061171d565b1190508015610643575050565b61015f5460405163095ea7b360e01b8152600019916001600160a01b038086169263095ea7b39261067a9216908590600401611736565b6020604051808303816000875af1158015610699573d6000803e3d6000fd5b505050506040513d601f19601f820116820180604052508101906106bd919061174f565b50505050565b600054610100900460ff16806106dc575060005460ff16155b6106f85760405162461bcd60e51b815260040161050d90611771565b600054610100900460ff1615801561071a576000805461ffff19166101011790555b610722610e06565b61072a610e23565b61015f80546001600160a01b038086166001600160a01b031992831617909255610160805492851692909116919091179055801561049c576000805461ff0019169055505050565b61077b82610c46565b61052082826001610c8a565b6000806107948133610af5565b61015f54604051627eeac760e11b815233916000916001600160a01b039091169062fdd58e906107ca9030908590600401611736565b602060405180830381865afa1580156107e7573d6000803e3d6000fd5b505050506040513d601f19601f8201168201806040525081019061080b919061171d565b61015f54604051637921219560e11b81523060048201526001600160a01b0385811660248301526000604483018190526064830185905260a0608484015260a483015292935091169063f242432a9060c401600060405180830381600087803b15801561087757600080fd5b505af115801561088b573d6000803e3d6000fd5b50929550505050505090565b600091825260c9602090815260408084206001600160a01b0393909316845291905290205460ff1690565b6000805160206119648339815191526108db8133610af5565b8661016260008282546108ee91906117d5565b90915550506101615460009061090490896117ed565b90508381101561094d5760405162461bcd60e51b8152602060048201526014602482015273125b9cdd59999a58da595b9d081c185e5b595b9d60621b604482015260640161050d565b61016054604051634880d24760e01b81526001600160a01b03898116600483015288811660248301526044820188905260648201879052600160848301819052921690634880d2479060a401600060405180830381600087803b1580156109b357600080fd5b505af11580156109c7573d6000803e3d6000fd5b50505050505050505050505050565b60006000805160206119648339815191526109f18133610af5565b60405162461bcd60e51b815260206004820152600c60248201526b111a5cd8dbdb9d1a5b9d595960a21b604482015260640161050d565b610a318261046a565b610a3b8133610af5565b61049c8383610bdf565b600080516020611924833981519152610a5e8133610af5565b6101618290556040518281527f1d5de90e7c5b244ac5797698b15fe80a92524d933dafd79e001daf844555fb1c9060200160405180910390a15050565b60006001600160e01b03198216637965db0b60e01b148061046457506301ffc9a760e01b6001600160e01b0319831614610464565b60006001600160e01b03198216630271189760e51b1480610464575061046482610a9b565b610aff8282610897565b61052057610b17816001600160a01b03166014610ea6565b610b22836020610ea6565b604051602001610b33929190611838565b60408051601f198184030181529082905262461bcd60e51b825261050d916004016118a7565b610b638282610897565b61052057600082815260c9602090815260408083206001600160a01b03851684529091529020805460ff19166001179055610b9b3390565b6001600160a01b0316816001600160a01b0316837f2f8788117e7eff1d82e926ec794901d17c78024a50270940304540a733656f0d60405160405180910390a45050565b610be98282610897565b1561052057600082815260c9602090815260408083206001600160a01b0385168085529252808320805460ff1916905551339285917ff6391f5c32d9c69d2a47ea670b442974b53935d1edc7fd64eb21e047a839171b9190a45050565b610c51600033610897565b6105485760405162461bcd60e51b815260206004820152600a60248201526927b7363c9020b236b4b760b11b604482015260640161050d565b6000610c94611048565b9050610c9f84611064565b600083511180610cac5750815b15610cbd57610cbb84846110f7565b505b7f4910fdfa16fed3260ed0e7147f7cc6da11a60208b5b9406d12a635614ffd9143805460ff16610dff57805460ff19166001178155604051610d38908690610d099085906024016114c4565b60408051601f198184030181529190526020810180516001600160e01b0316631b2ce7f360e11b1790526110f7565b50805460ff19168155610d49611048565b6001600160a01b0316826001600160a01b031614610dc15760405162461bcd60e51b815260206004820152602f60248201527f45524331393637557067726164653a207570677261646520627265616b73206660448201526e75727468657220757067726164657360881b606482015260840161050d565b610dca85611064565b6040516001600160a01b038616907fbc7cd75a20ee27fd9adebab32041f755214dbc6bffa90cc0225b39da2e5c2d3b90600090a25b5050505050565b610e0e6111e2565b610e16610e23565b610e21600033611240565b565b600054610100900460ff1680610e3c575060005460ff16155b610e585760405162461bcd60e51b815260040161050d90611771565b600054610100900460ff16158015610e7a576000805461ffff19166101011790555b610e8261124a565b610e8a61124a565b610e9261124a565b8015610548576000805461ff001916905550565b60606000610eb58360026117ed565b610ec09060026117d5565b6001600160401b03811115610ed757610ed76113c0565b6040519080825280601f01601f191660200182016040528015610f01576020820181803683370190505b509050600360fc1b81600081518110610f1c57610f1c6118da565b60200101906001600160f81b031916908160001a905350600f60fb1b81600181518110610f4b57610f4b6118da565b60200101906001600160f81b031916908160001a9053506000610f6f8460026117ed565b610f7a9060016117d5565b90505b6001811115610ff2576f181899199a1a9b1b9c1cb0b131b232b360811b85600f1660108110610fae57610fae6118da565b1a60f81b828281518110610fc457610fc46118da565b60200101906001600160f81b031916908160001a90535060049490941c93610feb816118f0565b9050610f7d565b5083156110415760405162461bcd60e51b815260206004820181905260248201527f537472696e67733a20686578206c656e67746820696e73756666696369656e74604482015260640161050d565b9392505050565b600080516020611944833981519152546001600160a01b031690565b803b6110c85760405162461bcd60e51b815260206004820152602d60248201527f455243313936373a206e657720696d706c656d656e746174696f6e206973206e60448201526c1bdd08184818dbdb9d1c9858dd609a1b606482015260840161050d565b60008051602061194483398151915280546001600160a01b0319166001600160a01b0392909216919091179055565b6060823b6111565760405162461bcd60e51b815260206004820152602660248201527f416464726573733a2064656c65676174652063616c6c20746f206e6f6e2d636f6044820152651b9d1c9858dd60d21b606482015260840161050d565b600080846001600160a01b0316846040516111719190611907565b600060405180830381855af49150503d80600081146111ac576040519150601f19603f3d011682016040523d82523d6000602084013e6111b1565b606091505b50915091506111d98282604051806060016040528060278152602001611984602791396112b4565b95945050505050565b600054610100900460ff16806111fb575060005460ff16155b6112175760405162461bcd60e51b815260040161050d90611771565b600054610100900460ff16158015610e82576000805461ffff1916610101179055610e8a61124a565b6105208282610b59565b600054610100900460ff1680611263575060005460ff16155b61127f5760405162461bcd60e51b815260040161050d90611771565b600054610100900460ff16158015610e92576000805461ffff19166101011790558015610548576000805461ff001916905550565b606083156112c3575081611041565b8251156112d35782518084602001fd5b8160405162461bcd60e51b815260040161050d91906118a7565b6000602082840312156112ff57600080fd5b81356001600160e01b03198116811461104157600080fd5b60006020828403121561132957600080fd5b5035919050565b6001600160a01b038116811461054857600080fd5b6000806040838503121561135857600080fd5b82359150602083013561136a81611330565b809150509250929050565b60006020828403121561138757600080fd5b813561104181611330565b600080604083850312156113a557600080fd5b82356113b081611330565b9150602083013561136a81611330565b634e487b7160e01b600052604160045260246000fd5b604051601f8201601f191681016001600160401b03811182821017156113fe576113fe6113c0565b604052919050565b600082601f83011261141757600080fd5b81356001600160401b03811115611430576114306113c0565b611443601f8201601f19166020016113d6565b81815284602083860101111561145857600080fd5b816020850160208301376000918101602001919091529392505050565b6000806040838503121561148857600080fd5b823561149381611330565b915060208301356001600160401b038111156114ae57600080fd5b6114ba85828601611406565b9150509250929050565b6001600160a01b0391909116815260200190565b60008060008060008060c087890312156114f157600080fd5b86359550602087013561150381611330565b9450604087013561151381611330565b959894975094956060810135955060808101359460a0909101359350915050565b600082601f83011261154557600080fd5b813560206001600160401b03821115611560576115606113c0565b8160051b61156f8282016113d6565b928352848101820192828101908785111561158957600080fd5b83870192505b848310156115a85782358252918301919083019061158f565b979650505050505050565b600080600080600060a086880312156115cb57600080fd5b85356115d681611330565b945060208601356115e681611330565b935060408601356001600160401b038082111561160257600080fd5b61160e89838a01611534565b9450606088013591508082111561162457600080fd5b61163089838a01611534565b9350608088013591508082111561164657600080fd5b5061165388828901611406565b9150509295509295909350565b60008060006060848603121561167557600080fd5b83359250602084013561168781611330565b929592945050506040919091013590565b600080600080600060a086880312156116b057600080fd5b85356116bb81611330565b945060208601356116cb81611330565b9350604086013592506060860135915060808601356001600160401b038111156116f457600080fd5b61165388828901611406565b60006020828403121561171257600080fd5b815161104181611330565b60006020828403121561172f57600080fd5b5051919050565b6001600160a01b03929092168252602082015260400190565b60006020828403121561176157600080fd5b8151801515811461104157600080fd5b6020808252602e908201527f496e697469616c697a61626c653a20636f6e747261637420697320616c72656160408201526d191e481a5b9a5d1a585b1a5e995960921b606082015260800190565b634e487b7160e01b600052601160045260246000fd5b600082198211156117e8576117e86117bf565b500190565b6000816000190483118215151615611807576118076117bf565b500290565b60005b8381101561182757818101518382015260200161180f565b838111156106bd5750506000910152565b76020b1b1b2b9b9a1b7b73a3937b61d1030b1b1b7bab73a1604d1b81526000835161186a81601785016020880161180c565b7001034b99036b4b9b9b4b733903937b6329607d1b601791840191820152835161189b81602884016020880161180c565b01602801949350505050565b60208152600082518060208401526118c681604085016020870161180c565b601f01601f19169190910160400192915050565b634e487b7160e01b600052603260045260246000fd5b6000816118ff576118ff6117bf565b506000190190565b6000825161191981846020870161180c565b919091019291505056fef9dcb70efa80ab2e15e6301babe010c481ee550c5335953c9ba3f97789fcb539360894a13ba1a3210667c828492db98dca3e2076cc3735a920a3ca505d382bbc79fb255b78648c966adc3c680f08ecaf12e124b92265f0bd145ccad7605f092f416464726573733a206c6f772d6c6576656c2064656c65676174652063616c6c206661696c6564a26469706673582212203a9195e2d20ea10c80ae29f6bc15ef903de095ff9e124b78864219e91f2cfb4d64736f6c634300080d0033",
  "immutableReferences": {},
  "source": "pragma solidity ^0.8.0;\n\nimport \"./freeportParts/Upgradeable.sol\";\nimport \"./Freeport.sol\";\nimport \"./Sale.sol\";\nimport \"@openzeppelin/contracts-upgradeable/token/ERC1155/utils/ERC1155HolderUpgradeable.sol\";\nimport \"@openzeppelin/contracts-upgradeable/proxy/utils/Initializable.sol\";\n\n/** The FiatGateway contract that supports paymnents in internal currency.\n  *\n  * This contract connects to the Freeport contract.\n  * It must hold a balance of internal currency recognized by Freeport.\n  *\n  * This contract calls takeOffer fn on Sale in order user to buy desired NFT.\n  *\n  * This contract is operational only when the exchange rate is set to a non-zero value.\n */\ncontract FiatGateway is Upgradeable, ERC1155HolderUpgradeable {\n\n    /** Supports interfaces of AccessControl and ERC1155Receiver.\n     */\n    function supportsInterface(bytes4 interfaceId)\n    public view virtual override(AccessControlUpgradeable, ERC1155ReceiverUpgradeable) returns (bool) {\n        return AccessControlUpgradeable.supportsInterface(interfaceId)\n        || ERC1155ReceiverUpgradeable.supportsInterface(interfaceId);\n    }\n\n    bytes32 public constant EXCHANGE_RATE_ORACLE = keccak256(\"EXCHANGE_RATE_ORACLE\");\n    bytes32 public constant PAYMENT_SERVICE = keccak256(\"PAYMENT_SERVICE\");\n\n    /** The token ID that represents the CERE currency for all payments in this contract. */\n    uint256 public constant CURRENCY = 0;\n\n    Freeport public freeport;\n    Sale public sale;\n\n    /** The current exchange rate of internal currency (with 6 decimals) per USD cent (1 penny).\n     */\n    uint cereUnitsPerPenny;\n\n    /** How many USD cents were received so far, according to the payment service.\n     */\n    uint public totalPenniesReceived;\n\n    /** Discontinued variable.\n     */\n    uint public totalCereUnitsSent;\n\n    /** An event emitted when the exchange rate was set to a new value.\n     *\n     * The rate is given as internal currency (with 6 decimals) per USD cent (1 penny).\n     */\n    event SetExchangeRate(\n        uint256 cereUnitsPerPenny);\n\n    function initialize(Freeport _freeport, Sale _sale) public initializer {\n        __Upgradeable_init();\n        __ERC1155Holder_init();\n\n        freeport = _freeport;\n        sale = _sale;\n    }\n\n    /** Initialize this contract after version 2.0.0.\n     *\n     * Allow deposit of USDC into Freeport.\n     */\n    function initialize_v2_0_0() public {\n        IERC20 erc20 = freeport.currencyContract();\n\n        bool init = erc20.allowance(address(this), address(freeport)) > 0;\n        if (init) return;\n\n        uint256 maxInt = 0xffffffffffffffffffffffffffffffffffffffffffffffffffffffffffffffff;\n        erc20.approve(address(freeport), maxInt);\n    }\n\n    /** Set the exchange rate between fiat (USD) and Freeport currency (CERE).\n      *\n      * The rate is given as number of internal currency units (with 6 decimals) per USD cent (1 penny).\n      *\n      * Only the rate service with the EXCHANGE_RATE_ORACLE role can change the rate.\n     */\n    function setExchangeRate(uint _cereUnitsPerPenny)\n    public onlyRole(EXCHANGE_RATE_ORACLE) {\n\n        cereUnitsPerPenny = _cereUnitsPerPenny;\n\n        emit SetExchangeRate(_cereUnitsPerPenny);\n    }\n\n    /** Get the current exchange rate in internal currency units (with 10 decimals) per USD cent (1 penny).\n     */\n    function getExchangeRate()\n    public view returns (uint) {\n        return cereUnitsPerPenny;\n    }\n\n    /** Withdraw all internal currency from this contract.\n      *\n      * Only accounts with DEFAULT_ADMIN_ROLE can withdraw.\n     */\n    function withdrawCurrency()\n    public onlyRole(DEFAULT_ADMIN_ROLE)\n    returns (uint) {\n        address admin = _msgSender();\n        uint amount = freeport.balanceOf(address(this), CURRENCY);\n\n        freeport.safeTransferFrom(\n            address(this),\n            admin,\n            CURRENCY,\n            amount,\n            \"\");\n\n        return amount;\n    }\n\n    /** Discontinued function, return an error.\n     */\n    function buyCereFromUsd(\n        uint penniesReceived,\n        address buyer,\n        uint nonce)\n    public onlyRole(PAYMENT_SERVICE)\n    returns (uint) {\n        revert(\"Discontinued\");\n        return 0;\n    }\n\n    /** Buy an NFT based on an off-chain fiat payment.\n      *\n      * The amount of fiat received is validated against the NFT price, using the configured exchange rate.\n      *\n      * Then, the tokens are used to buy an NFT in the same transaction. The NFT must be available for sale from the seller in SimpleExchange.\n      *\n      * Only the gateway with PAYMENT_SERVICE role can report successful payments.\n     *\n     * The parameter expectedPriceOrZero can be used to validate the price that the buyer expects to pay. This prevents\n     * a race condition with makeOffer or setExchangeRate. Pass 0 to disable this validation and accept any current price.\n     *\n     * The parameter nonce is ignored and accepted for compatibility.\n     */\n    function buyNftFromUsd(\n        uint penniesReceived,\n        address buyer,\n        address seller,\n        uint nftId,\n        uint expectedPriceOrZero,\n        uint nonce)\n    public onlyRole(PAYMENT_SERVICE) {\n        // Keep track of the total off-chain payments reported.\n        totalPenniesReceived += penniesReceived;\n\n        uint boughtTokens = penniesReceived * cereUnitsPerPenny;\n        require(boughtTokens >= expectedPriceOrZero, \"Insufficient payment\");\n\n        uint amount = 1;\n        sale.takeOffer(buyer, seller, nftId, expectedPriceOrZero, amount);\n    }\n\n    /** Guarantee that a version of Solidity with safe math is used.\n     */\n    function _mathIsSafe() internal pure {\n    unchecked {} // Use a keyword from Solidity 0.8.0.\n    }\n}",
  "sourcePath": "/home/nadtech/Visual_Studio/Freeport-Smart-Contracts/contracts/FiatGateway.sol",
  "compiler": {
    "name": "solc",
    "version": "0.8.13+commit.abaa5c0e.Emscripten.clang"
  },
  "schemaVersion": "3.4.4",
  "updatedAt": "2022-05-06T11:33:35.535Z",
  "devdoc": {
    "kind": "dev",
    "methods": {
      "getRoleAdmin(bytes32)": {
        "details": "Returns the admin role that controls `role`. See {grantRole} and {revokeRole}. To change a role's admin, use {_setRoleAdmin}."
      },
      "grantRole(bytes32,address)": {
        "details": "Grants `role` to `account`. If `account` had not been already granted `role`, emits a {RoleGranted} event. Requirements: - the caller must have ``role``'s admin role."
      },
      "hasRole(bytes32,address)": {
        "details": "Returns `true` if `account` has been granted `role`."
      },
      "renounceRole(bytes32,address)": {
        "details": "Revokes `role` from the calling account. Roles are often managed via {grantRole} and {revokeRole}: this function's purpose is to provide a mechanism for accounts to lose their privileges if they are compromised (such as when a trusted device is misplaced). If the calling account had been granted `role`, emits a {RoleRevoked} event. Requirements: - the caller must be `account`."
      },
      "revokeRole(bytes32,address)": {
        "details": "Revokes `role` from `account`. If `account` had been granted `role`, emits a {RoleRevoked} event. Requirements: - the caller must have ``role``'s admin role."
      }
    },
    "version": 1
  },
  "userdoc": {
    "events": {
      "SetExchangeRate(uint256)": {
        "notice": "An event emitted when the exchange rate was set to a new value. The rate is given as internal currency (with 6 decimals) per USD cent (1 penny)."
      }
    },
    "kind": "user",
    "methods": {
      "CURRENCY()": {
        "notice": "The token ID that represents the CERE currency for all payments in this contract. "
      },
      "buyCereFromUsd(uint256,address,uint256)": {
        "notice": "Discontinued function, return an error."
      },
      "buyNftFromUsd(uint256,address,address,uint256,uint256,uint256)": {
        "notice": "Buy an NFT based on an off-chain fiat payment. The amount of fiat received is validated against the NFT price, using the configured exchange rate. Then, the tokens are used to buy an NFT in the same transaction. The NFT must be available for sale from the seller in SimpleExchange. Only the gateway with PAYMENT_SERVICE role can report successful payments. The parameter expectedPriceOrZero can be used to validate the price that the buyer expects to pay. This prevents a race condition with makeOffer or setExchangeRate. Pass 0 to disable this validation and accept any current price. The parameter nonce is ignored and accepted for compatibility."
      },
      "getExchangeRate()": {
        "notice": "Get the current exchange rate in internal currency units (with 10 decimals) per USD cent (1 penny)."
      },
      "initialize_v2_0_0()": {
        "notice": "Initialize this contract after version 2.0.0. Allow deposit of USDC into Freeport."
      },
      "setExchangeRate(uint256)": {
        "notice": "Set the exchange rate between fiat (USD) and Freeport currency (CERE). The rate is given as number of internal currency units (with 6 decimals) per USD cent (1 penny). Only the rate service with the EXCHANGE_RATE_ORACLE role can change the rate."
      },
      "supportsInterface(bytes4)": {
        "notice": "Supports interfaces of AccessControl and ERC1155Receiver."
      },
      "totalCereUnitsSent()": {
        "notice": "Discontinued variable."
      },
      "totalPenniesReceived()": {
        "notice": "How many USD cents were received so far, according to the payment service."
      },
      "withdrawCurrency()": {
        "notice": "Withdraw all internal currency from this contract. Only accounts with DEFAULT_ADMIN_ROLE can withdraw."
      }
    },
    "notice": "The FiatGateway contract that supports paymnents in internal currency. This contract connects to the Freeport contract. It must hold a balance of internal currency recognized by Freeport. This contract calls takeOffer fn on Sale in order user to buy desired NFT. This contract is operational only when the exchange rate is set to a non-zero value.",
    "version": 1
  }
}