{
  "contractName": "Freeport",
  "abi": [
    {
      "anonymous": false,
      "inputs": [
        {
          "indexed": false,
          "internalType": "address",
          "name": "previousAdmin",
          "type": "address"
        },
        {
          "indexed": false,
          "internalType": "address",
          "name": "newAdmin",
          "type": "address"
        }
      ],
      "name": "AdminChanged",
      "type": "event"
    },
    {
      "anonymous": false,
      "inputs": [
        {
          "indexed": true,
          "internalType": "address",
          "name": "account",
          "type": "address"
        },
        {
          "indexed": true,
          "internalType": "address",
          "name": "operator",
          "type": "address"
        },
        {
          "indexed": false,
          "internalType": "bool",
          "name": "approved",
          "type": "bool"
        }
      ],
      "name": "ApprovalForAll",
      "type": "event"
    },
    {
      "anonymous": false,
      "inputs": [
        {
          "indexed": true,
          "internalType": "address",
          "name": "beacon",
          "type": "address"
        }
      ],
      "name": "BeaconUpgraded",
      "type": "event"
    },
    {
      "anonymous": false,
      "inputs": [
        {
          "indexed": true,
          "internalType": "address",
          "name": "account",
          "type": "address"
        },
        {
          "indexed": true,
          "internalType": "address",
          "name": "owner",
          "type": "address"
        },
        {
          "indexed": false,
          "internalType": "uint256",
          "name": "fraction",
          "type": "uint256"
        }
      ],
      "name": "JointAccountShareCreated",
      "type": "event"
    },
    {
      "anonymous": false,
      "inputs": [
        {
          "indexed": true,
          "internalType": "bytes32",
          "name": "role",
          "type": "bytes32"
        },
        {
          "indexed": true,
          "internalType": "bytes32",
          "name": "previousAdminRole",
          "type": "bytes32"
        },
        {
          "indexed": true,
          "internalType": "bytes32",
          "name": "newAdminRole",
          "type": "bytes32"
        }
      ],
      "name": "RoleAdminChanged",
      "type": "event"
    },
    {
      "anonymous": false,
      "inputs": [
        {
          "indexed": true,
          "internalType": "bytes32",
          "name": "role",
          "type": "bytes32"
        },
        {
          "indexed": true,
          "internalType": "address",
          "name": "account",
          "type": "address"
        },
        {
          "indexed": true,
          "internalType": "address",
          "name": "sender",
          "type": "address"
        }
      ],
      "name": "RoleGranted",
      "type": "event"
    },
    {
      "anonymous": false,
      "inputs": [
        {
          "indexed": true,
          "internalType": "bytes32",
          "name": "role",
          "type": "bytes32"
        },
        {
          "indexed": true,
          "internalType": "address",
          "name": "account",
          "type": "address"
        },
        {
          "indexed": true,
          "internalType": "address",
          "name": "sender",
          "type": "address"
        }
      ],
      "name": "RoleRevoked",
      "type": "event"
    },
    {
      "anonymous": false,
      "inputs": [
        {
          "indexed": true,
          "internalType": "uint256",
          "name": "nftId",
          "type": "uint256"
        },
        {
          "indexed": false,
          "internalType": "address",
          "name": "primaryRoyaltyAccount",
          "type": "address"
        },
        {
          "indexed": false,
          "internalType": "uint256",
          "name": "primaryRoyaltyCut",
          "type": "uint256"
        },
        {
          "indexed": false,
          "internalType": "uint256",
          "name": "primaryRoyaltyMinimum",
          "type": "uint256"
        },
        {
          "indexed": false,
          "internalType": "address",
          "name": "secondaryRoyaltyAccount",
          "type": "address"
        },
        {
          "indexed": false,
          "internalType": "uint256",
          "name": "secondaryRoyaltyCut",
          "type": "uint256"
        },
        {
          "indexed": false,
          "internalType": "uint256",
          "name": "secondaryRoyaltyMinimum",
          "type": "uint256"
        }
      ],
      "name": "RoyaltiesConfigured",
      "type": "event"
    },
    {
      "anonymous": false,
      "inputs": [
        {
          "indexed": true,
          "internalType": "uint256",
          "name": "nftId",
          "type": "uint256"
        },
        {
          "indexed": false,
          "internalType": "uint256",
          "name": "lockUntil",
          "type": "uint256"
        }
      ],
      "name": "RoyaltiesLocked",
      "type": "event"
    },
    {
      "anonymous": false,
      "inputs": [
        {
          "indexed": true,
          "internalType": "address",
          "name": "operator",
          "type": "address"
        },
        {
          "indexed": true,
          "internalType": "address",
          "name": "from",
          "type": "address"
        },
        {
          "indexed": true,
          "internalType": "address",
          "name": "to",
          "type": "address"
        },
        {
          "indexed": false,
          "internalType": "uint256[]",
          "name": "ids",
          "type": "uint256[]"
        },
        {
          "indexed": false,
          "internalType": "uint256[]",
          "name": "values",
          "type": "uint256[]"
        }
      ],
      "name": "TransferBatch",
      "type": "event"
    },
    {
      "anonymous": false,
      "inputs": [
        {
          "indexed": true,
          "internalType": "address",
          "name": "operator",
          "type": "address"
        },
        {
          "indexed": true,
          "internalType": "address",
          "name": "from",
          "type": "address"
        },
        {
          "indexed": true,
          "internalType": "address",
          "name": "to",
          "type": "address"
        },
        {
          "indexed": false,
          "internalType": "uint256",
          "name": "id",
          "type": "uint256"
        },
        {
          "indexed": false,
          "internalType": "uint256",
          "name": "value",
          "type": "uint256"
        }
      ],
      "name": "TransferSingle",
      "type": "event"
    },
    {
      "anonymous": false,
      "inputs": [
        {
          "indexed": false,
          "internalType": "string",
          "name": "value",
          "type": "string"
        },
        {
          "indexed": true,
          "internalType": "uint256",
          "name": "id",
          "type": "uint256"
        }
      ],
      "name": "URI",
      "type": "event"
    },
    {
      "anonymous": false,
      "inputs": [
        {
          "indexed": true,
          "internalType": "address",
          "name": "implementation",
          "type": "address"
        }
      ],
      "name": "Upgraded",
      "type": "event"
    },
    {
      "inputs": [],
      "name": "BASIS_POINTS",
      "outputs": [
        {
          "internalType": "uint256",
          "name": "",
          "type": "uint256"
        }
      ],
      "stateMutability": "view",
      "type": "function"
    },
    {
      "inputs": [],
      "name": "BYPASS_SENDER",
      "outputs": [
        {
          "internalType": "bytes32",
          "name": "",
          "type": "bytes32"
        }
      ],
      "stateMutability": "view",
      "type": "function"
    },
    {
      "inputs": [],
      "name": "CURRENCY",
      "outputs": [
        {
          "internalType": "uint256",
          "name": "",
          "type": "uint256"
        }
      ],
      "stateMutability": "view",
      "type": "function"
    },
    {
      "inputs": [],
      "name": "DEFAULT_ADMIN_ROLE",
      "outputs": [
        {
          "internalType": "bytes32",
          "name": "",
          "type": "bytes32"
        }
      ],
      "stateMutability": "view",
      "type": "function"
    },
    {
      "inputs": [],
      "name": "MAX_JOINT_ACCOUNT_SHARES",
      "outputs": [
        {
          "internalType": "uint256",
          "name": "",
          "type": "uint256"
        }
      ],
      "stateMutability": "view",
      "type": "function"
    },
    {
      "inputs": [],
      "name": "META_TX_FORWARDER",
      "outputs": [
        {
          "internalType": "bytes32",
          "name": "",
          "type": "bytes32"
        }
      ],
      "stateMutability": "view",
      "type": "function"
    },
    {
      "inputs": [],
      "name": "TRANSFER_OPERATOR",
      "outputs": [
        {
          "internalType": "bytes32",
          "name": "",
          "type": "bytes32"
        }
      ],
      "stateMutability": "view",
      "type": "function"
    },
    {
      "inputs": [
        {
          "internalType": "address",
          "name": "account",
          "type": "address"
        },
        {
          "internalType": "uint256",
          "name": "id",
          "type": "uint256"
        }
      ],
      "name": "balanceOf",
      "outputs": [
        {
          "internalType": "uint256",
          "name": "",
          "type": "uint256"
        }
      ],
      "stateMutability": "view",
      "type": "function"
    },
    {
      "inputs": [
        {
          "internalType": "address[]",
          "name": "accounts",
          "type": "address[]"
        },
        {
          "internalType": "uint256[]",
          "name": "ids",
          "type": "uint256[]"
        }
      ],
      "name": "balanceOfBatch",
      "outputs": [
        {
          "internalType": "uint256[]",
          "name": "",
          "type": "uint256[]"
        }
      ],
      "stateMutability": "view",
      "type": "function"
    },
    {
      "inputs": [
        {
          "internalType": "address",
          "name": "account",
          "type": "address"
        },
        {
          "internalType": "address",
          "name": "owner",
          "type": "address"
        }
      ],
      "name": "balanceOfJAOwner",
      "outputs": [
        {
          "internalType": "uint256",
          "name": "",
          "type": "uint256"
        }
      ],
      "stateMutability": "view",
      "type": "function"
    },
    {
      "inputs": [
        {
          "internalType": "address",
          "name": "from",
          "type": "address"
        },
        {
          "internalType": "uint256",
          "name": "nftId",
          "type": "uint256"
        },
        {
          "internalType": "uint256",
          "name": "price",
          "type": "uint256"
        },
        {
          "internalType": "uint256",
          "name": "amount",
          "type": "uint256"
        }
      ],
      "name": "calculateTotalRoyalties",
      "outputs": [
        {
          "internalType": "uint256",
          "name": "",
          "type": "uint256"
        },
        {
          "internalType": "address",
          "name": "",
          "type": "address"
        }
      ],
      "stateMutability": "view",
      "type": "function"
    },
    {
      "inputs": [
        {
          "internalType": "address",
          "name": "from",
          "type": "address"
        },
        {
          "internalType": "uint256",
          "name": "nftId",
          "type": "uint256"
        },
        {
          "internalType": "uint256",
          "name": "price",
          "type": "uint256"
        },
        {
          "internalType": "uint256",
          "name": "amount",
          "type": "uint256"
        }
      ],
      "name": "captureFee",
      "outputs": [
        {
          "internalType": "uint256",
          "name": "",
          "type": "uint256"
        }
      ],
      "stateMutability": "nonpayable",
      "type": "function"
    },
    {
      "inputs": [
        {
          "internalType": "uint256",
          "name": "nftId",
          "type": "uint256"
        },
        {
          "internalType": "address",
          "name": "primaryRoyaltyAccount",
          "type": "address"
        },
        {
          "internalType": "uint256",
          "name": "primaryRoyaltyCut",
          "type": "uint256"
        },
        {
          "internalType": "uint256",
          "name": "primaryRoyaltyMinimum",
          "type": "uint256"
        },
        {
          "internalType": "address",
          "name": "secondaryRoyaltyAccount",
          "type": "address"
        },
        {
          "internalType": "uint256",
          "name": "secondaryRoyaltyCut",
          "type": "uint256"
        },
        {
          "internalType": "uint256",
          "name": "secondaryRoyaltyMinimum",
          "type": "uint256"
        }
      ],
      "name": "configureRoyalties",
      "outputs": [],
      "stateMutability": "nonpayable",
      "type": "function"
    },
    {
      "inputs": [
        {
          "internalType": "address[]",
          "name": "owners",
          "type": "address[]"
        },
        {
          "internalType": "uint256[]",
          "name": "fractions",
          "type": "uint256[]"
        }
      ],
      "name": "createJointAccount",
      "outputs": [
        {
          "internalType": "address",
          "name": "",
          "type": "address"
        }
      ],
      "stateMutability": "nonpayable",
      "type": "function"
    },
    {
      "inputs": [],
      "name": "currencyContract",
      "outputs": [
        {
          "internalType": "contract IERC20",
          "name": "",
          "type": "address"
        }
      ],
      "stateMutability": "view",
      "type": "function"
    },
    {
      "inputs": [
        {
          "internalType": "uint256",
          "name": "amount",
          "type": "uint256"
        }
      ],
      "name": "deposit",
      "outputs": [],
      "stateMutability": "nonpayable",
      "type": "function"
    },
    {
      "inputs": [
        {
          "internalType": "address",
          "name": "account",
          "type": "address"
        }
      ],
      "name": "distributeJointAccountCereToken",
      "outputs": [],
      "stateMutability": "nonpayable",
      "type": "function"
    },
    {
      "inputs": [
        {
          "internalType": "address",
          "name": "account",
          "type": "address"
        }
      ],
      "name": "distributeJointAccountERC20",
      "outputs": [],
      "stateMutability": "nonpayable",
      "type": "function"
    },
    {
      "inputs": [
        {
          "internalType": "address",
          "name": "account",
          "type": "address"
        },
        {
          "internalType": "address",
          "name": "maybeOwner",
          "type": "address"
        }
      ],
      "name": "fractionOfJAOwner",
      "outputs": [
        {
          "internalType": "uint256",
          "name": "",
          "type": "uint256"
        }
      ],
      "stateMutability": "view",
      "type": "function"
    },
    {
      "inputs": [
        {
          "internalType": "address",
          "name": "issuer",
          "type": "address"
        },
        {
          "internalType": "uint32",
          "name": "nonce",
          "type": "uint32"
        },
        {
          "internalType": "uint64",
          "name": "supply",
          "type": "uint64"
        }
      ],
      "name": "getNftId",
      "outputs": [
        {
          "internalType": "uint256",
          "name": "",
          "type": "uint256"
        }
      ],
      "stateMutability": "pure",
      "type": "function"
    },
    {
      "inputs": [
        {
          "internalType": "bytes32",
          "name": "role",
          "type": "bytes32"
        }
      ],
      "name": "getRoleAdmin",
      "outputs": [
        {
          "internalType": "bytes32",
          "name": "",
          "type": "bytes32"
        }
      ],
      "stateMutability": "view",
      "type": "function"
    },
    {
      "inputs": [
        {
          "internalType": "uint256",
          "name": "nftId",
          "type": "uint256"
        }
      ],
      "name": "getRoyalties",
      "outputs": [
        {
          "internalType": "address",
          "name": "primaryRoyaltyAccount",
          "type": "address"
        },
        {
          "internalType": "uint256",
          "name": "primaryRoyaltyCut",
          "type": "uint256"
        },
        {
          "internalType": "uint256",
          "name": "primaryRoyaltyMinimum",
          "type": "uint256"
        },
        {
          "internalType": "address",
          "name": "secondaryRoyaltyAccount",
          "type": "address"
        },
        {
          "internalType": "uint256",
          "name": "secondaryRoyaltyCut",
          "type": "uint256"
        },
        {
          "internalType": "uint256",
          "name": "secondaryRoyaltyMinimum",
          "type": "uint256"
        }
      ],
      "stateMutability": "view",
      "type": "function"
    },
    {
      "inputs": [
        {
          "internalType": "uint256",
          "name": "nftId",
          "type": "uint256"
        },
        {
          "internalType": "address",
          "name": "beneficiary",
          "type": "address"
        }
      ],
      "name": "getRoyaltiesForBeneficiary",
      "outputs": [
        {
          "internalType": "uint256",
          "name": "primaryCut",
          "type": "uint256"
        },
        {
          "internalType": "uint256",
          "name": "primaryMinimum",
          "type": "uint256"
        },
        {
          "internalType": "uint256",
          "name": "secondaryCut",
          "type": "uint256"
        },
        {
          "internalType": "uint256",
          "name": "secondaryMinimum",
          "type": "uint256"
        }
      ],
      "stateMutability": "view",
      "type": "function"
    },
    {
      "inputs": [
        {
          "internalType": "bytes32",
          "name": "role",
          "type": "bytes32"
        },
        {
          "internalType": "address",
          "name": "account",
          "type": "address"
        }
      ],
      "name": "grantRole",
      "outputs": [],
      "stateMutability": "nonpayable",
      "type": "function"
    },
    {
      "inputs": [
        {
          "internalType": "bytes32",
          "name": "role",
          "type": "bytes32"
        },
        {
          "internalType": "address",
          "name": "account",
          "type": "address"
        }
      ],
      "name": "hasRole",
      "outputs": [
        {
          "internalType": "bool",
          "name": "",
          "type": "bool"
        }
      ],
      "stateMutability": "view",
      "type": "function"
    },
    {
      "inputs": [
        {
          "internalType": "address",
          "name": "account",
          "type": "address"
        },
        {
          "internalType": "address",
          "name": "operator",
          "type": "address"
        }
      ],
      "name": "isApprovedForAll",
      "outputs": [
        {
          "internalType": "bool",
          "name": "",
          "type": "bool"
        }
      ],
      "stateMutability": "view",
      "type": "function"
    },
    {
      "inputs": [
        {
          "internalType": "address",
          "name": "forwarder",
          "type": "address"
        }
      ],
      "name": "isTrustedForwarder",
      "outputs": [
        {
          "internalType": "bool",
          "name": "",
          "type": "bool"
        }
      ],
      "stateMutability": "view",
      "type": "function"
    },
    {
      "inputs": [
        {
          "internalType": "address",
          "name": "",
          "type": "address"
        }
      ],
      "name": "issuanceNonces",
      "outputs": [
        {
          "internalType": "uint32",
          "name": "",
          "type": "uint32"
        }
      ],
      "stateMutability": "view",
      "type": "function"
    },
    {
      "inputs": [
        {
          "internalType": "uint64",
          "name": "supply",
          "type": "uint64"
        },
        {
          "internalType": "bytes",
          "name": "data",
          "type": "bytes"
        }
      ],
      "name": "issue",
      "outputs": [
        {
          "internalType": "uint256",
          "name": "",
          "type": "uint256"
        }
      ],
      "stateMutability": "nonpayable",
      "type": "function"
    },
    {
      "inputs": [
        {
          "internalType": "address",
          "name": "",
          "type": "address"
        },
        {
          "internalType": "uint256",
          "name": "",
          "type": "uint256"
        }
      ],
      "name": "jointAccounts",
      "outputs": [
        {
          "internalType": "address",
          "name": "owner",
          "type": "address"
        },
        {
          "internalType": "uint256",
          "name": "fraction",
          "type": "uint256"
        }
      ],
      "stateMutability": "view",
      "type": "function"
    },
    {
      "inputs": [
        {
          "internalType": "uint256",
          "name": "nftId",
          "type": "uint256"
        },
        {
          "internalType": "uint256",
          "name": "lockUntil",
          "type": "uint256"
        }
      ],
      "name": "lockRoyalties",
      "outputs": [],
      "stateMutability": "nonpayable",
      "type": "function"
    },
    {
      "inputs": [
        {
          "internalType": "address[]",
          "name": "owners",
          "type": "address[]"
        },
        {
          "internalType": "uint256[]",
          "name": "fractions",
          "type": "uint256[]"
        }
      ],
      "name": "makeAddressOfJointAccount",
      "outputs": [
        {
          "internalType": "address",
          "name": "",
          "type": "address"
        }
      ],
      "stateMutability": "pure",
      "type": "function"
    },
    {
      "inputs": [
        {
          "internalType": "bytes32",
          "name": "role",
          "type": "bytes32"
        },
        {
          "internalType": "address",
          "name": "account",
          "type": "address"
        }
      ],
      "name": "renounceRole",
      "outputs": [],
      "stateMutability": "nonpayable",
      "type": "function"
    },
    {
      "inputs": [
        {
          "internalType": "bytes32",
          "name": "role",
          "type": "bytes32"
        },
        {
          "internalType": "address",
          "name": "account",
          "type": "address"
        }
      ],
      "name": "revokeRole",
      "outputs": [],
      "stateMutability": "nonpayable",
      "type": "function"
    },
    {
      "inputs": [
        {
          "internalType": "address",
          "name": "from",
          "type": "address"
        },
        {
          "internalType": "address",
          "name": "to",
          "type": "address"
        },
        {
          "internalType": "uint256[]",
          "name": "ids",
          "type": "uint256[]"
        },
        {
          "internalType": "uint256[]",
          "name": "amounts",
          "type": "uint256[]"
        },
        {
          "internalType": "bytes",
          "name": "data",
          "type": "bytes"
        }
      ],
      "name": "safeBatchTransferFrom",
      "outputs": [],
      "stateMutability": "nonpayable",
      "type": "function"
    },
    {
      "inputs": [
        {
          "internalType": "address",
          "name": "from",
          "type": "address"
        },
        {
          "internalType": "address",
          "name": "to",
          "type": "address"
        },
        {
          "internalType": "uint256",
          "name": "id",
          "type": "uint256"
        },
        {
          "internalType": "uint256",
          "name": "amount",
          "type": "uint256"
        },
        {
          "internalType": "bytes",
          "name": "data",
          "type": "bytes"
        }
      ],
      "name": "safeTransferFrom",
      "outputs": [],
      "stateMutability": "nonpayable",
      "type": "function"
    },
    {
      "inputs": [
        {
          "internalType": "address",
          "name": "operator",
          "type": "address"
        },
        {
          "internalType": "bool",
          "name": "approved",
          "type": "bool"
        }
      ],
      "name": "setApprovalForAll",
      "outputs": [],
      "stateMutability": "nonpayable",
      "type": "function"
    },
    {
      "inputs": [
        {
          "internalType": "address",
          "name": "_currencyContract",
          "type": "address"
        }
      ],
      "name": "setERC20",
      "outputs": [],
      "stateMutability": "nonpayable",
      "type": "function"
    },
    {
      "inputs": [
        {
          "internalType": "string",
          "name": "newuri",
          "type": "string"
        }
      ],
      "name": "setURI",
      "outputs": [],
      "stateMutability": "nonpayable",
      "type": "function"
    },
    {
      "inputs": [
        {
          "internalType": "bytes4",
          "name": "interfaceId",
          "type": "bytes4"
        }
      ],
      "name": "supportsInterface",
      "outputs": [
        {
          "internalType": "bool",
          "name": "",
          "type": "bool"
        }
      ],
      "stateMutability": "view",
      "type": "function"
    },
    {
      "inputs": [
        {
          "internalType": "address",
          "name": "from",
          "type": "address"
        },
        {
          "internalType": "address",
          "name": "to",
          "type": "address"
        },
        {
          "internalType": "uint256",
          "name": "id",
          "type": "uint256"
        },
        {
          "internalType": "uint256",
          "name": "amount",
          "type": "uint256"
        }
      ],
      "name": "transferFrom",
      "outputs": [],
      "stateMutability": "nonpayable",
      "type": "function"
    },
    {
      "inputs": [
        {
          "internalType": "address",
          "name": "newImplementation",
          "type": "address"
        }
      ],
      "name": "upgradeTo",
      "outputs": [],
      "stateMutability": "nonpayable",
      "type": "function"
    },
    {
      "inputs": [
        {
          "internalType": "address",
          "name": "newImplementation",
          "type": "address"
        },
        {
          "internalType": "bytes",
          "name": "data",
          "type": "bytes"
        }
      ],
      "name": "upgradeToAndCall",
      "outputs": [],
      "stateMutability": "payable",
      "type": "function"
    },
    {
      "inputs": [
        {
          "internalType": "uint256",
          "name": "",
          "type": "uint256"
        }
      ],
      "name": "uri",
      "outputs": [
        {
          "internalType": "string",
          "name": "",
          "type": "string"
        }
      ],
      "stateMutability": "view",
      "type": "function"
    },
    {
      "inputs": [
        {
          "internalType": "uint256",
          "name": "amount",
          "type": "uint256"
        }
      ],
      "name": "withdraw",
      "outputs": [],
      "stateMutability": "nonpayable",
      "type": "function"
    },
    {
      "inputs": [],
      "name": "initialize",
      "outputs": [],
      "stateMutability": "nonpayable",
      "type": "function"
    }
  ],
  "bytecode": "0x608060405234801561001057600080fd5b50614338806100206000396000f3fe60806040526004361061020c5760003560e01c8062fdd58e1461021157806301ffc9a71461024457806302fe5305146102745780630e89341c14610296578063248a9ca3146102c35780632c8f284c146102e35780632e1a7d4d146103035780632eb2c2d6146103235780632f2ff15d1461034357806330b064211461036357806336568abe146103785780633659cfe61461039857806339b276f4146103b85780633c6b5709146103d8578063448588e3146103f85780634559a29b1461041a5780634e1273f4146104485780634f1ef286146104755780635611cac214610488578063572b6c05146104b557806358556fb0146104d55780635c5d6788146104f557806360e3ecd0146105155780638129fc1c146105375780638c226d191461054c57806391d148541461056c5780639a86e8ce1461058c5780639e00bb96146105ae578063a217fddf146105ce578063a22cb465146105e3578063acc08fa514610603578063ad09608a1461064c578063b6b55f251461066c578063b95812f41461068c578063ba7f4dfe146106ad578063bb3bafd6146106cd578063c29a6fda14610753578063d547741f14610773578063e1f1c4a714610793578063e24b0a2b146107a9578063e985e9c5146107e9578063e9c1788014610809578063f242432a14610846578063f410ca7114610866578063f5361219146105ce578063fe99049a14610886575b600080fd5b34801561021d57600080fd5b5061023161022c3660046134bd565b6108a6565b6040519081526020015b60405180910390f35b34801561025057600080fd5b5061026461025f3660046134fd565b610942565b604051901515815260200161023b565b34801561028057600080fd5b5061029461028f3660046135b9565b61095c565b005b3480156102a257600080fd5b506102b66102b1366004613601565b6109ae565b60405161023b9190613672565b3480156102cf57600080fd5b506102316102de366004613601565b610a42565b3480156102ef57600080fd5b506102316102fe366004613685565b610a57565b34801561030f57600080fd5b5061029461031e366004613601565b610ae2565b34801561032f57600080fd5b5061029461033e36600461376c565b610b75565b34801561034f57600080fd5b5061029461035e366004613815565b610e4e565b34801561036f57600080fd5b50610231600a81565b34801561038457600080fd5b50610294610393366004613815565b610e72565b3480156103a457600080fd5b506102946103b3366004613838565b610f00565b3480156103c457600080fd5b506102946103d3366004613853565b610f24565b3480156103e457600080fd5b506102316103f336600461388c565b61100f565b34801561040457600080fd5b506102316000805160206142b083398151915281565b34801561042657600080fd5b5061043a6104353660046134bd565b611040565b60405161023b9291906138da565b34801561045457600080fd5b506104686104633660046138f3565b611087565b60405161023b91906139f8565b610294610483366004613a0b565b6111b0565b34801561049457600080fd5b506104a86104a33660046138f3565b6111c5565b60405161023b9190613a4e565b3480156104c157600080fd5b506102646104d0366004613838565b6111fe565b3480156104e157600080fd5b506102316104f0366004613a62565b611218565b34801561050157600080fd5b50610231610510366004613a7e565b61122c565b34801561052157600080fd5b5061023160008051602061427083398151915281565b34801561054357600080fd5b506102946112c4565b34801561055857600080fd5b50610294610567366004613838565b611337565b34801561057857600080fd5b50610264610587366004613815565b6113e4565b34801561059857600080fd5b5061023160008051602061425083398151915281565b3480156105ba57600080fd5b506102316105c9366004613685565b61140f565b3480156105da57600080fd5b50610231600081565b3480156105ef57600080fd5b506102946105fe366004613ac5565b611450565b34801561060f57600080fd5b5061063761061e366004613838565b61012e6020526000908152604090205463ffffffff1681565b60405163ffffffff909116815260200161023b565b34801561065857600080fd5b50610294610667366004613afc565b611563565b34801561067857600080fd5b50610294610687366004613601565b61178e565b34801561069857600080fd5b5061012d546104a8906001600160a01b031681565b3480156106b957600080fd5b506104a86106c83660046138f3565b611835565b3480156106d957600080fd5b506107416106e8366004613601565b6000908152610130602090815260408083205461013183528184205461013284528285205461013385528386205461013486528487205461013590965293909520546001600160a01b0392831696919594929093169290565b60405161023b96959493929190613b5f565b34801561075f57600080fd5b5061029461076e366004613838565b611b35565b34801561077f57600080fd5b5061029461078e366004613815565b611b85565b34801561079f57600080fd5b5061023161271081565b3480156107b557600080fd5b506107c96107c4366004613815565b611ba4565b60408051948552602085019390935291830152606082015260800161023b565b3480156107f557600080fd5b50610264610804366004613685565b611cb0565b34801561081557600080fd5b50610829610824366004613a7e565b611d05565b604080519283526001600160a01b0390911660208301520161023b565b34801561085257600080fd5b50610294610861366004613b99565b611de6565b34801561087257600080fd5b50610294610881366004613838565b611f6e565b34801561089257600080fd5b506102946108a1366004613bfd565b6120db565b60006001600160a01b0383166109175760405162461bcd60e51b815260206004820152602b60248201527f455243313135353a2062616c616e636520717565727920666f7220746865207a60448201526a65726f206164647265737360a81b60648201526084015b60405180910390fd5b50600081815260c9602090815260408083206001600160a01b03861684529091529020545b92915050565b600061094d82612157565b8061093c575061093c826121a7565b61096960006105876121cc565b6109a25760405162461bcd60e51b815260206004820152600a60248201526937b7363c9030b236b4b760b11b604482015260640161090e565b6109ab816121db565b50565b606060cb80546109bd90613c3f565b80601f01602080910402602001604051908101604052809291908181526020018280546109e990613c3f565b8015610a365780601f10610a0b57610100808354040283529160200191610a36565b820191906000526020600020905b815481529060010190602001808311610a1957829003601f168201915b50505050509050919050565b600090815260fb602052604090206001015490565b6001600160a01b038216600090815261012f60205260408120815b8154811015610ad7576000828281548110610a8f57610a8f613c79565b6000918252602090912060029091020180549091506001600160a01b03808716911603610ac45760010154925061093c915050565b5080610acf81613ca5565b915050610a72565b506000949350505050565b6000610aec6121cc565b9050610afa816000846121ee565b61012d5460405163a9059cbb60e01b81526001600160a01b039091169063a9059cbb90610b2d90849086906004016138da565b6020604051808303816000875af1158015610b4c573d6000803e3d6000fd5b505050506040513d601f19601f82011682018060405250810190610b709190613cbe565b505050565b8151835114610bd75760405162461bcd60e51b815260206004820152602860248201527f455243313135353a2069647320616e6420616d6f756e7473206c656e677468206044820152670dad2e6dac2e8c6d60c31b606482015260840161090e565b6001600160a01b038416610bfd5760405162461bcd60e51b815260040161090e90613cdb565b610c056121cc565b6001600160a01b0316856001600160a01b03161480610c2b5750610c2b856108046121cc565b610c925760405162461bcd60e51b815260206004820152603260248201527f455243313135353a207472616e736665722063616c6c6572206973206e6f74206044820152711bdddb995c881b9bdc88185c1c1c9bdd995960721b606482015260840161090e565b6000610c9c6121cc565b9050610cac818787878787612371565b60005b8451811015610de0576000858281518110610ccc57610ccc613c79565b602002602001015190506000858381518110610cea57610cea613c79565b602090810291909101810151600084815260c9835260408082206001600160a01b038e168352909352919091205490915081811015610d3b5760405162461bcd60e51b815260040161090e90613d20565b610d458282613d6a565b60c9600085815260200190815260200160002060008c6001600160a01b03166001600160a01b03168152602001908152602001600020819055508160c9600085815260200190815260200160002060008b6001600160a01b03166001600160a01b031681526020019081526020016000206000828254610dc59190613d81565b9250508190555050505080610dd990613ca5565b9050610caf565b50846001600160a01b0316866001600160a01b0316826001600160a01b03167f4a39dc06d4c0dbc64b70af90fd698a233a518aa5d07e595d983b8c0526c8f7fb8787604051610e30929190613d99565b60405180910390a4610e468187878787876123cd565b505050505050565b610e5782610a42565b610e6881610e636121cc565b612528565b610b70838361258c565b610e7a6121cc565b6001600160a01b0316816001600160a01b031614610ef25760405162461bcd60e51b815260206004820152602f60248201527f416363657373436f6e74726f6c3a2063616e206f6e6c792072656e6f756e636560448201526e103937b632b9903337b91039b2b63360891b606482015260840161090e565b610efc8282612613565b5050565b610f0981612698565b6109ab816040518060200160405280600081525060006126dc565b6000610f2e6121cc565b9050610f3a8184612858565b610f4357600080fd5b600083815261013660205260409020548211610fbc5760405162461bcd60e51b815260206004820152603260248201527f526f79616c7469657320636f6e66696775726174696f6e2063616e6e6f74206260448201527132903ab73637b1b5b2b21032b0b93634b2b960711b606482015260840161090e565b60008381526101366020526040908190208390555183907f7bdd35d2167385bdbed0892e34b48298770ffce27fe71928c767071865f51544906110029085815260200190565b60405180910390a2505050565b6001600160601b0319606084901b1663ffffffff60401b604084901b16176001600160401b038216175b9392505050565b61012f602052816000526040600020818154811061105d57600080fd5b6000918252602090912060029091020180546001909101546001600160a01b039091169250905082565b606081518351146110ec5760405162461bcd60e51b815260206004820152602960248201527f455243313135353a206163636f756e747320616e6420696473206c656e677468604482015268040dad2e6dac2e8c6d60bb1b606482015260840161090e565b600083516001600160401b038111156111075761110761351a565b604051908082528060200260200182016040528015611130578160200160208202803683370190505b50905060005b84518110156111a85761117b85828151811061115457611154613c79565b602002602001015185838151811061116e5761116e613c79565b60200260200101516108a6565b82828151811061118d5761118d613c79565b60209081029190910101526111a181613ca5565b9050611136565b509392505050565b6111b982612698565b610efc828260016126dc565b60008083836040516020016111db929190613dbe565b60408051808303601f19018152919052805160209091012060601c949350505050565b600061093c600080516020614250833981519152836113e4565b60006110396112256121cc565b848461286b565b6000806112376121cc565b90506112438682611cb0565b6112ac5760405162461bcd60e51b815260206004820152603460248201527f746865206f70657261746f72206d75737420626520617070726f766564206f726044820152731030902a2920a729a322a92fa7a822a920aa27a960611b606482015260840161090e565b6112b886868686612909565b9150505b949350505050565b600054610100900460ff16806112dd575060005460ff16155b6112f95760405162461bcd60e51b815260040161090e90613e27565b600054610100900460ff1615801561131b576000805461ffff19166101011790555b611323612a18565b80156109ab576000805461ff001916905550565b60006113448260006108a6565b6001600160a01b038316600090815261012f602052604081209192505b81548110156113de57600082828154811061137e5761137e613c79565b9060005260206000209060020201905060006127108260010154866113a39190613e75565b6113ad9190613e94565b82549091506113c99087906001600160a01b0316600084612a22565b505080806113d690613ca5565b915050611361565b50505050565b600091825260fb602090815260408084206001600160a01b0393909316845291905290205460ff1690565b60008061141c8484610a57565b9050600061142b8560006108a6565b9050600061271061143c8484613e75565b6114469190613e94565b9695505050505050565b816001600160a01b03166114626121cc565b6001600160a01b0316036114ca5760405162461bcd60e51b815260206004820152602960248201527f455243313135353a2073657474696e6720617070726f76616c20737461747573604482015268103337b91039b2b63360b91b606482015260840161090e565b8060ca60006114d76121cc565b6001600160a01b03908116825260208083019390935260409182016000908120918716808252919093529120805460ff19169215159290921790915561151b6121cc565b6001600160a01b03167f17307eab39ab6107e8899845ad3d59bd9653f200f220920489ca2b5937696c3183604051611557911515815260200190565b60405180910390a35050565b600061156d6121cc565b90506115798189612858565b6115db5760405162461bcd60e51b815260206004820152602d60248201527f4f6e6c792074686520697373756572206f662074686973204e46542063616e2060448201526c73657420726f79616c7469657360981b606482015260840161090e565b6000888152610136602052604090205442101561164c5760405162461bcd60e51b815260206004820152602960248201527f526f79616c7469657320636f6e66696775726174696f6e206973206c6f636b656044820152686420666f72206e6f7760b81b606482015260840161090e565b6001600160a01b03871615158061166a57508515801561166a575084155b6116865760405162461bcd60e51b815260040161090e90613eb6565b60008881526101306020908152604080832080546001600160a01b0319166001600160a01b038c81169190911790915561013183528184208a905561013290925290912086905584161515806116e35750821580156116e3575081155b6116ff5760405162461bcd60e51b815260040161090e90613eb6565b60008881526101336020908152604080832080546001600160a01b0319166001600160a01b0389161790556101348252808320869055610135909152908190208390555188907f3df2272e42784a2455bbbdcdf25ae0f67d41f801896514cc4cd255aa8ee75e4c9061177c908a908a908a908a908a908a90613b5f565b60405180910390a25050505050505050565b60006117986121cc565b61012d546040516323b872dd60e01b81526001600160a01b038084166004830152306024830152604482018690529293509116906323b872dd906064016020604051808303816000875af11580156117f4573d6000803e3d6000fd5b505050506040513d601f19601f820116820180604052508101906118189190613cbe565b50610efc8160008460405180602001604052806000815250612b0c565b600081518351146118a95760405162461bcd60e51b815260206004820152603860248201527f417272617973206f66206f776e65727320616e64206672616374696f6e73206d6044820152770eae6e840d0c2ecca40e8d0ca40e6c2daca40d8cadccee8d60431b606482015260840161090e565b600a835111156118ed5760405162461bcd60e51b815260206004820152600f60248201526e546f6f206d616e792073686172657360881b604482015260640161090e565b60006118f984846111c5565b6001600160a01b038116600090815261012f60205260409020805491925090156119625760405162461bcd60e51b815260206004820152601a602482015279546865206163636f756e7420616c72656164792065786973747360301b604482015260640161090e565b6000805b8651811015611ad957600087828151811061198357611983613c79565b6020026020010151905060008783815181106119a1576119a1613c79565b6020026020010151905060006001600160a01b0316826001600160a01b0316141580156119cd57508015155b611a165760405162461bcd60e51b815260206004820152601a6024820152790c081d985b1d595cc8185c99481b9bdd081c195c9b5a5d1d195960321b604482015260640161090e565b604080518082019091526001600160a01b0383811682526020808301848152885460018082018b5560008b8152939093209451600290910290940180546001600160a01b031916949093169390931782559151910155611a768185613d81565b9350816001600160a01b0316866001600160a01b03167e6fb9851f1fd2fbc9fa36680d17e1254999a38e5f3c76c3a1ecc126a464601b83604051611abc91815260200190565b60405180910390a350508080611ad190613ca5565b915050611966565b506127108114611b2b5760405162461bcd60e51b815260206004820152601e60248201527f546f74616c206672616374696f6e73206d7573742062652031302c3030300000604482015260640161090e565b5090949350505050565b61012d546001600160a01b031615611b4c57600080fd5b611b5960006105876121cc565b611b6257600080fd5b61012d80546001600160a01b0319166001600160a01b0392909216919091179055565b611b8e82610a42565b611b9a81610e636121cc565b610b708383612613565b600082815261013160209081526040808320546101328352818420546101309093529083205490929081906001600160a01b039081169086168114611c25576000611bef8288610a57565b9050612710611bfe8288613e75565b611c089190613e94565b9550612710611c178287613e75565b611c219190613e94565b9450505b6000878152610134602090815260408083205461013583528184205461013390935292205491945092506001600160a01b039081169087168114611ca5576000611c6f8289610a57565b9050612710611c7e8287613e75565b611c889190613e94565b9450612710611c978286613e75565b611ca19190613e94565b9350505b505092959194509250565b6000611cca600080516020614270833981519152836113e4565b15611cd75750600161093c565b6001600160a01b03808416600090815260ca602090815260408083209386168352929052205460ff16611039565b60008084611d1857506000905080611ddd565b600080600080611d288a8a612858565b90508015611d6a576000898152610131602090815260408083205461013283528184205461013090935292205491955093506001600160a01b03169150611da0565b6000898152610134602090815260408083205461013583528184205461013390935292205491955093506001600160a01b031691505b6000612710611daf868b613e75565b611db99190613e94565b905083811015611dc65750825b6000611dd28983613e75565b975092955050505050505b94509492505050565b6001600160a01b038416611e0c5760405162461bcd60e51b815260040161090e90613cdb565b611e146121cc565b6001600160a01b0316856001600160a01b03161480611e3a5750611e3a856108046121cc565b611e565760405162461bcd60e51b815260040161090e90613f02565b6000611e606121cc565b9050611e80818787611e7188612c16565b611e7a88612c16565b87612371565b600084815260c9602090815260408083206001600160a01b038a16845290915290205483811015611ec35760405162461bcd60e51b815260040161090e90613d20565b611ecd8482613d6a565b600086815260c9602090815260408083206001600160a01b038c81168552925280832093909355881681529081208054869290611f0b908490613d81565b92505081905550856001600160a01b0316876001600160a01b0316836001600160a01b03166000805160206141e98339815191528888604051611f4f929190613f4b565b60405180910390a4611f65828888888888612c61565b50505050505050565b61012d546040516370a0823160e01b81526000916001600160a01b0316906370a0823190611fa0908590600401613a4e565b602060405180830381865afa158015611fbd573d6000803e3d6000fd5b505050506040513d601f19601f82011682018060405250810190611fe19190613f59565b6001600160a01b038316600090815261012f602052604081209192505b81548110156113de57600082828154811061201b5761201b613c79565b9060005260206000209060020201905060006127108260010154866120409190613e75565b61204a9190613e94565b61012d54835460405163a9059cbb60e01b81529293506001600160a01b039182169263a9059cbb9261208292169085906004016138da565b6020604051808303816000875af11580156120a1573d6000803e3d6000fd5b505050506040513d601f19601f820116820180604052508101906120c59190613cbe565b50505080806120d390613ca5565b915050611ffe565b6001600160a01b0383166121015760405162461bcd60e51b815260040161090e90613cdb565b6121096121cc565b6001600160a01b0316846001600160a01b0316148061212f575061212f846108046121cc565b61214b5760405162461bcd60e51b815260040161090e90613f02565b6113de84848484612a22565b60006001600160e01b03198216636cdb3d1360e11b148061218857506001600160e01b031982166303a24d0760e21b145b8061093c57506301ffc9a760e01b6001600160e01b031983161461093c565b60006001600160e01b03198216637965db0b60e01b148061093c575061093c82612157565b60006121d6612d1c565b905090565b8051610efc9060cb906020840190613408565b6001600160a01b0383166122505760405162461bcd60e51b815260206004820152602360248201527f455243313135353a206275726e2066726f6d20746865207a65726f206164647260448201526265737360e81b606482015260840161090e565b600061225a6121cc565b905061228a8185600061226c87612c16565b61227587612c16565b60405180602001604052806000815250612371565b600083815260c9602090815260408083206001600160a01b0388168452909152902054828110156123095760405162461bcd60e51b8152602060048201526024808201527f455243313135353a206275726e20616d6f756e7420657863656564732062616c604482015263616e636560e01b606482015260840161090e565b6123138382613d6a565b600085815260c9602090815260408083206001600160a01b03808b16808652919093528184209490945551919291908516906000805160206141e9833981519152906123629089908990613f4b565b60405180910390a45050505050565b60005b8351811015611f65576123bc8685838151811061239357612393613c79565b602002602001015160008685815181106123af576123af613c79565b6020026020010151612909565b506123c681613ca5565b9050612374565b6001600160a01b0384163b15610e465760405163bc197c8160e01b81526001600160a01b0385169063bc197c81906124119089908990889088908890600401613f72565b6020604051808303816000875af192505050801561244c575060408051601f3d908101601f1916820190925261244991810190613fd0565b60015b6124f857612458613fed565b806308c379a003612491575061246c614008565b806124775750612493565b8060405162461bcd60e51b815260040161090e9190613672565b505b60405162461bcd60e51b815260206004820152603460248201527f455243313135353a207472616e7366657220746f206e6f6e20455243313135356044820152732932b1b2b4bb32b91034b6b83632b6b2b73a32b960611b606482015260840161090e565b6001600160e01b0319811663bc197c8160e01b14611f655760405162461bcd60e51b815260040161090e90614091565b61253282826113e4565b610efc5761254a816001600160a01b03166014612d41565b612555836020612d41565b6040516020016125669291906140d9565b60408051601f198184030181529082905262461bcd60e51b825261090e91600401613672565b61259682826113e4565b610efc57600082815260fb602090815260408083206001600160a01b03851684529091529020805460ff191660011790556125cf6121cc565b6001600160a01b0316816001600160a01b0316837f2f8788117e7eff1d82e926ec794901d17c78024a50270940304540a733656f0d60405160405180910390a45050565b61261d82826113e4565b15610efc57600082815260fb602090815260408083206001600160a01b03851684529091529020805460ff191690556126546121cc565b6001600160a01b0316816001600160a01b0316837ff6391f5c32d9c69d2a47ea670b442974b53935d1edc7fd64eb21e047a839171b60405160405180910390a45050565b6126a36000336113e4565b6109ab5760405162461bcd60e51b815260206004820152600a60248201526927b7363c9020b236b4b760b11b604482015260640161090e565b60006126e6612edc565b90506126f184612ef8565b6000835111806126fe5750815b1561270f5761270d8484612f8b565b505b7f4910fdfa16fed3260ed0e7147f7cc6da11a60208b5b9406d12a635614ffd9143805460ff1661285157805460ff1916600117815560405161278a90869061275b908590602401613a4e565b60408051601f198184030181529190526020810180516001600160e01b0316631b2ce7f360e11b179052612f8b565b50805460ff1916815561279b612edc565b6001600160a01b0316826001600160a01b0316146128135760405162461bcd60e51b815260206004820152602f60248201527f45524331393637557067726164653a207570677261646520627265616b73206660448201526e75727468657220757067726164657360881b606482015260840161090e565b61281c85612ef8565b6040516001600160a01b038616907fbc7cd75a20ee27fd9adebab32041f755214dbc6bffa90cc0225b39da2e5c2d3b90600090a25b5050505050565b60601c6001600160a01b03919091161490565b6001600160a01b038316600090815261012e602052604081205463ffffffff16612896816001614148565b6001600160a01b038616600090815261012e60205260408120805463ffffffff191663ffffffff93909316929092179091556128d386838761100f565b90506000856001600160401b0316116128eb57600080fd5b6129008682876001600160401b031687612b0c565b95945050505050565b600083612918575060006112bc565b6129306000805160206142b0833981519152336113e4565b1561293d575060006112bc565b60008060008061294d8989612858565b9050801561298f576000888152610131602090815260408083205461013283528184205461013090935292205491955093506001600160a01b031691506129c5565b6000888152610134602090815260408083205461013583528184205461013390935292205491955093506001600160a01b031691505b60006127106129d4868a613e75565b6129de9190613e94565b9050838110156129eb5750825b60006129f78883613e75565b90508015612a0a57612a0a8b858361306d565b9a9950505050505050505050565b612a20613150565b565b600082815260c9602090815260408083206001600160a01b038816845290915290205481811015612a655760405162461bcd60e51b815260040161090e90613d20565b612a6f8282613d6a565b600084815260c9602090815260408083206001600160a01b038a81168552925280832093909355861681529081208054849290612aad908490613d81565b9091555060009050612abd6121cc565b9050846001600160a01b0316866001600160a01b0316826001600160a01b03166000805160206141e98339815191528787604051612afc929190613f4b565b60405180910390a4505050505050565b6001600160a01b038416612b6c5760405162461bcd60e51b815260206004820152602160248201527f455243313135353a206d696e7420746f20746865207a65726f206164647265736044820152607360f81b606482015260840161090e565b6000612b766121cc565b9050612b8881600087611e7188612c16565b600084815260c9602090815260408083206001600160a01b038916845290915281208054859290612bba908490613d81565b92505081905550846001600160a01b031660006001600160a01b0316826001600160a01b03166000805160206141e98339815191528787604051612bff929190613f4b565b60405180910390a461285181600087878787612c61565b60408051600180825281830190925260609160009190602080830190803683370190505090508281600081518110612c5057612c50613c79565b602090810291909101015292915050565b6001600160a01b0384163b15610e465760405163f23a6e6160e01b81526001600160a01b0385169063f23a6e6190612ca59089908990889088908890600401614170565b6020604051808303816000875af1925050508015612ce0575060408051601f3d908101601f19168201909252612cdd91810190613fd0565b60015b612cec57612458613fed565b6001600160e01b0319811663f23a6e6160e01b14611f655760405162461bcd60e51b815260040161090e90614091565b6000612d27336111fe565b15612d39575060131936013560601c90565b503390565b90565b60606000612d50836002613e75565b612d5b906002613d81565b6001600160401b03811115612d7257612d7261351a565b6040519080825280601f01601f191660200182016040528015612d9c576020820181803683370190505b509050600360fc1b81600081518110612db757612db7613c79565b60200101906001600160f81b031916908160001a905350600f60fb1b81600181518110612de657612de6613c79565b60200101906001600160f81b031916908160001a9053506000612e0a846002613e75565b612e15906001613d81565b90505b6001811115612e8d576f181899199a1a9b1b9c1cb0b131b232b360811b85600f1660108110612e4957612e49613c79565b1a60f81b828281518110612e5f57612e5f613c79565b60200101906001600160f81b031916908160001a90535060049490941c93612e86816141b5565b9050612e18565b5083156110395760405162461bcd60e51b815260206004820181905260248201527f537472696e67733a20686578206c656e67746820696e73756666696369656e74604482015260640161090e565b600080516020614209833981519152546001600160a01b031690565b803b612f5c5760405162461bcd60e51b815260206004820152602d60248201527f455243313936373a206e657720696d706c656d656e746174696f6e206973206e60448201526c1bdd08184818dbdb9d1c9858dd609a1b606482015260840161090e565b60008051602061420983398151915280546001600160a01b0319166001600160a01b0392909216919091179055565b6060823b612fea5760405162461bcd60e51b815260206004820152602660248201527f416464726573733a2064656c65676174652063616c6c20746f206e6f6e2d636f6044820152651b9d1c9858dd60d21b606482015260840161090e565b600080846001600160a01b03168460405161300591906141cc565b600060405180830381855af49150503d8060008114613040576040519150601f19603f3d011682016040523d82523d6000602084013e613045565b606091505b5091509150612900828260405180606001604052806027815260200161422960279139613158565b6001600160a01b03831660009081526000805160206142908339815191526020526040902054818110156130b35760405162461bcd60e51b815260040161090e90613d20565b6130bd8282613d6a565b6001600160a01b03858116600090815260008051602061429083398151915260205260408082209390935590851681529081208054849290613100908490613d81565b90915550600090506131106121cc565b9050836001600160a01b0316856001600160a01b0316826001600160a01b03166000805160206141e9833981519152600087604051612362929190613f4b565b612a20613191565b60608315613167575081611039565b8251156131775782518084602001fd5b8160405162461bcd60e51b815260040161090e9190613672565b612a20612a20612a20612a206131be6040518060600160405280603381526020016142d0603391396131c6565b612a2061324b565b600054610100900460ff16806131df575060005460ff16155b6131fb5760405162461bcd60e51b815260040161090e90613e27565b600054610100900460ff1615801561321d576000805461ffff19166101011790555b613225613253565b61322d613253565b613236826132bd565b8015610efc576000805461ff00191690555050565b612a2061331d565b600054610100900460ff168061326c575060005460ff16155b6132885760405162461bcd60e51b815260040161090e90613e27565b600054610100900460ff16158015611323576000805461ffff191661010117905580156109ab576000805461ff001916905550565b600054610100900460ff16806132d6575060005460ff16155b6132f25760405162461bcd60e51b815260040161090e90613e27565b600054610100900460ff16158015613314576000805461ffff19166101011790555b613236826121db565b613325613338565b61332d61339f565b612a206000336133fe565b600054610100900460ff1680613351575060005460ff16155b61336d5760405162461bcd60e51b815260040161090e90613e27565b600054610100900460ff1615801561338f576000805461ffff19166101011790555b613397613253565b611323613253565b600054610100900460ff16806133b8575060005460ff16155b6133d45760405162461bcd60e51b815260040161090e90613e27565b600054610100900460ff161580156133f6576000805461ffff19166101011790555b61338f613253565b610efc828261258c565b82805461341490613c3f565b90600052602060002090601f016020900481019282613436576000855561347c565b82601f1061344f57805160ff191683800117855561347c565b8280016001018555821561347c579182015b8281111561347c578251825591602001919060010190613461565b5061348892915061348c565b5090565b5b80821115613488576000815560010161348d565b80356001600160a01b03811681146134b857600080fd5b919050565b600080604083850312156134d057600080fd5b6134d9836134a1565b946020939093013593505050565b6001600160e01b0319811681146109ab57600080fd5b60006020828403121561350f57600080fd5b8135611039816134e7565b634e487b7160e01b600052604160045260246000fd5b601f8201601f191681016001600160401b03811182821017156135555761355561351a565b6040525050565b60006001600160401b038311156135755761357561351a565b60405161358c601f8501601f191660200182613530565b8091508381528484840111156135a157600080fd5b83836020830137600060208583010152509392505050565b6000602082840312156135cb57600080fd5b81356001600160401b038111156135e157600080fd5b8201601f810184136135f257600080fd5b6112bc8482356020840161355c565b60006020828403121561361357600080fd5b5035919050565b60005b8381101561363557818101518382015260200161361d565b838111156113de5750506000910152565b6000815180845261365e81602086016020860161361a565b601f01601f19169290920160200192915050565b6020815260006110396020830184613646565b6000806040838503121561369857600080fd5b6136a1836134a1565b91506136af602084016134a1565b90509250929050565b60006001600160401b038211156136d1576136d161351a565b5060051b60200190565b600082601f8301126136ec57600080fd5b813560206136f9826136b8565b6040516137068282613530565b83815260059390931b850182019282810191508684111561372657600080fd5b8286015b84811015613741578035835291830191830161372a565b509695505050505050565b600082601f83011261375d57600080fd5b6110398383356020850161355c565b600080600080600060a0868803121561378457600080fd5b61378d866134a1565b945061379b602087016134a1565b935060408601356001600160401b03808211156137b757600080fd5b6137c389838a016136db565b945060608801359150808211156137d957600080fd5b6137e589838a016136db565b935060808801359150808211156137fb57600080fd5b506138088882890161374c565b9150509295509295909350565b6000806040838503121561382857600080fd5b823591506136af602084016134a1565b60006020828403121561384a57600080fd5b611039826134a1565b6000806040838503121561386657600080fd5b50508035926020909101359150565b80356001600160401b03811681146134b857600080fd5b6000806000606084860312156138a157600080fd5b6138aa846134a1565b9250602084013563ffffffff811681146138c357600080fd5b91506138d160408501613875565b90509250925092565b6001600160a01b03929092168252602082015260400190565b6000806040838503121561390657600080fd5b82356001600160401b038082111561391d57600080fd5b818501915085601f83011261393157600080fd5b8135602061393e826136b8565b60405161394b8282613530565b83815260059390931b850182019282810191508984111561396b57600080fd5b948201945b8386101561399057613981866134a1565b82529482019490820190613970565b965050860135925050808211156139a657600080fd5b506139b3858286016136db565b9150509250929050565b600081518084526020808501945080840160005b838110156139ed578151875295820195908201906001016139d1565b509495945050505050565b60208152600061103960208301846139bd565b60008060408385031215613a1e57600080fd5b613a27836134a1565b915060208301356001600160401b03811115613a4257600080fd5b6139b38582860161374c565b6001600160a01b0391909116815260200190565b60008060408385031215613a7557600080fd5b613a2783613875565b60008060008060808587031215613a9457600080fd5b613a9d856134a1565b966020860135965060408601359560600135945092505050565b80151581146109ab57600080fd5b60008060408385031215613ad857600080fd5b613ae1836134a1565b91506020830135613af181613ab7565b809150509250929050565b600080600080600080600060e0888a031215613b1757600080fd5b87359650613b27602089016134a1565b95506040880135945060608801359350613b43608089016134a1565b925060a0880135915060c0880135905092959891949750929550565b6001600160a01b0396871681526020810195909552604085019390935293166060830152608082019290925260a081019190915260c00190565b600080600080600060a08688031215613bb157600080fd5b613bba866134a1565b9450613bc8602087016134a1565b9350604086013592506060860135915060808601356001600160401b03811115613bf157600080fd5b6138088882890161374c565b60008060008060808587031215613c1357600080fd5b613c1c856134a1565b9350613c2a602086016134a1565b93969395505050506040820135916060013590565b600181811c90821680613c5357607f821691505b602082108103613c7357634e487b7160e01b600052602260045260246000fd5b50919050565b634e487b7160e01b600052603260045260246000fd5b634e487b7160e01b600052601160045260246000fd5b600060018201613cb757613cb7613c8f565b5060010190565b600060208284031215613cd057600080fd5b815161103981613ab7565b60208082526025908201527f455243313135353a207472616e7366657220746f20746865207a65726f206164604082015264647265737360d81b606082015260800190565b6020808252602a908201527f455243313135353a20696e73756666696369656e742062616c616e636520666f60408201526939103a3930b739b332b960b11b606082015260800190565b600082821015613d7c57613d7c613c8f565b500390565b60008219821115613d9457613d94613c8f565b500190565b604081526000613dac60408301856139bd565b828103602084015261290081856139bd565b825160009082906020808701845b83811015613df15781516001600160a01b031685529382019390820190600101613dcc565b5050855181870193925060005b81811015613e1a57845184529382019392820192600101613dfe565b5091979650505050505050565b6020808252602e908201527f496e697469616c697a61626c653a20636f6e747261637420697320616c72656160408201526d191e481a5b9a5d1a585b1a5e995960921b606082015260800190565b6000816000190483118215151615613e8f57613e8f613c8f565b500290565b600082613eb157634e487b7160e01b600052601260045260246000fd5b500490565b6020808252602c908201527f546865206163636f756e74206d757374206e6f7420626520302c20756e6c657360408201526b07320666565732061726520360a41b606082015260800190565b60208082526029908201527f455243313135353a2063616c6c6572206973206e6f74206f776e6572206e6f7260408201526808185c1c1c9bdd995960ba1b606082015260800190565b918252602082015260400190565b600060208284031215613f6b57600080fd5b5051919050565b6001600160a01b0386811682528516602082015260a060408201819052600090613f9e908301866139bd565b8281036060840152613fb081866139bd565b90508281036080840152613fc48185613646565b98975050505050505050565b600060208284031215613fe257600080fd5b8151611039816134e7565b600060033d1115612d3e5760046000803e5060005160e01c90565b600060443d10156140165790565b6040516003193d81016004833e81513d6001600160401b03808311602484018310171561404557505050505090565b828501915081518181111561405d5750505050505090565b843d87010160208285010111156140775750505050505090565b61408660208286010187613530565b509095945050505050565b60208082526028908201527f455243313135353a204552433131353552656365697665722072656a656374656040820152676420746f6b656e7360c01b606082015260800190565b76020b1b1b2b9b9a1b7b73a3937b61d1030b1b1b7bab73a1604d1b81526000835161410b81601785016020880161361a565b7001034b99036b4b9b9b4b733903937b6329607d1b601791840191820152835161413c81602884016020880161361a565b01602801949350505050565b600063ffffffff80831681851680830382111561416757614167613c8f565b01949350505050565b6001600160a01b03868116825285166020820152604081018490526060810183905260a0608082018190526000906141aa90830184613646565b979650505050505050565b6000816141c4576141c4613c8f565b506000190190565b600082516141de81846020870161361a565b919091019291505056fec3d58168c5ae7397731d063d5bbf3d657854427343f4c083240f7aacaa2d0f62360894a13ba1a3210667c828492db98dca3e2076cc3735a920a3ca505d382bbc416464726573733a206c6f772d6c6576656c2064656c65676174652063616c6c206661696c65643d2e894c222ba979e2dce2c7d940c0e9bb14306669e9f034eb1bb3979a2069d8626f510646502d065065e8bd550325973a611a32e6f6ddff40650005cb13636881fe90a866a48a634a12852c1be675b683a22307409932a7443b8029347be75620a4be6e7127e439f48d6654377d19402cb883dd85029e600de9e17052f903d368747470733a2f2f6170692e66726565706f72742e636572652e6e6574776f726b2f657263313135352f7b69647d2e6a736f6ea264697066735822122082b66f20f4c4f96def585d85b4be956d510d785986903be2b83723ba6b90c9f264736f6c634300080d0033",
  "immutableReferences": {},
  "source": "pragma solidity ^0.8.0;\n\nimport \"./freeportParts/TransferFees.sol\";\n\n/** Main contract, including all components.\n\n- Hold and transfer NFTs using ERC1155.\n- Support atomic exchanges of NFTs for currency.\n- Issuance of NFTs with fixed supply.\n- Joint Accounts that distribute their funds over multiple owners.\n- Capture royalties on primary and secondary transfers, configurable per NFT type.\n*/\ncontract Freeport is /*\n    ERC1155,\n    AccessControl,\n    MetaTxContext,\n    BaseNFT,\n    Currency,\n    TransferOperator,\n    ERC20Adapter,\n    Issuance,\n    JointAccounts,\n    TransferFees,\n    */ TransferFees {\n\n    /** Initialize this contract and its dependencies.\n     */\n    function initialize() public initializer {\n        __TransferFees_init();\n    }\n}\n",
  "sourcePath": "/home/nadtech/Visual_Studio/Freeport-Smart-Contracts/contracts/Freeport.sol",
  "compiler": {
    "name": "solc",
    "version": "0.8.13+commit.abaa5c0e.Emscripten.clang"
  },
  "schemaVersion": "3.4.4",
  "updatedAt": "2022-05-06T11:33:35.566Z",
  "devdoc": {
    "kind": "dev",
    "methods": {
      "balanceOf(address,uint256)": {
        "details": "See {IERC1155-balanceOf}. Requirements: - `account` cannot be the zero address."
      },
      "balanceOfBatch(address[],uint256[])": {
        "details": "See {IERC1155-balanceOfBatch}. Requirements: - `accounts` and `ids` must have the same length."
      },
      "getRoleAdmin(bytes32)": {
        "details": "Returns the admin role that controls `role`. See {grantRole} and {revokeRole}. To change a role's admin, use {_setRoleAdmin}."
      },
      "grantRole(bytes32,address)": {
        "details": "Grants `role` to `account`. If `account` had not been already granted `role`, emits a {RoleGranted} event. Requirements: - the caller must have ``role``'s admin role."
      },
      "hasRole(bytes32,address)": {
        "details": "Returns `true` if `account` has been granted `role`."
      },
      "renounceRole(bytes32,address)": {
        "details": "Revokes `role` from the calling account. Roles are often managed via {grantRole} and {revokeRole}: this function's purpose is to provide a mechanism for accounts to lose their privileges if they are compromised (such as when a trusted device is misplaced). If the calling account had been granted `role`, emits a {RoleRevoked} event. Requirements: - the caller must be `account`."
      },
      "revokeRole(bytes32,address)": {
        "details": "Revokes `role` from `account`. If `account` had been granted `role`, emits a {RoleRevoked} event. Requirements: - the caller must have ``role``'s admin role."
      },
      "safeBatchTransferFrom(address,address,uint256[],uint256[],bytes)": {
        "details": "See {IERC1155-safeBatchTransferFrom}."
      },
      "safeTransferFrom(address,address,uint256,uint256,bytes)": {
        "details": "See {IERC1155-safeTransferFrom}."
      },
      "setApprovalForAll(address,bool)": {
        "details": "See {IERC1155-setApprovalForAll}."
      },
      "uri(uint256)": {
        "details": "See {IERC1155MetadataURI-uri}. This implementation returns the same URI for *all* token types. It relies on the token type ID substitution mechanism https://eips.ethereum.org/EIPS/eip-1155#metadata[defined in the EIP]. Clients calling this function must replace the `\\{id\\}` substring with the actual token type ID."
      }
    },
    "version": 1
  },
  "userdoc": {
    "events": {
      "JointAccountShareCreated(address,address,uint256)": {
        "notice": "Notify that a Joint Account was created at the address `account`. One such event is emitted for each owner, including his fraction of the account in basis points (1% of 1%)."
      },
      "RoyaltiesConfigured(uint256,address,uint256,uint256,address,uint256,uint256)": {
        "notice": "Notify that royalties were configured on an NFT type."
      },
      "RoyaltiesLocked(uint256,uint256)": {
        "notice": "Notify that royalties are locked and cannot change, until the given time (in UNIX seconds), or forever (lockUntil = 0xFFFFFFFF)."
      }
    },
    "kind": "user",
    "methods": {
      "BASIS_POINTS()": {
        "notice": "The total fraction representing 100% of an account."
      },
      "CURRENCY()": {
        "notice": "The token ID that represents the internal currency for all payments in this contract. "
      },
      "balanceOfJAOwner(address,address)": {
        "notice": "Calculate the amount of tokens that an owner of a Joint Account can withdraw right now."
      },
      "captureFee(address,uint256,uint256,uint256)": {
        "notice": "Collect the royalty due on a transfer. The royalty is calculated based on NFT configuration and the price. It is collected by an internal transfer of currency between \"from\" and the beneficiary. Return the amount collected. The caller must be approved by \"from\", or a TRANSFER_OPERATOR."
      },
      "configureRoyalties(uint256,address,uint256,uint256,address,uint256,uint256)": {
        "notice": "Configure the amounts and beneficiaries of royalties on primary and secondary transfers of this NFT. This configuration is available to the issuer of this NFT. A transfer is primary if it comes from the issuer of this NFT (normally the first sale after issuance). Otherwise, it is a secondary transfer. A royalty is defined in two parts (both optional): a cut of the sale price of an NFT, and a minimum royalty per transfer. For simple transfers not attached to a price, or a too low price, the minimum royalty is charged. The cuts are given in basis points (1% of 1%). The minimums are given in currency amounts. The configuration can be changed at any time by default. However, the issuer may commit to it for a period of time, effectively giving up his ability to modify the royalties. See the function lockRoyalties. There can be one beneficiary account for each primary and secondary royalties. To distribute revenues amongst several parties, use a Joint Account (see function createJointAccount)."
      },
      "createJointAccount(address[],uint256[])": {
        "notice": "Create an account such that multiple owners have a claim on their respective share. The size of a share is given as a fraction in basis points (1% of 1%). The sum of share fractions must equal 10,000. Anyone can create Joint Accounts including any owners."
      },
      "currencyContract()": {
        "notice": "The address of ERC-20 token's contract"
      },
      "deposit(uint256)": {
        "notice": "Deposit currency from ERC20 into the internal currency. This requires payer to approve deposit."
      },
      "distributeJointAccountCereToken(address)": {
        "notice": "Distribute internal currency on JA balance among share owners. The function createJointAccount must be called beforehand. Anyone can trigger the distribution."
      },
      "distributeJointAccountERC20(address)": {
        "notice": "Distribute ERC20 available on JA balance among all of share owners. The function createJointAccount must be called beforehand. Anyone can trigger the distribution."
      },
      "fractionOfJAOwner(address,address)": {
        "notice": "Return the fraction of an account owned by the given address, in basis points (1% of 1%). If the account does not exist, or if the given address is not an owner of it, this returns 0. If the owner appears more than once in the account, this reports only the first share."
      },
      "getNftId(address,uint32,uint64)": {
        "notice": "Calculate the ID of an NFT type, identifying its issuer, its supply, and an arbitrary nonce."
      },
      "getRoyalties(uint256)": {
        "notice": "Return the current configuration of royalties for NFTs of type nftId, as set by configureRoyalties."
      },
      "getRoyaltiesForBeneficiary(uint256,address)": {
        "notice": "Return the amount of royalties earned by a beneficiary on each primary and secondary transfer of an NFT. This function supports Joint Accounts. If royalties are paid to a JA and beneficiary is an owner of the JA, the shares of the royalties for this owner are returned."
      },
      "initialize()": {
        "notice": "Initialize this contract and its dependencies."
      },
      "isApprovedForAll(address,address)": {
        "notice": "Return true for operators with the role TRANSFER_OPERATOR. Otherwise, apply the standard approval logic of ERC1155. See {IERC1155-isApprovedForAll}."
      },
      "issuanceNonces(address)": {
        "notice": "A counter of NFT types issued by each issuer. This is used to generate unique NFT IDs."
      },
      "issue(uint64,bytes)": {
        "notice": "Issue a supply of NFTs of a new type, and return its ID. No more NFT of this type can be issued again. The caller will be recorded as the issuer and it will initially own the entire supply."
      },
      "lockRoyalties(uint256,uint256)": {
        "notice": "Lock the configuration of royalties for this NFT type. Only the issuer may lock the configuration, after which he himself will no longer be able to change the configuration, for some time, or forever. Set lockUntil to a time in the future to lock the configuration until the specified time (in UNIX seconds). Set to 0xFFFFFFFF to lock forever."
      },
      "makeAddressOfJointAccount(address[],uint256[])": {
        "notice": "Generate a unique address identifying a list of owners and shares. It may be used to predict the address of a Joint Account and receive payments even before calling the function createJointAccount."
      },
      "setERC20(address)": {
        "notice": "Sets token's contract address. This token is used to deposit and withdraw on chain adapter's contract is deployed."
      },
      "supportsInterface(bytes4)": {
        "notice": "Supports interfaces of AccessControl, ERC1155, and ERC1155 MetadataURI."
      },
      "transferFrom(address,address,uint256,uint256)": {
        "notice": "transferFrom performs a simple transfer, without calling the hooks  (no _beforeTokenTransfer and no onERC1155Received)."
      },
      "withdraw(uint256)": {
        "notice": "Withdraw currency from internal to ERC20"
      }
    },
    "notice": "Main contract, including all components. - Hold and transfer NFTs using ERC1155. - Support atomic exchanges of NFTs for currency. - Issuance of NFTs with fixed supply. - Joint Accounts that distribute their funds over multiple owners. - Capture royalties on primary and secondary transfers, configurable per NFT type.",
    "version": 1
  }
}