{
  "contractName": "Freeport",
  "abi": [
    {
      "anonymous": false,
      "inputs": [
        {
          "indexed": false,
          "internalType": "address",
          "name": "previousAdmin",
          "type": "address"
        },
        {
          "indexed": false,
          "internalType": "address",
          "name": "newAdmin",
          "type": "address"
        }
      ],
      "name": "AdminChanged",
      "type": "event"
    },
    {
      "anonymous": false,
      "inputs": [
        {
          "indexed": true,
          "internalType": "address",
          "name": "account",
          "type": "address"
        },
        {
          "indexed": true,
          "internalType": "address",
          "name": "operator",
          "type": "address"
        },
        {
          "indexed": false,
          "internalType": "bool",
          "name": "approved",
          "type": "bool"
        }
      ],
      "name": "ApprovalForAll",
      "type": "event"
    },
    {
      "anonymous": false,
      "inputs": [
        {
          "indexed": true,
          "internalType": "address",
          "name": "beacon",
          "type": "address"
        }
      ],
      "name": "BeaconUpgraded",
      "type": "event"
    },
    {
      "anonymous": false,
      "inputs": [
        {
          "indexed": true,
          "internalType": "address",
          "name": "account",
          "type": "address"
        },
        {
          "indexed": true,
          "internalType": "address",
          "name": "owner",
          "type": "address"
        },
        {
          "indexed": false,
          "internalType": "uint256",
          "name": "fraction",
          "type": "uint256"
        }
      ],
      "name": "JointAccountShareCreated",
      "type": "event"
    },
    {
      "anonymous": false,
      "inputs": [
        {
          "indexed": true,
          "internalType": "address",
          "name": "seller",
          "type": "address"
        },
        {
          "indexed": true,
          "internalType": "uint256",
          "name": "nftId",
          "type": "uint256"
        },
        {
          "indexed": false,
          "internalType": "uint256",
          "name": "price",
          "type": "uint256"
        }
      ],
      "name": "MakeOffer",
      "type": "event"
    },
    {
      "anonymous": false,
      "inputs": [
        {
          "indexed": true,
          "internalType": "bytes32",
          "name": "role",
          "type": "bytes32"
        },
        {
          "indexed": true,
          "internalType": "bytes32",
          "name": "previousAdminRole",
          "type": "bytes32"
        },
        {
          "indexed": true,
          "internalType": "bytes32",
          "name": "newAdminRole",
          "type": "bytes32"
        }
      ],
      "name": "RoleAdminChanged",
      "type": "event"
    },
    {
      "anonymous": false,
      "inputs": [
        {
          "indexed": true,
          "internalType": "bytes32",
          "name": "role",
          "type": "bytes32"
        },
        {
          "indexed": true,
          "internalType": "address",
          "name": "account",
          "type": "address"
        },
        {
          "indexed": true,
          "internalType": "address",
          "name": "sender",
          "type": "address"
        }
      ],
      "name": "RoleGranted",
      "type": "event"
    },
    {
      "anonymous": false,
      "inputs": [
        {
          "indexed": true,
          "internalType": "bytes32",
          "name": "role",
          "type": "bytes32"
        },
        {
          "indexed": true,
          "internalType": "address",
          "name": "account",
          "type": "address"
        },
        {
          "indexed": true,
          "internalType": "address",
          "name": "sender",
          "type": "address"
        }
      ],
      "name": "RoleRevoked",
      "type": "event"
    },
    {
      "anonymous": false,
      "inputs": [
        {
          "indexed": true,
          "internalType": "uint256",
          "name": "nftId",
          "type": "uint256"
        },
        {
          "indexed": false,
          "internalType": "address",
          "name": "primaryRoyaltyAccount",
          "type": "address"
        },
        {
          "indexed": false,
          "internalType": "uint256",
          "name": "primaryRoyaltyCut",
          "type": "uint256"
        },
        {
          "indexed": false,
          "internalType": "uint256",
          "name": "primaryRoyaltyMinimum",
          "type": "uint256"
        },
        {
          "indexed": false,
          "internalType": "address",
          "name": "secondaryRoyaltyAccount",
          "type": "address"
        },
        {
          "indexed": false,
          "internalType": "uint256",
          "name": "secondaryRoyaltyCut",
          "type": "uint256"
        },
        {
          "indexed": false,
          "internalType": "uint256",
          "name": "secondaryRoyaltyMinimum",
          "type": "uint256"
        }
      ],
      "name": "RoyaltiesConfigured",
      "type": "event"
    },
    {
      "anonymous": false,
      "inputs": [
        {
          "indexed": true,
          "internalType": "uint256",
          "name": "nftId",
          "type": "uint256"
        },
        {
          "indexed": false,
          "internalType": "uint256",
          "name": "lockUntil",
          "type": "uint256"
        }
      ],
      "name": "RoyaltiesLocked",
      "type": "event"
    },
    {
      "anonymous": false,
      "inputs": [
        {
          "indexed": true,
          "internalType": "address",
          "name": "buyer",
          "type": "address"
        },
        {
          "indexed": true,
          "internalType": "address",
          "name": "seller",
          "type": "address"
        },
        {
          "indexed": true,
          "internalType": "uint256",
          "name": "nftId",
          "type": "uint256"
        },
        {
          "indexed": false,
          "internalType": "uint256",
          "name": "price",
          "type": "uint256"
        },
        {
          "indexed": false,
          "internalType": "uint256",
          "name": "amount",
          "type": "uint256"
        }
      ],
      "name": "TakeOffer",
      "type": "event"
    },
    {
      "anonymous": false,
      "inputs": [
        {
          "indexed": true,
          "internalType": "address",
          "name": "operator",
          "type": "address"
        },
        {
          "indexed": true,
          "internalType": "address",
          "name": "from",
          "type": "address"
        },
        {
          "indexed": true,
          "internalType": "address",
          "name": "to",
          "type": "address"
        },
        {
          "indexed": false,
          "internalType": "uint256[]",
          "name": "ids",
          "type": "uint256[]"
        },
        {
          "indexed": false,
          "internalType": "uint256[]",
          "name": "values",
          "type": "uint256[]"
        }
      ],
      "name": "TransferBatch",
      "type": "event"
    },
    {
      "anonymous": false,
      "inputs": [
        {
          "indexed": true,
          "internalType": "address",
          "name": "operator",
          "type": "address"
        },
        {
          "indexed": true,
          "internalType": "address",
          "name": "from",
          "type": "address"
        },
        {
          "indexed": true,
          "internalType": "address",
          "name": "to",
          "type": "address"
        },
        {
          "indexed": false,
          "internalType": "uint256",
          "name": "id",
          "type": "uint256"
        },
        {
          "indexed": false,
          "internalType": "uint256",
          "name": "value",
          "type": "uint256"
        }
      ],
      "name": "TransferSingle",
      "type": "event"
    },
    {
      "anonymous": false,
      "inputs": [
        {
          "indexed": false,
          "internalType": "string",
          "name": "value",
          "type": "string"
        },
        {
          "indexed": true,
          "internalType": "uint256",
          "name": "id",
          "type": "uint256"
        }
      ],
      "name": "URI",
      "type": "event"
    },
    {
      "anonymous": false,
      "inputs": [
        {
          "indexed": true,
          "internalType": "address",
          "name": "implementation",
          "type": "address"
        }
      ],
      "name": "Upgraded",
      "type": "event"
    },
    {
      "inputs": [],
      "name": "BASIS_POINTS",
      "outputs": [
        {
          "internalType": "uint256",
          "name": "",
          "type": "uint256"
        }
      ],
      "stateMutability": "view",
      "type": "function",
      "constant": true
    },
    {
      "inputs": [],
      "name": "BYPASS_SENDER",
      "outputs": [
        {
          "internalType": "bytes32",
          "name": "",
          "type": "bytes32"
        }
      ],
      "stateMutability": "view",
      "type": "function",
      "constant": true
    },
    {
      "inputs": [],
      "name": "CURRENCY",
      "outputs": [
        {
          "internalType": "uint256",
          "name": "",
          "type": "uint256"
        }
      ],
      "stateMutability": "view",
      "type": "function",
      "constant": true
    },
    {
      "inputs": [],
      "name": "DEFAULT_ADMIN_ROLE",
      "outputs": [
        {
          "internalType": "bytes32",
          "name": "",
          "type": "bytes32"
        }
      ],
      "stateMutability": "view",
      "type": "function",
      "constant": true
    },
    {
      "inputs": [],
      "name": "MAX_JOINT_ACCOUNT_SHARES",
      "outputs": [
        {
          "internalType": "uint256",
          "name": "",
          "type": "uint256"
        }
      ],
      "stateMutability": "view",
      "type": "function",
      "constant": true
    },
    {
      "inputs": [],
      "name": "META_TX_FORWARDER",
      "outputs": [
        {
          "internalType": "bytes32",
          "name": "",
          "type": "bytes32"
        }
      ],
      "stateMutability": "view",
      "type": "function",
      "constant": true
    },
    {
      "inputs": [],
      "name": "TRANSFER_OPERATOR",
      "outputs": [
        {
          "internalType": "bytes32",
          "name": "",
          "type": "bytes32"
        }
      ],
      "stateMutability": "view",
      "type": "function",
      "constant": true
    },
    {
      "inputs": [
        {
          "internalType": "address",
          "name": "account",
          "type": "address"
        },
        {
          "internalType": "uint256",
          "name": "id",
          "type": "uint256"
        }
      ],
      "name": "balanceOf",
      "outputs": [
        {
          "internalType": "uint256",
          "name": "",
          "type": "uint256"
        }
      ],
      "stateMutability": "view",
      "type": "function",
      "constant": true
    },
    {
      "inputs": [
        {
          "internalType": "address[]",
          "name": "accounts",
          "type": "address[]"
        },
        {
          "internalType": "uint256[]",
          "name": "ids",
          "type": "uint256[]"
        }
      ],
      "name": "balanceOfBatch",
      "outputs": [
        {
          "internalType": "uint256[]",
          "name": "",
          "type": "uint256[]"
        }
      ],
      "stateMutability": "view",
      "type": "function",
      "constant": true
    },
    {
      "inputs": [
        {
          "internalType": "address",
          "name": "account",
          "type": "address"
        },
        {
          "internalType": "address",
          "name": "owner",
          "type": "address"
        }
      ],
      "name": "balanceOfJAOwner",
      "outputs": [
        {
          "internalType": "uint256",
          "name": "",
          "type": "uint256"
        }
      ],
      "stateMutability": "view",
      "type": "function",
      "constant": true
    },
    {
      "inputs": [
        {
          "internalType": "address",
          "name": "from",
          "type": "address"
        },
        {
          "internalType": "uint256",
          "name": "nftId",
          "type": "uint256"
        },
        {
          "internalType": "uint256",
          "name": "price",
          "type": "uint256"
        },
        {
          "internalType": "uint256",
          "name": "amount",
          "type": "uint256"
        }
      ],
      "name": "captureFee",
      "outputs": [
        {
          "internalType": "uint256",
          "name": "",
          "type": "uint256"
        }
      ],
      "stateMutability": "nonpayable",
      "type": "function"
    },
    {
      "inputs": [
        {
          "internalType": "uint256",
          "name": "nftId",
          "type": "uint256"
        },
        {
          "internalType": "address",
          "name": "primaryRoyaltyAccount",
          "type": "address"
        },
        {
          "internalType": "uint256",
          "name": "primaryRoyaltyCut",
          "type": "uint256"
        },
        {
          "internalType": "uint256",
          "name": "primaryRoyaltyMinimum",
          "type": "uint256"
        },
        {
          "internalType": "address",
          "name": "secondaryRoyaltyAccount",
          "type": "address"
        },
        {
          "internalType": "uint256",
          "name": "secondaryRoyaltyCut",
          "type": "uint256"
        },
        {
          "internalType": "uint256",
          "name": "secondaryRoyaltyMinimum",
          "type": "uint256"
        }
      ],
      "name": "configureRoyalties",
      "outputs": [],
      "stateMutability": "nonpayable",
      "type": "function"
    },
    {
      "inputs": [
        {
          "internalType": "address[]",
          "name": "owners",
          "type": "address[]"
        },
        {
          "internalType": "uint256[]",
          "name": "fractions",
          "type": "uint256[]"
        }
      ],
      "name": "createJointAccount",
      "outputs": [
        {
          "internalType": "address",
          "name": "",
          "type": "address"
        }
      ],
      "stateMutability": "nonpayable",
      "type": "function"
    },
    {
      "inputs": [],
      "name": "currencyContract",
      "outputs": [
        {
          "internalType": "contract IERC20",
          "name": "",
          "type": "address"
        }
      ],
      "stateMutability": "view",
      "type": "function",
      "constant": true
    },
    {
      "inputs": [
        {
          "internalType": "uint256",
          "name": "amount",
          "type": "uint256"
        }
      ],
      "name": "deposit",
      "outputs": [],
      "stateMutability": "nonpayable",
      "type": "function"
    },
    {
      "inputs": [
        {
          "internalType": "address",
          "name": "account",
          "type": "address"
        }
      ],
      "name": "distributeJointAccount",
      "outputs": [],
      "stateMutability": "nonpayable",
      "type": "function"
    },
    {
      "inputs": [
        {
          "internalType": "address",
          "name": "account",
          "type": "address"
        },
        {
          "internalType": "address",
          "name": "maybeOwner",
          "type": "address"
        }
      ],
      "name": "fractionOfJAOwner",
      "outputs": [
        {
          "internalType": "uint256",
          "name": "",
          "type": "uint256"
        }
      ],
      "stateMutability": "view",
      "type": "function",
      "constant": true
    },
    {
      "inputs": [
        {
          "internalType": "address",
          "name": "issuer",
          "type": "address"
        },
        {
          "internalType": "uint32",
          "name": "nonce",
          "type": "uint32"
        },
        {
          "internalType": "uint64",
          "name": "supply",
          "type": "uint64"
        }
      ],
      "name": "getNftId",
      "outputs": [
        {
          "internalType": "uint256",
          "name": "",
          "type": "uint256"
        }
      ],
      "stateMutability": "pure",
      "type": "function",
      "constant": true
    },
    {
      "inputs": [
        {
          "internalType": "address",
          "name": "seller",
          "type": "address"
        },
        {
          "internalType": "uint256",
          "name": "nftId",
          "type": "uint256"
        }
      ],
      "name": "getOffer",
      "outputs": [
        {
          "internalType": "uint256",
          "name": "",
          "type": "uint256"
        }
      ],
      "stateMutability": "view",
      "type": "function",
      "constant": true
    },
    {
      "inputs": [
        {
          "internalType": "bytes32",
          "name": "role",
          "type": "bytes32"
        }
      ],
      "name": "getRoleAdmin",
      "outputs": [
        {
          "internalType": "bytes32",
          "name": "",
          "type": "bytes32"
        }
      ],
      "stateMutability": "view",
      "type": "function",
      "constant": true
    },
    {
      "inputs": [
        {
          "internalType": "uint256",
          "name": "nftId",
          "type": "uint256"
        }
      ],
      "name": "getRoyalties",
      "outputs": [
        {
          "internalType": "address",
          "name": "primaryRoyaltyAccount",
          "type": "address"
        },
        {
          "internalType": "uint256",
          "name": "primaryRoyaltyCut",
          "type": "uint256"
        },
        {
          "internalType": "uint256",
          "name": "primaryRoyaltyMinimum",
          "type": "uint256"
        },
        {
          "internalType": "address",
          "name": "secondaryRoyaltyAccount",
          "type": "address"
        },
        {
          "internalType": "uint256",
          "name": "secondaryRoyaltyCut",
          "type": "uint256"
        },
        {
          "internalType": "uint256",
          "name": "secondaryRoyaltyMinimum",
          "type": "uint256"
        }
      ],
      "stateMutability": "view",
      "type": "function",
      "constant": true
    },
    {
      "inputs": [
        {
          "internalType": "uint256",
          "name": "nftId",
          "type": "uint256"
        },
        {
          "internalType": "address",
          "name": "beneficiary",
          "type": "address"
        }
      ],
      "name": "getRoyaltiesForBeneficiary",
      "outputs": [
        {
          "internalType": "uint256",
          "name": "primaryCut",
          "type": "uint256"
        },
        {
          "internalType": "uint256",
          "name": "primaryMinimum",
          "type": "uint256"
        },
        {
          "internalType": "uint256",
          "name": "secondaryCut",
          "type": "uint256"
        },
        {
          "internalType": "uint256",
          "name": "secondaryMinimum",
          "type": "uint256"
        }
      ],
      "stateMutability": "view",
      "type": "function",
      "constant": true
    },
    {
      "inputs": [
        {
          "internalType": "bytes32",
          "name": "role",
          "type": "bytes32"
        },
        {
          "internalType": "address",
          "name": "account",
          "type": "address"
        }
      ],
      "name": "grantRole",
      "outputs": [],
      "stateMutability": "nonpayable",
      "type": "function"
    },
    {
      "inputs": [
        {
          "internalType": "bytes32",
          "name": "role",
          "type": "bytes32"
        },
        {
          "internalType": "address",
          "name": "account",
          "type": "address"
        }
      ],
      "name": "hasRole",
      "outputs": [
        {
          "internalType": "bool",
          "name": "",
          "type": "bool"
        }
      ],
      "stateMutability": "view",
      "type": "function",
      "constant": true
    },
    {
      "inputs": [
        {
          "internalType": "address",
          "name": "account",
          "type": "address"
        },
        {
          "internalType": "address",
          "name": "operator",
          "type": "address"
        }
      ],
      "name": "isApprovedForAll",
      "outputs": [
        {
          "internalType": "bool",
          "name": "",
          "type": "bool"
        }
      ],
      "stateMutability": "view",
      "type": "function",
      "constant": true
    },
    {
      "inputs": [
        {
          "internalType": "address",
          "name": "forwarder",
          "type": "address"
        }
      ],
      "name": "isTrustedForwarder",
      "outputs": [
        {
          "internalType": "bool",
          "name": "",
          "type": "bool"
        }
      ],
      "stateMutability": "view",
      "type": "function",
      "constant": true
    },
    {
      "inputs": [
        {
          "internalType": "address",
          "name": "",
          "type": "address"
        }
      ],
      "name": "issuanceNonces",
      "outputs": [
        {
          "internalType": "uint32",
          "name": "",
          "type": "uint32"
        }
      ],
      "stateMutability": "view",
      "type": "function",
      "constant": true
    },
    {
      "inputs": [
        {
          "internalType": "uint64",
          "name": "supply",
          "type": "uint64"
        },
        {
          "internalType": "bytes",
          "name": "data",
          "type": "bytes"
        }
      ],
      "name": "issue",
      "outputs": [
        {
          "internalType": "uint256",
          "name": "",
          "type": "uint256"
        }
      ],
      "stateMutability": "nonpayable",
      "type": "function"
    },
    {
      "inputs": [
        {
          "internalType": "address",
          "name": "",
          "type": "address"
        },
        {
          "internalType": "uint256",
          "name": "",
          "type": "uint256"
        }
      ],
      "name": "jointAccounts",
      "outputs": [
        {
          "internalType": "address",
          "name": "owner",
          "type": "address"
        },
        {
          "internalType": "uint256",
          "name": "fraction",
          "type": "uint256"
        }
      ],
      "stateMutability": "view",
      "type": "function",
      "constant": true
    },
    {
      "inputs": [
        {
          "internalType": "uint256",
          "name": "nftId",
          "type": "uint256"
        },
        {
          "internalType": "uint256",
          "name": "lockUntil",
          "type": "uint256"
        }
      ],
      "name": "lockRoyalties",
      "outputs": [],
      "stateMutability": "nonpayable",
      "type": "function"
    },
    {
      "inputs": [
        {
          "internalType": "address[]",
          "name": "owners",
          "type": "address[]"
        },
        {
          "internalType": "uint256[]",
          "name": "fractions",
          "type": "uint256[]"
        }
      ],
      "name": "makeAddressOfJointAccount",
      "outputs": [
        {
          "internalType": "address",
          "name": "",
          "type": "address"
        }
      ],
      "stateMutability": "pure",
      "type": "function",
      "constant": true
    },
    {
      "inputs": [
        {
          "internalType": "uint256",
          "name": "nftId",
          "type": "uint256"
        },
        {
          "internalType": "uint256",
          "name": "price",
          "type": "uint256"
        }
      ],
      "name": "makeOffer",
      "outputs": [],
      "stateMutability": "nonpayable",
      "type": "function"
    },
    {
      "inputs": [
        {
          "internalType": "uint256",
          "name": "nftId",
          "type": "uint256"
        }
      ],
      "name": "metadataURL",
      "outputs": [
        {
          "internalType": "string",
          "name": "",
          "type": "string"
        }
      ],
      "stateMutability": "view",
      "type": "function",
      "constant": true
    },
    {
      "inputs": [
        {
          "internalType": "bytes32",
          "name": "role",
          "type": "bytes32"
        },
        {
          "internalType": "address",
          "name": "account",
          "type": "address"
        }
      ],
      "name": "renounceRole",
      "outputs": [],
      "stateMutability": "nonpayable",
      "type": "function"
    },
    {
      "inputs": [
        {
          "internalType": "bytes32",
          "name": "role",
          "type": "bytes32"
        },
        {
          "internalType": "address",
          "name": "account",
          "type": "address"
        }
      ],
      "name": "revokeRole",
      "outputs": [],
      "stateMutability": "nonpayable",
      "type": "function"
    },
    {
      "inputs": [
        {
          "internalType": "address",
          "name": "from",
          "type": "address"
        },
        {
          "internalType": "address",
          "name": "to",
          "type": "address"
        },
        {
          "internalType": "uint256[]",
          "name": "ids",
          "type": "uint256[]"
        },
        {
          "internalType": "uint256[]",
          "name": "amounts",
          "type": "uint256[]"
        },
        {
          "internalType": "bytes",
          "name": "data",
          "type": "bytes"
        }
      ],
      "name": "safeBatchTransferFrom",
      "outputs": [],
      "stateMutability": "nonpayable",
      "type": "function"
    },
    {
      "inputs": [
        {
          "internalType": "address",
          "name": "from",
          "type": "address"
        },
        {
          "internalType": "address",
          "name": "to",
          "type": "address"
        },
        {
          "internalType": "uint256",
          "name": "id",
          "type": "uint256"
        },
        {
          "internalType": "uint256",
          "name": "amount",
          "type": "uint256"
        },
        {
          "internalType": "bytes",
          "name": "data",
          "type": "bytes"
        }
      ],
      "name": "safeTransferFrom",
      "outputs": [],
      "stateMutability": "nonpayable",
      "type": "function"
    },
    {
      "inputs": [
        {
          "internalType": "address",
          "name": "operator",
          "type": "address"
        },
        {
          "internalType": "bool",
          "name": "approved",
          "type": "bool"
        }
      ],
      "name": "setApprovalForAll",
      "outputs": [],
      "stateMutability": "nonpayable",
      "type": "function"
    },
    {
      "inputs": [
        {
          "internalType": "address",
          "name": "_currencyContract",
          "type": "address"
        }
      ],
      "name": "setERC20",
      "outputs": [],
      "stateMutability": "nonpayable",
      "type": "function"
    },
    {
      "inputs": [
        {
          "internalType": "bytes4",
          "name": "interfaceId",
          "type": "bytes4"
        }
      ],
      "name": "supportsInterface",
      "outputs": [
        {
          "internalType": "bool",
          "name": "",
          "type": "bool"
        }
      ],
      "stateMutability": "view",
      "type": "function",
      "constant": true
    },
    {
      "inputs": [
        {
          "internalType": "address",
          "name": "buyer",
          "type": "address"
        },
        {
          "internalType": "address",
          "name": "seller",
          "type": "address"
        },
        {
          "internalType": "uint256",
          "name": "nftId",
          "type": "uint256"
        },
        {
          "internalType": "uint256",
          "name": "expectedPriceOrZero",
          "type": "uint256"
        },
        {
          "internalType": "uint256",
          "name": "amount",
          "type": "uint256"
        }
      ],
      "name": "takeOffer",
      "outputs": [],
      "stateMutability": "nonpayable",
      "type": "function"
    },
    {
      "inputs": [
        {
          "internalType": "address",
          "name": "from",
          "type": "address"
        },
        {
          "internalType": "address",
          "name": "to",
          "type": "address"
        },
        {
          "internalType": "uint256",
          "name": "id",
          "type": "uint256"
        },
        {
          "internalType": "uint256",
          "name": "amount",
          "type": "uint256"
        }
      ],
      "name": "transferFrom",
      "outputs": [],
      "stateMutability": "nonpayable",
      "type": "function"
    },
    {
      "inputs": [
        {
          "internalType": "address",
          "name": "newImplementation",
          "type": "address"
        }
      ],
      "name": "upgradeTo",
      "outputs": [],
      "stateMutability": "nonpayable",
      "type": "function"
    },
    {
      "inputs": [
        {
          "internalType": "address",
          "name": "newImplementation",
          "type": "address"
        },
        {
          "internalType": "bytes",
          "name": "data",
          "type": "bytes"
        }
      ],
      "name": "upgradeToAndCall",
      "outputs": [],
      "stateMutability": "payable",
      "type": "function",
      "payable": true
    },
    {
      "inputs": [
        {
          "internalType": "uint256",
          "name": "",
          "type": "uint256"
        }
      ],
      "name": "uri",
      "outputs": [
        {
          "internalType": "string",
          "name": "",
          "type": "string"
        }
      ],
      "stateMutability": "view",
      "type": "function",
      "constant": true
    },
    {
      "inputs": [
        {
          "internalType": "uint256",
          "name": "amount",
          "type": "uint256"
        }
      ],
      "name": "withdraw",
      "outputs": [],
      "stateMutability": "nonpayable",
      "type": "function"
    },
    {
      "inputs": [
        {
          "internalType": "string",
          "name": "baseURL",
          "type": "string"
        }
      ],
      "name": "initialize",
      "outputs": [],
      "stateMutability": "nonpayable",
      "type": "function"
    }
  ],
  "bytecode": "0x608060405234801561001057600080fd5b506146b7806100206000396000f3fe6080604052600436106102175760003560e01c8062fdd58e1461021c57806301ffc9a71461024f57806305b7cdd31461027f5780630e89341c146102a1578063248a9ca3146102ce5780632c8f284c146102ee5780632e1a7d4d1461030e5780632eb2c2d61461032e5780632f2ff15d1461034e57806330b064211461036e57806336568abe146103835780633659cfe6146103a357806339b276f4146103c35780633a789b8e146103e35780633c6b570914610403578063448588e3146104235780634559a29b146104455780634880d247146104735780634e1273f4146104935780634f1ef286146104c05780635611cac2146104d3578063572b6c051461050057806358556fb0146105205780635c5d67881461054057806360e3ecd01461056057806391d14854146105825780639a86e8ce146105a25780639e00bb96146105c4578063a217fddf146105e4578063a22cb465146105f9578063a5e1fcd714610619578063ac71045e14610639578063acc08fa51461067d578063ad09608a146106c6578063b6b55f25146106e6578063b95812f414610706578063ba7f4dfe14610727578063bb3bafd614610747578063c29a6fda146107cd578063d547741f146107ed578063e1f1c4a71461080d578063e24b0a2b14610823578063e985e9c514610863578063f242432a14610883578063f5361219146105e4578063f62d1888146108a3578063fe99049a146108c3575b600080fd5b34801561022857600080fd5b5061023c610237366004613b44565b6108e3565b6040519081526020015b60405180910390f35b34801561025b57600080fd5b5061026f61026a366004613d07565b61097f565b6040519015158152602001610246565b34801561028b57600080fd5b5061029f61029a366004613de6565b610999565b005b3480156102ad57600080fd5b506102c16102bc366004613ccd565b610a05565b6040516102469190614100565b3480156102da57600080fd5b5061023c6102e9366004613ccd565b610a99565b3480156102fa57600080fd5b5061023c6103093660046138fd565b610aae565b34801561031a57600080fd5b5061029f610329366004613ccd565b610b48565b34801561033a57600080fd5b5061029f61034936600461392f565b610bea565b34801561035a57600080fd5b5061029f610369366004613ce5565b610edf565b34801561037a57600080fd5b5061023c600a81565b34801561038f57600080fd5b5061029f61039e366004613ce5565b610f03565b3480156103af57600080fd5b5061029f6103be3660046138e3565b610f91565b3480156103cf57600080fd5b5061029f6103de366004613de6565b610fb8565b3480156103ef57600080fd5b506102c16103fe366004613ccd565b6110a3565b34801561040f57600080fd5b5061023c61041e366004613ba5565b611196565b34801561042f57600080fd5b5061023c60008051602061462f83398151915281565b34801561045157600080fd5b50610465610460366004613b44565b6111c7565b604051610246929190614075565b34801561047f57600080fd5b5061029f61048e366004613a77565b61120e565b34801561049f57600080fd5b506104b36104ae366004613bf1565b6113ce565b60405161024691906140c8565b61029f6104ce366004613af9565b61152f565b3480156104df57600080fd5b506104f36104ee366004613bf1565b611544565b6040516102469190613fbe565b34801561050c57600080fd5b5061026f61051b3660046138e3565b61157d565b34801561052c57600080fd5b5061023c61053b366004613e07565b611597565b34801561054c57600080fd5b5061023c61055b366004613b6d565b6115ab565b34801561056c57600080fd5b5061023c6000805160206145ef83398151915281565b34801561058e57600080fd5b5061026f61059d366004613ce5565b611643565b3480156105ae57600080fd5b5061023c6000805160206145cf83398151915281565b3480156105d057600080fd5b5061023c6105df3660046138fd565b61166e565b3480156105f057600080fd5b5061023c600081565b34801561060557600080fd5b5061029f610614366004613ac3565b6116af565b34801561062557600080fd5b5061029f6106343660046138e3565b6117c3565b34801561064557600080fd5b5061023c610654366004613b44565b6001600160a01b0391909116600090815261013860209081526040808320938352929052205490565b34801561068957600080fd5b506106b16106983660046138e3565b61012e6020526000908152604090205463ffffffff1681565b60405163ffffffff9091168152602001610246565b3480156106d257600080fd5b5061029f6106e1366004613d84565b61187c565b3480156106f257600080fd5b5061029f610701366004613ccd565b611aa7565b34801561071257600080fd5b5061012d546104f3906001600160a01b031681565b34801561073357600080fd5b506104f3610742366004613bf1565b611b5d565b34801561075357600080fd5b506107bb610762366004613ccd565b6000908152610131602090815260408083205461013283528184205461013384528285205461013485528386205461013586528487205461013690965293909520546001600160a01b0392831696919594929093169290565b6040516102469695949392919061408e565b3480156107d957600080fd5b5061029f6107e83660046138e3565b611e79565b3480156107f957600080fd5b5061029f610808366004613ce5565b611ec9565b34801561081957600080fd5b5061023c61271081565b34801561082f57600080fd5b5061084361083e366004613ce5565b611ee8565b604080519485526020850193909352918301526060820152608001610246565b34801561086f57600080fd5b5061026f61087e3660046138fd565b611ff4565b34801561088f57600080fd5b5061029f61089e366004613a15565b612049565b3480156108af57600080fd5b5061029f6108be366004613d3f565b6121d1565b3480156108cf57600080fd5b5061029f6108de3660046139d4565b612246565b60006001600160a01b0383166109545760405162461bcd60e51b815260206004820152602b60248201527f455243313135353a2062616c616e636520717565727920666f7220746865207a60448201526a65726f206164647265737360a81b60648201526084015b60405180910390fd5b50600081815260c9602090815260408083206001600160a01b03861684529091529020545b92915050565b600061098a826122c2565b80610979575061097982612312565b60006109a3612337565b6001600160a01b038116600081815261013860209081526040808320888452825291829020869055905185815292935085927f040259e2f9c7930380b3a5c979ad8a30ecf8d344d3bcdb149e2c454ab85fcd8f910160405180910390a3505050565b606060cb8054610a14906143cb565b80601f0160208091040260200160405190810160405280929190818152602001828054610a40906143cb565b8015610a8d5780601f10610a6257610100808354040283529160200191610a8d565b820191906000526020600020905b815481529060010190602001808311610a7057829003601f168201915b50505050509050919050565b600090815260fb602052604090206001015490565b6001600160a01b038216600090815261013060205260408120815b8154811015610b3d576000828281548110610af457634e487b7160e01b600052603260045260246000fd5b6000918252602090912060029091020180549091506001600160a01b0386811691161415610b2a57600101549250610979915050565b5080610b3581614432565b915050610ac9565b506000949350505050565b6000610b52612337565b9050610b6081600084612346565b61012d5460405163a9059cbb60e01b81526001600160a01b039091169063a9059cbb90610b939084908690600401614075565b602060405180830381600087803b158015610bad57600080fd5b505af1158015610bc1573d6000803e3d6000fd5b505050506040513d601f19601f82011682018060405250810190610be59190613cb1565b505050565b8151835114610c4c5760405162461bcd60e51b815260206004820152602860248201527f455243313135353a2069647320616e6420616d6f756e7473206c656e677468206044820152670dad2e6dac2e8c6d60c31b606482015260840161094b565b6001600160a01b038416610c725760405162461bcd60e51b815260040161094b906141a4565b610c7a612337565b6001600160a01b0316856001600160a01b03161480610ca05750610ca08561087e612337565b610d075760405162461bcd60e51b815260206004820152603260248201527f455243313135353a207472616e736665722063616c6c6572206973206e6f74206044820152711bdddb995c881b9bdc88185c1c1c9bdd995960721b606482015260840161094b565b6000610d11612337565b9050610d218187878787876124c9565b60005b8451811015610e71576000858281518110610d4f57634e487b7160e01b600052603260045260246000fd5b602002602001015190506000858381518110610d7b57634e487b7160e01b600052603260045260246000fd5b602090810291909101810151600084815260c9835260408082206001600160a01b038e168352909352919091205490915081811015610dcc5760405162461bcd60e51b815260040161094b90614283565b610dd68282614371565b60c9600085815260200190815260200160002060008c6001600160a01b03166001600160a01b03168152602001908152602001600020819055508160c9600085815260200190815260200160002060008b6001600160a01b03166001600160a01b031681526020019081526020016000206000828254610e5691906142fe565b9250508190555050505080610e6a90614432565b9050610d24565b50846001600160a01b0316866001600160a01b0316826001600160a01b03167f4a39dc06d4c0dbc64b70af90fd698a233a518aa5d07e595d983b8c0526c8f7fb8787604051610ec19291906140db565b60405180910390a4610ed7818787878787612541565b505050505050565b610ee882610a99565b610ef981610ef4612337565b6126ac565b610be58383612710565b610f0b612337565b6001600160a01b0316816001600160a01b031614610f835760405162461bcd60e51b815260206004820152602f60248201527f416363657373436f6e74726f6c3a2063616e206f6e6c792072656e6f756e636560448201526e103937b632b9903337b91039b2b63360891b606482015260840161094b565b610f8d8282612797565b5050565b610f9a8161281c565b610fb581604051806020016040528060008152506000612860565b50565b6000610fc2612337565b9050610fce81846129dc565b610fd757600080fd5b6000838152610137602052604090205482116110505760405162461bcd60e51b815260206004820152603260248201527f526f79616c7469657320636f6e66696775726174696f6e2063616e6e6f74206260448201527132903ab73637b1b5b2b21032b0b93634b2b960711b606482015260840161094b565b60008381526101376020526040908190208390555183907f7bdd35d2167385bdbed0892e34b48298770ffce27fe71928c767071865f51544906110969085815260200190565b60405180910390a2505050565b6060600061012f80546110b5906143cb565b80601f01602080910402602001604051908101604052809291908181526020018280546110e1906143cb565b801561112e5780601f106111035761010080835404028352916020019161112e565b820191906000526020600020905b81548152906001019060200180831161111157829003601f168201915b505050505090506000611140846129ef565b90506000604051806040016040528060098152602001682f6d6574616461746160b81b815250905082828260405160200161117d93929190613f0c565b6040516020818303038152906040529350505050919050565b6001600160601b0319606084901b1663ffffffff60401b604084901b16176001600160401b038216175b9392505050565b61013060205281600052604060002081815481106111e457600080fd5b6000918252602090912060029091020180546001909101546001600160a01b039091169250905082565b6000611218612337565b6001600160a01b0386166000908152610138602090815260408083208884529091529020549091508061127c5760405162461bcd60e51b815260206004820152600c60248201526b4e6f7420666f722073616c6560a01b604482015260640161094b565b83158061128857508084145b6112c75760405162461bcd60e51b815260206004820152601060248201526f556e657870656374656420707269636560801b604482015260640161094b565b60006112d38483614352565b90506112de81611aa7565b6112fb838860008460405180602001604052806000815250612049565b600061130988888588612b08565b9050818111156113695760405162461bcd60e51b815260206004820152602560248201527f43616e6e6f742074616b65206d6f72652066656573207468616e2074686520706044820152643934b1b29760d91b606482015260840161094b565b611375888a8988612c17565b86886001600160a01b03168a6001600160a01b03167fe90359125940e7c9b26005d19d4d8a2a5335ea8bef094bcd61bb8f8091cad11786896040516113bb9291906142cd565b60405180910390a4505050505050505050565b606081518351146114335760405162461bcd60e51b815260206004820152602960248201527f455243313135353a206163636f756e747320616e6420696473206c656e677468604482015268040dad2e6dac2e8c6d60bb1b606482015260840161094b565b600083516001600160401b0381111561145c57634e487b7160e01b600052604160045260246000fd5b604051908082528060200260200182016040528015611485578160200160208202803683370190505b50905060005b8451811015611527576114ec8582815181106114b757634e487b7160e01b600052603260045260246000fd5b60200260200101518583815181106114df57634e487b7160e01b600052603260045260246000fd5b60200260200101516108e3565b82828151811061150c57634e487b7160e01b600052603260045260246000fd5b602090810291909101015261152081614432565b905061148b565b509392505050565b6115388261281c565b610f8d82826001612860565b600080838360405160200161155a929190613e88565b60408051808303601f19018152919052805160209091012060601c949350505050565b60006109796000805160206145cf83398151915283611643565b60006111c06115a4612337565b8484612d01565b6000806115b6612337565b90506115c28682611ff4565b61162b5760405162461bcd60e51b815260206004820152603460248201527f746865206f70657261746f72206d75737420626520617070726f766564206f726044820152731030902a2920a729a322a92fa7a822a920aa27a960611b606482015260840161094b565b61163786868686612b08565b9150505b949350505050565b600091825260fb602090815260408084206001600160a01b0393909316845291905290205460ff1690565b60008061167b8484610aae565b9050600061168a8560006108e3565b9050600061271061169b8484614352565b6116a5919061433e565b9695505050505050565b816001600160a01b03166116c1612337565b6001600160a01b0316141561172a5760405162461bcd60e51b815260206004820152602960248201527f455243313135353a2073657474696e6720617070726f76616c20737461747573604482015268103337b91039b2b63360b91b606482015260840161094b565b8060ca6000611737612337565b6001600160a01b03908116825260208083019390935260409182016000908120918716808252919093529120805460ff19169215159290921790915561177b612337565b6001600160a01b03167f17307eab39ab6107e8899845ad3d59bd9653f200f220920489ca2b5937696c31836040516117b7911515815260200190565b60405180910390a35050565b60006117d08260006108e3565b6001600160a01b0383166000908152610130602052604081209192505b815481101561187657600082828154811061181857634e487b7160e01b600052603260045260246000fd5b90600052602060002090600202019050600061271082600101548661183d9190614352565b611847919061433e565b82549091506118619087906001600160a01b031683612d9f565b5050808061186e90614432565b9150506117ed565b50505050565b6000611886612337565b905061189281896129dc565b6118f45760405162461bcd60e51b815260206004820152602d60248201527f4f6e6c792074686520697373756572206f662074686973204e46542063616e2060448201526c73657420726f79616c7469657360981b606482015260840161094b565b600088815261013760205260409020544210156119655760405162461bcd60e51b815260206004820152602960248201527f526f79616c7469657320636f6e66696775726174696f6e206973206c6f636b656044820152686420666f72206e6f7760b81b606482015260840161094b565b6001600160a01b038716151580611983575085158015611983575084155b61199f5760405162461bcd60e51b815260040161094b906141e9565b60008881526101316020908152604080832080546001600160a01b0319166001600160a01b038c81169190911790915561013283528184208a905561013390925290912086905584161515806119fc5750821580156119fc575081155b611a185760405162461bcd60e51b815260040161094b906141e9565b60008881526101346020908152604080832080546001600160a01b0319166001600160a01b0389161790556101358252808320869055610136909152908190208390555188907f3df2272e42784a2455bbbdcdf25ae0f67d41f801896514cc4cd255aa8ee75e4c90611a95908a908a908a908a908a908a9061408e565b60405180910390a25050505050505050565b6000611ab1612337565b61012d546040516323b872dd60e01b81526001600160a01b038084166004830152306024830152604482018690529293509116906323b872dd90606401602060405180830381600087803b158015611b0857600080fd5b505af1158015611b1c573d6000803e3d6000fd5b505050506040513d601f19601f82011682018060405250810190611b409190613cb1565b50610f8d8160008460405180602001604052806000815250612e82565b60008151835114611bd15760405162461bcd60e51b815260206004820152603860248201527f417272617973206f66206f776e65727320616e64206672616374696f6e73206d6044820152770eae6e840d0c2ecca40e8d0ca40e6c2daca40d8cadccee8d60431b606482015260840161094b565b600a83511115611c155760405162461bcd60e51b815260206004820152600f60248201526e546f6f206d616e792073686172657360881b604482015260640161094b565b6000611c218484611544565b6001600160a01b03811660009081526101306020526040902080549192509015611c8a5760405162461bcd60e51b815260206004820152601a602482015279546865206163636f756e7420616c72656164792065786973747360301b604482015260640161094b565b6000805b8651811015611e1d576000878281518110611cb957634e487b7160e01b600052603260045260246000fd5b602002602001015190506000878381518110611ce557634e487b7160e01b600052603260045260246000fd5b6020026020010151905060006001600160a01b0316826001600160a01b031614158015611d1157508015155b611d5a5760405162461bcd60e51b815260206004820152601a6024820152790c081d985b1d595cc8185c99481b9bdd081c195c9b5a5d1d195960321b604482015260640161094b565b604080518082019091526001600160a01b0383811682526020808301848152885460018082018b5560008b8152939093209451600290910290940180546001600160a01b031916949093169390931782559151910155611dba81856142fe565b9350816001600160a01b0316866001600160a01b03167e6fb9851f1fd2fbc9fa36680d17e1254999a38e5f3c76c3a1ecc126a464601b83604051611e0091815260200190565b60405180910390a350508080611e1590614432565b915050611c8e565b506127108114611e6f5760405162461bcd60e51b815260206004820152601e60248201527f546f74616c206672616374696f6e73206d7573742062652031302c3030300000604482015260640161094b565b5090949350505050565b61012d546001600160a01b031615611e9057600080fd5b611e9d600061059d612337565b611ea657600080fd5b61012d80546001600160a01b0319166001600160a01b0392909216919091179055565b611ed282610a99565b611ede81610ef4612337565b610be58383612797565b600082815261013260209081526040808320546101338352818420546101319093529083205490929081906001600160a01b039081169086168114611f69576000611f338288610aae565b9050612710611f428288614352565b611f4c919061433e565b9550612710611f5b8287614352565b611f65919061433e565b9450505b6000878152610135602090815260408083205461013683528184205461013490935292205491945092506001600160a01b039081169087168114611fe9576000611fb38289610aae565b9050612710611fc28287614352565b611fcc919061433e565b9450612710611fdb8286614352565b611fe5919061433e565b9350505b505092959194509250565b600061200e6000805160206145ef83398151915283611643565b1561201b57506001610979565b6001600160a01b03808416600090815260ca602090815260408083209386168352929052205460ff166111c0565b6001600160a01b03841661206f5760405162461bcd60e51b815260040161094b906141a4565b612077612337565b6001600160a01b0316856001600160a01b0316148061209d575061209d8561087e612337565b6120b95760405162461bcd60e51b815260040161094b9061415b565b60006120c3612337565b90506120e38187876120d488612f8c565b6120dd88612f8c565b876124c9565b600084815260c9602090815260408083206001600160a01b038a168452909152902054838110156121265760405162461bcd60e51b815260040161094b90614283565b6121308482614371565b600086815260c9602090815260408083206001600160a01b038c8116855292528083209390935588168152908120805486929061216e9084906142fe565b92505081905550856001600160a01b0316876001600160a01b0316836001600160a01b031660008051602061456883398151915288886040516121b29291906142cd565b60405180910390a46121c8828888888888612fe5565b50505050505050565b600054610100900460ff16806121ea575060005460ff16155b6122065760405162461bcd60e51b815260040161094b90614235565b600054610100900460ff16158015612228576000805461ffff19166101011790555b612231826130af565b8015610f8d576000805461ff00191690555050565b6001600160a01b03831661226c5760405162461bcd60e51b815260040161094b906141a4565b612274612337565b6001600160a01b0316846001600160a01b0316148061229a575061229a8461087e612337565b6122b65760405162461bcd60e51b815260040161094b9061415b565b61187684848484612c17565b60006001600160e01b03198216636cdb3d1360e11b14806122f357506001600160e01b031982166303a24d0760e21b145b8061097957506301ffc9a760e01b6001600160e01b0319831614610979565b60006001600160e01b03198216637965db0b60e01b14806109795750610979826122c2565b60006123416130b8565b905090565b6001600160a01b0383166123a85760405162461bcd60e51b815260206004820152602360248201527f455243313135353a206275726e2066726f6d20746865207a65726f206164647260448201526265737360e81b606482015260840161094b565b60006123b2612337565b90506123e2818560006123c487612f8c565b6123cd87612f8c565b604051806020016040528060008152506124c9565b600083815260c9602090815260408083206001600160a01b0388168452909152902054828110156124615760405162461bcd60e51b8152602060048201526024808201527f455243313135353a206275726e20616d6f756e7420657863656564732062616c604482015263616e636560e01b606482015260840161094b565b61246b8382614371565b600085815260c9602090815260408083206001600160a01b03808b1680865291909352818420949094555191929190851690600080516020614568833981519152906124ba90899089906142cd565b60405180910390a45050505050565b60005b83518110156121c857612530868583815181106124f957634e487b7160e01b600052603260045260246000fd5b6020026020010151600086858151811061252357634e487b7160e01b600052603260045260246000fd5b6020026020010151612b08565b5061253a81614432565b90506124cc565b6001600160a01b0384163b15610ed75760405163bc197c8160e01b81526001600160a01b0385169063bc197c81906125859089908990889088908890600401613fd2565b602060405180830381600087803b15801561259f57600080fd5b505af19250505080156125cf575060408051601f3d908101601f191682019092526125cc91810190613d23565b60015b61267c576125db6144a3565b806308c379a0141561261557506125f06144ba565b806125fb5750612617565b8060405162461bcd60e51b815260040161094b9190614100565b505b60405162461bcd60e51b815260206004820152603460248201527f455243313135353a207472616e7366657220746f206e6f6e20455243313135356044820152732932b1b2b4bb32b91034b6b83632b6b2b73a32b960611b606482015260840161094b565b6001600160e01b0319811663bc197c8160e01b146121c85760405162461bcd60e51b815260040161094b90614113565b6126b68282611643565b610f8d576126ce816001600160a01b031660146130dd565b6126d98360206130dd565b6040516020016126ea929190613f4f565b60408051601f198184030181529082905262461bcd60e51b825261094b91600401614100565b61271a8282611643565b610f8d57600082815260fb602090815260408083206001600160a01b03851684529091529020805460ff19166001179055612753612337565b6001600160a01b0316816001600160a01b0316837f2f8788117e7eff1d82e926ec794901d17c78024a50270940304540a733656f0d60405160405180910390a45050565b6127a18282611643565b15610f8d57600082815260fb602090815260408083206001600160a01b03851684529091529020805460ff191690556127d8612337565b6001600160a01b0316816001600160a01b0316837ff6391f5c32d9c69d2a47ea670b442974b53935d1edc7fd64eb21e047a839171b60405160405180910390a45050565b612827600033611643565b610fb55760405162461bcd60e51b815260206004820152600a60248201526927b7363c9020b236b4b760b11b604482015260640161094b565b600061286a6132be565b9050612875846132da565b6000835111806128825750815b1561289357612891848461336d565b505b7f4910fdfa16fed3260ed0e7147f7cc6da11a60208b5b9406d12a635614ffd9143805460ff166129d557805460ff1916600117815560405161290e9086906128df908590602401613fbe565b60408051601f198184030181529190526020810180516001600160e01b0316631b2ce7f360e11b17905261336d565b50805460ff1916815561291f6132be565b6001600160a01b0316826001600160a01b0316146129975760405162461bcd60e51b815260206004820152602f60248201527f45524331393637557067726164653a207570677261646520627265616b73206660448201526e75727468657220757067726164657360881b606482015260840161094b565b6129a0856132da565b6040516001600160a01b038616907fbc7cd75a20ee27fd9adebab32041f755214dbc6bffa90cc0225b39da2e5c2d3b90600090a25b5050505050565b60601c6001600160a01b03919091161490565b606081612a135750506040805180820190915260018152600360fc1b602082015290565b8160005b8115612a3d5780612a2781614432565b9150612a369050600a8361433e565b9150612a17565b6000816001600160401b03811115612a6557634e487b7160e01b600052604160045260246000fd5b6040519080825280601f01601f191660200182016040528015612a8f576020820181803683370190505b5090505b841561163b57612aa4600183614371565b9150612ab1600a8661444d565b612abc9060306142fe565b60f81b818381518110612adf57634e487b7160e01b600052603260045260246000fd5b60200101906001600160f81b031916908160001a905350612b01600a8661433e565b9450612a93565b600083612b175750600061163b565b612b2f60008051602061462f83398151915233611643565b15612b3c5750600061163b565b600080600080612b4c89896129dc565b90508015612b8e576000888152610132602090815260408083205461013383528184205461013190935292205491955093506001600160a01b03169150612bc4565b6000888152610135602090815260408083205461013683528184205461013490935292205491955093506001600160a01b031691505b6000612710612bd3868a614352565b612bdd919061433e565b905083811015612bea5750825b6000612bf68883614352565b90508015612c0957612c098b8583612d9f565b9a9950505050505050505050565b600082815260c9602090815260408083206001600160a01b038816845290915290205481811015612c5a5760405162461bcd60e51b815260040161094b90614283565b612c648282614371565b600084815260c9602090815260408083206001600160a01b038a81168552925280832093909355861681529081208054849290612ca29084906142fe565b9091555060009050612cb2612337565b9050846001600160a01b0316866001600160a01b0316826001600160a01b03166000805160206145688339815191528787604051612cf19291906142cd565b60405180910390a4505050505050565b6001600160a01b038316600090815261012e602052604081205463ffffffff16612d2c816001614316565b6001600160a01b038616600090815261012e60205260408120805463ffffffff191663ffffffff9390931692909217909155612d69868387611196565b90506000856001600160401b031611612d8157600080fd5b612d968682876001600160401b031687612e82565b95945050505050565b6001600160a01b038316600090815260008051602061460f833981519152602052604090205481811015612de55760405162461bcd60e51b815260040161094b90614283565b612def8282614371565b6001600160a01b03858116600090815260008051602061460f83398151915260205260408082209390935590851681529081208054849290612e329084906142fe565b9091555060009050612e42612337565b9050836001600160a01b0316856001600160a01b0316826001600160a01b03166000805160206145688339815191526000876040516124ba9291906142cd565b6001600160a01b038416612ee25760405162461bcd60e51b815260206004820152602160248201527f455243313135353a206d696e7420746f20746865207a65726f206164647265736044820152607360f81b606482015260840161094b565b6000612eec612337565b9050612efe816000876120d488612f8c565b600084815260c9602090815260408083206001600160a01b038916845290915281208054859290612f309084906142fe565b92505081905550846001600160a01b031660006001600160a01b0316826001600160a01b03166000805160206145688339815191528787604051612f759291906142cd565b60405180910390a46129d581600087878787612fe5565b60408051600180825281830190925260609160009190602080830190803683370190505090508281600081518110612fd457634e487b7160e01b600052603260045260246000fd5b602090810291909101015292915050565b6001600160a01b0384163b15610ed75760405163f23a6e6160e01b81526001600160a01b0385169063f23a6e61906130299089908990889088908890600401614030565b602060405180830381600087803b15801561304357600080fd5b505af1925050508015613073575060408051601f3d908101601f1916820190925261307091810190613d23565b60015b61307f576125db6144a3565b6001600160e01b0319811663f23a6e6160e01b146121c85760405162461bcd60e51b815260040161094b90614113565b610fb58161344f565b60006130c33361157d565b156130d5575060131936013560601c90565b503390565b90565b606060006130ec836002614352565b6130f79060026142fe565b6001600160401b0381111561311c57634e487b7160e01b600052604160045260246000fd5b6040519080825280601f01601f191660200182016040528015613146576020820181803683370190505b509050600360fc1b8160008151811061316f57634e487b7160e01b600052603260045260246000fd5b60200101906001600160f81b031916908160001a905350600f60fb1b816001815181106131ac57634e487b7160e01b600052603260045260246000fd5b60200101906001600160f81b031916908160001a90535060006131d0846002614352565b6131db9060016142fe565b90505b600181111561326f576f181899199a1a9b1b9c1cb0b131b232b360811b85600f166010811061321d57634e487b7160e01b600052603260045260246000fd5b1a60f81b82828151811061324157634e487b7160e01b600052603260045260246000fd5b60200101906001600160f81b031916908160001a90535060049490941c93613268816143b4565b90506131de565b5083156111c05760405162461bcd60e51b815260206004820181905260248201527f537472696e67733a20686578206c656e67746820696e73756666696369656e74604482015260640161094b565b600080516020614588833981519152546001600160a01b031690565b803b61333e5760405162461bcd60e51b815260206004820152602d60248201527f455243313936373a206e657720696d706c656d656e746174696f6e206973206e60448201526c1bdd08184818dbdb9d1c9858dd609a1b606482015260840161094b565b60008051602061458883398151915280546001600160a01b0319166001600160a01b0392909216919091179055565b6060823b6133cc5760405162461bcd60e51b815260206004820152602660248201527f416464726573733a2064656c65676174652063616c6c20746f206e6f6e2d636f6044820152651b9d1c9858dd60d21b606482015260840161094b565b600080846001600160a01b0316846040516133e79190613ef0565b600060405180830381855af49150503d8060008114613422576040519150601f19603f3d011682016040523d82523d6000602084013e613427565b606091505b5091509150612d9682826040518060600160405280602781526020016145a860279139613458565b610fb581613491565b606083156134675750816111c0565b8251156134775782518084602001fd5b8160405162461bcd60e51b815260040161094b9190614100565b610fb58180516134a99061012f906020840190613727565b50610fb56134b56134b7565b565b6134b56134b56134de60405180606001604052806033815260200161464f603391396134e6565b6134b5613556565b600054610100900460ff16806134ff575060005460ff16155b61351b5760405162461bcd60e51b815260040161094b90614235565b600054610100900460ff1615801561353d576000805461ffff19166101011790555b61354561355e565b61354d61355e565b612231826135c9565b6134b5613629565b600054610100900460ff1680613577575060005460ff16155b6135935760405162461bcd60e51b815260040161094b90614235565b600054610100900460ff161580156135b5576000805461ffff19166101011790555b8015610fb5576000805461ff001916905550565b600054610100900460ff16806135e2575060005460ff16155b6135fe5760405162461bcd60e51b815260040161094b90614235565b600054610100900460ff16158015613620576000805461ffff19166101011790555b61223182613644565b613631613657565b6136396136be565b6134b560003361371d565b8051610f8d9060cb906020840190613727565b600054610100900460ff1680613670575060005460ff16155b61368c5760405162461bcd60e51b815260040161094b90614235565b600054610100900460ff161580156136ae576000805461ffff19166101011790555b6136b661355e565b6135b561355e565b600054610100900460ff16806136d7575060005460ff16155b6136f35760405162461bcd60e51b815260040161094b90614235565b600054610100900460ff16158015613715576000805461ffff19166101011790555b6136ae61355e565b610f8d8282612710565b828054613733906143cb565b90600052602060002090601f016020900481019282613755576000855561379b565b82601f1061376e57805160ff191683800117855561379b565b8280016001018555821561379b579182015b8281111561379b578251825591602001919060010190613780565b506137a79291506137ab565b5090565b5b808211156137a757600081556001016137ac565b60006001600160401b038311156137d9576137d961448d565b6040516137f0601f8501601f191660200182614406565b80915083815284848401111561380557600080fd5b83836020830137600060208583010152509392505050565b80356001600160a01b038116811461383457600080fd5b919050565b600082601f830112613849578081fd5b81356020613856826142db565b6040516138638282614406565b8381528281019150858301600585901b87018401881015613882578586fd5b855b858110156138a057813584529284019290840190600101613884565b5090979650505050505050565b600082601f8301126138bd578081fd5b6111c0838335602085016137c0565b80356001600160401b038116811461383457600080fd5b6000602082840312156138f4578081fd5b6111c08261381d565b6000806040838503121561390f578081fd5b6139188361381d565b91506139266020840161381d565b90509250929050565b600080600080600060a08688031215613946578081fd5b61394f8661381d565b945061395d6020870161381d565b935060408601356001600160401b0380821115613978578283fd5b61398489838a01613839565b94506060880135915080821115613999578283fd5b6139a589838a01613839565b935060808801359150808211156139ba578283fd5b506139c7888289016138ad565b9150509295509295909350565b600080600080608085870312156139e9578384fd5b6139f28561381d565b9350613a006020860161381d565b93969395505050506040820135916060013590565b600080600080600060a08688031215613a2c578081fd5b613a358661381d565b9450613a436020870161381d565b9350604086013592506060860135915060808601356001600160401b03811115613a6b578182fd5b6139c7888289016138ad565b600080600080600060a08688031215613a8e578283fd5b613a978661381d565b9450613aa56020870161381d565b94979496505050506040830135926060810135926080909101359150565b60008060408385031215613ad5578182fd5b613ade8361381d565b91506020830135613aee81614543565b809150509250929050565b60008060408385031215613b0b578182fd5b613b148361381d565b915060208301356001600160401b03811115613b2e578182fd5b613b3a858286016138ad565b9150509250929050565b60008060408385031215613b56578182fd5b613b5f8361381d565b946020939093013593505050565b60008060008060808587031215613b82578182fd5b613b8b8561381d565b966020860135965060408601359560600135945092505050565b600080600060608486031215613bb9578081fd5b613bc28461381d565b9250602084013563ffffffff81168114613bda578182fd5b9150613be8604085016138cc565b90509250925092565b60008060408385031215613c03578182fd5b82356001600160401b0380821115613c19578384fd5b818501915085601f830112613c2c578384fd5b81356020613c39826142db565b604051613c468282614406565b8381528281019150858301600585901b870184018b1015613c65578889fd5b8896505b84871015613c8e57613c7a8161381d565b835260019690960195918301918301613c69565b5096505086013592505080821115613ca4578283fd5b50613b3a85828601613839565b600060208284031215613cc2578081fd5b81516111c081614543565b600060208284031215613cde578081fd5b5035919050565b60008060408385031215613cf7578182fd5b823591506139266020840161381d565b600060208284031215613d18578081fd5b81356111c081614551565b600060208284031215613d34578081fd5b81516111c081614551565b600060208284031215613d50578081fd5b81356001600160401b03811115613d65578182fd5b8201601f81018413613d75578182fd5b61163b848235602084016137c0565b600080600080600080600060e0888a031215613d9e578485fd5b87359650613dae6020890161381d565b95506040880135945060608801359350613dca6080890161381d565b925060a0880135915060c0880135905092959891949750929550565b60008060408385031215613df8578182fd5b50508035926020909101359150565b60008060408385031215613e19578182fd5b613b14836138cc565b6000815180845260208085019450808401835b83811015613e5157815187529582019590820190600101613e35565b509495945050505050565b60008151808452613e74816020860160208601614388565b601f01601f19169290920160200192915050565b825160009082906020808701845b83811015613ebb5781516001600160a01b031685529382019390820190600101613e96565b50508551818701939250845b81811015613ee357845184529382019392820192600101613ec7565b5091979650505050505050565b60008251613f02818460208701614388565b9190910192915050565b60008451613f1e818460208901614388565b845190830190613f32818360208901614388565b8451910190613f45818360208801614388565b0195945050505050565b76020b1b1b2b9b9a1b7b73a3937b61d1030b1b1b7bab73a1604d1b815260008351613f81816017850160208801614388565b7001034b99036b4b9b9b4b733903937b6329607d1b6017918401918201528351613fb2816028840160208801614388565b01602801949350505050565b6001600160a01b0391909116815260200190565b6001600160a01b0386811682528516602082015260a060408201819052600090613ffe90830186613e22565b82810360608401526140108186613e22565b905082810360808401526140248185613e5c565b98975050505050505050565b6001600160a01b03868116825285166020820152604081018490526060810183905260a06080820181905260009061406a90830184613e5c565b979650505050505050565b6001600160a01b03929092168252602082015260400190565b6001600160a01b0396871681526020810195909552604085019390935293166060830152608082019290925260a081019190915260c00190565b6020815260006111c06020830184613e22565b6040815260006140ee6040830185613e22565b8281036020840152612d968185613e22565b6020815260006111c06020830184613e5c565b60208082526028908201527f455243313135353a204552433131353552656365697665722072656a656374656040820152676420746f6b656e7360c01b606082015260800190565b60208082526029908201527f455243313135353a2063616c6c6572206973206e6f74206f776e6572206e6f7260408201526808185c1c1c9bdd995960ba1b606082015260800190565b60208082526025908201527f455243313135353a207472616e7366657220746f20746865207a65726f206164604082015264647265737360d81b606082015260800190565b6020808252602c908201527f546865206163636f756e74206d757374206e6f7420626520302c20756e6c657360408201526b07320666565732061726520360a41b606082015260800190565b6020808252602e908201527f496e697469616c697a61626c653a20636f6e747261637420697320616c72656160408201526d191e481a5b9a5d1a585b1a5e995960921b606082015260800190565b6020808252602a908201527f455243313135353a20696e73756666696369656e742062616c616e636520666f60408201526939103a3930b739b332b960b11b606082015260800190565b918252602082015260400190565b60006001600160401b038211156142f4576142f461448d565b5060051b60200190565b6000821982111561431157614311614461565b500190565b600063ffffffff80831681851680830382111561433557614335614461565b01949350505050565b60008261434d5761434d614477565b500490565b600081600019048311821515161561436c5761436c614461565b500290565b60008282101561438357614383614461565b500390565b60005b838110156143a357818101518382015260200161438b565b838111156118765750506000910152565b6000816143c3576143c3614461565b506000190190565b600181811c908216806143df57607f821691505b6020821081141561440057634e487b7160e01b600052602260045260246000fd5b50919050565b601f8201601f191681016001600160401b038111828210171561442b5761442b61448d565b6040525050565b600060001982141561444657614446614461565b5060010190565b60008261445c5761445c614477565b500690565b634e487b7160e01b600052601160045260246000fd5b634e487b7160e01b600052601260045260246000fd5b634e487b7160e01b600052604160045260246000fd5b600060033d11156130da57600481823e5160e01c90565b600060443d10156144c85790565b6040516003193d81016004833e81513d6001600160401b0380831160248401831017156144f757505050505090565b828501915081518181111561450f5750505050505090565b843d87010160208285010111156145295750505050505090565b61453860208286010187614406565b509095945050505050565b8015158114610fb557600080fd5b6001600160e01b031981168114610fb557600080fdfec3d58168c5ae7397731d063d5bbf3d657854427343f4c083240f7aacaa2d0f62360894a13ba1a3210667c828492db98dca3e2076cc3735a920a3ca505d382bbc416464726573733a206c6f772d6c6576656c2064656c65676174652063616c6c206661696c65643d2e894c222ba979e2dce2c7d940c0e9bb14306669e9f034eb1bb3979a2069d8626f510646502d065065e8bd550325973a611a32e6f6ddff40650005cb13636881fe90a866a48a634a12852c1be675b683a22307409932a7443b8029347be75620a4be6e7127e439f48d6654377d19402cb883dd85029e600de9e17052f903d368747470733a2f2f6170692e66726565706f72742e636572652e6e6574776f726b2f657263313135352f7b69647d2e6a736f6ea2646970667358221220b8cdd35deb009a3dae75bc748c2b301e3cc615e5bc3bb4cde5799061a4925b1564736f6c63430008040033",
  "immutableReferences": {},
  "source": "pragma solidity ^0.8.0;\n\nimport \"./freeportParts/SimpleExchange.sol\";\n\n/** Main contract, including all components.\n\n- Hold and transfer NFTs using ERC1155.\n- Support atomic exchanges of NFTs for currency.\n- Issuance of NFTs with fixed supply.\n- Joint Accounts that distribute their funds over multiple owners.\n- Capture royalties on primary and secondary transfers, configurable per NFT type.\n*/\ncontract Freeport is /*\n    ERC1155,\n    AccessControl,\n    MetaTxContext,\n    BaseNFT,\n    Currency,\n    TransferOperator,\n    ERC20Adapter,\n    Issuance,\n    JointAccounts,\n    TransferFees,\n    */ SimpleExchange {\n\n    /** Initialize this contract and its dependencies.\n     */\n    function initialize(string memory baseURL) public initializer {\n        __SimpleExchange_init(baseURL);\n    }\n}\n",
  "sourcePath": "/home/nadtech/Visual_Studio/Freeport-Smart-Contracts/contracts/Freeport.sol",
  "compiler": {
    "name": "solc",
    "version": "0.8.4+commit.c7e474f2.Emscripten.clang"
  },
  "schemaVersion": "3.4.4",
  "updatedAt": "2022-03-22T12:51:59.205Z",
  "networkType": "ethereum",
  "devdoc": {
    "kind": "dev",
    "methods": {
      "balanceOf(address,uint256)": {
        "details": "See {IERC1155-balanceOf}. Requirements: - `account` cannot be the zero address."
      },
      "balanceOfBatch(address[],uint256[])": {
        "details": "See {IERC1155-balanceOfBatch}. Requirements: - `accounts` and `ids` must have the same length."
      },
      "getRoleAdmin(bytes32)": {
        "details": "Returns the admin role that controls `role`. See {grantRole} and {revokeRole}. To change a role's admin, use {_setRoleAdmin}."
      },
      "grantRole(bytes32,address)": {
        "details": "Grants `role` to `account`. If `account` had not been already granted `role`, emits a {RoleGranted} event. Requirements: - the caller must have ``role``'s admin role."
      },
      "hasRole(bytes32,address)": {
        "details": "Returns `true` if `account` has been granted `role`."
      },
      "renounceRole(bytes32,address)": {
        "details": "Revokes `role` from the calling account. Roles are often managed via {grantRole} and {revokeRole}: this function's purpose is to provide a mechanism for accounts to lose their privileges if they are compromised (such as when a trusted device is misplaced). If the calling account had been granted `role`, emits a {RoleRevoked} event. Requirements: - the caller must be `account`."
      },
      "revokeRole(bytes32,address)": {
        "details": "Revokes `role` from `account`. If `account` had been granted `role`, emits a {RoleRevoked} event. Requirements: - the caller must have ``role``'s admin role."
      },
      "safeBatchTransferFrom(address,address,uint256[],uint256[],bytes)": {
        "details": "See {IERC1155-safeBatchTransferFrom}."
      },
      "safeTransferFrom(address,address,uint256,uint256,bytes)": {
        "details": "See {IERC1155-safeTransferFrom}."
      },
      "setApprovalForAll(address,bool)": {
        "details": "See {IERC1155-setApprovalForAll}."
      },
      "uri(uint256)": {
        "details": "See {IERC1155MetadataURI-uri}. This implementation returns the same URI for *all* token types. It relies on the token type ID substitution mechanism https://eips.ethereum.org/EIPS/eip-1155#metadata[defined in the EIP]. Clients calling this function must replace the `\\{id\\}` substring with the actual token type ID."
      }
    },
    "version": 1
  },
  "userdoc": {
    "events": {
      "JointAccountShareCreated(address,address,uint256)": {
        "notice": "Notify that a Joint Account was created at the address `account`. One such event is emitted for each owner, including his fraction of the account in basis points (1% of 1%)."
      },
      "MakeOffer(address,uint256,uint256)": {
        "notice": "An event emitted when an account `seller` has offered to sell a type of NFT at a given price. This replaces previous offers by the same seller on the same NFT ID, if any. A price of 0 means \"no offer\" and the previous offer is cancelled. An offer does not imply that the seller owns any amount of this NFT. An offer remains valid until cancelled, for the entire balance at a given time, regardless of incoming and outgoing transfers on the seller account."
      },
      "RoyaltiesConfigured(uint256,address,uint256,uint256,address,uint256,uint256)": {
        "notice": "Notify that royalties were configured on an NFT type."
      },
      "RoyaltiesLocked(uint256,uint256)": {
        "notice": "Notify that royalties are locked and cannot change, until the given time (in UNIX seconds), or forever (lockUntil = 0xFFFFFFFF)."
      },
      "TakeOffer(address,address,uint256,uint256,uint256)": {
        "notice": "An offer of `seller` was taken by `buyer`. The transfers of `amount` NFTs of type `nftId` against `amount * price` of CERE Units were executed."
      }
    },
    "kind": "user",
    "methods": {
      "BASIS_POINTS()": {
        "notice": "The total fraction representing 100% of an account."
      },
      "CURRENCY()": {
        "notice": "The token ID that represents the internal currency for all payments in this contract. "
      },
      "balanceOfJAOwner(address,address)": {
        "notice": "Calculate the amount of tokens that an owner of a Joint Account can withdraw right now."
      },
      "captureFee(address,uint256,uint256,uint256)": {
        "notice": "Collect the royalty due on a transfer. The royalty is calculated based on NFT configuration and the price. It is collected by an internal transfer of currency between \"from\" and the beneficiary. Return the amount collected. The caller must be approved by \"from\", or a TRANSFER_OPERATOR."
      },
      "configureRoyalties(uint256,address,uint256,uint256,address,uint256,uint256)": {
        "notice": "Configure the amounts and beneficiaries of royalties on primary and secondary transfers of this NFT. This configuration is available to the issuer of this NFT. A transfer is primary if it comes from the issuer of this NFT (normally the first sale after issuance). Otherwise, it is a secondary transfer. A royalty is defined in two parts (both optional): a cut of the sale price of an NFT, and a minimum royalty per transfer. For simple transfers not attached to a price, or a too low price, the minimum royalty is charged. The cuts are given in basis points (1% of 1%). The minimums are given in currency amounts. The configuration can be changed at any time by default. However, the issuer may commit to it for a period of time, effectively giving up his ability to modify the royalties. See the function lockRoyalties. There can be one beneficiary account for each primary and secondary royalties. To distribute revenues amongst several parties, use a Joint Account (see function createJointAccount)."
      },
      "createJointAccount(address[],uint256[])": {
        "notice": "Create an account such that multiple owners have a claim on their respective share. The size of a share is given as a fraction in basis points (1% of 1%). The sum of share fractions must equal 10,000. Anyone can create Joint Accounts including any owners."
      },
      "currencyContract()": {
        "notice": "The address of ERC-20 token's contract"
      },
      "deposit(uint256)": {
        "notice": "Deposit currency from ERC20 into the internal currency. This requires payer to approve deposit."
      },
      "distributeJointAccount(address)": {
        "notice": "Distribute all tokens available to all owners of a Joint Account. The function createJointAccount must be called beforehand. Anyone can trigger the distribution."
      },
      "fractionOfJAOwner(address,address)": {
        "notice": "Return the fraction of an account owned by the given address, in basis points (1% of 1%). If the account does not exist, or if the given address is not an owner of it, this returns 0. If the owner appears more than once in the account, this reports only the first share."
      },
      "getNftId(address,uint32,uint64)": {
        "notice": "Calculate the ID of an NFT type, identifying its issuer, its supply, and an arbitrary nonce."
      },
      "getOffer(address,uint256)": {
        "notice": "Return the price offered by the given seller for the given NFT type."
      },
      "getRoyalties(uint256)": {
        "notice": "Return the current configuration of royalties for NFTs of type nftId, as set by configureRoyalties."
      },
      "getRoyaltiesForBeneficiary(uint256,address)": {
        "notice": "Return the amount of royalties earned by a beneficiary on each primary and secondary transfer of an NFT. This function supports Joint Accounts. If royalties are paid to a JA and beneficiary is an owner of the JA, the shares of the royalties for this owner are returned."
      },
      "initialize(string)": {
        "notice": "Initialize this contract and its dependencies."
      },
      "isApprovedForAll(address,address)": {
        "notice": "Return true for operators with the role TRANSFER_OPERATOR. Otherwise, apply the standard approval logic of ERC1155. See {IERC1155-isApprovedForAll}."
      },
      "issuanceNonces(address)": {
        "notice": "A counter of NFT types issued by each issuer. This is used to generate unique NFT IDs."
      },
      "issue(uint64,bytes)": {
        "notice": "Issue a supply of NFTs of a new type, and return its ID. No more NFT of this type can be issued again. The caller will be recorded as the issuer and it will initially own the entire supply."
      },
      "lockRoyalties(uint256,uint256)": {
        "notice": "Lock the configuration of royalties for this NFT type. Only the issuer may lock the configuration, after which he himself will no longer be able to change the configuration, for some time, or forever. Set lockUntil to a time in the future to lock the configuration until the specified time (in UNIX seconds). Set to 0xFFFFFFFF to lock forever."
      },
      "makeAddressOfJointAccount(address[],uint256[])": {
        "notice": "Generate a unique address identifying a list of owners and shares. It may be used to predict the address of a Joint Account and receive payments even before calling the function createJointAccount."
      },
      "makeOffer(uint256,uint256)": {
        "notice": "Create an offer to sell a type of NFTs for a price per unit. All the NFTs of this type owned by the caller will be for sale. To cancel, call again with a price of 0."
      },
      "setERC20(address)": {
        "notice": "Sets token's contract address. This token is used to deposit and withdraw on chain adapter's contract is deployed."
      },
      "supportsInterface(bytes4)": {
        "notice": "Supports interfaces of AccessControl, ERC1155, and ERC1155 MetadataURI."
      },
      "takeOffer(address,address,uint256,uint256,uint256)": {
        "notice": "Accept an offer, paying the price per unit for an amount of NFTs. The offer must have been created beforehand by makeOffer. The sender pays ERC20. The sender is not necessarily the same as buyer, see FiatGateway. The seller receives internal currency (equivalent to the ERC20 payment, see the function withdraw). The buyer receives the NFT. The parameter expectedPriceOrZero can be used to validate the price that the buyer expects to pay. This prevents a race condition with makeOffer or setExchangeRate. Pass 0 to disable this validation and accept any current price."
      },
      "transferFrom(address,address,uint256,uint256)": {
        "notice": "transferFrom performs a simple transfer, without calling the hooks  (no _beforeTokenTransfer and no onERC1155Received)."
      },
      "withdraw(uint256)": {
        "notice": "Withdraw currency from internal to ERC20"
      }
    },
    "notice": "Main contract, including all components. - Hold and transfer NFTs using ERC1155. - Support atomic exchanges of NFTs for currency. - Issuance of NFTs with fixed supply. - Joint Accounts that distribute their funds over multiple owners. - Capture royalties on primary and secondary transfers, configurable per NFT type.",
    "version": 1
  }
}