{
  "contractName": "Freeport",
  "abi": [
    {
      "anonymous": false,
      "inputs": [
        {
          "indexed": false,
          "internalType": "address",
          "name": "previousAdmin",
          "type": "address"
        },
        {
          "indexed": false,
          "internalType": "address",
          "name": "newAdmin",
          "type": "address"
        }
      ],
      "name": "AdminChanged",
      "type": "event"
    },
    {
      "anonymous": false,
      "inputs": [
        {
          "indexed": true,
          "internalType": "address",
          "name": "account",
          "type": "address"
        },
        {
          "indexed": true,
          "internalType": "address",
          "name": "operator",
          "type": "address"
        },
        {
          "indexed": false,
          "internalType": "bool",
          "name": "approved",
          "type": "bool"
        }
      ],
      "name": "ApprovalForAll",
      "type": "event"
    },
    {
      "anonymous": false,
      "inputs": [
        {
          "indexed": true,
          "internalType": "address",
          "name": "beacon",
          "type": "address"
        }
      ],
      "name": "BeaconUpgraded",
      "type": "event"
    },
    {
      "anonymous": false,
      "inputs": [
        {
          "indexed": true,
          "internalType": "address",
          "name": "account",
          "type": "address"
        },
        {
          "indexed": true,
          "internalType": "address",
          "name": "owner",
          "type": "address"
        },
        {
          "indexed": false,
          "internalType": "uint256",
          "name": "fraction",
          "type": "uint256"
        }
      ],
      "name": "JointAccountShareCreated",
      "type": "event"
    },
    {
      "anonymous": false,
      "inputs": [
        {
          "indexed": true,
          "internalType": "address",
          "name": "seller",
          "type": "address"
        },
        {
          "indexed": true,
          "internalType": "uint256",
          "name": "nftId",
          "type": "uint256"
        },
        {
          "indexed": false,
          "internalType": "uint256",
          "name": "price",
          "type": "uint256"
        }
      ],
      "name": "MakeOffer",
      "type": "event"
    },
    {
      "anonymous": false,
      "inputs": [
        {
          "indexed": true,
          "internalType": "bytes32",
          "name": "role",
          "type": "bytes32"
        },
        {
          "indexed": true,
          "internalType": "bytes32",
          "name": "previousAdminRole",
          "type": "bytes32"
        },
        {
          "indexed": true,
          "internalType": "bytes32",
          "name": "newAdminRole",
          "type": "bytes32"
        }
      ],
      "name": "RoleAdminChanged",
      "type": "event"
    },
    {
      "anonymous": false,
      "inputs": [
        {
          "indexed": true,
          "internalType": "bytes32",
          "name": "role",
          "type": "bytes32"
        },
        {
          "indexed": true,
          "internalType": "address",
          "name": "account",
          "type": "address"
        },
        {
          "indexed": true,
          "internalType": "address",
          "name": "sender",
          "type": "address"
        }
      ],
      "name": "RoleGranted",
      "type": "event"
    },
    {
      "anonymous": false,
      "inputs": [
        {
          "indexed": true,
          "internalType": "bytes32",
          "name": "role",
          "type": "bytes32"
        },
        {
          "indexed": true,
          "internalType": "address",
          "name": "account",
          "type": "address"
        },
        {
          "indexed": true,
          "internalType": "address",
          "name": "sender",
          "type": "address"
        }
      ],
      "name": "RoleRevoked",
      "type": "event"
    },
    {
      "anonymous": false,
      "inputs": [
        {
          "indexed": true,
          "internalType": "uint256",
          "name": "nftId",
          "type": "uint256"
        },
        {
          "indexed": false,
          "internalType": "address",
          "name": "primaryRoyaltyAccount",
          "type": "address"
        },
        {
          "indexed": false,
          "internalType": "uint256",
          "name": "primaryRoyaltyCut",
          "type": "uint256"
        },
        {
          "indexed": false,
          "internalType": "uint256",
          "name": "primaryRoyaltyMinimum",
          "type": "uint256"
        },
        {
          "indexed": false,
          "internalType": "address",
          "name": "secondaryRoyaltyAccount",
          "type": "address"
        },
        {
          "indexed": false,
          "internalType": "uint256",
          "name": "secondaryRoyaltyCut",
          "type": "uint256"
        },
        {
          "indexed": false,
          "internalType": "uint256",
          "name": "secondaryRoyaltyMinimum",
          "type": "uint256"
        }
      ],
      "name": "RoyaltiesConfigured",
      "type": "event"
    },
    {
      "anonymous": false,
      "inputs": [
        {
          "indexed": true,
          "internalType": "uint256",
          "name": "nftId",
          "type": "uint256"
        },
        {
          "indexed": false,
          "internalType": "uint256",
          "name": "lockUntil",
          "type": "uint256"
        }
      ],
      "name": "RoyaltiesLocked",
      "type": "event"
    },
    {
      "anonymous": false,
      "inputs": [
        {
          "indexed": true,
          "internalType": "address",
          "name": "buyer",
          "type": "address"
        },
        {
          "indexed": true,
          "internalType": "address",
          "name": "seller",
          "type": "address"
        },
        {
          "indexed": true,
          "internalType": "uint256",
          "name": "nftId",
          "type": "uint256"
        },
        {
          "indexed": false,
          "internalType": "uint256",
          "name": "price",
          "type": "uint256"
        },
        {
          "indexed": false,
          "internalType": "uint256",
          "name": "amount",
          "type": "uint256"
        }
      ],
      "name": "TakeOffer",
      "type": "event"
    },
    {
      "anonymous": false,
      "inputs": [
        {
          "indexed": true,
          "internalType": "address",
          "name": "operator",
          "type": "address"
        },
        {
          "indexed": true,
          "internalType": "address",
          "name": "from",
          "type": "address"
        },
        {
          "indexed": true,
          "internalType": "address",
          "name": "to",
          "type": "address"
        },
        {
          "indexed": false,
          "internalType": "uint256[]",
          "name": "ids",
          "type": "uint256[]"
        },
        {
          "indexed": false,
          "internalType": "uint256[]",
          "name": "values",
          "type": "uint256[]"
        }
      ],
      "name": "TransferBatch",
      "type": "event"
    },
    {
      "anonymous": false,
      "inputs": [
        {
          "indexed": true,
          "internalType": "address",
          "name": "operator",
          "type": "address"
        },
        {
          "indexed": true,
          "internalType": "address",
          "name": "from",
          "type": "address"
        },
        {
          "indexed": true,
          "internalType": "address",
          "name": "to",
          "type": "address"
        },
        {
          "indexed": false,
          "internalType": "uint256",
          "name": "id",
          "type": "uint256"
        },
        {
          "indexed": false,
          "internalType": "uint256",
          "name": "value",
          "type": "uint256"
        }
      ],
      "name": "TransferSingle",
      "type": "event"
    },
    {
      "anonymous": false,
      "inputs": [
        {
          "indexed": false,
          "internalType": "string",
          "name": "value",
          "type": "string"
        },
        {
          "indexed": true,
          "internalType": "uint256",
          "name": "id",
          "type": "uint256"
        }
      ],
      "name": "URI",
      "type": "event"
    },
    {
      "anonymous": false,
      "inputs": [
        {
          "indexed": true,
          "internalType": "address",
          "name": "implementation",
          "type": "address"
        }
      ],
      "name": "Upgraded",
      "type": "event"
    },
    {
      "inputs": [],
      "name": "BASIS_POINTS",
      "outputs": [
        {
          "internalType": "uint256",
          "name": "",
          "type": "uint256"
        }
      ],
      "stateMutability": "view",
      "type": "function",
      "constant": true
    },
    {
      "inputs": [],
      "name": "BYPASS_SENDER",
      "outputs": [
        {
          "internalType": "bytes32",
          "name": "",
          "type": "bytes32"
        }
      ],
      "stateMutability": "view",
      "type": "function",
      "constant": true
    },
    {
      "inputs": [],
      "name": "CURRENCY",
      "outputs": [
        {
          "internalType": "uint256",
          "name": "",
          "type": "uint256"
        }
      ],
      "stateMutability": "view",
      "type": "function",
      "constant": true
    },
    {
      "inputs": [],
      "name": "DEFAULT_ADMIN_ROLE",
      "outputs": [
        {
          "internalType": "bytes32",
          "name": "",
          "type": "bytes32"
        }
      ],
      "stateMutability": "view",
      "type": "function",
      "constant": true
    },
    {
      "inputs": [],
      "name": "MAX_JOINT_ACCOUNT_SHARES",
      "outputs": [
        {
          "internalType": "uint256",
          "name": "",
          "type": "uint256"
        }
      ],
      "stateMutability": "view",
      "type": "function",
      "constant": true
    },
    {
      "inputs": [],
      "name": "META_TX_FORWARDER",
      "outputs": [
        {
          "internalType": "bytes32",
          "name": "",
          "type": "bytes32"
        }
      ],
      "stateMutability": "view",
      "type": "function",
      "constant": true
    },
    {
      "inputs": [],
      "name": "TRANSFER_OPERATOR",
      "outputs": [
        {
          "internalType": "bytes32",
          "name": "",
          "type": "bytes32"
        }
      ],
      "stateMutability": "view",
      "type": "function",
      "constant": true
    },
    {
      "inputs": [
        {
          "internalType": "address",
          "name": "account",
          "type": "address"
        },
        {
          "internalType": "uint256",
          "name": "id",
          "type": "uint256"
        }
      ],
      "name": "balanceOf",
      "outputs": [
        {
          "internalType": "uint256",
          "name": "",
          "type": "uint256"
        }
      ],
      "stateMutability": "view",
      "type": "function",
      "constant": true
    },
    {
      "inputs": [
        {
          "internalType": "address[]",
          "name": "accounts",
          "type": "address[]"
        },
        {
          "internalType": "uint256[]",
          "name": "ids",
          "type": "uint256[]"
        }
      ],
      "name": "balanceOfBatch",
      "outputs": [
        {
          "internalType": "uint256[]",
          "name": "",
          "type": "uint256[]"
        }
      ],
      "stateMutability": "view",
      "type": "function",
      "constant": true
    },
    {
      "inputs": [
        {
          "internalType": "address",
          "name": "account",
          "type": "address"
        },
        {
          "internalType": "address",
          "name": "owner",
          "type": "address"
        }
      ],
      "name": "balanceOfJAOwner",
      "outputs": [
        {
          "internalType": "uint256",
          "name": "",
          "type": "uint256"
        }
      ],
      "stateMutability": "view",
      "type": "function",
      "constant": true
    },
    {
      "inputs": [
        {
          "internalType": "address",
          "name": "from",
          "type": "address"
        },
        {
          "internalType": "uint256",
          "name": "nftId",
          "type": "uint256"
        },
        {
          "internalType": "uint256",
          "name": "price",
          "type": "uint256"
        },
        {
          "internalType": "uint256",
          "name": "amount",
          "type": "uint256"
        }
      ],
      "name": "captureFee",
      "outputs": [
        {
          "internalType": "uint256",
          "name": "",
          "type": "uint256"
        }
      ],
      "stateMutability": "nonpayable",
      "type": "function"
    },
    {
      "inputs": [
        {
          "internalType": "uint256",
          "name": "nftId",
          "type": "uint256"
        },
        {
          "internalType": "address",
          "name": "primaryRoyaltyAccount",
          "type": "address"
        },
        {
          "internalType": "uint256",
          "name": "primaryRoyaltyCut",
          "type": "uint256"
        },
        {
          "internalType": "uint256",
          "name": "primaryRoyaltyMinimum",
          "type": "uint256"
        },
        {
          "internalType": "address",
          "name": "secondaryRoyaltyAccount",
          "type": "address"
        },
        {
          "internalType": "uint256",
          "name": "secondaryRoyaltyCut",
          "type": "uint256"
        },
        {
          "internalType": "uint256",
          "name": "secondaryRoyaltyMinimum",
          "type": "uint256"
        }
      ],
      "name": "configureRoyalties",
      "outputs": [],
      "stateMutability": "nonpayable",
      "type": "function"
    },
    {
      "inputs": [
        {
          "internalType": "address[]",
          "name": "owners",
          "type": "address[]"
        },
        {
          "internalType": "uint256[]",
          "name": "fractions",
          "type": "uint256[]"
        }
      ],
      "name": "createJointAccount",
      "outputs": [
        {
          "internalType": "address",
          "name": "",
          "type": "address"
        }
      ],
      "stateMutability": "nonpayable",
      "type": "function"
    },
    {
      "inputs": [],
      "name": "currencyContract",
      "outputs": [
        {
          "internalType": "contract IERC20",
          "name": "",
          "type": "address"
        }
      ],
      "stateMutability": "view",
      "type": "function",
      "constant": true
    },
    {
      "inputs": [
        {
          "internalType": "uint256",
          "name": "amount",
          "type": "uint256"
        }
      ],
      "name": "deposit",
      "outputs": [],
      "stateMutability": "nonpayable",
      "type": "function"
    },
    {
      "inputs": [
        {
          "internalType": "address",
          "name": "account",
          "type": "address"
        }
      ],
      "name": "distributeJointAccount",
      "outputs": [],
      "stateMutability": "nonpayable",
      "type": "function"
    },
    {
      "inputs": [
        {
          "internalType": "address",
          "name": "account",
          "type": "address"
        },
        {
          "internalType": "address",
          "name": "maybeOwner",
          "type": "address"
        }
      ],
      "name": "fractionOfJAOwner",
      "outputs": [
        {
          "internalType": "uint256",
          "name": "",
          "type": "uint256"
        }
      ],
      "stateMutability": "view",
      "type": "function",
      "constant": true
    },
    {
      "inputs": [
        {
          "internalType": "address",
          "name": "issuer",
          "type": "address"
        },
        {
          "internalType": "uint32",
          "name": "nonce",
          "type": "uint32"
        },
        {
          "internalType": "uint64",
          "name": "supply",
          "type": "uint64"
        }
      ],
      "name": "getNftId",
      "outputs": [
        {
          "internalType": "uint256",
          "name": "",
          "type": "uint256"
        }
      ],
      "stateMutability": "pure",
      "type": "function",
      "constant": true
    },
    {
      "inputs": [
        {
          "internalType": "address",
          "name": "seller",
          "type": "address"
        },
        {
          "internalType": "uint256",
          "name": "nftId",
          "type": "uint256"
        }
      ],
      "name": "getOffer",
      "outputs": [
        {
          "internalType": "uint256",
          "name": "",
          "type": "uint256"
        }
      ],
      "stateMutability": "view",
      "type": "function",
      "constant": true
    },
    {
      "inputs": [
        {
          "internalType": "bytes32",
          "name": "role",
          "type": "bytes32"
        }
      ],
      "name": "getRoleAdmin",
      "outputs": [
        {
          "internalType": "bytes32",
          "name": "",
          "type": "bytes32"
        }
      ],
      "stateMutability": "view",
      "type": "function",
      "constant": true
    },
    {
      "inputs": [
        {
          "internalType": "uint256",
          "name": "nftId",
          "type": "uint256"
        }
      ],
      "name": "getRoyalties",
      "outputs": [
        {
          "internalType": "address",
          "name": "primaryRoyaltyAccount",
          "type": "address"
        },
        {
          "internalType": "uint256",
          "name": "primaryRoyaltyCut",
          "type": "uint256"
        },
        {
          "internalType": "uint256",
          "name": "primaryRoyaltyMinimum",
          "type": "uint256"
        },
        {
          "internalType": "address",
          "name": "secondaryRoyaltyAccount",
          "type": "address"
        },
        {
          "internalType": "uint256",
          "name": "secondaryRoyaltyCut",
          "type": "uint256"
        },
        {
          "internalType": "uint256",
          "name": "secondaryRoyaltyMinimum",
          "type": "uint256"
        }
      ],
      "stateMutability": "view",
      "type": "function",
      "constant": true
    },
    {
      "inputs": [
        {
          "internalType": "uint256",
          "name": "nftId",
          "type": "uint256"
        },
        {
          "internalType": "address",
          "name": "beneficiary",
          "type": "address"
        }
      ],
      "name": "getRoyaltiesForBeneficiary",
      "outputs": [
        {
          "internalType": "uint256",
          "name": "primaryCut",
          "type": "uint256"
        },
        {
          "internalType": "uint256",
          "name": "primaryMinimum",
          "type": "uint256"
        },
        {
          "internalType": "uint256",
          "name": "secondaryCut",
          "type": "uint256"
        },
        {
          "internalType": "uint256",
          "name": "secondaryMinimum",
          "type": "uint256"
        }
      ],
      "stateMutability": "view",
      "type": "function",
      "constant": true
    },
    {
      "inputs": [
        {
          "internalType": "bytes32",
          "name": "role",
          "type": "bytes32"
        },
        {
          "internalType": "address",
          "name": "account",
          "type": "address"
        }
      ],
      "name": "grantRole",
      "outputs": [],
      "stateMutability": "nonpayable",
      "type": "function"
    },
    {
      "inputs": [
        {
          "internalType": "bytes32",
          "name": "role",
          "type": "bytes32"
        },
        {
          "internalType": "address",
          "name": "account",
          "type": "address"
        }
      ],
      "name": "hasRole",
      "outputs": [
        {
          "internalType": "bool",
          "name": "",
          "type": "bool"
        }
      ],
      "stateMutability": "view",
      "type": "function",
      "constant": true
    },
    {
      "inputs": [
        {
          "internalType": "address",
          "name": "account",
          "type": "address"
        },
        {
          "internalType": "address",
          "name": "operator",
          "type": "address"
        }
      ],
      "name": "isApprovedForAll",
      "outputs": [
        {
          "internalType": "bool",
          "name": "",
          "type": "bool"
        }
      ],
      "stateMutability": "view",
      "type": "function",
      "constant": true
    },
    {
      "inputs": [
        {
          "internalType": "address",
          "name": "forwarder",
          "type": "address"
        }
      ],
      "name": "isTrustedForwarder",
      "outputs": [
        {
          "internalType": "bool",
          "name": "",
          "type": "bool"
        }
      ],
      "stateMutability": "view",
      "type": "function",
      "constant": true
    },
    {
      "inputs": [
        {
          "internalType": "address",
          "name": "",
          "type": "address"
        }
      ],
      "name": "issuanceNonces",
      "outputs": [
        {
          "internalType": "uint32",
          "name": "",
          "type": "uint32"
        }
      ],
      "stateMutability": "view",
      "type": "function",
      "constant": true
    },
    {
      "inputs": [
        {
          "internalType": "uint64",
          "name": "supply",
          "type": "uint64"
        },
        {
          "internalType": "bytes",
          "name": "data",
          "type": "bytes"
        }
      ],
      "name": "issue",
      "outputs": [
        {
          "internalType": "uint256",
          "name": "",
          "type": "uint256"
        }
      ],
      "stateMutability": "nonpayable",
      "type": "function"
    },
    {
      "inputs": [
        {
          "internalType": "address",
          "name": "",
          "type": "address"
        },
        {
          "internalType": "uint256",
          "name": "",
          "type": "uint256"
        }
      ],
      "name": "jointAccounts",
      "outputs": [
        {
          "internalType": "address",
          "name": "owner",
          "type": "address"
        },
        {
          "internalType": "uint256",
          "name": "fraction",
          "type": "uint256"
        }
      ],
      "stateMutability": "view",
      "type": "function",
      "constant": true
    },
    {
      "inputs": [
        {
          "internalType": "uint256",
          "name": "nftId",
          "type": "uint256"
        },
        {
          "internalType": "uint256",
          "name": "lockUntil",
          "type": "uint256"
        }
      ],
      "name": "lockRoyalties",
      "outputs": [],
      "stateMutability": "nonpayable",
      "type": "function"
    },
    {
      "inputs": [
        {
          "internalType": "address[]",
          "name": "owners",
          "type": "address[]"
        },
        {
          "internalType": "uint256[]",
          "name": "fractions",
          "type": "uint256[]"
        }
      ],
      "name": "makeAddressOfJointAccount",
      "outputs": [
        {
          "internalType": "address",
          "name": "",
          "type": "address"
        }
      ],
      "stateMutability": "pure",
      "type": "function",
      "constant": true
    },
    {
      "inputs": [
        {
          "internalType": "uint256",
          "name": "nftId",
          "type": "uint256"
        },
        {
          "internalType": "uint256",
          "name": "price",
          "type": "uint256"
        }
      ],
      "name": "makeOffer",
      "outputs": [],
      "stateMutability": "nonpayable",
      "type": "function"
    },
    {
      "inputs": [
        {
          "internalType": "uint256",
          "name": "nftId",
          "type": "uint256"
        },
        {
          "internalType": "string",
          "name": "postfix",
          "type": "string"
        }
      ],
      "name": "metadataURL",
      "outputs": [
        {
          "internalType": "string",
          "name": "",
          "type": "string"
        }
      ],
      "stateMutability": "view",
      "type": "function",
      "constant": true
    },
    {
      "inputs": [
        {
          "internalType": "bytes32",
          "name": "role",
          "type": "bytes32"
        },
        {
          "internalType": "address",
          "name": "account",
          "type": "address"
        }
      ],
      "name": "renounceRole",
      "outputs": [],
      "stateMutability": "nonpayable",
      "type": "function"
    },
    {
      "inputs": [
        {
          "internalType": "bytes32",
          "name": "role",
          "type": "bytes32"
        },
        {
          "internalType": "address",
          "name": "account",
          "type": "address"
        }
      ],
      "name": "revokeRole",
      "outputs": [],
      "stateMutability": "nonpayable",
      "type": "function"
    },
    {
      "inputs": [
        {
          "internalType": "address",
          "name": "from",
          "type": "address"
        },
        {
          "internalType": "address",
          "name": "to",
          "type": "address"
        },
        {
          "internalType": "uint256[]",
          "name": "ids",
          "type": "uint256[]"
        },
        {
          "internalType": "uint256[]",
          "name": "amounts",
          "type": "uint256[]"
        },
        {
          "internalType": "bytes",
          "name": "data",
          "type": "bytes"
        }
      ],
      "name": "safeBatchTransferFrom",
      "outputs": [],
      "stateMutability": "nonpayable",
      "type": "function"
    },
    {
      "inputs": [
        {
          "internalType": "address",
          "name": "from",
          "type": "address"
        },
        {
          "internalType": "address",
          "name": "to",
          "type": "address"
        },
        {
          "internalType": "uint256",
          "name": "id",
          "type": "uint256"
        },
        {
          "internalType": "uint256",
          "name": "amount",
          "type": "uint256"
        },
        {
          "internalType": "bytes",
          "name": "data",
          "type": "bytes"
        }
      ],
      "name": "safeTransferFrom",
      "outputs": [],
      "stateMutability": "nonpayable",
      "type": "function"
    },
    {
      "inputs": [
        {
          "internalType": "address",
          "name": "operator",
          "type": "address"
        },
        {
          "internalType": "bool",
          "name": "approved",
          "type": "bool"
        }
      ],
      "name": "setApprovalForAll",
      "outputs": [],
      "stateMutability": "nonpayable",
      "type": "function"
    },
    {
      "inputs": [
        {
          "internalType": "address",
          "name": "_currencyContract",
          "type": "address"
        }
      ],
      "name": "setERC20",
      "outputs": [],
      "stateMutability": "nonpayable",
      "type": "function"
    },
    {
      "inputs": [
        {
          "internalType": "bytes4",
          "name": "interfaceId",
          "type": "bytes4"
        }
      ],
      "name": "supportsInterface",
      "outputs": [
        {
          "internalType": "bool",
          "name": "",
          "type": "bool"
        }
      ],
      "stateMutability": "view",
      "type": "function",
      "constant": true
    },
    {
      "inputs": [
        {
          "internalType": "address",
          "name": "buyer",
          "type": "address"
        },
        {
          "internalType": "address",
          "name": "seller",
          "type": "address"
        },
        {
          "internalType": "uint256",
          "name": "nftId",
          "type": "uint256"
        },
        {
          "internalType": "uint256",
          "name": "expectedPriceOrZero",
          "type": "uint256"
        },
        {
          "internalType": "uint256",
          "name": "amount",
          "type": "uint256"
        }
      ],
      "name": "takeOffer",
      "outputs": [],
      "stateMutability": "nonpayable",
      "type": "function"
    },
    {
      "inputs": [
        {
          "internalType": "address",
          "name": "from",
          "type": "address"
        },
        {
          "internalType": "address",
          "name": "to",
          "type": "address"
        },
        {
          "internalType": "uint256",
          "name": "id",
          "type": "uint256"
        },
        {
          "internalType": "uint256",
          "name": "amount",
          "type": "uint256"
        }
      ],
      "name": "transferFrom",
      "outputs": [],
      "stateMutability": "nonpayable",
      "type": "function"
    },
    {
      "inputs": [
        {
          "internalType": "address",
          "name": "newImplementation",
          "type": "address"
        }
      ],
      "name": "upgradeTo",
      "outputs": [],
      "stateMutability": "nonpayable",
      "type": "function"
    },
    {
      "inputs": [
        {
          "internalType": "address",
          "name": "newImplementation",
          "type": "address"
        },
        {
          "internalType": "bytes",
          "name": "data",
          "type": "bytes"
        }
      ],
      "name": "upgradeToAndCall",
      "outputs": [],
      "stateMutability": "payable",
      "type": "function",
      "payable": true
    },
    {
      "inputs": [
        {
          "internalType": "uint256",
          "name": "",
          "type": "uint256"
        }
      ],
      "name": "uri",
      "outputs": [
        {
          "internalType": "string",
          "name": "",
          "type": "string"
        }
      ],
      "stateMutability": "view",
      "type": "function",
      "constant": true
    },
    {
      "inputs": [
        {
          "internalType": "uint256",
          "name": "amount",
          "type": "uint256"
        }
      ],
      "name": "withdraw",
      "outputs": [],
      "stateMutability": "nonpayable",
      "type": "function"
    },
    {
      "inputs": [
        {
          "internalType": "string",
          "name": "baseURL",
          "type": "string"
        }
      ],
      "name": "initialize",
      "outputs": [],
      "stateMutability": "nonpayable",
      "type": "function"
    }
  ],
  "bytecode": "0x608060405234801561001057600080fd5b50614700806100206000396000f3fe6080604052600436106102175760003560e01c8062fdd58e1461021c57806301ffc9a71461024f57806305b7cdd31461027f5780630e89341c146102a1578063236d8e76146102ce578063248a9ca3146102ee5780632c8f284c1461030e5780632e1a7d4d1461032e5780632eb2c2d61461034e5780632f2ff15d1461036e57806330b064211461038e57806336568abe146103a35780633659cfe6146103c357806339b276f4146103e35780633c6b570914610403578063448588e3146104235780634559a29b146104455780634880d247146104735780634e1273f4146104935780634f1ef286146104c05780635611cac2146104d3578063572b6c051461050057806358556fb0146105205780635c5d67881461054057806360e3ecd01461056057806391d14854146105825780639a86e8ce146105a25780639e00bb96146105c4578063a217fddf146105e4578063a22cb465146105f9578063a5e1fcd714610619578063ac71045e14610639578063acc08fa51461067d578063ad09608a146106c6578063b6b55f25146106e6578063b95812f414610706578063ba7f4dfe14610727578063bb3bafd614610747578063c29a6fda146107cd578063d547741f146107ed578063e1f1c4a71461080d578063e24b0a2b14610823578063e985e9c514610863578063f242432a14610883578063f5361219146105e4578063f62d1888146108a3578063fe99049a146108c3575b600080fd5b34801561022857600080fd5b5061023c610237366004613b21565b6108e3565b6040519081526020015b60405180910390f35b34801561025b57600080fd5b5061026f61026a366004613ce4565b61097f565b6040519015158152602001610246565b34801561028b57600080fd5b5061029f61029a366004613e39565b610999565b005b3480156102ad57600080fd5b506102c16102bc366004613caa565b610a05565b6040516102469190614149565b3480156102da57600080fd5b506102c16102e9366004613dc3565b610a99565b3480156102fa57600080fd5b5061023c610309366004613caa565b610b6a565b34801561031a57600080fd5b5061023c6103293660046138da565b610b7f565b34801561033a57600080fd5b5061029f610349366004613caa565b610c19565b34801561035a57600080fd5b5061029f61036936600461390c565b610cbb565b34801561037a57600080fd5b5061029f610389366004613cc2565b610fb0565b34801561039a57600080fd5b5061023c600a81565b3480156103af57600080fd5b5061029f6103be366004613cc2565b610fd4565b3480156103cf57600080fd5b5061029f6103de3660046138c0565b611062565b3480156103ef57600080fd5b5061029f6103fe366004613e39565b611089565b34801561040f57600080fd5b5061023c61041e366004613b82565b611174565b34801561042f57600080fd5b5061023c60008051602061467883398151915281565b34801561045157600080fd5b50610465610460366004613b21565b6111a4565b6040516102469291906140be565b34801561047f57600080fd5b5061029f61048e366004613a54565b6111eb565b34801561049f57600080fd5b506104b36104ae366004613bce565b6113ab565b6040516102469190614111565b61029f6104ce366004613ad6565b61150c565b3480156104df57600080fd5b506104f36104ee366004613bce565b611521565b6040516102469190614007565b34801561050c57600080fd5b5061026f61051b3660046138c0565b61155a565b34801561052c57600080fd5b5061023c61053b366004613e5a565b611574565b34801561054c57600080fd5b5061023c61055b366004613b4a565b611588565b34801561056c57600080fd5b5061023c60008051602061463883398151915281565b34801561058e57600080fd5b5061026f61059d366004613cc2565b611620565b3480156105ae57600080fd5b5061023c60008051602061461883398151915281565b3480156105d057600080fd5b5061023c6105df3660046138da565b61164b565b3480156105f057600080fd5b5061023c600081565b34801561060557600080fd5b5061029f610614366004613aa0565b61168c565b34801561062557600080fd5b5061029f6106343660046138c0565b6117a0565b34801561064557600080fd5b5061023c610654366004613b21565b6001600160a01b0391909116600090815261013860209081526040808320938352929052205490565b34801561068957600080fd5b506106b16106983660046138c0565b61012e6020526000908152604090205463ffffffff1681565b60405163ffffffff9091168152602001610246565b3480156106d257600080fd5b5061029f6106e1366004613d61565b611859565b3480156106f257600080fd5b5061029f610701366004613caa565b611a84565b34801561071257600080fd5b5061012d546104f3906001600160a01b031681565b34801561073357600080fd5b506104f3610742366004613bce565b611b3a565b34801561075357600080fd5b506107bb610762366004613caa565b6000908152610131602090815260408083205461013283528184205461013384528285205461013485528386205461013586528487205461013690965293909520546001600160a01b0392831696919594929093169290565b604051610246969594939291906140d7565b3480156107d957600080fd5b5061029f6107e83660046138c0565b611e56565b3480156107f957600080fd5b5061029f610808366004613cc2565b611ea6565b34801561081957600080fd5b5061023c61271081565b34801561082f57600080fd5b5061084361083e366004613cc2565b611ec5565b604080519485526020850193909352918301526060820152608001610246565b34801561086f57600080fd5b5061026f61087e3660046138da565b611fd1565b34801561088f57600080fd5b5061029f61089e3660046139f2565b612026565b3480156108af57600080fd5b5061029f6108be366004613d1c565b6121ae565b3480156108cf57600080fd5b5061029f6108de3660046139b1565b612223565b60006001600160a01b0383166109545760405162461bcd60e51b815260206004820152602b60248201527f455243313135353a2062616c616e636520717565727920666f7220746865207a60448201526a65726f206164647265737360a81b60648201526084015b60405180910390fd5b50600081815260c9602090815260408083206001600160a01b03861684529091529020545b92915050565b600061098a8261229f565b806109795750610979826122ef565b60006109a3612314565b6001600160a01b038116600081815261013860209081526040808320888452825291829020869055905185815292935085927f040259e2f9c7930380b3a5c979ad8a30ecf8d344d3bcdb149e2c454ab85fcd8f910160405180910390a3505050565b606060cb8054610a1490614414565b80601f0160208091040260200160405190810160405280929190818152602001828054610a4090614414565b8015610a8d5780601f10610a6257610100808354040283529160200191610a8d565b820191906000526020600020905b815481529060010190602001808311610a7057829003601f168201915b50505050509050919050565b6060600061012f8054610aab90614414565b80601f0160208091040260200160405190810160405280929190818152602001828054610ad790614414565b8015610b245780601f10610af957610100808354040283529160200191610b24565b820191906000526020600020905b815481529060010190602001808311610b0757829003601f168201915b505050505090506000610b3686612323565b905081818686604051602001610b4f9493929190613f5f565b604051602081830303815290604052925050505b9392505050565b600090815260fb602052604090206001015490565b6001600160a01b038216600090815261013060205260408120815b8154811015610c0e576000828281548110610bc557634e487b7160e01b600052603260045260246000fd5b6000918252602090912060029091020180549091506001600160a01b0386811691161415610bfb57600101549250610979915050565b5080610c068161447b565b915050610b9a565b506000949350505050565b6000610c23612314565b9050610c318160008461243c565b61012d5460405163a9059cbb60e01b81526001600160a01b039091169063a9059cbb90610c6490849086906004016140be565b602060405180830381600087803b158015610c7e57600080fd5b505af1158015610c92573d6000803e3d6000fd5b505050506040513d601f19601f82011682018060405250810190610cb69190613c8e565b505050565b8151835114610d1d5760405162461bcd60e51b815260206004820152602860248201527f455243313135353a2069647320616e6420616d6f756e7473206c656e677468206044820152670dad2e6dac2e8c6d60c31b606482015260840161094b565b6001600160a01b038416610d435760405162461bcd60e51b815260040161094b906141ed565b610d4b612314565b6001600160a01b0316856001600160a01b03161480610d715750610d718561087e612314565b610dd85760405162461bcd60e51b815260206004820152603260248201527f455243313135353a207472616e736665722063616c6c6572206973206e6f74206044820152711bdddb995c881b9bdc88185c1c1c9bdd995960721b606482015260840161094b565b6000610de2612314565b9050610df28187878787876125bf565b60005b8451811015610f42576000858281518110610e2057634e487b7160e01b600052603260045260246000fd5b602002602001015190506000858381518110610e4c57634e487b7160e01b600052603260045260246000fd5b602090810291909101810151600084815260c9835260408082206001600160a01b038e168352909352919091205490915081811015610e9d5760405162461bcd60e51b815260040161094b906142cc565b610ea782826143ba565b60c9600085815260200190815260200160002060008c6001600160a01b03166001600160a01b03168152602001908152602001600020819055508160c9600085815260200190815260200160002060008b6001600160a01b03166001600160a01b031681526020019081526020016000206000828254610f279190614347565b9250508190555050505080610f3b9061447b565b9050610df5565b50846001600160a01b0316866001600160a01b0316826001600160a01b03167f4a39dc06d4c0dbc64b70af90fd698a233a518aa5d07e595d983b8c0526c8f7fb8787604051610f92929190614124565b60405180910390a4610fa8818787878787612637565b505050505050565b610fb982610b6a565b610fca81610fc5612314565b6127a2565b610cb68383612806565b610fdc612314565b6001600160a01b0316816001600160a01b0316146110545760405162461bcd60e51b815260206004820152602f60248201527f416363657373436f6e74726f6c3a2063616e206f6e6c792072656e6f756e636560448201526e103937b632b9903337b91039b2b63360891b606482015260840161094b565b61105e828261288d565b5050565b61106b81612912565b61108681604051806020016040528060008152506000612956565b50565b6000611093612314565b905061109f8184612ad2565b6110a857600080fd5b6000838152610137602052604090205482116111215760405162461bcd60e51b815260206004820152603260248201527f526f79616c7469657320636f6e66696775726174696f6e2063616e6e6f74206260448201527132903ab73637b1b5b2b21032b0b93634b2b960711b606482015260840161094b565b60008381526101376020526040908190208390555183907f7bdd35d2167385bdbed0892e34b48298770ffce27fe71928c767071865f51544906111679085815260200190565b60405180910390a2505050565b6001600160601b0319606084901b1663ffffffff60401b604084901b16176001600160401b038216179392505050565b61013060205281600052604060002081815481106111c157600080fd5b6000918252602090912060029091020180546001909101546001600160a01b039091169250905082565b60006111f5612314565b6001600160a01b038616600090815261013860209081526040808320888452909152902054909150806112595760405162461bcd60e51b815260206004820152600c60248201526b4e6f7420666f722073616c6560a01b604482015260640161094b565b83158061126557508084145b6112a45760405162461bcd60e51b815260206004820152601060248201526f556e657870656374656420707269636560801b604482015260640161094b565b60006112b0848361439b565b90506112bb81611a84565b6112d8838860008460405180602001604052806000815250612026565b60006112e688888588612ae5565b9050818111156113465760405162461bcd60e51b815260206004820152602560248201527f43616e6e6f742074616b65206d6f72652066656573207468616e2074686520706044820152643934b1b29760d91b606482015260840161094b565b611352888a8988612bf4565b86886001600160a01b03168a6001600160a01b03167fe90359125940e7c9b26005d19d4d8a2a5335ea8bef094bcd61bb8f8091cad1178689604051611398929190614316565b60405180910390a4505050505050505050565b606081518351146114105760405162461bcd60e51b815260206004820152602960248201527f455243313135353a206163636f756e747320616e6420696473206c656e677468604482015268040dad2e6dac2e8c6d60bb1b606482015260840161094b565b600083516001600160401b0381111561143957634e487b7160e01b600052604160045260246000fd5b604051908082528060200260200182016040528015611462578160200160208202803683370190505b50905060005b8451811015611504576114c985828151811061149457634e487b7160e01b600052603260045260246000fd5b60200260200101518583815181106114bc57634e487b7160e01b600052603260045260246000fd5b60200260200101516108e3565b8282815181106114e957634e487b7160e01b600052603260045260246000fd5b60209081029190910101526114fd8161447b565b9050611468565b509392505050565b61151582612912565b61105e82826001612956565b6000808383604051602001611537929190613edb565b60408051808303601f19018152919052805160209091012060601c949350505050565b600061097960008051602061461883398151915283611620565b6000610b63611581612314565b8484612cde565b600080611593612314565b905061159f8682611fd1565b6116085760405162461bcd60e51b815260206004820152603460248201527f746865206f70657261746f72206d75737420626520617070726f766564206f726044820152731030902a2920a729a322a92fa7a822a920aa27a960611b606482015260840161094b565b61161486868686612ae5565b9150505b949350505050565b600091825260fb602090815260408084206001600160a01b0393909316845291905290205460ff1690565b6000806116588484610b7f565b905060006116678560006108e3565b90506000612710611678848461439b565b6116829190614387565b9695505050505050565b816001600160a01b031661169e612314565b6001600160a01b031614156117075760405162461bcd60e51b815260206004820152602960248201527f455243313135353a2073657474696e6720617070726f76616c20737461747573604482015268103337b91039b2b63360b91b606482015260840161094b565b8060ca6000611714612314565b6001600160a01b03908116825260208083019390935260409182016000908120918716808252919093529120805460ff191692151592909217909155611758612314565b6001600160a01b03167f17307eab39ab6107e8899845ad3d59bd9653f200f220920489ca2b5937696c3183604051611794911515815260200190565b60405180910390a35050565b60006117ad8260006108e3565b6001600160a01b0383166000908152610130602052604081209192505b81548110156118535760008282815481106117f557634e487b7160e01b600052603260045260246000fd5b90600052602060002090600202019050600061271082600101548661181a919061439b565b6118249190614387565b825490915061183e9087906001600160a01b031683612d7c565b5050808061184b9061447b565b9150506117ca565b50505050565b6000611863612314565b905061186f8189612ad2565b6118d15760405162461bcd60e51b815260206004820152602d60248201527f4f6e6c792074686520697373756572206f662074686973204e46542063616e2060448201526c73657420726f79616c7469657360981b606482015260840161094b565b600088815261013760205260409020544210156119425760405162461bcd60e51b815260206004820152602960248201527f526f79616c7469657320636f6e66696775726174696f6e206973206c6f636b656044820152686420666f72206e6f7760b81b606482015260840161094b565b6001600160a01b038716151580611960575085158015611960575084155b61197c5760405162461bcd60e51b815260040161094b90614232565b60008881526101316020908152604080832080546001600160a01b0319166001600160a01b038c81169190911790915561013283528184208a905561013390925290912086905584161515806119d95750821580156119d9575081155b6119f55760405162461bcd60e51b815260040161094b90614232565b60008881526101346020908152604080832080546001600160a01b0319166001600160a01b0389161790556101358252808320869055610136909152908190208390555188907f3df2272e42784a2455bbbdcdf25ae0f67d41f801896514cc4cd255aa8ee75e4c90611a72908a908a908a908a908a908a906140d7565b60405180910390a25050505050505050565b6000611a8e612314565b61012d546040516323b872dd60e01b81526001600160a01b038084166004830152306024830152604482018690529293509116906323b872dd90606401602060405180830381600087803b158015611ae557600080fd5b505af1158015611af9573d6000803e3d6000fd5b505050506040513d601f19601f82011682018060405250810190611b1d9190613c8e565b5061105e8160008460405180602001604052806000815250612e5f565b60008151835114611bae5760405162461bcd60e51b815260206004820152603860248201527f417272617973206f66206f776e65727320616e64206672616374696f6e73206d6044820152770eae6e840d0c2ecca40e8d0ca40e6c2daca40d8cadccee8d60431b606482015260840161094b565b600a83511115611bf25760405162461bcd60e51b815260206004820152600f60248201526e546f6f206d616e792073686172657360881b604482015260640161094b565b6000611bfe8484611521565b6001600160a01b03811660009081526101306020526040902080549192509015611c675760405162461bcd60e51b815260206004820152601a602482015279546865206163636f756e7420616c72656164792065786973747360301b604482015260640161094b565b6000805b8651811015611dfa576000878281518110611c9657634e487b7160e01b600052603260045260246000fd5b602002602001015190506000878381518110611cc257634e487b7160e01b600052603260045260246000fd5b6020026020010151905060006001600160a01b0316826001600160a01b031614158015611cee57508015155b611d375760405162461bcd60e51b815260206004820152601a6024820152790c081d985b1d595cc8185c99481b9bdd081c195c9b5a5d1d195960321b604482015260640161094b565b604080518082019091526001600160a01b0383811682526020808301848152885460018082018b5560008b8152939093209451600290910290940180546001600160a01b031916949093169390931782559151910155611d978185614347565b9350816001600160a01b0316866001600160a01b03167e6fb9851f1fd2fbc9fa36680d17e1254999a38e5f3c76c3a1ecc126a464601b83604051611ddd91815260200190565b60405180910390a350508080611df29061447b565b915050611c6b565b506127108114611e4c5760405162461bcd60e51b815260206004820152601e60248201527f546f74616c206672616374696f6e73206d7573742062652031302c3030300000604482015260640161094b565b5090949350505050565b61012d546001600160a01b031615611e6d57600080fd5b611e7a600061059d612314565b611e8357600080fd5b61012d80546001600160a01b0319166001600160a01b0392909216919091179055565b611eaf82610b6a565b611ebb81610fc5612314565b610cb6838361288d565b600082815261013260209081526040808320546101338352818420546101319093529083205490929081906001600160a01b039081169086168114611f46576000611f108288610b7f565b9050612710611f1f828861439b565b611f299190614387565b9550612710611f38828761439b565b611f429190614387565b9450505b6000878152610135602090815260408083205461013683528184205461013490935292205491945092506001600160a01b039081169087168114611fc6576000611f908289610b7f565b9050612710611f9f828761439b565b611fa99190614387565b9450612710611fb8828661439b565b611fc29190614387565b9350505b505092959194509250565b6000611feb60008051602061463883398151915283611620565b15611ff857506001610979565b6001600160a01b03808416600090815260ca602090815260408083209386168352929052205460ff16610b63565b6001600160a01b03841661204c5760405162461bcd60e51b815260040161094b906141ed565b612054612314565b6001600160a01b0316856001600160a01b0316148061207a575061207a8561087e612314565b6120965760405162461bcd60e51b815260040161094b906141a4565b60006120a0612314565b90506120c08187876120b188612f69565b6120ba88612f69565b876125bf565b600084815260c9602090815260408083206001600160a01b038a168452909152902054838110156121035760405162461bcd60e51b815260040161094b906142cc565b61210d84826143ba565b600086815260c9602090815260408083206001600160a01b038c8116855292528083209390935588168152908120805486929061214b908490614347565b92505081905550856001600160a01b0316876001600160a01b0316836001600160a01b03166000805160206145b1833981519152888860405161218f929190614316565b60405180910390a46121a5828888888888612fc2565b50505050505050565b600054610100900460ff16806121c7575060005460ff16155b6121e35760405162461bcd60e51b815260040161094b9061427e565b600054610100900460ff16158015612205576000805461ffff19166101011790555b61220e8261308c565b801561105e576000805461ff00191690555050565b6001600160a01b0383166122495760405162461bcd60e51b815260040161094b906141ed565b612251612314565b6001600160a01b0316846001600160a01b0316148061227757506122778461087e612314565b6122935760405162461bcd60e51b815260040161094b906141a4565b61185384848484612bf4565b60006001600160e01b03198216636cdb3d1360e11b14806122d057506001600160e01b031982166303a24d0760e21b145b8061097957506301ffc9a760e01b6001600160e01b0319831614610979565b60006001600160e01b03198216637965db0b60e01b148061097957506109798261229f565b600061231e613095565b905090565b6060816123475750506040805180820190915260018152600360fc1b602082015290565b8160005b8115612371578061235b8161447b565b915061236a9050600a83614387565b915061234b565b6000816001600160401b0381111561239957634e487b7160e01b600052604160045260246000fd5b6040519080825280601f01601f1916602001820160405280156123c3576020820181803683370190505b5090505b8415611618576123d86001836143ba565b91506123e5600a86614496565b6123f0906030614347565b60f81b81838151811061241357634e487b7160e01b600052603260045260246000fd5b60200101906001600160f81b031916908160001a905350612435600a86614387565b94506123c7565b6001600160a01b03831661249e5760405162461bcd60e51b815260206004820152602360248201527f455243313135353a206275726e2066726f6d20746865207a65726f206164647260448201526265737360e81b606482015260840161094b565b60006124a8612314565b90506124d8818560006124ba87612f69565b6124c387612f69565b604051806020016040528060008152506125bf565b600083815260c9602090815260408083206001600160a01b0388168452909152902054828110156125575760405162461bcd60e51b8152602060048201526024808201527f455243313135353a206275726e20616d6f756e7420657863656564732062616c604482015263616e636560e01b606482015260840161094b565b61256183826143ba565b600085815260c9602090815260408083206001600160a01b03808b16808652919093528184209490945551919291908516906000805160206145b1833981519152906125b09089908990614316565b60405180910390a45050505050565b60005b83518110156121a557612626868583815181106125ef57634e487b7160e01b600052603260045260246000fd5b6020026020010151600086858151811061261957634e487b7160e01b600052603260045260246000fd5b6020026020010151612ae5565b506126308161447b565b90506125c2565b6001600160a01b0384163b15610fa85760405163bc197c8160e01b81526001600160a01b0385169063bc197c819061267b908990899088908890889060040161401b565b602060405180830381600087803b15801561269557600080fd5b505af19250505080156126c5575060408051601f3d908101601f191682019092526126c291810190613d00565b60015b612772576126d16144ec565b806308c379a0141561270b57506126e6614503565b806126f1575061270d565b8060405162461bcd60e51b815260040161094b9190614149565b505b60405162461bcd60e51b815260206004820152603460248201527f455243313135353a207472616e7366657220746f206e6f6e20455243313135356044820152732932b1b2b4bb32b91034b6b83632b6b2b73a32b960611b606482015260840161094b565b6001600160e01b0319811663bc197c8160e01b146121a55760405162461bcd60e51b815260040161094b9061415c565b6127ac8282611620565b61105e576127c4816001600160a01b031660146130ba565b6127cf8360206130ba565b6040516020016127e0929190613f98565b60408051601f198184030181529082905262461bcd60e51b825261094b91600401614149565b6128108282611620565b61105e57600082815260fb602090815260408083206001600160a01b03851684529091529020805460ff19166001179055612849612314565b6001600160a01b0316816001600160a01b0316837f2f8788117e7eff1d82e926ec794901d17c78024a50270940304540a733656f0d60405160405180910390a45050565b6128978282611620565b1561105e57600082815260fb602090815260408083206001600160a01b03851684529091529020805460ff191690556128ce612314565b6001600160a01b0316816001600160a01b0316837ff6391f5c32d9c69d2a47ea670b442974b53935d1edc7fd64eb21e047a839171b60405160405180910390a45050565b61291d600033611620565b6110865760405162461bcd60e51b815260206004820152600a60248201526927b7363c9020b236b4b760b11b604482015260640161094b565b600061296061329b565b905061296b846132b7565b6000835111806129785750815b1561298957612987848461334a565b505b7f4910fdfa16fed3260ed0e7147f7cc6da11a60208b5b9406d12a635614ffd9143805460ff16612acb57805460ff19166001178155604051612a049086906129d5908590602401614007565b60408051601f198184030181529190526020810180516001600160e01b0316631b2ce7f360e11b17905261334a565b50805460ff19168155612a1561329b565b6001600160a01b0316826001600160a01b031614612a8d5760405162461bcd60e51b815260206004820152602f60248201527f45524331393637557067726164653a207570677261646520627265616b73206660448201526e75727468657220757067726164657360881b606482015260840161094b565b612a96856132b7565b6040516001600160a01b038616907fbc7cd75a20ee27fd9adebab32041f755214dbc6bffa90cc0225b39da2e5c2d3b90600090a25b5050505050565b60601c6001600160a01b03919091161490565b600083612af457506000611618565b612b0c60008051602061467883398151915233611620565b15612b1957506000611618565b600080600080612b298989612ad2565b90508015612b6b576000888152610132602090815260408083205461013383528184205461013190935292205491955093506001600160a01b03169150612ba1565b6000888152610135602090815260408083205461013683528184205461013490935292205491955093506001600160a01b031691505b6000612710612bb0868a61439b565b612bba9190614387565b905083811015612bc75750825b6000612bd3888361439b565b90508015612be657612be68b8583612d7c565b9a9950505050505050505050565b600082815260c9602090815260408083206001600160a01b038816845290915290205481811015612c375760405162461bcd60e51b815260040161094b906142cc565b612c4182826143ba565b600084815260c9602090815260408083206001600160a01b038a81168552925280832093909355861681529081208054849290612c7f908490614347565b9091555060009050612c8f612314565b9050846001600160a01b0316866001600160a01b0316826001600160a01b03166000805160206145b18339815191528787604051612cce929190614316565b60405180910390a4505050505050565b6001600160a01b038316600090815261012e602052604081205463ffffffff16612d0981600161435f565b6001600160a01b038616600090815261012e60205260408120805463ffffffff191663ffffffff9390931692909217909155612d46868387611174565b90506000856001600160401b031611612d5e57600080fd5b612d738682876001600160401b031687612e5f565b95945050505050565b6001600160a01b0383166000908152600080516020614658833981519152602052604090205481811015612dc25760405162461bcd60e51b815260040161094b906142cc565b612dcc82826143ba565b6001600160a01b03858116600090815260008051602061465883398151915260205260408082209390935590851681529081208054849290612e0f908490614347565b9091555060009050612e1f612314565b9050836001600160a01b0316856001600160a01b0316826001600160a01b03166000805160206145b18339815191526000876040516125b0929190614316565b6001600160a01b038416612ebf5760405162461bcd60e51b815260206004820152602160248201527f455243313135353a206d696e7420746f20746865207a65726f206164647265736044820152607360f81b606482015260840161094b565b6000612ec9612314565b9050612edb816000876120b188612f69565b600084815260c9602090815260408083206001600160a01b038916845290915281208054859290612f0d908490614347565b92505081905550846001600160a01b031660006001600160a01b0316826001600160a01b03166000805160206145b18339815191528787604051612f52929190614316565b60405180910390a4612acb81600087878787612fc2565b60408051600180825281830190925260609160009190602080830190803683370190505090508281600081518110612fb157634e487b7160e01b600052603260045260246000fd5b602090810291909101015292915050565b6001600160a01b0384163b15610fa85760405163f23a6e6160e01b81526001600160a01b0385169063f23a6e61906130069089908990889088908890600401614079565b602060405180830381600087803b15801561302057600080fd5b505af1925050508015613050575060408051601f3d908101601f1916820190925261304d91810190613d00565b60015b61305c576126d16144ec565b6001600160e01b0319811663f23a6e6160e01b146121a55760405162461bcd60e51b815260040161094b9061415c565b6110868161342c565b60006130a03361155a565b156130b2575060131936013560601c90565b503390565b90565b606060006130c983600261439b565b6130d4906002614347565b6001600160401b038111156130f957634e487b7160e01b600052604160045260246000fd5b6040519080825280601f01601f191660200182016040528015613123576020820181803683370190505b509050600360fc1b8160008151811061314c57634e487b7160e01b600052603260045260246000fd5b60200101906001600160f81b031916908160001a905350600f60fb1b8160018151811061318957634e487b7160e01b600052603260045260246000fd5b60200101906001600160f81b031916908160001a90535060006131ad84600261439b565b6131b8906001614347565b90505b600181111561324c576f181899199a1a9b1b9c1cb0b131b232b360811b85600f16601081106131fa57634e487b7160e01b600052603260045260246000fd5b1a60f81b82828151811061321e57634e487b7160e01b600052603260045260246000fd5b60200101906001600160f81b031916908160001a90535060049490941c93613245816143fd565b90506131bb565b508315610b635760405162461bcd60e51b815260206004820181905260248201527f537472696e67733a20686578206c656e67746820696e73756666696369656e74604482015260640161094b565b6000805160206145d1833981519152546001600160a01b031690565b803b61331b5760405162461bcd60e51b815260206004820152602d60248201527f455243313936373a206e657720696d706c656d656e746174696f6e206973206e60448201526c1bdd08184818dbdb9d1c9858dd609a1b606482015260840161094b565b6000805160206145d183398151915280546001600160a01b0319166001600160a01b0392909216919091179055565b6060823b6133a95760405162461bcd60e51b815260206004820152602660248201527f416464726573733a2064656c65676174652063616c6c20746f206e6f6e2d636f6044820152651b9d1c9858dd60d21b606482015260840161094b565b600080846001600160a01b0316846040516133c49190613f43565b600060405180830381855af49150503d80600081146133ff576040519150601f19603f3d011682016040523d82523d6000602084013e613404565b606091505b5091509150612d7382826040518060600160405280602781526020016145f160279139613435565b6110868161346e565b60608315613444575081610b63565b8251156134545782518084602001fd5b8160405162461bcd60e51b815260040161094b9190614149565b6110868180516134869061012f906020840190613704565b50611086613492613494565b565b6134926134926134bb604051806060016040528060338152602001614698603391396134c3565b613492613533565b600054610100900460ff16806134dc575060005460ff16155b6134f85760405162461bcd60e51b815260040161094b9061427e565b600054610100900460ff1615801561351a576000805461ffff19166101011790555b61352261353b565b61352a61353b565b61220e826135a6565b613492613606565b600054610100900460ff1680613554575060005460ff16155b6135705760405162461bcd60e51b815260040161094b9061427e565b600054610100900460ff16158015613592576000805461ffff19166101011790555b8015611086576000805461ff001916905550565b600054610100900460ff16806135bf575060005460ff16155b6135db5760405162461bcd60e51b815260040161094b9061427e565b600054610100900460ff161580156135fd576000805461ffff19166101011790555b61220e82613621565b61360e613634565b61361661369b565b6134926000336136fa565b805161105e9060cb906020840190613704565b600054610100900460ff168061364d575060005460ff16155b6136695760405162461bcd60e51b815260040161094b9061427e565b600054610100900460ff1615801561368b576000805461ffff19166101011790555b61369361353b565b61359261353b565b600054610100900460ff16806136b4575060005460ff16155b6136d05760405162461bcd60e51b815260040161094b9061427e565b600054610100900460ff161580156136f2576000805461ffff19166101011790555b61368b61353b565b61105e8282612806565b82805461371090614414565b90600052602060002090601f0160209004810192826137325760008555613778565b82601f1061374b57805160ff1916838001178555613778565b82800160010185558215613778579182015b8281111561377857825182559160200191906001019061375d565b50613784929150613788565b5090565b5b808211156137845760008155600101613789565b60006001600160401b038311156137b6576137b66144d6565b6040516137cd601f8501601f19166020018261444f565b8091508381528484840111156137e257600080fd5b83836020830137600060208583010152509392505050565b80356001600160a01b038116811461381157600080fd5b919050565b600082601f830112613826578081fd5b8135602061383382614324565b604051613840828261444f565b8381528281019150858301600585901b8701840188101561385f578586fd5b855b8581101561387d57813584529284019290840190600101613861565b5090979650505050505050565b600082601f83011261389a578081fd5b610b638383356020850161379d565b80356001600160401b038116811461381157600080fd5b6000602082840312156138d1578081fd5b610b63826137fa565b600080604083850312156138ec578081fd5b6138f5836137fa565b9150613903602084016137fa565b90509250929050565b600080600080600060a08688031215613923578081fd5b61392c866137fa565b945061393a602087016137fa565b935060408601356001600160401b0380821115613955578283fd5b61396189838a01613816565b94506060880135915080821115613976578283fd5b61398289838a01613816565b93506080880135915080821115613997578283fd5b506139a48882890161388a565b9150509295509295909350565b600080600080608085870312156139c6578384fd5b6139cf856137fa565b93506139dd602086016137fa565b93969395505050506040820135916060013590565b600080600080600060a08688031215613a09578081fd5b613a12866137fa565b9450613a20602087016137fa565b9350604086013592506060860135915060808601356001600160401b03811115613a48578182fd5b6139a48882890161388a565b600080600080600060a08688031215613a6b578283fd5b613a74866137fa565b9450613a82602087016137fa565b94979496505050506040830135926060810135926080909101359150565b60008060408385031215613ab2578182fd5b613abb836137fa565b91506020830135613acb8161458c565b809150509250929050565b60008060408385031215613ae8578182fd5b613af1836137fa565b915060208301356001600160401b03811115613b0b578182fd5b613b178582860161388a565b9150509250929050565b60008060408385031215613b33578182fd5b613b3c836137fa565b946020939093013593505050565b60008060008060808587031215613b5f578182fd5b613b68856137fa565b966020860135965060408601359560600135945092505050565b600080600060608486031215613b96578081fd5b613b9f846137fa565b9250602084013563ffffffff81168114613bb7578182fd5b9150613bc5604085016138a9565b90509250925092565b60008060408385031215613be0578182fd5b82356001600160401b0380821115613bf6578384fd5b818501915085601f830112613c09578384fd5b81356020613c1682614324565b604051613c23828261444f565b8381528281019150858301600585901b870184018b1015613c42578889fd5b8896505b84871015613c6b57613c57816137fa565b835260019690960195918301918301613c46565b5096505086013592505080821115613c81578283fd5b50613b1785828601613816565b600060208284031215613c9f578081fd5b8151610b638161458c565b600060208284031215613cbb578081fd5b5035919050565b60008060408385031215613cd4578182fd5b82359150613903602084016137fa565b600060208284031215613cf5578081fd5b8135610b638161459a565b600060208284031215613d11578081fd5b8151610b638161459a565b600060208284031215613d2d578081fd5b81356001600160401b03811115613d42578182fd5b8201601f81018413613d52578182fd5b6116188482356020840161379d565b600080600080600080600060e0888a031215613d7b578485fd5b87359650613d8b602089016137fa565b95506040880135945060608801359350613da7608089016137fa565b925060a0880135915060c0880135905092959891949750929550565b600080600060408486031215613dd7578081fd5b8335925060208401356001600160401b0380821115613df4578283fd5b818601915086601f830112613e07578283fd5b813581811115613e15578384fd5b876020828501011115613e26578384fd5b6020830194508093505050509250925092565b60008060408385031215613e4b578182fd5b50508035926020909101359150565b60008060408385031215613e6c578182fd5b613af1836138a9565b6000815180845260208085019450808401835b83811015613ea457815187529582019590820190600101613e88565b509495945050505050565b60008151808452613ec78160208601602086016143d1565b601f01601f19169290920160200192915050565b825160009082906020808701845b83811015613f0e5781516001600160a01b031685529382019390820190600101613ee9565b50508551818701939250845b81811015613f3657845184529382019392820192600101613f1a565b5091979650505050505050565b60008251613f558184602087016143d1565b9190910192915050565b60008551613f71818460208a016143d1565b855190830190613f85818360208a016143d1565b0183858237909201918252509392505050565b76020b1b1b2b9b9a1b7b73a3937b61d1030b1b1b7bab73a1604d1b815260008351613fca8160178501602088016143d1565b7001034b99036b4b9b9b4b733903937b6329607d1b6017918401918201528351613ffb8160288401602088016143d1565b01602801949350505050565b6001600160a01b0391909116815260200190565b6001600160a01b0386811682528516602082015260a06040820181905260009061404790830186613e75565b82810360608401526140598186613e75565b9050828103608084015261406d8185613eaf565b98975050505050505050565b6001600160a01b03868116825285166020820152604081018490526060810183905260a0608082018190526000906140b390830184613eaf565b979650505050505050565b6001600160a01b03929092168252602082015260400190565b6001600160a01b0396871681526020810195909552604085019390935293166060830152608082019290925260a081019190915260c00190565b602081526000610b636020830184613e75565b6040815260006141376040830185613e75565b8281036020840152612d738185613e75565b602081526000610b636020830184613eaf565b60208082526028908201527f455243313135353a204552433131353552656365697665722072656a656374656040820152676420746f6b656e7360c01b606082015260800190565b60208082526029908201527f455243313135353a2063616c6c6572206973206e6f74206f776e6572206e6f7260408201526808185c1c1c9bdd995960ba1b606082015260800190565b60208082526025908201527f455243313135353a207472616e7366657220746f20746865207a65726f206164604082015264647265737360d81b606082015260800190565b6020808252602c908201527f546865206163636f756e74206d757374206e6f7420626520302c20756e6c657360408201526b07320666565732061726520360a41b606082015260800190565b6020808252602e908201527f496e697469616c697a61626c653a20636f6e747261637420697320616c72656160408201526d191e481a5b9a5d1a585b1a5e995960921b606082015260800190565b6020808252602a908201527f455243313135353a20696e73756666696369656e742062616c616e636520666f60408201526939103a3930b739b332b960b11b606082015260800190565b918252602082015260400190565b60006001600160401b0382111561433d5761433d6144d6565b5060051b60200190565b6000821982111561435a5761435a6144aa565b500190565b600063ffffffff80831681851680830382111561437e5761437e6144aa565b01949350505050565b600082614396576143966144c0565b500490565b60008160001904831182151516156143b5576143b56144aa565b500290565b6000828210156143cc576143cc6144aa565b500390565b60005b838110156143ec5781810151838201526020016143d4565b838111156118535750506000910152565b60008161440c5761440c6144aa565b506000190190565b600181811c9082168061442857607f821691505b6020821081141561444957634e487b7160e01b600052602260045260246000fd5b50919050565b601f8201601f191681016001600160401b0381118282101715614474576144746144d6565b6040525050565b600060001982141561448f5761448f6144aa565b5060010190565b6000826144a5576144a56144c0565b500690565b634e487b7160e01b600052601160045260246000fd5b634e487b7160e01b600052601260045260246000fd5b634e487b7160e01b600052604160045260246000fd5b600060033d11156130b757600481823e5160e01c90565b600060443d10156145115790565b6040516003193d81016004833e81513d6001600160401b03808311602484018310171561454057505050505090565b82850191508151818111156145585750505050505090565b843d87010160208285010111156145725750505050505090565b6145816020828601018761444f565b509095945050505050565b801515811461108657600080fd5b6001600160e01b03198116811461108657600080fdfec3d58168c5ae7397731d063d5bbf3d657854427343f4c083240f7aacaa2d0f62360894a13ba1a3210667c828492db98dca3e2076cc3735a920a3ca505d382bbc416464726573733a206c6f772d6c6576656c2064656c65676174652063616c6c206661696c65643d2e894c222ba979e2dce2c7d940c0e9bb14306669e9f034eb1bb3979a2069d8626f510646502d065065e8bd550325973a611a32e6f6ddff40650005cb13636881fe90a866a48a634a12852c1be675b683a22307409932a7443b8029347be75620a4be6e7127e439f48d6654377d19402cb883dd85029e600de9e17052f903d368747470733a2f2f6170692e66726565706f72742e636572652e6e6574776f726b2f657263313135352f7b69647d2e6a736f6ea26469706673582212201647a73a6693b02a7c90056bcf2d5565d1eea6d863689ed893b902add0a9916a64736f6c63430008040033",
  "immutableReferences": {},
  "source": "pragma solidity ^0.8.0;\n\nimport \"./freeportParts/SimpleExchange.sol\";\n\n/** Main contract, including all components.\n\n- Hold and transfer NFTs using ERC1155.\n- Support atomic exchanges of NFTs for currency.\n- Issuance of NFTs with fixed supply.\n- Joint Accounts that distribute their funds over multiple owners.\n- Capture royalties on primary and secondary transfers, configurable per NFT type.\n*/\ncontract Freeport is /*\n    ERC1155,\n    AccessControl,\n    MetaTxContext,\n    BaseNFT,\n    Currency,\n    TransferOperator,\n    ERC20Adapter,\n    Issuance,\n    JointAccounts,\n    TransferFees,\n    */ SimpleExchange {\n\n    /** Initialize this contract and its dependencies.\n     */\n    function initialize(string memory baseURL) public initializer {\n        __SimpleExchange_init(baseURL);\n    }\n}\n",
  "sourcePath": "/home/nadtech/Visual_Studio/Freeport-Smart-Contracts/contracts/Freeport.sol",
  "compiler": {
    "name": "solc",
    "version": "0.8.4+commit.c7e474f2.Emscripten.clang"
  },
  "schemaVersion": "3.4.4",
  "updatedAt": "2022-03-22T13:20:14.897Z",
  "networkType": "ethereum",
  "devdoc": {
    "kind": "dev",
    "methods": {
      "balanceOf(address,uint256)": {
        "details": "See {IERC1155-balanceOf}. Requirements: - `account` cannot be the zero address."
      },
      "balanceOfBatch(address[],uint256[])": {
        "details": "See {IERC1155-balanceOfBatch}. Requirements: - `accounts` and `ids` must have the same length."
      },
      "getRoleAdmin(bytes32)": {
        "details": "Returns the admin role that controls `role`. See {grantRole} and {revokeRole}. To change a role's admin, use {_setRoleAdmin}."
      },
      "grantRole(bytes32,address)": {
        "details": "Grants `role` to `account`. If `account` had not been already granted `role`, emits a {RoleGranted} event. Requirements: - the caller must have ``role``'s admin role."
      },
      "hasRole(bytes32,address)": {
        "details": "Returns `true` if `account` has been granted `role`."
      },
      "renounceRole(bytes32,address)": {
        "details": "Revokes `role` from the calling account. Roles are often managed via {grantRole} and {revokeRole}: this function's purpose is to provide a mechanism for accounts to lose their privileges if they are compromised (such as when a trusted device is misplaced). If the calling account had been granted `role`, emits a {RoleRevoked} event. Requirements: - the caller must be `account`."
      },
      "revokeRole(bytes32,address)": {
        "details": "Revokes `role` from `account`. If `account` had been granted `role`, emits a {RoleRevoked} event. Requirements: - the caller must have ``role``'s admin role."
      },
      "safeBatchTransferFrom(address,address,uint256[],uint256[],bytes)": {
        "details": "See {IERC1155-safeBatchTransferFrom}."
      },
      "safeTransferFrom(address,address,uint256,uint256,bytes)": {
        "details": "See {IERC1155-safeTransferFrom}."
      },
      "setApprovalForAll(address,bool)": {
        "details": "See {IERC1155-setApprovalForAll}."
      },
      "uri(uint256)": {
        "details": "See {IERC1155MetadataURI-uri}. This implementation returns the same URI for *all* token types. It relies on the token type ID substitution mechanism https://eips.ethereum.org/EIPS/eip-1155#metadata[defined in the EIP]. Clients calling this function must replace the `\\{id\\}` substring with the actual token type ID."
      }
    },
    "version": 1
  },
  "userdoc": {
    "events": {
      "JointAccountShareCreated(address,address,uint256)": {
        "notice": "Notify that a Joint Account was created at the address `account`. One such event is emitted for each owner, including his fraction of the account in basis points (1% of 1%)."
      },
      "MakeOffer(address,uint256,uint256)": {
        "notice": "An event emitted when an account `seller` has offered to sell a type of NFT at a given price. This replaces previous offers by the same seller on the same NFT ID, if any. A price of 0 means \"no offer\" and the previous offer is cancelled. An offer does not imply that the seller owns any amount of this NFT. An offer remains valid until cancelled, for the entire balance at a given time, regardless of incoming and outgoing transfers on the seller account."
      },
      "RoyaltiesConfigured(uint256,address,uint256,uint256,address,uint256,uint256)": {
        "notice": "Notify that royalties were configured on an NFT type."
      },
      "RoyaltiesLocked(uint256,uint256)": {
        "notice": "Notify that royalties are locked and cannot change, until the given time (in UNIX seconds), or forever (lockUntil = 0xFFFFFFFF)."
      },
      "TakeOffer(address,address,uint256,uint256,uint256)": {
        "notice": "An offer of `seller` was taken by `buyer`. The transfers of `amount` NFTs of type `nftId` against `amount * price` of CERE Units were executed."
      }
    },
    "kind": "user",
    "methods": {
      "BASIS_POINTS()": {
        "notice": "The total fraction representing 100% of an account."
      },
      "CURRENCY()": {
        "notice": "The token ID that represents the internal currency for all payments in this contract. "
      },
      "balanceOfJAOwner(address,address)": {
        "notice": "Calculate the amount of tokens that an owner of a Joint Account can withdraw right now."
      },
      "captureFee(address,uint256,uint256,uint256)": {
        "notice": "Collect the royalty due on a transfer. The royalty is calculated based on NFT configuration and the price. It is collected by an internal transfer of currency between \"from\" and the beneficiary. Return the amount collected. The caller must be approved by \"from\", or a TRANSFER_OPERATOR."
      },
      "configureRoyalties(uint256,address,uint256,uint256,address,uint256,uint256)": {
        "notice": "Configure the amounts and beneficiaries of royalties on primary and secondary transfers of this NFT. This configuration is available to the issuer of this NFT. A transfer is primary if it comes from the issuer of this NFT (normally the first sale after issuance). Otherwise, it is a secondary transfer. A royalty is defined in two parts (both optional): a cut of the sale price of an NFT, and a minimum royalty per transfer. For simple transfers not attached to a price, or a too low price, the minimum royalty is charged. The cuts are given in basis points (1% of 1%). The minimums are given in currency amounts. The configuration can be changed at any time by default. However, the issuer may commit to it for a period of time, effectively giving up his ability to modify the royalties. See the function lockRoyalties. There can be one beneficiary account for each primary and secondary royalties. To distribute revenues amongst several parties, use a Joint Account (see function createJointAccount)."
      },
      "createJointAccount(address[],uint256[])": {
        "notice": "Create an account such that multiple owners have a claim on their respective share. The size of a share is given as a fraction in basis points (1% of 1%). The sum of share fractions must equal 10,000. Anyone can create Joint Accounts including any owners."
      },
      "currencyContract()": {
        "notice": "The address of ERC-20 token's contract"
      },
      "deposit(uint256)": {
        "notice": "Deposit currency from ERC20 into the internal currency. This requires payer to approve deposit."
      },
      "distributeJointAccount(address)": {
        "notice": "Distribute all tokens available to all owners of a Joint Account. The function createJointAccount must be called beforehand. Anyone can trigger the distribution."
      },
      "fractionOfJAOwner(address,address)": {
        "notice": "Return the fraction of an account owned by the given address, in basis points (1% of 1%). If the account does not exist, or if the given address is not an owner of it, this returns 0. If the owner appears more than once in the account, this reports only the first share."
      },
      "getNftId(address,uint32,uint64)": {
        "notice": "Calculate the ID of an NFT type, identifying its issuer, its supply, and an arbitrary nonce."
      },
      "getOffer(address,uint256)": {
        "notice": "Return the price offered by the given seller for the given NFT type."
      },
      "getRoyalties(uint256)": {
        "notice": "Return the current configuration of royalties for NFTs of type nftId, as set by configureRoyalties."
      },
      "getRoyaltiesForBeneficiary(uint256,address)": {
        "notice": "Return the amount of royalties earned by a beneficiary on each primary and secondary transfer of an NFT. This function supports Joint Accounts. If royalties are paid to a JA and beneficiary is an owner of the JA, the shares of the royalties for this owner are returned."
      },
      "initialize(string)": {
        "notice": "Initialize this contract and its dependencies."
      },
      "isApprovedForAll(address,address)": {
        "notice": "Return true for operators with the role TRANSFER_OPERATOR. Otherwise, apply the standard approval logic of ERC1155. See {IERC1155-isApprovedForAll}."
      },
      "issuanceNonces(address)": {
        "notice": "A counter of NFT types issued by each issuer. This is used to generate unique NFT IDs."
      },
      "issue(uint64,bytes)": {
        "notice": "Issue a supply of NFTs of a new type, and return its ID. No more NFT of this type can be issued again. The caller will be recorded as the issuer and it will initially own the entire supply."
      },
      "lockRoyalties(uint256,uint256)": {
        "notice": "Lock the configuration of royalties for this NFT type. Only the issuer may lock the configuration, after which he himself will no longer be able to change the configuration, for some time, or forever. Set lockUntil to a time in the future to lock the configuration until the specified time (in UNIX seconds). Set to 0xFFFFFFFF to lock forever."
      },
      "makeAddressOfJointAccount(address[],uint256[])": {
        "notice": "Generate a unique address identifying a list of owners and shares. It may be used to predict the address of a Joint Account and receive payments even before calling the function createJointAccount."
      },
      "makeOffer(uint256,uint256)": {
        "notice": "Create an offer to sell a type of NFTs for a price per unit. All the NFTs of this type owned by the caller will be for sale. To cancel, call again with a price of 0."
      },
      "setERC20(address)": {
        "notice": "Sets token's contract address. This token is used to deposit and withdraw on chain adapter's contract is deployed."
      },
      "supportsInterface(bytes4)": {
        "notice": "Supports interfaces of AccessControl, ERC1155, and ERC1155 MetadataURI."
      },
      "takeOffer(address,address,uint256,uint256,uint256)": {
        "notice": "Accept an offer, paying the price per unit for an amount of NFTs. The offer must have been created beforehand by makeOffer. The sender pays ERC20. The sender is not necessarily the same as buyer, see FiatGateway. The seller receives internal currency (equivalent to the ERC20 payment, see the function withdraw). The buyer receives the NFT. The parameter expectedPriceOrZero can be used to validate the price that the buyer expects to pay. This prevents a race condition with makeOffer or setExchangeRate. Pass 0 to disable this validation and accept any current price."
      },
      "transferFrom(address,address,uint256,uint256)": {
        "notice": "transferFrom performs a simple transfer, without calling the hooks  (no _beforeTokenTransfer and no onERC1155Received)."
      },
      "withdraw(uint256)": {
        "notice": "Withdraw currency from internal to ERC20"
      }
    },
    "notice": "Main contract, including all components. - Hold and transfer NFTs using ERC1155. - Support atomic exchanges of NFTs for currency. - Issuance of NFTs with fixed supply. - Joint Accounts that distribute their funds over multiple owners. - Capture royalties on primary and secondary transfers, configurable per NFT type.",
    "version": 1
  }
}