{
  "contractName": "Freeport",
  "abi": [
    {
      "anonymous": false,
      "inputs": [
        {
          "indexed": false,
          "internalType": "address",
          "name": "previousAdmin",
          "type": "address"
        },
        {
          "indexed": false,
          "internalType": "address",
          "name": "newAdmin",
          "type": "address"
        }
      ],
      "name": "AdminChanged",
      "type": "event"
    },
    {
      "anonymous": false,
      "inputs": [
        {
          "indexed": true,
          "internalType": "address",
          "name": "account",
          "type": "address"
        },
        {
          "indexed": true,
          "internalType": "address",
          "name": "operator",
          "type": "address"
        },
        {
          "indexed": false,
          "internalType": "bool",
          "name": "approved",
          "type": "bool"
        }
      ],
      "name": "ApprovalForAll",
      "type": "event"
    },
    {
      "anonymous": false,
      "inputs": [
        {
          "indexed": true,
          "internalType": "address",
          "name": "beacon",
          "type": "address"
        }
      ],
      "name": "BeaconUpgraded",
      "type": "event"
    },
    {
      "anonymous": false,
      "inputs": [
        {
          "indexed": true,
          "internalType": "address",
          "name": "account",
          "type": "address"
        },
        {
          "indexed": true,
          "internalType": "address",
          "name": "owner",
          "type": "address"
        },
        {
          "indexed": false,
          "internalType": "uint256",
          "name": "fraction",
          "type": "uint256"
        }
      ],
      "name": "JointAccountShareCreated",
      "type": "event"
    },
    {
      "anonymous": false,
      "inputs": [
        {
          "indexed": true,
          "internalType": "bytes32",
          "name": "role",
          "type": "bytes32"
        },
        {
          "indexed": true,
          "internalType": "bytes32",
          "name": "previousAdminRole",
          "type": "bytes32"
        },
        {
          "indexed": true,
          "internalType": "bytes32",
          "name": "newAdminRole",
          "type": "bytes32"
        }
      ],
      "name": "RoleAdminChanged",
      "type": "event"
    },
    {
      "anonymous": false,
      "inputs": [
        {
          "indexed": true,
          "internalType": "bytes32",
          "name": "role",
          "type": "bytes32"
        },
        {
          "indexed": true,
          "internalType": "address",
          "name": "account",
          "type": "address"
        },
        {
          "indexed": true,
          "internalType": "address",
          "name": "sender",
          "type": "address"
        }
      ],
      "name": "RoleGranted",
      "type": "event"
    },
    {
      "anonymous": false,
      "inputs": [
        {
          "indexed": true,
          "internalType": "bytes32",
          "name": "role",
          "type": "bytes32"
        },
        {
          "indexed": true,
          "internalType": "address",
          "name": "account",
          "type": "address"
        },
        {
          "indexed": true,
          "internalType": "address",
          "name": "sender",
          "type": "address"
        }
      ],
      "name": "RoleRevoked",
      "type": "event"
    },
    {
      "anonymous": false,
      "inputs": [
        {
          "indexed": true,
          "internalType": "uint256",
          "name": "nftId",
          "type": "uint256"
        },
        {
          "indexed": false,
          "internalType": "address",
          "name": "primaryRoyaltyAccount",
          "type": "address"
        },
        {
          "indexed": false,
          "internalType": "uint256",
          "name": "primaryRoyaltyCut",
          "type": "uint256"
        },
        {
          "indexed": false,
          "internalType": "uint256",
          "name": "primaryRoyaltyMinimum",
          "type": "uint256"
        },
        {
          "indexed": false,
          "internalType": "address",
          "name": "secondaryRoyaltyAccount",
          "type": "address"
        },
        {
          "indexed": false,
          "internalType": "uint256",
          "name": "secondaryRoyaltyCut",
          "type": "uint256"
        },
        {
          "indexed": false,
          "internalType": "uint256",
          "name": "secondaryRoyaltyMinimum",
          "type": "uint256"
        }
      ],
      "name": "RoyaltiesConfigured",
      "type": "event"
    },
    {
      "anonymous": false,
      "inputs": [
        {
          "indexed": true,
          "internalType": "uint256",
          "name": "nftId",
          "type": "uint256"
        },
        {
          "indexed": false,
          "internalType": "uint256",
          "name": "lockUntil",
          "type": "uint256"
        }
      ],
      "name": "RoyaltiesLocked",
      "type": "event"
    },
    {
      "anonymous": false,
      "inputs": [
        {
          "indexed": true,
          "internalType": "address",
          "name": "operator",
          "type": "address"
        },
        {
          "indexed": true,
          "internalType": "address",
          "name": "from",
          "type": "address"
        },
        {
          "indexed": true,
          "internalType": "address",
          "name": "to",
          "type": "address"
        },
        {
          "indexed": false,
          "internalType": "uint256[]",
          "name": "ids",
          "type": "uint256[]"
        },
        {
          "indexed": false,
          "internalType": "uint256[]",
          "name": "values",
          "type": "uint256[]"
        }
      ],
      "name": "TransferBatch",
      "type": "event"
    },
    {
      "anonymous": false,
      "inputs": [
        {
          "indexed": true,
          "internalType": "address",
          "name": "operator",
          "type": "address"
        },
        {
          "indexed": true,
          "internalType": "address",
          "name": "from",
          "type": "address"
        },
        {
          "indexed": true,
          "internalType": "address",
          "name": "to",
          "type": "address"
        },
        {
          "indexed": false,
          "internalType": "uint256",
          "name": "id",
          "type": "uint256"
        },
        {
          "indexed": false,
          "internalType": "uint256",
          "name": "value",
          "type": "uint256"
        }
      ],
      "name": "TransferSingle",
      "type": "event"
    },
    {
      "anonymous": false,
      "inputs": [
        {
          "indexed": false,
          "internalType": "string",
          "name": "value",
          "type": "string"
        },
        {
          "indexed": true,
          "internalType": "uint256",
          "name": "id",
          "type": "uint256"
        }
      ],
      "name": "URI",
      "type": "event"
    },
    {
      "anonymous": false,
      "inputs": [
        {
          "indexed": true,
          "internalType": "address",
          "name": "implementation",
          "type": "address"
        }
      ],
      "name": "Upgraded",
      "type": "event"
    },
    {
      "inputs": [],
      "name": "BASIS_POINTS",
      "outputs": [
        {
          "internalType": "uint256",
          "name": "",
          "type": "uint256"
        }
      ],
      "stateMutability": "view",
      "type": "function"
    },
    {
      "inputs": [],
      "name": "BYPASS_SENDER",
      "outputs": [
        {
          "internalType": "bytes32",
          "name": "",
          "type": "bytes32"
        }
      ],
      "stateMutability": "view",
      "type": "function"
    },
    {
      "inputs": [],
      "name": "CURRENCY",
      "outputs": [
        {
          "internalType": "uint256",
          "name": "",
          "type": "uint256"
        }
      ],
      "stateMutability": "view",
      "type": "function"
    },
    {
      "inputs": [],
      "name": "DEFAULT_ADMIN_ROLE",
      "outputs": [
        {
          "internalType": "bytes32",
          "name": "",
          "type": "bytes32"
        }
      ],
      "stateMutability": "view",
      "type": "function"
    },
    {
      "inputs": [],
      "name": "MAX_JOINT_ACCOUNT_SHARES",
      "outputs": [
        {
          "internalType": "uint256",
          "name": "",
          "type": "uint256"
        }
      ],
      "stateMutability": "view",
      "type": "function"
    },
    {
      "inputs": [],
      "name": "META_TX_FORWARDER",
      "outputs": [
        {
          "internalType": "bytes32",
          "name": "",
          "type": "bytes32"
        }
      ],
      "stateMutability": "view",
      "type": "function"
    },
    {
      "inputs": [],
      "name": "TRANSFER_OPERATOR",
      "outputs": [
        {
          "internalType": "bytes32",
          "name": "",
          "type": "bytes32"
        }
      ],
      "stateMutability": "view",
      "type": "function"
    },
    {
      "inputs": [
        {
          "internalType": "address",
          "name": "from",
          "type": "address"
        },
        {
          "internalType": "uint256",
          "name": "nftId",
          "type": "uint256"
        },
        {
          "internalType": "uint256",
          "name": "price",
          "type": "uint256"
        },
        {
          "internalType": "uint256",
          "name": "amount",
          "type": "uint256"
        }
      ],
      "name": "_captureFeeERC20",
      "outputs": [
        {
          "internalType": "uint256",
          "name": "",
          "type": "uint256"
        }
      ],
      "stateMutability": "nonpayable",
      "type": "function"
    },
    {
      "inputs": [
        {
          "internalType": "address",
          "name": "account",
          "type": "address"
        },
        {
          "internalType": "uint256",
          "name": "id",
          "type": "uint256"
        }
      ],
      "name": "balanceOf",
      "outputs": [
        {
          "internalType": "uint256",
          "name": "",
          "type": "uint256"
        }
      ],
      "stateMutability": "view",
      "type": "function"
    },
    {
      "inputs": [
        {
          "internalType": "address[]",
          "name": "accounts",
          "type": "address[]"
        },
        {
          "internalType": "uint256[]",
          "name": "ids",
          "type": "uint256[]"
        }
      ],
      "name": "balanceOfBatch",
      "outputs": [
        {
          "internalType": "uint256[]",
          "name": "",
          "type": "uint256[]"
        }
      ],
      "stateMutability": "view",
      "type": "function"
    },
    {
      "inputs": [
        {
          "internalType": "address",
          "name": "account",
          "type": "address"
        },
        {
          "internalType": "address",
          "name": "owner",
          "type": "address"
        }
      ],
      "name": "balanceOfJAOwner",
      "outputs": [
        {
          "internalType": "uint256",
          "name": "",
          "type": "uint256"
        }
      ],
      "stateMutability": "view",
      "type": "function"
    },
    {
      "inputs": [
        {
          "internalType": "address",
          "name": "from",
          "type": "address"
        },
        {
          "internalType": "uint256",
          "name": "nftId",
          "type": "uint256"
        },
        {
          "internalType": "uint256",
          "name": "price",
          "type": "uint256"
        },
        {
          "internalType": "uint256",
          "name": "amount",
          "type": "uint256"
        }
      ],
      "name": "captureFee",
      "outputs": [
        {
          "internalType": "uint256",
          "name": "",
          "type": "uint256"
        }
      ],
      "stateMutability": "nonpayable",
      "type": "function"
    },
    {
      "inputs": [
        {
          "internalType": "address",
          "name": "from",
          "type": "address"
        },
        {
          "internalType": "uint256",
          "name": "nftId",
          "type": "uint256"
        },
        {
          "internalType": "uint256",
          "name": "price",
          "type": "uint256"
        },
        {
          "internalType": "uint256",
          "name": "amount",
          "type": "uint256"
        }
      ],
      "name": "captureFeeERC20",
      "outputs": [
        {
          "internalType": "uint256",
          "name": "",
          "type": "uint256"
        }
      ],
      "stateMutability": "nonpayable",
      "type": "function"
    },
    {
      "inputs": [
        {
          "internalType": "uint256",
          "name": "nftId",
          "type": "uint256"
        },
        {
          "internalType": "address",
          "name": "primaryRoyaltyAccount",
          "type": "address"
        },
        {
          "internalType": "uint256",
          "name": "primaryRoyaltyCut",
          "type": "uint256"
        },
        {
          "internalType": "uint256",
          "name": "primaryRoyaltyMinimum",
          "type": "uint256"
        },
        {
          "internalType": "address",
          "name": "secondaryRoyaltyAccount",
          "type": "address"
        },
        {
          "internalType": "uint256",
          "name": "secondaryRoyaltyCut",
          "type": "uint256"
        },
        {
          "internalType": "uint256",
          "name": "secondaryRoyaltyMinimum",
          "type": "uint256"
        }
      ],
      "name": "configureRoyalties",
      "outputs": [],
      "stateMutability": "nonpayable",
      "type": "function"
    },
    {
      "inputs": [
        {
          "internalType": "address[]",
          "name": "owners",
          "type": "address[]"
        },
        {
          "internalType": "uint256[]",
          "name": "fractions",
          "type": "uint256[]"
        }
      ],
      "name": "createJointAccount",
      "outputs": [
        {
          "internalType": "address",
          "name": "",
          "type": "address"
        }
      ],
      "stateMutability": "nonpayable",
      "type": "function"
    },
    {
      "inputs": [],
      "name": "currencyContract",
      "outputs": [
        {
          "internalType": "contract IERC20",
          "name": "",
          "type": "address"
        }
      ],
      "stateMutability": "view",
      "type": "function"
    },
    {
      "inputs": [
        {
          "internalType": "uint256",
          "name": "amount",
          "type": "uint256"
        }
      ],
      "name": "deposit",
      "outputs": [],
      "stateMutability": "nonpayable",
      "type": "function"
    },
    {
      "inputs": [
        {
          "internalType": "address",
          "name": "account",
          "type": "address"
        }
      ],
      "name": "distributeJointAccountCereToken",
      "outputs": [],
      "stateMutability": "nonpayable",
      "type": "function"
    },
    {
      "inputs": [
        {
          "internalType": "address",
          "name": "account",
          "type": "address"
        }
      ],
      "name": "distributeJointAccountERC20",
      "outputs": [],
      "stateMutability": "nonpayable",
      "type": "function"
    },
    {
      "inputs": [
        {
          "internalType": "address",
          "name": "account",
          "type": "address"
        },
        {
          "internalType": "address",
          "name": "maybeOwner",
          "type": "address"
        }
      ],
      "name": "fractionOfJAOwner",
      "outputs": [
        {
          "internalType": "uint256",
          "name": "",
          "type": "uint256"
        }
      ],
      "stateMutability": "view",
      "type": "function"
    },
    {
      "inputs": [
        {
          "internalType": "address",
          "name": "issuer",
          "type": "address"
        },
        {
          "internalType": "uint32",
          "name": "nonce",
          "type": "uint32"
        },
        {
          "internalType": "uint64",
          "name": "supply",
          "type": "uint64"
        }
      ],
      "name": "getNftId",
      "outputs": [
        {
          "internalType": "uint256",
          "name": "",
          "type": "uint256"
        }
      ],
      "stateMutability": "pure",
      "type": "function"
    },
    {
      "inputs": [
        {
          "internalType": "bytes32",
          "name": "role",
          "type": "bytes32"
        }
      ],
      "name": "getRoleAdmin",
      "outputs": [
        {
          "internalType": "bytes32",
          "name": "",
          "type": "bytes32"
        }
      ],
      "stateMutability": "view",
      "type": "function"
    },
    {
      "inputs": [
        {
          "internalType": "uint256",
          "name": "nftId",
          "type": "uint256"
        }
      ],
      "name": "getRoyalties",
      "outputs": [
        {
          "internalType": "address",
          "name": "primaryRoyaltyAccount",
          "type": "address"
        },
        {
          "internalType": "uint256",
          "name": "primaryRoyaltyCut",
          "type": "uint256"
        },
        {
          "internalType": "uint256",
          "name": "primaryRoyaltyMinimum",
          "type": "uint256"
        },
        {
          "internalType": "address",
          "name": "secondaryRoyaltyAccount",
          "type": "address"
        },
        {
          "internalType": "uint256",
          "name": "secondaryRoyaltyCut",
          "type": "uint256"
        },
        {
          "internalType": "uint256",
          "name": "secondaryRoyaltyMinimum",
          "type": "uint256"
        }
      ],
      "stateMutability": "view",
      "type": "function"
    },
    {
      "inputs": [
        {
          "internalType": "uint256",
          "name": "nftId",
          "type": "uint256"
        },
        {
          "internalType": "address",
          "name": "beneficiary",
          "type": "address"
        }
      ],
      "name": "getRoyaltiesForBeneficiary",
      "outputs": [
        {
          "internalType": "uint256",
          "name": "primaryCut",
          "type": "uint256"
        },
        {
          "internalType": "uint256",
          "name": "primaryMinimum",
          "type": "uint256"
        },
        {
          "internalType": "uint256",
          "name": "secondaryCut",
          "type": "uint256"
        },
        {
          "internalType": "uint256",
          "name": "secondaryMinimum",
          "type": "uint256"
        }
      ],
      "stateMutability": "view",
      "type": "function"
    },
    {
      "inputs": [
        {
          "internalType": "bytes32",
          "name": "role",
          "type": "bytes32"
        },
        {
          "internalType": "address",
          "name": "account",
          "type": "address"
        }
      ],
      "name": "grantRole",
      "outputs": [],
      "stateMutability": "nonpayable",
      "type": "function"
    },
    {
      "inputs": [
        {
          "internalType": "bytes32",
          "name": "role",
          "type": "bytes32"
        },
        {
          "internalType": "address",
          "name": "account",
          "type": "address"
        }
      ],
      "name": "hasRole",
      "outputs": [
        {
          "internalType": "bool",
          "name": "",
          "type": "bool"
        }
      ],
      "stateMutability": "view",
      "type": "function"
    },
    {
      "inputs": [
        {
          "internalType": "address",
          "name": "account",
          "type": "address"
        },
        {
          "internalType": "address",
          "name": "operator",
          "type": "address"
        }
      ],
      "name": "isApprovedForAll",
      "outputs": [
        {
          "internalType": "bool",
          "name": "",
          "type": "bool"
        }
      ],
      "stateMutability": "view",
      "type": "function"
    },
    {
      "inputs": [
        {
          "internalType": "address",
          "name": "forwarder",
          "type": "address"
        }
      ],
      "name": "isTrustedForwarder",
      "outputs": [
        {
          "internalType": "bool",
          "name": "",
          "type": "bool"
        }
      ],
      "stateMutability": "view",
      "type": "function"
    },
    {
      "inputs": [
        {
          "internalType": "address",
          "name": "",
          "type": "address"
        }
      ],
      "name": "issuanceNonces",
      "outputs": [
        {
          "internalType": "uint32",
          "name": "",
          "type": "uint32"
        }
      ],
      "stateMutability": "view",
      "type": "function"
    },
    {
      "inputs": [
        {
          "internalType": "uint64",
          "name": "supply",
          "type": "uint64"
        },
        {
          "internalType": "bytes",
          "name": "data",
          "type": "bytes"
        }
      ],
      "name": "issue",
      "outputs": [
        {
          "internalType": "uint256",
          "name": "",
          "type": "uint256"
        }
      ],
      "stateMutability": "nonpayable",
      "type": "function"
    },
    {
      "inputs": [
        {
          "internalType": "address",
          "name": "",
          "type": "address"
        },
        {
          "internalType": "uint256",
          "name": "",
          "type": "uint256"
        }
      ],
      "name": "jointAccounts",
      "outputs": [
        {
          "internalType": "address",
          "name": "owner",
          "type": "address"
        },
        {
          "internalType": "uint256",
          "name": "fraction",
          "type": "uint256"
        }
      ],
      "stateMutability": "view",
      "type": "function"
    },
    {
      "inputs": [
        {
          "internalType": "uint256",
          "name": "nftId",
          "type": "uint256"
        },
        {
          "internalType": "uint256",
          "name": "lockUntil",
          "type": "uint256"
        }
      ],
      "name": "lockRoyalties",
      "outputs": [],
      "stateMutability": "nonpayable",
      "type": "function"
    },
    {
      "inputs": [
        {
          "internalType": "address[]",
          "name": "owners",
          "type": "address[]"
        },
        {
          "internalType": "uint256[]",
          "name": "fractions",
          "type": "uint256[]"
        }
      ],
      "name": "makeAddressOfJointAccount",
      "outputs": [
        {
          "internalType": "address",
          "name": "",
          "type": "address"
        }
      ],
      "stateMutability": "pure",
      "type": "function"
    },
    {
      "inputs": [
        {
          "internalType": "bytes32",
          "name": "role",
          "type": "bytes32"
        },
        {
          "internalType": "address",
          "name": "account",
          "type": "address"
        }
      ],
      "name": "renounceRole",
      "outputs": [],
      "stateMutability": "nonpayable",
      "type": "function"
    },
    {
      "inputs": [
        {
          "internalType": "bytes32",
          "name": "role",
          "type": "bytes32"
        },
        {
          "internalType": "address",
          "name": "account",
          "type": "address"
        }
      ],
      "name": "revokeRole",
      "outputs": [],
      "stateMutability": "nonpayable",
      "type": "function"
    },
    {
      "inputs": [
        {
          "internalType": "address",
          "name": "from",
          "type": "address"
        },
        {
          "internalType": "address",
          "name": "to",
          "type": "address"
        },
        {
          "internalType": "uint256[]",
          "name": "ids",
          "type": "uint256[]"
        },
        {
          "internalType": "uint256[]",
          "name": "amounts",
          "type": "uint256[]"
        },
        {
          "internalType": "bytes",
          "name": "data",
          "type": "bytes"
        }
      ],
      "name": "safeBatchTransferFrom",
      "outputs": [],
      "stateMutability": "nonpayable",
      "type": "function"
    },
    {
      "inputs": [
        {
          "internalType": "address",
          "name": "from",
          "type": "address"
        },
        {
          "internalType": "address",
          "name": "to",
          "type": "address"
        },
        {
          "internalType": "uint256",
          "name": "id",
          "type": "uint256"
        },
        {
          "internalType": "uint256",
          "name": "amount",
          "type": "uint256"
        },
        {
          "internalType": "bytes",
          "name": "data",
          "type": "bytes"
        }
      ],
      "name": "safeTransferFrom",
      "outputs": [],
      "stateMutability": "nonpayable",
      "type": "function"
    },
    {
      "inputs": [
        {
          "internalType": "address",
          "name": "operator",
          "type": "address"
        },
        {
          "internalType": "bool",
          "name": "approved",
          "type": "bool"
        }
      ],
      "name": "setApprovalForAll",
      "outputs": [],
      "stateMutability": "nonpayable",
      "type": "function"
    },
    {
      "inputs": [
        {
          "internalType": "address",
          "name": "_currencyContract",
          "type": "address"
        }
      ],
      "name": "setERC20",
      "outputs": [],
      "stateMutability": "nonpayable",
      "type": "function"
    },
    {
      "inputs": [
        {
          "internalType": "string",
          "name": "newuri",
          "type": "string"
        }
      ],
      "name": "setURI",
      "outputs": [],
      "stateMutability": "nonpayable",
      "type": "function"
    },
    {
      "inputs": [
        {
          "internalType": "bytes4",
          "name": "interfaceId",
          "type": "bytes4"
        }
      ],
      "name": "supportsInterface",
      "outputs": [
        {
          "internalType": "bool",
          "name": "",
          "type": "bool"
        }
      ],
      "stateMutability": "view",
      "type": "function"
    },
    {
      "inputs": [
        {
          "internalType": "address",
          "name": "from",
          "type": "address"
        },
        {
          "internalType": "address",
          "name": "to",
          "type": "address"
        },
        {
          "internalType": "uint256",
          "name": "id",
          "type": "uint256"
        },
        {
          "internalType": "uint256",
          "name": "amount",
          "type": "uint256"
        }
      ],
      "name": "transferFrom",
      "outputs": [],
      "stateMutability": "nonpayable",
      "type": "function"
    },
    {
      "inputs": [
        {
          "internalType": "address",
          "name": "newImplementation",
          "type": "address"
        }
      ],
      "name": "upgradeTo",
      "outputs": [],
      "stateMutability": "nonpayable",
      "type": "function"
    },
    {
      "inputs": [
        {
          "internalType": "address",
          "name": "newImplementation",
          "type": "address"
        },
        {
          "internalType": "bytes",
          "name": "data",
          "type": "bytes"
        }
      ],
      "name": "upgradeToAndCall",
      "outputs": [],
      "stateMutability": "payable",
      "type": "function"
    },
    {
      "inputs": [
        {
          "internalType": "uint256",
          "name": "",
          "type": "uint256"
        }
      ],
      "name": "uri",
      "outputs": [
        {
          "internalType": "string",
          "name": "",
          "type": "string"
        }
      ],
      "stateMutability": "view",
      "type": "function"
    },
    {
      "inputs": [
        {
          "internalType": "uint256",
          "name": "amount",
          "type": "uint256"
        }
      ],
      "name": "withdraw",
      "outputs": [],
      "stateMutability": "nonpayable",
      "type": "function"
    },
    {
      "inputs": [],
      "name": "initialize",
      "outputs": [],
      "stateMutability": "nonpayable",
      "type": "function"
    }
  ],
  "bytecode": "0x608060405234801561001057600080fd5b50614577806100206000396000f3fe6080604052600436106102175760003560e01c8062fdd58e1461021c57806301ffc9a71461024f57806302fe53051461027f5780630e89341c146102a157806323ed518b146102ce578063248a9ca3146102ee5780632c8f284c1461030e5780632e1a7d4d1461032e5780632eb2c2d61461034e5780632f2ff15d1461036e57806330b064211461038e57806336568abe146103a35780633659cfe6146103c357806339b276f4146103e35780633c6b570914610403578063448588e3146104235780634559a29b146104455780634e1273f4146104735780634f1ef286146104a05780635611cac2146104b3578063572b6c05146104e057806358556fb0146105005780635c5d67881461052057806360e3ecd0146105405780638129fc1c146105625780638c226d191461057757806391d14854146105975780639a86e8ce146105b75780639e00bb96146105d9578063a217fddf146105f9578063a22cb4651461060e578063acc08fa51461062e578063ad09608a14610677578063b6b55f2514610697578063b95812f4146106b7578063ba7f4dfe146106d8578063bb3bafd6146106f8578063c29a6fda1461077e578063d547741f1461079e578063d80d1b0014610520578063e1f1c4a7146107be578063e24b0a2b146107d4578063e985e9c514610814578063f242432a14610834578063f410ca7114610854578063f5361219146105f9578063fe99049a14610874575b600080fd5b34801561022857600080fd5b5061023c610237366004613a34565b610894565b6040519081526020015b60405180910390f35b34801561025b57600080fd5b5061026f61026a366004613bf7565b610930565b6040519015158152602001610246565b34801561028b57600080fd5b5061029f61029a366004613c2f565b61094a565b005b3480156102ad57600080fd5b506102c16102bc366004613bbd565b61099c565b6040516102469190613fde565b3480156102da57600080fd5b5061023c6102e9366004613a5d565b610a30565b3480156102fa57600080fd5b5061023c610309366004613bbd565b610bbf565b34801561031a57600080fd5b5061023c610329366004613839565b610bd4565b34801561033a57600080fd5b5061029f610349366004613bbd565b610c6e565b34801561035a57600080fd5b5061029f61036936600461386b565b610d10565b34801561037a57600080fd5b5061029f610389366004613bd5565b611005565b34801561039a57600080fd5b5061023c600a81565b3480156103af57600080fd5b5061029f6103be366004613bd5565b611029565b3480156103cf57600080fd5b5061029f6103de36600461381f565b6110b7565b3480156103ef57600080fd5b5061029f6103fe366004613cee565b6110db565b34801561040f57600080fd5b5061023c61041e366004613a95565b6111c6565b34801561042f57600080fd5b5061023c6000805160206144ef83398151915281565b34801561045157600080fd5b50610465610460366004613a34565b6111f7565b604051610246929190613f53565b34801561047f57600080fd5b5061049361048e366004613ae1565b61123e565b6040516102469190613fa6565b61029f6104ae3660046139e9565b61139f565b3480156104bf57600080fd5b506104d36104ce366004613ae1565b6113b4565b6040516102469190613e83565b3480156104ec57600080fd5b5061026f6104fb36600461381f565b6113ed565b34801561050c57600080fd5b5061023c61051b366004613d0f565b611407565b34801561052c57600080fd5b5061023c61053b366004613a5d565b61141b565b34801561054c57600080fd5b5061023c6000805160206144af83398151915281565b34801561056e57600080fd5b5061029f611520565b34801561058357600080fd5b5061029f61059236600461381f565b611593565b3480156105a357600080fd5b5061026f6105b2366004613bd5565b61164e565b3480156105c357600080fd5b5061023c60008051602061448f83398151915281565b3480156105e557600080fd5b5061023c6105f4366004613839565b611679565b34801561060557600080fd5b5061023c600081565b34801561061a57600080fd5b5061029f6106293660046139b3565b6116ba565b34801561063a57600080fd5b5061066261064936600461381f565b61012e6020526000908152604090205463ffffffff1681565b60405163ffffffff9091168152602001610246565b34801561068357600080fd5b5061029f610692366004613c8c565b6117ce565b3480156106a357600080fd5b5061029f6106b2366004613bbd565b6119f9565b3480156106c357600080fd5b5061012d546104d3906001600160a01b031681565b3480156106e457600080fd5b506104d36106f3366004613ae1565b611aa8565b34801561070457600080fd5b5061076c610713366004613bbd565b6000908152610130602090815260408083205461013183528184205461013284528285205461013385528386205461013486528487205461013590965293909520546001600160a01b0392831696919594929093169290565b60405161024696959493929190613f6c565b34801561078a57600080fd5b5061029f61079936600461381f565b611dc4565b3480156107aa57600080fd5b5061029f6107b9366004613bd5565b611e14565b3480156107ca57600080fd5b5061023c61271081565b3480156107e057600080fd5b506107f46107ef366004613bd5565b611e33565b604080519485526020850193909352918301526060820152608001610246565b34801561082057600080fd5b5061026f61082f366004613839565b611f3f565b34801561084057600080fd5b5061029f61084f366004613951565b611f94565b34801561086057600080fd5b5061029f61086f36600461381f565b61211c565b34801561088057600080fd5b5061029f61088f366004613910565b6122b5565b60006001600160a01b0383166109055760405162461bcd60e51b815260206004820152602b60248201527f455243313135353a2062616c616e636520717565727920666f7220746865207a60448201526a65726f206164647265737360a81b60648201526084015b60405180910390fd5b50600081815260c9602090815260408083206001600160a01b03861684529091529020545b92915050565b600061093b82612331565b8061092a575061092a82612381565b61095760006105b26123a6565b6109905760405162461bcd60e51b815260206004820152600a60248201526937b7363c9030b236b4b760b11b60448201526064016108fc565b610999816123b5565b50565b606060cb80546109ab906142b5565b80601f01602080910402602001604051908101604052809291908181526020018280546109d7906142b5565b8015610a245780601f106109f957610100808354040283529160200191610a24565b820191906000526020600020905b815481529060010190602001808311610a0757829003601f168201915b50505050509050919050565b600083610a3f57506000610bb7565b610a576000805160206144ef8339815191523361164e565b15610a6457506000610bb7565b600080600080610a7489896123c8565b90508015610ab6576000888152610131602090815260408083205461013283528184205461013090935292205491955093506001600160a01b03169150610aec565b6000888152610134602090815260408083205461013583528184205461013390935292205491955093506001600160a01b031691505b6000612710610afb868a61423c565b610b05919061421c565b905083811015610b125750825b6000610b1e888361423c565b90508015610baf5761012d546040516323b872dd60e01b81526001600160a01b03909116906323b872dd90610b5b908e9088908690600401613ef5565b602060405180830381600087803b158015610b7557600080fd5b505af1158015610b89573d6000803e3d6000fd5b505050506040513d601f19601f82011682018060405250810190610bad9190613ba1565b505b955050505050505b949350505050565b600090815260fb602052604090206001015490565b6001600160a01b038216600090815261012f60205260408120815b8154811015610c63576000828281548110610c1a57634e487b7160e01b600052603260045260246000fd5b6000918252602090912060029091020180549091506001600160a01b0386811691161415610c505760010154925061092a915050565b5080610c5b8161431c565b915050610bef565b506000949350505050565b6000610c786123a6565b9050610c86816000846123db565b61012d5460405163a9059cbb60e01b81526001600160a01b039091169063a9059cbb90610cb99084908690600401613f53565b602060405180830381600087803b158015610cd357600080fd5b505af1158015610ce7573d6000803e3d6000fd5b505050506040513d601f19601f82011682018060405250810190610d0b9190613ba1565b505050565b8151835114610d725760405162461bcd60e51b815260206004820152602860248201527f455243313135353a2069647320616e6420616d6f756e7473206c656e677468206044820152670dad2e6dac2e8c6d60c31b60648201526084016108fc565b6001600160a01b038416610d985760405162461bcd60e51b81526004016108fc90614082565b610da06123a6565b6001600160a01b0316856001600160a01b03161480610dc65750610dc68561082f6123a6565b610e2d5760405162461bcd60e51b815260206004820152603260248201527f455243313135353a207472616e736665722063616c6c6572206973206e6f74206044820152711bdddb995c881b9bdc88185c1c1c9bdd995960721b60648201526084016108fc565b6000610e376123a6565b9050610e4781878787878761255e565b60005b8451811015610f97576000858281518110610e7557634e487b7160e01b600052603260045260246000fd5b602002602001015190506000858381518110610ea157634e487b7160e01b600052603260045260246000fd5b602090810291909101810151600084815260c9835260408082206001600160a01b038e168352909352919091205490915081811015610ef25760405162461bcd60e51b81526004016108fc90614161565b610efc828261425b565b60c9600085815260200190815260200160002060008c6001600160a01b03166001600160a01b03168152602001908152602001600020819055508160c9600085815260200190815260200160002060008b6001600160a01b03166001600160a01b031681526020019081526020016000206000828254610f7c91906141dc565b9250508190555050505080610f909061431c565b9050610e4a565b50846001600160a01b0316866001600160a01b0316826001600160a01b03167f4a39dc06d4c0dbc64b70af90fd698a233a518aa5d07e595d983b8c0526c8f7fb8787604051610fe7929190613fb9565b60405180910390a4610ffd8187878787876125d6565b505050505050565b61100e82610bbf565b61101f8161101a6123a6565b612741565b610d0b83836127a5565b6110316123a6565b6001600160a01b0316816001600160a01b0316146110a95760405162461bcd60e51b815260206004820152602f60248201527f416363657373436f6e74726f6c3a2063616e206f6e6c792072656e6f756e636560448201526e103937b632b9903337b91039b2b63360891b60648201526084016108fc565b6110b3828261282c565b5050565b6110c0816128b1565b610999816040518060200160405280600081525060006128f5565b60006110e56123a6565b90506110f181846123c8565b6110fa57600080fd5b6000838152610136602052604090205482116111735760405162461bcd60e51b815260206004820152603260248201527f526f79616c7469657320636f6e66696775726174696f6e2063616e6e6f74206260448201527132903ab73637b1b5b2b21032b0b93634b2b960711b60648201526084016108fc565b60008381526101366020526040908190208390555183907f7bdd35d2167385bdbed0892e34b48298770ffce27fe71928c767071865f51544906111b99085815260200190565b60405180910390a2505050565b6001600160601b0319606084901b1663ffffffff60401b604084901b16176001600160401b038216175b9392505050565b61012f602052816000526040600020818154811061121457600080fd5b6000918252602090912060029091020180546001909101546001600160a01b039091169250905082565b606081518351146112a35760405162461bcd60e51b815260206004820152602960248201527f455243313135353a206163636f756e747320616e6420696473206c656e677468604482015268040dad2e6dac2e8c6d60bb1b60648201526084016108fc565b600083516001600160401b038111156112cc57634e487b7160e01b600052604160045260246000fd5b6040519080825280602002602001820160405280156112f5578160200160208202803683370190505b50905060005b84518110156113975761135c85828151811061132757634e487b7160e01b600052603260045260246000fd5b602002602001015185838151811061134f57634e487b7160e01b600052603260045260246000fd5b6020026020010151610894565b82828151811061137c57634e487b7160e01b600052603260045260246000fd5b60209081029190910101526113908161431c565b90506112fb565b509392505050565b6113a8826128b1565b6110b3828260016128f5565b60008083836040516020016113ca929190613d90565b60408051808303601f19018152919052805160209091012060601c949350505050565b600061092a60008051602061448f8339815191528361164e565b60006111f06114146123a6565b8484612a71565b6000806114266123a6565b90506114328682611f3f565b61149b5760405162461bcd60e51b815260206004820152603460248201527f546865206f70657261746f72206d75737420626520617070726f766564206f726044820152731030902a2920a729a322a92fa7a822a920aa27a960611b60648201526084016108fc565b60006114a7848661423c565b905060006114b788888888612b0f565b9050818111156115155760405162461bcd60e51b8152602060048201526024808201527f43616e6e6f742074616b65206d6f72652066656573207468616e2074686520706044820152637269636560e01b60648201526084016108fc565b979650505050505050565b600054610100900460ff1680611539575060005460ff16155b6115555760405162461bcd60e51b81526004016108fc90614113565b600054610100900460ff16158015611577576000805461ffff19166101011790555b61157f612c10565b8015610999576000805461ff001916905550565b60006115a0826000610894565b6001600160a01b038316600090815261012f602052604081209192505b81548110156116485760008282815481106115e857634e487b7160e01b600052603260045260246000fd5b90600052602060002090600202019050600061271082600101548661160d919061423c565b611617919061421c565b82549091506116339087906001600160a01b0316600084612c1a565b505080806116409061431c565b9150506115bd565b50505050565b600091825260fb602090815260408084206001600160a01b0393909316845291905290205460ff1690565b6000806116868484610bd4565b90506000611695856000610894565b905060006127106116a6848461423c565b6116b0919061421c565b9695505050505050565b816001600160a01b03166116cc6123a6565b6001600160a01b031614156117355760405162461bcd60e51b815260206004820152602960248201527f455243313135353a2073657474696e6720617070726f76616c20737461747573604482015268103337b91039b2b63360b91b60648201526084016108fc565b8060ca60006117426123a6565b6001600160a01b03908116825260208083019390935260409182016000908120918716808252919093529120805460ff1916921515929092179091556117866123a6565b6001600160a01b03167f17307eab39ab6107e8899845ad3d59bd9653f200f220920489ca2b5937696c31836040516117c2911515815260200190565b60405180910390a35050565b60006117d86123a6565b90506117e481896123c8565b6118465760405162461bcd60e51b815260206004820152602d60248201527f4f6e6c792074686520697373756572206f662074686973204e46542063616e2060448201526c73657420726f79616c7469657360981b60648201526084016108fc565b600088815261013660205260409020544210156118b75760405162461bcd60e51b815260206004820152602960248201527f526f79616c7469657320636f6e66696775726174696f6e206973206c6f636b656044820152686420666f72206e6f7760b81b60648201526084016108fc565b6001600160a01b0387161515806118d55750851580156118d5575084155b6118f15760405162461bcd60e51b81526004016108fc906140c7565b60008881526101306020908152604080832080546001600160a01b0319166001600160a01b038c81169190911790915561013183528184208a9055610132909252909120869055841615158061194e57508215801561194e575081155b61196a5760405162461bcd60e51b81526004016108fc906140c7565b60008881526101336020908152604080832080546001600160a01b0319166001600160a01b0389161790556101348252808320869055610135909152908190208390555188907f3df2272e42784a2455bbbdcdf25ae0f67d41f801896514cc4cd255aa8ee75e4c906119e7908a908a908a908a908a908a90613f6c565b60405180910390a25050505050505050565b6000611a036123a6565b61012d546040516323b872dd60e01b81529192506001600160a01b0316906323b872dd90611a3990849030908790600401613ef5565b602060405180830381600087803b158015611a5357600080fd5b505af1158015611a67573d6000803e3d6000fd5b505050506040513d601f19601f82011682018060405250810190611a8b9190613ba1565b506110b38160008460405180602001604052806000815250612d04565b60008151835114611b1c5760405162461bcd60e51b815260206004820152603860248201527f417272617973206f66206f776e65727320616e64206672616374696f6e73206d6044820152770eae6e840d0c2ecca40e8d0ca40e6c2daca40d8cadccee8d60431b60648201526084016108fc565b600a83511115611b605760405162461bcd60e51b815260206004820152600f60248201526e546f6f206d616e792073686172657360881b60448201526064016108fc565b6000611b6c84846113b4565b6001600160a01b038116600090815261012f6020526040902080549192509015611bd55760405162461bcd60e51b815260206004820152601a602482015279546865206163636f756e7420616c72656164792065786973747360301b60448201526064016108fc565b6000805b8651811015611d68576000878281518110611c0457634e487b7160e01b600052603260045260246000fd5b602002602001015190506000878381518110611c3057634e487b7160e01b600052603260045260246000fd5b6020026020010151905060006001600160a01b0316826001600160a01b031614158015611c5c57508015155b611ca55760405162461bcd60e51b815260206004820152601a6024820152790c081d985b1d595cc8185c99481b9bdd081c195c9b5a5d1d195960321b60448201526064016108fc565b604080518082019091526001600160a01b0383811682526020808301848152885460018082018b5560008b8152939093209451600290910290940180546001600160a01b031916949093169390931782559151910155611d0581856141dc565b9350816001600160a01b0316866001600160a01b03167e6fb9851f1fd2fbc9fa36680d17e1254999a38e5f3c76c3a1ecc126a464601b83604051611d4b91815260200190565b60405180910390a350508080611d609061431c565b915050611bd9565b506127108114611dba5760405162461bcd60e51b815260206004820152601e60248201527f546f74616c206672616374696f6e73206d7573742062652031302c303030000060448201526064016108fc565b5090949350505050565b61012d546001600160a01b031615611ddb57600080fd5b611de860006105b26123a6565b611df157600080fd5b61012d80546001600160a01b0319166001600160a01b0392909216919091179055565b611e1d82610bbf565b611e298161101a6123a6565b610d0b838361282c565b600082815261013160209081526040808320546101328352818420546101309093529083205490929081906001600160a01b039081169086168114611eb4576000611e7e8288610bd4565b9050612710611e8d828861423c565b611e97919061421c565b9550612710611ea6828761423c565b611eb0919061421c565b9450505b6000878152610134602090815260408083205461013583528184205461013390935292205491945092506001600160a01b039081169087168114611f34576000611efe8289610bd4565b9050612710611f0d828761423c565b611f17919061421c565b9450612710611f26828661423c565b611f30919061421c565b9350505b505092959194509250565b6000611f596000805160206144af8339815191528361164e565b15611f665750600161092a565b6001600160a01b03808416600090815260ca602090815260408083209386168352929052205460ff166111f0565b6001600160a01b038416611fba5760405162461bcd60e51b81526004016108fc90614082565b611fc26123a6565b6001600160a01b0316856001600160a01b03161480611fe85750611fe88561082f6123a6565b6120045760405162461bcd60e51b81526004016108fc90614039565b600061200e6123a6565b905061202e81878761201f88612e0e565b61202888612e0e565b8761255e565b600084815260c9602090815260408083206001600160a01b038a168452909152902054838110156120715760405162461bcd60e51b81526004016108fc90614161565b61207b848261425b565b600086815260c9602090815260408083206001600160a01b038c811685529252808320939093558816815290812080548692906120b99084906141dc565b92505081905550856001600160a01b0316876001600160a01b0316836001600160a01b031660008051602061442883398151915288886040516120fd9291906141ab565b60405180910390a4612113828888888888612e67565b50505050505050565b61012d546040516370a0823160e01b81526000916001600160a01b0316906370a082319061214e908590600401613e83565b60206040518083038186803b15801561216657600080fd5b505afa15801561217a573d6000803e3d6000fd5b505050506040513d601f19601f8201168201806040525081019061219e9190613c74565b6001600160a01b038316600090815261012f602052604081209192505b81548110156116485760008282815481106121e657634e487b7160e01b600052603260045260246000fd5b90600052602060002090600202019050600061271082600101548661220b919061423c565b612215919061421c565b61012d54835460405163a9059cbb60e01b81529293506001600160a01b039182169263a9059cbb9261224d9216908590600401613f53565b602060405180830381600087803b15801561226757600080fd5b505af115801561227b573d6000803e3d6000fd5b505050506040513d601f19601f8201168201806040525081019061229f9190613ba1565b50505080806122ad9061431c565b9150506121bb565b6001600160a01b0383166122db5760405162461bcd60e51b81526004016108fc90614082565b6122e36123a6565b6001600160a01b0316846001600160a01b0316148061230957506123098461082f6123a6565b6123255760405162461bcd60e51b81526004016108fc90614039565b61164884848484612c1a565b60006001600160e01b03198216636cdb3d1360e11b148061236257506001600160e01b031982166303a24d0760e21b145b8061092a57506301ffc9a760e01b6001600160e01b031983161461092a565b60006001600160e01b03198216637965db0b60e01b148061092a575061092a82612331565b60006123b0612f31565b905090565b80516110b39060cb906020840190613663565b60601c6001600160a01b03919091161490565b6001600160a01b03831661243d5760405162461bcd60e51b815260206004820152602360248201527f455243313135353a206275726e2066726f6d20746865207a65726f206164647260448201526265737360e81b60648201526084016108fc565b60006124476123a6565b90506124778185600061245987612e0e565b61246287612e0e565b6040518060200160405280600081525061255e565b600083815260c9602090815260408083206001600160a01b0388168452909152902054828110156124f65760405162461bcd60e51b8152602060048201526024808201527f455243313135353a206275726e20616d6f756e7420657863656564732062616c604482015263616e636560e01b60648201526084016108fc565b612500838261425b565b600085815260c9602090815260408083206001600160a01b03808b16808652919093528184209490945551919291908516906000805160206144288339815191529061254f90899089906141ab565b60405180910390a45050505050565b60005b8351811015612113576125c58685838151811061258e57634e487b7160e01b600052603260045260246000fd5b602002602001015160008685815181106125b857634e487b7160e01b600052603260045260246000fd5b6020026020010151612b0f565b506125cf8161431c565b9050612561565b6001600160a01b0384163b15610ffd5760405163bc197c8160e01b81526001600160a01b0385169063bc197c819061261a9089908990889088908890600401613e97565b602060405180830381600087803b15801561263457600080fd5b505af1925050508015612664575060408051601f3d908101601f1916820190925261266191810190613c13565b60015b61271157612670614363565b806308c379a014156126aa575061268561437a565b8061269057506126ac565b8060405162461bcd60e51b81526004016108fc9190613fde565b505b60405162461bcd60e51b815260206004820152603460248201527f455243313135353a207472616e7366657220746f206e6f6e20455243313135356044820152732932b1b2b4bb32b91034b6b83632b6b2b73a32b960611b60648201526084016108fc565b6001600160e01b0319811663bc197c8160e01b146121135760405162461bcd60e51b81526004016108fc90613ff1565b61274b828261164e565b6110b357612763816001600160a01b03166014612f56565b61276e836020612f56565b60405160200161277f929190613e14565b60408051601f198184030181529082905262461bcd60e51b82526108fc91600401613fde565b6127af828261164e565b6110b357600082815260fb602090815260408083206001600160a01b03851684529091529020805460ff191660011790556127e86123a6565b6001600160a01b0316816001600160a01b0316837f2f8788117e7eff1d82e926ec794901d17c78024a50270940304540a733656f0d60405160405180910390a45050565b612836828261164e565b156110b357600082815260fb602090815260408083206001600160a01b03851684529091529020805460ff1916905561286d6123a6565b6001600160a01b0316816001600160a01b0316837ff6391f5c32d9c69d2a47ea670b442974b53935d1edc7fd64eb21e047a839171b60405160405180910390a45050565b6128bc60003361164e565b6109995760405162461bcd60e51b815260206004820152600a60248201526927b7363c9020b236b4b760b11b60448201526064016108fc565b60006128ff613137565b905061290a84613153565b6000835111806129175750815b156129285761292684846131e6565b505b7f4910fdfa16fed3260ed0e7147f7cc6da11a60208b5b9406d12a635614ffd9143805460ff16612a6a57805460ff191660011781556040516129a3908690612974908590602401613e83565b60408051601f198184030181529190526020810180516001600160e01b0316631b2ce7f360e11b1790526131e6565b50805460ff191681556129b4613137565b6001600160a01b0316826001600160a01b031614612a2c5760405162461bcd60e51b815260206004820152602f60248201527f45524331393637557067726164653a207570677261646520627265616b73206660448201526e75727468657220757067726164657360881b60648201526084016108fc565b612a3585613153565b6040516001600160a01b038616907fbc7cd75a20ee27fd9adebab32041f755214dbc6bffa90cc0225b39da2e5c2d3b90600090a25b5050505050565b6001600160a01b038316600090815261012e602052604081205463ffffffff16612a9c8160016141f4565b6001600160a01b038616600090815261012e60205260408120805463ffffffff191663ffffffff9390931692909217909155612ad98683876111c6565b90506000856001600160401b031611612af157600080fd5b612b068682876001600160401b031687612d04565b95945050505050565b600083612b1e57506000610bb7565b612b366000805160206144ef8339815191523361164e565b15612b4357506000610bb7565b600080600080612b5389896123c8565b90508015612b95576000888152610131602090815260408083205461013283528184205461013090935292205491955093506001600160a01b03169150612bcb565b6000888152610134602090815260408083205461013583528184205461013390935292205491955093506001600160a01b031691505b6000612710612bda868a61423c565b612be4919061421c565b905083811015612bf15750825b6000612bfd888361423c565b90508015610baf57610baf8b85836132c8565b612c186133ab565b565b600082815260c9602090815260408083206001600160a01b038816845290915290205481811015612c5d5760405162461bcd60e51b81526004016108fc90614161565b612c67828261425b565b600084815260c9602090815260408083206001600160a01b038a81168552925280832093909355861681529081208054849290612ca59084906141dc565b9091555060009050612cb56123a6565b9050846001600160a01b0316866001600160a01b0316826001600160a01b03166000805160206144288339815191528787604051612cf49291906141ab565b60405180910390a4505050505050565b6001600160a01b038416612d645760405162461bcd60e51b815260206004820152602160248201527f455243313135353a206d696e7420746f20746865207a65726f206164647265736044820152607360f81b60648201526084016108fc565b6000612d6e6123a6565b9050612d808160008761201f88612e0e565b600084815260c9602090815260408083206001600160a01b038916845290915281208054859290612db29084906141dc565b92505081905550846001600160a01b031660006001600160a01b0316826001600160a01b03166000805160206144288339815191528787604051612df79291906141ab565b60405180910390a4612a6a81600087878787612e67565b60408051600180825281830190925260609160009190602080830190803683370190505090508281600081518110612e5657634e487b7160e01b600052603260045260246000fd5b602090810291909101015292915050565b6001600160a01b0384163b15610ffd5760405163f23a6e6160e01b81526001600160a01b0385169063f23a6e6190612eab9089908990889088908890600401613f19565b602060405180830381600087803b158015612ec557600080fd5b505af1925050508015612ef5575060408051601f3d908101601f19168201909252612ef291810190613c13565b60015b612f0157612670614363565b6001600160e01b0319811663f23a6e6160e01b146121135760405162461bcd60e51b81526004016108fc90613ff1565b6000612f3c336113ed565b15612f4e575060131936013560601c90565b503390565b90565b60606000612f6583600261423c565b612f709060026141dc565b6001600160401b03811115612f9557634e487b7160e01b600052604160045260246000fd5b6040519080825280601f01601f191660200182016040528015612fbf576020820181803683370190505b509050600360fc1b81600081518110612fe857634e487b7160e01b600052603260045260246000fd5b60200101906001600160f81b031916908160001a905350600f60fb1b8160018151811061302557634e487b7160e01b600052603260045260246000fd5b60200101906001600160f81b031916908160001a905350600061304984600261423c565b6130549060016141dc565b90505b60018111156130e8576f181899199a1a9b1b9c1cb0b131b232b360811b85600f166010811061309657634e487b7160e01b600052603260045260246000fd5b1a60f81b8282815181106130ba57634e487b7160e01b600052603260045260246000fd5b60200101906001600160f81b031916908160001a90535060049490941c936130e18161429e565b9050613057565b5083156111f05760405162461bcd60e51b815260206004820181905260248201527f537472696e67733a20686578206c656e67746820696e73756666696369656e7460448201526064016108fc565b600080516020614448833981519152546001600160a01b031690565b803b6131b75760405162461bcd60e51b815260206004820152602d60248201527f455243313936373a206e657720696d706c656d656e746174696f6e206973206e60448201526c1bdd08184818dbdb9d1c9858dd609a1b60648201526084016108fc565b60008051602061444883398151915280546001600160a01b0319166001600160a01b0392909216919091179055565b6060823b6132455760405162461bcd60e51b815260206004820152602660248201527f416464726573733a2064656c65676174652063616c6c20746f206e6f6e2d636f6044820152651b9d1c9858dd60d21b60648201526084016108fc565b600080846001600160a01b0316846040516132609190613df8565b600060405180830381855af49150503d806000811461329b576040519150601f19603f3d011682016040523d82523d6000602084013e6132a0565b606091505b5091509150612b068282604051806060016040528060278152602001614468602791396133b3565b6001600160a01b03831660009081526000805160206144cf83398151915260205260409020548181101561330e5760405162461bcd60e51b81526004016108fc90614161565b613318828261425b565b6001600160a01b0385811660009081526000805160206144cf8339815191526020526040808220939093559085168152908120805484929061335b9084906141dc565b909155506000905061336b6123a6565b9050836001600160a01b0316856001600160a01b0316826001600160a01b031660008051602061442883398151915260008760405161254f9291906141ab565b612c186133ec565b606083156133c25750816111f0565b8251156133d25782518084602001fd5b8160405162461bcd60e51b81526004016108fc9190613fde565b612c18612c18612c18612c1861341960405180606001604052806033815260200161450f60339139613421565b612c186134a6565b600054610100900460ff168061343a575060005460ff16155b6134565760405162461bcd60e51b81526004016108fc90614113565b600054610100900460ff16158015613478576000805461ffff19166101011790555b6134806134ae565b6134886134ae565b61349182613518565b80156110b3576000805461ff00191690555050565b612c18613578565b600054610100900460ff16806134c7575060005460ff16155b6134e35760405162461bcd60e51b81526004016108fc90614113565b600054610100900460ff1615801561157f576000805461ffff19166101011790558015610999576000805461ff001916905550565b600054610100900460ff1680613531575060005460ff16155b61354d5760405162461bcd60e51b81526004016108fc90614113565b600054610100900460ff1615801561356f576000805461ffff19166101011790555b613491826123b5565b613580613593565b6135886135fa565b612c18600033613659565b600054610100900460ff16806135ac575060005460ff16155b6135c85760405162461bcd60e51b81526004016108fc90614113565b600054610100900460ff161580156135ea576000805461ffff19166101011790555b6135f26134ae565b61157f6134ae565b600054610100900460ff1680613613575060005460ff16155b61362f5760405162461bcd60e51b81526004016108fc90614113565b600054610100900460ff16158015613651576000805461ffff19166101011790555b6135ea6134ae565b6110b382826127a5565b82805461366f906142b5565b90600052602060002090601f01602090048101928261369157600085556136d7565b82601f106136aa57805160ff19168380011785556136d7565b828001600101855582156136d7579182015b828111156136d75782518255916020019190600101906136bc565b506136e39291506136e7565b5090565b5b808211156136e357600081556001016136e8565b60006001600160401b038311156137155761371561434d565b60405161372c601f8501601f1916602001826142f0565b80915083815284848401111561374157600080fd5b83836020830137600060208583010152509392505050565b80356001600160a01b038116811461377057600080fd5b919050565b600082601f830112613785578081fd5b81356020613792826141b9565b60405161379f82826142f0565b8381528281019150858301600585901b870184018810156137be578586fd5b855b858110156137dc578135845292840192908401906001016137c0565b5090979650505050505050565b600082601f8301126137f9578081fd5b6111f0838335602085016136fc565b80356001600160401b038116811461377057600080fd5b600060208284031215613830578081fd5b6111f082613759565b6000806040838503121561384b578081fd5b61385483613759565b915061386260208401613759565b90509250929050565b600080600080600060a08688031215613882578081fd5b61388b86613759565b945061389960208701613759565b935060408601356001600160401b03808211156138b4578283fd5b6138c089838a01613775565b945060608801359150808211156138d5578283fd5b6138e189838a01613775565b935060808801359150808211156138f6578283fd5b50613903888289016137e9565b9150509295509295909350565b60008060008060808587031215613925578384fd5b61392e85613759565b935061393c60208601613759565b93969395505050506040820135916060013590565b600080600080600060a08688031215613968578081fd5b61397186613759565b945061397f60208701613759565b9350604086013592506060860135915060808601356001600160401b038111156139a7578182fd5b613903888289016137e9565b600080604083850312156139c5578182fd5b6139ce83613759565b915060208301356139de81614403565b809150509250929050565b600080604083850312156139fb578182fd5b613a0483613759565b915060208301356001600160401b03811115613a1e578182fd5b613a2a858286016137e9565b9150509250929050565b60008060408385031215613a46578182fd5b613a4f83613759565b946020939093013593505050565b60008060008060808587031215613a72578182fd5b613a7b85613759565b966020860135965060408601359560600135945092505050565b600080600060608486031215613aa9578081fd5b613ab284613759565b9250602084013563ffffffff81168114613aca578182fd5b9150613ad860408501613808565b90509250925092565b60008060408385031215613af3578182fd5b82356001600160401b0380821115613b09578384fd5b818501915085601f830112613b1c578384fd5b81356020613b29826141b9565b604051613b3682826142f0565b8381528281019150858301600585901b870184018b1015613b55578889fd5b8896505b84871015613b7e57613b6a81613759565b835260019690960195918301918301613b59565b5096505086013592505080821115613b94578283fd5b50613a2a85828601613775565b600060208284031215613bb2578081fd5b81516111f081614403565b600060208284031215613bce578081fd5b5035919050565b60008060408385031215613be7578182fd5b8235915061386260208401613759565b600060208284031215613c08578081fd5b81356111f081614411565b600060208284031215613c24578081fd5b81516111f081614411565b600060208284031215613c40578081fd5b81356001600160401b03811115613c55578182fd5b8201601f81018413613c65578182fd5b610bb7848235602084016136fc565b600060208284031215613c85578081fd5b5051919050565b600080600080600080600060e0888a031215613ca6578485fd5b87359650613cb660208901613759565b95506040880135945060608801359350613cd260808901613759565b925060a0880135915060c0880135905092959891949750929550565b60008060408385031215613d00578182fd5b50508035926020909101359150565b60008060408385031215613d21578182fd5b613a0483613808565b6000815180845260208085019450808401835b83811015613d5957815187529582019590820190600101613d3d565b509495945050505050565b60008151808452613d7c816020860160208601614272565b601f01601f19169290920160200192915050565b825160009082906020808701845b83811015613dc35781516001600160a01b031685529382019390820190600101613d9e565b50508551818701939250845b81811015613deb57845184529382019392820192600101613dcf565b5091979650505050505050565b60008251613e0a818460208701614272565b9190910192915050565b76020b1b1b2b9b9a1b7b73a3937b61d1030b1b1b7bab73a1604d1b815260008351613e46816017850160208801614272565b7001034b99036b4b9b9b4b733903937b6329607d1b6017918401918201528351613e77816028840160208801614272565b01602801949350505050565b6001600160a01b0391909116815260200190565b6001600160a01b0386811682528516602082015260a060408201819052600090613ec390830186613d2a565b8281036060840152613ed58186613d2a565b90508281036080840152613ee98185613d64565b98975050505050505050565b6001600160a01b039384168152919092166020820152604081019190915260600190565b6001600160a01b03868116825285166020820152604081018490526060810183905260a06080820181905260009061151590830184613d64565b6001600160a01b03929092168252602082015260400190565b6001600160a01b0396871681526020810195909552604085019390935293166060830152608082019290925260a081019190915260c00190565b6020815260006111f06020830184613d2a565b604081526000613fcc6040830185613d2a565b8281036020840152612b068185613d2a565b6020815260006111f06020830184613d64565b60208082526028908201527f455243313135353a204552433131353552656365697665722072656a656374656040820152676420746f6b656e7360c01b606082015260800190565b60208082526029908201527f455243313135353a2063616c6c6572206973206e6f74206f776e6572206e6f7260408201526808185c1c1c9bdd995960ba1b606082015260800190565b60208082526025908201527f455243313135353a207472616e7366657220746f20746865207a65726f206164604082015264647265737360d81b606082015260800190565b6020808252602c908201527f546865206163636f756e74206d757374206e6f7420626520302c20756e6c657360408201526b07320666565732061726520360a41b606082015260800190565b6020808252602e908201527f496e697469616c697a61626c653a20636f6e747261637420697320616c72656160408201526d191e481a5b9a5d1a585b1a5e995960921b606082015260800190565b6020808252602a908201527f455243313135353a20696e73756666696369656e742062616c616e636520666f60408201526939103a3930b739b332b960b11b606082015260800190565b918252602082015260400190565b60006001600160401b038211156141d2576141d261434d565b5060051b60200190565b600082198211156141ef576141ef614337565b500190565b600063ffffffff80831681851680830382111561421357614213614337565b01949350505050565b60008261423757634e487b7160e01b81526012600452602481fd5b500490565b600081600019048311821515161561425657614256614337565b500290565b60008282101561426d5761426d614337565b500390565b60005b8381101561428d578181015183820152602001614275565b838111156116485750506000910152565b6000816142ad576142ad614337565b506000190190565b600181811c908216806142c957607f821691505b602082108114156142ea57634e487b7160e01b600052602260045260246000fd5b50919050565b601f8201601f191681016001600160401b03811182821017156143155761431561434d565b6040525050565b600060001982141561433057614330614337565b5060010190565b634e487b7160e01b600052601160045260246000fd5b634e487b7160e01b600052604160045260246000fd5b600060033d1115612f5357600481823e5160e01c90565b600060443d10156143885790565b6040516003193d81016004833e81513d6001600160401b0380831160248401831017156143b757505050505090565b82850191508151818111156143cf5750505050505090565b843d87010160208285010111156143e95750505050505090565b6143f8602082860101876142f0565b509095945050505050565b801515811461099957600080fd5b6001600160e01b03198116811461099957600080fdfec3d58168c5ae7397731d063d5bbf3d657854427343f4c083240f7aacaa2d0f62360894a13ba1a3210667c828492db98dca3e2076cc3735a920a3ca505d382bbc416464726573733a206c6f772d6c6576656c2064656c65676174652063616c6c206661696c65643d2e894c222ba979e2dce2c7d940c0e9bb14306669e9f034eb1bb3979a2069d8626f510646502d065065e8bd550325973a611a32e6f6ddff40650005cb13636881fe90a866a48a634a12852c1be675b683a22307409932a7443b8029347be75620a4be6e7127e439f48d6654377d19402cb883dd85029e600de9e17052f903d368747470733a2f2f6170692e66726565706f72742e636572652e6e6574776f726b2f657263313135352f7b69647d2e6a736f6ea264697066735822122019389ff6574dd65d849b7587a0048c62ab9bbc493a889bbc1f095f14a768de6264736f6c63430008040033",
  "immutableReferences": {},
  "source": "pragma solidity ^0.8.0;\n\nimport \"./freeportParts/TransferFees.sol\";\n\n/** Main contract, including all components.\n\n- Hold and transfer NFTs using ERC1155.\n- Support atomic exchanges of NFTs for currency.\n- Issuance of NFTs with fixed supply.\n- Joint Accounts that distribute their funds over multiple owners.\n- Capture royalties on primary and secondary transfers, configurable per NFT type.\n*/\ncontract Freeport is /*\n    ERC1155,\n    AccessControl,\n    MetaTxContext,\n    BaseNFT,\n    Currency,\n    TransferOperator,\n    ERC20Adapter,\n    Issuance,\n    JointAccounts,\n    TransferFees,\n    */ TransferFees {\n\n    /** Initialize this contract and its dependencies.\n     */\n    function initialize() public initializer {\n        __TransferFees_init();\n    }\n}\n",
  "sourcePath": "/home/nadtech/Visual_Studio/Freeport-Smart-Contracts/contracts/Freeport.sol",
  "compiler": {
    "name": "solc",
    "version": "0.8.4+commit.c7e474f2.Emscripten.clang"
  },
  "schemaVersion": "3.4.4",
  "updatedAt": "2022-04-20T08:39:48.426Z",
  "devdoc": {
    "kind": "dev",
    "methods": {
      "balanceOf(address,uint256)": {
        "details": "See {IERC1155-balanceOf}. Requirements: - `account` cannot be the zero address."
      },
      "balanceOfBatch(address[],uint256[])": {
        "details": "See {IERC1155-balanceOfBatch}. Requirements: - `accounts` and `ids` must have the same length."
      },
      "getRoleAdmin(bytes32)": {
        "details": "Returns the admin role that controls `role`. See {grantRole} and {revokeRole}. To change a role's admin, use {_setRoleAdmin}."
      },
      "grantRole(bytes32,address)": {
        "details": "Grants `role` to `account`. If `account` had not been already granted `role`, emits a {RoleGranted} event. Requirements: - the caller must have ``role``'s admin role."
      },
      "hasRole(bytes32,address)": {
        "details": "Returns `true` if `account` has been granted `role`."
      },
      "renounceRole(bytes32,address)": {
        "details": "Revokes `role` from the calling account. Roles are often managed via {grantRole} and {revokeRole}: this function's purpose is to provide a mechanism for accounts to lose their privileges if they are compromised (such as when a trusted device is misplaced). If the calling account had been granted `role`, emits a {RoleRevoked} event. Requirements: - the caller must be `account`."
      },
      "revokeRole(bytes32,address)": {
        "details": "Revokes `role` from `account`. If `account` had been granted `role`, emits a {RoleRevoked} event. Requirements: - the caller must have ``role``'s admin role."
      },
      "safeBatchTransferFrom(address,address,uint256[],uint256[],bytes)": {
        "details": "See {IERC1155-safeBatchTransferFrom}."
      },
      "safeTransferFrom(address,address,uint256,uint256,bytes)": {
        "details": "See {IERC1155-safeTransferFrom}."
      },
      "setApprovalForAll(address,bool)": {
        "details": "See {IERC1155-setApprovalForAll}."
      },
      "uri(uint256)": {
        "details": "See {IERC1155MetadataURI-uri}. This implementation returns the same URI for *all* token types. It relies on the token type ID substitution mechanism https://eips.ethereum.org/EIPS/eip-1155#metadata[defined in the EIP]. Clients calling this function must replace the `\\{id\\}` substring with the actual token type ID."
      }
    },
    "version": 1
  },
  "userdoc": {
    "events": {
      "JointAccountShareCreated(address,address,uint256)": {
        "notice": "Notify that a Joint Account was created at the address `account`. One such event is emitted for each owner, including his fraction of the account in basis points (1% of 1%)."
      },
      "RoyaltiesConfigured(uint256,address,uint256,uint256,address,uint256,uint256)": {
        "notice": "Notify that royalties were configured on an NFT type."
      },
      "RoyaltiesLocked(uint256,uint256)": {
        "notice": "Notify that royalties are locked and cannot change, until the given time (in UNIX seconds), or forever (lockUntil = 0xFFFFFFFF)."
      }
    },
    "kind": "user",
    "methods": {
      "BASIS_POINTS()": {
        "notice": "The total fraction representing 100% of an account."
      },
      "CURRENCY()": {
        "notice": "The token ID that represents the internal currency for all payments in this contract. "
      },
      "balanceOfJAOwner(address,address)": {
        "notice": "Calculate the amount of tokens that an owner of a Joint Account can withdraw right now."
      },
      "captureFee(address,uint256,uint256,uint256)": {
        "notice": "Collect the royalty due on a transfer. The royalty is calculated based on NFT configuration and the price. It is collected by an internal transfer of currency between \"from\" and the beneficiary. Return the amount collected. The caller must be approved by \"from\", or a TRANSFER_OPERATOR."
      },
      "captureFeeERC20(address,uint256,uint256,uint256)": {
        "notice": "Collect the royalty due on a transfer. The royalty is calculated based on NFT configuration and the price. It is collected by an internal transfer of currency between \"from\" and the beneficiary. Return the amount collected. The caller must be approved by \"from\", or a TRANSFER_OPERATOR."
      },
      "configureRoyalties(uint256,address,uint256,uint256,address,uint256,uint256)": {
        "notice": "Configure the amounts and beneficiaries of royalties on primary and secondary transfers of this NFT. This configuration is available to the issuer of this NFT. A transfer is primary if it comes from the issuer of this NFT (normally the first sale after issuance). Otherwise, it is a secondary transfer. A royalty is defined in two parts (both optional): a cut of the sale price of an NFT, and a minimum royalty per transfer. For simple transfers not attached to a price, or a too low price, the minimum royalty is charged. The cuts are given in basis points (1% of 1%). The minimums are given in currency amounts. The configuration can be changed at any time by default. However, the issuer may commit to it for a period of time, effectively giving up his ability to modify the royalties. See the function lockRoyalties. There can be one beneficiary account for each primary and secondary royalties. To distribute revenues amongst several parties, use a Joint Account (see function createJointAccount)."
      },
      "createJointAccount(address[],uint256[])": {
        "notice": "Create an account such that multiple owners have a claim on their respective share. The size of a share is given as a fraction in basis points (1% of 1%). The sum of share fractions must equal 10,000. Anyone can create Joint Accounts including any owners."
      },
      "currencyContract()": {
        "notice": "The address of ERC-20 token's contract"
      },
      "deposit(uint256)": {
        "notice": "Deposit currency from ERC20 into the internal currency. This requires payer to approve deposit."
      },
      "distributeJointAccountCereToken(address)": {
        "notice": "Distribute internal currency on JA balance among share owners. The function createJointAccount must be called beforehand. Anyone can trigger the distribution."
      },
      "distributeJointAccountERC20(address)": {
        "notice": "Distribute ERC20 available on JA balance among all of share owners. The function createJointAccount must be called beforehand. Anyone can trigger the distribution."
      },
      "fractionOfJAOwner(address,address)": {
        "notice": "Return the fraction of an account owned by the given address, in basis points (1% of 1%). If the account does not exist, or if the given address is not an owner of it, this returns 0. If the owner appears more than once in the account, this reports only the first share."
      },
      "getNftId(address,uint32,uint64)": {
        "notice": "Calculate the ID of an NFT type, identifying its issuer, its supply, and an arbitrary nonce."
      },
      "getRoyalties(uint256)": {
        "notice": "Return the current configuration of royalties for NFTs of type nftId, as set by configureRoyalties."
      },
      "getRoyaltiesForBeneficiary(uint256,address)": {
        "notice": "Return the amount of royalties earned by a beneficiary on each primary and secondary transfer of an NFT. This function supports Joint Accounts. If royalties are paid to a JA and beneficiary is an owner of the JA, the shares of the royalties for this owner are returned."
      },
      "initialize()": {
        "notice": "Initialize this contract and its dependencies."
      },
      "isApprovedForAll(address,address)": {
        "notice": "Return true for operators with the role TRANSFER_OPERATOR. Otherwise, apply the standard approval logic of ERC1155. See {IERC1155-isApprovedForAll}."
      },
      "issuanceNonces(address)": {
        "notice": "A counter of NFT types issued by each issuer. This is used to generate unique NFT IDs."
      },
      "issue(uint64,bytes)": {
        "notice": "Issue a supply of NFTs of a new type, and return its ID. No more NFT of this type can be issued again. The caller will be recorded as the issuer and it will initially own the entire supply."
      },
      "lockRoyalties(uint256,uint256)": {
        "notice": "Lock the configuration of royalties for this NFT type. Only the issuer may lock the configuration, after which he himself will no longer be able to change the configuration, for some time, or forever. Set lockUntil to a time in the future to lock the configuration until the specified time (in UNIX seconds). Set to 0xFFFFFFFF to lock forever."
      },
      "makeAddressOfJointAccount(address[],uint256[])": {
        "notice": "Generate a unique address identifying a list of owners and shares. It may be used to predict the address of a Joint Account and receive payments even before calling the function createJointAccount."
      },
      "setERC20(address)": {
        "notice": "Sets token's contract address. This token is used to deposit and withdraw on chain adapter's contract is deployed."
      },
      "supportsInterface(bytes4)": {
        "notice": "Supports interfaces of AccessControl, ERC1155, and ERC1155 MetadataURI."
      },
      "transferFrom(address,address,uint256,uint256)": {
        "notice": "transferFrom performs a simple transfer, without calling the hooks  (no _beforeTokenTransfer and no onERC1155Received)."
      },
      "withdraw(uint256)": {
        "notice": "Withdraw currency from internal to ERC20"
      }
    },
    "notice": "Main contract, including all components. - Hold and transfer NFTs using ERC1155. - Support atomic exchanges of NFTs for currency. - Issuance of NFTs with fixed supply. - Joint Accounts that distribute their funds over multiple owners. - Capture royalties on primary and secondary transfers, configurable per NFT type.",
    "version": 1
  }
}