{
  "contractName": "Freeport",
  "abi": [
    {
      "anonymous": false,
      "inputs": [
        {
          "indexed": false,
          "internalType": "address",
          "name": "previousAdmin",
          "type": "address"
        },
        {
          "indexed": false,
          "internalType": "address",
          "name": "newAdmin",
          "type": "address"
        }
      ],
      "name": "AdminChanged",
      "type": "event"
    },
    {
      "anonymous": false,
      "inputs": [
        {
          "indexed": true,
          "internalType": "address",
          "name": "account",
          "type": "address"
        },
        {
          "indexed": true,
          "internalType": "address",
          "name": "operator",
          "type": "address"
        },
        {
          "indexed": false,
          "internalType": "bool",
          "name": "approved",
          "type": "bool"
        }
      ],
      "name": "ApprovalForAll",
      "type": "event"
    },
    {
      "anonymous": false,
      "inputs": [
        {
          "indexed": true,
          "internalType": "address",
          "name": "beacon",
          "type": "address"
        }
      ],
      "name": "BeaconUpgraded",
      "type": "event"
    },
    {
      "anonymous": false,
      "inputs": [
        {
          "indexed": true,
          "internalType": "address",
          "name": "account",
          "type": "address"
        },
        {
          "indexed": true,
          "internalType": "address",
          "name": "owner",
          "type": "address"
        },
        {
          "indexed": false,
          "internalType": "uint256",
          "name": "fraction",
          "type": "uint256"
        }
      ],
      "name": "JointAccountShareCreated",
      "type": "event"
    },
    {
      "anonymous": false,
      "inputs": [
        {
          "indexed": true,
          "internalType": "address",
          "name": "seller",
          "type": "address"
        },
        {
          "indexed": true,
          "internalType": "uint256",
          "name": "nftId",
          "type": "uint256"
        },
        {
          "indexed": false,
          "internalType": "uint256",
          "name": "price",
          "type": "uint256"
        }
      ],
      "name": "MakeOffer",
      "type": "event"
    },
    {
      "anonymous": false,
      "inputs": [
        {
          "indexed": true,
          "internalType": "bytes32",
          "name": "role",
          "type": "bytes32"
        },
        {
          "indexed": true,
          "internalType": "bytes32",
          "name": "previousAdminRole",
          "type": "bytes32"
        },
        {
          "indexed": true,
          "internalType": "bytes32",
          "name": "newAdminRole",
          "type": "bytes32"
        }
      ],
      "name": "RoleAdminChanged",
      "type": "event"
    },
    {
      "anonymous": false,
      "inputs": [
        {
          "indexed": true,
          "internalType": "bytes32",
          "name": "role",
          "type": "bytes32"
        },
        {
          "indexed": true,
          "internalType": "address",
          "name": "account",
          "type": "address"
        },
        {
          "indexed": true,
          "internalType": "address",
          "name": "sender",
          "type": "address"
        }
      ],
      "name": "RoleGranted",
      "type": "event"
    },
    {
      "anonymous": false,
      "inputs": [
        {
          "indexed": true,
          "internalType": "bytes32",
          "name": "role",
          "type": "bytes32"
        },
        {
          "indexed": true,
          "internalType": "address",
          "name": "account",
          "type": "address"
        },
        {
          "indexed": true,
          "internalType": "address",
          "name": "sender",
          "type": "address"
        }
      ],
      "name": "RoleRevoked",
      "type": "event"
    },
    {
      "anonymous": false,
      "inputs": [
        {
          "indexed": true,
          "internalType": "uint256",
          "name": "nftId",
          "type": "uint256"
        },
        {
          "indexed": false,
          "internalType": "address",
          "name": "primaryRoyaltyAccount",
          "type": "address"
        },
        {
          "indexed": false,
          "internalType": "uint256",
          "name": "primaryRoyaltyCut",
          "type": "uint256"
        },
        {
          "indexed": false,
          "internalType": "uint256",
          "name": "primaryRoyaltyMinimum",
          "type": "uint256"
        },
        {
          "indexed": false,
          "internalType": "address",
          "name": "secondaryRoyaltyAccount",
          "type": "address"
        },
        {
          "indexed": false,
          "internalType": "uint256",
          "name": "secondaryRoyaltyCut",
          "type": "uint256"
        },
        {
          "indexed": false,
          "internalType": "uint256",
          "name": "secondaryRoyaltyMinimum",
          "type": "uint256"
        }
      ],
      "name": "RoyaltiesConfigured",
      "type": "event"
    },
    {
      "anonymous": false,
      "inputs": [
        {
          "indexed": true,
          "internalType": "uint256",
          "name": "nftId",
          "type": "uint256"
        },
        {
          "indexed": false,
          "internalType": "uint256",
          "name": "lockUntil",
          "type": "uint256"
        }
      ],
      "name": "RoyaltiesLocked",
      "type": "event"
    },
    {
      "anonymous": false,
      "inputs": [
        {
          "indexed": true,
          "internalType": "address",
          "name": "buyer",
          "type": "address"
        },
        {
          "indexed": true,
          "internalType": "address",
          "name": "seller",
          "type": "address"
        },
        {
          "indexed": true,
          "internalType": "uint256",
          "name": "nftId",
          "type": "uint256"
        },
        {
          "indexed": false,
          "internalType": "uint256",
          "name": "price",
          "type": "uint256"
        },
        {
          "indexed": false,
          "internalType": "uint256",
          "name": "amount",
          "type": "uint256"
        }
      ],
      "name": "TakeOffer",
      "type": "event"
    },
    {
      "anonymous": false,
      "inputs": [
        {
          "indexed": true,
          "internalType": "address",
          "name": "operator",
          "type": "address"
        },
        {
          "indexed": true,
          "internalType": "address",
          "name": "from",
          "type": "address"
        },
        {
          "indexed": true,
          "internalType": "address",
          "name": "to",
          "type": "address"
        },
        {
          "indexed": false,
          "internalType": "uint256[]",
          "name": "ids",
          "type": "uint256[]"
        },
        {
          "indexed": false,
          "internalType": "uint256[]",
          "name": "values",
          "type": "uint256[]"
        }
      ],
      "name": "TransferBatch",
      "type": "event"
    },
    {
      "anonymous": false,
      "inputs": [
        {
          "indexed": true,
          "internalType": "address",
          "name": "operator",
          "type": "address"
        },
        {
          "indexed": true,
          "internalType": "address",
          "name": "from",
          "type": "address"
        },
        {
          "indexed": true,
          "internalType": "address",
          "name": "to",
          "type": "address"
        },
        {
          "indexed": false,
          "internalType": "uint256",
          "name": "id",
          "type": "uint256"
        },
        {
          "indexed": false,
          "internalType": "uint256",
          "name": "value",
          "type": "uint256"
        }
      ],
      "name": "TransferSingle",
      "type": "event"
    },
    {
      "anonymous": false,
      "inputs": [
        {
          "indexed": false,
          "internalType": "string",
          "name": "value",
          "type": "string"
        },
        {
          "indexed": true,
          "internalType": "uint256",
          "name": "id",
          "type": "uint256"
        }
      ],
      "name": "URI",
      "type": "event"
    },
    {
      "anonymous": false,
      "inputs": [
        {
          "indexed": true,
          "internalType": "address",
          "name": "implementation",
          "type": "address"
        }
      ],
      "name": "Upgraded",
      "type": "event"
    },
    {
      "inputs": [],
      "name": "BASIS_POINTS",
      "outputs": [
        {
          "internalType": "uint256",
          "name": "",
          "type": "uint256"
        }
      ],
      "stateMutability": "view",
      "type": "function"
    },
    {
      "inputs": [],
      "name": "BYPASS_SENDER",
      "outputs": [
        {
          "internalType": "bytes32",
          "name": "",
          "type": "bytes32"
        }
      ],
      "stateMutability": "view",
      "type": "function"
    },
    {
      "inputs": [],
      "name": "CURRENCY",
      "outputs": [
        {
          "internalType": "uint256",
          "name": "",
          "type": "uint256"
        }
      ],
      "stateMutability": "view",
      "type": "function"
    },
    {
      "inputs": [],
      "name": "DEFAULT_ADMIN_ROLE",
      "outputs": [
        {
          "internalType": "bytes32",
          "name": "",
          "type": "bytes32"
        }
      ],
      "stateMutability": "view",
      "type": "function"
    },
    {
      "inputs": [],
      "name": "MAX_JOINT_ACCOUNT_SHARES",
      "outputs": [
        {
          "internalType": "uint256",
          "name": "",
          "type": "uint256"
        }
      ],
      "stateMutability": "view",
      "type": "function"
    },
    {
      "inputs": [],
      "name": "META_TX_FORWARDER",
      "outputs": [
        {
          "internalType": "bytes32",
          "name": "",
          "type": "bytes32"
        }
      ],
      "stateMutability": "view",
      "type": "function"
    },
    {
      "inputs": [],
      "name": "TRANSFER_OPERATOR",
      "outputs": [
        {
          "internalType": "bytes32",
          "name": "",
          "type": "bytes32"
        }
      ],
      "stateMutability": "view",
      "type": "function"
    },
    {
      "inputs": [
        {
          "internalType": "address",
          "name": "account",
          "type": "address"
        },
        {
          "internalType": "uint256",
          "name": "id",
          "type": "uint256"
        }
      ],
      "name": "balanceOf",
      "outputs": [
        {
          "internalType": "uint256",
          "name": "",
          "type": "uint256"
        }
      ],
      "stateMutability": "view",
      "type": "function"
    },
    {
      "inputs": [
        {
          "internalType": "address[]",
          "name": "accounts",
          "type": "address[]"
        },
        {
          "internalType": "uint256[]",
          "name": "ids",
          "type": "uint256[]"
        }
      ],
      "name": "balanceOfBatch",
      "outputs": [
        {
          "internalType": "uint256[]",
          "name": "",
          "type": "uint256[]"
        }
      ],
      "stateMutability": "view",
      "type": "function"
    },
    {
      "inputs": [
        {
          "internalType": "address",
          "name": "account",
          "type": "address"
        },
        {
          "internalType": "address",
          "name": "owner",
          "type": "address"
        }
      ],
      "name": "balanceOfJAOwner",
      "outputs": [
        {
          "internalType": "uint256",
          "name": "",
          "type": "uint256"
        }
      ],
      "stateMutability": "view",
      "type": "function"
    },
    {
      "inputs": [
        {
          "internalType": "address",
          "name": "from",
          "type": "address"
        },
        {
          "internalType": "uint256",
          "name": "nftId",
          "type": "uint256"
        },
        {
          "internalType": "uint256",
          "name": "price",
          "type": "uint256"
        },
        {
          "internalType": "uint256",
          "name": "amount",
          "type": "uint256"
        }
      ],
      "name": "captureFee",
      "outputs": [
        {
          "internalType": "uint256",
          "name": "",
          "type": "uint256"
        }
      ],
      "stateMutability": "nonpayable",
      "type": "function"
    },
    {
      "inputs": [
        {
          "internalType": "uint256",
          "name": "nftId",
          "type": "uint256"
        },
        {
          "internalType": "address",
          "name": "primaryRoyaltyAccount",
          "type": "address"
        },
        {
          "internalType": "uint256",
          "name": "primaryRoyaltyCut",
          "type": "uint256"
        },
        {
          "internalType": "uint256",
          "name": "primaryRoyaltyMinimum",
          "type": "uint256"
        },
        {
          "internalType": "address",
          "name": "secondaryRoyaltyAccount",
          "type": "address"
        },
        {
          "internalType": "uint256",
          "name": "secondaryRoyaltyCut",
          "type": "uint256"
        },
        {
          "internalType": "uint256",
          "name": "secondaryRoyaltyMinimum",
          "type": "uint256"
        }
      ],
      "name": "configureRoyalties",
      "outputs": [],
      "stateMutability": "nonpayable",
      "type": "function"
    },
    {
      "inputs": [
        {
          "internalType": "address[]",
          "name": "owners",
          "type": "address[]"
        },
        {
          "internalType": "uint256[]",
          "name": "fractions",
          "type": "uint256[]"
        }
      ],
      "name": "createJointAccount",
      "outputs": [
        {
          "internalType": "address",
          "name": "",
          "type": "address"
        }
      ],
      "stateMutability": "nonpayable",
      "type": "function"
    },
    {
      "inputs": [],
      "name": "currencyContract",
      "outputs": [
        {
          "internalType": "contract IERC20",
          "name": "",
          "type": "address"
        }
      ],
      "stateMutability": "view",
      "type": "function"
    },
    {
      "inputs": [
        {
          "internalType": "uint256",
          "name": "amount",
          "type": "uint256"
        }
      ],
      "name": "deposit",
      "outputs": [],
      "stateMutability": "nonpayable",
      "type": "function"
    },
    {
      "inputs": [
        {
          "internalType": "address",
          "name": "account",
          "type": "address"
        }
      ],
      "name": "distributeJointAccount",
      "outputs": [],
      "stateMutability": "nonpayable",
      "type": "function"
    },
    {
      "inputs": [
        {
          "internalType": "address",
          "name": "account",
          "type": "address"
        },
        {
          "internalType": "address",
          "name": "maybeOwner",
          "type": "address"
        }
      ],
      "name": "fractionOfJAOwner",
      "outputs": [
        {
          "internalType": "uint256",
          "name": "",
          "type": "uint256"
        }
      ],
      "stateMutability": "view",
      "type": "function"
    },
    {
      "inputs": [
        {
          "internalType": "address",
          "name": "issuer",
          "type": "address"
        },
        {
          "internalType": "uint32",
          "name": "nonce",
          "type": "uint32"
        },
        {
          "internalType": "uint64",
          "name": "supply",
          "type": "uint64"
        }
      ],
      "name": "getNftId",
      "outputs": [
        {
          "internalType": "uint256",
          "name": "",
          "type": "uint256"
        }
      ],
      "stateMutability": "pure",
      "type": "function"
    },
    {
      "inputs": [
        {
          "internalType": "address",
          "name": "seller",
          "type": "address"
        },
        {
          "internalType": "uint256",
          "name": "nftId",
          "type": "uint256"
        }
      ],
      "name": "getOffer",
      "outputs": [
        {
          "internalType": "uint256",
          "name": "",
          "type": "uint256"
        }
      ],
      "stateMutability": "view",
      "type": "function"
    },
    {
      "inputs": [
        {
          "internalType": "bytes32",
          "name": "role",
          "type": "bytes32"
        }
      ],
      "name": "getRoleAdmin",
      "outputs": [
        {
          "internalType": "bytes32",
          "name": "",
          "type": "bytes32"
        }
      ],
      "stateMutability": "view",
      "type": "function"
    },
    {
      "inputs": [
        {
          "internalType": "uint256",
          "name": "nftId",
          "type": "uint256"
        }
      ],
      "name": "getRoyalties",
      "outputs": [
        {
          "internalType": "address",
          "name": "primaryRoyaltyAccount",
          "type": "address"
        },
        {
          "internalType": "uint256",
          "name": "primaryRoyaltyCut",
          "type": "uint256"
        },
        {
          "internalType": "uint256",
          "name": "primaryRoyaltyMinimum",
          "type": "uint256"
        },
        {
          "internalType": "address",
          "name": "secondaryRoyaltyAccount",
          "type": "address"
        },
        {
          "internalType": "uint256",
          "name": "secondaryRoyaltyCut",
          "type": "uint256"
        },
        {
          "internalType": "uint256",
          "name": "secondaryRoyaltyMinimum",
          "type": "uint256"
        }
      ],
      "stateMutability": "view",
      "type": "function"
    },
    {
      "inputs": [
        {
          "internalType": "uint256",
          "name": "nftId",
          "type": "uint256"
        },
        {
          "internalType": "address",
          "name": "beneficiary",
          "type": "address"
        }
      ],
      "name": "getRoyaltiesForBeneficiary",
      "outputs": [
        {
          "internalType": "uint256",
          "name": "primaryCut",
          "type": "uint256"
        },
        {
          "internalType": "uint256",
          "name": "primaryMinimum",
          "type": "uint256"
        },
        {
          "internalType": "uint256",
          "name": "secondaryCut",
          "type": "uint256"
        },
        {
          "internalType": "uint256",
          "name": "secondaryMinimum",
          "type": "uint256"
        }
      ],
      "stateMutability": "view",
      "type": "function"
    },
    {
      "inputs": [
        {
          "internalType": "bytes32",
          "name": "role",
          "type": "bytes32"
        },
        {
          "internalType": "address",
          "name": "account",
          "type": "address"
        }
      ],
      "name": "grantRole",
      "outputs": [],
      "stateMutability": "nonpayable",
      "type": "function"
    },
    {
      "inputs": [
        {
          "internalType": "bytes32",
          "name": "role",
          "type": "bytes32"
        },
        {
          "internalType": "address",
          "name": "account",
          "type": "address"
        }
      ],
      "name": "hasRole",
      "outputs": [
        {
          "internalType": "bool",
          "name": "",
          "type": "bool"
        }
      ],
      "stateMutability": "view",
      "type": "function"
    },
    {
      "inputs": [
        {
          "internalType": "address",
          "name": "account",
          "type": "address"
        },
        {
          "internalType": "address",
          "name": "operator",
          "type": "address"
        }
      ],
      "name": "isApprovedForAll",
      "outputs": [
        {
          "internalType": "bool",
          "name": "",
          "type": "bool"
        }
      ],
      "stateMutability": "view",
      "type": "function"
    },
    {
      "inputs": [
        {
          "internalType": "address",
          "name": "forwarder",
          "type": "address"
        }
      ],
      "name": "isTrustedForwarder",
      "outputs": [
        {
          "internalType": "bool",
          "name": "",
          "type": "bool"
        }
      ],
      "stateMutability": "view",
      "type": "function"
    },
    {
      "inputs": [
        {
          "internalType": "address",
          "name": "",
          "type": "address"
        }
      ],
      "name": "issuanceNonces",
      "outputs": [
        {
          "internalType": "uint32",
          "name": "",
          "type": "uint32"
        }
      ],
      "stateMutability": "view",
      "type": "function"
    },
    {
      "inputs": [
        {
          "internalType": "uint64",
          "name": "supply",
          "type": "uint64"
        },
        {
          "internalType": "bytes",
          "name": "data",
          "type": "bytes"
        }
      ],
      "name": "issue",
      "outputs": [
        {
          "internalType": "uint256",
          "name": "",
          "type": "uint256"
        }
      ],
      "stateMutability": "nonpayable",
      "type": "function"
    },
    {
      "inputs": [
        {
          "internalType": "address",
          "name": "",
          "type": "address"
        },
        {
          "internalType": "uint256",
          "name": "",
          "type": "uint256"
        }
      ],
      "name": "jointAccounts",
      "outputs": [
        {
          "internalType": "address",
          "name": "owner",
          "type": "address"
        },
        {
          "internalType": "uint256",
          "name": "fraction",
          "type": "uint256"
        }
      ],
      "stateMutability": "view",
      "type": "function"
    },
    {
      "inputs": [
        {
          "internalType": "uint256",
          "name": "nftId",
          "type": "uint256"
        },
        {
          "internalType": "uint256",
          "name": "lockUntil",
          "type": "uint256"
        }
      ],
      "name": "lockRoyalties",
      "outputs": [],
      "stateMutability": "nonpayable",
      "type": "function"
    },
    {
      "inputs": [
        {
          "internalType": "address[]",
          "name": "owners",
          "type": "address[]"
        },
        {
          "internalType": "uint256[]",
          "name": "fractions",
          "type": "uint256[]"
        }
      ],
      "name": "makeAddressOfJointAccount",
      "outputs": [
        {
          "internalType": "address",
          "name": "",
          "type": "address"
        }
      ],
      "stateMutability": "pure",
      "type": "function"
    },
    {
      "inputs": [
        {
          "internalType": "uint256",
          "name": "nftId",
          "type": "uint256"
        },
        {
          "internalType": "uint256",
          "name": "price",
          "type": "uint256"
        }
      ],
      "name": "makeOffer",
      "outputs": [],
      "stateMutability": "nonpayable",
      "type": "function"
    },
    {
      "inputs": [
        {
          "internalType": "bytes32",
          "name": "role",
          "type": "bytes32"
        },
        {
          "internalType": "address",
          "name": "account",
          "type": "address"
        }
      ],
      "name": "renounceRole",
      "outputs": [],
      "stateMutability": "nonpayable",
      "type": "function"
    },
    {
      "inputs": [
        {
          "internalType": "bytes32",
          "name": "role",
          "type": "bytes32"
        },
        {
          "internalType": "address",
          "name": "account",
          "type": "address"
        }
      ],
      "name": "revokeRole",
      "outputs": [],
      "stateMutability": "nonpayable",
      "type": "function"
    },
    {
      "inputs": [
        {
          "internalType": "address",
          "name": "from",
          "type": "address"
        },
        {
          "internalType": "address",
          "name": "to",
          "type": "address"
        },
        {
          "internalType": "uint256[]",
          "name": "ids",
          "type": "uint256[]"
        },
        {
          "internalType": "uint256[]",
          "name": "amounts",
          "type": "uint256[]"
        },
        {
          "internalType": "bytes",
          "name": "data",
          "type": "bytes"
        }
      ],
      "name": "safeBatchTransferFrom",
      "outputs": [],
      "stateMutability": "nonpayable",
      "type": "function"
    },
    {
      "inputs": [
        {
          "internalType": "address",
          "name": "from",
          "type": "address"
        },
        {
          "internalType": "address",
          "name": "to",
          "type": "address"
        },
        {
          "internalType": "uint256",
          "name": "id",
          "type": "uint256"
        },
        {
          "internalType": "uint256",
          "name": "amount",
          "type": "uint256"
        },
        {
          "internalType": "bytes",
          "name": "data",
          "type": "bytes"
        }
      ],
      "name": "safeTransferFrom",
      "outputs": [],
      "stateMutability": "nonpayable",
      "type": "function"
    },
    {
      "inputs": [
        {
          "internalType": "address",
          "name": "operator",
          "type": "address"
        },
        {
          "internalType": "bool",
          "name": "approved",
          "type": "bool"
        }
      ],
      "name": "setApprovalForAll",
      "outputs": [],
      "stateMutability": "nonpayable",
      "type": "function"
    },
    {
      "inputs": [
        {
          "internalType": "address",
          "name": "_currencyContract",
          "type": "address"
        }
      ],
      "name": "setERC20",
      "outputs": [],
      "stateMutability": "nonpayable",
      "type": "function"
    },
    {
      "inputs": [
        {
          "internalType": "string",
          "name": "newuri",
          "type": "string"
        }
      ],
      "name": "setURI",
      "outputs": [],
      "stateMutability": "nonpayable",
      "type": "function"
    },
    {
      "inputs": [
        {
          "internalType": "bytes4",
          "name": "interfaceId",
          "type": "bytes4"
        }
      ],
      "name": "supportsInterface",
      "outputs": [
        {
          "internalType": "bool",
          "name": "",
          "type": "bool"
        }
      ],
      "stateMutability": "view",
      "type": "function"
    },
    {
      "inputs": [
        {
          "internalType": "address",
          "name": "buyer",
          "type": "address"
        },
        {
          "internalType": "address",
          "name": "seller",
          "type": "address"
        },
        {
          "internalType": "uint256",
          "name": "nftId",
          "type": "uint256"
        },
        {
          "internalType": "uint256",
          "name": "expectedPriceOrZero",
          "type": "uint256"
        },
        {
          "internalType": "uint256",
          "name": "amount",
          "type": "uint256"
        }
      ],
      "name": "takeOffer",
      "outputs": [],
      "stateMutability": "nonpayable",
      "type": "function"
    },
    {
      "inputs": [
        {
          "internalType": "address",
          "name": "from",
          "type": "address"
        },
        {
          "internalType": "address",
          "name": "to",
          "type": "address"
        },
        {
          "internalType": "uint256",
          "name": "id",
          "type": "uint256"
        },
        {
          "internalType": "uint256",
          "name": "amount",
          "type": "uint256"
        }
      ],
      "name": "transferFrom",
      "outputs": [],
      "stateMutability": "nonpayable",
      "type": "function"
    },
    {
      "inputs": [
        {
          "internalType": "address",
          "name": "newImplementation",
          "type": "address"
        }
      ],
      "name": "upgradeTo",
      "outputs": [],
      "stateMutability": "nonpayable",
      "type": "function"
    },
    {
      "inputs": [
        {
          "internalType": "address",
          "name": "newImplementation",
          "type": "address"
        },
        {
          "internalType": "bytes",
          "name": "data",
          "type": "bytes"
        }
      ],
      "name": "upgradeToAndCall",
      "outputs": [],
      "stateMutability": "payable",
      "type": "function"
    },
    {
      "inputs": [
        {
          "internalType": "uint256",
          "name": "",
          "type": "uint256"
        }
      ],
      "name": "uri",
      "outputs": [
        {
          "internalType": "string",
          "name": "",
          "type": "string"
        }
      ],
      "stateMutability": "view",
      "type": "function"
    },
    {
      "inputs": [
        {
          "internalType": "uint256",
          "name": "amount",
          "type": "uint256"
        }
      ],
      "name": "withdraw",
      "outputs": [],
      "stateMutability": "nonpayable",
      "type": "function"
    },
    {
      "inputs": [],
      "name": "initialize",
      "outputs": [],
      "stateMutability": "nonpayable",
      "type": "function"
    }
  ],
  "bytecode": "0x608060405234801561001057600080fd5b50614514806100206000396000f3fe6080604052600436106102175760003560e01c8062fdd58e1461021c57806301ffc9a71461024f57806302fe53051461027f57806305b7cdd3146102a15780630e89341c146102c1578063248a9ca3146102ee5780632c8f284c1461030e5780632e1a7d4d1461032e5780632eb2c2d61461034e5780632f2ff15d1461036e57806330b064211461038e57806336568abe146103a35780633659cfe6146103c357806339b276f4146103e35780633c6b570914610403578063448588e3146104235780634559a29b146104455780634880d247146104735780634e1273f4146104935780634f1ef286146104c05780635611cac2146104d3578063572b6c051461050057806358556fb0146105205780635c5d67881461054057806360e3ecd0146105605780638129fc1c1461058257806391d14854146105975780639a86e8ce146105b75780639e00bb96146105d9578063a217fddf146105f9578063a22cb4651461060e578063a5e1fcd71461062e578063ac71045e1461064e578063acc08fa514610692578063ad09608a146106db578063b6b55f25146106fb578063b95812f41461071b578063ba7f4dfe1461073c578063bb3bafd61461075c578063c29a6fda146107e2578063d547741f14610802578063e1f1c4a714610822578063e24b0a2b14610838578063e985e9c514610878578063f242432a14610898578063f5361219146105f9578063fe99049a146108b8575b600080fd5b34801561022857600080fd5b5061023c610237366004613a02565b6108d8565b6040519081526020015b60405180910390f35b34801561025b57600080fd5b5061026f61026a366004613bc5565b610974565b6040519015158152602001610246565b34801561028b57600080fd5b5061029f61029a366004613bfd565b61098e565b005b3480156102ad57600080fd5b5061029f6102bc366004613ca4565b6109e0565b3480156102cd57600080fd5b506102e16102dc366004613b8b565b610a4c565b6040516102469190613f7b565b3480156102fa57600080fd5b5061023c610309366004613b8b565b610ae0565b34801561031a57600080fd5b5061023c6103293660046137bb565b610af5565b34801561033a57600080fd5b5061029f610349366004613b8b565b610b8f565b34801561035a57600080fd5b5061029f6103693660046137ed565b610c31565b34801561037a57600080fd5b5061029f610389366004613ba3565b610f26565b34801561039a57600080fd5b5061023c600a81565b3480156103af57600080fd5b5061029f6103be366004613ba3565b610f4a565b3480156103cf57600080fd5b5061029f6103de3660046137a1565b610fd8565b3480156103ef57600080fd5b5061029f6103fe366004613ca4565b610ffc565b34801561040f57600080fd5b5061023c61041e366004613a63565b6110e7565b34801561042f57600080fd5b5061023c60008051602061448c83398151915281565b34801561045157600080fd5b50610465610460366004613a02565b611118565b604051610246929190613ef0565b34801561047f57600080fd5b5061029f61048e366004613935565b61115f565b34801561049f57600080fd5b506104b36104ae366004613aaf565b61131f565b6040516102469190613f43565b61029f6104ce3660046139b7565b611480565b3480156104df57600080fd5b506104f36104ee366004613aaf565b611495565b6040516102469190613e39565b34801561050c57600080fd5b5061026f61051b3660046137a1565b6114ce565b34801561052c57600080fd5b5061023c61053b366004613cc5565b6114e8565b34801561054c57600080fd5b5061023c61055b366004613a2b565b6114fc565b34801561056c57600080fd5b5061023c60008051602061444c83398151915281565b34801561058e57600080fd5b5061029f611594565b3480156105a357600080fd5b5061026f6105b2366004613ba3565b611607565b3480156105c357600080fd5b5061023c60008051602061442c83398151915281565b3480156105e557600080fd5b5061023c6105f43660046137bb565b611632565b34801561060557600080fd5b5061023c600081565b34801561061a57600080fd5b5061029f610629366004613981565b611673565b34801561063a57600080fd5b5061029f6106493660046137a1565b611787565b34801561065a57600080fd5b5061023c610669366004613a02565b6001600160a01b0391909116600090815261013760209081526040808320938352929052205490565b34801561069e57600080fd5b506106c66106ad3660046137a1565b61012e6020526000908152604090205463ffffffff1681565b60405163ffffffff9091168152602001610246565b3480156106e757600080fd5b5061029f6106f6366004613c42565b611840565b34801561070757600080fd5b5061029f610716366004613b8b565b611a6b565b34801561072757600080fd5b5061012d546104f3906001600160a01b031681565b34801561074857600080fd5b506104f3610757366004613aaf565b611b21565b34801561076857600080fd5b506107d0610777366004613b8b565b6000908152610130602090815260408083205461013183528184205461013284528285205461013385528386205461013486528487205461013590965293909520546001600160a01b0392831696919594929093169290565b60405161024696959493929190613f09565b3480156107ee57600080fd5b5061029f6107fd3660046137a1565b611e3d565b34801561080e57600080fd5b5061029f61081d366004613ba3565b611e8d565b34801561082e57600080fd5b5061023c61271081565b34801561084457600080fd5b50610858610853366004613ba3565b611eac565b604080519485526020850193909352918301526060820152608001610246565b34801561088457600080fd5b5061026f6108933660046137bb565b611fb8565b3480156108a457600080fd5b5061029f6108b33660046138d3565b61200d565b3480156108c457600080fd5b5061029f6108d3366004613892565b612195565b60006001600160a01b0383166109495760405162461bcd60e51b815260206004820152602b60248201527f455243313135353a2062616c616e636520717565727920666f7220746865207a60448201526a65726f206164647265737360a81b60648201526084015b60405180910390fd5b50600081815260c9602090815260408083206001600160a01b03861684529091529020545b92915050565b600061097f82612211565b8061096e575061096e82612261565b61099b60006105b2612286565b6109d45760405162461bcd60e51b815260206004820152600a60248201526937b7363c9030b236b4b760b11b6044820152606401610940565b6109dd81612295565b50565b60006109ea612286565b6001600160a01b038116600081815261013760209081526040808320888452825291829020869055905185815292935085927f040259e2f9c7930380b3a5c979ad8a30ecf8d344d3bcdb149e2c454ab85fcd8f910160405180910390a3505050565b606060cb8054610a5b90614252565b80601f0160208091040260200160405190810160405280929190818152602001828054610a8790614252565b8015610ad45780601f10610aa957610100808354040283529160200191610ad4565b820191906000526020600020905b815481529060010190602001808311610ab757829003601f168201915b50505050509050919050565b600090815260fb602052604090206001015490565b6001600160a01b038216600090815261012f60205260408120815b8154811015610b84576000828281548110610b3b57634e487b7160e01b600052603260045260246000fd5b6000918252602090912060029091020180549091506001600160a01b0386811691161415610b715760010154925061096e915050565b5080610b7c816142b9565b915050610b10565b506000949350505050565b6000610b99612286565b9050610ba7816000846122a8565b61012d5460405163a9059cbb60e01b81526001600160a01b039091169063a9059cbb90610bda9084908690600401613ef0565b602060405180830381600087803b158015610bf457600080fd5b505af1158015610c08573d6000803e3d6000fd5b505050506040513d601f19601f82011682018060405250810190610c2c9190613b6f565b505050565b8151835114610c935760405162461bcd60e51b815260206004820152602860248201527f455243313135353a2069647320616e6420616d6f756e7473206c656e677468206044820152670dad2e6dac2e8c6d60c31b6064820152608401610940565b6001600160a01b038416610cb95760405162461bcd60e51b81526004016109409061401f565b610cc1612286565b6001600160a01b0316856001600160a01b03161480610ce75750610ce785610893612286565b610d4e5760405162461bcd60e51b815260206004820152603260248201527f455243313135353a207472616e736665722063616c6c6572206973206e6f74206044820152711bdddb995c881b9bdc88185c1c1c9bdd995960721b6064820152608401610940565b6000610d58612286565b9050610d6881878787878761242b565b60005b8451811015610eb8576000858281518110610d9657634e487b7160e01b600052603260045260246000fd5b602002602001015190506000858381518110610dc257634e487b7160e01b600052603260045260246000fd5b602090810291909101810151600084815260c9835260408082206001600160a01b038e168352909352919091205490915081811015610e135760405162461bcd60e51b8152600401610940906140fe565b610e1d82826141f8565b60c9600085815260200190815260200160002060008c6001600160a01b03166001600160a01b03168152602001908152602001600020819055508160c9600085815260200190815260200160002060008b6001600160a01b03166001600160a01b031681526020019081526020016000206000828254610e9d9190614179565b9250508190555050505080610eb1906142b9565b9050610d6b565b50846001600160a01b0316866001600160a01b0316826001600160a01b03167f4a39dc06d4c0dbc64b70af90fd698a233a518aa5d07e595d983b8c0526c8f7fb8787604051610f08929190613f56565b60405180910390a4610f1e8187878787876124a3565b505050505050565b610f2f82610ae0565b610f4081610f3b612286565b61260e565b610c2c8383612672565b610f52612286565b6001600160a01b0316816001600160a01b031614610fca5760405162461bcd60e51b815260206004820152602f60248201527f416363657373436f6e74726f6c3a2063616e206f6e6c792072656e6f756e636560448201526e103937b632b9903337b91039b2b63360891b6064820152608401610940565b610fd482826126f9565b5050565b610fe18161277e565b6109dd816040518060200160405280600081525060006127c2565b6000611006612286565b9050611012818461293e565b61101b57600080fd5b6000838152610136602052604090205482116110945760405162461bcd60e51b815260206004820152603260248201527f526f79616c7469657320636f6e66696775726174696f6e2063616e6e6f74206260448201527132903ab73637b1b5b2b21032b0b93634b2b960711b6064820152608401610940565b60008381526101366020526040908190208390555183907f7bdd35d2167385bdbed0892e34b48298770ffce27fe71928c767071865f51544906110da9085815260200190565b60405180910390a2505050565b6001600160601b0319606084901b1663ffffffff60401b604084901b16176001600160401b038216175b9392505050565b61012f602052816000526040600020818154811061113557600080fd5b6000918252602090912060029091020180546001909101546001600160a01b039091169250905082565b6000611169612286565b6001600160a01b038616600090815261013760209081526040808320888452909152902054909150806111cd5760405162461bcd60e51b815260206004820152600c60248201526b4e6f7420666f722073616c6560a01b6044820152606401610940565b8315806111d957508084145b6112185760405162461bcd60e51b815260206004820152601060248201526f556e657870656374656420707269636560801b6044820152606401610940565b600061122484836141d9565b905061122f81611a6b565b61124c83886000846040518060200160405280600081525061200d565b600061125a88888588612951565b9050818111156112ba5760405162461bcd60e51b815260206004820152602560248201527f43616e6e6f742074616b65206d6f72652066656573207468616e2074686520706044820152643934b1b29760d91b6064820152608401610940565b6112c6888a8988612a60565b86886001600160a01b03168a6001600160a01b03167fe90359125940e7c9b26005d19d4d8a2a5335ea8bef094bcd61bb8f8091cad117868960405161130c929190614148565b60405180910390a4505050505050505050565b606081518351146113845760405162461bcd60e51b815260206004820152602960248201527f455243313135353a206163636f756e747320616e6420696473206c656e677468604482015268040dad2e6dac2e8c6d60bb1b6064820152608401610940565b600083516001600160401b038111156113ad57634e487b7160e01b600052604160045260246000fd5b6040519080825280602002602001820160405280156113d6578160200160208202803683370190505b50905060005b84518110156114785761143d85828151811061140857634e487b7160e01b600052603260045260246000fd5b602002602001015185838151811061143057634e487b7160e01b600052603260045260246000fd5b60200260200101516108d8565b82828151811061145d57634e487b7160e01b600052603260045260246000fd5b6020908102919091010152611471816142b9565b90506113dc565b509392505050565b6114898261277e565b610fd4828260016127c2565b60008083836040516020016114ab929190613d46565b60408051808303601f19018152919052805160209091012060601c949350505050565b600061096e60008051602061442c83398151915283611607565b60006111116114f5612286565b8484612b4a565b600080611507612286565b90506115138682611fb8565b61157c5760405162461bcd60e51b815260206004820152603460248201527f746865206f70657261746f72206d75737420626520617070726f766564206f726044820152731030902a2920a729a322a92fa7a822a920aa27a960611b6064820152608401610940565b61158886868686612951565b9150505b949350505050565b600054610100900460ff16806115ad575060005460ff16155b6115c95760405162461bcd60e51b8152600401610940906140b0565b600054610100900460ff161580156115eb576000805461ffff19166101011790555b6115f3612be8565b80156109dd576000805461ff001916905550565b600091825260fb602090815260408084206001600160a01b0393909316845291905290205460ff1690565b60008061163f8484610af5565b9050600061164e8560006108d8565b9050600061271061165f84846141d9565b61166991906141b9565b9695505050505050565b816001600160a01b0316611685612286565b6001600160a01b031614156116ee5760405162461bcd60e51b815260206004820152602960248201527f455243313135353a2073657474696e6720617070726f76616c20737461747573604482015268103337b91039b2b63360b91b6064820152608401610940565b8060ca60006116fb612286565b6001600160a01b03908116825260208083019390935260409182016000908120918716808252919093529120805460ff19169215159290921790915561173f612286565b6001600160a01b03167f17307eab39ab6107e8899845ad3d59bd9653f200f220920489ca2b5937696c318360405161177b911515815260200190565b60405180910390a35050565b60006117948260006108d8565b6001600160a01b038316600090815261012f602052604081209192505b815481101561183a5760008282815481106117dc57634e487b7160e01b600052603260045260246000fd5b90600052602060002090600202019050600061271082600101548661180191906141d9565b61180b91906141b9565b82549091506118259087906001600160a01b031683612bf2565b50508080611832906142b9565b9150506117b1565b50505050565b600061184a612286565b9050611856818961293e565b6118b85760405162461bcd60e51b815260206004820152602d60248201527f4f6e6c792074686520697373756572206f662074686973204e46542063616e2060448201526c73657420726f79616c7469657360981b6064820152608401610940565b600088815261013660205260409020544210156119295760405162461bcd60e51b815260206004820152602960248201527f526f79616c7469657320636f6e66696775726174696f6e206973206c6f636b656044820152686420666f72206e6f7760b81b6064820152608401610940565b6001600160a01b038716151580611947575085158015611947575084155b6119635760405162461bcd60e51b815260040161094090614064565b60008881526101306020908152604080832080546001600160a01b0319166001600160a01b038c81169190911790915561013183528184208a905561013290925290912086905584161515806119c05750821580156119c0575081155b6119dc5760405162461bcd60e51b815260040161094090614064565b60008881526101336020908152604080832080546001600160a01b0319166001600160a01b0389161790556101348252808320869055610135909152908190208390555188907f3df2272e42784a2455bbbdcdf25ae0f67d41f801896514cc4cd255aa8ee75e4c90611a59908a908a908a908a908a908a90613f09565b60405180910390a25050505050505050565b6000611a75612286565b61012d546040516323b872dd60e01b81526001600160a01b038084166004830152306024830152604482018690529293509116906323b872dd90606401602060405180830381600087803b158015611acc57600080fd5b505af1158015611ae0573d6000803e3d6000fd5b505050506040513d601f19601f82011682018060405250810190611b049190613b6f565b50610fd48160008460405180602001604052806000815250612c83565b60008151835114611b955760405162461bcd60e51b815260206004820152603860248201527f417272617973206f66206f776e65727320616e64206672616374696f6e73206d6044820152770eae6e840d0c2ecca40e8d0ca40e6c2daca40d8cadccee8d60431b6064820152608401610940565b600a83511115611bd95760405162461bcd60e51b815260206004820152600f60248201526e546f6f206d616e792073686172657360881b6044820152606401610940565b6000611be58484611495565b6001600160a01b038116600090815261012f6020526040902080549192509015611c4e5760405162461bcd60e51b815260206004820152601a602482015279546865206163636f756e7420616c72656164792065786973747360301b6044820152606401610940565b6000805b8651811015611de1576000878281518110611c7d57634e487b7160e01b600052603260045260246000fd5b602002602001015190506000878381518110611ca957634e487b7160e01b600052603260045260246000fd5b6020026020010151905060006001600160a01b0316826001600160a01b031614158015611cd557508015155b611d1e5760405162461bcd60e51b815260206004820152601a6024820152790c081d985b1d595cc8185c99481b9bdd081c195c9b5a5d1d195960321b6044820152606401610940565b604080518082019091526001600160a01b0383811682526020808301848152885460018082018b5560008b8152939093209451600290910290940180546001600160a01b031916949093169390931782559151910155611d7e8185614179565b9350816001600160a01b0316866001600160a01b03167e6fb9851f1fd2fbc9fa36680d17e1254999a38e5f3c76c3a1ecc126a464601b83604051611dc491815260200190565b60405180910390a350508080611dd9906142b9565b915050611c52565b506127108114611e335760405162461bcd60e51b815260206004820152601e60248201527f546f74616c206672616374696f6e73206d7573742062652031302c30303000006044820152606401610940565b5090949350505050565b61012d546001600160a01b031615611e5457600080fd5b611e6160006105b2612286565b611e6a57600080fd5b61012d80546001600160a01b0319166001600160a01b0392909216919091179055565b611e9682610ae0565b611ea281610f3b612286565b610c2c83836126f9565b600082815261013160209081526040808320546101328352818420546101309093529083205490929081906001600160a01b039081169086168114611f2d576000611ef78288610af5565b9050612710611f0682886141d9565b611f1091906141b9565b9550612710611f1f82876141d9565b611f2991906141b9565b9450505b6000878152610134602090815260408083205461013583528184205461013390935292205491945092506001600160a01b039081169087168114611fad576000611f778289610af5565b9050612710611f8682876141d9565b611f9091906141b9565b9450612710611f9f82866141d9565b611fa991906141b9565b9350505b505092959194509250565b6000611fd260008051602061444c83398151915283611607565b15611fdf5750600161096e565b6001600160a01b03808416600090815260ca602090815260408083209386168352929052205460ff16611111565b6001600160a01b0384166120335760405162461bcd60e51b81526004016109409061401f565b61203b612286565b6001600160a01b0316856001600160a01b03161480612061575061206185610893612286565b61207d5760405162461bcd60e51b815260040161094090613fd6565b6000612087612286565b90506120a781878761209888612d8d565b6120a188612d8d565b8761242b565b600084815260c9602090815260408083206001600160a01b038a168452909152902054838110156120ea5760405162461bcd60e51b8152600401610940906140fe565b6120f484826141f8565b600086815260c9602090815260408083206001600160a01b038c81168552925280832093909355881681529081208054869290612132908490614179565b92505081905550856001600160a01b0316876001600160a01b0316836001600160a01b03166000805160206143c58339815191528888604051612176929190614148565b60405180910390a461218c828888888888612de6565b50505050505050565b6001600160a01b0383166121bb5760405162461bcd60e51b81526004016109409061401f565b6121c3612286565b6001600160a01b0316846001600160a01b031614806121e957506121e984610893612286565b6122055760405162461bcd60e51b815260040161094090613fd6565b61183a84848484612a60565b60006001600160e01b03198216636cdb3d1360e11b148061224257506001600160e01b031982166303a24d0760e21b145b8061096e57506301ffc9a760e01b6001600160e01b031983161461096e565b60006001600160e01b03198216637965db0b60e01b148061096e575061096e82612211565b6000612290612eb0565b905090565b8051610fd49060cb9060208401906135e5565b6001600160a01b03831661230a5760405162461bcd60e51b815260206004820152602360248201527f455243313135353a206275726e2066726f6d20746865207a65726f206164647260448201526265737360e81b6064820152608401610940565b6000612314612286565b90506123448185600061232687612d8d565b61232f87612d8d565b6040518060200160405280600081525061242b565b600083815260c9602090815260408083206001600160a01b0388168452909152902054828110156123c35760405162461bcd60e51b8152602060048201526024808201527f455243313135353a206275726e20616d6f756e7420657863656564732062616c604482015263616e636560e01b6064820152608401610940565b6123cd83826141f8565b600085815260c9602090815260408083206001600160a01b03808b16808652919093528184209490945551919291908516906000805160206143c58339815191529061241c9089908990614148565b60405180910390a45050505050565b60005b835181101561218c576124928685838151811061245b57634e487b7160e01b600052603260045260246000fd5b6020026020010151600086858151811061248557634e487b7160e01b600052603260045260246000fd5b6020026020010151612951565b5061249c816142b9565b905061242e565b6001600160a01b0384163b15610f1e5760405163bc197c8160e01b81526001600160a01b0385169063bc197c81906124e79089908990889088908890600401613e4d565b602060405180830381600087803b15801561250157600080fd5b505af1925050508015612531575060408051601f3d908101601f1916820190925261252e91810190613be1565b60015b6125de5761253d614300565b806308c379a014156125775750612552614317565b8061255d5750612579565b8060405162461bcd60e51b81526004016109409190613f7b565b505b60405162461bcd60e51b815260206004820152603460248201527f455243313135353a207472616e7366657220746f206e6f6e20455243313135356044820152732932b1b2b4bb32b91034b6b83632b6b2b73a32b960611b6064820152608401610940565b6001600160e01b0319811663bc197c8160e01b1461218c5760405162461bcd60e51b815260040161094090613f8e565b6126188282611607565b610fd457612630816001600160a01b03166014612ed5565b61263b836020612ed5565b60405160200161264c929190613dca565b60408051601f198184030181529082905262461bcd60e51b825261094091600401613f7b565b61267c8282611607565b610fd457600082815260fb602090815260408083206001600160a01b03851684529091529020805460ff191660011790556126b5612286565b6001600160a01b0316816001600160a01b0316837f2f8788117e7eff1d82e926ec794901d17c78024a50270940304540a733656f0d60405160405180910390a45050565b6127038282611607565b15610fd457600082815260fb602090815260408083206001600160a01b03851684529091529020805460ff1916905561273a612286565b6001600160a01b0316816001600160a01b0316837ff6391f5c32d9c69d2a47ea670b442974b53935d1edc7fd64eb21e047a839171b60405160405180910390a45050565b612789600033611607565b6109dd5760405162461bcd60e51b815260206004820152600a60248201526927b7363c9020b236b4b760b11b6044820152606401610940565b60006127cc6130b6565b90506127d7846130d2565b6000835111806127e45750815b156127f5576127f38484613165565b505b7f4910fdfa16fed3260ed0e7147f7cc6da11a60208b5b9406d12a635614ffd9143805460ff1661293757805460ff19166001178155604051612870908690612841908590602401613e39565b60408051601f198184030181529190526020810180516001600160e01b0316631b2ce7f360e11b179052613165565b50805460ff191681556128816130b6565b6001600160a01b0316826001600160a01b0316146128f95760405162461bcd60e51b815260206004820152602f60248201527f45524331393637557067726164653a207570677261646520627265616b73206660448201526e75727468657220757067726164657360881b6064820152608401610940565b612902856130d2565b6040516001600160a01b038616907fbc7cd75a20ee27fd9adebab32041f755214dbc6bffa90cc0225b39da2e5c2d3b90600090a25b5050505050565b60601c6001600160a01b03919091161490565b6000836129605750600061158c565b61297860008051602061448c83398151915233611607565b156129855750600061158c565b600080600080612995898961293e565b905080156129d7576000888152610131602090815260408083205461013283528184205461013090935292205491955093506001600160a01b03169150612a0d565b6000888152610134602090815260408083205461013583528184205461013390935292205491955093506001600160a01b031691505b6000612710612a1c868a6141d9565b612a2691906141b9565b905083811015612a335750825b6000612a3f88836141d9565b90508015612a5257612a528b8583613247565b9a9950505050505050505050565b600082815260c9602090815260408083206001600160a01b038816845290915290205481811015612aa35760405162461bcd60e51b8152600401610940906140fe565b612aad82826141f8565b600084815260c9602090815260408083206001600160a01b038a81168552925280832093909355861681529081208054849290612aeb908490614179565b9091555060009050612afb612286565b9050846001600160a01b0316866001600160a01b0316826001600160a01b03166000805160206143c58339815191528787604051612b3a929190614148565b60405180910390a4505050505050565b6001600160a01b038316600090815261012e602052604081205463ffffffff16612b75816001614191565b6001600160a01b038616600090815261012e60205260408120805463ffffffff191663ffffffff9390931692909217909155612bb28683876110e7565b90506000856001600160401b031611612bca57600080fd5b612bdf8682876001600160401b031687612c83565b95945050505050565b612bf061332a565b565b612bfe836000836122a8565b61012d5460405163a9059cbb60e01b81526001600160a01b039091169063a9059cbb90612c319085908590600401613ef0565b602060405180830381600087803b158015612c4b57600080fd5b505af1158015612c5f573d6000803e3d6000fd5b505050506040513d601f19601f8201168201806040525081019061183a9190613b6f565b6001600160a01b038416612ce35760405162461bcd60e51b815260206004820152602160248201527f455243313135353a206d696e7420746f20746865207a65726f206164647265736044820152607360f81b6064820152608401610940565b6000612ced612286565b9050612cff8160008761209888612d8d565b600084815260c9602090815260408083206001600160a01b038916845290915281208054859290612d31908490614179565b92505081905550846001600160a01b031660006001600160a01b0316826001600160a01b03166000805160206143c58339815191528787604051612d76929190614148565b60405180910390a461293781600087878787612de6565b60408051600180825281830190925260609160009190602080830190803683370190505090508281600081518110612dd557634e487b7160e01b600052603260045260246000fd5b602090810291909101015292915050565b6001600160a01b0384163b15610f1e5760405163f23a6e6160e01b81526001600160a01b0385169063f23a6e6190612e2a9089908990889088908890600401613eab565b602060405180830381600087803b158015612e4457600080fd5b505af1925050508015612e74575060408051601f3d908101601f19168201909252612e7191810190613be1565b60015b612e805761253d614300565b6001600160e01b0319811663f23a6e6160e01b1461218c5760405162461bcd60e51b815260040161094090613f8e565b6000612ebb336114ce565b15612ecd575060131936013560601c90565b503390565b90565b60606000612ee48360026141d9565b612eef906002614179565b6001600160401b03811115612f1457634e487b7160e01b600052604160045260246000fd5b6040519080825280601f01601f191660200182016040528015612f3e576020820181803683370190505b509050600360fc1b81600081518110612f6757634e487b7160e01b600052603260045260246000fd5b60200101906001600160f81b031916908160001a905350600f60fb1b81600181518110612fa457634e487b7160e01b600052603260045260246000fd5b60200101906001600160f81b031916908160001a9053506000612fc88460026141d9565b612fd3906001614179565b90505b6001811115613067576f181899199a1a9b1b9c1cb0b131b232b360811b85600f166010811061301557634e487b7160e01b600052603260045260246000fd5b1a60f81b82828151811061303957634e487b7160e01b600052603260045260246000fd5b60200101906001600160f81b031916908160001a90535060049490941c936130608161423b565b9050612fd6565b5083156111115760405162461bcd60e51b815260206004820181905260248201527f537472696e67733a20686578206c656e67746820696e73756666696369656e746044820152606401610940565b6000805160206143e5833981519152546001600160a01b031690565b803b6131365760405162461bcd60e51b815260206004820152602d60248201527f455243313936373a206e657720696d706c656d656e746174696f6e206973206e60448201526c1bdd08184818dbdb9d1c9858dd609a1b6064820152608401610940565b6000805160206143e583398151915280546001600160a01b0319166001600160a01b0392909216919091179055565b6060823b6131c45760405162461bcd60e51b815260206004820152602660248201527f416464726573733a2064656c65676174652063616c6c20746f206e6f6e2d636f6044820152651b9d1c9858dd60d21b6064820152608401610940565b600080846001600160a01b0316846040516131df9190613dae565b600060405180830381855af49150503d806000811461321a576040519150601f19603f3d011682016040523d82523d6000602084013e61321f565b606091505b5091509150612bdf828260405180606001604052806027815260200161440560279139613332565b6001600160a01b038316600090815260008051602061446c83398151915260205260409020548181101561328d5760405162461bcd60e51b8152600401610940906140fe565b61329782826141f8565b6001600160a01b03858116600090815260008051602061446c833981519152602052604080822093909355908516815290812080548492906132da908490614179565b90915550600090506132ea612286565b9050836001600160a01b0316856001600160a01b0316826001600160a01b03166000805160206143c583398151915260008760405161241c929190614148565b612bf061336b565b60608315613341575081611111565b8251156133515782518084602001fd5b8160405162461bcd60e51b81526004016109409190613f7b565b612bf0612bf0612bf0612bf0612bf061339b6040518060600160405280603381526020016144ac603391396133a3565b612bf0613428565b600054610100900460ff16806133bc575060005460ff16155b6133d85760405162461bcd60e51b8152600401610940906140b0565b600054610100900460ff161580156133fa576000805461ffff19166101011790555b613402613430565b61340a613430565b6134138261349a565b8015610fd4576000805461ff00191690555050565b612bf06134fa565b600054610100900460ff1680613449575060005460ff16155b6134655760405162461bcd60e51b8152600401610940906140b0565b600054610100900460ff161580156115f3576000805461ffff191661010117905580156109dd576000805461ff001916905550565b600054610100900460ff16806134b3575060005460ff16155b6134cf5760405162461bcd60e51b8152600401610940906140b0565b600054610100900460ff161580156134f1576000805461ffff19166101011790555b61341382612295565b613502613515565b61350a61357c565b612bf06000336135db565b600054610100900460ff168061352e575060005460ff16155b61354a5760405162461bcd60e51b8152600401610940906140b0565b600054610100900460ff1615801561356c576000805461ffff19166101011790555b613574613430565b6115f3613430565b600054610100900460ff1680613595575060005460ff16155b6135b15760405162461bcd60e51b8152600401610940906140b0565b600054610100900460ff161580156135d3576000805461ffff19166101011790555b61356c613430565b610fd48282612672565b8280546135f190614252565b90600052602060002090601f0160209004810192826136135760008555613659565b82601f1061362c57805160ff1916838001178555613659565b82800160010185558215613659579182015b8281111561365957825182559160200191906001019061363e565b50613665929150613669565b5090565b5b80821115613665576000815560010161366a565b60006001600160401b03831115613697576136976142ea565b6040516136ae601f8501601f19166020018261428d565b8091508381528484840111156136c357600080fd5b83836020830137600060208583010152509392505050565b80356001600160a01b03811681146136f257600080fd5b919050565b600082601f830112613707578081fd5b8135602061371482614156565b604051613721828261428d565b8381528281019150858301600585901b87018401881015613740578586fd5b855b8581101561375e57813584529284019290840190600101613742565b5090979650505050505050565b600082601f83011261377b578081fd5b6111118383356020850161367e565b80356001600160401b03811681146136f257600080fd5b6000602082840312156137b2578081fd5b611111826136db565b600080604083850312156137cd578081fd5b6137d6836136db565b91506137e4602084016136db565b90509250929050565b600080600080600060a08688031215613804578081fd5b61380d866136db565b945061381b602087016136db565b935060408601356001600160401b0380821115613836578283fd5b61384289838a016136f7565b94506060880135915080821115613857578283fd5b61386389838a016136f7565b93506080880135915080821115613878578283fd5b506138858882890161376b565b9150509295509295909350565b600080600080608085870312156138a7578384fd5b6138b0856136db565b93506138be602086016136db565b93969395505050506040820135916060013590565b600080600080600060a086880312156138ea578081fd5b6138f3866136db565b9450613901602087016136db565b9350604086013592506060860135915060808601356001600160401b03811115613929578182fd5b6138858882890161376b565b600080600080600060a0868803121561394c578283fd5b613955866136db565b9450613963602087016136db565b94979496505050506040830135926060810135926080909101359150565b60008060408385031215613993578182fd5b61399c836136db565b915060208301356139ac816143a0565b809150509250929050565b600080604083850312156139c9578182fd5b6139d2836136db565b915060208301356001600160401b038111156139ec578182fd5b6139f88582860161376b565b9150509250929050565b60008060408385031215613a14578182fd5b613a1d836136db565b946020939093013593505050565b60008060008060808587031215613a40578182fd5b613a49856136db565b966020860135965060408601359560600135945092505050565b600080600060608486031215613a77578081fd5b613a80846136db565b9250602084013563ffffffff81168114613a98578182fd5b9150613aa66040850161378a565b90509250925092565b60008060408385031215613ac1578182fd5b82356001600160401b0380821115613ad7578384fd5b818501915085601f830112613aea578384fd5b81356020613af782614156565b604051613b04828261428d565b8381528281019150858301600585901b870184018b1015613b23578889fd5b8896505b84871015613b4c57613b38816136db565b835260019690960195918301918301613b27565b5096505086013592505080821115613b62578283fd5b506139f8858286016136f7565b600060208284031215613b80578081fd5b8151611111816143a0565b600060208284031215613b9c578081fd5b5035919050565b60008060408385031215613bb5578182fd5b823591506137e4602084016136db565b600060208284031215613bd6578081fd5b8135611111816143ae565b600060208284031215613bf2578081fd5b8151611111816143ae565b600060208284031215613c0e578081fd5b81356001600160401b03811115613c23578182fd5b8201601f81018413613c33578182fd5b61158c8482356020840161367e565b600080600080600080600060e0888a031215613c5c578485fd5b87359650613c6c602089016136db565b95506040880135945060608801359350613c88608089016136db565b925060a0880135915060c0880135905092959891949750929550565b60008060408385031215613cb6578182fd5b50508035926020909101359150565b60008060408385031215613cd7578182fd5b6139d28361378a565b6000815180845260208085019450808401835b83811015613d0f57815187529582019590820190600101613cf3565b509495945050505050565b60008151808452613d3281602086016020860161420f565b601f01601f19169290920160200192915050565b825160009082906020808701845b83811015613d795781516001600160a01b031685529382019390820190600101613d54565b50508551818701939250845b81811015613da157845184529382019392820192600101613d85565b5091979650505050505050565b60008251613dc081846020870161420f565b9190910192915050565b76020b1b1b2b9b9a1b7b73a3937b61d1030b1b1b7bab73a1604d1b815260008351613dfc81601785016020880161420f565b7001034b99036b4b9b9b4b733903937b6329607d1b6017918401918201528351613e2d81602884016020880161420f565b01602801949350505050565b6001600160a01b0391909116815260200190565b6001600160a01b0386811682528516602082015260a060408201819052600090613e7990830186613ce0565b8281036060840152613e8b8186613ce0565b90508281036080840152613e9f8185613d1a565b98975050505050505050565b6001600160a01b03868116825285166020820152604081018490526060810183905260a060808201819052600090613ee590830184613d1a565b979650505050505050565b6001600160a01b03929092168252602082015260400190565b6001600160a01b0396871681526020810195909552604085019390935293166060830152608082019290925260a081019190915260c00190565b6020815260006111116020830184613ce0565b604081526000613f696040830185613ce0565b8281036020840152612bdf8185613ce0565b6020815260006111116020830184613d1a565b60208082526028908201527f455243313135353a204552433131353552656365697665722072656a656374656040820152676420746f6b656e7360c01b606082015260800190565b60208082526029908201527f455243313135353a2063616c6c6572206973206e6f74206f776e6572206e6f7260408201526808185c1c1c9bdd995960ba1b606082015260800190565b60208082526025908201527f455243313135353a207472616e7366657220746f20746865207a65726f206164604082015264647265737360d81b606082015260800190565b6020808252602c908201527f546865206163636f756e74206d757374206e6f7420626520302c20756e6c657360408201526b07320666565732061726520360a41b606082015260800190565b6020808252602e908201527f496e697469616c697a61626c653a20636f6e747261637420697320616c72656160408201526d191e481a5b9a5d1a585b1a5e995960921b606082015260800190565b6020808252602a908201527f455243313135353a20696e73756666696369656e742062616c616e636520666f60408201526939103a3930b739b332b960b11b606082015260800190565b918252602082015260400190565b60006001600160401b0382111561416f5761416f6142ea565b5060051b60200190565b6000821982111561418c5761418c6142d4565b500190565b600063ffffffff8083168185168083038211156141b0576141b06142d4565b01949350505050565b6000826141d457634e487b7160e01b81526012600452602481fd5b500490565b60008160001904831182151516156141f3576141f36142d4565b500290565b60008282101561420a5761420a6142d4565b500390565b60005b8381101561422a578181015183820152602001614212565b8381111561183a5750506000910152565b60008161424a5761424a6142d4565b506000190190565b600181811c9082168061426657607f821691505b6020821081141561428757634e487b7160e01b600052602260045260246000fd5b50919050565b601f8201601f191681016001600160401b03811182821017156142b2576142b26142ea565b6040525050565b60006000198214156142cd576142cd6142d4565b5060010190565b634e487b7160e01b600052601160045260246000fd5b634e487b7160e01b600052604160045260246000fd5b600060033d1115612ed257600481823e5160e01c90565b600060443d10156143255790565b6040516003193d81016004833e81513d6001600160401b03808311602484018310171561435457505050505090565b828501915081518181111561436c5750505050505090565b843d87010160208285010111156143865750505050505090565b6143956020828601018761428d565b509095945050505050565b80151581146109dd57600080fd5b6001600160e01b0319811681146109dd57600080fdfec3d58168c5ae7397731d063d5bbf3d657854427343f4c083240f7aacaa2d0f62360894a13ba1a3210667c828492db98dca3e2076cc3735a920a3ca505d382bbc416464726573733a206c6f772d6c6576656c2064656c65676174652063616c6c206661696c65643d2e894c222ba979e2dce2c7d940c0e9bb14306669e9f034eb1bb3979a2069d8626f510646502d065065e8bd550325973a611a32e6f6ddff40650005cb13636881fe90a866a48a634a12852c1be675b683a22307409932a7443b8029347be75620a4be6e7127e439f48d6654377d19402cb883dd85029e600de9e17052f903d368747470733a2f2f6170692e66726565706f72742e636572652e6e6574776f726b2f657263313135352f7b69647d2e6a736f6ea2646970667358221220605a98875a3cb7be8d63dccddddb28c27f72006713776bee220b0181c537279f64736f6c63430008040033",
  "immutableReferences": {},
  "source": "pragma solidity ^0.8.0;\n\nimport \"./freeportParts/SimpleExchange.sol\";\n\n/** Main contract, including all components.\n\n- Hold and transfer NFTs using ERC1155.\n- Support atomic exchanges of NFTs for currency.\n- Issuance of NFTs with fixed supply.\n- Joint Accounts that distribute their funds over multiple owners.\n- Capture royalties on primary and secondary transfers, configurable per NFT type.\n*/\ncontract Freeport is /*\n    ERC1155,\n    AccessControl,\n    MetaTxContext,\n    BaseNFT,\n    Currency,\n    TransferOperator,\n    ERC20Adapter,\n    Issuance,\n    JointAccounts,\n    TransferFees,\n    */ SimpleExchange {\n\n    /** Initialize this contract and its dependencies.\n     */\n    function initialize() public initializer {\n        __SimpleExchange_init();\n    }\n}\n",
  "sourcePath": "/home/a/CERE/Freeport-Smart-Contracts/contracts/Freeport.sol",
  "compiler": {
    "name": "solc",
    "version": "0.8.4+commit.c7e474f2.Emscripten.clang"
  },
  "schemaVersion": "3.4.9",
  "updatedAt": "2022-09-05T12:23:08.782Z",
  "devdoc": {
    "kind": "dev",
    "methods": {
      "balanceOf(address,uint256)": {
        "details": "See {IERC1155-balanceOf}. Requirements: - `account` cannot be the zero address."
      },
      "balanceOfBatch(address[],uint256[])": {
        "details": "See {IERC1155-balanceOfBatch}. Requirements: - `accounts` and `ids` must have the same length."
      },
      "getRoleAdmin(bytes32)": {
        "details": "Returns the admin role that controls `role`. See {grantRole} and {revokeRole}. To change a role's admin, use {_setRoleAdmin}."
      },
      "grantRole(bytes32,address)": {
        "details": "Grants `role` to `account`. If `account` had not been already granted `role`, emits a {RoleGranted} event. Requirements: - the caller must have ``role``'s admin role."
      },
      "hasRole(bytes32,address)": {
        "details": "Returns `true` if `account` has been granted `role`."
      },
      "renounceRole(bytes32,address)": {
        "details": "Revokes `role` from the calling account. Roles are often managed via {grantRole} and {revokeRole}: this function's purpose is to provide a mechanism for accounts to lose their privileges if they are compromised (such as when a trusted device is misplaced). If the calling account had been granted `role`, emits a {RoleRevoked} event. Requirements: - the caller must be `account`."
      },
      "revokeRole(bytes32,address)": {
        "details": "Revokes `role` from `account`. If `account` had been granted `role`, emits a {RoleRevoked} event. Requirements: - the caller must have ``role``'s admin role."
      },
      "safeBatchTransferFrom(address,address,uint256[],uint256[],bytes)": {
        "details": "See {IERC1155-safeBatchTransferFrom}."
      },
      "safeTransferFrom(address,address,uint256,uint256,bytes)": {
        "details": "See {IERC1155-safeTransferFrom}."
      },
      "setApprovalForAll(address,bool)": {
        "details": "See {IERC1155-setApprovalForAll}."
      },
      "uri(uint256)": {
        "details": "See {IERC1155MetadataURI-uri}. This implementation returns the same URI for *all* token types. It relies on the token type ID substitution mechanism https://eips.ethereum.org/EIPS/eip-1155#metadata[defined in the EIP]. Clients calling this function must replace the `\\{id\\}` substring with the actual token type ID."
      }
    },
    "version": 1
  },
  "userdoc": {
    "events": {
      "JointAccountShareCreated(address,address,uint256)": {
        "notice": "Notify that a Joint Account was created at the address `account`. One such event is emitted for each owner, including his fraction of the account in basis points (1% of 1%)."
      },
      "MakeOffer(address,uint256,uint256)": {
        "notice": "An event emitted when an account `seller` has offered to sell a type of NFT at a given price. This replaces previous offers by the same seller on the same NFT ID, if any. A price of 0 means \"no offer\" and the previous offer is cancelled. An offer does not imply that the seller owns any amount of this NFT. An offer remains valid until cancelled, for the entire balance at a given time, regardless of incoming and outgoing transfers on the seller account."
      },
      "RoyaltiesConfigured(uint256,address,uint256,uint256,address,uint256,uint256)": {
        "notice": "Notify that royalties were configured on an NFT type."
      },
      "RoyaltiesLocked(uint256,uint256)": {
        "notice": "Notify that royalties are locked and cannot change, until the given time (in UNIX seconds), or forever (lockUntil = 0xFFFFFFFF)."
      },
      "TakeOffer(address,address,uint256,uint256,uint256)": {
        "notice": "An offer of `seller` was taken by `buyer`. The transfers of `amount` NFTs of type `nftId` against `amount * price` of CERE Units were executed."
      }
    },
    "kind": "user",
    "methods": {
      "BASIS_POINTS()": {
        "notice": "The total fraction representing 100% of an account."
      },
      "CURRENCY()": {
        "notice": "The token ID that represents the internal currency for all payments in this contract. "
      },
      "balanceOfJAOwner(address,address)": {
        "notice": "Calculate the amount of tokens that an owner of a Joint Account can withdraw right now."
      },
      "captureFee(address,uint256,uint256,uint256)": {
        "notice": "Collect the royalty due on a transfer. The royalty is calculated based on NFT configuration and the price. It is collected by an internal transfer of currency between \"from\" and the beneficiary. Return the amount collected. The caller must be approved by \"from\", or a TRANSFER_OPERATOR."
      },
      "configureRoyalties(uint256,address,uint256,uint256,address,uint256,uint256)": {
        "notice": "Configure the amounts and beneficiaries of royalties on primary and secondary transfers of this NFT. This configuration is available to the issuer of this NFT. A transfer is primary if it comes from the issuer of this NFT (normally the first sale after issuance). Otherwise, it is a secondary transfer. A royalty is defined in two parts (both optional): a cut of the sale price of an NFT, and a minimum royalty per transfer. For simple transfers not attached to a price, or a too low price, the minimum royalty is charged. The cuts are given in basis points (1% of 1%). The minimums are given in currency amounts. The configuration can be changed at any time by default. However, the issuer may commit to it for a period of time, effectively giving up his ability to modify the royalties. See the function lockRoyalties. There can be one beneficiary account for each primary and secondary royalties. To distribute revenues amongst several parties, use a Joint Account (see function createJointAccount)."
      },
      "createJointAccount(address[],uint256[])": {
        "notice": "Create an account such that multiple owners have a claim on their respective share. The size of a share is given as a fraction in basis points (1% of 1%). The sum of share fractions must equal 10,000. Anyone can create Joint Accounts including any owners."
      },
      "currencyContract()": {
        "notice": "The address of ERC-20 token's contract"
      },
      "deposit(uint256)": {
        "notice": "Deposit currency from ERC20 into the internal currency. This requires payer to approve deposit."
      },
      "distributeJointAccount(address)": {
        "notice": "Distribute all tokens available to all owners of a Joint Account. The function createJointAccount must be called beforehand. Anyone can trigger the distribution."
      },
      "fractionOfJAOwner(address,address)": {
        "notice": "Return the fraction of an account owned by the given address, in basis points (1% of 1%). If the account does not exist, or if the given address is not an owner of it, this returns 0. If the owner appears more than once in the account, this reports only the first share."
      },
      "getNftId(address,uint32,uint64)": {
        "notice": "Calculate the ID of an NFT type, identifying its issuer, its supply, and an arbitrary nonce."
      },
      "getOffer(address,uint256)": {
        "notice": "Return the price offered by the given seller for the given NFT type."
      },
      "getRoyalties(uint256)": {
        "notice": "Return the current configuration of royalties for NFTs of type nftId, as set by configureRoyalties."
      },
      "getRoyaltiesForBeneficiary(uint256,address)": {
        "notice": "Return the amount of royalties earned by a beneficiary on each primary and secondary transfer of an NFT. This function supports Joint Accounts. If royalties are paid to a JA and beneficiary is an owner of the JA, the shares of the royalties for this owner are returned."
      },
      "initialize()": {
        "notice": "Initialize this contract and its dependencies."
      },
      "isApprovedForAll(address,address)": {
        "notice": "Return true for operators with the role TRANSFER_OPERATOR. Otherwise, apply the standard approval logic of ERC1155. See {IERC1155-isApprovedForAll}."
      },
      "issuanceNonces(address)": {
        "notice": "A counter of NFT types issued by each issuer. This is used to generate unique NFT IDs."
      },
      "issue(uint64,bytes)": {
        "notice": "Issue a supply of NFTs of a new type, and return its ID. No more NFT of this type can be issued again. The caller will be recorded as the issuer and it will initially own the entire supply."
      },
      "lockRoyalties(uint256,uint256)": {
        "notice": "Lock the configuration of royalties for this NFT type. Only the issuer may lock the configuration, after which he himself will no longer be able to change the configuration, for some time, or forever. Set lockUntil to a time in the future to lock the configuration until the specified time (in UNIX seconds). Set to 0xFFFFFFFF to lock forever."
      },
      "makeAddressOfJointAccount(address[],uint256[])": {
        "notice": "Generate a unique address identifying a list of owners and shares. It may be used to predict the address of a Joint Account and receive payments even before calling the function createJointAccount."
      },
      "makeOffer(uint256,uint256)": {
        "notice": "Create an offer to sell a type of NFTs for a price per unit. All the NFTs of this type owned by the caller will be for sale. To cancel, call again with a price of 0."
      },
      "setERC20(address)": {
        "notice": "Sets token's contract address. This token is used to deposit and withdraw on chain adapter's contract is deployed."
      },
      "supportsInterface(bytes4)": {
        "notice": "Supports interfaces of AccessControl, ERC1155, and ERC1155 MetadataURI."
      },
      "takeOffer(address,address,uint256,uint256,uint256)": {
        "notice": "Accept an offer, paying the price per unit for an amount of NFTs. The offer must have been created beforehand by makeOffer. The sender pays ERC20. The sender is not necessarily the same as buyer, see FiatGateway. The seller receives internal currency (equivalent to the ERC20 payment, see the function withdraw). The buyer receives the NFT. The parameter expectedPriceOrZero can be used to validate the price that the buyer expects to pay. This prevents a race condition with makeOffer or setExchangeRate. Pass 0 to disable this validation and accept any current price."
      },
      "transferFrom(address,address,uint256,uint256)": {
        "notice": "transferFrom performs a simple transfer, without calling the hooks  (no _beforeTokenTransfer and no onERC1155Received)."
      },
      "withdraw(uint256)": {
        "notice": "Withdraw currency from internal to ERC20"
      }
    },
    "notice": "Main contract, including all components. - Hold and transfer NFTs using ERC1155. - Support atomic exchanges of NFTs for currency. - Issuance of NFTs with fixed supply. - Joint Accounts that distribute their funds over multiple owners. - Capture royalties on primary and secondary transfers, configurable per NFT type.",
    "version": 1
  }
}