{
  "contractName": "Freeport",
  "abi": [
    {
      "anonymous": false,
      "inputs": [
        {
          "indexed": true,
          "internalType": "address",
          "name": "account",
          "type": "address"
        },
        {
          "indexed": true,
          "internalType": "address",
          "name": "operator",
          "type": "address"
        },
        {
          "indexed": false,
          "internalType": "bool",
          "name": "approved",
          "type": "bool"
        }
      ],
      "name": "ApprovalForAll",
      "type": "event"
    },
    {
      "anonymous": false,
      "inputs": [
        {
          "indexed": true,
          "internalType": "address",
          "name": "account",
          "type": "address"
        },
        {
          "indexed": true,
          "internalType": "address",
          "name": "owner",
          "type": "address"
        },
        {
          "indexed": false,
          "internalType": "uint256",
          "name": "fraction",
          "type": "uint256"
        }
      ],
      "name": "JointAccountShareCreated",
      "type": "event"
    },
    {
      "anonymous": false,
      "inputs": [
        {
          "indexed": true,
          "internalType": "address",
          "name": "seller",
          "type": "address"
        },
        {
          "indexed": true,
          "internalType": "uint256",
          "name": "nftId",
          "type": "uint256"
        },
        {
          "indexed": false,
          "internalType": "uint256",
          "name": "price",
          "type": "uint256"
        }
      ],
      "name": "MakeOffer",
      "type": "event"
    },
    {
      "anonymous": false,
      "inputs": [
        {
          "indexed": true,
          "internalType": "bytes32",
          "name": "role",
          "type": "bytes32"
        },
        {
          "indexed": true,
          "internalType": "bytes32",
          "name": "previousAdminRole",
          "type": "bytes32"
        },
        {
          "indexed": true,
          "internalType": "bytes32",
          "name": "newAdminRole",
          "type": "bytes32"
        }
      ],
      "name": "RoleAdminChanged",
      "type": "event"
    },
    {
      "anonymous": false,
      "inputs": [
        {
          "indexed": true,
          "internalType": "bytes32",
          "name": "role",
          "type": "bytes32"
        },
        {
          "indexed": true,
          "internalType": "address",
          "name": "account",
          "type": "address"
        },
        {
          "indexed": true,
          "internalType": "address",
          "name": "sender",
          "type": "address"
        }
      ],
      "name": "RoleGranted",
      "type": "event"
    },
    {
      "anonymous": false,
      "inputs": [
        {
          "indexed": true,
          "internalType": "bytes32",
          "name": "role",
          "type": "bytes32"
        },
        {
          "indexed": true,
          "internalType": "address",
          "name": "account",
          "type": "address"
        },
        {
          "indexed": true,
          "internalType": "address",
          "name": "sender",
          "type": "address"
        }
      ],
      "name": "RoleRevoked",
      "type": "event"
    },
    {
      "anonymous": false,
      "inputs": [
        {
          "indexed": true,
          "internalType": "uint256",
          "name": "nftId",
          "type": "uint256"
        },
        {
          "indexed": false,
          "internalType": "address",
          "name": "primaryRoyaltyAccount",
          "type": "address"
        },
        {
          "indexed": false,
          "internalType": "uint256",
          "name": "primaryRoyaltyCut",
          "type": "uint256"
        },
        {
          "indexed": false,
          "internalType": "uint256",
          "name": "primaryRoyaltyMinimum",
          "type": "uint256"
        },
        {
          "indexed": false,
          "internalType": "address",
          "name": "secondaryRoyaltyAccount",
          "type": "address"
        },
        {
          "indexed": false,
          "internalType": "uint256",
          "name": "secondaryRoyaltyCut",
          "type": "uint256"
        },
        {
          "indexed": false,
          "internalType": "uint256",
          "name": "secondaryRoyaltyMinimum",
          "type": "uint256"
        }
      ],
      "name": "RoyaltiesConfigured",
      "type": "event"
    },
    {
      "anonymous": false,
      "inputs": [
        {
          "indexed": true,
          "internalType": "uint256",
          "name": "nftId",
          "type": "uint256"
        },
        {
          "indexed": false,
          "internalType": "uint256",
          "name": "lockUntil",
          "type": "uint256"
        }
      ],
      "name": "RoyaltiesLocked",
      "type": "event"
    },
    {
      "anonymous": false,
      "inputs": [
        {
          "indexed": true,
          "internalType": "address",
          "name": "buyer",
          "type": "address"
        },
        {
          "indexed": true,
          "internalType": "address",
          "name": "seller",
          "type": "address"
        },
        {
          "indexed": true,
          "internalType": "uint256",
          "name": "nftId",
          "type": "uint256"
        },
        {
          "indexed": false,
          "internalType": "uint256",
          "name": "price",
          "type": "uint256"
        },
        {
          "indexed": false,
          "internalType": "uint256",
          "name": "amount",
          "type": "uint256"
        }
      ],
      "name": "TakeOffer",
      "type": "event"
    },
    {
      "anonymous": false,
      "inputs": [
        {
          "indexed": true,
          "internalType": "address",
          "name": "from",
          "type": "address"
        },
        {
          "indexed": true,
          "internalType": "address",
          "name": "to",
          "type": "address"
        },
        {
          "indexed": false,
          "internalType": "uint256",
          "name": "value",
          "type": "uint256"
        }
      ],
      "name": "Transfer",
      "type": "event"
    },
    {
      "anonymous": false,
      "inputs": [
        {
          "indexed": true,
          "internalType": "address",
          "name": "operator",
          "type": "address"
        },
        {
          "indexed": true,
          "internalType": "address",
          "name": "from",
          "type": "address"
        },
        {
          "indexed": true,
          "internalType": "address",
          "name": "to",
          "type": "address"
        },
        {
          "indexed": false,
          "internalType": "uint256[]",
          "name": "ids",
          "type": "uint256[]"
        },
        {
          "indexed": false,
          "internalType": "uint256[]",
          "name": "values",
          "type": "uint256[]"
        }
      ],
      "name": "TransferBatch",
      "type": "event"
    },
    {
      "anonymous": false,
      "inputs": [
        {
          "indexed": true,
          "internalType": "address",
          "name": "operator",
          "type": "address"
        },
        {
          "indexed": true,
          "internalType": "address",
          "name": "from",
          "type": "address"
        },
        {
          "indexed": true,
          "internalType": "address",
          "name": "to",
          "type": "address"
        },
        {
          "indexed": false,
          "internalType": "uint256",
          "name": "id",
          "type": "uint256"
        },
        {
          "indexed": false,
          "internalType": "uint256",
          "name": "value",
          "type": "uint256"
        }
      ],
      "name": "TransferSingle",
      "type": "event"
    },
    {
      "anonymous": false,
      "inputs": [
        {
          "indexed": false,
          "internalType": "string",
          "name": "value",
          "type": "string"
        },
        {
          "indexed": true,
          "internalType": "uint256",
          "name": "id",
          "type": "uint256"
        }
      ],
      "name": "URI",
      "type": "event"
    },
    {
      "inputs": [],
      "name": "BASIS_POINTS",
      "outputs": [
        {
          "internalType": "uint256",
          "name": "",
          "type": "uint256"
        }
      ],
      "stateMutability": "view",
      "type": "function",
      "constant": true
    },
    {
      "inputs": [],
      "name": "BYPASS_SENDER",
      "outputs": [
        {
          "internalType": "bytes32",
          "name": "",
          "type": "bytes32"
        }
      ],
      "stateMutability": "view",
      "type": "function",
      "constant": true
    },
    {
      "inputs": [],
      "name": "CURRENCY",
      "outputs": [
        {
          "internalType": "uint256",
          "name": "",
          "type": "uint256"
        }
      ],
      "stateMutability": "view",
      "type": "function",
      "constant": true
    },
    {
      "inputs": [],
      "name": "CURRENCY_SUPPLY",
      "outputs": [
        {
          "internalType": "uint256",
          "name": "",
          "type": "uint256"
        }
      ],
      "stateMutability": "view",
      "type": "function",
      "constant": true
    },
    {
      "inputs": [],
      "name": "DEFAULT_ADMIN_ROLE",
      "outputs": [
        {
          "internalType": "bytes32",
          "name": "",
          "type": "bytes32"
        }
      ],
      "stateMutability": "view",
      "type": "function",
      "constant": true
    },
    {
      "inputs": [],
      "name": "MAX_JOINT_ACCOUNT_SHARES",
      "outputs": [
        {
          "internalType": "uint256",
          "name": "",
          "type": "uint256"
        }
      ],
      "stateMutability": "view",
      "type": "function",
      "constant": true
    },
    {
      "inputs": [],
      "name": "META_TX_FORWARDER",
      "outputs": [
        {
          "internalType": "bytes32",
          "name": "",
          "type": "bytes32"
        }
      ],
      "stateMutability": "view",
      "type": "function",
      "constant": true
    },
    {
      "inputs": [],
      "name": "TRANSFER_OPERATOR",
      "outputs": [
        {
          "internalType": "bytes32",
          "name": "",
          "type": "bytes32"
        }
      ],
      "stateMutability": "view",
      "type": "function",
      "constant": true
    },
    {
      "inputs": [
        {
          "internalType": "address",
          "name": "account",
          "type": "address"
        },
        {
          "internalType": "uint256",
          "name": "id",
          "type": "uint256"
        }
      ],
      "name": "balanceOf",
      "outputs": [
        {
          "internalType": "uint256",
          "name": "",
          "type": "uint256"
        }
      ],
      "stateMutability": "view",
      "type": "function",
      "constant": true
    },
    {
      "inputs": [
        {
          "internalType": "address[]",
          "name": "accounts",
          "type": "address[]"
        },
        {
          "internalType": "uint256[]",
          "name": "ids",
          "type": "uint256[]"
        }
      ],
      "name": "balanceOfBatch",
      "outputs": [
        {
          "internalType": "uint256[]",
          "name": "",
          "type": "uint256[]"
        }
      ],
      "stateMutability": "view",
      "type": "function",
      "constant": true
    },
    {
      "inputs": [
        {
          "internalType": "address",
          "name": "account",
          "type": "address"
        },
        {
          "internalType": "address",
          "name": "owner",
          "type": "address"
        }
      ],
      "name": "balanceOfJAOwner",
      "outputs": [
        {
          "internalType": "uint256",
          "name": "",
          "type": "uint256"
        }
      ],
      "stateMutability": "view",
      "type": "function",
      "constant": true
    },
    {
      "inputs": [
        {
          "internalType": "address",
          "name": "from",
          "type": "address"
        },
        {
          "internalType": "uint256",
          "name": "nftId",
          "type": "uint256"
        },
        {
          "internalType": "uint256",
          "name": "price",
          "type": "uint256"
        },
        {
          "internalType": "uint256",
          "name": "amount",
          "type": "uint256"
        }
      ],
      "name": "captureFee",
      "outputs": [
        {
          "internalType": "uint256",
          "name": "",
          "type": "uint256"
        }
      ],
      "stateMutability": "nonpayable",
      "type": "function"
    },
    {
      "inputs": [],
      "name": "childChainManagerProxy",
      "outputs": [
        {
          "internalType": "address",
          "name": "",
          "type": "address"
        }
      ],
      "stateMutability": "view",
      "type": "function",
      "constant": true
    },
    {
      "inputs": [
        {
          "internalType": "uint256",
          "name": "nftId",
          "type": "uint256"
        },
        {
          "internalType": "address",
          "name": "primaryRoyaltyAccount",
          "type": "address"
        },
        {
          "internalType": "uint256",
          "name": "primaryRoyaltyCut",
          "type": "uint256"
        },
        {
          "internalType": "uint256",
          "name": "primaryRoyaltyMinimum",
          "type": "uint256"
        },
        {
          "internalType": "address",
          "name": "secondaryRoyaltyAccount",
          "type": "address"
        },
        {
          "internalType": "uint256",
          "name": "secondaryRoyaltyCut",
          "type": "uint256"
        },
        {
          "internalType": "uint256",
          "name": "secondaryRoyaltyMinimum",
          "type": "uint256"
        }
      ],
      "name": "configureRoyalties",
      "outputs": [],
      "stateMutability": "nonpayable",
      "type": "function"
    },
    {
      "inputs": [
        {
          "internalType": "address[]",
          "name": "owners",
          "type": "address[]"
        },
        {
          "internalType": "uint256[]",
          "name": "fractions",
          "type": "uint256[]"
        }
      ],
      "name": "createJointAccount",
      "outputs": [
        {
          "internalType": "address",
          "name": "",
          "type": "address"
        }
      ],
      "stateMutability": "nonpayable",
      "type": "function"
    },
    {
      "inputs": [],
      "name": "currencyInBridge",
      "outputs": [
        {
          "internalType": "uint256",
          "name": "",
          "type": "uint256"
        }
      ],
      "stateMutability": "view",
      "type": "function",
      "constant": true
    },
    {
      "inputs": [
        {
          "internalType": "address",
          "name": "user",
          "type": "address"
        },
        {
          "internalType": "bytes",
          "name": "depositData",
          "type": "bytes"
        }
      ],
      "name": "deposit",
      "outputs": [],
      "stateMutability": "nonpayable",
      "type": "function"
    },
    {
      "inputs": [
        {
          "internalType": "address",
          "name": "account",
          "type": "address"
        }
      ],
      "name": "distributeJointAccount",
      "outputs": [],
      "stateMutability": "nonpayable",
      "type": "function"
    },
    {
      "inputs": [
        {
          "internalType": "address",
          "name": "account",
          "type": "address"
        },
        {
          "internalType": "address",
          "name": "maybeOwner",
          "type": "address"
        }
      ],
      "name": "fractionOfJAOwner",
      "outputs": [
        {
          "internalType": "uint256",
          "name": "",
          "type": "uint256"
        }
      ],
      "stateMutability": "view",
      "type": "function",
      "constant": true
    },
    {
      "inputs": [
        {
          "internalType": "address",
          "name": "issuer",
          "type": "address"
        },
        {
          "internalType": "uint32",
          "name": "nonce",
          "type": "uint32"
        },
        {
          "internalType": "uint64",
          "name": "supply",
          "type": "uint64"
        }
      ],
      "name": "getNftId",
      "outputs": [
        {
          "internalType": "uint256",
          "name": "",
          "type": "uint256"
        }
      ],
      "stateMutability": "pure",
      "type": "function",
      "constant": true
    },
    {
      "inputs": [
        {
          "internalType": "address",
          "name": "seller",
          "type": "address"
        },
        {
          "internalType": "uint256",
          "name": "nftId",
          "type": "uint256"
        }
      ],
      "name": "getOffer",
      "outputs": [
        {
          "internalType": "uint256",
          "name": "",
          "type": "uint256"
        }
      ],
      "stateMutability": "view",
      "type": "function",
      "constant": true
    },
    {
      "inputs": [
        {
          "internalType": "bytes32",
          "name": "role",
          "type": "bytes32"
        }
      ],
      "name": "getRoleAdmin",
      "outputs": [
        {
          "internalType": "bytes32",
          "name": "",
          "type": "bytes32"
        }
      ],
      "stateMutability": "view",
      "type": "function",
      "constant": true
    },
    {
      "inputs": [
        {
          "internalType": "uint256",
          "name": "nftId",
          "type": "uint256"
        }
      ],
      "name": "getRoyalties",
      "outputs": [
        {
          "internalType": "address",
          "name": "primaryRoyaltyAccount",
          "type": "address"
        },
        {
          "internalType": "uint256",
          "name": "primaryRoyaltyCut",
          "type": "uint256"
        },
        {
          "internalType": "uint256",
          "name": "primaryRoyaltyMinimum",
          "type": "uint256"
        },
        {
          "internalType": "address",
          "name": "secondaryRoyaltyAccount",
          "type": "address"
        },
        {
          "internalType": "uint256",
          "name": "secondaryRoyaltyCut",
          "type": "uint256"
        },
        {
          "internalType": "uint256",
          "name": "secondaryRoyaltyMinimum",
          "type": "uint256"
        }
      ],
      "stateMutability": "view",
      "type": "function",
      "constant": true
    },
    {
      "inputs": [
        {
          "internalType": "uint256",
          "name": "nftId",
          "type": "uint256"
        },
        {
          "internalType": "address",
          "name": "beneficiary",
          "type": "address"
        }
      ],
      "name": "getRoyaltiesForBeneficiary",
      "outputs": [
        {
          "internalType": "uint256",
          "name": "primaryCut",
          "type": "uint256"
        },
        {
          "internalType": "uint256",
          "name": "primaryMinimum",
          "type": "uint256"
        },
        {
          "internalType": "uint256",
          "name": "secondaryCut",
          "type": "uint256"
        },
        {
          "internalType": "uint256",
          "name": "secondaryMinimum",
          "type": "uint256"
        }
      ],
      "stateMutability": "view",
      "type": "function",
      "constant": true
    },
    {
      "inputs": [
        {
          "internalType": "bytes32",
          "name": "role",
          "type": "bytes32"
        },
        {
          "internalType": "address",
          "name": "account",
          "type": "address"
        }
      ],
      "name": "grantRole",
      "outputs": [],
      "stateMutability": "nonpayable",
      "type": "function"
    },
    {
      "inputs": [
        {
          "internalType": "bytes32",
          "name": "role",
          "type": "bytes32"
        },
        {
          "internalType": "address",
          "name": "account",
          "type": "address"
        }
      ],
      "name": "hasRole",
      "outputs": [
        {
          "internalType": "bool",
          "name": "",
          "type": "bool"
        }
      ],
      "stateMutability": "view",
      "type": "function",
      "constant": true
    },
    {
      "inputs": [
        {
          "internalType": "address",
          "name": "account",
          "type": "address"
        },
        {
          "internalType": "address",
          "name": "operator",
          "type": "address"
        }
      ],
      "name": "isApprovedForAll",
      "outputs": [
        {
          "internalType": "bool",
          "name": "",
          "type": "bool"
        }
      ],
      "stateMutability": "view",
      "type": "function",
      "constant": true
    },
    {
      "inputs": [
        {
          "internalType": "address",
          "name": "forwarder",
          "type": "address"
        }
      ],
      "name": "isTrustedForwarder",
      "outputs": [
        {
          "internalType": "bool",
          "name": "",
          "type": "bool"
        }
      ],
      "stateMutability": "view",
      "type": "function",
      "constant": true
    },
    {
      "inputs": [
        {
          "internalType": "address",
          "name": "",
          "type": "address"
        }
      ],
      "name": "issuanceNonces",
      "outputs": [
        {
          "internalType": "uint32",
          "name": "",
          "type": "uint32"
        }
      ],
      "stateMutability": "view",
      "type": "function",
      "constant": true
    },
    {
      "inputs": [
        {
          "internalType": "uint64",
          "name": "supply",
          "type": "uint64"
        },
        {
          "internalType": "bytes",
          "name": "data",
          "type": "bytes"
        }
      ],
      "name": "issue",
      "outputs": [
        {
          "internalType": "uint256",
          "name": "",
          "type": "uint256"
        }
      ],
      "stateMutability": "nonpayable",
      "type": "function"
    },
    {
      "inputs": [
        {
          "internalType": "address",
          "name": "",
          "type": "address"
        },
        {
          "internalType": "uint256",
          "name": "",
          "type": "uint256"
        }
      ],
      "name": "jointAccounts",
      "outputs": [
        {
          "internalType": "address",
          "name": "owner",
          "type": "address"
        },
        {
          "internalType": "uint256",
          "name": "fraction",
          "type": "uint256"
        }
      ],
      "stateMutability": "view",
      "type": "function",
      "constant": true
    },
    {
      "inputs": [
        {
          "internalType": "uint256",
          "name": "nftId",
          "type": "uint256"
        },
        {
          "internalType": "uint256",
          "name": "lockUntil",
          "type": "uint256"
        }
      ],
      "name": "lockRoyalties",
      "outputs": [],
      "stateMutability": "nonpayable",
      "type": "function"
    },
    {
      "inputs": [
        {
          "internalType": "address[]",
          "name": "owners",
          "type": "address[]"
        },
        {
          "internalType": "uint256[]",
          "name": "fractions",
          "type": "uint256[]"
        }
      ],
      "name": "makeAddressOfJointAccount",
      "outputs": [
        {
          "internalType": "address",
          "name": "",
          "type": "address"
        }
      ],
      "stateMutability": "pure",
      "type": "function",
      "constant": true
    },
    {
      "inputs": [
        {
          "internalType": "uint256",
          "name": "nftId",
          "type": "uint256"
        },
        {
          "internalType": "uint256",
          "name": "price",
          "type": "uint256"
        }
      ],
      "name": "makeOffer",
      "outputs": [],
      "stateMutability": "nonpayable",
      "type": "function"
    },
    {
      "inputs": [
        {
          "internalType": "bytes32",
          "name": "role",
          "type": "bytes32"
        },
        {
          "internalType": "address",
          "name": "account",
          "type": "address"
        }
      ],
      "name": "renounceRole",
      "outputs": [],
      "stateMutability": "nonpayable",
      "type": "function"
    },
    {
      "inputs": [
        {
          "internalType": "bytes32",
          "name": "role",
          "type": "bytes32"
        },
        {
          "internalType": "address",
          "name": "account",
          "type": "address"
        }
      ],
      "name": "revokeRole",
      "outputs": [],
      "stateMutability": "nonpayable",
      "type": "function"
    },
    {
      "inputs": [
        {
          "internalType": "address",
          "name": "from",
          "type": "address"
        },
        {
          "internalType": "address",
          "name": "to",
          "type": "address"
        },
        {
          "internalType": "uint256[]",
          "name": "ids",
          "type": "uint256[]"
        },
        {
          "internalType": "uint256[]",
          "name": "amounts",
          "type": "uint256[]"
        },
        {
          "internalType": "bytes",
          "name": "data",
          "type": "bytes"
        }
      ],
      "name": "safeBatchTransferFrom",
      "outputs": [],
      "stateMutability": "nonpayable",
      "type": "function"
    },
    {
      "inputs": [
        {
          "internalType": "address",
          "name": "from",
          "type": "address"
        },
        {
          "internalType": "address",
          "name": "to",
          "type": "address"
        },
        {
          "internalType": "uint256",
          "name": "id",
          "type": "uint256"
        },
        {
          "internalType": "uint256",
          "name": "amount",
          "type": "uint256"
        },
        {
          "internalType": "bytes",
          "name": "data",
          "type": "bytes"
        }
      ],
      "name": "safeTransferFrom",
      "outputs": [],
      "stateMutability": "nonpayable",
      "type": "function"
    },
    {
      "inputs": [
        {
          "internalType": "address",
          "name": "operator",
          "type": "address"
        },
        {
          "internalType": "bool",
          "name": "approved",
          "type": "bool"
        }
      ],
      "name": "setApprovalForAll",
      "outputs": [],
      "stateMutability": "nonpayable",
      "type": "function"
    },
    {
      "inputs": [
        {
          "internalType": "bytes4",
          "name": "interfaceId",
          "type": "bytes4"
        }
      ],
      "name": "supportsInterface",
      "outputs": [
        {
          "internalType": "bool",
          "name": "",
          "type": "bool"
        }
      ],
      "stateMutability": "view",
      "type": "function",
      "constant": true
    },
    {
      "inputs": [
        {
          "internalType": "address",
          "name": "buyer",
          "type": "address"
        },
        {
          "internalType": "address",
          "name": "seller",
          "type": "address"
        },
        {
          "internalType": "uint256",
          "name": "nftId",
          "type": "uint256"
        },
        {
          "internalType": "uint256",
          "name": "expectedPriceOrZero",
          "type": "uint256"
        },
        {
          "internalType": "uint256",
          "name": "amount",
          "type": "uint256"
        }
      ],
      "name": "takeOffer",
      "outputs": [],
      "stateMutability": "nonpayable",
      "type": "function"
    },
    {
      "inputs": [
        {
          "internalType": "address",
          "name": "newChildChainManagerProxy",
          "type": "address"
        }
      ],
      "name": "updateChildChainManager",
      "outputs": [],
      "stateMutability": "nonpayable",
      "type": "function"
    },
    {
      "inputs": [
        {
          "internalType": "uint256",
          "name": "",
          "type": "uint256"
        }
      ],
      "name": "uri",
      "outputs": [
        {
          "internalType": "string",
          "name": "",
          "type": "string"
        }
      ],
      "stateMutability": "view",
      "type": "function",
      "constant": true
    },
    {
      "inputs": [
        {
          "internalType": "uint256",
          "name": "amount",
          "type": "uint256"
        }
      ],
      "name": "withdraw",
      "outputs": [],
      "stateMutability": "nonpayable",
      "type": "function"
    }
  ],
  "bytecode": "0x6080604052612710600655600a6007553480156200001c57600080fd5b5060405180606001604052806022815260200162003ace602291396200004281620000dd565b5062000059600062000053620000f6565b62000112565b600080527fad3228b676f7d3cd4284a5443f17f1962b36e491b30a40b2405849e597ba5fb560205268056bc75e2d631000007fed428e1c45e1d9561b62834e1a2d3015a0caae3bfdc16b4da059ac885b01a14555620000b7620000f6565b600480546001600160a01b0319166001600160a01b039290921691909117905562000325565b8051620000f290600290602084019062000242565b5050565b60006200010d6200011e60201b62001eee1760201c565b905090565b620000f2828262000153565b60006200012b33620001df565b156200013e575060131936013560601c90565b6200010d6200021360201b62001f181760201c565b6200015f828262000217565b620000f25760008281526003602090815260408083206001600160a01b03851684529091529020805460ff191660011790556200019b620000f6565b6001600160a01b0316816001600160a01b0316837f2f8788117e7eff1d82e926ec794901d17c78024a50270940304540a733656f0d60405160405180910390a45050565b60006200020d7f3d2e894c222ba979e2dce2c7d940c0e9bb14306669e9f034eb1bb3979a2069d88362000217565b92915050565b3390565b60009182526003602090815260408084206001600160a01b0393909316845291905290205460ff1690565b8280546200025090620002e8565b90600052602060002090601f016020900481019282620002745760008555620002bf565b82601f106200028f57805160ff1916838001178555620002bf565b82800160010185558215620002bf579182015b82811115620002bf578251825591602001919060010190620002a2565b50620002cd929150620002d1565b5090565b5b80821115620002cd5760008155600101620002d2565b600181811c90821680620002fd57607f821691505b602082108114156200031f57634e487b7160e01b600052602260045260246000fd5b50919050565b61379980620003356000396000f3fe608060405234801561001057600080fd5b50600436106102035760003560e01c8062fdd58e1461020857806301ffc9a71461022e57806305b7cdd3146102515780630e89341c14610266578063248a9ca3146102865780632c8f284c146102995780632e1a7d4d146102ac5780632eb2c2d6146102bf5780632f2ff15d146102d257806330b06421146102e557806336568abe146102ee57806339b276f4146103015780633c6b570914610314578063445a679714610327578063448588e31461033a5780634559a29b1461034f5780634880d247146103815780634e1273f4146103945780635611cac2146103b4578063572b6c05146103df57806358556fb0146103f25780635c5d67881461040557806360e3ecd01461041857806362f629e71461042d57806391d14854146104405780639a86e8ce146104535780639e00bb9614610468578063a217fddf1461047b578063a22cb46514610483578063a5e1fcd714610496578063ac71045e146104a9578063acc08fa5146104df578063ad09608a1461051a578063ba7f4dfe1461052d578063bb3bafd614610540578063cf2c52cb146105b3578063d547741f146105c6578063d9bbc588146105d9578063dae2c77d14610616578063e1f1c4a714610626578063e24b0a2b1461062f578063e985e9c514610662578063f242432a14610675578063f53612191461047b575b600080fd5b61021b610216366004612dfd565b610688565b6040519081526020015b60405180910390f35b61024161023c366004612fae565b610722565b6040519015158152602001610225565b61026461025f366004613048565b61073c565b005b610279610274366004612f74565b6107a7565b60405161022591906132fc565b61021b610294366004612f74565b61083b565b61021b6102a7366004612bc1565b610850565b6102646102ba366004612f74565b6108e9565b6102646102cd366004612bf3565b610935565b6102646102e0366004612f8c565b610c27565b61021b60075481565b6102646102fc366004612f8c565b610c50565b61026461030f366004613048565b610cde565b61021b610322366004612e5e565b610dc7565b610264610335366004612ba7565b610df7565b61021b60008051602061372483398151915281565b61036261035d366004612dfd565b610f18565b604080516001600160a01b039093168352602083019190915201610225565b61026461038f366004612cfa565b610f5e565b6103a76103a2366004612eaa565b611106565b60405161022591906132c4565b6103c76103c2366004612eaa565b611267565b6040516001600160a01b039091168152602001610225565b6102416103ed366004612ba7565b6112a0565b61021b610400366004613069565b6112ba565b61021b610413366004612e26565b6112d5565b61021b60008051602061370483398151915281565b6004546103c7906001600160a01b031681565b61024161044e366004612f8c565b61136d565b61021b6000805160206136e483398151915281565b61021b610476366004612bc1565b611398565b61021b600081565b610264610491366004612d46565b6113db565b6102646104a4366004612ba7565b6114e3565b61021b6104b7366004612dfd565b6001600160a01b03919091166000908152601060209081526040808320938352929052205490565b6105056104ed366004612ba7565b60056020526000908152604090205463ffffffff1681565b60405163ffffffff9091168152602001610225565b610264610528366004612fe6565b61159b565b6103c761053b366004612eaa565b6117bf565b6105a161054e366004612f74565b600090815260096020908152604080832054600a835281842054600b845282852054600c855283862054600d865284872054600e90965293909520546001600160a01b0392831696919594929093169290565b6040516102259695949392919061328a565b6102646105c1366004612d80565b611adb565b6102646105d4366004612f8c565b611baa565b600080526000805160206137448339815191526020527fed428e1c45e1d9561b62834e1a2d3015a0caae3bfdc16b4da059ac885b01a1455461021b565b61021b68056bc75e2d6310000081565b61021b60065481565b61064261063d366004612f8c565b611bc9565b604080519485526020850193909352918301526060820152608001610225565b610241610670366004612bc1565b611cd3565b610264610683366004612c98565b611d28565b60006001600160a01b0383166106f95760405162461bcd60e51b815260206004820152602b60248201527f455243313135353a2062616c616e636520717565727920666f7220746865207a60448201526a65726f206164647265737360a81b60648201526084015b60405180910390fd5b506000818152602081815260408083206001600160a01b03861684529091529020545b92915050565b600061072d82611f1c565b8061071c575061071c82611f6c565b6000610746611f91565b6001600160a01b0381166000818152601060209081526040808320888452825291829020869055905185815292935085927f040259e2f9c7930380b3a5c979ad8a30ecf8d344d3bcdb149e2c454ab85fcd8f910160405180910390a3505050565b6060600280546107b69061353c565b80601f01602080910402602001604051908101604052809291908181526020018280546107e29061353c565b801561082f5780601f106108045761010080835404028352916020019161082f565b820191906000526020600020905b81548152906001019060200180831161081257829003601f168201915b50505050509050919050565b60009081526003602052604090206001015490565b6001600160a01b0382166000908152600860205260408120815b81548110156108de57600082828154811061089557634e487b7160e01b600052603260045260246000fd5b6000918252602090912060029091020180549091506001600160a01b03868116911614156108cb5760010154925061071c915050565b50806108d6816135a3565b91505061086a565b506000949350505050565b60006108f3611f91565b905061090181600084611f9b565b6040518281526000906001600160a01b038316906000805160206136c4833981519152906020015b60405180910390a35050565b81518351146109975760405162461bcd60e51b815260206004820152602860248201527f455243313135353a2069647320616e6420616d6f756e7473206c656e677468206044820152670dad2e6dac2e8c6d60c31b60648201526084016106f0565b6001600160a01b0384166109bd5760405162461bcd60e51b81526004016106f090613357565b6109c5611f91565b6001600160a01b0316856001600160a01b031614806109eb57506109eb85610670611f91565b610a525760405162461bcd60e51b815260206004820152603260248201527f455243313135353a207472616e736665722063616c6c6572206973206e6f74206044820152711bdddb995c881b9bdc88185c1c1c9bdd995960721b60648201526084016106f0565b6000610a5c611f91565b9050610a6c81878787878761208d565b60005b8451811015610bb9576000858281518110610a9a57634e487b7160e01b600052603260045260246000fd5b602002602001015190506000858381518110610ac657634e487b7160e01b600052603260045260246000fd5b602090810291909101810151600084815280835260408082206001600160a01b038e168352909352919091205490915081811015610b165760405162461bcd60e51b81526004016106f0906133e8565b610b2082826134e2565b60008085815260200190815260200160002060008c6001600160a01b03166001600160a01b03168152602001908152602001600020819055508160008085815260200190815260200160002060008b6001600160a01b03166001600160a01b031681526020019081526020016000206000828254610b9e9190613463565b9250508190555050505080610bb2906135a3565b9050610a6f565b50846001600160a01b0316866001600160a01b0316826001600160a01b03167f4a39dc06d4c0dbc64b70af90fd698a233a518aa5d07e595d983b8c0526c8f7fb8787604051610c099291906132d7565b60405180910390a4610c1f818787878787612105565b505050505050565b610c308261083b565b610c4181610c3c611f91565b612270565b610c4b83836122d4565b505050565b610c58611f91565b6001600160a01b0316816001600160a01b031614610cd05760405162461bcd60e51b815260206004820152602f60248201527f416363657373436f6e74726f6c3a2063616e206f6e6c792072656e6f756e636560448201526e103937b632b9903337b91039b2b63360891b60648201526084016106f0565b610cda828261235b565b5050565b6000610ce8611f91565b9050610cf481846123e0565b610cfd57600080fd5b6000838152600f60205260409020548211610d755760405162461bcd60e51b815260206004820152603260248201527f526f79616c7469657320636f6e66696775726174696f6e2063616e6e6f74206260448201527132903ab73637b1b5b2b21032b0b93634b2b960711b60648201526084016106f0565b6000838152600f6020526040908190208390555183907f7bdd35d2167385bdbed0892e34b48298770ffce27fe71928c767071865f5154490610dba9085815260200190565b60405180910390a2505050565b6001600160601b0319606084901b1663ffffffff60401b604084901b16176001600160401b038216179392505050565b6001600160a01b038116610e585760405162461bcd60e51b815260206004820152602260248201527f426164204368696c64436861696e4d616e6167657250726f7879206164647265604482015261737360f01b60648201526084016106f0565b6004546001600160a01b0316610e6c611f91565b6001600160a01b031614610ef65760405162461bcd60e51b8152602060048201526044602482018190527f4f6e6c79207468652063757272656e7420436861696e4d616e61676572206973908201527f20616c6c6f77656420746f206368616e67652074686520436861696e4d616e6160648201526333b2b91760e11b608482015260a4016106f0565b600480546001600160a01b0319166001600160a01b0392909216919091179055565b60086020528160005260406000208181548110610f3457600080fd5b6000918252602090912060029091020180546001909101546001600160a01b039091169250905082565b6001600160a01b038416600090815260106020908152604080832086845290915290205480610fbe5760405162461bcd60e51b815260206004820152600c60248201526b4e6f7420666f722073616c6560a01b60448201526064016106f0565b821580610fca57508083145b6110095760405162461bcd60e51b815260206004820152601060248201526f556e657870656374656420707269636560801b60448201526064016106f0565b600061101583836134c3565b9050611034878760008460405180602001604052806000815250611d28565b6000611042878785876123f3565b9050818111156110a25760405162461bcd60e51b815260206004820152602560248201527f43616e6e6f742074616b65206d6f72652066656573207468616e2074686520706044820152643934b1b29760d91b60648201526084016106f0565b6110ae878988876124fd565b85876001600160a01b0316896001600160a01b03167fe90359125940e7c9b26005d19d4d8a2a5335ea8bef094bcd61bb8f8091cad11786886040516110f4929190613432565b60405180910390a45050505050505050565b6060815183511461116b5760405162461bcd60e51b815260206004820152602960248201527f455243313135353a206163636f756e747320616e6420696473206c656e677468604482015268040dad2e6dac2e8c6d60bb1b60648201526084016106f0565b600083516001600160401b0381111561119457634e487b7160e01b600052604160045260246000fd5b6040519080825280602002602001820160405280156111bd578160200160208202803683370190505b50905060005b845181101561125f576112248582815181106111ef57634e487b7160e01b600052603260045260246000fd5b602002602001015185838151811061121757634e487b7160e01b600052603260045260246000fd5b6020026020010151610688565b82828151811061124457634e487b7160e01b600052603260045260246000fd5b6020908102919091010152611258816135a3565b90506111c3565b509392505050565b600080838360405160200161127d929190613110565b60408051808303601f19018152919052805160209091012060601c949350505050565b600061071c6000805160206136e48339815191528361136d565b60006112ce6112c7611f91565b84846125e3565b9392505050565b6000806112e0611f91565b90506112ec8682611cd3565b6113555760405162461bcd60e51b815260206004820152603460248201527f746865206f70657261746f72206d75737420626520617070726f766564206f726044820152731030902a2920a729a322a92fa7a822a920aa27a960611b60648201526084016106f0565b611361868686866123f3565b9150505b949350505050565b60009182526003602090815260408084206001600160a01b0393909316845291905290205460ff1690565b6000806113a58484610850565b905060006113b4856000610688565b9050600060065483836113c791906134c3565b6113d191906134a3565b9695505050505050565b816001600160a01b03166113ed611f91565b6001600160a01b031614156114565760405162461bcd60e51b815260206004820152602960248201527f455243313135353a2073657474696e6720617070726f76616c20737461747573604482015268103337b91039b2b63360b91b60648201526084016106f0565b8060016000611463611f91565b6001600160a01b03908116825260208083019390935260409182016000908120918716808252919093529120805460ff1916921515929092179091556114a7611f91565b6001600160a01b03167f17307eab39ab6107e8899845ad3d59bd9653f200f220920489ca2b5937696c3183604051610929911515815260200190565b60006114f0826000610688565b6001600160a01b03831660009081526008602052604081209192505b815481101561159557600082828154811061153757634e487b7160e01b600052603260045260246000fd5b90600052602060002090600202019050600060065482600101548661155c91906134c3565b61156691906134a3565b82549091506115809087906001600160a01b031683611f9b565b5050808061158d906135a3565b91505061150c565b50505050565b60006115a5611f91565b90506115b181896123e0565b6116135760405162461bcd60e51b815260206004820152602d60248201527f4f6e6c792074686520697373756572206f662074686973204e46542063616e2060448201526c73657420726f79616c7469657360981b60648201526084016106f0565b6000888152600f60205260409020544210156116835760405162461bcd60e51b815260206004820152602960248201527f526f79616c7469657320636f6e66696775726174696f6e206973206c6f636b656044820152686420666f72206e6f7760b81b60648201526084016106f0565b6001600160a01b0387161515806116a15750851580156116a1575084155b6116bd5760405162461bcd60e51b81526004016106f09061339c565b600088815260096020908152604080832080546001600160a01b0319166001600160a01b038c811691909117909155600a83528184208a9055600b9092529091208690558416151580611717575082158015611717575081155b6117335760405162461bcd60e51b81526004016106f09061339c565b6000888152600c6020908152604080832080546001600160a01b0319166001600160a01b038916179055600d8252808320869055600e909152908190208390555188907f3df2272e42784a2455bbbdcdf25ae0f67d41f801896514cc4cd255aa8ee75e4c906117ad908a908a908a908a908a908a9061328a565b60405180910390a25050505050505050565b600081518351146118335760405162461bcd60e51b815260206004820152603860248201527f417272617973206f66206f776e65727320616e64206672616374696f6e73206d6044820152770eae6e840d0c2ecca40e8d0ca40e6c2daca40d8cadccee8d60431b60648201526084016106f0565b600754835111156118785760405162461bcd60e51b815260206004820152600f60248201526e546f6f206d616e792073686172657360881b60448201526064016106f0565b60006118848484611267565b6001600160a01b0381166000908152600860205260409020805491925090156118ec5760405162461bcd60e51b815260206004820152601a602482015279546865206163636f756e7420616c72656164792065786973747360301b60448201526064016106f0565b6000805b8651811015611a7f57600087828151811061191b57634e487b7160e01b600052603260045260246000fd5b60200260200101519050600087838151811061194757634e487b7160e01b600052603260045260246000fd5b6020026020010151905060006001600160a01b0316826001600160a01b03161415801561197357508015155b6119bc5760405162461bcd60e51b815260206004820152601a6024820152790c081d985b1d595cc8185c99481b9bdd081c195c9b5a5d1d195960321b60448201526064016106f0565b604080518082019091526001600160a01b0383811682526020808301848152885460018082018b5560008b8152939093209451600290910290940180546001600160a01b031916949093169390931782559151910155611a1c8185613463565b9350816001600160a01b0316866001600160a01b03167e6fb9851f1fd2fbc9fa36680d17e1254999a38e5f3c76c3a1ecc126a464601b83604051611a6291815260200190565b60405180910390a350508080611a77906135a3565b9150506118f0565b506006548114611ad15760405162461bcd60e51b815260206004820152601e60248201527f546f74616c206672616374696f6e73206d7573742062652031302c303030000060448201526064016106f0565b5090949350505050565b6004546001600160a01b0316611aef611f91565b6001600160a01b031614611b595760405162461bcd60e51b815260206004820152602b60248201527f4f6e6c792074686520436861696e4d616e6167657220697320616c6c6f77656460448201526a081d1bc819195c1bdcda5d60aa1b60648201526084016106f0565b6000611b6782840184612f74565b9050611b7560008583611f9b565b6040518181526001600160a01b038516906000906000805160206136c48339815191529060200160405180910390a350505050565b611bb38261083b565b611bbf81610c3c611f91565b610c4b838361235b565b6000828152600a6020908152604080832054600b83528184205460099093529083205490929081906001600160a01b039081169086168114611c49576000611c118288610850565b600654909150611c2182886134c3565b611c2b91906134a3565b600654909650611c3b82876134c3565b611c4591906134a3565b9450505b6000878152600d6020908152604080832054600e835281842054600c90935292205491945092506001600160a01b039081169087168114611cc8576000611c908289610850565b600654909150611ca082876134c3565b611caa91906134a3565b600654909550611cba82866134c3565b611cc491906134a3565b9350505b505092959194509250565b6000611ced6000805160206137048339815191528361136d565b15611cfa5750600161071c565b6001600160a01b0380841660009081526001602090815260408083209386168352929052205460ff166112ce565b6001600160a01b038416611d4e5760405162461bcd60e51b81526004016106f090613357565b611d56611f91565b6001600160a01b0316856001600160a01b03161480611d7c5750611d7c85610670611f91565b611dda5760405162461bcd60e51b815260206004820152602960248201527f455243313135353a2063616c6c6572206973206e6f74206f776e6572206e6f7260448201526808185c1c1c9bdd995960ba1b60648201526084016106f0565b6000611de4611f91565b9050611e04818787611df58861267f565b611dfe8861267f565b8761208d565b6000848152602081815260408083206001600160a01b038a16845290915290205483811015611e455760405162461bcd60e51b81526004016106f0906133e8565b611e4f84826134e2565b6000868152602081815260408083206001600160a01b038c81168552925280832093909355881681529081208054869290611e8b908490613463565b92505081905550856001600160a01b0316876001600160a01b0316836001600160a01b03166000805160206136a48339815191528888604051611ecf929190613432565b60405180910390a4611ee58288888888886126d8565b50505050505050565b6000611ef9336112a0565b15611f0b575060131936013560601c90565b503390565b905090565b90565b3390565b60006001600160e01b03198216636cdb3d1360e11b1480611f4d57506001600160e01b031982166303a24d0760e21b145b8061071c57506301ffc9a760e01b6001600160e01b031983161461071c565b60006001600160e01b03198216637965db0b60e01b148061071c575061071c82611f1c565b6000611f10611eee565b6001600160a01b0383166000908152600080516020613744833981519152602052604090205481811015611fe15760405162461bcd60e51b81526004016106f0906133e8565b611feb82826134e2565b6001600160a01b0385811660009081526000805160206137448339815191526020526040808220939093559085168152908120805484929061202e908490613463565b909155506000905061203e611f91565b9050836001600160a01b0316856001600160a01b0316826001600160a01b03166000805160206136a483398151915260008760405161207e929190613432565b60405180910390a45050505050565b60005b8351811015611ee5576120f4868583815181106120bd57634e487b7160e01b600052603260045260246000fd5b602002602001015160008685815181106120e757634e487b7160e01b600052603260045260246000fd5b60200260200101516123f3565b506120fe816135a3565b9050612090565b6001600160a01b0384163b15610c1f5760405163bc197c8160e01b81526001600160a01b0385169063bc197c819061214990899089908890889088906004016131e7565b602060405180830381600087803b15801561216357600080fd5b505af1925050508015612193575060408051601f3d908101601f1916820190925261219091810190612fca565b60015b6122405761219f6135ea565b806308c379a014156121d957506121b4613601565b806121bf57506121db565b8060405162461bcd60e51b81526004016106f091906132fc565b505b60405162461bcd60e51b815260206004820152603460248201527f455243313135353a207472616e7366657220746f206e6f6e20455243313135356044820152732932b1b2b4bb32b91034b6b83632b6b2b73a32b960611b60648201526084016106f0565b6001600160e01b0319811663bc197c8160e01b14611ee55760405162461bcd60e51b81526004016106f09061330f565b61227a828261136d565b610cda57612292816001600160a01b031660146127a2565b61229d8360206127a2565b6040516020016122ae929190613178565b60408051601f198184030181529082905262461bcd60e51b82526106f0916004016132fc565b6122de828261136d565b610cda5760008281526003602090815260408083206001600160a01b03851684529091529020805460ff19166001179055612317611f91565b6001600160a01b0316816001600160a01b0316837f2f8788117e7eff1d82e926ec794901d17c78024a50270940304540a733656f0d60405160405180910390a45050565b612365828261136d565b15610cda5760008281526003602090815260408083206001600160a01b03851684529091529020805460ff1916905561239c611f91565b6001600160a01b0316816001600160a01b0316837ff6391f5c32d9c69d2a47ea670b442974b53935d1edc7fd64eb21e047a839171b60405160405180910390a45050565b60601c6001600160a01b03919091161490565b60008361240257506000611365565b61241a6000805160206137248339815191523361136d565b1561242757506000611365565b60008060008061243789896123e0565b90508015612476576000888152600a6020908152604080832054600b835281842054600990935292205491955093506001600160a01b031691506124a9565b6000888152600d6020908152604080832054600e835281842054600c90935292205491955093506001600160a01b031691505b6006546000906124b9868a6134c3565b6124c391906134a3565b9050838110156124d05750825b60006124dc88836134c3565b905080156124ef576124ef8b8583611f9b565b9a9950505050505050505050565b6000828152602081815260408083206001600160a01b03881684529091529020548181101561253e5760405162461bcd60e51b81526004016106f0906133e8565b61254882826134e2565b6000848152602081815260408083206001600160a01b038a81168552925280832093909355861681529081208054849290612584908490613463565b9091555060009050612594611f91565b9050846001600160a01b0316866001600160a01b0316826001600160a01b03166000805160206136a483398151915287876040516125d3929190613432565b60405180910390a4505050505050565b6001600160a01b03831660009081526005602052604081205463ffffffff1661260d81600161347b565b6001600160a01b0386166000908152600560205260408120805463ffffffff191663ffffffff9390931692909217909155612649868387610dc7565b90506000856001600160401b03161161266157600080fd5b6126768682876001600160401b031687612983565b95945050505050565b604080516001808252818301909252606091600091906020808301908036833701905050905082816000815181106126c757634e487b7160e01b600052603260045260246000fd5b602090810291909101015292915050565b6001600160a01b0384163b15610c1f5760405163f23a6e6160e01b81526001600160a01b0385169063f23a6e619061271c9089908990889088908890600401613245565b602060405180830381600087803b15801561273657600080fd5b505af1925050508015612766575060408051601f3d908101601f1916820190925261276391810190612fca565b60015b6127725761219f6135ea565b6001600160e01b0319811663f23a6e6160e01b14611ee55760405162461bcd60e51b81526004016106f09061330f565b606060006127b18360026134c3565b6127bc906002613463565b6001600160401b038111156127e157634e487b7160e01b600052604160045260246000fd5b6040519080825280601f01601f19166020018201604052801561280b576020820181803683370190505b509050600360fc1b8160008151811061283457634e487b7160e01b600052603260045260246000fd5b60200101906001600160f81b031916908160001a905350600f60fb1b8160018151811061287157634e487b7160e01b600052603260045260246000fd5b60200101906001600160f81b031916908160001a90535060006128958460026134c3565b6128a0906001613463565b90505b6001811115612934576f181899199a1a9b1b9c1cb0b131b232b360811b85600f16601081106128e257634e487b7160e01b600052603260045260246000fd5b1a60f81b82828151811061290657634e487b7160e01b600052603260045260246000fd5b60200101906001600160f81b031916908160001a90535060049490941c9361292d81613525565b90506128a3565b5083156112ce5760405162461bcd60e51b815260206004820181905260248201527f537472696e67733a20686578206c656e67746820696e73756666696369656e7460448201526064016106f0565b6001600160a01b0384166129e35760405162461bcd60e51b815260206004820152602160248201527f455243313135353a206d696e7420746f20746865207a65726f206164647265736044820152607360f81b60648201526084016106f0565b60006129ed611f91565b90506129ff81600087611df58861267f565b6000848152602081815260408083206001600160a01b038916845290915281208054859290612a2f908490613463565b92505081905550846001600160a01b031660006001600160a01b0316826001600160a01b03166000805160206136a48339815191528787604051612a74929190613432565b60405180910390a4612a8b816000878787876126d8565b5050505050565b80356001600160a01b0381168114612aa957600080fd5b919050565b600082601f830112612abe578081fd5b81356020612acb82613440565b604051612ad88282613577565b8381528281019150858301600585901b87018401881015612af7578586fd5b855b85811015612b1557813584529284019290840190600101612af9565b5090979650505050505050565b600082601f830112612b32578081fd5b81356001600160401b03811115612b4b57612b4b6135d4565b604051612b62601f8301601f191660200182613577565b818152846020838601011115612b76578283fd5b816020850160208301379081016020019190915292915050565b80356001600160401b0381168114612aa957600080fd5b600060208284031215612bb8578081fd5b6112ce82612a92565b60008060408385031215612bd3578081fd5b612bdc83612a92565b9150612bea60208401612a92565b90509250929050565b600080600080600060a08688031215612c0a578081fd5b612c1386612a92565b9450612c2160208701612a92565b935060408601356001600160401b0380821115612c3c578283fd5b612c4889838a01612aae565b94506060880135915080821115612c5d578283fd5b612c6989838a01612aae565b93506080880135915080821115612c7e578283fd5b50612c8b88828901612b22565b9150509295509295909350565b600080600080600060a08688031215612caf578081fd5b612cb886612a92565b9450612cc660208701612a92565b9350604086013592506060860135915060808601356001600160401b03811115612cee578182fd5b612c8b88828901612b22565b600080600080600060a08688031215612d11578081fd5b612d1a86612a92565b9450612d2860208701612a92565b94979496505050506040830135926060810135926080909101359150565b60008060408385031215612d58578182fd5b612d6183612a92565b915060208301358015158114612d75578182fd5b809150509250929050565b600080600060408486031215612d94578081fd5b612d9d84612a92565b925060208401356001600160401b0380821115612db8578283fd5b818601915086601f830112612dcb578283fd5b813581811115612dd9578384fd5b876020828501011115612dea578384fd5b6020830194508093505050509250925092565b60008060408385031215612e0f578182fd5b612e1883612a92565b946020939093013593505050565b60008060008060808587031215612e3b578182fd5b612e4485612a92565b966020860135965060408601359560600135945092505050565b600080600060608486031215612e72578081fd5b612e7b84612a92565b9250602084013563ffffffff81168114612e93578182fd5b9150612ea160408501612b90565b90509250925092565b60008060408385031215612ebc578182fd5b82356001600160401b0380821115612ed2578384fd5b818501915085601f830112612ee5578384fd5b81356020612ef282613440565b604051612eff8282613577565b8381528281019150858301600585901b870184018b1015612f1e578889fd5b8896505b84871015612f4757612f3381612a92565b835260019690960195918301918301612f22565b5096505086013592505080821115612f5d578283fd5b50612f6a85828601612aae565b9150509250929050565b600060208284031215612f85578081fd5b5035919050565b60008060408385031215612f9e578182fd5b82359150612bea60208401612a92565b600060208284031215612fbf578081fd5b81356112ce8161368a565b600060208284031215612fdb578081fd5b81516112ce8161368a565b600080600080600080600060e0888a031215613000578485fd5b8735965061301060208901612a92565b9550604088013594506060880135935061302c60808901612a92565b925060a0880135915060c0880135905092959891949750929550565b6000806040838503121561305a578182fd5b50508035926020909101359150565b6000806040838503121561307b578182fd5b61308483612b90565b915060208301356001600160401b0381111561309e578182fd5b612f6a85828601612b22565b6000815180845260208085019450808401835b838110156130d9578151875295820195908201906001016130bd565b509495945050505050565b600081518084526130fc8160208601602086016134f9565b601f01601f19169290920160200192915050565b825160009082906020808701845b838110156131435781516001600160a01b03168552938201939082019060010161311e565b50508551818701939250845b8181101561316b5784518452938201939282019260010161314f565b5091979650505050505050565b76020b1b1b2b9b9a1b7b73a3937b61d1030b1b1b7bab73a1604d1b8152600083516131aa8160178501602088016134f9565b7001034b99036b4b9b9b4b733903937b6329607d1b60179184019182015283516131db8160288401602088016134f9565b01602801949350505050565b6001600160a01b0386811682528516602082015260a060408201819052600090613213908301866130aa565b828103606084015261322581866130aa565b9050828103608084015261323981856130e4565b98975050505050505050565b6001600160a01b03868116825285166020820152604081018490526060810183905260a06080820181905260009061327f908301846130e4565b979650505050505050565b6001600160a01b0396871681526020810195909552604085019390935293166060830152608082019290925260a081019190915260c00190565b6020815260006112ce60208301846130aa565b6040815260006132ea60408301856130aa565b828103602084015261267681856130aa565b6020815260006112ce60208301846130e4565b60208082526028908201527f455243313135353a204552433131353552656365697665722072656a656374656040820152676420746f6b656e7360c01b606082015260800190565b60208082526025908201527f455243313135353a207472616e7366657220746f20746865207a65726f206164604082015264647265737360d81b606082015260800190565b6020808252602c908201527f546865206163636f756e74206d757374206e6f7420626520302c20756e6c657360408201526b07320666565732061726520360a41b606082015260800190565b6020808252602a908201527f455243313135353a20696e73756666696369656e742062616c616e636520666f60408201526939103a3930b739b332b960b11b606082015260800190565b918252602082015260400190565b60006001600160401b03821115613459576134596135d4565b5060051b60200190565b60008219821115613476576134766135be565b500190565b600063ffffffff80831681851680830382111561349a5761349a6135be565b01949350505050565b6000826134be57634e487b7160e01b81526012600452602481fd5b500490565b60008160001904831182151516156134dd576134dd6135be565b500290565b6000828210156134f4576134f46135be565b500390565b60005b838110156135145781810151838201526020016134fc565b838111156115955750506000910152565b600081613534576135346135be565b506000190190565b600181811c9082168061355057607f821691505b6020821081141561357157634e487b7160e01b600052602260045260246000fd5b50919050565b601f8201601f191681016001600160401b038111828210171561359c5761359c6135d4565b6040525050565b60006000198214156135b7576135b76135be565b5060010190565b634e487b7160e01b600052601160045260246000fd5b634e487b7160e01b600052604160045260246000fd5b600060033d1115611f1557600481823e5160e01c90565b600060443d101561360f5790565b6040516003193d81016004833e81513d6001600160401b03808311602484018310171561363e57505050505090565b82850191508151818111156136565750505050505090565b843d87010160208285010111156136705750505050505090565b61367f60208286010187613577565b509095945050505050565b6001600160e01b0319811681146136a057600080fd5b5056fec3d58168c5ae7397731d063d5bbf3d657854427343f4c083240f7aacaa2d0f62ddf252ad1be2c89b69c2b068fc378daa952ba7f163c4a11628f55a4df523b3ef3d2e894c222ba979e2dce2c7d940c0e9bb14306669e9f034eb1bb3979a2069d8626f510646502d065065e8bd550325973a611a32e6f6ddff40650005cb13636820a4be6e7127e439f48d6654377d19402cb883dd85029e600de9e17052f903d3ad3228b676f7d3cd4284a5443f17f1962b36e491b30a40b2405849e597ba5fb5a2646970667358221220855dce61b6a1e655c54997ed746a340a2aab5d2c5071992136907d4bf1ccc7c864736f6c6343000804003368747470733a2f2f636572652e6e6574776f726b2f6e66742f7b69647d2e6a736f6e",
  "immutableReferences": {},
  "source": "pragma solidity ^0.8.0;\n\nimport \"./freeportParts/SimpleExchange.sol\";\n\n/** Main contract, including all components.\n\n- Hold and transfer NFTs using ERC1155.\n- Support atomic exchanges of NFTs for currency.\n- Issuance of NFTs with fixed supply.\n- Joint Accounts that distribute their funds over multiple owners.\n- Capture royalties on primary and secondary transfers, configurable per NFT type.\n*/\ncontract Freeport is /*\n    ERC1155,\n    AccessControl,\n    MetaTxContext,\n    BaseNFT,\n    Currency,\n    TransferOperator,\n    PolygonChildERC20,\n    Issuance,\n    JointAccounts,\n    TransferFees,\n    */ SimpleExchange {\n\n}\n",
  "sourcePath": "/home/a/CERE/freeport-nft/contracts/Freeport.sol",
  "compiler": {
    "name": "solc",
    "version": "0.8.4+commit.c7e474f2.Emscripten.clang"
  },
  "schemaVersion": "3.4.1",
  "updatedAt": "2021-11-08T10:42:08.212Z",
  "networkType": "ethereum",
  "devdoc": {
    "kind": "dev",
    "methods": {
      "balanceOf(address,uint256)": {
        "details": "See {IERC1155-balanceOf}. Requirements: - `account` cannot be the zero address."
      },
      "balanceOfBatch(address[],uint256[])": {
        "details": "See {IERC1155-balanceOfBatch}. Requirements: - `accounts` and `ids` must have the same length."
      },
      "getRoleAdmin(bytes32)": {
        "details": "Returns the admin role that controls `role`. See {grantRole} and {revokeRole}. To change a role's admin, use {_setRoleAdmin}."
      },
      "grantRole(bytes32,address)": {
        "details": "Grants `role` to `account`. If `account` had not been already granted `role`, emits a {RoleGranted} event. Requirements: - the caller must have ``role``'s admin role."
      },
      "hasRole(bytes32,address)": {
        "details": "Returns `true` if `account` has been granted `role`."
      },
      "renounceRole(bytes32,address)": {
        "details": "Revokes `role` from the calling account. Roles are often managed via {grantRole} and {revokeRole}: this function's purpose is to provide a mechanism for accounts to lose their privileges if they are compromised (such as when a trusted device is misplaced). If the calling account had been granted `role`, emits a {RoleRevoked} event. Requirements: - the caller must be `account`."
      },
      "revokeRole(bytes32,address)": {
        "details": "Revokes `role` from `account`. If `account` had been granted `role`, emits a {RoleRevoked} event. Requirements: - the caller must have ``role``'s admin role."
      },
      "safeBatchTransferFrom(address,address,uint256[],uint256[],bytes)": {
        "details": "See {IERC1155-safeBatchTransferFrom}."
      },
      "safeTransferFrom(address,address,uint256,uint256,bytes)": {
        "details": "See {IERC1155-safeTransferFrom}."
      },
      "setApprovalForAll(address,bool)": {
        "details": "See {IERC1155-setApprovalForAll}."
      },
      "uri(uint256)": {
        "details": "See {IERC1155MetadataURI-uri}. This implementation returns the same URI for *all* token types. It relies on the token type ID substitution mechanism https://eips.ethereum.org/EIPS/eip-1155#metadata[defined in the EIP]. Clients calling this function must replace the `\\{id\\}` substring with the actual token type ID."
      }
    },
    "version": 1
  },
  "userdoc": {
    "events": {
      "JointAccountShareCreated(address,address,uint256)": {
        "notice": "Notify that a Joint Account was created at the address `account`. One such event is emitted for each owner, including his fraction of the account in basis points (1% of 1%)."
      },
      "MakeOffer(address,uint256,uint256)": {
        "notice": "An event emitted when an account `seller` has offered to sell a type of NFT at a given price. This replaces previous offers by the same seller on the same NFT ID, if any. A price of 0 means \"no offer\" and the previous offer is cancelled. An offer does not imply that the seller owns any amount of this NFT. An offer remains valid until cancelled, for the entire balance at a given time, regardless of incoming and outgoing transfers on the seller account."
      },
      "RoyaltiesConfigured(uint256,address,uint256,uint256,address,uint256,uint256)": {
        "notice": "Notify that royalties were configured on an NFT type."
      },
      "RoyaltiesLocked(uint256,uint256)": {
        "notice": "Notify that royalties are locked and cannot change, until the given time (in UNIX seconds), or forever (lockUntil = 0xFFFFFFFF)."
      },
      "TakeOffer(address,address,uint256,uint256,uint256)": {
        "notice": "An offer of `seller` was taken by `buyer`. The transfers of `amount` NFTs of type `nftId` against `amount * price` of CERE Units were executed."
      },
      "Transfer(address,address,uint256)": {
        "notice": "ERC20 Transfer event for bridging this ERC1155 contract to ERC20 on Ethereum."
      }
    },
    "kind": "user",
    "methods": {
      "BASIS_POINTS()": {
        "notice": "The total fraction representing 100% of an account."
      },
      "CURRENCY()": {
        "notice": "The token ID that represents the CERE currency for all payments in this contract. "
      },
      "CURRENCY_SUPPLY()": {
        "notice": "The global supply of CERE tokens on all chains. That is 10 billion tokens, with 10 decimals."
      },
      "balanceOfJAOwner(address,address)": {
        "notice": "Calculate the amount of tokens that an owner of a Joint Account can withdraw right now."
      },
      "captureFee(address,uint256,uint256,uint256)": {
        "notice": "Collect the royalty due on a transfer. The royalty is calculated based on NFT configuration and the price. It is collected by an internal transfer of currency between \"from\" and the beneficiary. Return the amount collected. The caller must be approved by \"from\", or a TRANSFER_OPERATOR."
      },
      "childChainManagerProxy()": {
        "notice": "The address of the Polygon bridge contract that is allowed to deposit tokens. "
      },
      "configureRoyalties(uint256,address,uint256,uint256,address,uint256,uint256)": {
        "notice": "Configure the amounts and beneficiaries of royalties on primary and secondary transfers of this NFT. This configuration is available to the issuer of this NFT. A transfer is primary if it comes from the issuer of this NFT (normally the first sale after issuance). Otherwise, it is a secondary transfer. A royalty is defined in two parts (both optional): a cut of the sale price of an NFT, and a minimum royalty per transfer. For simple transfers not attached to a price, or a too low price, the minimum royalty is charged. The cuts are given in basis points (1% of 1%). The minimums are given in currency amounts. The configuration can be changed at any time by default. However, the issuer may commit to it for a period of time, effectively giving up his ability to modify the royalties. See the function lockRoyalties. There can be one beneficiary account for each primary and secondary royalties. To distribute revenues amongst several parties, use a Joint Account (see function createJointAccount)."
      },
      "createJointAccount(address[],uint256[])": {
        "notice": "Create an account such that multiple owners have a claim on their respective share. The size of a share is given as a fraction in basis points (1% of 1%). The sum of share fractions must equal 10,000. Anyone can create Joint Accounts including any owners."
      },
      "currencyInBridge()": {
        "notice": "Return the total amount of currency available in the bridge, which can be deposited into this contract."
      },
      "deposit(address,bytes)": {
        "notice": "Deposit currency from Ethereum into a user account in this contract. This is implemented by moving tokens from the bridge account to the user account. Two events will be emitted: ERC20 Transfer for the relayers, and ERC1155 TransferSingle like all transfers. There is an extra encoding necessary for the amount. In JavaScript, add this: `web3.eth.abi.encodeParameter('uint256', amount)`"
      },
      "distributeJointAccount(address)": {
        "notice": "Distribute all tokens available to all owners of a Joint Account. The function createJointAccount must be called beforehand. Anyone can trigger the distribution."
      },
      "fractionOfJAOwner(address,address)": {
        "notice": "Return the fraction of an account owned by the given address, in basis points (1% of 1%). If the account does not exist, or if the given address is not an owner of it, this returns 0. If the owner appears more than once in the account, this reports only the first share."
      },
      "getNftId(address,uint32,uint64)": {
        "notice": "Calculate the ID of an NFT type, identifying its issuer, its supply, and an arbitrary nonce."
      },
      "getOffer(address,uint256)": {
        "notice": "Return the price offered by the given seller for the given NFT type."
      },
      "getRoyalties(uint256)": {
        "notice": "Return the current configuration of royalties for NFTs of type nftId, as set by configureRoyalties."
      },
      "getRoyaltiesForBeneficiary(uint256,address)": {
        "notice": "Return the amount of royalties earned by a beneficiary on each primary and secondary transfer of an NFT. This function supports Joint Accounts. If royalties are paid to a JA and beneficiary is an owner of the JA, the shares of the royalties for this owner are returned."
      },
      "isApprovedForAll(address,address)": {
        "notice": "Return true for operators with the role TRANSFER_OPERATOR. Otherwise, apply the standard approval logic of ERC1155. See {IERC1155-isApprovedForAll}."
      },
      "issuanceNonces(address)": {
        "notice": "A counter of NFT types issued by each issuer. This is used to generate unique NFT IDs."
      },
      "issue(uint64,bytes)": {
        "notice": "Issue a supply of NFTs of a new type, and return its ID. No more NFT of this type can be issued again. The caller will be recorded as the issuer and it will initially own the entire supply."
      },
      "lockRoyalties(uint256,uint256)": {
        "notice": "Lock the configuration of royalties for this NFT type. Only the issuer may lock the configuration, after which he himself will no longer be able to change the configuration, for some time, or forever. Set lockUntil to a time in the future to lock the configuration until the specified time (in UNIX seconds). Set to 0xFFFFFFFF to lock forever."
      },
      "makeAddressOfJointAccount(address[],uint256[])": {
        "notice": "Generate a unique address identifying a list of owners and shares. It may be used to predict the address of a Joint Account and receive payments even before calling the function createJointAccount."
      },
      "makeOffer(uint256,uint256)": {
        "notice": "Create an offer to sell a type of NFTs for a price per unit. All the NFTs of this type owned by the caller will be for sale. To cancel, call again with a price of 0."
      },
      "supportsInterface(bytes4)": {
        "notice": "Supports interfaces of AccessControl, ERC1155, and ERC1155 MetadataURI."
      },
      "takeOffer(address,address,uint256,uint256,uint256)": {
        "notice": "Accept an offer, paying the price per unit for an amount of NFTs. The offer must have been created beforehand by makeOffer. The same authorization as safeTransferFrom apply to the buyer (sender or approved operator). The parameter expectedPriceOrZero can be used to validate the price that the buyer expects to pay. This prevents a race condition with makeOffer or setExchangeRate. Pass 0 to disable this validation and accept any current price."
      },
      "updateChildChainManager(address)": {
        "notice": "Change the ChainManager, which can deposit currency into any account. Only the current ChainManager is allowed to change the ChainManager."
      },
      "withdraw(uint256)": {
        "notice": "Withdraw currency from a user account in this contract to Ethereum. This is implemented by moving tokens from the user account to the bridge account. Two events will be emitted: ERC20 Transfer for the relayers, and ERC1155 TransferSingle like all transfers."
      }
    },
    "notice": "Main contract, including all components. - Hold and transfer NFTs using ERC1155. - Support atomic exchanges of NFTs for currency. - Issuance of NFTs with fixed supply. - Joint Accounts that distribute their funds over multiple owners. - Capture royalties on primary and secondary transfers, configurable per NFT type.",
    "version": 1
  }
}