{
  "contractName": "Freeport",
  "abi": [
    {
      "anonymous": false,
      "inputs": [
        {
          "indexed": false,
          "internalType": "address",
          "name": "previousAdmin",
          "type": "address"
        },
        {
          "indexed": false,
          "internalType": "address",
          "name": "newAdmin",
          "type": "address"
        }
      ],
      "name": "AdminChanged",
      "type": "event"
    },
    {
      "anonymous": false,
      "inputs": [
        {
          "indexed": true,
          "internalType": "address",
          "name": "account",
          "type": "address"
        },
        {
          "indexed": true,
          "internalType": "address",
          "name": "operator",
          "type": "address"
        },
        {
          "indexed": false,
          "internalType": "bool",
          "name": "approved",
          "type": "bool"
        }
      ],
      "name": "ApprovalForAll",
      "type": "event"
    },
    {
      "anonymous": false,
      "inputs": [
        {
          "indexed": true,
          "internalType": "address",
          "name": "beacon",
          "type": "address"
        }
      ],
      "name": "BeaconUpgraded",
      "type": "event"
    },
    {
      "anonymous": false,
      "inputs": [
        {
          "indexed": true,
          "internalType": "address",
          "name": "account",
          "type": "address"
        },
        {
          "indexed": true,
          "internalType": "address",
          "name": "owner",
          "type": "address"
        },
        {
          "indexed": false,
          "internalType": "uint256",
          "name": "fraction",
          "type": "uint256"
        }
      ],
      "name": "JointAccountShareCreated",
      "type": "event"
    },
    {
      "anonymous": false,
      "inputs": [
        {
          "indexed": true,
          "internalType": "address",
          "name": "seller",
          "type": "address"
        },
        {
          "indexed": true,
          "internalType": "uint256",
          "name": "nftId",
          "type": "uint256"
        },
        {
          "indexed": false,
          "internalType": "uint256",
          "name": "price",
          "type": "uint256"
        }
      ],
      "name": "MakeOffer",
      "type": "event"
    },
    {
      "anonymous": false,
      "inputs": [
        {
          "indexed": true,
          "internalType": "bytes32",
          "name": "role",
          "type": "bytes32"
        },
        {
          "indexed": true,
          "internalType": "bytes32",
          "name": "previousAdminRole",
          "type": "bytes32"
        },
        {
          "indexed": true,
          "internalType": "bytes32",
          "name": "newAdminRole",
          "type": "bytes32"
        }
      ],
      "name": "RoleAdminChanged",
      "type": "event"
    },
    {
      "anonymous": false,
      "inputs": [
        {
          "indexed": true,
          "internalType": "bytes32",
          "name": "role",
          "type": "bytes32"
        },
        {
          "indexed": true,
          "internalType": "address",
          "name": "account",
          "type": "address"
        },
        {
          "indexed": true,
          "internalType": "address",
          "name": "sender",
          "type": "address"
        }
      ],
      "name": "RoleGranted",
      "type": "event"
    },
    {
      "anonymous": false,
      "inputs": [
        {
          "indexed": true,
          "internalType": "bytes32",
          "name": "role",
          "type": "bytes32"
        },
        {
          "indexed": true,
          "internalType": "address",
          "name": "account",
          "type": "address"
        },
        {
          "indexed": true,
          "internalType": "address",
          "name": "sender",
          "type": "address"
        }
      ],
      "name": "RoleRevoked",
      "type": "event"
    },
    {
      "anonymous": false,
      "inputs": [
        {
          "indexed": true,
          "internalType": "uint256",
          "name": "nftId",
          "type": "uint256"
        },
        {
          "indexed": false,
          "internalType": "address",
          "name": "primaryRoyaltyAccount",
          "type": "address"
        },
        {
          "indexed": false,
          "internalType": "uint256",
          "name": "primaryRoyaltyCut",
          "type": "uint256"
        },
        {
          "indexed": false,
          "internalType": "uint256",
          "name": "primaryRoyaltyMinimum",
          "type": "uint256"
        },
        {
          "indexed": false,
          "internalType": "address",
          "name": "secondaryRoyaltyAccount",
          "type": "address"
        },
        {
          "indexed": false,
          "internalType": "uint256",
          "name": "secondaryRoyaltyCut",
          "type": "uint256"
        },
        {
          "indexed": false,
          "internalType": "uint256",
          "name": "secondaryRoyaltyMinimum",
          "type": "uint256"
        }
      ],
      "name": "RoyaltiesConfigured",
      "type": "event"
    },
    {
      "anonymous": false,
      "inputs": [
        {
          "indexed": true,
          "internalType": "uint256",
          "name": "nftId",
          "type": "uint256"
        },
        {
          "indexed": false,
          "internalType": "uint256",
          "name": "lockUntil",
          "type": "uint256"
        }
      ],
      "name": "RoyaltiesLocked",
      "type": "event"
    },
    {
      "anonymous": false,
      "inputs": [
        {
          "indexed": true,
          "internalType": "address",
          "name": "buyer",
          "type": "address"
        },
        {
          "indexed": true,
          "internalType": "address",
          "name": "seller",
          "type": "address"
        },
        {
          "indexed": true,
          "internalType": "uint256",
          "name": "nftId",
          "type": "uint256"
        },
        {
          "indexed": false,
          "internalType": "uint256",
          "name": "price",
          "type": "uint256"
        },
        {
          "indexed": false,
          "internalType": "uint256",
          "name": "amount",
          "type": "uint256"
        }
      ],
      "name": "TakeOffer",
      "type": "event"
    },
    {
      "anonymous": false,
      "inputs": [
        {
          "indexed": true,
          "internalType": "address",
          "name": "operator",
          "type": "address"
        },
        {
          "indexed": true,
          "internalType": "address",
          "name": "from",
          "type": "address"
        },
        {
          "indexed": true,
          "internalType": "address",
          "name": "to",
          "type": "address"
        },
        {
          "indexed": false,
          "internalType": "uint256[]",
          "name": "ids",
          "type": "uint256[]"
        },
        {
          "indexed": false,
          "internalType": "uint256[]",
          "name": "values",
          "type": "uint256[]"
        }
      ],
      "name": "TransferBatch",
      "type": "event"
    },
    {
      "anonymous": false,
      "inputs": [
        {
          "indexed": true,
          "internalType": "address",
          "name": "operator",
          "type": "address"
        },
        {
          "indexed": true,
          "internalType": "address",
          "name": "from",
          "type": "address"
        },
        {
          "indexed": true,
          "internalType": "address",
          "name": "to",
          "type": "address"
        },
        {
          "indexed": false,
          "internalType": "uint256",
          "name": "id",
          "type": "uint256"
        },
        {
          "indexed": false,
          "internalType": "uint256",
          "name": "value",
          "type": "uint256"
        }
      ],
      "name": "TransferSingle",
      "type": "event"
    },
    {
      "anonymous": false,
      "inputs": [
        {
          "indexed": false,
          "internalType": "string",
          "name": "value",
          "type": "string"
        },
        {
          "indexed": true,
          "internalType": "uint256",
          "name": "id",
          "type": "uint256"
        }
      ],
      "name": "URI",
      "type": "event"
    },
    {
      "anonymous": false,
      "inputs": [
        {
          "indexed": true,
          "internalType": "address",
          "name": "implementation",
          "type": "address"
        }
      ],
      "name": "Upgraded",
      "type": "event"
    },
    {
      "inputs": [],
      "name": "BASIS_POINTS",
      "outputs": [
        {
          "internalType": "uint256",
          "name": "",
          "type": "uint256"
        }
      ],
      "stateMutability": "view",
      "type": "function",
      "constant": true
    },
    {
      "inputs": [],
      "name": "BYPASS_SENDER",
      "outputs": [
        {
          "internalType": "bytes32",
          "name": "",
          "type": "bytes32"
        }
      ],
      "stateMutability": "view",
      "type": "function",
      "constant": true
    },
    {
      "inputs": [],
      "name": "CURRENCY",
      "outputs": [
        {
          "internalType": "uint256",
          "name": "",
          "type": "uint256"
        }
      ],
      "stateMutability": "view",
      "type": "function",
      "constant": true
    },
    {
      "inputs": [],
      "name": "DEFAULT_ADMIN_ROLE",
      "outputs": [
        {
          "internalType": "bytes32",
          "name": "",
          "type": "bytes32"
        }
      ],
      "stateMutability": "view",
      "type": "function",
      "constant": true
    },
    {
      "inputs": [],
      "name": "MAX_JOINT_ACCOUNT_SHARES",
      "outputs": [
        {
          "internalType": "uint256",
          "name": "",
          "type": "uint256"
        }
      ],
      "stateMutability": "view",
      "type": "function",
      "constant": true
    },
    {
      "inputs": [],
      "name": "META_TX_FORWARDER",
      "outputs": [
        {
          "internalType": "bytes32",
          "name": "",
          "type": "bytes32"
        }
      ],
      "stateMutability": "view",
      "type": "function",
      "constant": true
    },
    {
      "inputs": [],
      "name": "TRANSFER_OPERATOR",
      "outputs": [
        {
          "internalType": "bytes32",
          "name": "",
          "type": "bytes32"
        }
      ],
      "stateMutability": "view",
      "type": "function",
      "constant": true
    },
    {
      "inputs": [
        {
          "internalType": "address",
          "name": "account",
          "type": "address"
        },
        {
          "internalType": "uint256",
          "name": "id",
          "type": "uint256"
        }
      ],
      "name": "balanceOf",
      "outputs": [
        {
          "internalType": "uint256",
          "name": "",
          "type": "uint256"
        }
      ],
      "stateMutability": "view",
      "type": "function",
      "constant": true
    },
    {
      "inputs": [
        {
          "internalType": "address[]",
          "name": "accounts",
          "type": "address[]"
        },
        {
          "internalType": "uint256[]",
          "name": "ids",
          "type": "uint256[]"
        }
      ],
      "name": "balanceOfBatch",
      "outputs": [
        {
          "internalType": "uint256[]",
          "name": "",
          "type": "uint256[]"
        }
      ],
      "stateMutability": "view",
      "type": "function",
      "constant": true
    },
    {
      "inputs": [
        {
          "internalType": "address",
          "name": "account",
          "type": "address"
        },
        {
          "internalType": "address",
          "name": "owner",
          "type": "address"
        }
      ],
      "name": "balanceOfJAOwner",
      "outputs": [
        {
          "internalType": "uint256",
          "name": "",
          "type": "uint256"
        }
      ],
      "stateMutability": "view",
      "type": "function",
      "constant": true
    },
    {
      "inputs": [
        {
          "internalType": "address",
          "name": "from",
          "type": "address"
        },
        {
          "internalType": "uint256",
          "name": "nftId",
          "type": "uint256"
        },
        {
          "internalType": "uint256",
          "name": "price",
          "type": "uint256"
        },
        {
          "internalType": "uint256",
          "name": "amount",
          "type": "uint256"
        }
      ],
      "name": "captureFee",
      "outputs": [
        {
          "internalType": "uint256",
          "name": "",
          "type": "uint256"
        }
      ],
      "stateMutability": "nonpayable",
      "type": "function"
    },
    {
      "inputs": [
        {
          "internalType": "uint256",
          "name": "nftId",
          "type": "uint256"
        },
        {
          "internalType": "address",
          "name": "primaryRoyaltyAccount",
          "type": "address"
        },
        {
          "internalType": "uint256",
          "name": "primaryRoyaltyCut",
          "type": "uint256"
        },
        {
          "internalType": "uint256",
          "name": "primaryRoyaltyMinimum",
          "type": "uint256"
        },
        {
          "internalType": "address",
          "name": "secondaryRoyaltyAccount",
          "type": "address"
        },
        {
          "internalType": "uint256",
          "name": "secondaryRoyaltyCut",
          "type": "uint256"
        },
        {
          "internalType": "uint256",
          "name": "secondaryRoyaltyMinimum",
          "type": "uint256"
        }
      ],
      "name": "configureRoyalties",
      "outputs": [],
      "stateMutability": "nonpayable",
      "type": "function"
    },
    {
      "inputs": [
        {
          "internalType": "address[]",
          "name": "owners",
          "type": "address[]"
        },
        {
          "internalType": "uint256[]",
          "name": "fractions",
          "type": "uint256[]"
        }
      ],
      "name": "createJointAccount",
      "outputs": [
        {
          "internalType": "address",
          "name": "",
          "type": "address"
        }
      ],
      "stateMutability": "nonpayable",
      "type": "function"
    },
    {
      "inputs": [],
      "name": "currencyContract",
      "outputs": [
        {
          "internalType": "contract IERC20",
          "name": "",
          "type": "address"
        }
      ],
      "stateMutability": "view",
      "type": "function",
      "constant": true
    },
    {
      "inputs": [
        {
          "internalType": "uint256",
          "name": "amount",
          "type": "uint256"
        }
      ],
      "name": "deposit",
      "outputs": [],
      "stateMutability": "nonpayable",
      "type": "function"
    },
    {
      "inputs": [
        {
          "internalType": "address",
          "name": "account",
          "type": "address"
        }
      ],
      "name": "distributeJointAccount",
      "outputs": [],
      "stateMutability": "nonpayable",
      "type": "function"
    },
    {
      "inputs": [
        {
          "internalType": "address",
          "name": "account",
          "type": "address"
        },
        {
          "internalType": "address",
          "name": "maybeOwner",
          "type": "address"
        }
      ],
      "name": "fractionOfJAOwner",
      "outputs": [
        {
          "internalType": "uint256",
          "name": "",
          "type": "uint256"
        }
      ],
      "stateMutability": "view",
      "type": "function",
      "constant": true
    },
    {
      "inputs": [
        {
          "internalType": "address",
          "name": "issuer",
          "type": "address"
        },
        {
          "internalType": "uint32",
          "name": "nonce",
          "type": "uint32"
        },
        {
          "internalType": "uint64",
          "name": "supply",
          "type": "uint64"
        }
      ],
      "name": "getNftId",
      "outputs": [
        {
          "internalType": "uint256",
          "name": "",
          "type": "uint256"
        }
      ],
      "stateMutability": "pure",
      "type": "function",
      "constant": true
    },
    {
      "inputs": [
        {
          "internalType": "address",
          "name": "seller",
          "type": "address"
        },
        {
          "internalType": "uint256",
          "name": "nftId",
          "type": "uint256"
        }
      ],
      "name": "getOffer",
      "outputs": [
        {
          "internalType": "uint256",
          "name": "",
          "type": "uint256"
        }
      ],
      "stateMutability": "view",
      "type": "function",
      "constant": true
    },
    {
      "inputs": [
        {
          "internalType": "bytes32",
          "name": "role",
          "type": "bytes32"
        }
      ],
      "name": "getRoleAdmin",
      "outputs": [
        {
          "internalType": "bytes32",
          "name": "",
          "type": "bytes32"
        }
      ],
      "stateMutability": "view",
      "type": "function",
      "constant": true
    },
    {
      "inputs": [
        {
          "internalType": "uint256",
          "name": "nftId",
          "type": "uint256"
        }
      ],
      "name": "getRoyalties",
      "outputs": [
        {
          "internalType": "address",
          "name": "primaryRoyaltyAccount",
          "type": "address"
        },
        {
          "internalType": "uint256",
          "name": "primaryRoyaltyCut",
          "type": "uint256"
        },
        {
          "internalType": "uint256",
          "name": "primaryRoyaltyMinimum",
          "type": "uint256"
        },
        {
          "internalType": "address",
          "name": "secondaryRoyaltyAccount",
          "type": "address"
        },
        {
          "internalType": "uint256",
          "name": "secondaryRoyaltyCut",
          "type": "uint256"
        },
        {
          "internalType": "uint256",
          "name": "secondaryRoyaltyMinimum",
          "type": "uint256"
        }
      ],
      "stateMutability": "view",
      "type": "function",
      "constant": true
    },
    {
      "inputs": [
        {
          "internalType": "uint256",
          "name": "nftId",
          "type": "uint256"
        },
        {
          "internalType": "address",
          "name": "beneficiary",
          "type": "address"
        }
      ],
      "name": "getRoyaltiesForBeneficiary",
      "outputs": [
        {
          "internalType": "uint256",
          "name": "primaryCut",
          "type": "uint256"
        },
        {
          "internalType": "uint256",
          "name": "primaryMinimum",
          "type": "uint256"
        },
        {
          "internalType": "uint256",
          "name": "secondaryCut",
          "type": "uint256"
        },
        {
          "internalType": "uint256",
          "name": "secondaryMinimum",
          "type": "uint256"
        }
      ],
      "stateMutability": "view",
      "type": "function",
      "constant": true
    },
    {
      "inputs": [
        {
          "internalType": "bytes32",
          "name": "role",
          "type": "bytes32"
        },
        {
          "internalType": "address",
          "name": "account",
          "type": "address"
        }
      ],
      "name": "grantRole",
      "outputs": [],
      "stateMutability": "nonpayable",
      "type": "function"
    },
    {
      "inputs": [
        {
          "internalType": "bytes32",
          "name": "role",
          "type": "bytes32"
        },
        {
          "internalType": "address",
          "name": "account",
          "type": "address"
        }
      ],
      "name": "hasRole",
      "outputs": [
        {
          "internalType": "bool",
          "name": "",
          "type": "bool"
        }
      ],
      "stateMutability": "view",
      "type": "function",
      "constant": true
    },
    {
      "inputs": [
        {
          "internalType": "address",
          "name": "account",
          "type": "address"
        },
        {
          "internalType": "address",
          "name": "operator",
          "type": "address"
        }
      ],
      "name": "isApprovedForAll",
      "outputs": [
        {
          "internalType": "bool",
          "name": "",
          "type": "bool"
        }
      ],
      "stateMutability": "view",
      "type": "function",
      "constant": true
    },
    {
      "inputs": [
        {
          "internalType": "address",
          "name": "forwarder",
          "type": "address"
        }
      ],
      "name": "isTrustedForwarder",
      "outputs": [
        {
          "internalType": "bool",
          "name": "",
          "type": "bool"
        }
      ],
      "stateMutability": "view",
      "type": "function",
      "constant": true
    },
    {
      "inputs": [
        {
          "internalType": "address",
          "name": "",
          "type": "address"
        }
      ],
      "name": "issuanceNonces",
      "outputs": [
        {
          "internalType": "uint32",
          "name": "",
          "type": "uint32"
        }
      ],
      "stateMutability": "view",
      "type": "function",
      "constant": true
    },
    {
      "inputs": [
        {
          "internalType": "uint64",
          "name": "supply",
          "type": "uint64"
        },
        {
          "internalType": "bytes",
          "name": "data",
          "type": "bytes"
        }
      ],
      "name": "issue",
      "outputs": [
        {
          "internalType": "uint256",
          "name": "",
          "type": "uint256"
        }
      ],
      "stateMutability": "nonpayable",
      "type": "function"
    },
    {
      "inputs": [
        {
          "internalType": "address",
          "name": "",
          "type": "address"
        },
        {
          "internalType": "uint256",
          "name": "",
          "type": "uint256"
        }
      ],
      "name": "jointAccounts",
      "outputs": [
        {
          "internalType": "address",
          "name": "owner",
          "type": "address"
        },
        {
          "internalType": "uint256",
          "name": "fraction",
          "type": "uint256"
        }
      ],
      "stateMutability": "view",
      "type": "function",
      "constant": true
    },
    {
      "inputs": [
        {
          "internalType": "uint256",
          "name": "nftId",
          "type": "uint256"
        },
        {
          "internalType": "uint256",
          "name": "lockUntil",
          "type": "uint256"
        }
      ],
      "name": "lockRoyalties",
      "outputs": [],
      "stateMutability": "nonpayable",
      "type": "function"
    },
    {
      "inputs": [
        {
          "internalType": "address[]",
          "name": "owners",
          "type": "address[]"
        },
        {
          "internalType": "uint256[]",
          "name": "fractions",
          "type": "uint256[]"
        }
      ],
      "name": "makeAddressOfJointAccount",
      "outputs": [
        {
          "internalType": "address",
          "name": "",
          "type": "address"
        }
      ],
      "stateMutability": "pure",
      "type": "function",
      "constant": true
    },
    {
      "inputs": [
        {
          "internalType": "uint256",
          "name": "nftId",
          "type": "uint256"
        },
        {
          "internalType": "uint256",
          "name": "price",
          "type": "uint256"
        }
      ],
      "name": "makeOffer",
      "outputs": [],
      "stateMutability": "nonpayable",
      "type": "function"
    },
    {
      "inputs": [
        {
          "internalType": "bytes32",
          "name": "role",
          "type": "bytes32"
        },
        {
          "internalType": "address",
          "name": "account",
          "type": "address"
        }
      ],
      "name": "renounceRole",
      "outputs": [],
      "stateMutability": "nonpayable",
      "type": "function"
    },
    {
      "inputs": [
        {
          "internalType": "bytes32",
          "name": "role",
          "type": "bytes32"
        },
        {
          "internalType": "address",
          "name": "account",
          "type": "address"
        }
      ],
      "name": "revokeRole",
      "outputs": [],
      "stateMutability": "nonpayable",
      "type": "function"
    },
    {
      "inputs": [
        {
          "internalType": "address",
          "name": "from",
          "type": "address"
        },
        {
          "internalType": "address",
          "name": "to",
          "type": "address"
        },
        {
          "internalType": "uint256[]",
          "name": "ids",
          "type": "uint256[]"
        },
        {
          "internalType": "uint256[]",
          "name": "amounts",
          "type": "uint256[]"
        },
        {
          "internalType": "bytes",
          "name": "data",
          "type": "bytes"
        }
      ],
      "name": "safeBatchTransferFrom",
      "outputs": [],
      "stateMutability": "nonpayable",
      "type": "function"
    },
    {
      "inputs": [
        {
          "internalType": "address",
          "name": "from",
          "type": "address"
        },
        {
          "internalType": "address",
          "name": "to",
          "type": "address"
        },
        {
          "internalType": "uint256",
          "name": "id",
          "type": "uint256"
        },
        {
          "internalType": "uint256",
          "name": "amount",
          "type": "uint256"
        },
        {
          "internalType": "bytes",
          "name": "data",
          "type": "bytes"
        }
      ],
      "name": "safeTransferFrom",
      "outputs": [],
      "stateMutability": "nonpayable",
      "type": "function"
    },
    {
      "inputs": [
        {
          "internalType": "address",
          "name": "operator",
          "type": "address"
        },
        {
          "internalType": "bool",
          "name": "approved",
          "type": "bool"
        }
      ],
      "name": "setApprovalForAll",
      "outputs": [],
      "stateMutability": "nonpayable",
      "type": "function"
    },
    {
      "inputs": [
        {
          "internalType": "address",
          "name": "_currencyContract",
          "type": "address"
        }
      ],
      "name": "setERC20",
      "outputs": [],
      "stateMutability": "nonpayable",
      "type": "function"
    },
    {
      "inputs": [
        {
          "internalType": "string",
          "name": "newuri",
          "type": "string"
        }
      ],
      "name": "setURI",
      "outputs": [],
      "stateMutability": "nonpayable",
      "type": "function"
    },
    {
      "inputs": [
        {
          "internalType": "bytes4",
          "name": "interfaceId",
          "type": "bytes4"
        }
      ],
      "name": "supportsInterface",
      "outputs": [
        {
          "internalType": "bool",
          "name": "",
          "type": "bool"
        }
      ],
      "stateMutability": "view",
      "type": "function",
      "constant": true
    },
    {
      "inputs": [
        {
          "internalType": "address",
          "name": "buyer",
          "type": "address"
        },
        {
          "internalType": "address",
          "name": "seller",
          "type": "address"
        },
        {
          "internalType": "uint256",
          "name": "nftId",
          "type": "uint256"
        },
        {
          "internalType": "uint256",
          "name": "expectedPriceOrZero",
          "type": "uint256"
        },
        {
          "internalType": "uint256",
          "name": "amount",
          "type": "uint256"
        }
      ],
      "name": "takeOffer",
      "outputs": [],
      "stateMutability": "nonpayable",
      "type": "function"
    },
    {
      "inputs": [
        {
          "internalType": "address",
          "name": "from",
          "type": "address"
        },
        {
          "internalType": "address",
          "name": "to",
          "type": "address"
        },
        {
          "internalType": "uint256",
          "name": "id",
          "type": "uint256"
        },
        {
          "internalType": "uint256",
          "name": "amount",
          "type": "uint256"
        }
      ],
      "name": "transferFrom",
      "outputs": [],
      "stateMutability": "nonpayable",
      "type": "function"
    },
    {
      "inputs": [
        {
          "internalType": "address",
          "name": "newImplementation",
          "type": "address"
        }
      ],
      "name": "upgradeTo",
      "outputs": [],
      "stateMutability": "nonpayable",
      "type": "function"
    },
    {
      "inputs": [
        {
          "internalType": "address",
          "name": "newImplementation",
          "type": "address"
        },
        {
          "internalType": "bytes",
          "name": "data",
          "type": "bytes"
        }
      ],
      "name": "upgradeToAndCall",
      "outputs": [],
      "stateMutability": "payable",
      "type": "function",
      "payable": true
    },
    {
      "inputs": [
        {
          "internalType": "uint256",
          "name": "",
          "type": "uint256"
        }
      ],
      "name": "uri",
      "outputs": [
        {
          "internalType": "string",
          "name": "",
          "type": "string"
        }
      ],
      "stateMutability": "view",
      "type": "function",
      "constant": true
    },
    {
      "inputs": [
        {
          "internalType": "uint256",
          "name": "amount",
          "type": "uint256"
        }
      ],
      "name": "withdraw",
      "outputs": [],
      "stateMutability": "nonpayable",
      "type": "function"
    },
    {
      "inputs": [],
      "name": "initialize",
      "outputs": [],
      "stateMutability": "nonpayable",
      "type": "function"
    }
  ],
  "bytecode": "0x608060405234801561001057600080fd5b50614cfb806100206000396000f3fe6080604052600436106103075760003560e01c80635c5d67881161019a578063b6b55f25116100e1578063e1f1c4a71161008a578063f242432a11610064578063f242432a14610a3c578063f536121914610771578063fe99049a14610a5c57600080fd5b8063e1f1c4a7146109c6578063e24b0a2b146109dc578063e985e9c514610a1c57600080fd5b8063bb3bafd6116100bb578063bb3bafd6146108d4578063c29a6fda14610986578063d547741f146109a657600080fd5b8063b6b55f2514610873578063b95812f414610893578063ba7f4dfe146108b457600080fd5b8063a217fddf11610143578063ac71045e1161011d578063ac71045e146107c6578063acc08fa51461080a578063ad09608a1461085357600080fd5b8063a217fddf14610771578063a22cb46514610786578063a5e1fcd7146107a657600080fd5b806391d148541161017457806391d14854146106d75780639a86e8ce1461071d5780639e00bb961461075157600080fd5b80635c5d67881461066e57806360e3ecd01461068e5780638129fc1c146106c257600080fd5b806336568abe1161025e5780634880d247116102075780635611cac2116101e15780635611cac2146105f6578063572b6c051461062e57806358556fb01461064e57600080fd5b80634880d247146105965780634e1273f4146105b65780634f1ef286146105e357600080fd5b80633c6b5709116102385780633c6b570914610503578063448588e3146105235780634559a29b1461055757600080fd5b806336568abe146104a35780633659cfe6146104c357806339b276f4146104e357600080fd5b8063248a9ca3116102c05780632eb2c2d61161029a5780632eb2c2d61461044e5780632f2ff15d1461046e57806330b064211461048e57600080fd5b8063248a9ca3146103de5780632c8f284c1461040e5780632e1a7d4d1461042e57600080fd5b806302fe5305116102f157806302fe53051461036f57806305b7cdd3146103915780630e89341c146103b157600080fd5b8062fdd58e1461030c57806301ffc9a71461033f575b600080fd5b34801561031857600080fd5b5061032c6103273660046144c3565b610a7c565b6040519081526020015b60405180910390f35b34801561034b57600080fd5b5061035f61035a366004614687565b610b2a565b6040519015158152602001610336565b34801561037b57600080fd5b5061038f61038a3660046146bf565b610b44565b005b34801561039d57600080fd5b5061038f6103ac366004614767565b610ba9565b3480156103bd57600080fd5b506103d16103cc36600461464d565b610c15565b60405161033691906149e7565b3480156103ea57600080fd5b5061032c6103f936600461464d565b600090815260fb602052604090206001015490565b34801561041a57600080fd5b5061032c610429366004614279565b610ca9565b34801561043a57600080fd5b5061038f61044936600461464d565b610d43565b34801561045a57600080fd5b5061038f6104693660046142ab565b610de7565b34801561047a57600080fd5b5061038f610489366004614665565b61117d565b34801561049a57600080fd5b5061032c600a81565b3480156104af57600080fd5b5061038f6104be366004614665565b6111aa565b3480156104cf57600080fd5b5061038f6104de36600461425f565b611246565b3480156104ef57600080fd5b5061038f6104fe366004614767565b61126a565b34801561050f57600080fd5b5061032c61051e366004614524565b611366565b34801561052f57600080fd5b5061032c7f20a4be6e7127e439f48d6654377d19402cb883dd85029e600de9e17052f903d381565b34801561056357600080fd5b506105776105723660046144c3565b6113a2565b604080516001600160a01b039093168352602083019190915201610336565b3480156105a257600080fd5b5061038f6105b13660046143f5565b6113e9565b3480156105c257600080fd5b506105d66105d1366004614570565b6115e8565b60405161033691906149af565b61038f6105f1366004614477565b61175e565b34801561060257600080fd5b50610616610611366004614570565b611773565b6040516001600160a01b039091168152602001610336565b34801561063a57600080fd5b5061035f61064936600461425f565b6117ac565b34801561065a57600080fd5b5061032c610669366004614788565b6117ec565b34801561067a57600080fd5b5061032c6106893660046144ec565b611800565b34801561069a57600080fd5b5061032c7f626f510646502d065065e8bd550325973a611a32e6f6ddff40650005cb13636881565b3480156106ce57600080fd5b5061038f6118a1565b3480156106e357600080fd5b5061035f6106f2366004614665565b600091825260fb602090815260408084206001600160a01b0393909316845291905290205460ff1690565b34801561072957600080fd5b5061032c7f3d2e894c222ba979e2dce2c7d940c0e9bb14306669e9f034eb1bb3979a2069d881565b34801561075d57600080fd5b5061032c61076c366004614279565b61195b565b34801561077d57600080fd5b5061032c600081565b34801561079257600080fd5b5061038f6107a1366004614441565b61199c565b3480156107b257600080fd5b5061038f6107c136600461425f565b611ac4565b3480156107d257600080fd5b5061032c6107e13660046144c3565b6001600160a01b0391909116600090815261013760209081526040808320938352929052205490565b34801561081657600080fd5b5061083e61082536600461425f565b61012e6020526000908152604090205463ffffffff1681565b60405163ffffffff9091168152602001610336565b34801561085f57600080fd5b5061038f61086e366004614705565b611b7d565b34801561087f57600080fd5b5061038f61088e36600461464d565b611e74565b34801561089f57600080fd5b5061012d54610616906001600160a01b031681565b3480156108c057600080fd5b506106166108cf366004614570565b611f43565b3480156108e057600080fd5b506109486108ef36600461464d565b6000908152610130602090815260408083205461013183528184205461013284528285205461013385528386205461013486528487205461013590965293909520546001600160a01b0392831696919594929093169290565b604080516001600160a01b039788168152602081019690965285019390935293166060830152608082019290925260a081019190915260c001610336565b34801561099257600080fd5b5061038f6109a136600461425f565b612278565b3480156109b257600080fd5b5061038f6109c1366004614665565b6122c8565b3480156109d257600080fd5b5061032c61271081565b3480156109e857600080fd5b506109fc6109f7366004614665565b6122f0565b604080519485526020850193909352918301526060820152608001610336565b348015610a2857600080fd5b5061035f610a37366004614279565b6123fc565b348015610a4857600080fd5b5061038f610a57366004614392565b612472565b348015610a6857600080fd5b5061038f610a77366004614351565b6126c3565b60006001600160a01b038316610aff5760405162461bcd60e51b815260206004820152602b60248201527f455243313135353a2062616c616e636520717565727920666f7220746865207a60448201527f65726f206164647265737300000000000000000000000000000000000000000060648201526084015b60405180910390fd5b50600081815260c9602090815260408083206001600160a01b03861684529091529020545b92915050565b6000610b35826127bf565b80610b245750610b248261285a565b610b5160006106f2612898565b610b9d5760405162461bcd60e51b815260206004820152600a60248201527f6f6e6c792061646d696e000000000000000000000000000000000000000000006044820152606401610af6565b610ba6816128a7565b50565b6000610bb3612898565b6001600160a01b038116600081815261013760209081526040808320888452825291829020869055905185815292935085927f040259e2f9c7930380b3a5c979ad8a30ecf8d344d3bcdb149e2c454ab85fcd8f910160405180910390a3505050565b606060cb8054610c2490614af7565b80601f0160208091040260200160405190810160405280929190818152602001828054610c5090614af7565b8015610c9d5780601f10610c7257610100808354040283529160200191610c9d565b820191906000526020600020905b815481529060010190602001808311610c8057829003601f168201915b50505050509050919050565b6001600160a01b038216600090815261012f60205260408120815b8154811015610d38576000828281548110610cef57634e487b7160e01b600052603260045260246000fd5b6000918252602090912060029091020180549091506001600160a01b0386811691161415610d2557600101549250610b24915050565b5080610d3081614b5f565b915050610cc4565b506000949350505050565b6000610d4d612898565b9050610d5b816000846128ba565b61012d5460405163a9059cbb60e01b81526001600160a01b038381166004830152602482018590529091169063a9059cbb90604401602060405180830381600087803b158015610daa57600080fd5b505af1158015610dbe573d6000803e3d6000fd5b505050506040513d601f19601f82011682018060405250810190610de29190614631565b505050565b8151835114610e5e5760405162461bcd60e51b815260206004820152602860248201527f455243313135353a2069647320616e6420616d6f756e7473206c656e6774682060448201527f6d69736d617463680000000000000000000000000000000000000000000000006064820152608401610af6565b6001600160a01b038416610ec25760405162461bcd60e51b815260206004820152602560248201527f455243313135353a207472616e7366657220746f20746865207a65726f206164604482015264647265737360d81b6064820152608401610af6565b610eca612898565b6001600160a01b0316856001600160a01b03161480610ef05750610ef085610a37612898565b610f625760405162461bcd60e51b815260206004820152603260248201527f455243313135353a207472616e736665722063616c6c6572206973206e6f742060448201527f6f776e6572206e6f7220617070726f76656400000000000000000000000000006064820152608401610af6565b6000610f6c612898565b9050610f7c818787878787612a7e565b60005b845181101561110f576000858281518110610faa57634e487b7160e01b600052603260045260246000fd5b602002602001015190506000858381518110610fd657634e487b7160e01b600052603260045260246000fd5b602090810291909101810151600084815260c9835260408082206001600160a01b038e16835290935291909120549091508181101561106a5760405162461bcd60e51b815260206004820152602a60248201527f455243313135353a20696e73756666696369656e742062616c616e636520666f60448201526939103a3930b739b332b960b11b6064820152608401610af6565b6110748282614a9d565b60c9600085815260200190815260200160002060008c6001600160a01b03166001600160a01b03168152602001908152602001600020819055508160c9600085815260200190815260200160002060008b6001600160a01b03166001600160a01b0316815260200190815260200160002060008282546110f49190614a1e565b925050819055505050508061110890614b5f565b9050610f7f565b50846001600160a01b0316866001600160a01b0316826001600160a01b03167f4a39dc06d4c0dbc64b70af90fd698a233a518aa5d07e595d983b8c0526c8f7fb878760405161115f9291906149c2565b60405180910390a4611175818787878787612af6565b505050505050565b600082815260fb60205260409020600101546111a08161119b612898565b612cab565b610de28383612d2b565b6111b2612898565b6001600160a01b0316816001600160a01b0316146112385760405162461bcd60e51b815260206004820152602f60248201527f416363657373436f6e74726f6c3a2063616e206f6e6c792072656e6f756e636560448201527f20726f6c657320666f722073656c6600000000000000000000000000000000006064820152608401610af6565b6112428282612dce565b5050565b61124f81612e6f565b610ba681604051806020016040528060008152506000612eed565b6000611274612898565b9050606083901c6001600160a01b0382161461128f57600080fd5b6000838152610136602052604090205482116113135760405162461bcd60e51b815260206004820152603260248201527f526f79616c7469657320636f6e66696775726174696f6e2063616e6e6f74206260448201527f6520756e6c6f636b6564206561726c69657200000000000000000000000000006064820152608401610af6565b60008381526101366020526040908190208390555183907f7bdd35d2167385bdbed0892e34b48298770ffce27fe71928c767071865f51544906113599085815260200190565b60405180910390a2505050565b6bffffffffffffffffffffffff19606084901b166bffffffff0000000000000000604084901b161767ffffffffffffffff8216175b9392505050565b61012f60205281600052604060002081815481106113bf57600080fd5b6000918252602090912060029091020180546001909101546001600160a01b039091169250905082565b60006113f3612898565b6001600160a01b038616600090815261013760209081526040808320888452909152902054909150806114685760405162461bcd60e51b815260206004820152600c60248201527f4e6f7420666f722073616c6500000000000000000000000000000000000000006044820152606401610af6565b83158061147457508084145b6114c05760405162461bcd60e51b815260206004820152601060248201527f556e6578706563746564207072696365000000000000000000000000000000006044820152606401610af6565b60006114cc8483614a7e565b90506114d781611e74565b6114f4838860008460405180602001604052806000815250612472565b6000611502888885886130e6565b90508181111561157a5760405162461bcd60e51b815260206004820152602560248201527f43616e6e6f742074616b65206d6f72652066656573207468616e20746865207060448201527f726963652e0000000000000000000000000000000000000000000000000000006064820152608401610af6565b611586888a8988613211565b86886001600160a01b03168a6001600160a01b03167fe90359125940e7c9b26005d19d4d8a2a5335ea8bef094bcd61bb8f8091cad11786896040516115d5929190918252602082015260400190565b60405180910390a4505050505050505050565b606081518351146116615760405162461bcd60e51b815260206004820152602960248201527f455243313135353a206163636f756e747320616e6420696473206c656e67746860448201527f206d69736d6174636800000000000000000000000000000000000000000000006064820152608401610af6565b6000835167ffffffffffffffff81111561168b57634e487b7160e01b600052604160045260246000fd5b6040519080825280602002602001820160405280156116b4578160200160208202803683370190505b50905060005b84518110156117565761171b8582815181106116e657634e487b7160e01b600052603260045260246000fd5b602002602001015185838151811061170e57634e487b7160e01b600052603260045260246000fd5b6020026020010151610a7c565b82828151811061173b57634e487b7160e01b600052603260045260246000fd5b602090810291909101015261174f81614b5f565b90506116ba565b509392505050565b61176782612e6f565b61124282826001612eed565b6000808383604051602001611789929190614809565b60408051808303601f19018152919052805160209091012060601c949350505050565b6001600160a01b03811660009081527f62c5b74fa86321b158cf52b86e58c6f8df25915113bba84ae36e7afe261046ae602052604081205460ff16610b24565b600061139b6117f9612898565b8484613359565b60008061180b612898565b905061181786826123fc565b6118895760405162461bcd60e51b815260206004820152603460248201527f746865206f70657261746f72206d75737420626520617070726f766564206f7260448201527f2061205452414e534645525f4f50455241544f520000000000000000000000006064820152608401610af6565b611895868686866130e6565b9150505b949350505050565b600054610100900460ff16806118ba575060005460ff16155b61191d5760405162461bcd60e51b815260206004820152602e60248201527f496e697469616c697a61626c653a20636f6e747261637420697320616c72656160448201526d191e481a5b9a5d1a585b1a5e995960921b6064820152608401610af6565b600054610100900460ff1615801561193f576000805461ffff19166101011790555b6119476133f9565b8015610ba6576000805461ff001916905550565b6000806119688484610ca9565b90506000611977856000610a7c565b905060006127106119888484614a7e565b6119929190614a5e565b9695505050505050565b816001600160a01b03166119ae612898565b6001600160a01b03161415611a2b5760405162461bcd60e51b815260206004820152602960248201527f455243313135353a2073657474696e6720617070726f76616c2073746174757360448201527f20666f722073656c6600000000000000000000000000000000000000000000006064820152608401610af6565b8060ca6000611a38612898565b6001600160a01b03908116825260208083019390935260409182016000908120918716808252919093529120805460ff191692151592909217909155611a7c612898565b6001600160a01b03167f17307eab39ab6107e8899845ad3d59bd9653f200f220920489ca2b5937696c3183604051611ab8911515815260200190565b60405180910390a35050565b6000611ad1826000610a7c565b6001600160a01b038316600090815261012f602052604081209192505b8154811015611b77576000828281548110611b1957634e487b7160e01b600052603260045260246000fd5b906000526020600020906002020190506000612710826001015486611b3e9190614a7e565b611b489190614a5e565b8254909150611b629087906001600160a01b031683613403565b50508080611b6f90614b5f565b915050611aee565b50505050565b6000611b87612898565b9050606088901c6001600160a01b03821614611c0b5760405162461bcd60e51b815260206004820152602d60248201527f4f6e6c792074686520697373756572206f662074686973204e46542063616e2060448201527f73657420726f79616c74696573000000000000000000000000000000000000006064820152608401610af6565b60008881526101366020526040902054421015611c905760405162461bcd60e51b815260206004820152602960248201527f526f79616c7469657320636f6e66696775726174696f6e206973206c6f636b6560448201527f6420666f72206e6f7700000000000000000000000000000000000000000000006064820152608401610af6565b6001600160a01b038716151580611cae575085158015611cae575084155b611d0f5760405162461bcd60e51b815260206004820152602c60248201527f546865206163636f756e74206d757374206e6f7420626520302c20756e6c657360448201526b07320666565732061726520360a41b6064820152608401610af6565b60008881526101306020908152604080832080546001600160a01b0319166001600160a01b038c81169190911790915561013183528184208a90556101329092529091208690558416151580611d6c575082158015611d6c575081155b611dcd5760405162461bcd60e51b815260206004820152602c60248201527f546865206163636f756e74206d757374206e6f7420626520302c20756e6c657360448201526b07320666565732061726520360a41b6064820152608401610af6565b60008881526101336020908152604080832080546001600160a01b0319166001600160a01b0389811691821790925561013484528285208890556101358452938290208690558151908b168152918201899052810187905260608101919091526080810184905260a0810183905288907f3df2272e42784a2455bbbdcdf25ae0f67d41f801896514cc4cd255aa8ee75e4c9060c00160405180910390a25050505050505050565b6000611e7e612898565b61012d546040517f23b872dd0000000000000000000000000000000000000000000000000000000081526001600160a01b038084166004830152306024830152604482018690529293509116906323b872dd90606401602060405180830381600087803b158015611eee57600080fd5b505af1158015611f02573d6000803e3d6000fd5b505050506040513d601f19601f82011682018060405250810190611f269190614631565b506112428160008460405180602001604052806000815250613496565b60008151835114611fbc5760405162461bcd60e51b815260206004820152603860248201527f417272617973206f66206f776e65727320616e64206672616374696f6e73206d60448201527f7573742068617665207468652073616d65206c656e67746800000000000000006064820152608401610af6565b600a8351111561200e5760405162461bcd60e51b815260206004820152600f60248201527f546f6f206d616e792073686172657300000000000000000000000000000000006044820152606401610af6565b600061201a8484611773565b6001600160a01b038116600090815261012f60205260409020805491925090156120865760405162461bcd60e51b815260206004820152601a60248201527f546865206163636f756e7420616c7265616479206578697374730000000000006044820152606401610af6565b6000805b865181101561221c5760008782815181106120b557634e487b7160e01b600052603260045260246000fd5b6020026020010151905060008783815181106120e157634e487b7160e01b600052603260045260246000fd5b6020026020010151905060006001600160a01b0316826001600160a01b03161415801561210d57508015155b6121595760405162461bcd60e51b815260206004820152601a60248201527f302076616c75657320617265206e6f74207065726d69747465640000000000006044820152606401610af6565b604080518082019091526001600160a01b0383811682526020808301848152885460018082018b5560008b8152939093209451600290910290940180546001600160a01b0319169490931693909317825591519101556121b98185614a1e565b9350816001600160a01b0316866001600160a01b03167e6fb9851f1fd2fbc9fa36680d17e1254999a38e5f3c76c3a1ecc126a464601b836040516121ff91815260200190565b60405180910390a35050808061221490614b5f565b91505061208a565b50612710811461226e5760405162461bcd60e51b815260206004820152601e60248201527f546f74616c206672616374696f6e73206d7573742062652031302c30303000006044820152606401610af6565b5090949350505050565b61012d546001600160a01b03161561228f57600080fd5b61229c60006106f2612898565b6122a557600080fd5b61012d80546001600160a01b0319166001600160a01b0392909216919091179055565b600082815260fb60205260409020600101546122e68161119b612898565b610de28383612dce565b600082815261013160209081526040808320546101328352818420546101309093529083205490929081906001600160a01b03908116908616811461237157600061233b8288610ca9565b905061271061234a8288614a7e565b6123549190614a5e565b95506127106123638287614a7e565b61236d9190614a5e565b9450505b6000878152610134602090815260408083205461013583528184205461013390935292205491945092506001600160a01b0390811690871681146123f15760006123bb8289610ca9565b90506127106123ca8287614a7e565b6123d49190614a5e565b94506127106123e38286614a7e565b6123ed9190614a5e565b9350505b505092959194509250565b6001600160a01b03811660009081527f6b565dcbbee77e515ed2de2cd96080889cd1588a0e613e7720d0ae9ebe5ef795602052604081205460ff161561244457506001610b24565b6001600160a01b03808416600090815260ca602090815260408083209386168352929052205460ff1661139b565b6001600160a01b0384166124d65760405162461bcd60e51b815260206004820152602560248201527f455243313135353a207472616e7366657220746f20746865207a65726f206164604482015264647265737360d81b6064820152608401610af6565b6124de612898565b6001600160a01b0316856001600160a01b03161480612504575061250485610a37612898565b6125625760405162461bcd60e51b815260206004820152602960248201527f455243313135353a2063616c6c6572206973206e6f74206f776e6572206e6f7260448201526808185c1c1c9bdd995960ba1b6064820152608401610af6565b600061256c612898565b905061258c81878761257d886135c0565b612586886135c0565b87612a7e565b600084815260c9602090815260408083206001600160a01b038a168452909152902054838110156126125760405162461bcd60e51b815260206004820152602a60248201527f455243313135353a20696e73756666696369656e742062616c616e636520666f60448201526939103a3930b739b332b960b11b6064820152608401610af6565b61261c8482614a9d565b600086815260c9602090815260408083206001600160a01b038c8116855292528083209390935588168152908120805486929061265a908490614a1e565b909155505060408051868152602081018690526001600160a01b03808916928a821692918616917fc3d58168c5ae7397731d063d5bbf3d657854427343f4c083240f7aacaa2d0f62910160405180910390a46126ba828888888888613619565b50505050505050565b6001600160a01b0383166127275760405162461bcd60e51b815260206004820152602560248201527f455243313135353a207472616e7366657220746f20746865207a65726f206164604482015264647265737360d81b6064820152608401610af6565b61272f612898565b6001600160a01b0316846001600160a01b03161480612755575061275584610a37612898565b6127b35760405162461bcd60e51b815260206004820152602960248201527f455243313135353a2063616c6c6572206973206e6f74206f776e6572206e6f7260448201526808185c1c1c9bdd995960ba1b6064820152608401610af6565b611b7784848484613211565b60006001600160e01b031982167fd9b67a2600000000000000000000000000000000000000000000000000000000148061282257506001600160e01b031982167f0e89341c00000000000000000000000000000000000000000000000000000000145b80610b2457507f01ffc9a7000000000000000000000000000000000000000000000000000000006001600160e01b0319831614610b24565b60006001600160e01b031982167f7965db0b000000000000000000000000000000000000000000000000000000001480610b245750610b24826127bf565b60006128a2613724565b905090565b80516112429060cb9060208401906140a1565b6001600160a01b0383166129365760405162461bcd60e51b815260206004820152602360248201527f455243313135353a206275726e2066726f6d20746865207a65726f206164647260448201527f65737300000000000000000000000000000000000000000000000000000000006064820152608401610af6565b6000612940612898565b905061297081856000612952876135c0565b61295b876135c0565b60405180602001604052806000815250612a7e565b600083815260c9602090815260408083206001600160a01b038816845290915290205482811015612a085760405162461bcd60e51b8152602060048201526024808201527f455243313135353a206275726e20616d6f756e7420657863656564732062616c60448201527f616e6365000000000000000000000000000000000000000000000000000000006064820152608401610af6565b612a128382614a9d565b600085815260c9602090815260408083206001600160a01b038a811680865291845282852095909555815189815292830188905292938616917fc3d58168c5ae7397731d063d5bbf3d657854427343f4c083240f7aacaa2d0f6291015b60405180910390a45050505050565b60005b83518110156126ba57612ae586858381518110612aae57634e487b7160e01b600052603260045260246000fd5b60200260200101516000868581518110612ad857634e487b7160e01b600052603260045260246000fd5b60200260200101516130e6565b50612aef81614b5f565b9050612a81565b6001600160a01b0384163b156111755760405163bc197c8160e01b81526001600160a01b0385169063bc197c8190612b3a908990899088908890889060040161490e565b602060405180830381600087803b158015612b5457600080fd5b505af1925050508015612b84575060408051601f3d908101601f19168201909252612b81918101906146a3565b60015b612c3a57612b90614ba6565b806308c379a01415612bca5750612ba5614bbd565b80612bb05750612bcc565b8060405162461bcd60e51b8152600401610af691906149e7565b505b60405162461bcd60e51b815260206004820152603460248201527f455243313135353a207472616e7366657220746f206e6f6e204552433131353560448201527f526563656976657220696d706c656d656e7465720000000000000000000000006064820152608401610af6565b6001600160e01b0319811663bc197c8160e01b146126ba5760405162461bcd60e51b815260206004820152602860248201527f455243313135353a204552433131353552656365697665722072656a656374656044820152676420746f6b656e7360c01b6064820152608401610af6565b600082815260fb602090815260408083206001600160a01b038516845290915290205460ff1661124257612ce9816001600160a01b03166014613749565b612cf4836020613749565b604051602001612d0592919061488d565b60408051601f198184030181529082905262461bcd60e51b8252610af6916004016149e7565b600082815260fb602090815260408083206001600160a01b038516845290915290205460ff1661124257600082815260fb602090815260408083206001600160a01b03851684529091529020805460ff19166001179055612d8a612898565b6001600160a01b0316816001600160a01b0316837f2f8788117e7eff1d82e926ec794901d17c78024a50270940304540a733656f0d60405160405180910390a45050565b600082815260fb602090815260408083206001600160a01b038516845290915290205460ff161561124257600082815260fb602090815260408083206001600160a01b03851684529091529020805460ff19169055612e2b612898565b6001600160a01b0316816001600160a01b0316837ff6391f5c32d9c69d2a47ea670b442974b53935d1edc7fd64eb21e047a839171b60405160405180910390a45050565b3360009081527fc88390e7e62175be0932452175b6a7222b6b094ab0ef984a5153c620345d8975602052604090205460ff16610ba65760405162461bcd60e51b815260206004820152600a60248201527f4f6e6c792041646d696e000000000000000000000000000000000000000000006044820152606401610af6565b6000612f207f360894a13ba1a3210667c828492db98dca3e2076cc3735a920a3ca505d382bbc546001600160a01b031690565b9050612f2b84613970565b600083511180612f385750815b15612f4957612f478484613a25565b505b7f4910fdfa16fed3260ed0e7147f7cc6da11a60208b5b9406d12a635614ffd9143805460ff166130df57805460ff191660011781556040516001600160a01b0383166024820152612ff690869060440160408051601f198184030181529190526020810180517bffffffffffffffffffffffffffffffffffffffffffffffffffffffff167f3659cfe600000000000000000000000000000000000000000000000000000000179052613a25565b50805460ff191681557f360894a13ba1a3210667c828492db98dca3e2076cc3735a920a3ca505d382bbc546001600160a01b038381169116146130a15760405162461bcd60e51b815260206004820152602f60248201527f45524331393637557067726164653a207570677261646520627265616b73206660448201527f75727468657220757067726164657300000000000000000000000000000000006064820152608401610af6565b6130aa85613970565b6040516001600160a01b038616907fbc7cd75a20ee27fd9adebab32041f755214dbc6bffa90cc0225b39da2e5c2d3b90600090a25b5050505050565b6000836130f557506000611899565b3360009081527feb7afeacd4c76123883e9e394b453030f30d66a5c2594bd87d884c3c6d610db9602052604090205460ff161561313457506000611899565b600080806001600160a01b038816606088901c148015613188576000888152610131602090815260408083205461013283528184205461013090935292205491955093506001600160a01b031691506131be565b6000888152610134602090815260408083205461013583528184205461013390935292205491955093506001600160a01b031691505b60006127106131cd868a614a7e565b6131d79190614a5e565b9050838110156131e45750825b60006131f08883614a7e565b90508015613203576132038b8583613b1e565b9a9950505050505050505050565b600082815260c9602090815260408083206001600160a01b0388168452909152902054818110156132975760405162461bcd60e51b815260206004820152602a60248201527f455243313135353a20696e73756666696369656e742062616c616e636520666f60448201526939103a3930b739b332b960b11b6064820152608401610af6565b6132a18282614a9d565b600084815260c9602090815260408083206001600160a01b038a811685529252808320939093558616815290812080548492906132df908490614a1e565b90915550600090506132ef612898565b9050846001600160a01b0316866001600160a01b0316826001600160a01b03167fc3d58168c5ae7397731d063d5bbf3d657854427343f4c083240f7aacaa2d0f628787604051613349929190918252602082015260400190565b60405180910390a4505050505050565b6001600160a01b038316600090815261012e602052604081205463ffffffff16613384816001614a36565b6001600160a01b038616600090815261012e60205260408120805463ffffffff191663ffffffff93909316929092179091556133c1868387611366565b905060008567ffffffffffffffff16116133da57600080fd5b6133f086828767ffffffffffffffff1687613496565b95945050505050565b613401613c83565b565b61340f836000836128ba565b61012d5460405163a9059cbb60e01b81526001600160a01b038481166004830152602482018490529091169063a9059cbb90604401602060405180830381600087803b15801561345e57600080fd5b505af1158015613472573d6000803e3d6000fd5b505050506040513d601f19601f82011682018060405250810190611b779190614631565b6001600160a01b0384166135125760405162461bcd60e51b815260206004820152602160248201527f455243313135353a206d696e7420746f20746865207a65726f2061646472657360448201527f73000000000000000000000000000000000000000000000000000000000000006064820152608401610af6565b600061351c612898565b905061352e8160008761257d886135c0565b600084815260c9602090815260408083206001600160a01b038916845290915281208054859290613560908490614a1e565b909155505060408051858152602081018590526001600160a01b0380881692600092918516917fc3d58168c5ae7397731d063d5bbf3d657854427343f4c083240f7aacaa2d0f62910160405180910390a46130df81600087878787613619565b6040805160018082528183019092526060916000919060208083019080368337019050509050828160008151811061360857634e487b7160e01b600052603260045260246000fd5b602090810291909101015292915050565b6001600160a01b0384163b156111755760405163f23a6e6160e01b81526001600160a01b0385169063f23a6e619061365d908990899088908890889060040161496c565b602060405180830381600087803b15801561367757600080fd5b505af19250505080156136a7575060408051601f3d908101601f191682019092526136a4918101906146a3565b60015b6136b357612b90614ba6565b6001600160e01b0319811663f23a6e6160e01b146126ba5760405162461bcd60e51b815260206004820152602860248201527f455243313135353a204552433131353552656365697665722072656a656374656044820152676420746f6b656e7360c01b6064820152608401610af6565b600061372f336117ac565b15613741575060131936013560601c90565b503390565b90565b60606000613758836002614a7e565b613763906002614a1e565b67ffffffffffffffff81111561378957634e487b7160e01b600052604160045260246000fd5b6040519080825280601f01601f1916602001820160405280156137b3576020820181803683370190505b5090507f3000000000000000000000000000000000000000000000000000000000000000816000815181106137f857634e487b7160e01b600052603260045260246000fd5b60200101906001600160f81b031916908160001a9053507f78000000000000000000000000000000000000000000000000000000000000008160018151811061385157634e487b7160e01b600052603260045260246000fd5b60200101906001600160f81b031916908160001a9053506000613875846002614a7e565b613880906001614a1e565b90505b6001811115613921577f303132333435363738396162636465660000000000000000000000000000000085600f16601081106138cf57634e487b7160e01b600052603260045260246000fd5b1a60f81b8282815181106138f357634e487b7160e01b600052603260045260246000fd5b60200101906001600160f81b031916908160001a90535060049490941c9361391a81614ae0565b9050613883565b50831561139b5760405162461bcd60e51b815260206004820181905260248201527f537472696e67733a20686578206c656e67746820696e73756666696369656e746044820152606401610af6565b803b6139e45760405162461bcd60e51b815260206004820152602d60248201527f455243313936373a206e657720696d706c656d656e746174696f6e206973206e60448201527f6f74206120636f6e7472616374000000000000000000000000000000000000006064820152608401610af6565b7f360894a13ba1a3210667c828492db98dca3e2076cc3735a920a3ca505d382bbc80546001600160a01b0319166001600160a01b0392909216919091179055565b6060823b613a9b5760405162461bcd60e51b815260206004820152602660248201527f416464726573733a2064656c65676174652063616c6c20746f206e6f6e2d636f60448201527f6e747261637400000000000000000000000000000000000000000000000000006064820152608401610af6565b600080846001600160a01b031684604051613ab69190614871565b600060405180830381855af49150503d8060008114613af1576040519150601f19603f3d011682016040523d82523d6000602084013e613af6565b606091505b50915091506133f08282604051806060016040528060278152602001614c6c60279139613c8b565b6001600160a01b03831660009081527f81fe90a866a48a634a12852c1be675b683a22307409932a7443b8029347be756602052604090205481811015613bb95760405162461bcd60e51b815260206004820152602a60248201527f455243313135353a20696e73756666696369656e742062616c616e636520666f60448201526939103a3930b739b332b960b11b6064820152608401610af6565b613bc38282614a9d565b6001600160a01b0385811660009081527f81fe90a866a48a634a12852c1be675b683a22307409932a7443b8029347be75660205260408082209390935590851681529081208054849290613c18908490614a1e565b9091555060009050613c28612898565b9050836001600160a01b0316856001600160a01b0316826001600160a01b03167fc3d58168c5ae7397731d063d5bbf3d657854427343f4c083240f7aacaa2d0f62600087604051612a6f929190918252602082015260400190565b613401613cc4565b60608315613c9a57508161139b565b825115613caa5782518084602001fd5b8160405162461bcd60e51b8152600401610af691906149e7565b613401613401613401613401613401613cf4604051806060016040528060338152602001614c9360339139613cfc565b613401613dc8565b600054610100900460ff1680613d15575060005460ff16155b613d785760405162461bcd60e51b815260206004820152602e60248201527f496e697469616c697a61626c653a20636f6e747261637420697320616c72656160448201526d191e481a5b9a5d1a585b1a5e995960921b6064820152608401610af6565b600054610100900460ff16158015613d9a576000805461ffff19166101011790555b613da2613dd0565b613daa613dd0565b613db382613e81565b8015611242576000805461ff00191690555050565b613401613f28565b600054610100900460ff1680613de9575060005460ff16155b613e4c5760405162461bcd60e51b815260206004820152602e60248201527f496e697469616c697a61626c653a20636f6e747261637420697320616c72656160448201526d191e481a5b9a5d1a585b1a5e995960921b6064820152608401610af6565b600054610100900460ff16158015611947576000805461ffff19166101011790558015610ba6576000805461ff001916905550565b600054610100900460ff1680613e9a575060005460ff16155b613efd5760405162461bcd60e51b815260206004820152602e60248201527f496e697469616c697a61626c653a20636f6e747261637420697320616c72656160448201526d191e481a5b9a5d1a585b1a5e995960921b6064820152608401610af6565b600054610100900460ff16158015613f1f576000805461ffff19166101011790555b613db3826128a7565b613f30613f43565b613f38613ff1565b613401600033614097565b600054610100900460ff1680613f5c575060005460ff16155b613fbf5760405162461bcd60e51b815260206004820152602e60248201527f496e697469616c697a61626c653a20636f6e747261637420697320616c72656160448201526d191e481a5b9a5d1a585b1a5e995960921b6064820152608401610af6565b600054610100900460ff16158015613fe1576000805461ffff19166101011790555b613fe9613dd0565b611947613dd0565b600054610100900460ff168061400a575060005460ff16155b61406d5760405162461bcd60e51b815260206004820152602e60248201527f496e697469616c697a61626c653a20636f6e747261637420697320616c72656160448201526d191e481a5b9a5d1a585b1a5e995960921b6064820152608401610af6565b600054610100900460ff1615801561408f576000805461ffff19166101011790555b613fe1613dd0565b6112428282612d2b565b8280546140ad90614af7565b90600052602060002090601f0160209004810192826140cf5760008555614115565b82601f106140e857805160ff1916838001178555614115565b82800160010185558215614115579182015b828111156141155782518255916020019190600101906140fa565b50614121929150614125565b5090565b5b808211156141215760008155600101614126565b600067ffffffffffffffff83111561415457614154614b90565b60405161416b601f8501601f191660200182614b32565b80915083815284848401111561418057600080fd5b83836020830137600060208583010152509392505050565b80356001600160a01b03811681146141af57600080fd5b919050565b600082601f8301126141c4578081fd5b813560206141d1826149fa565b6040516141de8282614b32565b8381528281019150858301600585901b870184018810156141fd578586fd5b855b8581101561421b578135845292840192908401906001016141ff565b5090979650505050505050565b600082601f830112614238578081fd5b61139b8383356020850161413a565b803567ffffffffffffffff811681146141af57600080fd5b600060208284031215614270578081fd5b61139b82614198565b6000806040838503121561428b578081fd5b61429483614198565b91506142a260208401614198565b90509250929050565b600080600080600060a086880312156142c2578081fd5b6142cb86614198565b94506142d960208701614198565b9350604086013567ffffffffffffffff808211156142f5578283fd5b61430189838a016141b4565b94506060880135915080821115614316578283fd5b61432289838a016141b4565b93506080880135915080821115614337578283fd5b5061434488828901614228565b9150509295509295909350565b60008060008060808587031215614366578384fd5b61436f85614198565b935061437d60208601614198565b93969395505050506040820135916060013590565b600080600080600060a086880312156143a9578081fd5b6143b286614198565b94506143c060208701614198565b93506040860135925060608601359150608086013567ffffffffffffffff8111156143e9578182fd5b61434488828901614228565b600080600080600060a0868803121561440c578283fd5b61441586614198565b945061442360208701614198565b94979496505050506040830135926060810135926080909101359150565b60008060408385031215614453578182fd5b61445c83614198565b9150602083013561446c81614c47565b809150509250929050565b60008060408385031215614489578182fd5b61449283614198565b9150602083013567ffffffffffffffff8111156144ad578182fd5b6144b985828601614228565b9150509250929050565b600080604083850312156144d5578182fd5b6144de83614198565b946020939093013593505050565b60008060008060808587031215614501578182fd5b61450a85614198565b966020860135965060408601359560600135945092505050565b600080600060608486031215614538578081fd5b61454184614198565b9250602084013563ffffffff81168114614559578182fd5b915061456760408501614247565b90509250925092565b60008060408385031215614582578182fd5b823567ffffffffffffffff80821115614599578384fd5b818501915085601f8301126145ac578384fd5b813560206145b9826149fa565b6040516145c68282614b32565b8381528281019150858301600585901b870184018b10156145e5578889fd5b8896505b8487101561460e576145fa81614198565b8352600196909601959183019183016145e9565b5096505086013592505080821115614624578283fd5b506144b9858286016141b4565b600060208284031215614642578081fd5b815161139b81614c47565b60006020828403121561465e578081fd5b5035919050565b60008060408385031215614677578182fd5b823591506142a260208401614198565b600060208284031215614698578081fd5b813561139b81614c55565b6000602082840312156146b4578081fd5b815161139b81614c55565b6000602082840312156146d0578081fd5b813567ffffffffffffffff8111156146e6578182fd5b8201601f810184136146f6578182fd5b6118998482356020840161413a565b600080600080600080600060e0888a03121561471f578485fd5b8735965061472f60208901614198565b9550604088013594506060880135935061474b60808901614198565b925060a0880135915060c0880135905092959891949750929550565b60008060408385031215614779578182fd5b50508035926020909101359150565b6000806040838503121561479a578182fd5b61449283614247565b6000815180845260208085019450808401835b838110156147d2578151875295820195908201906001016147b6565b509495945050505050565b600081518084526147f5816020860160208601614ab4565b601f01601f19169290920160200192915050565b825160009082906020808701845b8381101561483c5781516001600160a01b031685529382019390820190600101614817565b50508551818701939250845b8181101561486457845184529382019392820192600101614848565b5091979650505050505050565b60008251614883818460208701614ab4565b9190910192915050565b7f416363657373436f6e74726f6c3a206163636f756e74200000000000000000008152600083516148c5816017850160208801614ab4565b7f206973206d697373696e6720726f6c65200000000000000000000000000000006017918401918201528351614902816028840160208801614ab4565b01602801949350505050565b60006001600160a01b03808816835280871660208401525060a0604083015261493a60a08301866147a3565b828103606084015261494c81866147a3565b9050828103608084015261496081856147dd565b98975050505050505050565b60006001600160a01b03808816835280871660208401525084604083015283606083015260a060808301526149a460a08301846147dd565b979650505050505050565b60208152600061139b60208301846147a3565b6040815260006149d560408301856147a3565b82810360208401526133f081856147a3565b60208152600061139b60208301846147dd565b600067ffffffffffffffff821115614a1457614a14614b90565b5060051b60200190565b60008219821115614a3157614a31614b7a565b500190565b600063ffffffff808316818516808303821115614a5557614a55614b7a565b01949350505050565b600082614a7957634e487b7160e01b81526012600452602481fd5b500490565b6000816000190483118215151615614a9857614a98614b7a565b500290565b600082821015614aaf57614aaf614b7a565b500390565b60005b83811015614acf578181015183820152602001614ab7565b83811115611b775750506000910152565b600081614aef57614aef614b7a565b506000190190565b600181811c90821680614b0b57607f821691505b60208210811415614b2c57634e487b7160e01b600052602260045260246000fd5b50919050565b601f8201601f1916810167ffffffffffffffff81118282101715614b5857614b58614b90565b6040525050565b6000600019821415614b7357614b73614b7a565b5060010190565b634e487b7160e01b600052601160045260246000fd5b634e487b7160e01b600052604160045260246000fd5b600060033d111561374657600481823e5160e01c90565b600060443d1015614bcb5790565b6040516003193d81016004833e81513d67ffffffffffffffff8160248401118184111715614bfb57505050505090565b8285019150815181811115614c135750505050505090565b843d8701016020828501011115614c2d5750505050505090565b614c3c60208286010187614b32565b509095945050505050565b8015158114610ba657600080fd5b6001600160e01b031981168114610ba657600080fdfe416464726573733a206c6f772d6c6576656c2064656c65676174652063616c6c206661696c656468747470733a2f2f6170692e66726565706f72742e636572652e6e6574776f726b2f657263313135352f7b69647d2e6a736f6ea2646970667358221220d7f5feb05835a1fddfc05f907a35ab6b868e44ffc7418744053ef80dde923feb64736f6c63430008040033",
  "immutableReferences": {},
  "source": "pragma solidity ^0.8.0;\n\nimport \"./freeportParts/SimpleExchange.sol\";\n\n/** Main contract, including all components.\n\n- Hold and transfer NFTs using ERC1155.\n- Support atomic exchanges of NFTs for currency.\n- Issuance of NFTs with fixed supply.\n- Joint Accounts that distribute their funds over multiple owners.\n- Capture royalties on primary and secondary transfers, configurable per NFT type.\n*/\ncontract Freeport is /*\n    ERC1155,\n    AccessControl,\n    MetaTxContext,\n    BaseNFT,\n    Currency,\n    TransferOperator,\n    ERC20Adapter,\n    Issuance,\n    JointAccounts,\n    TransferFees,\n    */ SimpleExchange {\n\n    /** Initialize this contract and its dependencies.\n     */\n    function initialize() public initializer {\n        __SimpleExchange_init();\n    }\n}\n",
  "sourcePath": "/Users/neanvo/WorkFlow/cere/Freeport-Smart-Contracts/contracts/Freeport.sol",
  "compiler": {
    "name": "solc",
    "version": "0.8.4+commit.c7e474f2.Emscripten.clang"
  },
  "schemaVersion": "3.4.4",
  "updatedAt": "2022-06-23T12:59:33.671Z",
  "networkType": "ethereum",
  "devdoc": {
    "kind": "dev",
    "methods": {
      "balanceOf(address,uint256)": {
        "details": "See {IERC1155-balanceOf}. Requirements: - `account` cannot be the zero address."
      },
      "balanceOfBatch(address[],uint256[])": {
        "details": "See {IERC1155-balanceOfBatch}. Requirements: - `accounts` and `ids` must have the same length."
      },
      "getRoleAdmin(bytes32)": {
        "details": "Returns the admin role that controls `role`. See {grantRole} and {revokeRole}. To change a role's admin, use {_setRoleAdmin}."
      },
      "grantRole(bytes32,address)": {
        "details": "Grants `role` to `account`. If `account` had not been already granted `role`, emits a {RoleGranted} event. Requirements: - the caller must have ``role``'s admin role."
      },
      "hasRole(bytes32,address)": {
        "details": "Returns `true` if `account` has been granted `role`."
      },
      "renounceRole(bytes32,address)": {
        "details": "Revokes `role` from the calling account. Roles are often managed via {grantRole} and {revokeRole}: this function's purpose is to provide a mechanism for accounts to lose their privileges if they are compromised (such as when a trusted device is misplaced). If the calling account had been granted `role`, emits a {RoleRevoked} event. Requirements: - the caller must be `account`."
      },
      "revokeRole(bytes32,address)": {
        "details": "Revokes `role` from `account`. If `account` had been granted `role`, emits a {RoleRevoked} event. Requirements: - the caller must have ``role``'s admin role."
      },
      "safeBatchTransferFrom(address,address,uint256[],uint256[],bytes)": {
        "details": "See {IERC1155-safeBatchTransferFrom}."
      },
      "safeTransferFrom(address,address,uint256,uint256,bytes)": {
        "details": "See {IERC1155-safeTransferFrom}."
      },
      "setApprovalForAll(address,bool)": {
        "details": "See {IERC1155-setApprovalForAll}."
      },
      "uri(uint256)": {
        "details": "See {IERC1155MetadataURI-uri}. This implementation returns the same URI for *all* token types. It relies on the token type ID substitution mechanism https://eips.ethereum.org/EIPS/eip-1155#metadata[defined in the EIP]. Clients calling this function must replace the `\\{id\\}` substring with the actual token type ID."
      }
    },
    "version": 1
  },
  "userdoc": {
    "events": {
      "JointAccountShareCreated(address,address,uint256)": {
        "notice": "Notify that a Joint Account was created at the address `account`. One such event is emitted for each owner, including his fraction of the account in basis points (1% of 1%)."
      },
      "MakeOffer(address,uint256,uint256)": {
        "notice": "An event emitted when an account `seller` has offered to sell a type of NFT at a given price. This replaces previous offers by the same seller on the same NFT ID, if any. A price of 0 means \"no offer\" and the previous offer is cancelled. An offer does not imply that the seller owns any amount of this NFT. An offer remains valid until cancelled, for the entire balance at a given time, regardless of incoming and outgoing transfers on the seller account."
      },
      "RoyaltiesConfigured(uint256,address,uint256,uint256,address,uint256,uint256)": {
        "notice": "Notify that royalties were configured on an NFT type."
      },
      "RoyaltiesLocked(uint256,uint256)": {
        "notice": "Notify that royalties are locked and cannot change, until the given time (in UNIX seconds), or forever (lockUntil = 0xFFFFFFFF)."
      },
      "TakeOffer(address,address,uint256,uint256,uint256)": {
        "notice": "An offer of `seller` was taken by `buyer`. The transfers of `amount` NFTs of type `nftId` against `amount * price` of CERE Units were executed."
      }
    },
    "kind": "user",
    "methods": {
      "BASIS_POINTS()": {
        "notice": "The total fraction representing 100% of an account."
      },
      "CURRENCY()": {
        "notice": "The token ID that represents the internal currency for all payments in this contract. "
      },
      "balanceOfJAOwner(address,address)": {
        "notice": "Calculate the amount of tokens that an owner of a Joint Account can withdraw right now."
      },
      "captureFee(address,uint256,uint256,uint256)": {
        "notice": "Collect the royalty due on a transfer. The royalty is calculated based on NFT configuration and the price. It is collected by an internal transfer of currency between \"from\" and the beneficiary. Return the amount collected. The caller must be approved by \"from\", or a TRANSFER_OPERATOR."
      },
      "configureRoyalties(uint256,address,uint256,uint256,address,uint256,uint256)": {
        "notice": "Configure the amounts and beneficiaries of royalties on primary and secondary transfers of this NFT. This configuration is available to the issuer of this NFT. A transfer is primary if it comes from the issuer of this NFT (normally the first sale after issuance). Otherwise, it is a secondary transfer. A royalty is defined in two parts (both optional): a cut of the sale price of an NFT, and a minimum royalty per transfer. For simple transfers not attached to a price, or a too low price, the minimum royalty is charged. The cuts are given in basis points (1% of 1%). The minimums are given in currency amounts. The configuration can be changed at any time by default. However, the issuer may commit to it for a period of time, effectively giving up his ability to modify the royalties. See the function lockRoyalties. There can be one beneficiary account for each primary and secondary royalties. To distribute revenues amongst several parties, use a Joint Account (see function createJointAccount)."
      },
      "createJointAccount(address[],uint256[])": {
        "notice": "Create an account such that multiple owners have a claim on their respective share. The size of a share is given as a fraction in basis points (1% of 1%). The sum of share fractions must equal 10,000. Anyone can create Joint Accounts including any owners."
      },
      "currencyContract()": {
        "notice": "The address of ERC-20 token's contract"
      },
      "deposit(uint256)": {
        "notice": "Deposit currency from ERC20 into the internal currency. This requires payer to approve deposit."
      },
      "distributeJointAccount(address)": {
        "notice": "Distribute all tokens available to all owners of a Joint Account. The function createJointAccount must be called beforehand. Anyone can trigger the distribution."
      },
      "fractionOfJAOwner(address,address)": {
        "notice": "Return the fraction of an account owned by the given address, in basis points (1% of 1%). If the account does not exist, or if the given address is not an owner of it, this returns 0. If the owner appears more than once in the account, this reports only the first share."
      },
      "getNftId(address,uint32,uint64)": {
        "notice": "Calculate the ID of an NFT type, identifying its issuer, its supply, and an arbitrary nonce."
      },
      "getOffer(address,uint256)": {
        "notice": "Return the price offered by the given seller for the given NFT type."
      },
      "getRoyalties(uint256)": {
        "notice": "Return the current configuration of royalties for NFTs of type nftId, as set by configureRoyalties."
      },
      "getRoyaltiesForBeneficiary(uint256,address)": {
        "notice": "Return the amount of royalties earned by a beneficiary on each primary and secondary transfer of an NFT. This function supports Joint Accounts. If royalties are paid to a JA and beneficiary is an owner of the JA, the shares of the royalties for this owner are returned."
      },
      "initialize()": {
        "notice": "Initialize this contract and its dependencies."
      },
      "isApprovedForAll(address,address)": {
        "notice": "Return true for operators with the role TRANSFER_OPERATOR. Otherwise, apply the standard approval logic of ERC1155. See {IERC1155-isApprovedForAll}."
      },
      "issuanceNonces(address)": {
        "notice": "A counter of NFT types issued by each issuer. This is used to generate unique NFT IDs."
      },
      "issue(uint64,bytes)": {
        "notice": "Issue a supply of NFTs of a new type, and return its ID. No more NFT of this type can be issued again. The caller will be recorded as the issuer and it will initially own the entire supply."
      },
      "lockRoyalties(uint256,uint256)": {
        "notice": "Lock the configuration of royalties for this NFT type. Only the issuer may lock the configuration, after which he himself will no longer be able to change the configuration, for some time, or forever. Set lockUntil to a time in the future to lock the configuration until the specified time (in UNIX seconds). Set to 0xFFFFFFFF to lock forever."
      },
      "makeAddressOfJointAccount(address[],uint256[])": {
        "notice": "Generate a unique address identifying a list of owners and shares. It may be used to predict the address of a Joint Account and receive payments even before calling the function createJointAccount."
      },
      "makeOffer(uint256,uint256)": {
        "notice": "Create an offer to sell a type of NFTs for a price per unit. All the NFTs of this type owned by the caller will be for sale. To cancel, call again with a price of 0."
      },
      "setERC20(address)": {
        "notice": "Sets token's contract address. This token is used to deposit and withdraw on chain adapter's contract is deployed."
      },
      "supportsInterface(bytes4)": {
        "notice": "Supports interfaces of AccessControl, ERC1155, and ERC1155 MetadataURI."
      },
      "takeOffer(address,address,uint256,uint256,uint256)": {
        "notice": "Accept an offer, paying the price per unit for an amount of NFTs. The offer must have been created beforehand by makeOffer. The sender pays ERC20. The sender is not necessarily the same as buyer, see FiatGateway. The seller receives internal currency (equivalent to the ERC20 payment, see the function withdraw). The buyer receives the NFT. The parameter expectedPriceOrZero can be used to validate the price that the buyer expects to pay. This prevents a race condition with makeOffer or setExchangeRate. Pass 0 to disable this validation and accept any current price."
      },
      "transferFrom(address,address,uint256,uint256)": {
        "notice": "transferFrom performs a simple transfer, without calling the hooks  (no _beforeTokenTransfer and no onERC1155Received)."
      },
      "withdraw(uint256)": {
        "notice": "Withdraw currency from internal to ERC20"
      }
    },
    "notice": "Main contract, including all components. - Hold and transfer NFTs using ERC1155. - Support atomic exchanges of NFTs for currency. - Issuance of NFTs with fixed supply. - Joint Accounts that distribute their funds over multiple owners. - Capture royalties on primary and secondary transfers, configurable per NFT type.",
    "version": 1
  }
}