{
  "contractName": "Freeport",
  "abi": [
    {
      "anonymous": false,
      "inputs": [
        {
          "indexed": true,
          "internalType": "address",
          "name": "account",
          "type": "address"
        },
        {
          "indexed": true,
          "internalType": "address",
          "name": "operator",
          "type": "address"
        },
        {
          "indexed": false,
          "internalType": "bool",
          "name": "approved",
          "type": "bool"
        }
      ],
      "name": "ApprovalForAll",
      "type": "event"
    },
    {
      "anonymous": false,
      "inputs": [
        {
          "indexed": true,
          "internalType": "address",
          "name": "account",
          "type": "address"
        },
        {
          "indexed": true,
          "internalType": "address",
          "name": "owner",
          "type": "address"
        },
        {
          "indexed": false,
          "internalType": "uint256",
          "name": "fraction",
          "type": "uint256"
        }
      ],
      "name": "JointAccountShareCreated",
      "type": "event"
    },
    {
      "anonymous": false,
      "inputs": [
        {
          "indexed": true,
          "internalType": "address",
          "name": "seller",
          "type": "address"
        },
        {
          "indexed": true,
          "internalType": "uint256",
          "name": "nftId",
          "type": "uint256"
        },
        {
          "indexed": false,
          "internalType": "uint256",
          "name": "price",
          "type": "uint256"
        }
      ],
      "name": "MakeOffer",
      "type": "event"
    },
    {
      "anonymous": false,
      "inputs": [
        {
          "indexed": true,
          "internalType": "bytes32",
          "name": "role",
          "type": "bytes32"
        },
        {
          "indexed": true,
          "internalType": "bytes32",
          "name": "previousAdminRole",
          "type": "bytes32"
        },
        {
          "indexed": true,
          "internalType": "bytes32",
          "name": "newAdminRole",
          "type": "bytes32"
        }
      ],
      "name": "RoleAdminChanged",
      "type": "event"
    },
    {
      "anonymous": false,
      "inputs": [
        {
          "indexed": true,
          "internalType": "bytes32",
          "name": "role",
          "type": "bytes32"
        },
        {
          "indexed": true,
          "internalType": "address",
          "name": "account",
          "type": "address"
        },
        {
          "indexed": true,
          "internalType": "address",
          "name": "sender",
          "type": "address"
        }
      ],
      "name": "RoleGranted",
      "type": "event"
    },
    {
      "anonymous": false,
      "inputs": [
        {
          "indexed": true,
          "internalType": "bytes32",
          "name": "role",
          "type": "bytes32"
        },
        {
          "indexed": true,
          "internalType": "address",
          "name": "account",
          "type": "address"
        },
        {
          "indexed": true,
          "internalType": "address",
          "name": "sender",
          "type": "address"
        }
      ],
      "name": "RoleRevoked",
      "type": "event"
    },
    {
      "anonymous": false,
      "inputs": [
        {
          "indexed": true,
          "internalType": "uint256",
          "name": "nftId",
          "type": "uint256"
        },
        {
          "indexed": false,
          "internalType": "address",
          "name": "primaryRoyaltyAccount",
          "type": "address"
        },
        {
          "indexed": false,
          "internalType": "uint256",
          "name": "primaryRoyaltyCut",
          "type": "uint256"
        },
        {
          "indexed": false,
          "internalType": "uint256",
          "name": "primaryRoyaltyMinimum",
          "type": "uint256"
        },
        {
          "indexed": false,
          "internalType": "address",
          "name": "secondaryRoyaltyAccount",
          "type": "address"
        },
        {
          "indexed": false,
          "internalType": "uint256",
          "name": "secondaryRoyaltyCut",
          "type": "uint256"
        },
        {
          "indexed": false,
          "internalType": "uint256",
          "name": "secondaryRoyaltyMinimum",
          "type": "uint256"
        }
      ],
      "name": "RoyaltiesConfigured",
      "type": "event"
    },
    {
      "anonymous": false,
      "inputs": [
        {
          "indexed": true,
          "internalType": "uint256",
          "name": "nftId",
          "type": "uint256"
        },
        {
          "indexed": false,
          "internalType": "uint256",
          "name": "lockUntil",
          "type": "uint256"
        }
      ],
      "name": "RoyaltiesLocked",
      "type": "event"
    },
    {
      "anonymous": false,
      "inputs": [
        {
          "indexed": true,
          "internalType": "address",
          "name": "buyer",
          "type": "address"
        },
        {
          "indexed": true,
          "internalType": "address",
          "name": "seller",
          "type": "address"
        },
        {
          "indexed": true,
          "internalType": "uint256",
          "name": "nftId",
          "type": "uint256"
        },
        {
          "indexed": false,
          "internalType": "uint256",
          "name": "price",
          "type": "uint256"
        },
        {
          "indexed": false,
          "internalType": "uint256",
          "name": "amount",
          "type": "uint256"
        }
      ],
      "name": "TakeOffer",
      "type": "event"
    },
    {
      "anonymous": false,
      "inputs": [
        {
          "indexed": true,
          "internalType": "address",
          "name": "operator",
          "type": "address"
        },
        {
          "indexed": true,
          "internalType": "address",
          "name": "from",
          "type": "address"
        },
        {
          "indexed": true,
          "internalType": "address",
          "name": "to",
          "type": "address"
        },
        {
          "indexed": false,
          "internalType": "uint256[]",
          "name": "ids",
          "type": "uint256[]"
        },
        {
          "indexed": false,
          "internalType": "uint256[]",
          "name": "values",
          "type": "uint256[]"
        }
      ],
      "name": "TransferBatch",
      "type": "event"
    },
    {
      "anonymous": false,
      "inputs": [
        {
          "indexed": true,
          "internalType": "address",
          "name": "operator",
          "type": "address"
        },
        {
          "indexed": true,
          "internalType": "address",
          "name": "from",
          "type": "address"
        },
        {
          "indexed": true,
          "internalType": "address",
          "name": "to",
          "type": "address"
        },
        {
          "indexed": false,
          "internalType": "uint256",
          "name": "id",
          "type": "uint256"
        },
        {
          "indexed": false,
          "internalType": "uint256",
          "name": "value",
          "type": "uint256"
        }
      ],
      "name": "TransferSingle",
      "type": "event"
    },
    {
      "anonymous": false,
      "inputs": [
        {
          "indexed": false,
          "internalType": "string",
          "name": "value",
          "type": "string"
        },
        {
          "indexed": true,
          "internalType": "uint256",
          "name": "id",
          "type": "uint256"
        }
      ],
      "name": "URI",
      "type": "event"
    },
    {
      "inputs": [],
      "name": "BASIS_POINTS",
      "outputs": [
        {
          "internalType": "uint256",
          "name": "",
          "type": "uint256"
        }
      ],
      "stateMutability": "view",
      "type": "function",
      "constant": true
    },
    {
      "inputs": [],
      "name": "BYPASS_SENDER",
      "outputs": [
        {
          "internalType": "bytes32",
          "name": "",
          "type": "bytes32"
        }
      ],
      "stateMutability": "view",
      "type": "function",
      "constant": true
    },
    {
      "inputs": [],
      "name": "CURRENCY",
      "outputs": [
        {
          "internalType": "uint256",
          "name": "",
          "type": "uint256"
        }
      ],
      "stateMutability": "view",
      "type": "function",
      "constant": true
    },
    {
      "inputs": [],
      "name": "DEFAULT_ADMIN_ROLE",
      "outputs": [
        {
          "internalType": "bytes32",
          "name": "",
          "type": "bytes32"
        }
      ],
      "stateMutability": "view",
      "type": "function",
      "constant": true
    },
    {
      "inputs": [],
      "name": "MAX_JOINT_ACCOUNT_SHARES",
      "outputs": [
        {
          "internalType": "uint256",
          "name": "",
          "type": "uint256"
        }
      ],
      "stateMutability": "view",
      "type": "function",
      "constant": true
    },
    {
      "inputs": [],
      "name": "META_TX_FORWARDER",
      "outputs": [
        {
          "internalType": "bytes32",
          "name": "",
          "type": "bytes32"
        }
      ],
      "stateMutability": "view",
      "type": "function",
      "constant": true
    },
    {
      "inputs": [],
      "name": "TRANSFER_OPERATOR",
      "outputs": [
        {
          "internalType": "bytes32",
          "name": "",
          "type": "bytes32"
        }
      ],
      "stateMutability": "view",
      "type": "function",
      "constant": true
    },
    {
      "inputs": [
        {
          "internalType": "address",
          "name": "account",
          "type": "address"
        },
        {
          "internalType": "uint256",
          "name": "id",
          "type": "uint256"
        }
      ],
      "name": "balanceOf",
      "outputs": [
        {
          "internalType": "uint256",
          "name": "",
          "type": "uint256"
        }
      ],
      "stateMutability": "view",
      "type": "function",
      "constant": true
    },
    {
      "inputs": [
        {
          "internalType": "address[]",
          "name": "accounts",
          "type": "address[]"
        },
        {
          "internalType": "uint256[]",
          "name": "ids",
          "type": "uint256[]"
        }
      ],
      "name": "balanceOfBatch",
      "outputs": [
        {
          "internalType": "uint256[]",
          "name": "",
          "type": "uint256[]"
        }
      ],
      "stateMutability": "view",
      "type": "function",
      "constant": true
    },
    {
      "inputs": [
        {
          "internalType": "address",
          "name": "account",
          "type": "address"
        },
        {
          "internalType": "address",
          "name": "owner",
          "type": "address"
        }
      ],
      "name": "balanceOfJAOwner",
      "outputs": [
        {
          "internalType": "uint256",
          "name": "",
          "type": "uint256"
        }
      ],
      "stateMutability": "view",
      "type": "function",
      "constant": true
    },
    {
      "inputs": [
        {
          "internalType": "address",
          "name": "from",
          "type": "address"
        },
        {
          "internalType": "uint256",
          "name": "nftId",
          "type": "uint256"
        },
        {
          "internalType": "uint256",
          "name": "price",
          "type": "uint256"
        },
        {
          "internalType": "uint256",
          "name": "amount",
          "type": "uint256"
        }
      ],
      "name": "captureFee",
      "outputs": [
        {
          "internalType": "uint256",
          "name": "",
          "type": "uint256"
        }
      ],
      "stateMutability": "nonpayable",
      "type": "function"
    },
    {
      "inputs": [
        {
          "internalType": "uint256",
          "name": "nftId",
          "type": "uint256"
        },
        {
          "internalType": "address",
          "name": "primaryRoyaltyAccount",
          "type": "address"
        },
        {
          "internalType": "uint256",
          "name": "primaryRoyaltyCut",
          "type": "uint256"
        },
        {
          "internalType": "uint256",
          "name": "primaryRoyaltyMinimum",
          "type": "uint256"
        },
        {
          "internalType": "address",
          "name": "secondaryRoyaltyAccount",
          "type": "address"
        },
        {
          "internalType": "uint256",
          "name": "secondaryRoyaltyCut",
          "type": "uint256"
        },
        {
          "internalType": "uint256",
          "name": "secondaryRoyaltyMinimum",
          "type": "uint256"
        }
      ],
      "name": "configureRoyalties",
      "outputs": [],
      "stateMutability": "nonpayable",
      "type": "function"
    },
    {
      "inputs": [
        {
          "internalType": "address[]",
          "name": "owners",
          "type": "address[]"
        },
        {
          "internalType": "uint256[]",
          "name": "fractions",
          "type": "uint256[]"
        }
      ],
      "name": "createJointAccount",
      "outputs": [
        {
          "internalType": "address",
          "name": "",
          "type": "address"
        }
      ],
      "stateMutability": "nonpayable",
      "type": "function"
    },
    {
      "inputs": [],
      "name": "currencyContract",
      "outputs": [
        {
          "internalType": "contract IERC20",
          "name": "",
          "type": "address"
        }
      ],
      "stateMutability": "view",
      "type": "function",
      "constant": true
    },
    {
      "inputs": [
        {
          "internalType": "uint256",
          "name": "amount",
          "type": "uint256"
        }
      ],
      "name": "deposit",
      "outputs": [],
      "stateMutability": "nonpayable",
      "type": "function"
    },
    {
      "inputs": [
        {
          "internalType": "address",
          "name": "account",
          "type": "address"
        }
      ],
      "name": "distributeJointAccount",
      "outputs": [],
      "stateMutability": "nonpayable",
      "type": "function"
    },
    {
      "inputs": [
        {
          "internalType": "address",
          "name": "account",
          "type": "address"
        },
        {
          "internalType": "address",
          "name": "maybeOwner",
          "type": "address"
        }
      ],
      "name": "fractionOfJAOwner",
      "outputs": [
        {
          "internalType": "uint256",
          "name": "",
          "type": "uint256"
        }
      ],
      "stateMutability": "view",
      "type": "function",
      "constant": true
    },
    {
      "inputs": [
        {
          "internalType": "address",
          "name": "issuer",
          "type": "address"
        },
        {
          "internalType": "uint32",
          "name": "nonce",
          "type": "uint32"
        },
        {
          "internalType": "uint64",
          "name": "supply",
          "type": "uint64"
        }
      ],
      "name": "getNftId",
      "outputs": [
        {
          "internalType": "uint256",
          "name": "",
          "type": "uint256"
        }
      ],
      "stateMutability": "pure",
      "type": "function",
      "constant": true
    },
    {
      "inputs": [
        {
          "internalType": "address",
          "name": "seller",
          "type": "address"
        },
        {
          "internalType": "uint256",
          "name": "nftId",
          "type": "uint256"
        }
      ],
      "name": "getOffer",
      "outputs": [
        {
          "internalType": "uint256",
          "name": "",
          "type": "uint256"
        }
      ],
      "stateMutability": "view",
      "type": "function",
      "constant": true
    },
    {
      "inputs": [
        {
          "internalType": "bytes32",
          "name": "role",
          "type": "bytes32"
        }
      ],
      "name": "getRoleAdmin",
      "outputs": [
        {
          "internalType": "bytes32",
          "name": "",
          "type": "bytes32"
        }
      ],
      "stateMutability": "view",
      "type": "function",
      "constant": true
    },
    {
      "inputs": [
        {
          "internalType": "uint256",
          "name": "nftId",
          "type": "uint256"
        }
      ],
      "name": "getRoyalties",
      "outputs": [
        {
          "internalType": "address",
          "name": "primaryRoyaltyAccount",
          "type": "address"
        },
        {
          "internalType": "uint256",
          "name": "primaryRoyaltyCut",
          "type": "uint256"
        },
        {
          "internalType": "uint256",
          "name": "primaryRoyaltyMinimum",
          "type": "uint256"
        },
        {
          "internalType": "address",
          "name": "secondaryRoyaltyAccount",
          "type": "address"
        },
        {
          "internalType": "uint256",
          "name": "secondaryRoyaltyCut",
          "type": "uint256"
        },
        {
          "internalType": "uint256",
          "name": "secondaryRoyaltyMinimum",
          "type": "uint256"
        }
      ],
      "stateMutability": "view",
      "type": "function",
      "constant": true
    },
    {
      "inputs": [
        {
          "internalType": "uint256",
          "name": "nftId",
          "type": "uint256"
        },
        {
          "internalType": "address",
          "name": "beneficiary",
          "type": "address"
        }
      ],
      "name": "getRoyaltiesForBeneficiary",
      "outputs": [
        {
          "internalType": "uint256",
          "name": "primaryCut",
          "type": "uint256"
        },
        {
          "internalType": "uint256",
          "name": "primaryMinimum",
          "type": "uint256"
        },
        {
          "internalType": "uint256",
          "name": "secondaryCut",
          "type": "uint256"
        },
        {
          "internalType": "uint256",
          "name": "secondaryMinimum",
          "type": "uint256"
        }
      ],
      "stateMutability": "view",
      "type": "function",
      "constant": true
    },
    {
      "inputs": [
        {
          "internalType": "bytes32",
          "name": "role",
          "type": "bytes32"
        },
        {
          "internalType": "address",
          "name": "account",
          "type": "address"
        }
      ],
      "name": "grantRole",
      "outputs": [],
      "stateMutability": "nonpayable",
      "type": "function"
    },
    {
      "inputs": [
        {
          "internalType": "bytes32",
          "name": "role",
          "type": "bytes32"
        },
        {
          "internalType": "address",
          "name": "account",
          "type": "address"
        }
      ],
      "name": "hasRole",
      "outputs": [
        {
          "internalType": "bool",
          "name": "",
          "type": "bool"
        }
      ],
      "stateMutability": "view",
      "type": "function",
      "constant": true
    },
    {
      "inputs": [
        {
          "internalType": "address",
          "name": "account",
          "type": "address"
        },
        {
          "internalType": "address",
          "name": "operator",
          "type": "address"
        }
      ],
      "name": "isApprovedForAll",
      "outputs": [
        {
          "internalType": "bool",
          "name": "",
          "type": "bool"
        }
      ],
      "stateMutability": "view",
      "type": "function",
      "constant": true
    },
    {
      "inputs": [
        {
          "internalType": "address",
          "name": "forwarder",
          "type": "address"
        }
      ],
      "name": "isTrustedForwarder",
      "outputs": [
        {
          "internalType": "bool",
          "name": "",
          "type": "bool"
        }
      ],
      "stateMutability": "view",
      "type": "function",
      "constant": true
    },
    {
      "inputs": [
        {
          "internalType": "address",
          "name": "",
          "type": "address"
        }
      ],
      "name": "issuanceNonces",
      "outputs": [
        {
          "internalType": "uint32",
          "name": "",
          "type": "uint32"
        }
      ],
      "stateMutability": "view",
      "type": "function",
      "constant": true
    },
    {
      "inputs": [
        {
          "internalType": "uint64",
          "name": "supply",
          "type": "uint64"
        },
        {
          "internalType": "bytes",
          "name": "data",
          "type": "bytes"
        }
      ],
      "name": "issue",
      "outputs": [
        {
          "internalType": "uint256",
          "name": "",
          "type": "uint256"
        }
      ],
      "stateMutability": "nonpayable",
      "type": "function"
    },
    {
      "inputs": [
        {
          "internalType": "address",
          "name": "",
          "type": "address"
        },
        {
          "internalType": "uint256",
          "name": "",
          "type": "uint256"
        }
      ],
      "name": "jointAccounts",
      "outputs": [
        {
          "internalType": "address",
          "name": "owner",
          "type": "address"
        },
        {
          "internalType": "uint256",
          "name": "fraction",
          "type": "uint256"
        }
      ],
      "stateMutability": "view",
      "type": "function",
      "constant": true
    },
    {
      "inputs": [
        {
          "internalType": "uint256",
          "name": "nftId",
          "type": "uint256"
        },
        {
          "internalType": "uint256",
          "name": "lockUntil",
          "type": "uint256"
        }
      ],
      "name": "lockRoyalties",
      "outputs": [],
      "stateMutability": "nonpayable",
      "type": "function"
    },
    {
      "inputs": [
        {
          "internalType": "address[]",
          "name": "owners",
          "type": "address[]"
        },
        {
          "internalType": "uint256[]",
          "name": "fractions",
          "type": "uint256[]"
        }
      ],
      "name": "makeAddressOfJointAccount",
      "outputs": [
        {
          "internalType": "address",
          "name": "",
          "type": "address"
        }
      ],
      "stateMutability": "pure",
      "type": "function",
      "constant": true
    },
    {
      "inputs": [
        {
          "internalType": "uint256",
          "name": "nftId",
          "type": "uint256"
        },
        {
          "internalType": "uint256",
          "name": "price",
          "type": "uint256"
        }
      ],
      "name": "makeOffer",
      "outputs": [],
      "stateMutability": "nonpayable",
      "type": "function"
    },
    {
      "inputs": [
        {
          "internalType": "bytes32",
          "name": "role",
          "type": "bytes32"
        },
        {
          "internalType": "address",
          "name": "account",
          "type": "address"
        }
      ],
      "name": "renounceRole",
      "outputs": [],
      "stateMutability": "nonpayable",
      "type": "function"
    },
    {
      "inputs": [
        {
          "internalType": "bytes32",
          "name": "role",
          "type": "bytes32"
        },
        {
          "internalType": "address",
          "name": "account",
          "type": "address"
        }
      ],
      "name": "revokeRole",
      "outputs": [],
      "stateMutability": "nonpayable",
      "type": "function"
    },
    {
      "inputs": [
        {
          "internalType": "address",
          "name": "from",
          "type": "address"
        },
        {
          "internalType": "address",
          "name": "to",
          "type": "address"
        },
        {
          "internalType": "uint256[]",
          "name": "ids",
          "type": "uint256[]"
        },
        {
          "internalType": "uint256[]",
          "name": "amounts",
          "type": "uint256[]"
        },
        {
          "internalType": "bytes",
          "name": "data",
          "type": "bytes"
        }
      ],
      "name": "safeBatchTransferFrom",
      "outputs": [],
      "stateMutability": "nonpayable",
      "type": "function"
    },
    {
      "inputs": [
        {
          "internalType": "address",
          "name": "from",
          "type": "address"
        },
        {
          "internalType": "address",
          "name": "to",
          "type": "address"
        },
        {
          "internalType": "uint256",
          "name": "id",
          "type": "uint256"
        },
        {
          "internalType": "uint256",
          "name": "amount",
          "type": "uint256"
        },
        {
          "internalType": "bytes",
          "name": "data",
          "type": "bytes"
        }
      ],
      "name": "safeTransferFrom",
      "outputs": [],
      "stateMutability": "nonpayable",
      "type": "function"
    },
    {
      "inputs": [
        {
          "internalType": "address",
          "name": "operator",
          "type": "address"
        },
        {
          "internalType": "bool",
          "name": "approved",
          "type": "bool"
        }
      ],
      "name": "setApprovalForAll",
      "outputs": [],
      "stateMutability": "nonpayable",
      "type": "function"
    },
    {
      "inputs": [
        {
          "internalType": "address",
          "name": "_currencyContract",
          "type": "address"
        }
      ],
      "name": "setERC20",
      "outputs": [],
      "stateMutability": "nonpayable",
      "type": "function"
    },
    {
      "inputs": [
        {
          "internalType": "bytes4",
          "name": "interfaceId",
          "type": "bytes4"
        }
      ],
      "name": "supportsInterface",
      "outputs": [
        {
          "internalType": "bool",
          "name": "",
          "type": "bool"
        }
      ],
      "stateMutability": "view",
      "type": "function",
      "constant": true
    },
    {
      "inputs": [
        {
          "internalType": "address",
          "name": "buyer",
          "type": "address"
        },
        {
          "internalType": "address",
          "name": "seller",
          "type": "address"
        },
        {
          "internalType": "uint256",
          "name": "nftId",
          "type": "uint256"
        },
        {
          "internalType": "uint256",
          "name": "expectedPriceOrZero",
          "type": "uint256"
        },
        {
          "internalType": "uint256",
          "name": "amount",
          "type": "uint256"
        }
      ],
      "name": "takeOffer",
      "outputs": [],
      "stateMutability": "nonpayable",
      "type": "function"
    },
    {
      "inputs": [
        {
          "internalType": "uint256",
          "name": "",
          "type": "uint256"
        }
      ],
      "name": "uri",
      "outputs": [
        {
          "internalType": "string",
          "name": "",
          "type": "string"
        }
      ],
      "stateMutability": "view",
      "type": "function",
      "constant": true
    },
    {
      "inputs": [
        {
          "internalType": "uint256",
          "name": "amount",
          "type": "uint256"
        }
      ],
      "name": "withdraw",
      "outputs": [],
      "stateMutability": "nonpayable",
      "type": "function"
    }
  ],
  "bytecode": "0x6080604052612710600655600a6007553480156200001c57600080fd5b5060405180606001604052806022815260200162003a5e6022913962000042816200005f565b506200005960006200005362000078565b62000094565b620002a7565b805162000074906002906020840190620001c4565b5050565b60006200008f620000a060201b62001dea1760201c565b905090565b620000748282620000d5565b6000620000ad3362000161565b15620000c0575060131936013560601c90565b6200008f6200019560201b62001e141760201c565b620000e1828262000199565b620000745760008281526003602090815260408083206001600160a01b03851684529091529020805460ff191660011790556200011d62000078565b6001600160a01b0316816001600160a01b0316837f2f8788117e7eff1d82e926ec794901d17c78024a50270940304540a733656f0d60405160405180910390a45050565b60006200018f7f3d2e894c222ba979e2dce2c7d940c0e9bb14306669e9f034eb1bb3979a2069d88362000199565b92915050565b3390565b60009182526003602090815260408084206001600160a01b0393909316845291905290205460ff1690565b828054620001d2906200026a565b90600052602060002090601f016020900481019282620001f6576000855562000241565b82601f106200021157805160ff191683800117855562000241565b8280016001018555821562000241579182015b828111156200024157825182559160200191906001019062000224565b506200024f92915062000253565b5090565b5b808211156200024f576000815560010162000254565b600181811c908216806200027f57607f821691505b60208210811415620002a157634e487b7160e01b600052602260045260246000fd5b50919050565b6137a780620002b76000396000f3fe608060405234801561001057600080fd5b50600436106101ed5760003560e01c8062fdd58e146101f257806301ffc9a71461021857806305b7cdd31461023b5780630e89341c14610250578063248a9ca3146102705780632c8f284c146102835780632e1a7d4d146102965780632eb2c2d6146102a95780632f2ff15d146102bc57806330b06421146102cf57806336568abe146102d857806339b276f4146102eb5780633c6b5709146102fe578063448588e3146103115780634559a29b146103265780634880d247146103475780634e1273f41461035a5780635611cac21461037a578063572b6c05146103a557806358556fb0146103b85780635c5d6788146103cb57806360e3ecd0146103de57806391d14854146103f35780639a86e8ce146104065780639e00bb961461041b578063a217fddf1461042e578063a22cb46514610436578063a5e1fcd714610449578063ac71045e1461045c578063acc08fa514610492578063ad09608a146104cd578063b6b55f25146104e0578063b95812f4146104f3578063ba7f4dfe14610506578063bb3bafd614610519578063c29a6fda1461058c578063d547741f1461059f578063e1f1c4a7146105b2578063e24b0a2b146105bb578063e985e9c5146105ee578063f242432a14610601578063f53612191461042e575b600080fd5b610205610200366004612de8565b610614565b6040519081526020015b60405180910390f35b61022b610226366004612fb5565b6106ae565b604051901515815260200161020f565b61024e61024936600461304f565b6106c8565b005b61026361025e366004612f7b565b610733565b60405161020f919061331c565b61020561027e366004612f7b565b6107c7565b610205610291366004612c2d565b6107dc565b61024e6102a4366004612f7b565b610875565b61024e6102b7366004612c5f565b610915565b61024e6102ca366004612f93565b610c07565b61020560075481565b61024e6102e6366004612f93565b610c2b565b61024e6102f936600461304f565b610cb9565b61020561030c366004612e49565b610da2565b61020560008051602061373283398151915281565b610339610334366004612de8565b610dd2565b60405161020f929190613291565b61024e610355366004612d66565b610e18565b61036d610368366004612e95565b610fc0565b60405161020f91906132e4565b61038d610388366004612e95565b611121565b6040516001600160a01b03909116815260200161020f565b61022b6103b3366004612c13565b61115a565b6102056103c6366004613070565b611174565b6102056103d9366004612e11565b61118f565b61020560008051602061371283398151915281565b61022b610401366004612f93565b611227565b6102056000805160206136f283398151915281565b610205610429366004612c2d565b611252565b610205600081565b61024e610444366004612db2565b611295565b61024e610457366004612c13565b6113a9565b61020561046a366004612de8565b6001600160a01b03919091166000908152601060209081526040808320938352929052205490565b6104b86104a0366004612c13565b60056020526000908152604090205463ffffffff1681565b60405163ffffffff909116815260200161020f565b61024e6104db366004612fed565b611461565b61024e6104ee366004612f7b565b611685565b60045461038d906001600160a01b031681565b61038d610514366004612e95565b61173c565b61057a610527366004612f7b565b600090815260096020908152604080832054600a835281842054600b845282852054600c855283862054600d865284872054600e90965293909520546001600160a01b0392831696919594929093169290565b60405161020f969594939291906132aa565b61024e61059a366004612c13565b611a58565b61024e6105ad366004612f93565b611aa6565b61020560065481565b6105ce6105c9366004612f93565b611ac5565b60408051948552602085019390935291830152606082015260800161020f565b61022b6105fc366004612c2d565b611bcf565b61024e61060f366004612d04565b611c24565b60006001600160a01b0383166106855760405162461bcd60e51b815260206004820152602b60248201527f455243313135353a2062616c616e636520717565727920666f7220746865207a60448201526a65726f206164647265737360a81b60648201526084015b60405180910390fd5b506000818152602081815260408083206001600160a01b03861684529091529020545b92915050565b60006106b982611e18565b806106a857506106a882611e68565b60006106d2611e8d565b6001600160a01b0381166000818152601060209081526040808320888452825291829020869055905185815292935085927f040259e2f9c7930380b3a5c979ad8a30ecf8d344d3bcdb149e2c454ab85fcd8f910160405180910390a3505050565b6060600280546107429061355c565b80601f016020809104026020016040519081016040528092919081815260200182805461076e9061355c565b80156107bb5780601f10610790576101008083540402835291602001916107bb565b820191906000526020600020905b81548152906001019060200180831161079e57829003601f168201915b50505050509050919050565b60009081526003602052604090206001015490565b6001600160a01b0382166000908152600860205260408120815b815481101561086a57600082828154811061082157634e487b7160e01b600052603260045260246000fd5b6000918252602090912060029091020180549091506001600160a01b0386811691161415610857576001015492506106a8915050565b5080610862816135c3565b9150506107f6565b506000949350505050565b600061087f611e8d565b905061088d81600084611e97565b6004805460405163a9059cbb60e01b81526001600160a01b039091169163a9059cbb916108be918591879101613291565b602060405180830381600087803b1580156108d857600080fd5b505af11580156108ec573d6000803e3d6000fd5b505050506040513d601f19601f820116820180604052508101906109109190612f5f565b505050565b81518351146109775760405162461bcd60e51b815260206004820152602860248201527f455243313135353a2069647320616e6420616d6f756e7473206c656e677468206044820152670dad2e6dac2e8c6d60c31b606482015260840161067c565b6001600160a01b03841661099d5760405162461bcd60e51b815260040161067c90613377565b6109a5611e8d565b6001600160a01b0316856001600160a01b031614806109cb57506109cb856105fc611e8d565b610a325760405162461bcd60e51b815260206004820152603260248201527f455243313135353a207472616e736665722063616c6c6572206973206e6f74206044820152711bdddb995c881b9bdc88185c1c1c9bdd995960721b606482015260840161067c565b6000610a3c611e8d565b9050610a4c818787878787612016565b60005b8451811015610b99576000858281518110610a7a57634e487b7160e01b600052603260045260246000fd5b602002602001015190506000858381518110610aa657634e487b7160e01b600052603260045260246000fd5b602090810291909101810151600084815280835260408082206001600160a01b038e168352909352919091205490915081811015610af65760405162461bcd60e51b815260040161067c90613408565b610b008282613502565b60008085815260200190815260200160002060008c6001600160a01b03166001600160a01b03168152602001908152602001600020819055508160008085815260200190815260200160002060008b6001600160a01b03166001600160a01b031681526020019081526020016000206000828254610b7e9190613483565b9250508190555050505080610b92906135c3565b9050610a4f565b50846001600160a01b0316866001600160a01b0316826001600160a01b03167f4a39dc06d4c0dbc64b70af90fd698a233a518aa5d07e595d983b8c0526c8f7fb8787604051610be99291906132f7565b60405180910390a4610bff81878787878761208e565b505050505050565b610c10826107c7565b610c2181610c1c611e8d565b6121f9565b610910838361225d565b610c33611e8d565b6001600160a01b0316816001600160a01b031614610cab5760405162461bcd60e51b815260206004820152602f60248201527f416363657373436f6e74726f6c3a2063616e206f6e6c792072656e6f756e636560448201526e103937b632b9903337b91039b2b63360891b606482015260840161067c565b610cb582826122e4565b5050565b6000610cc3611e8d565b9050610ccf8184612369565b610cd857600080fd5b6000838152600f60205260409020548211610d505760405162461bcd60e51b815260206004820152603260248201527f526f79616c7469657320636f6e66696775726174696f6e2063616e6e6f74206260448201527132903ab73637b1b5b2b21032b0b93634b2b960711b606482015260840161067c565b6000838152600f6020526040908190208390555183907f7bdd35d2167385bdbed0892e34b48298770ffce27fe71928c767071865f5154490610d959085815260200190565b60405180910390a2505050565b6001600160601b0319606084901b1663ffffffff60401b604084901b16176001600160401b038216179392505050565b60086020528160005260406000208181548110610dee57600080fd5b6000918252602090912060029091020180546001909101546001600160a01b039091169250905082565b6001600160a01b038416600090815260106020908152604080832086845290915290205480610e785760405162461bcd60e51b815260206004820152600c60248201526b4e6f7420666f722073616c6560a01b604482015260640161067c565b821580610e8457508083145b610ec35760405162461bcd60e51b815260206004820152601060248201526f556e657870656374656420707269636560801b604482015260640161067c565b6000610ecf83836134e3565b9050610eee878760008460405180602001604052806000815250611c24565b6000610efc8787858761237c565b905081811115610f5c5760405162461bcd60e51b815260206004820152602560248201527f43616e6e6f742074616b65206d6f72652066656573207468616e2074686520706044820152643934b1b29760d91b606482015260840161067c565b610f6887898887612486565b85876001600160a01b0316896001600160a01b03167fe90359125940e7c9b26005d19d4d8a2a5335ea8bef094bcd61bb8f8091cad1178688604051610fae929190613452565b60405180910390a45050505050505050565b606081518351146110255760405162461bcd60e51b815260206004820152602960248201527f455243313135353a206163636f756e747320616e6420696473206c656e677468604482015268040dad2e6dac2e8c6d60bb1b606482015260840161067c565b600083516001600160401b0381111561104e57634e487b7160e01b600052604160045260246000fd5b604051908082528060200260200182016040528015611077578160200160208202803683370190505b50905060005b8451811015611119576110de8582815181106110a957634e487b7160e01b600052603260045260246000fd5b60200260200101518583815181106110d157634e487b7160e01b600052603260045260246000fd5b6020026020010151610614565b8282815181106110fe57634e487b7160e01b600052603260045260246000fd5b6020908102919091010152611112816135c3565b905061107d565b509392505050565b6000808383604051602001611137929190613117565b60408051808303601f19018152919052805160209091012060601c949350505050565b60006106a86000805160206136f283398151915283611227565b6000611188611181611e8d565b848461256c565b9392505050565b60008061119a611e8d565b90506111a68682611bcf565b61120f5760405162461bcd60e51b815260206004820152603460248201527f746865206f70657261746f72206d75737420626520617070726f766564206f726044820152731030902a2920a729a322a92fa7a822a920aa27a960611b606482015260840161067c565b61121b8686868661237c565b9150505b949350505050565b60009182526003602090815260408084206001600160a01b0393909316845291905290205460ff1690565b60008061125f84846107dc565b9050600061126e856000610614565b90506000600654838361128191906134e3565b61128b91906134c3565b9695505050505050565b816001600160a01b03166112a7611e8d565b6001600160a01b031614156113105760405162461bcd60e51b815260206004820152602960248201527f455243313135353a2073657474696e6720617070726f76616c20737461747573604482015268103337b91039b2b63360b91b606482015260840161067c565b806001600061131d611e8d565b6001600160a01b03908116825260208083019390935260409182016000908120918716808252919093529120805460ff191692151592909217909155611361611e8d565b6001600160a01b03167f17307eab39ab6107e8899845ad3d59bd9653f200f220920489ca2b5937696c318360405161139d911515815260200190565b60405180910390a35050565b60006113b6826000610614565b6001600160a01b03831660009081526008602052604081209192505b815481101561145b5760008282815481106113fd57634e487b7160e01b600052603260045260246000fd5b90600052602060002090600202019050600060065482600101548661142291906134e3565b61142c91906134c3565b82549091506114469087906001600160a01b031683612608565b50508080611453906135c3565b9150506113d2565b50505050565b600061146b611e8d565b90506114778189612369565b6114d95760405162461bcd60e51b815260206004820152602d60248201527f4f6e6c792074686520697373756572206f662074686973204e46542063616e2060448201526c73657420726f79616c7469657360981b606482015260840161067c565b6000888152600f60205260409020544210156115495760405162461bcd60e51b815260206004820152602960248201527f526f79616c7469657320636f6e66696775726174696f6e206973206c6f636b656044820152686420666f72206e6f7760b81b606482015260840161067c565b6001600160a01b038716151580611567575085158015611567575084155b6115835760405162461bcd60e51b815260040161067c906133bc565b600088815260096020908152604080832080546001600160a01b0319166001600160a01b038c811691909117909155600a83528184208a9055600b90925290912086905584161515806115dd5750821580156115dd575081155b6115f95760405162461bcd60e51b815260040161067c906133bc565b6000888152600c6020908152604080832080546001600160a01b0319166001600160a01b038916179055600d8252808320869055600e909152908190208390555188907f3df2272e42784a2455bbbdcdf25ae0f67d41f801896514cc4cd255aa8ee75e4c90611673908a908a908a908a908a908a906132aa565b60405180910390a25050505050505050565b600061168f611e8d565b600480546040516323b872dd60e01b81526001600160a01b03808516938201939093523060248201526044810186905292935016906323b872dd90606401602060405180830381600087803b1580156116e757600080fd5b505af11580156116fb573d6000803e3d6000fd5b505050506040513d601f19601f8201168201806040525081019061171f9190612f5f565b50610cb581600084604051806020016040528060008152506126eb565b600081518351146117b05760405162461bcd60e51b815260206004820152603860248201527f417272617973206f66206f776e65727320616e64206672616374696f6e73206d6044820152770eae6e840d0c2ecca40e8d0ca40e6c2daca40d8cadccee8d60431b606482015260840161067c565b600754835111156117f55760405162461bcd60e51b815260206004820152600f60248201526e546f6f206d616e792073686172657360881b604482015260640161067c565b60006118018484611121565b6001600160a01b0381166000908152600860205260409020805491925090156118695760405162461bcd60e51b815260206004820152601a602482015279546865206163636f756e7420616c72656164792065786973747360301b604482015260640161067c565b6000805b86518110156119fc57600087828151811061189857634e487b7160e01b600052603260045260246000fd5b6020026020010151905060008783815181106118c457634e487b7160e01b600052603260045260246000fd5b6020026020010151905060006001600160a01b0316826001600160a01b0316141580156118f057508015155b6119395760405162461bcd60e51b815260206004820152601a6024820152790c081d985b1d595cc8185c99481b9bdd081c195c9b5a5d1d195960321b604482015260640161067c565b604080518082019091526001600160a01b0383811682526020808301848152885460018082018b5560008b8152939093209451600290910290940180546001600160a01b0319169490931693909317825591519101556119998185613483565b9350816001600160a01b0316866001600160a01b03167e6fb9851f1fd2fbc9fa36680d17e1254999a38e5f3c76c3a1ecc126a464601b836040516119df91815260200190565b60405180910390a3505080806119f4906135c3565b91505061186d565b506006548114611a4e5760405162461bcd60e51b815260206004820152601e60248201527f546f74616c206672616374696f6e73206d7573742062652031302c3030300000604482015260640161067c565b5090949350505050565b6004546001600160a01b031615611a6e57600080fd5b611a7b6000610401611e8d565b611a8457600080fd5b600480546001600160a01b0319166001600160a01b0392909216919091179055565b611aaf826107c7565b611abb81610c1c611e8d565b61091083836122e4565b6000828152600a6020908152604080832054600b83528184205460099093529083205490929081906001600160a01b039081169086168114611b45576000611b0d82886107dc565b600654909150611b1d82886134e3565b611b2791906134c3565b600654909650611b3782876134e3565b611b4191906134c3565b9450505b6000878152600d6020908152604080832054600e835281842054600c90935292205491945092506001600160a01b039081169087168114611bc4576000611b8c82896107dc565b600654909150611b9c82876134e3565b611ba691906134c3565b600654909550611bb682866134e3565b611bc091906134c3565b9350505b505092959194509250565b6000611be960008051602061371283398151915283611227565b15611bf6575060016106a8565b6001600160a01b0380841660009081526001602090815260408083209386168352929052205460ff16611188565b6001600160a01b038416611c4a5760405162461bcd60e51b815260040161067c90613377565b611c52611e8d565b6001600160a01b0316856001600160a01b03161480611c785750611c78856105fc611e8d565b611cd65760405162461bcd60e51b815260206004820152602960248201527f455243313135353a2063616c6c6572206973206e6f74206f776e6572206e6f7260448201526808185c1c1c9bdd995960ba1b606482015260840161067c565b6000611ce0611e8d565b9050611d00818787611cf1886127fa565b611cfa886127fa565b87612016565b6000848152602081815260408083206001600160a01b038a16845290915290205483811015611d415760405162461bcd60e51b815260040161067c90613408565b611d4b8482613502565b6000868152602081815260408083206001600160a01b038c81168552925280832093909355881681529081208054869290611d87908490613483565b92505081905550856001600160a01b0316876001600160a01b0316836001600160a01b03166000805160206136d28339815191528888604051611dcb929190613452565b60405180910390a4611de1828888888888612853565b50505050505050565b6000611df53361115a565b15611e07575060131936013560601c90565b503390565b905090565b90565b3390565b60006001600160e01b03198216636cdb3d1360e11b1480611e4957506001600160e01b031982166303a24d0760e21b145b806106a857506301ffc9a760e01b6001600160e01b03198316146106a8565b60006001600160e01b03198216637965db0b60e01b14806106a857506106a882611e18565b6000611e0c611dea565b6001600160a01b038316611ef95760405162461bcd60e51b815260206004820152602360248201527f455243313135353a206275726e2066726f6d20746865207a65726f206164647260448201526265737360e81b606482015260840161067c565b6000611f03611e8d565b9050611f3381856000611f15876127fa565b611f1e876127fa565b60405180602001604052806000815250612016565b6000838152602081815260408083206001600160a01b038816845290915290205482811015611fb05760405162461bcd60e51b8152602060048201526024808201527f455243313135353a206275726e20616d6f756e7420657863656564732062616c604482015263616e636560e01b606482015260840161067c565b611fba8382613502565b6000858152602081815260408083206001600160a01b03808b16808652919093528184209490945551919291908516906000805160206136d2833981519152906120079089908990613452565b60405180910390a45050505050565b60005b8351811015611de15761207d8685838151811061204657634e487b7160e01b600052603260045260246000fd5b6020026020010151600086858151811061207057634e487b7160e01b600052603260045260246000fd5b602002602001015161237c565b50612087816135c3565b9050612019565b6001600160a01b0384163b15610bff5760405163bc197c8160e01b81526001600160a01b0385169063bc197c81906120d290899089908890889088906004016131ee565b602060405180830381600087803b1580156120ec57600080fd5b505af192505050801561211c575060408051601f3d908101601f1916820190925261211991810190612fd1565b60015b6121c95761212861360a565b806308c379a01415612162575061213d613621565b806121485750612164565b8060405162461bcd60e51b815260040161067c919061331c565b505b60405162461bcd60e51b815260206004820152603460248201527f455243313135353a207472616e7366657220746f206e6f6e20455243313135356044820152732932b1b2b4bb32b91034b6b83632b6b2b73a32b960611b606482015260840161067c565b6001600160e01b0319811663bc197c8160e01b14611de15760405162461bcd60e51b815260040161067c9061332f565b6122038282611227565b610cb55761221b816001600160a01b0316601461291d565b61222683602061291d565b60405160200161223792919061317f565b60408051601f198184030181529082905262461bcd60e51b825261067c9160040161331c565b6122678282611227565b610cb55760008281526003602090815260408083206001600160a01b03851684529091529020805460ff191660011790556122a0611e8d565b6001600160a01b0316816001600160a01b0316837f2f8788117e7eff1d82e926ec794901d17c78024a50270940304540a733656f0d60405160405180910390a45050565b6122ee8282611227565b15610cb55760008281526003602090815260408083206001600160a01b03851684529091529020805460ff19169055612325611e8d565b6001600160a01b0316816001600160a01b0316837ff6391f5c32d9c69d2a47ea670b442974b53935d1edc7fd64eb21e047a839171b60405160405180910390a45050565b60601c6001600160a01b03919091161490565b60008361238b5750600061121f565b6123a360008051602061373283398151915233611227565b156123b05750600061121f565b6000806000806123c08989612369565b905080156123ff576000888152600a6020908152604080832054600b835281842054600990935292205491955093506001600160a01b03169150612432565b6000888152600d6020908152604080832054600e835281842054600c90935292205491955093506001600160a01b031691505b600654600090612442868a6134e3565b61244c91906134c3565b9050838110156124595750825b600061246588836134e3565b90508015612478576124788b8583612608565b9a9950505050505050505050565b6000828152602081815260408083206001600160a01b0388168452909152902054818110156124c75760405162461bcd60e51b815260040161067c90613408565b6124d18282613502565b6000848152602081815260408083206001600160a01b038a8116855292528083209390935586168152908120805484929061250d908490613483565b909155506000905061251d611e8d565b9050846001600160a01b0316866001600160a01b0316826001600160a01b03166000805160206136d2833981519152878760405161255c929190613452565b60405180910390a4505050505050565b6001600160a01b03831660009081526005602052604081205463ffffffff1661259681600161349b565b6001600160a01b0386166000908152600560205260408120805463ffffffff191663ffffffff93909316929092179091556125d2868387610da2565b90506000856001600160401b0316116125ea57600080fd5b6125ff8682876001600160401b0316876126eb565b95945050505050565b6001600160a01b038316600090815260008051602061375283398151915260205260409020548181101561264e5760405162461bcd60e51b815260040161067c90613408565b6126588282613502565b6001600160a01b0385811660009081526000805160206137528339815191526020526040808220939093559085168152908120805484929061269b908490613483565b90915550600090506126ab611e8d565b9050836001600160a01b0316856001600160a01b0316826001600160a01b03166000805160206136d2833981519152600087604051612007929190613452565b6001600160a01b03841661274b5760405162461bcd60e51b815260206004820152602160248201527f455243313135353a206d696e7420746f20746865207a65726f206164647265736044820152607360f81b606482015260840161067c565b6000612755611e8d565b905061276781600087611cf1886127fa565b6000848152602081815260408083206001600160a01b038916845290915281208054859290612797908490613483565b92505081905550846001600160a01b031660006001600160a01b0316826001600160a01b03166000805160206136d283398151915287876040516127dc929190613452565b60405180910390a46127f381600087878787612853565b5050505050565b6040805160018082528183019092526060916000919060208083019080368337019050509050828160008151811061284257634e487b7160e01b600052603260045260246000fd5b602090810291909101015292915050565b6001600160a01b0384163b15610bff5760405163f23a6e6160e01b81526001600160a01b0385169063f23a6e6190612897908990899088908890889060040161324c565b602060405180830381600087803b1580156128b157600080fd5b505af19250505080156128e1575060408051601f3d908101601f191682019092526128de91810190612fd1565b60015b6128ed5761212861360a565b6001600160e01b0319811663f23a6e6160e01b14611de15760405162461bcd60e51b815260040161067c9061332f565b6060600061292c8360026134e3565b612937906002613483565b6001600160401b0381111561295c57634e487b7160e01b600052604160045260246000fd5b6040519080825280601f01601f191660200182016040528015612986576020820181803683370190505b509050600360fc1b816000815181106129af57634e487b7160e01b600052603260045260246000fd5b60200101906001600160f81b031916908160001a905350600f60fb1b816001815181106129ec57634e487b7160e01b600052603260045260246000fd5b60200101906001600160f81b031916908160001a9053506000612a108460026134e3565b612a1b906001613483565b90505b6001811115612aaf576f181899199a1a9b1b9c1cb0b131b232b360811b85600f1660108110612a5d57634e487b7160e01b600052603260045260246000fd5b1a60f81b828281518110612a8157634e487b7160e01b600052603260045260246000fd5b60200101906001600160f81b031916908160001a90535060049490941c93612aa881613545565b9050612a1e565b5083156111885760405162461bcd60e51b815260206004820181905260248201527f537472696e67733a20686578206c656e67746820696e73756666696369656e74604482015260640161067c565b80356001600160a01b0381168114612b1557600080fd5b919050565b600082601f830112612b2a578081fd5b81356020612b3782613460565b604051612b448282613597565b8381528281019150858301600585901b87018401881015612b63578586fd5b855b85811015612b8157813584529284019290840190600101612b65565b5090979650505050505050565b600082601f830112612b9e578081fd5b81356001600160401b03811115612bb757612bb76135f4565b604051612bce601f8301601f191660200182613597565b818152846020838601011115612be2578283fd5b816020850160208301379081016020019190915292915050565b80356001600160401b0381168114612b1557600080fd5b600060208284031215612c24578081fd5b61118882612afe565b60008060408385031215612c3f578081fd5b612c4883612afe565b9150612c5660208401612afe565b90509250929050565b600080600080600060a08688031215612c76578081fd5b612c7f86612afe565b9450612c8d60208701612afe565b935060408601356001600160401b0380821115612ca8578283fd5b612cb489838a01612b1a565b94506060880135915080821115612cc9578283fd5b612cd589838a01612b1a565b93506080880135915080821115612cea578283fd5b50612cf788828901612b8e565b9150509295509295909350565b600080600080600060a08688031215612d1b578081fd5b612d2486612afe565b9450612d3260208701612afe565b9350604086013592506060860135915060808601356001600160401b03811115612d5a578182fd5b612cf788828901612b8e565b600080600080600060a08688031215612d7d578081fd5b612d8686612afe565b9450612d9460208701612afe565b94979496505050506040830135926060810135926080909101359150565b60008060408385031215612dc4578182fd5b612dcd83612afe565b91506020830135612ddd816136aa565b809150509250929050565b60008060408385031215612dfa578081fd5b612e0383612afe565b946020939093013593505050565b60008060008060808587031215612e26578182fd5b612e2f85612afe565b966020860135965060408601359560600135945092505050565b600080600060608486031215612e5d578081fd5b612e6684612afe565b9250602084013563ffffffff81168114612e7e578182fd5b9150612e8c60408501612bfc565b90509250925092565b60008060408385031215612ea7578182fd5b82356001600160401b0380821115612ebd578384fd5b818501915085601f830112612ed0578384fd5b81356020612edd82613460565b604051612eea8282613597565b8381528281019150858301600585901b870184018b1015612f09578889fd5b8896505b84871015612f3257612f1e81612afe565b835260019690960195918301918301612f0d565b5096505086013592505080821115612f48578283fd5b50612f5585828601612b1a565b9150509250929050565b600060208284031215612f70578081fd5b8151611188816136aa565b600060208284031215612f8c578081fd5b5035919050565b60008060408385031215612fa5578182fd5b82359150612c5660208401612afe565b600060208284031215612fc6578081fd5b8135611188816136bb565b600060208284031215612fe2578081fd5b8151611188816136bb565b600080600080600080600060e0888a031215613007578485fd5b8735965061301760208901612afe565b9550604088013594506060880135935061303360808901612afe565b925060a0880135915060c0880135905092959891949750929550565b60008060408385031215613061578182fd5b50508035926020909101359150565b60008060408385031215613082578182fd5b61308b83612bfc565b915060208301356001600160401b038111156130a5578182fd5b612f5585828601612b8e565b6000815180845260208085019450808401835b838110156130e0578151875295820195908201906001016130c4565b509495945050505050565b60008151808452613103816020860160208601613519565b601f01601f19169290920160200192915050565b825160009082906020808701845b8381101561314a5781516001600160a01b031685529382019390820190600101613125565b50508551818701939250845b8181101561317257845184529382019392820192600101613156565b5091979650505050505050565b76020b1b1b2b9b9a1b7b73a3937b61d1030b1b1b7bab73a1604d1b8152600083516131b1816017850160208801613519565b7001034b99036b4b9b9b4b733903937b6329607d1b60179184019182015283516131e2816028840160208801613519565b01602801949350505050565b6001600160a01b0386811682528516602082015260a06040820181905260009061321a908301866130b1565b828103606084015261322c81866130b1565b9050828103608084015261324081856130eb565b98975050505050505050565b6001600160a01b03868116825285166020820152604081018490526060810183905260a060808201819052600090613286908301846130eb565b979650505050505050565b6001600160a01b03929092168252602082015260400190565b6001600160a01b0396871681526020810195909552604085019390935293166060830152608082019290925260a081019190915260c00190565b60208152600061118860208301846130b1565b60408152600061330a60408301856130b1565b82810360208401526125ff81856130b1565b60208152600061118860208301846130eb565b60208082526028908201527f455243313135353a204552433131353552656365697665722072656a656374656040820152676420746f6b656e7360c01b606082015260800190565b60208082526025908201527f455243313135353a207472616e7366657220746f20746865207a65726f206164604082015264647265737360d81b606082015260800190565b6020808252602c908201527f546865206163636f756e74206d757374206e6f7420626520302c20756e6c657360408201526b07320666565732061726520360a41b606082015260800190565b6020808252602a908201527f455243313135353a20696e73756666696369656e742062616c616e636520666f60408201526939103a3930b739b332b960b11b606082015260800190565b918252602082015260400190565b60006001600160401b03821115613479576134796135f4565b5060051b60200190565b60008219821115613496576134966135de565b500190565b600063ffffffff8083168185168083038211156134ba576134ba6135de565b01949350505050565b6000826134de57634e487b7160e01b81526012600452602481fd5b500490565b60008160001904831182151516156134fd576134fd6135de565b500290565b600082821015613514576135146135de565b500390565b60005b8381101561353457818101518382015260200161351c565b8381111561145b5750506000910152565b600081613554576135546135de565b506000190190565b600181811c9082168061357057607f821691505b6020821081141561359157634e487b7160e01b600052602260045260246000fd5b50919050565b601f8201601f191681016001600160401b03811182821017156135bc576135bc6135f4565b6040525050565b60006000198214156135d7576135d76135de565b5060010190565b634e487b7160e01b600052601160045260246000fd5b634e487b7160e01b600052604160045260246000fd5b600060033d1115611e1157600481823e5160e01c90565b600060443d101561362f5790565b6040516003193d81016004833e81513d6001600160401b03808311602484018310171561365e57505050505090565b82850191508151818111156136765750505050505090565b843d87010160208285010111156136905750505050505090565b61369f60208286010187613597565b509095945050505050565b80151581146136b857600080fd5b50565b6001600160e01b0319811681146136b857600080fdfec3d58168c5ae7397731d063d5bbf3d657854427343f4c083240f7aacaa2d0f623d2e894c222ba979e2dce2c7d940c0e9bb14306669e9f034eb1bb3979a2069d8626f510646502d065065e8bd550325973a611a32e6f6ddff40650005cb13636820a4be6e7127e439f48d6654377d19402cb883dd85029e600de9e17052f903d3ad3228b676f7d3cd4284a5443f17f1962b36e491b30a40b2405849e597ba5fb5a2646970667358221220e3ca9791a0c00f7974fc74f3f9a06a97b7b33bdef35048f961ac7225a2b3680764736f6c6343000804003368747470733a2f2f636572652e6e6574776f726b2f6e66742f7b69647d2e6a736f6e",
  "immutableReferences": {},
  "source": "pragma solidity ^0.8.0;\n\nimport \"./freeportParts/SimpleExchange.sol\";\n\n/** Main contract, including all components.\n\n- Hold and transfer NFTs using ERC1155.\n- Support atomic exchanges of NFTs for currency.\n- Issuance of NFTs with fixed supply.\n- Joint Accounts that distribute their funds over multiple owners.\n- Capture royalties on primary and secondary transfers, configurable per NFT type.\n*/\ncontract Freeport is /*\n    ERC1155,\n    AccessControl,\n    MetaTxContext,\n    BaseNFT,\n    Currency,\n    TransferOperator,\n    ERC20Adapter,\n    Issuance,\n    JointAccounts,\n    TransferFees,\n    */ SimpleExchange {\n\n}\n",
  "sourcePath": "/home/a/CERE/Freeport-Smart-Contracts/contracts/Freeport.sol",
  "compiler": {
    "name": "solc",
    "version": "0.8.4+commit.c7e474f2.Emscripten.clang"
  },
  "schemaVersion": "3.4.3",
  "updatedAt": "2022-01-02T12:38:54.575Z",
  "networkType": "ethereum",
  "devdoc": {
    "kind": "dev",
    "methods": {
      "balanceOf(address,uint256)": {
        "details": "See {IERC1155-balanceOf}. Requirements: - `account` cannot be the zero address."
      },
      "balanceOfBatch(address[],uint256[])": {
        "details": "See {IERC1155-balanceOfBatch}. Requirements: - `accounts` and `ids` must have the same length."
      },
      "getRoleAdmin(bytes32)": {
        "details": "Returns the admin role that controls `role`. See {grantRole} and {revokeRole}. To change a role's admin, use {_setRoleAdmin}."
      },
      "grantRole(bytes32,address)": {
        "details": "Grants `role` to `account`. If `account` had not been already granted `role`, emits a {RoleGranted} event. Requirements: - the caller must have ``role``'s admin role."
      },
      "hasRole(bytes32,address)": {
        "details": "Returns `true` if `account` has been granted `role`."
      },
      "renounceRole(bytes32,address)": {
        "details": "Revokes `role` from the calling account. Roles are often managed via {grantRole} and {revokeRole}: this function's purpose is to provide a mechanism for accounts to lose their privileges if they are compromised (such as when a trusted device is misplaced). If the calling account had been granted `role`, emits a {RoleRevoked} event. Requirements: - the caller must be `account`."
      },
      "revokeRole(bytes32,address)": {
        "details": "Revokes `role` from `account`. If `account` had been granted `role`, emits a {RoleRevoked} event. Requirements: - the caller must have ``role``'s admin role."
      },
      "safeBatchTransferFrom(address,address,uint256[],uint256[],bytes)": {
        "details": "See {IERC1155-safeBatchTransferFrom}."
      },
      "safeTransferFrom(address,address,uint256,uint256,bytes)": {
        "details": "See {IERC1155-safeTransferFrom}."
      },
      "setApprovalForAll(address,bool)": {
        "details": "See {IERC1155-setApprovalForAll}."
      },
      "uri(uint256)": {
        "details": "See {IERC1155MetadataURI-uri}. This implementation returns the same URI for *all* token types. It relies on the token type ID substitution mechanism https://eips.ethereum.org/EIPS/eip-1155#metadata[defined in the EIP]. Clients calling this function must replace the `\\{id\\}` substring with the actual token type ID."
      }
    },
    "version": 1
  },
  "userdoc": {
    "events": {
      "JointAccountShareCreated(address,address,uint256)": {
        "notice": "Notify that a Joint Account was created at the address `account`. One such event is emitted for each owner, including his fraction of the account in basis points (1% of 1%)."
      },
      "MakeOffer(address,uint256,uint256)": {
        "notice": "An event emitted when an account `seller` has offered to sell a type of NFT at a given price. This replaces previous offers by the same seller on the same NFT ID, if any. A price of 0 means \"no offer\" and the previous offer is cancelled. An offer does not imply that the seller owns any amount of this NFT. An offer remains valid until cancelled, for the entire balance at a given time, regardless of incoming and outgoing transfers on the seller account."
      },
      "RoyaltiesConfigured(uint256,address,uint256,uint256,address,uint256,uint256)": {
        "notice": "Notify that royalties were configured on an NFT type."
      },
      "RoyaltiesLocked(uint256,uint256)": {
        "notice": "Notify that royalties are locked and cannot change, until the given time (in UNIX seconds), or forever (lockUntil = 0xFFFFFFFF)."
      },
      "TakeOffer(address,address,uint256,uint256,uint256)": {
        "notice": "An offer of `seller` was taken by `buyer`. The transfers of `amount` NFTs of type `nftId` against `amount * price` of CERE Units were executed."
      }
    },
    "kind": "user",
    "methods": {
      "BASIS_POINTS()": {
        "notice": "The total fraction representing 100% of an account."
      },
      "CURRENCY()": {
        "notice": "The token ID that represents the internal currency for all payments in this contract. "
      },
      "balanceOfJAOwner(address,address)": {
        "notice": "Calculate the amount of tokens that an owner of a Joint Account can withdraw right now."
      },
      "captureFee(address,uint256,uint256,uint256)": {
        "notice": "Collect the royalty due on a transfer. The royalty is calculated based on NFT configuration and the price. It is collected by an internal transfer of currency between \"from\" and the beneficiary. Return the amount collected. The caller must be approved by \"from\", or a TRANSFER_OPERATOR."
      },
      "configureRoyalties(uint256,address,uint256,uint256,address,uint256,uint256)": {
        "notice": "Configure the amounts and beneficiaries of royalties on primary and secondary transfers of this NFT. This configuration is available to the issuer of this NFT. A transfer is primary if it comes from the issuer of this NFT (normally the first sale after issuance). Otherwise, it is a secondary transfer. A royalty is defined in two parts (both optional): a cut of the sale price of an NFT, and a minimum royalty per transfer. For simple transfers not attached to a price, or a too low price, the minimum royalty is charged. The cuts are given in basis points (1% of 1%). The minimums are given in currency amounts. The configuration can be changed at any time by default. However, the issuer may commit to it for a period of time, effectively giving up his ability to modify the royalties. See the function lockRoyalties. There can be one beneficiary account for each primary and secondary royalties. To distribute revenues amongst several parties, use a Joint Account (see function createJointAccount)."
      },
      "createJointAccount(address[],uint256[])": {
        "notice": "Create an account such that multiple owners have a claim on their respective share. The size of a share is given as a fraction in basis points (1% of 1%). The sum of share fractions must equal 10,000. Anyone can create Joint Accounts including any owners."
      },
      "currencyContract()": {
        "notice": "The address of ERC-20 token's contract"
      },
      "deposit(uint256)": {
        "notice": "Deposit currency from ERC20 into the internal currency. This requires payer to approve deposit."
      },
      "distributeJointAccount(address)": {
        "notice": "Distribute all tokens available to all owners of a Joint Account. The function createJointAccount must be called beforehand. Anyone can trigger the distribution."
      },
      "fractionOfJAOwner(address,address)": {
        "notice": "Return the fraction of an account owned by the given address, in basis points (1% of 1%). If the account does not exist, or if the given address is not an owner of it, this returns 0. If the owner appears more than once in the account, this reports only the first share."
      },
      "getNftId(address,uint32,uint64)": {
        "notice": "Calculate the ID of an NFT type, identifying its issuer, its supply, and an arbitrary nonce."
      },
      "getOffer(address,uint256)": {
        "notice": "Return the price offered by the given seller for the given NFT type."
      },
      "getRoyalties(uint256)": {
        "notice": "Return the current configuration of royalties for NFTs of type nftId, as set by configureRoyalties."
      },
      "getRoyaltiesForBeneficiary(uint256,address)": {
        "notice": "Return the amount of royalties earned by a beneficiary on each primary and secondary transfer of an NFT. This function supports Joint Accounts. If royalties are paid to a JA and beneficiary is an owner of the JA, the shares of the royalties for this owner are returned."
      },
      "isApprovedForAll(address,address)": {
        "notice": "Return true for operators with the role TRANSFER_OPERATOR. Otherwise, apply the standard approval logic of ERC1155. See {IERC1155-isApprovedForAll}."
      },
      "issuanceNonces(address)": {
        "notice": "A counter of NFT types issued by each issuer. This is used to generate unique NFT IDs."
      },
      "issue(uint64,bytes)": {
        "notice": "Issue a supply of NFTs of a new type, and return its ID. No more NFT of this type can be issued again. The caller will be recorded as the issuer and it will initially own the entire supply."
      },
      "lockRoyalties(uint256,uint256)": {
        "notice": "Lock the configuration of royalties for this NFT type. Only the issuer may lock the configuration, after which he himself will no longer be able to change the configuration, for some time, or forever. Set lockUntil to a time in the future to lock the configuration until the specified time (in UNIX seconds). Set to 0xFFFFFFFF to lock forever."
      },
      "makeAddressOfJointAccount(address[],uint256[])": {
        "notice": "Generate a unique address identifying a list of owners and shares. It may be used to predict the address of a Joint Account and receive payments even before calling the function createJointAccount."
      },
      "makeOffer(uint256,uint256)": {
        "notice": "Create an offer to sell a type of NFTs for a price per unit. All the NFTs of this type owned by the caller will be for sale. To cancel, call again with a price of 0."
      },
      "setERC20(address)": {
        "notice": "Sets token's contract address. This token is used to deposit and withdraw on chain adapter's contract is deployed."
      },
      "supportsInterface(bytes4)": {
        "notice": "Supports interfaces of AccessControl, ERC1155, and ERC1155 MetadataURI."
      },
      "takeOffer(address,address,uint256,uint256,uint256)": {
        "notice": "Accept an offer, paying the price per unit for an amount of NFTs. The offer must have been created beforehand by makeOffer. The same authorization as safeTransferFrom apply to the buyer (sender or approved operator). The parameter expectedPriceOrZero can be used to validate the price that the buyer expects to pay. This prevents a race condition with makeOffer or setExchangeRate. Pass 0 to disable this validation and accept any current price."
      },
      "withdraw(uint256)": {
        "notice": "Withdraw currency from internal to ERC20"
      }
    },
    "notice": "Main contract, including all components. - Hold and transfer NFTs using ERC1155. - Support atomic exchanges of NFTs for currency. - Issuance of NFTs with fixed supply. - Joint Accounts that distribute their funds over multiple owners. - Capture royalties on primary and secondary transfers, configurable per NFT type.",
    "version": 1
  }
}