{
  "contractName": "Freeport",
  "abi": [
    {
      "anonymous": false,
      "inputs": [
        {
          "indexed": false,
          "internalType": "address",
          "name": "previousAdmin",
          "type": "address"
        },
        {
          "indexed": false,
          "internalType": "address",
          "name": "newAdmin",
          "type": "address"
        }
      ],
      "name": "AdminChanged",
      "type": "event"
    },
    {
      "anonymous": false,
      "inputs": [
        {
          "indexed": true,
          "internalType": "address",
          "name": "account",
          "type": "address"
        },
        {
          "indexed": true,
          "internalType": "address",
          "name": "operator",
          "type": "address"
        },
        {
          "indexed": false,
          "internalType": "bool",
          "name": "approved",
          "type": "bool"
        }
      ],
      "name": "ApprovalForAll",
      "type": "event"
    },
    {
      "anonymous": false,
      "inputs": [
        {
          "indexed": true,
          "internalType": "address",
          "name": "beacon",
          "type": "address"
        }
      ],
      "name": "BeaconUpgraded",
      "type": "event"
    },
    {
      "anonymous": false,
      "inputs": [
        {
          "indexed": true,
          "internalType": "address",
          "name": "account",
          "type": "address"
        },
        {
          "indexed": true,
          "internalType": "address",
          "name": "owner",
          "type": "address"
        },
        {
          "indexed": false,
          "internalType": "uint256",
          "name": "fraction",
          "type": "uint256"
        }
      ],
      "name": "JointAccountShareCreated",
      "type": "event"
    },
    {
      "anonymous": false,
      "inputs": [
        {
          "indexed": true,
          "internalType": "address",
          "name": "seller",
          "type": "address"
        },
        {
          "indexed": true,
          "internalType": "uint256",
          "name": "nftId",
          "type": "uint256"
        },
        {
          "indexed": false,
          "internalType": "uint256",
          "name": "price",
          "type": "uint256"
        }
      ],
      "name": "MakeOffer",
      "type": "event"
    },
    {
      "anonymous": false,
      "inputs": [
        {
          "indexed": true,
          "internalType": "bytes32",
          "name": "role",
          "type": "bytes32"
        },
        {
          "indexed": true,
          "internalType": "bytes32",
          "name": "previousAdminRole",
          "type": "bytes32"
        },
        {
          "indexed": true,
          "internalType": "bytes32",
          "name": "newAdminRole",
          "type": "bytes32"
        }
      ],
      "name": "RoleAdminChanged",
      "type": "event"
    },
    {
      "anonymous": false,
      "inputs": [
        {
          "indexed": true,
          "internalType": "bytes32",
          "name": "role",
          "type": "bytes32"
        },
        {
          "indexed": true,
          "internalType": "address",
          "name": "account",
          "type": "address"
        },
        {
          "indexed": true,
          "internalType": "address",
          "name": "sender",
          "type": "address"
        }
      ],
      "name": "RoleGranted",
      "type": "event"
    },
    {
      "anonymous": false,
      "inputs": [
        {
          "indexed": true,
          "internalType": "bytes32",
          "name": "role",
          "type": "bytes32"
        },
        {
          "indexed": true,
          "internalType": "address",
          "name": "account",
          "type": "address"
        },
        {
          "indexed": true,
          "internalType": "address",
          "name": "sender",
          "type": "address"
        }
      ],
      "name": "RoleRevoked",
      "type": "event"
    },
    {
      "anonymous": false,
      "inputs": [
        {
          "indexed": true,
          "internalType": "uint256",
          "name": "nftId",
          "type": "uint256"
        },
        {
          "indexed": false,
          "internalType": "address",
          "name": "primaryRoyaltyAccount",
          "type": "address"
        },
        {
          "indexed": false,
          "internalType": "uint256",
          "name": "primaryRoyaltyCut",
          "type": "uint256"
        },
        {
          "indexed": false,
          "internalType": "uint256",
          "name": "primaryRoyaltyMinimum",
          "type": "uint256"
        },
        {
          "indexed": false,
          "internalType": "address",
          "name": "secondaryRoyaltyAccount",
          "type": "address"
        },
        {
          "indexed": false,
          "internalType": "uint256",
          "name": "secondaryRoyaltyCut",
          "type": "uint256"
        },
        {
          "indexed": false,
          "internalType": "uint256",
          "name": "secondaryRoyaltyMinimum",
          "type": "uint256"
        }
      ],
      "name": "RoyaltiesConfigured",
      "type": "event"
    },
    {
      "anonymous": false,
      "inputs": [
        {
          "indexed": true,
          "internalType": "uint256",
          "name": "nftId",
          "type": "uint256"
        },
        {
          "indexed": false,
          "internalType": "uint256",
          "name": "lockUntil",
          "type": "uint256"
        }
      ],
      "name": "RoyaltiesLocked",
      "type": "event"
    },
    {
      "anonymous": false,
      "inputs": [
        {
          "indexed": true,
          "internalType": "address",
          "name": "buyer",
          "type": "address"
        },
        {
          "indexed": true,
          "internalType": "address",
          "name": "seller",
          "type": "address"
        },
        {
          "indexed": true,
          "internalType": "uint256",
          "name": "nftId",
          "type": "uint256"
        },
        {
          "indexed": false,
          "internalType": "uint256",
          "name": "price",
          "type": "uint256"
        },
        {
          "indexed": false,
          "internalType": "uint256",
          "name": "amount",
          "type": "uint256"
        }
      ],
      "name": "TakeOffer",
      "type": "event"
    },
    {
      "anonymous": false,
      "inputs": [
        {
          "indexed": true,
          "internalType": "address",
          "name": "operator",
          "type": "address"
        },
        {
          "indexed": true,
          "internalType": "address",
          "name": "from",
          "type": "address"
        },
        {
          "indexed": true,
          "internalType": "address",
          "name": "to",
          "type": "address"
        },
        {
          "indexed": false,
          "internalType": "uint256[]",
          "name": "ids",
          "type": "uint256[]"
        },
        {
          "indexed": false,
          "internalType": "uint256[]",
          "name": "values",
          "type": "uint256[]"
        }
      ],
      "name": "TransferBatch",
      "type": "event"
    },
    {
      "anonymous": false,
      "inputs": [
        {
          "indexed": true,
          "internalType": "address",
          "name": "operator",
          "type": "address"
        },
        {
          "indexed": true,
          "internalType": "address",
          "name": "from",
          "type": "address"
        },
        {
          "indexed": true,
          "internalType": "address",
          "name": "to",
          "type": "address"
        },
        {
          "indexed": false,
          "internalType": "uint256",
          "name": "id",
          "type": "uint256"
        },
        {
          "indexed": false,
          "internalType": "uint256",
          "name": "value",
          "type": "uint256"
        }
      ],
      "name": "TransferSingle",
      "type": "event"
    },
    {
      "anonymous": false,
      "inputs": [
        {
          "indexed": false,
          "internalType": "string",
          "name": "value",
          "type": "string"
        },
        {
          "indexed": true,
          "internalType": "uint256",
          "name": "id",
          "type": "uint256"
        }
      ],
      "name": "URI",
      "type": "event"
    },
    {
      "anonymous": false,
      "inputs": [
        {
          "indexed": true,
          "internalType": "address",
          "name": "implementation",
          "type": "address"
        }
      ],
      "name": "Upgraded",
      "type": "event"
    },
    {
      "inputs": [],
      "name": "BASIS_POINTS",
      "outputs": [
        {
          "internalType": "uint256",
          "name": "",
          "type": "uint256"
        }
      ],
      "stateMutability": "view",
      "type": "function"
    },
    {
      "inputs": [],
      "name": "BYPASS_SENDER",
      "outputs": [
        {
          "internalType": "bytes32",
          "name": "",
          "type": "bytes32"
        }
      ],
      "stateMutability": "view",
      "type": "function"
    },
    {
      "inputs": [],
      "name": "CURRENCY",
      "outputs": [
        {
          "internalType": "uint256",
          "name": "",
          "type": "uint256"
        }
      ],
      "stateMutability": "view",
      "type": "function"
    },
    {
      "inputs": [],
      "name": "DEFAULT_ADMIN_ROLE",
      "outputs": [
        {
          "internalType": "bytes32",
          "name": "",
          "type": "bytes32"
        }
      ],
      "stateMutability": "view",
      "type": "function"
    },
    {
      "inputs": [],
      "name": "MAX_JOINT_ACCOUNT_SHARES",
      "outputs": [
        {
          "internalType": "uint256",
          "name": "",
          "type": "uint256"
        }
      ],
      "stateMutability": "view",
      "type": "function"
    },
    {
      "inputs": [],
      "name": "META_TX_FORWARDER",
      "outputs": [
        {
          "internalType": "bytes32",
          "name": "",
          "type": "bytes32"
        }
      ],
      "stateMutability": "view",
      "type": "function"
    },
    {
      "inputs": [],
      "name": "TRANSFER_OPERATOR",
      "outputs": [
        {
          "internalType": "bytes32",
          "name": "",
          "type": "bytes32"
        }
      ],
      "stateMutability": "view",
      "type": "function"
    },
    {
      "inputs": [
        {
          "internalType": "address",
          "name": "account",
          "type": "address"
        },
        {
          "internalType": "uint256",
          "name": "id",
          "type": "uint256"
        }
      ],
      "name": "balanceOf",
      "outputs": [
        {
          "internalType": "uint256",
          "name": "",
          "type": "uint256"
        }
      ],
      "stateMutability": "view",
      "type": "function"
    },
    {
      "inputs": [
        {
          "internalType": "address[]",
          "name": "accounts",
          "type": "address[]"
        },
        {
          "internalType": "uint256[]",
          "name": "ids",
          "type": "uint256[]"
        }
      ],
      "name": "balanceOfBatch",
      "outputs": [
        {
          "internalType": "uint256[]",
          "name": "",
          "type": "uint256[]"
        }
      ],
      "stateMutability": "view",
      "type": "function"
    },
    {
      "inputs": [
        {
          "internalType": "address",
          "name": "account",
          "type": "address"
        },
        {
          "internalType": "address",
          "name": "owner",
          "type": "address"
        }
      ],
      "name": "balanceOfJAOwner",
      "outputs": [
        {
          "internalType": "uint256",
          "name": "",
          "type": "uint256"
        }
      ],
      "stateMutability": "view",
      "type": "function"
    },
    {
      "inputs": [
        {
          "internalType": "address",
          "name": "from",
          "type": "address"
        },
        {
          "internalType": "uint256",
          "name": "nftId",
          "type": "uint256"
        },
        {
          "internalType": "uint256",
          "name": "price",
          "type": "uint256"
        },
        {
          "internalType": "uint256",
          "name": "amount",
          "type": "uint256"
        }
      ],
      "name": "captureFee",
      "outputs": [
        {
          "internalType": "uint256",
          "name": "",
          "type": "uint256"
        }
      ],
      "stateMutability": "nonpayable",
      "type": "function"
    },
    {
      "inputs": [
        {
          "internalType": "uint256",
          "name": "nftId",
          "type": "uint256"
        },
        {
          "internalType": "address",
          "name": "primaryRoyaltyAccount",
          "type": "address"
        },
        {
          "internalType": "uint256",
          "name": "primaryRoyaltyCut",
          "type": "uint256"
        },
        {
          "internalType": "uint256",
          "name": "primaryRoyaltyMinimum",
          "type": "uint256"
        },
        {
          "internalType": "address",
          "name": "secondaryRoyaltyAccount",
          "type": "address"
        },
        {
          "internalType": "uint256",
          "name": "secondaryRoyaltyCut",
          "type": "uint256"
        },
        {
          "internalType": "uint256",
          "name": "secondaryRoyaltyMinimum",
          "type": "uint256"
        }
      ],
      "name": "configureRoyalties",
      "outputs": [],
      "stateMutability": "nonpayable",
      "type": "function"
    },
    {
      "inputs": [
        {
          "internalType": "address[]",
          "name": "owners",
          "type": "address[]"
        },
        {
          "internalType": "uint256[]",
          "name": "fractions",
          "type": "uint256[]"
        }
      ],
      "name": "createJointAccount",
      "outputs": [
        {
          "internalType": "address",
          "name": "",
          "type": "address"
        }
      ],
      "stateMutability": "nonpayable",
      "type": "function"
    },
    {
      "inputs": [],
      "name": "currencyContract",
      "outputs": [
        {
          "internalType": "contract IERC20",
          "name": "",
          "type": "address"
        }
      ],
      "stateMutability": "view",
      "type": "function"
    },
    {
      "inputs": [
        {
          "internalType": "uint256",
          "name": "amount",
          "type": "uint256"
        }
      ],
      "name": "deposit",
      "outputs": [],
      "stateMutability": "nonpayable",
      "type": "function"
    },
    {
      "inputs": [
        {
          "internalType": "address",
          "name": "account",
          "type": "address"
        }
      ],
      "name": "distributeJointAccount",
      "outputs": [],
      "stateMutability": "nonpayable",
      "type": "function"
    },
    {
      "inputs": [
        {
          "internalType": "address",
          "name": "account",
          "type": "address"
        },
        {
          "internalType": "address",
          "name": "maybeOwner",
          "type": "address"
        }
      ],
      "name": "fractionOfJAOwner",
      "outputs": [
        {
          "internalType": "uint256",
          "name": "",
          "type": "uint256"
        }
      ],
      "stateMutability": "view",
      "type": "function"
    },
    {
      "inputs": [
        {
          "internalType": "address",
          "name": "issuer",
          "type": "address"
        },
        {
          "internalType": "uint32",
          "name": "nonce",
          "type": "uint32"
        },
        {
          "internalType": "uint64",
          "name": "supply",
          "type": "uint64"
        }
      ],
      "name": "getNftId",
      "outputs": [
        {
          "internalType": "uint256",
          "name": "",
          "type": "uint256"
        }
      ],
      "stateMutability": "pure",
      "type": "function"
    },
    {
      "inputs": [
        {
          "internalType": "address",
          "name": "seller",
          "type": "address"
        },
        {
          "internalType": "uint256",
          "name": "nftId",
          "type": "uint256"
        }
      ],
      "name": "getOffer",
      "outputs": [
        {
          "internalType": "uint256",
          "name": "",
          "type": "uint256"
        }
      ],
      "stateMutability": "view",
      "type": "function"
    },
    {
      "inputs": [
        {
          "internalType": "bytes32",
          "name": "role",
          "type": "bytes32"
        }
      ],
      "name": "getRoleAdmin",
      "outputs": [
        {
          "internalType": "bytes32",
          "name": "",
          "type": "bytes32"
        }
      ],
      "stateMutability": "view",
      "type": "function"
    },
    {
      "inputs": [
        {
          "internalType": "uint256",
          "name": "nftId",
          "type": "uint256"
        }
      ],
      "name": "getRoyalties",
      "outputs": [
        {
          "internalType": "address",
          "name": "primaryRoyaltyAccount",
          "type": "address"
        },
        {
          "internalType": "uint256",
          "name": "primaryRoyaltyCut",
          "type": "uint256"
        },
        {
          "internalType": "uint256",
          "name": "primaryRoyaltyMinimum",
          "type": "uint256"
        },
        {
          "internalType": "address",
          "name": "secondaryRoyaltyAccount",
          "type": "address"
        },
        {
          "internalType": "uint256",
          "name": "secondaryRoyaltyCut",
          "type": "uint256"
        },
        {
          "internalType": "uint256",
          "name": "secondaryRoyaltyMinimum",
          "type": "uint256"
        }
      ],
      "stateMutability": "view",
      "type": "function"
    },
    {
      "inputs": [
        {
          "internalType": "uint256",
          "name": "nftId",
          "type": "uint256"
        },
        {
          "internalType": "address",
          "name": "beneficiary",
          "type": "address"
        }
      ],
      "name": "getRoyaltiesForBeneficiary",
      "outputs": [
        {
          "internalType": "uint256",
          "name": "primaryCut",
          "type": "uint256"
        },
        {
          "internalType": "uint256",
          "name": "primaryMinimum",
          "type": "uint256"
        },
        {
          "internalType": "uint256",
          "name": "secondaryCut",
          "type": "uint256"
        },
        {
          "internalType": "uint256",
          "name": "secondaryMinimum",
          "type": "uint256"
        }
      ],
      "stateMutability": "view",
      "type": "function"
    },
    {
      "inputs": [
        {
          "internalType": "bytes32",
          "name": "role",
          "type": "bytes32"
        },
        {
          "internalType": "address",
          "name": "account",
          "type": "address"
        }
      ],
      "name": "grantRole",
      "outputs": [],
      "stateMutability": "nonpayable",
      "type": "function"
    },
    {
      "inputs": [
        {
          "internalType": "bytes32",
          "name": "role",
          "type": "bytes32"
        },
        {
          "internalType": "address",
          "name": "account",
          "type": "address"
        }
      ],
      "name": "hasRole",
      "outputs": [
        {
          "internalType": "bool",
          "name": "",
          "type": "bool"
        }
      ],
      "stateMutability": "view",
      "type": "function"
    },
    {
      "inputs": [
        {
          "internalType": "address",
          "name": "account",
          "type": "address"
        },
        {
          "internalType": "address",
          "name": "operator",
          "type": "address"
        }
      ],
      "name": "isApprovedForAll",
      "outputs": [
        {
          "internalType": "bool",
          "name": "",
          "type": "bool"
        }
      ],
      "stateMutability": "view",
      "type": "function"
    },
    {
      "inputs": [
        {
          "internalType": "address",
          "name": "forwarder",
          "type": "address"
        }
      ],
      "name": "isTrustedForwarder",
      "outputs": [
        {
          "internalType": "bool",
          "name": "",
          "type": "bool"
        }
      ],
      "stateMutability": "view",
      "type": "function"
    },
    {
      "inputs": [
        {
          "internalType": "address",
          "name": "",
          "type": "address"
        }
      ],
      "name": "issuanceNonces",
      "outputs": [
        {
          "internalType": "uint32",
          "name": "",
          "type": "uint32"
        }
      ],
      "stateMutability": "view",
      "type": "function"
    },
    {
      "inputs": [
        {
          "internalType": "uint64",
          "name": "supply",
          "type": "uint64"
        },
        {
          "internalType": "bytes",
          "name": "data",
          "type": "bytes"
        }
      ],
      "name": "issue",
      "outputs": [
        {
          "internalType": "uint256",
          "name": "",
          "type": "uint256"
        }
      ],
      "stateMutability": "nonpayable",
      "type": "function"
    },
    {
      "inputs": [
        {
          "internalType": "address",
          "name": "",
          "type": "address"
        },
        {
          "internalType": "uint256",
          "name": "",
          "type": "uint256"
        }
      ],
      "name": "jointAccounts",
      "outputs": [
        {
          "internalType": "address",
          "name": "owner",
          "type": "address"
        },
        {
          "internalType": "uint256",
          "name": "fraction",
          "type": "uint256"
        }
      ],
      "stateMutability": "view",
      "type": "function"
    },
    {
      "inputs": [
        {
          "internalType": "uint256",
          "name": "nftId",
          "type": "uint256"
        },
        {
          "internalType": "uint256",
          "name": "lockUntil",
          "type": "uint256"
        }
      ],
      "name": "lockRoyalties",
      "outputs": [],
      "stateMutability": "nonpayable",
      "type": "function"
    },
    {
      "inputs": [
        {
          "internalType": "address[]",
          "name": "owners",
          "type": "address[]"
        },
        {
          "internalType": "uint256[]",
          "name": "fractions",
          "type": "uint256[]"
        }
      ],
      "name": "makeAddressOfJointAccount",
      "outputs": [
        {
          "internalType": "address",
          "name": "",
          "type": "address"
        }
      ],
      "stateMutability": "pure",
      "type": "function"
    },
    {
      "inputs": [
        {
          "internalType": "uint256",
          "name": "nftId",
          "type": "uint256"
        },
        {
          "internalType": "uint256",
          "name": "price",
          "type": "uint256"
        }
      ],
      "name": "makeOffer",
      "outputs": [],
      "stateMutability": "nonpayable",
      "type": "function"
    },
    {
      "inputs": [],
      "name": "name",
      "outputs": [
        {
          "internalType": "string",
          "name": "",
          "type": "string"
        }
      ],
      "stateMutability": "view",
      "type": "function"
    },
    {
      "inputs": [
        {
          "internalType": "bytes32",
          "name": "role",
          "type": "bytes32"
        },
        {
          "internalType": "address",
          "name": "account",
          "type": "address"
        }
      ],
      "name": "renounceRole",
      "outputs": [],
      "stateMutability": "nonpayable",
      "type": "function"
    },
    {
      "inputs": [
        {
          "internalType": "bytes32",
          "name": "role",
          "type": "bytes32"
        },
        {
          "internalType": "address",
          "name": "account",
          "type": "address"
        }
      ],
      "name": "revokeRole",
      "outputs": [],
      "stateMutability": "nonpayable",
      "type": "function"
    },
    {
      "inputs": [
        {
          "internalType": "address",
          "name": "from",
          "type": "address"
        },
        {
          "internalType": "address",
          "name": "to",
          "type": "address"
        },
        {
          "internalType": "uint256[]",
          "name": "ids",
          "type": "uint256[]"
        },
        {
          "internalType": "uint256[]",
          "name": "amounts",
          "type": "uint256[]"
        },
        {
          "internalType": "bytes",
          "name": "data",
          "type": "bytes"
        }
      ],
      "name": "safeBatchTransferFrom",
      "outputs": [],
      "stateMutability": "nonpayable",
      "type": "function"
    },
    {
      "inputs": [
        {
          "internalType": "address",
          "name": "from",
          "type": "address"
        },
        {
          "internalType": "address",
          "name": "to",
          "type": "address"
        },
        {
          "internalType": "uint256",
          "name": "id",
          "type": "uint256"
        },
        {
          "internalType": "uint256",
          "name": "amount",
          "type": "uint256"
        },
        {
          "internalType": "bytes",
          "name": "data",
          "type": "bytes"
        }
      ],
      "name": "safeTransferFrom",
      "outputs": [],
      "stateMutability": "nonpayable",
      "type": "function"
    },
    {
      "inputs": [
        {
          "internalType": "address",
          "name": "operator",
          "type": "address"
        },
        {
          "internalType": "bool",
          "name": "approved",
          "type": "bool"
        }
      ],
      "name": "setApprovalForAll",
      "outputs": [],
      "stateMutability": "nonpayable",
      "type": "function"
    },
    {
      "inputs": [
        {
          "internalType": "address",
          "name": "_currencyContract",
          "type": "address"
        }
      ],
      "name": "setERC20",
      "outputs": [],
      "stateMutability": "nonpayable",
      "type": "function"
    },
    {
      "inputs": [
        {
          "internalType": "string",
          "name": "newuri",
          "type": "string"
        }
      ],
      "name": "setURI",
      "outputs": [],
      "stateMutability": "nonpayable",
      "type": "function"
    },
    {
      "inputs": [
        {
          "internalType": "bytes4",
          "name": "interfaceId",
          "type": "bytes4"
        }
      ],
      "name": "supportsInterface",
      "outputs": [
        {
          "internalType": "bool",
          "name": "",
          "type": "bool"
        }
      ],
      "stateMutability": "view",
      "type": "function"
    },
    {
      "inputs": [
        {
          "internalType": "address",
          "name": "buyer",
          "type": "address"
        },
        {
          "internalType": "address",
          "name": "seller",
          "type": "address"
        },
        {
          "internalType": "uint256",
          "name": "nftId",
          "type": "uint256"
        },
        {
          "internalType": "uint256",
          "name": "expectedPriceOrZero",
          "type": "uint256"
        },
        {
          "internalType": "uint256",
          "name": "amount",
          "type": "uint256"
        }
      ],
      "name": "takeOffer",
      "outputs": [],
      "stateMutability": "nonpayable",
      "type": "function"
    },
    {
      "inputs": [
        {
          "internalType": "address",
          "name": "from",
          "type": "address"
        },
        {
          "internalType": "address",
          "name": "to",
          "type": "address"
        },
        {
          "internalType": "uint256",
          "name": "id",
          "type": "uint256"
        },
        {
          "internalType": "uint256",
          "name": "amount",
          "type": "uint256"
        }
      ],
      "name": "transferFrom",
      "outputs": [],
      "stateMutability": "nonpayable",
      "type": "function"
    },
    {
      "inputs": [
        {
          "internalType": "address",
          "name": "newImplementation",
          "type": "address"
        }
      ],
      "name": "upgradeTo",
      "outputs": [],
      "stateMutability": "nonpayable",
      "type": "function"
    },
    {
      "inputs": [
        {
          "internalType": "address",
          "name": "newImplementation",
          "type": "address"
        },
        {
          "internalType": "bytes",
          "name": "data",
          "type": "bytes"
        }
      ],
      "name": "upgradeToAndCall",
      "outputs": [],
      "stateMutability": "payable",
      "type": "function"
    },
    {
      "inputs": [
        {
          "internalType": "uint256",
          "name": "",
          "type": "uint256"
        }
      ],
      "name": "uri",
      "outputs": [
        {
          "internalType": "string",
          "name": "",
          "type": "string"
        }
      ],
      "stateMutability": "view",
      "type": "function"
    },
    {
      "inputs": [
        {
          "internalType": "uint256",
          "name": "amount",
          "type": "uint256"
        }
      ],
      "name": "withdraw",
      "outputs": [],
      "stateMutability": "nonpayable",
      "type": "function"
    },
    {
      "inputs": [],
      "name": "initialize",
      "outputs": [],
      "stateMutability": "nonpayable",
      "type": "function"
    },
    {
      "inputs": [
        {
          "internalType": "string",
          "name": "newName",
          "type": "string"
        }
      ],
      "name": "setName",
      "outputs": [],
      "stateMutability": "nonpayable",
      "type": "function"
    }
  ],
  "bytecode": "0x608060405234801561001057600080fd5b50614663806100206000396000f3fe60806040526004361061022d5760003560e01c8062fdd58e1461023257806301ffc9a71461026557806302fe53051461029557806305b7cdd3146102b757806306fdde03146102d75780630e89341c146102f9578063248a9ca3146103195780632c8f284c146103395780632e1a7d4d146103595780632eb2c2d6146103795780632f2ff15d1461039957806330b06421146103b957806336568abe146103ce5780633659cfe6146103ee57806339b276f41461040e5780633c6b57091461042e578063448588e31461044e5780634559a29b146104705780634880d2471461049e5780634e1273f4146104be5780634f1ef286146104eb5780635611cac2146104fe578063572b6c051461052b57806358556fb01461054b5780635c5d67881461056b57806360e3ecd01461058b5780638129fc1c146105ad57806391d14854146105c25780639a86e8ce146105e25780639e00bb9614610604578063a217fddf14610624578063a22cb46514610639578063a5e1fcd714610659578063ac71045e14610679578063acc08fa5146106bd578063ad09608a14610706578063b6b55f2514610726578063b95812f414610746578063ba7f4dfe14610767578063bb3bafd614610787578063c29a6fda1461080d578063c47f00271461082d578063d547741f1461084d578063e1f1c4a71461086d578063e24b0a2b14610883578063e985e9c5146108c3578063f242432a146108e3578063f536121914610624578063fe99049a14610903575b600080fd5b34801561023e57600080fd5b5061025261024d366004613b2d565b610923565b6040519081526020015b60405180910390f35b34801561027157600080fd5b50610285610280366004613cf0565b6109bf565b604051901515815260200161025c565b3480156102a157600080fd5b506102b56102b0366004613d28565b6109d9565b005b3480156102c357600080fd5b506102b56102d2366004613dcf565b610a0e565b3480156102e357600080fd5b506102ec610a7a565b60405161025c91906140a6565b34801561030557600080fd5b506102ec610314366004613cb6565b610b09565b34801561032557600080fd5b50610252610334366004613cb6565b610b9d565b34801561034557600080fd5b506102526103543660046138e6565b610bb2565b34801561036557600080fd5b506102b5610374366004613cb6565b610c4c565b34801561038557600080fd5b506102b5610394366004613918565b610cee565b3480156103a557600080fd5b506102b56103b4366004613cce565b610fe3565b3480156103c557600080fd5b50610252600a81565b3480156103da57600080fd5b506102b56103e9366004613cce565b611007565b3480156103fa57600080fd5b506102b56104093660046138cc565b611095565b34801561041a57600080fd5b506102b5610429366004613dcf565b6110b9565b34801561043a57600080fd5b50610252610449366004613b8e565b6111a4565b34801561045a57600080fd5b506102526000805160206145db83398151915281565b34801561047c57600080fd5b5061049061048b366004613b2d565b6111d5565b60405161025c92919061401b565b3480156104aa57600080fd5b506102b56104b9366004613a60565b61121c565b3480156104ca57600080fd5b506104de6104d9366004613bda565b6113dc565b60405161025c919061406e565b6102b56104f9366004613ae2565b61153d565b34801561050a57600080fd5b5061051e610519366004613bda565b611552565b60405161025c9190613f64565b34801561053757600080fd5b506102856105463660046138cc565b61158b565b34801561055757600080fd5b50610252610566366004613df0565b6115a5565b34801561057757600080fd5b50610252610586366004613b56565b6115b9565b34801561059757600080fd5b5061025260008051602061459b83398151915281565b3480156105b957600080fd5b506102b5611651565b3480156105ce57600080fd5b506102856105dd366004613cce565b6116f4565b3480156105ee57600080fd5b5061025260008051602061457b83398151915281565b34801561061057600080fd5b5061025261061f3660046138e6565b61171f565b34801561063057600080fd5b50610252600081565b34801561064557600080fd5b506102b5610654366004613aac565b611760565b34801561066557600080fd5b506102b56106743660046138cc565b611874565b34801561068557600080fd5b50610252610694366004613b2d565b6001600160a01b0391909116600090815261013760209081526040808320938352929052205490565b3480156106c957600080fd5b506106f16106d83660046138cc565b61012e6020526000908152604090205463ffffffff1681565b60405163ffffffff909116815260200161025c565b34801561071257600080fd5b506102b5610721366004613d6d565b61192d565b34801561073257600080fd5b506102b5610741366004613cb6565b611b58565b34801561075257600080fd5b5061012d5461051e906001600160a01b031681565b34801561077357600080fd5b5061051e610782366004613bda565b611c0e565b34801561079357600080fd5b506107fb6107a2366004613cb6565b6000908152610130602090815260408083205461013183528184205461013284528285205461013385528386205461013486528487205461013590965293909520546001600160a01b0392831696919594929093169290565b60405161025c96959493929190614034565b34801561081957600080fd5b506102b56108283660046138cc565b611f2a565b34801561083957600080fd5b506102b5610848366004613d28565b611f7a565b34801561085957600080fd5b506102b5610868366004613cce565b611fb7565b34801561087957600080fd5b5061025261271081565b34801561088f57600080fd5b506108a361089e366004613cce565b611fd6565b60408051948552602085019390935291830152606082015260800161025c565b3480156108cf57600080fd5b506102856108de3660046138e6565b6120e2565b3480156108ef57600080fd5b506102b56108fe3660046139fe565b612137565b34801561090f57600080fd5b506102b561091e3660046139bd565b6122bf565b60006001600160a01b0383166109945760405162461bcd60e51b815260206004820152602b60248201527f455243313135353a2062616c616e636520717565727920666f7220746865207a60448201526a65726f206164647265737360a81b60648201526084015b60405180910390fd5b50600081815260c9602090815260408083206001600160a01b03861684529091529020545b92915050565b60006109ca8261233b565b806109b957506109b98261238b565b6109e660006105dd6123b0565b610a025760405162461bcd60e51b815260040161098b9061414a565b610a0b816123bf565b50565b6000610a186123b0565b6001600160a01b038116600081815261013760209081526040808320888452825291829020869055905185815292935085927f040259e2f9c7930380b3a5c979ad8a30ecf8d344d3bcdb149e2c454ab85fcd8f910160405180910390a3505050565b6101388054610a88906143a1565b80601f0160208091040260200160405190810160405280929190818152602001828054610ab4906143a1565b8015610b015780601f10610ad657610100808354040283529160200191610b01565b820191906000526020600020905b815481529060010190602001808311610ae457829003601f168201915b505050505081565b606060cb8054610b18906143a1565b80601f0160208091040260200160405190810160405280929190818152602001828054610b44906143a1565b8015610b915780601f10610b6657610100808354040283529160200191610b91565b820191906000526020600020905b815481529060010190602001808311610b7457829003601f168201915b50505050509050919050565b600090815260fb602052604090206001015490565b6001600160a01b038216600090815261012f60205260408120815b8154811015610c41576000828281548110610bf857634e487b7160e01b600052603260045260246000fd5b6000918252602090912060029091020180549091506001600160a01b0386811691161415610c2e576001015492506109b9915050565b5080610c3981614408565b915050610bcd565b506000949350505050565b6000610c566123b0565b9050610c64816000846123d2565b61012d5460405163a9059cbb60e01b81526001600160a01b039091169063a9059cbb90610c97908490869060040161401b565b602060405180830381600087803b158015610cb157600080fd5b505af1158015610cc5573d6000803e3d6000fd5b505050506040513d601f19601f82011682018060405250810190610ce99190613c9a565b505050565b8151835114610d505760405162461bcd60e51b815260206004820152602860248201527f455243313135353a2069647320616e6420616d6f756e7473206c656e677468206044820152670dad2e6dac2e8c6d60c31b606482015260840161098b565b6001600160a01b038416610d765760405162461bcd60e51b815260040161098b9061416e565b610d7e6123b0565b6001600160a01b0316856001600160a01b03161480610da45750610da4856108de6123b0565b610e0b5760405162461bcd60e51b815260206004820152603260248201527f455243313135353a207472616e736665722063616c6c6572206973206e6f74206044820152711bdddb995c881b9bdc88185c1c1c9bdd995960721b606482015260840161098b565b6000610e156123b0565b9050610e25818787878787612555565b60005b8451811015610f75576000858281518110610e5357634e487b7160e01b600052603260045260246000fd5b602002602001015190506000858381518110610e7f57634e487b7160e01b600052603260045260246000fd5b602090810291909101810151600084815260c9835260408082206001600160a01b038e168352909352919091205490915081811015610ed05760405162461bcd60e51b815260040161098b9061424d565b610eda8282614347565b60c9600085815260200190815260200160002060008c6001600160a01b03166001600160a01b03168152602001908152602001600020819055508160c9600085815260200190815260200160002060008b6001600160a01b03166001600160a01b031681526020019081526020016000206000828254610f5a91906142c8565b9250508190555050505080610f6e90614408565b9050610e28565b50846001600160a01b0316866001600160a01b0316826001600160a01b03167f4a39dc06d4c0dbc64b70af90fd698a233a518aa5d07e595d983b8c0526c8f7fb8787604051610fc5929190614081565b60405180910390a4610fdb8187878787876125cd565b505050505050565b610fec82610b9d565b610ffd81610ff86123b0565b612738565b610ce9838361279c565b61100f6123b0565b6001600160a01b0316816001600160a01b0316146110875760405162461bcd60e51b815260206004820152602f60248201527f416363657373436f6e74726f6c3a2063616e206f6e6c792072656e6f756e636560448201526e103937b632b9903337b91039b2b63360891b606482015260840161098b565b6110918282612823565b5050565b61109e816128a8565b610a0b816040518060200160405280600081525060006128ec565b60006110c36123b0565b90506110cf8184612a68565b6110d857600080fd5b6000838152610136602052604090205482116111515760405162461bcd60e51b815260206004820152603260248201527f526f79616c7469657320636f6e66696775726174696f6e2063616e6e6f74206260448201527132903ab73637b1b5b2b21032b0b93634b2b960711b606482015260840161098b565b60008381526101366020526040908190208390555183907f7bdd35d2167385bdbed0892e34b48298770ffce27fe71928c767071865f51544906111979085815260200190565b60405180910390a2505050565b6001600160601b0319606084901b1663ffffffff60401b604084901b16176001600160401b038216175b9392505050565b61012f60205281600052604060002081815481106111f257600080fd5b6000918252602090912060029091020180546001909101546001600160a01b039091169250905082565b60006112266123b0565b6001600160a01b0386166000908152610137602090815260408083208884529091529020549091508061128a5760405162461bcd60e51b815260206004820152600c60248201526b4e6f7420666f722073616c6560a01b604482015260640161098b565b83158061129657508084145b6112d55760405162461bcd60e51b815260206004820152601060248201526f556e657870656374656420707269636560801b604482015260640161098b565b60006112e18483614328565b90506112ec81611b58565b611309838860008460405180602001604052806000815250612137565b600061131788888588612a7b565b9050818111156113775760405162461bcd60e51b815260206004820152602560248201527f43616e6e6f742074616b65206d6f72652066656573207468616e2074686520706044820152643934b1b29760d91b606482015260840161098b565b611383888a8988612b8a565b86886001600160a01b03168a6001600160a01b03167fe90359125940e7c9b26005d19d4d8a2a5335ea8bef094bcd61bb8f8091cad11786896040516113c9929190614297565b60405180910390a4505050505050505050565b606081518351146114415760405162461bcd60e51b815260206004820152602960248201527f455243313135353a206163636f756e747320616e6420696473206c656e677468604482015268040dad2e6dac2e8c6d60bb1b606482015260840161098b565b600083516001600160401b0381111561146a57634e487b7160e01b600052604160045260246000fd5b604051908082528060200260200182016040528015611493578160200160208202803683370190505b50905060005b8451811015611535576114fa8582815181106114c557634e487b7160e01b600052603260045260246000fd5b60200260200101518583815181106114ed57634e487b7160e01b600052603260045260246000fd5b6020026020010151610923565b82828151811061151a57634e487b7160e01b600052603260045260246000fd5b602090810291909101015261152e81614408565b9050611499565b509392505050565b611546826128a8565b611091828260016128ec565b6000808383604051602001611568929190613e71565b60408051808303601f19018152919052805160209091012060601c949350505050565b60006109b960008051602061457b833981519152836116f4565b60006111ce6115b26123b0565b8484612c74565b6000806115c46123b0565b90506115d086826120e2565b6116395760405162461bcd60e51b815260206004820152603460248201527f746865206f70657261746f72206d75737420626520617070726f766564206f726044820152731030902a2920a729a322a92fa7a822a920aa27a960611b606482015260840161098b565b61164586868686612a7b565b9150505b949350505050565b600054610100900460ff168061166a575060005460ff16155b6116865760405162461bcd60e51b815260040161098b906141ff565b600054610100900460ff161580156116a8576000805461ffff19166101011790555b6116b0612d12565b60408051808201909152600780825266446156696e636960c81b60209092019182526116df9161013891613710565b508015610a0b576000805461ff001916905550565b600091825260fb602090815260408084206001600160a01b0393909316845291905290205460ff1690565b60008061172c8484610bb2565b9050600061173b856000610923565b9050600061271061174c8484614328565b6117569190614308565b9695505050505050565b816001600160a01b03166117726123b0565b6001600160a01b031614156117db5760405162461bcd60e51b815260206004820152602960248201527f455243313135353a2073657474696e6720617070726f76616c20737461747573604482015268103337b91039b2b63360b91b606482015260840161098b565b8060ca60006117e86123b0565b6001600160a01b03908116825260208083019390935260409182016000908120918716808252919093529120805460ff19169215159290921790915561182c6123b0565b6001600160a01b03167f17307eab39ab6107e8899845ad3d59bd9653f200f220920489ca2b5937696c3183604051611868911515815260200190565b60405180910390a35050565b6000611881826000610923565b6001600160a01b038316600090815261012f602052604081209192505b81548110156119275760008282815481106118c957634e487b7160e01b600052603260045260246000fd5b9060005260206000209060020201905060006127108260010154866118ee9190614328565b6118f89190614308565b82549091506119129087906001600160a01b031683612d1c565b5050808061191f90614408565b91505061189e565b50505050565b60006119376123b0565b90506119438189612a68565b6119a55760405162461bcd60e51b815260206004820152602d60248201527f4f6e6c792074686520697373756572206f662074686973204e46542063616e2060448201526c73657420726f79616c7469657360981b606482015260840161098b565b60008881526101366020526040902054421015611a165760405162461bcd60e51b815260206004820152602960248201527f526f79616c7469657320636f6e66696775726174696f6e206973206c6f636b656044820152686420666f72206e6f7760b81b606482015260840161098b565b6001600160a01b038716151580611a34575085158015611a34575084155b611a505760405162461bcd60e51b815260040161098b906141b3565b60008881526101306020908152604080832080546001600160a01b0319166001600160a01b038c81169190911790915561013183528184208a90556101329092529091208690558416151580611aad575082158015611aad575081155b611ac95760405162461bcd60e51b815260040161098b906141b3565b60008881526101336020908152604080832080546001600160a01b0319166001600160a01b0389161790556101348252808320869055610135909152908190208390555188907f3df2272e42784a2455bbbdcdf25ae0f67d41f801896514cc4cd255aa8ee75e4c90611b46908a908a908a908a908a908a90614034565b60405180910390a25050505050505050565b6000611b626123b0565b61012d546040516323b872dd60e01b81526001600160a01b038084166004830152306024830152604482018690529293509116906323b872dd90606401602060405180830381600087803b158015611bb957600080fd5b505af1158015611bcd573d6000803e3d6000fd5b505050506040513d601f19601f82011682018060405250810190611bf19190613c9a565b506110918160008460405180602001604052806000815250612dad565b60008151835114611c825760405162461bcd60e51b815260206004820152603860248201527f417272617973206f66206f776e65727320616e64206672616374696f6e73206d6044820152770eae6e840d0c2ecca40e8d0ca40e6c2daca40d8cadccee8d60431b606482015260840161098b565b600a83511115611cc65760405162461bcd60e51b815260206004820152600f60248201526e546f6f206d616e792073686172657360881b604482015260640161098b565b6000611cd28484611552565b6001600160a01b038116600090815261012f6020526040902080549192509015611d3b5760405162461bcd60e51b815260206004820152601a602482015279546865206163636f756e7420616c72656164792065786973747360301b604482015260640161098b565b6000805b8651811015611ece576000878281518110611d6a57634e487b7160e01b600052603260045260246000fd5b602002602001015190506000878381518110611d9657634e487b7160e01b600052603260045260246000fd5b6020026020010151905060006001600160a01b0316826001600160a01b031614158015611dc257508015155b611e0b5760405162461bcd60e51b815260206004820152601a6024820152790c081d985b1d595cc8185c99481b9bdd081c195c9b5a5d1d195960321b604482015260640161098b565b604080518082019091526001600160a01b0383811682526020808301848152885460018082018b5560008b8152939093209451600290910290940180546001600160a01b031916949093169390931782559151910155611e6b81856142c8565b9350816001600160a01b0316866001600160a01b03167e6fb9851f1fd2fbc9fa36680d17e1254999a38e5f3c76c3a1ecc126a464601b83604051611eb191815260200190565b60405180910390a350508080611ec690614408565b915050611d3f565b506127108114611f205760405162461bcd60e51b815260206004820152601e60248201527f546f74616c206672616374696f6e73206d7573742062652031302c3030300000604482015260640161098b565b5090949350505050565b61012d546001600160a01b031615611f4157600080fd5b611f4e60006105dd6123b0565b611f5757600080fd5b61012d80546001600160a01b0319166001600160a01b0392909216919091179055565b611f8760006105dd6123b0565b611fa35760405162461bcd60e51b815260040161098b9061414a565b805161109190610138906020840190613710565b611fc082610b9d565b611fcc81610ff86123b0565b610ce98383612823565b600082815261013160209081526040808320546101328352818420546101309093529083205490929081906001600160a01b0390811690861681146120575760006120218288610bb2565b90506127106120308288614328565b61203a9190614308565b95506127106120498287614328565b6120539190614308565b9450505b6000878152610134602090815260408083205461013583528184205461013390935292205491945092506001600160a01b0390811690871681146120d75760006120a18289610bb2565b90506127106120b08287614328565b6120ba9190614308565b94506127106120c98286614328565b6120d39190614308565b9350505b505092959194509250565b60006120fc60008051602061459b833981519152836116f4565b15612109575060016109b9565b6001600160a01b03808416600090815260ca602090815260408083209386168352929052205460ff166111ce565b6001600160a01b03841661215d5760405162461bcd60e51b815260040161098b9061416e565b6121656123b0565b6001600160a01b0316856001600160a01b0316148061218b575061218b856108de6123b0565b6121a75760405162461bcd60e51b815260040161098b90614101565b60006121b16123b0565b90506121d18187876121c288612eb7565b6121cb88612eb7565b87612555565b600084815260c9602090815260408083206001600160a01b038a168452909152902054838110156122145760405162461bcd60e51b815260040161098b9061424d565b61221e8482614347565b600086815260c9602090815260408083206001600160a01b038c8116855292528083209390935588168152908120805486929061225c9084906142c8565b92505081905550856001600160a01b0316876001600160a01b0316836001600160a01b031660008051602061451483398151915288886040516122a0929190614297565b60405180910390a46122b6828888888888612f10565b50505050505050565b6001600160a01b0383166122e55760405162461bcd60e51b815260040161098b9061416e565b6122ed6123b0565b6001600160a01b0316846001600160a01b031614806123135750612313846108de6123b0565b61232f5760405162461bcd60e51b815260040161098b90614101565b61192784848484612b8a565b60006001600160e01b03198216636cdb3d1360e11b148061236c57506001600160e01b031982166303a24d0760e21b145b806109b957506301ffc9a760e01b6001600160e01b03198316146109b9565b60006001600160e01b03198216637965db0b60e01b14806109b957506109b98261233b565b60006123ba612fda565b905090565b80516110919060cb906020840190613710565b6001600160a01b0383166124345760405162461bcd60e51b815260206004820152602360248201527f455243313135353a206275726e2066726f6d20746865207a65726f206164647260448201526265737360e81b606482015260840161098b565b600061243e6123b0565b905061246e8185600061245087612eb7565b61245987612eb7565b60405180602001604052806000815250612555565b600083815260c9602090815260408083206001600160a01b0388168452909152902054828110156124ed5760405162461bcd60e51b8152602060048201526024808201527f455243313135353a206275726e20616d6f756e7420657863656564732062616c604482015263616e636560e01b606482015260840161098b565b6124f78382614347565b600085815260c9602090815260408083206001600160a01b03808b1680865291909352818420949094555191929190851690600080516020614514833981519152906125469089908990614297565b60405180910390a45050505050565b60005b83518110156122b6576125bc8685838151811061258557634e487b7160e01b600052603260045260246000fd5b602002602001015160008685815181106125af57634e487b7160e01b600052603260045260246000fd5b6020026020010151612a7b565b506125c681614408565b9050612558565b6001600160a01b0384163b15610fdb5760405163bc197c8160e01b81526001600160a01b0385169063bc197c81906126119089908990889088908890600401613f78565b602060405180830381600087803b15801561262b57600080fd5b505af192505050801561265b575060408051601f3d908101601f1916820190925261265891810190613d0c565b60015b6127085761266761444f565b806308c379a014156126a1575061267c614466565b8061268757506126a3565b8060405162461bcd60e51b815260040161098b91906140a6565b505b60405162461bcd60e51b815260206004820152603460248201527f455243313135353a207472616e7366657220746f206e6f6e20455243313135356044820152732932b1b2b4bb32b91034b6b83632b6b2b73a32b960611b606482015260840161098b565b6001600160e01b0319811663bc197c8160e01b146122b65760405162461bcd60e51b815260040161098b906140b9565b61274282826116f4565b6110915761275a816001600160a01b03166014612fff565b612765836020612fff565b604051602001612776929190613ef5565b60408051601f198184030181529082905262461bcd60e51b825261098b916004016140a6565b6127a682826116f4565b61109157600082815260fb602090815260408083206001600160a01b03851684529091529020805460ff191660011790556127df6123b0565b6001600160a01b0316816001600160a01b0316837f2f8788117e7eff1d82e926ec794901d17c78024a50270940304540a733656f0d60405160405180910390a45050565b61282d82826116f4565b1561109157600082815260fb602090815260408083206001600160a01b03851684529091529020805460ff191690556128646123b0565b6001600160a01b0316816001600160a01b0316837ff6391f5c32d9c69d2a47ea670b442974b53935d1edc7fd64eb21e047a839171b60405160405180910390a45050565b6128b36000336116f4565b610a0b5760405162461bcd60e51b815260206004820152600a60248201526927b7363c9020b236b4b760b11b604482015260640161098b565b60006128f66131e0565b9050612901846131fc565b60008351118061290e5750815b1561291f5761291d848461328f565b505b7f4910fdfa16fed3260ed0e7147f7cc6da11a60208b5b9406d12a635614ffd9143805460ff16612a6157805460ff1916600117815560405161299a90869061296b908590602401613f64565b60408051601f198184030181529190526020810180516001600160e01b0316631b2ce7f360e11b17905261328f565b50805460ff191681556129ab6131e0565b6001600160a01b0316826001600160a01b031614612a235760405162461bcd60e51b815260206004820152602f60248201527f45524331393637557067726164653a207570677261646520627265616b73206660448201526e75727468657220757067726164657360881b606482015260840161098b565b612a2c856131fc565b6040516001600160a01b038616907fbc7cd75a20ee27fd9adebab32041f755214dbc6bffa90cc0225b39da2e5c2d3b90600090a25b5050505050565b60601c6001600160a01b03919091161490565b600083612a8a57506000611649565b612aa26000805160206145db833981519152336116f4565b15612aaf57506000611649565b600080600080612abf8989612a68565b90508015612b01576000888152610131602090815260408083205461013283528184205461013090935292205491955093506001600160a01b03169150612b37565b6000888152610134602090815260408083205461013583528184205461013390935292205491955093506001600160a01b031691505b6000612710612b46868a614328565b612b509190614308565b905083811015612b5d5750825b6000612b698883614328565b90508015612b7c57612b7c8b8583613371565b9a9950505050505050505050565b600082815260c9602090815260408083206001600160a01b038816845290915290205481811015612bcd5760405162461bcd60e51b815260040161098b9061424d565b612bd78282614347565b600084815260c9602090815260408083206001600160a01b038a81168552925280832093909355861681529081208054849290612c159084906142c8565b9091555060009050612c256123b0565b9050846001600160a01b0316866001600160a01b0316826001600160a01b03166000805160206145148339815191528787604051612c64929190614297565b60405180910390a4505050505050565b6001600160a01b038316600090815261012e602052604081205463ffffffff16612c9f8160016142e0565b6001600160a01b038616600090815261012e60205260408120805463ffffffff191663ffffffff9390931692909217909155612cdc8683876111a4565b90506000856001600160401b031611612cf457600080fd5b612d098682876001600160401b031687612dad565b95945050505050565b612d1a613454565b565b612d28836000836123d2565b61012d5460405163a9059cbb60e01b81526001600160a01b039091169063a9059cbb90612d5b908590859060040161401b565b602060405180830381600087803b158015612d7557600080fd5b505af1158015612d89573d6000803e3d6000fd5b505050506040513d601f19601f820116820180604052508101906119279190613c9a565b6001600160a01b038416612e0d5760405162461bcd60e51b815260206004820152602160248201527f455243313135353a206d696e7420746f20746865207a65726f206164647265736044820152607360f81b606482015260840161098b565b6000612e176123b0565b9050612e29816000876121c288612eb7565b600084815260c9602090815260408083206001600160a01b038916845290915281208054859290612e5b9084906142c8565b92505081905550846001600160a01b031660006001600160a01b0316826001600160a01b03166000805160206145148339815191528787604051612ea0929190614297565b60405180910390a4612a6181600087878787612f10565b60408051600180825281830190925260609160009190602080830190803683370190505090508281600081518110612eff57634e487b7160e01b600052603260045260246000fd5b602090810291909101015292915050565b6001600160a01b0384163b15610fdb5760405163f23a6e6160e01b81526001600160a01b0385169063f23a6e6190612f549089908990889088908890600401613fd6565b602060405180830381600087803b158015612f6e57600080fd5b505af1925050508015612f9e575060408051601f3d908101601f19168201909252612f9b91810190613d0c565b60015b612faa5761266761444f565b6001600160e01b0319811663f23a6e6160e01b146122b65760405162461bcd60e51b815260040161098b906140b9565b6000612fe53361158b565b15612ff7575060131936013560601c90565b503390565b90565b6060600061300e836002614328565b6130199060026142c8565b6001600160401b0381111561303e57634e487b7160e01b600052604160045260246000fd5b6040519080825280601f01601f191660200182016040528015613068576020820181803683370190505b509050600360fc1b8160008151811061309157634e487b7160e01b600052603260045260246000fd5b60200101906001600160f81b031916908160001a905350600f60fb1b816001815181106130ce57634e487b7160e01b600052603260045260246000fd5b60200101906001600160f81b031916908160001a90535060006130f2846002614328565b6130fd9060016142c8565b90505b6001811115613191576f181899199a1a9b1b9c1cb0b131b232b360811b85600f166010811061313f57634e487b7160e01b600052603260045260246000fd5b1a60f81b82828151811061316357634e487b7160e01b600052603260045260246000fd5b60200101906001600160f81b031916908160001a90535060049490941c9361318a8161438a565b9050613100565b5083156111ce5760405162461bcd60e51b815260206004820181905260248201527f537472696e67733a20686578206c656e67746820696e73756666696369656e74604482015260640161098b565b600080516020614534833981519152546001600160a01b031690565b803b6132605760405162461bcd60e51b815260206004820152602d60248201527f455243313936373a206e657720696d706c656d656e746174696f6e206973206e60448201526c1bdd08184818dbdb9d1c9858dd609a1b606482015260840161098b565b60008051602061453483398151915280546001600160a01b0319166001600160a01b0392909216919091179055565b6060823b6132ee5760405162461bcd60e51b815260206004820152602660248201527f416464726573733a2064656c65676174652063616c6c20746f206e6f6e2d636f6044820152651b9d1c9858dd60d21b606482015260840161098b565b600080846001600160a01b0316846040516133099190613ed9565b600060405180830381855af49150503d8060008114613344576040519150601f19603f3d011682016040523d82523d6000602084013e613349565b606091505b5091509150612d0982826040518060600160405280602781526020016145546027913961345c565b6001600160a01b03831660009081526000805160206145bb8339815191526020526040902054818110156133b75760405162461bcd60e51b815260040161098b9061424d565b6133c18282614347565b6001600160a01b0385811660009081526000805160206145bb833981519152602052604080822093909355908516815290812080548492906134049084906142c8565b90915550600090506134146123b0565b9050836001600160a01b0316856001600160a01b0316826001600160a01b0316600080516020614514833981519152600087604051612546929190614297565b612d1a613495565b6060831561346b5750816111ce565b82511561347b5782518084602001fd5b8160405162461bcd60e51b815260040161098b91906140a6565b612d1a612d1a612d1a612d1a612d1a6134c56040518060600160405280603381526020016145fb603391396134cd565b612d1a613552565b600054610100900460ff16806134e6575060005460ff16155b6135025760405162461bcd60e51b815260040161098b906141ff565b600054610100900460ff16158015613524576000805461ffff19166101011790555b61352c61355a565b61353461355a565b61353d826135c5565b8015611091576000805461ff00191690555050565b612d1a613625565b600054610100900460ff1680613573575060005460ff16155b61358f5760405162461bcd60e51b815260040161098b906141ff565b600054610100900460ff161580156135b1576000805461ffff19166101011790555b8015610a0b576000805461ff001916905550565b600054610100900460ff16806135de575060005460ff16155b6135fa5760405162461bcd60e51b815260040161098b906141ff565b600054610100900460ff1615801561361c576000805461ffff19166101011790555b61353d826123bf565b61362d613640565b6136356136a7565b612d1a600033613706565b600054610100900460ff1680613659575060005460ff16155b6136755760405162461bcd60e51b815260040161098b906141ff565b600054610100900460ff16158015613697576000805461ffff19166101011790555b61369f61355a565b6135b161355a565b600054610100900460ff16806136c0575060005460ff16155b6136dc5760405162461bcd60e51b815260040161098b906141ff565b600054610100900460ff161580156136fe576000805461ffff19166101011790555b61369761355a565b611091828261279c565b82805461371c906143a1565b90600052602060002090601f01602090048101928261373e5760008555613784565b82601f1061375757805160ff1916838001178555613784565b82800160010185558215613784579182015b82811115613784578251825591602001919060010190613769565b50613790929150613794565b5090565b5b808211156137905760008155600101613795565b60006001600160401b038311156137c2576137c2614439565b6040516137d9601f8501601f1916602001826143dc565b8091508381528484840111156137ee57600080fd5b83836020830137600060208583010152509392505050565b80356001600160a01b038116811461381d57600080fd5b919050565b600082601f830112613832578081fd5b8135602061383f826142a5565b60405161384c82826143dc565b8381528281019150858301600585901b8701840188101561386b578586fd5b855b858110156138895781358452928401929084019060010161386d565b5090979650505050505050565b600082601f8301126138a6578081fd5b6111ce838335602085016137a9565b80356001600160401b038116811461381d57600080fd5b6000602082840312156138dd578081fd5b6111ce82613806565b600080604083850312156138f8578081fd5b61390183613806565b915061390f60208401613806565b90509250929050565b600080600080600060a0868803121561392f578081fd5b61393886613806565b945061394660208701613806565b935060408601356001600160401b0380821115613961578283fd5b61396d89838a01613822565b94506060880135915080821115613982578283fd5b61398e89838a01613822565b935060808801359150808211156139a3578283fd5b506139b088828901613896565b9150509295509295909350565b600080600080608085870312156139d2578384fd5b6139db85613806565b93506139e960208601613806565b93969395505050506040820135916060013590565b600080600080600060a08688031215613a15578081fd5b613a1e86613806565b9450613a2c60208701613806565b9350604086013592506060860135915060808601356001600160401b03811115613a54578182fd5b6139b088828901613896565b600080600080600060a08688031215613a77578283fd5b613a8086613806565b9450613a8e60208701613806565b94979496505050506040830135926060810135926080909101359150565b60008060408385031215613abe578182fd5b613ac783613806565b91506020830135613ad7816144ef565b809150509250929050565b60008060408385031215613af4578182fd5b613afd83613806565b915060208301356001600160401b03811115613b17578182fd5b613b2385828601613896565b9150509250929050565b60008060408385031215613b3f578182fd5b613b4883613806565b946020939093013593505050565b60008060008060808587031215613b6b578182fd5b613b7485613806565b966020860135965060408601359560600135945092505050565b600080600060608486031215613ba2578081fd5b613bab84613806565b9250602084013563ffffffff81168114613bc3578182fd5b9150613bd1604085016138b5565b90509250925092565b60008060408385031215613bec578182fd5b82356001600160401b0380821115613c02578384fd5b818501915085601f830112613c15578384fd5b81356020613c22826142a5565b604051613c2f82826143dc565b8381528281019150858301600585901b870184018b1015613c4e578889fd5b8896505b84871015613c7757613c6381613806565b835260019690960195918301918301613c52565b5096505086013592505080821115613c8d578283fd5b50613b2385828601613822565b600060208284031215613cab578081fd5b81516111ce816144ef565b600060208284031215613cc7578081fd5b5035919050565b60008060408385031215613ce0578182fd5b8235915061390f60208401613806565b600060208284031215613d01578081fd5b81356111ce816144fd565b600060208284031215613d1d578081fd5b81516111ce816144fd565b600060208284031215613d39578081fd5b81356001600160401b03811115613d4e578182fd5b8201601f81018413613d5e578182fd5b611649848235602084016137a9565b600080600080600080600060e0888a031215613d87578485fd5b87359650613d9760208901613806565b95506040880135945060608801359350613db360808901613806565b925060a0880135915060c0880135905092959891949750929550565b60008060408385031215613de1578182fd5b50508035926020909101359150565b60008060408385031215613e02578182fd5b613afd836138b5565b6000815180845260208085019450808401835b83811015613e3a57815187529582019590820190600101613e1e565b509495945050505050565b60008151808452613e5d81602086016020860161435e565b601f01601f19169290920160200192915050565b825160009082906020808701845b83811015613ea45781516001600160a01b031685529382019390820190600101613e7f565b50508551818701939250845b81811015613ecc57845184529382019392820192600101613eb0565b5091979650505050505050565b60008251613eeb81846020870161435e565b9190910192915050565b76020b1b1b2b9b9a1b7b73a3937b61d1030b1b1b7bab73a1604d1b815260008351613f2781601785016020880161435e565b7001034b99036b4b9b9b4b733903937b6329607d1b6017918401918201528351613f5881602884016020880161435e565b01602801949350505050565b6001600160a01b0391909116815260200190565b6001600160a01b0386811682528516602082015260a060408201819052600090613fa490830186613e0b565b8281036060840152613fb68186613e0b565b90508281036080840152613fca8185613e45565b98975050505050505050565b6001600160a01b03868116825285166020820152604081018490526060810183905260a06080820181905260009061401090830184613e45565b979650505050505050565b6001600160a01b03929092168252602082015260400190565b6001600160a01b0396871681526020810195909552604085019390935293166060830152608082019290925260a081019190915260c00190565b6020815260006111ce6020830184613e0b565b6040815260006140946040830185613e0b565b8281036020840152612d098185613e0b565b6020815260006111ce6020830184613e45565b60208082526028908201527f455243313135353a204552433131353552656365697665722072656a656374656040820152676420746f6b656e7360c01b606082015260800190565b60208082526029908201527f455243313135353a2063616c6c6572206973206e6f74206f776e6572206e6f7260408201526808185c1c1c9bdd995960ba1b606082015260800190565b6020808252600a908201526937b7363c9030b236b4b760b11b604082015260600190565b60208082526025908201527f455243313135353a207472616e7366657220746f20746865207a65726f206164604082015264647265737360d81b606082015260800190565b6020808252602c908201527f546865206163636f756e74206d757374206e6f7420626520302c20756e6c657360408201526b07320666565732061726520360a41b606082015260800190565b6020808252602e908201527f496e697469616c697a61626c653a20636f6e747261637420697320616c72656160408201526d191e481a5b9a5d1a585b1a5e995960921b606082015260800190565b6020808252602a908201527f455243313135353a20696e73756666696369656e742062616c616e636520666f60408201526939103a3930b739b332b960b11b606082015260800190565b918252602082015260400190565b60006001600160401b038211156142be576142be614439565b5060051b60200190565b600082198211156142db576142db614423565b500190565b600063ffffffff8083168185168083038211156142ff576142ff614423565b01949350505050565b60008261432357634e487b7160e01b81526012600452602481fd5b500490565b600081600019048311821515161561434257614342614423565b500290565b60008282101561435957614359614423565b500390565b60005b83811015614379578181015183820152602001614361565b838111156119275750506000910152565b60008161439957614399614423565b506000190190565b600181811c908216806143b557607f821691505b602082108114156143d657634e487b7160e01b600052602260045260246000fd5b50919050565b601f8201601f191681016001600160401b038111828210171561440157614401614439565b6040525050565b600060001982141561441c5761441c614423565b5060010190565b634e487b7160e01b600052601160045260246000fd5b634e487b7160e01b600052604160045260246000fd5b600060033d1115612ffc57600481823e5160e01c90565b600060443d10156144745790565b6040516003193d81016004833e81513d6001600160401b0380831160248401831017156144a357505050505090565b82850191508151818111156144bb5750505050505090565b843d87010160208285010111156144d55750505050505090565b6144e4602082860101876143dc565b509095945050505050565b8015158114610a0b57600080fd5b6001600160e01b031981168114610a0b57600080fdfec3d58168c5ae7397731d063d5bbf3d657854427343f4c083240f7aacaa2d0f62360894a13ba1a3210667c828492db98dca3e2076cc3735a920a3ca505d382bbc416464726573733a206c6f772d6c6576656c2064656c65676174652063616c6c206661696c65643d2e894c222ba979e2dce2c7d940c0e9bb14306669e9f034eb1bb3979a2069d8626f510646502d065065e8bd550325973a611a32e6f6ddff40650005cb13636881fe90a866a48a634a12852c1be675b683a22307409932a7443b8029347be75620a4be6e7127e439f48d6654377d19402cb883dd85029e600de9e17052f903d368747470733a2f2f6170692e66726565706f72742e636572652e6e6574776f726b2f657263313135352f7b69647d2e6a736f6ea2646970667358221220d45c3d67475f0c0b136dcfddb6e35569d27bff15124d6d59ff5849886ff6e63064736f6c63430008040033",
  "immutableReferences": {},
  "source": "pragma solidity ^0.8.0;\n\nimport \"./freeportParts/SimpleExchange.sol\";\n\n/** Main contract, including all components.\n\n- Hold and transfer NFTs using ERC1155.\n- Support atomic exchanges of NFTs for currency.\n- Issuance of NFTs with fixed supply.\n- Joint Accounts that distribute their funds over multiple owners.\n- Capture royalties on primary and secondary transfers, configurable per NFT type.\n*/\ncontract Freeport is /*\n    ERC1155,\n    AccessControl,\n    MetaTxContext,\n    BaseNFT,\n    Currency,\n    TransferOperator,\n    ERC20Adapter,\n    Issuance,\n    JointAccounts,\n    TransferFees,\n    */ SimpleExchange {\n\n    /** Name of the collection for open sea.\n     */\n    string public name;\n\n    /** Initialize this contract and its dependencies.\n     */\n    function initialize() public initializer {\n        __SimpleExchange_init();\n        name = \"DaVinci\";\n    }\n\n    function setName(string memory newName) public {\n        require(hasRole(DEFAULT_ADMIN_ROLE, _msgSender()), \"only admin\");\n        name = newName;\n    }\n}\n",
  "sourcePath": "/Users/neanvo/WorkFlow/cere/Freeport-Smart-Contracts/contracts/Freeport.sol",
  "compiler": {
    "name": "solc",
    "version": "0.8.4+commit.c7e474f2.Emscripten.clang"
  },
  "schemaVersion": "3.4.4",
  "updatedAt": "2022-05-14T05:11:00.802Z",
  "devdoc": {
    "kind": "dev",
    "methods": {
      "balanceOf(address,uint256)": {
        "details": "See {IERC1155-balanceOf}. Requirements: - `account` cannot be the zero address."
      },
      "balanceOfBatch(address[],uint256[])": {
        "details": "See {IERC1155-balanceOfBatch}. Requirements: - `accounts` and `ids` must have the same length."
      },
      "getRoleAdmin(bytes32)": {
        "details": "Returns the admin role that controls `role`. See {grantRole} and {revokeRole}. To change a role's admin, use {_setRoleAdmin}."
      },
      "grantRole(bytes32,address)": {
        "details": "Grants `role` to `account`. If `account` had not been already granted `role`, emits a {RoleGranted} event. Requirements: - the caller must have ``role``'s admin role."
      },
      "hasRole(bytes32,address)": {
        "details": "Returns `true` if `account` has been granted `role`."
      },
      "renounceRole(bytes32,address)": {
        "details": "Revokes `role` from the calling account. Roles are often managed via {grantRole} and {revokeRole}: this function's purpose is to provide a mechanism for accounts to lose their privileges if they are compromised (such as when a trusted device is misplaced). If the calling account had been granted `role`, emits a {RoleRevoked} event. Requirements: - the caller must be `account`."
      },
      "revokeRole(bytes32,address)": {
        "details": "Revokes `role` from `account`. If `account` had been granted `role`, emits a {RoleRevoked} event. Requirements: - the caller must have ``role``'s admin role."
      },
      "safeBatchTransferFrom(address,address,uint256[],uint256[],bytes)": {
        "details": "See {IERC1155-safeBatchTransferFrom}."
      },
      "safeTransferFrom(address,address,uint256,uint256,bytes)": {
        "details": "See {IERC1155-safeTransferFrom}."
      },
      "setApprovalForAll(address,bool)": {
        "details": "See {IERC1155-setApprovalForAll}."
      },
      "uri(uint256)": {
        "details": "See {IERC1155MetadataURI-uri}. This implementation returns the same URI for *all* token types. It relies on the token type ID substitution mechanism https://eips.ethereum.org/EIPS/eip-1155#metadata[defined in the EIP]. Clients calling this function must replace the `\\{id\\}` substring with the actual token type ID."
      }
    },
    "version": 1
  },
  "userdoc": {
    "events": {
      "JointAccountShareCreated(address,address,uint256)": {
        "notice": "Notify that a Joint Account was created at the address `account`. One such event is emitted for each owner, including his fraction of the account in basis points (1% of 1%)."
      },
      "MakeOffer(address,uint256,uint256)": {
        "notice": "An event emitted when an account `seller` has offered to sell a type of NFT at a given price. This replaces previous offers by the same seller on the same NFT ID, if any. A price of 0 means \"no offer\" and the previous offer is cancelled. An offer does not imply that the seller owns any amount of this NFT. An offer remains valid until cancelled, for the entire balance at a given time, regardless of incoming and outgoing transfers on the seller account."
      },
      "RoyaltiesConfigured(uint256,address,uint256,uint256,address,uint256,uint256)": {
        "notice": "Notify that royalties were configured on an NFT type."
      },
      "RoyaltiesLocked(uint256,uint256)": {
        "notice": "Notify that royalties are locked and cannot change, until the given time (in UNIX seconds), or forever (lockUntil = 0xFFFFFFFF)."
      },
      "TakeOffer(address,address,uint256,uint256,uint256)": {
        "notice": "An offer of `seller` was taken by `buyer`. The transfers of `amount` NFTs of type `nftId` against `amount * price` of CERE Units were executed."
      }
    },
    "kind": "user",
    "methods": {
      "BASIS_POINTS()": {
        "notice": "The total fraction representing 100% of an account."
      },
      "CURRENCY()": {
        "notice": "The token ID that represents the internal currency for all payments in this contract. "
      },
      "balanceOfJAOwner(address,address)": {
        "notice": "Calculate the amount of tokens that an owner of a Joint Account can withdraw right now."
      },
      "captureFee(address,uint256,uint256,uint256)": {
        "notice": "Collect the royalty due on a transfer. The royalty is calculated based on NFT configuration and the price. It is collected by an internal transfer of currency between \"from\" and the beneficiary. Return the amount collected. The caller must be approved by \"from\", or a TRANSFER_OPERATOR."
      },
      "configureRoyalties(uint256,address,uint256,uint256,address,uint256,uint256)": {
        "notice": "Configure the amounts and beneficiaries of royalties on primary and secondary transfers of this NFT. This configuration is available to the issuer of this NFT. A transfer is primary if it comes from the issuer of this NFT (normally the first sale after issuance). Otherwise, it is a secondary transfer. A royalty is defined in two parts (both optional): a cut of the sale price of an NFT, and a minimum royalty per transfer. For simple transfers not attached to a price, or a too low price, the minimum royalty is charged. The cuts are given in basis points (1% of 1%). The minimums are given in currency amounts. The configuration can be changed at any time by default. However, the issuer may commit to it for a period of time, effectively giving up his ability to modify the royalties. See the function lockRoyalties. There can be one beneficiary account for each primary and secondary royalties. To distribute revenues amongst several parties, use a Joint Account (see function createJointAccount)."
      },
      "createJointAccount(address[],uint256[])": {
        "notice": "Create an account such that multiple owners have a claim on their respective share. The size of a share is given as a fraction in basis points (1% of 1%). The sum of share fractions must equal 10,000. Anyone can create Joint Accounts including any owners."
      },
      "currencyContract()": {
        "notice": "The address of ERC-20 token's contract"
      },
      "deposit(uint256)": {
        "notice": "Deposit currency from ERC20 into the internal currency. This requires payer to approve deposit."
      },
      "distributeJointAccount(address)": {
        "notice": "Distribute all tokens available to all owners of a Joint Account. The function createJointAccount must be called beforehand. Anyone can trigger the distribution."
      },
      "fractionOfJAOwner(address,address)": {
        "notice": "Return the fraction of an account owned by the given address, in basis points (1% of 1%). If the account does not exist, or if the given address is not an owner of it, this returns 0. If the owner appears more than once in the account, this reports only the first share."
      },
      "getNftId(address,uint32,uint64)": {
        "notice": "Calculate the ID of an NFT type, identifying its issuer, its supply, and an arbitrary nonce."
      },
      "getOffer(address,uint256)": {
        "notice": "Return the price offered by the given seller for the given NFT type."
      },
      "getRoyalties(uint256)": {
        "notice": "Return the current configuration of royalties for NFTs of type nftId, as set by configureRoyalties."
      },
      "getRoyaltiesForBeneficiary(uint256,address)": {
        "notice": "Return the amount of royalties earned by a beneficiary on each primary and secondary transfer of an NFT. This function supports Joint Accounts. If royalties are paid to a JA and beneficiary is an owner of the JA, the shares of the royalties for this owner are returned."
      },
      "initialize()": {
        "notice": "Initialize this contract and its dependencies."
      },
      "isApprovedForAll(address,address)": {
        "notice": "Return true for operators with the role TRANSFER_OPERATOR. Otherwise, apply the standard approval logic of ERC1155. See {IERC1155-isApprovedForAll}."
      },
      "issuanceNonces(address)": {
        "notice": "A counter of NFT types issued by each issuer. This is used to generate unique NFT IDs."
      },
      "issue(uint64,bytes)": {
        "notice": "Issue a supply of NFTs of a new type, and return its ID. No more NFT of this type can be issued again. The caller will be recorded as the issuer and it will initially own the entire supply."
      },
      "lockRoyalties(uint256,uint256)": {
        "notice": "Lock the configuration of royalties for this NFT type. Only the issuer may lock the configuration, after which he himself will no longer be able to change the configuration, for some time, or forever. Set lockUntil to a time in the future to lock the configuration until the specified time (in UNIX seconds). Set to 0xFFFFFFFF to lock forever."
      },
      "makeAddressOfJointAccount(address[],uint256[])": {
        "notice": "Generate a unique address identifying a list of owners and shares. It may be used to predict the address of a Joint Account and receive payments even before calling the function createJointAccount."
      },
      "makeOffer(uint256,uint256)": {
        "notice": "Create an offer to sell a type of NFTs for a price per unit. All the NFTs of this type owned by the caller will be for sale. To cancel, call again with a price of 0."
      },
      "name()": {
        "notice": "Name of the collection for open sea."
      },
      "setERC20(address)": {
        "notice": "Sets token's contract address. This token is used to deposit and withdraw on chain adapter's contract is deployed."
      },
      "supportsInterface(bytes4)": {
        "notice": "Supports interfaces of AccessControl, ERC1155, and ERC1155 MetadataURI."
      },
      "takeOffer(address,address,uint256,uint256,uint256)": {
        "notice": "Accept an offer, paying the price per unit for an amount of NFTs. The offer must have been created beforehand by makeOffer. The sender pays ERC20. The sender is not necessarily the same as buyer, see FiatGateway. The seller receives internal currency (equivalent to the ERC20 payment, see the function withdraw). The buyer receives the NFT. The parameter expectedPriceOrZero can be used to validate the price that the buyer expects to pay. This prevents a race condition with makeOffer or setExchangeRate. Pass 0 to disable this validation and accept any current price."
      },
      "transferFrom(address,address,uint256,uint256)": {
        "notice": "transferFrom performs a simple transfer, without calling the hooks  (no _beforeTokenTransfer and no onERC1155Received)."
      },
      "withdraw(uint256)": {
        "notice": "Withdraw currency from internal to ERC20"
      }
    },
    "notice": "Main contract, including all components. - Hold and transfer NFTs using ERC1155. - Support atomic exchanges of NFTs for currency. - Issuance of NFTs with fixed supply. - Joint Accounts that distribute their funds over multiple owners. - Capture royalties on primary and secondary transfers, configurable per NFT type.",
    "version": 1
  }
}