{
  "contractName": "Marketplace",
  "abi": [
    {
      "anonymous": false,
      "inputs": [
        {
          "indexed": false,
          "internalType": "address",
          "name": "previousAdmin",
          "type": "address"
        },
        {
          "indexed": false,
          "internalType": "address",
          "name": "newAdmin",
          "type": "address"
        }
      ],
      "name": "AdminChanged",
      "type": "event"
    },
    {
      "anonymous": false,
      "inputs": [
        {
          "indexed": true,
          "internalType": "address",
          "name": "beacon",
          "type": "address"
        }
      ],
      "name": "BeaconUpgraded",
      "type": "event"
    },
    {
      "anonymous": false,
      "inputs": [
        {
          "indexed": true,
          "internalType": "address",
          "name": "seller",
          "type": "address"
        },
        {
          "indexed": true,
          "internalType": "uint256",
          "name": "nftId",
          "type": "uint256"
        },
        {
          "indexed": false,
          "internalType": "uint256",
          "name": "price",
          "type": "uint256"
        }
      ],
      "name": "MakeOffer",
      "type": "event"
    },
    {
      "anonymous": false,
      "inputs": [
        {
          "indexed": true,
          "internalType": "bytes32",
          "name": "role",
          "type": "bytes32"
        },
        {
          "indexed": true,
          "internalType": "bytes32",
          "name": "previousAdminRole",
          "type": "bytes32"
        },
        {
          "indexed": true,
          "internalType": "bytes32",
          "name": "newAdminRole",
          "type": "bytes32"
        }
      ],
      "name": "RoleAdminChanged",
      "type": "event"
    },
    {
      "anonymous": false,
      "inputs": [
        {
          "indexed": true,
          "internalType": "bytes32",
          "name": "role",
          "type": "bytes32"
        },
        {
          "indexed": true,
          "internalType": "address",
          "name": "account",
          "type": "address"
        },
        {
          "indexed": true,
          "internalType": "address",
          "name": "sender",
          "type": "address"
        }
      ],
      "name": "RoleGranted",
      "type": "event"
    },
    {
      "anonymous": false,
      "inputs": [
        {
          "indexed": true,
          "internalType": "bytes32",
          "name": "role",
          "type": "bytes32"
        },
        {
          "indexed": true,
          "internalType": "address",
          "name": "account",
          "type": "address"
        },
        {
          "indexed": true,
          "internalType": "address",
          "name": "sender",
          "type": "address"
        }
      ],
      "name": "RoleRevoked",
      "type": "event"
    },
    {
      "anonymous": false,
      "inputs": [
        {
          "indexed": true,
          "internalType": "address",
          "name": "buyer",
          "type": "address"
        },
        {
          "indexed": true,
          "internalType": "address",
          "name": "seller",
          "type": "address"
        },
        {
          "indexed": true,
          "internalType": "uint256",
          "name": "nftId",
          "type": "uint256"
        },
        {
          "indexed": false,
          "internalType": "uint256",
          "name": "price",
          "type": "uint256"
        },
        {
          "indexed": false,
          "internalType": "uint256",
          "name": "amount",
          "type": "uint256"
        }
      ],
      "name": "TakeOffer",
      "type": "event"
    },
    {
      "anonymous": false,
      "inputs": [
        {
          "indexed": true,
          "internalType": "address",
          "name": "implementation",
          "type": "address"
        }
      ],
      "name": "Upgraded",
      "type": "event"
    },
    {
      "inputs": [],
      "name": "DEFAULT_ADMIN_ROLE",
      "outputs": [
        {
          "internalType": "bytes32",
          "name": "",
          "type": "bytes32"
        }
      ],
      "stateMutability": "view",
      "type": "function",
      "constant": true
    },
    {
      "inputs": [],
      "name": "META_TX_FORWARDER",
      "outputs": [
        {
          "internalType": "bytes32",
          "name": "",
          "type": "bytes32"
        }
      ],
      "stateMutability": "view",
      "type": "function",
      "constant": true
    },
    {
      "inputs": [],
      "name": "freeport",
      "outputs": [
        {
          "internalType": "contract Freeport",
          "name": "",
          "type": "address"
        }
      ],
      "stateMutability": "view",
      "type": "function",
      "constant": true
    },
    {
      "inputs": [
        {
          "internalType": "uint32",
          "name": "innerNftId",
          "type": "uint32"
        }
      ],
      "name": "getGlobalNftId",
      "outputs": [
        {
          "internalType": "uint256",
          "name": "",
          "type": "uint256"
        }
      ],
      "stateMutability": "view",
      "type": "function",
      "constant": true
    },
    {
      "inputs": [
        {
          "internalType": "bytes32",
          "name": "role",
          "type": "bytes32"
        }
      ],
      "name": "getRoleAdmin",
      "outputs": [
        {
          "internalType": "bytes32",
          "name": "",
          "type": "bytes32"
        }
      ],
      "stateMutability": "view",
      "type": "function",
      "constant": true
    },
    {
      "inputs": [
        {
          "internalType": "bytes32",
          "name": "role",
          "type": "bytes32"
        },
        {
          "internalType": "address",
          "name": "account",
          "type": "address"
        }
      ],
      "name": "grantRole",
      "outputs": [],
      "stateMutability": "nonpayable",
      "type": "function"
    },
    {
      "inputs": [
        {
          "internalType": "bytes32",
          "name": "role",
          "type": "bytes32"
        },
        {
          "internalType": "address",
          "name": "account",
          "type": "address"
        }
      ],
      "name": "hasRole",
      "outputs": [
        {
          "internalType": "bool",
          "name": "",
          "type": "bool"
        }
      ],
      "stateMutability": "view",
      "type": "function",
      "constant": true
    },
    {
      "inputs": [
        {
          "internalType": "address",
          "name": "forwarder",
          "type": "address"
        }
      ],
      "name": "isTrustedForwarder",
      "outputs": [
        {
          "internalType": "bool",
          "name": "",
          "type": "bool"
        }
      ],
      "stateMutability": "view",
      "type": "function",
      "constant": true
    },
    {
      "inputs": [
        {
          "internalType": "bytes32",
          "name": "role",
          "type": "bytes32"
        },
        {
          "internalType": "address",
          "name": "account",
          "type": "address"
        }
      ],
      "name": "renounceRole",
      "outputs": [],
      "stateMutability": "nonpayable",
      "type": "function"
    },
    {
      "inputs": [
        {
          "internalType": "bytes32",
          "name": "role",
          "type": "bytes32"
        },
        {
          "internalType": "address",
          "name": "account",
          "type": "address"
        }
      ],
      "name": "revokeRole",
      "outputs": [],
      "stateMutability": "nonpayable",
      "type": "function"
    },
    {
      "inputs": [
        {
          "internalType": "bytes4",
          "name": "interfaceId",
          "type": "bytes4"
        }
      ],
      "name": "supportsInterface",
      "outputs": [
        {
          "internalType": "bool",
          "name": "",
          "type": "bool"
        }
      ],
      "stateMutability": "view",
      "type": "function",
      "constant": true
    },
    {
      "inputs": [
        {
          "internalType": "address",
          "name": "newImplementation",
          "type": "address"
        }
      ],
      "name": "upgradeTo",
      "outputs": [],
      "stateMutability": "nonpayable",
      "type": "function"
    },
    {
      "inputs": [
        {
          "internalType": "address",
          "name": "newImplementation",
          "type": "address"
        },
        {
          "internalType": "bytes",
          "name": "data",
          "type": "bytes"
        }
      ],
      "name": "upgradeToAndCall",
      "outputs": [],
      "stateMutability": "payable",
      "type": "function",
      "payable": true
    },
    {
      "inputs": [
        {
          "internalType": "address",
          "name": "_freeport",
          "type": "address"
        }
      ],
      "name": "initialize",
      "outputs": [],
      "stateMutability": "nonpayable",
      "type": "function"
    },
    {
      "inputs": [
        {
          "internalType": "uint256",
          "name": "nftId",
          "type": "uint256"
        },
        {
          "internalType": "uint256",
          "name": "price",
          "type": "uint256"
        }
      ],
      "name": "makeOffer",
      "outputs": [],
      "stateMutability": "nonpayable",
      "type": "function"
    },
    {
      "inputs": [
        {
          "internalType": "address",
          "name": "seller",
          "type": "address"
        },
        {
          "internalType": "uint256",
          "name": "nftId",
          "type": "uint256"
        }
      ],
      "name": "getOffer",
      "outputs": [
        {
          "internalType": "uint256",
          "name": "",
          "type": "uint256"
        }
      ],
      "stateMutability": "view",
      "type": "function",
      "constant": true
    },
    {
      "inputs": [
        {
          "internalType": "address",
          "name": "buyer",
          "type": "address"
        },
        {
          "internalType": "address",
          "name": "seller",
          "type": "address"
        },
        {
          "internalType": "uint256",
          "name": "nftId",
          "type": "uint256"
        },
        {
          "internalType": "uint256",
          "name": "expectedPriceOrZero",
          "type": "uint256"
        },
        {
          "internalType": "uint256",
          "name": "amount",
          "type": "uint256"
        }
      ],
      "name": "takeOffer",
      "outputs": [],
      "stateMutability": "nonpayable",
      "type": "function"
    }
  ],
  "bytecode": "0x608060405234801561001057600080fd5b50611617806100206000396000f3fe6080604052600436106100ce5760003560e01c806301ffc9a7146100d357806305b7cdd314610108578063248a9ca31461012a578063288809c7146101585780632f2ff15d1461018757806336568abe146101a75780633659cfe6146101c75780634880d247146101e75780634f1ef28614610207578063572b6c051461021a57806391d148541461023a5780639470ad851461025a5780639a86e8ce14610287578063a217fddf146102a9578063ac71045e146102be578063c4d66de8146102de578063d547741f146102fe575b600080fd5b3480156100df57600080fd5b506100f36100ee366004611312565b61031e565b60405190151581526020015b60405180910390f35b34801561011457600080fd5b50610128610123366004611356565b610355565b005b34801561013657600080fd5b5061014a6101453660046112cb565b6103c0565b6040519081526020016100ff565b34801561016457600080fd5b5061014a610173366004611377565b60401b63ffffffff60401b163060601b1790565b34801561019357600080fd5b506101286101a23660046112e3565b6103d5565b3480156101b357600080fd5b506101286101c23660046112e3565b6103fe565b3480156101d357600080fd5b506101286101e2366004611156565b610491565b3480156101f357600080fd5b50610128610202366004611172565b6104b8565b6101286102153660046111c2565b6107aa565b34801561022657600080fd5b506100f3610235366004611156565b6107bf565b34801561024657600080fd5b506100f36102553660046112e3565b6107d5565b34801561026657600080fd5b5060fb5461027a906001600160a01b031681565b6040516100ff9190611426565b34801561029357600080fd5b5061014a6000805160206115c283398151915281565b3480156102b557600080fd5b5061014a600081565b3480156102ca57600080fd5b5061014a6102d9366004611280565b610800565b3480156102ea57600080fd5b506101286102f9366004611156565b610828565b34801561030a57600080fd5b506101286103193660046112e3565b6108b7565b60006001600160e01b03198216637965db0b60e01b148061034f57506301ffc9a760e01b6001600160e01b03198316145b92915050565b600061035f6108d6565b6001600160a01b038116600081815260fc60209081526040808320888452825291829020869055905185815292935085927f040259e2f9c7930380b3a5c979ad8a30ecf8d344d3bcdb149e2c454ab85fcd8f910160405180910390a3505050565b600090815260c9602052604090206001015490565b6103de826103c0565b6103ef816103ea6108d6565b6108f8565b6103f9838361095c565b505050565b6104066108d6565b6001600160a01b0316816001600160a01b0316146104835760405162461bcd60e51b815260206004820152602f60248201527f416363657373436f6e74726f6c3a2063616e206f6e6c792072656e6f756e636560448201526e103937b632b9903337b91039b2b63360891b60648201526084015b60405180910390fd5b61048d82826109e3565b5050565b61049a81610a68565b6104b581604051806020016040528060008152506000610aac565b50565b60006104c26108d6565b905060006104d08686610800565b90508061050e5760405162461bcd60e51b815260206004820152600c60248201526b4e6f7420666f722073616c6560a01b604482015260640161047a565b83158061051a57508084145b6105595760405162461bcd60e51b815260206004820152601060248201526f556e657870656374656420707269636560801b604482015260640161047a565b600061056584836114d3565b905060fb60009054906101000a90046001600160a01b03166001600160a01b031663b95812f46040518163ffffffff1660e01b815260040160206040518083038186803b1580156105b557600080fd5b505afa1580156105c9573d6000803e3d6000fd5b505050506040513d601f19601f820116820180604052508101906105ed919061133a565b6040516323b872dd60e01b81526001600160a01b03858116600483015289811660248301526044820184905291909116906323b872dd90606401602060405180830381600087803b15801561064157600080fd5b505af1158015610655573d6000803e3d6000fd5b505050506040513d601f19601f8201168201806040525081019061067991906112ab565b6106b65760405162461bcd60e51b815260206004820152600e60248201526d14185e5b595b9d0819985a5b195960921b604482015260640161047a565b60408051637f4c824d60e11b81526001600160a01b0389811660048301528a16602482015260448101889052606481018690528151606089901c9289901c63ffffffff16916001600160401b038a1691849163fe99049a91608480830192600092919082900301818387803b15801561072e57600080fd5b505af1158015610742573d6000803e3d6000fd5b50505050888a6001600160a01b03168c6001600160a01b03167fe90359125940e7c9b26005d19d4d8a2a5335ea8bef094bcd61bb8f8091cad117888b604051610795929190918252602082015260400190565b60405180910390a45050505050505050505050565b6107b382610a68565b61048d82826001610aac565b600061034f6000805160206115c2833981519152835b600091825260c9602090815260408084206001600160a01b0393909316845291905290205460ff1690565b6001600160a01b0391909116600090815260fc60209081526040808320938352929052205490565b600054610100900460ff1680610841575060005460ff16155b61085d5760405162461bcd60e51b815260040161047a9061146d565b600054610100900460ff1615801561087f576000805461ffff19166101011790555b610887610c28565b60fb80546001600160a01b0319166001600160a01b038416179055801561048d576000805461ff00191690555050565b6108c0826103c0565b6108cc816103ea6108d6565b6103f983836109e3565b60006108e1336107bf565b156108f3575060131936013560601c90565b503390565b61090282826107d5565b61048d5761091a816001600160a01b03166014610c32565b610925836020610c32565b6040516020016109369291906113b7565b60408051601f198184030181529082905262461bcd60e51b825261047a9160040161143a565b61096682826107d5565b61048d57600082815260c9602090815260408083206001600160a01b03851684529091529020805460ff1916600117905561099f6108d6565b6001600160a01b0316816001600160a01b0316837f2f8788117e7eff1d82e926ec794901d17c78024a50270940304540a733656f0d60405160405180910390a45050565b6109ed82826107d5565b1561048d57600082815260c9602090815260408083206001600160a01b03851684529091529020805460ff19169055610a246108d6565b6001600160a01b0316816001600160a01b0316837ff6391f5c32d9c69d2a47ea670b442974b53935d1edc7fd64eb21e047a839171b60405160405180910390a45050565b610a736000336107d5565b6104b55760405162461bcd60e51b815260206004820152600a60248201526927b7363c9020b236b4b760b11b604482015260640161047a565b6000610ab6610e1a565b9050610ac184610e36565b600083511180610ace5750815b15610adf57610add8484610ec9565b505b7f4910fdfa16fed3260ed0e7147f7cc6da11a60208b5b9406d12a635614ffd9143805460ff16610c2157805460ff19166001178155604051610b5a908690610b2b908590602401611426565b60408051601f198184030181529190526020810180516001600160e01b0316631b2ce7f360e11b179052610ec9565b50805460ff19168155610b6b610e1a565b6001600160a01b0316826001600160a01b031614610be35760405162461bcd60e51b815260206004820152602f60248201527f45524331393637557067726164653a207570677261646520627265616b73206660448201526e75727468657220757067726164657360881b606482015260840161047a565b610bec85610e36565b6040516001600160a01b038616907fbc7cd75a20ee27fd9adebab32041f755214dbc6bffa90cc0225b39da2e5c2d3b90600090a25b5050505050565b610c30610fb4565b565b60606000610c418360026114d3565b610c4c9060026114bb565b6001600160401b03811115610c7157634e487b7160e01b600052604160045260246000fd5b6040519080825280601f01601f191660200182016040528015610c9b576020820181803683370190505b509050600360fc1b81600081518110610cc457634e487b7160e01b600052603260045260246000fd5b60200101906001600160f81b031916908160001a905350600f60fb1b81600181518110610d0157634e487b7160e01b600052603260045260246000fd5b60200101906001600160f81b031916908160001a9053506000610d258460026114d3565b610d309060016114bb565b90505b6001811115610dc4576f181899199a1a9b1b9c1cb0b131b232b360811b85600f1660108110610d7257634e487b7160e01b600052603260045260246000fd5b1a60f81b828281518110610d9657634e487b7160e01b600052603260045260246000fd5b60200101906001600160f81b031916908160001a90535060049490941c93610dbd81611522565b9050610d33565b508315610e135760405162461bcd60e51b815260206004820181905260248201527f537472696e67733a20686578206c656e67746820696e73756666696369656e74604482015260640161047a565b9392505050565b60008051602061157b833981519152546001600160a01b031690565b803b610e9a5760405162461bcd60e51b815260206004820152602d60248201527f455243313936373a206e657720696d706c656d656e746174696f6e206973206e60448201526c1bdd08184818dbdb9d1c9858dd609a1b606482015260840161047a565b60008051602061157b83398151915280546001600160a01b0319166001600160a01b0392909216919091179055565b6060823b610f285760405162461bcd60e51b815260206004820152602660248201527f416464726573733a2064656c65676174652063616c6c20746f206e6f6e2d636f6044820152651b9d1c9858dd60d21b606482015260840161047a565b600080846001600160a01b031684604051610f43919061139b565b600060405180830381855af49150503d8060008114610f7e576040519150601f19603f3d011682016040523d82523d6000602084013e610f83565b606091505b5091509150610fab828260405180606001604052806027815260200161159b60279139610fcf565b95945050505050565b610fbc611008565b610fc4611083565b610c306000336110e2565b60608315610fde575081610e13565b825115610fee5782518084602001fd5b8160405162461bcd60e51b815260040161047a919061143a565b600054610100900460ff1680611021575060005460ff16155b61103d5760405162461bcd60e51b815260040161047a9061146d565b600054610100900460ff1615801561105f576000805461ffff19166101011790555b6110676110ec565b61106f6110ec565b80156104b5576000805461ff001916905550565b600054610100900460ff168061109c575060005460ff16155b6110b85760405162461bcd60e51b815260040161047a9061146d565b600054610100900460ff161580156110da576000805461ffff19166101011790555b61105f6110ec565b61048d828261095c565b600054610100900460ff1680611105575060005460ff16155b6111215760405162461bcd60e51b815260040161047a9061146d565b600054610100900460ff1615801561106f576000805461ffff191661010117905580156104b5576000805461ff001916905550565b600060208284031215611167578081fd5b8135610e1381611565565b600080600080600060a08688031215611189578081fd5b853561119481611565565b945060208601356111a481611565565b94979496505050506040830135926060810135926080909101359150565b600080604083850312156111d4578182fd5b82356111df81611565565b915060208301356001600160401b03808211156111fa578283fd5b818501915085601f83011261120d578283fd5b81358181111561121f5761121f61154f565b604051601f8201601f19908116603f011681019083821181831017156112475761124761154f565b8160405282815288602084870101111561125f578586fd5b82602086016020830137856020848301015280955050505050509250929050565b60008060408385031215611292578182fd5b823561129d81611565565b946020939093013593505050565b6000602082840312156112bc578081fd5b81518015158114610e13578182fd5b6000602082840312156112dc578081fd5b5035919050565b600080604083850312156112f5578182fd5b82359150602083013561130781611565565b809150509250929050565b600060208284031215611323578081fd5b81356001600160e01b031981168114610e13578182fd5b60006020828403121561134b578081fd5b8151610e1381611565565b60008060408385031215611368578182fd5b50508035926020909101359150565b600060208284031215611388578081fd5b813563ffffffff81168114610e13578182fd5b600082516113ad8184602087016114f2565b9190910192915050565b76020b1b1b2b9b9a1b7b73a3937b61d1030b1b1b7bab73a1604d1b8152600083516113e98160178501602088016114f2565b7001034b99036b4b9b9b4b733903937b6329607d1b601791840191820152835161141a8160288401602088016114f2565b01602801949350505050565b6001600160a01b0391909116815260200190565b60208152600082518060208401526114598160408501602087016114f2565b601f01601f19169190910160400192915050565b6020808252602e908201527f496e697469616c697a61626c653a20636f6e747261637420697320616c72656160408201526d191e481a5b9a5d1a585b1a5e995960921b606082015260800190565b600082198211156114ce576114ce611539565b500190565b60008160001904831182151516156114ed576114ed611539565b500290565b60005b8381101561150d5781810151838201526020016114f5565b8381111561151c576000848401525b50505050565b60008161153157611531611539565b506000190190565b634e487b7160e01b600052601160045260246000fd5b634e487b7160e01b600052604160045260246000fd5b6001600160a01b03811681146104b557600080fdfe360894a13ba1a3210667c828492db98dca3e2076cc3735a920a3ca505d382bbc416464726573733a206c6f772d6c6576656c2064656c65676174652063616c6c206661696c65643d2e894c222ba979e2dce2c7d940c0e9bb14306669e9f034eb1bb3979a2069d8a26469706673582212208467d9ad9817c0fc9faa629bf58f1e9567d461d690dce66b861fd72c11076c9c64736f6c63430008040033",
  "immutableReferences": {},
  "source": "pragma solidity ^0.8.0;\n\nimport \"./freeportParts/MetaTxContext.sol\";\nimport \"./freeportParts/delegators/FreeportDelegator.sol\";\nimport \"./freeportParts/HasGlobalNftId.sol\";\nimport \"./Collection.sol\";\n\n/**\n- Make offers to sell NFTs.\n- Accept offer.\n- Capture variable royalties.\n */\ncontract Marketplace is MetaTxContext, FreeportDelegator, HasGlobalNftId {\n    function initialize(address _freeport) public initializer {\n        __MetaTxContext_init();\n        __FreeportDelegator_init(Freeport(_freeport));\n    }\n\n    /** Seller => NFT ID => Price.\n     */\n    mapping(address => mapping(uint256 => uint256)) sellerNftPriceOffers;\n\n    /** An event emitted when an account `seller` has offered to sell a type of NFT\n     * at a given price.\n     *\n     * This replaces previous offers by the same seller on the same NFT ID, if any.\n     * A price of 0 means \"no offer\" and the previous offer is cancelled.\n     *\n     * An offer does not imply that the seller owns any amount of this NFT.\n     * An offer remains valid until cancelled, for the entire balance at a given time,\n     * regardless of incoming and outgoing transfers on the seller account.\n     */\n    event MakeOffer(\n        address indexed seller,\n        uint256 indexed nftId,\n        uint256 price);\n\n    /** An offer of `seller` was taken by `buyer`.\n     * The transfers of `amount` NFTs of type `nftId`\n     * against `amount * price` of CERE Units were executed.\n     */\n    event TakeOffer(\n        address indexed buyer,\n        address indexed seller,\n        uint256 indexed nftId,\n        uint256 price,\n        uint256 amount);\n\n    /** Create an offer to sell a type of NFTs for a price per unit.\n     * All the NFTs of this type owned by the caller will be for sale.\n     *\n     * To cancel, call again with a price of 0.\n     */\n    function makeOffer(uint256 nftId, uint256 price)\n    public {\n        address seller = _msgSender();\n        sellerNftPriceOffers[seller][nftId] = price;\n\n        emit MakeOffer(seller, nftId, price);\n    }\n\n    /** Return the price offered by the given seller for the given NFT type.\n     */\n    function getOffer(address seller, uint256 nftId)\n    public view returns (uint256) {\n        uint price = sellerNftPriceOffers[seller][nftId];\n        return price;\n    }\n\n    /** Accept an offer, paying the price per unit for an amount of NFTs.\n     *\n     * The offer must have been created beforehand by makeOffer.\n     *\n     * The sender pays ERC20. The sender must have \"approved\" this contract in the\n     * ERC20 contract.\n     *\n     * The seller receives ERC20.\n     *\n     * The buyer receives the NFT.\n     * The sender is not necessarily the same as buyer, see FiatGateway.\n     *\n     * The parameter expectedPriceOrZero can be used to validate the price that the buyer expects to pay. This prevents\n     * a race condition with makeOffer or setExchangeRate. Pass 0 to disable this validation and accept any current price.\n     */\n    function takeOffer(address buyer, address seller, uint256 nftId, uint256 expectedPriceOrZero, uint256 amount)\n    public {\n        address payer = _msgSender();\n\n        // Check and update the amount offered.\n        uint256 price = getOffer(seller, nftId);\n        require(price != 0, \"Not for sale\");\n        require(expectedPriceOrZero == 0 || expectedPriceOrZero == price, \"Unexpected price\");\n\n        uint totalPrice = price * amount;\n        // Pay the seller. This verifies the intent of the payer.\n        // This requires a previous approval in the currency contract from payer to Marketplace.\n        require(freeport.currencyContract().transferFrom(payer, seller, totalPrice), \"Payment failed\");\n\n        // Take a fee from the seller (really a cut of the above payment).\n        // TODO: capture fee from the payment instead of in Freeport.\n        //uint totalFee = freeport.captureFee(seller, nftId, price, amount);\n        //require(totalFee <= totalPrice, \"Cannot take more fees than the price.\");\n\n        // Move the NFTs to the buyer.\n        // This requires the TRANSFER_OPERATOR role from the collection to marketplace,\n        // set up by the collection factory.\n        //todo add supportInterface to collection SC\n        (address issuer, uint32 innerId, uint64 supply) = _parseNftId(nftId);\n        Collection(issuer).transferFrom(seller, buyer, nftId, amount);\n\n        emit TakeOffer(buyer, seller, nftId, price, amount);\n    }\n\n    /** Guarantee that a version of Solidity with safe math is used.\n     */\n    function _mathIsSafe() internal pure {\n    unchecked {} // Use a keyword from Solidity 0.8.0.\n    }\n}\n",
  "sourcePath": "/Users/neanvo/WorkFlow/cere/Freeport-Smart-Contracts/contracts/Marketplace.sol",
  "compiler": {
    "name": "solc",
    "version": "0.8.4+commit.c7e474f2.Emscripten.clang"
  },
  "schemaVersion": "3.4.4",
  "updatedAt": "2022-08-30T01:02:06.621Z",
  "networkType": "ethereum",
  "devdoc": {
    "kind": "dev",
    "methods": {
      "getRoleAdmin(bytes32)": {
        "details": "Returns the admin role that controls `role`. See {grantRole} and {revokeRole}. To change a role's admin, use {_setRoleAdmin}."
      },
      "grantRole(bytes32,address)": {
        "details": "Grants `role` to `account`. If `account` had not been already granted `role`, emits a {RoleGranted} event. Requirements: - the caller must have ``role``'s admin role."
      },
      "hasRole(bytes32,address)": {
        "details": "Returns `true` if `account` has been granted `role`."
      },
      "renounceRole(bytes32,address)": {
        "details": "Revokes `role` from the calling account. Roles are often managed via {grantRole} and {revokeRole}: this function's purpose is to provide a mechanism for accounts to lose their privileges if they are compromised (such as when a trusted device is misplaced). If the calling account had been granted `role`, emits a {RoleRevoked} event. Requirements: - the caller must be `account`."
      },
      "revokeRole(bytes32,address)": {
        "details": "Revokes `role` from `account`. If `account` had been granted `role`, emits a {RoleRevoked} event. Requirements: - the caller must have ``role``'s admin role."
      },
      "supportsInterface(bytes4)": {
        "details": "See {IERC165-supportsInterface}."
      }
    },
    "version": 1
  },
  "userdoc": {
    "events": {
      "MakeOffer(address,uint256,uint256)": {
        "notice": "An event emitted when an account `seller` has offered to sell a type of NFT at a given price. This replaces previous offers by the same seller on the same NFT ID, if any. A price of 0 means \"no offer\" and the previous offer is cancelled. An offer does not imply that the seller owns any amount of this NFT. An offer remains valid until cancelled, for the entire balance at a given time, regardless of incoming and outgoing transfers on the seller account."
      },
      "TakeOffer(address,address,uint256,uint256,uint256)": {
        "notice": "An offer of `seller` was taken by `buyer`. The transfers of `amount` NFTs of type `nftId` against `amount * price` of CERE Units were executed."
      }
    },
    "kind": "user",
    "methods": {
      "getGlobalNftId(uint32)": {
        "notice": "Calculate the global ID of an NFT type, identifying its inner nft id."
      },
      "getOffer(address,uint256)": {
        "notice": "Return the price offered by the given seller for the given NFT type."
      },
      "makeOffer(uint256,uint256)": {
        "notice": "Create an offer to sell a type of NFTs for a price per unit. All the NFTs of this type owned by the caller will be for sale. To cancel, call again with a price of 0."
      },
      "takeOffer(address,address,uint256,uint256,uint256)": {
        "notice": "Accept an offer, paying the price per unit for an amount of NFTs. The offer must have been created beforehand by makeOffer. The sender pays ERC20. The sender must have \"approved\" this contract in the ERC20 contract. The seller receives ERC20. The buyer receives the NFT. The sender is not necessarily the same as buyer, see FiatGateway. The parameter expectedPriceOrZero can be used to validate the price that the buyer expects to pay. This prevents a race condition with makeOffer or setExchangeRate. Pass 0 to disable this validation and accept any current price."
      }
    },
    "notice": "- Make offers to sell NFTs. - Accept offer. - Capture variable royalties.",
    "version": 1
  }
}