{
  "contractName": "Marketplace",
  "abi": [
    {
      "anonymous": false,
      "inputs": [
        {
          "indexed": false,
          "internalType": "address",
          "name": "previousAdmin",
          "type": "address"
        },
        {
          "indexed": false,
          "internalType": "address",
          "name": "newAdmin",
          "type": "address"
        }
      ],
      "name": "AdminChanged",
      "type": "event"
    },
    {
      "anonymous": false,
      "inputs": [
        {
          "indexed": true,
          "internalType": "address",
          "name": "account",
          "type": "address"
        },
        {
          "indexed": true,
          "internalType": "address",
          "name": "operator",
          "type": "address"
        },
        {
          "indexed": false,
          "internalType": "bool",
          "name": "approved",
          "type": "bool"
        }
      ],
      "name": "ApprovalForAll",
      "type": "event"
    },
    {
      "anonymous": false,
      "inputs": [
        {
          "indexed": true,
          "internalType": "address",
          "name": "beacon",
          "type": "address"
        }
      ],
      "name": "BeaconUpgraded",
      "type": "event"
    },
    {
      "anonymous": false,
      "inputs": [
        {
          "indexed": true,
          "internalType": "address",
          "name": "seller",
          "type": "address"
        },
        {
          "indexed": true,
          "internalType": "uint256",
          "name": "nftId",
          "type": "uint256"
        },
        {
          "indexed": false,
          "internalType": "uint256",
          "name": "price",
          "type": "uint256"
        }
      ],
      "name": "MakeOffer",
      "type": "event"
    },
    {
      "anonymous": false,
      "inputs": [
        {
          "indexed": true,
          "internalType": "bytes32",
          "name": "role",
          "type": "bytes32"
        },
        {
          "indexed": true,
          "internalType": "bytes32",
          "name": "previousAdminRole",
          "type": "bytes32"
        },
        {
          "indexed": true,
          "internalType": "bytes32",
          "name": "newAdminRole",
          "type": "bytes32"
        }
      ],
      "name": "RoleAdminChanged",
      "type": "event"
    },
    {
      "anonymous": false,
      "inputs": [
        {
          "indexed": true,
          "internalType": "bytes32",
          "name": "role",
          "type": "bytes32"
        },
        {
          "indexed": true,
          "internalType": "address",
          "name": "account",
          "type": "address"
        },
        {
          "indexed": true,
          "internalType": "address",
          "name": "sender",
          "type": "address"
        }
      ],
      "name": "RoleGranted",
      "type": "event"
    },
    {
      "anonymous": false,
      "inputs": [
        {
          "indexed": true,
          "internalType": "bytes32",
          "name": "role",
          "type": "bytes32"
        },
        {
          "indexed": true,
          "internalType": "address",
          "name": "account",
          "type": "address"
        },
        {
          "indexed": true,
          "internalType": "address",
          "name": "sender",
          "type": "address"
        }
      ],
      "name": "RoleRevoked",
      "type": "event"
    },
    {
      "anonymous": false,
      "inputs": [
        {
          "indexed": true,
          "internalType": "address",
          "name": "buyer",
          "type": "address"
        },
        {
          "indexed": true,
          "internalType": "address",
          "name": "seller",
          "type": "address"
        },
        {
          "indexed": true,
          "internalType": "uint256",
          "name": "nftId",
          "type": "uint256"
        },
        {
          "indexed": false,
          "internalType": "uint256",
          "name": "price",
          "type": "uint256"
        },
        {
          "indexed": false,
          "internalType": "uint256",
          "name": "amount",
          "type": "uint256"
        }
      ],
      "name": "TakeOffer",
      "type": "event"
    },
    {
      "anonymous": false,
      "inputs": [
        {
          "indexed": true,
          "internalType": "address",
          "name": "operator",
          "type": "address"
        },
        {
          "indexed": true,
          "internalType": "address",
          "name": "from",
          "type": "address"
        },
        {
          "indexed": true,
          "internalType": "address",
          "name": "to",
          "type": "address"
        },
        {
          "indexed": false,
          "internalType": "uint256[]",
          "name": "ids",
          "type": "uint256[]"
        },
        {
          "indexed": false,
          "internalType": "uint256[]",
          "name": "values",
          "type": "uint256[]"
        }
      ],
      "name": "TransferBatch",
      "type": "event"
    },
    {
      "anonymous": false,
      "inputs": [
        {
          "indexed": true,
          "internalType": "address",
          "name": "operator",
          "type": "address"
        },
        {
          "indexed": true,
          "internalType": "address",
          "name": "from",
          "type": "address"
        },
        {
          "indexed": true,
          "internalType": "address",
          "name": "to",
          "type": "address"
        },
        {
          "indexed": false,
          "internalType": "uint256",
          "name": "id",
          "type": "uint256"
        },
        {
          "indexed": false,
          "internalType": "uint256",
          "name": "value",
          "type": "uint256"
        }
      ],
      "name": "TransferSingle",
      "type": "event"
    },
    {
      "anonymous": false,
      "inputs": [
        {
          "indexed": false,
          "internalType": "string",
          "name": "value",
          "type": "string"
        },
        {
          "indexed": true,
          "internalType": "uint256",
          "name": "id",
          "type": "uint256"
        }
      ],
      "name": "URI",
      "type": "event"
    },
    {
      "anonymous": false,
      "inputs": [
        {
          "indexed": true,
          "internalType": "address",
          "name": "implementation",
          "type": "address"
        }
      ],
      "name": "Upgraded",
      "type": "event"
    },
    {
      "inputs": [],
      "name": "CURRENCY",
      "outputs": [
        {
          "internalType": "uint256",
          "name": "",
          "type": "uint256"
        }
      ],
      "stateMutability": "view",
      "type": "function"
    },
    {
      "inputs": [],
      "name": "DEFAULT_ADMIN_ROLE",
      "outputs": [
        {
          "internalType": "bytes32",
          "name": "",
          "type": "bytes32"
        }
      ],
      "stateMutability": "view",
      "type": "function"
    },
    {
      "inputs": [],
      "name": "META_TX_FORWARDER",
      "outputs": [
        {
          "internalType": "bytes32",
          "name": "",
          "type": "bytes32"
        }
      ],
      "stateMutability": "view",
      "type": "function"
    },
    {
      "inputs": [
        {
          "internalType": "address",
          "name": "account",
          "type": "address"
        },
        {
          "internalType": "uint256",
          "name": "id",
          "type": "uint256"
        }
      ],
      "name": "balanceOf",
      "outputs": [
        {
          "internalType": "uint256",
          "name": "",
          "type": "uint256"
        }
      ],
      "stateMutability": "view",
      "type": "function"
    },
    {
      "inputs": [
        {
          "internalType": "address[]",
          "name": "accounts",
          "type": "address[]"
        },
        {
          "internalType": "uint256[]",
          "name": "ids",
          "type": "uint256[]"
        }
      ],
      "name": "balanceOfBatch",
      "outputs": [
        {
          "internalType": "uint256[]",
          "name": "",
          "type": "uint256[]"
        }
      ],
      "stateMutability": "view",
      "type": "function"
    },
    {
      "inputs": [],
      "name": "currencyContract",
      "outputs": [
        {
          "internalType": "contract IERC20",
          "name": "",
          "type": "address"
        }
      ],
      "stateMutability": "view",
      "type": "function"
    },
    {
      "inputs": [
        {
          "internalType": "uint256",
          "name": "amount",
          "type": "uint256"
        }
      ],
      "name": "deposit",
      "outputs": [],
      "stateMutability": "nonpayable",
      "type": "function"
    },
    {
      "inputs": [],
      "name": "freeport",
      "outputs": [
        {
          "internalType": "contract Freeport",
          "name": "",
          "type": "address"
        }
      ],
      "stateMutability": "view",
      "type": "function"
    },
    {
      "inputs": [
        {
          "internalType": "uint32",
          "name": "innerNftId",
          "type": "uint32"
        }
      ],
      "name": "getGlobalNftId",
      "outputs": [
        {
          "internalType": "uint256",
          "name": "",
          "type": "uint256"
        }
      ],
      "stateMutability": "view",
      "type": "function"
    },
    {
      "inputs": [
        {
          "internalType": "bytes32",
          "name": "role",
          "type": "bytes32"
        }
      ],
      "name": "getRoleAdmin",
      "outputs": [
        {
          "internalType": "bytes32",
          "name": "",
          "type": "bytes32"
        }
      ],
      "stateMutability": "view",
      "type": "function"
    },
    {
      "inputs": [
        {
          "internalType": "bytes32",
          "name": "role",
          "type": "bytes32"
        },
        {
          "internalType": "address",
          "name": "account",
          "type": "address"
        }
      ],
      "name": "grantRole",
      "outputs": [],
      "stateMutability": "nonpayable",
      "type": "function"
    },
    {
      "inputs": [
        {
          "internalType": "bytes32",
          "name": "role",
          "type": "bytes32"
        },
        {
          "internalType": "address",
          "name": "account",
          "type": "address"
        }
      ],
      "name": "hasRole",
      "outputs": [
        {
          "internalType": "bool",
          "name": "",
          "type": "bool"
        }
      ],
      "stateMutability": "view",
      "type": "function"
    },
    {
      "inputs": [
        {
          "internalType": "address",
          "name": "account",
          "type": "address"
        },
        {
          "internalType": "address",
          "name": "operator",
          "type": "address"
        }
      ],
      "name": "isApprovedForAll",
      "outputs": [
        {
          "internalType": "bool",
          "name": "",
          "type": "bool"
        }
      ],
      "stateMutability": "view",
      "type": "function"
    },
    {
      "inputs": [
        {
          "internalType": "address",
          "name": "forwarder",
          "type": "address"
        }
      ],
      "name": "isTrustedForwarder",
      "outputs": [
        {
          "internalType": "bool",
          "name": "",
          "type": "bool"
        }
      ],
      "stateMutability": "view",
      "type": "function"
    },
    {
      "inputs": [
        {
          "internalType": "bytes32",
          "name": "role",
          "type": "bytes32"
        },
        {
          "internalType": "address",
          "name": "account",
          "type": "address"
        }
      ],
      "name": "renounceRole",
      "outputs": [],
      "stateMutability": "nonpayable",
      "type": "function"
    },
    {
      "inputs": [
        {
          "internalType": "bytes32",
          "name": "role",
          "type": "bytes32"
        },
        {
          "internalType": "address",
          "name": "account",
          "type": "address"
        }
      ],
      "name": "revokeRole",
      "outputs": [],
      "stateMutability": "nonpayable",
      "type": "function"
    },
    {
      "inputs": [
        {
          "internalType": "address",
          "name": "from",
          "type": "address"
        },
        {
          "internalType": "address",
          "name": "to",
          "type": "address"
        },
        {
          "internalType": "uint256[]",
          "name": "ids",
          "type": "uint256[]"
        },
        {
          "internalType": "uint256[]",
          "name": "amounts",
          "type": "uint256[]"
        },
        {
          "internalType": "bytes",
          "name": "data",
          "type": "bytes"
        }
      ],
      "name": "safeBatchTransferFrom",
      "outputs": [],
      "stateMutability": "nonpayable",
      "type": "function"
    },
    {
      "inputs": [
        {
          "internalType": "address",
          "name": "from",
          "type": "address"
        },
        {
          "internalType": "address",
          "name": "to",
          "type": "address"
        },
        {
          "internalType": "uint256",
          "name": "id",
          "type": "uint256"
        },
        {
          "internalType": "uint256",
          "name": "amount",
          "type": "uint256"
        },
        {
          "internalType": "bytes",
          "name": "data",
          "type": "bytes"
        }
      ],
      "name": "safeTransferFrom",
      "outputs": [],
      "stateMutability": "nonpayable",
      "type": "function"
    },
    {
      "inputs": [
        {
          "internalType": "address",
          "name": "operator",
          "type": "address"
        },
        {
          "internalType": "bool",
          "name": "approved",
          "type": "bool"
        }
      ],
      "name": "setApprovalForAll",
      "outputs": [],
      "stateMutability": "nonpayable",
      "type": "function"
    },
    {
      "inputs": [
        {
          "internalType": "address",
          "name": "_currencyContract",
          "type": "address"
        }
      ],
      "name": "setERC20",
      "outputs": [],
      "stateMutability": "nonpayable",
      "type": "function"
    },
    {
      "inputs": [
        {
          "internalType": "string",
          "name": "newuri",
          "type": "string"
        }
      ],
      "name": "setURI",
      "outputs": [],
      "stateMutability": "nonpayable",
      "type": "function"
    },
    {
      "inputs": [
        {
          "internalType": "bytes4",
          "name": "interfaceId",
          "type": "bytes4"
        }
      ],
      "name": "supportsInterface",
      "outputs": [
        {
          "internalType": "bool",
          "name": "",
          "type": "bool"
        }
      ],
      "stateMutability": "view",
      "type": "function"
    },
    {
      "inputs": [
        {
          "internalType": "address",
          "name": "from",
          "type": "address"
        },
        {
          "internalType": "address",
          "name": "to",
          "type": "address"
        },
        {
          "internalType": "uint256",
          "name": "id",
          "type": "uint256"
        },
        {
          "internalType": "uint256",
          "name": "amount",
          "type": "uint256"
        }
      ],
      "name": "transferFrom",
      "outputs": [],
      "stateMutability": "nonpayable",
      "type": "function"
    },
    {
      "inputs": [
        {
          "internalType": "address",
          "name": "newImplementation",
          "type": "address"
        }
      ],
      "name": "upgradeTo",
      "outputs": [],
      "stateMutability": "nonpayable",
      "type": "function"
    },
    {
      "inputs": [
        {
          "internalType": "address",
          "name": "newImplementation",
          "type": "address"
        },
        {
          "internalType": "bytes",
          "name": "data",
          "type": "bytes"
        }
      ],
      "name": "upgradeToAndCall",
      "outputs": [],
      "stateMutability": "payable",
      "type": "function"
    },
    {
      "inputs": [
        {
          "internalType": "uint256",
          "name": "",
          "type": "uint256"
        }
      ],
      "name": "uri",
      "outputs": [
        {
          "internalType": "string",
          "name": "",
          "type": "string"
        }
      ],
      "stateMutability": "view",
      "type": "function"
    },
    {
      "inputs": [
        {
          "internalType": "uint256",
          "name": "amount",
          "type": "uint256"
        }
      ],
      "name": "withdraw",
      "outputs": [],
      "stateMutability": "nonpayable",
      "type": "function"
    },
    {
      "inputs": [
        {
          "internalType": "address",
          "name": "_freeport",
          "type": "address"
        }
      ],
      "name": "initialize",
      "outputs": [],
      "stateMutability": "nonpayable",
      "type": "function"
    },
    {
      "inputs": [
        {
          "internalType": "uint256",
          "name": "nftId",
          "type": "uint256"
        },
        {
          "internalType": "uint256",
          "name": "price",
          "type": "uint256"
        }
      ],
      "name": "makeOffer",
      "outputs": [],
      "stateMutability": "nonpayable",
      "type": "function"
    },
    {
      "inputs": [
        {
          "internalType": "address",
          "name": "seller",
          "type": "address"
        },
        {
          "internalType": "uint256",
          "name": "nftId",
          "type": "uint256"
        }
      ],
      "name": "getOffer",
      "outputs": [
        {
          "internalType": "uint256",
          "name": "",
          "type": "uint256"
        }
      ],
      "stateMutability": "view",
      "type": "function"
    },
    {
      "inputs": [
        {
          "internalType": "address",
          "name": "buyer",
          "type": "address"
        },
        {
          "internalType": "address",
          "name": "seller",
          "type": "address"
        },
        {
          "internalType": "uint256",
          "name": "nftId",
          "type": "uint256"
        },
        {
          "internalType": "uint256",
          "name": "expectedPriceOrZero",
          "type": "uint256"
        },
        {
          "internalType": "uint256",
          "name": "amount",
          "type": "uint256"
        }
      ],
      "name": "takeOffer",
      "outputs": [],
      "stateMutability": "nonpayable",
      "type": "function"
    }
  ],
  "bytecode": "0x608060405234801561001057600080fd5b5061324a806100206000396000f3fe6080604052600436106101675760003560e01c8062fdd58e1461016c57806301ffc9a71461019f57806302fe5305146101cf57806305b7cdd3146101f15780630e89341c14610211578063248a9ca31461023e578063288809c71461025e5780632e1a7d4d1461028d5780632eb2c2d6146102ad5780632f2ff15d146102cd57806336568abe146102ed5780633659cfe61461030d5780634880d2471461032d5780634e1273f41461034d5780634f1ef2861461037a578063572b6c051461038d57806391d14854146103ad5780639470ad85146103cd5780639a86e8ce146103fb578063a217fddf1461041d578063a22cb46514610432578063ac71045e14610452578063b6b55f2514610472578063b95812f414610492578063c29a6fda146104b3578063c4d66de8146104d3578063d547741f146104f3578063e985e9c514610513578063f242432a1461055c578063f53612191461041d578063fe99049a1461057c575b600080fd5b34801561017857600080fd5b5061018c6101873660046129a4565b61059c565b6040519081526020015b60405180910390f35b3480156101ab57600080fd5b506101bf6101ba366004612ae3565b610635565b6040519015158152602001610196565b3480156101db57600080fd5b506101ef6101ea366004612b1b565b610655565b005b3480156101fd57600080fd5b506101ef61020c366004612b80565b6106a7565b34801561021d57600080fd5b5061023161022c366004612aa9565b610713565b6040516101969190612da5565b34801561024a57600080fd5b5061018c610259366004612aa9565b6107a7565b34801561026a57600080fd5b5061018c610279366004612ba1565b60401b63ffffffff60401b163060601b1790565b34801561029957600080fd5b506101ef6102a8366004612aa9565b6107bc565b3480156102b957600080fd5b506101ef6102c836600461278f565b610860565b3480156102d957600080fd5b506101ef6102e8366004612ac1565b610b47565b3480156102f957600080fd5b506101ef610308366004612ac1565b610b6b565b34801561031957600080fd5b506101ef610328366004612743565b610bf9565b34801561033957600080fd5b506101ef6103483660046128d7565b610c1d565b34801561035957600080fd5b5061036d6103683660046129cd565b610ed4565b6040516101969190612d6d565b6101ef610388366004612959565b611035565b34801561039957600080fd5b506101bf6103a8366004612743565b61104a565b3480156103b957600080fd5b506101bf6103c8366004612ac1565b611060565b3480156103d957600080fd5b5061012e546103ee906001600160a01b031681565b6040516101969190612cb6565b34801561040757600080fd5b5061018c6000805160206131c283398151915281565b34801561042957600080fd5b5061018c600081565b34801561043e57600080fd5b506101ef61044d366004612923565b61108b565b34801561045e57600080fd5b5061018c61046d3660046129a4565b61119f565b34801561047e57600080fd5b506101ef61048d366004612aa9565b6111c8565b34801561049e57600080fd5b5061012d546103ee906001600160a01b031681565b3480156104bf57600080fd5b506101ef6104ce366004612743565b61127e565b3480156104df57600080fd5b506101ef6104ee366004612743565b6112ce565b3480156104ff57600080fd5b506101ef61050e366004612ac1565b61135f565b34801561051f57600080fd5b506101bf61052e36600461275d565b6001600160a01b03918216600090815260ca6020908152604080832093909416825291909152205460ff1690565b34801561056857600080fd5b506101ef610577366004612875565b61137e565b34801561058857600080fd5b506101ef610597366004612834565b611507565b60006001600160a01b03831661060d5760405162461bcd60e51b815260206004820152602b60248201527f455243313135353a2062616c616e636520717565727920666f7220746865207a60448201526a65726f206164647265737360a81b60648201526084015b60405180910390fd5b50600090815260c9602090815260408083206001600160a01b03949094168352929052205490565b600061064082611589565b8061064f575061064f826115d9565b92915050565b61066260006103c86115fe565b61069b5760405162461bcd60e51b815260206004820152600a60248201526937b7363c9030b236b4b760b11b6044820152606401610604565b6106a48161160d565b50565b60006106b16115fe565b6001600160a01b038116600081815261012f60209081526040808320888452825291829020869055905185815292935085927f040259e2f9c7930380b3a5c979ad8a30ecf8d344d3bcdb149e2c454ab85fcd8f910160405180910390a3505050565b606060cb805461072290612fe8565b80601f016020809104026020016040519081016040528092919081815260200182805461074e90612fe8565b801561079b5780601f106107705761010080835404028352916020019161079b565b820191906000526020600020905b81548152906001019060200180831161077e57829003601f168201915b50505050509050919050565b600090815260fb602052604090206001015490565b60006107c66115fe565b90506107d481600084611620565b61012d5460405163a9059cbb60e01b81526001600160a01b038381166004830152602482018590529091169063a9059cbb90604401602060405180830381600087803b15801561082357600080fd5b505af1158015610837573d6000803e3d6000fd5b505050506040513d601f19601f8201168201806040525081019061085b9190612a8d565b505050565b81518351146108c25760405162461bcd60e51b815260206004820152602860248201527f455243313135353a2069647320616e6420616d6f756e7473206c656e677468206044820152670dad2e6dac2e8c6d60c31b6064820152608401610604565b6001600160a01b0384166108e85760405162461bcd60e51b815260040161060490612e49565b6108f06115fe565b6001600160a01b0316856001600160a01b0316148061091657506109168561052e6115fe565b61097d5760405162461bcd60e51b815260206004820152603260248201527f455243313135353a207472616e736665722063616c6c6572206973206e6f74206044820152711bdddb995c881b9bdc88185c1c1c9bdd995960721b6064820152608401610604565b60006109876115fe565b905060005b8451811015610ad95760008582815181106109b757634e487b7160e01b600052603260045260246000fd5b6020026020010151905060008583815181106109e357634e487b7160e01b600052603260045260246000fd5b602090810291909101810151600084815260c9835260408082206001600160a01b038e168352909352919091205490915081811015610a345760405162461bcd60e51b815260040161060490612edc565b610a3e8282612f8e565b60c9600085815260200190815260200160002060008c6001600160a01b03166001600160a01b03168152602001908152602001600020819055508160c9600085815260200190815260200160002060008b6001600160a01b03166001600160a01b031681526020019081526020016000206000828254610abe9190612f57565b9250508190555050505080610ad29061304f565b905061098c565b50846001600160a01b0316866001600160a01b0316826001600160a01b03167f4a39dc06d4c0dbc64b70af90fd698a233a518aa5d07e595d983b8c0526c8f7fb8787604051610b29929190612d80565b60405180910390a4610b3f8187878787876117a4565b505050505050565b610b50826107a7565b610b6181610b5c6115fe565b61190f565b61085b8383611973565b610b736115fe565b6001600160a01b0316816001600160a01b031614610beb5760405162461bcd60e51b815260206004820152602f60248201527f416363657373436f6e74726f6c3a2063616e206f6e6c792072656e6f756e636560448201526e103937b632b9903337b91039b2b63360891b6064820152608401610604565b610bf582826119fa565b5050565b610c0281611a7f565b6106a481604051806020016040528060008152506000611ac3565b6000610c276115fe565b90506000610c35868661119f565b905080610c735760405162461bcd60e51b815260206004820152600c60248201526b4e6f7420666f722073616c6560a01b6044820152606401610604565b831580610c7f57508084145b610cbe5760405162461bcd60e51b815260206004820152601060248201526f556e657870656374656420707269636560801b6044820152606401610604565b6000610cca8483612f6f565b9050610cd5816111c8565b610cf283886000846040518060200160405280600081525061137e565b61012e54604051630b8bacf160e31b81526001600160a01b0389811660048301526024820189905260448201859052606482018790526000921690635c5d678890608401602060405180830381600087803b158015610d5057600080fd5b505af1158015610d64573d6000803e3d6000fd5b505050506040513d601f19601f82011682018060405250810190610d889190612b68565b905081811115610de85760405162461bcd60e51b815260206004820152602560248201527f43616e6e6f742074616b65206d6f72652066656573207468616e2074686520706044820152643934b1b29760d91b6064820152608401610604565b60408051637f4c824d60e11b81526001600160a01b038a81166004830152861660248201526044810189905260648101879052815160608a901c928a901c63ffffffff16916001600160401b038b1691849163fe99049a91608480830192600092919082900301818387803b158015610e6057600080fd5b505af1158015610e74573d6000803e3d6000fd5b50505050898b6001600160a01b03168d6001600160a01b03167fe90359125940e7c9b26005d19d4d8a2a5335ea8bef094bcd61bb8f8091cad117898c604051610ebe929190612f26565b60405180910390a4505050505050505050505050565b60608151835114610f395760405162461bcd60e51b815260206004820152602960248201527f455243313135353a206163636f756e747320616e6420696473206c656e677468604482015268040dad2e6dac2e8c6d60bb1b6064820152608401610604565b600083516001600160401b03811115610f6257634e487b7160e01b600052604160045260246000fd5b604051908082528060200260200182016040528015610f8b578160200160208202803683370190505b50905060005b845181101561102d57610ff2858281518110610fbd57634e487b7160e01b600052603260045260246000fd5b6020026020010151858381518110610fe557634e487b7160e01b600052603260045260246000fd5b602002602001015161059c565b82828151811061101257634e487b7160e01b600052603260045260246000fd5b60209081029190910101526110268161304f565b9050610f91565b509392505050565b61103e82611a7f565b610bf582826001611ac3565b600061064f6000805160206131c2833981519152835b600091825260fb602090815260408084206001600160a01b0393909316845291905290205460ff1690565b816001600160a01b031661109d6115fe565b6001600160a01b031614156111065760405162461bcd60e51b815260206004820152602960248201527f455243313135353a2073657474696e6720617070726f76616c20737461747573604482015268103337b91039b2b63360b91b6064820152608401610604565b8060ca60006111136115fe565b6001600160a01b03908116825260208083019390935260409182016000908120918716808252919093529120805460ff1916921515929092179091556111576115fe565b6001600160a01b03167f17307eab39ab6107e8899845ad3d59bd9653f200f220920489ca2b5937696c3183604051611193911515815260200190565b60405180910390a35050565b6001600160a01b0391909116600090815261012f60209081526040808320938352929052205490565b60006111d26115fe565b61012d546040516323b872dd60e01b81526001600160a01b038084166004830152306024830152604482018690529293509116906323b872dd90606401602060405180830381600087803b15801561122957600080fd5b505af115801561123d573d6000803e3d6000fd5b505050506040513d601f19601f820116820180604052508101906112619190612a8d565b50610bf58160008460405180602001604052806000815250611c3e565b61012d546001600160a01b03161561129557600080fd5b6112a260006103c86115fe565b6112ab57600080fd5b61012d80546001600160a01b0319166001600160a01b0392909216919091179055565b600054610100900460ff16806112e7575060005460ff16155b6113035760405162461bcd60e51b815260040161060490612e8e565b600054610100900460ff16158015611325576000805461ffff19166101011790555b61132d611d48565b61012e80546001600160a01b0319166001600160a01b0384161790555b8015610bf5576000805461ff00191690555050565b611368826107a7565b61137481610b5c6115fe565b61085b83836119fa565b6001600160a01b0384166113a45760405162461bcd60e51b815260040161060490612e49565b6113ac6115fe565b6001600160a01b0316856001600160a01b031614806113d257506113d28561052e6115fe565b6113ee5760405162461bcd60e51b815260040161060490612e00565b60006113f86115fe565b905061141981878761140988611d52565b61141288611d52565b5050505050565b600084815260c9602090815260408083206001600160a01b038a1684529091529020548381101561145c5760405162461bcd60e51b815260040161060490612edc565b6114668482612f8e565b600086815260c9602090815260408083206001600160a01b038c811685529252808320939093558816815290812080548692906114a4908490612f57565b92505081905550856001600160a01b0316876001600160a01b0316836001600160a01b031660008051602061315b83398151915288886040516114e8929190612f26565b60405180910390a46114fe828888888888611dab565b50505050505050565b6001600160a01b03831661152d5760405162461bcd60e51b815260040161060490612e49565b6115356115fe565b6001600160a01b0316846001600160a01b0316148061155b575061155b8461052e6115fe565b6115775760405162461bcd60e51b815260040161060490612e00565b61158384848484611e75565b50505050565b60006001600160e01b03198216636cdb3d1360e11b14806115ba57506001600160e01b031982166303a24d0760e21b145b8061064f57506301ffc9a760e01b6001600160e01b031983161461064f565b60006001600160e01b03198216637965db0b60e01b148061064f575061064f82611589565b6000611608611f5f565b905090565b8051610bf59060cb90602084019061259e565b6001600160a01b0383166116825760405162461bcd60e51b815260206004820152602360248201527f455243313135353a206275726e2066726f6d20746865207a65726f206164647260448201526265737360e81b6064820152608401610604565b600061168c6115fe565b90506116bd8185600061169e87611d52565b6116a787611d52565b5050604080516020810190915260009052505050565b600083815260c9602090815260408083206001600160a01b03881684529091529020548281101561173c5760405162461bcd60e51b8152602060048201526024808201527f455243313135353a206275726e20616d6f756e7420657863656564732062616c604482015263616e636560e01b6064820152608401610604565b6117468382612f8e565b600085815260c9602090815260408083206001600160a01b03808b168086529190935281842094909455519192919085169060008051602061315b833981519152906117959089908990612f26565b60405180910390a45050505050565b6001600160a01b0384163b15610b3f5760405163bc197c8160e01b81526001600160a01b0385169063bc197c81906117e89089908990889088908890600401612cca565b602060405180830381600087803b15801561180257600080fd5b505af1925050508015611832575060408051601f3d908101601f1916820190925261182f91810190612aff565b60015b6118df5761183e613096565b806308c379a0141561187857506118536130ad565b8061185e575061187a565b8060405162461bcd60e51b81526004016106049190612da5565b505b60405162461bcd60e51b815260206004820152603460248201527f455243313135353a207472616e7366657220746f206e6f6e20455243313135356044820152732932b1b2b4bb32b91034b6b83632b6b2b73a32b960611b6064820152608401610604565b6001600160e01b0319811663bc197c8160e01b146114fe5760405162461bcd60e51b815260040161060490612db8565b6119198282611060565b610bf557611931816001600160a01b03166014611f84565b61193c836020611f84565b60405160200161194d929190612c47565b60408051601f198184030181529082905262461bcd60e51b825261060491600401612da5565b61197d8282611060565b610bf557600082815260fb602090815260408083206001600160a01b03851684529091529020805460ff191660011790556119b66115fe565b6001600160a01b0316816001600160a01b0316837f2f8788117e7eff1d82e926ec794901d17c78024a50270940304540a733656f0d60405160405180910390a45050565b611a048282611060565b15610bf557600082815260fb602090815260408083206001600160a01b03851684529091529020805460ff19169055611a3b6115fe565b6001600160a01b0316816001600160a01b0316837ff6391f5c32d9c69d2a47ea670b442974b53935d1edc7fd64eb21e047a839171b60405160405180910390a45050565b611a8a600033611060565b6106a45760405162461bcd60e51b815260206004820152600a60248201526927b7363c9020b236b4b760b11b6044820152606401610604565b6000611acd61216c565b9050611ad884612188565b600083511180611ae55750815b15611af657611af4848461221b565b505b7f4910fdfa16fed3260ed0e7147f7cc6da11a60208b5b9406d12a635614ffd9143805460ff1661141257805460ff19166001178155604051611b71908690611b42908590602401612cb6565b60408051601f198184030181529190526020810180516001600160e01b0316631b2ce7f360e11b17905261221b565b50805460ff19168155611b8261216c565b6001600160a01b0316826001600160a01b031614611bfa5760405162461bcd60e51b815260206004820152602f60248201527f45524331393637557067726164653a207570677261646520627265616b73206660448201526e75727468657220757067726164657360881b6064820152608401610604565b611c0385612188565b6040516001600160a01b038616907fbc7cd75a20ee27fd9adebab32041f755214dbc6bffa90cc0225b39da2e5c2d3b90600090a25050505050565b6001600160a01b038416611c9e5760405162461bcd60e51b815260206004820152602160248201527f455243313135353a206d696e7420746f20746865207a65726f206164647265736044820152607360f81b6064820152608401610604565b6000611ca86115fe565b9050611cba8160008761140988611d52565b600084815260c9602090815260408083206001600160a01b038916845290915281208054859290611cec908490612f57565b92505081905550846001600160a01b031660006001600160a01b0316826001600160a01b031660008051602061315b8339815191528787604051611d31929190612f26565b60405180910390a461141281600087878787611dab565b611d50612306565b565b60408051600180825281830190925260609160009190602080830190803683370190505090508281600081518110611d9a57634e487b7160e01b600052603260045260246000fd5b602090810291909101015292915050565b6001600160a01b0384163b15610b3f5760405163f23a6e6160e01b81526001600160a01b0385169063f23a6e6190611def9089908990889088908890600401612d28565b602060405180830381600087803b158015611e0957600080fd5b505af1925050508015611e39575060408051601f3d908101601f19168201909252611e3691810190612aff565b60015b611e455761183e613096565b6001600160e01b0319811663f23a6e6160e01b146114fe5760405162461bcd60e51b815260040161060490612db8565b600082815260c9602090815260408083206001600160a01b038816845290915290205481811015611eb85760405162461bcd60e51b815260040161060490612edc565b611ec28282612f8e565b600084815260c9602090815260408083206001600160a01b038a81168552925280832093909355861681529081208054849290611f00908490612f57565b9091555060009050611f106115fe565b9050846001600160a01b0316866001600160a01b0316826001600160a01b031660008051602061315b8339815191528787604051611f4f929190612f26565b60405180910390a4505050505050565b6000611f6a3361104a565b15611f7c575060131936013560601c90565b503390565b90565b60606000611f93836002612f6f565b611f9e906002612f57565b6001600160401b03811115611fc357634e487b7160e01b600052604160045260246000fd5b6040519080825280601f01601f191660200182016040528015611fed576020820181803683370190505b509050600360fc1b8160008151811061201657634e487b7160e01b600052603260045260246000fd5b60200101906001600160f81b031916908160001a905350600f60fb1b8160018151811061205357634e487b7160e01b600052603260045260246000fd5b60200101906001600160f81b031916908160001a9053506000612077846002612f6f565b612082906001612f57565b90505b6001811115612116576f181899199a1a9b1b9c1cb0b131b232b360811b85600f16601081106120c457634e487b7160e01b600052603260045260246000fd5b1a60f81b8282815181106120e857634e487b7160e01b600052603260045260246000fd5b60200101906001600160f81b031916908160001a90535060049490941c9361210f81612fd1565b9050612085565b5083156121655760405162461bcd60e51b815260206004820181905260248201527f537472696e67733a20686578206c656e67746820696e73756666696369656e746044820152606401610604565b9392505050565b60008051602061317b833981519152546001600160a01b031690565b803b6121ec5760405162461bcd60e51b815260206004820152602d60248201527f455243313936373a206e657720696d706c656d656e746174696f6e206973206e60448201526c1bdd08184818dbdb9d1c9858dd609a1b6064820152608401610604565b60008051602061317b83398151915280546001600160a01b0319166001600160a01b0392909216919091179055565b6060823b61227a5760405162461bcd60e51b815260206004820152602660248201527f416464726573733a2064656c65676174652063616c6c20746f206e6f6e2d636f6044820152651b9d1c9858dd60d21b6064820152608401610604565b600080846001600160a01b0316846040516122959190612c2b565b600060405180830381855af49150503d80600081146122d0576040519150601f19603f3d011682016040523d82523d6000602084013e6122d5565b606091505b50915091506122fd828260405180606001604052806027815260200161319b6027913961230e565b95945050505050565b611d50612347565b6060831561231d575081612165565b82511561232d5782518084602001fd5b8160405162461bcd60e51b81526004016106049190612da5565b6123686040518060600160405280603381526020016131e260339139612370565b611d506123e0565b600054610100900460ff1680612389575060005460ff16155b6123a55760405162461bcd60e51b815260040161060490612e8e565b600054610100900460ff161580156123c7576000805461ffff19166101011790555b6123cf6123e8565b6123d76123e8565b61134a82612453565b611d506124b3565b600054610100900460ff1680612401575060005460ff16155b61241d5760405162461bcd60e51b815260040161060490612e8e565b600054610100900460ff1615801561243f576000805461ffff19166101011790555b80156106a4576000805461ff001916905550565b600054610100900460ff168061246c575060005460ff16155b6124885760405162461bcd60e51b815260040161060490612e8e565b600054610100900460ff161580156124aa576000805461ffff19166101011790555b61134a8261160d565b6124bb6124ce565b6124c3612535565b611d50600033612594565b600054610100900460ff16806124e7575060005460ff16155b6125035760405162461bcd60e51b815260040161060490612e8e565b600054610100900460ff16158015612525576000805461ffff19166101011790555b61252d6123e8565b61243f6123e8565b600054610100900460ff168061254e575060005460ff16155b61256a5760405162461bcd60e51b815260040161060490612e8e565b600054610100900460ff1615801561258c576000805461ffff19166101011790555b6125256123e8565b610bf58282611973565b8280546125aa90612fe8565b90600052602060002090601f0160209004810192826125cc5760008555612612565b82601f106125e557805160ff1916838001178555612612565b82800160010185558215612612579182015b828111156126125782518255916020019190600101906125f7565b5061261e929150612622565b5090565b5b8082111561261e5760008155600101612623565b60006001600160401b0383111561265057612650613080565b604051612667601f8501601f191660200182613023565b80915083815284848401111561267c57600080fd5b83836020830137600060208583010152509392505050565b80356001600160a01b03811681146126ab57600080fd5b919050565b600082601f8301126126c0578081fd5b813560206126cd82612f34565b6040516126da8282613023565b8381528281019150858301600585901b870184018810156126f9578586fd5b855b85811015612717578135845292840192908401906001016126fb565b5090979650505050505050565b600082601f830112612734578081fd5b61216583833560208501612637565b600060208284031215612754578081fd5b61216582612694565b6000806040838503121561276f578081fd5b61277883612694565b915061278660208401612694565b90509250929050565b600080600080600060a086880312156127a6578081fd5b6127af86612694565b94506127bd60208701612694565b935060408601356001600160401b03808211156127d8578283fd5b6127e489838a016126b0565b945060608801359150808211156127f9578283fd5b61280589838a016126b0565b9350608088013591508082111561281a578283fd5b5061282788828901612724565b9150509295509295909350565b60008060008060808587031215612849578384fd5b61285285612694565b935061286060208601612694565b93969395505050506040820135916060013590565b600080600080600060a0868803121561288c578081fd5b61289586612694565b94506128a360208701612694565b9350604086013592506060860135915060808601356001600160401b038111156128cb578182fd5b61282788828901612724565b600080600080600060a086880312156128ee578283fd5b6128f786612694565b945061290560208701612694565b94979496505050506040830135926060810135926080909101359150565b60008060408385031215612935578182fd5b61293e83612694565b9150602083013561294e81613136565b809150509250929050565b6000806040838503121561296b578182fd5b61297483612694565b915060208301356001600160401b0381111561298e578182fd5b61299a85828601612724565b9150509250929050565b600080604083850312156129b6578182fd5b6129bf83612694565b946020939093013593505050565b600080604083850312156129df578182fd5b82356001600160401b03808211156129f5578384fd5b818501915085601f830112612a08578384fd5b81356020612a1582612f34565b604051612a228282613023565b8381528281019150858301600585901b870184018b1015612a41578889fd5b8896505b84871015612a6a57612a5681612694565b835260019690960195918301918301612a45565b5096505086013592505080821115612a80578283fd5b5061299a858286016126b0565b600060208284031215612a9e578081fd5b815161216581613136565b600060208284031215612aba578081fd5b5035919050565b60008060408385031215612ad3578182fd5b8235915061278660208401612694565b600060208284031215612af4578081fd5b813561216581613144565b600060208284031215612b10578081fd5b815161216581613144565b600060208284031215612b2c578081fd5b81356001600160401b03811115612b41578182fd5b8201601f81018413612b51578182fd5b612b6084823560208401612637565b949350505050565b600060208284031215612b79578081fd5b5051919050565b60008060408385031215612b92578182fd5b50508035926020909101359150565b600060208284031215612bb2578081fd5b813563ffffffff81168114612165578182fd5b6000815180845260208085019450808401835b83811015612bf457815187529582019590820190600101612bd8565b509495945050505050565b60008151808452612c17816020860160208601612fa5565b601f01601f19169290920160200192915050565b60008251612c3d818460208701612fa5565b9190910192915050565b76020b1b1b2b9b9a1b7b73a3937b61d1030b1b1b7bab73a1604d1b815260008351612c79816017850160208801612fa5565b7001034b99036b4b9b9b4b733903937b6329607d1b6017918401918201528351612caa816028840160208801612fa5565b01602801949350505050565b6001600160a01b0391909116815260200190565b6001600160a01b0386811682528516602082015260a060408201819052600090612cf690830186612bc5565b8281036060840152612d088186612bc5565b90508281036080840152612d1c8185612bff565b98975050505050505050565b6001600160a01b03868116825285166020820152604081018490526060810183905260a060808201819052600090612d6290830184612bff565b979650505050505050565b6020815260006121656020830184612bc5565b604081526000612d936040830185612bc5565b82810360208401526122fd8185612bc5565b6020815260006121656020830184612bff565b60208082526028908201527f455243313135353a204552433131353552656365697665722072656a656374656040820152676420746f6b656e7360c01b606082015260800190565b60208082526029908201527f455243313135353a2063616c6c6572206973206e6f74206f776e6572206e6f7260408201526808185c1c1c9bdd995960ba1b606082015260800190565b60208082526025908201527f455243313135353a207472616e7366657220746f20746865207a65726f206164604082015264647265737360d81b606082015260800190565b6020808252602e908201527f496e697469616c697a61626c653a20636f6e747261637420697320616c72656160408201526d191e481a5b9a5d1a585b1a5e995960921b606082015260800190565b6020808252602a908201527f455243313135353a20696e73756666696369656e742062616c616e636520666f60408201526939103a3930b739b332b960b11b606082015260800190565b918252602082015260400190565b60006001600160401b03821115612f4d57612f4d613080565b5060051b60200190565b60008219821115612f6a57612f6a61306a565b500190565b6000816000190483118215151615612f8957612f8961306a565b500290565b600082821015612fa057612fa061306a565b500390565b60005b83811015612fc0578181015183820152602001612fa8565b838111156115835750506000910152565b600081612fe057612fe061306a565b506000190190565b600181811c90821680612ffc57607f821691505b6020821081141561301d57634e487b7160e01b600052602260045260246000fd5b50919050565b601f8201601f191681016001600160401b038111828210171561304857613048613080565b6040525050565b60006000198214156130635761306361306a565b5060010190565b634e487b7160e01b600052601160045260246000fd5b634e487b7160e01b600052604160045260246000fd5b600060033d1115611f8157600481823e5160e01c90565b600060443d10156130bb5790565b6040516003193d81016004833e81513d6001600160401b0380831160248401831017156130ea57505050505090565b82850191508151818111156131025750505050505090565b843d870101602082850101111561311c5750505050505090565b61312b60208286010187613023565b509095945050505050565b80151581146106a457600080fd5b6001600160e01b0319811681146106a457600080fdfec3d58168c5ae7397731d063d5bbf3d657854427343f4c083240f7aacaa2d0f62360894a13ba1a3210667c828492db98dca3e2076cc3735a920a3ca505d382bbc416464726573733a206c6f772d6c6576656c2064656c65676174652063616c6c206661696c65643d2e894c222ba979e2dce2c7d940c0e9bb14306669e9f034eb1bb3979a2069d868747470733a2f2f6170692e66726565706f72742e636572652e6e6574776f726b2f657263313135352f7b69647d2e6a736f6ea26469706673582212204ba771900ef03e966f59bc39469e8913d5951d470d27d775d045b7151a1a613a64736f6c63430008040033",
  "immutableReferences": {},
  "source": "pragma solidity ^0.8.0;\n\nimport \"./freeportParts/BaseERC20Adapter.sol\";\nimport \"./freeportParts/delegators/FreeportDelegator.sol\";\nimport \"./Collection.sol\";\n\n/**\n- Make offers to sell NFTs.\n- Accept offer.\n- Capture variable royalties.\n */\ncontract Marketplace is BaseERC20Adapter, FreeportDelegator, HasGlobalNftId {\n    function initialize(address _freeport) public initializer {\n        __BaseERC20Adapter_init();\n        __FreeportDelegator_init(Freeport(_freeport));\n    }\n\n    /** Seller => NFT ID => Price.\n     */\n    mapping(address => mapping(uint256 => uint256)) sellerNftPriceOffers;\n\n    /** An event emitted when an account `seller` has offered to sell a type of NFT\n     * at a given price.\n     *\n     * This replaces previous offers by the same seller on the same NFT ID, if any.\n     * A price of 0 means \"no offer\" and the previous offer is cancelled.\n     *\n     * An offer does not imply that the seller owns any amount of this NFT.\n     * An offer remains valid until cancelled, for the entire balance at a given time,\n     * regardless of incoming and outgoing transfers on the seller account.\n     */\n    event MakeOffer(\n        address indexed seller,\n        uint256 indexed nftId,\n        uint256 price);\n\n    /** An offer of `seller` was taken by `buyer`.\n     * The transfers of `amount` NFTs of type `nftId`\n     * against `amount * price` of CERE Units were executed.\n     */\n    event TakeOffer(\n        address indexed buyer,\n        address indexed seller,\n        uint256 indexed nftId,\n        uint256 price,\n        uint256 amount);\n\n    /** Create an offer to sell a type of NFTs for a price per unit.\n     * All the NFTs of this type owned by the caller will be for sale.\n     *\n     * To cancel, call again with a price of 0.\n     */\n    function makeOffer(uint256 nftId, uint256 price)\n    public {\n        address seller = _msgSender();\n        sellerNftPriceOffers[seller][nftId] = price;\n\n        emit MakeOffer(seller, nftId, price);\n    }\n\n    /** Return the price offered by the given seller for the given NFT type.\n     */\n    function getOffer(address seller, uint256 nftId)\n    public view returns (uint256) {\n        uint price = sellerNftPriceOffers[seller][nftId];\n        return price;\n    }\n\n    /** Accept an offer, paying the price per unit for an amount of NFTs.\n     *\n     * The offer must have been created beforehand by makeOffer.\n     *\n     * The sender pays ERC20. The sender is not necessarily the same as buyer, see FiatGateway.\n     *\n     * The seller receives internal currency (equivalent to the ERC20 payment, see the function withdraw).\n     *\n     * The buyer receives the NFT.\n     *\n     * The parameter expectedPriceOrZero can be used to validate the price that the buyer expects to pay. This prevents\n     * a race condition with makeOffer or setExchangeRate. Pass 0 to disable this validation and accept any current price.\n     */\n    function takeOffer(address buyer, address seller, uint256 nftId, uint256 expectedPriceOrZero, uint256 amount)\n    public {\n        address payer = _msgSender();\n\n        // Check and update the amount offered.\n        uint256 price = getOffer(seller, nftId);\n        require(price != 0, \"Not for sale\");\n        require(expectedPriceOrZero == 0 || expectedPriceOrZero == price, \"Unexpected price\");\n\n        uint totalPrice = price * amount;\n        // Deposit ERC20 from payer. This verifies the intent of the payer.\n        deposit(totalPrice);\n        // Pay the seller. This verifies the intent of the payer.\n        safeTransferFrom(payer, seller, CURRENCY, totalPrice, \"\");\n\n        // Take a fee from the seller (really a cut of the above payment).\n        uint totalFee = freeport.captureFee(seller, nftId, price, amount);\n        require(totalFee <= totalPrice, \"Cannot take more fees than the price.\");\n\n        // Move the NFTs to the buyer.\n        //todo add supportInterface to collection SC\n        (address issuer, uint32 innerId, uint64 supply) = _parseNftId(nftId);\n        Collection(issuer).transferFrom(seller, payer, nftId, amount);\n\n        emit TakeOffer(buyer, seller, nftId, price, amount);\n    }\n\n    /** Guarantee that a version of Solidity with safe math is used.\n     */\n    function _mathIsSafe() internal pure {\n    unchecked {} // Use a keyword from Solidity 0.8.0.\n    }\n}\n",
  "sourcePath": "/Users/neanvo/WorkFlow/cere/Freeport-Smart-Contracts/contracts/Marketplace.sol",
  "compiler": {
    "name": "solc",
    "version": "0.8.4+commit.c7e474f2.Emscripten.clang"
  },
  "schemaVersion": "3.4.4",
  "updatedAt": "2022-08-12T06:59:26.490Z",
  "devdoc": {
    "kind": "dev",
    "methods": {
      "balanceOf(address,uint256)": {
        "details": "See {IERC1155-balanceOf}. Requirements: - `account` cannot be the zero address."
      },
      "balanceOfBatch(address[],uint256[])": {
        "details": "See {IERC1155-balanceOfBatch}. Requirements: - `accounts` and `ids` must have the same length."
      },
      "getRoleAdmin(bytes32)": {
        "details": "Returns the admin role that controls `role`. See {grantRole} and {revokeRole}. To change a role's admin, use {_setRoleAdmin}."
      },
      "grantRole(bytes32,address)": {
        "details": "Grants `role` to `account`. If `account` had not been already granted `role`, emits a {RoleGranted} event. Requirements: - the caller must have ``role``'s admin role."
      },
      "hasRole(bytes32,address)": {
        "details": "Returns `true` if `account` has been granted `role`."
      },
      "isApprovedForAll(address,address)": {
        "details": "See {IERC1155-isApprovedForAll}."
      },
      "renounceRole(bytes32,address)": {
        "details": "Revokes `role` from the calling account. Roles are often managed via {grantRole} and {revokeRole}: this function's purpose is to provide a mechanism for accounts to lose their privileges if they are compromised (such as when a trusted device is misplaced). If the calling account had been granted `role`, emits a {RoleRevoked} event. Requirements: - the caller must be `account`."
      },
      "revokeRole(bytes32,address)": {
        "details": "Revokes `role` from `account`. If `account` had been granted `role`, emits a {RoleRevoked} event. Requirements: - the caller must have ``role``'s admin role."
      },
      "safeBatchTransferFrom(address,address,uint256[],uint256[],bytes)": {
        "details": "See {IERC1155-safeBatchTransferFrom}."
      },
      "safeTransferFrom(address,address,uint256,uint256,bytes)": {
        "details": "See {IERC1155-safeTransferFrom}."
      },
      "setApprovalForAll(address,bool)": {
        "details": "See {IERC1155-setApprovalForAll}."
      },
      "uri(uint256)": {
        "details": "See {IERC1155MetadataURI-uri}. This implementation returns the same URI for *all* token types. It relies on the token type ID substitution mechanism https://eips.ethereum.org/EIPS/eip-1155#metadata[defined in the EIP]. Clients calling this function must replace the `\\{id\\}` substring with the actual token type ID."
      }
    },
    "version": 1
  },
  "userdoc": {
    "events": {
      "MakeOffer(address,uint256,uint256)": {
        "notice": "An event emitted when an account `seller` has offered to sell a type of NFT at a given price. This replaces previous offers by the same seller on the same NFT ID, if any. A price of 0 means \"no offer\" and the previous offer is cancelled. An offer does not imply that the seller owns any amount of this NFT. An offer remains valid until cancelled, for the entire balance at a given time, regardless of incoming and outgoing transfers on the seller account."
      },
      "TakeOffer(address,address,uint256,uint256,uint256)": {
        "notice": "An offer of `seller` was taken by `buyer`. The transfers of `amount` NFTs of type `nftId` against `amount * price` of CERE Units were executed."
      }
    },
    "kind": "user",
    "methods": {
      "CURRENCY()": {
        "notice": "The token ID that represents the internal currency for all payments in this contract. "
      },
      "currencyContract()": {
        "notice": "The address of ERC-20 token's contract"
      },
      "deposit(uint256)": {
        "notice": "Deposit currency from ERC20 into the internal currency. This requires payer to approve deposit."
      },
      "getGlobalNftId(uint32)": {
        "notice": "Calculate the global ID of an NFT type, identifying its inner nft id."
      },
      "getOffer(address,uint256)": {
        "notice": "Return the price offered by the given seller for the given NFT type."
      },
      "makeOffer(uint256,uint256)": {
        "notice": "Create an offer to sell a type of NFTs for a price per unit. All the NFTs of this type owned by the caller will be for sale. To cancel, call again with a price of 0."
      },
      "setERC20(address)": {
        "notice": "Sets token's contract address. This token is used to deposit and withdraw on chain adapter's contract is deployed."
      },
      "supportsInterface(bytes4)": {
        "notice": "Supports interfaces of AccessControl, ERC1155, and ERC1155 MetadataURI."
      },
      "takeOffer(address,address,uint256,uint256,uint256)": {
        "notice": "Accept an offer, paying the price per unit for an amount of NFTs. The offer must have been created beforehand by makeOffer. The sender pays ERC20. The sender is not necessarily the same as buyer, see FiatGateway. The seller receives internal currency (equivalent to the ERC20 payment, see the function withdraw). The buyer receives the NFT. The parameter expectedPriceOrZero can be used to validate the price that the buyer expects to pay. This prevents a race condition with makeOffer or setExchangeRate. Pass 0 to disable this validation and accept any current price."
      },
      "transferFrom(address,address,uint256,uint256)": {
        "notice": "transferFrom performs a simple transfer, without calling the hooks  (no _beforeTokenTransfer and no onERC1155Received)."
      },
      "withdraw(uint256)": {
        "notice": "Withdraw currency from internal to ERC20"
      }
    },
    "notice": "- Make offers to sell NFTs. - Accept offer. - Capture variable royalties.",
    "version": 1
  }
}