{
  "contractName": "MinimalForwarder",
  "abi": [
    {
      "inputs": [],
      "stateMutability": "nonpayable",
      "type": "constructor"
    },
    {
      "inputs": [
        {
          "internalType": "address",
          "name": "from",
          "type": "address"
        }
      ],
      "name": "getNonce",
      "outputs": [
        {
          "internalType": "uint256",
          "name": "",
          "type": "uint256"
        }
      ],
      "stateMutability": "view",
      "type": "function"
    },
    {
      "inputs": [
        {
          "components": [
            {
              "internalType": "address",
              "name": "from",
              "type": "address"
            },
            {
              "internalType": "address",
              "name": "to",
              "type": "address"
            },
            {
              "internalType": "uint256",
              "name": "value",
              "type": "uint256"
            },
            {
              "internalType": "uint256",
              "name": "gas",
              "type": "uint256"
            },
            {
              "internalType": "uint256",
              "name": "nonce",
              "type": "uint256"
            },
            {
              "internalType": "bytes",
              "name": "data",
              "type": "bytes"
            }
          ],
          "internalType": "struct MinimalForwarder.ForwardRequest",
          "name": "req",
          "type": "tuple"
        },
        {
          "internalType": "bytes",
          "name": "signature",
          "type": "bytes"
        }
      ],
      "name": "verify",
      "outputs": [
        {
          "internalType": "bool",
          "name": "",
          "type": "bool"
        }
      ],
      "stateMutability": "view",
      "type": "function"
    },
    {
      "inputs": [
        {
          "components": [
            {
              "internalType": "address",
              "name": "from",
              "type": "address"
            },
            {
              "internalType": "address",
              "name": "to",
              "type": "address"
            },
            {
              "internalType": "uint256",
              "name": "value",
              "type": "uint256"
            },
            {
              "internalType": "uint256",
              "name": "gas",
              "type": "uint256"
            },
            {
              "internalType": "uint256",
              "name": "nonce",
              "type": "uint256"
            },
            {
              "internalType": "bytes",
              "name": "data",
              "type": "bytes"
            }
          ],
          "internalType": "struct MinimalForwarder.ForwardRequest",
          "name": "req",
          "type": "tuple"
        },
        {
          "internalType": "bytes",
          "name": "signature",
          "type": "bytes"
        }
      ],
      "name": "execute",
      "outputs": [
        {
          "internalType": "bool",
          "name": "",
          "type": "bool"
        },
        {
          "internalType": "bytes",
          "name": "",
          "type": "bytes"
        }
      ],
      "stateMutability": "payable",
      "type": "function"
    }
  ],
  "bytecode": "0x61012060405234801561001157600080fd5b50604080518082018252601081526f26b4b734b6b0b62337b93bb0b93232b960811b6020808301918252835180850185526005815264302e302e3160d81b908201529151902060c08181527fae209a0b48f21c054280f2455d32cf309387644879d9acbd8ffc19916381188560e08190524660a081815286517f8b73c3c69bb8fe3d512ecc4cf759cc79239f7b179b0ffacaa9a75d522b39400f818801819052818901969096526060810193909352608080840192909252308382015286518084039091018152919092019094528351939092019290922090526101005260805160a05160c05160e05161010051610a24610133600039600061059d015260006105ec015260006105c70152600061054b015260006105740152610a246000f3fe6080604052600436106100345760003560e01c80632d0335ab1461003957806347153f8214610082578063bf5d3bdb146100a3575b600080fd5b34801561004557600080fd5b5061006f6100543660046107da565b6001600160a01b031660009081526020819052604090205490565b6040519081526020015b60405180910390f35b610095610090366004610808565b6100d3565b6040516100799291906108f2565b3480156100af57600080fd5b506100c36100be366004610808565b61028b565b6040519015158152602001610079565b600060606100e285858561028b565b6101595760405162461bcd60e51b815260206004820152603260248201527f4d696e696d616c466f727761726465723a207369676e617475726520646f657360448201527f206e6f74206d617463682072657175657374000000000000000000000000000060648201526084015b60405180910390fd5b6101686080860135600161097a565b60008061017860208901896107da565b6001600160a01b03166001600160a01b03168152602001908152602001600020819055506000808660200160208101906101b291906107da565b6001600160a01b0316606088013560408901356101d260a08b018b61092e565b6101df60208d018d6107da565b6040516020016101f1939291906108b0565b60408051601f198184030181529082905261020b916108d6565b600060405180830381858888f193505050503d8060008114610249576040519150601f19603f3d011682016040523d82523d6000602084013e61024e565b606091505b509092509050610263603f606089013561099e565b5a1161027f57634e487b7160e01b600052600160045260246000fd5b90969095509350505050565b60008061039e84848080601f01602080910402602001604051908101604052809392919081815260200183838082843760009201919091525061039892507fdd8f4b70b0f4393e889bd39128a30628a78b61816a9eb8199759e7a349657e4891506102fb905060208a018a6107da565b61030b60408b0160208c016107da565b60408b013560608c013560808d013561032760a08f018f61092e565b6040516103359291906108a0565b6040805191829003822060208301989098526001600160a01b0396871690820152949093166060850152608084019190915260a083015260c082015260e08101919091526101000160405160208183030381529060405280519060200120610409565b90610478565b905060808501356000806103b560208901896107da565b6001600160a01b03166001600160a01b031681526020019081526020016000205414801561040057506103eb60208601866107da565b6001600160a01b0316816001600160a01b0316145b95945050505050565b6000610472610416610547565b836040517f19010000000000000000000000000000000000000000000000000000000000006020820152602281018390526042810182905260009060620160405160208183030381529060405280519060200120905092915050565b92915050565b6000806000808451604114156104a25750505060208201516040830151606084015160001a610531565b8451604014156104e95750505060408201516020830151907f7fffffffffffffffffffffffffffffffffffffffffffffffffffffffffffffff81169060ff1c601b01610531565b60405162461bcd60e51b815260206004820152601f60248201527f45434453413a20696e76616c6964207369676e6174757265206c656e677468006044820152606401610150565b61053d8682858561063a565b9695505050505050565b60007f000000000000000000000000000000000000000000000000000000000000000046141561059657507f000000000000000000000000000000000000000000000000000000000000000090565b50604080517f00000000000000000000000000000000000000000000000000000000000000006020808301919091527f0000000000000000000000000000000000000000000000000000000000000000828401527f000000000000000000000000000000000000000000000000000000000000000060608301524660808301523060a0808401919091528351808403909101815260c0909201909252805191012090565b60007f7fffffffffffffffffffffffffffffff5d576e7357a4501ddfe92f46681b20a08211156106b75760405162461bcd60e51b815260206004820152602260248201527f45434453413a20696e76616c6964207369676e6174757265202773272076616c604482015261756560f01b6064820152608401610150565b8360ff16601b14806106cc57508360ff16601c145b6107235760405162461bcd60e51b815260206004820152602260248201527f45434453413a20696e76616c6964207369676e6174757265202776272076616c604482015261756560f01b6064820152608401610150565b6040805160008082526020820180845288905260ff871692820192909252606081018590526080810184905260019060a0016020604051602081039080840390855afa158015610777573d6000803e3d6000fd5b5050604051601f1901519150506001600160a01b0381166104005760405162461bcd60e51b815260206004820152601860248201527f45434453413a20696e76616c6964207369676e617475726500000000000000006044820152606401610150565b6000602082840312156107eb578081fd5b81356001600160a01b0381168114610801578182fd5b9392505050565b60008060006040848603121561081c578182fd5b833567ffffffffffffffff80821115610833578384fd5b9085019060c08288031215610846578384fd5b9093506020850135908082111561085b578384fd5b818601915086601f83011261086e578384fd5b81358181111561087c578485fd5b87602082850101111561088d578485fd5b6020830194508093505050509250925092565b8183823760009101908152919050565b8284823760609190911b6bffffffffffffffffffffffff19169101908152601401919050565b600082516108e88184602087016109be565b9190910192915050565b821515815260406020820152600082518060408401526109198160608501602087016109be565b601f01601f1916919091016060019392505050565b6000808335601e19843603018112610944578283fd5b83018035915067ffffffffffffffff82111561095e578283fd5b60200191503681900382131561097357600080fd5b9250929050565b6000821982111561099957634e487b7160e01b81526011600452602481fd5b500190565b6000826109b957634e487b7160e01b81526012600452602481fd5b500490565b60005b838110156109d95781810151838201526020016109c1565b838111156109e8576000848401525b5050505056fea26469706673582212206134dc55b340afbfe62bb29d6a79d0f8d321caf0066854b42c75d64a7c30b96664736f6c63430008040033",
  "immutableReferences": {
    "3383": [
      {
        "length": 32,
        "start": 1396
      }
    ],
    "3385": [
      {
        "length": 32,
        "start": 1355
      }
    ],
    "3387": [
      {
        "length": 32,
        "start": 1479
      }
    ],
    "3389": [
      {
        "length": 32,
        "start": 1516
      }
    ],
    "3391": [
      {
        "length": 32,
        "start": 1437
      }
    ]
  },
  "source": "// SPDX-License-Identifier: MIT\n\npragma solidity ^0.8.0;\n\nimport \"@openzeppelin/contracts/utils/cryptography/ECDSA.sol\";\nimport \"@openzeppelin/contracts/utils/cryptography/draft-EIP712.sol\";\n\n/*\n * @dev Simple minimal forwarder to be used together with an ERC2771 compatible contract. See {ERC2771Context}.\n */\ncontract MinimalForwarder is EIP712 {\n    using ECDSA for bytes32;\n\n    struct ForwardRequest {\n        address from;\n        address to;\n        uint256 value;\n        uint256 gas;\n        uint256 nonce;\n        bytes data;\n    }\n\n    bytes32 private constant TYPEHASH = keccak256(\"ForwardRequest(address from,address to,uint256 value,uint256 gas,uint256 nonce,bytes data)\");\n\n    mapping(address => uint256) private _nonces;\n\n    constructor() EIP712(\"MinimalForwarder\", \"0.0.1\") {}\n\n    function getNonce(address from) public view returns (uint256) {\n        return _nonces[from];\n    }\n\n    function verify(ForwardRequest calldata req, bytes calldata signature) public view virtual returns (bool) {\n        address signer = _hashTypedDataV4(keccak256(abi.encode(\n            TYPEHASH,\n            req.from,\n            req.to,\n            req.value,\n            req.gas,\n            req.nonce,\n            keccak256(req.data)\n        ))).recover(signature);\n        return _nonces[req.from] == req.nonce && signer == req.from;\n    }\n\n    function execute(ForwardRequest calldata req, bytes calldata signature) public payable returns (bool, bytes memory) {\n        require(verify(req, signature), \"MinimalForwarder: signature does not match request\");\n        _nonces[req.from] = req.nonce + 1;\n\n        // solhint-disable-next-line avoid-low-level-calls\n        (bool success, bytes memory returndata) = req.to.call{gas: req.gas, value: req.value}(abi.encodePacked(req.data, req.from));\n        // Validate that the relayer has sent enough gas for the call.\n        // See https://ronan.eth.link/blog/ethereum-gas-dangers/\n        assert(gasleft() > req.gas / 63);\n\n        return (success, returndata);\n    }\n}\n",
  "sourcePath": "/Users/neanvo/WorkFlow/cere/Freeport-Smart-Contracts/contracts/MinimalForwarder.sol",
  "compiler": {
    "name": "solc",
    "version": "0.8.4+commit.c7e474f2.Emscripten.clang"
  },
  "schemaVersion": "3.4.4",
  "updatedAt": "2022-06-23T12:58:30.698Z",
  "devdoc": {
    "kind": "dev",
    "methods": {},
    "version": 1
  },
  "userdoc": {
    "kind": "user",
    "methods": {},
    "version": 1
  }
}