{
  "contractName": "NFTAttachment",
  "abi": [
    {
      "anonymous": false,
      "inputs": [
        {
          "indexed": false,
          "internalType": "address",
          "name": "previousAdmin",
          "type": "address"
        },
        {
          "indexed": false,
          "internalType": "address",
          "name": "newAdmin",
          "type": "address"
        }
      ],
      "name": "AdminChanged",
      "type": "event"
    },
    {
      "anonymous": false,
      "inputs": [
        {
          "indexed": true,
          "internalType": "address",
          "name": "anonym",
          "type": "address"
        },
        {
          "indexed": true,
          "internalType": "uint256",
          "name": "nftId",
          "type": "uint256"
        },
        {
          "indexed": false,
          "internalType": "bytes",
          "name": "attachment",
          "type": "bytes"
        }
      ],
      "name": "AnonymAttachToNFT",
      "type": "event"
    },
    {
      "anonymous": false,
      "inputs": [
        {
          "indexed": true,
          "internalType": "address",
          "name": "beacon",
          "type": "address"
        }
      ],
      "name": "BeaconUpgraded",
      "type": "event"
    },
    {
      "anonymous": false,
      "inputs": [
        {
          "indexed": true,
          "internalType": "address",
          "name": "minter",
          "type": "address"
        },
        {
          "indexed": true,
          "internalType": "uint256",
          "name": "nftId",
          "type": "uint256"
        },
        {
          "indexed": false,
          "internalType": "bytes",
          "name": "attachment",
          "type": "bytes"
        }
      ],
      "name": "MinterAttachToNFT",
      "type": "event"
    },
    {
      "anonymous": false,
      "inputs": [
        {
          "indexed": true,
          "internalType": "address",
          "name": "owner",
          "type": "address"
        },
        {
          "indexed": true,
          "internalType": "uint256",
          "name": "nftId",
          "type": "uint256"
        },
        {
          "indexed": false,
          "internalType": "bytes",
          "name": "attachment",
          "type": "bytes"
        }
      ],
      "name": "OwnerAttachToNFT",
      "type": "event"
    },
    {
      "anonymous": false,
      "inputs": [
        {
          "indexed": true,
          "internalType": "bytes32",
          "name": "role",
          "type": "bytes32"
        },
        {
          "indexed": true,
          "internalType": "bytes32",
          "name": "previousAdminRole",
          "type": "bytes32"
        },
        {
          "indexed": true,
          "internalType": "bytes32",
          "name": "newAdminRole",
          "type": "bytes32"
        }
      ],
      "name": "RoleAdminChanged",
      "type": "event"
    },
    {
      "anonymous": false,
      "inputs": [
        {
          "indexed": true,
          "internalType": "bytes32",
          "name": "role",
          "type": "bytes32"
        },
        {
          "indexed": true,
          "internalType": "address",
          "name": "account",
          "type": "address"
        },
        {
          "indexed": true,
          "internalType": "address",
          "name": "sender",
          "type": "address"
        }
      ],
      "name": "RoleGranted",
      "type": "event"
    },
    {
      "anonymous": false,
      "inputs": [
        {
          "indexed": true,
          "internalType": "bytes32",
          "name": "role",
          "type": "bytes32"
        },
        {
          "indexed": true,
          "internalType": "address",
          "name": "account",
          "type": "address"
        },
        {
          "indexed": true,
          "internalType": "address",
          "name": "sender",
          "type": "address"
        }
      ],
      "name": "RoleRevoked",
      "type": "event"
    },
    {
      "anonymous": false,
      "inputs": [
        {
          "indexed": true,
          "internalType": "address",
          "name": "implementation",
          "type": "address"
        }
      ],
      "name": "Upgraded",
      "type": "event"
    },
    {
      "inputs": [],
      "name": "DEFAULT_ADMIN_ROLE",
      "outputs": [
        {
          "internalType": "bytes32",
          "name": "",
          "type": "bytes32"
        }
      ],
      "stateMutability": "view",
      "type": "function",
      "constant": true
    },
    {
      "inputs": [],
      "name": "META_TX_FORWARDER",
      "outputs": [
        {
          "internalType": "bytes32",
          "name": "",
          "type": "bytes32"
        }
      ],
      "stateMutability": "view",
      "type": "function",
      "constant": true
    },
    {
      "inputs": [],
      "name": "freeport",
      "outputs": [
        {
          "internalType": "contract Freeport",
          "name": "",
          "type": "address"
        }
      ],
      "stateMutability": "view",
      "type": "function",
      "constant": true
    },
    {
      "inputs": [
        {
          "internalType": "bytes32",
          "name": "role",
          "type": "bytes32"
        }
      ],
      "name": "getRoleAdmin",
      "outputs": [
        {
          "internalType": "bytes32",
          "name": "",
          "type": "bytes32"
        }
      ],
      "stateMutability": "view",
      "type": "function",
      "constant": true
    },
    {
      "inputs": [
        {
          "internalType": "bytes32",
          "name": "role",
          "type": "bytes32"
        },
        {
          "internalType": "address",
          "name": "account",
          "type": "address"
        }
      ],
      "name": "grantRole",
      "outputs": [],
      "stateMutability": "nonpayable",
      "type": "function"
    },
    {
      "inputs": [
        {
          "internalType": "bytes32",
          "name": "role",
          "type": "bytes32"
        },
        {
          "internalType": "address",
          "name": "account",
          "type": "address"
        }
      ],
      "name": "hasRole",
      "outputs": [
        {
          "internalType": "bool",
          "name": "",
          "type": "bool"
        }
      ],
      "stateMutability": "view",
      "type": "function",
      "constant": true
    },
    {
      "inputs": [
        {
          "internalType": "address",
          "name": "forwarder",
          "type": "address"
        }
      ],
      "name": "isTrustedForwarder",
      "outputs": [
        {
          "internalType": "bool",
          "name": "",
          "type": "bool"
        }
      ],
      "stateMutability": "view",
      "type": "function",
      "constant": true
    },
    {
      "inputs": [
        {
          "internalType": "bytes32",
          "name": "role",
          "type": "bytes32"
        },
        {
          "internalType": "address",
          "name": "account",
          "type": "address"
        }
      ],
      "name": "renounceRole",
      "outputs": [],
      "stateMutability": "nonpayable",
      "type": "function"
    },
    {
      "inputs": [
        {
          "internalType": "bytes32",
          "name": "role",
          "type": "bytes32"
        },
        {
          "internalType": "address",
          "name": "account",
          "type": "address"
        }
      ],
      "name": "revokeRole",
      "outputs": [],
      "stateMutability": "nonpayable",
      "type": "function"
    },
    {
      "inputs": [
        {
          "internalType": "bytes4",
          "name": "interfaceId",
          "type": "bytes4"
        }
      ],
      "name": "supportsInterface",
      "outputs": [
        {
          "internalType": "bool",
          "name": "",
          "type": "bool"
        }
      ],
      "stateMutability": "view",
      "type": "function",
      "constant": true
    },
    {
      "inputs": [
        {
          "internalType": "address",
          "name": "newImplementation",
          "type": "address"
        }
      ],
      "name": "upgradeTo",
      "outputs": [],
      "stateMutability": "nonpayable",
      "type": "function"
    },
    {
      "inputs": [
        {
          "internalType": "address",
          "name": "newImplementation",
          "type": "address"
        },
        {
          "internalType": "bytes",
          "name": "data",
          "type": "bytes"
        }
      ],
      "name": "upgradeToAndCall",
      "outputs": [],
      "stateMutability": "payable",
      "type": "function",
      "payable": true
    },
    {
      "inputs": [
        {
          "internalType": "contract Freeport",
          "name": "_freeport",
          "type": "address"
        }
      ],
      "name": "initialize",
      "outputs": [],
      "stateMutability": "nonpayable",
      "type": "function"
    },
    {
      "inputs": [
        {
          "internalType": "uint256",
          "name": "nftId",
          "type": "uint256"
        },
        {
          "internalType": "bytes",
          "name": "attachment",
          "type": "bytes"
        }
      ],
      "name": "minterAttachToNFT",
      "outputs": [],
      "stateMutability": "nonpayable",
      "type": "function"
    },
    {
      "inputs": [
        {
          "internalType": "uint256",
          "name": "nftId",
          "type": "uint256"
        },
        {
          "internalType": "bytes",
          "name": "attachment",
          "type": "bytes"
        }
      ],
      "name": "ownerAttachToNFT",
      "outputs": [],
      "stateMutability": "nonpayable",
      "type": "function"
    },
    {
      "inputs": [
        {
          "internalType": "uint256",
          "name": "nftId",
          "type": "uint256"
        },
        {
          "internalType": "bytes",
          "name": "attachment",
          "type": "bytes"
        }
      ],
      "name": "anonymAttachToNFT",
      "outputs": [],
      "stateMutability": "nonpayable",
      "type": "function"
    },
    {
      "inputs": [
        {
          "internalType": "uint256",
          "name": "id",
          "type": "uint256"
        }
      ],
      "name": "_minterFromNftId",
      "outputs": [
        {
          "internalType": "address",
          "name": "minter",
          "type": "address"
        }
      ],
      "stateMutability": "pure",
      "type": "function",
      "constant": true
    }
  ],
  "bytecode": "0x608060405234801561001057600080fd5b506114ff806100206000396000f3fe6080604052600436106100ce5760003560e01c806301ffc9a7146100d3578063248a9ca3146101085780632f2ff15d1461013657806336568abe146101585780633659cfe6146101785780634f1ef28614610198578063572b6c05146101ab57806391d14854146101cb5780639470ad85146101eb5780639a86e8ce14610218578063a217fddf1461023a578063b85f8ca91461024f578063c0ba9f551461026f578063c4d66de81461028f578063d2e9277b146102af578063d547741f146102d0578063f9715b8f146102f0575b600080fd5b3480156100df57600080fd5b506100f36100ee36600461116d565b610310565b60405190151581526020015b60405180910390f35b34801561011457600080fd5b50610128610123366004611126565b610347565b6040519081526020016100ff565b34801561014257600080fd5b5061015661015136600461113e565b61035c565b005b34801561016457600080fd5b5061015661017336600461113e565b610385565b34801561018457600080fd5b5061015661019336600461104c565b610418565b6101566101a6366004611068565b61043f565b3480156101b757600080fd5b506100f36101c636600461104c565b610454565b3480156101d757600080fd5b506100f36101e636600461113e565b61046a565b3480156101f757600080fd5b5060fb5461020b906001600160a01b031681565b6040516100ff91906112ae565b34801561022457600080fd5b506101286000805160206114aa83398151915281565b34801561024657600080fd5b50610128600081565b34801561025b57600080fd5b5061015661026a3660046111ad565b610495565b34801561027b57600080fd5b5061015661028a3660046111ad565b610566565b34801561029b57600080fd5b506101566102aa36600461104c565b610698565b3480156102bb57600080fd5b5061020b6102ca366004611126565b60601c90565b3480156102dc57600080fd5b506101566102eb36600461113e565b61073a565b3480156102fc57600080fd5b5061015661030b3660046111ad565b610759565b60006001600160e01b03198216637965db0b60e01b148061034157506301ffc9a760e01b6001600160e01b03198316145b92915050565b600090815260c9602052604090206001015490565b61036582610347565b610376816103716107cc565b6107ee565b6103808383610852565b505050565b61038d6107cc565b6001600160a01b0316816001600160a01b03161461040a5760405162461bcd60e51b815260206004820152602f60248201527f416363657373436f6e74726f6c3a2063616e206f6e6c792072656e6f756e636560448201526e103937b632b9903337b91039b2b63360891b60648201526084015b60405180910390fd5b61041482826108d9565b5050565b6104218161095e565b61043c816040518060200160405280600081525060006109a2565b50565b6104488261095e565b610414828260016109a2565b60006103416000805160206114aa833981519152835b600091825260c9602090815260408084206001600160a01b0393909316845291905290205460ff1690565b826104b25760405162461bcd60e51b815260040161040190611372565b60006104bc6107cc565b905060006104ca8560601c90565b9050806001600160a01b0316826001600160a01b03161461051b5760405162461bcd60e51b815260206004820152600b60248201526a27b7363c9036b4b73a32b960a91b6044820152606401610401565b84826001600160a01b03167f5dc5ea79bba163c4e3f9a2bb5350dbe8490685a9191001c5b4422b37f880d32286866040516105579291906112c2565b60405180910390a35050505050565b826105835760405162461bcd60e51b815260040161040190611372565b600061058d6107cc565b60fb54604051627eeac760e11b81526001600160a01b038084166004830152602482018890529293506000929091169062fdd58e9060440160206040518083038186803b1580156105dd57600080fd5b505afa1580156105f1573d6000803e3d6000fd5b505050506040513d601f19601f820116820180604052508101906106159190611195565b90506000811161065c5760405162461bcd60e51b815260206004820152601260248201527127b7363c9031bab93932b73a1037bbb732b960711b6044820152606401610401565b84826001600160a01b03167f70b7e5963956c4cbfbe79063259fc0996d3333c155342ae9110ca45e85995a5586866040516105579291906112c2565b600054610100900460ff16806106b1575060005460ff16155b6106cd5760405162461bcd60e51b815260040161040190611324565b600054610100900460ff161580156106ef576000805461ffff19166101011790555b6106f7610b1e565b6001600160a01b03821661070a57600080fd5b60fb80546001600160a01b0319166001600160a01b0384161790558015610414576000805461ff00191690555050565b61074382610347565b61074f816103716107cc565b61038083836108d9565b826107765760405162461bcd60e51b815260040161040190611372565b60006107806107cc565b905083816001600160a01b03167f4d1230ca9d634685a91b90e38709c77299e0c7591f7ac427d6cd88cf0f6114bf85856040516107be9291906112c2565b60405180910390a350505050565b60006107d733610454565b156107e9575060131936013560601c90565b503390565b6107f8828261046a565b61041457610810816001600160a01b03166014610b28565b61081b836020610b28565b60405160200161082c92919061123f565b60408051601f198184030181529082905262461bcd60e51b8252610401916004016112f1565b61085c828261046a565b61041457600082815260c9602090815260408083206001600160a01b03851684529091529020805460ff191660011790556108956107cc565b6001600160a01b0316816001600160a01b0316837f2f8788117e7eff1d82e926ec794901d17c78024a50270940304540a733656f0d60405160405180910390a45050565b6108e3828261046a565b1561041457600082815260c9602090815260408083206001600160a01b03851684529091529020805460ff1916905561091a6107cc565b6001600160a01b0316816001600160a01b0316837ff6391f5c32d9c69d2a47ea670b442974b53935d1edc7fd64eb21e047a839171b60405160405180910390a45050565b61096960003361046a565b61043c5760405162461bcd60e51b815260206004820152600a60248201526927b7363c9020b236b4b760b11b6044820152606401610401565b60006109ac610d10565b90506109b784610d2c565b6000835111806109c45750815b156109d5576109d38484610dbf565b505b7f4910fdfa16fed3260ed0e7147f7cc6da11a60208b5b9406d12a635614ffd9143805460ff16610b1757805460ff19166001178155604051610a50908690610a219085906024016112ae565b60408051601f198184030181529190526020810180516001600160e01b0316631b2ce7f360e11b179052610dbf565b50805460ff19168155610a61610d10565b6001600160a01b0316826001600160a01b031614610ad95760405162461bcd60e51b815260206004820152602f60248201527f45524331393637557067726164653a207570677261646520627265616b73206660448201526e75727468657220757067726164657360881b6064820152608401610401565b610ae285610d2c565b6040516001600160a01b038616907fbc7cd75a20ee27fd9adebab32041f755214dbc6bffa90cc0225b39da2e5c2d3b90600090a25b5050505050565b610b26610eaa565b565b60606000610b378360026113bb565b610b429060026113a3565b6001600160401b03811115610b6757634e487b7160e01b600052604160045260246000fd5b6040519080825280601f01601f191660200182016040528015610b91576020820181803683370190505b509050600360fc1b81600081518110610bba57634e487b7160e01b600052603260045260246000fd5b60200101906001600160f81b031916908160001a905350600f60fb1b81600181518110610bf757634e487b7160e01b600052603260045260246000fd5b60200101906001600160f81b031916908160001a9053506000610c1b8460026113bb565b610c269060016113a3565b90505b6001811115610cba576f181899199a1a9b1b9c1cb0b131b232b360811b85600f1660108110610c6857634e487b7160e01b600052603260045260246000fd5b1a60f81b828281518110610c8c57634e487b7160e01b600052603260045260246000fd5b60200101906001600160f81b031916908160001a90535060049490941c93610cb38161140a565b9050610c29565b508315610d095760405162461bcd60e51b815260206004820181905260248201527f537472696e67733a20686578206c656e67746820696e73756666696369656e746044820152606401610401565b9392505050565b600080516020611463833981519152546001600160a01b031690565b803b610d905760405162461bcd60e51b815260206004820152602d60248201527f455243313936373a206e657720696d706c656d656e746174696f6e206973206e60448201526c1bdd08184818dbdb9d1c9858dd609a1b6064820152608401610401565b60008051602061146383398151915280546001600160a01b0319166001600160a01b0392909216919091179055565b6060823b610e1e5760405162461bcd60e51b815260206004820152602660248201527f416464726573733a2064656c65676174652063616c6c20746f206e6f6e2d636f6044820152651b9d1c9858dd60d21b6064820152608401610401565b600080846001600160a01b031684604051610e399190611223565b600060405180830381855af49150503d8060008114610e74576040519150601f19603f3d011682016040523d82523d6000602084013e610e79565b606091505b5091509150610ea1828260405180606001604052806027815260200161148360279139610ec5565b95945050505050565b610eb2610efe565b610eba610f79565b610b26600033610fd8565b60608315610ed4575081610d09565b825115610ee45782518084602001fd5b8160405162461bcd60e51b815260040161040191906112f1565b600054610100900460ff1680610f17575060005460ff16155b610f335760405162461bcd60e51b815260040161040190611324565b600054610100900460ff16158015610f55576000805461ffff19166101011790555b610f5d610fe2565b610f65610fe2565b801561043c576000805461ff001916905550565b600054610100900460ff1680610f92575060005460ff16155b610fae5760405162461bcd60e51b815260040161040190611324565b600054610100900460ff16158015610fd0576000805461ffff19166101011790555b610f55610fe2565b6104148282610852565b600054610100900460ff1680610ffb575060005460ff16155b6110175760405162461bcd60e51b815260040161040190611324565b600054610100900460ff16158015610f65576000805461ffff1916610101179055801561043c576000805461ff001916905550565b60006020828403121561105d578081fd5b8135610d098161144d565b6000806040838503121561107a578081fd5b82356110858161144d565b915060208301356001600160401b03808211156110a0578283fd5b818501915085601f8301126110b3578283fd5b8135818111156110c5576110c5611437565b604051601f8201601f19908116603f011681019083821181831017156110ed576110ed611437565b81604052828152886020848701011115611105578586fd5b82602086016020830137856020848301015280955050505050509250929050565b600060208284031215611137578081fd5b5035919050565b60008060408385031215611150578182fd5b8235915060208301356111628161144d565b809150509250929050565b60006020828403121561117e578081fd5b81356001600160e01b031981168114610d09578182fd5b6000602082840312156111a6578081fd5b5051919050565b6000806000604084860312156111c1578081fd5b8335925060208401356001600160401b03808211156111de578283fd5b818601915086601f8301126111f1578283fd5b8135818111156111ff578384fd5b876020828501011115611210578384fd5b6020830194508093505050509250925092565b600082516112358184602087016113da565b9190910192915050565b76020b1b1b2b9b9a1b7b73a3937b61d1030b1b1b7bab73a1604d1b8152600083516112718160178501602088016113da565b7001034b99036b4b9b9b4b733903937b6329607d1b60179184019182015283516112a28160288401602088016113da565b01602801949350505050565b6001600160a01b0391909116815260200190565b60208152816020820152818360408301376000818301604090810191909152601f909201601f19160101919050565b60208152600082518060208401526113108160408501602087016113da565b601f01601f19169190910160400192915050565b6020808252602e908201527f496e697469616c697a61626c653a20636f6e747261637420697320616c72656160408201526d191e481a5b9a5d1a585b1a5e995960921b606082015260800190565b6020808252601790820152760c081a5cc81b9bdd0818481d985b1a5908139195081251604a1b604082015260600190565b600082198211156113b6576113b6611421565b500190565b60008160001904831182151516156113d5576113d5611421565b500290565b60005b838110156113f55781810151838201526020016113dd565b83811115611404576000848401525b50505050565b60008161141957611419611421565b506000190190565b634e487b7160e01b600052601160045260246000fd5b634e487b7160e01b600052604160045260246000fd5b6001600160a01b038116811461043c57600080fdfe360894a13ba1a3210667c828492db98dca3e2076cc3735a920a3ca505d382bbc416464726573733a206c6f772d6c6576656c2064656c65676174652063616c6c206661696c65643d2e894c222ba979e2dce2c7d940c0e9bb14306669e9f034eb1bb3979a2069d8a26469706673582212200b70e1a58126649dc47f77874a43ba15eb1922d0d2094832cfb652a0a9c44dd364736f6c63430008040033",
  "immutableReferences": {},
  "source": "pragma solidity ^0.8.0;\n\nimport \"./freeportParts/MetaTxContext.sol\";\nimport \"./Freeport.sol\";\n\n/** The contract NFTAttachment allows users to attach objects to NFTs.\n * Some application can listen for the events and interpret the objects in some way.\n *\n * There are three roles who can attach objects to an NFT:\n * the minter, any current owner, or any anonymous account.\n * A different event is emitted for each role.\n *\n * The attachment data is meant to identify an object hosted externally,\n * such as a CID, a.k.a. Content Identifier, or a DDC URL.\n * The content may be retrieved from Cere DDC or some other store.\n */\ncontract NFTAttachment is /* AccessControl, */ MetaTxContext {\n\n    /** This attachment contract refers to the NFT contract in this variable.\n     */\n    Freeport public freeport;\n\n    /** The token ID that represents the internal currency for all payments in Freeport. */\n    uint256 constant CURRENCY = 0;\n\n    /** Set which NFT contract to refer to.\n     *\n     * The event `MinterAttachToNFT` is only supported for Freeport-compatible NFTs.\n     *\n     * The event `OwnerAttachToNFT` is supported for ERC-1155 NFTs, including Freeport.\n     */\n    function initialize(Freeport _freeport) public initializer {\n        __MetaTxContext_init();\n\n        require(address(_freeport) != address(0));\n        freeport = _freeport;\n    }\n\n    /** The account `minter` wished to attach data `attachment` to the NFT type `nftId`.\n     *\n     * The `minter` is the minter who created this NFT type, or may create it in the future if it does not exist.\n     */\n    event MinterAttachToNFT(\n        address indexed minter,\n        uint256 indexed nftId,\n        bytes attachment);\n\n    /** The account `owner` wished to attach data `attachment` to the NFT type `nftId`.\n     *\n     * The `owner` owned at least one NFT of this type at the time of the event.\n     */\n    event OwnerAttachToNFT(\n        address indexed owner,\n        uint256 indexed nftId,\n        bytes attachment);\n\n    /** The account `anonym` wished to attach data `attachment` to the NFT type `nftId`.\n     *\n     * There is absolutely no validation. It is the responsibility of the reader of this event to decide\n     * who the sender is and what the attachment means.\n     */\n    event AnonymAttachToNFT(\n        address indexed anonym,\n        uint256 indexed nftId,\n        bytes attachment);\n\n    /** Attach data `attachment` to the NFT type `nftId`, as the minter of this NFT type.\n     *\n     * This only works for NFT IDs in the Freeport format.\n     */\n    function minterAttachToNFT(uint256 nftId, bytes calldata attachment)\n    public {\n        require(nftId != CURRENCY, \"0 is not a valid NFT ID\");\n        address minter = _msgSender();\n        address actualMinter = _minterFromNftId(nftId);\n        require(minter == actualMinter, \"Only minter\");\n        emit MinterAttachToNFT(minter, nftId, attachment);\n    }\n\n    /** Attach data `attachment` to the NFT type `nftId`, as a current owner of an NFT of this type.\n     *\n     * This works for NFTs in the ERC-1155 or Freeport standards.\n     */\n    function ownerAttachToNFT(uint256 nftId, bytes calldata attachment)\n    public {\n        require(nftId != CURRENCY, \"0 is not a valid NFT ID\");\n        address owner = _msgSender();\n        uint256 balance = freeport.balanceOf(owner, nftId);\n        require(balance > 0, \"Only current owner\");\n        emit OwnerAttachToNFT(owner, nftId, attachment);\n    }\n\n    /** Attach data `attachment` to the NFT type `nftId`, as any account.\n     */\n    function anonymAttachToNFT(uint256 nftId, bytes calldata attachment)\n    public {\n        require(nftId != CURRENCY, \"0 is not a valid NFT ID\");\n        address anonym = _msgSender();\n        emit AnonymAttachToNFT(anonym, nftId, attachment);\n    }\n\n    /** Parse an NFT ID into its issuer, its supply, and an arbitrary nonce.\n     *\n     * This does not imply that the NFTs exist.\n     *\n     * This is specific to Freeport NFTs. See `freeportParts/Issuance.sol`\n     */\n    function _minterFromNftId(uint256 id)\n    public pure returns (address minter) {\n        minter = address(uint160((id & 0xFFFFFFFFFFFFFFFFFFFFFFFFFFFFFFFFFFFFFFFF000000000000000000000000) >> (32 + 64)));\n        return minter;\n    }\n}\n",
  "sourcePath": "/home/nadtech/Visual_Studio/Freeport-Smart-Contracts/contracts/NFTAttachment.sol",
  "compiler": {
    "name": "solc",
    "version": "0.8.4+commit.c7e474f2.Emscripten.clang"
  },
  "schemaVersion": "3.4.4",
  "updatedAt": "2022-02-10T11:57:25.292Z",
  "networkType": "ethereum",
  "devdoc": {
    "kind": "dev",
    "methods": {
      "getRoleAdmin(bytes32)": {
        "details": "Returns the admin role that controls `role`. See {grantRole} and {revokeRole}. To change a role's admin, use {_setRoleAdmin}."
      },
      "grantRole(bytes32,address)": {
        "details": "Grants `role` to `account`. If `account` had not been already granted `role`, emits a {RoleGranted} event. Requirements: - the caller must have ``role``'s admin role."
      },
      "hasRole(bytes32,address)": {
        "details": "Returns `true` if `account` has been granted `role`."
      },
      "renounceRole(bytes32,address)": {
        "details": "Revokes `role` from the calling account. Roles are often managed via {grantRole} and {revokeRole}: this function's purpose is to provide a mechanism for accounts to lose their privileges if they are compromised (such as when a trusted device is misplaced). If the calling account had been granted `role`, emits a {RoleRevoked} event. Requirements: - the caller must be `account`."
      },
      "revokeRole(bytes32,address)": {
        "details": "Revokes `role` from `account`. If `account` had been granted `role`, emits a {RoleRevoked} event. Requirements: - the caller must have ``role``'s admin role."
      },
      "supportsInterface(bytes4)": {
        "details": "See {IERC165-supportsInterface}."
      }
    },
    "version": 1
  },
  "userdoc": {
    "events": {
      "AnonymAttachToNFT(address,uint256,bytes)": {
        "notice": "The account `anonym` wished to attach data `attachment` to the NFT type `nftId`. There is absolutely no validation. It is the responsibility of the reader of this event to decide who the sender is and what the attachment means."
      },
      "MinterAttachToNFT(address,uint256,bytes)": {
        "notice": "The account `minter` wished to attach data `attachment` to the NFT type `nftId`. The `minter` is the minter who created this NFT type, or may create it in the future if it does not exist."
      },
      "OwnerAttachToNFT(address,uint256,bytes)": {
        "notice": "The account `owner` wished to attach data `attachment` to the NFT type `nftId`. The `owner` owned at least one NFT of this type at the time of the event."
      }
    },
    "kind": "user",
    "methods": {
      "_minterFromNftId(uint256)": {
        "notice": "Parse an NFT ID into its issuer, its supply, and an arbitrary nonce. This does not imply that the NFTs exist. This is specific to Freeport NFTs. See `freeportParts/Issuance.sol`"
      },
      "anonymAttachToNFT(uint256,bytes)": {
        "notice": "Attach data `attachment` to the NFT type `nftId`, as any account."
      },
      "freeport()": {
        "notice": "This attachment contract refers to the NFT contract in this variable."
      },
      "initialize(address)": {
        "notice": "Set which NFT contract to refer to. The event `MinterAttachToNFT` is only supported for Freeport-compatible NFTs. The event `OwnerAttachToNFT` is supported for ERC-1155 NFTs, including Freeport."
      },
      "minterAttachToNFT(uint256,bytes)": {
        "notice": "Attach data `attachment` to the NFT type `nftId`, as the minter of this NFT type. This only works for NFT IDs in the Freeport format."
      },
      "ownerAttachToNFT(uint256,bytes)": {
        "notice": "Attach data `attachment` to the NFT type `nftId`, as a current owner of an NFT of this type. This works for NFTs in the ERC-1155 or Freeport standards."
      }
    },
    "notice": "The contract NFTAttachment allows users to attach objects to NFTs. Some application can listen for the events and interpret the objects in some way. There are three roles who can attach objects to an NFT: the minter, any current owner, or any anonymous account. A different event is emitted for each role. The attachment data is meant to identify an object hosted externally, such as a CID, a.k.a. Content Identifier, or a DDC URL. The content may be retrieved from Cere DDC or some other store.",
    "version": 1
  }
}