{
  "contractName": "SimpleAuction",
  "abi": [
    {
      "inputs": [
        {
          "internalType": "contract Davinci",
          "name": "_davinci",
          "type": "address"
        }
      ],
      "stateMutability": "nonpayable",
      "type": "constructor"
    },
    {
      "anonymous": false,
      "inputs": [
        {
          "indexed": true,
          "internalType": "address",
          "name": "seller",
          "type": "address"
        },
        {
          "indexed": true,
          "internalType": "uint256",
          "name": "nftId",
          "type": "uint256"
        },
        {
          "indexed": false,
          "internalType": "uint256",
          "name": "price",
          "type": "uint256"
        },
        {
          "indexed": false,
          "internalType": "uint256",
          "name": "closeTimeSec",
          "type": "uint256"
        },
        {
          "indexed": false,
          "internalType": "address",
          "name": "buyer",
          "type": "address"
        }
      ],
      "name": "BidOnAuction",
      "type": "event"
    },
    {
      "anonymous": false,
      "inputs": [
        {
          "indexed": true,
          "internalType": "bytes32",
          "name": "role",
          "type": "bytes32"
        },
        {
          "indexed": true,
          "internalType": "bytes32",
          "name": "previousAdminRole",
          "type": "bytes32"
        },
        {
          "indexed": true,
          "internalType": "bytes32",
          "name": "newAdminRole",
          "type": "bytes32"
        }
      ],
      "name": "RoleAdminChanged",
      "type": "event"
    },
    {
      "anonymous": false,
      "inputs": [
        {
          "indexed": true,
          "internalType": "bytes32",
          "name": "role",
          "type": "bytes32"
        },
        {
          "indexed": true,
          "internalType": "address",
          "name": "account",
          "type": "address"
        },
        {
          "indexed": true,
          "internalType": "address",
          "name": "sender",
          "type": "address"
        }
      ],
      "name": "RoleGranted",
      "type": "event"
    },
    {
      "anonymous": false,
      "inputs": [
        {
          "indexed": true,
          "internalType": "bytes32",
          "name": "role",
          "type": "bytes32"
        },
        {
          "indexed": true,
          "internalType": "address",
          "name": "account",
          "type": "address"
        },
        {
          "indexed": true,
          "internalType": "address",
          "name": "sender",
          "type": "address"
        }
      ],
      "name": "RoleRevoked",
      "type": "event"
    },
    {
      "anonymous": false,
      "inputs": [
        {
          "indexed": true,
          "internalType": "address",
          "name": "seller",
          "type": "address"
        },
        {
          "indexed": true,
          "internalType": "uint256",
          "name": "nftId",
          "type": "uint256"
        },
        {
          "indexed": false,
          "internalType": "uint256",
          "name": "price",
          "type": "uint256"
        },
        {
          "indexed": false,
          "internalType": "address",
          "name": "buyer",
          "type": "address"
        }
      ],
      "name": "SettleAuction",
      "type": "event"
    },
    {
      "anonymous": false,
      "inputs": [
        {
          "indexed": true,
          "internalType": "address",
          "name": "seller",
          "type": "address"
        },
        {
          "indexed": true,
          "internalType": "uint256",
          "name": "nftId",
          "type": "uint256"
        },
        {
          "indexed": false,
          "internalType": "uint256",
          "name": "price",
          "type": "uint256"
        },
        {
          "indexed": false,
          "internalType": "uint256",
          "name": "closeTimeSec",
          "type": "uint256"
        }
      ],
      "name": "StartAuction",
      "type": "event"
    },
    {
      "inputs": [],
      "name": "CURRENCY",
      "outputs": [
        {
          "internalType": "uint256",
          "name": "",
          "type": "uint256"
        }
      ],
      "stateMutability": "view",
      "type": "function",
      "constant": true
    },
    {
      "inputs": [],
      "name": "DEFAULT_ADMIN_ROLE",
      "outputs": [
        {
          "internalType": "bytes32",
          "name": "",
          "type": "bytes32"
        }
      ],
      "stateMutability": "view",
      "type": "function",
      "constant": true
    },
    {
      "inputs": [],
      "name": "META_TX_FORWARDER",
      "outputs": [
        {
          "internalType": "bytes32",
          "name": "",
          "type": "bytes32"
        }
      ],
      "stateMutability": "view",
      "type": "function",
      "constant": true
    },
    {
      "inputs": [],
      "name": "davinci",
      "outputs": [
        {
          "internalType": "contract Davinci",
          "name": "",
          "type": "address"
        }
      ],
      "stateMutability": "view",
      "type": "function",
      "constant": true
    },
    {
      "inputs": [
        {
          "internalType": "bytes32",
          "name": "role",
          "type": "bytes32"
        }
      ],
      "name": "getRoleAdmin",
      "outputs": [
        {
          "internalType": "bytes32",
          "name": "",
          "type": "bytes32"
        }
      ],
      "stateMutability": "view",
      "type": "function",
      "constant": true
    },
    {
      "inputs": [
        {
          "internalType": "bytes32",
          "name": "role",
          "type": "bytes32"
        },
        {
          "internalType": "address",
          "name": "account",
          "type": "address"
        }
      ],
      "name": "grantRole",
      "outputs": [],
      "stateMutability": "nonpayable",
      "type": "function"
    },
    {
      "inputs": [
        {
          "internalType": "bytes32",
          "name": "role",
          "type": "bytes32"
        },
        {
          "internalType": "address",
          "name": "account",
          "type": "address"
        }
      ],
      "name": "hasRole",
      "outputs": [
        {
          "internalType": "bool",
          "name": "",
          "type": "bool"
        }
      ],
      "stateMutability": "view",
      "type": "function",
      "constant": true
    },
    {
      "inputs": [
        {
          "internalType": "address",
          "name": "forwarder",
          "type": "address"
        }
      ],
      "name": "isTrustedForwarder",
      "outputs": [
        {
          "internalType": "bool",
          "name": "",
          "type": "bool"
        }
      ],
      "stateMutability": "view",
      "type": "function",
      "constant": true
    },
    {
      "inputs": [
        {
          "internalType": "address",
          "name": "",
          "type": "address"
        },
        {
          "internalType": "address",
          "name": "",
          "type": "address"
        },
        {
          "internalType": "uint256[]",
          "name": "",
          "type": "uint256[]"
        },
        {
          "internalType": "uint256[]",
          "name": "",
          "type": "uint256[]"
        },
        {
          "internalType": "bytes",
          "name": "",
          "type": "bytes"
        }
      ],
      "name": "onERC1155BatchReceived",
      "outputs": [
        {
          "internalType": "bytes4",
          "name": "",
          "type": "bytes4"
        }
      ],
      "stateMutability": "nonpayable",
      "type": "function"
    },
    {
      "inputs": [
        {
          "internalType": "address",
          "name": "",
          "type": "address"
        },
        {
          "internalType": "address",
          "name": "",
          "type": "address"
        },
        {
          "internalType": "uint256",
          "name": "",
          "type": "uint256"
        },
        {
          "internalType": "uint256",
          "name": "",
          "type": "uint256"
        },
        {
          "internalType": "bytes",
          "name": "",
          "type": "bytes"
        }
      ],
      "name": "onERC1155Received",
      "outputs": [
        {
          "internalType": "bytes4",
          "name": "",
          "type": "bytes4"
        }
      ],
      "stateMutability": "nonpayable",
      "type": "function"
    },
    {
      "inputs": [
        {
          "internalType": "bytes32",
          "name": "role",
          "type": "bytes32"
        },
        {
          "internalType": "address",
          "name": "account",
          "type": "address"
        }
      ],
      "name": "renounceRole",
      "outputs": [],
      "stateMutability": "nonpayable",
      "type": "function"
    },
    {
      "inputs": [
        {
          "internalType": "bytes32",
          "name": "role",
          "type": "bytes32"
        },
        {
          "internalType": "address",
          "name": "account",
          "type": "address"
        }
      ],
      "name": "revokeRole",
      "outputs": [],
      "stateMutability": "nonpayable",
      "type": "function"
    },
    {
      "inputs": [
        {
          "internalType": "bytes4",
          "name": "interfaceId",
          "type": "bytes4"
        }
      ],
      "name": "supportsInterface",
      "outputs": [
        {
          "internalType": "bool",
          "name": "",
          "type": "bool"
        }
      ],
      "stateMutability": "view",
      "type": "function",
      "constant": true
    },
    {
      "inputs": [
        {
          "internalType": "uint256",
          "name": "nftId",
          "type": "uint256"
        },
        {
          "internalType": "uint256",
          "name": "minPrice",
          "type": "uint256"
        },
        {
          "internalType": "uint256",
          "name": "closeTimeSec",
          "type": "uint256"
        }
      ],
      "name": "startAuction",
      "outputs": [],
      "stateMutability": "nonpayable",
      "type": "function"
    },
    {
      "inputs": [
        {
          "internalType": "address",
          "name": "seller",
          "type": "address"
        },
        {
          "internalType": "uint256",
          "name": "nftId",
          "type": "uint256"
        },
        {
          "internalType": "uint256",
          "name": "price",
          "type": "uint256"
        }
      ],
      "name": "bidOnAuction",
      "outputs": [],
      "stateMutability": "nonpayable",
      "type": "function"
    },
    {
      "inputs": [
        {
          "internalType": "address",
          "name": "seller",
          "type": "address"
        },
        {
          "internalType": "uint256",
          "name": "nftId",
          "type": "uint256"
        }
      ],
      "name": "settleAuction",
      "outputs": [],
      "stateMutability": "nonpayable",
      "type": "function"
    }
  ],
  "bytecode": "0x608060405234801561001057600080fd5b5060405161149b38038061149b83398101604081905261002f91610054565b600180546001600160a01b0319166001600160a01b0392909216919091179055610082565b600060208284031215610065578081fd5b81516001600160a01b038116811461007b578182fd5b9392505050565b61140a806100916000396000f3fe608060405234801561001057600080fd5b50600436106100d05760003560e01c806301ffc9a7146100d55780630ec57d51146100fd578063248a9ca3146101285780632f2ff15d1461014957806336568abe1461015e5780635138b08c14610171578063572b6c051461018457806391d148541461019757806391e078bb146101aa5780639a86e8ce146101bd578063a217fddf146101d2578063bc197c81146101da578063d547741f14610212578063ea46d76c14610225578063f23a6e6114610238578063f5361219146101d2575b600080fd5b6100e86100e336600461118d565b610257565b60405190151581526020015b60405180910390f35b600154610110906001600160a01b031681565b6040516001600160a01b0390911681526020016100f4565b61013b61013636600461114a565b610277565b6040519081526020016100f4565b61015c610157366004611162565b61028c565b005b61015c61016c366004611162565b6102b5565b61015c61017f3660046110ef565b610348565b6100e8610192366004610fce565b6105c7565b6100e86101a5366004611162565b6105dd565b61015c6101b83660046111b5565b610606565b61013b6000805160206113b583398151915281565b61013b600081565b6101f96101e8366004610fe8565b63bc197c8160e01b95945050505050565b6040516001600160e01b031990911681526020016100f4565b61015c610220366004611162565b61082e565b61015c610233366004611118565b61084d565b6101f961024636600461108d565b63f23a6e6160e01b95945050505050565b600061026282610af6565b80610271575061027182610b2b565b92915050565b60009081526020819052604090206001015490565b61029582610277565b6102a6816102a1610b50565b610b72565b6102b08383610bd6565b505050565b6102bd610b50565b6001600160a01b0316816001600160a01b03161461033a5760405162461bcd60e51b815260206004820152602f60248201527f416363657373436f6e74726f6c3a2063616e206f6e6c792072656e6f756e636560448201526e103937b632b9903337b91039b2b63360891b60648201526084015b60405180910390fd5b6103448282610c5b565b5050565b6001600160a01b0382166000908152600260208181526040808420858552909152909120908101546103b55760405162461bcd60e51b81526020600482015260166024820152751d1a1948185d58dd1a5bdb881b5d5cdd08195e1a5cdd60521b6044820152606401610331565b42816002015411156104065760405162461bcd60e51b815260206004820152601a6024820152791d1a1948185d58dd1a5bdb881b5d5cdd0818994818db1bdcd95960321b6044820152606401610331565b805460018201546001600160a01b039091169081156104f457600154604051637921219560e11b81526001600160a01b039091169063f242432a906104569030908990600090879060040161124f565b600060405180830381600087803b15801561047057600080fd5b505af1158015610484573d6000803e3d6000fd5b505060018054604051637921219560e11b81526001600160a01b03909116935063f242432a92506104bd91309187918a9160040161124f565b600060405180830381600087803b1580156104d757600080fd5b505af11580156104eb573d6000803e3d6000fd5b5050505061055c565b60018054604051637921219560e11b81526001600160a01b039091169163f242432a916105299130918a918a9160040161124f565b600060405180830381600087803b15801561054357600080fd5b505af1158015610557573d6000803e3d6000fd5b505050505b82546001600160a01b03191683556000600184018190556002840155604080518281526001600160a01b0384811660208301528692908816917ffe2c1531a975fce0584787c5e2643df8c1fe92f870c9dbadb24e366e31e79f44910160405180910390a35050505050565b60006102716000805160206113b5833981519152835b6000918252602082815260408084206001600160a01b0393909316845291905290205460ff1690565b6000610610610b50565b6001600160a01b03811660009081526002602081815260408084208985529091529091209081015491925090156106865760405162461bcd60e51b815260206004820152601a6024820152791d1a1948185d58dd1a5bdb881b5d5cdd081b9bdd08195e1a5cdd60321b6044820152606401610331565b8242106106e15760405162461bcd60e51b8152602060048201526024808201527f74686520636c6f73652074696d65206d75737420626520696e207468652066756044820152637475726560e01b6064820152608401610331565b6000606e6106f0866064611322565b6106fa9190611302565b90506000811161075e5760405162461bcd60e51b815260206004820152602960248201527f746865207374617274696e67207072696365206d75737420626520677265617460448201526806572207468616e20360bc1b6064820152608401610331565b81546001600160a01b03191682556001808301829055600283018590558054604051637921219560e11b81526001600160a01b039091169163f242432a916107ae91879130918c9160040161124f565b600060405180830381600087803b1580156107c857600080fd5b505af11580156107dc573d6000803e3d6000fd5b505060408051848152602081018890528993506001600160a01b03871692507f5135842dc9522996ca3d92189d0ded7e70ecbfc5545c115def0c7bdb9ee41f2b910160405180910390a3505050505050565b61083782610277565b610843816102a1610b50565b6102b08383610c5b565b6000610857610b50565b6001600160a01b0385166000908152600260208181526040808420888552909152909120908101549192509042106108cc5760405162461bcd60e51b81526020600482015260186024820152773a34329030bab1ba34b7b71036bab9ba1031329037b832b760411b6044820152606401610331565b6108d8426102586112ea565b816002015410156108ff576102588160020160008282546108f991906112ea565b90915550505b60018101546000606461091383606e611322565b61091d9190611302565b90508085101561098a5760405162461bcd60e51b815260206004820152603260248201527f61206e657720626964206d757374206265203130252067726561746572207468604482015271185b881d1a194818dd5c9c995b9d08189a5960721b6064820152608401610331565b82546001600160a01b03168015610a0557600154604051637921219560e11b81526001600160a01b039091169063f242432a906109d29030908590600090899060040161124f565b600060405180830381600087803b1580156109ec57600080fd5b505af1158015610a00573d6000803e3d6000fd5b505050505b83546001600160a01b0319166001600160a01b03868116919091178555600180860188905554604051637921219560e11b815291169063f242432a90610a5690889030906000908c9060040161124f565b600060405180830381600087803b158015610a7057600080fd5b505af1158015610a84573d6000803e3d6000fd5b5050505086886001600160a01b03167f39e9b26db60de3ca88f045fdd8954028f1bbd0c6e2ff124121cb5a03da37019188876002015489604051610ae49392919092835260208301919091526001600160a01b0316604082015260600190565b60405180910390a35050505050505050565b60006001600160e01b03198216637965db0b60e01b148061027157506301ffc9a760e01b6001600160e01b0319831614610271565b60006001600160e01b03198216630271189760e51b1480610271575061027182610af6565b6000610b5b336105c7565b15610b6d575060131936013560601c90565b503390565b610b7c82826105dd565b61034457610b94816001600160a01b03166014610cde565b610b9f836020610cde565b604051602001610bb09291906111e0565b60408051601f198184030181529082905262461bcd60e51b825261033191600401611287565b610be082826105dd565b610344576000828152602081815260408083206001600160a01b03851684529091529020805460ff19166001179055610c17610b50565b6001600160a01b0316816001600160a01b0316837f2f8788117e7eff1d82e926ec794901d17c78024a50270940304540a733656f0d60405160405180910390a45050565b610c6582826105dd565b15610344576000828152602081815260408083206001600160a01b03851684529091529020805460ff19169055610c9a610b50565b6001600160a01b0316816001600160a01b0316837ff6391f5c32d9c69d2a47ea670b442974b53935d1edc7fd64eb21e047a839171b60405160405180910390a45050565b60606000610ced836002611322565b610cf89060026112ea565b6001600160401b03811115610d1d57634e487b7160e01b600052604160045260246000fd5b6040519080825280601f01601f191660200182016040528015610d47576020820181803683370190505b509050600360fc1b81600081518110610d7057634e487b7160e01b600052603260045260246000fd5b60200101906001600160f81b031916908160001a905350600f60fb1b81600181518110610dad57634e487b7160e01b600052603260045260246000fd5b60200101906001600160f81b031916908160001a9053506000610dd1846002611322565b610ddc9060016112ea565b90505b6001811115610e70576f181899199a1a9b1b9c1cb0b131b232b360811b85600f1660108110610e1e57634e487b7160e01b600052603260045260246000fd5b1a60f81b828281518110610e4257634e487b7160e01b600052603260045260246000fd5b60200101906001600160f81b031916908160001a90535060049490941c93610e6981611371565b9050610ddf565b508315610ebf5760405162461bcd60e51b815260206004820181905260248201527f537472696e67733a20686578206c656e67746820696e73756666696369656e746044820152606401610331565b9392505050565b80356001600160a01b0381168114610edd57600080fd5b919050565b600082601f830112610ef2578081fd5b813560206001600160401b03821115610f0d57610f0d61139e565b8160051b610f1c8282016112ba565b838152828101908684018388018501891015610f36578687fd5b8693505b85841015610f58578035835260019390930192918401918401610f3a565b50979650505050505050565b600082601f830112610f74578081fd5b81356001600160401b03811115610f8d57610f8d61139e565b610fa0601f8201601f19166020016112ba565b818152846020838601011115610fb4578283fd5b816020850160208301379081016020019190915292915050565b600060208284031215610fdf578081fd5b610ebf82610ec6565b600080600080600060a08688031215610fff578081fd5b61100886610ec6565b945061101660208701610ec6565b935060408601356001600160401b0380821115611031578283fd5b61103d89838a01610ee2565b94506060880135915080821115611052578283fd5b61105e89838a01610ee2565b93506080880135915080821115611073578283fd5b5061108088828901610f64565b9150509295509295909350565b600080600080600060a086880312156110a4578081fd5b6110ad86610ec6565b94506110bb60208701610ec6565b9350604086013592506060860135915060808601356001600160401b038111156110e3578182fd5b61108088828901610f64565b60008060408385031215611101578182fd5b61110a83610ec6565b946020939093013593505050565b60008060006060848603121561112c578283fd5b61113584610ec6565b95602085013595506040909401359392505050565b60006020828403121561115b578081fd5b5035919050565b60008060408385031215611174578182fd5b8235915061118460208401610ec6565b90509250929050565b60006020828403121561119e578081fd5b81356001600160e01b031981168114610ebf578182fd5b6000806000606084860312156111c9578283fd5b505081359360208301359350604090920135919050565b76020b1b1b2b9b9a1b7b73a3937b61d1030b1b1b7bab73a1604d1b815260008351611212816017850160208801611341565b7001034b99036b4b9b9b4b733903937b6329607d1b6017918401918201528351611243816028840160208801611341565b01602801949350505050565b6001600160a01b0394851681529290931660208301526040820152606081019190915260a06080820181905260009082015260c00190565b60208152600082518060208401526112a6816040850160208701611341565b601f01601f19169190910160400192915050565b604051601f8201601f191681016001600160401b03811182821017156112e2576112e261139e565b604052919050565b600082198211156112fd576112fd611388565b500190565b60008261131d57634e487b7160e01b81526012600452602481fd5b500490565b600081600019048311821515161561133c5761133c611388565b500290565b60005b8381101561135c578181015183820152602001611344565b8381111561136b576000848401525b50505050565b60008161138057611380611388565b506000190190565b634e487b7160e01b600052601160045260246000fd5b634e487b7160e01b600052604160045260246000fdfe3d2e894c222ba979e2dce2c7d940c0e9bb14306669e9f034eb1bb3979a2069d8a2646970667358221220b4c9bf294765b0d8fdbf07730611b72f87295b060ed662e09ff0cd9c19bf79c164736f6c63430008040033",
  "immutableReferences": {},
  "source": "pragma solidity ^0.8.0;\n\nimport \"./davinciParts/MetaTxContext.sol\";\nimport \"./Davinci.sol\";\nimport \"./token/ERC1155/utils/ERC1155Holder.sol\";\n\n\n/**\n- Make offers to sell NFTs by auction.\n- Bid.\n- Settle the sale.\n- Capture variable royalties.\n */\ncontract SimpleAuction is /* AccessControl, */ MetaTxContext, ERC1155Holder {\n\n    /** Supports interfaces of AccessControl and ERC1155Receiver.\n     */\n    function supportsInterface(bytes4 interfaceId)\n    public view virtual override(AccessControl, ERC1155Receiver) returns (bool) {\n        return AccessControl.supportsInterface(interfaceId)\n        || ERC1155Receiver.supportsInterface(interfaceId);\n    }\n\n    Davinci public davinci;\n\n    /** This contract must have the TRANSFER_OPERATOR role in the Davinci contract.\n     */\n    constructor(Davinci _davinci) {\n        davinci = _davinci;\n    }\n\n    /** The token ID that represents the CERE currency for all payments in this contract. */\n    uint256 public constant CURRENCY = 0;\n\n    struct Bid {\n        address buyer; // 0 means no buyer yet.\n        uint256 price; // The highest bid price. The initial value is set by the seller.\n        uint256 closeTimeSec; // Bidding is open until the close time. After this time, the settlement becomes possible. A non-zero value also means that the auction exists.\n    }\n\n    /** Seller => NFT ID => Bid.\n     */\n    mapping(address => mapping(uint256 => Bid)) sellerNftBids;\n\n    /**\n     */\n    event StartAuction(\n        address indexed seller,\n        uint256 indexed nftId,\n        uint256 price,\n        uint256 closeTimeSec);\n\n    /**\n     */\n    event BidOnAuction(\n        address indexed seller,\n        uint256 indexed nftId,\n        uint256 price,\n        uint256 closeTimeSec,\n        address buyer);\n\n    /**\n     */\n    event SettleAuction(\n        address indexed seller,\n        uint256 indexed nftId,\n        uint256 price,\n        address buyer); // buyer == 0 means no buyer, and the NFT went back to the seller.\n\n    /**\n     */\n    function startAuction(uint256 nftId, uint256 minPrice, uint closeTimeSec)\n    public {\n        address seller = _msgSender();\n        Bid storage bid = sellerNftBids[seller][nftId];\n\n        // Check that the auction does not exist.\n        require(bid.closeTimeSec == 0, \"the auction must not exist\");\n\n        // Check that the close time is non-zero and in the future.\n        require(block.timestamp < closeTimeSec, \"the close time must be in the future\");\n\n        // Deduct the minimum increment to work with the logic of minPrice in the function bid().\n        uint256 price = minPrice * 100 / 110;\n        require(price > 0, \"the starting price must be greater than 0\");\n\n        // TODO: Check that minPrice is greater than the fixed royalty, if any.\n\n        // Create the auction.\n        bid.buyer = address(0);\n        bid.price = price;\n        bid.closeTimeSec = closeTimeSec;\n\n        // Take the NFT from the seller.\n        davinci.safeTransferFrom(seller, address(this), nftId, 1, \"\");\n\n        emit StartAuction(seller, nftId, price, closeTimeSec);\n    }\n\n    /**\n     */\n    function bidOnAuction(address seller, uint256 nftId, uint256 price)\n    public {\n        address buyer = _msgSender();\n        Bid storage bid = sellerNftBids[seller][nftId];\n\n        // Check that the auction exists and is open.\n        require(block.timestamp < bid.closeTimeSec, \"the auction must be open\");\n\n        // Push back the end of the auction if it is too close.\n        if (bid.closeTimeSec < block.timestamp + 10 * 60) {\n            bid.closeTimeSec += 10 * 60;\n        }\n\n        // Check that the new bid is sufficiently large.\n        uint256 previousDeposit = bid.price;\n        uint minPrice = previousDeposit * 110 / 100;\n        require(price >= minPrice, \"a new bid must be 10% greater than the current bid\");\n\n        // Refund the previous buyer.\n        address previousBuyer = bid.buyer;\n        if (previousBuyer != address(0)) {\n            davinci.safeTransferFrom(address(this), previousBuyer, CURRENCY, previousDeposit, \"\");\n        }\n\n        // Take the new deposit from the new buyer.\n        bid.buyer = buyer;\n        bid.price = price;\n        davinci.safeTransferFrom(buyer, address(this), CURRENCY, price, \"\");\n\n        emit BidOnAuction(seller, nftId, price, bid.closeTimeSec, buyer);\n    }\n\n    function settleAuction(address seller, uint256 nftId)\n    public {\n        Bid storage bid = sellerNftBids[seller][nftId];\n\n        // Check that the auction exists.\n        require(bid.closeTimeSec != 0, \"the auction must exist\");\n\n        // Check that the auction is closed.\n        require(bid.closeTimeSec <= block.timestamp, \"the auction must be closed\");\n\n        address buyer = bid.buyer;\n        uint256 price = bid.price;\n\n        if (buyer != address(0)) {\n            // In case there was a buyer,\n            // transfer the payment to the seller.\n            davinci.safeTransferFrom(address(this), seller, CURRENCY, price, \"\");\n\n            // Transfer the NFT to the buyer.\n            davinci.safeTransferFrom(address(this), buyer, nftId, 1, \"\");\n\n            // Collect royalty.\n            // TODO: uncomment, requires a deployment of Davinci with public captureFee().\n            //davinci.captureFee(seller, nftId, price, 1);\n        } else {\n            // Otherwise, there was no buyer,\n            // give back the NFT to the seller.\n            davinci.safeTransferFrom(address(this), seller, nftId, 1, \"\");\n        }\n\n        // Reset the storage. Make the auction not exist anymore.\n        bid.buyer = address(0);\n        bid.price = 0;\n        bid.closeTimeSec = 0;\n\n        emit SettleAuction(seller, nftId, price, buyer);\n    }\n}\n",
  "sourcePath": "/home/a/CERE/davinci-nft/contracts/SimpleAuction.sol",
  "compiler": {
    "name": "solc",
    "version": "0.8.4+commit.c7e474f2.Emscripten.clang"
  },
  "schemaVersion": "3.4.1",
  "updatedAt": "2021-10-21T01:21:22.277Z",
  "networkType": "ethereum",
  "devdoc": {
    "kind": "dev",
    "methods": {
      "getRoleAdmin(bytes32)": {
        "details": "Returns the admin role that controls `role`. See {grantRole} and {revokeRole}. To change a role's admin, use {_setRoleAdmin}."
      },
      "grantRole(bytes32,address)": {
        "details": "Grants `role` to `account`. If `account` had not been already granted `role`, emits a {RoleGranted} event. Requirements: - the caller must have ``role``'s admin role."
      },
      "hasRole(bytes32,address)": {
        "details": "Returns `true` if `account` has been granted `role`."
      },
      "renounceRole(bytes32,address)": {
        "details": "Revokes `role` from the calling account. Roles are often managed via {grantRole} and {revokeRole}: this function's purpose is to provide a mechanism for accounts to lose their privileges if they are compromised (such as when a trusted device is misplaced). If the calling account had been granted `role`, emits a {RoleRevoked} event. Requirements: - the caller must be `account`."
      },
      "revokeRole(bytes32,address)": {
        "details": "Revokes `role` from `account`. If `account` had been granted `role`, emits a {RoleRevoked} event. Requirements: - the caller must have ``role``'s admin role."
      }
    },
    "version": 1
  },
  "userdoc": {
    "kind": "user",
    "methods": {
      "CURRENCY()": {
        "notice": "The token ID that represents the CERE currency for all payments in this contract. "
      },
      "constructor": {
        "notice": "This contract must have the TRANSFER_OPERATOR role in the Davinci contract."
      },
      "supportsInterface(bytes4)": {
        "notice": "Supports interfaces of AccessControl and ERC1155Receiver."
      }
    },
    "notice": "- Make offers to sell NFTs by auction. - Bid. - Settle the sale. - Capture variable royalties.",
    "version": 1
  }
}