{
  "contractName": "TestFreeport2",
  "abi": [
    {
      "anonymous": false,
      "inputs": [
        {
          "indexed": false,
          "internalType": "address",
          "name": "previousAdmin",
          "type": "address"
        },
        {
          "indexed": false,
          "internalType": "address",
          "name": "newAdmin",
          "type": "address"
        }
      ],
      "name": "AdminChanged",
      "type": "event"
    },
    {
      "anonymous": false,
      "inputs": [
        {
          "indexed": true,
          "internalType": "address",
          "name": "account",
          "type": "address"
        },
        {
          "indexed": true,
          "internalType": "address",
          "name": "operator",
          "type": "address"
        },
        {
          "indexed": false,
          "internalType": "bool",
          "name": "approved",
          "type": "bool"
        }
      ],
      "name": "ApprovalForAll",
      "type": "event"
    },
    {
      "anonymous": false,
      "inputs": [
        {
          "indexed": true,
          "internalType": "address",
          "name": "beacon",
          "type": "address"
        }
      ],
      "name": "BeaconUpgraded",
      "type": "event"
    },
    {
      "anonymous": false,
      "inputs": [
        {
          "indexed": true,
          "internalType": "address",
          "name": "account",
          "type": "address"
        },
        {
          "indexed": true,
          "internalType": "address",
          "name": "owner",
          "type": "address"
        },
        {
          "indexed": false,
          "internalType": "uint256",
          "name": "fraction",
          "type": "uint256"
        }
      ],
      "name": "JointAccountShareCreated",
      "type": "event"
    },
    {
      "anonymous": false,
      "inputs": [
        {
          "indexed": true,
          "internalType": "address",
          "name": "seller",
          "type": "address"
        },
        {
          "indexed": true,
          "internalType": "uint256",
          "name": "nftId",
          "type": "uint256"
        },
        {
          "indexed": false,
          "internalType": "uint256",
          "name": "price",
          "type": "uint256"
        }
      ],
      "name": "MakeOffer",
      "type": "event"
    },
    {
      "anonymous": false,
      "inputs": [
        {
          "indexed": true,
          "internalType": "bytes32",
          "name": "role",
          "type": "bytes32"
        },
        {
          "indexed": true,
          "internalType": "bytes32",
          "name": "previousAdminRole",
          "type": "bytes32"
        },
        {
          "indexed": true,
          "internalType": "bytes32",
          "name": "newAdminRole",
          "type": "bytes32"
        }
      ],
      "name": "RoleAdminChanged",
      "type": "event"
    },
    {
      "anonymous": false,
      "inputs": [
        {
          "indexed": true,
          "internalType": "bytes32",
          "name": "role",
          "type": "bytes32"
        },
        {
          "indexed": true,
          "internalType": "address",
          "name": "account",
          "type": "address"
        },
        {
          "indexed": true,
          "internalType": "address",
          "name": "sender",
          "type": "address"
        }
      ],
      "name": "RoleGranted",
      "type": "event"
    },
    {
      "anonymous": false,
      "inputs": [
        {
          "indexed": true,
          "internalType": "bytes32",
          "name": "role",
          "type": "bytes32"
        },
        {
          "indexed": true,
          "internalType": "address",
          "name": "account",
          "type": "address"
        },
        {
          "indexed": true,
          "internalType": "address",
          "name": "sender",
          "type": "address"
        }
      ],
      "name": "RoleRevoked",
      "type": "event"
    },
    {
      "anonymous": false,
      "inputs": [
        {
          "indexed": true,
          "internalType": "uint256",
          "name": "nftId",
          "type": "uint256"
        },
        {
          "indexed": false,
          "internalType": "address",
          "name": "primaryRoyaltyAccount",
          "type": "address"
        },
        {
          "indexed": false,
          "internalType": "uint256",
          "name": "primaryRoyaltyCut",
          "type": "uint256"
        },
        {
          "indexed": false,
          "internalType": "uint256",
          "name": "primaryRoyaltyMinimum",
          "type": "uint256"
        },
        {
          "indexed": false,
          "internalType": "address",
          "name": "secondaryRoyaltyAccount",
          "type": "address"
        },
        {
          "indexed": false,
          "internalType": "uint256",
          "name": "secondaryRoyaltyCut",
          "type": "uint256"
        },
        {
          "indexed": false,
          "internalType": "uint256",
          "name": "secondaryRoyaltyMinimum",
          "type": "uint256"
        }
      ],
      "name": "RoyaltiesConfigured",
      "type": "event"
    },
    {
      "anonymous": false,
      "inputs": [
        {
          "indexed": true,
          "internalType": "uint256",
          "name": "nftId",
          "type": "uint256"
        },
        {
          "indexed": false,
          "internalType": "uint256",
          "name": "lockUntil",
          "type": "uint256"
        }
      ],
      "name": "RoyaltiesLocked",
      "type": "event"
    },
    {
      "anonymous": false,
      "inputs": [
        {
          "indexed": true,
          "internalType": "address",
          "name": "buyer",
          "type": "address"
        },
        {
          "indexed": true,
          "internalType": "address",
          "name": "seller",
          "type": "address"
        },
        {
          "indexed": true,
          "internalType": "uint256",
          "name": "nftId",
          "type": "uint256"
        },
        {
          "indexed": false,
          "internalType": "uint256",
          "name": "price",
          "type": "uint256"
        },
        {
          "indexed": false,
          "internalType": "uint256",
          "name": "amount",
          "type": "uint256"
        }
      ],
      "name": "TakeOffer",
      "type": "event"
    },
    {
      "anonymous": false,
      "inputs": [
        {
          "indexed": true,
          "internalType": "address",
          "name": "operator",
          "type": "address"
        },
        {
          "indexed": true,
          "internalType": "address",
          "name": "from",
          "type": "address"
        },
        {
          "indexed": true,
          "internalType": "address",
          "name": "to",
          "type": "address"
        },
        {
          "indexed": false,
          "internalType": "uint256[]",
          "name": "ids",
          "type": "uint256[]"
        },
        {
          "indexed": false,
          "internalType": "uint256[]",
          "name": "values",
          "type": "uint256[]"
        }
      ],
      "name": "TransferBatch",
      "type": "event"
    },
    {
      "anonymous": false,
      "inputs": [
        {
          "indexed": true,
          "internalType": "address",
          "name": "operator",
          "type": "address"
        },
        {
          "indexed": true,
          "internalType": "address",
          "name": "from",
          "type": "address"
        },
        {
          "indexed": true,
          "internalType": "address",
          "name": "to",
          "type": "address"
        },
        {
          "indexed": false,
          "internalType": "uint256",
          "name": "id",
          "type": "uint256"
        },
        {
          "indexed": false,
          "internalType": "uint256",
          "name": "value",
          "type": "uint256"
        }
      ],
      "name": "TransferSingle",
      "type": "event"
    },
    {
      "anonymous": false,
      "inputs": [
        {
          "indexed": false,
          "internalType": "string",
          "name": "value",
          "type": "string"
        },
        {
          "indexed": true,
          "internalType": "uint256",
          "name": "id",
          "type": "uint256"
        }
      ],
      "name": "URI",
      "type": "event"
    },
    {
      "anonymous": false,
      "inputs": [
        {
          "indexed": true,
          "internalType": "address",
          "name": "implementation",
          "type": "address"
        }
      ],
      "name": "Upgraded",
      "type": "event"
    },
    {
      "inputs": [],
      "name": "BASIS_POINTS",
      "outputs": [
        {
          "internalType": "uint256",
          "name": "",
          "type": "uint256"
        }
      ],
      "stateMutability": "view",
      "type": "function"
    },
    {
      "inputs": [],
      "name": "BYPASS_SENDER",
      "outputs": [
        {
          "internalType": "bytes32",
          "name": "",
          "type": "bytes32"
        }
      ],
      "stateMutability": "view",
      "type": "function"
    },
    {
      "inputs": [],
      "name": "CURRENCY",
      "outputs": [
        {
          "internalType": "uint256",
          "name": "",
          "type": "uint256"
        }
      ],
      "stateMutability": "view",
      "type": "function"
    },
    {
      "inputs": [],
      "name": "DEFAULT_ADMIN_ROLE",
      "outputs": [
        {
          "internalType": "bytes32",
          "name": "",
          "type": "bytes32"
        }
      ],
      "stateMutability": "view",
      "type": "function"
    },
    {
      "inputs": [],
      "name": "MAX_JOINT_ACCOUNT_SHARES",
      "outputs": [
        {
          "internalType": "uint256",
          "name": "",
          "type": "uint256"
        }
      ],
      "stateMutability": "view",
      "type": "function"
    },
    {
      "inputs": [],
      "name": "META_TX_FORWARDER",
      "outputs": [
        {
          "internalType": "bytes32",
          "name": "",
          "type": "bytes32"
        }
      ],
      "stateMutability": "view",
      "type": "function"
    },
    {
      "inputs": [],
      "name": "TRANSFER_OPERATOR",
      "outputs": [
        {
          "internalType": "bytes32",
          "name": "",
          "type": "bytes32"
        }
      ],
      "stateMutability": "view",
      "type": "function"
    },
    {
      "inputs": [
        {
          "internalType": "address",
          "name": "account",
          "type": "address"
        },
        {
          "internalType": "uint256",
          "name": "id",
          "type": "uint256"
        }
      ],
      "name": "balanceOf",
      "outputs": [
        {
          "internalType": "uint256",
          "name": "",
          "type": "uint256"
        }
      ],
      "stateMutability": "view",
      "type": "function"
    },
    {
      "inputs": [
        {
          "internalType": "address[]",
          "name": "accounts",
          "type": "address[]"
        },
        {
          "internalType": "uint256[]",
          "name": "ids",
          "type": "uint256[]"
        }
      ],
      "name": "balanceOfBatch",
      "outputs": [
        {
          "internalType": "uint256[]",
          "name": "",
          "type": "uint256[]"
        }
      ],
      "stateMutability": "view",
      "type": "function"
    },
    {
      "inputs": [
        {
          "internalType": "address",
          "name": "account",
          "type": "address"
        },
        {
          "internalType": "address",
          "name": "owner",
          "type": "address"
        }
      ],
      "name": "balanceOfJAOwner",
      "outputs": [
        {
          "internalType": "uint256",
          "name": "",
          "type": "uint256"
        }
      ],
      "stateMutability": "view",
      "type": "function"
    },
    {
      "inputs": [
        {
          "internalType": "address",
          "name": "from",
          "type": "address"
        },
        {
          "internalType": "uint256",
          "name": "nftId",
          "type": "uint256"
        },
        {
          "internalType": "uint256",
          "name": "price",
          "type": "uint256"
        },
        {
          "internalType": "uint256",
          "name": "amount",
          "type": "uint256"
        }
      ],
      "name": "captureFee",
      "outputs": [
        {
          "internalType": "uint256",
          "name": "",
          "type": "uint256"
        }
      ],
      "stateMutability": "nonpayable",
      "type": "function"
    },
    {
      "inputs": [
        {
          "internalType": "uint256",
          "name": "nftId",
          "type": "uint256"
        },
        {
          "internalType": "address",
          "name": "primaryRoyaltyAccount",
          "type": "address"
        },
        {
          "internalType": "uint256",
          "name": "primaryRoyaltyCut",
          "type": "uint256"
        },
        {
          "internalType": "uint256",
          "name": "primaryRoyaltyMinimum",
          "type": "uint256"
        },
        {
          "internalType": "address",
          "name": "secondaryRoyaltyAccount",
          "type": "address"
        },
        {
          "internalType": "uint256",
          "name": "secondaryRoyaltyCut",
          "type": "uint256"
        },
        {
          "internalType": "uint256",
          "name": "secondaryRoyaltyMinimum",
          "type": "uint256"
        }
      ],
      "name": "configureRoyalties",
      "outputs": [],
      "stateMutability": "nonpayable",
      "type": "function"
    },
    {
      "inputs": [
        {
          "internalType": "address[]",
          "name": "owners",
          "type": "address[]"
        },
        {
          "internalType": "uint256[]",
          "name": "fractions",
          "type": "uint256[]"
        }
      ],
      "name": "createJointAccount",
      "outputs": [
        {
          "internalType": "address",
          "name": "",
          "type": "address"
        }
      ],
      "stateMutability": "nonpayable",
      "type": "function"
    },
    {
      "inputs": [],
      "name": "currencyContract",
      "outputs": [
        {
          "internalType": "contract IERC20",
          "name": "",
          "type": "address"
        }
      ],
      "stateMutability": "view",
      "type": "function"
    },
    {
      "inputs": [
        {
          "internalType": "uint256",
          "name": "amount",
          "type": "uint256"
        }
      ],
      "name": "deposit",
      "outputs": [],
      "stateMutability": "nonpayable",
      "type": "function"
    },
    {
      "inputs": [
        {
          "internalType": "address",
          "name": "account",
          "type": "address"
        }
      ],
      "name": "distributeJointAccount",
      "outputs": [],
      "stateMutability": "nonpayable",
      "type": "function"
    },
    {
      "inputs": [
        {
          "internalType": "address",
          "name": "account",
          "type": "address"
        },
        {
          "internalType": "address",
          "name": "maybeOwner",
          "type": "address"
        }
      ],
      "name": "fractionOfJAOwner",
      "outputs": [
        {
          "internalType": "uint256",
          "name": "",
          "type": "uint256"
        }
      ],
      "stateMutability": "view",
      "type": "function"
    },
    {
      "inputs": [
        {
          "internalType": "address",
          "name": "issuer",
          "type": "address"
        },
        {
          "internalType": "uint32",
          "name": "nonce",
          "type": "uint32"
        },
        {
          "internalType": "uint64",
          "name": "supply",
          "type": "uint64"
        }
      ],
      "name": "getNftId",
      "outputs": [
        {
          "internalType": "uint256",
          "name": "",
          "type": "uint256"
        }
      ],
      "stateMutability": "pure",
      "type": "function"
    },
    {
      "inputs": [
        {
          "internalType": "address",
          "name": "seller",
          "type": "address"
        },
        {
          "internalType": "uint256",
          "name": "nftId",
          "type": "uint256"
        }
      ],
      "name": "getOffer",
      "outputs": [
        {
          "internalType": "uint256",
          "name": "",
          "type": "uint256"
        }
      ],
      "stateMutability": "view",
      "type": "function"
    },
    {
      "inputs": [
        {
          "internalType": "bytes32",
          "name": "role",
          "type": "bytes32"
        }
      ],
      "name": "getRoleAdmin",
      "outputs": [
        {
          "internalType": "bytes32",
          "name": "",
          "type": "bytes32"
        }
      ],
      "stateMutability": "view",
      "type": "function"
    },
    {
      "inputs": [
        {
          "internalType": "uint256",
          "name": "nftId",
          "type": "uint256"
        }
      ],
      "name": "getRoyalties",
      "outputs": [
        {
          "internalType": "address",
          "name": "primaryRoyaltyAccount",
          "type": "address"
        },
        {
          "internalType": "uint256",
          "name": "primaryRoyaltyCut",
          "type": "uint256"
        },
        {
          "internalType": "uint256",
          "name": "primaryRoyaltyMinimum",
          "type": "uint256"
        },
        {
          "internalType": "address",
          "name": "secondaryRoyaltyAccount",
          "type": "address"
        },
        {
          "internalType": "uint256",
          "name": "secondaryRoyaltyCut",
          "type": "uint256"
        },
        {
          "internalType": "uint256",
          "name": "secondaryRoyaltyMinimum",
          "type": "uint256"
        }
      ],
      "stateMutability": "view",
      "type": "function"
    },
    {
      "inputs": [
        {
          "internalType": "uint256",
          "name": "nftId",
          "type": "uint256"
        },
        {
          "internalType": "address",
          "name": "beneficiary",
          "type": "address"
        }
      ],
      "name": "getRoyaltiesForBeneficiary",
      "outputs": [
        {
          "internalType": "uint256",
          "name": "primaryCut",
          "type": "uint256"
        },
        {
          "internalType": "uint256",
          "name": "primaryMinimum",
          "type": "uint256"
        },
        {
          "internalType": "uint256",
          "name": "secondaryCut",
          "type": "uint256"
        },
        {
          "internalType": "uint256",
          "name": "secondaryMinimum",
          "type": "uint256"
        }
      ],
      "stateMutability": "view",
      "type": "function"
    },
    {
      "inputs": [
        {
          "internalType": "bytes32",
          "name": "role",
          "type": "bytes32"
        },
        {
          "internalType": "address",
          "name": "account",
          "type": "address"
        }
      ],
      "name": "grantRole",
      "outputs": [],
      "stateMutability": "nonpayable",
      "type": "function"
    },
    {
      "inputs": [
        {
          "internalType": "bytes32",
          "name": "role",
          "type": "bytes32"
        },
        {
          "internalType": "address",
          "name": "account",
          "type": "address"
        }
      ],
      "name": "hasRole",
      "outputs": [
        {
          "internalType": "bool",
          "name": "",
          "type": "bool"
        }
      ],
      "stateMutability": "view",
      "type": "function"
    },
    {
      "inputs": [],
      "name": "initialize",
      "outputs": [],
      "stateMutability": "nonpayable",
      "type": "function"
    },
    {
      "inputs": [
        {
          "internalType": "address",
          "name": "account",
          "type": "address"
        },
        {
          "internalType": "address",
          "name": "operator",
          "type": "address"
        }
      ],
      "name": "isApprovedForAll",
      "outputs": [
        {
          "internalType": "bool",
          "name": "",
          "type": "bool"
        }
      ],
      "stateMutability": "view",
      "type": "function"
    },
    {
      "inputs": [
        {
          "internalType": "address",
          "name": "forwarder",
          "type": "address"
        }
      ],
      "name": "isTrustedForwarder",
      "outputs": [
        {
          "internalType": "bool",
          "name": "",
          "type": "bool"
        }
      ],
      "stateMutability": "view",
      "type": "function"
    },
    {
      "inputs": [
        {
          "internalType": "address",
          "name": "",
          "type": "address"
        }
      ],
      "name": "issuanceNonces",
      "outputs": [
        {
          "internalType": "uint32",
          "name": "",
          "type": "uint32"
        }
      ],
      "stateMutability": "view",
      "type": "function"
    },
    {
      "inputs": [
        {
          "internalType": "uint64",
          "name": "supply",
          "type": "uint64"
        },
        {
          "internalType": "bytes",
          "name": "data",
          "type": "bytes"
        }
      ],
      "name": "issue",
      "outputs": [
        {
          "internalType": "uint256",
          "name": "",
          "type": "uint256"
        }
      ],
      "stateMutability": "nonpayable",
      "type": "function"
    },
    {
      "inputs": [
        {
          "internalType": "address",
          "name": "",
          "type": "address"
        },
        {
          "internalType": "uint256",
          "name": "",
          "type": "uint256"
        }
      ],
      "name": "jointAccounts",
      "outputs": [
        {
          "internalType": "address",
          "name": "owner",
          "type": "address"
        },
        {
          "internalType": "uint256",
          "name": "fraction",
          "type": "uint256"
        }
      ],
      "stateMutability": "view",
      "type": "function"
    },
    {
      "inputs": [
        {
          "internalType": "uint256",
          "name": "nftId",
          "type": "uint256"
        },
        {
          "internalType": "uint256",
          "name": "lockUntil",
          "type": "uint256"
        }
      ],
      "name": "lockRoyalties",
      "outputs": [],
      "stateMutability": "nonpayable",
      "type": "function"
    },
    {
      "inputs": [
        {
          "internalType": "address[]",
          "name": "owners",
          "type": "address[]"
        },
        {
          "internalType": "uint256[]",
          "name": "fractions",
          "type": "uint256[]"
        }
      ],
      "name": "makeAddressOfJointAccount",
      "outputs": [
        {
          "internalType": "address",
          "name": "",
          "type": "address"
        }
      ],
      "stateMutability": "pure",
      "type": "function"
    },
    {
      "inputs": [
        {
          "internalType": "uint256",
          "name": "nftId",
          "type": "uint256"
        },
        {
          "internalType": "uint256",
          "name": "price",
          "type": "uint256"
        }
      ],
      "name": "makeOffer",
      "outputs": [],
      "stateMutability": "nonpayable",
      "type": "function"
    },
    {
      "inputs": [
        {
          "internalType": "bytes32",
          "name": "role",
          "type": "bytes32"
        },
        {
          "internalType": "address",
          "name": "account",
          "type": "address"
        }
      ],
      "name": "renounceRole",
      "outputs": [],
      "stateMutability": "nonpayable",
      "type": "function"
    },
    {
      "inputs": [
        {
          "internalType": "bytes32",
          "name": "role",
          "type": "bytes32"
        },
        {
          "internalType": "address",
          "name": "account",
          "type": "address"
        }
      ],
      "name": "revokeRole",
      "outputs": [],
      "stateMutability": "nonpayable",
      "type": "function"
    },
    {
      "inputs": [
        {
          "internalType": "address",
          "name": "from",
          "type": "address"
        },
        {
          "internalType": "address",
          "name": "to",
          "type": "address"
        },
        {
          "internalType": "uint256[]",
          "name": "ids",
          "type": "uint256[]"
        },
        {
          "internalType": "uint256[]",
          "name": "amounts",
          "type": "uint256[]"
        },
        {
          "internalType": "bytes",
          "name": "data",
          "type": "bytes"
        }
      ],
      "name": "safeBatchTransferFrom",
      "outputs": [],
      "stateMutability": "nonpayable",
      "type": "function"
    },
    {
      "inputs": [
        {
          "internalType": "address",
          "name": "from",
          "type": "address"
        },
        {
          "internalType": "address",
          "name": "to",
          "type": "address"
        },
        {
          "internalType": "uint256",
          "name": "id",
          "type": "uint256"
        },
        {
          "internalType": "uint256",
          "name": "amount",
          "type": "uint256"
        },
        {
          "internalType": "bytes",
          "name": "data",
          "type": "bytes"
        }
      ],
      "name": "safeTransferFrom",
      "outputs": [],
      "stateMutability": "nonpayable",
      "type": "function"
    },
    {
      "inputs": [
        {
          "internalType": "address",
          "name": "operator",
          "type": "address"
        },
        {
          "internalType": "bool",
          "name": "approved",
          "type": "bool"
        }
      ],
      "name": "setApprovalForAll",
      "outputs": [],
      "stateMutability": "nonpayable",
      "type": "function"
    },
    {
      "inputs": [
        {
          "internalType": "address",
          "name": "_currencyContract",
          "type": "address"
        }
      ],
      "name": "setERC20",
      "outputs": [],
      "stateMutability": "nonpayable",
      "type": "function"
    },
    {
      "inputs": [
        {
          "internalType": "bytes4",
          "name": "interfaceId",
          "type": "bytes4"
        }
      ],
      "name": "supportsInterface",
      "outputs": [
        {
          "internalType": "bool",
          "name": "",
          "type": "bool"
        }
      ],
      "stateMutability": "view",
      "type": "function"
    },
    {
      "inputs": [
        {
          "internalType": "address",
          "name": "buyer",
          "type": "address"
        },
        {
          "internalType": "address",
          "name": "seller",
          "type": "address"
        },
        {
          "internalType": "uint256",
          "name": "nftId",
          "type": "uint256"
        },
        {
          "internalType": "uint256",
          "name": "expectedPriceOrZero",
          "type": "uint256"
        },
        {
          "internalType": "uint256",
          "name": "amount",
          "type": "uint256"
        }
      ],
      "name": "takeOffer",
      "outputs": [],
      "stateMutability": "nonpayable",
      "type": "function"
    },
    {
      "inputs": [
        {
          "internalType": "address",
          "name": "from",
          "type": "address"
        },
        {
          "internalType": "address",
          "name": "to",
          "type": "address"
        },
        {
          "internalType": "uint256",
          "name": "id",
          "type": "uint256"
        },
        {
          "internalType": "uint256",
          "name": "amount",
          "type": "uint256"
        }
      ],
      "name": "transferFrom",
      "outputs": [],
      "stateMutability": "nonpayable",
      "type": "function"
    },
    {
      "inputs": [
        {
          "internalType": "address",
          "name": "newImplementation",
          "type": "address"
        }
      ],
      "name": "upgradeTo",
      "outputs": [],
      "stateMutability": "nonpayable",
      "type": "function"
    },
    {
      "inputs": [
        {
          "internalType": "address",
          "name": "newImplementation",
          "type": "address"
        },
        {
          "internalType": "bytes",
          "name": "data",
          "type": "bytes"
        }
      ],
      "name": "upgradeToAndCall",
      "outputs": [],
      "stateMutability": "payable",
      "type": "function"
    },
    {
      "inputs": [
        {
          "internalType": "uint256",
          "name": "",
          "type": "uint256"
        }
      ],
      "name": "uri",
      "outputs": [
        {
          "internalType": "string",
          "name": "",
          "type": "string"
        }
      ],
      "stateMutability": "view",
      "type": "function"
    },
    {
      "inputs": [
        {
          "internalType": "uint256",
          "name": "amount",
          "type": "uint256"
        }
      ],
      "name": "withdraw",
      "outputs": [],
      "stateMutability": "nonpayable",
      "type": "function"
    },
    {
      "inputs": [],
      "name": "testIssue",
      "outputs": [
        {
          "internalType": "uint256",
          "name": "",
          "type": "uint256"
        }
      ],
      "stateMutability": "nonpayable",
      "type": "function"
    }
  ],
  "bytecode": "0x608060405234801561001057600080fd5b506143f2806100206000396000f3fe6080604052600436106102175760003560e01c8062fdd58e1461021c57806301ffc9a71461024f57806305b7cdd31461027f5780630e89341c146102a1578063248a9ca3146102ce5780632c8f284c146102ee5780632e1a7d4d1461030e5780632eb2c2d61461032e5780632f2ff15d1461034e57806330b064211461036e57806336568abe146103835780633659cfe6146103a357806339b276f4146103c35780633c6b5709146103e3578063448588e3146104035780634559a29b146104255780634880d247146104535780634e1273f4146104735780634f1ef286146104a05780635611cac2146104b3578063572b6c05146104e057806358556fb0146105005780635c5d67881461052057806360e3ecd0146105405780638129fc1c1461056257806391d14854146105775780639a86e8ce146105975780639e00bb96146105b9578063a217fddf146105d9578063a22cb465146105ee578063a5e1fcd71461060e578063ac71045e1461062e578063acc08fa514610672578063ad09608a146106bb578063b6b55f25146106db578063b95812f4146106fb578063ba7f4dfe1461071c578063bb3bafd61461073c578063c29a6fda146107c2578063d547741f146107e2578063e1f1c4a714610802578063e24b0a2b14610818578063e985e9c514610858578063e9ddd43314610878578063f242432a1461088d578063f5361219146105d9578063fe99049a146108ad575b600080fd5b34801561022857600080fd5b5061023c610237366004613925565b6108cd565b6040519081526020015b60405180910390f35b34801561025b57600080fd5b5061026f61026a366004613ae8565b610969565b6040519015158152602001610246565b34801561028b57600080fd5b5061029f61029a366004613b82565b610983565b005b3480156102ad57600080fd5b506102c16102bc366004613aae565b6109ef565b6040516102469190613e59565b3480156102da57600080fd5b5061023c6102e9366004613aae565b610a83565b3480156102fa57600080fd5b5061023c6103093660046136de565b610a98565b34801561031a57600080fd5b5061029f610329366004613aae565b610b32565b34801561033a57600080fd5b5061029f610349366004613710565b610bd4565b34801561035a57600080fd5b5061029f610369366004613ac6565b610ec9565b34801561037a57600080fd5b5061023c600a81565b34801561038f57600080fd5b5061029f61039e366004613ac6565b610eed565b3480156103af57600080fd5b5061029f6103be3660046136c4565b610f7b565b3480156103cf57600080fd5b5061029f6103de366004613b82565b610fa2565b3480156103ef57600080fd5b5061023c6103fe366004613986565b61108d565b34801561040f57600080fd5b5061023c60008051602061436a83398151915281565b34801561043157600080fd5b50610445610440366004613925565b6110be565b604051610246929190613dce565b34801561045f57600080fd5b5061029f61046e366004613858565b611105565b34801561047f57600080fd5b5061049361048e3660046139d2565b6112c5565b6040516102469190613e21565b61029f6104ae3660046138da565b611426565b3480156104bf57600080fd5b506104d36104ce3660046139d2565b61143b565b6040516102469190613d17565b3480156104ec57600080fd5b5061026f6104fb3660046136c4565b611474565b34801561050c57600080fd5b5061023c61051b366004613ba3565b61148e565b34801561052c57600080fd5b5061023c61053b36600461394e565b6114a2565b34801561054c57600080fd5b5061023c60008051602061432a83398151915281565b34801561056e57600080fd5b5061029f61153a565b34801561058357600080fd5b5061026f610592366004613ac6565b6115ad565b3480156105a357600080fd5b5061023c60008051602061430a83398151915281565b3480156105c557600080fd5b5061023c6105d43660046136de565b6115d8565b3480156105e557600080fd5b5061023c600081565b3480156105fa57600080fd5b5061029f6106093660046138a4565b611619565b34801561061a57600080fd5b5061029f6106293660046136c4565b61172d565b34801561063a57600080fd5b5061023c610649366004613925565b6001600160a01b0391909116600090815261013760209081526040808320938352929052205490565b34801561067e57600080fd5b506106a661068d3660046136c4565b61012e6020526000908152604090205463ffffffff1681565b60405163ffffffff9091168152602001610246565b3480156106c757600080fd5b5061029f6106d6366004613b20565b6117e6565b3480156106e757600080fd5b5061029f6106f6366004613aae565b611a11565b34801561070757600080fd5b5061012d546104d3906001600160a01b031681565b34801561072857600080fd5b506104d36107373660046139d2565b611ac7565b34801561074857600080fd5b506107b0610757366004613aae565b6000908152610130602090815260408083205461013183528184205461013284528285205461013385528386205461013486528487205461013590965293909520546001600160a01b0392831696919594929093169290565b60405161024696959493929190613de7565b3480156107ce57600080fd5b5061029f6107dd3660046136c4565b611de3565b3480156107ee57600080fd5b5061029f6107fd366004613ac6565b611e33565b34801561080e57600080fd5b5061023c61271081565b34801561082457600080fd5b50610838610833366004613ac6565b611e52565b604080519485526020850193909352918301526060820152608001610246565b34801561086457600080fd5b5061026f6108733660046136de565b611f5e565b34801561088457600080fd5b5061023c611fb3565b34801561089957600080fd5b5061029f6108a83660046137f6565b611fd4565b3480156108b957600080fd5b5061029f6108c83660046137b5565b61215c565b60006001600160a01b03831661093e5760405162461bcd60e51b815260206004820152602b60248201527f455243313135353a2062616c616e636520717565727920666f7220746865207a60448201526a65726f206164647265737360a81b60648201526084015b60405180910390fd5b50600081815260c9602090815260408083206001600160a01b03861684529091529020545b92915050565b6000610974826121d8565b80610963575061096382612228565b600061098d61224d565b6001600160a01b038116600081815261013760209081526040808320888452825291829020869055905185815292935085927f040259e2f9c7930380b3a5c979ad8a30ecf8d344d3bcdb149e2c454ab85fcd8f910160405180910390a3505050565b606060cb80546109fe90614130565b80601f0160208091040260200160405190810160405280929190818152602001828054610a2a90614130565b8015610a775780601f10610a4c57610100808354040283529160200191610a77565b820191906000526020600020905b815481529060010190602001808311610a5a57829003601f168201915b50505050509050919050565b600090815260fb602052604090206001015490565b6001600160a01b038216600090815261012f60205260408120815b8154811015610b27576000828281548110610ade57634e487b7160e01b600052603260045260246000fd5b6000918252602090912060029091020180549091506001600160a01b0386811691161415610b1457600101549250610963915050565b5080610b1f81614197565b915050610ab3565b506000949350505050565b6000610b3c61224d565b9050610b4a81600084612257565b61012d5460405163a9059cbb60e01b81526001600160a01b039091169063a9059cbb90610b7d9084908690600401613dce565b602060405180830381600087803b158015610b9757600080fd5b505af1158015610bab573d6000803e3d6000fd5b505050506040513d601f19601f82011682018060405250810190610bcf9190613a92565b505050565b8151835114610c365760405162461bcd60e51b815260206004820152602860248201527f455243313135353a2069647320616e6420616d6f756e7473206c656e677468206044820152670dad2e6dac2e8c6d60c31b6064820152608401610935565b6001600160a01b038416610c5c5760405162461bcd60e51b815260040161093590613efd565b610c6461224d565b6001600160a01b0316856001600160a01b03161480610c8a5750610c8a8561087361224d565b610cf15760405162461bcd60e51b815260206004820152603260248201527f455243313135353a207472616e736665722063616c6c6572206973206e6f74206044820152711bdddb995c881b9bdc88185c1c1c9bdd995960721b6064820152608401610935565b6000610cfb61224d565b9050610d0b8187878787876123da565b60005b8451811015610e5b576000858281518110610d3957634e487b7160e01b600052603260045260246000fd5b602002602001015190506000858381518110610d6557634e487b7160e01b600052603260045260246000fd5b602090810291909101810151600084815260c9835260408082206001600160a01b038e168352909352919091205490915081811015610db65760405162461bcd60e51b815260040161093590613fdc565b610dc082826140d6565b60c9600085815260200190815260200160002060008c6001600160a01b03166001600160a01b03168152602001908152602001600020819055508160c9600085815260200190815260200160002060008b6001600160a01b03166001600160a01b031681526020019081526020016000206000828254610e409190614057565b9250508190555050505080610e5490614197565b9050610d0e565b50846001600160a01b0316866001600160a01b0316826001600160a01b03167f4a39dc06d4c0dbc64b70af90fd698a233a518aa5d07e595d983b8c0526c8f7fb8787604051610eab929190613e34565b60405180910390a4610ec1818787878787612452565b505050505050565b610ed282610a83565b610ee381610ede61224d565b6125bd565b610bcf8383612621565b610ef561224d565b6001600160a01b0316816001600160a01b031614610f6d5760405162461bcd60e51b815260206004820152602f60248201527f416363657373436f6e74726f6c3a2063616e206f6e6c792072656e6f756e636560448201526e103937b632b9903337b91039b2b63360891b6064820152608401610935565b610f7782826126a8565b5050565b610f848161272d565b610f9f81604051806020016040528060008152506000612771565b50565b6000610fac61224d565b9050610fb881846128ed565b610fc157600080fd5b60008381526101366020526040902054821161103a5760405162461bcd60e51b815260206004820152603260248201527f526f79616c7469657320636f6e66696775726174696f6e2063616e6e6f74206260448201527132903ab73637b1b5b2b21032b0b93634b2b960711b6064820152608401610935565b60008381526101366020526040908190208390555183907f7bdd35d2167385bdbed0892e34b48298770ffce27fe71928c767071865f51544906110809085815260200190565b60405180910390a2505050565b6001600160601b0319606084901b1663ffffffff60401b604084901b16176001600160401b038216175b9392505050565b61012f60205281600052604060002081815481106110db57600080fd5b6000918252602090912060029091020180546001909101546001600160a01b039091169250905082565b600061110f61224d565b6001600160a01b038616600090815261013760209081526040808320888452909152902054909150806111735760405162461bcd60e51b815260206004820152600c60248201526b4e6f7420666f722073616c6560a01b6044820152606401610935565b83158061117f57508084145b6111be5760405162461bcd60e51b815260206004820152601060248201526f556e657870656374656420707269636560801b6044820152606401610935565b60006111ca84836140b7565b90506111d581611a11565b6111f2838860008460405180602001604052806000815250611fd4565b600061120088888588612900565b9050818111156112605760405162461bcd60e51b815260206004820152602560248201527f43616e6e6f742074616b65206d6f72652066656573207468616e2074686520706044820152643934b1b29760d91b6064820152608401610935565b61126c888a8988612a0f565b86886001600160a01b03168a6001600160a01b03167fe90359125940e7c9b26005d19d4d8a2a5335ea8bef094bcd61bb8f8091cad11786896040516112b2929190614026565b60405180910390a4505050505050505050565b6060815183511461132a5760405162461bcd60e51b815260206004820152602960248201527f455243313135353a206163636f756e747320616e6420696473206c656e677468604482015268040dad2e6dac2e8c6d60bb1b6064820152608401610935565b600083516001600160401b0381111561135357634e487b7160e01b600052604160045260246000fd5b60405190808252806020026020018201604052801561137c578160200160208202803683370190505b50905060005b845181101561141e576113e38582815181106113ae57634e487b7160e01b600052603260045260246000fd5b60200260200101518583815181106113d657634e487b7160e01b600052603260045260246000fd5b60200260200101516108cd565b82828151811061140357634e487b7160e01b600052603260045260246000fd5b602090810291909101015261141781614197565b9050611382565b509392505050565b61142f8261272d565b610f7782826001612771565b6000808383604051602001611451929190613c24565b60408051808303601f19018152919052805160209091012060601c949350505050565b600061096360008051602061430a833981519152836115ad565b60006110b761149b61224d565b8484612af9565b6000806114ad61224d565b90506114b98682611f5e565b6115225760405162461bcd60e51b815260206004820152603460248201527f746865206f70657261746f72206d75737420626520617070726f766564206f726044820152731030902a2920a729a322a92fa7a822a920aa27a960611b6064820152608401610935565b61152e86868686612900565b9150505b949350505050565b600054610100900460ff1680611553575060005460ff16155b61156f5760405162461bcd60e51b815260040161093590613f8e565b600054610100900460ff16158015611591576000805461ffff19166101011790555b611599612b97565b8015610f9f576000805461ff001916905550565b600091825260fb602090815260408084206001600160a01b0393909316845291905290205460ff1690565b6000806115e58484610a98565b905060006115f48560006108cd565b9050600061271061160584846140b7565b61160f9190614097565b9695505050505050565b816001600160a01b031661162b61224d565b6001600160a01b031614156116945760405162461bcd60e51b815260206004820152602960248201527f455243313135353a2073657474696e6720617070726f76616c20737461747573604482015268103337b91039b2b63360b91b6064820152608401610935565b8060ca60006116a161224d565b6001600160a01b03908116825260208083019390935260409182016000908120918716808252919093529120805460ff1916921515929092179091556116e561224d565b6001600160a01b03167f17307eab39ab6107e8899845ad3d59bd9653f200f220920489ca2b5937696c3183604051611721911515815260200190565b60405180910390a35050565b600061173a8260006108cd565b6001600160a01b038316600090815261012f602052604081209192505b81548110156117e057600082828154811061178257634e487b7160e01b600052603260045260246000fd5b9060005260206000209060020201905060006127108260010154866117a791906140b7565b6117b19190614097565b82549091506117cb9087906001600160a01b031683612ba1565b505080806117d890614197565b915050611757565b50505050565b60006117f061224d565b90506117fc81896128ed565b61185e5760405162461bcd60e51b815260206004820152602d60248201527f4f6e6c792074686520697373756572206f662074686973204e46542063616e2060448201526c73657420726f79616c7469657360981b6064820152608401610935565b600088815261013660205260409020544210156118cf5760405162461bcd60e51b815260206004820152602960248201527f526f79616c7469657320636f6e66696775726174696f6e206973206c6f636b656044820152686420666f72206e6f7760b81b6064820152608401610935565b6001600160a01b0387161515806118ed5750851580156118ed575084155b6119095760405162461bcd60e51b815260040161093590613f42565b60008881526101306020908152604080832080546001600160a01b0319166001600160a01b038c81169190911790915561013183528184208a90556101329092529091208690558416151580611966575082158015611966575081155b6119825760405162461bcd60e51b815260040161093590613f42565b60008881526101336020908152604080832080546001600160a01b0319166001600160a01b0389161790556101348252808320869055610135909152908190208390555188907f3df2272e42784a2455bbbdcdf25ae0f67d41f801896514cc4cd255aa8ee75e4c906119ff908a908a908a908a908a908a90613de7565b60405180910390a25050505050505050565b6000611a1b61224d565b61012d546040516323b872dd60e01b81526001600160a01b038084166004830152306024830152604482018690529293509116906323b872dd90606401602060405180830381600087803b158015611a7257600080fd5b505af1158015611a86573d6000803e3d6000fd5b505050506040513d601f19601f82011682018060405250810190611aaa9190613a92565b50610f778160008460405180602001604052806000815250612c84565b60008151835114611b3b5760405162461bcd60e51b815260206004820152603860248201527f417272617973206f66206f776e65727320616e64206672616374696f6e73206d6044820152770eae6e840d0c2ecca40e8d0ca40e6c2daca40d8cadccee8d60431b6064820152608401610935565b600a83511115611b7f5760405162461bcd60e51b815260206004820152600f60248201526e546f6f206d616e792073686172657360881b6044820152606401610935565b6000611b8b848461143b565b6001600160a01b038116600090815261012f6020526040902080549192509015611bf45760405162461bcd60e51b815260206004820152601a602482015279546865206163636f756e7420616c72656164792065786973747360301b6044820152606401610935565b6000805b8651811015611d87576000878281518110611c2357634e487b7160e01b600052603260045260246000fd5b602002602001015190506000878381518110611c4f57634e487b7160e01b600052603260045260246000fd5b6020026020010151905060006001600160a01b0316826001600160a01b031614158015611c7b57508015155b611cc45760405162461bcd60e51b815260206004820152601a6024820152790c081d985b1d595cc8185c99481b9bdd081c195c9b5a5d1d195960321b6044820152606401610935565b604080518082019091526001600160a01b0383811682526020808301848152885460018082018b5560008b8152939093209451600290910290940180546001600160a01b031916949093169390931782559151910155611d248185614057565b9350816001600160a01b0316866001600160a01b03167e6fb9851f1fd2fbc9fa36680d17e1254999a38e5f3c76c3a1ecc126a464601b83604051611d6a91815260200190565b60405180910390a350508080611d7f90614197565b915050611bf8565b506127108114611dd95760405162461bcd60e51b815260206004820152601e60248201527f546f74616c206672616374696f6e73206d7573742062652031302c30303000006044820152606401610935565b5090949350505050565b61012d546001600160a01b031615611dfa57600080fd5b611e07600061059261224d565b611e1057600080fd5b61012d80546001600160a01b0319166001600160a01b0392909216919091179055565b611e3c82610a83565b611e4881610ede61224d565b610bcf83836126a8565b600082815261013160209081526040808320546101328352818420546101309093529083205490929081906001600160a01b039081169086168114611ed3576000611e9d8288610a98565b9050612710611eac82886140b7565b611eb69190614097565b9550612710611ec582876140b7565b611ecf9190614097565b9450505b6000878152610134602090815260408083205461013583528184205461013390935292205491945092506001600160a01b039081169087168114611f53576000611f1d8289610a98565b9050612710611f2c82876140b7565b611f369190614097565b9450612710611f4582866140b7565b611f4f9190614097565b9350505b505092959194509250565b6000611f7860008051602061432a833981519152836115ad565b15611f8557506001610963565b6001600160a01b03808416600090815260ca602090815260408083209386168352929052205460ff166110b7565b6000611fcf60016040518060200160405280600081525061148e565b905090565b6001600160a01b038416611ffa5760405162461bcd60e51b815260040161093590613efd565b61200261224d565b6001600160a01b0316856001600160a01b0316148061202857506120288561087361224d565b6120445760405162461bcd60e51b815260040161093590613eb4565b600061204e61224d565b905061206e81878761205f88612d8e565b61206888612d8e565b876123da565b600084815260c9602090815260408083206001600160a01b038a168452909152902054838110156120b15760405162461bcd60e51b815260040161093590613fdc565b6120bb84826140d6565b600086815260c9602090815260408083206001600160a01b038c811685529252808320939093558816815290812080548692906120f9908490614057565b92505081905550856001600160a01b0316876001600160a01b0316836001600160a01b03166000805160206142a3833981519152888860405161213d929190614026565b60405180910390a4612153828888888888612de7565b50505050505050565b6001600160a01b0383166121825760405162461bcd60e51b815260040161093590613efd565b61218a61224d565b6001600160a01b0316846001600160a01b031614806121b057506121b08461087361224d565b6121cc5760405162461bcd60e51b815260040161093590613eb4565b6117e084848484612a0f565b60006001600160e01b03198216636cdb3d1360e11b148061220957506001600160e01b031982166303a24d0760e21b145b8061096357506301ffc9a760e01b6001600160e01b0319831614610963565b60006001600160e01b03198216637965db0b60e01b14806109635750610963826121d8565b6000611fcf612eb1565b6001600160a01b0383166122b95760405162461bcd60e51b815260206004820152602360248201527f455243313135353a206275726e2066726f6d20746865207a65726f206164647260448201526265737360e81b6064820152608401610935565b60006122c361224d565b90506122f3818560006122d587612d8e565b6122de87612d8e565b604051806020016040528060008152506123da565b600083815260c9602090815260408083206001600160a01b0388168452909152902054828110156123725760405162461bcd60e51b8152602060048201526024808201527f455243313135353a206275726e20616d6f756e7420657863656564732062616c604482015263616e636560e01b6064820152608401610935565b61237c83826140d6565b600085815260c9602090815260408083206001600160a01b03808b16808652919093528184209490945551919291908516906000805160206142a3833981519152906123cb9089908990614026565b60405180910390a45050505050565b60005b8351811015612153576124418685838151811061240a57634e487b7160e01b600052603260045260246000fd5b6020026020010151600086858151811061243457634e487b7160e01b600052603260045260246000fd5b6020026020010151612900565b5061244b81614197565b90506123dd565b6001600160a01b0384163b15610ec15760405163bc197c8160e01b81526001600160a01b0385169063bc197c81906124969089908990889088908890600401613d2b565b602060405180830381600087803b1580156124b057600080fd5b505af19250505080156124e0575060408051601f3d908101601f191682019092526124dd91810190613b04565b60015b61258d576124ec6141de565b806308c379a0141561252657506125016141f5565b8061250c5750612528565b8060405162461bcd60e51b81526004016109359190613e59565b505b60405162461bcd60e51b815260206004820152603460248201527f455243313135353a207472616e7366657220746f206e6f6e20455243313135356044820152732932b1b2b4bb32b91034b6b83632b6b2b73a32b960611b6064820152608401610935565b6001600160e01b0319811663bc197c8160e01b146121535760405162461bcd60e51b815260040161093590613e6c565b6125c782826115ad565b610f77576125df816001600160a01b03166014612ed6565b6125ea836020612ed6565b6040516020016125fb929190613ca8565b60408051601f198184030181529082905262461bcd60e51b825261093591600401613e59565b61262b82826115ad565b610f7757600082815260fb602090815260408083206001600160a01b03851684529091529020805460ff1916600117905561266461224d565b6001600160a01b0316816001600160a01b0316837f2f8788117e7eff1d82e926ec794901d17c78024a50270940304540a733656f0d60405160405180910390a45050565b6126b282826115ad565b15610f7757600082815260fb602090815260408083206001600160a01b03851684529091529020805460ff191690556126e961224d565b6001600160a01b0316816001600160a01b0316837ff6391f5c32d9c69d2a47ea670b442974b53935d1edc7fd64eb21e047a839171b60405160405180910390a45050565b6127386000336115ad565b610f9f5760405162461bcd60e51b815260206004820152600a60248201526927b7363c9020b236b4b760b11b6044820152606401610935565b600061277b6130b7565b9050612786846130d3565b6000835111806127935750815b156127a4576127a28484613166565b505b7f4910fdfa16fed3260ed0e7147f7cc6da11a60208b5b9406d12a635614ffd9143805460ff166128e657805460ff1916600117815560405161281f9086906127f0908590602401613d17565b60408051601f198184030181529190526020810180516001600160e01b0316631b2ce7f360e11b179052613166565b50805460ff191681556128306130b7565b6001600160a01b0316826001600160a01b0316146128a85760405162461bcd60e51b815260206004820152602f60248201527f45524331393637557067726164653a207570677261646520627265616b73206660448201526e75727468657220757067726164657360881b6064820152608401610935565b6128b1856130d3565b6040516001600160a01b038616907fbc7cd75a20ee27fd9adebab32041f755214dbc6bffa90cc0225b39da2e5c2d3b90600090a25b5050505050565b60601c6001600160a01b03919091161490565b60008361290f57506000611532565b61292760008051602061436a833981519152336115ad565b1561293457506000611532565b60008060008061294489896128ed565b90508015612986576000888152610131602090815260408083205461013283528184205461013090935292205491955093506001600160a01b031691506129bc565b6000888152610134602090815260408083205461013583528184205461013390935292205491955093506001600160a01b031691505b60006127106129cb868a6140b7565b6129d59190614097565b9050838110156129e25750825b60006129ee88836140b7565b90508015612a0157612a018b8583612ba1565b9a9950505050505050505050565b600082815260c9602090815260408083206001600160a01b038816845290915290205481811015612a525760405162461bcd60e51b815260040161093590613fdc565b612a5c82826140d6565b600084815260c9602090815260408083206001600160a01b038a81168552925280832093909355861681529081208054849290612a9a908490614057565b9091555060009050612aaa61224d565b9050846001600160a01b0316866001600160a01b0316826001600160a01b03166000805160206142a38339815191528787604051612ae9929190614026565b60405180910390a4505050505050565b6001600160a01b038316600090815261012e602052604081205463ffffffff16612b2481600161406f565b6001600160a01b038616600090815261012e60205260408120805463ffffffff191663ffffffff9390931692909217909155612b6186838761108d565b90506000856001600160401b031611612b7957600080fd5b612b8e8682876001600160401b031687612c84565b95945050505050565b612b9f613248565b565b6001600160a01b038316600090815260008051602061434a833981519152602052604090205481811015612be75760405162461bcd60e51b815260040161093590613fdc565b612bf182826140d6565b6001600160a01b03858116600090815260008051602061434a83398151915260205260408082209390935590851681529081208054849290612c34908490614057565b9091555060009050612c4461224d565b9050836001600160a01b0316856001600160a01b0316826001600160a01b03166000805160206142a38339815191526000876040516123cb929190614026565b6001600160a01b038416612ce45760405162461bcd60e51b815260206004820152602160248201527f455243313135353a206d696e7420746f20746865207a65726f206164647265736044820152607360f81b6064820152608401610935565b6000612cee61224d565b9050612d008160008761205f88612d8e565b600084815260c9602090815260408083206001600160a01b038916845290915281208054859290612d32908490614057565b92505081905550846001600160a01b031660006001600160a01b0316826001600160a01b03166000805160206142a38339815191528787604051612d77929190614026565b60405180910390a46128e681600087878787612de7565b60408051600180825281830190925260609160009190602080830190803683370190505090508281600081518110612dd657634e487b7160e01b600052603260045260246000fd5b602090810291909101015292915050565b6001600160a01b0384163b15610ec15760405163f23a6e6160e01b81526001600160a01b0385169063f23a6e6190612e2b9089908990889088908890600401613d89565b602060405180830381600087803b158015612e4557600080fd5b505af1925050508015612e75575060408051601f3d908101601f19168201909252612e7291810190613b04565b60015b612e81576124ec6141de565b6001600160e01b0319811663f23a6e6160e01b146121535760405162461bcd60e51b815260040161093590613e6c565b6000612ebc33611474565b15612ece575060131936013560601c90565b503390565b90565b60606000612ee58360026140b7565b612ef0906002614057565b6001600160401b03811115612f1557634e487b7160e01b600052604160045260246000fd5b6040519080825280601f01601f191660200182016040528015612f3f576020820181803683370190505b509050600360fc1b81600081518110612f6857634e487b7160e01b600052603260045260246000fd5b60200101906001600160f81b031916908160001a905350600f60fb1b81600181518110612fa557634e487b7160e01b600052603260045260246000fd5b60200101906001600160f81b031916908160001a9053506000612fc98460026140b7565b612fd4906001614057565b90505b6001811115613068576f181899199a1a9b1b9c1cb0b131b232b360811b85600f166010811061301657634e487b7160e01b600052603260045260246000fd5b1a60f81b82828151811061303a57634e487b7160e01b600052603260045260246000fd5b60200101906001600160f81b031916908160001a90535060049490941c9361306181614119565b9050612fd7565b5083156110b75760405162461bcd60e51b815260206004820181905260248201527f537472696e67733a20686578206c656e67746820696e73756666696369656e746044820152606401610935565b6000805160206142c3833981519152546001600160a01b031690565b803b6131375760405162461bcd60e51b815260206004820152602d60248201527f455243313936373a206e657720696d706c656d656e746174696f6e206973206e60448201526c1bdd08184818dbdb9d1c9858dd609a1b6064820152608401610935565b6000805160206142c383398151915280546001600160a01b0319166001600160a01b0392909216919091179055565b6060823b6131c55760405162461bcd60e51b815260206004820152602660248201527f416464726573733a2064656c65676174652063616c6c20746f206e6f6e2d636f6044820152651b9d1c9858dd60d21b6064820152608401610935565b600080846001600160a01b0316846040516131e09190613c8c565b600060405180830381855af49150503d806000811461321b576040519150601f19603f3d011682016040523d82523d6000602084013e613220565b606091505b5091509150612b8e82826040518060600160405280602781526020016142e360279139613250565b612b9f613289565b6060831561325f5750816110b7565b82511561326f5782518084602001fd5b8160405162461bcd60e51b81526004016109359190613e59565b612b9f612b9f612b9f612b9f612b9f6132b960405180606001604052806033815260200161438a603391396132c1565b612b9f613346565b600054610100900460ff16806132da575060005460ff16155b6132f65760405162461bcd60e51b815260040161093590613f8e565b600054610100900460ff16158015613318576000805461ffff19166101011790555b61332061334e565b61332861334e565b613331826133b8565b8015610f77576000805461ff00191690555050565b612b9f613418565b600054610100900460ff1680613367575060005460ff16155b6133835760405162461bcd60e51b815260040161093590613f8e565b600054610100900460ff16158015611599576000805461ffff19166101011790558015610f9f576000805461ff001916905550565b600054610100900460ff16806133d1575060005460ff16155b6133ed5760405162461bcd60e51b815260040161093590613f8e565b600054610100900460ff1615801561340f576000805461ffff19166101011790555b61333182613433565b613420613446565b6134286134ad565b612b9f60003361350c565b8051610f779060cb906020840190613516565b600054610100900460ff168061345f575060005460ff16155b61347b5760405162461bcd60e51b815260040161093590613f8e565b600054610100900460ff1615801561349d576000805461ffff19166101011790555b6134a561334e565b61159961334e565b600054610100900460ff16806134c6575060005460ff16155b6134e25760405162461bcd60e51b815260040161093590613f8e565b600054610100900460ff16158015613504576000805461ffff19166101011790555b61349d61334e565b610f778282612621565b82805461352290614130565b90600052602060002090601f016020900481019282613544576000855561358a565b82601f1061355d57805160ff191683800117855561358a565b8280016001018555821561358a579182015b8281111561358a57825182559160200191906001019061356f565b5061359692915061359a565b5090565b5b80821115613596576000815560010161359b565b80356001600160a01b03811681146135c657600080fd5b919050565b600082601f8301126135db578081fd5b813560206135e882614034565b6040516135f5828261416b565b8381528281019150858301600585901b87018401881015613614578586fd5b855b8581101561363257813584529284019290840190600101613616565b5090979650505050505050565b600082601f83011261364f578081fd5b81356001600160401b03811115613668576136686141c8565b60405161367f601f8301601f19166020018261416b565b818152846020838601011115613693578283fd5b816020850160208301379081016020019190915292915050565b80356001600160401b03811681146135c657600080fd5b6000602082840312156136d5578081fd5b6110b7826135af565b600080604083850312156136f0578081fd5b6136f9836135af565b9150613707602084016135af565b90509250929050565b600080600080600060a08688031215613727578081fd5b613730866135af565b945061373e602087016135af565b935060408601356001600160401b0380821115613759578283fd5b61376589838a016135cb565b9450606088013591508082111561377a578283fd5b61378689838a016135cb565b9350608088013591508082111561379b578283fd5b506137a88882890161363f565b9150509295509295909350565b600080600080608085870312156137ca578384fd5b6137d3856135af565b93506137e1602086016135af565b93969395505050506040820135916060013590565b600080600080600060a0868803121561380d578081fd5b613816866135af565b9450613824602087016135af565b9350604086013592506060860135915060808601356001600160401b0381111561384c578182fd5b6137a88882890161363f565b600080600080600060a0868803121561386f578081fd5b613878866135af565b9450613886602087016135af565b94979496505050506040830135926060810135926080909101359150565b600080604083850312156138b6578182fd5b6138bf836135af565b915060208301356138cf8161427e565b809150509250929050565b600080604083850312156138ec578182fd5b6138f5836135af565b915060208301356001600160401b0381111561390f578182fd5b61391b8582860161363f565b9150509250929050565b60008060408385031215613937578182fd5b613940836135af565b946020939093013593505050565b60008060008060808587031215613963578182fd5b61396c856135af565b966020860135965060408601359560600135945092505050565b60008060006060848603121561399a578081fd5b6139a3846135af565b9250602084013563ffffffff811681146139bb578182fd5b91506139c9604085016136ad565b90509250925092565b600080604083850312156139e4578182fd5b82356001600160401b03808211156139fa578384fd5b818501915085601f830112613a0d578384fd5b81356020613a1a82614034565b604051613a27828261416b565b8381528281019150858301600585901b870184018b1015613a46578889fd5b8896505b84871015613a6f57613a5b816135af565b835260019690960195918301918301613a4a565b5096505086013592505080821115613a85578283fd5b5061391b858286016135cb565b600060208284031215613aa3578081fd5b81516110b78161427e565b600060208284031215613abf578081fd5b5035919050565b60008060408385031215613ad8578182fd5b82359150613707602084016135af565b600060208284031215613af9578081fd5b81356110b78161428c565b600060208284031215613b15578081fd5b81516110b78161428c565b600080600080600080600060e0888a031215613b3a578485fd5b87359650613b4a602089016135af565b95506040880135945060608801359350613b66608089016135af565b925060a0880135915060c0880135905092959891949750929550565b60008060408385031215613b94578182fd5b50508035926020909101359150565b60008060408385031215613bb5578182fd5b6138f5836136ad565b6000815180845260208085019450808401835b83811015613bed57815187529582019590820190600101613bd1565b509495945050505050565b60008151808452613c108160208601602086016140ed565b601f01601f19169290920160200192915050565b825160009082906020808701845b83811015613c575781516001600160a01b031685529382019390820190600101613c32565b50508551818701939250845b81811015613c7f57845184529382019392820192600101613c63565b5091979650505050505050565b60008251613c9e8184602087016140ed565b9190910192915050565b76020b1b1b2b9b9a1b7b73a3937b61d1030b1b1b7bab73a1604d1b815260008351613cda8160178501602088016140ed565b7001034b99036b4b9b9b4b733903937b6329607d1b6017918401918201528351613d0b8160288401602088016140ed565b01602801949350505050565b6001600160a01b0391909116815260200190565b6001600160a01b0386811682528516602082015260a060408201819052600090613d5790830186613bbe565b8281036060840152613d698186613bbe565b90508281036080840152613d7d8185613bf8565b98975050505050505050565b6001600160a01b03868116825285166020820152604081018490526060810183905260a060808201819052600090613dc390830184613bf8565b979650505050505050565b6001600160a01b03929092168252602082015260400190565b6001600160a01b0396871681526020810195909552604085019390935293166060830152608082019290925260a081019190915260c00190565b6020815260006110b76020830184613bbe565b604081526000613e476040830185613bbe565b8281036020840152612b8e8185613bbe565b6020815260006110b76020830184613bf8565b60208082526028908201527f455243313135353a204552433131353552656365697665722072656a656374656040820152676420746f6b656e7360c01b606082015260800190565b60208082526029908201527f455243313135353a2063616c6c6572206973206e6f74206f776e6572206e6f7260408201526808185c1c1c9bdd995960ba1b606082015260800190565b60208082526025908201527f455243313135353a207472616e7366657220746f20746865207a65726f206164604082015264647265737360d81b606082015260800190565b6020808252602c908201527f546865206163636f756e74206d757374206e6f7420626520302c20756e6c657360408201526b07320666565732061726520360a41b606082015260800190565b6020808252602e908201527f496e697469616c697a61626c653a20636f6e747261637420697320616c72656160408201526d191e481a5b9a5d1a585b1a5e995960921b606082015260800190565b6020808252602a908201527f455243313135353a20696e73756666696369656e742062616c616e636520666f60408201526939103a3930b739b332b960b11b606082015260800190565b918252602082015260400190565b60006001600160401b0382111561404d5761404d6141c8565b5060051b60200190565b6000821982111561406a5761406a6141b2565b500190565b600063ffffffff80831681851680830382111561408e5761408e6141b2565b01949350505050565b6000826140b257634e487b7160e01b81526012600452602481fd5b500490565b60008160001904831182151516156140d1576140d16141b2565b500290565b6000828210156140e8576140e86141b2565b500390565b60005b838110156141085781810151838201526020016140f0565b838111156117e05750506000910152565b600081614128576141286141b2565b506000190190565b600181811c9082168061414457607f821691505b6020821081141561416557634e487b7160e01b600052602260045260246000fd5b50919050565b601f8201601f191681016001600160401b0381118282101715614190576141906141c8565b6040525050565b60006000198214156141ab576141ab6141b2565b5060010190565b634e487b7160e01b600052601160045260246000fd5b634e487b7160e01b600052604160045260246000fd5b600060033d1115612ed357600481823e5160e01c90565b600060443d10156142035790565b6040516003193d81016004833e81513d6001600160401b03808311602484018310171561423257505050505090565b828501915081518181111561424a5750505050505090565b843d87010160208285010111156142645750505050505090565b6142736020828601018761416b565b509095945050505050565b8015158114610f9f57600080fd5b6001600160e01b031981168114610f9f57600080fdfec3d58168c5ae7397731d063d5bbf3d657854427343f4c083240f7aacaa2d0f62360894a13ba1a3210667c828492db98dca3e2076cc3735a920a3ca505d382bbc416464726573733a206c6f772d6c6576656c2064656c65676174652063616c6c206661696c65643d2e894c222ba979e2dce2c7d940c0e9bb14306669e9f034eb1bb3979a2069d8626f510646502d065065e8bd550325973a611a32e6f6ddff40650005cb13636881fe90a866a48a634a12852c1be675b683a22307409932a7443b8029347be75620a4be6e7127e439f48d6654377d19402cb883dd85029e600de9e17052f903d368747470733a2f2f6170692e66726565706f72742e636572652e6e6574776f726b2f657263313135352f7b69647d2e6a736f6ea264697066735822122086362b5fcc6314fc9b025b6a0f8e3a8d92e5aa24b8b0eb7e2c121be74f496bc764736f6c63430008040033",
  "immutableReferences": {},
  "source": "pragma solidity ^0.8.0;\n\nimport \"./Freeport.sol\";\n\n/** A test contract to test upgradeability\n*/\ncontract TestFreeport2 is Freeport {\n    function testIssue() public returns (uint256) {\n        return issue(1, \"\");\n    }\n}\n",
  "sourcePath": "/home/nadtech/Visual_Studio/Freeport-Smart-Contracts/contracts/TestFreeport2.sol",
  "compiler": {
    "name": "solc",
    "version": "0.8.4+commit.c7e474f2.Emscripten.clang"
  },
  "schemaVersion": "3.4.4",
  "updatedAt": "2022-02-08T16:31:33.815Z",
  "devdoc": {
    "kind": "dev",
    "methods": {
      "balanceOf(address,uint256)": {
        "details": "See {IERC1155-balanceOf}. Requirements: - `account` cannot be the zero address."
      },
      "balanceOfBatch(address[],uint256[])": {
        "details": "See {IERC1155-balanceOfBatch}. Requirements: - `accounts` and `ids` must have the same length."
      },
      "getRoleAdmin(bytes32)": {
        "details": "Returns the admin role that controls `role`. See {grantRole} and {revokeRole}. To change a role's admin, use {_setRoleAdmin}."
      },
      "grantRole(bytes32,address)": {
        "details": "Grants `role` to `account`. If `account` had not been already granted `role`, emits a {RoleGranted} event. Requirements: - the caller must have ``role``'s admin role."
      },
      "hasRole(bytes32,address)": {
        "details": "Returns `true` if `account` has been granted `role`."
      },
      "renounceRole(bytes32,address)": {
        "details": "Revokes `role` from the calling account. Roles are often managed via {grantRole} and {revokeRole}: this function's purpose is to provide a mechanism for accounts to lose their privileges if they are compromised (such as when a trusted device is misplaced). If the calling account had been granted `role`, emits a {RoleRevoked} event. Requirements: - the caller must be `account`."
      },
      "revokeRole(bytes32,address)": {
        "details": "Revokes `role` from `account`. If `account` had been granted `role`, emits a {RoleRevoked} event. Requirements: - the caller must have ``role``'s admin role."
      },
      "safeBatchTransferFrom(address,address,uint256[],uint256[],bytes)": {
        "details": "See {IERC1155-safeBatchTransferFrom}."
      },
      "safeTransferFrom(address,address,uint256,uint256,bytes)": {
        "details": "See {IERC1155-safeTransferFrom}."
      },
      "setApprovalForAll(address,bool)": {
        "details": "See {IERC1155-setApprovalForAll}."
      },
      "uri(uint256)": {
        "details": "See {IERC1155MetadataURI-uri}. This implementation returns the same URI for *all* token types. It relies on the token type ID substitution mechanism https://eips.ethereum.org/EIPS/eip-1155#metadata[defined in the EIP]. Clients calling this function must replace the `\\{id\\}` substring with the actual token type ID."
      }
    },
    "version": 1
  },
  "userdoc": {
    "events": {
      "JointAccountShareCreated(address,address,uint256)": {
        "notice": "Notify that a Joint Account was created at the address `account`. One such event is emitted for each owner, including his fraction of the account in basis points (1% of 1%)."
      },
      "MakeOffer(address,uint256,uint256)": {
        "notice": "An event emitted when an account `seller` has offered to sell a type of NFT at a given price. This replaces previous offers by the same seller on the same NFT ID, if any. A price of 0 means \"no offer\" and the previous offer is cancelled. An offer does not imply that the seller owns any amount of this NFT. An offer remains valid until cancelled, for the entire balance at a given time, regardless of incoming and outgoing transfers on the seller account."
      },
      "RoyaltiesConfigured(uint256,address,uint256,uint256,address,uint256,uint256)": {
        "notice": "Notify that royalties were configured on an NFT type."
      },
      "RoyaltiesLocked(uint256,uint256)": {
        "notice": "Notify that royalties are locked and cannot change, until the given time (in UNIX seconds), or forever (lockUntil = 0xFFFFFFFF)."
      },
      "TakeOffer(address,address,uint256,uint256,uint256)": {
        "notice": "An offer of `seller` was taken by `buyer`. The transfers of `amount` NFTs of type `nftId` against `amount * price` of CERE Units were executed."
      }
    },
    "kind": "user",
    "methods": {
      "BASIS_POINTS()": {
        "notice": "The total fraction representing 100% of an account."
      },
      "CURRENCY()": {
        "notice": "The token ID that represents the internal currency for all payments in this contract. "
      },
      "balanceOfJAOwner(address,address)": {
        "notice": "Calculate the amount of tokens that an owner of a Joint Account can withdraw right now."
      },
      "captureFee(address,uint256,uint256,uint256)": {
        "notice": "Collect the royalty due on a transfer. The royalty is calculated based on NFT configuration and the price. It is collected by an internal transfer of currency between \"from\" and the beneficiary. Return the amount collected. The caller must be approved by \"from\", or a TRANSFER_OPERATOR."
      },
      "configureRoyalties(uint256,address,uint256,uint256,address,uint256,uint256)": {
        "notice": "Configure the amounts and beneficiaries of royalties on primary and secondary transfers of this NFT. This configuration is available to the issuer of this NFT. A transfer is primary if it comes from the issuer of this NFT (normally the first sale after issuance). Otherwise, it is a secondary transfer. A royalty is defined in two parts (both optional): a cut of the sale price of an NFT, and a minimum royalty per transfer. For simple transfers not attached to a price, or a too low price, the minimum royalty is charged. The cuts are given in basis points (1% of 1%). The minimums are given in currency amounts. The configuration can be changed at any time by default. However, the issuer may commit to it for a period of time, effectively giving up his ability to modify the royalties. See the function lockRoyalties. There can be one beneficiary account for each primary and secondary royalties. To distribute revenues amongst several parties, use a Joint Account (see function createJointAccount)."
      },
      "createJointAccount(address[],uint256[])": {
        "notice": "Create an account such that multiple owners have a claim on their respective share. The size of a share is given as a fraction in basis points (1% of 1%). The sum of share fractions must equal 10,000. Anyone can create Joint Accounts including any owners."
      },
      "currencyContract()": {
        "notice": "The address of ERC-20 token's contract"
      },
      "deposit(uint256)": {
        "notice": "Deposit currency from ERC20 into the internal currency. This requires payer to approve deposit."
      },
      "distributeJointAccount(address)": {
        "notice": "Distribute all tokens available to all owners of a Joint Account. The function createJointAccount must be called beforehand. Anyone can trigger the distribution."
      },
      "fractionOfJAOwner(address,address)": {
        "notice": "Return the fraction of an account owned by the given address, in basis points (1% of 1%). If the account does not exist, or if the given address is not an owner of it, this returns 0. If the owner appears more than once in the account, this reports only the first share."
      },
      "getNftId(address,uint32,uint64)": {
        "notice": "Calculate the ID of an NFT type, identifying its issuer, its supply, and an arbitrary nonce."
      },
      "getOffer(address,uint256)": {
        "notice": "Return the price offered by the given seller for the given NFT type."
      },
      "getRoyalties(uint256)": {
        "notice": "Return the current configuration of royalties for NFTs of type nftId, as set by configureRoyalties."
      },
      "getRoyaltiesForBeneficiary(uint256,address)": {
        "notice": "Return the amount of royalties earned by a beneficiary on each primary and secondary transfer of an NFT. This function supports Joint Accounts. If royalties are paid to a JA and beneficiary is an owner of the JA, the shares of the royalties for this owner are returned."
      },
      "initialize()": {
        "notice": "Initialize this contract and its dependencies."
      },
      "isApprovedForAll(address,address)": {
        "notice": "Return true for operators with the role TRANSFER_OPERATOR. Otherwise, apply the standard approval logic of ERC1155. See {IERC1155-isApprovedForAll}."
      },
      "issuanceNonces(address)": {
        "notice": "A counter of NFT types issued by each issuer. This is used to generate unique NFT IDs."
      },
      "issue(uint64,bytes)": {
        "notice": "Issue a supply of NFTs of a new type, and return its ID. No more NFT of this type can be issued again. The caller will be recorded as the issuer and it will initially own the entire supply."
      },
      "lockRoyalties(uint256,uint256)": {
        "notice": "Lock the configuration of royalties for this NFT type. Only the issuer may lock the configuration, after which he himself will no longer be able to change the configuration, for some time, or forever. Set lockUntil to a time in the future to lock the configuration until the specified time (in UNIX seconds). Set to 0xFFFFFFFF to lock forever."
      },
      "makeAddressOfJointAccount(address[],uint256[])": {
        "notice": "Generate a unique address identifying a list of owners and shares. It may be used to predict the address of a Joint Account and receive payments even before calling the function createJointAccount."
      },
      "makeOffer(uint256,uint256)": {
        "notice": "Create an offer to sell a type of NFTs for a price per unit. All the NFTs of this type owned by the caller will be for sale. To cancel, call again with a price of 0."
      },
      "setERC20(address)": {
        "notice": "Sets token's contract address. This token is used to deposit and withdraw on chain adapter's contract is deployed."
      },
      "supportsInterface(bytes4)": {
        "notice": "Supports interfaces of AccessControl, ERC1155, and ERC1155 MetadataURI."
      },
      "takeOffer(address,address,uint256,uint256,uint256)": {
        "notice": "Accept an offer, paying the price per unit for an amount of NFTs. The offer must have been created beforehand by makeOffer. The sender pays ERC20. The sender is not necessarily the same as buyer, see FiatGateway. The seller receives internal currency (equivalent to the ERC20 payment, see the function withdraw). The buyer receives the NFT. The parameter expectedPriceOrZero can be used to validate the price that the buyer expects to pay. This prevents a race condition with makeOffer or setExchangeRate. Pass 0 to disable this validation and accept any current price."
      },
      "transferFrom(address,address,uint256,uint256)": {
        "notice": "transferFrom performs a simple transfer, without calling the hooks  (no _beforeTokenTransfer and no onERC1155Received)."
      },
      "withdraw(uint256)": {
        "notice": "Withdraw currency from internal to ERC20"
      }
    },
    "notice": "A test contract to test upgradeability",
    "version": 1
  }
}