{
  "contractName": "TestAuction2",
  "abi": [
    {
      "anonymous": false,
      "inputs": [
        {
          "indexed": false,
          "internalType": "address",
          "name": "previousAdmin",
          "type": "address"
        },
        {
          "indexed": false,
          "internalType": "address",
          "name": "newAdmin",
          "type": "address"
        }
      ],
      "name": "AdminChanged",
      "type": "event"
    },
    {
      "anonymous": false,
      "inputs": [
        {
          "indexed": true,
          "internalType": "address",
          "name": "beacon",
          "type": "address"
        }
      ],
      "name": "BeaconUpgraded",
      "type": "event"
    },
    {
      "anonymous": false,
      "inputs": [
        {
          "indexed": true,
          "internalType": "address",
          "name": "seller",
          "type": "address"
        },
        {
          "indexed": true,
          "internalType": "uint256",
          "name": "nftId",
          "type": "uint256"
        },
        {
          "indexed": false,
          "internalType": "uint256",
          "name": "price",
          "type": "uint256"
        },
        {
          "indexed": false,
          "internalType": "uint256",
          "name": "closeTimeSec",
          "type": "uint256"
        },
        {
          "indexed": false,
          "internalType": "address",
          "name": "buyer",
          "type": "address"
        }
      ],
      "name": "BidOnAuction",
      "type": "event"
    },
    {
      "anonymous": false,
      "inputs": [
        {
          "indexed": true,
          "internalType": "bytes32",
          "name": "role",
          "type": "bytes32"
        },
        {
          "indexed": true,
          "internalType": "bytes32",
          "name": "previousAdminRole",
          "type": "bytes32"
        },
        {
          "indexed": true,
          "internalType": "bytes32",
          "name": "newAdminRole",
          "type": "bytes32"
        }
      ],
      "name": "RoleAdminChanged",
      "type": "event"
    },
    {
      "anonymous": false,
      "inputs": [
        {
          "indexed": true,
          "internalType": "bytes32",
          "name": "role",
          "type": "bytes32"
        },
        {
          "indexed": true,
          "internalType": "address",
          "name": "account",
          "type": "address"
        },
        {
          "indexed": true,
          "internalType": "address",
          "name": "sender",
          "type": "address"
        }
      ],
      "name": "RoleGranted",
      "type": "event"
    },
    {
      "anonymous": false,
      "inputs": [
        {
          "indexed": true,
          "internalType": "bytes32",
          "name": "role",
          "type": "bytes32"
        },
        {
          "indexed": true,
          "internalType": "address",
          "name": "account",
          "type": "address"
        },
        {
          "indexed": true,
          "internalType": "address",
          "name": "sender",
          "type": "address"
        }
      ],
      "name": "RoleRevoked",
      "type": "event"
    },
    {
      "anonymous": false,
      "inputs": [
        {
          "indexed": true,
          "internalType": "address",
          "name": "seller",
          "type": "address"
        },
        {
          "indexed": true,
          "internalType": "uint256",
          "name": "nftId",
          "type": "uint256"
        },
        {
          "indexed": false,
          "internalType": "uint256",
          "name": "price",
          "type": "uint256"
        },
        {
          "indexed": false,
          "internalType": "address",
          "name": "buyer",
          "type": "address"
        }
      ],
      "name": "SettleAuction",
      "type": "event"
    },
    {
      "anonymous": false,
      "inputs": [
        {
          "indexed": true,
          "internalType": "address",
          "name": "seller",
          "type": "address"
        },
        {
          "indexed": true,
          "internalType": "uint256",
          "name": "nftId",
          "type": "uint256"
        },
        {
          "indexed": false,
          "internalType": "uint256",
          "name": "price",
          "type": "uint256"
        },
        {
          "indexed": false,
          "internalType": "uint256",
          "name": "closeTimeSec",
          "type": "uint256"
        },
        {
          "indexed": false,
          "internalType": "bool",
          "name": "secured",
          "type": "bool"
        }
      ],
      "name": "StartAuction",
      "type": "event"
    },
    {
      "anonymous": false,
      "inputs": [
        {
          "indexed": true,
          "internalType": "address",
          "name": "implementation",
          "type": "address"
        }
      ],
      "name": "Upgraded",
      "type": "event"
    },
    {
      "inputs": [],
      "name": "BUY_AUTHORIZER_ROLE",
      "outputs": [
        {
          "internalType": "bytes32",
          "name": "",
          "type": "bytes32"
        }
      ],
      "stateMutability": "view",
      "type": "function"
    },
    {
      "inputs": [],
      "name": "CURRENCY",
      "outputs": [
        {
          "internalType": "uint256",
          "name": "",
          "type": "uint256"
        }
      ],
      "stateMutability": "view",
      "type": "function"
    },
    {
      "inputs": [],
      "name": "DEFAULT_ADMIN_ROLE",
      "outputs": [
        {
          "internalType": "bytes32",
          "name": "",
          "type": "bytes32"
        }
      ],
      "stateMutability": "view",
      "type": "function"
    },
    {
      "inputs": [],
      "name": "META_TX_FORWARDER",
      "outputs": [
        {
          "internalType": "bytes32",
          "name": "",
          "type": "bytes32"
        }
      ],
      "stateMutability": "view",
      "type": "function"
    },
    {
      "inputs": [
        {
          "internalType": "address",
          "name": "seller",
          "type": "address"
        },
        {
          "internalType": "uint256",
          "name": "nftId",
          "type": "uint256"
        },
        {
          "internalType": "uint256",
          "name": "price",
          "type": "uint256"
        }
      ],
      "name": "bidOnAuction",
      "outputs": [],
      "stateMutability": "nonpayable",
      "type": "function"
    },
    {
      "inputs": [
        {
          "internalType": "address",
          "name": "seller",
          "type": "address"
        },
        {
          "internalType": "uint256",
          "name": "nftId",
          "type": "uint256"
        },
        {
          "internalType": "uint256",
          "name": "price",
          "type": "uint256"
        },
        {
          "internalType": "bytes",
          "name": "signature",
          "type": "bytes"
        }
      ],
      "name": "bidOnSecuredAuction",
      "outputs": [],
      "stateMutability": "nonpayable",
      "type": "function"
    },
    {
      "inputs": [],
      "name": "freeport",
      "outputs": [
        {
          "internalType": "contract Freeport",
          "name": "",
          "type": "address"
        }
      ],
      "stateMutability": "view",
      "type": "function"
    },
    {
      "inputs": [
        {
          "internalType": "bytes32",
          "name": "role",
          "type": "bytes32"
        }
      ],
      "name": "getRoleAdmin",
      "outputs": [
        {
          "internalType": "bytes32",
          "name": "",
          "type": "bytes32"
        }
      ],
      "stateMutability": "view",
      "type": "function"
    },
    {
      "inputs": [
        {
          "internalType": "bytes32",
          "name": "role",
          "type": "bytes32"
        },
        {
          "internalType": "address",
          "name": "account",
          "type": "address"
        }
      ],
      "name": "grantRole",
      "outputs": [],
      "stateMutability": "nonpayable",
      "type": "function"
    },
    {
      "inputs": [
        {
          "internalType": "bytes32",
          "name": "role",
          "type": "bytes32"
        },
        {
          "internalType": "address",
          "name": "account",
          "type": "address"
        }
      ],
      "name": "hasRole",
      "outputs": [
        {
          "internalType": "bool",
          "name": "",
          "type": "bool"
        }
      ],
      "stateMutability": "view",
      "type": "function"
    },
    {
      "inputs": [
        {
          "internalType": "contract Freeport",
          "name": "_freeport",
          "type": "address"
        }
      ],
      "name": "initialize",
      "outputs": [],
      "stateMutability": "nonpayable",
      "type": "function"
    },
    {
      "inputs": [],
      "name": "initialize_v2_0_0",
      "outputs": [],
      "stateMutability": "nonpayable",
      "type": "function"
    },
    {
      "inputs": [
        {
          "internalType": "address",
          "name": "forwarder",
          "type": "address"
        }
      ],
      "name": "isTrustedForwarder",
      "outputs": [
        {
          "internalType": "bool",
          "name": "",
          "type": "bool"
        }
      ],
      "stateMutability": "view",
      "type": "function"
    },
    {
      "inputs": [
        {
          "internalType": "address",
          "name": "",
          "type": "address"
        },
        {
          "internalType": "address",
          "name": "",
          "type": "address"
        },
        {
          "internalType": "uint256[]",
          "name": "",
          "type": "uint256[]"
        },
        {
          "internalType": "uint256[]",
          "name": "",
          "type": "uint256[]"
        },
        {
          "internalType": "bytes",
          "name": "",
          "type": "bytes"
        }
      ],
      "name": "onERC1155BatchReceived",
      "outputs": [
        {
          "internalType": "bytes4",
          "name": "",
          "type": "bytes4"
        }
      ],
      "stateMutability": "nonpayable",
      "type": "function"
    },
    {
      "inputs": [
        {
          "internalType": "address",
          "name": "",
          "type": "address"
        },
        {
          "internalType": "address",
          "name": "",
          "type": "address"
        },
        {
          "internalType": "uint256",
          "name": "",
          "type": "uint256"
        },
        {
          "internalType": "uint256",
          "name": "",
          "type": "uint256"
        },
        {
          "internalType": "bytes",
          "name": "",
          "type": "bytes"
        }
      ],
      "name": "onERC1155Received",
      "outputs": [
        {
          "internalType": "bytes4",
          "name": "",
          "type": "bytes4"
        }
      ],
      "stateMutability": "nonpayable",
      "type": "function"
    },
    {
      "inputs": [
        {
          "internalType": "bytes32",
          "name": "role",
          "type": "bytes32"
        },
        {
          "internalType": "address",
          "name": "account",
          "type": "address"
        }
      ],
      "name": "renounceRole",
      "outputs": [],
      "stateMutability": "nonpayable",
      "type": "function"
    },
    {
      "inputs": [
        {
          "internalType": "bytes32",
          "name": "role",
          "type": "bytes32"
        },
        {
          "internalType": "address",
          "name": "account",
          "type": "address"
        }
      ],
      "name": "revokeRole",
      "outputs": [],
      "stateMutability": "nonpayable",
      "type": "function"
    },
    {
      "inputs": [
        {
          "internalType": "address",
          "name": "",
          "type": "address"
        },
        {
          "internalType": "uint256",
          "name": "",
          "type": "uint256"
        }
      ],
      "name": "sellerNftBids",
      "outputs": [
        {
          "internalType": "address",
          "name": "buyer",
          "type": "address"
        },
        {
          "internalType": "uint256",
          "name": "price",
          "type": "uint256"
        },
        {
          "internalType": "uint256",
          "name": "closeTimeSec",
          "type": "uint256"
        },
        {
          "internalType": "bool",
          "name": "secured",
          "type": "bool"
        }
      ],
      "stateMutability": "view",
      "type": "function"
    },
    {
      "inputs": [
        {
          "internalType": "address",
          "name": "seller",
          "type": "address"
        },
        {
          "internalType": "uint256",
          "name": "nftId",
          "type": "uint256"
        }
      ],
      "name": "settleAuction",
      "outputs": [],
      "stateMutability": "nonpayable",
      "type": "function"
    },
    {
      "inputs": [
        {
          "internalType": "uint256",
          "name": "nftId",
          "type": "uint256"
        },
        {
          "internalType": "uint256",
          "name": "minPrice",
          "type": "uint256"
        },
        {
          "internalType": "uint256",
          "name": "closeTimeSec",
          "type": "uint256"
        }
      ],
      "name": "startAuction",
      "outputs": [],
      "stateMutability": "nonpayable",
      "type": "function"
    },
    {
      "inputs": [
        {
          "internalType": "uint256",
          "name": "nftId",
          "type": "uint256"
        },
        {
          "internalType": "uint256",
          "name": "minPrice",
          "type": "uint256"
        },
        {
          "internalType": "uint256",
          "name": "closeTimeSec",
          "type": "uint256"
        },
        {
          "internalType": "bool",
          "name": "secured",
          "type": "bool"
        }
      ],
      "name": "startSecuredAuction",
      "outputs": [],
      "stateMutability": "nonpayable",
      "type": "function"
    },
    {
      "inputs": [
        {
          "internalType": "bytes4",
          "name": "interfaceId",
          "type": "bytes4"
        }
      ],
      "name": "supportsInterface",
      "outputs": [
        {
          "internalType": "bool",
          "name": "",
          "type": "bool"
        }
      ],
      "stateMutability": "view",
      "type": "function"
    },
    {
      "inputs": [
        {
          "internalType": "address",
          "name": "newImplementation",
          "type": "address"
        }
      ],
      "name": "upgradeTo",
      "outputs": [],
      "stateMutability": "nonpayable",
      "type": "function"
    },
    {
      "inputs": [
        {
          "internalType": "address",
          "name": "newImplementation",
          "type": "address"
        },
        {
          "internalType": "bytes",
          "name": "data",
          "type": "bytes"
        }
      ],
      "name": "upgradeToAndCall",
      "outputs": [],
      "stateMutability": "payable",
      "type": "function"
    },
    {
      "inputs": [
        {
          "internalType": "address",
          "name": "seller",
          "type": "address"
        },
        {
          "internalType": "uint256",
          "name": "nftId",
          "type": "uint256"
        }
      ],
      "name": "testForceSettle",
      "outputs": [],
      "stateMutability": "nonpayable",
      "type": "function"
    }
  ],
  "bytecode": "0x608060405234801561001057600080fd5b506128f8806100206000396000f3fe6080604052600436106101255760003560e01c80625f9a3a1461012a57806301ffc9a71461014c578063248a9ca314610181578063297f4eb6146101af5780632f2ff15d1461023657806336568abe146102565780633659cfe6146102765780633d6f291f146102965780634195b151146102ab5780634f1ef286146102cb5780635138b08c146102de578063572b6c05146102fe57806391d148541461031e57806391e078bb1461033e5780639470ad851461035e5780639a86e8ce1461038c5780639d31ef51146103ae578063a217fddf146103ce578063bc197c81146103e3578063c4d66de814610428578063d547741f14610448578063e603a87014610468578063ea46d76c1461048a578063f23a6e61146104aa578063f5361219146103ce575b600080fd5b34801561013657600080fd5b5061014a6101453660046123d7565b6104d6565b005b34801561015857600080fd5b5061016c6101673660046124f9565b610510565b60405190151581526020015b60405180910390f35b34801561018d57600080fd5b506101a161019c3660046124b2565b610530565b604051908152602001610178565b3480156101bb57600080fd5b5061020a6101ca3660046123d7565b61019460209081526000928352604080842090915290825290208054600182015460028301546003909301546001600160a01b0390921692909160ff1684565b604080516001600160a01b03909516855260208501939093529183015215156060820152608001610178565b34801561024257600080fd5b5061014a6102513660046124ca565b610545565b34801561026257600080fd5b5061014a6102713660046124ca565b610569565b34801561028257600080fd5b5061014a61029136600461225f565b6105fc565b3480156102a257600080fd5b5061014a610623565b3480156102b757600080fd5b5061014a6102c6366004612436565b6107c8565b61014a6102d936600461238a565b610a3c565b3480156102ea57600080fd5b5061014a6102f93660046123d7565b610a51565b34801561030a57600080fd5b5061016c61031936600461225f565b610d1b565b34801561032a57600080fd5b5061016c6103393660046124ca565b610d31565b34801561034a57600080fd5b5061014a610359366004612555565b610d5c565b34801561036a57600080fd5b506101935461037f906001600160a01b031681565b604051610178919061264b565b34801561039857600080fd5b506101a160008051602061288383398151915281565b3480156103ba57600080fd5b5061014a6103c9366004612580565b610d65565b3480156103da57600080fd5b506101a1600081565b3480156103ef57600080fd5b5061040f6103fe36600461227b565b63bc197c8160e01b95945050505050565b6040516001600160e01b03199091168152602001610178565b34801561043457600080fd5b5061014a61044336600461225f565b610fef565b34801561045457600080fd5b5061014a6104633660046124ca565b61108f565b34801561047457600080fd5b506101a16000805160206128a383398151915281565b34801561049657600080fd5b5061014a6104a5366004612402565b6110ae565b3480156104b657600080fd5b5061040f6104c5366004612324565b63f23a6e6160e01b95945050505050565b6001600160a01b03821660009081526101946020908152604080832084845290915290206001600282015561050b8383610a51565b505050565b600061051b826110c9565b8061052a575061052a826110fe565b92915050565b600090815260c9602052604090206001015490565b61054e82610530565b61055f8161055a611123565b61114a565b61050b83836111ae565b610571611123565b6001600160a01b0316816001600160a01b0316146105ee5760405162461bcd60e51b815260206004820152602f60248201527f416363657373436f6e74726f6c3a2063616e206f6e6c792072656e6f756e636560448201526e103937b632b9903337b91039b2b63360891b60648201526084015b60405180910390fd5b6105f88282611235565b5050565b610605816112ba565b610620816040518060200160405280600081525060006112fe565b50565b6101935460408051632e5604bd60e21b815290516000926001600160a01b03169163b95812f4916004808301926020929190829003018186803b15801561066957600080fd5b505afa15801561067d573d6000803e3d6000fd5b505050506040513d601f19601f820116820180604052508101906106a19190612521565b61019354604051636eb1769f60e11b81523060048201526001600160a01b039182166024820152919250600091829184169063dd62ed3e9060440160206040518083038186803b1580156106f457600080fd5b505afa158015610708573d6000803e3d6000fd5b505050506040513d601f19601f8201168201806040525081019061072c919061253d565b1190508015610739575050565b6101935460405163095ea7b360e01b8152600019916001600160a01b038086169263095ea7b3926107709216908590600401612688565b602060405180830381600087803b15801561078a57600080fd5b505af115801561079e573d6000803e3d6000fd5b505050506040513d601f19601f820116820180604052508101906107c29190612496565b50505050565b60006107d2611123565b6001600160a01b038616600090815261019460209081526040808320888452909152902060038101549192509060ff161561087c57600061081483878661147a565b905061082e6000805160206128a383398151915282610d31565b61087a5760405162461bcd60e51b815260206004820152601e60248201527f41757468726f697a657220646f65736e27742068617665206120726f6c65000060448201526064016105e5565b505b806002015442106108ca5760405162461bcd60e51b81526020600482015260186024820152773a34329030bab1ba34b7b71036bab9ba1031329037b832b760411b60448201526064016105e5565b6108d642610258612752565b816002015410156108fd576102588160020160008282546108f79190612752565b90915550505b60018101546000606461091183606e61278a565b61091b919061276a565b9050808610156109885760405162461bcd60e51b815260206004820152603260248201527f61206e657720626964206d757374206265203130252067726561746572207468604482015271185b881d1a194818dd5c9c995b9d08189a5960721b60648201526084016105e5565b82546001600160a01b031680156109a3576109a381846114ff565b83546001600160a01b0319166001600160a01b038616178455600184018790556109cd8588611605565b87896001600160a01b03167f39e9b26db60de3ca88f045fdd8954028f1bbd0c6e2ff124121cb5a03da37019189876002015489604051610a299392919092835260208301919091526001600160a01b0316604082015260600190565b60405180910390a3505050505050505050565b610a45826112ba565b6105f8828260016112fe565b6001600160a01b03821660009081526101946020908152604080832084845290915290206002810154610abf5760405162461bcd60e51b81526020600482015260166024820152751d1a1948185d58dd1a5bdb881b5d5cdd08195e1a5cdd60521b60448201526064016105e5565b4281600201541115610b105760405162461bcd60e51b815260206004820152601a6024820152791d1a1948185d58dd1a5bdb881b5d5cdd0818994818db1bdcd95960321b60448201526064016105e5565b80546001820180546001600160a01b031983168455600091829055600284019190915560038301805460ff191690556001600160a01b03909116908115610c6157610b5b85826116c9565b61019354604051637f4c824d60e11b81526001600160a01b039091169063fe99049a90610b939030908690899060019060040161265f565b600060405180830381600087803b158015610bad57600080fd5b505af1158015610bc1573d6000803e3d6000fd5b505061019354604051630b8bacf160e31b81526001600160a01b0389811660048301526024820189905260448201869052600160648301529091169250635c5d67889150608401602060405180830381600087803b158015610c2257600080fd5b505af1925050508015610c52575060408051601f3d908101601f19168201909252610c4f9181019061253d565b60015b610c5b57610ccc565b50610ccc565b61019354604051637f4c824d60e11b81526001600160a01b039091169063fe99049a90610c999030908990899060019060040161265f565b600060405180830381600087803b158015610cb357600080fd5b505af1158015610cc7573d6000803e3d6000fd5b505050505b604080518281526001600160a01b0384811660208301528692908816917ffe2c1531a975fce0584787c5e2643df8c1fe92f870c9dbadb24e366e31e79f44910160405180910390a35050505050565b600061052a600080516020612883833981519152835b600091825260c9602090815260408084206001600160a01b0393909316845291905290205460ff1690565b61050b83838360005b6000610d6f611123565b6001600160a01b038116600090815261019460209081526040808320898452909152902090915085610ddd5760405162461bcd60e51b815260206004820152601760248201527663616e6e6f742061756374696f6e2063757272656e637960481b60448201526064016105e5565b600281015415610e2c5760405162461bcd60e51b815260206004820152601a6024820152791d1a1948185d58dd1a5bdb881b5d5cdd081b9bdd08195e1a5cdd60321b60448201526064016105e5565b834210610e875760405162461bcd60e51b8152602060048201526024808201527f74686520636c6f73652074696d65206d75737420626520696e207468652066756044820152637475726560e01b60648201526084016105e5565b6000606e610e9687606461278a565b610ea0919061276a565b905060008111610f045760405162461bcd60e51b815260206004820152602960248201527f746865207374617274696e67207072696365206d75737420626520677265617460448201526806572207468616e20360bc1b60648201526084016105e5565b81546001600160a01b031916825560018083018290556002830186905560038301805460ff191686151517905561019354604051637f4c824d60e11b81526001600160a01b039091169163fe99049a91610f6691879130918d9160040161265f565b600060405180830381600087803b158015610f8057600080fd5b505af1158015610f94573d6000803e3d6000fd5b505060408051848152602081018990528715158183015290518a93506001600160a01b03871692507f52b1a4e32f79b6e635261169c03176e663329edb41cec81b88c97cc7fbe8448a9181900360600190a350505050505050565b600054610100900460ff1680611008575060005460ff16155b6110245760405162461bcd60e51b81526004016105e5906126d4565b600054610100900460ff16158015611046576000805461ffff19166101011790555b61104e611796565b6110566117a0565b61105e611823565b61019380546001600160a01b0319166001600160a01b03841617905580156105f8576000805461ff00191690555050565b61109882610530565b6110a48161055a611123565b61050b8383611235565b61050b838383604051806020016040528060008152506107c8565b60006001600160e01b03198216637965db0b60e01b148061052a57506301ffc9a760e01b6001600160e01b031983161461052a565b60006001600160e01b03198216630271189760e51b148061052a575061052a826110c9565b600061112e33610d1b565b15611140575060131936013560601c90565b503390565b905090565b6111548282610d31565b6105f85761116c816001600160a01b031660146118bd565b6111778360206118bd565b6040516020016111889291906125dc565b60408051601f198184030181529082905262461bcd60e51b82526105e5916004016126a1565b6111b88282610d31565b6105f857600082815260c9602090815260408083206001600160a01b03851684529091529020805460ff191660011790556111f1611123565b6001600160a01b0316816001600160a01b0316837f2f8788117e7eff1d82e926ec794901d17c78024a50270940304540a733656f0d60405160405180910390a45050565b61123f8282610d31565b156105f857600082815260c9602090815260408083206001600160a01b03851684529091529020805460ff19169055611276611123565b6001600160a01b0316816001600160a01b0316837ff6391f5c32d9c69d2a47ea670b442974b53935d1edc7fd64eb21e047a839171b60405160405180910390a45050565b6112c5600033610d31565b6106205760405162461bcd60e51b815260206004820152600a60248201526927b7363c9020b236b4b760b11b60448201526064016105e5565b6000611308611a9e565b905061131384611aba565b6000835111806113205750815b156113315761132f8484611b4d565b505b7f4910fdfa16fed3260ed0e7147f7cc6da11a60208b5b9406d12a635614ffd9143805460ff1661147357805460ff191660011781556040516113ac90869061137d90859060240161264b565b60408051601f198184030181529190526020810180516001600160e01b0316631b2ce7f360e11b179052611b4d565b50805460ff191681556113bd611a9e565b6001600160a01b0316826001600160a01b0316146114355760405162461bcd60e51b815260206004820152602f60248201527f45524331393637557067726164653a207570677261646520627265616b73206660448201526e75727468657220757067726164657360881b60648201526084016105e5565b61143e85611aba565b6040516001600160a01b038616907fbc7cd75a20ee27fd9adebab32041f755214dbc6bffa90cc0225b39da2e5c2d3b90600090a25b5050505050565b6000806114f4836114ee7fec3a2fb36466c720eb5eece72c8492a46185c1db6b7f1d09b827c3c8424f3fb388886040516020016114d3939291909283526001600160a01b03919091166020830152604082015260600190565b60405160208183030381529060405280519060200120611c38565b90611c86565b9150505b9392505050565b61019360009054906101000a90046001600160a01b03166001600160a01b031663b95812f46040518163ffffffff1660e01b815260040160206040518083038186803b15801561154e57600080fd5b505afa158015611562573d6000803e3d6000fd5b505050506040513d601f19601f820116820180604052508101906115869190612521565b6001600160a01b031663a9059cbb83836040518363ffffffff1660e01b81526004016115b3929190612688565b602060405180830381600087803b1580156115cd57600080fd5b505af11580156115e1573d6000803e3d6000fd5b505050506040513d601f19601f8201168201806040525081019061050b9190612496565b61019360009054906101000a90046001600160a01b03166001600160a01b031663b95812f46040518163ffffffff1660e01b815260040160206040518083038186803b15801561165457600080fd5b505afa158015611668573d6000803e3d6000fd5b505050506040513d601f19601f8201168201806040525081019061168c9190612521565b6040516323b872dd60e01b81526001600160a01b0384811660048301523060248301526044820184905291909116906323b872dd906064016115b3565b6101935460405163b6b55f2560e01b8152600481018390526001600160a01b039091169063b6b55f2590602401600060405180830381600087803b15801561171057600080fd5b505af1158015611724573d6000803e3d6000fd5b505061019354604051637f4c824d60e11b81526001600160a01b03909116925063fe99049a91506117609030908690600090879060040161265f565b600060405180830381600087803b15801561177a57600080fd5b505af115801561178e573d6000803e3d6000fd5b505050505050565b61179e611d3c565b565b600054610100900460ff16806117b9575060005460ff16155b6117d55760405162461bcd60e51b81526004016105e5906126d4565b600054610100900460ff161580156117f7576000805461ffff19166101011790555b6117ff611d57565b611807611d57565b61180f611d57565b8015610620576000805461ff001916905550565b600054610100900460ff168061183c575060005460ff16155b6118585760405162461bcd60e51b81526004016105e5906126d4565b600054610100900460ff1615801561187a576000805461ffff19166101011790555b61180f60405180604001604052806008815260200167119c99595c1bdc9d60c21b815250604051806040016040528060018152602001601960f91b815250611dc1565b606060006118cc83600261278a565b6118d7906002612752565b6001600160401b038111156118fc57634e487b7160e01b600052604160045260246000fd5b6040519080825280601f01601f191660200182016040528015611926576020820181803683370190505b509050600360fc1b8160008151811061194f57634e487b7160e01b600052603260045260246000fd5b60200101906001600160f81b031916908160001a905350600f60fb1b8160018151811061198c57634e487b7160e01b600052603260045260246000fd5b60200101906001600160f81b031916908160001a90535060006119b084600261278a565b6119bb906001612752565b90505b6001811115611a4f576f181899199a1a9b1b9c1cb0b131b232b360811b85600f16601081106119fd57634e487b7160e01b600052603260045260246000fd5b1a60f81b828281518110611a2157634e487b7160e01b600052603260045260246000fd5b60200101906001600160f81b031916908160001a90535060049490941c93611a48816127d5565b90506119be565b5083156114f85760405162461bcd60e51b815260206004820181905260248201527f537472696e67733a20686578206c656e67746820696e73756666696369656e7460448201526064016105e5565b60008051602061283c833981519152546001600160a01b031690565b803b611b1e5760405162461bcd60e51b815260206004820152602d60248201527f455243313936373a206e657720696d706c656d656e746174696f6e206973206e60448201526c1bdd08184818dbdb9d1c9858dd609a1b60648201526084016105e5565b60008051602061283c83398151915280546001600160a01b0319166001600160a01b0392909216919091179055565b6060823b611bac5760405162461bcd60e51b815260206004820152602660248201527f416464726573733a2064656c65676174652063616c6c20746f206e6f6e2d636f6044820152651b9d1c9858dd60d21b60648201526084016105e5565b600080846001600160a01b031684604051611bc791906125c0565b600060405180830381855af49150503d8060008114611c02576040519150601f19603f3d011682016040523d82523d6000602084013e611c07565b606091505b5091509150611c2f828260405180606001604052806027815260200161285c60279139611e38565b95945050505050565b600061052a611c45611e71565b8360405161190160f01b6020820152602281018390526042810182905260009060620160405160208183030381529060405280519060200120905092915050565b600080600080845160411415611cb05750505060208201516040830151606084015160001a611d26565b845160401415611cde5750505060408201516020830151906001600160ff1b0381169060ff1c601b01611d26565b60405162461bcd60e51b815260206004820152601f60248201527f45434453413a20696e76616c6964207369676e6174757265206c656e6774680060448201526064016105e5565b611d3286828585611eee565b9695505050505050565b611d4461207f565b611d4c6117a0565b61179e6000336120dd565b600054610100900460ff1680611d70575060005460ff16155b611d8c5760405162461bcd60e51b81526004016105e5906126d4565b600054610100900460ff1615801561180f576000805461ffff19166101011790558015610620576000805461ff001916905550565b600054610100900460ff1680611dda575060005460ff16155b611df65760405162461bcd60e51b81526004016105e5906126d4565b600054610100900460ff16158015611e18576000805461ffff19166101011790555b611e2283836120e7565b801561050b576000805461ff0019169055505050565b60608315611e475750816114f8565b825115611e575782518084602001fd5b8160405162461bcd60e51b81526004016105e591906126a1565b60006111457f8b73c3c69bb8fe3d512ecc4cf759cc79239f7b179b0ffacaa9a75d522b39400f611ea161015f5490565b610160546040805160208101859052908101839052606081018290524660808201523060a082015260009060c0016040516020818303038152906040528051906020012090509392505050565b60006fa2a8918ca85bafe22016d0b997e4df60600160ff1b03821115611f615760405162461bcd60e51b815260206004820152602260248201527f45434453413a20696e76616c6964207369676e6174757265202773272076616c604482015261756560f01b60648201526084016105e5565b8360ff16601b1480611f7657508360ff16601c145b611fcd5760405162461bcd60e51b815260206004820152602260248201527f45434453413a20696e76616c6964207369676e6174757265202776272076616c604482015261756560f01b60648201526084016105e5565b6040805160008082526020820180845288905260ff871692820192909252606081018590526080810184905260019060a0016020604051602081039080840390855afa158015612021573d6000803e3d6000fd5b5050604051601f1901519150506001600160a01b038116611c2f5760405162461bcd60e51b815260206004820152601860248201527745434453413a20696e76616c6964207369676e617475726560401b60448201526064016105e5565b600054610100900460ff1680612098575060005460ff16155b6120b45760405162461bcd60e51b81526004016105e5906126d4565b600054610100900460ff161580156117ff576000805461ffff1916610101179055611807611d57565b6105f882826111ae565b600054610100900460ff1680612100575060005460ff16155b61211c5760405162461bcd60e51b81526004016105e5906126d4565b600054610100900460ff1615801561213e576000805461ffff19166101011790555b825160208085019190912083519184019190912061015f9190915561016055801561050b576000805461ff0019169055505050565b600082601f830112612183578081fd5b813560206001600160401b0382111561219e5761219e612802565b8160051b6121ad828201612722565b8381528281019086840183880185018910156121c7578687fd5b8693505b858410156121e95780358352600193909301929184019184016121cb565b50979650505050505050565b600082601f830112612205578081fd5b81356001600160401b0381111561221e5761221e612802565b612231601f8201601f1916602001612722565b818152846020838601011115612245578283fd5b816020850160208301379081016020019190915292915050565b600060208284031215612270578081fd5b81356114f881612818565b600080600080600060a08688031215612292578081fd5b853561229d81612818565b945060208601356122ad81612818565b935060408601356001600160401b03808211156122c8578283fd5b6122d489838a01612173565b945060608801359150808211156122e9578283fd5b6122f589838a01612173565b9350608088013591508082111561230a578283fd5b50612317888289016121f5565b9150509295509295909350565b600080600080600060a0868803121561233b578081fd5b853561234681612818565b9450602086013561235681612818565b9350604086013592506060860135915060808601356001600160401b0381111561237e578182fd5b612317888289016121f5565b6000806040838503121561239c578182fd5b82356123a781612818565b915060208301356001600160401b038111156123c1578182fd5b6123cd858286016121f5565b9150509250929050565b600080604083850312156123e9578182fd5b82356123f481612818565b946020939093013593505050565b600080600060608486031215612416578283fd5b833561242181612818565b95602085013595506040909401359392505050565b6000806000806080858703121561244b578384fd5b843561245681612818565b9350602085013592506040850135915060608501356001600160401b0381111561247e578182fd5b61248a878288016121f5565b91505092959194509250565b6000602082840312156124a7578081fd5b81516114f88161282d565b6000602082840312156124c3578081fd5b5035919050565b600080604083850312156124dc578182fd5b8235915060208301356124ee81612818565b809150509250929050565b60006020828403121561250a578081fd5b81356001600160e01b0319811681146114f8578182fd5b600060208284031215612532578081fd5b81516114f881612818565b60006020828403121561254e578081fd5b5051919050565b600080600060608486031215612569578081fd5b505081359360208301359350604090920135919050565b60008060008060808587031215612595578182fd5b84359350602085013592506040850135915060608501356125b58161282d565b939692955090935050565b600082516125d28184602087016127a9565b9190910192915050565b76020b1b1b2b9b9a1b7b73a3937b61d1030b1b1b7bab73a1604d1b81526000835161260e8160178501602088016127a9565b7001034b99036b4b9b9b4b733903937b6329607d1b601791840191820152835161263f8160288401602088016127a9565b01602801949350505050565b6001600160a01b0391909116815260200190565b6001600160a01b0394851681529290931660208301526040820152606081019190915260800190565b6001600160a01b03929092168252602082015260400190565b60208152600082518060208401526126c08160408501602087016127a9565b601f01601f19169190910160400192915050565b6020808252602e908201527f496e697469616c697a61626c653a20636f6e747261637420697320616c72656160408201526d191e481a5b9a5d1a585b1a5e995960921b606082015260800190565b604051601f8201601f191681016001600160401b038111828210171561274a5761274a612802565b604052919050565b60008219821115612765576127656127ec565b500190565b60008261278557634e487b7160e01b81526012600452602481fd5b500490565b60008160001904831182151516156127a4576127a46127ec565b500290565b60005b838110156127c45781810151838201526020016127ac565b838111156107c25750506000910152565b6000816127e4576127e46127ec565b506000190190565b634e487b7160e01b600052601160045260246000fd5b634e487b7160e01b600052604160045260246000fd5b6001600160a01b038116811461062057600080fd5b801515811461062057600080fdfe360894a13ba1a3210667c828492db98dca3e2076cc3735a920a3ca505d382bbc416464726573733a206c6f772d6c6576656c2064656c65676174652063616c6c206661696c65643d2e894c222ba979e2dce2c7d940c0e9bb14306669e9f034eb1bb3979a2069d8ab6d842310ede8efb59f5a0e3e5baae24ab3d2229acf8511623722ce39ab3bdea264697066735822122063a2a954ea43d807929e5dd69b5fcff8b04779c10920e98e42348a6b257848cf64736f6c63430008040033",
  "immutableReferences": {},
  "source": "pragma solidity ^0.8.0;\n\nimport \"./SimpleAuction.sol\";\n\n/** A test contract to test upgradeability\n*/\ncontract TestAuction2 is SimpleAuction {\n    function testForceSettle(address seller, uint256 nftId) public {\n        Bid storage bid = sellerNftBids[seller][nftId];\n        bid.closeTimeSec = 1;\n        settleAuction(seller, nftId);\n    }\n}\n",
  "sourcePath": "/home/nadtech/Visual_Studio/Freeport-Smart-Contracts/contracts/TestAuction2.sol",
  "compiler": {
    "name": "solc",
    "version": "0.8.4+commit.c7e474f2.Emscripten.clang"
  },
  "schemaVersion": "3.4.4",
  "updatedAt": "2022-03-23T11:54:15.668Z",
  "devdoc": {
    "kind": "dev",
    "methods": {
      "getRoleAdmin(bytes32)": {
        "details": "Returns the admin role that controls `role`. See {grantRole} and {revokeRole}. To change a role's admin, use {_setRoleAdmin}."
      },
      "grantRole(bytes32,address)": {
        "details": "Grants `role` to `account`. If `account` had not been already granted `role`, emits a {RoleGranted} event. Requirements: - the caller must have ``role``'s admin role."
      },
      "hasRole(bytes32,address)": {
        "details": "Returns `true` if `account` has been granted `role`."
      },
      "renounceRole(bytes32,address)": {
        "details": "Revokes `role` from the calling account. Roles are often managed via {grantRole} and {revokeRole}: this function's purpose is to provide a mechanism for accounts to lose their privileges if they are compromised (such as when a trusted device is misplaced). If the calling account had been granted `role`, emits a {RoleRevoked} event. Requirements: - the caller must be `account`."
      },
      "revokeRole(bytes32,address)": {
        "details": "Revokes `role` from `account`. If `account` had been granted `role`, emits a {RoleRevoked} event. Requirements: - the caller must have ``role``'s admin role."
      }
    },
    "version": 1
  },
  "userdoc": {
    "events": {
      "BidOnAuction(address,uint256,uint256,uint256,address)": {
        "notice": "Note: `price`, `closeTimeSec`, and `buyer` may have changed for the auction `(seller, nftId)`."
      },
      "SettleAuction(address,uint256,uint256,address)": {
        "notice": "Note: `buyer == 0` means no buyer, and the NFT went back to the seller."
      },
      "StartAuction(address,uint256,uint256,uint256,bool)": {
        "notice": "Note: `price` is the minimum price minus 10%, because a bid must be 10% higher, resulting in the requested minimum price."
      }
    },
    "kind": "user",
    "methods": {
      "CURRENCY()": {
        "notice": "The token ID that represents the CERE currency for all payments in this contract. "
      },
      "initialize(address)": {
        "notice": "Initialize this contract and its dependencies."
      },
      "initialize_v2_0_0()": {
        "notice": "Initialize this contract after version 2.0.0. Allow deposit of USDC into Freeport."
      },
      "sellerNftBids(address,uint256)": {
        "notice": "Seller => NFT ID => Bid."
      },
      "supportsInterface(bytes4)": {
        "notice": "Supports interfaces of AccessControl and ERC1155Receiver."
      }
    },
    "notice": "A test contract to test upgradeability",
    "version": 1
  }
}