{
  "contractName": "TestAuction2",
  "abi": [
    {
      "anonymous": false,
      "inputs": [
        {
          "indexed": false,
          "internalType": "address",
          "name": "previousAdmin",
          "type": "address"
        },
        {
          "indexed": false,
          "internalType": "address",
          "name": "newAdmin",
          "type": "address"
        }
      ],
      "name": "AdminChanged",
      "type": "event"
    },
    {
      "anonymous": false,
      "inputs": [
        {
          "indexed": true,
          "internalType": "address",
          "name": "beacon",
          "type": "address"
        }
      ],
      "name": "BeaconUpgraded",
      "type": "event"
    },
    {
      "anonymous": false,
      "inputs": [
        {
          "indexed": true,
          "internalType": "address",
          "name": "seller",
          "type": "address"
        },
        {
          "indexed": true,
          "internalType": "uint256",
          "name": "nftId",
          "type": "uint256"
        },
        {
          "indexed": false,
          "internalType": "uint256",
          "name": "price",
          "type": "uint256"
        },
        {
          "indexed": false,
          "internalType": "uint256",
          "name": "closeTimeSec",
          "type": "uint256"
        },
        {
          "indexed": false,
          "internalType": "address",
          "name": "buyer",
          "type": "address"
        }
      ],
      "name": "BidOnAuction",
      "type": "event"
    },
    {
      "anonymous": false,
      "inputs": [
        {
          "indexed": true,
          "internalType": "bytes32",
          "name": "role",
          "type": "bytes32"
        },
        {
          "indexed": true,
          "internalType": "bytes32",
          "name": "previousAdminRole",
          "type": "bytes32"
        },
        {
          "indexed": true,
          "internalType": "bytes32",
          "name": "newAdminRole",
          "type": "bytes32"
        }
      ],
      "name": "RoleAdminChanged",
      "type": "event"
    },
    {
      "anonymous": false,
      "inputs": [
        {
          "indexed": true,
          "internalType": "bytes32",
          "name": "role",
          "type": "bytes32"
        },
        {
          "indexed": true,
          "internalType": "address",
          "name": "account",
          "type": "address"
        },
        {
          "indexed": true,
          "internalType": "address",
          "name": "sender",
          "type": "address"
        }
      ],
      "name": "RoleGranted",
      "type": "event"
    },
    {
      "anonymous": false,
      "inputs": [
        {
          "indexed": true,
          "internalType": "bytes32",
          "name": "role",
          "type": "bytes32"
        },
        {
          "indexed": true,
          "internalType": "address",
          "name": "account",
          "type": "address"
        },
        {
          "indexed": true,
          "internalType": "address",
          "name": "sender",
          "type": "address"
        }
      ],
      "name": "RoleRevoked",
      "type": "event"
    },
    {
      "anonymous": false,
      "inputs": [
        {
          "indexed": true,
          "internalType": "address",
          "name": "seller",
          "type": "address"
        },
        {
          "indexed": true,
          "internalType": "uint256",
          "name": "nftId",
          "type": "uint256"
        },
        {
          "indexed": false,
          "internalType": "uint256",
          "name": "price",
          "type": "uint256"
        },
        {
          "indexed": false,
          "internalType": "address",
          "name": "buyer",
          "type": "address"
        }
      ],
      "name": "SettleAuction",
      "type": "event"
    },
    {
      "anonymous": false,
      "inputs": [
        {
          "indexed": true,
          "internalType": "address",
          "name": "seller",
          "type": "address"
        },
        {
          "indexed": true,
          "internalType": "uint256",
          "name": "nftId",
          "type": "uint256"
        },
        {
          "indexed": false,
          "internalType": "uint256",
          "name": "price",
          "type": "uint256"
        },
        {
          "indexed": false,
          "internalType": "uint256",
          "name": "closeTimeSec",
          "type": "uint256"
        }
      ],
      "name": "StartAuction",
      "type": "event"
    },
    {
      "anonymous": false,
      "inputs": [
        {
          "indexed": true,
          "internalType": "address",
          "name": "implementation",
          "type": "address"
        }
      ],
      "name": "Upgraded",
      "type": "event"
    },
    {
      "inputs": [],
      "name": "BUY_AUTHORIZER_ROLE",
      "outputs": [
        {
          "internalType": "bytes32",
          "name": "",
          "type": "bytes32"
        }
      ],
      "stateMutability": "view",
      "type": "function"
    },
    {
      "inputs": [],
      "name": "CURRENCY",
      "outputs": [
        {
          "internalType": "uint256",
          "name": "",
          "type": "uint256"
        }
      ],
      "stateMutability": "view",
      "type": "function"
    },
    {
      "inputs": [],
      "name": "DEFAULT_ADMIN_ROLE",
      "outputs": [
        {
          "internalType": "bytes32",
          "name": "",
          "type": "bytes32"
        }
      ],
      "stateMutability": "view",
      "type": "function"
    },
    {
      "inputs": [],
      "name": "META_TX_FORWARDER",
      "outputs": [
        {
          "internalType": "bytes32",
          "name": "",
          "type": "bytes32"
        }
      ],
      "stateMutability": "view",
      "type": "function"
    },
    {
      "inputs": [
        {
          "internalType": "address",
          "name": "seller",
          "type": "address"
        },
        {
          "internalType": "uint256",
          "name": "nftId",
          "type": "uint256"
        },
        {
          "internalType": "uint256",
          "name": "price",
          "type": "uint256"
        },
        {
          "internalType": "bytes",
          "name": "signature",
          "type": "bytes"
        }
      ],
      "name": "bidOnAuction",
      "outputs": [],
      "stateMutability": "nonpayable",
      "type": "function"
    },
    {
      "inputs": [],
      "name": "freeport",
      "outputs": [
        {
          "internalType": "contract Freeport",
          "name": "",
          "type": "address"
        }
      ],
      "stateMutability": "view",
      "type": "function"
    },
    {
      "inputs": [
        {
          "internalType": "bytes32",
          "name": "role",
          "type": "bytes32"
        }
      ],
      "name": "getRoleAdmin",
      "outputs": [
        {
          "internalType": "bytes32",
          "name": "",
          "type": "bytes32"
        }
      ],
      "stateMutability": "view",
      "type": "function"
    },
    {
      "inputs": [
        {
          "internalType": "bytes32",
          "name": "role",
          "type": "bytes32"
        },
        {
          "internalType": "address",
          "name": "account",
          "type": "address"
        }
      ],
      "name": "grantRole",
      "outputs": [],
      "stateMutability": "nonpayable",
      "type": "function"
    },
    {
      "inputs": [
        {
          "internalType": "bytes32",
          "name": "role",
          "type": "bytes32"
        },
        {
          "internalType": "address",
          "name": "account",
          "type": "address"
        }
      ],
      "name": "hasRole",
      "outputs": [
        {
          "internalType": "bool",
          "name": "",
          "type": "bool"
        }
      ],
      "stateMutability": "view",
      "type": "function"
    },
    {
      "inputs": [
        {
          "internalType": "contract Freeport",
          "name": "_freeport",
          "type": "address"
        }
      ],
      "name": "initialize",
      "outputs": [],
      "stateMutability": "nonpayable",
      "type": "function"
    },
    {
      "inputs": [],
      "name": "initialize_v2_0_0",
      "outputs": [],
      "stateMutability": "nonpayable",
      "type": "function"
    },
    {
      "inputs": [
        {
          "internalType": "address",
          "name": "forwarder",
          "type": "address"
        }
      ],
      "name": "isTrustedForwarder",
      "outputs": [
        {
          "internalType": "bool",
          "name": "",
          "type": "bool"
        }
      ],
      "stateMutability": "view",
      "type": "function"
    },
    {
      "inputs": [
        {
          "internalType": "address",
          "name": "",
          "type": "address"
        },
        {
          "internalType": "address",
          "name": "",
          "type": "address"
        },
        {
          "internalType": "uint256[]",
          "name": "",
          "type": "uint256[]"
        },
        {
          "internalType": "uint256[]",
          "name": "",
          "type": "uint256[]"
        },
        {
          "internalType": "bytes",
          "name": "",
          "type": "bytes"
        }
      ],
      "name": "onERC1155BatchReceived",
      "outputs": [
        {
          "internalType": "bytes4",
          "name": "",
          "type": "bytes4"
        }
      ],
      "stateMutability": "nonpayable",
      "type": "function"
    },
    {
      "inputs": [
        {
          "internalType": "address",
          "name": "",
          "type": "address"
        },
        {
          "internalType": "address",
          "name": "",
          "type": "address"
        },
        {
          "internalType": "uint256",
          "name": "",
          "type": "uint256"
        },
        {
          "internalType": "uint256",
          "name": "",
          "type": "uint256"
        },
        {
          "internalType": "bytes",
          "name": "",
          "type": "bytes"
        }
      ],
      "name": "onERC1155Received",
      "outputs": [
        {
          "internalType": "bytes4",
          "name": "",
          "type": "bytes4"
        }
      ],
      "stateMutability": "nonpayable",
      "type": "function"
    },
    {
      "inputs": [
        {
          "internalType": "bytes32",
          "name": "role",
          "type": "bytes32"
        },
        {
          "internalType": "address",
          "name": "account",
          "type": "address"
        }
      ],
      "name": "renounceRole",
      "outputs": [],
      "stateMutability": "nonpayable",
      "type": "function"
    },
    {
      "inputs": [
        {
          "internalType": "bytes32",
          "name": "role",
          "type": "bytes32"
        },
        {
          "internalType": "address",
          "name": "account",
          "type": "address"
        }
      ],
      "name": "revokeRole",
      "outputs": [],
      "stateMutability": "nonpayable",
      "type": "function"
    },
    {
      "inputs": [
        {
          "internalType": "address",
          "name": "",
          "type": "address"
        },
        {
          "internalType": "uint256",
          "name": "",
          "type": "uint256"
        }
      ],
      "name": "sellerNftBids",
      "outputs": [
        {
          "internalType": "address",
          "name": "buyer",
          "type": "address"
        },
        {
          "internalType": "uint256",
          "name": "price",
          "type": "uint256"
        },
        {
          "internalType": "uint256",
          "name": "closeTimeSec",
          "type": "uint256"
        }
      ],
      "stateMutability": "view",
      "type": "function"
    },
    {
      "inputs": [
        {
          "internalType": "address",
          "name": "seller",
          "type": "address"
        },
        {
          "internalType": "uint256",
          "name": "nftId",
          "type": "uint256"
        }
      ],
      "name": "settleAuction",
      "outputs": [],
      "stateMutability": "nonpayable",
      "type": "function"
    },
    {
      "inputs": [
        {
          "internalType": "uint256",
          "name": "nftId",
          "type": "uint256"
        },
        {
          "internalType": "uint256",
          "name": "minPrice",
          "type": "uint256"
        },
        {
          "internalType": "uint256",
          "name": "closeTimeSec",
          "type": "uint256"
        }
      ],
      "name": "startAuction",
      "outputs": [],
      "stateMutability": "nonpayable",
      "type": "function"
    },
    {
      "inputs": [
        {
          "internalType": "bytes4",
          "name": "interfaceId",
          "type": "bytes4"
        }
      ],
      "name": "supportsInterface",
      "outputs": [
        {
          "internalType": "bool",
          "name": "",
          "type": "bool"
        }
      ],
      "stateMutability": "view",
      "type": "function"
    },
    {
      "inputs": [
        {
          "internalType": "address",
          "name": "newImplementation",
          "type": "address"
        }
      ],
      "name": "upgradeTo",
      "outputs": [],
      "stateMutability": "nonpayable",
      "type": "function"
    },
    {
      "inputs": [
        {
          "internalType": "address",
          "name": "newImplementation",
          "type": "address"
        },
        {
          "internalType": "bytes",
          "name": "data",
          "type": "bytes"
        }
      ],
      "name": "upgradeToAndCall",
      "outputs": [],
      "stateMutability": "payable",
      "type": "function"
    },
    {
      "inputs": [
        {
          "internalType": "address",
          "name": "seller",
          "type": "address"
        },
        {
          "internalType": "uint256",
          "name": "nftId",
          "type": "uint256"
        }
      ],
      "name": "testForceSettle",
      "outputs": [],
      "stateMutability": "nonpayable",
      "type": "function"
    }
  ],
  "bytecode": "0x608060405234801561001057600080fd5b50612822806100206000396000f3fe60806040526004361061010f5760003560e01c80625f9a3a1461011457806301ffc9a714610136578063248a9ca31461016b578063297f4eb6146101995780632f2ff15d1461021057806336568abe146102305780633659cfe6146102505780633d6f291f146102705780634f1ef286146102855780635138b08c14610298578063572b6c05146102b857806391d14854146102d857806391e078bb146102f85780639470ad85146103185780639a86e8ce14610346578063a217fddf14610368578063ba71a70e1461037d578063bc197c811461039d578063c4d66de8146103e2578063d547741f14610402578063e603a87014610422578063f23a6e6114610444578063f536121914610368575b600080fd5b34801561012057600080fd5b5061013461012f36600461234f565b610470565b005b34801561014257600080fd5b50610156610151366004612471565b6104aa565b60405190151581526020015b60405180910390f35b34801561017757600080fd5b5061018b61018636600461242a565b6104ca565b604051908152602001610162565b3480156101a557600080fd5b506101eb6101b436600461234f565b6101946020908152600092835260408084209091529082529020805460018201546002909201546001600160a01b03909116919083565b604080516001600160a01b039094168452602084019290925290820152606001610162565b34801561021c57600080fd5b5061013461022b366004612442565b6104df565b34801561023c57600080fd5b5061013461024b366004612442565b610503565b34801561025c57600080fd5b5061013461026b3660046121d7565b610596565b34801561027c57600080fd5b506101346105bd565b610134610293366004612302565b610762565b3480156102a457600080fd5b506101346102b336600461234f565b610777565b3480156102c457600080fd5b506101566102d33660046121d7565b610a35565b3480156102e457600080fd5b506101566102f3366004612442565b610a4b565b34801561030457600080fd5b506101346103133660046124cd565b610a76565b34801561032457600080fd5b5061019354610339906001600160a01b031681565b6040516101629190612583565b34801561035257600080fd5b5061018b6000805160206127ad83398151915281565b34801561037457600080fd5b5061018b600081565b34801561038957600080fd5b5061013461039836600461237a565b610ce7565b3480156103a957600080fd5b506103c96103b83660046121f3565b63bc197c8160e01b95945050505050565b6040516001600160e01b03199091168152602001610162565b3480156103ee57600080fd5b506101346103fd3660046121d7565b610f82565b34801561040e57600080fd5b5061013461041d366004612442565b611022565b34801561042e57600080fd5b5061018b6000805160206127cd83398151915281565b34801561045057600080fd5b506103c961045f36600461229c565b63f23a6e6160e01b95945050505050565b6001600160a01b0382166000908152610194602090815260408083208484529091529020600160028201556104a58383610777565b505050565b60006104b582611041565b806104c457506104c482611076565b92915050565b600090815260c9602052604090206001015490565b6104e8826104ca565b6104f9816104f461109b565b6110c2565b6104a58383611126565b61050b61109b565b6001600160a01b0316816001600160a01b0316146105885760405162461bcd60e51b815260206004820152602f60248201527f416363657373436f6e74726f6c3a2063616e206f6e6c792072656e6f756e636560448201526e103937b632b9903337b91039b2b63360891b60648201526084015b60405180910390fd5b61059282826111ad565b5050565b61059f81611232565b6105ba81604051806020016040528060008152506000611276565b50565b6101935460408051632e5604bd60e21b815290516000926001600160a01b03169163b95812f4916004808301926020929190829003018186803b15801561060357600080fd5b505afa158015610617573d6000803e3d6000fd5b505050506040513d601f19601f8201168201806040525081019061063b9190612499565b61019354604051636eb1769f60e11b81523060048201526001600160a01b039182166024820152919250600091829184169063dd62ed3e9060440160206040518083038186803b15801561068e57600080fd5b505afa1580156106a2573d6000803e3d6000fd5b505050506040513d601f19601f820116820180604052508101906106c691906124b5565b11905080156106d3575050565b6101935460405163095ea7b360e01b8152600019916001600160a01b038086169263095ea7b39261070a92169085906004016125c0565b602060405180830381600087803b15801561072457600080fd5b505af1158015610738573d6000803e3d6000fd5b505050506040513d601f19601f8201168201806040525081019061075c919061240a565b50505050565b61076b82611232565b61059282826001611276565b6001600160a01b038216600090815261019460209081526040808320848452909152902060028101546107e55760405162461bcd60e51b81526020600482015260166024820152751d1a1948185d58dd1a5bdb881b5d5cdd08195e1a5cdd60521b604482015260640161057f565b42816002015411156108365760405162461bcd60e51b815260206004820152601a6024820152791d1a1948185d58dd1a5bdb881b5d5cdd0818994818db1bdcd95960321b604482015260640161057f565b80546001820180546001600160a01b03198316845560009182905560028401919091556001600160a01b0390911690811561097b5761087585826113f2565b61019354604051637f4c824d60e11b81526001600160a01b039091169063fe99049a906108ad90309086908990600190600401612597565b600060405180830381600087803b1580156108c757600080fd5b505af11580156108db573d6000803e3d6000fd5b505061019354604051630b8bacf160e31b81526001600160a01b0389811660048301526024820189905260448201869052600160648301529091169250635c5d67889150608401602060405180830381600087803b15801561093c57600080fd5b505af192505050801561096c575060408051601f3d908101601f19168201909252610969918101906124b5565b60015b610975576109e6565b506109e6565b61019354604051637f4c824d60e11b81526001600160a01b039091169063fe99049a906109b390309089908990600190600401612597565b600060405180830381600087803b1580156109cd57600080fd5b505af11580156109e1573d6000803e3d6000fd5b505050505b604080518281526001600160a01b0384811660208301528692908816917ffe2c1531a975fce0584787c5e2643df8c1fe92f870c9dbadb24e366e31e79f44910160405180910390a35050505050565b60006104c46000805160206127ad833981519152835b600091825260c9602090815260408084206001600160a01b0393909316845291905290205460ff1690565b6000610a8061109b565b6001600160a01b038116600090815261019460209081526040808320888452909152902090915084610aee5760405162461bcd60e51b815260206004820152601760248201527663616e6e6f742061756374696f6e2063757272656e637960481b604482015260640161057f565b600281015415610b3d5760405162461bcd60e51b815260206004820152601a6024820152791d1a1948185d58dd1a5bdb881b5d5cdd081b9bdd08195e1a5cdd60321b604482015260640161057f565b824210610b985760405162461bcd60e51b8152602060048201526024808201527f74686520636c6f73652074696d65206d75737420626520696e207468652066756044820152637475726560e01b606482015260840161057f565b6000606e610ba78660646126c2565b610bb191906126a2565b905060008111610c155760405162461bcd60e51b815260206004820152602960248201527f746865207374617274696e67207072696365206d75737420626520677265617460448201526806572207468616e20360bc1b606482015260840161057f565b81546001600160a01b031916825560018083018290556002830185905561019354604051637f4c824d60e11b81526001600160a01b039091169163fe99049a91610c6791879130918c91600401612597565b600060405180830381600087803b158015610c8157600080fd5b505af1158015610c95573d6000803e3d6000fd5b505060408051848152602081018890528993506001600160a01b03871692507f5135842dc9522996ca3d92189d0ded7e70ecbfc5545c115def0c7bdb9ee41f2b910160405180910390a3505050505050565b6000610cf161109b565b90506000610d36828786868080601f0160208091040260200160405190810160405280939291908181526020018383808284376000920191909152506114bf92505050565b9050610d506000805160206127cd83398151915282610a4b565b610d9c5760405162461bcd60e51b815260206004820152601e60248201527f41757468726f697a657220646f65736e27742068617665206120726f6c650000604482015260640161057f565b6001600160a01b038716600090815261019460209081526040808320898452909152902060028101544210610e0e5760405162461bcd60e51b81526020600482015260186024820152773a34329030bab1ba34b7b71036bab9ba1031329037b832b760411b604482015260640161057f565b610e1a4261025861268a565b81600201541015610e4157610258816002016000828254610e3b919061268a565b90915550505b600181015460006064610e5583606e6126c2565b610e5f91906126a2565b905080881015610ecc5760405162461bcd60e51b815260206004820152603260248201527f61206e657720626964206d757374206265203130252067726561746572207468604482015271185b881d1a194818dd5c9c995b9d08189a5960721b606482015260840161057f565b82546001600160a01b03168015610ee757610ee78184611544565b83546001600160a01b0319166001600160a01b03871617845560018401899055610f11868a61164a565b898b6001600160a01b03167f39e9b26db60de3ca88f045fdd8954028f1bbd0c6e2ff124121cb5a03da3701918b87600201548a604051610f6d9392919092835260208301919091526001600160a01b0316604082015260600190565b60405180910390a35050505050505050505050565b600054610100900460ff1680610f9b575060005460ff16155b610fb75760405162461bcd60e51b815260040161057f9061260c565b600054610100900460ff16158015610fd9576000805461ffff19166101011790555b610fe161170e565b610fe9611718565b610ff161179b565b61019380546001600160a01b0319166001600160a01b0384161790558015610592576000805461ff00191690555050565b61102b826104ca565b611037816104f461109b565b6104a583836111ad565b60006001600160e01b03198216637965db0b60e01b14806104c457506301ffc9a760e01b6001600160e01b03198316146104c4565b60006001600160e01b03198216630271189760e51b14806104c457506104c482611041565b60006110a633610a35565b156110b8575060131936013560601c90565b503390565b905090565b6110cc8282610a4b565b610592576110e4816001600160a01b03166014611835565b6110ef836020611835565b604051602001611100929190612514565b60408051601f198184030181529082905262461bcd60e51b825261057f916004016125d9565b6111308282610a4b565b61059257600082815260c9602090815260408083206001600160a01b03851684529091529020805460ff1916600117905561116961109b565b6001600160a01b0316816001600160a01b0316837f2f8788117e7eff1d82e926ec794901d17c78024a50270940304540a733656f0d60405160405180910390a45050565b6111b78282610a4b565b1561059257600082815260c9602090815260408083206001600160a01b03851684529091529020805460ff191690556111ee61109b565b6001600160a01b0316816001600160a01b0316837ff6391f5c32d9c69d2a47ea670b442974b53935d1edc7fd64eb21e047a839171b60405160405180910390a45050565b61123d600033610a4b565b6105ba5760405162461bcd60e51b815260206004820152600a60248201526927b7363c9020b236b4b760b11b604482015260640161057f565b6000611280611a16565b905061128b84611a32565b6000835111806112985750815b156112a9576112a78484611ac5565b505b7f4910fdfa16fed3260ed0e7147f7cc6da11a60208b5b9406d12a635614ffd9143805460ff166113eb57805460ff191660011781556040516113249086906112f5908590602401612583565b60408051601f198184030181529190526020810180516001600160e01b0316631b2ce7f360e11b179052611ac5565b50805460ff19168155611335611a16565b6001600160a01b0316826001600160a01b0316146113ad5760405162461bcd60e51b815260206004820152602f60248201527f45524331393637557067726164653a207570677261646520627265616b73206660448201526e75727468657220757067726164657360881b606482015260840161057f565b6113b685611a32565b6040516001600160a01b038616907fbc7cd75a20ee27fd9adebab32041f755214dbc6bffa90cc0225b39da2e5c2d3b90600090a25b5050505050565b6101935460405163b6b55f2560e01b8152600481018390526001600160a01b039091169063b6b55f2590602401600060405180830381600087803b15801561143957600080fd5b505af115801561144d573d6000803e3d6000fd5b505061019354604051637f4c824d60e11b81526001600160a01b03909116925063fe99049a915061148990309086906000908790600401612597565b600060405180830381600087803b1580156114a357600080fd5b505af11580156114b7573d6000803e3d6000fd5b505050505050565b600080611539836115337fec3a2fb36466c720eb5eece72c8492a46185c1db6b7f1d09b827c3c8424f3fb38888604051602001611518939291909283526001600160a01b03919091166020830152604082015260600190565b60405160208183030381529060405280519060200120611bb0565b90611bfe565b9150505b9392505050565b61019360009054906101000a90046001600160a01b03166001600160a01b031663b95812f46040518163ffffffff1660e01b815260040160206040518083038186803b15801561159357600080fd5b505afa1580156115a7573d6000803e3d6000fd5b505050506040513d601f19601f820116820180604052508101906115cb9190612499565b6001600160a01b031663a9059cbb83836040518363ffffffff1660e01b81526004016115f89291906125c0565b602060405180830381600087803b15801561161257600080fd5b505af1158015611626573d6000803e3d6000fd5b505050506040513d601f19601f820116820180604052508101906104a5919061240a565b61019360009054906101000a90046001600160a01b03166001600160a01b031663b95812f46040518163ffffffff1660e01b815260040160206040518083038186803b15801561169957600080fd5b505afa1580156116ad573d6000803e3d6000fd5b505050506040513d601f19601f820116820180604052508101906116d19190612499565b6040516323b872dd60e01b81526001600160a01b0384811660048301523060248301526044820184905291909116906323b872dd906064016115f8565b611716611cb4565b565b600054610100900460ff1680611731575060005460ff16155b61174d5760405162461bcd60e51b815260040161057f9061260c565b600054610100900460ff1615801561176f576000805461ffff19166101011790555b611777611ccf565b61177f611ccf565b611787611ccf565b80156105ba576000805461ff001916905550565b600054610100900460ff16806117b4575060005460ff16155b6117d05760405162461bcd60e51b815260040161057f9061260c565b600054610100900460ff161580156117f2576000805461ffff19166101011790555b61178760405180604001604052806008815260200167119c99595c1bdc9d60c21b815250604051806040016040528060018152602001601960f91b815250611d39565b606060006118448360026126c2565b61184f90600261268a565b6001600160401b0381111561187457634e487b7160e01b600052604160045260246000fd5b6040519080825280601f01601f19166020018201604052801561189e576020820181803683370190505b509050600360fc1b816000815181106118c757634e487b7160e01b600052603260045260246000fd5b60200101906001600160f81b031916908160001a905350600f60fb1b8160018151811061190457634e487b7160e01b600052603260045260246000fd5b60200101906001600160f81b031916908160001a90535060006119288460026126c2565b61193390600161268a565b90505b60018111156119c7576f181899199a1a9b1b9c1cb0b131b232b360811b85600f166010811061197557634e487b7160e01b600052603260045260246000fd5b1a60f81b82828151811061199957634e487b7160e01b600052603260045260246000fd5b60200101906001600160f81b031916908160001a90535060049490941c936119c08161270d565b9050611936565b50831561153d5760405162461bcd60e51b815260206004820181905260248201527f537472696e67733a20686578206c656e67746820696e73756666696369656e74604482015260640161057f565b600080516020612766833981519152546001600160a01b031690565b803b611a965760405162461bcd60e51b815260206004820152602d60248201527f455243313936373a206e657720696d706c656d656e746174696f6e206973206e60448201526c1bdd08184818dbdb9d1c9858dd609a1b606482015260840161057f565b60008051602061276683398151915280546001600160a01b0319166001600160a01b0392909216919091179055565b6060823b611b245760405162461bcd60e51b815260206004820152602660248201527f416464726573733a2064656c65676174652063616c6c20746f206e6f6e2d636f6044820152651b9d1c9858dd60d21b606482015260840161057f565b600080846001600160a01b031684604051611b3f91906124f8565b600060405180830381855af49150503d8060008114611b7a576040519150601f19603f3d011682016040523d82523d6000602084013e611b7f565b606091505b5091509150611ba7828260405180606001604052806027815260200161278660279139611db0565b95945050505050565b60006104c4611bbd611de9565b8360405161190160f01b6020820152602281018390526042810182905260009060620160405160208183030381529060405280519060200120905092915050565b600080600080845160411415611c285750505060208201516040830151606084015160001a611c9e565b845160401415611c565750505060408201516020830151906001600160ff1b0381169060ff1c601b01611c9e565b60405162461bcd60e51b815260206004820152601f60248201527f45434453413a20696e76616c6964207369676e6174757265206c656e67746800604482015260640161057f565b611caa86828585611e66565b9695505050505050565b611cbc611ff7565b611cc4611718565b611716600033612055565b600054610100900460ff1680611ce8575060005460ff16155b611d045760405162461bcd60e51b815260040161057f9061260c565b600054610100900460ff16158015611787576000805461ffff191661010117905580156105ba576000805461ff001916905550565b600054610100900460ff1680611d52575060005460ff16155b611d6e5760405162461bcd60e51b815260040161057f9061260c565b600054610100900460ff16158015611d90576000805461ffff19166101011790555b611d9a838361205f565b80156104a5576000805461ff0019169055505050565b60608315611dbf57508161153d565b825115611dcf5782518084602001fd5b8160405162461bcd60e51b815260040161057f91906125d9565b60006110bd7f8b73c3c69bb8fe3d512ecc4cf759cc79239f7b179b0ffacaa9a75d522b39400f611e1961015f5490565b610160546040805160208101859052908101839052606081018290524660808201523060a082015260009060c0016040516020818303038152906040528051906020012090509392505050565b60006fa2a8918ca85bafe22016d0b997e4df60600160ff1b03821115611ed95760405162461bcd60e51b815260206004820152602260248201527f45434453413a20696e76616c6964207369676e6174757265202773272076616c604482015261756560f01b606482015260840161057f565b8360ff16601b1480611eee57508360ff16601c145b611f455760405162461bcd60e51b815260206004820152602260248201527f45434453413a20696e76616c6964207369676e6174757265202776272076616c604482015261756560f01b606482015260840161057f565b6040805160008082526020820180845288905260ff871692820192909252606081018590526080810184905260019060a0016020604051602081039080840390855afa158015611f99573d6000803e3d6000fd5b5050604051601f1901519150506001600160a01b038116611ba75760405162461bcd60e51b815260206004820152601860248201527745434453413a20696e76616c6964207369676e617475726560401b604482015260640161057f565b600054610100900460ff1680612010575060005460ff16155b61202c5760405162461bcd60e51b815260040161057f9061260c565b600054610100900460ff16158015611777576000805461ffff191661010117905561177f611ccf565b6105928282611126565b600054610100900460ff1680612078575060005460ff16155b6120945760405162461bcd60e51b815260040161057f9061260c565b600054610100900460ff161580156120b6576000805461ffff19166101011790555b825160208085019190912083519184019190912061015f919091556101605580156104a5576000805461ff0019169055505050565b600082601f8301126120fb578081fd5b813560206001600160401b038211156121165761211661273a565b8160051b61212582820161265a565b83815282810190868401838801850189101561213f578687fd5b8693505b85841015612161578035835260019390930192918401918401612143565b50979650505050505050565b600082601f83011261217d578081fd5b81356001600160401b038111156121965761219661273a565b6121a9601f8201601f191660200161265a565b8181528460208386010111156121bd578283fd5b816020850160208301379081016020019190915292915050565b6000602082840312156121e8578081fd5b813561153d81612750565b600080600080600060a0868803121561220a578081fd5b853561221581612750565b9450602086013561222581612750565b935060408601356001600160401b0380821115612240578283fd5b61224c89838a016120eb565b94506060880135915080821115612261578283fd5b61226d89838a016120eb565b93506080880135915080821115612282578283fd5b5061228f8882890161216d565b9150509295509295909350565b600080600080600060a086880312156122b3578081fd5b85356122be81612750565b945060208601356122ce81612750565b9350604086013592506060860135915060808601356001600160401b038111156122f6578182fd5b61228f8882890161216d565b60008060408385031215612314578182fd5b823561231f81612750565b915060208301356001600160401b03811115612339578182fd5b6123458582860161216d565b9150509250929050565b60008060408385031215612361578182fd5b823561236c81612750565b946020939093013593505050565b600080600080600060808688031215612391578081fd5b853561239c81612750565b9450602086013593506040860135925060608601356001600160401b03808211156123c5578283fd5b818801915088601f8301126123d8578283fd5b8135818111156123e6578384fd5b8960208285010111156123f7578384fd5b9699959850939650602001949392505050565b60006020828403121561241b578081fd5b8151801515811461153d578182fd5b60006020828403121561243b578081fd5b5035919050565b60008060408385031215612454578182fd5b82359150602083013561246681612750565b809150509250929050565b600060208284031215612482578081fd5b81356001600160e01b03198116811461153d578182fd5b6000602082840312156124aa578081fd5b815161153d81612750565b6000602082840312156124c6578081fd5b5051919050565b6000806000606084860312156124e1578081fd5b505081359360208301359350604090920135919050565b6000825161250a8184602087016126e1565b9190910192915050565b76020b1b1b2b9b9a1b7b73a3937b61d1030b1b1b7bab73a1604d1b8152600083516125468160178501602088016126e1565b7001034b99036b4b9b9b4b733903937b6329607d1b60179184019182015283516125778160288401602088016126e1565b01602801949350505050565b6001600160a01b0391909116815260200190565b6001600160a01b0394851681529290931660208301526040820152606081019190915260800190565b6001600160a01b03929092168252602082015260400190565b60208152600082518060208401526125f88160408501602087016126e1565b601f01601f19169190910160400192915050565b6020808252602e908201527f496e697469616c697a61626c653a20636f6e747261637420697320616c72656160408201526d191e481a5b9a5d1a585b1a5e995960921b606082015260800190565b604051601f8201601f191681016001600160401b03811182821017156126825761268261273a565b604052919050565b6000821982111561269d5761269d612724565b500190565b6000826126bd57634e487b7160e01b81526012600452602481fd5b500490565b60008160001904831182151516156126dc576126dc612724565b500290565b60005b838110156126fc5781810151838201526020016126e4565b8381111561075c5750506000910152565b60008161271c5761271c612724565b506000190190565b634e487b7160e01b600052601160045260246000fd5b634e487b7160e01b600052604160045260246000fd5b6001600160a01b03811681146105ba57600080fdfe360894a13ba1a3210667c828492db98dca3e2076cc3735a920a3ca505d382bbc416464726573733a206c6f772d6c6576656c2064656c65676174652063616c6c206661696c65643d2e894c222ba979e2dce2c7d940c0e9bb14306669e9f034eb1bb3979a2069d8ab6d842310ede8efb59f5a0e3e5baae24ab3d2229acf8511623722ce39ab3bdea26469706673582212208cf7aa756d89b39fcb6af245013b59b1f4f8201c052812c69e6af89cb215396a64736f6c63430008040033",
  "immutableReferences": {},
  "source": "pragma solidity ^0.8.0;\n\nimport \"./SimpleAuction.sol\";\n\n/** A test contract to test upgradeability\n*/\ncontract TestAuction2 is SimpleAuction {\n    function testForceSettle(address seller, uint256 nftId) public {\n        Bid storage bid = sellerNftBids[seller][nftId];\n        bid.closeTimeSec = 1;\n        settleAuction(seller, nftId);\n    }\n}\n",
  "sourcePath": "/home/nadtech/Visual_Studio/Freeport-Smart-Contracts/contracts/TestAuction2.sol",
  "compiler": {
    "name": "solc",
    "version": "0.8.4+commit.c7e474f2.Emscripten.clang"
  },
  "schemaVersion": "3.4.4",
  "updatedAt": "2022-02-11T14:45:37.099Z",
  "devdoc": {
    "kind": "dev",
    "methods": {
      "getRoleAdmin(bytes32)": {
        "details": "Returns the admin role that controls `role`. See {grantRole} and {revokeRole}. To change a role's admin, use {_setRoleAdmin}."
      },
      "grantRole(bytes32,address)": {
        "details": "Grants `role` to `account`. If `account` had not been already granted `role`, emits a {RoleGranted} event. Requirements: - the caller must have ``role``'s admin role."
      },
      "hasRole(bytes32,address)": {
        "details": "Returns `true` if `account` has been granted `role`."
      },
      "renounceRole(bytes32,address)": {
        "details": "Revokes `role` from the calling account. Roles are often managed via {grantRole} and {revokeRole}: this function's purpose is to provide a mechanism for accounts to lose their privileges if they are compromised (such as when a trusted device is misplaced). If the calling account had been granted `role`, emits a {RoleRevoked} event. Requirements: - the caller must be `account`."
      },
      "revokeRole(bytes32,address)": {
        "details": "Revokes `role` from `account`. If `account` had been granted `role`, emits a {RoleRevoked} event. Requirements: - the caller must have ``role``'s admin role."
      }
    },
    "version": 1
  },
  "userdoc": {
    "events": {
      "BidOnAuction(address,uint256,uint256,uint256,address)": {
        "notice": "Note: `price`, `closeTimeSec`, and `buyer` may have changed for the auction `(seller, nftId)`."
      },
      "SettleAuction(address,uint256,uint256,address)": {
        "notice": "Note: `buyer == 0` means no buyer, and the NFT went back to the seller."
      },
      "StartAuction(address,uint256,uint256,uint256)": {
        "notice": "Note: `price` is the minimum price minus 10%, because a bid must be 10% higher, resulting in the requested minimum price."
      }
    },
    "kind": "user",
    "methods": {
      "CURRENCY()": {
        "notice": "The token ID that represents the CERE currency for all payments in this contract. "
      },
      "initialize(address)": {
        "notice": "Initialize this contract and its dependencies."
      },
      "initialize_v2_0_0()": {
        "notice": "Initialize this contract after version 2.0.0. Allow deposit of USDC into Freeport."
      },
      "sellerNftBids(address,uint256)": {
        "notice": "Seller => NFT ID => Bid."
      },
      "supportsInterface(bytes4)": {
        "notice": "Supports interfaces of AccessControl and ERC1155Receiver."
      }
    },
    "notice": "A test contract to test upgradeability",
    "version": 1
  }
}