{
  "contractName": "TestAuction2",
  "abi": [
    {
      "anonymous": false,
      "inputs": [
        {
          "indexed": false,
          "internalType": "address",
          "name": "previousAdmin",
          "type": "address"
        },
        {
          "indexed": false,
          "internalType": "address",
          "name": "newAdmin",
          "type": "address"
        }
      ],
      "name": "AdminChanged",
      "type": "event"
    },
    {
      "anonymous": false,
      "inputs": [
        {
          "indexed": true,
          "internalType": "address",
          "name": "beacon",
          "type": "address"
        }
      ],
      "name": "BeaconUpgraded",
      "type": "event"
    },
    {
      "anonymous": false,
      "inputs": [
        {
          "indexed": true,
          "internalType": "address",
          "name": "seller",
          "type": "address"
        },
        {
          "indexed": true,
          "internalType": "uint256",
          "name": "nftId",
          "type": "uint256"
        },
        {
          "indexed": false,
          "internalType": "uint256",
          "name": "price",
          "type": "uint256"
        },
        {
          "indexed": false,
          "internalType": "uint256",
          "name": "closeTimeSec",
          "type": "uint256"
        },
        {
          "indexed": false,
          "internalType": "address",
          "name": "buyer",
          "type": "address"
        }
      ],
      "name": "BidOnAuction",
      "type": "event"
    },
    {
      "anonymous": false,
      "inputs": [
        {
          "indexed": true,
          "internalType": "bytes32",
          "name": "role",
          "type": "bytes32"
        },
        {
          "indexed": true,
          "internalType": "bytes32",
          "name": "previousAdminRole",
          "type": "bytes32"
        },
        {
          "indexed": true,
          "internalType": "bytes32",
          "name": "newAdminRole",
          "type": "bytes32"
        }
      ],
      "name": "RoleAdminChanged",
      "type": "event"
    },
    {
      "anonymous": false,
      "inputs": [
        {
          "indexed": true,
          "internalType": "bytes32",
          "name": "role",
          "type": "bytes32"
        },
        {
          "indexed": true,
          "internalType": "address",
          "name": "account",
          "type": "address"
        },
        {
          "indexed": true,
          "internalType": "address",
          "name": "sender",
          "type": "address"
        }
      ],
      "name": "RoleGranted",
      "type": "event"
    },
    {
      "anonymous": false,
      "inputs": [
        {
          "indexed": true,
          "internalType": "bytes32",
          "name": "role",
          "type": "bytes32"
        },
        {
          "indexed": true,
          "internalType": "address",
          "name": "account",
          "type": "address"
        },
        {
          "indexed": true,
          "internalType": "address",
          "name": "sender",
          "type": "address"
        }
      ],
      "name": "RoleRevoked",
      "type": "event"
    },
    {
      "anonymous": false,
      "inputs": [
        {
          "indexed": true,
          "internalType": "address",
          "name": "seller",
          "type": "address"
        },
        {
          "indexed": true,
          "internalType": "uint256",
          "name": "nftId",
          "type": "uint256"
        },
        {
          "indexed": false,
          "internalType": "uint256",
          "name": "price",
          "type": "uint256"
        },
        {
          "indexed": false,
          "internalType": "address",
          "name": "buyer",
          "type": "address"
        }
      ],
      "name": "SettleAuction",
      "type": "event"
    },
    {
      "anonymous": false,
      "inputs": [
        {
          "indexed": true,
          "internalType": "address",
          "name": "seller",
          "type": "address"
        },
        {
          "indexed": true,
          "internalType": "uint256",
          "name": "nftId",
          "type": "uint256"
        },
        {
          "indexed": false,
          "internalType": "uint256",
          "name": "price",
          "type": "uint256"
        },
        {
          "indexed": false,
          "internalType": "uint256",
          "name": "closeTimeSec",
          "type": "uint256"
        }
      ],
      "name": "StartAuction",
      "type": "event"
    },
    {
      "anonymous": false,
      "inputs": [
        {
          "indexed": true,
          "internalType": "address",
          "name": "implementation",
          "type": "address"
        }
      ],
      "name": "Upgraded",
      "type": "event"
    },
    {
      "inputs": [],
      "name": "BUY_AUTHORIZER_ROLE",
      "outputs": [
        {
          "internalType": "bytes32",
          "name": "",
          "type": "bytes32"
        }
      ],
      "stateMutability": "view",
      "type": "function"
    },
    {
      "inputs": [],
      "name": "CURRENCY",
      "outputs": [
        {
          "internalType": "uint256",
          "name": "",
          "type": "uint256"
        }
      ],
      "stateMutability": "view",
      "type": "function"
    },
    {
      "inputs": [],
      "name": "DEFAULT_ADMIN_ROLE",
      "outputs": [
        {
          "internalType": "bytes32",
          "name": "",
          "type": "bytes32"
        }
      ],
      "stateMutability": "view",
      "type": "function"
    },
    {
      "inputs": [],
      "name": "META_TX_FORWARDER",
      "outputs": [
        {
          "internalType": "bytes32",
          "name": "",
          "type": "bytes32"
        }
      ],
      "stateMutability": "view",
      "type": "function"
    },
    {
      "inputs": [
        {
          "internalType": "address",
          "name": "seller",
          "type": "address"
        },
        {
          "internalType": "uint256",
          "name": "nftId",
          "type": "uint256"
        },
        {
          "internalType": "uint256",
          "name": "price",
          "type": "uint256"
        },
        {
          "internalType": "bytes",
          "name": "signature",
          "type": "bytes"
        }
      ],
      "name": "bidOnAuction",
      "outputs": [],
      "stateMutability": "nonpayable",
      "type": "function"
    },
    {
      "inputs": [],
      "name": "freeport",
      "outputs": [
        {
          "internalType": "contract Freeport",
          "name": "",
          "type": "address"
        }
      ],
      "stateMutability": "view",
      "type": "function"
    },
    {
      "inputs": [
        {
          "internalType": "bytes32",
          "name": "role",
          "type": "bytes32"
        }
      ],
      "name": "getRoleAdmin",
      "outputs": [
        {
          "internalType": "bytes32",
          "name": "",
          "type": "bytes32"
        }
      ],
      "stateMutability": "view",
      "type": "function"
    },
    {
      "inputs": [
        {
          "internalType": "bytes32",
          "name": "role",
          "type": "bytes32"
        },
        {
          "internalType": "address",
          "name": "account",
          "type": "address"
        }
      ],
      "name": "grantRole",
      "outputs": [],
      "stateMutability": "nonpayable",
      "type": "function"
    },
    {
      "inputs": [
        {
          "internalType": "bytes32",
          "name": "role",
          "type": "bytes32"
        },
        {
          "internalType": "address",
          "name": "account",
          "type": "address"
        }
      ],
      "name": "hasRole",
      "outputs": [
        {
          "internalType": "bool",
          "name": "",
          "type": "bool"
        }
      ],
      "stateMutability": "view",
      "type": "function"
    },
    {
      "inputs": [
        {
          "internalType": "contract Freeport",
          "name": "_freeport",
          "type": "address"
        }
      ],
      "name": "initialize",
      "outputs": [],
      "stateMutability": "nonpayable",
      "type": "function"
    },
    {
      "inputs": [
        {
          "internalType": "address",
          "name": "forwarder",
          "type": "address"
        }
      ],
      "name": "isTrustedForwarder",
      "outputs": [
        {
          "internalType": "bool",
          "name": "",
          "type": "bool"
        }
      ],
      "stateMutability": "view",
      "type": "function"
    },
    {
      "inputs": [
        {
          "internalType": "address",
          "name": "",
          "type": "address"
        },
        {
          "internalType": "address",
          "name": "",
          "type": "address"
        },
        {
          "internalType": "uint256[]",
          "name": "",
          "type": "uint256[]"
        },
        {
          "internalType": "uint256[]",
          "name": "",
          "type": "uint256[]"
        },
        {
          "internalType": "bytes",
          "name": "",
          "type": "bytes"
        }
      ],
      "name": "onERC1155BatchReceived",
      "outputs": [
        {
          "internalType": "bytes4",
          "name": "",
          "type": "bytes4"
        }
      ],
      "stateMutability": "nonpayable",
      "type": "function"
    },
    {
      "inputs": [
        {
          "internalType": "address",
          "name": "",
          "type": "address"
        },
        {
          "internalType": "address",
          "name": "",
          "type": "address"
        },
        {
          "internalType": "uint256",
          "name": "",
          "type": "uint256"
        },
        {
          "internalType": "uint256",
          "name": "",
          "type": "uint256"
        },
        {
          "internalType": "bytes",
          "name": "",
          "type": "bytes"
        }
      ],
      "name": "onERC1155Received",
      "outputs": [
        {
          "internalType": "bytes4",
          "name": "",
          "type": "bytes4"
        }
      ],
      "stateMutability": "nonpayable",
      "type": "function"
    },
    {
      "inputs": [
        {
          "internalType": "bytes32",
          "name": "role",
          "type": "bytes32"
        },
        {
          "internalType": "address",
          "name": "account",
          "type": "address"
        }
      ],
      "name": "renounceRole",
      "outputs": [],
      "stateMutability": "nonpayable",
      "type": "function"
    },
    {
      "inputs": [
        {
          "internalType": "bytes32",
          "name": "role",
          "type": "bytes32"
        },
        {
          "internalType": "address",
          "name": "account",
          "type": "address"
        }
      ],
      "name": "revokeRole",
      "outputs": [],
      "stateMutability": "nonpayable",
      "type": "function"
    },
    {
      "inputs": [
        {
          "internalType": "address",
          "name": "",
          "type": "address"
        },
        {
          "internalType": "uint256",
          "name": "",
          "type": "uint256"
        }
      ],
      "name": "sellerNftBids",
      "outputs": [
        {
          "internalType": "address",
          "name": "buyer",
          "type": "address"
        },
        {
          "internalType": "uint256",
          "name": "price",
          "type": "uint256"
        },
        {
          "internalType": "uint256",
          "name": "closeTimeSec",
          "type": "uint256"
        }
      ],
      "stateMutability": "view",
      "type": "function"
    },
    {
      "inputs": [
        {
          "internalType": "address",
          "name": "seller",
          "type": "address"
        },
        {
          "internalType": "uint256",
          "name": "nftId",
          "type": "uint256"
        }
      ],
      "name": "settleAuction",
      "outputs": [],
      "stateMutability": "nonpayable",
      "type": "function"
    },
    {
      "inputs": [
        {
          "internalType": "uint256",
          "name": "nftId",
          "type": "uint256"
        },
        {
          "internalType": "uint256",
          "name": "minPrice",
          "type": "uint256"
        },
        {
          "internalType": "uint256",
          "name": "closeTimeSec",
          "type": "uint256"
        }
      ],
      "name": "startAuction",
      "outputs": [],
      "stateMutability": "nonpayable",
      "type": "function"
    },
    {
      "inputs": [
        {
          "internalType": "bytes4",
          "name": "interfaceId",
          "type": "bytes4"
        }
      ],
      "name": "supportsInterface",
      "outputs": [
        {
          "internalType": "bool",
          "name": "",
          "type": "bool"
        }
      ],
      "stateMutability": "view",
      "type": "function"
    },
    {
      "inputs": [
        {
          "internalType": "address",
          "name": "newImplementation",
          "type": "address"
        }
      ],
      "name": "upgradeTo",
      "outputs": [],
      "stateMutability": "nonpayable",
      "type": "function"
    },
    {
      "inputs": [
        {
          "internalType": "address",
          "name": "newImplementation",
          "type": "address"
        },
        {
          "internalType": "bytes",
          "name": "data",
          "type": "bytes"
        }
      ],
      "name": "upgradeToAndCall",
      "outputs": [],
      "stateMutability": "payable",
      "type": "function"
    },
    {
      "inputs": [
        {
          "internalType": "address",
          "name": "seller",
          "type": "address"
        },
        {
          "internalType": "uint256",
          "name": "nftId",
          "type": "uint256"
        }
      ],
      "name": "testForceSettle",
      "outputs": [],
      "stateMutability": "nonpayable",
      "type": "function"
    }
  ],
  "bytecode": "0x608060405234801561001057600080fd5b5061249e806100206000396000f3fe6080604052600436106101045760003560e01c80625f9a3a1461010957806301ffc9a71461012b578063248a9ca314610160578063297f4eb61461018e5780632f2ff15d1461020557806336568abe146102255780633659cfe6146102455780634f1ef286146102655780635138b08c14610278578063572b6c051461029857806391d14854146102b857806391e078bb146102d85780639470ad85146102f85780639a86e8ce14610326578063a217fddf14610348578063ba71a70e1461035d578063bc197c811461037d578063c4d66de8146103c2578063d547741f146103e2578063e603a87014610402578063f23a6e6114610424578063f536121914610348575b600080fd5b34801561011557600080fd5b5061012961012436600461201c565b610450565b005b34801561013757600080fd5b5061014b61014636600461211e565b61048a565b60405190151581526020015b60405180910390f35b34801561016c57600080fd5b5061018061017b3660046120d7565b6104aa565b604051908152602001610157565b34801561019a57600080fd5b506101e06101a936600461201c565b6101946020908152600092835260408084209091529082529020805460018201546002909201546001600160a01b03909116919083565b604080516001600160a01b039094168452602084019290925290820152606001610157565b34801561021157600080fd5b506101296102203660046120ef565b6104bf565b34801561023157600080fd5b506101296102403660046120ef565b6104e3565b34801561025157600080fd5b50610129610260366004611ea4565b610576565b610129610273366004611fcf565b61059d565b34801561028457600080fd5b5061012961029336600461201c565b6105b2565b3480156102a457600080fd5b5061014b6102b3366004611ea4565b6108d0565b3480156102c457600080fd5b5061014b6102d33660046120ef565b6108e6565b3480156102e457600080fd5b506101296102f336600461215e565b610911565b34801561030457600080fd5b5061019354610319906001600160a01b031681565b6040516101579190612214565b34801561033257600080fd5b5061018060008051602061242983398151915281565b34801561035457600080fd5b50610180600081565b34801561036957600080fd5b50610129610378366004612047565b610b82565b34801561038957600080fd5b506103a9610398366004611ec0565b63bc197c8160e01b95945050505050565b6040516001600160e01b03199091168152602001610157565b3480156103ce57600080fd5b506101296103dd366004611ea4565b610ed9565b3480156103ee57600080fd5b506101296103fd3660046120ef565b610f79565b34801561040e57600080fd5b5061018060008051602061244983398151915281565b34801561043057600080fd5b506103a961043f366004611f69565b63f23a6e6160e01b95945050505050565b6001600160a01b03821660009081526101946020908152604080832084845290915290206001600282015561048583836105b2565b505050565b600061049582610f98565b806104a457506104a482610fcd565b92915050565b600090815260c9602052604090206001015490565b6104c8826104aa565b6104d9816104d4610ff2565b611019565b610485838361107d565b6104eb610ff2565b6001600160a01b0316816001600160a01b0316146105685760405162461bcd60e51b815260206004820152602f60248201527f416363657373436f6e74726f6c3a2063616e206f6e6c792072656e6f756e636560448201526e103937b632b9903337b91039b2b63360891b60648201526084015b60405180910390fd5b6105728282611104565b5050565b61057f81611189565b61059a816040518060200160405280600081525060006111cd565b50565b6105a682611189565b610572828260016111cd565b6001600160a01b038216600090815261019460209081526040808320848452909152902060028101546106205760405162461bcd60e51b81526020600482015260166024820152751d1a1948185d58dd1a5bdb881b5d5cdd08195e1a5cdd60521b604482015260640161055f565b42816002015411156106715760405162461bcd60e51b815260206004820152601a6024820152791d1a1948185d58dd1a5bdb881b5d5cdd0818994818db1bdcd95960321b604482015260640161055f565b80546001820180546001600160a01b03198316845560009182905560028401919091556001600160a01b039091169081156108165761019354604051637f4c824d60e11b81526001600160a01b039091169063fe99049a906106de90309089906000908790600401612228565b600060405180830381600087803b1580156106f857600080fd5b505af115801561070c573d6000803e3d6000fd5b505061019354604051637f4c824d60e11b81526001600160a01b03909116925063fe99049a915061074890309086908990600190600401612228565b600060405180830381600087803b15801561076257600080fd5b505af1158015610776573d6000803e3d6000fd5b505061019354604051630b8bacf160e31b81526001600160a01b0389811660048301526024820189905260448201869052600160648301529091169250635c5d67889150608401602060405180830381600087803b1580156107d757600080fd5b505af1925050508015610807575060408051601f3d908101601f1916820190925261080491810190612146565b60015b61081057610881565b50610881565b61019354604051637f4c824d60e11b81526001600160a01b039091169063fe99049a9061084e90309089908990600190600401612228565b600060405180830381600087803b15801561086857600080fd5b505af115801561087c573d6000803e3d6000fd5b505050505b604080518281526001600160a01b0384811660208301528692908816917ffe2c1531a975fce0584787c5e2643df8c1fe92f870c9dbadb24e366e31e79f44910160405180910390a35050505050565b60006104a4600080516020612429833981519152835b600091825260c9602090815260408084206001600160a01b0393909316845291905290205460ff1690565b600061091b610ff2565b6001600160a01b0381166000908152610194602090815260408083208884529091529020909150846109895760405162461bcd60e51b815260206004820152601760248201527663616e6e6f742061756374696f6e2063757272656e637960481b604482015260640161055f565b6002810154156109d85760405162461bcd60e51b815260206004820152601a6024820152791d1a1948185d58dd1a5bdb881b5d5cdd081b9bdd08195e1a5cdd60321b604482015260640161055f565b824210610a335760405162461bcd60e51b8152602060048201526024808201527f74686520636c6f73652074696d65206d75737420626520696e207468652066756044820152637475726560e01b606482015260840161055f565b6000606e610a4286606461233a565b610a4c919061231a565b905060008111610ab05760405162461bcd60e51b815260206004820152602960248201527f746865207374617274696e67207072696365206d75737420626520677265617460448201526806572207468616e20360bc1b606482015260840161055f565b81546001600160a01b031916825560018083018290556002830185905561019354604051637f4c824d60e11b81526001600160a01b039091169163fe99049a91610b0291879130918c91600401612228565b600060405180830381600087803b158015610b1c57600080fd5b505af1158015610b30573d6000803e3d6000fd5b505060408051848152602081018890528993506001600160a01b03871692507f5135842dc9522996ca3d92189d0ded7e70ecbfc5545c115def0c7bdb9ee41f2b910160405180910390a3505050505050565b6000610b8c610ff2565b90506000610bd1828786868080601f01602080910402602001604051908101604052809392919081815260200183838082843760009201919091525061134992505050565b9050610beb600080516020612449833981519152826108e6565b610c375760405162461bcd60e51b815260206004820152601e60248201527f41757468726f697a657220646f65736e27742068617665206120726f6c650000604482015260640161055f565b6001600160a01b038716600090815261019460209081526040808320898452909152902060028101544210610ca95760405162461bcd60e51b81526020600482015260186024820152773a34329030bab1ba34b7b71036bab9ba1031329037b832b760411b604482015260640161055f565b610cb542610258612302565b81600201541015610cdc57610258816002016000828254610cd69190612302565b90915550505b600181015460006064610cf083606e61233a565b610cfa919061231a565b905080881015610d675760405162461bcd60e51b815260206004820152603260248201527f61206e657720626964206d757374206265203130252067726561746572207468604482015271185b881d1a194818dd5c9c995b9d08189a5960721b606482015260840161055f565b82546001600160a01b03168015610de35761019354604051637f4c824d60e11b81526001600160a01b039091169063fe99049a90610db090309085906000908990600401612228565b600060405180830381600087803b158015610dca57600080fd5b505af1158015610dde573d6000803e3d6000fd5b505050505b83546001600160a01b0319166001600160a01b03878116919091178555600185018a905561019354604051637f4c824d60e11b815291169063fe99049a90610e3690899030906000908f90600401612228565b600060405180830381600087803b158015610e5057600080fd5b505af1158015610e64573d6000803e3d6000fd5b50505050898b6001600160a01b03167f39e9b26db60de3ca88f045fdd8954028f1bbd0c6e2ff124121cb5a03da3701918b87600201548a604051610ec49392919092835260208301919091526001600160a01b0316604082015260600190565b60405180910390a35050505050505050505050565b600054610100900460ff1680610ef2575060005460ff16155b610f0e5760405162461bcd60e51b815260040161055f90612284565b600054610100900460ff16158015610f30576000805461ffff19166101011790555b610f386113ce565b610f406113d8565b610f4861145b565b61019380546001600160a01b0319166001600160a01b0384161790558015610572576000805461ff00191690555050565b610f82826104aa565b610f8e816104d4610ff2565b6104858383611104565b60006001600160e01b03198216637965db0b60e01b14806104a457506301ffc9a760e01b6001600160e01b03198316146104a4565b60006001600160e01b03198216630271189760e51b14806104a457506104a482610f98565b6000610ffd336108d0565b1561100f575060131936013560601c90565b503390565b905090565b61102382826108e6565b6105725761103b816001600160a01b03166014611502565b611046836020611502565b6040516020016110579291906121a5565b60408051601f198184030181529082905262461bcd60e51b825261055f91600401612251565b61108782826108e6565b61057257600082815260c9602090815260408083206001600160a01b03851684529091529020805460ff191660011790556110c0610ff2565b6001600160a01b0316816001600160a01b0316837f2f8788117e7eff1d82e926ec794901d17c78024a50270940304540a733656f0d60405160405180910390a45050565b61110e82826108e6565b1561057257600082815260c9602090815260408083206001600160a01b03851684529091529020805460ff19169055611145610ff2565b6001600160a01b0316816001600160a01b0316837ff6391f5c32d9c69d2a47ea670b442974b53935d1edc7fd64eb21e047a839171b60405160405180910390a45050565b6111946000336108e6565b61059a5760405162461bcd60e51b815260206004820152600a60248201526927b7363c9020b236b4b760b11b604482015260640161055f565b60006111d76116e3565b90506111e2846116ff565b6000835111806111ef5750815b15611200576111fe8484611792565b505b7f4910fdfa16fed3260ed0e7147f7cc6da11a60208b5b9406d12a635614ffd9143805460ff1661134257805460ff1916600117815560405161127b90869061124c908590602401612214565b60408051601f198184030181529190526020810180516001600160e01b0316631b2ce7f360e11b179052611792565b50805460ff1916815561128c6116e3565b6001600160a01b0316826001600160a01b0316146113045760405162461bcd60e51b815260206004820152602f60248201527f45524331393637557067726164653a207570677261646520627265616b73206660448201526e75727468657220757067726164657360881b606482015260840161055f565b61130d856116ff565b6040516001600160a01b038616907fbc7cd75a20ee27fd9adebab32041f755214dbc6bffa90cc0225b39da2e5c2d3b90600090a25b5050505050565b6000806113c3836113bd7fec3a2fb36466c720eb5eece72c8492a46185c1db6b7f1d09b827c3c8424f3fb388886040516020016113a2939291909283526001600160a01b03919091166020830152604082015260600190565b6040516020818303038152906040528051906020012061187d565b906118cb565b9150505b9392505050565b6113d6611981565b565b600054610100900460ff16806113f1575060005460ff16155b61140d5760405162461bcd60e51b815260040161055f90612284565b600054610100900460ff1615801561142f576000805461ffff19166101011790555b61143761199c565b61143f61199c565b61144761199c565b801561059a576000805461ff001916905550565b600054610100900460ff1680611474575060005460ff16155b6114905760405162461bcd60e51b815260040161055f90612284565b600054610100900460ff161580156114b2576000805461ffff19166101011790555b6114476040518060400160405280601181526020017029b4b3b730ba3ab932ab32b934b334b2b960791b81525060405180604001604052806005815260200164302e302e3160d81b815250611a06565b6060600061151183600261233a565b61151c906002612302565b6001600160401b0381111561154157634e487b7160e01b600052604160045260246000fd5b6040519080825280601f01601f19166020018201604052801561156b576020820181803683370190505b509050600360fc1b8160008151811061159457634e487b7160e01b600052603260045260246000fd5b60200101906001600160f81b031916908160001a905350600f60fb1b816001815181106115d157634e487b7160e01b600052603260045260246000fd5b60200101906001600160f81b031916908160001a90535060006115f584600261233a565b611600906001612302565b90505b6001811115611694576f181899199a1a9b1b9c1cb0b131b232b360811b85600f166010811061164257634e487b7160e01b600052603260045260246000fd5b1a60f81b82828151811061166657634e487b7160e01b600052603260045260246000fd5b60200101906001600160f81b031916908160001a90535060049490941c9361168d81612389565b9050611603565b5083156113c75760405162461bcd60e51b815260206004820181905260248201527f537472696e67733a20686578206c656e67746820696e73756666696369656e74604482015260640161055f565b6000805160206123e2833981519152546001600160a01b031690565b803b6117635760405162461bcd60e51b815260206004820152602d60248201527f455243313936373a206e657720696d706c656d656e746174696f6e206973206e60448201526c1bdd08184818dbdb9d1c9858dd609a1b606482015260840161055f565b6000805160206123e283398151915280546001600160a01b0319166001600160a01b0392909216919091179055565b6060823b6117f15760405162461bcd60e51b815260206004820152602660248201527f416464726573733a2064656c65676174652063616c6c20746f206e6f6e2d636f6044820152651b9d1c9858dd60d21b606482015260840161055f565b600080846001600160a01b03168460405161180c9190612189565b600060405180830381855af49150503d8060008114611847576040519150601f19603f3d011682016040523d82523d6000602084013e61184c565b606091505b5091509150611874828260405180606001604052806027815260200161240260279139611a7d565b95945050505050565b60006104a461188a611ab6565b8360405161190160f01b6020820152602281018390526042810182905260009060620160405160208183030381529060405280519060200120905092915050565b6000806000808451604114156118f55750505060208201516040830151606084015160001a61196b565b8451604014156119235750505060408201516020830151906001600160ff1b0381169060ff1c601b0161196b565b60405162461bcd60e51b815260206004820152601f60248201527f45434453413a20696e76616c6964207369676e6174757265206c656e67746800604482015260640161055f565b61197786828585611b33565b9695505050505050565b611989611cc4565b6119916113d8565b6113d6600033611d22565b600054610100900460ff16806119b5575060005460ff16155b6119d15760405162461bcd60e51b815260040161055f90612284565b600054610100900460ff16158015611447576000805461ffff1916610101179055801561059a576000805461ff001916905550565b600054610100900460ff1680611a1f575060005460ff16155b611a3b5760405162461bcd60e51b815260040161055f90612284565b600054610100900460ff16158015611a5d576000805461ffff19166101011790555b611a678383611d2c565b8015610485576000805461ff0019169055505050565b60608315611a8c5750816113c7565b825115611a9c5782518084602001fd5b8160405162461bcd60e51b815260040161055f9190612251565b60006110147f8b73c3c69bb8fe3d512ecc4cf759cc79239f7b179b0ffacaa9a75d522b39400f611ae661015f5490565b610160546040805160208101859052908101839052606081018290524660808201523060a082015260009060c0016040516020818303038152906040528051906020012090509392505050565b60006fa2a8918ca85bafe22016d0b997e4df60600160ff1b03821115611ba65760405162461bcd60e51b815260206004820152602260248201527f45434453413a20696e76616c6964207369676e6174757265202773272076616c604482015261756560f01b606482015260840161055f565b8360ff16601b1480611bbb57508360ff16601c145b611c125760405162461bcd60e51b815260206004820152602260248201527f45434453413a20696e76616c6964207369676e6174757265202776272076616c604482015261756560f01b606482015260840161055f565b6040805160008082526020820180845288905260ff871692820192909252606081018590526080810184905260019060a0016020604051602081039080840390855afa158015611c66573d6000803e3d6000fd5b5050604051601f1901519150506001600160a01b0381166118745760405162461bcd60e51b815260206004820152601860248201527745434453413a20696e76616c6964207369676e617475726560401b604482015260640161055f565b600054610100900460ff1680611cdd575060005460ff16155b611cf95760405162461bcd60e51b815260040161055f90612284565b600054610100900460ff16158015611437576000805461ffff191661010117905561143f61199c565b610572828261107d565b600054610100900460ff1680611d45575060005460ff16155b611d615760405162461bcd60e51b815260040161055f90612284565b600054610100900460ff16158015611d83576000805461ffff19166101011790555b825160208085019190912083519184019190912061015f91909155610160558015610485576000805461ff0019169055505050565b600082601f830112611dc8578081fd5b813560206001600160401b03821115611de357611de36123b6565b8160051b611df28282016122d2565b838152828101908684018388018501891015611e0c578687fd5b8693505b85841015611e2e578035835260019390930192918401918401611e10565b50979650505050505050565b600082601f830112611e4a578081fd5b81356001600160401b03811115611e6357611e636123b6565b611e76601f8201601f19166020016122d2565b818152846020838601011115611e8a578283fd5b816020850160208301379081016020019190915292915050565b600060208284031215611eb5578081fd5b81356113c7816123cc565b600080600080600060a08688031215611ed7578081fd5b8535611ee2816123cc565b94506020860135611ef2816123cc565b935060408601356001600160401b0380821115611f0d578283fd5b611f1989838a01611db8565b94506060880135915080821115611f2e578283fd5b611f3a89838a01611db8565b93506080880135915080821115611f4f578283fd5b50611f5c88828901611e3a565b9150509295509295909350565b600080600080600060a08688031215611f80578081fd5b8535611f8b816123cc565b94506020860135611f9b816123cc565b9350604086013592506060860135915060808601356001600160401b03811115611fc3578182fd5b611f5c88828901611e3a565b60008060408385031215611fe1578182fd5b8235611fec816123cc565b915060208301356001600160401b03811115612006578182fd5b61201285828601611e3a565b9150509250929050565b6000806040838503121561202e578182fd5b8235612039816123cc565b946020939093013593505050565b60008060008060006080868803121561205e578081fd5b8535612069816123cc565b9450602086013593506040860135925060608601356001600160401b0380821115612092578283fd5b818801915088601f8301126120a5578283fd5b8135818111156120b3578384fd5b8960208285010111156120c4578384fd5b9699959850939650602001949392505050565b6000602082840312156120e8578081fd5b5035919050565b60008060408385031215612101578182fd5b823591506020830135612113816123cc565b809150509250929050565b60006020828403121561212f578081fd5b81356001600160e01b0319811681146113c7578182fd5b600060208284031215612157578081fd5b5051919050565b600080600060608486031215612172578081fd5b505081359360208301359350604090920135919050565b6000825161219b818460208701612359565b9190910192915050565b76020b1b1b2b9b9a1b7b73a3937b61d1030b1b1b7bab73a1604d1b8152600083516121d7816017850160208801612359565b7001034b99036b4b9b9b4b733903937b6329607d1b6017918401918201528351612208816028840160208801612359565b01602801949350505050565b6001600160a01b0391909116815260200190565b6001600160a01b0394851681529290931660208301526040820152606081019190915260800190565b6020815260008251806020840152612270816040850160208701612359565b601f01601f19169190910160400192915050565b6020808252602e908201527f496e697469616c697a61626c653a20636f6e747261637420697320616c72656160408201526d191e481a5b9a5d1a585b1a5e995960921b606082015260800190565b604051601f8201601f191681016001600160401b03811182821017156122fa576122fa6123b6565b604052919050565b60008219821115612315576123156123a0565b500190565b60008261233557634e487b7160e01b81526012600452602481fd5b500490565b6000816000190483118215151615612354576123546123a0565b500290565b60005b8381101561237457818101518382015260200161235c565b83811115612383576000848401525b50505050565b600081612398576123986123a0565b506000190190565b634e487b7160e01b600052601160045260246000fd5b634e487b7160e01b600052604160045260246000fd5b6001600160a01b038116811461059a57600080fdfe360894a13ba1a3210667c828492db98dca3e2076cc3735a920a3ca505d382bbc416464726573733a206c6f772d6c6576656c2064656c65676174652063616c6c206661696c65643d2e894c222ba979e2dce2c7d940c0e9bb14306669e9f034eb1bb3979a2069d8ab6d842310ede8efb59f5a0e3e5baae24ab3d2229acf8511623722ce39ab3bdea264697066735822122082e26e9312e2dc5cad22afde348ab47aa121ee73ffcaaf72a0833a5c196bf8d564736f6c63430008040033",
  "immutableReferences": {},
  "source": "pragma solidity ^0.8.0;\n\nimport \"./SimpleAuction.sol\";\n\n/** A test contract to test upgradeability\n*/\ncontract TestAuction2 is SimpleAuction {\n    function testForceSettle(address seller, uint256 nftId) public {\n        Bid storage bid = sellerNftBids[seller][nftId];\n        bid.closeTimeSec = 1;\n        settleAuction(seller, nftId);\n    }\n}\n",
  "sourcePath": "/home/nadtech/Visual_Studio/Freeport-Smart-Contracts/contracts/TestAuction2.sol",
  "compiler": {
    "name": "solc",
    "version": "0.8.4+commit.c7e474f2.Emscripten.clang"
  },
  "schemaVersion": "3.4.4",
  "updatedAt": "2022-02-08T16:12:43.718Z",
  "devdoc": {
    "kind": "dev",
    "methods": {
      "getRoleAdmin(bytes32)": {
        "details": "Returns the admin role that controls `role`. See {grantRole} and {revokeRole}. To change a role's admin, use {_setRoleAdmin}."
      },
      "grantRole(bytes32,address)": {
        "details": "Grants `role` to `account`. If `account` had not been already granted `role`, emits a {RoleGranted} event. Requirements: - the caller must have ``role``'s admin role."
      },
      "hasRole(bytes32,address)": {
        "details": "Returns `true` if `account` has been granted `role`."
      },
      "renounceRole(bytes32,address)": {
        "details": "Revokes `role` from the calling account. Roles are often managed via {grantRole} and {revokeRole}: this function's purpose is to provide a mechanism for accounts to lose their privileges if they are compromised (such as when a trusted device is misplaced). If the calling account had been granted `role`, emits a {RoleRevoked} event. Requirements: - the caller must be `account`."
      },
      "revokeRole(bytes32,address)": {
        "details": "Revokes `role` from `account`. If `account` had been granted `role`, emits a {RoleRevoked} event. Requirements: - the caller must have ``role``'s admin role."
      }
    },
    "version": 1
  },
  "userdoc": {
    "events": {
      "BidOnAuction(address,uint256,uint256,uint256,address)": {
        "notice": "Note: `price`, `closeTimeSec`, and `buyer` may have changed for the auction `(seller, nftId)`."
      },
      "SettleAuction(address,uint256,uint256,address)": {
        "notice": "Note: `buyer == 0` means no buyer, and the NFT went back to the seller."
      },
      "StartAuction(address,uint256,uint256,uint256)": {
        "notice": "Note: `price` is the minimum price minus 10%, because a bid must be 10% higher, resulting in the requested minimum price."
      }
    },
    "kind": "user",
    "methods": {
      "CURRENCY()": {
        "notice": "The token ID that represents the CERE currency for all payments in this contract. "
      },
      "initialize(address)": {
        "notice": "Initialize this contract and its dependencies."
      },
      "sellerNftBids(address,uint256)": {
        "notice": "Seller => NFT ID => Bid."
      },
      "supportsInterface(bytes4)": {
        "notice": "Supports interfaces of AccessControl and ERC1155Receiver."
      }
    },
    "notice": "A test contract to test upgradeability",
    "version": 1
  }
}