{
  "contractName": "Tether",
  "abi": [
    {
      "inputs": [
        {
          "internalType": "uint256",
          "name": "initialSupply",
          "type": "uint256"
        }
      ],
      "stateMutability": "nonpayable",
      "type": "constructor"
    },
    {
      "anonymous": false,
      "inputs": [
        {
          "indexed": true,
          "internalType": "address",
          "name": "owner",
          "type": "address"
        },
        {
          "indexed": true,
          "internalType": "address",
          "name": "spender",
          "type": "address"
        },
        {
          "indexed": false,
          "internalType": "uint256",
          "name": "value",
          "type": "uint256"
        }
      ],
      "name": "Approval",
      "type": "event"
    },
    {
      "anonymous": false,
      "inputs": [
        {
          "indexed": true,
          "internalType": "address",
          "name": "from",
          "type": "address"
        },
        {
          "indexed": true,
          "internalType": "address",
          "name": "to",
          "type": "address"
        },
        {
          "indexed": false,
          "internalType": "uint256",
          "name": "value",
          "type": "uint256"
        }
      ],
      "name": "Transfer",
      "type": "event"
    },
    {
      "inputs": [
        {
          "internalType": "address",
          "name": "owner",
          "type": "address"
        },
        {
          "internalType": "address",
          "name": "spender",
          "type": "address"
        }
      ],
      "name": "allowance",
      "outputs": [
        {
          "internalType": "uint256",
          "name": "",
          "type": "uint256"
        }
      ],
      "stateMutability": "view",
      "type": "function"
    },
    {
      "inputs": [
        {
          "internalType": "address",
          "name": "spender",
          "type": "address"
        },
        {
          "internalType": "uint256",
          "name": "amount",
          "type": "uint256"
        }
      ],
      "name": "approve",
      "outputs": [
        {
          "internalType": "bool",
          "name": "",
          "type": "bool"
        }
      ],
      "stateMutability": "nonpayable",
      "type": "function"
    },
    {
      "inputs": [
        {
          "internalType": "address",
          "name": "account",
          "type": "address"
        }
      ],
      "name": "balanceOf",
      "outputs": [
        {
          "internalType": "uint256",
          "name": "",
          "type": "uint256"
        }
      ],
      "stateMutability": "view",
      "type": "function"
    },
    {
      "inputs": [],
      "name": "decimals",
      "outputs": [
        {
          "internalType": "uint8",
          "name": "",
          "type": "uint8"
        }
      ],
      "stateMutability": "view",
      "type": "function"
    },
    {
      "inputs": [
        {
          "internalType": "address",
          "name": "spender",
          "type": "address"
        },
        {
          "internalType": "uint256",
          "name": "subtractedValue",
          "type": "uint256"
        }
      ],
      "name": "decreaseAllowance",
      "outputs": [
        {
          "internalType": "bool",
          "name": "",
          "type": "bool"
        }
      ],
      "stateMutability": "nonpayable",
      "type": "function"
    },
    {
      "inputs": [
        {
          "internalType": "address",
          "name": "spender",
          "type": "address"
        },
        {
          "internalType": "uint256",
          "name": "addedValue",
          "type": "uint256"
        }
      ],
      "name": "increaseAllowance",
      "outputs": [
        {
          "internalType": "bool",
          "name": "",
          "type": "bool"
        }
      ],
      "stateMutability": "nonpayable",
      "type": "function"
    },
    {
      "inputs": [],
      "name": "name",
      "outputs": [
        {
          "internalType": "string",
          "name": "",
          "type": "string"
        }
      ],
      "stateMutability": "view",
      "type": "function"
    },
    {
      "inputs": [],
      "name": "symbol",
      "outputs": [
        {
          "internalType": "string",
          "name": "",
          "type": "string"
        }
      ],
      "stateMutability": "view",
      "type": "function"
    },
    {
      "inputs": [],
      "name": "totalSupply",
      "outputs": [
        {
          "internalType": "uint256",
          "name": "",
          "type": "uint256"
        }
      ],
      "stateMutability": "view",
      "type": "function"
    },
    {
      "inputs": [
        {
          "internalType": "address",
          "name": "recipient",
          "type": "address"
        },
        {
          "internalType": "uint256",
          "name": "amount",
          "type": "uint256"
        }
      ],
      "name": "transfer",
      "outputs": [
        {
          "internalType": "bool",
          "name": "",
          "type": "bool"
        }
      ],
      "stateMutability": "nonpayable",
      "type": "function"
    },
    {
      "inputs": [
        {
          "internalType": "address",
          "name": "sender",
          "type": "address"
        },
        {
          "internalType": "address",
          "name": "recipient",
          "type": "address"
        },
        {
          "internalType": "uint256",
          "name": "amount",
          "type": "uint256"
        }
      ],
      "name": "transferFrom",
      "outputs": [
        {
          "internalType": "bool",
          "name": "",
          "type": "bool"
        }
      ],
      "stateMutability": "nonpayable",
      "type": "function"
    },
    {
      "inputs": [
        {
          "internalType": "address",
          "name": "buyer",
          "type": "address"
        }
      ],
      "name": "buy",
      "outputs": [],
      "stateMutability": "payable",
      "type": "function"
    }
  ],
  "bytecode": "0x60806040523480156200001157600080fd5b5060405162000d7138038062000d7183398101604081905262000034916200023e565b60408051808201825260068152652a32ba3432b960d11b6020808301918252835180850190945260048452631554d11560e21b9084015281519192916200007e9160039162000198565b5080516200009490600490602084019062000198565b505050620000a93382620000b060201b60201c565b50620002b9565b6001600160a01b0382166200010b5760405162461bcd60e51b815260206004820152601f60248201527f45524332303a206d696e7420746f20746865207a65726f206164647265737300604482015260640160405180910390fd5b80600260008282546200011f919062000257565b90915550506001600160a01b038216600090815260208190526040812080548392906200014e90849062000257565b90915550506040518181526001600160a01b038316906000907fddf252ad1be2c89b69c2b068fc378daa952ba7f163c4a11628f55a4df523b3ef9060200160405180910390a35050565b828054620001a6906200027c565b90600052602060002090601f016020900481019282620001ca576000855562000215565b82601f10620001e557805160ff191683800117855562000215565b8280016001018555821562000215579182015b8281111562000215578251825591602001919060010190620001f8565b506200022392915062000227565b5090565b5b8082111562000223576000815560010162000228565b60006020828403121562000250578081fd5b5051919050565b600082198211156200027757634e487b7160e01b81526011600452602481fd5b500190565b600181811c908216806200029157607f821691505b60208210811415620002b357634e487b7160e01b600052602260045260246000fd5b50919050565b610aa880620002c96000396000f3fe6080604052600436106100975760003560e01c806306fdde031461009c578063095ea7b3146100c757806318160ddd146100f757806323b872dd14610116578063313ce56714610136578063395093511461015257806370a082311461017257806395d89b41146101a8578063a457c2d7146101bd578063a9059cbb146101dd578063dd62ed3e146101fd578063f088d54714610243575b600080fd5b3480156100a857600080fd5b506100b1610258565b6040516100be919061097f565b60405180910390f35b3480156100d357600080fd5b506100e76100e2366004610956565b6102ea565b60405190151581526020016100be565b34801561010357600080fd5b506002545b6040519081526020016100be565b34801561012257600080fd5b506100e761013136600461091b565b610300565b34801561014257600080fd5b50604051601281526020016100be565b34801561015e57600080fd5b506100e761016d366004610956565b6103b6565b34801561017e57600080fd5b5061010861018d3660046108c8565b6001600160a01b031660009081526020819052604090205490565b3480156101b457600080fd5b506100b16103ed565b3480156101c957600080fd5b506100e76101d8366004610956565b6103fc565b3480156101e957600080fd5b506100e76101f8366004610956565b610497565b34801561020957600080fd5b506101086102183660046108e9565b6001600160a01b03918216600090815260016020908152604080832093909416825291909152205490565b6102566102513660046108c8565b6104a4565b005b60606003805461026790610a01565b80601f016020809104026020016040519081016040528092919081815260200182805461029390610a01565b80156102e05780601f106102b5576101008083540402835291602001916102e0565b820191906000526020600020905b8154815290600101906020018083116102c357829003601f168201915b5050505050905090565b60006102f73384846104f5565b50600192915050565b600061030d848484610619565b6001600160a01b0384166000908152600160209081526040808320338452909152902054828110156103975760405162461bcd60e51b815260206004820152602860248201527f45524332303a207472616e7366657220616d6f756e74206578636565647320616044820152676c6c6f77616e636560c01b60648201526084015b60405180910390fd5b6103ab85336103a686856109ea565b6104f5565b506001949350505050565b3360008181526001602090815260408083206001600160a01b038716845290915281205490916102f79185906103a69086906109d2565b60606004805461026790610a01565b3360009081526001602090815260408083206001600160a01b03861684529091528120548281101561047e5760405162461bcd60e51b815260206004820152602560248201527f45524332303a2064656372656173656420616c6c6f77616e63652062656c6f77604482015264207a65726f60d81b606482015260840161038e565b61048d33856103a686856109ea565b5060019392505050565b60006102f7338484610619565b600034116104e85760405162461bcd60e51b8152602060048201526011602482015270056616c7565206d757374206265203e203607c1b604482015260640161038e565b6104f281346107df565b50565b6001600160a01b0383166105575760405162461bcd60e51b8152602060048201526024808201527f45524332303a20617070726f76652066726f6d20746865207a65726f206164646044820152637265737360e01b606482015260840161038e565b6001600160a01b0382166105b85760405162461bcd60e51b815260206004820152602260248201527f45524332303a20617070726f766520746f20746865207a65726f206164647265604482015261737360f01b606482015260840161038e565b6001600160a01b0383811660008181526001602090815260408083209487168084529482529182902085905590518481527f8c5be1e5ebec7d5bd14f71427d1e84f3dd0314c0f7b2291e5b200ac8c7c3b925910160405180910390a3505050565b6001600160a01b03831661067d5760405162461bcd60e51b815260206004820152602560248201527f45524332303a207472616e736665722066726f6d20746865207a65726f206164604482015264647265737360d81b606482015260840161038e565b6001600160a01b0382166106df5760405162461bcd60e51b815260206004820152602360248201527f45524332303a207472616e7366657220746f20746865207a65726f206164647260448201526265737360e81b606482015260840161038e565b6001600160a01b038316600090815260208190526040902054818110156107575760405162461bcd60e51b815260206004820152602660248201527f45524332303a207472616e7366657220616d6f756e7420657863656564732062604482015265616c616e636560d01b606482015260840161038e565b61076182826109ea565b6001600160a01b0380861660009081526020819052604080822093909355908516815290812080548492906107979084906109d2565b92505081905550826001600160a01b0316846001600160a01b0316600080516020610a53833981519152846040516107d191815260200190565b60405180910390a350505050565b6001600160a01b0382166108355760405162461bcd60e51b815260206004820152601f60248201527f45524332303a206d696e7420746f20746865207a65726f206164647265737300604482015260640161038e565b806002600082825461084791906109d2565b90915550506001600160a01b038216600090815260208190526040812080548392906108749084906109d2565b90915550506040518181526001600160a01b03831690600090600080516020610a538339815191529060200160405180910390a35050565b80356001600160a01b03811681146108c357600080fd5b919050565b6000602082840312156108d9578081fd5b6108e2826108ac565b9392505050565b600080604083850312156108fb578081fd5b610904836108ac565b9150610912602084016108ac565b90509250929050565b60008060006060848603121561092f578081fd5b610938846108ac565b9250610946602085016108ac565b9150604084013590509250925092565b60008060408385031215610968578182fd5b610971836108ac565b946020939093013593505050565b6000602080835283518082850152825b818110156109ab5785810183015185820160400152820161098f565b818111156109bc5783604083870101525b50601f01601f1916929092016040019392505050565b600082198211156109e5576109e5610a3c565b500190565b6000828210156109fc576109fc610a3c565b500390565b600181811c90821680610a1557607f821691505b60208210811415610a3657634e487b7160e01b600052602260045260246000fd5b50919050565b634e487b7160e01b600052601160045260246000fdfeddf252ad1be2c89b69c2b068fc378daa952ba7f163c4a11628f55a4df523b3efa264697066735822122022ba9efd73c023b81f9ea2d40ed91c73144818339fe15d9749b054099e775c9064736f6c63430008040033",
  "immutableReferences": {},
  "source": "pragma solidity ^0.8.0;\n\nimport \"@openzeppelin/contracts/token/ERC20/ERC20.sol\";\n\ncontract Tether is ERC20 {\n\n    constructor(uint256 initialSupply) ERC20(\"Tether\", \"USDT\") {\n        _mint(msg.sender, initialSupply);\n    }\n\n    function buy(address buyer) external payable {\n      require(msg.value > 0, \"Value must be > 0\");\n      _mint(buyer, msg.value);\n    }\n\n}\n",
  "sourcePath": "/home/nadtech/Visual Studio/Freeport-Smart-Contracts/contracts/misc/Tether.sol",
  "compiler": {
    "name": "solc",
    "version": "0.8.4+commit.c7e474f2.Emscripten.clang"
  },
  "schemaVersion": "3.4.3",
  "updatedAt": "2021-12-30T16:26:30.441Z",
  "devdoc": {
    "kind": "dev",
    "methods": {
      "allowance(address,address)": {
        "details": "See {IERC20-allowance}."
      },
      "approve(address,uint256)": {
        "details": "See {IERC20-approve}. Requirements: - `spender` cannot be the zero address."
      },
      "balanceOf(address)": {
        "details": "See {IERC20-balanceOf}."
      },
      "decimals()": {
        "details": "Returns the number of decimals used to get its user representation. For example, if `decimals` equals `2`, a balance of `505` tokens should be displayed to a user as `5,05` (`505 / 10 ** 2`). Tokens usually opt for a value of 18, imitating the relationship between Ether and Wei. This is the value {ERC20} uses, unless this function is overridden; NOTE: This information is only used for _display_ purposes: it in no way affects any of the arithmetic of the contract, including {IERC20-balanceOf} and {IERC20-transfer}."
      },
      "decreaseAllowance(address,uint256)": {
        "details": "Atomically decreases the allowance granted to `spender` by the caller. This is an alternative to {approve} that can be used as a mitigation for problems described in {IERC20-approve}. Emits an {Approval} event indicating the updated allowance. Requirements: - `spender` cannot be the zero address. - `spender` must have allowance for the caller of at least `subtractedValue`."
      },
      "increaseAllowance(address,uint256)": {
        "details": "Atomically increases the allowance granted to `spender` by the caller. This is an alternative to {approve} that can be used as a mitigation for problems described in {IERC20-approve}. Emits an {Approval} event indicating the updated allowance. Requirements: - `spender` cannot be the zero address."
      },
      "name()": {
        "details": "Returns the name of the token."
      },
      "symbol()": {
        "details": "Returns the symbol of the token, usually a shorter version of the name."
      },
      "totalSupply()": {
        "details": "See {IERC20-totalSupply}."
      },
      "transfer(address,uint256)": {
        "details": "See {IERC20-transfer}. Requirements: - `recipient` cannot be the zero address. - the caller must have a balance of at least `amount`."
      },
      "transferFrom(address,address,uint256)": {
        "details": "See {IERC20-transferFrom}. Emits an {Approval} event indicating the updated allowance. This is not required by the EIP. See the note at the beginning of {ERC20}. Requirements: - `sender` and `recipient` cannot be the zero address. - `sender` must have a balance of at least `amount`. - the caller must have allowance for ``sender``'s tokens of at least `amount`."
      }
    },
    "version": 1
  },
  "userdoc": {
    "kind": "user",
    "methods": {},
    "version": 1
  }
}